{
	"SVG-MVP_football_ERC1155/contracts/players.sol": {
		"AndyPelmard": {
			"abi": [
				{
					"inputs": [],
					"name": "svg",
					"outputs": [
						{
							"internalType": "string",
							"name": "",
							"type": "string"
						}
					],
					"stateMutability": "view",
					"type": "function"
				}
			],
			"devdoc": {
				"kind": "dev",
				"methods": {},
				"version": 1
			},
			"evm": {
				"assembly": "    /* \"SVG-MVP_football_ERC1155/contracts/players.sol\":15869:21334  contract AndyPelmard {... */\n  mstore(0x40, 0x80)\n    /* \"SVG-MVP_football_ERC1155/contracts/players.sol\":15894:21331  string public svg = '<path style=\"fill:#0f3b86\" d=\"M -0.29633971,580.94985 C -22.746994,418.35507 119.87992,-8.2354199 289.24775,2.1730689 326.03452,6.2230628 377.44514,5.8707037 411.04026,9.3036278 514.41015,41.675241 504.99281,171.00928 503.0017,255.82243 469.57952,341.18313 382.34717,465.43558 259.51502,507.99467 152.04118,567.49901 89.855126,517.73168 -0.29633971,580.94985 Z M 278.30522,304.18816 c 20.9798,-7.7355 29.65745,-12.71628 39.26437,-22.53688 6.93679,-7.09108 10.33962,-9.54382 14.79831,-10.66652 3.18456,-0.8019 6.56049,-2.35744 7.50207,-3.45679 0.94158,-1.09935 4.72118,-5.20327 8.39913,-9.11983 3.67795,-3.91656 8.17795,-9.30949 10,-11.98428 4.3361,-6.48834 6.71415,-5.04664 11.51653,-0.88149 2.50567,2.2 4.99812,4 5.53879,4 0.54068,0 5.96793,-5.01091 12.06056,-11.13536 11.44538,-9.70265 11.71158,-13.06266 16.21957,-26.76511 9.65036,-22.74212 2.73011,-44.61692 -8.83218,-65.91909 -4.24066,-7.38198 -12.864,-19.21237 -18.28734,-25.08844 -2.153,-2.33273 -6.38697,-7.99005 -9.40882,-12.57183 -5.41903,-8.216395 -5.64951,-8.381459 -16.82762,-12.051088 -6.23333,-2.046324 -16.16029,-4.603839 -22.05992,-5.683364 -27.44269,-5.021526 -29.74058,-5.846188 -41.79309,-14.998571 -3.68797,-2.800551 -7.79324,-4.521683 -12.24587,-5.134076 -5.78873,-0.796154 -7.37206,-0.475183 -11.66273,2.364244 -17.23654,9.817026 -30.28699,22.220276 -45.57172,27.578525 -6.51692,2.26316 -10.98177,5.1022 -18,11.44556 -15.20388,11.0287 -3.55742,26.98752 10.19647,30.4292 1.9414,0.46466 6.04817,2.94887 9.12616,5.52046 3.07798,2.57158 6.22242,4.67561 6.98765,4.67561 2.68508,0 -0.14777,17.57163 -3.70339,22.97141 -1.80046,2.73428 -3.27725,5.73428 -3.28177,6.66667 -0.004,0.93239 -1.03152,3.49525 -2.28223,5.69525 -5.34513,9.40215 -5.58362,70.62183 -0.36636,94.04427 2.21606,9.9488 3.6246,13.27232 7.68231,18.12662 5.36136,6.41392 6.52923,6.91507 17.64116,7.57016 22.52579,1.32799 26.22372,1.02186 37.38996,-3.09526 z m -48.58985,-12.19323 c -2.93907,-4.19611 -0.3691,-6.81984 5.21682,-5.32593 3.03576,0.81188 3.98307,1.83518 3.98307,4.30264 0,4.58812 -6.21852,5.2798 -9.19989,1.02329 z m 3.23465,-16.19448 c -8.70463,-2.99071 -9.63571,-11.59141 -1.25485,-11.59141 4.50241,0 18.55342,5.03904 18.55342,6.65372 0,1.51238 -8.50086,6.69924 -10.82404,6.60436 -1.01345,-0.0413 -3.92698,-0.7914 -6.47453,-1.66667 z m -2.5266,-17.38076 c -2.03291,-2.44951 -0.56259,-3.54399 4.76097,-3.54399 7.29042,-0.24962 0.97908,-3.03684 3.0341,-6.61794 0.92305,-1.49354 1.83352,-1.51087 5.24029,-0.0997 4.28627,1.77544 5.13148,3.27046 2.69892,4.77386 -1.78091,1.82671 0.49707,4.76771 -1.53061,6.15014 -2.75303,1.74684 -12.58472,1.28839 -14.20367,-0.66233 z m 40.09184,-6.47732 c -0.88,-0.88 -1.6,-4.224 -1.6,-7.43109 0,-4.78919 0.40837,-5.75246 2.28545,-5.39098 3.87719,0.74668 5.79551,14.42207 2.02306,14.42207 -0.60968,0 -1.82851,-0.72 -2.70851,-1.6 z m -51.70593,-9.86076 c 1.5036,-6.10875 4.53708,-9.87257 7.95685,-9.87257 4.68125,0 9.45623,-4.46776 12.05907,-11.2832 1.2772,-3.34432 3.50846,-6.71544 4.95834,-7.4914 2.02298,-1.08266 2.44739,-2.27026 1.82464,-5.10566 -0.54864,-2.49793 -0.14445,-4.24846 1.24775,-5.40388 2.63327,-2.18542 2.65188,-7.23086 0.0347,-9.40296 -1.11354,-0.92414 -2.98191,-3.69761 -4.15194,-6.16325 -1.17,-2.46564 -2.51549,-4.48299 -2.98994,-4.48299 -0.47446,0 -3.2561,-2.09825 -6.18142,-4.66278 -4.12788,-3.61878 -4.90736,-4.9288 -3.48136,-5.85088 2.4516,-1.58524 14.56316,-3.14152 16.26466,-2.08993 0.74145,0.45824 2.07181,0.2644 2.95634,-0.43075 0.88455,-0.69516 4.40971,-1.62868 7.83368,-2.07449 5.94142,-0.77359 6.34292,-0.61473 8.80155,3.48247 1.41688,2.36116 4.91544,5.46449 7.77459,6.89627 2.85914,1.43178 5.95585,3.16139 6.88156,3.84357 2.66032,1.96047 -0.56668,4.78309 -6.56492,5.74225 -3.4052,0.54451 -6.22392,2.09519 -8.16018,4.48919 -1.6269,2.01154 -4.33685,4.36838 -6.02209,5.23742 -2.14345,1.10533 -2.82593,2.3304 -2.27147,4.07734 0.47664,1.50178 -1.129,6.38546 -4.02785,12.25106 -2.95895,5.98718 -4.58667,10.97668 -4.21508,12.92053 1.14192,5.9736 -1.58292,12.12989 -6.38169,14.41827 -4.2486,2.02601 -4.64772,1.99025 -8.10078,-0.72594 -4.76388,-3.74726 -6.39368,-3.60893 -5.61272,0.4764 0.40178,2.10172 0.0281,3.33334 -1.01122,3.33334 -0.90664,0 -3.61175,0.39266 -6.01134,0.87257 -4.26976,0.85396 -4.34254,0.78992 -3.4097,-3 z m 90.72421,2.04913 c -0.47984,-0.7764 0.61804,-3.6264 2.43972,-6.33333 2.33004,-3.46235 3.51913,-7.42391 4.01019,-13.36037 0.38392,-4.64127 1.06064,-8.80127 1.50381,-9.24446 1.58421,-1.5842 3.92171,2.39344 4.69537,7.98996 0.61234,4.4295 1.29891,5.6062 3.09316,5.30138 3.97939,-0.67604 2.56552,3.66201 -2.08849,6.40794 -2.41704,1.4261 -5.735,4.40586 -7.37324,6.6217 -3.13653,4.2424 -4.83791,4.95137 -6.28052,2.61718 z M 216.1373,222.54237 c 0.47192,-2.38333 0.87488,-5.41555 0.89547,-6.73824 0.0456,-2.92688 3.51461,-4.49631 5.51561,-2.49531 1.0496,1.0496 0.9832,2.02098 -0.2388,3.49339 -0.93096,1.12175 -1.36599,2.8908 -0.96673,3.93124 0.6958,1.81325 -2.8403,6.14225 -5.01724,6.14225 -0.5755,0 -0.66023,-1.95 -0.18831,-4.33333 z m 59.5414,-0.51315 c -2.85639,-3.63129 -3.64092,-7.15352 -1.59336,-7.15352 1.75964,0 3.6904,2.89318 4.67147,7 1.09408,4.57991 0.42974,4.61304 -3.07811,0.15352 z M 233.58193,206.2204 c -0.73334,-0.24463 -3.03511,-0.82168 -5.11504,-1.28235 l -3.78171,-0.83756 4.96504,-3.94573 c 5.8356,-4.63755 6.17459,-4.69396 9.05839,-1.5074 2.79344,3.08672 2.77186,4.17197 -0.12667,6.37228 -2.43056,1.84506 -2.80151,1.93414 -5,1.20076 z\" transform=\"translate(-60 0) scale(0.9)\"/>' */\n  mload(0x40)\n  dup1\n  0x1560\n  add\n  0x40\n  mstore\n  dup1\n  0x1527\n  dup2\n  mstore\n  0x20\n  add\n  data_2e84e16ceca18374bd5b724f50512a4335e17efdccedf7b880c0602cf432a1d1\n  0x1527\n  swap2\n  codecopy\n  0x00\n  swap1\n  dup1\n  mload\n  swap1\n  0x20\n  add\n  swap1\n  tag_1\n  swap3\n  swap2\n  swap1\n  tag_2\n  jump\t// in\ntag_1:\n  pop\n    /* \"SVG-MVP_football_ERC1155/contracts/players.sol\":15869:21334  contract AndyPelmard {... */\n  callvalue\n  dup1\n  iszero\n  tag_3\n  jumpi\n  0x00\n  dup1\n  revert\ntag_3:\n  pop\n  jump(tag_4)\ntag_2:\n  dup3\n  dup1\n  sload\n  tag_5\n  swap1\n  tag_6\n  jump\t// in\ntag_5:\n  swap1\n  0x00\n  mstore\n  keccak256(0x00, 0x20)\n  swap1\n  0x1f\n  add\n  0x20\n  swap1\n  div\n  dup2\n  add\n  swap3\n  dup3\n  tag_8\n  jumpi\n  0x00\n  dup6\n  sstore\n  jump(tag_7)\ntag_8:\n  dup3\n  0x1f\n  lt\n  tag_9\n  jumpi\n  dup1\n  mload\n  not(0xff)\n  and\n  dup4\n  dup1\n  add\n  or\n  dup6\n  sstore\n  jump(tag_7)\ntag_9:\n  dup3\n  dup1\n  add\n  0x01\n  add\n  dup6\n  sstore\n  dup3\n  iszero\n  tag_7\n  jumpi\n  swap2\n  dup3\n  add\ntag_10:\n  dup3\n  dup2\n  gt\n  iszero\n  tag_11\n  jumpi\n  dup3\n  mload\n  dup3\n  sstore\n  swap2\n  0x20\n  add\n  swap2\n  swap1\n  0x01\n  add\n  swap1\n  jump(tag_10)\ntag_11:\ntag_7:\n  pop\n  swap1\n  pop\n  tag_12\n  swap2\n  swap1\n  tag_13\n  jump\t// in\ntag_12:\n  pop\n  swap1\n  jump\t// out\ntag_13:\ntag_14:\n  dup1\n  dup3\n  gt\n  iszero\n  tag_15\n  jumpi\n  0x00\n  dup2\n  0x00\n  swap1\n  sstore\n  pop\n  0x01\n  add\n  jump(tag_14)\ntag_15:\n  pop\n  swap1\n  jump\t// out\n    /* \"#utility.yul\":7:327   */\ntag_6:\n    /* \"#utility.yul\":51:57   */\n  0x00\n    /* \"#utility.yul\":88:89   */\n  0x02\n    /* \"#utility.yul\":82:86   */\n  dup3\n    /* \"#utility.yul\":78:90   */\n  div\n    /* \"#utility.yul\":68:90   */\n  swap1\n  pop\n    /* \"#utility.yul\":135:136   */\n  0x01\n    /* \"#utility.yul\":129:133   */\n  dup3\n    /* \"#utility.yul\":125:137   */\n  and\n    /* \"#utility.yul\":156:174   */\n  dup1\n    /* \"#utility.yul\":146:227   */\n  tag_18\n  jumpi\n    /* \"#utility.yul\":212:216   */\n  0x7f\n    /* \"#utility.yul\":204:210   */\n  dup3\n    /* \"#utility.yul\":200:217   */\n  and\n    /* \"#utility.yul\":190:217   */\n  swap2\n  pop\n    /* \"#utility.yul\":146:227   */\ntag_18:\n    /* \"#utility.yul\":274:276   */\n  0x20\n    /* \"#utility.yul\":266:272   */\n  dup3\n    /* \"#utility.yul\":263:277   */\n  lt\n    /* \"#utility.yul\":243:261   */\n  dup2\n    /* \"#utility.yul\":240:278   */\n  eq\n    /* \"#utility.yul\":237:321   */\n  iszero\n  tag_19\n  jumpi\n    /* \"#utility.yul\":293:311   */\n  tag_20\n  tag_21\n  jump\t// in\ntag_20:\n    /* \"#utility.yul\":237:321   */\ntag_19:\n    /* \"#utility.yul\":58:327   */\n  pop\n    /* \"#utility.yul\":7:327   */\n  swap2\n  swap1\n  pop\n  jump\t// out\n    /* \"#utility.yul\":333:513   */\ntag_21:\n    /* \"#utility.yul\":381:458   */\n  0x4e487b7100000000000000000000000000000000000000000000000000000000\n    /* \"#utility.yul\":378:379   */\n  0x00\n    /* \"#utility.yul\":371:459   */\n  mstore\n    /* \"#utility.yul\":478:482   */\n  0x22\n    /* \"#utility.yul\":475:476   */\n  0x04\n    /* \"#utility.yul\":468:483   */\n  mstore\n    /* \"#utility.yul\":502:506   */\n  0x24\n    /* \"#utility.yul\":499:500   */\n  0x00\n    /* \"#utility.yul\":492:507   */\n  revert\n    /* \"SVG-MVP_football_ERC1155/contracts/players.sol\":15869:21334  contract AndyPelmard {... */\ntag_4:\n  dataSize(sub_0)\n  dup1\n  dataOffset(sub_0)\n  0x00\n  codecopy\n  0x00\n  return\nstop\ndata_2e84e16ceca18374bd5b724f50512a4335e17efdccedf7b880c0602cf432a1d1 3c70617468207374796c653d2266696c6c3a233066336238362220643d224d202d302e32393633333937312c3538302e39343938352043202d32322e3734363939342c3431382e3335353037203131392e38373939322c2d382e32333534313939203238392e32343737352c322e31373330363839203332362e30333435322c362e32323330363238203337372e34343531342c352e38373037303337203431312e30343032362c392e33303336323738203531342e34313031352c34312e363735323431203530342e39393238312c3137312e3030393238203530332e303031372c3235352e3832323433203436392e35373935322c3334312e3138333133203338322e33343731372c3436352e3433353538203235392e35313530322c3530372e3939343637203135322e30343131382c3536372e34393930312038392e3835353132362c3531372e3733313638202d302e32393633333937312c3538302e3934393835205a204d203237382e33303532322c3330342e313838313620632032302e393739382c2d372e373335352032392e36353734352c2d31322e37313632382033392e32363433372c2d32322e353336383820362e39333637392c2d372e30393130382031302e33333936322c2d392e35343338322031342e37393833312c2d31302e363636353220332e31383435362c2d302e3830313920362e35363034392c2d322e333537343420372e35303230372c2d332e343536373920302e39343135382c2d312e303939333520342e37323131382c2d352e323033323720382e33393931332c2d392e313139383320332e36373739352c2d332e393136353620382e31373739352c2d392e33303934392031302c2d31312e393834323820342e333336312c2d362e343838333420362e37313431352c2d352e30343636342031312e35313635332c2d302e383831343920322e35303536372c322e3220342e39393831322c3420352e35333837392c3420302e35343036382c3020352e39363739332c2d352e30313039312031322e30363035362c2d31312e31333533362031312e34343533382c2d392e37303236352031312e37313135382c2d31332e30363236362031362e32313935372c2d32362e373635313120392e36353033362c2d32322e373432313220322e37333031312c2d34342e3631363932202d382e38333231382c2d36352e3931393039202d342e32343036362c2d372e3338313938202d31322e3836342c2d31392e3231323337202d31382e32383733342c2d32352e3038383434202d322e3135332c2d322e3333323733202d362e33383639372c2d372e3939303035202d392e34303838322c2d31322e3537313833202d352e34313930332c2d382e323136333935202d352e36343935312c2d382e333831343539202d31362e38323736322c2d31322e303531303838202d362e32333333332c2d322e303436333234202d31362e31363032392c2d342e363033383339202d32322e30353939322c2d352e363833333634202d32372e34343236392c2d352e303231353236202d32392e37343035382c2d352e383436313838202d34312e37393330392c2d31342e393938353731202d332e36383739372c2d322e383030353531202d372e37393332342c2d342e353231363833202d31322e32343538372c2d352e313334303736202d352e37383837332c2d302e373936313534202d372e33373230362c2d302e343735313833202d31312e36363237332c322e333634323434202d31372e32333635342c392e383137303236202d33302e32383639392c32322e323230323736202d34352e35373137322c32372e353738353235202d362e35313639322c322e3236333136202d31302e39383137372c352e31303232202d31382c31312e3434353536202d31352e32303338382c31312e30323837202d332e35353734322c32362e39383735322031302e31393634372c33302e3432393220312e393431342c302e343634363620362e30343831372c322e393438383720392e31323631362c352e353230343620332e30373739382c322e353731353820362e32323234322c342e363735363120362e39383736352c342e363735363120322e36383530382c30202d302e31343737372c31372e3537313633202d332e37303333392c32322e3937313431202d312e38303034362c322e3733343238202d332e32373732352c352e3733343238202d332e32383137372c362e3636363637202d302e3030342c302e3933323339202d312e30333135322c332e3439353235202d322e32383232332c352e3639353235202d352e33343531332c392e3430323135202d352e35383336322c37302e3632313833202d302e33363633362c39342e303434323720322e32313630362c392e3934383820332e363234362c31332e323732333220372e36383233312c31382e313236363220352e33363133362c362e343133393220362e35323932332c362e39313530372031372e36343131362c372e35373031362032322e35323537392c312e33323739392032362e32323337322c312e30323138362033372e33383939362c2d332e3039353236207a206d202d34382e35383938352c2d31322e31393332332063202d322e39333930372c2d342e3139363131202d302e333639312c2d362e383139383420352e32313638322c2d352e333235393320332e30333537362c302e383131383820332e39383330372c312e383335313820332e39383330372c342e333032363420302c342e3538383132202d362e32313835322c352e32373938202d392e31393938392c312e3032333239207a206d20332e32333436352c2d31362e31393434382063202d382e37303436332c2d322e3939303731202d392e36333537312c2d31312e3539313431202d312e32353438352c2d31312e353931343120342e35303234312c302031382e35353334322c352e30333930342031382e35353334322c362e363533373220302c312e3531323338202d382e35303038362c362e3639393234202d31302e38323430342c362e3630343336202d312e30313334352c2d302e30343133202d332e39323639382c2d302e37393134202d362e34373435332c2d312e3636363637207a206d202d322e353236362c2d31372e33383037362063202d322e30333239312c2d322e3434393531202d302e35363235392c2d332e353433393920342e37363039372c2d332e353433393920372e32393034322c2d302e323439363220302e39373930382c2d332e303336383420332e303334312c2d362e363137393420302e39323330352c2d312e343933353420312e38333335322c2d312e353130383720352e32343032392c2d302e3039393720342e32383632372c312e373735343420352e31333134382c332e323730343620322e36393839322c342e3737333836202d312e37383039312c312e383236373120302e34393730372c342e3736373731202d312e35333036312c362e3135303134202d322e37353330332c312e3734363834202d31322e35383437322c312e3238383339202d31342e32303336372c2d302e3636323333207a206d2034302e30393138342c2d362e34373733322063202d302e38382c2d302e3838202d312e362c2d342e323234202d312e362c2d372e343331303920302c2d342e373839313920302e34303833372c2d352e373532343620322e32383534352c2d352e333930393820332e38373731392c302e373436363820352e37393535312c31342e343232303720322e30323330362c31342e3432323037202d302e36303936382c30202d312e38323835312c2d302e3732202d322e37303835312c2d312e36207a206d202d35312e37303539332c2d392e3836303736206320312e353033362c2d362e313038373520342e35333730382c2d392e383732353720372e39353638352c2d392e383732353720342e36383132352c3020392e34353632332c2d342e34363737362031322e30353930372c2d31312e3238333220312e323737322c2d332e333434333220332e35303834362c2d362e373135343420342e39353833342c2d372e3439313420322e30323239382c2d312e303832363620322e34343733392c2d322e323730323620312e38323436342c2d352e3130353636202d302e35343836342c2d322e3439373933202d302e31343434352c2d342e323438343620312e32343737352c2d352e343033383820322e36333332372c2d322e313835343220322e36353138382c2d372e323330383620302e303334372c2d392e3430323936202d312e31313335342c2d302e3932343134202d322e39383139312c2d332e3639373631202d342e31353139342c2d362e3136333235202d312e31372c2d322e3436353634202d322e35313534392c2d342e3438323939202d322e39383939342c2d342e3438323939202d302e34373434362c30202d332e323536312c2d322e3039383235202d362e31383134322c2d342e3636323738202d342e31323738382c2d332e3631383738202d342e39303733362c2d342e39323838202d332e34383133362c2d352e383530383820322e343531362c2d312e35383532342031342e35363331362c2d332e31343135322031362e32363436362c2d322e303839393320302e37343134352c302e343538323420322e30373138312c302e3236343420322e39353633342c2d302e343330373520302e38383435352c2d302e363935313620342e34303937312c2d312e363238363820372e38333336382c2d322e303734343920352e39343134322c2d302e373733353920362e33343239322c2d302e363134373320382e38303135352c332e343832343720312e34313638382c322e333631313620342e39313534342c352e343634343920372e37373435392c362e383936323720322e38353931342c312e343331373820352e39353538352c332e313631333920362e38383135362c332e383433353720322e36363033322c312e3936303437202d302e35363636382c342e3738333039202d362e35363439322c352e3734323235202d332e343035322c302e3534343531202d362e32323339322c322e3039353139202d382e31363031382c342e3438393139202d312e363236392c322e3031313534202d342e33333638352c342e3336383338202d362e30323230392c352e3233373432202d322e31343334352c312e3130353333202d322e38323539332c322e33333034202d322e32373134372c342e303737333420302e34373636342c312e3530313738202d312e3132392c362e3338353436202d342e30323738352c31322e3235313036202d322e39353839352c352e3938373138202d342e35383636372c31302e3937363638202d342e32313530382c31322e393230353320312e31343139322c352e39373336202d312e35383239322c31322e3132393839202d362e33383136392c31342e3431383237202d342e323438362c322e3032363031202d342e36343737322c312e3939303235202d382e31303037382c2d302e3732353934202d342e37363338382c2d332e3734373236202d362e33393336382c2d332e3630383933202d352e36313237322c302e3437363420302e34303137382c322e313031373220302e303238312c332e3333333334202d312e30313132322c332e3333333334202d302e39303636342c30202d332e36313137352c302e3339323636202d362e30313133342c302e3837323537202d342e32363937362c302e3835333936202d342e33343235342c302e3738393932202d332e343039372c2d33207a206d2039302e37323432312c322e30343931332063202d302e34373938342c2d302e3737363420302e36313830342c2d332e3632363420322e34333937322c2d362e333333333320322e33333030342c2d332e343632333520332e35313931332c2d372e343233393120342e30313031392c2d31332e333630333720302e33383339322c2d342e363431323720312e30363036342c2d382e383031323720312e35303338312c2d392e323434343620312e35383432312c2d312e3538343220332e39323137312c322e333933343420342e36393533372c372e393839393620302e36313233342c342e3432393520312e32393839312c352e3630363220332e30393331362c352e333031333820332e39373933392c2d302e363736303420322e35363535322c332e3636323031202d322e30383834392c362e3430373934202d322e34313730342c312e34323631202d352e3733352c342e3430353836202d372e33373332342c362e36323137202d332e31333635332c342e32343234202d342e38333739312c342e3935313337202d362e32383035322c322e3631373138207a204d203231362e313337332c3232322e3534323337206320302e34373139322c2d322e333833333320302e38373438382c2d352e343135353520302e38393534372c2d362e373338323420302e303435362c2d322e393236383820332e35313436312c2d342e343936333120352e35313536312c2d322e343935333120312e303439362c312e3034393620302e393833322c322e3032303938202d302e323338382c332e3439333339202d302e39333039362c312e3132313735202d312e33363539392c322e38393038202d302e39363637332c332e393331323420302e363935382c312e3831333235202d322e383430332c362e3134323235202d352e30313732342c362e3134323235202d302e353735352c30202d302e36363032332c2d312e3935202d302e31383833312c2d342e3333333333207a206d2035392e353431342c2d302e35313331352063202d322e38353633392c2d332e3633313239202d332e36343039322c2d372e3135333532202d312e35393333362c2d372e313533353220312e37353936342c3020332e363930342c322e383933313820342e36373134372c3720312e30393430382c342e353739393120302e34323937342c342e3631333034202d332e30373831312c302e3135333532207a204d203233332e35383139332c3230362e323230342063202d302e37333333342c2d302e3234343633202d332e30333531312c2d302e3832313638202d352e31313530342c2d312e3238323335206c202d332e37383137312c2d302e383337353620342e39363530342c2d332e3934353733206320352e383335362c2d342e363337353520362e31373435392c2d342e363933393620392e30353833392c2d312e3530373420322e37393334342c332e303836373220322e37373138362c342e3137313937202d302e31323636372c362e3337323238202d322e34333035362c312e3834353036202d322e38303135312c312e3933343134202d352c312e3230303736207a22207472616e73666f726d3d227472616e736c617465282d3630203029207363616c6528302e3929222f3e\n\nsub_0: assembly {\n        /* \"SVG-MVP_football_ERC1155/contracts/players.sol\":15869:21334  contract AndyPelmard {... */\n      mstore(0x40, 0x80)\n      callvalue\n      dup1\n      iszero\n      tag_1\n      jumpi\n      0x00\n      dup1\n      revert\n    tag_1:\n      pop\n      jumpi(tag_2, lt(calldatasize, 0x04))\n      shr(0xe0, calldataload(0x00))\n      dup1\n      0xbd85f55f\n      eq\n      tag_3\n      jumpi\n    tag_2:\n      0x00\n      dup1\n      revert\n        /* \"SVG-MVP_football_ERC1155/contracts/players.sol\":15894:21331  string public svg = '<path style=\"fill:#0f3b86\" d=\"M -0.29633971,580.94985 C -22.746994,418.35507 119.87992,-8.2354199 289.24775,2.1730689 326.03452,6.2230628 377.44514,5.8707037 411.04026,9.3036278 514.41015,41.675241 504.99281,171.00928 503.0017,255.82243 469.57952,341.18313 382.34717,465.43558 259.51502,507.99467 152.04118,567.49901 89.855126,517.73168 -0.29633971,580.94985 Z M 278.30522,304.18816 c 20.9798,-7.7355 29.65745,-12.71628 39.26437,-22.53688 6.93679,-7.09108 10.33962,-9.54382 14.79831,-10.66652 3.18456,-0.8019 6.56049,-2.35744 7.50207,-3.45679 0.94158,-1.09935 4.72118,-5.20327 8.39913,-9.11983 3.67795,-3.91656 8.17795,-9.30949 10,-11.98428 4.3361,-6.48834 6.71415,-5.04664 11.51653,-0.88149 2.50567,2.2 4.99812,4 5.53879,4 0.54068,0 5.96793,-5.01091 12.06056,-11.13536 11.44538,-9.70265 11.71158,-13.06266 16.21957,-26.76511 9.65036,-22.74212 2.73011,-44.61692 -8.83218,-65.91909 -4.24066,-7.38198 -12.864,-19.21237 -18.28734,-25.08844 -2.153,-2.33273 -6.38697,-7.99005 -9.40882,-12.57183 -5.41903,-8.216395 -5.64951,-8.381459 -16.82762,-12.051088 -6.23333,-2.046324 -16.16029,-4.603839 -22.05992,-5.683364 -27.44269,-5.021526 -29.74058,-5.846188 -41.79309,-14.998571 -3.68797,-2.800551 -7.79324,-4.521683 -12.24587,-5.134076 -5.78873,-0.796154 -7.37206,-0.475183 -11.66273,2.364244 -17.23654,9.817026 -30.28699,22.220276 -45.57172,27.578525 -6.51692,2.26316 -10.98177,5.1022 -18,11.44556 -15.20388,11.0287 -3.55742,26.98752 10.19647,30.4292 1.9414,0.46466 6.04817,2.94887 9.12616,5.52046 3.07798,2.57158 6.22242,4.67561 6.98765,4.67561 2.68508,0 -0.14777,17.57163 -3.70339,22.97141 -1.80046,2.73428 -3.27725,5.73428 -3.28177,6.66667 -0.004,0.93239 -1.03152,3.49525 -2.28223,5.69525 -5.34513,9.40215 -5.58362,70.62183 -0.36636,94.04427 2.21606,9.9488 3.6246,13.27232 7.68231,18.12662 5.36136,6.41392 6.52923,6.91507 17.64116,7.57016 22.52579,1.32799 26.22372,1.02186 37.38996,-3.09526 z m -48.58985,-12.19323 c -2.93907,-4.19611 -0.3691,-6.81984 5.21682,-5.32593 3.03576,0.81188 3.98307,1.83518 3.98307,4.30264 0,4.58812 -6.21852,5.2798 -9.19989,1.02329 z m 3.23465,-16.19448 c -8.70463,-2.99071 -9.63571,-11.59141 -1.25485,-11.59141 4.50241,0 18.55342,5.03904 18.55342,6.65372 0,1.51238 -8.50086,6.69924 -10.82404,6.60436 -1.01345,-0.0413 -3.92698,-0.7914 -6.47453,-1.66667 z m -2.5266,-17.38076 c -2.03291,-2.44951 -0.56259,-3.54399 4.76097,-3.54399 7.29042,-0.24962 0.97908,-3.03684 3.0341,-6.61794 0.92305,-1.49354 1.83352,-1.51087 5.24029,-0.0997 4.28627,1.77544 5.13148,3.27046 2.69892,4.77386 -1.78091,1.82671 0.49707,4.76771 -1.53061,6.15014 -2.75303,1.74684 -12.58472,1.28839 -14.20367,-0.66233 z m 40.09184,-6.47732 c -0.88,-0.88 -1.6,-4.224 -1.6,-7.43109 0,-4.78919 0.40837,-5.75246 2.28545,-5.39098 3.87719,0.74668 5.79551,14.42207 2.02306,14.42207 -0.60968,0 -1.82851,-0.72 -2.70851,-1.6 z m -51.70593,-9.86076 c 1.5036,-6.10875 4.53708,-9.87257 7.95685,-9.87257 4.68125,0 9.45623,-4.46776 12.05907,-11.2832 1.2772,-3.34432 3.50846,-6.71544 4.95834,-7.4914 2.02298,-1.08266 2.44739,-2.27026 1.82464,-5.10566 -0.54864,-2.49793 -0.14445,-4.24846 1.24775,-5.40388 2.63327,-2.18542 2.65188,-7.23086 0.0347,-9.40296 -1.11354,-0.92414 -2.98191,-3.69761 -4.15194,-6.16325 -1.17,-2.46564 -2.51549,-4.48299 -2.98994,-4.48299 -0.47446,0 -3.2561,-2.09825 -6.18142,-4.66278 -4.12788,-3.61878 -4.90736,-4.9288 -3.48136,-5.85088 2.4516,-1.58524 14.56316,-3.14152 16.26466,-2.08993 0.74145,0.45824 2.07181,0.2644 2.95634,-0.43075 0.88455,-0.69516 4.40971,-1.62868 7.83368,-2.07449 5.94142,-0.77359 6.34292,-0.61473 8.80155,3.48247 1.41688,2.36116 4.91544,5.46449 7.77459,6.89627 2.85914,1.43178 5.95585,3.16139 6.88156,3.84357 2.66032,1.96047 -0.56668,4.78309 -6.56492,5.74225 -3.4052,0.54451 -6.22392,2.09519 -8.16018,4.48919 -1.6269,2.01154 -4.33685,4.36838 -6.02209,5.23742 -2.14345,1.10533 -2.82593,2.3304 -2.27147,4.07734 0.47664,1.50178 -1.129,6.38546 -4.02785,12.25106 -2.95895,5.98718 -4.58667,10.97668 -4.21508,12.92053 1.14192,5.9736 -1.58292,12.12989 -6.38169,14.41827 -4.2486,2.02601 -4.64772,1.99025 -8.10078,-0.72594 -4.76388,-3.74726 -6.39368,-3.60893 -5.61272,0.4764 0.40178,2.10172 0.0281,3.33334 -1.01122,3.33334 -0.90664,0 -3.61175,0.39266 -6.01134,0.87257 -4.26976,0.85396 -4.34254,0.78992 -3.4097,-3 z m 90.72421,2.04913 c -0.47984,-0.7764 0.61804,-3.6264 2.43972,-6.33333 2.33004,-3.46235 3.51913,-7.42391 4.01019,-13.36037 0.38392,-4.64127 1.06064,-8.80127 1.50381,-9.24446 1.58421,-1.5842 3.92171,2.39344 4.69537,7.98996 0.61234,4.4295 1.29891,5.6062 3.09316,5.30138 3.97939,-0.67604 2.56552,3.66201 -2.08849,6.40794 -2.41704,1.4261 -5.735,4.40586 -7.37324,6.6217 -3.13653,4.2424 -4.83791,4.95137 -6.28052,2.61718 z M 216.1373,222.54237 c 0.47192,-2.38333 0.87488,-5.41555 0.89547,-6.73824 0.0456,-2.92688 3.51461,-4.49631 5.51561,-2.49531 1.0496,1.0496 0.9832,2.02098 -0.2388,3.49339 -0.93096,1.12175 -1.36599,2.8908 -0.96673,3.93124 0.6958,1.81325 -2.8403,6.14225 -5.01724,6.14225 -0.5755,0 -0.66023,-1.95 -0.18831,-4.33333 z m 59.5414,-0.51315 c -2.85639,-3.63129 -3.64092,-7.15352 -1.59336,-7.15352 1.75964,0 3.6904,2.89318 4.67147,7 1.09408,4.57991 0.42974,4.61304 -3.07811,0.15352 z M 233.58193,206.2204 c -0.73334,-0.24463 -3.03511,-0.82168 -5.11504,-1.28235 l -3.78171,-0.83756 4.96504,-3.94573 c 5.8356,-4.63755 6.17459,-4.69396 9.05839,-1.5074 2.79344,3.08672 2.77186,4.17197 -0.12667,6.37228 -2.43056,1.84506 -2.80151,1.93414 -5,1.20076 z\" transform=\"translate(-60 0) scale(0.9)\"/>' */\n    tag_3:\n      tag_4\n      tag_5\n      jump\t// in\n    tag_4:\n      mload(0x40)\n      tag_6\n      swap2\n      swap1\n      tag_7\n      jump\t// in\n    tag_6:\n      mload(0x40)\n      dup1\n      swap2\n      sub\n      swap1\n      return\n    tag_5:\n      0x00\n      dup1\n      sload\n      tag_8\n      swap1\n      tag_9\n      jump\t// in\n    tag_8:\n      dup1\n      0x1f\n      add\n      0x20\n      dup1\n      swap2\n      div\n      mul\n      0x20\n      add\n      mload(0x40)\n      swap1\n      dup2\n      add\n      0x40\n      mstore\n      dup1\n      swap3\n      swap2\n      swap1\n      dup2\n      dup2\n      mstore\n      0x20\n      add\n      dup3\n      dup1\n      sload\n      tag_10\n      swap1\n      tag_9\n      jump\t// in\n    tag_10:\n      dup1\n      iszero\n      tag_11\n      jumpi\n      dup1\n      0x1f\n      lt\n      tag_12\n      jumpi\n      0x0100\n      dup1\n      dup4\n      sload\n      div\n      mul\n      dup4\n      mstore\n      swap2\n      0x20\n      add\n      swap2\n      jump(tag_11)\n    tag_12:\n      dup3\n      add\n      swap2\n      swap1\n      0x00\n      mstore\n      keccak256(0x00, 0x20)\n      swap1\n    tag_13:\n      dup2\n      sload\n      dup2\n      mstore\n      swap1\n      0x01\n      add\n      swap1\n      0x20\n      add\n      dup1\n      dup4\n      gt\n      tag_13\n      jumpi\n      dup3\n      swap1\n      sub\n      0x1f\n      and\n      dup3\n      add\n      swap2\n    tag_11:\n      pop\n      pop\n      pop\n      pop\n      pop\n      dup2\n      jump\t// out\n        /* \"#utility.yul\":7:371   */\n    tag_15:\n        /* \"#utility.yul\":95:98   */\n      0x00\n        /* \"#utility.yul\":123:162   */\n      tag_17\n        /* \"#utility.yul\":156:161   */\n      dup3\n        /* \"#utility.yul\":123:162   */\n      tag_18\n      jump\t// in\n    tag_17:\n        /* \"#utility.yul\":178:249   */\n      tag_19\n        /* \"#utility.yul\":242:248   */\n      dup2\n        /* \"#utility.yul\":237:240   */\n      dup6\n        /* \"#utility.yul\":178:249   */\n      tag_20\n      jump\t// in\n    tag_19:\n        /* \"#utility.yul\":171:249   */\n      swap4\n      pop\n        /* \"#utility.yul\":258:310   */\n      tag_21\n        /* \"#utility.yul\":303:309   */\n      dup2\n        /* \"#utility.yul\":298:301   */\n      dup6\n        /* \"#utility.yul\":291:295   */\n      0x20\n        /* \"#utility.yul\":284:289   */\n      dup7\n        /* \"#utility.yul\":280:296   */\n      add\n        /* \"#utility.yul\":258:310   */\n      tag_22\n      jump\t// in\n    tag_21:\n        /* \"#utility.yul\":335:364   */\n      tag_23\n        /* \"#utility.yul\":357:363   */\n      dup2\n        /* \"#utility.yul\":335:364   */\n      tag_24\n      jump\t// in\n    tag_23:\n        /* \"#utility.yul\":330:333   */\n      dup5\n        /* \"#utility.yul\":326:365   */\n      add\n        /* \"#utility.yul\":319:365   */\n      swap2\n      pop\n        /* \"#utility.yul\":99:371   */\n      pop\n        /* \"#utility.yul\":7:371   */\n      swap3\n      swap2\n      pop\n      pop\n      jump\t// out\n        /* \"#utility.yul\":377:690   */\n    tag_7:\n        /* \"#utility.yul\":490:494   */\n      0x00\n        /* \"#utility.yul\":528:530   */\n      0x20\n        /* \"#utility.yul\":517:526   */\n      dup3\n        /* \"#utility.yul\":513:531   */\n      add\n        /* \"#utility.yul\":505:531   */\n      swap1\n      pop\n        /* \"#utility.yul\":577:586   */\n      dup2\n        /* \"#utility.yul\":571:575   */\n      dup2\n        /* \"#utility.yul\":567:587   */\n      sub\n        /* \"#utility.yul\":563:564   */\n      0x00\n        /* \"#utility.yul\":552:561   */\n      dup4\n        /* \"#utility.yul\":548:565   */\n      add\n        /* \"#utility.yul\":541:588   */\n      mstore\n        /* \"#utility.yul\":605:683   */\n      tag_26\n        /* \"#utility.yul\":678:682   */\n      dup2\n        /* \"#utility.yul\":669:675   */\n      dup5\n        /* \"#utility.yul\":605:683   */\n      tag_15\n      jump\t// in\n    tag_26:\n        /* \"#utility.yul\":597:683   */\n      swap1\n      pop\n        /* \"#utility.yul\":377:690   */\n      swap3\n      swap2\n      pop\n      pop\n      jump\t// out\n        /* \"#utility.yul\":696:795   */\n    tag_18:\n        /* \"#utility.yul\":748:754   */\n      0x00\n        /* \"#utility.yul\":782:787   */\n      dup2\n        /* \"#utility.yul\":776:788   */\n      mload\n        /* \"#utility.yul\":766:788   */\n      swap1\n      pop\n        /* \"#utility.yul\":696:795   */\n      swap2\n      swap1\n      pop\n      jump\t// out\n        /* \"#utility.yul\":801:970   */\n    tag_20:\n        /* \"#utility.yul\":885:896   */\n      0x00\n        /* \"#utility.yul\":919:925   */\n      dup3\n        /* \"#utility.yul\":914:917   */\n      dup3\n        /* \"#utility.yul\":907:926   */\n      mstore\n        /* \"#utility.yul\":959:963   */\n      0x20\n        /* \"#utility.yul\":954:957   */\n      dup3\n        /* \"#utility.yul\":950:964   */\n      add\n        /* \"#utility.yul\":935:964   */\n      swap1\n      pop\n        /* \"#utility.yul\":801:970   */\n      swap3\n      swap2\n      pop\n      pop\n      jump\t// out\n        /* \"#utility.yul\":976:1283   */\n    tag_22:\n        /* \"#utility.yul\":1044:1045   */\n      0x00\n        /* \"#utility.yul\":1054:1167   */\n    tag_30:\n        /* \"#utility.yul\":1068:1074   */\n      dup4\n        /* \"#utility.yul\":1065:1066   */\n      dup2\n        /* \"#utility.yul\":1062:1075   */\n      lt\n        /* \"#utility.yul\":1054:1167   */\n      iszero\n      tag_32\n      jumpi\n        /* \"#utility.yul\":1153:1154   */\n      dup1\n        /* \"#utility.yul\":1148:1151   */\n      dup3\n        /* \"#utility.yul\":1144:1155   */\n      add\n        /* \"#utility.yul\":1138:1156   */\n      mload\n        /* \"#utility.yul\":1134:1135   */\n      dup2\n        /* \"#utility.yul\":1129:1132   */\n      dup5\n        /* \"#utility.yul\":1125:1136   */\n      add\n        /* \"#utility.yul\":1118:1157   */\n      mstore\n        /* \"#utility.yul\":1090:1092   */\n      0x20\n        /* \"#utility.yul\":1087:1088   */\n      dup2\n        /* \"#utility.yul\":1083:1093   */\n      add\n        /* \"#utility.yul\":1078:1093   */\n      swap1\n      pop\n        /* \"#utility.yul\":1054:1167   */\n      jump(tag_30)\n    tag_32:\n        /* \"#utility.yul\":1185:1191   */\n      dup4\n        /* \"#utility.yul\":1182:1183   */\n      dup2\n        /* \"#utility.yul\":1179:1192   */\n      gt\n        /* \"#utility.yul\":1176:1277   */\n      iszero\n      tag_33\n      jumpi\n        /* \"#utility.yul\":1265:1266   */\n      0x00\n        /* \"#utility.yul\":1256:1262   */\n      dup5\n        /* \"#utility.yul\":1251:1254   */\n      dup5\n        /* \"#utility.yul\":1247:1263   */\n      add\n        /* \"#utility.yul\":1240:1267   */\n      mstore\n        /* \"#utility.yul\":1176:1277   */\n    tag_33:\n        /* \"#utility.yul\":1025:1283   */\n      pop\n        /* \"#utility.yul\":976:1283   */\n      pop\n      pop\n      pop\n      jump\t// out\n        /* \"#utility.yul\":1289:1609   */\n    tag_9:\n        /* \"#utility.yul\":1333:1339   */\n      0x00\n        /* \"#utility.yul\":1370:1371   */\n      0x02\n        /* \"#utility.yul\":1364:1368   */\n      dup3\n        /* \"#utility.yul\":1360:1372   */\n      div\n        /* \"#utility.yul\":1350:1372   */\n      swap1\n      pop\n        /* \"#utility.yul\":1417:1418   */\n      0x01\n        /* \"#utility.yul\":1411:1415   */\n      dup3\n        /* \"#utility.yul\":1407:1419   */\n      and\n        /* \"#utility.yul\":1438:1456   */\n      dup1\n        /* \"#utility.yul\":1428:1509   */\n      tag_35\n      jumpi\n        /* \"#utility.yul\":1494:1498   */\n      0x7f\n        /* \"#utility.yul\":1486:1492   */\n      dup3\n        /* \"#utility.yul\":1482:1499   */\n      and\n        /* \"#utility.yul\":1472:1499   */\n      swap2\n      pop\n        /* \"#utility.yul\":1428:1509   */\n    tag_35:\n        /* \"#utility.yul\":1556:1558   */\n      0x20\n        /* \"#utility.yul\":1548:1554   */\n      dup3\n        /* \"#utility.yul\":1545:1559   */\n      lt\n        /* \"#utility.yul\":1525:1543   */\n      dup2\n        /* \"#utility.yul\":1522:1560   */\n      eq\n        /* \"#utility.yul\":1519:1603   */\n      iszero\n      tag_36\n      jumpi\n        /* \"#utility.yul\":1575:1593   */\n      tag_37\n      tag_38\n      jump\t// in\n    tag_37:\n        /* \"#utility.yul\":1519:1603   */\n    tag_36:\n        /* \"#utility.yul\":1340:1609   */\n      pop\n        /* \"#utility.yul\":1289:1609   */\n      swap2\n      swap1\n      pop\n      jump\t// out\n        /* \"#utility.yul\":1615:1795   */\n    tag_38:\n        /* \"#utility.yul\":1663:1740   */\n      0x4e487b7100000000000000000000000000000000000000000000000000000000\n        /* \"#utility.yul\":1660:1661   */\n      0x00\n        /* \"#utility.yul\":1653:1741   */\n      mstore\n        /* \"#utility.yul\":1760:1764   */\n      0x22\n        /* \"#utility.yul\":1757:1758   */\n      0x04\n        /* \"#utility.yul\":1750:1765   */\n      mstore\n        /* \"#utility.yul\":1784:1788   */\n      0x24\n        /* \"#utility.yul\":1781:1782   */\n      0x00\n        /* \"#utility.yul\":1774:1789   */\n      revert\n        /* \"#utility.yul\":1801:1903   */\n    tag_24:\n        /* \"#utility.yul\":1842:1848   */\n      0x00\n        /* \"#utility.yul\":1893:1895   */\n      0x1f\n        /* \"#utility.yul\":1889:1896   */\n      not\n        /* \"#utility.yul\":1884:1886   */\n      0x1f\n        /* \"#utility.yul\":1877:1882   */\n      dup4\n        /* \"#utility.yul\":1873:1887   */\n      add\n        /* \"#utility.yul\":1869:1897   */\n      and\n        /* \"#utility.yul\":1859:1897   */\n      swap1\n      pop\n        /* \"#utility.yul\":1801:1903   */\n      swap2\n      swap1\n      pop\n      jump\t// out\n\n    auxdata: 0xa2646970667358221220890311b3c4f6cfe3ced5b73256f2ba0d7d60ab885a87e26daac4719cacb7ab9e64736f6c63430008070033\n}\n",
				"bytecode": {
					"linkReferences": {},
					"object": "60806040526040518061156001604052806115278152602001610389611527913960009080519060200190610035929190610048565b5034801561004257600080fd5b5061014c565b828054610054906100eb565b90600052602060002090601f01602090048101928261007657600085556100bd565b82601f1061008f57805160ff19168380011785556100bd565b828001600101855582156100bd579182015b828111156100bc5782518255916020019190600101906100a1565b5b5090506100ca91906100ce565b5090565b5b808211156100e75760008160009055506001016100cf565b5090565b6000600282049050600182168061010357607f821691505b602082108114156101175761011661011d565b5b50919050565b7f4e487b7100000000000000000000000000000000000000000000000000000000600052602260045260246000fd5b61022e8061015b6000396000f3fe608060405234801561001057600080fd5b506004361061002b5760003560e01c8063bd85f55f14610030575b600080fd5b61003861004e565b6040516100459190610115565b60405180910390f35b6000805461005b90610186565b80601f016020809104026020016040519081016040528092919081815260200182805461008790610186565b80156100d45780601f106100a9576101008083540402835291602001916100d4565b820191906000526020600020905b8154815290600101906020018083116100b757829003601f168201915b505050505081565b60006100e782610137565b6100f18185610142565b9350610101818560208601610153565b61010a816101e7565b840191505092915050565b6000602082019050818103600083015261012f81846100dc565b905092915050565b600081519050919050565b600082825260208201905092915050565b60005b83811015610171578082015181840152602081019050610156565b83811115610180576000848401525b50505050565b6000600282049050600182168061019e57607f821691505b602082108114156101b2576101b16101b8565b5b50919050565b7f4e487b7100000000000000000000000000000000000000000000000000000000600052602260045260246000fd5b6000601f19601f830116905091905056fea2646970667358221220890311b3c4f6cfe3ced5b73256f2ba0d7d60ab885a87e26daac4719cacb7ab9e64736f6c634300080700333c70617468207374796c653d2266696c6c3a233066336238362220643d224d202d302e32393633333937312c3538302e39343938352043202d32322e3734363939342c3431382e3335353037203131392e38373939322c2d382e32333534313939203238392e32343737352c322e31373330363839203332362e30333435322c362e32323330363238203337372e34343531342c352e38373037303337203431312e30343032362c392e33303336323738203531342e34313031352c34312e363735323431203530342e39393238312c3137312e3030393238203530332e303031372c3235352e3832323433203436392e35373935322c3334312e3138333133203338322e33343731372c3436352e3433353538203235392e35313530322c3530372e3939343637203135322e30343131382c3536372e34393930312038392e3835353132362c3531372e3733313638202d302e32393633333937312c3538302e3934393835205a204d203237382e33303532322c3330342e313838313620632032302e393739382c2d372e373335352032392e36353734352c2d31322e37313632382033392e32363433372c2d32322e353336383820362e39333637392c2d372e30393130382031302e33333936322c2d392e35343338322031342e37393833312c2d31302e363636353220332e31383435362c2d302e3830313920362e35363034392c2d322e333537343420372e35303230372c2d332e343536373920302e39343135382c2d312e303939333520342e37323131382c2d352e323033323720382e33393931332c2d392e313139383320332e36373739352c2d332e393136353620382e31373739352c2d392e33303934392031302c2d31312e393834323820342e333336312c2d362e343838333420362e37313431352c2d352e30343636342031312e35313635332c2d302e383831343920322e35303536372c322e3220342e39393831322c3420352e35333837392c3420302e35343036382c3020352e39363739332c2d352e30313039312031322e30363035362c2d31312e31333533362031312e34343533382c2d392e37303236352031312e37313135382c2d31332e30363236362031362e32313935372c2d32362e373635313120392e36353033362c2d32322e373432313220322e37333031312c2d34342e3631363932202d382e38333231382c2d36352e3931393039202d342e32343036362c2d372e3338313938202d31322e3836342c2d31392e3231323337202d31382e32383733342c2d32352e3038383434202d322e3135332c2d322e3333323733202d362e33383639372c2d372e3939303035202d392e34303838322c2d31322e3537313833202d352e34313930332c2d382e323136333935202d352e36343935312c2d382e333831343539202d31362e38323736322c2d31322e303531303838202d362e32333333332c2d322e303436333234202d31362e31363032392c2d342e363033383339202d32322e30353939322c2d352e363833333634202d32372e34343236392c2d352e303231353236202d32392e37343035382c2d352e383436313838202d34312e37393330392c2d31342e393938353731202d332e36383739372c2d322e383030353531202d372e37393332342c2d342e353231363833202d31322e32343538372c2d352e313334303736202d352e37383837332c2d302e373936313534202d372e33373230362c2d302e343735313833202d31312e36363237332c322e333634323434202d31372e32333635342c392e383137303236202d33302e32383639392c32322e323230323736202d34352e35373137322c32372e353738353235202d362e35313639322c322e3236333136202d31302e39383137372c352e31303232202d31382c31312e3434353536202d31352e32303338382c31312e30323837202d332e35353734322c32362e39383735322031302e31393634372c33302e3432393220312e393431342c302e343634363620362e30343831372c322e393438383720392e31323631362c352e353230343620332e30373739382c322e353731353820362e32323234322c342e363735363120362e39383736352c342e363735363120322e36383530382c30202d302e31343737372c31372e3537313633202d332e37303333392c32322e3937313431202d312e38303034362c322e3733343238202d332e32373732352c352e3733343238202d332e32383137372c362e3636363637202d302e3030342c302e3933323339202d312e30333135322c332e3439353235202d322e32383232332c352e3639353235202d352e33343531332c392e3430323135202d352e35383336322c37302e3632313833202d302e33363633362c39342e303434323720322e32313630362c392e3934383820332e363234362c31332e323732333220372e36383233312c31382e313236363220352e33363133362c362e343133393220362e35323932332c362e39313530372031372e36343131362c372e35373031362032322e35323537392c312e33323739392032362e32323337322c312e30323138362033372e33383939362c2d332e3039353236207a206d202d34382e35383938352c2d31322e31393332332063202d322e39333930372c2d342e3139363131202d302e333639312c2d362e383139383420352e32313638322c2d352e333235393320332e30333537362c302e383131383820332e39383330372c312e383335313820332e39383330372c342e333032363420302c342e3538383132202d362e32313835322c352e32373938202d392e31393938392c312e3032333239207a206d20332e32333436352c2d31362e31393434382063202d382e37303436332c2d322e3939303731202d392e36333537312c2d31312e3539313431202d312e32353438352c2d31312e353931343120342e35303234312c302031382e35353334322c352e30333930342031382e35353334322c362e363533373220302c312e3531323338202d382e35303038362c362e3639393234202d31302e38323430342c362e3630343336202d312e30313334352c2d302e30343133202d332e39323639382c2d302e37393134202d362e34373435332c2d312e3636363637207a206d202d322e353236362c2d31372e33383037362063202d322e30333239312c2d322e3434393531202d302e35363235392c2d332e353433393920342e37363039372c2d332e353433393920372e32393034322c2d302e323439363220302e39373930382c2d332e303336383420332e303334312c2d362e363137393420302e39323330352c2d312e343933353420312e38333335322c2d312e353130383720352e32343032392c2d302e3039393720342e32383632372c312e373735343420352e31333134382c332e323730343620322e36393839322c342e3737333836202d312e37383039312c312e383236373120302e34393730372c342e3736373731202d312e35333036312c362e3135303134202d322e37353330332c312e3734363834202d31322e35383437322c312e3238383339202d31342e32303336372c2d302e3636323333207a206d2034302e30393138342c2d362e34373733322063202d302e38382c2d302e3838202d312e362c2d342e323234202d312e362c2d372e343331303920302c2d342e373839313920302e34303833372c2d352e373532343620322e32383534352c2d352e333930393820332e38373731392c302e373436363820352e37393535312c31342e343232303720322e30323330362c31342e3432323037202d302e36303936382c30202d312e38323835312c2d302e3732202d322e37303835312c2d312e36207a206d202d35312e37303539332c2d392e3836303736206320312e353033362c2d362e313038373520342e35333730382c2d392e383732353720372e39353638352c2d392e383732353720342e36383132352c3020392e34353632332c2d342e34363737362031322e30353930372c2d31312e3238333220312e323737322c2d332e333434333220332e35303834362c2d362e373135343420342e39353833342c2d372e3439313420322e30323239382c2d312e303832363620322e34343733392c2d322e323730323620312e38323436342c2d352e3130353636202d302e35343836342c2d322e3439373933202d302e31343434352c2d342e323438343620312e32343737352c2d352e343033383820322e36333332372c2d322e313835343220322e36353138382c2d372e323330383620302e303334372c2d392e3430323936202d312e31313335342c2d302e3932343134202d322e39383139312c2d332e3639373631202d342e31353139342c2d362e3136333235202d312e31372c2d322e3436353634202d322e35313534392c2d342e3438323939202d322e39383939342c2d342e3438323939202d302e34373434362c30202d332e323536312c2d322e3039383235202d362e31383134322c2d342e3636323738202d342e31323738382c2d332e3631383738202d342e39303733362c2d342e39323838202d332e34383133362c2d352e383530383820322e343531362c2d312e35383532342031342e35363331362c2d332e31343135322031362e32363436362c2d322e303839393320302e37343134352c302e343538323420322e30373138312c302e3236343420322e39353633342c2d302e343330373520302e38383435352c2d302e363935313620342e34303937312c2d312e363238363820372e38333336382c2d322e303734343920352e39343134322c2d302e373733353920362e33343239322c2d302e363134373320382e38303135352c332e343832343720312e34313638382c322e333631313620342e39313534342c352e343634343920372e37373435392c362e383936323720322e38353931342c312e343331373820352e39353538352c332e313631333920362e38383135362c332e383433353720322e36363033322c312e3936303437202d302e35363636382c342e3738333039202d362e35363439322c352e3734323235202d332e343035322c302e3534343531202d362e32323339322c322e3039353139202d382e31363031382c342e3438393139202d312e363236392c322e3031313534202d342e33333638352c342e3336383338202d362e30323230392c352e3233373432202d322e31343334352c312e3130353333202d322e38323539332c322e33333034202d322e32373134372c342e303737333420302e34373636342c312e3530313738202d312e3132392c362e3338353436202d342e30323738352c31322e3235313036202d322e39353839352c352e3938373138202d342e35383636372c31302e3937363638202d342e32313530382c31322e393230353320312e31343139322c352e39373336202d312e35383239322c31322e3132393839202d362e33383136392c31342e3431383237202d342e323438362c322e3032363031202d342e36343737322c312e3939303235202d382e31303037382c2d302e3732353934202d342e37363338382c2d332e3734373236202d362e33393336382c2d332e3630383933202d352e36313237322c302e3437363420302e34303137382c322e313031373220302e303238312c332e3333333334202d312e30313132322c332e3333333334202d302e39303636342c30202d332e36313137352c302e3339323636202d362e30313133342c302e3837323537202d342e32363937362c302e3835333936202d342e33343235342c302e3738393932202d332e343039372c2d33207a206d2039302e37323432312c322e30343931332063202d302e34373938342c2d302e3737363420302e36313830342c2d332e3632363420322e34333937322c2d362e333333333320322e33333030342c2d332e343632333520332e35313931332c2d372e343233393120342e30313031392c2d31332e333630333720302e33383339322c2d342e363431323720312e30363036342c2d382e383031323720312e35303338312c2d392e323434343620312e35383432312c2d312e3538343220332e39323137312c322e333933343420342e36393533372c372e393839393620302e36313233342c342e3432393520312e32393839312c352e3630363220332e30393331362c352e333031333820332e39373933392c2d302e363736303420322e35363535322c332e3636323031202d322e30383834392c362e3430373934202d322e34313730342c312e34323631202d352e3733352c342e3430353836202d372e33373332342c362e36323137202d332e31333635332c342e32343234202d342e38333739312c342e3935313337202d362e32383035322c322e3631373138207a204d203231362e313337332c3232322e3534323337206320302e34373139322c2d322e333833333320302e38373438382c2d352e343135353520302e38393534372c2d362e373338323420302e303435362c2d322e393236383820332e35313436312c2d342e343936333120352e35313536312c2d322e343935333120312e303439362c312e3034393620302e393833322c322e3032303938202d302e323338382c332e3439333339202d302e39333039362c312e3132313735202d312e33363539392c322e38393038202d302e39363637332c332e393331323420302e363935382c312e3831333235202d322e383430332c362e3134323235202d352e30313732342c362e3134323235202d302e353735352c30202d302e36363032332c2d312e3935202d302e31383833312c2d342e3333333333207a206d2035392e353431342c2d302e35313331352063202d322e38353633392c2d332e3633313239202d332e36343039322c2d372e3135333532202d312e35393333362c2d372e313533353220312e37353936342c3020332e363930342c322e383933313820342e36373134372c3720312e30393430382c342e353739393120302e34323937342c342e3631333034202d332e30373831312c302e3135333532207a204d203233332e35383139332c3230362e323230342063202d302e37333333342c2d302e3234343633202d332e30333531312c2d302e3832313638202d352e31313530342c2d312e3238323335206c202d332e37383137312c2d302e383337353620342e39363530342c2d332e3934353733206320352e383335362c2d342e363337353520362e31373435392c2d342e363933393620392e30353833392c2d312e3530373420322e37393334342c332e303836373220322e37373138362c342e3137313937202d302e31323636372c362e3337323238202d322e34333035362c312e3834353036202d322e38303135312c312e3933343134202d352c312e3230303736207a22207472616e73666f726d3d227472616e736c617465282d3630203029207363616c6528302e3929222f3e",
					"opcodes": "PUSH1 0x80 PUSH1 0x40 MSTORE PUSH1 0x40 MLOAD DUP1 PUSH2 0x1560 ADD PUSH1 0x40 MSTORE DUP1 PUSH2 0x1527 DUP2 MSTORE PUSH1 0x20 ADD PUSH2 0x389 PUSH2 0x1527 SWAP2 CODECOPY PUSH1 0x0 SWAP1 DUP1 MLOAD SWAP1 PUSH1 0x20 ADD SWAP1 PUSH2 0x35 SWAP3 SWAP2 SWAP1 PUSH2 0x48 JUMP JUMPDEST POP CALLVALUE DUP1 ISZERO PUSH2 0x42 JUMPI PUSH1 0x0 DUP1 REVERT JUMPDEST POP PUSH2 0x14C JUMP JUMPDEST DUP3 DUP1 SLOAD PUSH2 0x54 SWAP1 PUSH2 0xEB JUMP JUMPDEST SWAP1 PUSH1 0x0 MSTORE PUSH1 0x20 PUSH1 0x0 KECCAK256 SWAP1 PUSH1 0x1F ADD PUSH1 0x20 SWAP1 DIV DUP2 ADD SWAP3 DUP3 PUSH2 0x76 JUMPI PUSH1 0x0 DUP6 SSTORE PUSH2 0xBD JUMP JUMPDEST DUP3 PUSH1 0x1F LT PUSH2 0x8F JUMPI DUP1 MLOAD PUSH1 0xFF NOT AND DUP4 DUP1 ADD OR DUP6 SSTORE PUSH2 0xBD JUMP JUMPDEST DUP3 DUP1 ADD PUSH1 0x1 ADD DUP6 SSTORE DUP3 ISZERO PUSH2 0xBD JUMPI SWAP2 DUP3 ADD JUMPDEST DUP3 DUP2 GT ISZERO PUSH2 0xBC JUMPI DUP3 MLOAD DUP3 SSTORE SWAP2 PUSH1 0x20 ADD SWAP2 SWAP1 PUSH1 0x1 ADD SWAP1 PUSH2 0xA1 JUMP JUMPDEST JUMPDEST POP SWAP1 POP PUSH2 0xCA SWAP2 SWAP1 PUSH2 0xCE JUMP JUMPDEST POP SWAP1 JUMP JUMPDEST JUMPDEST DUP1 DUP3 GT ISZERO PUSH2 0xE7 JUMPI PUSH1 0x0 DUP2 PUSH1 0x0 SWAP1 SSTORE POP PUSH1 0x1 ADD PUSH2 0xCF JUMP JUMPDEST POP SWAP1 JUMP JUMPDEST PUSH1 0x0 PUSH1 0x2 DUP3 DIV SWAP1 POP PUSH1 0x1 DUP3 AND DUP1 PUSH2 0x103 JUMPI PUSH1 0x7F DUP3 AND SWAP2 POP JUMPDEST PUSH1 0x20 DUP3 LT DUP2 EQ ISZERO PUSH2 0x117 JUMPI PUSH2 0x116 PUSH2 0x11D JUMP JUMPDEST JUMPDEST POP SWAP2 SWAP1 POP JUMP JUMPDEST PUSH32 0x4E487B7100000000000000000000000000000000000000000000000000000000 PUSH1 0x0 MSTORE PUSH1 0x22 PUSH1 0x4 MSTORE PUSH1 0x24 PUSH1 0x0 REVERT JUMPDEST PUSH2 0x22E DUP1 PUSH2 0x15B PUSH1 0x0 CODECOPY PUSH1 0x0 RETURN INVALID PUSH1 0x80 PUSH1 0x40 MSTORE CALLVALUE DUP1 ISZERO PUSH2 0x10 JUMPI PUSH1 0x0 DUP1 REVERT JUMPDEST POP PUSH1 0x4 CALLDATASIZE LT PUSH2 0x2B JUMPI PUSH1 0x0 CALLDATALOAD PUSH1 0xE0 SHR DUP1 PUSH4 0xBD85F55F EQ PUSH2 0x30 JUMPI JUMPDEST PUSH1 0x0 DUP1 REVERT JUMPDEST PUSH2 0x38 PUSH2 0x4E JUMP JUMPDEST PUSH1 0x40 MLOAD PUSH2 0x45 SWAP2 SWAP1 PUSH2 0x115 JUMP JUMPDEST PUSH1 0x40 MLOAD DUP1 SWAP2 SUB SWAP1 RETURN JUMPDEST PUSH1 0x0 DUP1 SLOAD PUSH2 0x5B SWAP1 PUSH2 0x186 JUMP JUMPDEST DUP1 PUSH1 0x1F ADD PUSH1 0x20 DUP1 SWAP2 DIV MUL PUSH1 0x20 ADD PUSH1 0x40 MLOAD SWAP1 DUP2 ADD PUSH1 0x40 MSTORE DUP1 SWAP3 SWAP2 SWAP1 DUP2 DUP2 MSTORE PUSH1 0x20 ADD DUP3 DUP1 SLOAD PUSH2 0x87 SWAP1 PUSH2 0x186 JUMP JUMPDEST DUP1 ISZERO PUSH2 0xD4 JUMPI DUP1 PUSH1 0x1F LT PUSH2 0xA9 JUMPI PUSH2 0x100 DUP1 DUP4 SLOAD DIV MUL DUP4 MSTORE SWAP2 PUSH1 0x20 ADD SWAP2 PUSH2 0xD4 JUMP JUMPDEST DUP3 ADD SWAP2 SWAP1 PUSH1 0x0 MSTORE PUSH1 0x20 PUSH1 0x0 KECCAK256 SWAP1 JUMPDEST DUP2 SLOAD DUP2 MSTORE SWAP1 PUSH1 0x1 ADD SWAP1 PUSH1 0x20 ADD DUP1 DUP4 GT PUSH2 0xB7 JUMPI DUP3 SWAP1 SUB PUSH1 0x1F AND DUP3 ADD SWAP2 JUMPDEST POP POP POP POP POP DUP2 JUMP JUMPDEST PUSH1 0x0 PUSH2 0xE7 DUP3 PUSH2 0x137 JUMP JUMPDEST PUSH2 0xF1 DUP2 DUP6 PUSH2 0x142 JUMP JUMPDEST SWAP4 POP PUSH2 0x101 DUP2 DUP6 PUSH1 0x20 DUP7 ADD PUSH2 0x153 JUMP JUMPDEST PUSH2 0x10A DUP2 PUSH2 0x1E7 JUMP JUMPDEST DUP5 ADD SWAP2 POP POP SWAP3 SWAP2 POP POP JUMP JUMPDEST PUSH1 0x0 PUSH1 0x20 DUP3 ADD SWAP1 POP DUP2 DUP2 SUB PUSH1 0x0 DUP4 ADD MSTORE PUSH2 0x12F DUP2 DUP5 PUSH2 0xDC JUMP JUMPDEST SWAP1 POP SWAP3 SWAP2 POP POP JUMP JUMPDEST PUSH1 0x0 DUP2 MLOAD SWAP1 POP SWAP2 SWAP1 POP JUMP JUMPDEST PUSH1 0x0 DUP3 DUP3 MSTORE PUSH1 0x20 DUP3 ADD SWAP1 POP SWAP3 SWAP2 POP POP JUMP JUMPDEST PUSH1 0x0 JUMPDEST DUP4 DUP2 LT ISZERO PUSH2 0x171 JUMPI DUP1 DUP3 ADD MLOAD DUP2 DUP5 ADD MSTORE PUSH1 0x20 DUP2 ADD SWAP1 POP PUSH2 0x156 JUMP JUMPDEST DUP4 DUP2 GT ISZERO PUSH2 0x180 JUMPI PUSH1 0x0 DUP5 DUP5 ADD MSTORE JUMPDEST POP POP POP POP JUMP JUMPDEST PUSH1 0x0 PUSH1 0x2 DUP3 DIV SWAP1 POP PUSH1 0x1 DUP3 AND DUP1 PUSH2 0x19E JUMPI PUSH1 0x7F DUP3 AND SWAP2 POP JUMPDEST PUSH1 0x20 DUP3 LT DUP2 EQ ISZERO PUSH2 0x1B2 JUMPI PUSH2 0x1B1 PUSH2 0x1B8 JUMP JUMPDEST JUMPDEST POP SWAP2 SWAP1 POP JUMP JUMPDEST PUSH32 0x4E487B7100000000000000000000000000000000000000000000000000000000 PUSH1 0x0 MSTORE PUSH1 0x22 PUSH1 0x4 MSTORE PUSH1 0x24 PUSH1 0x0 REVERT JUMPDEST PUSH1 0x0 PUSH1 0x1F NOT PUSH1 0x1F DUP4 ADD AND SWAP1 POP SWAP2 SWAP1 POP JUMP INVALID LOG2 PUSH5 0x6970667358 0x22 SLT KECCAK256 DUP10 SUB GT 0xB3 0xC4 0xF6 0xCF 0xE3 0xCE 0xD5 0xB7 ORIGIN JUMP CALLCODE 0xBA 0xD PUSH30 0x60AB885A87E26DAAC4719CACB7AB9E64736F6C634300080700333C706174 PUSH9 0x207374796C653D2266 PUSH10 0x6C6C3A23306633623836 0x22 KECCAK256 PUSH5 0x3D224D202D ADDRESS 0x2E ORIGIN CODECOPY CALLDATASIZE CALLER CALLER CODECOPY CALLDATACOPY BALANCE 0x2C CALLDATALOAD CODESIZE ADDRESS 0x2E CODECOPY CALLVALUE CODECOPY CODESIZE CALLDATALOAD KECCAK256 NUMBER KECCAK256 0x2D ORIGIN ORIGIN 0x2E CALLDATACOPY CALLVALUE CALLDATASIZE CODECOPY CODECOPY CALLVALUE 0x2C CALLVALUE BALANCE CODESIZE 0x2E CALLER CALLDATALOAD CALLDATALOAD ADDRESS CALLDATACOPY KECCAK256 BALANCE BALANCE CODECOPY 0x2E CODESIZE CALLDATACOPY CODECOPY CODECOPY ORIGIN 0x2C 0x2D CODESIZE 0x2E ORIGIN CALLER CALLDATALOAD CALLVALUE BALANCE CODECOPY CODECOPY KECCAK256 ORIGIN CODESIZE CODECOPY 0x2E ORIGIN CALLVALUE CALLDATACOPY CALLDATACOPY CALLDATALOAD 0x2C ORIGIN 0x2E BALANCE CALLDATACOPY CALLER ADDRESS CALLDATASIZE CODESIZE CODECOPY KECCAK256 CALLER ORIGIN CALLDATASIZE 0x2E ADDRESS CALLER CALLVALUE CALLDATALOAD ORIGIN 0x2C CALLDATASIZE 0x2E ORIGIN ORIGIN CALLER ADDRESS CALLDATASIZE ORIGIN CODESIZE KECCAK256 CALLER CALLDATACOPY CALLDATACOPY 0x2E CALLVALUE CALLVALUE CALLDATALOAD BALANCE CALLVALUE 0x2C CALLDATALOAD 0x2E CODESIZE CALLDATACOPY ADDRESS CALLDATACOPY ADDRESS CALLER CALLDATACOPY KECCAK256 CALLVALUE BALANCE BALANCE 0x2E ADDRESS CALLVALUE ADDRESS ORIGIN CALLDATASIZE 0x2C CODECOPY 0x2E CALLER ADDRESS CALLER CALLDATASIZE ORIGIN CALLDATACOPY CODESIZE KECCAK256 CALLDATALOAD BALANCE CALLVALUE 0x2E CALLVALUE BALANCE ADDRESS BALANCE CALLDATALOAD 0x2C CALLVALUE BALANCE 0x2E CALLDATASIZE CALLDATACOPY CALLDATALOAD ORIGIN CALLVALUE BALANCE KECCAK256 CALLDATALOAD ADDRESS CALLVALUE 0x2E CODECOPY CODECOPY ORIGIN CODESIZE BALANCE 0x2C BALANCE CALLDATACOPY BALANCE 0x2E ADDRESS ADDRESS CODECOPY ORIGIN CODESIZE KECCAK256 CALLDATALOAD ADDRESS CALLER 0x2E ADDRESS ADDRESS BALANCE CALLDATACOPY 0x2C ORIGIN CALLDATALOAD CALLDATALOAD 0x2E CODESIZE ORIGIN ORIGIN CALLVALUE CALLER KECCAK256 CALLVALUE CALLDATASIZE CODECOPY 0x2E CALLDATALOAD CALLDATACOPY CODECOPY CALLDATALOAD ORIGIN 0x2C CALLER CALLVALUE BALANCE 0x2E BALANCE CODESIZE CALLER BALANCE CALLER KECCAK256 CALLER CODESIZE ORIGIN 0x2E CALLER CALLVALUE CALLDATACOPY BALANCE CALLDATACOPY 0x2C CALLVALUE CALLDATASIZE CALLDATALOAD 0x2E CALLVALUE CALLER CALLDATALOAD CALLDATALOAD CODESIZE KECCAK256 ORIGIN CALLDATALOAD CODECOPY 0x2E CALLDATALOAD BALANCE CALLDATALOAD ADDRESS ORIGIN 0x2C CALLDATALOAD ADDRESS CALLDATACOPY 0x2E CODECOPY CODECOPY CALLVALUE CALLDATASIZE CALLDATACOPY KECCAK256 BALANCE CALLDATALOAD ORIGIN 0x2E ADDRESS CALLVALUE BALANCE BALANCE CODESIZE 0x2C CALLDATALOAD CALLDATASIZE CALLDATACOPY 0x2E CALLVALUE CODECOPY CODECOPY ADDRESS BALANCE KECCAK256 CODESIZE CODECOPY 0x2E CODESIZE CALLDATALOAD CALLDATALOAD BALANCE ORIGIN CALLDATASIZE 0x2C CALLDATALOAD BALANCE CALLDATACOPY 0x2E CALLDATACOPY CALLER BALANCE CALLDATASIZE CODESIZE KECCAK256 0x2D ADDRESS 0x2E ORIGIN CODECOPY CALLDATASIZE CALLER CALLER CODECOPY CALLDATACOPY BALANCE 0x2C CALLDATALOAD CODESIZE ADDRESS 0x2E CODECOPY CALLVALUE CODECOPY CODESIZE CALLDATALOAD KECCAK256 GAS KECCAK256 0x4D KECCAK256 ORIGIN CALLDATACOPY CODESIZE 0x2E CALLER ADDRESS CALLDATALOAD ORIGIN ORIGIN 0x2C CALLER ADDRESS CALLVALUE 0x2E BALANCE CODESIZE CODESIZE BALANCE CALLDATASIZE KECCAK256 PUSH4 0x2032302E CODECOPY CALLDATACOPY CODECOPY CODESIZE 0x2C 0x2D CALLDATACOPY 0x2E CALLDATACOPY CALLER CALLDATALOAD CALLDATALOAD KECCAK256 ORIGIN CODECOPY 0x2E CALLDATASIZE CALLDATALOAD CALLDATACOPY CALLVALUE CALLDATALOAD 0x2C 0x2D BALANCE ORIGIN 0x2E CALLDATACOPY BALANCE CALLDATASIZE ORIGIN CODESIZE KECCAK256 CALLER CODECOPY 0x2E ORIGIN CALLDATASIZE CALLVALUE CALLER CALLDATACOPY 0x2C 0x2D ORIGIN ORIGIN 0x2E CALLDATALOAD CALLER CALLDATASIZE CODESIZE CODESIZE KECCAK256 CALLDATASIZE 0x2E CODECOPY CALLER CALLDATASIZE CALLDATACOPY CODECOPY 0x2C 0x2D CALLDATACOPY 0x2E ADDRESS CODECOPY BALANCE ADDRESS CODESIZE KECCAK256 BALANCE ADDRESS 0x2E CALLER CALLER CODECOPY CALLDATASIZE ORIGIN 0x2C 0x2D CODECOPY 0x2E CALLDATALOAD CALLVALUE CALLER CODESIZE ORIGIN KECCAK256 BALANCE CALLVALUE 0x2E CALLDATACOPY CODECOPY CODESIZE CALLER BALANCE 0x2C 0x2D BALANCE ADDRESS 0x2E CALLDATASIZE CALLDATASIZE CALLDATASIZE CALLDATALOAD ORIGIN KECCAK256 CALLER 0x2E BALANCE CODESIZE CALLVALUE CALLDATALOAD CALLDATASIZE 0x2C 0x2D ADDRESS 0x2E CODESIZE ADDRESS BALANCE CODECOPY KECCAK256 CALLDATASIZE 0x2E CALLDATALOAD CALLDATASIZE ADDRESS CALLVALUE CODECOPY 0x2C 0x2D ORIGIN 0x2E CALLER CALLDATALOAD CALLDATACOPY CALLVALUE CALLVALUE KECCAK256 CALLDATACOPY 0x2E CALLDATALOAD ADDRESS ORIGIN ADDRESS CALLDATACOPY 0x2C 0x2D CALLER 0x2E CALLVALUE CALLDATALOAD CALLDATASIZE CALLDATACOPY CODECOPY KECCAK256 ADDRESS 0x2E CODECOPY CALLVALUE BALANCE CALLDATALOAD CODESIZE 0x2C 0x2D BALANCE 0x2E ADDRESS CODECOPY CODECOPY CALLER CALLDATALOAD KECCAK256 CALLVALUE 0x2E CALLDATACOPY ORIGIN BALANCE BALANCE CODESIZE 0x2C 0x2D CALLDATALOAD 0x2E ORIGIN ADDRESS CALLER ORIGIN CALLDATACOPY KECCAK256 CODESIZE 0x2E CALLER CODECOPY CODECOPY BALANCE CALLER 0x2C 0x2D CODECOPY 0x2E BALANCE BALANCE CODECOPY CODESIZE CALLER KECCAK256 CALLER 0x2E CALLDATASIZE CALLDATACOPY CALLDATACOPY CODECOPY CALLDATALOAD 0x2C 0x2D CALLER 0x2E CODECOPY BALANCE CALLDATASIZE CALLDATALOAD CALLDATASIZE KECCAK256 CODESIZE 0x2E BALANCE CALLDATACOPY CALLDATACOPY CODECOPY CALLDATALOAD 0x2C 0x2D CODECOPY 0x2E CALLER ADDRESS CODECOPY CALLVALUE CODECOPY KECCAK256 BALANCE ADDRESS 0x2C 0x2D BALANCE BALANCE 0x2E CODECOPY CODESIZE CALLVALUE ORIGIN CODESIZE KECCAK256 CALLVALUE 0x2E CALLER CALLER CALLDATASIZE BALANCE 0x2C 0x2D CALLDATASIZE 0x2E CALLVALUE CODESIZE CODESIZE CALLER CALLVALUE KECCAK256 CALLDATASIZE 0x2E CALLDATACOPY BALANCE CALLVALUE BALANCE CALLDATALOAD 0x2C 0x2D CALLDATALOAD 0x2E ADDRESS CALLVALUE CALLDATASIZE CALLDATASIZE CALLVALUE KECCAK256 BALANCE BALANCE 0x2E CALLDATALOAD BALANCE CALLDATASIZE CALLDATALOAD CALLER 0x2C 0x2D ADDRESS 0x2E CODESIZE CODESIZE BALANCE CALLVALUE CODECOPY KECCAK256 ORIGIN 0x2E CALLDATALOAD ADDRESS CALLDATALOAD CALLDATASIZE CALLDATACOPY 0x2C ORIGIN 0x2E ORIGIN KECCAK256 CALLVALUE 0x2E CODECOPY CODECOPY CODESIZE BALANCE ORIGIN 0x2C CALLVALUE KECCAK256 CALLDATALOAD 0x2E CALLDATALOAD CALLER CODESIZE CALLDATACOPY CODECOPY 0x2C CALLVALUE KECCAK256 ADDRESS 0x2E CALLDATALOAD CALLVALUE ADDRESS CALLDATASIZE CODESIZE 0x2C ADDRESS KECCAK256 CALLDATALOAD 0x2E CODECOPY CALLDATASIZE CALLDATACOPY CODECOPY CALLER 0x2C 0x2D CALLDATALOAD 0x2E ADDRESS BALANCE ADDRESS CODECOPY BALANCE KECCAK256 BALANCE ORIGIN 0x2E ADDRESS CALLDATASIZE ADDRESS CALLDATALOAD CALLDATASIZE 0x2C 0x2D BALANCE BALANCE 0x2E BALANCE CALLER CALLDATALOAD CALLER CALLDATASIZE KECCAK256 BALANCE BALANCE 0x2E CALLVALUE CALLVALUE CALLDATALOAD CALLER CODESIZE 0x2C 0x2D CODECOPY 0x2E CALLDATACOPY ADDRESS ORIGIN CALLDATASIZE CALLDATALOAD KECCAK256 BALANCE BALANCE 0x2E CALLDATACOPY BALANCE BALANCE CALLDATALOAD CODESIZE 0x2C 0x2D BALANCE CALLER 0x2E ADDRESS CALLDATASIZE ORIGIN CALLDATASIZE CALLDATASIZE KECCAK256 BALANCE CALLDATASIZE 0x2E ORIGIN BALANCE CODECOPY CALLDATALOAD CALLDATACOPY 0x2C 0x2D ORIGIN CALLDATASIZE 0x2E CALLDATACOPY CALLDATASIZE CALLDATALOAD BALANCE BALANCE KECCAK256 CODECOPY 0x2E CALLDATASIZE CALLDATALOAD ADDRESS CALLER CALLDATASIZE 0x2C 0x2D ORIGIN ORIGIN 0x2E CALLDATACOPY CALLVALUE ORIGIN BALANCE ORIGIN KECCAK256 ORIGIN 0x2E CALLDATACOPY CALLER ADDRESS BALANCE BALANCE 0x2C 0x2D CALLVALUE CALLVALUE 0x2E CALLDATASIZE BALANCE CALLDATASIZE CODECOPY ORIGIN KECCAK256 0x2D CODESIZE 0x2E CODESIZE CALLER ORIGIN BALANCE CODESIZE 0x2C 0x2D CALLDATASIZE CALLDATALOAD 0x2E CODECOPY BALANCE CODECOPY ADDRESS CODECOPY KECCAK256 0x2D CALLVALUE 0x2E ORIGIN CALLVALUE ADDRESS CALLDATASIZE CALLDATASIZE 0x2C 0x2D CALLDATACOPY 0x2E CALLER CODESIZE BALANCE CODECOPY CODESIZE KECCAK256 0x2D BALANCE ORIGIN 0x2E CODESIZE CALLDATASIZE CALLVALUE 0x2C 0x2D BALANCE CODECOPY 0x2E ORIGIN BALANCE ORIGIN CALLER CALLDATACOPY KECCAK256 0x2D BALANCE CODESIZE 0x2E ORIGIN CODESIZE CALLDATACOPY CALLER CALLVALUE 0x2C 0x2D ORIGIN CALLDATALOAD 0x2E ADDRESS CODESIZE CODESIZE CALLVALUE CALLVALUE KECCAK256 0x2D ORIGIN 0x2E BALANCE CALLDATALOAD CALLER 0x2C 0x2D ORIGIN 0x2E CALLER CALLER ORIGIN CALLDATACOPY CALLER KECCAK256 0x2D CALLDATASIZE 0x2E CALLER CODESIZE CALLDATASIZE CODECOPY CALLDATACOPY 0x2C 0x2D CALLDATACOPY 0x2E CODECOPY CODECOPY ADDRESS ADDRESS CALLDATALOAD KECCAK256 0x2D CODECOPY 0x2E CALLVALUE ADDRESS CODESIZE CODESIZE ORIGIN 0x2C 0x2D BALANCE ORIGIN 0x2E CALLDATALOAD CALLDATACOPY BALANCE CODESIZE CALLER KECCAK256 0x2D CALLDATALOAD 0x2E CALLVALUE BALANCE CODECOPY ADDRESS CALLER 0x2C 0x2D CODESIZE 0x2E ORIGIN BALANCE CALLDATASIZE CALLER CODECOPY CALLDATALOAD KECCAK256 0x2D CALLDATALOAD 0x2E CALLDATASIZE CALLVALUE CODECOPY CALLDATALOAD BALANCE 0x2C 0x2D CODESIZE 0x2E CALLER CODESIZE BALANCE CALLVALUE CALLDATALOAD CODECOPY KECCAK256 0x2D BALANCE CALLDATASIZE 0x2E CODESIZE ORIGIN CALLDATACOPY CALLDATASIZE ORIGIN 0x2C 0x2D BALANCE ORIGIN 0x2E ADDRESS CALLDATALOAD BALANCE ADDRESS CODESIZE CODESIZE KECCAK256 0x2D CALLDATASIZE 0x2E ORIGIN CALLER CALLER CALLER CALLER 0x2C 0x2D ORIGIN 0x2E ADDRESS CALLVALUE CALLDATASIZE CALLER ORIGIN CALLVALUE KECCAK256 0x2D BALANCE CALLDATASIZE 0x2E BALANCE CALLDATASIZE ADDRESS ORIGIN CODECOPY 0x2C 0x2D CALLVALUE 0x2E CALLDATASIZE ADDRESS CALLER CODESIZE CALLER CODECOPY KECCAK256 0x2D ORIGIN ORIGIN 0x2E ADDRESS CALLDATALOAD CODECOPY CODECOPY ORIGIN 0x2C 0x2D CALLDATALOAD 0x2E CALLDATASIZE CODESIZE CALLER CALLER CALLDATASIZE CALLVALUE KECCAK256 0x2D ORIGIN CALLDATACOPY 0x2E CALLVALUE CALLVALUE ORIGIN CALLDATASIZE CODECOPY 0x2C 0x2D CALLDATALOAD 0x2E ADDRESS ORIGIN BALANCE CALLDATALOAD ORIGIN CALLDATASIZE KECCAK256 0x2D ORIGIN CODECOPY 0x2E CALLDATACOPY CALLVALUE ADDRESS CALLDATALOAD CODESIZE 0x2C 0x2D CALLDATALOAD 0x2E CODESIZE CALLVALUE CALLDATASIZE BALANCE CODESIZE CODESIZE KECCAK256 0x2D CALLVALUE BALANCE 0x2E CALLDATACOPY CODECOPY CALLER ADDRESS CODECOPY 0x2C 0x2D BALANCE CALLVALUE 0x2E CODECOPY CODECOPY CODESIZE CALLDATALOAD CALLDATACOPY BALANCE KECCAK256 0x2D CALLER 0x2E CALLDATASIZE CODESIZE CALLDATACOPY CODECOPY CALLDATACOPY 0x2C 0x2D ORIGIN 0x2E CODESIZE ADDRESS ADDRESS CALLDATALOAD CALLDATALOAD BALANCE KECCAK256 0x2D CALLDATACOPY 0x2E CALLDATACOPY CODECOPY CALLER ORIGIN CALLVALUE 0x2C 0x2D CALLVALUE 0x2E CALLDATALOAD ORIGIN BALANCE CALLDATASIZE CODESIZE CALLER KECCAK256 0x2D BALANCE ORIGIN 0x2E ORIGIN CALLVALUE CALLDATALOAD CODESIZE CALLDATACOPY 0x2C 0x2D CALLDATALOAD 0x2E BALANCE CALLER CALLVALUE ADDRESS CALLDATACOPY CALLDATASIZE KECCAK256 0x2D CALLDATALOAD 0x2E CALLDATACOPY CODESIZE CODESIZE CALLDATACOPY CALLER 0x2C 0x2D ADDRESS 0x2E CALLDATACOPY CODECOPY CALLDATASIZE BALANCE CALLDATALOAD CALLVALUE KECCAK256 0x2D CALLDATACOPY 0x2E CALLER CALLDATACOPY ORIGIN ADDRESS CALLDATASIZE 0x2C 0x2D ADDRESS 0x2E CALLVALUE CALLDATACOPY CALLDATALOAD BALANCE CODESIZE CALLER KECCAK256 0x2D BALANCE BALANCE 0x2E CALLDATASIZE CALLDATASIZE ORIGIN CALLDATACOPY CALLER 0x2C ORIGIN 0x2E CALLER CALLDATASIZE CALLVALUE ORIGIN CALLVALUE CALLVALUE KECCAK256 0x2D BALANCE CALLDATACOPY 0x2E ORIGIN CALLER CALLDATASIZE CALLDATALOAD CALLVALUE 0x2C CODECOPY 0x2E CODESIZE BALANCE CALLDATACOPY ADDRESS ORIGIN CALLDATASIZE KECCAK256 0x2D CALLER ADDRESS 0x2E ORIGIN CODESIZE CALLDATASIZE CODECOPY CODECOPY 0x2C ORIGIN ORIGIN 0x2E ORIGIN ORIGIN ADDRESS ORIGIN CALLDATACOPY CALLDATASIZE KECCAK256 0x2D CALLVALUE CALLDATALOAD 0x2E CALLDATALOAD CALLDATACOPY BALANCE CALLDATACOPY ORIGIN 0x2C ORIGIN CALLDATACOPY 0x2E CALLDATALOAD CALLDATACOPY CODESIZE CALLDATALOAD ORIGIN CALLDATALOAD KECCAK256 0x2D CALLDATASIZE 0x2E CALLDATALOAD BALANCE CALLDATASIZE CODECOPY ORIGIN 0x2C ORIGIN 0x2E ORIGIN CALLDATASIZE CALLER BALANCE CALLDATASIZE KECCAK256 0x2D BALANCE ADDRESS 0x2E CODECOPY CODESIZE BALANCE CALLDATACOPY CALLDATACOPY 0x2C CALLDATALOAD 0x2E BALANCE ADDRESS ORIGIN ORIGIN KECCAK256 0x2D BALANCE CODESIZE 0x2C BALANCE BALANCE 0x2E CALLVALUE CALLVALUE CALLDATALOAD CALLDATALOAD CALLDATASIZE KECCAK256 0x2D BALANCE CALLDATALOAD 0x2E ORIGIN ADDRESS CALLER CODESIZE CODESIZE 0x2C BALANCE BALANCE 0x2E ADDRESS ORIGIN CODESIZE CALLDATACOPY KECCAK256 0x2D CALLER 0x2E CALLDATALOAD CALLDATALOAD CALLDATACOPY CALLVALUE ORIGIN 0x2C ORIGIN CALLDATASIZE 0x2E CODECOPY CODESIZE CALLDATACOPY CALLDATALOAD ORIGIN KECCAK256 BALANCE ADDRESS 0x2E BALANCE CODECOPY CALLDATASIZE CALLVALUE CALLDATACOPY 0x2C CALLER ADDRESS 0x2E CALLVALUE ORIGIN CODECOPY ORIGIN KECCAK256 BALANCE 0x2E CODECOPY CALLVALUE BALANCE CALLVALUE 0x2C ADDRESS 0x2E CALLVALUE CALLDATASIZE CALLVALUE CALLDATASIZE CALLDATASIZE KECCAK256 CALLDATASIZE 0x2E ADDRESS CALLVALUE CODESIZE BALANCE CALLDATACOPY 0x2C ORIGIN 0x2E CODECOPY CALLVALUE CODESIZE CODESIZE CALLDATACOPY KECCAK256 CODECOPY 0x2E BALANCE ORIGIN CALLDATASIZE BALANCE CALLDATASIZE 0x2C CALLDATALOAD 0x2E CALLDATALOAD ORIGIN ADDRESS CALLVALUE CALLDATASIZE KECCAK256 CALLER 0x2E ADDRESS CALLDATACOPY CALLDATACOPY CODECOPY CODESIZE 0x2C ORIGIN 0x2E CALLDATALOAD CALLDATACOPY BALANCE CALLDATALOAD CODESIZE KECCAK256 CALLDATASIZE 0x2E ORIGIN ORIGIN ORIGIN CALLVALUE ORIGIN 0x2C CALLVALUE 0x2E CALLDATASIZE CALLDATACOPY CALLDATALOAD CALLDATASIZE BALANCE KECCAK256 CALLDATASIZE 0x2E CODECOPY CODESIZE CALLDATACOPY CALLDATASIZE CALLDATALOAD 0x2C CALLVALUE 0x2E CALLDATASIZE CALLDATACOPY CALLDATALOAD CALLDATASIZE BALANCE KECCAK256 ORIGIN 0x2E CALLDATASIZE CODESIZE CALLDATALOAD ADDRESS CODESIZE 0x2C ADDRESS KECCAK256 0x2D ADDRESS 0x2E BALANCE CALLVALUE CALLDATACOPY CALLDATACOPY CALLDATACOPY 0x2C BALANCE CALLDATACOPY 0x2E CALLDATALOAD CALLDATACOPY BALANCE CALLDATASIZE CALLER KECCAK256 0x2D CALLER 0x2E CALLDATACOPY ADDRESS CALLER CALLER CODECOPY 0x2C ORIGIN ORIGIN 0x2E CODECOPY CALLDATACOPY BALANCE CALLVALUE BALANCE KECCAK256 0x2D BALANCE 0x2E CODESIZE ADDRESS ADDRESS CALLVALUE CALLDATASIZE 0x2C ORIGIN 0x2E CALLDATACOPY CALLER CALLVALUE ORIGIN CODESIZE KECCAK256 0x2D CALLER 0x2E ORIGIN CALLDATACOPY CALLDATACOPY ORIGIN CALLDATALOAD 0x2C CALLDATALOAD 0x2E CALLDATACOPY CALLER CALLVALUE ORIGIN CODESIZE KECCAK256 0x2D CALLER 0x2E ORIGIN CODESIZE BALANCE CALLDATACOPY CALLDATACOPY 0x2C CALLDATASIZE 0x2E CALLDATASIZE CALLDATASIZE CALLDATASIZE CALLDATASIZE CALLDATACOPY KECCAK256 0x2D ADDRESS 0x2E ADDRESS ADDRESS CALLVALUE 0x2C ADDRESS 0x2E CODECOPY CALLER ORIGIN CALLER CODECOPY KECCAK256 0x2D BALANCE 0x2E ADDRESS CALLER BALANCE CALLDATALOAD ORIGIN 0x2C CALLER 0x2E CALLVALUE CODECOPY CALLDATALOAD ORIGIN CALLDATALOAD KECCAK256 0x2D ORIGIN 0x2E ORIGIN CODESIZE ORIGIN ORIGIN CALLER 0x2C CALLDATALOAD 0x2E CALLDATASIZE CODECOPY CALLDATALOAD ORIGIN CALLDATALOAD KECCAK256 0x2D CALLDATALOAD 0x2E CALLER CALLVALUE CALLDATALOAD BALANCE CALLER 0x2C CODECOPY 0x2E CALLVALUE ADDRESS ORIGIN BALANCE CALLDATALOAD KECCAK256 0x2D CALLDATALOAD 0x2E CALLDATALOAD CODESIZE CALLER CALLDATASIZE ORIGIN 0x2C CALLDATACOPY ADDRESS 0x2E CALLDATASIZE ORIGIN BALANCE CODESIZE CALLER KECCAK256 0x2D ADDRESS 0x2E CALLER CALLDATASIZE CALLDATASIZE CALLER CALLDATASIZE 0x2C CODECOPY CALLVALUE 0x2E ADDRESS CALLVALUE CALLVALUE ORIGIN CALLDATACOPY KECCAK256 ORIGIN 0x2E ORIGIN BALANCE CALLDATASIZE ADDRESS CALLDATASIZE 0x2C CODECOPY 0x2E CODECOPY CALLVALUE CODESIZE CODESIZE KECCAK256 CALLER 0x2E CALLDATASIZE ORIGIN CALLVALUE CALLDATASIZE 0x2C BALANCE CALLER 0x2E ORIGIN CALLDATACOPY ORIGIN CALLER ORIGIN KECCAK256 CALLDATACOPY 0x2E CALLDATASIZE CODESIZE ORIGIN CALLER BALANCE 0x2C BALANCE CODESIZE 0x2E BALANCE ORIGIN CALLDATASIZE CALLDATASIZE ORIGIN KECCAK256 CALLDATALOAD 0x2E CALLER CALLDATASIZE BALANCE CALLER CALLDATASIZE 0x2C CALLDATASIZE 0x2E CALLVALUE BALANCE CALLER CODECOPY ORIGIN KECCAK256 CALLDATASIZE 0x2E CALLDATALOAD ORIGIN CODECOPY ORIGIN CALLER 0x2C CALLDATASIZE 0x2E CODECOPY BALANCE CALLDATALOAD ADDRESS CALLDATACOPY KECCAK256 BALANCE CALLDATACOPY 0x2E CALLDATASIZE CALLVALUE BALANCE BALANCE CALLDATASIZE 0x2C CALLDATACOPY 0x2E CALLDATALOAD CALLDATACOPY ADDRESS BALANCE CALLDATASIZE KECCAK256 ORIGIN ORIGIN 0x2E CALLDATALOAD ORIGIN CALLDATALOAD CALLDATACOPY CODECOPY 0x2C BALANCE 0x2E CALLER ORIGIN CALLDATACOPY CODECOPY CODECOPY KECCAK256 ORIGIN CALLDATASIZE 0x2E ORIGIN ORIGIN CALLER CALLDATACOPY ORIGIN 0x2C BALANCE 0x2E ADDRESS ORIGIN BALANCE CODESIZE CALLDATASIZE KECCAK256 CALLER CALLDATACOPY 0x2E CALLER CODESIZE CODECOPY CODECOPY CALLDATASIZE 0x2C 0x2D CALLER 0x2E ADDRESS CODECOPY CALLDATALOAD ORIGIN CALLDATASIZE KECCAK256 PUSH27 0x206D202D34382E35383938352C2D31322E31393332332063202D32 0x2E CODECOPY CALLER CODECOPY ADDRESS CALLDATACOPY 0x2C 0x2D CALLVALUE 0x2E BALANCE CODECOPY CALLDATASIZE BALANCE BALANCE KECCAK256 0x2D ADDRESS 0x2E CALLER CALLDATASIZE CODECOPY BALANCE 0x2C 0x2D CALLDATASIZE 0x2E CODESIZE BALANCE CODECOPY CODESIZE CALLVALUE KECCAK256 CALLDATALOAD 0x2E ORIGIN BALANCE CALLDATASIZE CODESIZE ORIGIN 0x2C 0x2D CALLDATALOAD 0x2E CALLER ORIGIN CALLDATALOAD CODECOPY CALLER KECCAK256 CALLER 0x2E ADDRESS CALLER CALLDATALOAD CALLDATACOPY CALLDATASIZE 0x2C ADDRESS 0x2E CODESIZE BALANCE BALANCE CODESIZE CODESIZE KECCAK256 CALLER 0x2E CODECOPY CODESIZE CALLER ADDRESS CALLDATACOPY 0x2C BALANCE 0x2E CODESIZE CALLER CALLDATALOAD BALANCE CODESIZE KECCAK256 CALLER 0x2E CODECOPY CODESIZE CALLER ADDRESS CALLDATACOPY 0x2C CALLVALUE 0x2E CALLER ADDRESS ORIGIN CALLDATASIZE CALLVALUE KECCAK256 ADDRESS 0x2C CALLVALUE 0x2E CALLDATALOAD CODESIZE CODESIZE BALANCE ORIGIN KECCAK256 0x2D CALLDATASIZE 0x2E ORIGIN BALANCE CODESIZE CALLDATALOAD ORIGIN 0x2C CALLDATALOAD 0x2E ORIGIN CALLDATACOPY CODECOPY CODESIZE KECCAK256 0x2D CODECOPY 0x2E BALANCE CODECOPY CODECOPY CODESIZE CODECOPY 0x2C BALANCE 0x2E ADDRESS ORIGIN CALLER ORIGIN CODECOPY KECCAK256 PUSH27 0x206D20332E32333436352C2D31362E31393434382063202D382E37 ADDRESS CALLVALUE CALLDATASIZE CALLER 0x2C 0x2D ORIGIN 0x2E CODECOPY CODECOPY ADDRESS CALLDATACOPY BALANCE KECCAK256 0x2D CODECOPY 0x2E CALLDATASIZE CALLER CALLDATALOAD CALLDATACOPY BALANCE 0x2C 0x2D BALANCE BALANCE 0x2E CALLDATALOAD CODECOPY BALANCE CALLVALUE BALANCE KECCAK256 0x2D BALANCE 0x2E ORIGIN CALLDATALOAD CALLVALUE CODESIZE CALLDATALOAD 0x2C 0x2D BALANCE BALANCE 0x2E CALLDATALOAD CODECOPY BALANCE CALLVALUE BALANCE KECCAK256 CALLVALUE 0x2E CALLDATALOAD ADDRESS ORIGIN CALLVALUE BALANCE 0x2C ADDRESS KECCAK256 BALANCE CODESIZE 0x2E CALLDATALOAD CALLDATALOAD CALLER CALLVALUE ORIGIN 0x2C CALLDATALOAD 0x2E ADDRESS CALLER CODECOPY ADDRESS CALLVALUE KECCAK256 BALANCE CODESIZE 0x2E CALLDATALOAD CALLDATALOAD CALLER CALLVALUE ORIGIN 0x2C CALLDATASIZE 0x2E CALLDATASIZE CALLDATALOAD CALLER CALLDATACOPY ORIGIN KECCAK256 ADDRESS 0x2C BALANCE 0x2E CALLDATALOAD BALANCE ORIGIN CALLER CODESIZE KECCAK256 0x2D CODESIZE 0x2E CALLDATALOAD ADDRESS ADDRESS CODESIZE CALLDATASIZE 0x2C CALLDATASIZE 0x2E CALLDATASIZE CODECOPY CODECOPY ORIGIN CALLVALUE KECCAK256 0x2D BALANCE ADDRESS 0x2E CODESIZE ORIGIN CALLVALUE ADDRESS CALLVALUE 0x2C CALLDATASIZE 0x2E CALLDATASIZE ADDRESS CALLVALUE CALLER CALLDATASIZE KECCAK256 0x2D BALANCE 0x2E ADDRESS BALANCE CALLER CALLVALUE CALLDATALOAD 0x2C 0x2D ADDRESS 0x2E ADDRESS CALLVALUE BALANCE CALLER KECCAK256 0x2D CALLER 0x2E CODECOPY ORIGIN CALLDATASIZE CODECOPY CODESIZE 0x2C 0x2D ADDRESS 0x2E CALLDATACOPY CODECOPY BALANCE CALLVALUE KECCAK256 0x2D CALLDATASIZE 0x2E CALLVALUE CALLDATACOPY CALLVALUE CALLDATALOAD CALLER 0x2C 0x2D BALANCE 0x2E CALLDATASIZE CALLDATASIZE CALLDATASIZE CALLDATASIZE CALLDATACOPY KECCAK256 PUSH27 0x206D202D322E353236362C2D31372E33383037362063202D322E30 CALLER ORIGIN CODECOPY BALANCE 0x2C 0x2D ORIGIN 0x2E CALLVALUE CALLVALUE CODECOPY CALLDATALOAD BALANCE KECCAK256 0x2D ADDRESS 0x2E CALLDATALOAD CALLDATASIZE ORIGIN CALLDATALOAD CODECOPY 0x2C 0x2D CALLER 0x2E CALLDATALOAD CALLVALUE CALLER CODECOPY CODECOPY KECCAK256 CALLVALUE 0x2E CALLDATACOPY CALLDATASIZE ADDRESS CODECOPY CALLDATACOPY 0x2C 0x2D CALLER 0x2E CALLDATALOAD CALLVALUE CALLER CODECOPY CODECOPY KECCAK256 CALLDATACOPY 0x2E ORIGIN CODECOPY ADDRESS CALLVALUE ORIGIN 0x2C 0x2D ADDRESS 0x2E ORIGIN CALLVALUE CODECOPY CALLDATASIZE ORIGIN KECCAK256 ADDRESS 0x2E CODECOPY CALLDATACOPY CODECOPY ADDRESS CODESIZE 0x2C 0x2D CALLER 0x2E ADDRESS CALLER CALLDATASIZE CODESIZE CALLVALUE KECCAK256 CALLER 0x2E ADDRESS CALLER CALLVALUE BALANCE 0x2C 0x2D CALLDATASIZE 0x2E CALLDATASIZE BALANCE CALLDATACOPY CODECOPY CALLVALUE KECCAK256 ADDRESS 0x2E CODECOPY ORIGIN CALLER ADDRESS CALLDATALOAD 0x2C 0x2D BALANCE 0x2E CALLVALUE CODECOPY CALLER CALLDATALOAD CALLVALUE KECCAK256 BALANCE 0x2E CODESIZE CALLER CALLER CALLDATALOAD ORIGIN 0x2C 0x2D BALANCE 0x2E CALLDATALOAD BALANCE ADDRESS CODESIZE CALLDATACOPY KECCAK256 CALLDATALOAD 0x2E ORIGIN CALLVALUE ADDRESS ORIGIN CODECOPY 0x2C 0x2D ADDRESS 0x2E ADDRESS CODECOPY CODECOPY CALLDATACOPY KECCAK256 CALLVALUE 0x2E ORIGIN CODESIZE CALLDATASIZE ORIGIN CALLDATACOPY 0x2C BALANCE 0x2E CALLDATACOPY CALLDATACOPY CALLDATALOAD CALLVALUE CALLVALUE KECCAK256 CALLDATALOAD 0x2E BALANCE CALLER BALANCE CALLVALUE CODESIZE 0x2C CALLER 0x2E ORIGIN CALLDATACOPY ADDRESS CALLVALUE CALLDATASIZE KECCAK256 ORIGIN 0x2E CALLDATASIZE CODECOPY CODESIZE CODECOPY ORIGIN 0x2C CALLVALUE 0x2E CALLDATACOPY CALLDATACOPY CALLER CODESIZE CALLDATASIZE KECCAK256 0x2D BALANCE 0x2E CALLDATACOPY CODESIZE ADDRESS CODECOPY BALANCE 0x2C BALANCE 0x2E CODESIZE ORIGIN CALLDATASIZE CALLDATACOPY BALANCE KECCAK256 ADDRESS 0x2E CALLVALUE CODECOPY CALLDATACOPY ADDRESS CALLDATACOPY 0x2C CALLVALUE 0x2E CALLDATACOPY CALLDATASIZE CALLDATACOPY CALLDATACOPY BALANCE KECCAK256 0x2D BALANCE 0x2E CALLDATALOAD CALLER ADDRESS CALLDATASIZE BALANCE 0x2C CALLDATASIZE 0x2E BALANCE CALLDATALOAD ADDRESS BALANCE CALLVALUE KECCAK256 0x2D ORIGIN 0x2E CALLDATACOPY CALLDATALOAD CALLER ADDRESS CALLER 0x2C BALANCE 0x2E CALLDATACOPY CALLVALUE CALLDATASIZE CODESIZE CALLVALUE KECCAK256 0x2D BALANCE ORIGIN 0x2E CALLDATALOAD CODESIZE CALLVALUE CALLDATACOPY ORIGIN 0x2C BALANCE 0x2E ORIGIN CODESIZE CODESIZE CALLER CODECOPY KECCAK256 0x2D BALANCE CALLVALUE 0x2E ORIGIN ADDRESS CALLER CALLDATASIZE CALLDATACOPY 0x2C 0x2D ADDRESS 0x2E CALLDATASIZE CALLDATASIZE ORIGIN CALLER CALLER KECCAK256 PUSH27 0x206D2034302E30393138342C2D362E34373733322063202D302E38 CODESIZE 0x2C 0x2D ADDRESS 0x2E CODESIZE CODESIZE KECCAK256 0x2D BALANCE 0x2E CALLDATASIZE 0x2C 0x2D CALLVALUE 0x2E ORIGIN ORIGIN CALLVALUE KECCAK256 0x2D BALANCE 0x2E CALLDATASIZE 0x2C 0x2D CALLDATACOPY 0x2E CALLVALUE CALLER BALANCE ADDRESS CODECOPY KECCAK256 ADDRESS 0x2C 0x2D CALLVALUE 0x2E CALLDATACOPY CODESIZE CODECOPY BALANCE CODECOPY KECCAK256 ADDRESS 0x2E CALLVALUE ADDRESS CODESIZE CALLER CALLDATACOPY 0x2C 0x2D CALLDATALOAD 0x2E CALLDATACOPY CALLDATALOAD ORIGIN CALLVALUE CALLDATASIZE KECCAK256 ORIGIN 0x2E ORIGIN CODESIZE CALLDATALOAD CALLVALUE CALLDATALOAD 0x2C 0x2D CALLDATALOAD 0x2E CALLER CODECOPY ADDRESS CODECOPY CODESIZE KECCAK256 CALLER 0x2E CODESIZE CALLDATACOPY CALLDATACOPY BALANCE CODECOPY 0x2C ADDRESS 0x2E CALLDATACOPY CALLVALUE CALLDATASIZE CALLDATASIZE CODESIZE KECCAK256 CALLDATALOAD 0x2E CALLDATACOPY CODECOPY CALLDATALOAD CALLDATALOAD BALANCE 0x2C BALANCE CALLVALUE 0x2E CALLVALUE ORIGIN ORIGIN ADDRESS CALLDATACOPY KECCAK256 ORIGIN 0x2E ADDRESS ORIGIN CALLER ADDRESS CALLDATASIZE 0x2C BALANCE CALLVALUE 0x2E CALLVALUE ORIGIN ORIGIN ADDRESS CALLDATACOPY KECCAK256 0x2D ADDRESS 0x2E CALLDATASIZE ADDRESS CODECOPY CALLDATASIZE CODESIZE 0x2C ADDRESS KECCAK256 0x2D BALANCE 0x2E CODESIZE ORIGIN CODESIZE CALLDATALOAD BALANCE 0x2C 0x2D ADDRESS 0x2E CALLDATACOPY ORIGIN KECCAK256 0x2D ORIGIN 0x2E CALLDATACOPY ADDRESS CODESIZE CALLDATALOAD BALANCE 0x2C 0x2D BALANCE 0x2E CALLDATASIZE KECCAK256 PUSH27 0x206D202D35312E37303539332C2D392E3836303736206320312E35 ADDRESS CALLER CALLDATASIZE 0x2C 0x2D CALLDATASIZE 0x2E BALANCE ADDRESS CODESIZE CALLDATACOPY CALLDATALOAD KECCAK256 CALLVALUE 0x2E CALLDATALOAD CALLER CALLDATACOPY ADDRESS CODESIZE 0x2C 0x2D CODECOPY 0x2E CODESIZE CALLDATACOPY ORIGIN CALLDATALOAD CALLDATACOPY KECCAK256 CALLDATACOPY 0x2E CODECOPY CALLDATALOAD CALLDATASIZE CODESIZE CALLDATALOAD 0x2C 0x2D CODECOPY 0x2E CODESIZE CALLDATACOPY ORIGIN CALLDATALOAD CALLDATACOPY KECCAK256 CALLVALUE 0x2E CALLDATASIZE CODESIZE BALANCE ORIGIN CALLDATALOAD 0x2C ADDRESS KECCAK256 CODECOPY 0x2E CALLVALUE CALLDATALOAD CALLDATASIZE ORIGIN CALLER 0x2C 0x2D CALLVALUE 0x2E CALLVALUE CALLDATASIZE CALLDATACOPY CALLDATACOPY CALLDATASIZE KECCAK256 BALANCE ORIGIN 0x2E ADDRESS CALLDATALOAD CODECOPY ADDRESS CALLDATACOPY 0x2C 0x2D BALANCE BALANCE 0x2E ORIGIN CODESIZE CALLER ORIGIN KECCAK256 BALANCE 0x2E ORIGIN CALLDATACOPY CALLDATACOPY ORIGIN 0x2C 0x2D CALLER 0x2E CALLER CALLVALUE CALLVALUE CALLER ORIGIN KECCAK256 CALLER 0x2E CALLDATALOAD ADDRESS CODESIZE CALLVALUE CALLDATASIZE 0x2C 0x2D CALLDATASIZE 0x2E CALLDATACOPY BALANCE CALLDATALOAD CALLVALUE CALLVALUE KECCAK256 CALLVALUE 0x2E CODECOPY CALLDATALOAD CODESIZE CALLER CALLVALUE 0x2C 0x2D CALLDATACOPY 0x2E CALLVALUE CODECOPY BALANCE CALLVALUE KECCAK256 ORIGIN 0x2E ADDRESS ORIGIN ORIGIN CODECOPY CODESIZE 0x2C 0x2D BALANCE 0x2E ADDRESS CODESIZE ORIGIN CALLDATASIZE CALLDATASIZE KECCAK256 ORIGIN 0x2E CALLVALUE CALLVALUE CALLDATACOPY CALLER CODECOPY 0x2C 0x2D ORIGIN 0x2E ORIGIN CALLDATACOPY ADDRESS ORIGIN CALLDATASIZE KECCAK256 BALANCE 0x2E CODESIZE ORIGIN CALLVALUE CALLDATASIZE CALLVALUE 0x2C 0x2D CALLDATALOAD 0x2E BALANCE ADDRESS CALLDATALOAD CALLDATASIZE CALLDATASIZE KECCAK256 0x2D ADDRESS 0x2E CALLDATALOAD CALLVALUE CODESIZE CALLDATASIZE CALLVALUE 0x2C 0x2D ORIGIN 0x2E CALLVALUE CODECOPY CALLDATACOPY CODECOPY CALLER KECCAK256 0x2D ADDRESS 0x2E BALANCE CALLVALUE CALLVALUE CALLVALUE CALLDATALOAD 0x2C 0x2D CALLVALUE 0x2E ORIGIN CALLVALUE CODESIZE CALLVALUE CALLDATASIZE KECCAK256 BALANCE 0x2E ORIGIN CALLVALUE CALLDATACOPY CALLDATACOPY CALLDATALOAD 0x2C 0x2D CALLDATALOAD 0x2E CALLVALUE ADDRESS CALLER CODESIZE CODESIZE KECCAK256 ORIGIN 0x2E CALLDATASIZE CALLER CALLER ORIGIN CALLDATACOPY 0x2C 0x2D ORIGIN 0x2E BALANCE CODESIZE CALLDATALOAD CALLVALUE ORIGIN KECCAK256 ORIGIN 0x2E CALLDATASIZE CALLDATALOAD BALANCE CODESIZE CODESIZE 0x2C 0x2D CALLDATACOPY 0x2E ORIGIN CALLER ADDRESS CODESIZE CALLDATASIZE KECCAK256 ADDRESS 0x2E ADDRESS CALLER CALLVALUE CALLDATACOPY 0x2C 0x2D CODECOPY 0x2E CALLVALUE ADDRESS ORIGIN CODECOPY CALLDATASIZE KECCAK256 0x2D BALANCE 0x2E BALANCE BALANCE CALLER CALLDATALOAD CALLVALUE 0x2C 0x2D ADDRESS 0x2E CODECOPY ORIGIN CALLVALUE BALANCE CALLVALUE KECCAK256 0x2D ORIGIN 0x2E CODECOPY CODESIZE BALANCE CODECOPY BALANCE 0x2C 0x2D CALLER 0x2E CALLDATASIZE CODECOPY CALLDATACOPY CALLDATASIZE BALANCE KECCAK256 0x2D CALLVALUE 0x2E BALANCE CALLDATALOAD BALANCE CODECOPY CALLVALUE 0x2C 0x2D CALLDATASIZE 0x2E BALANCE CALLDATASIZE CALLER ORIGIN CALLDATALOAD KECCAK256 0x2D BALANCE 0x2E BALANCE CALLDATACOPY 0x2C 0x2D ORIGIN 0x2E CALLVALUE CALLDATASIZE CALLDATALOAD CALLDATASIZE CALLVALUE KECCAK256 0x2D ORIGIN 0x2E CALLDATALOAD BALANCE CALLDATALOAD CALLVALUE CODECOPY 0x2C 0x2D CALLVALUE 0x2E CALLVALUE CODESIZE ORIGIN CODECOPY CODECOPY KECCAK256 0x2D ORIGIN 0x2E CODECOPY CODESIZE CODECOPY CODECOPY CALLVALUE 0x2C 0x2D CALLVALUE 0x2E CALLVALUE CODESIZE ORIGIN CODECOPY CODECOPY KECCAK256 0x2D ADDRESS 0x2E CALLVALUE CALLDATACOPY CALLVALUE CALLVALUE CALLDATASIZE 0x2C ADDRESS KECCAK256 0x2D CALLER 0x2E ORIGIN CALLDATALOAD CALLDATASIZE BALANCE 0x2C 0x2D ORIGIN 0x2E ADDRESS CODECOPY CODESIZE ORIGIN CALLDATALOAD KECCAK256 0x2D CALLDATASIZE 0x2E BALANCE CODESIZE BALANCE CALLVALUE ORIGIN 0x2C 0x2D CALLVALUE 0x2E CALLDATASIZE CALLDATASIZE ORIGIN CALLDATACOPY CODESIZE KECCAK256 0x2D CALLVALUE 0x2E BALANCE ORIGIN CALLDATACOPY CODESIZE CODESIZE 0x2C 0x2D CALLER 0x2E CALLDATASIZE BALANCE CODESIZE CALLDATACOPY CODESIZE KECCAK256 0x2D CALLVALUE 0x2E CODECOPY ADDRESS CALLDATACOPY CALLER CALLDATASIZE 0x2C 0x2D CALLVALUE 0x2E CODECOPY ORIGIN CODESIZE CODESIZE KECCAK256 0x2D CALLER 0x2E CALLVALUE CODESIZE BALANCE CALLER CALLDATASIZE 0x2C 0x2D CALLDATALOAD 0x2E CODESIZE CALLDATALOAD ADDRESS CODESIZE CODESIZE KECCAK256 ORIGIN 0x2E CALLVALUE CALLDATALOAD BALANCE CALLDATASIZE 0x2C 0x2D BALANCE 0x2E CALLDATALOAD CODESIZE CALLDATALOAD ORIGIN CALLVALUE KECCAK256 BALANCE CALLVALUE 0x2E CALLDATALOAD CALLDATASIZE CALLER BALANCE CALLDATASIZE 0x2C 0x2D CALLER 0x2E BALANCE CALLVALUE BALANCE CALLDATALOAD ORIGIN KECCAK256 BALANCE CALLDATASIZE 0x2E ORIGIN CALLDATASIZE CALLVALUE CALLDATASIZE CALLDATASIZE 0x2C 0x2D ORIGIN 0x2E ADDRESS CODESIZE CODECOPY CODECOPY CALLER KECCAK256 ADDRESS 0x2E CALLDATACOPY CALLVALUE BALANCE CALLVALUE CALLDATALOAD 0x2C ADDRESS 0x2E CALLVALUE CALLDATALOAD CODESIZE ORIGIN CALLVALUE KECCAK256 ORIGIN 0x2E ADDRESS CALLDATACOPY BALANCE CODESIZE BALANCE 0x2C ADDRESS 0x2E ORIGIN CALLDATASIZE CALLVALUE CALLVALUE KECCAK256 ORIGIN 0x2E CODECOPY CALLDATALOAD CALLDATASIZE CALLER CALLVALUE 0x2C 0x2D ADDRESS 0x2E CALLVALUE CALLER ADDRESS CALLDATACOPY CALLDATALOAD KECCAK256 ADDRESS 0x2E CODESIZE CODESIZE CALLVALUE CALLDATALOAD CALLDATALOAD 0x2C 0x2D ADDRESS 0x2E CALLDATASIZE CODECOPY CALLDATALOAD BALANCE CALLDATASIZE KECCAK256 CALLVALUE 0x2E CALLVALUE ADDRESS CODECOPY CALLDATACOPY BALANCE 0x2C 0x2D BALANCE 0x2E CALLDATASIZE ORIGIN CODESIZE CALLDATASIZE CODESIZE KECCAK256 CALLDATACOPY 0x2E CODESIZE CALLER CALLER CALLDATASIZE CODESIZE 0x2C 0x2D ORIGIN 0x2E ADDRESS CALLDATACOPY CALLVALUE CALLVALUE CODECOPY KECCAK256 CALLDATALOAD 0x2E CODECOPY CALLVALUE BALANCE CALLVALUE ORIGIN 0x2C 0x2D ADDRESS 0x2E CALLDATACOPY CALLDATACOPY CALLER CALLDATALOAD CODECOPY KECCAK256 CALLDATASIZE 0x2E CALLER CALLVALUE ORIGIN CODECOPY ORIGIN 0x2C 0x2D ADDRESS 0x2E CALLDATASIZE BALANCE CALLVALUE CALLDATACOPY CALLER KECCAK256 CODESIZE 0x2E CODESIZE ADDRESS BALANCE CALLDATALOAD CALLDATALOAD 0x2C CALLER 0x2E CALLVALUE CODESIZE ORIGIN CALLVALUE CALLDATACOPY KECCAK256 BALANCE 0x2E CALLVALUE BALANCE CALLDATASIZE CODESIZE CODESIZE 0x2C ORIGIN 0x2E CALLER CALLDATASIZE BALANCE BALANCE CALLDATASIZE KECCAK256 CALLVALUE 0x2E CODECOPY BALANCE CALLDATALOAD CALLVALUE CALLVALUE 0x2C CALLDATALOAD 0x2E CALLVALUE CALLDATASIZE CALLVALUE CALLVALUE CODECOPY KECCAK256 CALLDATACOPY 0x2E CALLDATACOPY CALLDATACOPY CALLVALUE CALLDATALOAD CODECOPY 0x2C CALLDATASIZE 0x2E CODESIZE CODECOPY CALLDATASIZE ORIGIN CALLDATACOPY KECCAK256 ORIGIN 0x2E CODESIZE CALLDATALOAD CODECOPY BALANCE CALLVALUE 0x2C BALANCE 0x2E CALLVALUE CALLER BALANCE CALLDATACOPY CODESIZE KECCAK256 CALLDATALOAD 0x2E CODECOPY CALLDATALOAD CALLDATALOAD CODESIZE CALLDATALOAD 0x2C CALLER 0x2E BALANCE CALLDATASIZE BALANCE CALLER CODECOPY KECCAK256 CALLDATASIZE 0x2E CODESIZE CODESIZE BALANCE CALLDATALOAD CALLDATASIZE 0x2C CALLER 0x2E CODESIZE CALLVALUE CALLER CALLDATALOAD CALLDATACOPY KECCAK256 ORIGIN 0x2E CALLDATASIZE CALLDATASIZE ADDRESS CALLER ORIGIN 0x2C BALANCE 0x2E CODECOPY CALLDATASIZE ADDRESS CALLVALUE CALLDATACOPY KECCAK256 0x2D ADDRESS 0x2E CALLDATALOAD CALLDATASIZE CALLDATASIZE CALLDATASIZE CODESIZE 0x2C CALLVALUE 0x2E CALLDATACOPY CODESIZE CALLER ADDRESS CODECOPY KECCAK256 0x2D CALLDATASIZE 0x2E CALLDATALOAD CALLDATASIZE CALLVALUE CODECOPY ORIGIN 0x2C CALLDATALOAD 0x2E CALLDATACOPY CALLVALUE ORIGIN ORIGIN CALLDATALOAD KECCAK256 0x2D CALLER 0x2E CALLVALUE ADDRESS CALLDATALOAD ORIGIN 0x2C ADDRESS 0x2E CALLDATALOAD CALLVALUE CALLVALUE CALLDATALOAD BALANCE KECCAK256 0x2D CALLDATASIZE 0x2E ORIGIN ORIGIN CALLER CODECOPY ORIGIN 0x2C ORIGIN 0x2E ADDRESS CODECOPY CALLDATALOAD BALANCE CODECOPY KECCAK256 0x2D CODESIZE 0x2E BALANCE CALLDATASIZE ADDRESS BALANCE CODESIZE 0x2C CALLVALUE 0x2E CALLVALUE CODESIZE CODECOPY BALANCE CODECOPY KECCAK256 0x2D BALANCE 0x2E CALLDATASIZE ORIGIN CALLDATASIZE CODECOPY 0x2C ORIGIN 0x2E ADDRESS BALANCE BALANCE CALLDATALOAD CALLVALUE KECCAK256 0x2D CALLVALUE 0x2E CALLER CALLER CALLDATASIZE CODESIZE CALLDATALOAD 0x2C CALLVALUE 0x2E CALLER CALLDATASIZE CODESIZE CALLER CODESIZE KECCAK256 0x2D CALLDATASIZE 0x2E ADDRESS ORIGIN ORIGIN ADDRESS CODECOPY 0x2C CALLDATALOAD 0x2E ORIGIN CALLER CALLDATACOPY CALLVALUE ORIGIN KECCAK256 0x2D ORIGIN 0x2E BALANCE CALLVALUE CALLER CALLVALUE CALLDATALOAD 0x2C BALANCE 0x2E BALANCE ADDRESS CALLDATALOAD CALLER CALLER KECCAK256 0x2D ORIGIN 0x2E CODESIZE ORIGIN CALLDATALOAD CODECOPY CALLER 0x2C ORIGIN 0x2E CALLER CALLER ADDRESS CALLVALUE KECCAK256 0x2D ORIGIN 0x2E ORIGIN CALLDATACOPY BALANCE CALLVALUE CALLDATACOPY 0x2C CALLVALUE 0x2E ADDRESS CALLDATACOPY CALLDATACOPY CALLER CALLVALUE KECCAK256 ADDRESS 0x2E CALLVALUE CALLDATACOPY CALLDATASIZE CALLDATASIZE CALLVALUE 0x2C BALANCE 0x2E CALLDATALOAD ADDRESS BALANCE CALLDATACOPY CODESIZE KECCAK256 0x2D BALANCE 0x2E BALANCE ORIGIN CODECOPY 0x2C CALLDATASIZE 0x2E CALLER CODESIZE CALLDATALOAD CALLVALUE CALLDATASIZE KECCAK256 0x2D CALLVALUE 0x2E ADDRESS ORIGIN CALLDATACOPY CODESIZE CALLDATALOAD 0x2C BALANCE ORIGIN 0x2E ORIGIN CALLDATALOAD BALANCE ADDRESS CALLDATASIZE KECCAK256 0x2D ORIGIN 0x2E CODECOPY CALLDATALOAD CODESIZE CODECOPY CALLDATALOAD 0x2C CALLDATALOAD 0x2E CODECOPY CODESIZE CALLDATACOPY BALANCE CODESIZE KECCAK256 0x2D CALLVALUE 0x2E CALLDATALOAD CODESIZE CALLDATASIZE CALLDATASIZE CALLDATACOPY 0x2C BALANCE ADDRESS 0x2E CODECOPY CALLDATACOPY CALLDATASIZE CALLDATASIZE CODESIZE KECCAK256 0x2D CALLVALUE 0x2E ORIGIN BALANCE CALLDATALOAD ADDRESS CODESIZE 0x2C BALANCE ORIGIN 0x2E CODECOPY ORIGIN ADDRESS CALLDATALOAD CALLER KECCAK256 BALANCE 0x2E BALANCE CALLVALUE BALANCE CODECOPY ORIGIN 0x2C CALLDATALOAD 0x2E CODECOPY CALLDATACOPY CALLER CALLDATASIZE KECCAK256 0x2D BALANCE 0x2E CALLDATALOAD CODESIZE ORIGIN CODECOPY ORIGIN 0x2C BALANCE ORIGIN 0x2E BALANCE ORIGIN CODECOPY CODESIZE CODECOPY KECCAK256 0x2D CALLDATASIZE 0x2E CALLER CODESIZE BALANCE CALLDATASIZE CODECOPY 0x2C BALANCE CALLVALUE 0x2E CALLVALUE BALANCE CODESIZE ORIGIN CALLDATACOPY KECCAK256 0x2D CALLVALUE 0x2E ORIGIN CALLVALUE CODESIZE CALLDATASIZE 0x2C ORIGIN 0x2E ADDRESS ORIGIN CALLDATASIZE ADDRESS BALANCE KECCAK256 0x2D CALLVALUE 0x2E CALLDATASIZE CALLVALUE CALLDATACOPY CALLDATACOPY ORIGIN 0x2C BALANCE 0x2E CODECOPY CODECOPY ADDRESS ORIGIN CALLDATALOAD KECCAK256 0x2D CODESIZE 0x2E BALANCE ADDRESS ADDRESS CALLDATACOPY CODESIZE 0x2C 0x2D ADDRESS 0x2E CALLDATACOPY ORIGIN CALLDATALOAD CODECOPY CALLVALUE KECCAK256 0x2D CALLVALUE 0x2E CALLDATACOPY CALLDATASIZE CALLER CODESIZE CODESIZE 0x2C 0x2D CALLER 0x2E CALLDATACOPY CALLVALUE CALLDATACOPY ORIGIN CALLDATASIZE KECCAK256 0x2D CALLDATASIZE 0x2E CALLER CODECOPY CALLER CALLDATASIZE CODESIZE 0x2C 0x2D CALLER 0x2E CALLDATASIZE ADDRESS CODESIZE CODECOPY CALLER KECCAK256 0x2D CALLDATALOAD 0x2E CALLDATASIZE BALANCE ORIGIN CALLDATACOPY ORIGIN 0x2C ADDRESS 0x2E CALLVALUE CALLDATACOPY CALLDATASIZE CALLVALUE KECCAK256 ADDRESS 0x2E CALLVALUE ADDRESS BALANCE CALLDATACOPY CODESIZE 0x2C ORIGIN 0x2E BALANCE ADDRESS BALANCE CALLDATACOPY ORIGIN KECCAK256 ADDRESS 0x2E ADDRESS ORIGIN CODESIZE BALANCE 0x2C CALLER 0x2E CALLER CALLER CALLER CALLER CALLVALUE KECCAK256 0x2D BALANCE 0x2E ADDRESS BALANCE BALANCE ORIGIN ORIGIN 0x2C CALLER 0x2E CALLER CALLER CALLER CALLER CALLVALUE KECCAK256 0x2D ADDRESS 0x2E CODECOPY ADDRESS CALLDATASIZE CALLDATASIZE CALLVALUE 0x2C ADDRESS KECCAK256 0x2D CALLER 0x2E CALLDATASIZE BALANCE BALANCE CALLDATACOPY CALLDATALOAD 0x2C ADDRESS 0x2E CALLER CODECOPY ORIGIN CALLDATASIZE CALLDATASIZE KECCAK256 0x2D CALLDATASIZE 0x2E ADDRESS BALANCE BALANCE CALLER CALLVALUE 0x2C ADDRESS 0x2E CODESIZE CALLDATACOPY ORIGIN CALLDATALOAD CALLDATACOPY KECCAK256 0x2D CALLVALUE 0x2E ORIGIN CALLDATASIZE CODECOPY CALLDATACOPY CALLDATASIZE 0x2C ADDRESS 0x2E CODESIZE CALLDATALOAD CALLER CODECOPY CALLDATASIZE KECCAK256 0x2D CALLVALUE 0x2E CALLER CALLVALUE ORIGIN CALLDATALOAD CALLVALUE 0x2C ADDRESS 0x2E CALLDATACOPY CODESIZE CODECOPY CODECOPY ORIGIN KECCAK256 0x2D CALLER 0x2E CALLVALUE ADDRESS CODECOPY CALLDATACOPY 0x2C 0x2D CALLER KECCAK256 PUSH27 0x206D2039302E37323432312C322E30343931332063202D302E3437 CODECOPY CODESIZE CALLVALUE 0x2C 0x2D ADDRESS 0x2E CALLDATACOPY CALLDATACOPY CALLDATASIZE CALLVALUE KECCAK256 ADDRESS 0x2E CALLDATASIZE BALANCE CODESIZE ADDRESS CALLVALUE 0x2C 0x2D CALLER 0x2E CALLDATASIZE ORIGIN CALLDATASIZE CALLVALUE KECCAK256 ORIGIN 0x2E CALLVALUE CALLER CODECOPY CALLDATACOPY ORIGIN 0x2C 0x2D CALLDATASIZE 0x2E CALLER CALLER CALLER CALLER CALLER KECCAK256 ORIGIN 0x2E CALLER CALLER ADDRESS ADDRESS CALLVALUE 0x2C 0x2D CALLER 0x2E CALLVALUE CALLDATASIZE ORIGIN CALLER CALLDATALOAD KECCAK256 CALLER 0x2E CALLDATALOAD BALANCE CODECOPY BALANCE CALLER 0x2C 0x2D CALLDATACOPY 0x2E CALLVALUE ORIGIN CALLER CODECOPY BALANCE KECCAK256 CALLVALUE 0x2E ADDRESS BALANCE ADDRESS BALANCE CODECOPY 0x2C 0x2D BALANCE CALLER 0x2E CALLER CALLDATASIZE ADDRESS CALLER CALLDATACOPY KECCAK256 ADDRESS 0x2E CALLER CODESIZE CALLER CODECOPY ORIGIN 0x2C 0x2D CALLVALUE 0x2E CALLDATASIZE CALLVALUE BALANCE ORIGIN CALLDATACOPY KECCAK256 BALANCE 0x2E ADDRESS CALLDATASIZE ADDRESS CALLDATASIZE CALLVALUE 0x2C 0x2D CODESIZE 0x2E CODESIZE ADDRESS BALANCE ORIGIN CALLDATACOPY KECCAK256 BALANCE 0x2E CALLDATALOAD ADDRESS CALLER CODESIZE BALANCE 0x2C 0x2D CODECOPY 0x2E ORIGIN CALLVALUE CALLVALUE CALLVALUE CALLDATASIZE KECCAK256 BALANCE 0x2E CALLDATALOAD CODESIZE CALLVALUE ORIGIN BALANCE 0x2C 0x2D BALANCE 0x2E CALLDATALOAD CODESIZE CALLVALUE ORIGIN KECCAK256 CALLER 0x2E CODECOPY ORIGIN BALANCE CALLDATACOPY BALANCE 0x2C ORIGIN 0x2E CALLER CODECOPY CALLER CALLVALUE CALLVALUE KECCAK256 CALLVALUE 0x2E CALLDATASIZE CODECOPY CALLDATALOAD CALLER CALLDATACOPY 0x2C CALLDATACOPY 0x2E CODECOPY CODESIZE CODECOPY CODECOPY CALLDATASIZE KECCAK256 ADDRESS 0x2E CALLDATASIZE BALANCE ORIGIN CALLER CALLVALUE 0x2C CALLVALUE 0x2E CALLVALUE ORIGIN CODECOPY CALLDATALOAD KECCAK256 BALANCE 0x2E ORIGIN CODECOPY CODESIZE CODECOPY BALANCE 0x2C CALLDATALOAD 0x2E CALLDATASIZE ADDRESS CALLDATASIZE ORIGIN KECCAK256 CALLER 0x2E ADDRESS CODECOPY CALLER BALANCE CALLDATASIZE 0x2C CALLDATALOAD 0x2E CALLER ADDRESS BALANCE CALLER CODESIZE KECCAK256 CALLER 0x2E CODECOPY CALLDATACOPY CODECOPY CALLER CODECOPY 0x2C 0x2D ADDRESS 0x2E CALLDATASIZE CALLDATACOPY CALLDATASIZE ADDRESS CALLVALUE KECCAK256 ORIGIN 0x2E CALLDATALOAD CALLDATASIZE CALLDATALOAD CALLDATALOAD ORIGIN 0x2C CALLER 0x2E CALLDATASIZE CALLDATASIZE ORIGIN ADDRESS BALANCE KECCAK256 0x2D ORIGIN 0x2E ADDRESS CODESIZE CODESIZE CALLVALUE CODECOPY 0x2C CALLDATASIZE 0x2E CALLVALUE ADDRESS CALLDATACOPY CODECOPY CALLVALUE KECCAK256 0x2D ORIGIN 0x2E CALLVALUE BALANCE CALLDATACOPY ADDRESS CALLVALUE 0x2C BALANCE 0x2E CALLVALUE ORIGIN CALLDATASIZE BALANCE KECCAK256 0x2D CALLDATALOAD 0x2E CALLDATACOPY CALLER CALLDATALOAD 0x2C CALLVALUE 0x2E CALLVALUE ADDRESS CALLDATALOAD CODESIZE CALLDATASIZE KECCAK256 0x2D CALLDATACOPY 0x2E CALLER CALLDATACOPY CALLER ORIGIN CALLVALUE 0x2C CALLDATASIZE 0x2E CALLDATASIZE ORIGIN BALANCE CALLDATACOPY KECCAK256 0x2D CALLER 0x2E BALANCE CALLER CALLDATASIZE CALLDATALOAD CALLER 0x2C CALLVALUE 0x2E ORIGIN CALLVALUE ORIGIN CALLVALUE KECCAK256 0x2D CALLVALUE 0x2E CODESIZE CALLER CALLDATACOPY CODECOPY BALANCE 0x2C CALLVALUE 0x2E CODECOPY CALLDATALOAD BALANCE CALLER CALLDATACOPY KECCAK256 0x2D CALLDATASIZE 0x2E ORIGIN CODESIZE ADDRESS CALLDATALOAD ORIGIN 0x2C ORIGIN 0x2E CALLDATASIZE BALANCE CALLDATACOPY BALANCE CODESIZE KECCAK256 PUSH27 0x204D203231362E313337332C3232322E3534323337206320302E34 CALLDATACOPY BALANCE CODECOPY ORIGIN 0x2C 0x2D ORIGIN 0x2E CALLER CODESIZE CALLER CALLER CALLER KECCAK256 ADDRESS 0x2E CODESIZE CALLDATACOPY CALLVALUE CODESIZE CODESIZE 0x2C 0x2D CALLDATALOAD 0x2E CALLVALUE BALANCE CALLDATALOAD CALLDATALOAD CALLDATALOAD KECCAK256 ADDRESS 0x2E CODESIZE CODECOPY CALLDATALOAD CALLVALUE CALLDATACOPY 0x2C 0x2D CALLDATASIZE 0x2E CALLDATACOPY CALLER CODESIZE ORIGIN CALLVALUE KECCAK256 ADDRESS 0x2E ADDRESS CALLVALUE CALLDATALOAD CALLDATASIZE 0x2C 0x2D ORIGIN 0x2E CODECOPY ORIGIN CALLDATASIZE CODESIZE CODESIZE KECCAK256 CALLER 0x2E CALLDATALOAD BALANCE CALLVALUE CALLDATASIZE BALANCE 0x2C 0x2D CALLVALUE 0x2E CALLVALUE CODECOPY CALLDATASIZE CALLER BALANCE KECCAK256 CALLDATALOAD 0x2E CALLDATALOAD BALANCE CALLDATALOAD CALLDATASIZE BALANCE 0x2C 0x2D ORIGIN 0x2E CALLVALUE CODECOPY CALLDATALOAD CALLER BALANCE KECCAK256 BALANCE 0x2E ADDRESS CALLVALUE CODECOPY CALLDATASIZE 0x2C BALANCE 0x2E ADDRESS CALLVALUE CODECOPY CALLDATASIZE KECCAK256 ADDRESS 0x2E CODECOPY CODESIZE CALLER ORIGIN 0x2C ORIGIN 0x2E ADDRESS ORIGIN ADDRESS CODECOPY CODESIZE KECCAK256 0x2D ADDRESS 0x2E ORIGIN CALLER CODESIZE CODESIZE 0x2C CALLER 0x2E CALLVALUE CODECOPY CALLER CALLER CODECOPY KECCAK256 0x2D ADDRESS 0x2E CODECOPY CALLER ADDRESS CODECOPY CALLDATASIZE 0x2C BALANCE 0x2E BALANCE ORIGIN BALANCE CALLDATACOPY CALLDATALOAD KECCAK256 0x2D BALANCE 0x2E CALLER CALLDATASIZE CALLDATALOAD CODECOPY CODECOPY 0x2C ORIGIN 0x2E CODESIZE CODECOPY ADDRESS CODESIZE KECCAK256 0x2D ADDRESS 0x2E CODECOPY CALLDATASIZE CALLDATASIZE CALLDATACOPY CALLER 0x2C CALLER 0x2E CODECOPY CALLER BALANCE ORIGIN CALLVALUE KECCAK256 ADDRESS 0x2E CALLDATASIZE CODECOPY CALLDATALOAD CODESIZE 0x2C BALANCE 0x2E CODESIZE BALANCE CALLER ORIGIN CALLDATALOAD KECCAK256 0x2D ORIGIN 0x2E CODESIZE CALLVALUE ADDRESS CALLER 0x2C CALLDATASIZE 0x2E BALANCE CALLVALUE ORIGIN ORIGIN CALLDATALOAD KECCAK256 0x2D CALLDATALOAD 0x2E ADDRESS BALANCE CALLDATACOPY ORIGIN CALLVALUE 0x2C CALLDATASIZE 0x2E BALANCE CALLVALUE ORIGIN ORIGIN CALLDATALOAD KECCAK256 0x2D ADDRESS 0x2E CALLDATALOAD CALLDATACOPY CALLDATALOAD CALLDATALOAD 0x2C ADDRESS KECCAK256 0x2D ADDRESS 0x2E CALLDATASIZE CALLDATASIZE ADDRESS ORIGIN CALLER 0x2C 0x2D BALANCE 0x2E CODECOPY CALLDATALOAD KECCAK256 0x2D ADDRESS 0x2E BALANCE CODESIZE CODESIZE CALLER BALANCE 0x2C 0x2D CALLVALUE 0x2E CALLER CALLER CALLER CALLER CALLER KECCAK256 PUSH27 0x206D2035392E353431342C2D302E35313331352063202D322E3835 CALLDATASIZE CALLER CODECOPY 0x2C 0x2D CALLER 0x2E CALLDATASIZE CALLER BALANCE ORIGIN CODECOPY KECCAK256 0x2D CALLER 0x2E CALLDATASIZE CALLVALUE ADDRESS CODECOPY ORIGIN 0x2C 0x2D CALLDATACOPY 0x2E BALANCE CALLDATALOAD CALLER CALLDATALOAD ORIGIN KECCAK256 0x2D BALANCE 0x2E CALLDATALOAD CODECOPY CALLER CALLER CALLDATASIZE 0x2C 0x2D CALLDATACOPY 0x2E BALANCE CALLDATALOAD CALLER CALLDATALOAD ORIGIN KECCAK256 BALANCE 0x2E CALLDATACOPY CALLDATALOAD CODECOPY CALLDATASIZE CALLVALUE 0x2C ADDRESS KECCAK256 CALLER 0x2E CALLDATASIZE CODECOPY ADDRESS CALLVALUE 0x2C ORIGIN 0x2E CODESIZE CODECOPY CALLER BALANCE CODESIZE KECCAK256 CALLVALUE 0x2E CALLDATASIZE CALLDATACOPY BALANCE CALLVALUE CALLDATACOPY 0x2C CALLDATACOPY KECCAK256 BALANCE 0x2E ADDRESS CODECOPY CALLVALUE ADDRESS CODESIZE 0x2C CALLVALUE 0x2E CALLDATALOAD CALLDATACOPY CODECOPY CODECOPY BALANCE KECCAK256 ADDRESS 0x2E CALLVALUE ORIGIN CODECOPY CALLDATACOPY CALLVALUE 0x2C CALLVALUE 0x2E CALLDATASIZE BALANCE CALLER ADDRESS CALLVALUE KECCAK256 0x2D CALLER 0x2E ADDRESS CALLDATACOPY CODESIZE BALANCE BALANCE 0x2C ADDRESS 0x2E BALANCE CALLDATALOAD CALLER CALLDATALOAD ORIGIN KECCAK256 PUSH27 0x204D203233332E35383139332C3230362E323230342063202D302E CALLDATACOPY CALLER CALLER CALLER CALLVALUE 0x2C 0x2D ADDRESS 0x2E ORIGIN CALLVALUE CALLVALUE CALLDATASIZE CALLER KECCAK256 0x2D CALLER 0x2E ADDRESS CALLER CALLDATALOAD BALANCE BALANCE 0x2C 0x2D ADDRESS 0x2E CODESIZE ORIGIN BALANCE CALLDATASIZE CODESIZE KECCAK256 0x2D CALLDATALOAD 0x2E BALANCE BALANCE CALLDATALOAD ADDRESS CALLVALUE 0x2C 0x2D BALANCE 0x2E ORIGIN CODESIZE ORIGIN CALLER CALLDATALOAD KECCAK256 PUSH13 0x202D332E37383137312C2D302E CODESIZE CALLER CALLDATACOPY CALLDATALOAD CALLDATASIZE KECCAK256 CALLVALUE 0x2E CODECOPY CALLDATASIZE CALLDATALOAD ADDRESS CALLVALUE 0x2C 0x2D CALLER 0x2E CODECOPY CALLVALUE CALLDATALOAD CALLDATACOPY CALLER KECCAK256 PUSH4 0x20352E38 CALLER CALLDATALOAD CALLDATASIZE 0x2C 0x2D CALLVALUE 0x2E CALLDATASIZE CALLER CALLDATACOPY CALLDATALOAD CALLDATALOAD KECCAK256 CALLDATASIZE 0x2E BALANCE CALLDATACOPY CALLVALUE CALLDATALOAD CODECOPY 0x2C 0x2D CALLVALUE 0x2E CALLDATASIZE CODECOPY CALLER CODECOPY CALLDATASIZE KECCAK256 CODECOPY 0x2E ADDRESS CALLDATALOAD CODESIZE CALLER CODECOPY 0x2C 0x2D BALANCE 0x2E CALLDATALOAD ADDRESS CALLDATACOPY CALLVALUE KECCAK256 ORIGIN 0x2E CALLDATACOPY CODECOPY CALLER CALLVALUE CALLVALUE 0x2C CALLER 0x2E ADDRESS CODESIZE CALLDATASIZE CALLDATACOPY ORIGIN KECCAK256 ORIGIN 0x2E CALLDATACOPY CALLDATACOPY BALANCE CODESIZE CALLDATASIZE 0x2C CALLVALUE 0x2E BALANCE CALLDATACOPY BALANCE CODECOPY CALLDATACOPY KECCAK256 0x2D ADDRESS 0x2E BALANCE ORIGIN CALLDATASIZE CALLDATASIZE CALLDATACOPY 0x2C CALLDATASIZE 0x2E CALLER CALLDATACOPY ORIGIN ORIGIN CODESIZE KECCAK256 0x2D ORIGIN 0x2E CALLVALUE CALLER ADDRESS CALLDATALOAD CALLDATASIZE 0x2C BALANCE 0x2E CODESIZE CALLVALUE CALLDATALOAD ADDRESS CALLDATASIZE KECCAK256 0x2D ORIGIN 0x2E CODESIZE ADDRESS BALANCE CALLDATALOAD BALANCE 0x2C BALANCE 0x2E CODECOPY CALLER CALLVALUE BALANCE CALLVALUE KECCAK256 0x2D CALLDATALOAD 0x2C BALANCE 0x2E ORIGIN ADDRESS ADDRESS CALLDATACOPY CALLDATASIZE KECCAK256 PUSH27 0x22207472616E73666F726D3D227472616E736C617465282D363020 ADDRESS 0x29 KECCAK256 PUSH20 0x63616C6528302E3929222F3E0000000000000000 "
				},
				"gasEstimates": {
					"creation": {
						"codeDepositCost": "111600",
						"executionCost": "infinite",
						"totalCost": "infinite"
					},
					"external": {
						"svg()": "infinite"
					}
				},
				"methodIdentifiers": {
					"svg()": "bd85f55f"
				}
			},
			"userdoc": {
				"kind": "user",
				"methods": {},
				"version": 1
			}
		}
	}
}