{
	"SVG-MVP_football_ERC1155/contracts/players.sol": {
		"LiamMillar": {
			"abi": [
				{
					"inputs": [],
					"name": "svg",
					"outputs": [
						{
							"internalType": "string",
							"name": "",
							"type": "string"
						}
					],
					"stateMutability": "view",
					"type": "function"
				}
			],
			"devdoc": {
				"kind": "dev",
				"methods": {},
				"version": 1
			},
			"evm": {
				"assembly": "    /* \"SVG-MVP_football_ERC1155/contracts/players.sol\":24401:29244  contract LiamMillar {... */\n  mstore(0x40, 0x80)\n    /* \"SVG-MVP_football_ERC1155/contracts/players.sol\":24425:29241  string public svg = '<path style=\"fill:#0f3b86\"     d=\"M 96.155021,69.453952 C 112.46352,39.510346 273.9812,34.694964 275.11164,101.91358 c -9.22486,64.57118 47.74742,17.81877 66.00862,67.92903 C 331.10335,303.20716 164.80441,464.17213 15.348322,467 -21.336178,254.30011 60.753458,127.27216 96.155021,69.453952 Z M 223.81352,261.89642 c 3.76864,-3.30891 4.56381,-6.9593 2.19473,-10.07533 -1.19046,-1.56579 -1.67685,-1.54665 -7.2182,0.28414 -7.44829,2.46082 -9.52758,2.17129 -10.74366,-1.49599 -0.86332,-2.60348 -0.60624,-3.19977 2.58677,-6 6.4958,-5.69673 7.21952,-9.40152 2.66726,-13.65397 -5.86837,-4.12462 0.30498,-7.53514 1.0479,-12.39237 0,-3.03626 -7.26325,-5.64771 -24.67028,-8.87001 -5.1865,-0.9601 -9.55539,-2.45364 -11.963,-4.08966 -7.64477,-5.75493 -5.31727,5.91994 -5.17909,9.56329 0.47188,11.59179 1.86556,15.27229 8.50328,22.45578 4.23147,4.57939 15.92243,14.72348 21.27392,18.45909 4.49412,3.13711 15.18722,8.79648 16.75037,8.8652 0.66837,0.0294 2.80587,-1.3432 4.75,-3.05017 z m 2.70606,-43.5514 c 1.28458,-1.16253 1.82874,-3.07382 1.82874,-6.42327 0,-3.68813 0.59482,-5.47519 2.62579,-7.88886 3.49187,-4.14985 9.39981,-7.15768 11.61931,-5.91559 2.17823,1.219 3.76283,7.05897 3.07143,11.31959 -0.82473,7.68065 7.21388,3.29195 8.51836,-0.6792 0.54728,-1.79173 1.28258,-10.95253 1.63399,-20.35735 -0.87853,-6.19111 3.89316,-14.96742 -1.91498,-18.77306 -4.85436,-2.81843 0.11744,-7.33558 1.9461,-10.07311 2.475,-3.69087 4.5,-7.82281 4.5,-9.18208 4.70551,-9.98549 -1.91724,-5.23428 -2,-10.87208 4.99857,-12.41968 9.89219,3.52093 9.4691,-16.09112 -0.0324,-11.61579 -1.29458,-15.70871 -5.27736,-17.1127 -8.53222,-3.39657 -18.45449,-19.085035 -23.69533,-8.474289 -2.92241,3.473079 -3.07823,4.902419 -0.87706,8.045029 1.6745,2.04325 -6.46606,12.07377 -7.60377,12.89127 -1.91795,1.19777 -1.92708,1.36495 -0.27274,4.99054 0.94142,2.06319 2.95941,5.22943 4.48442,7.03606 3.56753,4.22637 3.51577,7.54126 -0.22726,14.55555 -2.27724,4.26744 -3,6.93311 -3,11.06447 0.32168,6.1801 -1.90945,19.70315 -9.59939,21.59519 -2.78445,0 -4.17225,4.26639 -3.85224,11.84267 -7.39896,17.90403 1.51074,13.24725 0.87849,20.101 -0.57692,5.09935 -0.39606,6.43288 1.09609,8.08169 2.18021,2.4091 4.23056,2.50769 6.64831,0.31965 z m -33.31919,-17.85706 c 2.39364,-1.36837 5.18497,-2.48795 6.20295,-2.48795 2.55549,0 6.91052,-2.08979 7.10735,-3.41052 0.0893,-0.59921 0.20181,-2.65272 0.25,-4.56336 0.0699,-2.76994 0.65369,-3.74774 2.88109,-4.82539 2.06054,-0.99692 2.63633,-1.84657 2.1946,-3.23835 -0.81589,-2.57065 1.16206,-5.96238 3.47708,-5.96238 1.32522,0 3.19288,-2.32959 6.21328,-7.75 4.99405,-7.22028 5.78755,-17.23834 9.89521,-23.54744 5.09956,-7.69894 2.25053,-12.67744 -4.16541,-7.27878 -3.33682,2.80774 -5.00745,3.12867 -7.98667,1.53423 -1.5246,-0.81594 -1.73043,-1.44661 -0.94878,-2.90714 0.20286,-9.96177 -8.262,-1.26605 -8.90007,-2.03051 -0.53602,-0.8138 -2.33909,-1.54826 -4.00682,-1.63213 -2.96532,-0.14914 -3.03166,-0.0503 -3.00608,4.47963 0.0144,2.54768 -0.085,5.75714 -0.22084,7.13214 -0.13585,1.375 0.0922,5.3132 0.50685,8.75156 0.70991,5.88712 0.60521,6.38933 -1.79598,8.61468 -7.37253,8.19862 8.07141,7.52349 8.45017,14.20634 0,3.21498 -1.51814,3.06312 -5.09045,-0.50918 -1.61513,-1.61513 -4.9686,-3.95143 -7.45216,-5.19178 -3.13253,-1.56446 -4.68537,-3.03871 -5.06999,-4.8134 -4.5501,-7.55655 -4.52569,-5.77666 -3.98412,-15.05822 0.39845,-7.19668 5.96228,-20.47106 9.7558,-23.27574 2.07085,-1.53105 2.64952,-2.63868 2.23708,-4.28197 -0.86959,-3.46472 2.86128,-5.4423 10.26733,-5.4423 6.90719,-0.22068 11.09744,-10.77895 11.33651,-14.56086 0,-1.93023 -0.77876,-4.698042 -1.73057,-6.150696 -1.18335,-1.80602 -1.73672,-4.687971 -1.75,-9.114052 -0.0237,-7.877377 -0.19615,-7.981545 -13.51943,-8.163718 -5.225,-0.07144 -11.6391,-0.481973 -14.25355,-0.912289 -8.31613,-1.368761 -11.68889,-0.224394 -15.95413,5.413179 -5.13781,6.790892 -8.9375,16.582576 -9.54158,24.588336 -0.71685,7.68026 -1.66589,6.494 5.66138,7.15841 5.9504,0.53957 11.08788,2.74727 11.08788,4.76474 0,0.53732 -2.95458,0.97695 -6.56574,0.97695 -3.61116,0 -7.41647,0.45529 -8.45625,1.01177 -2.59764,1.39021 -3.93153,6.70093 -4.64371,18.48824 -0.50966,8.43526 -0.18063,12.19064 2.10272,24 1.48881,7.7 3.49163,15.8 4.45071,18 0.95908,2.2 2.32304,6.09414 3.03101,8.65365 1.52073,5.4978 6.29228,10.51283 10.58126,11.12117 5.93712,0.84211 7.06344,0.66482 11.35207,-1.78687 z m -1.43243,-19.95212 c -0.56446,-2.71346 -3.75413,-3.04656 -4.41964,-5.23103 2.38946,-2.40602 6.85895,-0.7329 10.46747,0.86233 6.09635,5.07677 -4.49256,10.23141 -6.04783,4.3687 z M 170.09832,130.70059 C 165.25522,128.78684 167.02563,125 172.76344,125 c 3.14073,0 3.57333,0.73468 2.4054,4.08502 -1.11179,3.18928 -1.09859,3.18508 -5.07052,1.61557 z m 49.75,-3.70058 c -1.61451,-1.33883 -10.33689,-1.24661 -8.5,0 2.01117,1.29971 9.30327,1.29971 8.5,0 z\" transform=\"translate(0 10)\"/>' */\n  mload(0x40)\n  dup1\n  0x12e0\n  add\n  0x40\n  mstore\n  dup1\n  0x12ba\n  dup2\n  mstore\n  0x20\n  add\n  data_822cc14e33375b9c5adc0cacdd509b7f6d6afbade3d19c7190cdc0d22f52c1f5\n  0x12ba\n  swap2\n  codecopy\n  0x00\n  swap1\n  dup1\n  mload\n  swap1\n  0x20\n  add\n  swap1\n  tag_1\n  swap3\n  swap2\n  swap1\n  tag_2\n  jump\t// in\ntag_1:\n  pop\n    /* \"SVG-MVP_football_ERC1155/contracts/players.sol\":24401:29244  contract LiamMillar {... */\n  callvalue\n  dup1\n  iszero\n  tag_3\n  jumpi\n  0x00\n  dup1\n  revert\ntag_3:\n  pop\n  jump(tag_4)\ntag_2:\n  dup3\n  dup1\n  sload\n  tag_5\n  swap1\n  tag_6\n  jump\t// in\ntag_5:\n  swap1\n  0x00\n  mstore\n  keccak256(0x00, 0x20)\n  swap1\n  0x1f\n  add\n  0x20\n  swap1\n  div\n  dup2\n  add\n  swap3\n  dup3\n  tag_8\n  jumpi\n  0x00\n  dup6\n  sstore\n  jump(tag_7)\ntag_8:\n  dup3\n  0x1f\n  lt\n  tag_9\n  jumpi\n  dup1\n  mload\n  not(0xff)\n  and\n  dup4\n  dup1\n  add\n  or\n  dup6\n  sstore\n  jump(tag_7)\ntag_9:\n  dup3\n  dup1\n  add\n  0x01\n  add\n  dup6\n  sstore\n  dup3\n  iszero\n  tag_7\n  jumpi\n  swap2\n  dup3\n  add\ntag_10:\n  dup3\n  dup2\n  gt\n  iszero\n  tag_11\n  jumpi\n  dup3\n  mload\n  dup3\n  sstore\n  swap2\n  0x20\n  add\n  swap2\n  swap1\n  0x01\n  add\n  swap1\n  jump(tag_10)\ntag_11:\ntag_7:\n  pop\n  swap1\n  pop\n  tag_12\n  swap2\n  swap1\n  tag_13\n  jump\t// in\ntag_12:\n  pop\n  swap1\n  jump\t// out\ntag_13:\ntag_14:\n  dup1\n  dup3\n  gt\n  iszero\n  tag_15\n  jumpi\n  0x00\n  dup2\n  0x00\n  swap1\n  sstore\n  pop\n  0x01\n  add\n  jump(tag_14)\ntag_15:\n  pop\n  swap1\n  jump\t// out\n    /* \"#utility.yul\":7:327   */\ntag_6:\n    /* \"#utility.yul\":51:57   */\n  0x00\n    /* \"#utility.yul\":88:89   */\n  0x02\n    /* \"#utility.yul\":82:86   */\n  dup3\n    /* \"#utility.yul\":78:90   */\n  div\n    /* \"#utility.yul\":68:90   */\n  swap1\n  pop\n    /* \"#utility.yul\":135:136   */\n  0x01\n    /* \"#utility.yul\":129:133   */\n  dup3\n    /* \"#utility.yul\":125:137   */\n  and\n    /* \"#utility.yul\":156:174   */\n  dup1\n    /* \"#utility.yul\":146:227   */\n  tag_18\n  jumpi\n    /* \"#utility.yul\":212:216   */\n  0x7f\n    /* \"#utility.yul\":204:210   */\n  dup3\n    /* \"#utility.yul\":200:217   */\n  and\n    /* \"#utility.yul\":190:217   */\n  swap2\n  pop\n    /* \"#utility.yul\":146:227   */\ntag_18:\n    /* \"#utility.yul\":274:276   */\n  0x20\n    /* \"#utility.yul\":266:272   */\n  dup3\n    /* \"#utility.yul\":263:277   */\n  lt\n    /* \"#utility.yul\":243:261   */\n  dup2\n    /* \"#utility.yul\":240:278   */\n  eq\n    /* \"#utility.yul\":237:321   */\n  iszero\n  tag_19\n  jumpi\n    /* \"#utility.yul\":293:311   */\n  tag_20\n  tag_21\n  jump\t// in\ntag_20:\n    /* \"#utility.yul\":237:321   */\ntag_19:\n    /* \"#utility.yul\":58:327   */\n  pop\n    /* \"#utility.yul\":7:327   */\n  swap2\n  swap1\n  pop\n  jump\t// out\n    /* \"#utility.yul\":333:513   */\ntag_21:\n    /* \"#utility.yul\":381:458   */\n  0x4e487b7100000000000000000000000000000000000000000000000000000000\n    /* \"#utility.yul\":378:379   */\n  0x00\n    /* \"#utility.yul\":371:459   */\n  mstore\n    /* \"#utility.yul\":478:482   */\n  0x22\n    /* \"#utility.yul\":475:476   */\n  0x04\n    /* \"#utility.yul\":468:483   */\n  mstore\n    /* \"#utility.yul\":502:506   */\n  0x24\n    /* \"#utility.yul\":499:500   */\n  0x00\n    /* \"#utility.yul\":492:507   */\n  revert\n    /* \"SVG-MVP_football_ERC1155/contracts/players.sol\":24401:29244  contract LiamMillar {... */\ntag_4:\n  dataSize(sub_0)\n  dup1\n  dataOffset(sub_0)\n  0x00\n  codecopy\n  0x00\n  return\nstop\ndata_822cc14e33375b9c5adc0cacdd509b7f6d6afbade3d19c7190cdc0d22f52c1f5 3c70617468207374796c653d2266696c6c3a23306633623836222020202020643d224d2039362e3135353032312c36392e3435333935322043203131322e34363335322c33392e353130333436203237332e393831322c33342e363934393634203237352e31313136342c3130312e39313335382063202d392e32323438362c36342e35373131382034372e37343734322c31372e38313837372036362e30303836322c36372e39323930332043203333312e31303333352c3330332e3230373136203136342e38303434312c3436342e31373231332031352e3334383332322c343637202d32312e3333363137382c3235342e33303031312036302e3735333435382c3132372e32373231362039362e3135353032312c36392e343533393532205a204d203232332e38313335322c3236312e3839363432206320332e37363836342c2d332e333038393120342e35363338312c2d362e3935393320322e31393437332c2d31302e3037353333202d312e31393034362c2d312e3536353739202d312e36373638352c2d312e3534363635202d372e323138322c302e3238343134202d372e34343832392c322e3436303832202d392e35323735382c322e3137313239202d31302e37343336362c2d312e3439353939202d302e38363333322c2d322e3630333438202d302e36303632342c2d332e313939373720322e35383637372c2d3620362e343935382c2d352e363936373320372e32313935322c2d392e343031353220322e36363732362c2d31332e3635333937202d352e38363833372c2d342e313234363220302e33303439382c2d372e353335313420312e303437392c2d31322e333932333720302c2d332e3033363236202d372e32363332352c2d352e3634373731202d32342e36373032382c2d382e3837303031202d352e313836352c2d302e39363031202d392e35353533392c2d322e3435333634202d31312e3936332c2d342e3038393636202d372e36343437372c2d352e3735343933202d352e33313732372c352e3931393934202d352e31373930392c392e353633323920302e34373138382c31312e353931373920312e38363535362c31352e323732323920382e35303332382c32322e343535373820342e32333134372c342e35373933392031352e39323234332c31342e37323334382032312e32373339322c31382e343539303920342e34393431322c332e31333731312031352e31383732322c382e37393634382031362e37353033372c382e3836353220302e36363833372c302e3032393420322e38303538372c2d312e3334333220342e37352c2d332e3035303137207a206d20322e37303630362c2d34332e35353134206320312e32383435382c2d312e313632353320312e38323837342c2d332e303733383220312e38323837342c2d362e343233323720302c2d332e363838313320302e35393438322c2d352e343735313920322e36323537392c2d372e383838383620332e34393138372c2d342e313439383520392e33393938312c2d372e31353736382031312e36313933312c2d352e393135353920322e31373832332c312e32313920332e37363238332c372e303538393720332e30373134332c31312e3331393539202d302e38323437332c372e363830363520372e32313338382c332e323931393520382e35313833362c2d302e3637393220302e35343732382c2d312e373931373320312e32383235382c2d31302e393532353320312e36333339392c2d32302e3335373335202d302e38373835332c2d362e313931313120332e38393331362c2d31342e3936373432202d312e39313439382c2d31382e3737333036202d342e38353433362c2d322e383138343320302e31313734342c2d372e333335353820312e393436312c2d31302e303733313120322e3437352c2d332e363930383720342e352c2d372e383232383120342e352c2d392e313832303820342e37303535312c2d392e3938353439202d312e39313732342c2d352e3233343238202d322c2d31302e383732303820342e39393835372c2d31322e343139363820392e38393231392c332e353230393320392e343639312c2d31362e3039313132202d302e303332342c2d31312e3631353739202d312e32393435382c2d31352e3730383731202d352e32373733362c2d31372e31313237202d382e35333232322c2d332e3339363537202d31382e34353434392c2d31392e303835303335202d32332e36393533332c2d382e343734323839202d322e39323234312c332e343733303739202d332e30373832332c342e393032343139202d302e38373730362c382e30343530323920312e363734352c322e3034333235202d362e34363630362c31322e3037333737202d372e36303337372c31322e3839313237202d312e39313739352c312e3139373737202d312e39323730382c312e3336343935202d302e32373237342c342e393930353420302e39343134322c322e303633313920322e39353934312c352e323239343320342e34383434322c372e303336303620332e35363735332c342e323236333720332e35313537372c372e3534313236202d302e32323732362c31342e3535353535202d322e32373732342c342e3236373434202d332c362e3933333131202d332c31312e303634343720302e33323136382c362e31383031202d312e39303934352c31392e3730333135202d392e35393933392c32312e3539353139202d322e37383434352c30202d342e31373232352c342e3236363339202d332e38353232342c31312e3834323637202d372e33393839362c31372e393034303320312e35313037342c31332e323437323520302e38373834392c32302e313031202d302e35373639322c352e3039393335202d302e33393630362c362e343332383820312e30393630392c382e303831363920322e31383032312c322e3430393120342e32333035362c322e353037363920362e36343833312c302e3331393635207a206d202d33332e33313931392c2d31372e3835373036206320322e33393336342c2d312e333638333720352e31383439372c2d322e343837393520362e32303239352c2d322e343837393520322e35353534392c3020362e39313035322c2d322e303839373920372e31303733352c2d332e343130353220302e303839332c2d302e353939323120302e32303138312c2d322e363532373220302e32352c2d342e353633333620302e303639392c2d322e373639393420302e36353336392c2d332e373437373420322e38383130392c2d342e383235333920322e30363035342c2d302e393936393220322e36333633332c2d312e383436353720322e313934362c2d332e3233383335202d302e38313538392c2d322e353730363520312e31363230362c2d352e393632333820332e34373730382c2d352e393632333820312e33323532322c3020332e31393238382c2d322e333239353920362e32313332382c2d372e373520342e39393430352c2d372e323230323820352e37383735352c2d31372e323338333420392e38393532312c2d32332e353437343420352e30393935362c2d372e363938393420322e32353035332c2d31322e3637373434202d342e31363534312c2d372e3237383738202d332e33333638322c322e3830373734202d352e30303734352c332e3132383637202d372e39383636372c312e3533343233202d312e353234362c2d302e3831353934202d312e37333034332c2d312e3434363631202d302e39343837382c2d322e393037313420302e32303238362c2d392e3936313737202d382e3236322c2d312e3236363035202d382e39303030372c2d322e3033303531202d302e35333630322c2d302e38313338202d322e33333930392c2d312e3534383236202d342e30303638322c2d312e3633323133202d322e39363533322c2d302e3134393134202d332e30333136362c2d302e30353033202d332e30303630382c342e343739363320302e303134342c322e3534373638202d302e3038352c352e3735373134202d302e32323038342c372e3133323134202d302e31333538352c312e33373520302e303932322c352e3331333220302e35303638352c382e373531353620302e37303939312c352e383837313220302e36303532312c362e3338393333202d312e37393539382c382e3631343638202d372e33373235332c382e313938363220382e30373134312c372e353233343920382e34353031372c31342e323036333420302c332e3231343938202d312e35313831342c332e3036333132202d352e30393034352c2d302e3530393138202d312e36313531332c2d312e3631353133202d342e393638362c2d332e3935313433202d372e34353231362c2d352e3139313738202d332e31333235332c2d312e3536343436202d342e36383533372c2d332e3033383731202d352e30363939392c2d342e38313334202d342e353530312c2d372e3535363535202d342e35323536392c2d352e3737363636202d332e39383431322c2d31352e303538323220302e33393834352c2d372e313936363820352e39363232382c2d32302e343731303620392e373535382c2d32332e323735373420322e30373038352c2d312e353331303520322e36343935322c2d322e363338363820322e32333730382c2d342e3238313937202d302e38363935392c2d332e343634373220322e38363132382c2d352e343432332031302e32363733332c2d352e3434323320362e39303731392c2d302e32323036382031312e30393734342c2d31302e37373839352031312e33333635312c2d31342e353630383620302c2d312e3933303233202d302e37373837362c2d342e363938303432202d312e37333035372c2d362e313530363936202d312e31383333352c2d312e3830363032202d312e37333637322c2d342e363837393731202d312e37352c2d392e313134303532202d302e303233372c2d372e383737333737202d302e31393631352c2d372e393831353435202d31332e35313934332c2d382e313633373138202d352e3232352c2d302e3037313434202d31312e363339312c2d302e343831393733202d31342e32353335352c2d302e393132323839202d382e33313631332c2d312e333638373631202d31312e36383838392c2d302e323234333934202d31352e39353431332c352e343133313739202d352e31333738312c362e373930383932202d382e393337352c31362e353832353736202d392e35343135382c32342e353838333336202d302e37313638352c372e3638303236202d312e36363538392c362e34393420352e36363133382c372e313538343120352e393530342c302e35333935372031312e30383738382c322e37343732372031312e30383738382c342e373634373420302c302e3533373332202d322e39353435382c302e3937363935202d362e35363537342c302e3937363935202d332e36313131362c30202d372e34313634372c302e3435353239202d382e34353632352c312e3031313737202d322e35393736342c312e3339303231202d332e39333135332c362e3730303933202d342e36343337312c31382e3438383234202d302e35303936362c382e3433353236202d302e31383036332c31322e313930363420322e31303237322c323420312e34383838312c372e3720332e34393136332c31352e3820342e34353037312c313820302e39353930382c322e3220322e33323330342c362e303934313420332e30333130312c382e363533363520312e35323037332c352e3439373820362e32393232382c31302e35313238332031302e35383132362c31312e313231313720352e39333731322c302e383432313120372e30363334342c302e36363438322031312e33353230372c2d312e3738363837207a206d202d312e34333234332c2d31392e39353231322063202d302e35363434362c2d322e3731333436202d332e37353431332c2d332e3034363536202d342e34313936342c2d352e323331303320322e33383934362c2d322e343036303220362e38353839352c2d302e373332392031302e34363734372c302e383632333320362e30393633352c352e3037363737202d342e34393235362c31302e3233313431202d362e30343738332c342e33363837207a204d203137302e30393833322c3133302e37303035392043203136352e32353532322c3132382e3738363834203136372e30323536332c313235203137322e37363334342c313235206320332e31343037332c3020332e35373333332c302e373334363820322e343035342c342e3038353032202d312e31313137392c332e3138393238202d312e30393835392c332e3138353038202d352e30373035322c312e3631353537207a206d2034392e37352c2d332e37303035382063202d312e36313435312c2d312e3333383833202d31302e33333638392c2d312e3234363631202d382e352c3020322e30313131372c312e323939373120392e33303332372c312e323939373120382e352c30207a22207472616e73666f726d3d227472616e736c617465283020313029222f3e\n\nsub_0: assembly {\n        /* \"SVG-MVP_football_ERC1155/contracts/players.sol\":24401:29244  contract LiamMillar {... */\n      mstore(0x40, 0x80)\n      callvalue\n      dup1\n      iszero\n      tag_1\n      jumpi\n      0x00\n      dup1\n      revert\n    tag_1:\n      pop\n      jumpi(tag_2, lt(calldatasize, 0x04))\n      shr(0xe0, calldataload(0x00))\n      dup1\n      0xbd85f55f\n      eq\n      tag_3\n      jumpi\n    tag_2:\n      0x00\n      dup1\n      revert\n        /* \"SVG-MVP_football_ERC1155/contracts/players.sol\":24425:29241  string public svg = '<path style=\"fill:#0f3b86\"     d=\"M 96.155021,69.453952 C 112.46352,39.510346 273.9812,34.694964 275.11164,101.91358 c -9.22486,64.57118 47.74742,17.81877 66.00862,67.92903 C 331.10335,303.20716 164.80441,464.17213 15.348322,467 -21.336178,254.30011 60.753458,127.27216 96.155021,69.453952 Z M 223.81352,261.89642 c 3.76864,-3.30891 4.56381,-6.9593 2.19473,-10.07533 -1.19046,-1.56579 -1.67685,-1.54665 -7.2182,0.28414 -7.44829,2.46082 -9.52758,2.17129 -10.74366,-1.49599 -0.86332,-2.60348 -0.60624,-3.19977 2.58677,-6 6.4958,-5.69673 7.21952,-9.40152 2.66726,-13.65397 -5.86837,-4.12462 0.30498,-7.53514 1.0479,-12.39237 0,-3.03626 -7.26325,-5.64771 -24.67028,-8.87001 -5.1865,-0.9601 -9.55539,-2.45364 -11.963,-4.08966 -7.64477,-5.75493 -5.31727,5.91994 -5.17909,9.56329 0.47188,11.59179 1.86556,15.27229 8.50328,22.45578 4.23147,4.57939 15.92243,14.72348 21.27392,18.45909 4.49412,3.13711 15.18722,8.79648 16.75037,8.8652 0.66837,0.0294 2.80587,-1.3432 4.75,-3.05017 z m 2.70606,-43.5514 c 1.28458,-1.16253 1.82874,-3.07382 1.82874,-6.42327 0,-3.68813 0.59482,-5.47519 2.62579,-7.88886 3.49187,-4.14985 9.39981,-7.15768 11.61931,-5.91559 2.17823,1.219 3.76283,7.05897 3.07143,11.31959 -0.82473,7.68065 7.21388,3.29195 8.51836,-0.6792 0.54728,-1.79173 1.28258,-10.95253 1.63399,-20.35735 -0.87853,-6.19111 3.89316,-14.96742 -1.91498,-18.77306 -4.85436,-2.81843 0.11744,-7.33558 1.9461,-10.07311 2.475,-3.69087 4.5,-7.82281 4.5,-9.18208 4.70551,-9.98549 -1.91724,-5.23428 -2,-10.87208 4.99857,-12.41968 9.89219,3.52093 9.4691,-16.09112 -0.0324,-11.61579 -1.29458,-15.70871 -5.27736,-17.1127 -8.53222,-3.39657 -18.45449,-19.085035 -23.69533,-8.474289 -2.92241,3.473079 -3.07823,4.902419 -0.87706,8.045029 1.6745,2.04325 -6.46606,12.07377 -7.60377,12.89127 -1.91795,1.19777 -1.92708,1.36495 -0.27274,4.99054 0.94142,2.06319 2.95941,5.22943 4.48442,7.03606 3.56753,4.22637 3.51577,7.54126 -0.22726,14.55555 -2.27724,4.26744 -3,6.93311 -3,11.06447 0.32168,6.1801 -1.90945,19.70315 -9.59939,21.59519 -2.78445,0 -4.17225,4.26639 -3.85224,11.84267 -7.39896,17.90403 1.51074,13.24725 0.87849,20.101 -0.57692,5.09935 -0.39606,6.43288 1.09609,8.08169 2.18021,2.4091 4.23056,2.50769 6.64831,0.31965 z m -33.31919,-17.85706 c 2.39364,-1.36837 5.18497,-2.48795 6.20295,-2.48795 2.55549,0 6.91052,-2.08979 7.10735,-3.41052 0.0893,-0.59921 0.20181,-2.65272 0.25,-4.56336 0.0699,-2.76994 0.65369,-3.74774 2.88109,-4.82539 2.06054,-0.99692 2.63633,-1.84657 2.1946,-3.23835 -0.81589,-2.57065 1.16206,-5.96238 3.47708,-5.96238 1.32522,0 3.19288,-2.32959 6.21328,-7.75 4.99405,-7.22028 5.78755,-17.23834 9.89521,-23.54744 5.09956,-7.69894 2.25053,-12.67744 -4.16541,-7.27878 -3.33682,2.80774 -5.00745,3.12867 -7.98667,1.53423 -1.5246,-0.81594 -1.73043,-1.44661 -0.94878,-2.90714 0.20286,-9.96177 -8.262,-1.26605 -8.90007,-2.03051 -0.53602,-0.8138 -2.33909,-1.54826 -4.00682,-1.63213 -2.96532,-0.14914 -3.03166,-0.0503 -3.00608,4.47963 0.0144,2.54768 -0.085,5.75714 -0.22084,7.13214 -0.13585,1.375 0.0922,5.3132 0.50685,8.75156 0.70991,5.88712 0.60521,6.38933 -1.79598,8.61468 -7.37253,8.19862 8.07141,7.52349 8.45017,14.20634 0,3.21498 -1.51814,3.06312 -5.09045,-0.50918 -1.61513,-1.61513 -4.9686,-3.95143 -7.45216,-5.19178 -3.13253,-1.56446 -4.68537,-3.03871 -5.06999,-4.8134 -4.5501,-7.55655 -4.52569,-5.77666 -3.98412,-15.05822 0.39845,-7.19668 5.96228,-20.47106 9.7558,-23.27574 2.07085,-1.53105 2.64952,-2.63868 2.23708,-4.28197 -0.86959,-3.46472 2.86128,-5.4423 10.26733,-5.4423 6.90719,-0.22068 11.09744,-10.77895 11.33651,-14.56086 0,-1.93023 -0.77876,-4.698042 -1.73057,-6.150696 -1.18335,-1.80602 -1.73672,-4.687971 -1.75,-9.114052 -0.0237,-7.877377 -0.19615,-7.981545 -13.51943,-8.163718 -5.225,-0.07144 -11.6391,-0.481973 -14.25355,-0.912289 -8.31613,-1.368761 -11.68889,-0.224394 -15.95413,5.413179 -5.13781,6.790892 -8.9375,16.582576 -9.54158,24.588336 -0.71685,7.68026 -1.66589,6.494 5.66138,7.15841 5.9504,0.53957 11.08788,2.74727 11.08788,4.76474 0,0.53732 -2.95458,0.97695 -6.56574,0.97695 -3.61116,0 -7.41647,0.45529 -8.45625,1.01177 -2.59764,1.39021 -3.93153,6.70093 -4.64371,18.48824 -0.50966,8.43526 -0.18063,12.19064 2.10272,24 1.48881,7.7 3.49163,15.8 4.45071,18 0.95908,2.2 2.32304,6.09414 3.03101,8.65365 1.52073,5.4978 6.29228,10.51283 10.58126,11.12117 5.93712,0.84211 7.06344,0.66482 11.35207,-1.78687 z m -1.43243,-19.95212 c -0.56446,-2.71346 -3.75413,-3.04656 -4.41964,-5.23103 2.38946,-2.40602 6.85895,-0.7329 10.46747,0.86233 6.09635,5.07677 -4.49256,10.23141 -6.04783,4.3687 z M 170.09832,130.70059 C 165.25522,128.78684 167.02563,125 172.76344,125 c 3.14073,0 3.57333,0.73468 2.4054,4.08502 -1.11179,3.18928 -1.09859,3.18508 -5.07052,1.61557 z m 49.75,-3.70058 c -1.61451,-1.33883 -10.33689,-1.24661 -8.5,0 2.01117,1.29971 9.30327,1.29971 8.5,0 z\" transform=\"translate(0 10)\"/>' */\n    tag_3:\n      tag_4\n      tag_5\n      jump\t// in\n    tag_4:\n      mload(0x40)\n      tag_6\n      swap2\n      swap1\n      tag_7\n      jump\t// in\n    tag_6:\n      mload(0x40)\n      dup1\n      swap2\n      sub\n      swap1\n      return\n    tag_5:\n      0x00\n      dup1\n      sload\n      tag_8\n      swap1\n      tag_9\n      jump\t// in\n    tag_8:\n      dup1\n      0x1f\n      add\n      0x20\n      dup1\n      swap2\n      div\n      mul\n      0x20\n      add\n      mload(0x40)\n      swap1\n      dup2\n      add\n      0x40\n      mstore\n      dup1\n      swap3\n      swap2\n      swap1\n      dup2\n      dup2\n      mstore\n      0x20\n      add\n      dup3\n      dup1\n      sload\n      tag_10\n      swap1\n      tag_9\n      jump\t// in\n    tag_10:\n      dup1\n      iszero\n      tag_11\n      jumpi\n      dup1\n      0x1f\n      lt\n      tag_12\n      jumpi\n      0x0100\n      dup1\n      dup4\n      sload\n      div\n      mul\n      dup4\n      mstore\n      swap2\n      0x20\n      add\n      swap2\n      jump(tag_11)\n    tag_12:\n      dup3\n      add\n      swap2\n      swap1\n      0x00\n      mstore\n      keccak256(0x00, 0x20)\n      swap1\n    tag_13:\n      dup2\n      sload\n      dup2\n      mstore\n      swap1\n      0x01\n      add\n      swap1\n      0x20\n      add\n      dup1\n      dup4\n      gt\n      tag_13\n      jumpi\n      dup3\n      swap1\n      sub\n      0x1f\n      and\n      dup3\n      add\n      swap2\n    tag_11:\n      pop\n      pop\n      pop\n      pop\n      pop\n      dup2\n      jump\t// out\n        /* \"#utility.yul\":7:371   */\n    tag_15:\n        /* \"#utility.yul\":95:98   */\n      0x00\n        /* \"#utility.yul\":123:162   */\n      tag_17\n        /* \"#utility.yul\":156:161   */\n      dup3\n        /* \"#utility.yul\":123:162   */\n      tag_18\n      jump\t// in\n    tag_17:\n        /* \"#utility.yul\":178:249   */\n      tag_19\n        /* \"#utility.yul\":242:248   */\n      dup2\n        /* \"#utility.yul\":237:240   */\n      dup6\n        /* \"#utility.yul\":178:249   */\n      tag_20\n      jump\t// in\n    tag_19:\n        /* \"#utility.yul\":171:249   */\n      swap4\n      pop\n        /* \"#utility.yul\":258:310   */\n      tag_21\n        /* \"#utility.yul\":303:309   */\n      dup2\n        /* \"#utility.yul\":298:301   */\n      dup6\n        /* \"#utility.yul\":291:295   */\n      0x20\n        /* \"#utility.yul\":284:289   */\n      dup7\n        /* \"#utility.yul\":280:296   */\n      add\n        /* \"#utility.yul\":258:310   */\n      tag_22\n      jump\t// in\n    tag_21:\n        /* \"#utility.yul\":335:364   */\n      tag_23\n        /* \"#utility.yul\":357:363   */\n      dup2\n        /* \"#utility.yul\":335:364   */\n      tag_24\n      jump\t// in\n    tag_23:\n        /* \"#utility.yul\":330:333   */\n      dup5\n        /* \"#utility.yul\":326:365   */\n      add\n        /* \"#utility.yul\":319:365   */\n      swap2\n      pop\n        /* \"#utility.yul\":99:371   */\n      pop\n        /* \"#utility.yul\":7:371   */\n      swap3\n      swap2\n      pop\n      pop\n      jump\t// out\n        /* \"#utility.yul\":377:690   */\n    tag_7:\n        /* \"#utility.yul\":490:494   */\n      0x00\n        /* \"#utility.yul\":528:530   */\n      0x20\n        /* \"#utility.yul\":517:526   */\n      dup3\n        /* \"#utility.yul\":513:531   */\n      add\n        /* \"#utility.yul\":505:531   */\n      swap1\n      pop\n        /* \"#utility.yul\":577:586   */\n      dup2\n        /* \"#utility.yul\":571:575   */\n      dup2\n        /* \"#utility.yul\":567:587   */\n      sub\n        /* \"#utility.yul\":563:564   */\n      0x00\n        /* \"#utility.yul\":552:561   */\n      dup4\n        /* \"#utility.yul\":548:565   */\n      add\n        /* \"#utility.yul\":541:588   */\n      mstore\n        /* \"#utility.yul\":605:683   */\n      tag_26\n        /* \"#utility.yul\":678:682   */\n      dup2\n        /* \"#utility.yul\":669:675   */\n      dup5\n        /* \"#utility.yul\":605:683   */\n      tag_15\n      jump\t// in\n    tag_26:\n        /* \"#utility.yul\":597:683   */\n      swap1\n      pop\n        /* \"#utility.yul\":377:690   */\n      swap3\n      swap2\n      pop\n      pop\n      jump\t// out\n        /* \"#utility.yul\":696:795   */\n    tag_18:\n        /* \"#utility.yul\":748:754   */\n      0x00\n        /* \"#utility.yul\":782:787   */\n      dup2\n        /* \"#utility.yul\":776:788   */\n      mload\n        /* \"#utility.yul\":766:788   */\n      swap1\n      pop\n        /* \"#utility.yul\":696:795   */\n      swap2\n      swap1\n      pop\n      jump\t// out\n        /* \"#utility.yul\":801:970   */\n    tag_20:\n        /* \"#utility.yul\":885:896   */\n      0x00\n        /* \"#utility.yul\":919:925   */\n      dup3\n        /* \"#utility.yul\":914:917   */\n      dup3\n        /* \"#utility.yul\":907:926   */\n      mstore\n        /* \"#utility.yul\":959:963   */\n      0x20\n        /* \"#utility.yul\":954:957   */\n      dup3\n        /* \"#utility.yul\":950:964   */\n      add\n        /* \"#utility.yul\":935:964   */\n      swap1\n      pop\n        /* \"#utility.yul\":801:970   */\n      swap3\n      swap2\n      pop\n      pop\n      jump\t// out\n        /* \"#utility.yul\":976:1283   */\n    tag_22:\n        /* \"#utility.yul\":1044:1045   */\n      0x00\n        /* \"#utility.yul\":1054:1167   */\n    tag_30:\n        /* \"#utility.yul\":1068:1074   */\n      dup4\n        /* \"#utility.yul\":1065:1066   */\n      dup2\n        /* \"#utility.yul\":1062:1075   */\n      lt\n        /* \"#utility.yul\":1054:1167   */\n      iszero\n      tag_32\n      jumpi\n        /* \"#utility.yul\":1153:1154   */\n      dup1\n        /* \"#utility.yul\":1148:1151   */\n      dup3\n        /* \"#utility.yul\":1144:1155   */\n      add\n        /* \"#utility.yul\":1138:1156   */\n      mload\n        /* \"#utility.yul\":1134:1135   */\n      dup2\n        /* \"#utility.yul\":1129:1132   */\n      dup5\n        /* \"#utility.yul\":1125:1136   */\n      add\n        /* \"#utility.yul\":1118:1157   */\n      mstore\n        /* \"#utility.yul\":1090:1092   */\n      0x20\n        /* \"#utility.yul\":1087:1088   */\n      dup2\n        /* \"#utility.yul\":1083:1093   */\n      add\n        /* \"#utility.yul\":1078:1093   */\n      swap1\n      pop\n        /* \"#utility.yul\":1054:1167   */\n      jump(tag_30)\n    tag_32:\n        /* \"#utility.yul\":1185:1191   */\n      dup4\n        /* \"#utility.yul\":1182:1183   */\n      dup2\n        /* \"#utility.yul\":1179:1192   */\n      gt\n        /* \"#utility.yul\":1176:1277   */\n      iszero\n      tag_33\n      jumpi\n        /* \"#utility.yul\":1265:1266   */\n      0x00\n        /* \"#utility.yul\":1256:1262   */\n      dup5\n        /* \"#utility.yul\":1251:1254   */\n      dup5\n        /* \"#utility.yul\":1247:1263   */\n      add\n        /* \"#utility.yul\":1240:1267   */\n      mstore\n        /* \"#utility.yul\":1176:1277   */\n    tag_33:\n        /* \"#utility.yul\":1025:1283   */\n      pop\n        /* \"#utility.yul\":976:1283   */\n      pop\n      pop\n      pop\n      jump\t// out\n        /* \"#utility.yul\":1289:1609   */\n    tag_9:\n        /* \"#utility.yul\":1333:1339   */\n      0x00\n        /* \"#utility.yul\":1370:1371   */\n      0x02\n        /* \"#utility.yul\":1364:1368   */\n      dup3\n        /* \"#utility.yul\":1360:1372   */\n      div\n        /* \"#utility.yul\":1350:1372   */\n      swap1\n      pop\n        /* \"#utility.yul\":1417:1418   */\n      0x01\n        /* \"#utility.yul\":1411:1415   */\n      dup3\n        /* \"#utility.yul\":1407:1419   */\n      and\n        /* \"#utility.yul\":1438:1456   */\n      dup1\n        /* \"#utility.yul\":1428:1509   */\n      tag_35\n      jumpi\n        /* \"#utility.yul\":1494:1498   */\n      0x7f\n        /* \"#utility.yul\":1486:1492   */\n      dup3\n        /* \"#utility.yul\":1482:1499   */\n      and\n        /* \"#utility.yul\":1472:1499   */\n      swap2\n      pop\n        /* \"#utility.yul\":1428:1509   */\n    tag_35:\n        /* \"#utility.yul\":1556:1558   */\n      0x20\n        /* \"#utility.yul\":1548:1554   */\n      dup3\n        /* \"#utility.yul\":1545:1559   */\n      lt\n        /* \"#utility.yul\":1525:1543   */\n      dup2\n        /* \"#utility.yul\":1522:1560   */\n      eq\n        /* \"#utility.yul\":1519:1603   */\n      iszero\n      tag_36\n      jumpi\n        /* \"#utility.yul\":1575:1593   */\n      tag_37\n      tag_38\n      jump\t// in\n    tag_37:\n        /* \"#utility.yul\":1519:1603   */\n    tag_36:\n        /* \"#utility.yul\":1340:1609   */\n      pop\n        /* \"#utility.yul\":1289:1609   */\n      swap2\n      swap1\n      pop\n      jump\t// out\n        /* \"#utility.yul\":1615:1795   */\n    tag_38:\n        /* \"#utility.yul\":1663:1740   */\n      0x4e487b7100000000000000000000000000000000000000000000000000000000\n        /* \"#utility.yul\":1660:1661   */\n      0x00\n        /* \"#utility.yul\":1653:1741   */\n      mstore\n        /* \"#utility.yul\":1760:1764   */\n      0x22\n        /* \"#utility.yul\":1757:1758   */\n      0x04\n        /* \"#utility.yul\":1750:1765   */\n      mstore\n        /* \"#utility.yul\":1784:1788   */\n      0x24\n        /* \"#utility.yul\":1781:1782   */\n      0x00\n        /* \"#utility.yul\":1774:1789   */\n      revert\n        /* \"#utility.yul\":1801:1903   */\n    tag_24:\n        /* \"#utility.yul\":1842:1848   */\n      0x00\n        /* \"#utility.yul\":1893:1895   */\n      0x1f\n        /* \"#utility.yul\":1889:1896   */\n      not\n        /* \"#utility.yul\":1884:1886   */\n      0x1f\n        /* \"#utility.yul\":1877:1882   */\n      dup4\n        /* \"#utility.yul\":1873:1887   */\n      add\n        /* \"#utility.yul\":1869:1897   */\n      and\n        /* \"#utility.yul\":1859:1897   */\n      swap1\n      pop\n        /* \"#utility.yul\":1801:1903   */\n      swap2\n      swap1\n      pop\n      jump\t// out\n\n    auxdata: 0xa2646970667358221220e4dd92e687ee5d730fe423a6a96356533c398ae2a5806240919d2d9c45adc69e64736f6c63430008070033\n}\n",
				"bytecode": {
					"linkReferences": {},
					"object": "6080604052604051806112e001604052806112ba81526020016103896112ba913960009080519060200190610035929190610048565b5034801561004257600080fd5b5061014c565b828054610054906100eb565b90600052602060002090601f01602090048101928261007657600085556100bd565b82601f1061008f57805160ff19168380011785556100bd565b828001600101855582156100bd579182015b828111156100bc5782518255916020019190600101906100a1565b5b5090506100ca91906100ce565b5090565b5b808211156100e75760008160009055506001016100cf565b5090565b6000600282049050600182168061010357607f821691505b602082108114156101175761011661011d565b5b50919050565b7f4e487b7100000000000000000000000000000000000000000000000000000000600052602260045260246000fd5b61022e8061015b6000396000f3fe608060405234801561001057600080fd5b506004361061002b5760003560e01c8063bd85f55f14610030575b600080fd5b61003861004e565b6040516100459190610115565b60405180910390f35b6000805461005b90610186565b80601f016020809104026020016040519081016040528092919081815260200182805461008790610186565b80156100d45780601f106100a9576101008083540402835291602001916100d4565b820191906000526020600020905b8154815290600101906020018083116100b757829003601f168201915b505050505081565b60006100e782610137565b6100f18185610142565b9350610101818560208601610153565b61010a816101e7565b840191505092915050565b6000602082019050818103600083015261012f81846100dc565b905092915050565b600081519050919050565b600082825260208201905092915050565b60005b83811015610171578082015181840152602081019050610156565b83811115610180576000848401525b50505050565b6000600282049050600182168061019e57607f821691505b602082108114156101b2576101b16101b8565b5b50919050565b7f4e487b7100000000000000000000000000000000000000000000000000000000600052602260045260246000fd5b6000601f19601f830116905091905056fea2646970667358221220e4dd92e687ee5d730fe423a6a96356533c398ae2a5806240919d2d9c45adc69e64736f6c634300080700333c70617468207374796c653d2266696c6c3a23306633623836222020202020643d224d2039362e3135353032312c36392e3435333935322043203131322e34363335322c33392e353130333436203237332e393831322c33342e363934393634203237352e31313136342c3130312e39313335382063202d392e32323438362c36342e35373131382034372e37343734322c31372e38313837372036362e30303836322c36372e39323930332043203333312e31303333352c3330332e3230373136203136342e38303434312c3436342e31373231332031352e3334383332322c343637202d32312e3333363137382c3235342e33303031312036302e3735333435382c3132372e32373231362039362e3135353032312c36392e343533393532205a204d203232332e38313335322c3236312e3839363432206320332e37363836342c2d332e333038393120342e35363338312c2d362e3935393320322e31393437332c2d31302e3037353333202d312e31393034362c2d312e3536353739202d312e36373638352c2d312e3534363635202d372e323138322c302e3238343134202d372e34343832392c322e3436303832202d392e35323735382c322e3137313239202d31302e37343336362c2d312e3439353939202d302e38363333322c2d322e3630333438202d302e36303632342c2d332e313939373720322e35383637372c2d3620362e343935382c2d352e363936373320372e32313935322c2d392e343031353220322e36363732362c2d31332e3635333937202d352e38363833372c2d342e313234363220302e33303439382c2d372e353335313420312e303437392c2d31322e333932333720302c2d332e3033363236202d372e32363332352c2d352e3634373731202d32342e36373032382c2d382e3837303031202d352e313836352c2d302e39363031202d392e35353533392c2d322e3435333634202d31312e3936332c2d342e3038393636202d372e36343437372c2d352e3735343933202d352e33313732372c352e3931393934202d352e31373930392c392e353633323920302e34373138382c31312e353931373920312e38363535362c31352e323732323920382e35303332382c32322e343535373820342e32333134372c342e35373933392031352e39323234332c31342e37323334382032312e32373339322c31382e343539303920342e34393431322c332e31333731312031352e31383732322c382e37393634382031362e37353033372c382e3836353220302e36363833372c302e3032393420322e38303538372c2d312e3334333220342e37352c2d332e3035303137207a206d20322e37303630362c2d34332e35353134206320312e32383435382c2d312e313632353320312e38323837342c2d332e303733383220312e38323837342c2d362e343233323720302c2d332e363838313320302e35393438322c2d352e343735313920322e36323537392c2d372e383838383620332e34393138372c2d342e313439383520392e33393938312c2d372e31353736382031312e36313933312c2d352e393135353920322e31373832332c312e32313920332e37363238332c372e303538393720332e30373134332c31312e3331393539202d302e38323437332c372e363830363520372e32313338382c332e323931393520382e35313833362c2d302e3637393220302e35343732382c2d312e373931373320312e32383235382c2d31302e393532353320312e36333339392c2d32302e3335373335202d302e38373835332c2d362e313931313120332e38393331362c2d31342e3936373432202d312e39313439382c2d31382e3737333036202d342e38353433362c2d322e383138343320302e31313734342c2d372e333335353820312e393436312c2d31302e303733313120322e3437352c2d332e363930383720342e352c2d372e383232383120342e352c2d392e313832303820342e37303535312c2d392e3938353439202d312e39313732342c2d352e3233343238202d322c2d31302e383732303820342e39393835372c2d31322e343139363820392e38393231392c332e353230393320392e343639312c2d31362e3039313132202d302e303332342c2d31312e3631353739202d312e32393435382c2d31352e3730383731202d352e32373733362c2d31372e31313237202d382e35333232322c2d332e3339363537202d31382e34353434392c2d31392e303835303335202d32332e36393533332c2d382e343734323839202d322e39323234312c332e343733303739202d332e30373832332c342e393032343139202d302e38373730362c382e30343530323920312e363734352c322e3034333235202d362e34363630362c31322e3037333737202d372e36303337372c31322e3839313237202d312e39313739352c312e3139373737202d312e39323730382c312e3336343935202d302e32373237342c342e393930353420302e39343134322c322e303633313920322e39353934312c352e323239343320342e34383434322c372e303336303620332e35363735332c342e323236333720332e35313537372c372e3534313236202d302e32323732362c31342e3535353535202d322e32373732342c342e3236373434202d332c362e3933333131202d332c31312e303634343720302e33323136382c362e31383031202d312e39303934352c31392e3730333135202d392e35393933392c32312e3539353139202d322e37383434352c30202d342e31373232352c342e3236363339202d332e38353232342c31312e3834323637202d372e33393839362c31372e393034303320312e35313037342c31332e323437323520302e38373834392c32302e313031202d302e35373639322c352e3039393335202d302e33393630362c362e343332383820312e30393630392c382e303831363920322e31383032312c322e3430393120342e32333035362c322e353037363920362e36343833312c302e3331393635207a206d202d33332e33313931392c2d31372e3835373036206320322e33393336342c2d312e333638333720352e31383439372c2d322e343837393520362e32303239352c2d322e343837393520322e35353534392c3020362e39313035322c2d322e303839373920372e31303733352c2d332e343130353220302e303839332c2d302e353939323120302e32303138312c2d322e363532373220302e32352c2d342e353633333620302e303639392c2d322e373639393420302e36353336392c2d332e373437373420322e38383130392c2d342e383235333920322e30363035342c2d302e393936393220322e36333633332c2d312e383436353720322e313934362c2d332e3233383335202d302e38313538392c2d322e353730363520312e31363230362c2d352e393632333820332e34373730382c2d352e393632333820312e33323532322c3020332e31393238382c2d322e333239353920362e32313332382c2d372e373520342e39393430352c2d372e323230323820352e37383735352c2d31372e323338333420392e38393532312c2d32332e353437343420352e30393935362c2d372e363938393420322e32353035332c2d31322e3637373434202d342e31363534312c2d372e3237383738202d332e33333638322c322e3830373734202d352e30303734352c332e3132383637202d372e39383636372c312e3533343233202d312e353234362c2d302e3831353934202d312e37333034332c2d312e3434363631202d302e39343837382c2d322e393037313420302e32303238362c2d392e3936313737202d382e3236322c2d312e3236363035202d382e39303030372c2d322e3033303531202d302e35333630322c2d302e38313338202d322e33333930392c2d312e3534383236202d342e30303638322c2d312e3633323133202d322e39363533322c2d302e3134393134202d332e30333136362c2d302e30353033202d332e30303630382c342e343739363320302e303134342c322e3534373638202d302e3038352c352e3735373134202d302e32323038342c372e3133323134202d302e31333538352c312e33373520302e303932322c352e3331333220302e35303638352c382e373531353620302e37303939312c352e383837313220302e36303532312c362e3338393333202d312e37393539382c382e3631343638202d372e33373235332c382e313938363220382e30373134312c372e353233343920382e34353031372c31342e323036333420302c332e3231343938202d312e35313831342c332e3036333132202d352e30393034352c2d302e3530393138202d312e36313531332c2d312e3631353133202d342e393638362c2d332e3935313433202d372e34353231362c2d352e3139313738202d332e31333235332c2d312e3536343436202d342e36383533372c2d332e3033383731202d352e30363939392c2d342e38313334202d342e353530312c2d372e3535363535202d342e35323536392c2d352e3737363636202d332e39383431322c2d31352e303538323220302e33393834352c2d372e313936363820352e39363232382c2d32302e343731303620392e373535382c2d32332e323735373420322e30373038352c2d312e353331303520322e36343935322c2d322e363338363820322e32333730382c2d342e3238313937202d302e38363935392c2d332e343634373220322e38363132382c2d352e343432332031302e32363733332c2d352e3434323320362e39303731392c2d302e32323036382031312e30393734342c2d31302e37373839352031312e33333635312c2d31342e353630383620302c2d312e3933303233202d302e37373837362c2d342e363938303432202d312e37333035372c2d362e313530363936202d312e31383333352c2d312e3830363032202d312e37333637322c2d342e363837393731202d312e37352c2d392e313134303532202d302e303233372c2d372e383737333737202d302e31393631352c2d372e393831353435202d31332e35313934332c2d382e313633373138202d352e3232352c2d302e3037313434202d31312e363339312c2d302e343831393733202d31342e32353335352c2d302e393132323839202d382e33313631332c2d312e333638373631202d31312e36383838392c2d302e323234333934202d31352e39353431332c352e343133313739202d352e31333738312c362e373930383932202d382e393337352c31362e353832353736202d392e35343135382c32342e353838333336202d302e37313638352c372e3638303236202d312e36363538392c362e34393420352e36363133382c372e313538343120352e393530342c302e35333935372031312e30383738382c322e37343732372031312e30383738382c342e373634373420302c302e3533373332202d322e39353435382c302e3937363935202d362e35363537342c302e3937363935202d332e36313131362c30202d372e34313634372c302e3435353239202d382e34353632352c312e3031313737202d322e35393736342c312e3339303231202d332e39333135332c362e3730303933202d342e36343337312c31382e3438383234202d302e35303936362c382e3433353236202d302e31383036332c31322e313930363420322e31303237322c323420312e34383838312c372e3720332e34393136332c31352e3820342e34353037312c313820302e39353930382c322e3220322e33323330342c362e303934313420332e30333130312c382e363533363520312e35323037332c352e3439373820362e32393232382c31302e35313238332031302e35383132362c31312e313231313720352e39333731322c302e383432313120372e30363334342c302e36363438322031312e33353230372c2d312e3738363837207a206d202d312e34333234332c2d31392e39353231322063202d302e35363434362c2d322e3731333436202d332e37353431332c2d332e3034363536202d342e34313936342c2d352e323331303320322e33383934362c2d322e343036303220362e38353839352c2d302e373332392031302e34363734372c302e383632333320362e30393633352c352e3037363737202d342e34393235362c31302e3233313431202d362e30343738332c342e33363837207a204d203137302e30393833322c3133302e37303035392043203136352e32353532322c3132382e3738363834203136372e30323536332c313235203137322e37363334342c313235206320332e31343037332c3020332e35373333332c302e373334363820322e343035342c342e3038353032202d312e31313137392c332e3138393238202d312e30393835392c332e3138353038202d352e30373035322c312e3631353537207a206d2034392e37352c2d332e37303035382063202d312e36313435312c2d312e3333383833202d31302e33333638392c2d312e3234363631202d382e352c3020322e30313131372c312e323939373120392e33303332372c312e323939373120382e352c30207a22207472616e73666f726d3d227472616e736c617465283020313029222f3e",
					"opcodes": "PUSH1 0x80 PUSH1 0x40 MSTORE PUSH1 0x40 MLOAD DUP1 PUSH2 0x12E0 ADD PUSH1 0x40 MSTORE DUP1 PUSH2 0x12BA DUP2 MSTORE PUSH1 0x20 ADD PUSH2 0x389 PUSH2 0x12BA SWAP2 CODECOPY PUSH1 0x0 SWAP1 DUP1 MLOAD SWAP1 PUSH1 0x20 ADD SWAP1 PUSH2 0x35 SWAP3 SWAP2 SWAP1 PUSH2 0x48 JUMP JUMPDEST POP CALLVALUE DUP1 ISZERO PUSH2 0x42 JUMPI PUSH1 0x0 DUP1 REVERT JUMPDEST POP PUSH2 0x14C JUMP JUMPDEST DUP3 DUP1 SLOAD PUSH2 0x54 SWAP1 PUSH2 0xEB JUMP JUMPDEST SWAP1 PUSH1 0x0 MSTORE PUSH1 0x20 PUSH1 0x0 KECCAK256 SWAP1 PUSH1 0x1F ADD PUSH1 0x20 SWAP1 DIV DUP2 ADD SWAP3 DUP3 PUSH2 0x76 JUMPI PUSH1 0x0 DUP6 SSTORE PUSH2 0xBD JUMP JUMPDEST DUP3 PUSH1 0x1F LT PUSH2 0x8F JUMPI DUP1 MLOAD PUSH1 0xFF NOT AND DUP4 DUP1 ADD OR DUP6 SSTORE PUSH2 0xBD JUMP JUMPDEST DUP3 DUP1 ADD PUSH1 0x1 ADD DUP6 SSTORE DUP3 ISZERO PUSH2 0xBD JUMPI SWAP2 DUP3 ADD JUMPDEST DUP3 DUP2 GT ISZERO PUSH2 0xBC JUMPI DUP3 MLOAD DUP3 SSTORE SWAP2 PUSH1 0x20 ADD SWAP2 SWAP1 PUSH1 0x1 ADD SWAP1 PUSH2 0xA1 JUMP JUMPDEST JUMPDEST POP SWAP1 POP PUSH2 0xCA SWAP2 SWAP1 PUSH2 0xCE JUMP JUMPDEST POP SWAP1 JUMP JUMPDEST JUMPDEST DUP1 DUP3 GT ISZERO PUSH2 0xE7 JUMPI PUSH1 0x0 DUP2 PUSH1 0x0 SWAP1 SSTORE POP PUSH1 0x1 ADD PUSH2 0xCF JUMP JUMPDEST POP SWAP1 JUMP JUMPDEST PUSH1 0x0 PUSH1 0x2 DUP3 DIV SWAP1 POP PUSH1 0x1 DUP3 AND DUP1 PUSH2 0x103 JUMPI PUSH1 0x7F DUP3 AND SWAP2 POP JUMPDEST PUSH1 0x20 DUP3 LT DUP2 EQ ISZERO PUSH2 0x117 JUMPI PUSH2 0x116 PUSH2 0x11D JUMP JUMPDEST JUMPDEST POP SWAP2 SWAP1 POP JUMP JUMPDEST PUSH32 0x4E487B7100000000000000000000000000000000000000000000000000000000 PUSH1 0x0 MSTORE PUSH1 0x22 PUSH1 0x4 MSTORE PUSH1 0x24 PUSH1 0x0 REVERT JUMPDEST PUSH2 0x22E DUP1 PUSH2 0x15B PUSH1 0x0 CODECOPY PUSH1 0x0 RETURN INVALID PUSH1 0x80 PUSH1 0x40 MSTORE CALLVALUE DUP1 ISZERO PUSH2 0x10 JUMPI PUSH1 0x0 DUP1 REVERT JUMPDEST POP PUSH1 0x4 CALLDATASIZE LT PUSH2 0x2B JUMPI PUSH1 0x0 CALLDATALOAD PUSH1 0xE0 SHR DUP1 PUSH4 0xBD85F55F EQ PUSH2 0x30 JUMPI JUMPDEST PUSH1 0x0 DUP1 REVERT JUMPDEST PUSH2 0x38 PUSH2 0x4E JUMP JUMPDEST PUSH1 0x40 MLOAD PUSH2 0x45 SWAP2 SWAP1 PUSH2 0x115 JUMP JUMPDEST PUSH1 0x40 MLOAD DUP1 SWAP2 SUB SWAP1 RETURN JUMPDEST PUSH1 0x0 DUP1 SLOAD PUSH2 0x5B SWAP1 PUSH2 0x186 JUMP JUMPDEST DUP1 PUSH1 0x1F ADD PUSH1 0x20 DUP1 SWAP2 DIV MUL PUSH1 0x20 ADD PUSH1 0x40 MLOAD SWAP1 DUP2 ADD PUSH1 0x40 MSTORE DUP1 SWAP3 SWAP2 SWAP1 DUP2 DUP2 MSTORE PUSH1 0x20 ADD DUP3 DUP1 SLOAD PUSH2 0x87 SWAP1 PUSH2 0x186 JUMP JUMPDEST DUP1 ISZERO PUSH2 0xD4 JUMPI DUP1 PUSH1 0x1F LT PUSH2 0xA9 JUMPI PUSH2 0x100 DUP1 DUP4 SLOAD DIV MUL DUP4 MSTORE SWAP2 PUSH1 0x20 ADD SWAP2 PUSH2 0xD4 JUMP JUMPDEST DUP3 ADD SWAP2 SWAP1 PUSH1 0x0 MSTORE PUSH1 0x20 PUSH1 0x0 KECCAK256 SWAP1 JUMPDEST DUP2 SLOAD DUP2 MSTORE SWAP1 PUSH1 0x1 ADD SWAP1 PUSH1 0x20 ADD DUP1 DUP4 GT PUSH2 0xB7 JUMPI DUP3 SWAP1 SUB PUSH1 0x1F AND DUP3 ADD SWAP2 JUMPDEST POP POP POP POP POP DUP2 JUMP JUMPDEST PUSH1 0x0 PUSH2 0xE7 DUP3 PUSH2 0x137 JUMP JUMPDEST PUSH2 0xF1 DUP2 DUP6 PUSH2 0x142 JUMP JUMPDEST SWAP4 POP PUSH2 0x101 DUP2 DUP6 PUSH1 0x20 DUP7 ADD PUSH2 0x153 JUMP JUMPDEST PUSH2 0x10A DUP2 PUSH2 0x1E7 JUMP JUMPDEST DUP5 ADD SWAP2 POP POP SWAP3 SWAP2 POP POP JUMP JUMPDEST PUSH1 0x0 PUSH1 0x20 DUP3 ADD SWAP1 POP DUP2 DUP2 SUB PUSH1 0x0 DUP4 ADD MSTORE PUSH2 0x12F DUP2 DUP5 PUSH2 0xDC JUMP JUMPDEST SWAP1 POP SWAP3 SWAP2 POP POP JUMP JUMPDEST PUSH1 0x0 DUP2 MLOAD SWAP1 POP SWAP2 SWAP1 POP JUMP JUMPDEST PUSH1 0x0 DUP3 DUP3 MSTORE PUSH1 0x20 DUP3 ADD SWAP1 POP SWAP3 SWAP2 POP POP JUMP JUMPDEST PUSH1 0x0 JUMPDEST DUP4 DUP2 LT ISZERO PUSH2 0x171 JUMPI DUP1 DUP3 ADD MLOAD DUP2 DUP5 ADD MSTORE PUSH1 0x20 DUP2 ADD SWAP1 POP PUSH2 0x156 JUMP JUMPDEST DUP4 DUP2 GT ISZERO PUSH2 0x180 JUMPI PUSH1 0x0 DUP5 DUP5 ADD MSTORE JUMPDEST POP POP POP POP JUMP JUMPDEST PUSH1 0x0 PUSH1 0x2 DUP3 DIV SWAP1 POP PUSH1 0x1 DUP3 AND DUP1 PUSH2 0x19E JUMPI PUSH1 0x7F DUP3 AND SWAP2 POP JUMPDEST PUSH1 0x20 DUP3 LT DUP2 EQ ISZERO PUSH2 0x1B2 JUMPI PUSH2 0x1B1 PUSH2 0x1B8 JUMP JUMPDEST JUMPDEST POP SWAP2 SWAP1 POP JUMP JUMPDEST PUSH32 0x4E487B7100000000000000000000000000000000000000000000000000000000 PUSH1 0x0 MSTORE PUSH1 0x22 PUSH1 0x4 MSTORE PUSH1 0x24 PUSH1 0x0 REVERT JUMPDEST PUSH1 0x0 PUSH1 0x1F NOT PUSH1 0x1F DUP4 ADD AND SWAP1 POP SWAP2 SWAP1 POP JUMP INVALID LOG2 PUSH5 0x6970667358 0x22 SLT KECCAK256 0xE4 0xDD SWAP3 0xE6 DUP8 0xEE 0x5D PUSH20 0xFE423A6A96356533C398AE2A5806240919D2D9C GASLIMIT 0xAD 0xC6 SWAP15 PUSH5 0x736F6C6343 STOP ADDMOD SMOD STOP CALLER EXTCODECOPY PUSH17 0x617468207374796C653D2266696C6C3A23 ADDRESS PUSH7 0x33623836222020 KECCAK256 KECCAK256 KECCAK256 PUSH5 0x3D224D2039 CALLDATASIZE 0x2E BALANCE CALLDATALOAD CALLDATALOAD ADDRESS ORIGIN BALANCE 0x2C CALLDATASIZE CODECOPY 0x2E CALLVALUE CALLDATALOAD CALLER CODECOPY CALLDATALOAD ORIGIN KECCAK256 NUMBER KECCAK256 BALANCE BALANCE ORIGIN 0x2E CALLVALUE CALLDATASIZE CALLER CALLDATALOAD ORIGIN 0x2C CALLER CODECOPY 0x2E CALLDATALOAD BALANCE ADDRESS CALLER CALLVALUE CALLDATASIZE KECCAK256 ORIGIN CALLDATACOPY CALLER 0x2E CODECOPY CODESIZE BALANCE ORIGIN 0x2C CALLER CALLVALUE 0x2E CALLDATASIZE CODECOPY CALLVALUE CODECOPY CALLDATASIZE CALLVALUE KECCAK256 ORIGIN CALLDATACOPY CALLDATALOAD 0x2E BALANCE BALANCE BALANCE CALLDATASIZE CALLVALUE 0x2C BALANCE ADDRESS BALANCE 0x2E CODECOPY BALANCE CALLER CALLDATALOAD CODESIZE KECCAK256 PUSH4 0x202D392E ORIGIN ORIGIN CALLVALUE CODESIZE CALLDATASIZE 0x2C CALLDATASIZE CALLVALUE 0x2E CALLDATALOAD CALLDATACOPY BALANCE BALANCE CODESIZE KECCAK256 CALLVALUE CALLDATACOPY 0x2E CALLDATACOPY CALLVALUE CALLDATACOPY CALLVALUE ORIGIN 0x2C BALANCE CALLDATACOPY 0x2E CODESIZE BALANCE CODESIZE CALLDATACOPY CALLDATACOPY KECCAK256 CALLDATASIZE CALLDATASIZE 0x2E ADDRESS ADDRESS CODESIZE CALLDATASIZE ORIGIN 0x2C CALLDATASIZE CALLDATACOPY 0x2E CODECOPY ORIGIN CODECOPY ADDRESS CALLER KECCAK256 NUMBER KECCAK256 CALLER CALLER BALANCE 0x2E BALANCE ADDRESS CALLER CALLER CALLDATALOAD 0x2C CALLER ADDRESS CALLER 0x2E ORIGIN ADDRESS CALLDATACOPY BALANCE CALLDATASIZE KECCAK256 BALANCE CALLDATASIZE CALLVALUE 0x2E CODESIZE ADDRESS CALLVALUE CALLVALUE BALANCE 0x2C CALLVALUE CALLDATASIZE CALLVALUE 0x2E BALANCE CALLDATACOPY ORIGIN BALANCE CALLER KECCAK256 BALANCE CALLDATALOAD 0x2E CALLER CALLVALUE CODESIZE CALLER ORIGIN ORIGIN 0x2C CALLVALUE CALLDATASIZE CALLDATACOPY KECCAK256 0x2D ORIGIN BALANCE 0x2E CALLER CALLER CALLDATASIZE BALANCE CALLDATACOPY CODESIZE 0x2C ORIGIN CALLDATALOAD CALLVALUE 0x2E CALLER ADDRESS ADDRESS BALANCE BALANCE KECCAK256 CALLDATASIZE ADDRESS 0x2E CALLDATACOPY CALLDATALOAD CALLER CALLVALUE CALLDATALOAD CODESIZE 0x2C BALANCE ORIGIN CALLDATACOPY 0x2E ORIGIN CALLDATACOPY ORIGIN BALANCE CALLDATASIZE KECCAK256 CODECOPY CALLDATASIZE 0x2E BALANCE CALLDATALOAD CALLDATALOAD ADDRESS ORIGIN BALANCE 0x2C CALLDATASIZE CODECOPY 0x2E CALLVALUE CALLDATALOAD CALLER CODECOPY CALLDATALOAD ORIGIN KECCAK256 GAS KECCAK256 0x4D KECCAK256 ORIGIN ORIGIN CALLER 0x2E CODESIZE BALANCE CALLER CALLDATALOAD ORIGIN 0x2C ORIGIN CALLDATASIZE BALANCE 0x2E CODESIZE CODECOPY CALLDATASIZE CALLVALUE ORIGIN KECCAK256 PUSH4 0x20332E37 CALLDATASIZE CODESIZE CALLDATASIZE CALLVALUE 0x2C 0x2D CALLER 0x2E CALLER ADDRESS CODESIZE CODECOPY BALANCE KECCAK256 CALLVALUE 0x2E CALLDATALOAD CALLDATASIZE CALLER CODESIZE BALANCE 0x2C 0x2D CALLDATASIZE 0x2E CODECOPY CALLDATALOAD CODECOPY CALLER KECCAK256 ORIGIN 0x2E BALANCE CODECOPY CALLVALUE CALLDATACOPY CALLER 0x2C 0x2D BALANCE ADDRESS 0x2E ADDRESS CALLDATACOPY CALLDATALOAD CALLER CALLER KECCAK256 0x2D BALANCE 0x2E BALANCE CODECOPY ADDRESS CALLVALUE CALLDATASIZE 0x2C 0x2D BALANCE 0x2E CALLDATALOAD CALLDATASIZE CALLDATALOAD CALLDATACOPY CODECOPY KECCAK256 0x2D BALANCE 0x2E CALLDATASIZE CALLDATACOPY CALLDATASIZE CODESIZE CALLDATALOAD 0x2C 0x2D BALANCE 0x2E CALLDATALOAD CALLVALUE CALLDATASIZE CALLDATASIZE CALLDATALOAD KECCAK256 0x2D CALLDATACOPY 0x2E ORIGIN BALANCE CODESIZE ORIGIN 0x2C ADDRESS 0x2E ORIGIN CODESIZE CALLVALUE BALANCE CALLVALUE KECCAK256 0x2D CALLDATACOPY 0x2E CALLVALUE CALLVALUE CODESIZE ORIGIN CODECOPY 0x2C ORIGIN 0x2E CALLVALUE CALLDATASIZE ADDRESS CODESIZE ORIGIN KECCAK256 0x2D CODECOPY 0x2E CALLDATALOAD ORIGIN CALLDATACOPY CALLDATALOAD CODESIZE 0x2C ORIGIN 0x2E BALANCE CALLDATACOPY BALANCE ORIGIN CODECOPY KECCAK256 0x2D BALANCE ADDRESS 0x2E CALLDATACOPY CALLVALUE CALLER CALLDATASIZE CALLDATASIZE 0x2C 0x2D BALANCE 0x2E CALLVALUE CODECOPY CALLDATALOAD CODECOPY CODECOPY KECCAK256 0x2D ADDRESS 0x2E CODESIZE CALLDATASIZE CALLER CALLER ORIGIN 0x2C 0x2D ORIGIN 0x2E CALLDATASIZE ADDRESS CALLER CALLVALUE CODESIZE KECCAK256 0x2D ADDRESS 0x2E CALLDATASIZE ADDRESS CALLDATASIZE ORIGIN CALLVALUE 0x2C 0x2D CALLER 0x2E BALANCE CODECOPY CODECOPY CALLDATACOPY CALLDATACOPY KECCAK256 ORIGIN 0x2E CALLDATALOAD CODESIZE CALLDATASIZE CALLDATACOPY CALLDATACOPY 0x2C 0x2D CALLDATASIZE KECCAK256 CALLDATASIZE 0x2E CALLVALUE CODECOPY CALLDATALOAD CODESIZE 0x2C 0x2D CALLDATALOAD 0x2E CALLDATASIZE CODECOPY CALLDATASIZE CALLDATACOPY CALLER KECCAK256 CALLDATACOPY 0x2E ORIGIN BALANCE CODECOPY CALLDATALOAD ORIGIN 0x2C 0x2D CODECOPY 0x2E CALLVALUE ADDRESS BALANCE CALLDATALOAD ORIGIN KECCAK256 ORIGIN 0x2E CALLDATASIZE CALLDATASIZE CALLDATACOPY ORIGIN CALLDATASIZE 0x2C 0x2D BALANCE CALLER 0x2E CALLDATASIZE CALLDATALOAD CALLER CODECOPY CALLDATACOPY KECCAK256 0x2D CALLDATALOAD 0x2E CODESIZE CALLDATASIZE CODESIZE CALLER CALLDATACOPY 0x2C 0x2D CALLVALUE 0x2E BALANCE ORIGIN CALLVALUE CALLDATASIZE ORIGIN KECCAK256 ADDRESS 0x2E CALLER ADDRESS CALLVALUE CODECOPY CODESIZE 0x2C 0x2D CALLDATACOPY 0x2E CALLDATALOAD CALLER CALLDATALOAD BALANCE CALLVALUE KECCAK256 BALANCE 0x2E ADDRESS CALLVALUE CALLDATACOPY CODECOPY 0x2C 0x2D BALANCE ORIGIN 0x2E CALLER CODECOPY ORIGIN CALLER CALLDATACOPY KECCAK256 ADDRESS 0x2C 0x2D CALLER 0x2E ADDRESS CALLER CALLDATASIZE ORIGIN CALLDATASIZE KECCAK256 0x2D CALLDATACOPY 0x2E ORIGIN CALLDATASIZE CALLER ORIGIN CALLDATALOAD 0x2C 0x2D CALLDATALOAD 0x2E CALLDATASIZE CALLVALUE CALLDATACOPY CALLDATACOPY BALANCE KECCAK256 0x2D ORIGIN CALLVALUE 0x2E CALLDATASIZE CALLDATACOPY ADDRESS ORIGIN CODESIZE 0x2C 0x2D CODESIZE 0x2E CODESIZE CALLDATACOPY ADDRESS ADDRESS BALANCE KECCAK256 0x2D CALLDATALOAD 0x2E BALANCE CODESIZE CALLDATASIZE CALLDATALOAD 0x2C 0x2D ADDRESS 0x2E CODECOPY CALLDATASIZE ADDRESS BALANCE KECCAK256 0x2D CODECOPY 0x2E CALLDATALOAD CALLDATALOAD CALLDATALOAD CALLER CODECOPY 0x2C 0x2D ORIGIN 0x2E CALLVALUE CALLDATALOAD CALLER CALLDATASIZE CALLVALUE KECCAK256 0x2D BALANCE BALANCE 0x2E CODECOPY CALLDATASIZE CALLER 0x2C 0x2D CALLVALUE 0x2E ADDRESS CODESIZE CODECOPY CALLDATASIZE CALLDATASIZE KECCAK256 0x2D CALLDATACOPY 0x2E CALLDATASIZE CALLVALUE CALLVALUE CALLDATACOPY CALLDATACOPY 0x2C 0x2D CALLDATALOAD 0x2E CALLDATACOPY CALLDATALOAD CALLVALUE CODECOPY CALLER KECCAK256 0x2D CALLDATALOAD 0x2E CALLER BALANCE CALLDATACOPY ORIGIN CALLDATACOPY 0x2C CALLDATALOAD 0x2E CODECOPY BALANCE CODECOPY CODECOPY CALLVALUE KECCAK256 0x2D CALLDATALOAD 0x2E BALANCE CALLDATACOPY CODECOPY ADDRESS CODECOPY 0x2C CODECOPY 0x2E CALLDATALOAD CALLDATASIZE CALLER ORIGIN CODECOPY KECCAK256 ADDRESS 0x2E CALLVALUE CALLDATACOPY BALANCE CODESIZE CODESIZE 0x2C BALANCE BALANCE 0x2E CALLDATALOAD CODECOPY BALANCE CALLDATACOPY CODECOPY KECCAK256 BALANCE 0x2E CODESIZE CALLDATASIZE CALLDATALOAD CALLDATALOAD CALLDATASIZE 0x2C BALANCE CALLDATALOAD 0x2E ORIGIN CALLDATACOPY ORIGIN ORIGIN CODECOPY KECCAK256 CODESIZE 0x2E CALLDATALOAD ADDRESS CALLER ORIGIN CODESIZE 0x2C ORIGIN ORIGIN 0x2E CALLVALUE CALLDATALOAD CALLDATALOAD CALLDATACOPY CODESIZE KECCAK256 CALLVALUE 0x2E ORIGIN CALLER BALANCE CALLVALUE CALLDATACOPY 0x2C CALLVALUE 0x2E CALLDATALOAD CALLDATACOPY CODECOPY CALLER CODECOPY KECCAK256 BALANCE CALLDATALOAD 0x2E CODECOPY ORIGIN ORIGIN CALLVALUE CALLER 0x2C BALANCE CALLVALUE 0x2E CALLDATACOPY ORIGIN CALLER CALLVALUE CODESIZE KECCAK256 ORIGIN BALANCE 0x2E ORIGIN CALLDATACOPY CALLER CODECOPY ORIGIN 0x2C BALANCE CODESIZE 0x2E CALLVALUE CALLDATALOAD CODECOPY ADDRESS CODECOPY KECCAK256 CALLVALUE 0x2E CALLVALUE CODECOPY CALLVALUE BALANCE ORIGIN 0x2C CALLER 0x2E BALANCE CALLER CALLDATACOPY BALANCE BALANCE KECCAK256 BALANCE CALLDATALOAD 0x2E BALANCE CODESIZE CALLDATACOPY ORIGIN ORIGIN 0x2C CODESIZE 0x2E CALLDATACOPY CODECOPY CALLDATASIZE CALLVALUE CODESIZE KECCAK256 BALANCE CALLDATASIZE 0x2E CALLDATACOPY CALLDATALOAD ADDRESS CALLER CALLDATACOPY 0x2C CODESIZE 0x2E CODESIZE CALLDATASIZE CALLDATALOAD ORIGIN KECCAK256 ADDRESS 0x2E CALLDATASIZE CALLDATASIZE CODESIZE CALLER CALLDATACOPY 0x2C ADDRESS 0x2E ADDRESS ORIGIN CODECOPY CALLVALUE KECCAK256 ORIGIN 0x2E CODESIZE ADDRESS CALLDATALOAD CODESIZE CALLDATACOPY 0x2C 0x2D BALANCE 0x2E CALLER CALLVALUE CALLER ORIGIN KECCAK256 CALLVALUE 0x2E CALLDATACOPY CALLDATALOAD 0x2C 0x2D CALLER 0x2E ADDRESS CALLDATALOAD ADDRESS BALANCE CALLDATACOPY KECCAK256 PUSH27 0x206D20322E37303630362C2D34332E35353134206320312E323834 CALLDATALOAD CODESIZE 0x2C 0x2D BALANCE 0x2E BALANCE CALLDATASIZE ORIGIN CALLDATALOAD CALLER KECCAK256 BALANCE 0x2E CODESIZE ORIGIN CODESIZE CALLDATACOPY CALLVALUE 0x2C 0x2D CALLER 0x2E ADDRESS CALLDATACOPY CALLER CODESIZE ORIGIN KECCAK256 BALANCE 0x2E CODESIZE ORIGIN CODESIZE CALLDATACOPY CALLVALUE 0x2C 0x2D CALLDATASIZE 0x2E CALLVALUE ORIGIN CALLER ORIGIN CALLDATACOPY KECCAK256 ADDRESS 0x2C 0x2D CALLER 0x2E CALLDATASIZE CODESIZE CODESIZE BALANCE CALLER KECCAK256 ADDRESS 0x2E CALLDATALOAD CODECOPY CALLVALUE CODESIZE ORIGIN 0x2C 0x2D CALLDATALOAD 0x2E CALLVALUE CALLDATACOPY CALLDATALOAD BALANCE CODECOPY KECCAK256 ORIGIN 0x2E CALLDATASIZE ORIGIN CALLDATALOAD CALLDATACOPY CODECOPY 0x2C 0x2D CALLDATACOPY 0x2E CODESIZE CODESIZE CODESIZE CODESIZE CALLDATASIZE KECCAK256 CALLER 0x2E CALLVALUE CODECOPY BALANCE CODESIZE CALLDATACOPY 0x2C 0x2D CALLVALUE 0x2E BALANCE CALLVALUE CODECOPY CODESIZE CALLDATALOAD KECCAK256 CODECOPY 0x2E CALLER CODECOPY CODECOPY CODESIZE BALANCE 0x2C 0x2D CALLDATACOPY 0x2E BALANCE CALLDATALOAD CALLDATACOPY CALLDATASIZE CODESIZE KECCAK256 BALANCE BALANCE 0x2E CALLDATASIZE BALANCE CODECOPY CALLER BALANCE 0x2C 0x2D CALLDATALOAD 0x2E CODECOPY BALANCE CALLDATALOAD CALLDATALOAD CODECOPY KECCAK256 ORIGIN 0x2E BALANCE CALLDATACOPY CODESIZE ORIGIN CALLER 0x2C BALANCE 0x2E ORIGIN BALANCE CODECOPY KECCAK256 CALLER 0x2E CALLDATACOPY CALLDATASIZE ORIGIN CODESIZE CALLER 0x2C CALLDATACOPY 0x2E ADDRESS CALLDATALOAD CODESIZE CODECOPY CALLDATACOPY KECCAK256 CALLER 0x2E ADDRESS CALLDATACOPY BALANCE CALLVALUE CALLER 0x2C BALANCE BALANCE 0x2E CALLER BALANCE CODECOPY CALLDATALOAD CODECOPY KECCAK256 0x2D ADDRESS 0x2E CODESIZE ORIGIN CALLVALUE CALLDATACOPY CALLER 0x2C CALLDATACOPY 0x2E CALLDATASIZE CODESIZE ADDRESS CALLDATASIZE CALLDATALOAD KECCAK256 CALLDATACOPY 0x2E ORIGIN BALANCE CALLER CODESIZE CODESIZE 0x2C CALLER 0x2E ORIGIN CODECOPY BALANCE CODECOPY CALLDATALOAD KECCAK256 CODESIZE 0x2E CALLDATALOAD BALANCE CODESIZE CALLER CALLDATASIZE 0x2C 0x2D ADDRESS 0x2E CALLDATASIZE CALLDATACOPY CODECOPY ORIGIN KECCAK256 ADDRESS 0x2E CALLDATALOAD CALLVALUE CALLDATACOPY ORIGIN CODESIZE 0x2C 0x2D BALANCE 0x2E CALLDATACOPY CODECOPY BALANCE CALLDATACOPY CALLER KECCAK256 BALANCE 0x2E ORIGIN CODESIZE ORIGIN CALLDATALOAD CODESIZE 0x2C 0x2D BALANCE ADDRESS 0x2E CODECOPY CALLDATALOAD ORIGIN CALLDATALOAD CALLER KECCAK256 BALANCE 0x2E CALLDATASIZE CALLER CALLER CODECOPY CODECOPY 0x2C 0x2D ORIGIN ADDRESS 0x2E CALLER CALLDATALOAD CALLDATACOPY CALLER CALLDATALOAD KECCAK256 0x2D ADDRESS 0x2E CODESIZE CALLDATACOPY CODESIZE CALLDATALOAD CALLER 0x2C 0x2D CALLDATASIZE 0x2E BALANCE CODECOPY BALANCE BALANCE BALANCE KECCAK256 CALLER 0x2E CODESIZE CODECOPY CALLER BALANCE CALLDATASIZE 0x2C 0x2D BALANCE CALLVALUE 0x2E CODECOPY CALLDATASIZE CALLDATACOPY CALLVALUE ORIGIN KECCAK256 0x2D BALANCE 0x2E CODECOPY BALANCE CALLVALUE CODECOPY CODESIZE 0x2C 0x2D BALANCE CODESIZE 0x2E CALLDATACOPY CALLDATACOPY CALLER ADDRESS CALLDATASIZE KECCAK256 0x2D CALLVALUE 0x2E CODESIZE CALLDATALOAD CALLVALUE CALLER CALLDATASIZE 0x2C 0x2D ORIGIN 0x2E CODESIZE BALANCE CODESIZE CALLVALUE CALLER KECCAK256 ADDRESS 0x2E BALANCE BALANCE CALLDATACOPY CALLVALUE CALLVALUE 0x2C 0x2D CALLDATACOPY 0x2E CALLER CALLER CALLDATALOAD CALLDATALOAD CODESIZE KECCAK256 BALANCE 0x2E CODECOPY CALLVALUE CALLDATASIZE BALANCE 0x2C 0x2D BALANCE ADDRESS 0x2E ADDRESS CALLDATACOPY CALLER BALANCE BALANCE KECCAK256 ORIGIN 0x2E CALLVALUE CALLDATACOPY CALLDATALOAD 0x2C 0x2D CALLER 0x2E CALLDATASIZE CODECOPY ADDRESS CODESIZE CALLDATACOPY KECCAK256 CALLVALUE 0x2E CALLDATALOAD 0x2C 0x2D CALLDATACOPY 0x2E CODESIZE ORIGIN ORIGIN CODESIZE BALANCE KECCAK256 CALLVALUE 0x2E CALLDATALOAD 0x2C 0x2D CODECOPY 0x2E BALANCE CODESIZE ORIGIN ADDRESS CODESIZE KECCAK256 CALLVALUE 0x2E CALLDATACOPY ADDRESS CALLDATALOAD CALLDATALOAD BALANCE 0x2C 0x2D CODECOPY 0x2E CODECOPY CODESIZE CALLDATALOAD CALLVALUE CODECOPY KECCAK256 0x2D BALANCE 0x2E CODECOPY BALANCE CALLDATACOPY ORIGIN CALLVALUE 0x2C 0x2D CALLDATALOAD 0x2E ORIGIN CALLER CALLVALUE ORIGIN CODESIZE KECCAK256 0x2D ORIGIN 0x2C 0x2D BALANCE ADDRESS 0x2E CODESIZE CALLDATACOPY ORIGIN ADDRESS CODESIZE KECCAK256 CALLVALUE 0x2E CODECOPY CODECOPY CODESIZE CALLDATALOAD CALLDATACOPY 0x2C 0x2D BALANCE ORIGIN 0x2E CALLVALUE BALANCE CODECOPY CALLDATASIZE CODESIZE KECCAK256 CODECOPY 0x2E CODESIZE CODECOPY ORIGIN BALANCE CODECOPY 0x2C CALLER 0x2E CALLDATALOAD ORIGIN ADDRESS CODECOPY CALLER KECCAK256 CODECOPY 0x2E CALLVALUE CALLDATASIZE CODECOPY BALANCE 0x2C 0x2D BALANCE CALLDATASIZE 0x2E ADDRESS CODECOPY BALANCE BALANCE ORIGIN KECCAK256 0x2D ADDRESS 0x2E ADDRESS CALLER ORIGIN CALLVALUE 0x2C 0x2D BALANCE BALANCE 0x2E CALLDATASIZE BALANCE CALLDATALOAD CALLDATACOPY CODECOPY KECCAK256 0x2D BALANCE 0x2E ORIGIN CODECOPY CALLVALUE CALLDATALOAD CODESIZE 0x2C 0x2D BALANCE CALLDATALOAD 0x2E CALLDATACOPY ADDRESS CODESIZE CALLDATACOPY BALANCE KECCAK256 0x2D CALLDATALOAD 0x2E ORIGIN CALLDATACOPY CALLDATACOPY CALLER CALLDATASIZE 0x2C 0x2D BALANCE CALLDATACOPY 0x2E BALANCE BALANCE ORIGIN CALLDATACOPY KECCAK256 0x2D CODESIZE 0x2E CALLDATALOAD CALLER ORIGIN ORIGIN ORIGIN 0x2C 0x2D CALLER 0x2E CALLER CODECOPY CALLDATASIZE CALLDATALOAD CALLDATACOPY KECCAK256 0x2D BALANCE CODESIZE 0x2E CALLVALUE CALLDATALOAD CALLVALUE CALLVALUE CODECOPY 0x2C 0x2D BALANCE CODECOPY 0x2E ADDRESS CODESIZE CALLDATALOAD ADDRESS CALLER CALLDATALOAD KECCAK256 0x2D ORIGIN CALLER 0x2E CALLDATASIZE CODECOPY CALLDATALOAD CALLER CALLER 0x2C 0x2D CODESIZE 0x2E CALLVALUE CALLDATACOPY CALLVALUE ORIGIN CODESIZE CODECOPY KECCAK256 0x2D ORIGIN 0x2E CODECOPY ORIGIN ORIGIN CALLVALUE BALANCE 0x2C CALLER 0x2E CALLVALUE CALLDATACOPY CALLER ADDRESS CALLDATACOPY CODECOPY KECCAK256 0x2D CALLER 0x2E ADDRESS CALLDATACOPY CODESIZE ORIGIN CALLER 0x2C CALLVALUE 0x2E CODECOPY ADDRESS ORIGIN CALLVALUE BALANCE CODECOPY KECCAK256 0x2D ADDRESS 0x2E CODESIZE CALLDATACOPY CALLDATACOPY ADDRESS CALLDATASIZE 0x2C CODESIZE 0x2E ADDRESS CALLVALUE CALLDATALOAD ADDRESS ORIGIN CODECOPY KECCAK256 BALANCE 0x2E CALLDATASIZE CALLDATACOPY CALLVALUE CALLDATALOAD 0x2C ORIGIN 0x2E ADDRESS CALLVALUE CALLER ORIGIN CALLDATALOAD KECCAK256 0x2D CALLDATASIZE 0x2E CALLVALUE CALLDATASIZE CALLDATASIZE ADDRESS CALLDATASIZE 0x2C BALANCE ORIGIN 0x2E ADDRESS CALLDATACOPY CALLER CALLDATACOPY CALLDATACOPY KECCAK256 0x2D CALLDATACOPY 0x2E CALLDATASIZE ADDRESS CALLER CALLDATACOPY CALLDATACOPY 0x2C BALANCE ORIGIN 0x2E CODESIZE CODECOPY BALANCE ORIGIN CALLDATACOPY KECCAK256 0x2D BALANCE 0x2E CODECOPY BALANCE CALLDATACOPY CODECOPY CALLDATALOAD 0x2C BALANCE 0x2E BALANCE CODECOPY CALLDATACOPY CALLDATACOPY CALLDATACOPY KECCAK256 0x2D BALANCE 0x2E CODECOPY ORIGIN CALLDATACOPY ADDRESS CODESIZE 0x2C BALANCE 0x2E CALLER CALLDATASIZE CALLVALUE CODECOPY CALLDATALOAD KECCAK256 0x2D ADDRESS 0x2E ORIGIN CALLDATACOPY ORIGIN CALLDATACOPY CALLVALUE 0x2C CALLVALUE 0x2E CODECOPY CODECOPY ADDRESS CALLDATALOAD CALLVALUE KECCAK256 ADDRESS 0x2E CODECOPY CALLVALUE BALANCE CALLVALUE ORIGIN 0x2C ORIGIN 0x2E ADDRESS CALLDATASIZE CALLER BALANCE CODECOPY KECCAK256 ORIGIN 0x2E CODECOPY CALLDATALOAD CODECOPY CALLVALUE BALANCE 0x2C CALLDATALOAD 0x2E ORIGIN ORIGIN CODECOPY CALLVALUE CALLER KECCAK256 CALLVALUE 0x2E CALLVALUE CODESIZE CALLVALUE CALLVALUE ORIGIN 0x2C CALLDATACOPY 0x2E ADDRESS CALLER CALLDATASIZE ADDRESS CALLDATASIZE KECCAK256 CALLER 0x2E CALLDATALOAD CALLDATASIZE CALLDATACOPY CALLDATALOAD CALLER 0x2C CALLVALUE 0x2E ORIGIN ORIGIN CALLDATASIZE CALLER CALLDATACOPY KECCAK256 CALLER 0x2E CALLDATALOAD BALANCE CALLDATALOAD CALLDATACOPY CALLDATACOPY 0x2C CALLDATACOPY 0x2E CALLDATALOAD CALLVALUE BALANCE ORIGIN CALLDATASIZE KECCAK256 0x2D ADDRESS 0x2E ORIGIN ORIGIN CALLDATACOPY ORIGIN CALLDATASIZE 0x2C BALANCE CALLVALUE 0x2E CALLDATALOAD CALLDATALOAD CALLDATALOAD CALLDATALOAD CALLDATALOAD KECCAK256 0x2D ORIGIN 0x2E ORIGIN CALLDATACOPY CALLDATACOPY ORIGIN CALLVALUE 0x2C CALLVALUE 0x2E ORIGIN CALLDATASIZE CALLDATACOPY CALLVALUE CALLVALUE KECCAK256 0x2D CALLER 0x2C CALLDATASIZE 0x2E CODECOPY CALLER CALLER BALANCE BALANCE KECCAK256 0x2D CALLER 0x2C BALANCE BALANCE 0x2E ADDRESS CALLDATASIZE CALLVALUE CALLVALUE CALLDATACOPY KECCAK256 ADDRESS 0x2E CALLER ORIGIN BALANCE CALLDATASIZE CODESIZE 0x2C CALLDATASIZE 0x2E BALANCE CODESIZE ADDRESS BALANCE KECCAK256 0x2D BALANCE 0x2E CODECOPY ADDRESS CODECOPY CALLVALUE CALLDATALOAD 0x2C BALANCE CODECOPY 0x2E CALLDATACOPY ADDRESS CALLER BALANCE CALLDATALOAD KECCAK256 0x2D CODECOPY 0x2E CALLDATALOAD CODECOPY CODECOPY CALLER CODECOPY 0x2C ORIGIN BALANCE 0x2E CALLDATALOAD CODECOPY CALLDATALOAD BALANCE CODECOPY KECCAK256 0x2D ORIGIN 0x2E CALLDATACOPY CODESIZE CALLVALUE CALLVALUE CALLDATALOAD 0x2C ADDRESS KECCAK256 0x2D CALLVALUE 0x2E BALANCE CALLDATACOPY ORIGIN ORIGIN CALLDATALOAD 0x2C CALLVALUE 0x2E ORIGIN CALLDATASIZE CALLDATASIZE CALLER CODECOPY KECCAK256 0x2D CALLER 0x2E CODESIZE CALLDATALOAD ORIGIN ORIGIN CALLVALUE 0x2C BALANCE BALANCE 0x2E CODESIZE CALLVALUE ORIGIN CALLDATASIZE CALLDATACOPY KECCAK256 0x2D CALLDATACOPY 0x2E CALLER CODECOPY CODESIZE CODECOPY CALLDATASIZE 0x2C BALANCE CALLDATACOPY 0x2E CODECOPY ADDRESS CALLVALUE ADDRESS CALLER KECCAK256 BALANCE 0x2E CALLDATALOAD BALANCE ADDRESS CALLDATACOPY CALLVALUE 0x2C BALANCE CALLER 0x2E ORIGIN CALLVALUE CALLDATACOPY ORIGIN CALLDATALOAD KECCAK256 ADDRESS 0x2E CODESIZE CALLDATACOPY CODESIZE CALLVALUE CODECOPY 0x2C ORIGIN ADDRESS 0x2E BALANCE ADDRESS BALANCE KECCAK256 0x2D ADDRESS 0x2E CALLDATALOAD CALLDATACOPY CALLDATASIZE CODECOPY ORIGIN 0x2C CALLDATALOAD 0x2E ADDRESS CODECOPY CODECOPY CALLER CALLDATALOAD KECCAK256 0x2D ADDRESS 0x2E CALLER CODECOPY CALLDATASIZE ADDRESS CALLDATASIZE 0x2C CALLDATASIZE 0x2E CALLVALUE CALLER ORIGIN CODESIZE CODESIZE KECCAK256 BALANCE 0x2E ADDRESS CODECOPY CALLDATASIZE ADDRESS CODECOPY 0x2C CODESIZE 0x2E ADDRESS CODESIZE BALANCE CALLDATASIZE CODECOPY KECCAK256 ORIGIN 0x2E BALANCE CODESIZE ADDRESS ORIGIN BALANCE 0x2C ORIGIN 0x2E CALLVALUE ADDRESS CODECOPY BALANCE KECCAK256 CALLVALUE 0x2E ORIGIN CALLER ADDRESS CALLDATALOAD CALLDATASIZE 0x2C ORIGIN 0x2E CALLDATALOAD ADDRESS CALLDATACOPY CALLDATASIZE CODECOPY KECCAK256 CALLDATASIZE 0x2E CALLDATASIZE CALLVALUE CODESIZE CALLER BALANCE 0x2C ADDRESS 0x2E CALLER BALANCE CODECOPY CALLDATASIZE CALLDATALOAD KECCAK256 PUSH27 0x206D202D33332E33313931392C2D31372E3835373036206320322E CALLER CODECOPY CALLER CALLDATASIZE CALLVALUE 0x2C 0x2D BALANCE 0x2E CALLER CALLDATASIZE CODESIZE CALLER CALLDATACOPY KECCAK256 CALLDATALOAD 0x2E BALANCE CODESIZE CALLVALUE CODECOPY CALLDATACOPY 0x2C 0x2D ORIGIN 0x2E CALLVALUE CODESIZE CALLDATACOPY CODECOPY CALLDATALOAD KECCAK256 CALLDATASIZE 0x2E ORIGIN ADDRESS ORIGIN CODECOPY CALLDATALOAD 0x2C 0x2D ORIGIN 0x2E CALLVALUE CODESIZE CALLDATACOPY CODECOPY CALLDATALOAD KECCAK256 ORIGIN 0x2E CALLDATALOAD CALLDATALOAD CALLDATALOAD CALLVALUE CODECOPY 0x2C ADDRESS KECCAK256 CALLDATASIZE 0x2E CODECOPY BALANCE ADDRESS CALLDATALOAD ORIGIN 0x2C 0x2D ORIGIN 0x2E ADDRESS CODESIZE CODECOPY CALLDATACOPY CODECOPY KECCAK256 CALLDATACOPY 0x2E BALANCE ADDRESS CALLDATACOPY CALLER CALLDATALOAD 0x2C 0x2D CALLER 0x2E CALLVALUE BALANCE ADDRESS CALLDATALOAD ORIGIN KECCAK256 ADDRESS 0x2E ADDRESS CODESIZE CODECOPY CALLER 0x2C 0x2D ADDRESS 0x2E CALLDATALOAD CODECOPY CODECOPY ORIGIN BALANCE KECCAK256 ADDRESS 0x2E ORIGIN ADDRESS BALANCE CODESIZE BALANCE 0x2C 0x2D ORIGIN 0x2E CALLDATASIZE CALLDATALOAD ORIGIN CALLDATACOPY ORIGIN KECCAK256 ADDRESS 0x2E ORIGIN CALLDATALOAD 0x2C 0x2D CALLVALUE 0x2E CALLDATALOAD CALLDATASIZE CALLER CALLER CALLDATASIZE KECCAK256 ADDRESS 0x2E ADDRESS CALLDATASIZE CODECOPY CODECOPY 0x2C 0x2D ORIGIN 0x2E CALLDATACOPY CALLDATASIZE CODECOPY CODECOPY CALLVALUE KECCAK256 ADDRESS 0x2E CALLDATASIZE CALLDATALOAD CALLER CALLDATASIZE CODECOPY 0x2C 0x2D CALLER 0x2E CALLDATACOPY CALLVALUE CALLDATACOPY CALLDATACOPY CALLVALUE KECCAK256 ORIGIN 0x2E CODESIZE CODESIZE BALANCE ADDRESS CODECOPY 0x2C 0x2D CALLVALUE 0x2E CODESIZE ORIGIN CALLDATALOAD CALLER CODECOPY KECCAK256 ORIGIN 0x2E ADDRESS CALLDATASIZE ADDRESS CALLDATALOAD CALLVALUE 0x2C 0x2D ADDRESS 0x2E CODECOPY CODECOPY CALLDATASIZE CODECOPY ORIGIN KECCAK256 ORIGIN 0x2E CALLDATASIZE CALLER CALLDATASIZE CALLER CALLER 0x2C 0x2D BALANCE 0x2E CODESIZE CALLVALUE CALLDATASIZE CALLDATALOAD CALLDATACOPY KECCAK256 ORIGIN 0x2E BALANCE CODECOPY CALLVALUE CALLDATASIZE 0x2C 0x2D CALLER 0x2E ORIGIN CALLER CODESIZE CALLER CALLDATALOAD KECCAK256 0x2D ADDRESS 0x2E CODESIZE BALANCE CALLDATALOAD CODESIZE CODECOPY 0x2C 0x2D ORIGIN 0x2E CALLDATALOAD CALLDATACOPY ADDRESS CALLDATASIZE CALLDATALOAD KECCAK256 BALANCE 0x2E BALANCE CALLDATASIZE ORIGIN ADDRESS CALLDATASIZE 0x2C 0x2D CALLDATALOAD 0x2E CODECOPY CALLDATASIZE ORIGIN CALLER CODESIZE KECCAK256 CALLER 0x2E CALLVALUE CALLDATACOPY CALLDATACOPY ADDRESS CODESIZE 0x2C 0x2D CALLDATALOAD 0x2E CODECOPY CALLDATASIZE ORIGIN CALLER CODESIZE KECCAK256 BALANCE 0x2E CALLER ORIGIN CALLDATALOAD ORIGIN ORIGIN 0x2C ADDRESS KECCAK256 CALLER 0x2E BALANCE CODECOPY ORIGIN CODESIZE CODESIZE 0x2C 0x2D ORIGIN 0x2E CALLER ORIGIN CODECOPY CALLDATALOAD CODECOPY KECCAK256 CALLDATASIZE 0x2E ORIGIN BALANCE CALLER ORIGIN CODESIZE 0x2C 0x2D CALLDATACOPY 0x2E CALLDATACOPY CALLDATALOAD KECCAK256 CALLVALUE 0x2E CODECOPY CODECOPY CALLVALUE ADDRESS CALLDATALOAD 0x2C 0x2D CALLDATACOPY 0x2E ORIGIN ORIGIN ADDRESS ORIGIN CODESIZE KECCAK256 CALLDATALOAD 0x2E CALLDATACOPY CODESIZE CALLDATACOPY CALLDATALOAD CALLDATALOAD 0x2C 0x2D BALANCE CALLDATACOPY 0x2E ORIGIN CALLER CODESIZE CALLER CALLVALUE KECCAK256 CODECOPY 0x2E CODESIZE CODECOPY CALLDATALOAD ORIGIN BALANCE 0x2C 0x2D ORIGIN CALLER 0x2E CALLDATALOAD CALLVALUE CALLDATACOPY CALLVALUE CALLVALUE KECCAK256 CALLDATALOAD 0x2E ADDRESS CODECOPY CODECOPY CALLDATALOAD CALLDATASIZE 0x2C 0x2D CALLDATACOPY 0x2E CALLDATASIZE CODECOPY CODESIZE CODECOPY CALLVALUE KECCAK256 ORIGIN 0x2E ORIGIN CALLDATALOAD ADDRESS CALLDATALOAD CALLER 0x2C 0x2D BALANCE ORIGIN 0x2E CALLDATASIZE CALLDATACOPY CALLDATACOPY CALLVALUE CALLVALUE KECCAK256 0x2D CALLVALUE 0x2E BALANCE CALLDATASIZE CALLDATALOAD CALLVALUE BALANCE 0x2C 0x2D CALLDATACOPY 0x2E ORIGIN CALLDATACOPY CODESIZE CALLDATACOPY CODESIZE KECCAK256 0x2D CALLER 0x2E CALLER CALLER CALLDATASIZE CODESIZE ORIGIN 0x2C ORIGIN 0x2E CODESIZE ADDRESS CALLDATACOPY CALLDATACOPY CALLVALUE KECCAK256 0x2D CALLDATALOAD 0x2E ADDRESS ADDRESS CALLDATACOPY CALLVALUE CALLDATALOAD 0x2C CALLER 0x2E BALANCE ORIGIN CODESIZE CALLDATASIZE CALLDATACOPY KECCAK256 0x2D CALLDATACOPY 0x2E CODECOPY CODESIZE CALLDATASIZE CALLDATASIZE CALLDATACOPY 0x2C BALANCE 0x2E CALLDATALOAD CALLER CALLVALUE ORIGIN CALLER KECCAK256 0x2D BALANCE 0x2E CALLDATALOAD ORIGIN CALLVALUE CALLDATASIZE 0x2C 0x2D ADDRESS 0x2E CODESIZE BALANCE CALLDATALOAD CODECOPY CALLVALUE KECCAK256 0x2D BALANCE 0x2E CALLDATACOPY CALLER ADDRESS CALLVALUE CALLER 0x2C 0x2D BALANCE 0x2E CALLVALUE CALLVALUE CALLDATASIZE CALLDATASIZE BALANCE KECCAK256 0x2D ADDRESS 0x2E CODECOPY CALLVALUE CODESIZE CALLDATACOPY CODESIZE 0x2C 0x2D ORIGIN 0x2E CODECOPY ADDRESS CALLDATACOPY BALANCE CALLVALUE KECCAK256 ADDRESS 0x2E ORIGIN ADDRESS ORIGIN CODESIZE CALLDATASIZE 0x2C 0x2D CODECOPY 0x2E CODECOPY CALLDATASIZE BALANCE CALLDATACOPY CALLDATACOPY KECCAK256 0x2D CODESIZE 0x2E ORIGIN CALLDATASIZE ORIGIN 0x2C 0x2D BALANCE 0x2E ORIGIN CALLDATASIZE CALLDATASIZE ADDRESS CALLDATALOAD KECCAK256 0x2D CODESIZE 0x2E CODECOPY ADDRESS ADDRESS ADDRESS CALLDATACOPY 0x2C 0x2D ORIGIN 0x2E ADDRESS CALLER ADDRESS CALLDATALOAD BALANCE KECCAK256 0x2D ADDRESS 0x2E CALLDATALOAD CALLER CALLDATASIZE ADDRESS ORIGIN 0x2C 0x2D ADDRESS 0x2E CODESIZE BALANCE CALLER CODESIZE KECCAK256 0x2D ORIGIN 0x2E CALLER CALLER CODECOPY ADDRESS CODECOPY 0x2C 0x2D BALANCE 0x2E CALLDATALOAD CALLVALUE CODESIZE ORIGIN CALLDATASIZE KECCAK256 0x2D CALLVALUE 0x2E ADDRESS ADDRESS CALLDATASIZE CODESIZE ORIGIN 0x2C 0x2D BALANCE 0x2E CALLDATASIZE CALLER ORIGIN BALANCE CALLER KECCAK256 0x2D ORIGIN 0x2E CODECOPY CALLDATASIZE CALLDATALOAD CALLER ORIGIN 0x2C 0x2D ADDRESS 0x2E BALANCE CALLVALUE CODECOPY BALANCE CALLVALUE KECCAK256 0x2D CALLER 0x2E ADDRESS CALLER BALANCE CALLDATASIZE CALLDATASIZE 0x2C 0x2D ADDRESS 0x2E ADDRESS CALLDATALOAD ADDRESS CALLER KECCAK256 0x2D CALLER 0x2E ADDRESS ADDRESS CALLDATASIZE ADDRESS CODESIZE 0x2C CALLVALUE 0x2E CALLVALUE CALLDATACOPY CODECOPY CALLDATASIZE CALLER KECCAK256 ADDRESS 0x2E ADDRESS BALANCE CALLVALUE CALLVALUE 0x2C ORIGIN 0x2E CALLDATALOAD CALLVALUE CALLDATACOPY CALLDATASIZE CODESIZE KECCAK256 0x2D ADDRESS 0x2E ADDRESS CODESIZE CALLDATALOAD 0x2C CALLDATALOAD 0x2E CALLDATACOPY CALLDATALOAD CALLDATACOPY BALANCE CALLVALUE KECCAK256 0x2D ADDRESS 0x2E ORIGIN ORIGIN ADDRESS CODESIZE CALLVALUE 0x2C CALLDATACOPY 0x2E BALANCE CALLER ORIGIN BALANCE CALLVALUE KECCAK256 0x2D ADDRESS 0x2E BALANCE CALLER CALLDATALOAD CODESIZE CALLDATALOAD 0x2C BALANCE 0x2E CALLER CALLDATACOPY CALLDATALOAD KECCAK256 ADDRESS 0x2E ADDRESS CODECOPY ORIGIN ORIGIN 0x2C CALLDATALOAD 0x2E CALLER BALANCE CALLER ORIGIN KECCAK256 ADDRESS 0x2E CALLDATALOAD ADDRESS CALLDATASIZE CODESIZE CALLDATALOAD 0x2C CODESIZE 0x2E CALLDATACOPY CALLDATALOAD BALANCE CALLDATALOAD CALLDATASIZE KECCAK256 ADDRESS 0x2E CALLDATACOPY ADDRESS CODECOPY CODECOPY BALANCE 0x2C CALLDATALOAD 0x2E CODESIZE CODESIZE CALLDATACOPY BALANCE ORIGIN KECCAK256 ADDRESS 0x2E CALLDATASIZE ADDRESS CALLDATALOAD ORIGIN BALANCE 0x2C CALLDATASIZE 0x2E CALLER CODESIZE CODECOPY CALLER CALLER KECCAK256 0x2D BALANCE 0x2E CALLDATACOPY CODECOPY CALLDATALOAD CODECOPY CODESIZE 0x2C CODESIZE 0x2E CALLDATASIZE BALANCE CALLVALUE CALLDATASIZE CODESIZE KECCAK256 0x2D CALLDATACOPY 0x2E CALLER CALLDATACOPY ORIGIN CALLDATALOAD CALLER 0x2C CODESIZE 0x2E BALANCE CODECOPY CODESIZE CALLDATASIZE ORIGIN KECCAK256 CODESIZE 0x2E ADDRESS CALLDATACOPY BALANCE CALLVALUE BALANCE 0x2C CALLDATACOPY 0x2E CALLDATALOAD ORIGIN CALLER CALLVALUE CODECOPY KECCAK256 CODESIZE 0x2E CALLVALUE CALLDATALOAD ADDRESS BALANCE CALLDATACOPY 0x2C BALANCE CALLVALUE 0x2E ORIGIN ADDRESS CALLDATASIZE CALLER CALLVALUE KECCAK256 ADDRESS 0x2C CALLER 0x2E ORIGIN BALANCE CALLVALUE CODECOPY CODESIZE KECCAK256 0x2D BALANCE 0x2E CALLDATALOAD BALANCE CODESIZE BALANCE CALLVALUE 0x2C CALLER 0x2E ADDRESS CALLDATASIZE CALLER BALANCE ORIGIN KECCAK256 0x2D CALLDATALOAD 0x2E ADDRESS CODECOPY ADDRESS CALLVALUE CALLDATALOAD 0x2C 0x2D ADDRESS 0x2E CALLDATALOAD ADDRESS CODECOPY BALANCE CODESIZE KECCAK256 0x2D BALANCE 0x2E CALLDATASIZE BALANCE CALLDATALOAD BALANCE CALLER 0x2C 0x2D BALANCE 0x2E CALLDATASIZE BALANCE CALLDATALOAD BALANCE CALLER KECCAK256 0x2D CALLVALUE 0x2E CODECOPY CALLDATASIZE CODESIZE CALLDATASIZE 0x2C 0x2D CALLER 0x2E CODECOPY CALLDATALOAD BALANCE CALLVALUE CALLER KECCAK256 0x2D CALLDATACOPY 0x2E CALLVALUE CALLDATALOAD ORIGIN BALANCE CALLDATASIZE 0x2C 0x2D CALLDATALOAD 0x2E BALANCE CODECOPY BALANCE CALLDATACOPY CODESIZE KECCAK256 0x2D CALLER 0x2E BALANCE CALLER ORIGIN CALLDATALOAD CALLER 0x2C 0x2D BALANCE 0x2E CALLDATALOAD CALLDATASIZE CALLVALUE CALLVALUE CALLDATASIZE KECCAK256 0x2D CALLVALUE 0x2E CALLDATASIZE CODESIZE CALLDATALOAD CALLER CALLDATACOPY 0x2C 0x2D CALLER 0x2E ADDRESS CALLER CODESIZE CALLDATACOPY BALANCE KECCAK256 0x2D CALLDATALOAD 0x2E ADDRESS CALLDATASIZE CODECOPY CODECOPY CODECOPY 0x2C 0x2D CALLVALUE 0x2E CODESIZE BALANCE CALLER CALLVALUE KECCAK256 0x2D CALLVALUE 0x2E CALLDATALOAD CALLDATALOAD ADDRESS BALANCE 0x2C 0x2D CALLDATACOPY 0x2E CALLDATALOAD CALLDATALOAD CALLDATASIZE CALLDATALOAD CALLDATALOAD KECCAK256 0x2D CALLVALUE 0x2E CALLDATALOAD ORIGIN CALLDATALOAD CALLDATASIZE CODECOPY 0x2C 0x2D CALLDATALOAD 0x2E CALLDATACOPY CALLDATACOPY CALLDATASIZE CALLDATASIZE CALLDATASIZE KECCAK256 0x2D CALLER 0x2E CODECOPY CODESIZE CALLVALUE BALANCE ORIGIN 0x2C 0x2D BALANCE CALLDATALOAD 0x2E ADDRESS CALLDATALOAD CODESIZE ORIGIN ORIGIN KECCAK256 ADDRESS 0x2E CALLER CODECOPY CODESIZE CALLVALUE CALLDATALOAD 0x2C 0x2D CALLDATACOPY 0x2E BALANCE CODECOPY CALLDATASIZE CALLDATASIZE CODESIZE KECCAK256 CALLDATALOAD 0x2E CODECOPY CALLDATASIZE ORIGIN ORIGIN CODESIZE 0x2C 0x2D ORIGIN ADDRESS 0x2E CALLVALUE CALLDATACOPY BALANCE ADDRESS CALLDATASIZE KECCAK256 CODECOPY 0x2E CALLDATACOPY CALLDATALOAD CALLDATALOAD CODESIZE 0x2C 0x2D ORIGIN CALLER 0x2E ORIGIN CALLDATACOPY CALLDATALOAD CALLDATACOPY CALLVALUE KECCAK256 ORIGIN 0x2E ADDRESS CALLDATACOPY ADDRESS CODESIZE CALLDATALOAD 0x2C 0x2D BALANCE 0x2E CALLDATALOAD CALLER BALANCE ADDRESS CALLDATALOAD KECCAK256 ORIGIN 0x2E CALLDATASIZE CALLVALUE CODECOPY CALLDATALOAD ORIGIN 0x2C 0x2D ORIGIN 0x2E CALLDATASIZE CALLER CODESIZE CALLDATASIZE CODESIZE KECCAK256 ORIGIN 0x2E ORIGIN CALLER CALLDATACOPY ADDRESS CODESIZE 0x2C 0x2D CALLVALUE 0x2E ORIGIN CODESIZE BALANCE CODECOPY CALLDATACOPY KECCAK256 0x2D ADDRESS 0x2E CODESIZE CALLDATASIZE CODECOPY CALLDATALOAD CODECOPY 0x2C 0x2D CALLER 0x2E CALLVALUE CALLDATASIZE CALLVALUE CALLDATACOPY ORIGIN KECCAK256 ORIGIN 0x2E CODESIZE CALLDATASIZE BALANCE ORIGIN CODESIZE 0x2C 0x2D CALLDATALOAD 0x2E CALLVALUE CALLVALUE ORIGIN CALLER KECCAK256 BALANCE ADDRESS 0x2E ORIGIN CALLDATASIZE CALLDATACOPY CALLER CALLER 0x2C 0x2D CALLDATALOAD 0x2E CALLVALUE CALLVALUE ORIGIN CALLER KECCAK256 CALLDATASIZE 0x2E CODECOPY ADDRESS CALLDATACOPY BALANCE CODECOPY 0x2C 0x2D ADDRESS 0x2E ORIGIN ORIGIN ADDRESS CALLDATASIZE CODESIZE KECCAK256 BALANCE BALANCE 0x2E ADDRESS CODECOPY CALLDATACOPY CALLVALUE CALLVALUE 0x2C 0x2D BALANCE ADDRESS 0x2E CALLDATACOPY CALLDATACOPY CODESIZE CODECOPY CALLDATALOAD KECCAK256 BALANCE BALANCE 0x2E CALLER CALLER CALLDATASIZE CALLDATALOAD BALANCE 0x2C 0x2D BALANCE CALLVALUE 0x2E CALLDATALOAD CALLDATASIZE ADDRESS CODESIZE CALLDATASIZE KECCAK256 ADDRESS 0x2C 0x2D BALANCE 0x2E CODECOPY CALLER ADDRESS ORIGIN CALLER KECCAK256 0x2D ADDRESS 0x2E CALLDATACOPY CALLDATACOPY CODESIZE CALLDATACOPY CALLDATASIZE 0x2C 0x2D CALLVALUE 0x2E CALLDATASIZE CODECOPY CODESIZE ADDRESS CALLVALUE ORIGIN KECCAK256 0x2D BALANCE 0x2E CALLDATACOPY CALLER ADDRESS CALLDATALOAD CALLDATACOPY 0x2C 0x2D CALLDATASIZE 0x2E BALANCE CALLDATALOAD ADDRESS CALLDATASIZE CODECOPY CALLDATASIZE KECCAK256 0x2D BALANCE 0x2E BALANCE CODESIZE CALLER CALLER CALLDATALOAD 0x2C 0x2D BALANCE 0x2E CODESIZE ADDRESS CALLDATASIZE ADDRESS ORIGIN KECCAK256 0x2D BALANCE 0x2E CALLDATACOPY CALLER CALLDATASIZE CALLDATACOPY ORIGIN 0x2C 0x2D CALLVALUE 0x2E CALLDATASIZE CODESIZE CALLDATACOPY CODECOPY CALLDATACOPY BALANCE KECCAK256 0x2D BALANCE 0x2E CALLDATACOPY CALLDATALOAD 0x2C 0x2D CODECOPY 0x2E BALANCE BALANCE CALLVALUE ADDRESS CALLDATALOAD ORIGIN KECCAK256 0x2D ADDRESS 0x2E ADDRESS ORIGIN CALLER CALLDATACOPY 0x2C 0x2D CALLDATACOPY 0x2E CODESIZE CALLDATACOPY CALLDATACOPY CALLER CALLDATACOPY CALLDATACOPY KECCAK256 0x2D ADDRESS 0x2E BALANCE CODECOPY CALLDATASIZE BALANCE CALLDATALOAD 0x2C 0x2D CALLDATACOPY 0x2E CODECOPY CODESIZE BALANCE CALLDATALOAD CALLVALUE CALLDATALOAD KECCAK256 0x2D BALANCE CALLER 0x2E CALLDATALOAD BALANCE CODECOPY CALLVALUE CALLER 0x2C 0x2D CODESIZE 0x2E BALANCE CALLDATASIZE CALLER CALLDATACOPY BALANCE CODESIZE KECCAK256 0x2D CALLDATALOAD 0x2E ORIGIN ORIGIN CALLDATALOAD 0x2C 0x2D ADDRESS 0x2E ADDRESS CALLDATACOPY BALANCE CALLVALUE CALLVALUE KECCAK256 0x2D BALANCE BALANCE 0x2E CALLDATASIZE CALLER CODECOPY BALANCE 0x2C 0x2D ADDRESS 0x2E CALLVALUE CODESIZE BALANCE CODECOPY CALLDATACOPY CALLER KECCAK256 0x2D BALANCE CALLVALUE 0x2E ORIGIN CALLDATALOAD CALLER CALLDATALOAD CALLDATALOAD 0x2C 0x2D ADDRESS 0x2E CODECOPY BALANCE ORIGIN ORIGIN CODESIZE CODECOPY KECCAK256 0x2D CODESIZE 0x2E CALLER BALANCE CALLDATASIZE BALANCE CALLER 0x2C 0x2D BALANCE 0x2E CALLER CALLDATASIZE CODESIZE CALLDATACOPY CALLDATASIZE BALANCE KECCAK256 0x2D BALANCE BALANCE 0x2E CALLDATASIZE CODESIZE CODESIZE CODESIZE CODECOPY 0x2C 0x2D ADDRESS 0x2E ORIGIN ORIGIN CALLVALUE CALLER CODECOPY CALLVALUE KECCAK256 0x2D BALANCE CALLDATALOAD 0x2E CODECOPY CALLDATALOAD CALLVALUE BALANCE CALLER 0x2C CALLDATALOAD 0x2E CALLVALUE BALANCE CALLER BALANCE CALLDATACOPY CODECOPY KECCAK256 0x2D CALLDATALOAD 0x2E BALANCE CALLER CALLDATACOPY CODESIZE BALANCE 0x2C CALLDATASIZE 0x2E CALLDATACOPY CODECOPY ADDRESS CODESIZE CODECOPY ORIGIN KECCAK256 0x2D CODESIZE 0x2E CODECOPY CALLER CALLDATACOPY CALLDATALOAD 0x2C BALANCE CALLDATASIZE 0x2E CALLDATALOAD CODESIZE ORIGIN CALLDATALOAD CALLDATACOPY CALLDATASIZE KECCAK256 0x2D CODECOPY 0x2E CALLDATALOAD CALLVALUE BALANCE CALLDATALOAD CODESIZE 0x2C ORIGIN CALLVALUE 0x2E CALLDATALOAD CODESIZE CODESIZE CALLER CALLER CALLDATASIZE KECCAK256 0x2D ADDRESS 0x2E CALLDATACOPY BALANCE CALLDATASIZE CODESIZE CALLDATALOAD 0x2C CALLDATACOPY 0x2E CALLDATASIZE CODESIZE ADDRESS ORIGIN CALLDATASIZE KECCAK256 0x2D BALANCE 0x2E CALLDATASIZE CALLDATASIZE CALLDATALOAD CODESIZE CODECOPY 0x2C CALLDATASIZE 0x2E CALLVALUE CODECOPY CALLVALUE KECCAK256 CALLDATALOAD 0x2E CALLDATASIZE CALLDATASIZE BALANCE CALLER CODESIZE 0x2C CALLDATACOPY 0x2E BALANCE CALLDATALOAD CODESIZE CALLVALUE BALANCE KECCAK256 CALLDATALOAD 0x2E CODECOPY CALLDATALOAD ADDRESS CALLVALUE 0x2C ADDRESS 0x2E CALLDATALOAD CALLER CODECOPY CALLDATALOAD CALLDATACOPY KECCAK256 BALANCE BALANCE 0x2E ADDRESS CODESIZE CALLDATACOPY CODESIZE CODESIZE 0x2C ORIGIN 0x2E CALLDATACOPY CALLVALUE CALLDATACOPY ORIGIN CALLDATACOPY KECCAK256 BALANCE BALANCE 0x2E ADDRESS CODESIZE CALLDATACOPY CODESIZE CODESIZE 0x2C CALLVALUE 0x2E CALLDATACOPY CALLDATASIZE CALLVALUE CALLDATACOPY CALLVALUE KECCAK256 ADDRESS 0x2C ADDRESS 0x2E CALLDATALOAD CALLER CALLDATACOPY CALLER ORIGIN KECCAK256 0x2D ORIGIN 0x2E CODECOPY CALLDATALOAD CALLVALUE CALLDATALOAD CODESIZE 0x2C ADDRESS 0x2E CODECOPY CALLDATACOPY CALLDATASIZE CODECOPY CALLDATALOAD KECCAK256 0x2D CALLDATASIZE 0x2E CALLDATALOAD CALLDATASIZE CALLDATALOAD CALLDATACOPY CALLVALUE 0x2C ADDRESS 0x2E CODECOPY CALLDATACOPY CALLDATASIZE CODECOPY CALLDATALOAD KECCAK256 0x2D CALLER 0x2E CALLDATASIZE BALANCE BALANCE BALANCE CALLDATASIZE 0x2C ADDRESS KECCAK256 0x2D CALLDATACOPY 0x2E CALLVALUE BALANCE CALLDATASIZE CALLVALUE CALLDATACOPY 0x2C ADDRESS 0x2E CALLVALUE CALLDATALOAD CALLDATALOAD ORIGIN CODECOPY KECCAK256 0x2D CODESIZE 0x2E CALLVALUE CALLDATALOAD CALLDATASIZE ORIGIN CALLDATALOAD 0x2C BALANCE 0x2E ADDRESS BALANCE BALANCE CALLDATACOPY CALLDATACOPY KECCAK256 0x2D ORIGIN 0x2E CALLDATALOAD CODECOPY CALLDATACOPY CALLDATASIZE CALLVALUE 0x2C BALANCE 0x2E CALLER CODECOPY ADDRESS ORIGIN BALANCE KECCAK256 0x2D CALLER 0x2E CODECOPY CALLER BALANCE CALLDATALOAD CALLER 0x2C CALLDATASIZE 0x2E CALLDATACOPY ADDRESS ADDRESS CODECOPY CALLER KECCAK256 0x2D CALLVALUE 0x2E CALLDATASIZE CALLVALUE CALLER CALLDATACOPY BALANCE 0x2C BALANCE CODESIZE 0x2E CALLVALUE CODESIZE CODESIZE ORIGIN CALLVALUE KECCAK256 0x2D ADDRESS 0x2E CALLDATALOAD ADDRESS CODECOPY CALLDATASIZE CALLDATASIZE 0x2C CODESIZE 0x2E CALLVALUE CALLER CALLDATALOAD ORIGIN CALLDATASIZE KECCAK256 0x2D ADDRESS 0x2E BALANCE CODESIZE ADDRESS CALLDATASIZE CALLER 0x2C BALANCE ORIGIN 0x2E BALANCE CODECOPY ADDRESS CALLDATASIZE CALLVALUE KECCAK256 ORIGIN 0x2E BALANCE ADDRESS ORIGIN CALLDATACOPY ORIGIN 0x2C ORIGIN CALLVALUE KECCAK256 BALANCE 0x2E CALLVALUE CODESIZE CODESIZE CODESIZE BALANCE 0x2C CALLDATACOPY 0x2E CALLDATACOPY KECCAK256 CALLER 0x2E CALLVALUE CODECOPY BALANCE CALLDATASIZE CALLER 0x2C BALANCE CALLDATALOAD 0x2E CODESIZE KECCAK256 CALLVALUE 0x2E CALLVALUE CALLDATALOAD ADDRESS CALLDATACOPY BALANCE 0x2C BALANCE CODESIZE KECCAK256 ADDRESS 0x2E CODECOPY CALLDATALOAD CODECOPY ADDRESS CODESIZE 0x2C ORIGIN 0x2E ORIGIN KECCAK256 ORIGIN 0x2E CALLER ORIGIN CALLER ADDRESS CALLVALUE 0x2C CALLDATASIZE 0x2E ADDRESS CODECOPY CALLVALUE BALANCE CALLVALUE KECCAK256 CALLER 0x2E ADDRESS CALLER BALANCE ADDRESS BALANCE 0x2C CODESIZE 0x2E CALLDATASIZE CALLDATALOAD CALLER CALLDATASIZE CALLDATALOAD KECCAK256 BALANCE 0x2E CALLDATALOAD ORIGIN ADDRESS CALLDATACOPY CALLER 0x2C CALLDATALOAD 0x2E CALLVALUE CODECOPY CALLDATACOPY CODESIZE KECCAK256 CALLDATASIZE 0x2E ORIGIN CODECOPY ORIGIN ORIGIN CODESIZE 0x2C BALANCE ADDRESS 0x2E CALLDATALOAD BALANCE ORIGIN CODESIZE CALLER KECCAK256 BALANCE ADDRESS 0x2E CALLDATALOAD CODESIZE BALANCE ORIGIN CALLDATASIZE 0x2C BALANCE BALANCE 0x2E BALANCE ORIGIN BALANCE BALANCE CALLDATACOPY KECCAK256 CALLDATALOAD 0x2E CODECOPY CALLER CALLDATACOPY BALANCE ORIGIN 0x2C ADDRESS 0x2E CODESIZE CALLVALUE ORIGIN BALANCE BALANCE KECCAK256 CALLDATACOPY 0x2E ADDRESS CALLDATASIZE CALLER CALLVALUE CALLVALUE 0x2C ADDRESS 0x2E CALLDATASIZE CALLDATASIZE CALLVALUE CODESIZE ORIGIN KECCAK256 BALANCE BALANCE 0x2E CALLER CALLDATALOAD ORIGIN ADDRESS CALLDATACOPY 0x2C 0x2D BALANCE 0x2E CALLDATACOPY CODESIZE CALLDATASIZE CODESIZE CALLDATACOPY KECCAK256 PUSH27 0x206D202D312E34333234332C2D31392E39353231322063202D302E CALLDATALOAD CALLDATASIZE CALLVALUE CALLVALUE CALLDATASIZE 0x2C 0x2D ORIGIN 0x2E CALLDATACOPY BALANCE CALLER CALLVALUE CALLDATASIZE KECCAK256 0x2D CALLER 0x2E CALLDATACOPY CALLDATALOAD CALLVALUE BALANCE CALLER 0x2C 0x2D CALLER 0x2E ADDRESS CALLVALUE CALLDATASIZE CALLDATALOAD CALLDATASIZE KECCAK256 0x2D CALLVALUE 0x2E CALLVALUE BALANCE CODECOPY CALLDATASIZE CALLVALUE 0x2C 0x2D CALLDATALOAD 0x2E ORIGIN CALLER BALANCE ADDRESS CALLER KECCAK256 ORIGIN 0x2E CALLER CODESIZE CODECOPY CALLVALUE CALLDATASIZE 0x2C 0x2D ORIGIN 0x2E CALLVALUE ADDRESS CALLDATASIZE ADDRESS ORIGIN KECCAK256 CALLDATASIZE 0x2E CODESIZE CALLDATALOAD CODESIZE CODECOPY CALLDATALOAD 0x2C 0x2D ADDRESS 0x2E CALLDATACOPY CALLER ORIGIN CODECOPY KECCAK256 BALANCE ADDRESS 0x2E CALLVALUE CALLDATASIZE CALLDATACOPY CALLVALUE CALLDATACOPY 0x2C ADDRESS 0x2E CODESIZE CALLDATASIZE ORIGIN CALLER CALLER KECCAK256 CALLDATASIZE 0x2E ADDRESS CODECOPY CALLDATASIZE CALLER CALLDATALOAD 0x2C CALLDATALOAD 0x2E ADDRESS CALLDATACOPY CALLDATASIZE CALLDATACOPY CALLDATACOPY KECCAK256 0x2D CALLVALUE 0x2E CALLVALUE CODECOPY ORIGIN CALLDATALOAD CALLDATASIZE 0x2C BALANCE ADDRESS 0x2E ORIGIN CALLER BALANCE CALLVALUE BALANCE KECCAK256 0x2D CALLDATASIZE 0x2E ADDRESS CALLVALUE CALLDATACOPY CODESIZE CALLER 0x2C CALLVALUE 0x2E CALLER CALLDATASIZE CODESIZE CALLDATACOPY KECCAK256 PUSH27 0x204D203137302E30393833322C3133302E37303035392043203136 CALLDATALOAD 0x2E ORIGIN CALLDATALOAD CALLDATALOAD ORIGIN ORIGIN 0x2C BALANCE ORIGIN CODESIZE 0x2E CALLDATACOPY CODESIZE CALLDATASIZE CODESIZE CALLVALUE KECCAK256 BALANCE CALLDATASIZE CALLDATACOPY 0x2E ADDRESS ORIGIN CALLDATALOAD CALLDATASIZE CALLER 0x2C BALANCE ORIGIN CALLDATALOAD KECCAK256 BALANCE CALLDATACOPY ORIGIN 0x2E CALLDATACOPY CALLDATASIZE CALLER CALLVALUE CALLVALUE 0x2C BALANCE ORIGIN CALLDATALOAD KECCAK256 PUSH4 0x20332E31 CALLVALUE ADDRESS CALLDATACOPY CALLER 0x2C ADDRESS KECCAK256 CALLER 0x2E CALLDATALOAD CALLDATACOPY CALLER CALLER CALLER 0x2C ADDRESS 0x2E CALLDATACOPY CALLER CALLVALUE CALLDATASIZE CODESIZE KECCAK256 ORIGIN 0x2E CALLVALUE ADDRESS CALLDATALOAD CALLVALUE 0x2C CALLVALUE 0x2E ADDRESS CODESIZE CALLDATALOAD ADDRESS ORIGIN KECCAK256 0x2D BALANCE 0x2E BALANCE BALANCE BALANCE CALLDATACOPY CODECOPY 0x2C CALLER 0x2E BALANCE CODESIZE CODECOPY ORIGIN CODESIZE KECCAK256 0x2D BALANCE 0x2E ADDRESS CODECOPY CODESIZE CALLDATALOAD CODECOPY 0x2C CALLER 0x2E BALANCE CODESIZE CALLDATALOAD ADDRESS CODESIZE KECCAK256 0x2D CALLDATALOAD 0x2E ADDRESS CALLDATACOPY ADDRESS CALLDATALOAD ORIGIN 0x2C BALANCE 0x2E CALLDATASIZE BALANCE CALLDATALOAD CALLDATALOAD CALLDATACOPY KECCAK256 PUSH27 0x206D2034392E37352C2D332E37303035382063202D312E36313435 BALANCE 0x2C 0x2D BALANCE 0x2E CALLER CALLER CODESIZE CODESIZE CALLER KECCAK256 0x2D BALANCE ADDRESS 0x2E CALLER CALLER CALLDATASIZE CODESIZE CODECOPY 0x2C 0x2D BALANCE 0x2E ORIGIN CALLVALUE CALLDATASIZE CALLDATASIZE BALANCE KECCAK256 0x2D CODESIZE 0x2E CALLDATALOAD 0x2C ADDRESS KECCAK256 ORIGIN 0x2E ADDRESS BALANCE BALANCE BALANCE CALLDATACOPY 0x2C BALANCE 0x2E ORIGIN CODECOPY CODECOPY CALLDATACOPY BALANCE KECCAK256 CODECOPY 0x2E CALLER ADDRESS CALLER ORIGIN CALLDATACOPY 0x2C BALANCE 0x2E ORIGIN CODECOPY CODECOPY CALLDATACOPY BALANCE KECCAK256 CODESIZE 0x2E CALLDATALOAD 0x2C ADDRESS KECCAK256 PUSH27 0x22207472616E73666F726D3D227472616E736C6174652830203130 0x29 0x22 0x2F RETURNDATACOPY "
				},
				"gasEstimates": {
					"creation": {
						"codeDepositCost": "111600",
						"executionCost": "infinite",
						"totalCost": "infinite"
					},
					"external": {
						"svg()": "infinite"
					}
				},
				"methodIdentifiers": {
					"svg()": "bd85f55f"
				}
			},
			"userdoc": {
				"kind": "user",
				"methods": {},
				"version": 1
			}
		}
	}
}