{
	"SVG-MVP_football_ERC1155/contracts/getPlayerSvg.sol": {
		"getPlayerSvg": {
			"abi": [
				{
					"inputs": [
						{
							"internalType": "address",
							"name": "_AndyPelmard",
							"type": "address"
						},
						{
							"internalType": "address",
							"name": "_LiamMillar",
							"type": "address"
						},
						{
							"internalType": "address",
							"name": "_NoahKatterbach",
							"type": "address"
						},
						{
							"internalType": "address",
							"name": "_PajtimKasami",
							"type": "address"
						},
						{
							"internalType": "address",
							"name": "_HeinzLindner",
							"type": "address"
						}
					],
					"stateMutability": "nonpayable",
					"type": "constructor"
				},
				{
					"inputs": [
						{
							"internalType": "uint256",
							"name": "gameplay",
							"type": "uint256"
						},
						{
							"internalType": "uint256",
							"name": "numberOfGames",
							"type": "uint256"
						},
						{
							"internalType": "uint256",
							"name": "goals",
							"type": "uint256"
						},
						{
							"internalType": "string",
							"name": "name",
							"type": "string"
						},
						{
							"internalType": "string",
							"name": "position",
							"type": "string"
						},
						{
							"internalType": "uint256",
							"name": "level",
							"type": "uint256"
						}
					],
					"name": "getSVG",
					"outputs": [
						{
							"internalType": "string",
							"name": "svg",
							"type": "string"
						}
					],
					"stateMutability": "view",
					"type": "function"
				}
			],
			"devdoc": {
				"kind": "dev",
				"methods": {},
				"version": 1
			},
			"evm": {
				"assembly": "    /* \"SVG-MVP_football_ERC1155/contracts/getPlayerSvg.sol\":134:7637  contract getPlayerSvg {... */\n  mstore(0x40, 0x80)\n    /* \"SVG-MVP_football_ERC1155/contracts/getPlayerSvg.sol\":371:974  constructor(address _AndyPelmard, address _LiamMillar, address _NoahKatterbach, address _PajtimKasami, address _HeinzLindner) {... */\n  callvalue\n  dup1\n  iszero\n  tag_1\n  jumpi\n  0x00\n  dup1\n  revert\ntag_1:\n  pop\n  mload(0x40)\n  sub(codesize, bytecodeSize)\n  dup1\n  bytecodeSize\n  dup4\n  codecopy\n  dup2\n  dup2\n  add\n  0x40\n  mstore\n  dup2\n  add\n  swap1\n  tag_2\n  swap2\n  swap1\n  tag_3\n  jump\t// in\ntag_2:\n    /* \"SVG-MVP_football_ERC1155/contracts/getPlayerSvg.sol\":531:543  _AndyPelmard */\n  dup5\n    /* \"SVG-MVP_football_ERC1155/contracts/getPlayerSvg.sol\":505:516  andyPelmard */\n  0x00\n  dup1\n    /* \"SVG-MVP_football_ERC1155/contracts/getPlayerSvg.sol\":505:544  andyPelmard = AndyPelmard(_AndyPelmard) */\n  0x0100\n  exp\n  dup2\n  sload\n  dup2\n  0xffffffffffffffffffffffffffffffffffffffff\n  mul\n  not\n  and\n  swap1\n  dup4\n  0xffffffffffffffffffffffffffffffffffffffff\n  and\n  mul\n  or\n  swap1\n  sstore\n  pop\n    /* \"SVG-MVP_football_ERC1155/contracts/getPlayerSvg.sol\":621:632  _LiamMillar */\n  dup4\n    /* \"SVG-MVP_football_ERC1155/contracts/getPlayerSvg.sol\":597:607  liamMillar */\n  0x01\n  0x00\n    /* \"SVG-MVP_football_ERC1155/contracts/getPlayerSvg.sol\":597:633  liamMillar = LiamMillar(_LiamMillar) */\n  0x0100\n  exp\n  dup2\n  sload\n  dup2\n  0xffffffffffffffffffffffffffffffffffffffff\n  mul\n  not\n  and\n  swap1\n  dup4\n  0xffffffffffffffffffffffffffffffffffffffff\n  and\n  mul\n  or\n  swap1\n  sstore\n  pop\n    /* \"SVG-MVP_football_ERC1155/contracts/getPlayerSvg.sol\":718:733  _NoahKatterbach */\n  dup3\n    /* \"SVG-MVP_football_ERC1155/contracts/getPlayerSvg.sol\":686:700  noahKatterbach */\n  0x02\n  0x00\n    /* \"SVG-MVP_football_ERC1155/contracts/getPlayerSvg.sol\":686:734  noahKatterbach = NoahKatterbach(_NoahKatterbach) */\n  0x0100\n  exp\n  dup2\n  sload\n  dup2\n  0xffffffffffffffffffffffffffffffffffffffff\n  mul\n  not\n  and\n  swap1\n  dup4\n  0xffffffffffffffffffffffffffffffffffffffff\n  and\n  mul\n  or\n  swap1\n  sstore\n  pop\n    /* \"SVG-MVP_football_ERC1155/contracts/getPlayerSvg.sol\":815:828  _PajtimKasami */\n  dup2\n    /* \"SVG-MVP_football_ERC1155/contracts/getPlayerSvg.sol\":787:799  pajtimKasami */\n  0x03\n  0x00\n    /* \"SVG-MVP_football_ERC1155/contracts/getPlayerSvg.sol\":787:829  pajtimKasami = PajtimKasami(_PajtimKasami) */\n  0x0100\n  exp\n  dup2\n  sload\n  dup2\n  0xffffffffffffffffffffffffffffffffffffffff\n  mul\n  not\n  and\n  swap1\n  dup4\n  0xffffffffffffffffffffffffffffffffffffffff\n  and\n  mul\n  or\n  swap1\n  sstore\n  pop\n    /* \"SVG-MVP_football_ERC1155/contracts/getPlayerSvg.sol\":910:923  _HeinzLindner */\n  dup1\n    /* \"SVG-MVP_football_ERC1155/contracts/getPlayerSvg.sol\":882:894  heinzLindner */\n  0x04\n  0x00\n    /* \"SVG-MVP_football_ERC1155/contracts/getPlayerSvg.sol\":882:924  heinzLindner = HeinzLindner(_HeinzLindner) */\n  0x0100\n  exp\n  dup2\n  sload\n  dup2\n  0xffffffffffffffffffffffffffffffffffffffff\n  mul\n  not\n  and\n  swap1\n  dup4\n  0xffffffffffffffffffffffffffffffffffffffff\n  and\n  mul\n  or\n  swap1\n  sstore\n  pop\n    /* \"SVG-MVP_football_ERC1155/contracts/getPlayerSvg.sol\":371:974  constructor(address _AndyPelmard, address _LiamMillar, address _NoahKatterbach, address _PajtimKasami, address _HeinzLindner) {... */\n  pop\n  pop\n  pop\n  pop\n  pop\n    /* \"SVG-MVP_football_ERC1155/contracts/getPlayerSvg.sol\":134:7637  contract getPlayerSvg {... */\n  jump(tag_6)\n    /* \"#utility.yul\":7:150   */\ntag_8:\n    /* \"#utility.yul\":64:69   */\n  0x00\n    /* \"#utility.yul\":95:101   */\n  dup2\n    /* \"#utility.yul\":89:102   */\n  mload\n    /* \"#utility.yul\":80:102   */\n  swap1\n  pop\n    /* \"#utility.yul\":111:144   */\n  tag_10\n    /* \"#utility.yul\":138:143   */\n  dup2\n    /* \"#utility.yul\":111:144   */\n  tag_11\n  jump\t// in\ntag_10:\n    /* \"#utility.yul\":7:150   */\n  swap3\n  swap2\n  pop\n  pop\n  jump\t// out\n    /* \"#utility.yul\":156:1133   */\ntag_3:\n    /* \"#utility.yul\":262:268   */\n  0x00\n    /* \"#utility.yul\":270:276   */\n  dup1\n    /* \"#utility.yul\":278:284   */\n  0x00\n    /* \"#utility.yul\":286:292   */\n  dup1\n    /* \"#utility.yul\":294:300   */\n  0x00\n    /* \"#utility.yul\":343:346   */\n  0xa0\n    /* \"#utility.yul\":331:340   */\n  dup7\n    /* \"#utility.yul\":322:329   */\n  dup9\n    /* \"#utility.yul\":318:341   */\n  sub\n    /* \"#utility.yul\":314:347   */\n  slt\n    /* \"#utility.yul\":311:431   */\n  iszero\n  tag_13\n  jumpi\n    /* \"#utility.yul\":350:429   */\n  tag_14\n  tag_15\n  jump\t// in\ntag_14:\n    /* \"#utility.yul\":311:431   */\ntag_13:\n    /* \"#utility.yul\":470:471   */\n  0x00\n    /* \"#utility.yul\":495:559   */\n  tag_16\n    /* \"#utility.yul\":551:558   */\n  dup9\n    /* \"#utility.yul\":542:548   */\n  dup3\n    /* \"#utility.yul\":531:540   */\n  dup10\n    /* \"#utility.yul\":527:549   */\n  add\n    /* \"#utility.yul\":495:559   */\n  tag_8\n  jump\t// in\ntag_16:\n    /* \"#utility.yul\":485:559   */\n  swap6\n  pop\n    /* \"#utility.yul\":441:569   */\n  pop\n    /* \"#utility.yul\":608:610   */\n  0x20\n    /* \"#utility.yul\":634:698   */\n  tag_17\n    /* \"#utility.yul\":690:697   */\n  dup9\n    /* \"#utility.yul\":681:687   */\n  dup3\n    /* \"#utility.yul\":670:679   */\n  dup10\n    /* \"#utility.yul\":666:688   */\n  add\n    /* \"#utility.yul\":634:698   */\n  tag_8\n  jump\t// in\ntag_17:\n    /* \"#utility.yul\":624:698   */\n  swap5\n  pop\n    /* \"#utility.yul\":579:708   */\n  pop\n    /* \"#utility.yul\":747:749   */\n  0x40\n    /* \"#utility.yul\":773:837   */\n  tag_18\n    /* \"#utility.yul\":829:836   */\n  dup9\n    /* \"#utility.yul\":820:826   */\n  dup3\n    /* \"#utility.yul\":809:818   */\n  dup10\n    /* \"#utility.yul\":805:827   */\n  add\n    /* \"#utility.yul\":773:837   */\n  tag_8\n  jump\t// in\ntag_18:\n    /* \"#utility.yul\":763:837   */\n  swap4\n  pop\n    /* \"#utility.yul\":718:847   */\n  pop\n    /* \"#utility.yul\":886:888   */\n  0x60\n    /* \"#utility.yul\":912:976   */\n  tag_19\n    /* \"#utility.yul\":968:975   */\n  dup9\n    /* \"#utility.yul\":959:965   */\n  dup3\n    /* \"#utility.yul\":948:957   */\n  dup10\n    /* \"#utility.yul\":944:966   */\n  add\n    /* \"#utility.yul\":912:976   */\n  tag_8\n  jump\t// in\ntag_19:\n    /* \"#utility.yul\":902:976   */\n  swap3\n  pop\n    /* \"#utility.yul\":857:986   */\n  pop\n    /* \"#utility.yul\":1025:1028   */\n  0x80\n    /* \"#utility.yul\":1052:1116   */\n  tag_20\n    /* \"#utility.yul\":1108:1115   */\n  dup9\n    /* \"#utility.yul\":1099:1105   */\n  dup3\n    /* \"#utility.yul\":1088:1097   */\n  dup10\n    /* \"#utility.yul\":1084:1106   */\n  add\n    /* \"#utility.yul\":1052:1116   */\n  tag_8\n  jump\t// in\ntag_20:\n    /* \"#utility.yul\":1042:1116   */\n  swap2\n  pop\n    /* \"#utility.yul\":996:1126   */\n  pop\n    /* \"#utility.yul\":156:1133   */\n  swap3\n  swap6\n  pop\n  swap3\n  swap6\n  swap1\n  swap4\n  pop\n  jump\t// out\n    /* \"#utility.yul\":1220:1316   */\ntag_23:\n    /* \"#utility.yul\":1257:1264   */\n  0x00\n    /* \"#utility.yul\":1286:1310   */\n  tag_25\n    /* \"#utility.yul\":1304:1309   */\n  dup3\n    /* \"#utility.yul\":1286:1310   */\n  tag_26\n  jump\t// in\ntag_25:\n    /* \"#utility.yul\":1275:1310   */\n  swap1\n  pop\n    /* \"#utility.yul\":1220:1316   */\n  swap2\n  swap1\n  pop\n  jump\t// out\n    /* \"#utility.yul\":1322:1448   */\ntag_26:\n    /* \"#utility.yul\":1359:1366   */\n  0x00\n    /* \"#utility.yul\":1399:1441   */\n  0xffffffffffffffffffffffffffffffffffffffff\n    /* \"#utility.yul\":1392:1397   */\n  dup3\n    /* \"#utility.yul\":1388:1442   */\n  and\n    /* \"#utility.yul\":1377:1442   */\n  swap1\n  pop\n    /* \"#utility.yul\":1322:1448   */\n  swap2\n  swap1\n  pop\n  jump\t// out\n    /* \"#utility.yul\":1577:1694   */\ntag_15:\n    /* \"#utility.yul\":1686:1687   */\n  0x00\n    /* \"#utility.yul\":1683:1684   */\n  dup1\n    /* \"#utility.yul\":1676:1688   */\n  revert\n    /* \"#utility.yul\":1700:1822   */\ntag_11:\n    /* \"#utility.yul\":1773:1797   */\n  tag_32\n    /* \"#utility.yul\":1791:1796   */\n  dup2\n    /* \"#utility.yul\":1773:1797   */\n  tag_23\n  jump\t// in\ntag_32:\n    /* \"#utility.yul\":1766:1771   */\n  dup2\n    /* \"#utility.yul\":1763:1798   */\n  eq\n    /* \"#utility.yul\":1753:1816   */\n  tag_33\n  jumpi\n    /* \"#utility.yul\":1812:1813   */\n  0x00\n    /* \"#utility.yul\":1809:1810   */\n  dup1\n    /* \"#utility.yul\":1802:1814   */\n  revert\n    /* \"#utility.yul\":1753:1816   */\ntag_33:\n    /* \"#utility.yul\":1700:1822   */\n  pop\n  jump\t// out\n    /* \"SVG-MVP_football_ERC1155/contracts/getPlayerSvg.sol\":134:7637  contract getPlayerSvg {... */\ntag_6:\n  dataSize(sub_0)\n  dup1\n  dataOffset(sub_0)\n  0x00\n  codecopy\n  0x00\n  return\nstop\n\nsub_0: assembly {\n        /* \"SVG-MVP_football_ERC1155/contracts/getPlayerSvg.sol\":134:7637  contract getPlayerSvg {... */\n      mstore(0x40, 0x80)\n      callvalue\n      dup1\n      iszero\n      tag_1\n      jumpi\n      0x00\n      dup1\n      revert\n    tag_1:\n      pop\n      jumpi(tag_2, lt(calldatasize, 0x04))\n      shr(0xe0, calldataload(0x00))\n      dup1\n      0xc7370296\n      eq\n      tag_3\n      jumpi\n    tag_2:\n      0x00\n      dup1\n      revert\n        /* \"SVG-MVP_football_ERC1155/contracts/getPlayerSvg.sol\":980:6750  function getSVG(uint gameplay, uint numberOfGames, uint goals, string memory name, string memory position, uint level) external view  returns (string memory svg) {... */\n    tag_3:\n      tag_4\n      0x04\n      dup1\n      calldatasize\n      sub\n      dup2\n      add\n      swap1\n      tag_5\n      swap2\n      swap1\n      tag_6\n      jump\t// in\n    tag_5:\n      tag_7\n      jump\t// in\n    tag_4:\n      mload(0x40)\n      tag_8\n      swap2\n      swap1\n      tag_9\n      jump\t// in\n    tag_8:\n      mload(0x40)\n      dup1\n      swap2\n      sub\n      swap1\n      return\n    tag_7:\n        /* \"SVG-MVP_football_ERC1155/contracts/getPlayerSvg.sol\":1123:1140  string memory svg */\n      0x60\n        /* \"SVG-MVP_football_ERC1155/contracts/getPlayerSvg.sol\":1149:1235  svg = '<svg width=\"390\" height=\"435\" fill=\"green\" xmlns=\"http://www.w3.org/2000/svg\">' */\n      mload(0x40)\n      dup1\n      0x80\n      add\n      0x40\n      mstore\n      dup1\n      0x4e\n      dup2\n      mstore\n      0x20\n      add\n      data_13ee12525b78d1800c98700a3c7bb02c6ed5e8636ea4bf89bace0c534940e1ba\n      0x4e\n      swap2\n      codecopy\n      swap1\n      pop\n        /* \"SVG-MVP_football_ERC1155/contracts/getPlayerSvg.sol\":1271:1274  svg */\n      dup1\n        /* \"SVG-MVP_football_ERC1155/contracts/getPlayerSvg.sol\":1254:1511  abi.encodePacked(svg,... */\n      add(0x20, mload(0x40))\n      tag_11\n      swap2\n      swap1\n      tag_12\n      jump\t// in\n    tag_11:\n      mload(0x40)\n      0x20\n      dup2\n      dup4\n      sub\n      sub\n      dup2\n      mstore\n      swap1\n      0x40\n      mstore\n        /* \"SVG-MVP_football_ERC1155/contracts/getPlayerSvg.sol\":1241:1512  svg = string(abi.encodePacked(svg,... */\n      swap1\n      pop\n        /* \"SVG-MVP_football_ERC1155/contracts/getPlayerSvg.sol\":1548:1551  svg */\n      dup1\n        /* \"SVG-MVP_football_ERC1155/contracts/getPlayerSvg.sol\":1531:1614  abi.encodePacked(svg, '<rect width=\"100%\" height=\"100%\" fill=\"', \"#e40227\" ,'\" />') */\n      add(0x20, mload(0x40))\n      tag_13\n      swap2\n      swap1\n      tag_14\n      jump\t// in\n    tag_13:\n      mload(0x40)\n      0x20\n      dup2\n      dup4\n      sub\n      sub\n      dup2\n      mstore\n      swap1\n      0x40\n      mstore\n        /* \"SVG-MVP_football_ERC1155/contracts/getPlayerSvg.sol\":1518:1615  svg = string(abi.encodePacked(svg, '<rect width=\"100%\" height=\"100%\" fill=\"', \"#e40227\" ,'\" />')) */\n      swap1\n      pop\n        /* \"SVG-MVP_football_ERC1155/contracts/getPlayerSvg.sol\":1627:1646  addImage(svg, name) */\n      tag_15\n        /* \"SVG-MVP_football_ERC1155/contracts/getPlayerSvg.sol\":1636:1639  svg */\n      dup2\n        /* \"SVG-MVP_football_ERC1155/contracts/getPlayerSvg.sol\":1641:1645  name */\n      dup6\n        /* \"SVG-MVP_football_ERC1155/contracts/getPlayerSvg.sol\":1627:1635  addImage */\n      tag_16\n        /* \"SVG-MVP_football_ERC1155/contracts/getPlayerSvg.sol\":1627:1646  addImage(svg, name) */\n      jump\t// in\n    tag_15:\n        /* \"SVG-MVP_football_ERC1155/contracts/getPlayerSvg.sol\":1621:1646  svg = addImage(svg, name) */\n      swap1\n      pop\n        /* \"SVG-MVP_football_ERC1155/contracts/getPlayerSvg.sol\":1663:1664  0 */\n      0x00\n        /* \"SVG-MVP_football_ERC1155/contracts/getPlayerSvg.sol\":1657:1662  level */\n      dup3\n        /* \"SVG-MVP_football_ERC1155/contracts/getPlayerSvg.sol\":1657:1664  level>0 */\n      gt\n        /* \"SVG-MVP_football_ERC1155/contracts/getPlayerSvg.sol\":1653:6044  if (level>0) {... */\n      iszero\n      tag_17\n      jumpi\n        /* \"SVG-MVP_football_ERC1155/contracts/getPlayerSvg.sol\":2026:2029  svg */\n      dup1\n        /* \"SVG-MVP_football_ERC1155/contracts/getPlayerSvg.sol\":2009:3108  abi.encodePacked(svg, '<path style=\"fill:#9c5221\"  d=\"m -3.2016949e-6,1159 c 2.1344633e-6,0 1.0672316e-6,0 0,0 z M 0.1268068,289.75 c -0.08453787,579.5 -0.04226893,289.75 0,0 z m 207.1905932,4.52111 34.8174,-25.34859 34.429,25.03754 c 18.936,13.77065 34.9931,25.15058 35.6826,25.28874 0.6895,0.13816 1.1307,-0.49554 0.9806,-1.40821 -0.1502,-0.91268 -6.1101,-19.57424 -13.2442,-41.47013 -10.1878,-31.26816 -12.7041,-40.05127 -11.727,-40.93175 0.6843,-0.61657 17.14983,-11.79288 35.7009,-26.02987 L 358.4134,184.5 314.0711,184 269.7287,183.5 256.4878,142.70675 c -4.72603,-13.49006 -10.17035,-29.31454 -14.43246,-42.32564 -0.265,0.26498 -6.90204,19.41565 -14.09254,41.61917 -7.1905,22.20352 -13.3003,40.73671 -13.5772,41.18488 C 214.1086,183.63332 194.3335,184 170.441,184 c -23.89257,0 -43.42888,0.3375 -43.41405,0.75 0.0148,0.4125 15.76483,12.1502 35.00005,26.08379 19.2351,13.93359 34.9725,25.63359 34.972,26 -6e-4,0.36642 -6.0752,19.34121 -13.499,42.16621 -7.4239,22.825 -13.4984,41.63906 -13.499,41.80902 0,0.58693 2.63612,-1.28915 37.3164,-26.53791 z\" transform=\"translate(300,0) scale(0.2)\"/>') */\n      add(0x20, mload(0x40))\n      tag_18\n      swap2\n      swap1\n      tag_19\n      jump\t// in\n    tag_18:\n      mload(0x40)\n      0x20\n      dup2\n      dup4\n      sub\n      sub\n      dup2\n      mstore\n      swap1\n      0x40\n      mstore\n        /* \"SVG-MVP_football_ERC1155/contracts/getPlayerSvg.sol\":1996:3109  svg = string(abi.encodePacked(svg, '<path style=\"fill:#9c5221\"  d=\"m -3.2016949e-6,1159 c 2.1344633e-6,0 1.0672316e-6,0 0,0 z M 0.1268068,289.75 c -0.08453787,579.5 -0.04226893,289.75 0,0 z m 207.1905932,4.52111 34.8174,-25.34859 34.429,25.03754 c 18.936,13.77065 34.9931,25.15058 35.6826,25.28874 0.6895,0.13816 1.1307,-0.49554 0.9806,-1.40821 -0.1502,-0.91268 -6.1101,-19.57424 -13.2442,-41.47013 -10.1878,-31.26816 -12.7041,-40.05127 -11.727,-40.93175 0.6843,-0.61657 17.14983,-11.79288 35.7009,-26.02987 L 358.4134,184.5 314.0711,184 269.7287,183.5 256.4878,142.70675 c -4.72603,-13.49006 -10.17035,-29.31454 -14.43246,-42.32564 -0.265,0.26498 -6.90204,19.41565 -14.09254,41.61917 -7.1905,22.20352 -13.3003,40.73671 -13.5772,41.18488 C 214.1086,183.63332 194.3335,184 170.441,184 c -23.89257,0 -43.42888,0.3375 -43.41405,0.75 0.0148,0.4125 15.76483,12.1502 35.00005,26.08379 19.2351,13.93359 34.9725,25.63359 34.972,26 -6e-4,0.36642 -6.0752,19.34121 -13.499,42.16621 -7.4239,22.825 -13.4984,41.63906 -13.499,41.80902 0,0.58693 2.63612,-1.28915 37.3164,-26.53791 z\" transform=\"translate(300,0) scale(0.2)\"/>')) */\n      swap1\n      pop\n        /* \"SVG-MVP_football_ERC1155/contracts/getPlayerSvg.sol\":3125:3126  1 */\n      0x01\n        /* \"SVG-MVP_football_ERC1155/contracts/getPlayerSvg.sol\":3119:3124  level */\n      dup3\n        /* \"SVG-MVP_football_ERC1155/contracts/getPlayerSvg.sol\":3119:3126  level>1 */\n      gt\n        /* \"SVG-MVP_football_ERC1155/contracts/getPlayerSvg.sol\":3115:6043  if (level>1) {... */\n      iszero\n      tag_20\n      jumpi\n        /* \"SVG-MVP_football_ERC1155/contracts/getPlayerSvg.sol\":3488:3491  svg */\n      dup1\n        /* \"SVG-MVP_football_ERC1155/contracts/getPlayerSvg.sol\":3471:4571  abi.encodePacked(svg, '<path style=\"fill:#b2b9bc\"  d=\"m -3.2016949e-6,1159 c 2.1344633e-6,0 1.0672316e-6,0 0,0 z M 0.1268068,289.75 c -0.08453787,579.5 -0.04226893,289.75 0,0 z m 207.1905932,4.52111 34.8174,-25.34859 34.429,25.03754 c 18.936,13.77065 34.9931,25.15058 35.6826,25.28874 0.6895,0.13816 1.1307,-0.49554 0.9806,-1.40821 -0.1502,-0.91268 -6.1101,-19.57424 -13.2442,-41.47013 -10.1878,-31.26816 -12.7041,-40.05127 -11.727,-40.93175 0.6843,-0.61657 17.14983,-11.79288 35.7009,-26.02987 L 358.4134,184.5 314.0711,184 269.7287,183.5 256.4878,142.70675 c -4.72603,-13.49006 -10.17035,-29.31454 -14.43246,-42.32564 -0.265,0.26498 -6.90204,19.41565 -14.09254,41.61917 -7.1905,22.20352 -13.3003,40.73671 -13.5772,41.18488 C 214.1086,183.63332 194.3335,184 170.441,184 c -23.89257,0 -43.42888,0.3375 -43.41405,0.75 0.0148,0.4125 15.76483,12.1502 35.00005,26.08379 19.2351,13.93359 34.9725,25.63359 34.972,26 -6e-4,0.36642 -6.0752,19.34121 -13.499,42.16621 -7.4239,22.825 -13.4984,41.63906 -13.499,41.80902 0,0.58693 2.63612,-1.28915 37.3164,-26.53791 z\" transform=\"translate(300,60) scale(0.2)\"/>') */\n      add(0x20, mload(0x40))\n      tag_21\n      swap2\n      swap1\n      tag_22\n      jump\t// in\n    tag_21:\n      mload(0x40)\n      0x20\n      dup2\n      dup4\n      sub\n      sub\n      dup2\n      mstore\n      swap1\n      0x40\n      mstore\n        /* \"SVG-MVP_football_ERC1155/contracts/getPlayerSvg.sol\":3458:4572  svg = string(abi.encodePacked(svg, '<path style=\"fill:#b2b9bc\"  d=\"m -3.2016949e-6,1159 c 2.1344633e-6,0 1.0672316e-6,0 0,0 z M 0.1268068,289.75 c -0.08453787,579.5 -0.04226893,289.75 0,0 z m 207.1905932,4.52111 34.8174,-25.34859 34.429,25.03754 c 18.936,13.77065 34.9931,25.15058 35.6826,25.28874 0.6895,0.13816 1.1307,-0.49554 0.9806,-1.40821 -0.1502,-0.91268 -6.1101,-19.57424 -13.2442,-41.47013 -10.1878,-31.26816 -12.7041,-40.05127 -11.727,-40.93175 0.6843,-0.61657 17.14983,-11.79288 35.7009,-26.02987 L 358.4134,184.5 314.0711,184 269.7287,183.5 256.4878,142.70675 c -4.72603,-13.49006 -10.17035,-29.31454 -14.43246,-42.32564 -0.265,0.26498 -6.90204,19.41565 -14.09254,41.61917 -7.1905,22.20352 -13.3003,40.73671 -13.5772,41.18488 C 214.1086,183.63332 194.3335,184 170.441,184 c -23.89257,0 -43.42888,0.3375 -43.41405,0.75 0.0148,0.4125 15.76483,12.1502 35.00005,26.08379 19.2351,13.93359 34.9725,25.63359 34.972,26 -6e-4,0.36642 -6.0752,19.34121 -13.499,42.16621 -7.4239,22.825 -13.4984,41.63906 -13.499,41.80902 0,0.58693 2.63612,-1.28915 37.3164,-26.53791 z\" transform=\"translate(300,60) scale(0.2)\"/>')) */\n      swap1\n      pop\n        /* \"SVG-MVP_football_ERC1155/contracts/getPlayerSvg.sol\":4588:4589  2 */\n      0x02\n        /* \"SVG-MVP_football_ERC1155/contracts/getPlayerSvg.sol\":4582:4587  level */\n      dup3\n        /* \"SVG-MVP_football_ERC1155/contracts/getPlayerSvg.sol\":4582:4589  level>2 */\n      gt\n        /* \"SVG-MVP_football_ERC1155/contracts/getPlayerSvg.sol\":4578:6042  if (level>2) {... */\n      iszero\n      tag_23\n      jumpi\n        /* \"SVG-MVP_football_ERC1155/contracts/getPlayerSvg.sol\":4950:4953  svg */\n      dup1\n        /* \"SVG-MVP_football_ERC1155/contracts/getPlayerSvg.sol\":4933:6034  abi.encodePacked(svg, '<path style=\"fill:#ffe449\"  d=\"m -3.2016949e-6,1159 c 2.1344633e-6,0 1.0672316e-6,0 0,0 z M 0.1268068,289.75 c -0.08453787,579.5 -0.04226893,289.75 0,0 z m 207.1905932,4.52111 34.8174,-25.34859 34.429,25.03754 c 18.936,13.77065 34.9931,25.15058 35.6826,25.28874 0.6895,0.13816 1.1307,-0.49554 0.9806,-1.40821 -0.1502,-0.91268 -6.1101,-19.57424 -13.2442,-41.47013 -10.1878,-31.26816 -12.7041,-40.05127 -11.727,-40.93175 0.6843,-0.61657 17.14983,-11.79288 35.7009,-26.02987 L 358.4134,184.5 314.0711,184 269.7287,183.5 256.4878,142.70675 c -4.72603,-13.49006 -10.17035,-29.31454 -14.43246,-42.32564 -0.265,0.26498 -6.90204,19.41565 -14.09254,41.61917 -7.1905,22.20352 -13.3003,40.73671 -13.5772,41.18488 C 214.1086,183.63332 194.3335,184 170.441,184 c -23.89257,0 -43.42888,0.3375 -43.41405,0.75 0.0148,0.4125 15.76483,12.1502 35.00005,26.08379 19.2351,13.93359 34.9725,25.63359 34.972,26 -6e-4,0.36642 -6.0752,19.34121 -13.499,42.16621 -7.4239,22.825 -13.4984,41.63906 -13.499,41.80902 0,0.58693 2.63612,-1.28915 37.3164,-26.53791 z\" transform=\"translate(300,120) scale(0.2)\"/>') */\n      add(0x20, mload(0x40))\n      tag_24\n      swap2\n      swap1\n      tag_25\n      jump\t// in\n    tag_24:\n      mload(0x40)\n      0x20\n      dup2\n      dup4\n      sub\n      sub\n      dup2\n      mstore\n      swap1\n      0x40\n      mstore\n        /* \"SVG-MVP_football_ERC1155/contracts/getPlayerSvg.sol\":4920:6035  svg = string(abi.encodePacked(svg, '<path style=\"fill:#ffe449\"  d=\"m -3.2016949e-6,1159 c 2.1344633e-6,0 1.0672316e-6,0 0,0 z M 0.1268068,289.75 c -0.08453787,579.5 -0.04226893,289.75 0,0 z m 207.1905932,4.52111 34.8174,-25.34859 34.429,25.03754 c 18.936,13.77065 34.9931,25.15058 35.6826,25.28874 0.6895,0.13816 1.1307,-0.49554 0.9806,-1.40821 -0.1502,-0.91268 -6.1101,-19.57424 -13.2442,-41.47013 -10.1878,-31.26816 -12.7041,-40.05127 -11.727,-40.93175 0.6843,-0.61657 17.14983,-11.79288 35.7009,-26.02987 L 358.4134,184.5 314.0711,184 269.7287,183.5 256.4878,142.70675 c -4.72603,-13.49006 -10.17035,-29.31454 -14.43246,-42.32564 -0.265,0.26498 -6.90204,19.41565 -14.09254,41.61917 -7.1905,22.20352 -13.3003,40.73671 -13.5772,41.18488 C 214.1086,183.63332 194.3335,184 170.441,184 c -23.89257,0 -43.42888,0.3375 -43.41405,0.75 0.0148,0.4125 15.76483,12.1502 35.00005,26.08379 19.2351,13.93359 34.9725,25.63359 34.972,26 -6e-4,0.36642 -6.0752,19.34121 -13.499,42.16621 -7.4239,22.825 -13.4984,41.63906 -13.499,41.80902 0,0.58693 2.63612,-1.28915 37.3164,-26.53791 z\" transform=\"translate(300,120) scale(0.2)\"/>')) */\n      swap1\n      pop\n        /* \"SVG-MVP_football_ERC1155/contracts/getPlayerSvg.sol\":4578:6042  if (level>2) {... */\n    tag_23:\n        /* \"SVG-MVP_football_ERC1155/contracts/getPlayerSvg.sol\":3115:6043  if (level>1) {... */\n    tag_20:\n        /* \"SVG-MVP_football_ERC1155/contracts/getPlayerSvg.sol\":1653:6044  if (level>0) {... */\n    tag_17:\n        /* \"SVG-MVP_football_ERC1155/contracts/getPlayerSvg.sol\":6079:6082  svg */\n      dup1\n        /* \"SVG-MVP_football_ERC1155/contracts/getPlayerSvg.sol\":6122:6126  name */\n      dup5\n        /* \"SVG-MVP_football_ERC1155/contracts/getPlayerSvg.sol\":6062:6138  abi.encodePacked(svg, '<text x=\"80\" y=\"40\" class=\"title\">', name ,'</text>') */\n      add(0x20, mload(0x40))\n      tag_26\n      swap3\n      swap2\n      swap1\n      tag_27\n      jump\t// in\n    tag_26:\n      mload(0x40)\n      0x20\n      dup2\n      dup4\n      sub\n      sub\n      dup2\n      mstore\n      swap1\n      0x40\n      mstore\n        /* \"SVG-MVP_football_ERC1155/contracts/getPlayerSvg.sol\":6049:6139  svg = string(abi.encodePacked(svg, '<text x=\"80\" y=\"40\" class=\"title\">', name ,'</text>')) */\n      swap1\n      pop\n        /* \"SVG-MVP_football_ERC1155/contracts/getPlayerSvg.sol\":6175:6178  svg */\n      dup1\n        /* \"SVG-MVP_football_ERC1155/contracts/getPlayerSvg.sol\":6216:6242  Strings.toString(gameplay) */\n      tag_28\n        /* \"SVG-MVP_football_ERC1155/contracts/getPlayerSvg.sol\":6233:6241  gameplay */\n      dup9\n        /* \"SVG-MVP_football_ERC1155/contracts/getPlayerSvg.sol\":6216:6232  Strings.toString */\n      tag_29\n        /* \"SVG-MVP_football_ERC1155/contracts/getPlayerSvg.sol\":6216:6242  Strings.toString(gameplay) */\n      jump\t// in\n    tag_28:\n        /* \"SVG-MVP_football_ERC1155/contracts/getPlayerSvg.sol\":6158:6261  abi.encodePacked(svg, '<text x=\"20\" y=\"320\" >Gameplay: ', Strings.toString(gameplay), 'min', '</text>') */\n      add(0x20, mload(0x40))\n      tag_30\n      swap3\n      swap2\n      swap1\n      tag_31\n      jump\t// in\n    tag_30:\n      mload(0x40)\n      0x20\n      dup2\n      dup4\n      sub\n      sub\n      dup2\n      mstore\n      swap1\n      0x40\n      mstore\n        /* \"SVG-MVP_football_ERC1155/contracts/getPlayerSvg.sol\":6145:6262  svg = string(abi.encodePacked(svg, '<text x=\"20\" y=\"320\" >Gameplay: ', Strings.toString(gameplay), 'min', '</text>')) */\n      swap1\n      pop\n        /* \"SVG-MVP_football_ERC1155/contracts/getPlayerSvg.sol\":6298:6301  svg */\n      dup1\n        /* \"SVG-MVP_football_ERC1155/contracts/getPlayerSvg.sol\":6336:6367  Strings.toString(numberOfGames) */\n      tag_32\n        /* \"SVG-MVP_football_ERC1155/contracts/getPlayerSvg.sol\":6353:6366  numberOfGames */\n      dup8\n        /* \"SVG-MVP_football_ERC1155/contracts/getPlayerSvg.sol\":6336:6352  Strings.toString */\n      tag_29\n        /* \"SVG-MVP_football_ERC1155/contracts/getPlayerSvg.sol\":6336:6367  Strings.toString(numberOfGames) */\n      jump\t// in\n    tag_32:\n        /* \"SVG-MVP_football_ERC1155/contracts/getPlayerSvg.sol\":6281:6378  abi.encodePacked(svg, '<text x=\"20\" y=\"340\" >Games: ', Strings.toString(numberOfGames),'</text>') */\n      add(0x20, mload(0x40))\n      tag_33\n      swap3\n      swap2\n      swap1\n      tag_34\n      jump\t// in\n    tag_33:\n      mload(0x40)\n      0x20\n      dup2\n      dup4\n      sub\n      sub\n      dup2\n      mstore\n      swap1\n      0x40\n      mstore\n        /* \"SVG-MVP_football_ERC1155/contracts/getPlayerSvg.sol\":6268:6379  svg = string(abi.encodePacked(svg, '<text x=\"20\" y=\"340\" >Games: ', Strings.toString(numberOfGames),'</text>')) */\n      swap1\n      pop\n        /* \"SVG-MVP_football_ERC1155/contracts/getPlayerSvg.sol\":6415:6418  svg */\n      dup1\n        /* \"SVG-MVP_football_ERC1155/contracts/getPlayerSvg.sol\":6453:6476  Strings.toString(goals) */\n      tag_35\n        /* \"SVG-MVP_football_ERC1155/contracts/getPlayerSvg.sol\":6470:6475  goals */\n      dup7\n        /* \"SVG-MVP_football_ERC1155/contracts/getPlayerSvg.sol\":6453:6469  Strings.toString */\n      tag_29\n        /* \"SVG-MVP_football_ERC1155/contracts/getPlayerSvg.sol\":6453:6476  Strings.toString(goals) */\n      jump\t// in\n    tag_35:\n        /* \"SVG-MVP_football_ERC1155/contracts/getPlayerSvg.sol\":6398:6488  abi.encodePacked(svg, '<text x=\"20\" y=\"360\" >Goals: ', Strings.toString(goals), '</text>') */\n      add(0x20, mload(0x40))\n      tag_36\n      swap3\n      swap2\n      swap1\n      tag_37\n      jump\t// in\n    tag_36:\n      mload(0x40)\n      0x20\n      dup2\n      dup4\n      sub\n      sub\n      dup2\n      mstore\n      swap1\n      0x40\n      mstore\n        /* \"SVG-MVP_football_ERC1155/contracts/getPlayerSvg.sol\":6385:6489  svg = string(abi.encodePacked(svg, '<text x=\"20\" y=\"360\" >Goals: ', Strings.toString(goals), '</text>')) */\n      swap1\n      pop\n        /* \"SVG-MVP_football_ERC1155/contracts/getPlayerSvg.sol\":6525:6528  svg */\n      dup1\n        /* \"SVG-MVP_football_ERC1155/contracts/getPlayerSvg.sol\":6566:6574  position */\n      dup4\n        /* \"SVG-MVP_football_ERC1155/contracts/getPlayerSvg.sol\":6508:6586  abi.encodePacked(svg, '<text x=\"20\" y=\"380\" >Position: ', position, '</text>') */\n      add(0x20, mload(0x40))\n      tag_38\n      swap3\n      swap2\n      swap1\n      tag_39\n      jump\t// in\n    tag_38:\n      mload(0x40)\n      0x20\n      dup2\n      dup4\n      sub\n      sub\n      dup2\n      mstore\n      swap1\n      0x40\n      mstore\n        /* \"SVG-MVP_football_ERC1155/contracts/getPlayerSvg.sol\":6495:6587  svg = string(abi.encodePacked(svg, '<text x=\"20\" y=\"380\" >Position: ', position, '</text>')) */\n      swap1\n      pop\n        /* \"SVG-MVP_football_ERC1155/contracts/getPlayerSvg.sol\":6730:6733  svg */\n      dup1\n        /* \"SVG-MVP_football_ERC1155/contracts/getPlayerSvg.sol\":6713:6744  abi.encodePacked(svg, '</svg>') */\n      add(0x20, mload(0x40))\n      tag_40\n      swap2\n      swap1\n      tag_41\n      jump\t// in\n    tag_40:\n      mload(0x40)\n      0x20\n      dup2\n      dup4\n      sub\n      sub\n      dup2\n      mstore\n      swap1\n      0x40\n      mstore\n        /* \"SVG-MVP_football_ERC1155/contracts/getPlayerSvg.sol\":6700:6745  svg = string(abi.encodePacked(svg, '</svg>')) */\n      swap1\n      pop\n        /* \"SVG-MVP_football_ERC1155/contracts/getPlayerSvg.sol\":980:6750  function getSVG(uint gameplay, uint numberOfGames, uint goals, string memory name, string memory position, uint level) external view  returns (string memory svg) {... */\n      swap7\n      swap6\n      pop\n      pop\n      pop\n      pop\n      pop\n      pop\n      jump\t// out\n        /* \"SVG-MVP_football_ERC1155/contracts/getPlayerSvg.sol\":6756:7624  function addImage(string memory svg, string memory name) internal view returns (string memory _svg) {... */\n    tag_16:\n        /* \"SVG-MVP_football_ERC1155/contracts/getPlayerSvg.sol\":6836:6854  string memory _svg */\n      0x60\n        /* \"SVG-MVP_football_ERC1155/contracts/getPlayerSvg.sol\":6941:6945  name */\n      dup2\n        /* \"SVG-MVP_football_ERC1155/contracts/getPlayerSvg.sol\":6924:6946  abi.encodePacked(name) */\n      add(0x20, mload(0x40))\n      tag_43\n      swap2\n      swap1\n      tag_44\n      jump\t// in\n    tag_43:\n      mload(0x40)\n      0x20\n      dup2\n      dup4\n      sub\n      sub\n      dup2\n      mstore\n      swap1\n      0x40\n      mstore\n        /* \"SVG-MVP_football_ERC1155/contracts/getPlayerSvg.sol\":6914:6947  keccak256(abi.encodePacked(name)) */\n      dup1\n      mload\n      swap1\n      0x20\n      add\n      keccak256\n        /* \"SVG-MVP_football_ERC1155/contracts/getPlayerSvg.sol\":6874:6909  abi.encodePacked(\"Noah Katterbach\") */\n      add(0x20, mload(0x40))\n      tag_45\n      swap1\n      tag_46\n      jump\t// in\n    tag_45:\n      mload(0x40)\n      0x20\n      dup2\n      dup4\n      sub\n      sub\n      dup2\n      mstore\n      swap1\n      0x40\n      mstore\n        /* \"SVG-MVP_football_ERC1155/contracts/getPlayerSvg.sol\":6864:6910  keccak256(abi.encodePacked(\"Noah Katterbach\")) */\n      dup1\n      mload\n      swap1\n      0x20\n      add\n      keccak256\n        /* \"SVG-MVP_football_ERC1155/contracts/getPlayerSvg.sol\":6864:6947  keccak256(abi.encodePacked(\"Noah Katterbach\")) == keccak256(abi.encodePacked(name)) */\n      eq\n        /* \"SVG-MVP_football_ERC1155/contracts/getPlayerSvg.sol\":6860:7015  if (keccak256(abi.encodePacked(\"Noah Katterbach\")) == keccak256(abi.encodePacked(name)) ) {... */\n      iszero\n      tag_47\n      jumpi\n        /* \"SVG-MVP_football_ERC1155/contracts/getPlayerSvg.sol\":6985:6988  svg */\n      dup3\n        /* \"SVG-MVP_football_ERC1155/contracts/getPlayerSvg.sol\":6990:7004  noahKatterbach */\n      0x02\n      0x00\n      swap1\n      sload\n      swap1\n      0x0100\n      exp\n      swap1\n      div\n      0xffffffffffffffffffffffffffffffffffffffff\n      and\n        /* \"SVG-MVP_football_ERC1155/contracts/getPlayerSvg.sol\":6990:7008  noahKatterbach.svg */\n      0xffffffffffffffffffffffffffffffffffffffff\n      and\n      0xbd85f55f\n        /* \"SVG-MVP_football_ERC1155/contracts/getPlayerSvg.sol\":6990:7010  noahKatterbach.svg() */\n      mload(0x40)\n      dup2\n      0xffffffff\n      and\n      0xe0\n      shl\n      dup2\n      mstore\n      0x04\n      add\n      0x00\n      mload(0x40)\n      dup1\n      dup4\n      sub\n      dup2\n      dup7\n      dup1\n      extcodesize\n      iszero\n      dup1\n      iszero\n      tag_48\n      jumpi\n      0x00\n      dup1\n      revert\n    tag_48:\n      pop\n      gas\n      staticcall\n      iszero\n      dup1\n      iszero\n      tag_50\n      jumpi\n      returndatasize\n      0x00\n      dup1\n      returndatacopy\n      revert(0x00, returndatasize)\n    tag_50:\n      pop\n      pop\n      pop\n      pop\n      mload(0x40)\n      returndatasize\n      0x00\n      dup3\n      returndatacopy\n      returndatasize\n      not(0x1f)\n      0x1f\n      dup3\n      add\n      and\n      dup3\n      add\n      dup1\n      0x40\n      mstore\n      pop\n      dup2\n      add\n      swap1\n      tag_51\n      swap2\n      swap1\n      tag_52\n      jump\t// in\n    tag_51:\n        /* \"SVG-MVP_football_ERC1155/contracts/getPlayerSvg.sol\":6968:7011  abi.encodePacked(svg, noahKatterbach.svg()) */\n      add(0x20, mload(0x40))\n      tag_53\n      swap3\n      swap2\n      swap1\n      tag_54\n      jump\t// in\n    tag_53:\n      mload(0x40)\n      0x20\n      dup2\n      dup4\n      sub\n      sub\n      dup2\n      mstore\n      swap1\n      0x40\n      mstore\n        /* \"SVG-MVP_football_ERC1155/contracts/getPlayerSvg.sol\":6954:7012  _svg = string(abi.encodePacked(svg, noahKatterbach.svg())) */\n      swap1\n      pop\n        /* \"SVG-MVP_football_ERC1155/contracts/getPlayerSvg.sol\":6860:7015  if (keccak256(abi.encodePacked(\"Noah Katterbach\")) == keccak256(abi.encodePacked(name)) ) {... */\n    tag_47:\n        /* \"SVG-MVP_football_ERC1155/contracts/getPlayerSvg.sol\":7095:7099  name */\n      dup2\n        /* \"SVG-MVP_football_ERC1155/contracts/getPlayerSvg.sol\":7078:7100  abi.encodePacked(name) */\n      add(0x20, mload(0x40))\n      tag_55\n      swap2\n      swap1\n      tag_44\n      jump\t// in\n    tag_55:\n      mload(0x40)\n      0x20\n      dup2\n      dup4\n      sub\n      sub\n      dup2\n      mstore\n      swap1\n      0x40\n      mstore\n        /* \"SVG-MVP_football_ERC1155/contracts/getPlayerSvg.sol\":7068:7101  keccak256(abi.encodePacked(name)) */\n      dup1\n      mload\n      swap1\n      0x20\n      add\n      keccak256\n        /* \"SVG-MVP_football_ERC1155/contracts/getPlayerSvg.sol\":7031:7063  abi.encodePacked(\"Andy Pelmard\") */\n      add(0x20, mload(0x40))\n      tag_56\n      swap1\n      tag_57\n      jump\t// in\n    tag_56:\n      mload(0x40)\n      0x20\n      dup2\n      dup4\n      sub\n      sub\n      dup2\n      mstore\n      swap1\n      0x40\n      mstore\n        /* \"SVG-MVP_football_ERC1155/contracts/getPlayerSvg.sol\":7021:7064  keccak256(abi.encodePacked(\"Andy Pelmard\")) */\n      dup1\n      mload\n      swap1\n      0x20\n      add\n      keccak256\n        /* \"SVG-MVP_football_ERC1155/contracts/getPlayerSvg.sol\":7021:7101  keccak256(abi.encodePacked(\"Andy Pelmard\")) == keccak256(abi.encodePacked(name)) */\n      eq\n        /* \"SVG-MVP_football_ERC1155/contracts/getPlayerSvg.sol\":7017:7166  if (keccak256(abi.encodePacked(\"Andy Pelmard\")) == keccak256(abi.encodePacked(name)) ) {... */\n      iszero\n      tag_58\n      jumpi\n        /* \"SVG-MVP_football_ERC1155/contracts/getPlayerSvg.sol\":7139:7142  svg */\n      dup3\n        /* \"SVG-MVP_football_ERC1155/contracts/getPlayerSvg.sol\":7144:7155  andyPelmard */\n      0x00\n      dup1\n      sload\n      swap1\n      0x0100\n      exp\n      swap1\n      div\n      0xffffffffffffffffffffffffffffffffffffffff\n      and\n        /* \"SVG-MVP_football_ERC1155/contracts/getPlayerSvg.sol\":7144:7159  andyPelmard.svg */\n      0xffffffffffffffffffffffffffffffffffffffff\n      and\n      0xbd85f55f\n        /* \"SVG-MVP_football_ERC1155/contracts/getPlayerSvg.sol\":7144:7161  andyPelmard.svg() */\n      mload(0x40)\n      dup2\n      0xffffffff\n      and\n      0xe0\n      shl\n      dup2\n      mstore\n      0x04\n      add\n      0x00\n      mload(0x40)\n      dup1\n      dup4\n      sub\n      dup2\n      dup7\n      dup1\n      extcodesize\n      iszero\n      dup1\n      iszero\n      tag_59\n      jumpi\n      0x00\n      dup1\n      revert\n    tag_59:\n      pop\n      gas\n      staticcall\n      iszero\n      dup1\n      iszero\n      tag_61\n      jumpi\n      returndatasize\n      0x00\n      dup1\n      returndatacopy\n      revert(0x00, returndatasize)\n    tag_61:\n      pop\n      pop\n      pop\n      pop\n      mload(0x40)\n      returndatasize\n      0x00\n      dup3\n      returndatacopy\n      returndatasize\n      not(0x1f)\n      0x1f\n      dup3\n      add\n      and\n      dup3\n      add\n      dup1\n      0x40\n      mstore\n      pop\n      dup2\n      add\n      swap1\n      tag_62\n      swap2\n      swap1\n      tag_52\n      jump\t// in\n    tag_62:\n        /* \"SVG-MVP_football_ERC1155/contracts/getPlayerSvg.sol\":7122:7162  abi.encodePacked(svg, andyPelmard.svg()) */\n      add(0x20, mload(0x40))\n      tag_63\n      swap3\n      swap2\n      swap1\n      tag_54\n      jump\t// in\n    tag_63:\n      mload(0x40)\n      0x20\n      dup2\n      dup4\n      sub\n      sub\n      dup2\n      mstore\n      swap1\n      0x40\n      mstore\n        /* \"SVG-MVP_football_ERC1155/contracts/getPlayerSvg.sol\":7108:7163  _svg = string(abi.encodePacked(svg, andyPelmard.svg())) */\n      swap1\n      pop\n        /* \"SVG-MVP_football_ERC1155/contracts/getPlayerSvg.sol\":7017:7166  if (keccak256(abi.encodePacked(\"Andy Pelmard\")) == keccak256(abi.encodePacked(name)) ) {... */\n    tag_58:\n        /* \"SVG-MVP_football_ERC1155/contracts/getPlayerSvg.sol\":7247:7251  name */\n      dup2\n        /* \"SVG-MVP_football_ERC1155/contracts/getPlayerSvg.sol\":7230:7252  abi.encodePacked(name) */\n      add(0x20, mload(0x40))\n      tag_64\n      swap2\n      swap1\n      tag_44\n      jump\t// in\n    tag_64:\n      mload(0x40)\n      0x20\n      dup2\n      dup4\n      sub\n      sub\n      dup2\n      mstore\n      swap1\n      0x40\n      mstore\n        /* \"SVG-MVP_football_ERC1155/contracts/getPlayerSvg.sol\":7220:7253  keccak256(abi.encodePacked(name)) */\n      dup1\n      mload\n      swap1\n      0x20\n      add\n      keccak256\n        /* \"SVG-MVP_football_ERC1155/contracts/getPlayerSvg.sol\":7182:7215  abi.encodePacked(\"Pajtim Kasami\") */\n      add(0x20, mload(0x40))\n      tag_65\n      swap1\n      tag_66\n      jump\t// in\n    tag_65:\n      mload(0x40)\n      0x20\n      dup2\n      dup4\n      sub\n      sub\n      dup2\n      mstore\n      swap1\n      0x40\n      mstore\n        /* \"SVG-MVP_football_ERC1155/contracts/getPlayerSvg.sol\":7172:7216  keccak256(abi.encodePacked(\"Pajtim Kasami\")) */\n      dup1\n      mload\n      swap1\n      0x20\n      add\n      keccak256\n        /* \"SVG-MVP_football_ERC1155/contracts/getPlayerSvg.sol\":7172:7253  keccak256(abi.encodePacked(\"Pajtim Kasami\")) == keccak256(abi.encodePacked(name)) */\n      eq\n        /* \"SVG-MVP_football_ERC1155/contracts/getPlayerSvg.sol\":7168:7319  if (keccak256(abi.encodePacked(\"Pajtim Kasami\")) == keccak256(abi.encodePacked(name)) ) {... */\n      iszero\n      tag_67\n      jumpi\n        /* \"SVG-MVP_football_ERC1155/contracts/getPlayerSvg.sol\":7291:7294  svg */\n      dup3\n        /* \"SVG-MVP_football_ERC1155/contracts/getPlayerSvg.sol\":7296:7308  pajtimKasami */\n      0x03\n      0x00\n      swap1\n      sload\n      swap1\n      0x0100\n      exp\n      swap1\n      div\n      0xffffffffffffffffffffffffffffffffffffffff\n      and\n        /* \"SVG-MVP_football_ERC1155/contracts/getPlayerSvg.sol\":7296:7312  pajtimKasami.svg */\n      0xffffffffffffffffffffffffffffffffffffffff\n      and\n      0xbd85f55f\n        /* \"SVG-MVP_football_ERC1155/contracts/getPlayerSvg.sol\":7296:7314  pajtimKasami.svg() */\n      mload(0x40)\n      dup2\n      0xffffffff\n      and\n      0xe0\n      shl\n      dup2\n      mstore\n      0x04\n      add\n      0x00\n      mload(0x40)\n      dup1\n      dup4\n      sub\n      dup2\n      dup7\n      dup1\n      extcodesize\n      iszero\n      dup1\n      iszero\n      tag_68\n      jumpi\n      0x00\n      dup1\n      revert\n    tag_68:\n      pop\n      gas\n      staticcall\n      iszero\n      dup1\n      iszero\n      tag_70\n      jumpi\n      returndatasize\n      0x00\n      dup1\n      returndatacopy\n      revert(0x00, returndatasize)\n    tag_70:\n      pop\n      pop\n      pop\n      pop\n      mload(0x40)\n      returndatasize\n      0x00\n      dup3\n      returndatacopy\n      returndatasize\n      not(0x1f)\n      0x1f\n      dup3\n      add\n      and\n      dup3\n      add\n      dup1\n      0x40\n      mstore\n      pop\n      dup2\n      add\n      swap1\n      tag_71\n      swap2\n      swap1\n      tag_52\n      jump\t// in\n    tag_71:\n        /* \"SVG-MVP_football_ERC1155/contracts/getPlayerSvg.sol\":7274:7315  abi.encodePacked(svg, pajtimKasami.svg()) */\n      add(0x20, mload(0x40))\n      tag_72\n      swap3\n      swap2\n      swap1\n      tag_54\n      jump\t// in\n    tag_72:\n      mload(0x40)\n      0x20\n      dup2\n      dup4\n      sub\n      sub\n      dup2\n      mstore\n      swap1\n      0x40\n      mstore\n        /* \"SVG-MVP_football_ERC1155/contracts/getPlayerSvg.sol\":7260:7316  _svg = string(abi.encodePacked(svg, pajtimKasami.svg())) */\n      swap1\n      pop\n        /* \"SVG-MVP_football_ERC1155/contracts/getPlayerSvg.sol\":7168:7319  if (keccak256(abi.encodePacked(\"Pajtim Kasami\")) == keccak256(abi.encodePacked(name)) ) {... */\n    tag_67:\n        /* \"SVG-MVP_football_ERC1155/contracts/getPlayerSvg.sol\":7398:7402  name */\n      dup2\n        /* \"SVG-MVP_football_ERC1155/contracts/getPlayerSvg.sol\":7381:7403  abi.encodePacked(name) */\n      add(0x20, mload(0x40))\n      tag_73\n      swap2\n      swap1\n      tag_44\n      jump\t// in\n    tag_73:\n      mload(0x40)\n      0x20\n      dup2\n      dup4\n      sub\n      sub\n      dup2\n      mstore\n      swap1\n      0x40\n      mstore\n        /* \"SVG-MVP_football_ERC1155/contracts/getPlayerSvg.sol\":7371:7404  keccak256(abi.encodePacked(name)) */\n      dup1\n      mload\n      swap1\n      0x20\n      add\n      keccak256\n        /* \"SVG-MVP_football_ERC1155/contracts/getPlayerSvg.sol\":7335:7366  abi.encodePacked(\"Liam Millar\") */\n      add(0x20, mload(0x40))\n      tag_74\n      swap1\n      tag_75\n      jump\t// in\n    tag_74:\n      mload(0x40)\n      0x20\n      dup2\n      dup4\n      sub\n      sub\n      dup2\n      mstore\n      swap1\n      0x40\n      mstore\n        /* \"SVG-MVP_football_ERC1155/contracts/getPlayerSvg.sol\":7325:7367  keccak256(abi.encodePacked(\"Liam Millar\")) */\n      dup1\n      mload\n      swap1\n      0x20\n      add\n      keccak256\n        /* \"SVG-MVP_football_ERC1155/contracts/getPlayerSvg.sol\":7325:7404  keccak256(abi.encodePacked(\"Liam Millar\")) == keccak256(abi.encodePacked(name)) */\n      eq\n        /* \"SVG-MVP_football_ERC1155/contracts/getPlayerSvg.sol\":7321:7468  if (keccak256(abi.encodePacked(\"Liam Millar\")) == keccak256(abi.encodePacked(name)) ) {... */\n      iszero\n      tag_76\n      jumpi\n        /* \"SVG-MVP_football_ERC1155/contracts/getPlayerSvg.sol\":7442:7445  svg */\n      dup3\n        /* \"SVG-MVP_football_ERC1155/contracts/getPlayerSvg.sol\":7447:7457  liamMillar */\n      0x01\n      0x00\n      swap1\n      sload\n      swap1\n      0x0100\n      exp\n      swap1\n      div\n      0xffffffffffffffffffffffffffffffffffffffff\n      and\n        /* \"SVG-MVP_football_ERC1155/contracts/getPlayerSvg.sol\":7447:7461  liamMillar.svg */\n      0xffffffffffffffffffffffffffffffffffffffff\n      and\n      0xbd85f55f\n        /* \"SVG-MVP_football_ERC1155/contracts/getPlayerSvg.sol\":7447:7463  liamMillar.svg() */\n      mload(0x40)\n      dup2\n      0xffffffff\n      and\n      0xe0\n      shl\n      dup2\n      mstore\n      0x04\n      add\n      0x00\n      mload(0x40)\n      dup1\n      dup4\n      sub\n      dup2\n      dup7\n      dup1\n      extcodesize\n      iszero\n      dup1\n      iszero\n      tag_77\n      jumpi\n      0x00\n      dup1\n      revert\n    tag_77:\n      pop\n      gas\n      staticcall\n      iszero\n      dup1\n      iszero\n      tag_79\n      jumpi\n      returndatasize\n      0x00\n      dup1\n      returndatacopy\n      revert(0x00, returndatasize)\n    tag_79:\n      pop\n      pop\n      pop\n      pop\n      mload(0x40)\n      returndatasize\n      0x00\n      dup3\n      returndatacopy\n      returndatasize\n      not(0x1f)\n      0x1f\n      dup3\n      add\n      and\n      dup3\n      add\n      dup1\n      0x40\n      mstore\n      pop\n      dup2\n      add\n      swap1\n      tag_80\n      swap2\n      swap1\n      tag_52\n      jump\t// in\n    tag_80:\n        /* \"SVG-MVP_football_ERC1155/contracts/getPlayerSvg.sol\":7425:7464  abi.encodePacked(svg, liamMillar.svg()) */\n      add(0x20, mload(0x40))\n      tag_81\n      swap3\n      swap2\n      swap1\n      tag_54\n      jump\t// in\n    tag_81:\n      mload(0x40)\n      0x20\n      dup2\n      dup4\n      sub\n      sub\n      dup2\n      mstore\n      swap1\n      0x40\n      mstore\n        /* \"SVG-MVP_football_ERC1155/contracts/getPlayerSvg.sol\":7411:7465  _svg = string(abi.encodePacked(svg, liamMillar.svg())) */\n      swap1\n      pop\n        /* \"SVG-MVP_football_ERC1155/contracts/getPlayerSvg.sol\":7321:7468  if (keccak256(abi.encodePacked(\"Liam Millar\")) == keccak256(abi.encodePacked(name)) ) {... */\n    tag_76:\n        /* \"SVG-MVP_football_ERC1155/contracts/getPlayerSvg.sol\":7549:7553  name */\n      dup2\n        /* \"SVG-MVP_football_ERC1155/contracts/getPlayerSvg.sol\":7532:7554  abi.encodePacked(name) */\n      add(0x20, mload(0x40))\n      tag_82\n      swap2\n      swap1\n      tag_44\n      jump\t// in\n    tag_82:\n      mload(0x40)\n      0x20\n      dup2\n      dup4\n      sub\n      sub\n      dup2\n      mstore\n      swap1\n      0x40\n      mstore\n        /* \"SVG-MVP_football_ERC1155/contracts/getPlayerSvg.sol\":7522:7555  keccak256(abi.encodePacked(name)) */\n      dup1\n      mload\n      swap1\n      0x20\n      add\n      keccak256\n        /* \"SVG-MVP_football_ERC1155/contracts/getPlayerSvg.sol\":7484:7517  abi.encodePacked(\"Heinz Lindner\") */\n      add(0x20, mload(0x40))\n      tag_83\n      swap1\n      tag_84\n      jump\t// in\n    tag_83:\n      mload(0x40)\n      0x20\n      dup2\n      dup4\n      sub\n      sub\n      dup2\n      mstore\n      swap1\n      0x40\n      mstore\n        /* \"SVG-MVP_football_ERC1155/contracts/getPlayerSvg.sol\":7474:7518  keccak256(abi.encodePacked(\"Heinz Lindner\")) */\n      dup1\n      mload\n      swap1\n      0x20\n      add\n      keccak256\n        /* \"SVG-MVP_football_ERC1155/contracts/getPlayerSvg.sol\":7474:7555  keccak256(abi.encodePacked(\"Heinz Lindner\")) == keccak256(abi.encodePacked(name)) */\n      eq\n        /* \"SVG-MVP_football_ERC1155/contracts/getPlayerSvg.sol\":7470:7621  if (keccak256(abi.encodePacked(\"Heinz Lindner\")) == keccak256(abi.encodePacked(name)) ) {... */\n      iszero\n      tag_85\n      jumpi\n        /* \"SVG-MVP_football_ERC1155/contracts/getPlayerSvg.sol\":7593:7596  svg */\n      dup3\n        /* \"SVG-MVP_football_ERC1155/contracts/getPlayerSvg.sol\":7598:7610  heinzLindner */\n      0x04\n      0x00\n      swap1\n      sload\n      swap1\n      0x0100\n      exp\n      swap1\n      div\n      0xffffffffffffffffffffffffffffffffffffffff\n      and\n        /* \"SVG-MVP_football_ERC1155/contracts/getPlayerSvg.sol\":7598:7614  heinzLindner.svg */\n      0xffffffffffffffffffffffffffffffffffffffff\n      and\n      0xbd85f55f\n        /* \"SVG-MVP_football_ERC1155/contracts/getPlayerSvg.sol\":7598:7616  heinzLindner.svg() */\n      mload(0x40)\n      dup2\n      0xffffffff\n      and\n      0xe0\n      shl\n      dup2\n      mstore\n      0x04\n      add\n      0x00\n      mload(0x40)\n      dup1\n      dup4\n      sub\n      dup2\n      dup7\n      dup1\n      extcodesize\n      iszero\n      dup1\n      iszero\n      tag_86\n      jumpi\n      0x00\n      dup1\n      revert\n    tag_86:\n      pop\n      gas\n      staticcall\n      iszero\n      dup1\n      iszero\n      tag_88\n      jumpi\n      returndatasize\n      0x00\n      dup1\n      returndatacopy\n      revert(0x00, returndatasize)\n    tag_88:\n      pop\n      pop\n      pop\n      pop\n      mload(0x40)\n      returndatasize\n      0x00\n      dup3\n      returndatacopy\n      returndatasize\n      not(0x1f)\n      0x1f\n      dup3\n      add\n      and\n      dup3\n      add\n      dup1\n      0x40\n      mstore\n      pop\n      dup2\n      add\n      swap1\n      tag_89\n      swap2\n      swap1\n      tag_52\n      jump\t// in\n    tag_89:\n        /* \"SVG-MVP_football_ERC1155/contracts/getPlayerSvg.sol\":7576:7617  abi.encodePacked(svg, heinzLindner.svg()) */\n      add(0x20, mload(0x40))\n      tag_90\n      swap3\n      swap2\n      swap1\n      tag_54\n      jump\t// in\n    tag_90:\n      mload(0x40)\n      0x20\n      dup2\n      dup4\n      sub\n      sub\n      dup2\n      mstore\n      swap1\n      0x40\n      mstore\n        /* \"SVG-MVP_football_ERC1155/contracts/getPlayerSvg.sol\":7562:7618  _svg = string(abi.encodePacked(svg, heinzLindner.svg())) */\n      swap1\n      pop\n        /* \"SVG-MVP_football_ERC1155/contracts/getPlayerSvg.sol\":7470:7621  if (keccak256(abi.encodePacked(\"Heinz Lindner\")) == keccak256(abi.encodePacked(name)) ) {... */\n    tag_85:\n        /* \"SVG-MVP_football_ERC1155/contracts/getPlayerSvg.sol\":6756:7624  function addImage(string memory svg, string memory name) internal view returns (string memory _svg) {... */\n      swap3\n      swap2\n      pop\n      pop\n      jump\t// out\n        /* \"@openzeppelin/contracts/utils/Strings.sol\":328:1031  function toString(uint256 value) internal pure returns (string memory) {... */\n    tag_29:\n        /* \"@openzeppelin/contracts/utils/Strings.sol\":384:397  string memory */\n      0x60\n        /* \"@openzeppelin/contracts/utils/Strings.sol\":610:611  0 */\n      0x00\n        /* \"@openzeppelin/contracts/utils/Strings.sol\":601:606  value */\n      dup3\n        /* \"@openzeppelin/contracts/utils/Strings.sol\":601:611  value == 0 */\n      eq\n        /* \"@openzeppelin/contracts/utils/Strings.sol\":597:648  if (value == 0) {... */\n      iszero\n      tag_92\n      jumpi\n        /* \"@openzeppelin/contracts/utils/Strings.sol\":627:637  return \"0\" */\n      mload(0x40)\n      dup1\n      0x40\n      add\n      0x40\n      mstore\n      dup1\n      0x01\n      dup2\n      mstore\n      0x20\n      add\n      0x3000000000000000000000000000000000000000000000000000000000000000\n      dup2\n      mstore\n      pop\n      swap1\n      pop\n      jump(tag_91)\n        /* \"@openzeppelin/contracts/utils/Strings.sol\":597:648  if (value == 0) {... */\n    tag_92:\n        /* \"@openzeppelin/contracts/utils/Strings.sol\":657:669  uint256 temp */\n      0x00\n        /* \"@openzeppelin/contracts/utils/Strings.sol\":672:677  value */\n      dup3\n        /* \"@openzeppelin/contracts/utils/Strings.sol\":657:677  uint256 temp = value */\n      swap1\n      pop\n        /* \"@openzeppelin/contracts/utils/Strings.sol\":687:701  uint256 digits */\n      0x00\n        /* \"@openzeppelin/contracts/utils/Strings.sol\":711:786  while (temp != 0) {... */\n    tag_93:\n        /* \"@openzeppelin/contracts/utils/Strings.sol\":726:727  0 */\n      0x00\n        /* \"@openzeppelin/contracts/utils/Strings.sol\":718:722  temp */\n      dup3\n        /* \"@openzeppelin/contracts/utils/Strings.sol\":718:727  temp != 0 */\n      eq\n        /* \"@openzeppelin/contracts/utils/Strings.sol\":711:786  while (temp != 0) {... */\n      tag_94\n      jumpi\n        /* \"@openzeppelin/contracts/utils/Strings.sol\":743:751  digits++ */\n      dup1\n      dup1\n      tag_95\n      swap1\n      tag_96\n      jump\t// in\n    tag_95:\n      swap2\n      pop\n      pop\n        /* \"@openzeppelin/contracts/utils/Strings.sol\":773:775  10 */\n      0x0a\n        /* \"@openzeppelin/contracts/utils/Strings.sol\":765:775  temp /= 10 */\n      dup3\n      tag_97\n      swap2\n      swap1\n      tag_98\n      jump\t// in\n    tag_97:\n      swap2\n      pop\n        /* \"@openzeppelin/contracts/utils/Strings.sol\":711:786  while (temp != 0) {... */\n      jump(tag_93)\n    tag_94:\n        /* \"@openzeppelin/contracts/utils/Strings.sol\":795:814  bytes memory buffer */\n      0x00\n        /* \"@openzeppelin/contracts/utils/Strings.sol\":827:833  digits */\n      dup2\n        /* \"@openzeppelin/contracts/utils/Strings.sol\":817:834  new bytes(digits) */\n      0xffffffffffffffff\n      dup2\n      gt\n      iszero\n      tag_99\n      jumpi\n      tag_100\n      tag_101\n      jump\t// in\n    tag_100:\n    tag_99:\n      mload(0x40)\n      swap1\n      dup1\n      dup3\n      mstore\n      dup1\n      0x1f\n      add\n      not(0x1f)\n      and\n      0x20\n      add\n      dup3\n      add\n      0x40\n      mstore\n      dup1\n      iszero\n      tag_102\n      jumpi\n      dup2\n      0x20\n      add\n      0x01\n      dup3\n      mul\n      dup1\n      calldatasize\n      dup4\n      calldatacopy\n      dup1\n      dup3\n      add\n      swap2\n      pop\n      pop\n      swap1\n      pop\n    tag_102:\n      pop\n        /* \"@openzeppelin/contracts/utils/Strings.sol\":795:834  bytes memory buffer = new bytes(digits) */\n      swap1\n      pop\n        /* \"@openzeppelin/contracts/utils/Strings.sol\":844:994  while (value != 0) {... */\n    tag_103:\n        /* \"@openzeppelin/contracts/utils/Strings.sol\":860:861  0 */\n      0x00\n        /* \"@openzeppelin/contracts/utils/Strings.sol\":851:856  value */\n      dup6\n        /* \"@openzeppelin/contracts/utils/Strings.sol\":851:861  value != 0 */\n      eq\n        /* \"@openzeppelin/contracts/utils/Strings.sol\":844:994  while (value != 0) {... */\n      tag_104\n      jumpi\n        /* \"@openzeppelin/contracts/utils/Strings.sol\":887:888  1 */\n      0x01\n        /* \"@openzeppelin/contracts/utils/Strings.sol\":877:888  digits -= 1 */\n      dup3\n      tag_105\n      swap2\n      swap1\n      tag_106\n      jump\t// in\n    tag_105:\n      swap2\n      pop\n        /* \"@openzeppelin/contracts/utils/Strings.sol\":953:955  10 */\n      0x0a\n        /* \"@openzeppelin/contracts/utils/Strings.sol\":945:950  value */\n      dup6\n        /* \"@openzeppelin/contracts/utils/Strings.sol\":945:955  value % 10 */\n      tag_107\n      swap2\n      swap1\n      tag_108\n      jump\t// in\n    tag_107:\n        /* \"@openzeppelin/contracts/utils/Strings.sol\":932:934  48 */\n      0x30\n        /* \"@openzeppelin/contracts/utils/Strings.sol\":932:956  48 + uint256(value % 10) */\n      tag_109\n      swap2\n      swap1\n      tag_110\n      jump\t// in\n    tag_109:\n        /* \"@openzeppelin/contracts/utils/Strings.sol\":919:958  bytes1(uint8(48 + uint256(value % 10))) */\n      0xf8\n      shl\n        /* \"@openzeppelin/contracts/utils/Strings.sol\":902:908  buffer */\n      dup2\n        /* \"@openzeppelin/contracts/utils/Strings.sol\":909:915  digits */\n      dup4\n        /* \"@openzeppelin/contracts/utils/Strings.sol\":902:916  buffer[digits] */\n      dup2\n      mload\n      dup2\n      lt\n      tag_111\n      jumpi\n      tag_112\n      tag_113\n      jump\t// in\n    tag_112:\n    tag_111:\n      0x20\n      add\n      add\n        /* \"@openzeppelin/contracts/utils/Strings.sol\":902:958  buffer[digits] = bytes1(uint8(48 + uint256(value % 10))) */\n      swap1\n      not(0xffffffffffffffffffffffffffffffffffffffffffffffffffffffffffffff)\n      and\n      swap1\n      dup2\n      0x00\n      byte\n      swap1\n      mstore8\n      pop\n        /* \"@openzeppelin/contracts/utils/Strings.sol\":981:983  10 */\n      0x0a\n        /* \"@openzeppelin/contracts/utils/Strings.sol\":972:983  value /= 10 */\n      dup6\n      tag_114\n      swap2\n      swap1\n      tag_98\n      jump\t// in\n    tag_114:\n      swap5\n      pop\n        /* \"@openzeppelin/contracts/utils/Strings.sol\":844:994  while (value != 0) {... */\n      jump(tag_103)\n    tag_104:\n        /* \"@openzeppelin/contracts/utils/Strings.sol\":1017:1023  buffer */\n      dup1\n        /* \"@openzeppelin/contracts/utils/Strings.sol\":1003:1024  return string(buffer) */\n      swap4\n      pop\n      pop\n      pop\n      pop\n        /* \"@openzeppelin/contracts/utils/Strings.sol\":328:1031  function toString(uint256 value) internal pure returns (string memory) {... */\n    tag_91:\n      swap2\n      swap1\n      pop\n      jump\t// out\n        /* \"#utility.yul\":7:419   */\n    tag_116:\n        /* \"#utility.yul\":85:90   */\n      0x00\n        /* \"#utility.yul\":110:176   */\n      tag_118\n        /* \"#utility.yul\":126:175   */\n      tag_119\n        /* \"#utility.yul\":168:174   */\n      dup5\n        /* \"#utility.yul\":126:175   */\n      tag_120\n      jump\t// in\n    tag_119:\n        /* \"#utility.yul\":110:176   */\n      tag_121\n      jump\t// in\n    tag_118:\n        /* \"#utility.yul\":101:176   */\n      swap1\n      pop\n        /* \"#utility.yul\":199:205   */\n      dup3\n        /* \"#utility.yul\":192:197   */\n      dup2\n        /* \"#utility.yul\":185:206   */\n      mstore\n        /* \"#utility.yul\":237:241   */\n      0x20\n        /* \"#utility.yul\":230:235   */\n      dup2\n        /* \"#utility.yul\":226:242   */\n      add\n        /* \"#utility.yul\":275:278   */\n      dup5\n        /* \"#utility.yul\":266:272   */\n      dup5\n        /* \"#utility.yul\":261:264   */\n      dup5\n        /* \"#utility.yul\":257:273   */\n      add\n        /* \"#utility.yul\":254:279   */\n      gt\n        /* \"#utility.yul\":251:363   */\n      iszero\n      tag_122\n      jumpi\n        /* \"#utility.yul\":282:361   */\n      tag_123\n      tag_124\n      jump\t// in\n    tag_123:\n        /* \"#utility.yul\":251:363   */\n    tag_122:\n        /* \"#utility.yul\":372:413   */\n      tag_125\n        /* \"#utility.yul\":406:412   */\n      dup5\n        /* \"#utility.yul\":401:404   */\n      dup3\n        /* \"#utility.yul\":396:399   */\n      dup6\n        /* \"#utility.yul\":372:413   */\n      tag_126\n      jump\t// in\n    tag_125:\n        /* \"#utility.yul\":91:419   */\n      pop\n        /* \"#utility.yul\":7:419   */\n      swap4\n      swap3\n      pop\n      pop\n      pop\n      jump\t// out\n        /* \"#utility.yul\":425:846   */\n    tag_127:\n        /* \"#utility.yul\":514:519   */\n      0x00\n        /* \"#utility.yul\":539:605   */\n      tag_129\n        /* \"#utility.yul\":555:604   */\n      tag_130\n        /* \"#utility.yul\":597:603   */\n      dup5\n        /* \"#utility.yul\":555:604   */\n      tag_120\n      jump\t// in\n    tag_130:\n        /* \"#utility.yul\":539:605   */\n      tag_121\n      jump\t// in\n    tag_129:\n        /* \"#utility.yul\":530:605   */\n      swap1\n      pop\n        /* \"#utility.yul\":628:634   */\n      dup3\n        /* \"#utility.yul\":621:626   */\n      dup2\n        /* \"#utility.yul\":614:635   */\n      mstore\n        /* \"#utility.yul\":666:670   */\n      0x20\n        /* \"#utility.yul\":659:664   */\n      dup2\n        /* \"#utility.yul\":655:671   */\n      add\n        /* \"#utility.yul\":704:707   */\n      dup5\n        /* \"#utility.yul\":695:701   */\n      dup5\n        /* \"#utility.yul\":690:693   */\n      dup5\n        /* \"#utility.yul\":686:702   */\n      add\n        /* \"#utility.yul\":683:708   */\n      gt\n        /* \"#utility.yul\":680:792   */\n      iszero\n      tag_131\n      jumpi\n        /* \"#utility.yul\":711:790   */\n      tag_132\n      tag_124\n      jump\t// in\n    tag_132:\n        /* \"#utility.yul\":680:792   */\n    tag_131:\n        /* \"#utility.yul\":801:840   */\n      tag_133\n        /* \"#utility.yul\":833:839   */\n      dup5\n        /* \"#utility.yul\":828:831   */\n      dup3\n        /* \"#utility.yul\":823:826   */\n      dup6\n        /* \"#utility.yul\":801:840   */\n      tag_134\n      jump\t// in\n    tag_133:\n        /* \"#utility.yul\":520:846   */\n      pop\n        /* \"#utility.yul\":425:846   */\n      swap4\n      swap3\n      pop\n      pop\n      pop\n      jump\t// out\n        /* \"#utility.yul\":866:1206   */\n    tag_135:\n        /* \"#utility.yul\":922:927   */\n      0x00\n        /* \"#utility.yul\":971:974   */\n      dup3\n        /* \"#utility.yul\":964:968   */\n      0x1f\n        /* \"#utility.yul\":956:962   */\n      dup4\n        /* \"#utility.yul\":952:969   */\n      add\n        /* \"#utility.yul\":948:975   */\n      slt\n        /* \"#utility.yul\":938:1060   */\n      tag_137\n      jumpi\n        /* \"#utility.yul\":979:1058   */\n      tag_138\n      tag_139\n      jump\t// in\n    tag_138:\n        /* \"#utility.yul\":938:1060   */\n    tag_137:\n        /* \"#utility.yul\":1096:1102   */\n      dup2\n        /* \"#utility.yul\":1083:1103   */\n      calldataload\n        /* \"#utility.yul\":1121:1200   */\n      tag_140\n        /* \"#utility.yul\":1196:1199   */\n      dup5\n        /* \"#utility.yul\":1188:1194   */\n      dup3\n        /* \"#utility.yul\":1181:1185   */\n      0x20\n        /* \"#utility.yul\":1173:1179   */\n      dup7\n        /* \"#utility.yul\":1169:1186   */\n      add\n        /* \"#utility.yul\":1121:1200   */\n      tag_116\n      jump\t// in\n    tag_140:\n        /* \"#utility.yul\":1112:1200   */\n      swap2\n      pop\n        /* \"#utility.yul\":928:1206   */\n      pop\n        /* \"#utility.yul\":866:1206   */\n      swap3\n      swap2\n      pop\n      pop\n      jump\t// out\n        /* \"#utility.yul\":1226:1581   */\n    tag_141:\n        /* \"#utility.yul\":1293:1298   */\n      0x00\n        /* \"#utility.yul\":1342:1345   */\n      dup3\n        /* \"#utility.yul\":1335:1339   */\n      0x1f\n        /* \"#utility.yul\":1327:1333   */\n      dup4\n        /* \"#utility.yul\":1323:1340   */\n      add\n        /* \"#utility.yul\":1319:1346   */\n      slt\n        /* \"#utility.yul\":1309:1431   */\n      tag_143\n      jumpi\n        /* \"#utility.yul\":1350:1429   */\n      tag_144\n      tag_139\n      jump\t// in\n    tag_144:\n        /* \"#utility.yul\":1309:1431   */\n    tag_143:\n        /* \"#utility.yul\":1460:1466   */\n      dup2\n        /* \"#utility.yul\":1454:1467   */\n      mload\n        /* \"#utility.yul\":1485:1575   */\n      tag_145\n        /* \"#utility.yul\":1571:1574   */\n      dup5\n        /* \"#utility.yul\":1563:1569   */\n      dup3\n        /* \"#utility.yul\":1556:1560   */\n      0x20\n        /* \"#utility.yul\":1548:1554   */\n      dup7\n        /* \"#utility.yul\":1544:1561   */\n      add\n        /* \"#utility.yul\":1485:1575   */\n      tag_127\n      jump\t// in\n    tag_145:\n        /* \"#utility.yul\":1476:1575   */\n      swap2\n      pop\n        /* \"#utility.yul\":1299:1581   */\n      pop\n        /* \"#utility.yul\":1226:1581   */\n      swap3\n      swap2\n      pop\n      pop\n      jump\t// out\n        /* \"#utility.yul\":1587:1726   */\n    tag_146:\n        /* \"#utility.yul\":1633:1638   */\n      0x00\n        /* \"#utility.yul\":1671:1677   */\n      dup2\n        /* \"#utility.yul\":1658:1678   */\n      calldataload\n        /* \"#utility.yul\":1649:1678   */\n      swap1\n      pop\n        /* \"#utility.yul\":1687:1720   */\n      tag_148\n        /* \"#utility.yul\":1714:1719   */\n      dup2\n        /* \"#utility.yul\":1687:1720   */\n      tag_149\n      jump\t// in\n    tag_148:\n        /* \"#utility.yul\":1587:1726   */\n      swap3\n      swap2\n      pop\n      pop\n      jump\t// out\n        /* \"#utility.yul\":1732:2256   */\n    tag_52:\n        /* \"#utility.yul\":1812:1818   */\n      0x00\n        /* \"#utility.yul\":1861:1863   */\n      0x20\n        /* \"#utility.yul\":1849:1858   */\n      dup3\n        /* \"#utility.yul\":1840:1847   */\n      dup5\n        /* \"#utility.yul\":1836:1859   */\n      sub\n        /* \"#utility.yul\":1832:1864   */\n      slt\n        /* \"#utility.yul\":1829:1948   */\n      iszero\n      tag_151\n      jumpi\n        /* \"#utility.yul\":1867:1946   */\n      tag_152\n      tag_153\n      jump\t// in\n    tag_152:\n        /* \"#utility.yul\":1829:1948   */\n    tag_151:\n        /* \"#utility.yul\":2008:2009   */\n      0x00\n        /* \"#utility.yul\":1997:2006   */\n      dup3\n        /* \"#utility.yul\":1993:2010   */\n      add\n        /* \"#utility.yul\":1987:2011   */\n      mload\n        /* \"#utility.yul\":2038:2056   */\n      0xffffffffffffffff\n        /* \"#utility.yul\":2030:2036   */\n      dup2\n        /* \"#utility.yul\":2027:2057   */\n      gt\n        /* \"#utility.yul\":2024:2141   */\n      iszero\n      tag_154\n      jumpi\n        /* \"#utility.yul\":2060:2139   */\n      tag_155\n      tag_156\n      jump\t// in\n    tag_155:\n        /* \"#utility.yul\":2024:2141   */\n    tag_154:\n        /* \"#utility.yul\":2165:2239   */\n      tag_157\n        /* \"#utility.yul\":2231:2238   */\n      dup5\n        /* \"#utility.yul\":2222:2228   */\n      dup3\n        /* \"#utility.yul\":2211:2220   */\n      dup6\n        /* \"#utility.yul\":2207:2229   */\n      add\n        /* \"#utility.yul\":2165:2239   */\n      tag_141\n      jump\t// in\n    tag_157:\n        /* \"#utility.yul\":2155:2239   */\n      swap2\n      pop\n        /* \"#utility.yul\":1958:2249   */\n      pop\n        /* \"#utility.yul\":1732:2256   */\n      swap3\n      swap2\n      pop\n      pop\n      jump\t// out\n        /* \"#utility.yul\":2262:3679   */\n    tag_6:\n        /* \"#utility.yul\":2386:2392   */\n      0x00\n        /* \"#utility.yul\":2394:2400   */\n      dup1\n        /* \"#utility.yul\":2402:2408   */\n      0x00\n        /* \"#utility.yul\":2410:2416   */\n      dup1\n        /* \"#utility.yul\":2418:2424   */\n      0x00\n        /* \"#utility.yul\":2426:2432   */\n      dup1\n        /* \"#utility.yul\":2475:2478   */\n      0xc0\n        /* \"#utility.yul\":2463:2472   */\n      dup8\n        /* \"#utility.yul\":2454:2461   */\n      dup10\n        /* \"#utility.yul\":2450:2473   */\n      sub\n        /* \"#utility.yul\":2446:2479   */\n      slt\n        /* \"#utility.yul\":2443:2563   */\n      iszero\n      tag_159\n      jumpi\n        /* \"#utility.yul\":2482:2561   */\n      tag_160\n      tag_153\n      jump\t// in\n    tag_160:\n        /* \"#utility.yul\":2443:2563   */\n    tag_159:\n        /* \"#utility.yul\":2602:2603   */\n      0x00\n        /* \"#utility.yul\":2627:2680   */\n      tag_161\n        /* \"#utility.yul\":2672:2679   */\n      dup10\n        /* \"#utility.yul\":2663:2669   */\n      dup3\n        /* \"#utility.yul\":2652:2661   */\n      dup11\n        /* \"#utility.yul\":2648:2670   */\n      add\n        /* \"#utility.yul\":2627:2680   */\n      tag_146\n      jump\t// in\n    tag_161:\n        /* \"#utility.yul\":2617:2680   */\n      swap7\n      pop\n        /* \"#utility.yul\":2573:2690   */\n      pop\n        /* \"#utility.yul\":2729:2731   */\n      0x20\n        /* \"#utility.yul\":2755:2808   */\n      tag_162\n        /* \"#utility.yul\":2800:2807   */\n      dup10\n        /* \"#utility.yul\":2791:2797   */\n      dup3\n        /* \"#utility.yul\":2780:2789   */\n      dup11\n        /* \"#utility.yul\":2776:2798   */\n      add\n        /* \"#utility.yul\":2755:2808   */\n      tag_146\n      jump\t// in\n    tag_162:\n        /* \"#utility.yul\":2745:2808   */\n      swap6\n      pop\n        /* \"#utility.yul\":2700:2818   */\n      pop\n        /* \"#utility.yul\":2857:2859   */\n      0x40\n        /* \"#utility.yul\":2883:2936   */\n      tag_163\n        /* \"#utility.yul\":2928:2935   */\n      dup10\n        /* \"#utility.yul\":2919:2925   */\n      dup3\n        /* \"#utility.yul\":2908:2917   */\n      dup11\n        /* \"#utility.yul\":2904:2926   */\n      add\n        /* \"#utility.yul\":2883:2936   */\n      tag_146\n      jump\t// in\n    tag_163:\n        /* \"#utility.yul\":2873:2936   */\n      swap5\n      pop\n        /* \"#utility.yul\":2828:2946   */\n      pop\n        /* \"#utility.yul\":3013:3015   */\n      0x60\n        /* \"#utility.yul\":3002:3011   */\n      dup8\n        /* \"#utility.yul\":2998:3016   */\n      add\n        /* \"#utility.yul\":2985:3017   */\n      calldataload\n        /* \"#utility.yul\":3044:3062   */\n      0xffffffffffffffff\n        /* \"#utility.yul\":3036:3042   */\n      dup2\n        /* \"#utility.yul\":3033:3063   */\n      gt\n        /* \"#utility.yul\":3030:3147   */\n      iszero\n      tag_164\n      jumpi\n        /* \"#utility.yul\":3066:3145   */\n      tag_165\n      tag_156\n      jump\t// in\n    tag_165:\n        /* \"#utility.yul\":3030:3147   */\n    tag_164:\n        /* \"#utility.yul\":3171:3234   */\n      tag_166\n        /* \"#utility.yul\":3226:3233   */\n      dup10\n        /* \"#utility.yul\":3217:3223   */\n      dup3\n        /* \"#utility.yul\":3206:3215   */\n      dup11\n        /* \"#utility.yul\":3202:3224   */\n      add\n        /* \"#utility.yul\":3171:3234   */\n      tag_135\n      jump\t// in\n    tag_166:\n        /* \"#utility.yul\":3161:3234   */\n      swap4\n      pop\n        /* \"#utility.yul\":2956:3244   */\n      pop\n        /* \"#utility.yul\":3311:3314   */\n      0x80\n        /* \"#utility.yul\":3300:3309   */\n      dup8\n        /* \"#utility.yul\":3296:3315   */\n      add\n        /* \"#utility.yul\":3283:3316   */\n      calldataload\n        /* \"#utility.yul\":3343:3361   */\n      0xffffffffffffffff\n        /* \"#utility.yul\":3335:3341   */\n      dup2\n        /* \"#utility.yul\":3332:3362   */\n      gt\n        /* \"#utility.yul\":3329:3446   */\n      iszero\n      tag_167\n      jumpi\n        /* \"#utility.yul\":3365:3444   */\n      tag_168\n      tag_156\n      jump\t// in\n    tag_168:\n        /* \"#utility.yul\":3329:3446   */\n    tag_167:\n        /* \"#utility.yul\":3470:3533   */\n      tag_169\n        /* \"#utility.yul\":3525:3532   */\n      dup10\n        /* \"#utility.yul\":3516:3522   */\n      dup3\n        /* \"#utility.yul\":3505:3514   */\n      dup11\n        /* \"#utility.yul\":3501:3523   */\n      add\n        /* \"#utility.yul\":3470:3533   */\n      tag_135\n      jump\t// in\n    tag_169:\n        /* \"#utility.yul\":3460:3533   */\n      swap3\n      pop\n        /* \"#utility.yul\":3254:3543   */\n      pop\n        /* \"#utility.yul\":3582:3585   */\n      0xa0\n        /* \"#utility.yul\":3609:3662   */\n      tag_170\n        /* \"#utility.yul\":3654:3661   */\n      dup10\n        /* \"#utility.yul\":3645:3651   */\n      dup3\n        /* \"#utility.yul\":3634:3643   */\n      dup11\n        /* \"#utility.yul\":3630:3652   */\n      add\n        /* \"#utility.yul\":3609:3662   */\n      tag_146\n      jump\t// in\n    tag_170:\n        /* \"#utility.yul\":3599:3662   */\n      swap2\n      pop\n        /* \"#utility.yul\":3553:3672   */\n      pop\n        /* \"#utility.yul\":2262:3679   */\n      swap3\n      swap6\n      pop\n      swap3\n      swap6\n      pop\n      swap3\n      swap6\n      jump\t// out\n        /* \"#utility.yul\":3685:4049   */\n    tag_171:\n        /* \"#utility.yul\":3773:3776   */\n      0x00\n        /* \"#utility.yul\":3801:3840   */\n      tag_173\n        /* \"#utility.yul\":3834:3839   */\n      dup3\n        /* \"#utility.yul\":3801:3840   */\n      tag_174\n      jump\t// in\n    tag_173:\n        /* \"#utility.yul\":3856:3927   */\n      tag_175\n        /* \"#utility.yul\":3920:3926   */\n      dup2\n        /* \"#utility.yul\":3915:3918   */\n      dup6\n        /* \"#utility.yul\":3856:3927   */\n      tag_176\n      jump\t// in\n    tag_175:\n        /* \"#utility.yul\":3849:3927   */\n      swap4\n      pop\n        /* \"#utility.yul\":3936:3988   */\n      tag_177\n        /* \"#utility.yul\":3981:3987   */\n      dup2\n        /* \"#utility.yul\":3976:3979   */\n      dup6\n        /* \"#utility.yul\":3969:3973   */\n      0x20\n        /* \"#utility.yul\":3962:3967   */\n      dup7\n        /* \"#utility.yul\":3958:3974   */\n      add\n        /* \"#utility.yul\":3936:3988   */\n      tag_134\n      jump\t// in\n    tag_177:\n        /* \"#utility.yul\":4013:4042   */\n      tag_178\n        /* \"#utility.yul\":4035:4041   */\n      dup2\n        /* \"#utility.yul\":4013:4042   */\n      tag_179\n      jump\t// in\n    tag_178:\n        /* \"#utility.yul\":4008:4011   */\n      dup5\n        /* \"#utility.yul\":4004:4043   */\n      add\n        /* \"#utility.yul\":3997:4043   */\n      swap2\n      pop\n        /* \"#utility.yul\":3777:4049   */\n      pop\n        /* \"#utility.yul\":3685:4049   */\n      swap3\n      swap2\n      pop\n      pop\n      jump\t// out\n        /* \"#utility.yul\":4055:4432   */\n    tag_180:\n        /* \"#utility.yul\":4161:4164   */\n      0x00\n        /* \"#utility.yul\":4189:4228   */\n      tag_182\n        /* \"#utility.yul\":4222:4227   */\n      dup3\n        /* \"#utility.yul\":4189:4228   */\n      tag_174\n      jump\t// in\n    tag_182:\n        /* \"#utility.yul\":4244:4333   */\n      tag_183\n        /* \"#utility.yul\":4326:4332   */\n      dup2\n        /* \"#utility.yul\":4321:4324   */\n      dup6\n        /* \"#utility.yul\":4244:4333   */\n      tag_184\n      jump\t// in\n    tag_183:\n        /* \"#utility.yul\":4237:4333   */\n      swap4\n      pop\n        /* \"#utility.yul\":4342:4394   */\n      tag_185\n        /* \"#utility.yul\":4387:4393   */\n      dup2\n        /* \"#utility.yul\":4382:4385   */\n      dup6\n        /* \"#utility.yul\":4375:4379   */\n      0x20\n        /* \"#utility.yul\":4368:4373   */\n      dup7\n        /* \"#utility.yul\":4364:4380   */\n      add\n        /* \"#utility.yul\":4342:4394   */\n      tag_134\n      jump\t// in\n    tag_185:\n        /* \"#utility.yul\":4419:4425   */\n      dup1\n        /* \"#utility.yul\":4414:4417   */\n      dup5\n        /* \"#utility.yul\":4410:4426   */\n      add\n        /* \"#utility.yul\":4403:4426   */\n      swap2\n      pop\n        /* \"#utility.yul\":4165:4432   */\n      pop\n        /* \"#utility.yul\":4055:4432   */\n      swap3\n      swap2\n      pop\n      pop\n      jump\t// out\n        /* \"#utility.yul\":4438:4840   */\n    tag_186:\n        /* \"#utility.yul\":4598:4601   */\n      0x00\n        /* \"#utility.yul\":4619:4704   */\n      tag_188\n        /* \"#utility.yul\":4701:4703   */\n      0x0d\n        /* \"#utility.yul\":4696:4699   */\n      dup4\n        /* \"#utility.yul\":4619:4704   */\n      tag_184\n      jump\t// in\n    tag_188:\n        /* \"#utility.yul\":4612:4704   */\n      swap2\n      pop\n        /* \"#utility.yul\":4713:4806   */\n      tag_189\n        /* \"#utility.yul\":4802:4805   */\n      dup3\n        /* \"#utility.yul\":4713:4806   */\n      tag_190\n      jump\t// in\n    tag_189:\n        /* \"#utility.yul\":4831:4833   */\n      0x0d\n        /* \"#utility.yul\":4826:4829   */\n      dup3\n        /* \"#utility.yul\":4822:4834   */\n      add\n        /* \"#utility.yul\":4815:4834   */\n      swap1\n      pop\n        /* \"#utility.yul\":4438:4840   */\n      swap2\n      swap1\n      pop\n      jump\t// out\n        /* \"#utility.yul\":4846:5246   */\n    tag_191:\n        /* \"#utility.yul\":5006:5009   */\n      0x00\n        /* \"#utility.yul\":5027:5111   */\n      tag_193\n        /* \"#utility.yul\":5109:5110   */\n      0x07\n        /* \"#utility.yul\":5104:5107   */\n      dup4\n        /* \"#utility.yul\":5027:5111   */\n      tag_184\n      jump\t// in\n    tag_193:\n        /* \"#utility.yul\":5020:5111   */\n      swap2\n      pop\n        /* \"#utility.yul\":5120:5213   */\n      tag_194\n        /* \"#utility.yul\":5209:5212   */\n      dup3\n        /* \"#utility.yul\":5120:5213   */\n      tag_195\n      jump\t// in\n    tag_194:\n        /* \"#utility.yul\":5238:5239   */\n      0x07\n        /* \"#utility.yul\":5233:5236   */\n      dup3\n        /* \"#utility.yul\":5229:5240   */\n      add\n        /* \"#utility.yul\":5222:5240   */\n      swap1\n      pop\n        /* \"#utility.yul\":4846:5246   */\n      swap2\n      swap1\n      pop\n      jump\t// out\n        /* \"#utility.yul\":5252:5654   */\n    tag_196:\n        /* \"#utility.yul\":5412:5415   */\n      0x00\n        /* \"#utility.yul\":5433:5518   */\n      tag_198\n        /* \"#utility.yul\":5515:5517   */\n      0x42\n        /* \"#utility.yul\":5510:5513   */\n      dup4\n        /* \"#utility.yul\":5433:5518   */\n      tag_184\n      jump\t// in\n    tag_198:\n        /* \"#utility.yul\":5426:5518   */\n      swap2\n      pop\n        /* \"#utility.yul\":5527:5620   */\n      tag_199\n        /* \"#utility.yul\":5616:5619   */\n      dup3\n        /* \"#utility.yul\":5527:5620   */\n      tag_200\n      jump\t// in\n    tag_199:\n        /* \"#utility.yul\":5645:5647   */\n      0x42\n        /* \"#utility.yul\":5640:5643   */\n      dup3\n        /* \"#utility.yul\":5636:5648   */\n      add\n        /* \"#utility.yul\":5629:5648   */\n      swap1\n      pop\n        /* \"#utility.yul\":5252:5654   */\n      swap2\n      swap1\n      pop\n      jump\t// out\n        /* \"#utility.yul\":5660:6062   */\n    tag_201:\n        /* \"#utility.yul\":5820:5823   */\n      0x00\n        /* \"#utility.yul\":5841:5926   */\n      tag_203\n        /* \"#utility.yul\":5923:5925   */\n      0x1d\n        /* \"#utility.yul\":5918:5921   */\n      dup4\n        /* \"#utility.yul\":5841:5926   */\n      tag_184\n      jump\t// in\n    tag_203:\n        /* \"#utility.yul\":5834:5926   */\n      swap2\n      pop\n        /* \"#utility.yul\":5935:6028   */\n      tag_204\n        /* \"#utility.yul\":6024:6027   */\n      dup3\n        /* \"#utility.yul\":5935:6028   */\n      tag_205\n      jump\t// in\n    tag_204:\n        /* \"#utility.yul\":6053:6055   */\n      0x1d\n        /* \"#utility.yul\":6048:6051   */\n      dup3\n        /* \"#utility.yul\":6044:6056   */\n      add\n        /* \"#utility.yul\":6037:6056   */\n      swap1\n      pop\n        /* \"#utility.yul\":5660:6062   */\n      swap2\n      swap1\n      pop\n      jump\t// out\n        /* \"#utility.yul\":6068:6470   */\n    tag_206:\n        /* \"#utility.yul\":6228:6231   */\n      0x00\n        /* \"#utility.yul\":6249:6334   */\n      tag_208\n        /* \"#utility.yul\":6331:6333   */\n      0x20\n        /* \"#utility.yul\":6326:6329   */\n      dup4\n        /* \"#utility.yul\":6249:6334   */\n      tag_184\n      jump\t// in\n    tag_208:\n        /* \"#utility.yul\":6242:6334   */\n      swap2\n      pop\n        /* \"#utility.yul\":6343:6436   */\n      tag_209\n        /* \"#utility.yul\":6432:6435   */\n      dup3\n        /* \"#utility.yul\":6343:6436   */\n      tag_210\n      jump\t// in\n    tag_209:\n        /* \"#utility.yul\":6461:6463   */\n      0x20\n        /* \"#utility.yul\":6456:6459   */\n      dup3\n        /* \"#utility.yul\":6452:6464   */\n      add\n        /* \"#utility.yul\":6445:6464   */\n      swap1\n      pop\n        /* \"#utility.yul\":6068:6470   */\n      swap2\n      swap1\n      pop\n      jump\t// out\n        /* \"#utility.yul\":6476:6878   */\n    tag_211:\n        /* \"#utility.yul\":6636:6639   */\n      0x00\n        /* \"#utility.yul\":6657:6742   */\n      tag_213\n        /* \"#utility.yul\":6739:6741   */\n      0x1d\n        /* \"#utility.yul\":6734:6737   */\n      dup4\n        /* \"#utility.yul\":6657:6742   */\n      tag_184\n      jump\t// in\n    tag_213:\n        /* \"#utility.yul\":6650:6742   */\n      swap2\n      pop\n        /* \"#utility.yul\":6751:6844   */\n      tag_214\n        /* \"#utility.yul\":6840:6843   */\n      dup3\n        /* \"#utility.yul\":6751:6844   */\n      tag_215\n      jump\t// in\n    tag_214:\n        /* \"#utility.yul\":6869:6871   */\n      0x1d\n        /* \"#utility.yul\":6864:6867   */\n      dup3\n        /* \"#utility.yul\":6860:6872   */\n      add\n        /* \"#utility.yul\":6853:6872   */\n      swap1\n      pop\n        /* \"#utility.yul\":6476:6878   */\n      swap2\n      swap1\n      pop\n      jump\t// out\n        /* \"#utility.yul\":6884:7286   */\n    tag_216:\n        /* \"#utility.yul\":7044:7047   */\n      0x00\n        /* \"#utility.yul\":7065:7150   */\n      tag_218\n        /* \"#utility.yul\":7147:7149   */\n      0x20\n        /* \"#utility.yul\":7142:7145   */\n      dup4\n        /* \"#utility.yul\":7065:7150   */\n      tag_184\n      jump\t// in\n    tag_218:\n        /* \"#utility.yul\":7058:7150   */\n      swap2\n      pop\n        /* \"#utility.yul\":7159:7252   */\n      tag_219\n        /* \"#utility.yul\":7248:7251   */\n      dup3\n        /* \"#utility.yul\":7159:7252   */\n      tag_220\n      jump\t// in\n    tag_219:\n        /* \"#utility.yul\":7277:7279   */\n      0x20\n        /* \"#utility.yul\":7272:7275   */\n      dup3\n        /* \"#utility.yul\":7268:7280   */\n      add\n        /* \"#utility.yul\":7261:7280   */\n      swap1\n      pop\n        /* \"#utility.yul\":6884:7286   */\n      swap2\n      swap1\n      pop\n      jump\t// out\n        /* \"#utility.yul\":7292:7694   */\n    tag_221:\n        /* \"#utility.yul\":7452:7455   */\n      0x00\n        /* \"#utility.yul\":7473:7558   */\n      tag_223\n        /* \"#utility.yul\":7555:7557   */\n      0x0b\n        /* \"#utility.yul\":7550:7553   */\n      dup4\n        /* \"#utility.yul\":7473:7558   */\n      tag_184\n      jump\t// in\n    tag_223:\n        /* \"#utility.yul\":7466:7558   */\n      swap2\n      pop\n        /* \"#utility.yul\":7567:7660   */\n      tag_224\n        /* \"#utility.yul\":7656:7659   */\n      dup3\n        /* \"#utility.yul\":7567:7660   */\n      tag_225\n      jump\t// in\n    tag_224:\n        /* \"#utility.yul\":7685:7687   */\n      0x0b\n        /* \"#utility.yul\":7680:7683   */\n      dup3\n        /* \"#utility.yul\":7676:7688   */\n      add\n        /* \"#utility.yul\":7669:7688   */\n      swap1\n      pop\n        /* \"#utility.yul\":7292:7694   */\n      swap2\n      swap1\n      pop\n      jump\t// out\n        /* \"#utility.yul\":7700:8100   */\n    tag_226:\n        /* \"#utility.yul\":7860:7863   */\n      0x00\n        /* \"#utility.yul\":7881:7965   */\n      tag_228\n        /* \"#utility.yul\":7963:7964   */\n      0x08\n        /* \"#utility.yul\":7958:7961   */\n      dup4\n        /* \"#utility.yul\":7881:7965   */\n      tag_184\n      jump\t// in\n    tag_228:\n        /* \"#utility.yul\":7874:7965   */\n      swap2\n      pop\n        /* \"#utility.yul\":7974:8067   */\n      tag_229\n        /* \"#utility.yul\":8063:8066   */\n      dup3\n        /* \"#utility.yul\":7974:8067   */\n      tag_230\n      jump\t// in\n    tag_229:\n        /* \"#utility.yul\":8092:8093   */\n      0x08\n        /* \"#utility.yul\":8087:8090   */\n      dup3\n        /* \"#utility.yul\":8083:8094   */\n      add\n        /* \"#utility.yul\":8076:8094   */\n      swap1\n      pop\n        /* \"#utility.yul\":7700:8100   */\n      swap2\n      swap1\n      pop\n      jump\t// out\n        /* \"#utility.yul\":8106:8506   */\n    tag_231:\n        /* \"#utility.yul\":8266:8269   */\n      0x00\n        /* \"#utility.yul\":8287:8371   */\n      tag_233\n        /* \"#utility.yul\":8369:8370   */\n      0x04\n        /* \"#utility.yul\":8364:8367   */\n      dup4\n        /* \"#utility.yul\":8287:8371   */\n      tag_184\n      jump\t// in\n    tag_233:\n        /* \"#utility.yul\":8280:8371   */\n      swap2\n      pop\n        /* \"#utility.yul\":8380:8473   */\n      tag_234\n        /* \"#utility.yul\":8469:8472   */\n      dup3\n        /* \"#utility.yul\":8380:8473   */\n      tag_235\n      jump\t// in\n    tag_234:\n        /* \"#utility.yul\":8498:8499   */\n      0x04\n        /* \"#utility.yul\":8493:8496   */\n      dup3\n        /* \"#utility.yul\":8489:8500   */\n      add\n        /* \"#utility.yul\":8482:8500   */\n      swap1\n      pop\n        /* \"#utility.yul\":8106:8506   */\n      swap2\n      swap1\n      pop\n      jump\t// out\n        /* \"#utility.yul\":8512:8914   */\n    tag_236:\n        /* \"#utility.yul\":8672:8675   */\n      0x00\n        /* \"#utility.yul\":8693:8778   */\n      tag_238\n        /* \"#utility.yul\":8775:8777   */\n      0x0d\n        /* \"#utility.yul\":8770:8773   */\n      dup4\n        /* \"#utility.yul\":8693:8778   */\n      tag_184\n      jump\t// in\n    tag_238:\n        /* \"#utility.yul\":8686:8778   */\n      swap2\n      pop\n        /* \"#utility.yul\":8787:8880   */\n      tag_239\n        /* \"#utility.yul\":8876:8879   */\n      dup3\n        /* \"#utility.yul\":8787:8880   */\n      tag_240\n      jump\t// in\n    tag_239:\n        /* \"#utility.yul\":8905:8907   */\n      0x0d\n        /* \"#utility.yul\":8900:8903   */\n      dup3\n        /* \"#utility.yul\":8896:8908   */\n      add\n        /* \"#utility.yul\":8889:8908   */\n      swap1\n      pop\n        /* \"#utility.yul\":8512:8914   */\n      swap2\n      swap1\n      pop\n      jump\t// out\n        /* \"#utility.yul\":8920:9322   */\n    tag_241:\n        /* \"#utility.yul\":9080:9083   */\n      0x00\n        /* \"#utility.yul\":9101:9186   */\n      tag_243\n        /* \"#utility.yul\":9183:9185   */\n      0x27\n        /* \"#utility.yul\":9178:9181   */\n      dup4\n        /* \"#utility.yul\":9101:9186   */\n      tag_184\n      jump\t// in\n    tag_243:\n        /* \"#utility.yul\":9094:9186   */\n      swap2\n      pop\n        /* \"#utility.yul\":9195:9288   */\n      tag_244\n        /* \"#utility.yul\":9284:9287   */\n      dup3\n        /* \"#utility.yul\":9195:9288   */\n      tag_245\n      jump\t// in\n    tag_244:\n        /* \"#utility.yul\":9313:9315   */\n      0x27\n        /* \"#utility.yul\":9308:9311   */\n      dup3\n        /* \"#utility.yul\":9304:9316   */\n      add\n        /* \"#utility.yul\":9297:9316   */\n      swap1\n      pop\n        /* \"#utility.yul\":8920:9322   */\n      swap2\n      swap1\n      pop\n      jump\t// out\n        /* \"#utility.yul\":9328:9730   */\n    tag_246:\n        /* \"#utility.yul\":9488:9491   */\n      0x00\n        /* \"#utility.yul\":9509:9594   */\n      tag_248\n        /* \"#utility.yul\":9591:9593   */\n      0x22\n        /* \"#utility.yul\":9586:9589   */\n      dup4\n        /* \"#utility.yul\":9509:9594   */\n      tag_184\n      jump\t// in\n    tag_248:\n        /* \"#utility.yul\":9502:9594   */\n      swap2\n      pop\n        /* \"#utility.yul\":9603:9696   */\n      tag_249\n        /* \"#utility.yul\":9692:9695   */\n      dup3\n        /* \"#utility.yul\":9603:9696   */\n      tag_250\n      jump\t// in\n    tag_249:\n        /* \"#utility.yul\":9721:9723   */\n      0x22\n        /* \"#utility.yul\":9716:9719   */\n      dup3\n        /* \"#utility.yul\":9712:9724   */\n      add\n        /* \"#utility.yul\":9705:9724   */\n      swap1\n      pop\n        /* \"#utility.yul\":9328:9730   */\n      swap2\n      swap1\n      pop\n      jump\t// out\n        /* \"#utility.yul\":9736:10138   */\n    tag_251:\n        /* \"#utility.yul\":9896:9899   */\n      0x00\n        /* \"#utility.yul\":9917:10002   */\n      tag_253\n        /* \"#utility.yul\":9999:10001   */\n      0x0c\n        /* \"#utility.yul\":9994:9997   */\n      dup4\n        /* \"#utility.yul\":9917:10002   */\n      tag_184\n      jump\t// in\n    tag_253:\n        /* \"#utility.yul\":9910:10002   */\n      swap2\n      pop\n        /* \"#utility.yul\":10011:10104   */\n      tag_254\n        /* \"#utility.yul\":10100:10103   */\n      dup3\n        /* \"#utility.yul\":10011:10104   */\n      tag_255\n      jump\t// in\n    tag_254:\n        /* \"#utility.yul\":10129:10131   */\n      0x0c\n        /* \"#utility.yul\":10124:10127   */\n      dup3\n        /* \"#utility.yul\":10120:10132   */\n      add\n        /* \"#utility.yul\":10113:10132   */\n      swap1\n      pop\n        /* \"#utility.yul\":9736:10138   */\n      swap2\n      swap1\n      pop\n      jump\t// out\n        /* \"#utility.yul\":10144:10544   */\n    tag_256:\n        /* \"#utility.yul\":10304:10307   */\n      0x00\n        /* \"#utility.yul\":10325:10409   */\n      tag_258\n        /* \"#utility.yul\":10407:10408   */\n      0x07\n        /* \"#utility.yul\":10402:10405   */\n      dup4\n        /* \"#utility.yul\":10325:10409   */\n      tag_184\n      jump\t// in\n    tag_258:\n        /* \"#utility.yul\":10318:10409   */\n      swap2\n      pop\n        /* \"#utility.yul\":10418:10511   */\n      tag_259\n        /* \"#utility.yul\":10507:10510   */\n      dup3\n        /* \"#utility.yul\":10418:10511   */\n      tag_260\n      jump\t// in\n    tag_259:\n        /* \"#utility.yul\":10536:10537   */\n      0x07\n        /* \"#utility.yul\":10531:10534   */\n      dup3\n        /* \"#utility.yul\":10527:10538   */\n      add\n        /* \"#utility.yul\":10520:10538   */\n      swap1\n      pop\n        /* \"#utility.yul\":10144:10544   */\n      swap2\n      swap1\n      pop\n      jump\t// out\n        /* \"#utility.yul\":10550:10952   */\n    tag_261:\n        /* \"#utility.yul\":10710:10713   */\n      0x00\n        /* \"#utility.yul\":10731:10816   */\n      tag_263\n        /* \"#utility.yul\":10813:10815   */\n      0x0f\n        /* \"#utility.yul\":10808:10811   */\n      dup4\n        /* \"#utility.yul\":10731:10816   */\n      tag_184\n      jump\t// in\n    tag_263:\n        /* \"#utility.yul\":10724:10816   */\n      swap2\n      pop\n        /* \"#utility.yul\":10825:10918   */\n      tag_264\n        /* \"#utility.yul\":10914:10917   */\n      dup3\n        /* \"#utility.yul\":10825:10918   */\n      tag_265\n      jump\t// in\n    tag_264:\n        /* \"#utility.yul\":10943:10945   */\n      0x0f\n        /* \"#utility.yul\":10938:10941   */\n      dup3\n        /* \"#utility.yul\":10934:10946   */\n      add\n        /* \"#utility.yul\":10927:10946   */\n      swap1\n      pop\n        /* \"#utility.yul\":10550:10952   */\n      swap2\n      swap1\n      pop\n      jump\t// out\n        /* \"#utility.yul\":10958:11364   */\n    tag_266:\n        /* \"#utility.yul\":11118:11121   */\n      0x00\n        /* \"#utility.yul\":11139:11226   */\n      tag_268\n        /* \"#utility.yul\":11221:11225   */\n      0x0434\n        /* \"#utility.yul\":11216:11219   */\n      dup4\n        /* \"#utility.yul\":11139:11226   */\n      tag_184\n      jump\t// in\n    tag_268:\n        /* \"#utility.yul\":11132:11226   */\n      swap2\n      pop\n        /* \"#utility.yul\":11235:11328   */\n      tag_269\n        /* \"#utility.yul\":11324:11327   */\n      dup3\n        /* \"#utility.yul\":11235:11328   */\n      tag_270\n      jump\t// in\n    tag_269:\n        /* \"#utility.yul\":11353:11357   */\n      0x0434\n        /* \"#utility.yul\":11348:11351   */\n      dup3\n        /* \"#utility.yul\":11344:11358   */\n      add\n        /* \"#utility.yul\":11337:11358   */\n      swap1\n      pop\n        /* \"#utility.yul\":10958:11364   */\n      swap2\n      swap1\n      pop\n      jump\t// out\n        /* \"#utility.yul\":11370:11770   */\n    tag_271:\n        /* \"#utility.yul\":11530:11533   */\n      0x00\n        /* \"#utility.yul\":11551:11635   */\n      tag_273\n        /* \"#utility.yul\":11633:11634   */\n      0x03\n        /* \"#utility.yul\":11628:11631   */\n      dup4\n        /* \"#utility.yul\":11551:11635   */\n      tag_184\n      jump\t// in\n    tag_273:\n        /* \"#utility.yul\":11544:11635   */\n      swap2\n      pop\n        /* \"#utility.yul\":11644:11737   */\n      tag_274\n        /* \"#utility.yul\":11733:11736   */\n      dup3\n        /* \"#utility.yul\":11644:11737   */\n      tag_275\n      jump\t// in\n    tag_274:\n        /* \"#utility.yul\":11762:11763   */\n      0x03\n        /* \"#utility.yul\":11757:11760   */\n      dup3\n        /* \"#utility.yul\":11753:11764   */\n      add\n        /* \"#utility.yul\":11746:11764   */\n      swap1\n      pop\n        /* \"#utility.yul\":11370:11770   */\n      swap2\n      swap1\n      pop\n      jump\t// out\n        /* \"#utility.yul\":11776:12182   */\n    tag_276:\n        /* \"#utility.yul\":11936:11939   */\n      0x00\n        /* \"#utility.yul\":11957:12044   */\n      tag_278\n        /* \"#utility.yul\":12039:12043   */\n      0x0433\n        /* \"#utility.yul\":12034:12037   */\n      dup4\n        /* \"#utility.yul\":11957:12044   */\n      tag_184\n      jump\t// in\n    tag_278:\n        /* \"#utility.yul\":11950:12044   */\n      swap2\n      pop\n        /* \"#utility.yul\":12053:12146   */\n      tag_279\n        /* \"#utility.yul\":12142:12145   */\n      dup3\n        /* \"#utility.yul\":12053:12146   */\n      tag_280\n      jump\t// in\n    tag_279:\n        /* \"#utility.yul\":12171:12175   */\n      0x0433\n        /* \"#utility.yul\":12166:12169   */\n      dup3\n        /* \"#utility.yul\":12162:12176   */\n      add\n        /* \"#utility.yul\":12155:12176   */\n      swap1\n      pop\n        /* \"#utility.yul\":11776:12182   */\n      swap2\n      swap1\n      pop\n      jump\t// out\n        /* \"#utility.yul\":12188:12588   */\n    tag_281:\n        /* \"#utility.yul\":12348:12351   */\n      0x00\n        /* \"#utility.yul\":12369:12453   */\n      tag_283\n        /* \"#utility.yul\":12451:12452   */\n      0x06\n        /* \"#utility.yul\":12446:12449   */\n      dup4\n        /* \"#utility.yul\":12369:12453   */\n      tag_184\n      jump\t// in\n    tag_283:\n        /* \"#utility.yul\":12362:12453   */\n      swap2\n      pop\n        /* \"#utility.yul\":12462:12555   */\n      tag_284\n        /* \"#utility.yul\":12551:12554   */\n      dup3\n        /* \"#utility.yul\":12462:12555   */\n      tag_285\n      jump\t// in\n    tag_284:\n        /* \"#utility.yul\":12580:12581   */\n      0x06\n        /* \"#utility.yul\":12575:12578   */\n      dup3\n        /* \"#utility.yul\":12571:12582   */\n      add\n        /* \"#utility.yul\":12564:12582   */\n      swap1\n      pop\n        /* \"#utility.yul\":12188:12588   */\n      swap2\n      swap1\n      pop\n      jump\t// out\n        /* \"#utility.yul\":12594:13000   */\n    tag_286:\n        /* \"#utility.yul\":12754:12757   */\n      0x00\n        /* \"#utility.yul\":12775:12862   */\n      tag_288\n        /* \"#utility.yul\":12857:12861   */\n      0x0432\n        /* \"#utility.yul\":12852:12855   */\n      dup4\n        /* \"#utility.yul\":12775:12862   */\n      tag_184\n      jump\t// in\n    tag_288:\n        /* \"#utility.yul\":12768:12862   */\n      swap2\n      pop\n        /* \"#utility.yul\":12871:12964   */\n      tag_289\n        /* \"#utility.yul\":12960:12963   */\n      dup3\n        /* \"#utility.yul\":12871:12964   */\n      tag_290\n      jump\t// in\n    tag_289:\n        /* \"#utility.yul\":12989:12993   */\n      0x0432\n        /* \"#utility.yul\":12984:12987   */\n      dup3\n        /* \"#utility.yul\":12980:12994   */\n      add\n        /* \"#utility.yul\":12973:12994   */\n      swap1\n      pop\n        /* \"#utility.yul\":12594:13000   */\n      swap2\n      swap1\n      pop\n      jump\t// out\n        /* \"#utility.yul\":13006:13406   */\n    tag_291:\n        /* \"#utility.yul\":13166:13169   */\n      0x00\n        /* \"#utility.yul\":13187:13271   */\n      tag_293\n        /* \"#utility.yul\":13269:13270   */\n      0x07\n        /* \"#utility.yul\":13264:13267   */\n      dup4\n        /* \"#utility.yul\":13187:13271   */\n      tag_184\n      jump\t// in\n    tag_293:\n        /* \"#utility.yul\":13180:13271   */\n      swap2\n      pop\n        /* \"#utility.yul\":13280:13373   */\n      tag_294\n        /* \"#utility.yul\":13369:13372   */\n      dup3\n        /* \"#utility.yul\":13280:13373   */\n      tag_295\n      jump\t// in\n    tag_294:\n        /* \"#utility.yul\":13398:13399   */\n      0x07\n        /* \"#utility.yul\":13393:13396   */\n      dup3\n        /* \"#utility.yul\":13389:13400   */\n      add\n        /* \"#utility.yul\":13382:13400   */\n      swap1\n      pop\n        /* \"#utility.yul\":13006:13406   */\n      swap2\n      swap1\n      pop\n      jump\t// out\n        /* \"#utility.yul\":13412:13816   */\n    tag_296:\n        /* \"#utility.yul\":13572:13575   */\n      0x00\n        /* \"#utility.yul\":13593:13679   */\n      tag_298\n        /* \"#utility.yul\":13675:13678   */\n      0x66\n        /* \"#utility.yul\":13670:13673   */\n      dup4\n        /* \"#utility.yul\":13593:13679   */\n      tag_184\n      jump\t// in\n    tag_298:\n        /* \"#utility.yul\":13586:13679   */\n      swap2\n      pop\n        /* \"#utility.yul\":13688:13781   */\n      tag_299\n        /* \"#utility.yul\":13777:13780   */\n      dup3\n        /* \"#utility.yul\":13688:13781   */\n      tag_300\n      jump\t// in\n    tag_299:\n        /* \"#utility.yul\":13806:13809   */\n      0x66\n        /* \"#utility.yul\":13801:13804   */\n      dup3\n        /* \"#utility.yul\":13797:13810   */\n      add\n        /* \"#utility.yul\":13790:13810   */\n      swap1\n      pop\n        /* \"#utility.yul\":13412:13816   */\n      swap2\n      swap1\n      pop\n      jump\t// out\n        /* \"#utility.yul\":13822:14097   */\n    tag_44:\n        /* \"#utility.yul\":13954:13957   */\n      0x00\n        /* \"#utility.yul\":13976:14071   */\n      tag_302\n        /* \"#utility.yul\":14067:14070   */\n      dup3\n        /* \"#utility.yul\":14058:14064   */\n      dup5\n        /* \"#utility.yul\":13976:14071   */\n      tag_180\n      jump\t// in\n    tag_302:\n        /* \"#utility.yul\":13969:14071   */\n      swap2\n      pop\n        /* \"#utility.yul\":14088:14091   */\n      dup2\n        /* \"#utility.yul\":14081:14091   */\n      swap1\n      pop\n        /* \"#utility.yul\":13822:14097   */\n      swap3\n      swap2\n      pop\n      pop\n      jump\t// out\n        /* \"#utility.yul\":14103:14538   */\n    tag_54:\n        /* \"#utility.yul\":14283:14286   */\n      0x00\n        /* \"#utility.yul\":14305:14400   */\n      tag_304\n        /* \"#utility.yul\":14396:14399   */\n      dup3\n        /* \"#utility.yul\":14387:14393   */\n      dup6\n        /* \"#utility.yul\":14305:14400   */\n      tag_180\n      jump\t// in\n    tag_304:\n        /* \"#utility.yul\":14298:14400   */\n      swap2\n      pop\n        /* \"#utility.yul\":14417:14512   */\n      tag_305\n        /* \"#utility.yul\":14508:14511   */\n      dup3\n        /* \"#utility.yul\":14499:14505   */\n      dup5\n        /* \"#utility.yul\":14417:14512   */\n      tag_180\n      jump\t// in\n    tag_305:\n        /* \"#utility.yul\":14410:14512   */\n      swap2\n      pop\n        /* \"#utility.yul\":14529:14532   */\n      dup2\n        /* \"#utility.yul\":14522:14532   */\n      swap1\n      pop\n        /* \"#utility.yul\":14103:14538   */\n      swap4\n      swap3\n      pop\n      pop\n      pop\n      jump\t// out\n        /* \"#utility.yul\":14544:15511   */\n    tag_34:\n        /* \"#utility.yul\":14926:14929   */\n      0x00\n        /* \"#utility.yul\":14948:15043   */\n      tag_307\n        /* \"#utility.yul\":15039:15042   */\n      dup3\n        /* \"#utility.yul\":15030:15036   */\n      dup6\n        /* \"#utility.yul\":14948:15043   */\n      tag_180\n      jump\t// in\n    tag_307:\n        /* \"#utility.yul\":14941:15043   */\n      swap2\n      pop\n        /* \"#utility.yul\":15060:15208   */\n      tag_308\n        /* \"#utility.yul\":15204:15207   */\n      dup3\n        /* \"#utility.yul\":15060:15208   */\n      tag_201\n      jump\t// in\n    tag_308:\n        /* \"#utility.yul\":15053:15208   */\n      swap2\n      pop\n        /* \"#utility.yul\":15225:15320   */\n      tag_309\n        /* \"#utility.yul\":15316:15319   */\n      dup3\n        /* \"#utility.yul\":15307:15313   */\n      dup5\n        /* \"#utility.yul\":15225:15320   */\n      tag_180\n      jump\t// in\n    tag_309:\n        /* \"#utility.yul\":15218:15320   */\n      swap2\n      pop\n        /* \"#utility.yul\":15337:15485   */\n      tag_310\n        /* \"#utility.yul\":15481:15484   */\n      dup3\n        /* \"#utility.yul\":15337:15485   */\n      tag_256\n      jump\t// in\n    tag_310:\n        /* \"#utility.yul\":15330:15485   */\n      swap2\n      pop\n        /* \"#utility.yul\":15502:15505   */\n      dup2\n        /* \"#utility.yul\":15495:15505   */\n      swap1\n      pop\n        /* \"#utility.yul\":14544:15511   */\n      swap4\n      swap3\n      pop\n      pop\n      pop\n      jump\t// out\n        /* \"#utility.yul\":15517:16484   */\n    tag_39:\n        /* \"#utility.yul\":15899:15902   */\n      0x00\n        /* \"#utility.yul\":15921:16016   */\n      tag_312\n        /* \"#utility.yul\":16012:16015   */\n      dup3\n        /* \"#utility.yul\":16003:16009   */\n      dup6\n        /* \"#utility.yul\":15921:16016   */\n      tag_180\n      jump\t// in\n    tag_312:\n        /* \"#utility.yul\":15914:16016   */\n      swap2\n      pop\n        /* \"#utility.yul\":16033:16181   */\n      tag_313\n        /* \"#utility.yul\":16177:16180   */\n      dup3\n        /* \"#utility.yul\":16033:16181   */\n      tag_206\n      jump\t// in\n    tag_313:\n        /* \"#utility.yul\":16026:16181   */\n      swap2\n      pop\n        /* \"#utility.yul\":16198:16293   */\n      tag_314\n        /* \"#utility.yul\":16289:16292   */\n      dup3\n        /* \"#utility.yul\":16280:16286   */\n      dup5\n        /* \"#utility.yul\":16198:16293   */\n      tag_180\n      jump\t// in\n    tag_314:\n        /* \"#utility.yul\":16191:16293   */\n      swap2\n      pop\n        /* \"#utility.yul\":16310:16458   */\n      tag_315\n        /* \"#utility.yul\":16454:16457   */\n      dup3\n        /* \"#utility.yul\":16310:16458   */\n      tag_256\n      jump\t// in\n    tag_315:\n        /* \"#utility.yul\":16303:16458   */\n      swap2\n      pop\n        /* \"#utility.yul\":16475:16478   */\n      dup2\n        /* \"#utility.yul\":16468:16478   */\n      swap1\n      pop\n        /* \"#utility.yul\":15517:16484   */\n      swap4\n      swap3\n      pop\n      pop\n      pop\n      jump\t// out\n        /* \"#utility.yul\":16490:17457   */\n    tag_37:\n        /* \"#utility.yul\":16872:16875   */\n      0x00\n        /* \"#utility.yul\":16894:16989   */\n      tag_317\n        /* \"#utility.yul\":16985:16988   */\n      dup3\n        /* \"#utility.yul\":16976:16982   */\n      dup6\n        /* \"#utility.yul\":16894:16989   */\n      tag_180\n      jump\t// in\n    tag_317:\n        /* \"#utility.yul\":16887:16989   */\n      swap2\n      pop\n        /* \"#utility.yul\":17006:17154   */\n      tag_318\n        /* \"#utility.yul\":17150:17153   */\n      dup3\n        /* \"#utility.yul\":17006:17154   */\n      tag_211\n      jump\t// in\n    tag_318:\n        /* \"#utility.yul\":16999:17154   */\n      swap2\n      pop\n        /* \"#utility.yul\":17171:17266   */\n      tag_319\n        /* \"#utility.yul\":17262:17265   */\n      dup3\n        /* \"#utility.yul\":17253:17259   */\n      dup5\n        /* \"#utility.yul\":17171:17266   */\n      tag_180\n      jump\t// in\n    tag_319:\n        /* \"#utility.yul\":17164:17266   */\n      swap2\n      pop\n        /* \"#utility.yul\":17283:17431   */\n      tag_320\n        /* \"#utility.yul\":17427:17430   */\n      dup3\n        /* \"#utility.yul\":17283:17431   */\n      tag_256\n      jump\t// in\n    tag_320:\n        /* \"#utility.yul\":17276:17431   */\n      swap2\n      pop\n        /* \"#utility.yul\":17448:17451   */\n      dup2\n        /* \"#utility.yul\":17441:17451   */\n      swap1\n      pop\n        /* \"#utility.yul\":16490:17457   */\n      swap4\n      swap3\n      pop\n      pop\n      pop\n      jump\t// out\n        /* \"#utility.yul\":17463:18696   */\n    tag_31:\n        /* \"#utility.yul\":17946:17949   */\n      0x00\n        /* \"#utility.yul\":17968:18063   */\n      tag_322\n        /* \"#utility.yul\":18059:18062   */\n      dup3\n        /* \"#utility.yul\":18050:18056   */\n      dup6\n        /* \"#utility.yul\":17968:18063   */\n      tag_180\n      jump\t// in\n    tag_322:\n        /* \"#utility.yul\":17961:18063   */\n      swap2\n      pop\n        /* \"#utility.yul\":18080:18228   */\n      tag_323\n        /* \"#utility.yul\":18224:18227   */\n      dup3\n        /* \"#utility.yul\":18080:18228   */\n      tag_216\n      jump\t// in\n    tag_323:\n        /* \"#utility.yul\":18073:18228   */\n      swap2\n      pop\n        /* \"#utility.yul\":18245:18340   */\n      tag_324\n        /* \"#utility.yul\":18336:18339   */\n      dup3\n        /* \"#utility.yul\":18327:18333   */\n      dup5\n        /* \"#utility.yul\":18245:18340   */\n      tag_180\n      jump\t// in\n    tag_324:\n        /* \"#utility.yul\":18238:18340   */\n      swap2\n      pop\n        /* \"#utility.yul\":18357:18505   */\n      tag_325\n        /* \"#utility.yul\":18501:18504   */\n      dup3\n        /* \"#utility.yul\":18357:18505   */\n      tag_271\n      jump\t// in\n    tag_325:\n        /* \"#utility.yul\":18350:18505   */\n      swap2\n      pop\n        /* \"#utility.yul\":18522:18670   */\n      tag_326\n        /* \"#utility.yul\":18666:18669   */\n      dup3\n        /* \"#utility.yul\":18522:18670   */\n      tag_256\n      jump\t// in\n    tag_326:\n        /* \"#utility.yul\":18515:18670   */\n      swap2\n      pop\n        /* \"#utility.yul\":18687:18690   */\n      dup2\n        /* \"#utility.yul\":18680:18690   */\n      swap1\n      pop\n        /* \"#utility.yul\":17463:18696   */\n      swap4\n      swap3\n      pop\n      pop\n      pop\n      jump\t// out\n        /* \"#utility.yul\":18702:19775   */\n    tag_14:\n        /* \"#utility.yul\":19137:19140   */\n      0x00\n        /* \"#utility.yul\":19159:19254   */\n      tag_328\n        /* \"#utility.yul\":19250:19253   */\n      dup3\n        /* \"#utility.yul\":19241:19247   */\n      dup5\n        /* \"#utility.yul\":19159:19254   */\n      tag_180\n      jump\t// in\n    tag_328:\n        /* \"#utility.yul\":19152:19254   */\n      swap2\n      pop\n        /* \"#utility.yul\":19271:19419   */\n      tag_329\n        /* \"#utility.yul\":19415:19418   */\n      dup3\n        /* \"#utility.yul\":19271:19419   */\n      tag_241\n      jump\t// in\n    tag_329:\n        /* \"#utility.yul\":19264:19419   */\n      swap2\n      pop\n        /* \"#utility.yul\":19436:19584   */\n      tag_330\n        /* \"#utility.yul\":19580:19583   */\n      dup3\n        /* \"#utility.yul\":19436:19584   */\n      tag_191\n      jump\t// in\n    tag_330:\n        /* \"#utility.yul\":19429:19584   */\n      swap2\n      pop\n        /* \"#utility.yul\":19601:19749   */\n      tag_331\n        /* \"#utility.yul\":19745:19748   */\n      dup3\n        /* \"#utility.yul\":19601:19749   */\n      tag_231\n      jump\t// in\n    tag_331:\n        /* \"#utility.yul\":19594:19749   */\n      swap2\n      pop\n        /* \"#utility.yul\":19766:19769   */\n      dup2\n        /* \"#utility.yul\":19759:19769   */\n      swap1\n      pop\n        /* \"#utility.yul\":18702:19775   */\n      swap3\n      swap2\n      pop\n      pop\n      jump\t// out\n        /* \"#utility.yul\":19781:20748   */\n    tag_27:\n        /* \"#utility.yul\":20163:20166   */\n      0x00\n        /* \"#utility.yul\":20185:20280   */\n      tag_333\n        /* \"#utility.yul\":20276:20279   */\n      dup3\n        /* \"#utility.yul\":20267:20273   */\n      dup6\n        /* \"#utility.yul\":20185:20280   */\n      tag_180\n      jump\t// in\n    tag_333:\n        /* \"#utility.yul\":20178:20280   */\n      swap2\n      pop\n        /* \"#utility.yul\":20297:20445   */\n      tag_334\n        /* \"#utility.yul\":20441:20444   */\n      dup3\n        /* \"#utility.yul\":20297:20445   */\n      tag_246\n      jump\t// in\n    tag_334:\n        /* \"#utility.yul\":20290:20445   */\n      swap2\n      pop\n        /* \"#utility.yul\":20462:20557   */\n      tag_335\n        /* \"#utility.yul\":20553:20556   */\n      dup3\n        /* \"#utility.yul\":20544:20550   */\n      dup5\n        /* \"#utility.yul\":20462:20557   */\n      tag_180\n      jump\t// in\n    tag_335:\n        /* \"#utility.yul\":20455:20557   */\n      swap2\n      pop\n        /* \"#utility.yul\":20574:20722   */\n      tag_336\n        /* \"#utility.yul\":20718:20721   */\n      dup3\n        /* \"#utility.yul\":20574:20722   */\n      tag_256\n      jump\t// in\n    tag_336:\n        /* \"#utility.yul\":20567:20722   */\n      swap2\n      pop\n        /* \"#utility.yul\":20739:20742   */\n      dup2\n        /* \"#utility.yul\":20732:20742   */\n      swap1\n      pop\n        /* \"#utility.yul\":19781:20748   */\n      swap4\n      swap3\n      pop\n      pop\n      pop\n      jump\t// out\n        /* \"#utility.yul\":20754:21295   */\n    tag_25:\n        /* \"#utility.yul\":20987:20990   */\n      0x00\n        /* \"#utility.yul\":21009:21104   */\n      tag_338\n        /* \"#utility.yul\":21100:21103   */\n      dup3\n        /* \"#utility.yul\":21091:21097   */\n      dup5\n        /* \"#utility.yul\":21009:21104   */\n      tag_180\n      jump\t// in\n    tag_338:\n        /* \"#utility.yul\":21002:21104   */\n      swap2\n      pop\n        /* \"#utility.yul\":21121:21269   */\n      tag_339\n        /* \"#utility.yul\":21265:21268   */\n      dup3\n        /* \"#utility.yul\":21121:21269   */\n      tag_266\n      jump\t// in\n    tag_339:\n        /* \"#utility.yul\":21114:21269   */\n      swap2\n      pop\n        /* \"#utility.yul\":21286:21289   */\n      dup2\n        /* \"#utility.yul\":21279:21289   */\n      swap1\n      pop\n        /* \"#utility.yul\":20754:21295   */\n      swap3\n      swap2\n      pop\n      pop\n      jump\t// out\n        /* \"#utility.yul\":21301:21842   */\n    tag_22:\n        /* \"#utility.yul\":21534:21537   */\n      0x00\n        /* \"#utility.yul\":21556:21651   */\n      tag_341\n        /* \"#utility.yul\":21647:21650   */\n      dup3\n        /* \"#utility.yul\":21638:21644   */\n      dup5\n        /* \"#utility.yul\":21556:21651   */\n      tag_180\n      jump\t// in\n    tag_341:\n        /* \"#utility.yul\":21549:21651   */\n      swap2\n      pop\n        /* \"#utility.yul\":21668:21816   */\n      tag_342\n        /* \"#utility.yul\":21812:21815   */\n      dup3\n        /* \"#utility.yul\":21668:21816   */\n      tag_276\n      jump\t// in\n    tag_342:\n        /* \"#utility.yul\":21661:21816   */\n      swap2\n      pop\n        /* \"#utility.yul\":21833:21836   */\n      dup2\n        /* \"#utility.yul\":21826:21836   */\n      swap1\n      pop\n        /* \"#utility.yul\":21301:21842   */\n      swap3\n      swap2\n      pop\n      pop\n      jump\t// out\n        /* \"#utility.yul\":21848:22389   */\n    tag_41:\n        /* \"#utility.yul\":22081:22084   */\n      0x00\n        /* \"#utility.yul\":22103:22198   */\n      tag_344\n        /* \"#utility.yul\":22194:22197   */\n      dup3\n        /* \"#utility.yul\":22185:22191   */\n      dup5\n        /* \"#utility.yul\":22103:22198   */\n      tag_180\n      jump\t// in\n    tag_344:\n        /* \"#utility.yul\":22096:22198   */\n      swap2\n      pop\n        /* \"#utility.yul\":22215:22363   */\n      tag_345\n        /* \"#utility.yul\":22359:22362   */\n      dup3\n        /* \"#utility.yul\":22215:22363   */\n      tag_281\n      jump\t// in\n    tag_345:\n        /* \"#utility.yul\":22208:22363   */\n      swap2\n      pop\n        /* \"#utility.yul\":22380:22383   */\n      dup2\n        /* \"#utility.yul\":22373:22383   */\n      swap1\n      pop\n        /* \"#utility.yul\":21848:22389   */\n      swap3\n      swap2\n      pop\n      pop\n      jump\t// out\n        /* \"#utility.yul\":22395:22936   */\n    tag_19:\n        /* \"#utility.yul\":22628:22631   */\n      0x00\n        /* \"#utility.yul\":22650:22745   */\n      tag_347\n        /* \"#utility.yul\":22741:22744   */\n      dup3\n        /* \"#utility.yul\":22732:22738   */\n      dup5\n        /* \"#utility.yul\":22650:22745   */\n      tag_180\n      jump\t// in\n    tag_347:\n        /* \"#utility.yul\":22643:22745   */\n      swap2\n      pop\n        /* \"#utility.yul\":22762:22910   */\n      tag_348\n        /* \"#utility.yul\":22906:22909   */\n      dup3\n        /* \"#utility.yul\":22762:22910   */\n      tag_286\n      jump\t// in\n    tag_348:\n        /* \"#utility.yul\":22755:22910   */\n      swap2\n      pop\n        /* \"#utility.yul\":22927:22930   */\n      dup2\n        /* \"#utility.yul\":22920:22930   */\n      swap1\n      pop\n        /* \"#utility.yul\":22395:22936   */\n      swap3\n      swap2\n      pop\n      pop\n      jump\t// out\n        /* \"#utility.yul\":22942:24281   */\n    tag_12:\n        /* \"#utility.yul\":23478:23481   */\n      0x00\n        /* \"#utility.yul\":23500:23595   */\n      tag_350\n        /* \"#utility.yul\":23591:23594   */\n      dup3\n        /* \"#utility.yul\":23582:23588   */\n      dup5\n        /* \"#utility.yul\":23500:23595   */\n      tag_180\n      jump\t// in\n    tag_350:\n        /* \"#utility.yul\":23493:23595   */\n      swap2\n      pop\n        /* \"#utility.yul\":23612:23760   */\n      tag_351\n        /* \"#utility.yul\":23756:23759   */\n      dup3\n        /* \"#utility.yul\":23612:23760   */\n      tag_291\n      jump\t// in\n    tag_351:\n        /* \"#utility.yul\":23605:23760   */\n      swap2\n      pop\n        /* \"#utility.yul\":23777:23925   */\n      tag_352\n        /* \"#utility.yul\":23921:23924   */\n      dup3\n        /* \"#utility.yul\":23777:23925   */\n      tag_296\n      jump\t// in\n    tag_352:\n        /* \"#utility.yul\":23770:23925   */\n      swap2\n      pop\n        /* \"#utility.yul\":23942:24090   */\n      tag_353\n        /* \"#utility.yul\":24086:24089   */\n      dup3\n        /* \"#utility.yul\":23942:24090   */\n      tag_196\n      jump\t// in\n    tag_353:\n        /* \"#utility.yul\":23935:24090   */\n      swap2\n      pop\n        /* \"#utility.yul\":24107:24255   */\n      tag_354\n        /* \"#utility.yul\":24251:24254   */\n      dup3\n        /* \"#utility.yul\":24107:24255   */\n      tag_226\n      jump\t// in\n    tag_354:\n        /* \"#utility.yul\":24100:24255   */\n      swap2\n      pop\n        /* \"#utility.yul\":24272:24275   */\n      dup2\n        /* \"#utility.yul\":24265:24275   */\n      swap1\n      pop\n        /* \"#utility.yul\":22942:24281   */\n      swap3\n      swap2\n      pop\n      pop\n      jump\t// out\n        /* \"#utility.yul\":24287:24668   */\n    tag_66:\n        /* \"#utility.yul\":24472:24475   */\n      0x00\n        /* \"#utility.yul\":24494:24642   */\n      tag_356\n        /* \"#utility.yul\":24638:24641   */\n      dup3\n        /* \"#utility.yul\":24494:24642   */\n      tag_186\n      jump\t// in\n    tag_356:\n        /* \"#utility.yul\":24487:24642   */\n      swap2\n      pop\n        /* \"#utility.yul\":24659:24662   */\n      dup2\n        /* \"#utility.yul\":24652:24662   */\n      swap1\n      pop\n        /* \"#utility.yul\":24287:24668   */\n      swap2\n      swap1\n      pop\n      jump\t// out\n        /* \"#utility.yul\":24674:25055   */\n    tag_75:\n        /* \"#utility.yul\":24859:24862   */\n      0x00\n        /* \"#utility.yul\":24881:25029   */\n      tag_358\n        /* \"#utility.yul\":25025:25028   */\n      dup3\n        /* \"#utility.yul\":24881:25029   */\n      tag_221\n      jump\t// in\n    tag_358:\n        /* \"#utility.yul\":24874:25029   */\n      swap2\n      pop\n        /* \"#utility.yul\":25046:25049   */\n      dup2\n        /* \"#utility.yul\":25039:25049   */\n      swap1\n      pop\n        /* \"#utility.yul\":24674:25055   */\n      swap2\n      swap1\n      pop\n      jump\t// out\n        /* \"#utility.yul\":25061:25442   */\n    tag_84:\n        /* \"#utility.yul\":25246:25249   */\n      0x00\n        /* \"#utility.yul\":25268:25416   */\n      tag_360\n        /* \"#utility.yul\":25412:25415   */\n      dup3\n        /* \"#utility.yul\":25268:25416   */\n      tag_236\n      jump\t// in\n    tag_360:\n        /* \"#utility.yul\":25261:25416   */\n      swap2\n      pop\n        /* \"#utility.yul\":25433:25436   */\n      dup2\n        /* \"#utility.yul\":25426:25436   */\n      swap1\n      pop\n        /* \"#utility.yul\":25061:25442   */\n      swap2\n      swap1\n      pop\n      jump\t// out\n        /* \"#utility.yul\":25448:25829   */\n    tag_57:\n        /* \"#utility.yul\":25633:25636   */\n      0x00\n        /* \"#utility.yul\":25655:25803   */\n      tag_362\n        /* \"#utility.yul\":25799:25802   */\n      dup3\n        /* \"#utility.yul\":25655:25803   */\n      tag_251\n      jump\t// in\n    tag_362:\n        /* \"#utility.yul\":25648:25803   */\n      swap2\n      pop\n        /* \"#utility.yul\":25820:25823   */\n      dup2\n        /* \"#utility.yul\":25813:25823   */\n      swap1\n      pop\n        /* \"#utility.yul\":25448:25829   */\n      swap2\n      swap1\n      pop\n      jump\t// out\n        /* \"#utility.yul\":25835:26216   */\n    tag_46:\n        /* \"#utility.yul\":26020:26023   */\n      0x00\n        /* \"#utility.yul\":26042:26190   */\n      tag_364\n        /* \"#utility.yul\":26186:26189   */\n      dup3\n        /* \"#utility.yul\":26042:26190   */\n      tag_261\n      jump\t// in\n    tag_364:\n        /* \"#utility.yul\":26035:26190   */\n      swap2\n      pop\n        /* \"#utility.yul\":26207:26210   */\n      dup2\n        /* \"#utility.yul\":26200:26210   */\n      swap1\n      pop\n        /* \"#utility.yul\":25835:26216   */\n      swap2\n      swap1\n      pop\n      jump\t// out\n        /* \"#utility.yul\":26222:26535   */\n    tag_9:\n        /* \"#utility.yul\":26335:26339   */\n      0x00\n        /* \"#utility.yul\":26373:26375   */\n      0x20\n        /* \"#utility.yul\":26362:26371   */\n      dup3\n        /* \"#utility.yul\":26358:26376   */\n      add\n        /* \"#utility.yul\":26350:26376   */\n      swap1\n      pop\n        /* \"#utility.yul\":26422:26431   */\n      dup2\n        /* \"#utility.yul\":26416:26420   */\n      dup2\n        /* \"#utility.yul\":26412:26432   */\n      sub\n        /* \"#utility.yul\":26408:26409   */\n      0x00\n        /* \"#utility.yul\":26397:26406   */\n      dup4\n        /* \"#utility.yul\":26393:26410   */\n      add\n        /* \"#utility.yul\":26386:26433   */\n      mstore\n        /* \"#utility.yul\":26450:26528   */\n      tag_366\n        /* \"#utility.yul\":26523:26527   */\n      dup2\n        /* \"#utility.yul\":26514:26520   */\n      dup5\n        /* \"#utility.yul\":26450:26528   */\n      tag_171\n      jump\t// in\n    tag_366:\n        /* \"#utility.yul\":26442:26528   */\n      swap1\n      pop\n        /* \"#utility.yul\":26222:26535   */\n      swap3\n      swap2\n      pop\n      pop\n      jump\t// out\n        /* \"#utility.yul\":26541:26670   */\n    tag_121:\n        /* \"#utility.yul\":26575:26581   */\n      0x00\n        /* \"#utility.yul\":26602:26622   */\n      tag_368\n      tag_369\n      jump\t// in\n    tag_368:\n        /* \"#utility.yul\":26592:26622   */\n      swap1\n      pop\n        /* \"#utility.yul\":26631:26664   */\n      tag_370\n        /* \"#utility.yul\":26659:26663   */\n      dup3\n        /* \"#utility.yul\":26651:26657   */\n      dup3\n        /* \"#utility.yul\":26631:26664   */\n      tag_371\n      jump\t// in\n    tag_370:\n        /* \"#utility.yul\":26541:26670   */\n      swap2\n      swap1\n      pop\n      jump\t// out\n        /* \"#utility.yul\":26676:26751   */\n    tag_369:\n        /* \"#utility.yul\":26709:26715   */\n      0x00\n        /* \"#utility.yul\":26742:26744   */\n      0x40\n        /* \"#utility.yul\":26736:26745   */\n      mload\n        /* \"#utility.yul\":26726:26745   */\n      swap1\n      pop\n        /* \"#utility.yul\":26676:26751   */\n      swap1\n      jump\t// out\n        /* \"#utility.yul\":26757:27065   */\n    tag_120:\n        /* \"#utility.yul\":26819:26823   */\n      0x00\n        /* \"#utility.yul\":26909:26927   */\n      0xffffffffffffffff\n        /* \"#utility.yul\":26901:26907   */\n      dup3\n        /* \"#utility.yul\":26898:26928   */\n      gt\n        /* \"#utility.yul\":26895:26951   */\n      iszero\n      tag_374\n      jumpi\n        /* \"#utility.yul\":26931:26949   */\n      tag_375\n      tag_101\n      jump\t// in\n    tag_375:\n        /* \"#utility.yul\":26895:26951   */\n    tag_374:\n        /* \"#utility.yul\":26969:26998   */\n      tag_376\n        /* \"#utility.yul\":26991:26997   */\n      dup3\n        /* \"#utility.yul\":26969:26998   */\n      tag_179\n      jump\t// in\n    tag_376:\n        /* \"#utility.yul\":26961:26998   */\n      swap1\n      pop\n        /* \"#utility.yul\":27053:27057   */\n      0x20\n        /* \"#utility.yul\":27047:27051   */\n      dup2\n        /* \"#utility.yul\":27043:27058   */\n      add\n        /* \"#utility.yul\":27035:27058   */\n      swap1\n      pop\n        /* \"#utility.yul\":26757:27065   */\n      swap2\n      swap1\n      pop\n      jump\t// out\n        /* \"#utility.yul\":27071:27170   */\n    tag_174:\n        /* \"#utility.yul\":27123:27129   */\n      0x00\n        /* \"#utility.yul\":27157:27162   */\n      dup2\n        /* \"#utility.yul\":27151:27163   */\n      mload\n        /* \"#utility.yul\":27141:27163   */\n      swap1\n      pop\n        /* \"#utility.yul\":27071:27170   */\n      swap2\n      swap1\n      pop\n      jump\t// out\n        /* \"#utility.yul\":27176:27345   */\n    tag_176:\n        /* \"#utility.yul\":27260:27271   */\n      0x00\n        /* \"#utility.yul\":27294:27300   */\n      dup3\n        /* \"#utility.yul\":27289:27292   */\n      dup3\n        /* \"#utility.yul\":27282:27301   */\n      mstore\n        /* \"#utility.yul\":27334:27338   */\n      0x20\n        /* \"#utility.yul\":27329:27332   */\n      dup3\n        /* \"#utility.yul\":27325:27339   */\n      add\n        /* \"#utility.yul\":27310:27339   */\n      swap1\n      pop\n        /* \"#utility.yul\":27176:27345   */\n      swap3\n      swap2\n      pop\n      pop\n      jump\t// out\n        /* \"#utility.yul\":27351:27499   */\n    tag_184:\n        /* \"#utility.yul\":27453:27464   */\n      0x00\n        /* \"#utility.yul\":27490:27493   */\n      dup2\n        /* \"#utility.yul\":27475:27493   */\n      swap1\n      pop\n        /* \"#utility.yul\":27351:27499   */\n      swap3\n      swap2\n      pop\n      pop\n      jump\t// out\n        /* \"#utility.yul\":27505:27810   */\n    tag_110:\n        /* \"#utility.yul\":27545:27548   */\n      0x00\n        /* \"#utility.yul\":27564:27584   */\n      tag_381\n        /* \"#utility.yul\":27582:27583   */\n      dup3\n        /* \"#utility.yul\":27564:27584   */\n      tag_382\n      jump\t// in\n    tag_381:\n        /* \"#utility.yul\":27559:27584   */\n      swap2\n      pop\n        /* \"#utility.yul\":27598:27618   */\n      tag_383\n        /* \"#utility.yul\":27616:27617   */\n      dup4\n        /* \"#utility.yul\":27598:27618   */\n      tag_382\n      jump\t// in\n    tag_383:\n        /* \"#utility.yul\":27593:27618   */\n      swap3\n      pop\n        /* \"#utility.yul\":27752:27753   */\n      dup3\n        /* \"#utility.yul\":27684:27750   */\n      0xffffffffffffffffffffffffffffffffffffffffffffffffffffffffffffffff\n        /* \"#utility.yul\":27680:27754   */\n      sub\n        /* \"#utility.yul\":27677:27678   */\n      dup3\n        /* \"#utility.yul\":27674:27755   */\n      gt\n        /* \"#utility.yul\":27671:27778   */\n      iszero\n      tag_384\n      jumpi\n        /* \"#utility.yul\":27758:27776   */\n      tag_385\n      tag_386\n      jump\t// in\n    tag_385:\n        /* \"#utility.yul\":27671:27778   */\n    tag_384:\n        /* \"#utility.yul\":27802:27803   */\n      dup3\n        /* \"#utility.yul\":27799:27800   */\n      dup3\n        /* \"#utility.yul\":27795:27804   */\n      add\n        /* \"#utility.yul\":27788:27804   */\n      swap1\n      pop\n        /* \"#utility.yul\":27505:27810   */\n      swap3\n      swap2\n      pop\n      pop\n      jump\t// out\n        /* \"#utility.yul\":27816:28001   */\n    tag_98:\n        /* \"#utility.yul\":27856:27857   */\n      0x00\n        /* \"#utility.yul\":27873:27893   */\n      tag_388\n        /* \"#utility.yul\":27891:27892   */\n      dup3\n        /* \"#utility.yul\":27873:27893   */\n      tag_382\n      jump\t// in\n    tag_388:\n        /* \"#utility.yul\":27868:27893   */\n      swap2\n      pop\n        /* \"#utility.yul\":27907:27927   */\n      tag_389\n        /* \"#utility.yul\":27925:27926   */\n      dup4\n        /* \"#utility.yul\":27907:27927   */\n      tag_382\n      jump\t// in\n    tag_389:\n        /* \"#utility.yul\":27902:27927   */\n      swap3\n      pop\n        /* \"#utility.yul\":27946:27947   */\n      dup3\n        /* \"#utility.yul\":27936:27971   */\n      tag_390\n      jumpi\n        /* \"#utility.yul\":27951:27969   */\n      tag_391\n      tag_392\n      jump\t// in\n    tag_391:\n        /* \"#utility.yul\":27936:27971   */\n    tag_390:\n        /* \"#utility.yul\":27993:27994   */\n      dup3\n        /* \"#utility.yul\":27990:27991   */\n      dup3\n        /* \"#utility.yul\":27986:27995   */\n      div\n        /* \"#utility.yul\":27981:27995   */\n      swap1\n      pop\n        /* \"#utility.yul\":27816:28001   */\n      swap3\n      swap2\n      pop\n      pop\n      jump\t// out\n        /* \"#utility.yul\":28007:28198   */\n    tag_106:\n        /* \"#utility.yul\":28047:28051   */\n      0x00\n        /* \"#utility.yul\":28067:28087   */\n      tag_394\n        /* \"#utility.yul\":28085:28086   */\n      dup3\n        /* \"#utility.yul\":28067:28087   */\n      tag_382\n      jump\t// in\n    tag_394:\n        /* \"#utility.yul\":28062:28087   */\n      swap2\n      pop\n        /* \"#utility.yul\":28101:28121   */\n      tag_395\n        /* \"#utility.yul\":28119:28120   */\n      dup4\n        /* \"#utility.yul\":28101:28121   */\n      tag_382\n      jump\t// in\n    tag_395:\n        /* \"#utility.yul\":28096:28121   */\n      swap3\n      pop\n        /* \"#utility.yul\":28140:28141   */\n      dup3\n        /* \"#utility.yul\":28137:28138   */\n      dup3\n        /* \"#utility.yul\":28134:28142   */\n      lt\n        /* \"#utility.yul\":28131:28165   */\n      iszero\n      tag_396\n      jumpi\n        /* \"#utility.yul\":28145:28163   */\n      tag_397\n      tag_386\n      jump\t// in\n    tag_397:\n        /* \"#utility.yul\":28131:28165   */\n    tag_396:\n        /* \"#utility.yul\":28190:28191   */\n      dup3\n        /* \"#utility.yul\":28187:28188   */\n      dup3\n        /* \"#utility.yul\":28183:28192   */\n      sub\n        /* \"#utility.yul\":28175:28192   */\n      swap1\n      pop\n        /* \"#utility.yul\":28007:28198   */\n      swap3\n      swap2\n      pop\n      pop\n      jump\t// out\n        /* \"#utility.yul\":28204:28281   */\n    tag_382:\n        /* \"#utility.yul\":28241:28248   */\n      0x00\n        /* \"#utility.yul\":28270:28275   */\n      dup2\n        /* \"#utility.yul\":28259:28275   */\n      swap1\n      pop\n        /* \"#utility.yul\":28204:28281   */\n      swap2\n      swap1\n      pop\n      jump\t// out\n        /* \"#utility.yul\":28287:28441   */\n    tag_126:\n        /* \"#utility.yul\":28371:28377   */\n      dup3\n        /* \"#utility.yul\":28366:28369   */\n      dup2\n        /* \"#utility.yul\":28361:28364   */\n      dup4\n        /* \"#utility.yul\":28348:28378   */\n      calldatacopy\n        /* \"#utility.yul\":28433:28434   */\n      0x00\n        /* \"#utility.yul\":28424:28430   */\n      dup4\n        /* \"#utility.yul\":28419:28422   */\n      dup4\n        /* \"#utility.yul\":28415:28431   */\n      add\n        /* \"#utility.yul\":28408:28435   */\n      mstore\n        /* \"#utility.yul\":28287:28441   */\n      pop\n      pop\n      pop\n      jump\t// out\n        /* \"#utility.yul\":28447:28754   */\n    tag_134:\n        /* \"#utility.yul\":28515:28516   */\n      0x00\n        /* \"#utility.yul\":28525:28638   */\n    tag_401:\n        /* \"#utility.yul\":28539:28545   */\n      dup4\n        /* \"#utility.yul\":28536:28537   */\n      dup2\n        /* \"#utility.yul\":28533:28546   */\n      lt\n        /* \"#utility.yul\":28525:28638   */\n      iszero\n      tag_403\n      jumpi\n        /* \"#utility.yul\":28624:28625   */\n      dup1\n        /* \"#utility.yul\":28619:28622   */\n      dup3\n        /* \"#utility.yul\":28615:28626   */\n      add\n        /* \"#utility.yul\":28609:28627   */\n      mload\n        /* \"#utility.yul\":28605:28606   */\n      dup2\n        /* \"#utility.yul\":28600:28603   */\n      dup5\n        /* \"#utility.yul\":28596:28607   */\n      add\n        /* \"#utility.yul\":28589:28628   */\n      mstore\n        /* \"#utility.yul\":28561:28563   */\n      0x20\n        /* \"#utility.yul\":28558:28559   */\n      dup2\n        /* \"#utility.yul\":28554:28564   */\n      add\n        /* \"#utility.yul\":28549:28564   */\n      swap1\n      pop\n        /* \"#utility.yul\":28525:28638   */\n      jump(tag_401)\n    tag_403:\n        /* \"#utility.yul\":28656:28662   */\n      dup4\n        /* \"#utility.yul\":28653:28654   */\n      dup2\n        /* \"#utility.yul\":28650:28663   */\n      gt\n        /* \"#utility.yul\":28647:28748   */\n      iszero\n      tag_404\n      jumpi\n        /* \"#utility.yul\":28736:28737   */\n      0x00\n        /* \"#utility.yul\":28727:28733   */\n      dup5\n        /* \"#utility.yul\":28722:28725   */\n      dup5\n        /* \"#utility.yul\":28718:28734   */\n      add\n        /* \"#utility.yul\":28711:28738   */\n      mstore\n        /* \"#utility.yul\":28647:28748   */\n    tag_404:\n        /* \"#utility.yul\":28496:28754   */\n      pop\n        /* \"#utility.yul\":28447:28754   */\n      pop\n      pop\n      pop\n      jump\t// out\n        /* \"#utility.yul\":28760:29041   */\n    tag_371:\n        /* \"#utility.yul\":28843:28870   */\n      tag_406\n        /* \"#utility.yul\":28865:28869   */\n      dup3\n        /* \"#utility.yul\":28843:28870   */\n      tag_179\n      jump\t// in\n    tag_406:\n        /* \"#utility.yul\":28835:28841   */\n      dup2\n        /* \"#utility.yul\":28831:28871   */\n      add\n        /* \"#utility.yul\":28973:28979   */\n      dup2\n        /* \"#utility.yul\":28961:28971   */\n      dup2\n        /* \"#utility.yul\":28958:28980   */\n      lt\n        /* \"#utility.yul\":28937:28955   */\n      0xffffffffffffffff\n        /* \"#utility.yul\":28925:28935   */\n      dup3\n        /* \"#utility.yul\":28922:28956   */\n      gt\n        /* \"#utility.yul\":28919:28981   */\n      or\n        /* \"#utility.yul\":28916:29004   */\n      iszero\n      tag_407\n      jumpi\n        /* \"#utility.yul\":28984:29002   */\n      tag_408\n      tag_101\n      jump\t// in\n    tag_408:\n        /* \"#utility.yul\":28916:29004   */\n    tag_407:\n        /* \"#utility.yul\":29024:29034   */\n      dup1\n        /* \"#utility.yul\":29020:29022   */\n      0x40\n        /* \"#utility.yul\":29013:29035   */\n      mstore\n        /* \"#utility.yul\":28803:29041   */\n      pop\n        /* \"#utility.yul\":28760:29041   */\n      pop\n      pop\n      jump\t// out\n        /* \"#utility.yul\":29047:29280   */\n    tag_96:\n        /* \"#utility.yul\":29086:29089   */\n      0x00\n        /* \"#utility.yul\":29109:29133   */\n      tag_410\n        /* \"#utility.yul\":29127:29132   */\n      dup3\n        /* \"#utility.yul\":29109:29133   */\n      tag_382\n      jump\t// in\n    tag_410:\n        /* \"#utility.yul\":29100:29133   */\n      swap2\n      pop\n        /* \"#utility.yul\":29155:29221   */\n      0xffffffffffffffffffffffffffffffffffffffffffffffffffffffffffffffff\n        /* \"#utility.yul\":29148:29153   */\n      dup3\n        /* \"#utility.yul\":29145:29222   */\n      eq\n        /* \"#utility.yul\":29142:29245   */\n      iszero\n      tag_411\n      jumpi\n        /* \"#utility.yul\":29225:29243   */\n      tag_412\n      tag_386\n      jump\t// in\n    tag_412:\n        /* \"#utility.yul\":29142:29245   */\n    tag_411:\n        /* \"#utility.yul\":29272:29273   */\n      0x01\n        /* \"#utility.yul\":29265:29270   */\n      dup3\n        /* \"#utility.yul\":29261:29274   */\n      add\n        /* \"#utility.yul\":29254:29274   */\n      swap1\n      pop\n        /* \"#utility.yul\":29047:29280   */\n      swap2\n      swap1\n      pop\n      jump\t// out\n        /* \"#utility.yul\":29286:29462   */\n    tag_108:\n        /* \"#utility.yul\":29318:29319   */\n      0x00\n        /* \"#utility.yul\":29335:29355   */\n      tag_414\n        /* \"#utility.yul\":29353:29354   */\n      dup3\n        /* \"#utility.yul\":29335:29355   */\n      tag_382\n      jump\t// in\n    tag_414:\n        /* \"#utility.yul\":29330:29355   */\n      swap2\n      pop\n        /* \"#utility.yul\":29369:29389   */\n      tag_415\n        /* \"#utility.yul\":29387:29388   */\n      dup4\n        /* \"#utility.yul\":29369:29389   */\n      tag_382\n      jump\t// in\n    tag_415:\n        /* \"#utility.yul\":29364:29389   */\n      swap3\n      pop\n        /* \"#utility.yul\":29408:29409   */\n      dup3\n        /* \"#utility.yul\":29398:29433   */\n      tag_416\n      jumpi\n        /* \"#utility.yul\":29413:29431   */\n      tag_417\n      tag_392\n      jump\t// in\n    tag_417:\n        /* \"#utility.yul\":29398:29433   */\n    tag_416:\n        /* \"#utility.yul\":29454:29455   */\n      dup3\n        /* \"#utility.yul\":29451:29452   */\n      dup3\n        /* \"#utility.yul\":29447:29456   */\n      mod\n        /* \"#utility.yul\":29442:29456   */\n      swap1\n      pop\n        /* \"#utility.yul\":29286:29462   */\n      swap3\n      swap2\n      pop\n      pop\n      jump\t// out\n        /* \"#utility.yul\":29468:29648   */\n    tag_386:\n        /* \"#utility.yul\":29516:29593   */\n      0x4e487b7100000000000000000000000000000000000000000000000000000000\n        /* \"#utility.yul\":29513:29514   */\n      0x00\n        /* \"#utility.yul\":29506:29594   */\n      mstore\n        /* \"#utility.yul\":29613:29617   */\n      0x11\n        /* \"#utility.yul\":29610:29611   */\n      0x04\n        /* \"#utility.yul\":29603:29618   */\n      mstore\n        /* \"#utility.yul\":29637:29641   */\n      0x24\n        /* \"#utility.yul\":29634:29635   */\n      0x00\n        /* \"#utility.yul\":29627:29642   */\n      revert\n        /* \"#utility.yul\":29654:29834   */\n    tag_392:\n        /* \"#utility.yul\":29702:29779   */\n      0x4e487b7100000000000000000000000000000000000000000000000000000000\n        /* \"#utility.yul\":29699:29700   */\n      0x00\n        /* \"#utility.yul\":29692:29780   */\n      mstore\n        /* \"#utility.yul\":29799:29803   */\n      0x12\n        /* \"#utility.yul\":29796:29797   */\n      0x04\n        /* \"#utility.yul\":29789:29804   */\n      mstore\n        /* \"#utility.yul\":29823:29827   */\n      0x24\n        /* \"#utility.yul\":29820:29821   */\n      0x00\n        /* \"#utility.yul\":29813:29828   */\n      revert\n        /* \"#utility.yul\":29840:30020   */\n    tag_113:\n        /* \"#utility.yul\":29888:29965   */\n      0x4e487b7100000000000000000000000000000000000000000000000000000000\n        /* \"#utility.yul\":29885:29886   */\n      0x00\n        /* \"#utility.yul\":29878:29966   */\n      mstore\n        /* \"#utility.yul\":29985:29989   */\n      0x32\n        /* \"#utility.yul\":29982:29983   */\n      0x04\n        /* \"#utility.yul\":29975:29990   */\n      mstore\n        /* \"#utility.yul\":30009:30013   */\n      0x24\n        /* \"#utility.yul\":30006:30007   */\n      0x00\n        /* \"#utility.yul\":29999:30014   */\n      revert\n        /* \"#utility.yul\":30026:30206   */\n    tag_101:\n        /* \"#utility.yul\":30074:30151   */\n      0x4e487b7100000000000000000000000000000000000000000000000000000000\n        /* \"#utility.yul\":30071:30072   */\n      0x00\n        /* \"#utility.yul\":30064:30152   */\n      mstore\n        /* \"#utility.yul\":30171:30175   */\n      0x41\n        /* \"#utility.yul\":30168:30169   */\n      0x04\n        /* \"#utility.yul\":30161:30176   */\n      mstore\n        /* \"#utility.yul\":30195:30199   */\n      0x24\n        /* \"#utility.yul\":30192:30193   */\n      0x00\n        /* \"#utility.yul\":30185:30200   */\n      revert\n        /* \"#utility.yul\":30212:30329   */\n    tag_139:\n        /* \"#utility.yul\":30321:30322   */\n      0x00\n        /* \"#utility.yul\":30318:30319   */\n      dup1\n        /* \"#utility.yul\":30311:30323   */\n      revert\n        /* \"#utility.yul\":30335:30452   */\n    tag_124:\n        /* \"#utility.yul\":30444:30445   */\n      0x00\n        /* \"#utility.yul\":30441:30442   */\n      dup1\n        /* \"#utility.yul\":30434:30446   */\n      revert\n        /* \"#utility.yul\":30458:30575   */\n    tag_156:\n        /* \"#utility.yul\":30567:30568   */\n      0x00\n        /* \"#utility.yul\":30564:30565   */\n      dup1\n        /* \"#utility.yul\":30557:30569   */\n      revert\n        /* \"#utility.yul\":30581:30698   */\n    tag_153:\n        /* \"#utility.yul\":30690:30691   */\n      0x00\n        /* \"#utility.yul\":30687:30688   */\n      dup1\n        /* \"#utility.yul\":30680:30692   */\n      revert\n        /* \"#utility.yul\":30704:30806   */\n    tag_179:\n        /* \"#utility.yul\":30745:30751   */\n      0x00\n        /* \"#utility.yul\":30796:30798   */\n      0x1f\n        /* \"#utility.yul\":30792:30799   */\n      not\n        /* \"#utility.yul\":30787:30789   */\n      0x1f\n        /* \"#utility.yul\":30780:30785   */\n      dup4\n        /* \"#utility.yul\":30776:30790   */\n      add\n        /* \"#utility.yul\":30772:30800   */\n      and\n        /* \"#utility.yul\":30762:30800   */\n      swap1\n      pop\n        /* \"#utility.yul\":30704:30806   */\n      swap2\n      swap1\n      pop\n      jump\t// out\n        /* \"#utility.yul\":30812:30975   */\n    tag_190:\n        /* \"#utility.yul\":30952:30967   */\n      0x50616a74696d204b6173616d6900000000000000000000000000000000000000\n        /* \"#utility.yul\":30948:30949   */\n      0x00\n        /* \"#utility.yul\":30940:30946   */\n      dup3\n        /* \"#utility.yul\":30936:30950   */\n      add\n        /* \"#utility.yul\":30929:30968   */\n      mstore\n        /* \"#utility.yul\":30812:30975   */\n      pop\n      jump\t// out\n        /* \"#utility.yul\":30981:31138   */\n    tag_195:\n        /* \"#utility.yul\":31121:31130   */\n      0x2365343032323700000000000000000000000000000000000000000000000000\n        /* \"#utility.yul\":31117:31118   */\n      0x00\n        /* \"#utility.yul\":31109:31115   */\n      dup3\n        /* \"#utility.yul\":31105:31119   */\n      add\n        /* \"#utility.yul\":31098:31131   */\n      mstore\n        /* \"#utility.yul\":30981:31138   */\n      pop\n      jump\t// out\n        /* \"#utility.yul\":31144:31438   */\n    tag_200:\n        /* \"#utility.yul\":31284:31318   */\n      0x2e7469746c65207b20746578742d616e63686f723a206c6566743b20666f6e74\n        /* \"#utility.yul\":31280:31281   */\n      0x00\n        /* \"#utility.yul\":31272:31278   */\n      dup3\n        /* \"#utility.yul\":31268:31282   */\n      add\n        /* \"#utility.yul\":31261:31319   */\n      mstore\n        /* \"#utility.yul\":31357:31391   */\n      0x2d7765696768743a20626f6c643b20666f6e742d73697a653a20312e35656d3b\n        /* \"#utility.yul\":31352:31354   */\n      0x20\n        /* \"#utility.yul\":31344:31350   */\n      dup3\n        /* \"#utility.yul\":31340:31355   */\n      add\n        /* \"#utility.yul\":31333:31392   */\n      mstore\n        /* \"#utility.yul\":31426:31430   */\n      0x207d000000000000000000000000000000000000000000000000000000000000\n        /* \"#utility.yul\":31421:31423   */\n      0x40\n        /* \"#utility.yul\":31413:31419   */\n      dup3\n        /* \"#utility.yul\":31409:31424   */\n      add\n        /* \"#utility.yul\":31402:31431   */\n      mstore\n        /* \"#utility.yul\":31144:31438   */\n      pop\n      jump\t// out\n        /* \"#utility.yul\":31444:31658   */\n    tag_205:\n        /* \"#utility.yul\":31584:31650   */\n      0x3c7465787420783d2232302220793d2233343022203e47616d65733a20000000\n        /* \"#utility.yul\":31580:31581   */\n      0x00\n        /* \"#utility.yul\":31572:31578   */\n      dup3\n        /* \"#utility.yul\":31568:31582   */\n      add\n        /* \"#utility.yul\":31561:31651   */\n      mstore\n        /* \"#utility.yul\":31444:31658   */\n      pop\n      jump\t// out\n        /* \"#utility.yul\":31664:31878   */\n    tag_210:\n        /* \"#utility.yul\":31804:31870   */\n      0x3c7465787420783d2232302220793d2233383022203e506f736974696f6e3a20\n        /* \"#utility.yul\":31800:31801   */\n      0x00\n        /* \"#utility.yul\":31792:31798   */\n      dup3\n        /* \"#utility.yul\":31788:31802   */\n      add\n        /* \"#utility.yul\":31781:31871   */\n      mstore\n        /* \"#utility.yul\":31664:31878   */\n      pop\n      jump\t// out\n        /* \"#utility.yul\":31884:32098   */\n    tag_215:\n        /* \"#utility.yul\":32024:32090   */\n      0x3c7465787420783d2232302220793d2233363022203e476f616c733a20000000\n        /* \"#utility.yul\":32020:32021   */\n      0x00\n        /* \"#utility.yul\":32012:32018   */\n      dup3\n        /* \"#utility.yul\":32008:32022   */\n      add\n        /* \"#utility.yul\":32001:32091   */\n      mstore\n        /* \"#utility.yul\":31884:32098   */\n      pop\n      jump\t// out\n        /* \"#utility.yul\":32104:32318   */\n    tag_220:\n        /* \"#utility.yul\":32244:32310   */\n      0x3c7465787420783d2232302220793d2233323022203e47616d65706c61793a20\n        /* \"#utility.yul\":32240:32241   */\n      0x00\n        /* \"#utility.yul\":32232:32238   */\n      dup3\n        /* \"#utility.yul\":32228:32242   */\n      add\n        /* \"#utility.yul\":32221:32311   */\n      mstore\n        /* \"#utility.yul\":32104:32318   */\n      pop\n      jump\t// out\n        /* \"#utility.yul\":32324:32485   */\n    tag_225:\n        /* \"#utility.yul\":32464:32477   */\n      0x4c69616d204d696c6c6172000000000000000000000000000000000000000000\n        /* \"#utility.yul\":32460:32461   */\n      0x00\n        /* \"#utility.yul\":32452:32458   */\n      dup3\n        /* \"#utility.yul\":32448:32462   */\n      add\n        /* \"#utility.yul\":32441:32478   */\n      mstore\n        /* \"#utility.yul\":32324:32485   */\n      pop\n      jump\t// out\n        /* \"#utility.yul\":32491:32649   */\n    tag_230:\n        /* \"#utility.yul\":32631:32641   */\n      0x3c2f7374796c653e000000000000000000000000000000000000000000000000\n        /* \"#utility.yul\":32627:32628   */\n      0x00\n        /* \"#utility.yul\":32619:32625   */\n      dup3\n        /* \"#utility.yul\":32615:32629   */\n      add\n        /* \"#utility.yul\":32608:32642   */\n      mstore\n        /* \"#utility.yul\":32491:32649   */\n      pop\n      jump\t// out\n        /* \"#utility.yul\":32655:32869   */\n    tag_235:\n        /* \"#utility.yul\":32795:32861   */\n      0x22202f3e00000000000000000000000000000000000000000000000000000000\n        /* \"#utility.yul\":32791:32792   */\n      0x00\n        /* \"#utility.yul\":32783:32789   */\n      dup3\n        /* \"#utility.yul\":32779:32793   */\n      add\n        /* \"#utility.yul\":32772:32862   */\n      mstore\n        /* \"#utility.yul\":32655:32869   */\n      pop\n      jump\t// out\n        /* \"#utility.yul\":32875:33038   */\n    tag_240:\n        /* \"#utility.yul\":33015:33030   */\n      0x4865696e7a204c696e646e657200000000000000000000000000000000000000\n        /* \"#utility.yul\":33011:33012   */\n      0x00\n        /* \"#utility.yul\":33003:33009   */\n      dup3\n        /* \"#utility.yul\":32999:33013   */\n      add\n        /* \"#utility.yul\":32992:33031   */\n      mstore\n        /* \"#utility.yul\":32875:33038   */\n      pop\n      jump\t// out\n        /* \"#utility.yul\":33044:33359   */\n    tag_245:\n        /* \"#utility.yul\":33184:33250   */\n      0x3c726563742077696474683d223130302522206865696768743d223130302522\n        /* \"#utility.yul\":33180:33181   */\n      0x00\n        /* \"#utility.yul\":33172:33178   */\n      dup3\n        /* \"#utility.yul\":33168:33182   */\n      add\n        /* \"#utility.yul\":33161:33251   */\n      mstore\n        /* \"#utility.yul\":33285:33351   */\n      0x2066696c6c3d2200000000000000000000000000000000000000000000000000\n        /* \"#utility.yul\":33280:33282   */\n      0x20\n        /* \"#utility.yul\":33272:33278   */\n      dup3\n        /* \"#utility.yul\":33268:33283   */\n      add\n        /* \"#utility.yul\":33261:33352   */\n      mstore\n        /* \"#utility.yul\":33044:33359   */\n      pop\n      jump\t// out\n        /* \"#utility.yul\":33365:33680   */\n    tag_250:\n        /* \"#utility.yul\":33505:33571   */\n      0x3c7465787420783d2238302220793d2234302220636c6173733d227469746c65\n        /* \"#utility.yul\":33501:33502   */\n      0x00\n        /* \"#utility.yul\":33493:33499   */\n      dup3\n        /* \"#utility.yul\":33489:33503   */\n      add\n        /* \"#utility.yul\":33482:33572   */\n      mstore\n        /* \"#utility.yul\":33606:33672   */\n      0x223e000000000000000000000000000000000000000000000000000000000000\n        /* \"#utility.yul\":33601:33603   */\n      0x20\n        /* \"#utility.yul\":33593:33599   */\n      dup3\n        /* \"#utility.yul\":33589:33604   */\n      add\n        /* \"#utility.yul\":33582:33673   */\n      mstore\n        /* \"#utility.yul\":33365:33680   */\n      pop\n      jump\t// out\n        /* \"#utility.yul\":33686:33848   */\n    tag_255:\n        /* \"#utility.yul\":33826:33840   */\n      0x416e64792050656c6d6172640000000000000000000000000000000000000000\n        /* \"#utility.yul\":33822:33823   */\n      0x00\n        /* \"#utility.yul\":33814:33820   */\n      dup3\n        /* \"#utility.yul\":33810:33824   */\n      add\n        /* \"#utility.yul\":33803:33841   */\n      mstore\n        /* \"#utility.yul\":33686:33848   */\n      pop\n      jump\t// out\n        /* \"#utility.yul\":33854:34011   */\n    tag_260:\n        /* \"#utility.yul\":33994:34003   */\n      0x3c2f746578743e00000000000000000000000000000000000000000000000000\n        /* \"#utility.yul\":33990:33991   */\n      0x00\n        /* \"#utility.yul\":33982:33988   */\n      dup3\n        /* \"#utility.yul\":33978:33992   */\n      add\n        /* \"#utility.yul\":33971:34004   */\n      mstore\n        /* \"#utility.yul\":33854:34011   */\n      pop\n      jump\t// out\n        /* \"#utility.yul\":34017:34182   */\n    tag_265:\n        /* \"#utility.yul\":34157:34174   */\n      0x4e6f6168204b6174746572626163680000000000000000000000000000000000\n        /* \"#utility.yul\":34153:34154   */\n      0x00\n        /* \"#utility.yul\":34145:34151   */\n      dup3\n        /* \"#utility.yul\":34141:34155   */\n      add\n        /* \"#utility.yul\":34134:34175   */\n      mstore\n        /* \"#utility.yul\":34017:34182   */\n      pop\n      jump\t// out\n        /* \"#utility.yul\":34188:36775   */\n    tag_270:\n        /* \"#utility.yul\":34328:34394   */\n      0x3c70617468207374796c653d2266696c6c3a23666665343439222020643d226d\n        /* \"#utility.yul\":34324:34325   */\n      0x00\n        /* \"#utility.yul\":34316:34322   */\n      dup3\n        /* \"#utility.yul\":34312:34326   */\n      add\n        /* \"#utility.yul\":34305:34395   */\n      mstore\n        /* \"#utility.yul\":34429:34463   */\n      0x202d332e32303136393439652d362c31313539206320322e3133343436333365\n        /* \"#utility.yul\":34424:34426   */\n      0x20\n        /* \"#utility.yul\":34416:34422   */\n      dup3\n        /* \"#utility.yul\":34412:34427   */\n      add\n        /* \"#utility.yul\":34405:34464   */\n      mstore\n        /* \"#utility.yul\":34498:34532   */\n      0x2d362c3020312e30363732333136652d362c3020302c30207a204d20302e3132\n        /* \"#utility.yul\":34493:34495   */\n      0x40\n        /* \"#utility.yul\":34485:34491   */\n      dup3\n        /* \"#utility.yul\":34481:34496   */\n      add\n        /* \"#utility.yul\":34474:34533   */\n      mstore\n        /* \"#utility.yul\":34567:34601   */\n      0x36383036382c3238392e37352063202d302e30383435333738372c3537392e35\n        /* \"#utility.yul\":34562:34564   */\n      0x60\n        /* \"#utility.yul\":34554:34560   */\n      dup3\n        /* \"#utility.yul\":34550:34565   */\n      add\n        /* \"#utility.yul\":34543:34602   */\n      mstore\n        /* \"#utility.yul\":34637:34671   */\n      0x202d302e30343232363839332c3238392e373520302c30207a206d203230372e\n        /* \"#utility.yul\":34631:34634   */\n      0x80\n        /* \"#utility.yul\":34623:34629   */\n      dup3\n        /* \"#utility.yul\":34619:34635   */\n      add\n        /* \"#utility.yul\":34612:34672   */\n      mstore\n        /* \"#utility.yul\":34707:34741   */\n      0x313930353933322c342e35323131312033342e383137342c2d32352e33343835\n        /* \"#utility.yul\":34701:34704   */\n      0xa0\n        /* \"#utility.yul\":34693:34699   */\n      dup3\n        /* \"#utility.yul\":34689:34705   */\n      add\n        /* \"#utility.yul\":34682:34742   */\n      mstore\n        /* \"#utility.yul\":34777:34811   */\n      0x392033342e3432392c32352e303337353420632031382e3933362c31332e3737\n        /* \"#utility.yul\":34771:34774   */\n      0xc0\n        /* \"#utility.yul\":34763:34769   */\n      dup3\n        /* \"#utility.yul\":34759:34775   */\n      add\n        /* \"#utility.yul\":34752:34812   */\n      mstore\n        /* \"#utility.yul\":34847:34881   */\n      0x3036352033342e393933312c32352e31353035382033352e363832362c32352e\n        /* \"#utility.yul\":34841:34844   */\n      0xe0\n        /* \"#utility.yul\":34833:34839   */\n      dup3\n        /* \"#utility.yul\":34829:34845   */\n      add\n        /* \"#utility.yul\":34822:34882   */\n      mstore\n        /* \"#utility.yul\":34917:34951   */\n      0x323838373420302e363839352c302e313338313620312e313330372c2d302e34\n        /* \"#utility.yul\":34911:34914   */\n      0x0100\n        /* \"#utility.yul\":34903:34909   */\n      dup3\n        /* \"#utility.yul\":34899:34915   */\n      add\n        /* \"#utility.yul\":34892:34952   */\n      mstore\n        /* \"#utility.yul\":34987:35021   */\n      0x3935353420302e393830362c2d312e3430383231202d302e313530322c2d302e\n        /* \"#utility.yul\":34981:34984   */\n      0x0120\n        /* \"#utility.yul\":34973:34979   */\n      dup3\n        /* \"#utility.yul\":34969:34985   */\n      add\n        /* \"#utility.yul\":34962:35022   */\n      mstore\n        /* \"#utility.yul\":35057:35091   */\n      0x3931323638202d362e313130312c2d31392e3537343234202d31332e32343432\n        /* \"#utility.yul\":35051:35054   */\n      0x0140\n        /* \"#utility.yul\":35043:35049   */\n      dup3\n        /* \"#utility.yul\":35039:35055   */\n      add\n        /* \"#utility.yul\":35032:35092   */\n      mstore\n        /* \"#utility.yul\":35127:35161   */\n      0x2c2d34312e3437303133202d31302e313837382c2d33312e3236383136202d31\n        /* \"#utility.yul\":35121:35124   */\n      0x0160\n        /* \"#utility.yul\":35113:35119   */\n      dup3\n        /* \"#utility.yul\":35109:35125   */\n      add\n        /* \"#utility.yul\":35102:35162   */\n      mstore\n        /* \"#utility.yul\":35197:35231   */\n      0x322e373034312c2d34302e3035313237202d31312e3732372c2d34302e393331\n        /* \"#utility.yul\":35191:35194   */\n      0x0180\n        /* \"#utility.yul\":35183:35189   */\n      dup3\n        /* \"#utility.yul\":35179:35195   */\n      add\n        /* \"#utility.yul\":35172:35232   */\n      mstore\n        /* \"#utility.yul\":35267:35301   */\n      0x373520302e363834332c2d302e36313635372031372e31343938332c2d31312e\n        /* \"#utility.yul\":35261:35264   */\n      0x01a0\n        /* \"#utility.yul\":35253:35259   */\n      dup3\n        /* \"#utility.yul\":35249:35265   */\n      add\n        /* \"#utility.yul\":35242:35302   */\n      mstore\n        /* \"#utility.yul\":35337:35371   */\n      0x37393238382033352e373030392c2d32362e3032393837204c203335382e3431\n        /* \"#utility.yul\":35331:35334   */\n      0x01c0\n        /* \"#utility.yul\":35323:35329   */\n      dup3\n        /* \"#utility.yul\":35319:35335   */\n      add\n        /* \"#utility.yul\":35312:35372   */\n      mstore\n        /* \"#utility.yul\":35407:35441   */\n      0x33342c3138342e35203331342e303731312c313834203236392e373238372c31\n        /* \"#utility.yul\":35401:35404   */\n      0x01e0\n        /* \"#utility.yul\":35393:35399   */\n      dup3\n        /* \"#utility.yul\":35389:35405   */\n      add\n        /* \"#utility.yul\":35382:35442   */\n      mstore\n        /* \"#utility.yul\":35477:35511   */\n      0x38332e35203235362e343837382c3134322e37303637352063202d342e373236\n        /* \"#utility.yul\":35471:35474   */\n      0x0200\n        /* \"#utility.yul\":35463:35469   */\n      dup3\n        /* \"#utility.yul\":35459:35475   */\n      add\n        /* \"#utility.yul\":35452:35512   */\n      mstore\n        /* \"#utility.yul\":35547:35581   */\n      0x30332c2d31332e3439303036202d31302e31373033352c2d32392e3331343534\n        /* \"#utility.yul\":35541:35544   */\n      0x0220\n        /* \"#utility.yul\":35533:35539   */\n      dup3\n        /* \"#utility.yul\":35529:35545   */\n      add\n        /* \"#utility.yul\":35522:35582   */\n      mstore\n        /* \"#utility.yul\":35617:35651   */\n      0x202d31342e34333234362c2d34322e3332353634202d302e3236352c302e3236\n        /* \"#utility.yul\":35611:35614   */\n      0x0240\n        /* \"#utility.yul\":35603:35609   */\n      dup3\n        /* \"#utility.yul\":35599:35615   */\n      add\n        /* \"#utility.yul\":35592:35652   */\n      mstore\n        /* \"#utility.yul\":35687:35721   */\n      0x343938202d362e39303230342c31392e3431353635202d31342e30393235342c\n        /* \"#utility.yul\":35681:35684   */\n      0x0260\n        /* \"#utility.yul\":35673:35679   */\n      dup3\n        /* \"#utility.yul\":35669:35685   */\n      add\n        /* \"#utility.yul\":35662:35722   */\n      mstore\n        /* \"#utility.yul\":35757:35791   */\n      0x34312e3631393137202d372e313930352c32322e3230333532202d31332e3330\n        /* \"#utility.yul\":35751:35754   */\n      0x0280\n        /* \"#utility.yul\":35743:35749   */\n      dup3\n        /* \"#utility.yul\":35739:35755   */\n      add\n        /* \"#utility.yul\":35732:35792   */\n      mstore\n        /* \"#utility.yul\":35827:35861   */\n      0x30332c34302e3733363731202d31332e353737322c34312e3138343838204320\n        /* \"#utility.yul\":35821:35824   */\n      0x02a0\n        /* \"#utility.yul\":35813:35819   */\n      dup3\n        /* \"#utility.yul\":35809:35825   */\n      add\n        /* \"#utility.yul\":35802:35862   */\n      mstore\n        /* \"#utility.yul\":35897:35931   */\n      0x3231342e313038362c3138332e3633333332203139342e333333352c31383420\n        /* \"#utility.yul\":35891:35894   */\n      0x02c0\n        /* \"#utility.yul\":35883:35889   */\n      dup3\n        /* \"#utility.yul\":35879:35895   */\n      add\n        /* \"#utility.yul\":35872:35932   */\n      mstore\n        /* \"#utility.yul\":35967:36001   */\n      0x3137302e3434312c3138342063202d32332e38393235372c30202d34332e3432\n        /* \"#utility.yul\":35961:35964   */\n      0x02e0\n        /* \"#utility.yul\":35953:35959   */\n      dup3\n        /* \"#utility.yul\":35949:35965   */\n      add\n        /* \"#utility.yul\":35942:36002   */\n      mstore\n        /* \"#utility.yul\":36037:36071   */\n      0x3838382c302e33333735202d34332e34313430352c302e373520302e30313438\n        /* \"#utility.yul\":36031:36034   */\n      0x0300\n        /* \"#utility.yul\":36023:36029   */\n      dup3\n        /* \"#utility.yul\":36019:36035   */\n      add\n        /* \"#utility.yul\":36012:36072   */\n      mstore\n        /* \"#utility.yul\":36107:36141   */\n      0x2c302e343132352031352e37363438332c31322e313530322033352e30303030\n        /* \"#utility.yul\":36101:36104   */\n      0x0320\n        /* \"#utility.yul\":36093:36099   */\n      dup3\n        /* \"#utility.yul\":36089:36105   */\n      add\n        /* \"#utility.yul\":36082:36142   */\n      mstore\n        /* \"#utility.yul\":36177:36211   */\n      0x352c32362e30383337392031392e323335312c31332e39333335392033342e39\n        /* \"#utility.yul\":36171:36174   */\n      0x0340\n        /* \"#utility.yul\":36163:36169   */\n      dup3\n        /* \"#utility.yul\":36159:36175   */\n      add\n        /* \"#utility.yul\":36152:36212   */\n      mstore\n        /* \"#utility.yul\":36247:36281   */\n      0x3732352c32352e36333335392033342e3937322c3236202d36652d342c302e33\n        /* \"#utility.yul\":36241:36244   */\n      0x0360\n        /* \"#utility.yul\":36233:36239   */\n      dup3\n        /* \"#utility.yul\":36229:36245   */\n      add\n        /* \"#utility.yul\":36222:36282   */\n      mstore\n        /* \"#utility.yul\":36317:36351   */\n      0x36363432202d362e303735322c31392e3334313231202d31332e3439392c3432\n        /* \"#utility.yul\":36311:36314   */\n      0x0380\n        /* \"#utility.yul\":36303:36309   */\n      dup3\n        /* \"#utility.yul\":36299:36315   */\n      add\n        /* \"#utility.yul\":36292:36352   */\n      mstore\n        /* \"#utility.yul\":36387:36421   */\n      0x2e3136363231202d372e343233392c32322e383235202d31332e343938342c34\n        /* \"#utility.yul\":36381:36384   */\n      0x03a0\n        /* \"#utility.yul\":36373:36379   */\n      dup3\n        /* \"#utility.yul\":36369:36385   */\n      add\n        /* \"#utility.yul\":36362:36422   */\n      mstore\n        /* \"#utility.yul\":36457:36491   */\n      0x312e3633393036202d31332e3439392c34312e383039303220302c302e353836\n        /* \"#utility.yul\":36451:36454   */\n      0x03c0\n        /* \"#utility.yul\":36443:36449   */\n      dup3\n        /* \"#utility.yul\":36439:36455   */\n      add\n        /* \"#utility.yul\":36432:36492   */\n      mstore\n        /* \"#utility.yul\":36527:36561   */\n      0x393320322e36333631322c2d312e32383931352033372e333136342c2d32362e\n        /* \"#utility.yul\":36521:36524   */\n      0x03e0\n        /* \"#utility.yul\":36513:36519   */\n      dup3\n        /* \"#utility.yul\":36509:36525   */\n      add\n        /* \"#utility.yul\":36502:36562   */\n      mstore\n        /* \"#utility.yul\":36598:36664   */\n      0x3533373931207a22207472616e73666f726d3d227472616e736c617465283330\n        /* \"#utility.yul\":36591:36595   */\n      0x0400\n        /* \"#utility.yul\":36583:36589   */\n      dup3\n        /* \"#utility.yul\":36579:36596   */\n      add\n        /* \"#utility.yul\":36572:36665   */\n      mstore\n        /* \"#utility.yul\":36701:36767   */\n      0x302c31323029207363616c6528302e3229222f3e000000000000000000000000\n        /* \"#utility.yul\":36694:36698   */\n      0x0420\n        /* \"#utility.yul\":36686:36692   */\n      dup3\n        /* \"#utility.yul\":36682:36699   */\n      add\n        /* \"#utility.yul\":36675:36768   */\n      mstore\n        /* \"#utility.yul\":34188:36775   */\n      pop\n      jump\t// out\n        /* \"#utility.yul\":36781:36934   */\n    tag_275:\n        /* \"#utility.yul\":36921:36926   */\n      0x6d696e0000000000000000000000000000000000000000000000000000000000\n        /* \"#utility.yul\":36917:36918   */\n      0x00\n        /* \"#utility.yul\":36909:36915   */\n      dup3\n        /* \"#utility.yul\":36905:36919   */\n      add\n        /* \"#utility.yul\":36898:36927   */\n      mstore\n        /* \"#utility.yul\":36781:36934   */\n      pop\n      jump\t// out\n        /* \"#utility.yul\":36940:39527   */\n    tag_280:\n        /* \"#utility.yul\":37080:37146   */\n      0x3c70617468207374796c653d2266696c6c3a23623262396263222020643d226d\n        /* \"#utility.yul\":37076:37077   */\n      0x00\n        /* \"#utility.yul\":37068:37074   */\n      dup3\n        /* \"#utility.yul\":37064:37078   */\n      add\n        /* \"#utility.yul\":37057:37147   */\n      mstore\n        /* \"#utility.yul\":37181:37215   */\n      0x202d332e32303136393439652d362c31313539206320322e3133343436333365\n        /* \"#utility.yul\":37176:37178   */\n      0x20\n        /* \"#utility.yul\":37168:37174   */\n      dup3\n        /* \"#utility.yul\":37164:37179   */\n      add\n        /* \"#utility.yul\":37157:37216   */\n      mstore\n        /* \"#utility.yul\":37250:37284   */\n      0x2d362c3020312e30363732333136652d362c3020302c30207a204d20302e3132\n        /* \"#utility.yul\":37245:37247   */\n      0x40\n        /* \"#utility.yul\":37237:37243   */\n      dup3\n        /* \"#utility.yul\":37233:37248   */\n      add\n        /* \"#utility.yul\":37226:37285   */\n      mstore\n        /* \"#utility.yul\":37319:37353   */\n      0x36383036382c3238392e37352063202d302e30383435333738372c3537392e35\n        /* \"#utility.yul\":37314:37316   */\n      0x60\n        /* \"#utility.yul\":37306:37312   */\n      dup3\n        /* \"#utility.yul\":37302:37317   */\n      add\n        /* \"#utility.yul\":37295:37354   */\n      mstore\n        /* \"#utility.yul\":37389:37423   */\n      0x202d302e30343232363839332c3238392e373520302c30207a206d203230372e\n        /* \"#utility.yul\":37383:37386   */\n      0x80\n        /* \"#utility.yul\":37375:37381   */\n      dup3\n        /* \"#utility.yul\":37371:37387   */\n      add\n        /* \"#utility.yul\":37364:37424   */\n      mstore\n        /* \"#utility.yul\":37459:37493   */\n      0x313930353933322c342e35323131312033342e383137342c2d32352e33343835\n        /* \"#utility.yul\":37453:37456   */\n      0xa0\n        /* \"#utility.yul\":37445:37451   */\n      dup3\n        /* \"#utility.yul\":37441:37457   */\n      add\n        /* \"#utility.yul\":37434:37494   */\n      mstore\n        /* \"#utility.yul\":37529:37563   */\n      0x392033342e3432392c32352e303337353420632031382e3933362c31332e3737\n        /* \"#utility.yul\":37523:37526   */\n      0xc0\n        /* \"#utility.yul\":37515:37521   */\n      dup3\n        /* \"#utility.yul\":37511:37527   */\n      add\n        /* \"#utility.yul\":37504:37564   */\n      mstore\n        /* \"#utility.yul\":37599:37633   */\n      0x3036352033342e393933312c32352e31353035382033352e363832362c32352e\n        /* \"#utility.yul\":37593:37596   */\n      0xe0\n        /* \"#utility.yul\":37585:37591   */\n      dup3\n        /* \"#utility.yul\":37581:37597   */\n      add\n        /* \"#utility.yul\":37574:37634   */\n      mstore\n        /* \"#utility.yul\":37669:37703   */\n      0x323838373420302e363839352c302e313338313620312e313330372c2d302e34\n        /* \"#utility.yul\":37663:37666   */\n      0x0100\n        /* \"#utility.yul\":37655:37661   */\n      dup3\n        /* \"#utility.yul\":37651:37667   */\n      add\n        /* \"#utility.yul\":37644:37704   */\n      mstore\n        /* \"#utility.yul\":37739:37773   */\n      0x3935353420302e393830362c2d312e3430383231202d302e313530322c2d302e\n        /* \"#utility.yul\":37733:37736   */\n      0x0120\n        /* \"#utility.yul\":37725:37731   */\n      dup3\n        /* \"#utility.yul\":37721:37737   */\n      add\n        /* \"#utility.yul\":37714:37774   */\n      mstore\n        /* \"#utility.yul\":37809:37843   */\n      0x3931323638202d362e313130312c2d31392e3537343234202d31332e32343432\n        /* \"#utility.yul\":37803:37806   */\n      0x0140\n        /* \"#utility.yul\":37795:37801   */\n      dup3\n        /* \"#utility.yul\":37791:37807   */\n      add\n        /* \"#utility.yul\":37784:37844   */\n      mstore\n        /* \"#utility.yul\":37879:37913   */\n      0x2c2d34312e3437303133202d31302e313837382c2d33312e3236383136202d31\n        /* \"#utility.yul\":37873:37876   */\n      0x0160\n        /* \"#utility.yul\":37865:37871   */\n      dup3\n        /* \"#utility.yul\":37861:37877   */\n      add\n        /* \"#utility.yul\":37854:37914   */\n      mstore\n        /* \"#utility.yul\":37949:37983   */\n      0x322e373034312c2d34302e3035313237202d31312e3732372c2d34302e393331\n        /* \"#utility.yul\":37943:37946   */\n      0x0180\n        /* \"#utility.yul\":37935:37941   */\n      dup3\n        /* \"#utility.yul\":37931:37947   */\n      add\n        /* \"#utility.yul\":37924:37984   */\n      mstore\n        /* \"#utility.yul\":38019:38053   */\n      0x373520302e363834332c2d302e36313635372031372e31343938332c2d31312e\n        /* \"#utility.yul\":38013:38016   */\n      0x01a0\n        /* \"#utility.yul\":38005:38011   */\n      dup3\n        /* \"#utility.yul\":38001:38017   */\n      add\n        /* \"#utility.yul\":37994:38054   */\n      mstore\n        /* \"#utility.yul\":38089:38123   */\n      0x37393238382033352e373030392c2d32362e3032393837204c203335382e3431\n        /* \"#utility.yul\":38083:38086   */\n      0x01c0\n        /* \"#utility.yul\":38075:38081   */\n      dup3\n        /* \"#utility.yul\":38071:38087   */\n      add\n        /* \"#utility.yul\":38064:38124   */\n      mstore\n        /* \"#utility.yul\":38159:38193   */\n      0x33342c3138342e35203331342e303731312c313834203236392e373238372c31\n        /* \"#utility.yul\":38153:38156   */\n      0x01e0\n        /* \"#utility.yul\":38145:38151   */\n      dup3\n        /* \"#utility.yul\":38141:38157   */\n      add\n        /* \"#utility.yul\":38134:38194   */\n      mstore\n        /* \"#utility.yul\":38229:38263   */\n      0x38332e35203235362e343837382c3134322e37303637352063202d342e373236\n        /* \"#utility.yul\":38223:38226   */\n      0x0200\n        /* \"#utility.yul\":38215:38221   */\n      dup3\n        /* \"#utility.yul\":38211:38227   */\n      add\n        /* \"#utility.yul\":38204:38264   */\n      mstore\n        /* \"#utility.yul\":38299:38333   */\n      0x30332c2d31332e3439303036202d31302e31373033352c2d32392e3331343534\n        /* \"#utility.yul\":38293:38296   */\n      0x0220\n        /* \"#utility.yul\":38285:38291   */\n      dup3\n        /* \"#utility.yul\":38281:38297   */\n      add\n        /* \"#utility.yul\":38274:38334   */\n      mstore\n        /* \"#utility.yul\":38369:38403   */\n      0x202d31342e34333234362c2d34322e3332353634202d302e3236352c302e3236\n        /* \"#utility.yul\":38363:38366   */\n      0x0240\n        /* \"#utility.yul\":38355:38361   */\n      dup3\n        /* \"#utility.yul\":38351:38367   */\n      add\n        /* \"#utility.yul\":38344:38404   */\n      mstore\n        /* \"#utility.yul\":38439:38473   */\n      0x343938202d362e39303230342c31392e3431353635202d31342e30393235342c\n        /* \"#utility.yul\":38433:38436   */\n      0x0260\n        /* \"#utility.yul\":38425:38431   */\n      dup3\n        /* \"#utility.yul\":38421:38437   */\n      add\n        /* \"#utility.yul\":38414:38474   */\n      mstore\n        /* \"#utility.yul\":38509:38543   */\n      0x34312e3631393137202d372e313930352c32322e3230333532202d31332e3330\n        /* \"#utility.yul\":38503:38506   */\n      0x0280\n        /* \"#utility.yul\":38495:38501   */\n      dup3\n        /* \"#utility.yul\":38491:38507   */\n      add\n        /* \"#utility.yul\":38484:38544   */\n      mstore\n        /* \"#utility.yul\":38579:38613   */\n      0x30332c34302e3733363731202d31332e353737322c34312e3138343838204320\n        /* \"#utility.yul\":38573:38576   */\n      0x02a0\n        /* \"#utility.yul\":38565:38571   */\n      dup3\n        /* \"#utility.yul\":38561:38577   */\n      add\n        /* \"#utility.yul\":38554:38614   */\n      mstore\n        /* \"#utility.yul\":38649:38683   */\n      0x3231342e313038362c3138332e3633333332203139342e333333352c31383420\n        /* \"#utility.yul\":38643:38646   */\n      0x02c0\n        /* \"#utility.yul\":38635:38641   */\n      dup3\n        /* \"#utility.yul\":38631:38647   */\n      add\n        /* \"#utility.yul\":38624:38684   */\n      mstore\n        /* \"#utility.yul\":38719:38753   */\n      0x3137302e3434312c3138342063202d32332e38393235372c30202d34332e3432\n        /* \"#utility.yul\":38713:38716   */\n      0x02e0\n        /* \"#utility.yul\":38705:38711   */\n      dup3\n        /* \"#utility.yul\":38701:38717   */\n      add\n        /* \"#utility.yul\":38694:38754   */\n      mstore\n        /* \"#utility.yul\":38789:38823   */\n      0x3838382c302e33333735202d34332e34313430352c302e373520302e30313438\n        /* \"#utility.yul\":38783:38786   */\n      0x0300\n        /* \"#utility.yul\":38775:38781   */\n      dup3\n        /* \"#utility.yul\":38771:38787   */\n      add\n        /* \"#utility.yul\":38764:38824   */\n      mstore\n        /* \"#utility.yul\":38859:38893   */\n      0x2c302e343132352031352e37363438332c31322e313530322033352e30303030\n        /* \"#utility.yul\":38853:38856   */\n      0x0320\n        /* \"#utility.yul\":38845:38851   */\n      dup3\n        /* \"#utility.yul\":38841:38857   */\n      add\n        /* \"#utility.yul\":38834:38894   */\n      mstore\n        /* \"#utility.yul\":38929:38963   */\n      0x352c32362e30383337392031392e323335312c31332e39333335392033342e39\n        /* \"#utility.yul\":38923:38926   */\n      0x0340\n        /* \"#utility.yul\":38915:38921   */\n      dup3\n        /* \"#utility.yul\":38911:38927   */\n      add\n        /* \"#utility.yul\":38904:38964   */\n      mstore\n        /* \"#utility.yul\":38999:39033   */\n      0x3732352c32352e36333335392033342e3937322c3236202d36652d342c302e33\n        /* \"#utility.yul\":38993:38996   */\n      0x0360\n        /* \"#utility.yul\":38985:38991   */\n      dup3\n        /* \"#utility.yul\":38981:38997   */\n      add\n        /* \"#utility.yul\":38974:39034   */\n      mstore\n        /* \"#utility.yul\":39069:39103   */\n      0x36363432202d362e303735322c31392e3334313231202d31332e3439392c3432\n        /* \"#utility.yul\":39063:39066   */\n      0x0380\n        /* \"#utility.yul\":39055:39061   */\n      dup3\n        /* \"#utility.yul\":39051:39067   */\n      add\n        /* \"#utility.yul\":39044:39104   */\n      mstore\n        /* \"#utility.yul\":39139:39173   */\n      0x2e3136363231202d372e343233392c32322e383235202d31332e343938342c34\n        /* \"#utility.yul\":39133:39136   */\n      0x03a0\n        /* \"#utility.yul\":39125:39131   */\n      dup3\n        /* \"#utility.yul\":39121:39137   */\n      add\n        /* \"#utility.yul\":39114:39174   */\n      mstore\n        /* \"#utility.yul\":39209:39243   */\n      0x312e3633393036202d31332e3439392c34312e383039303220302c302e353836\n        /* \"#utility.yul\":39203:39206   */\n      0x03c0\n        /* \"#utility.yul\":39195:39201   */\n      dup3\n        /* \"#utility.yul\":39191:39207   */\n      add\n        /* \"#utility.yul\":39184:39244   */\n      mstore\n        /* \"#utility.yul\":39279:39313   */\n      0x393320322e36333631322c2d312e32383931352033372e333136342c2d32362e\n        /* \"#utility.yul\":39273:39276   */\n      0x03e0\n        /* \"#utility.yul\":39265:39271   */\n      dup3\n        /* \"#utility.yul\":39261:39277   */\n      add\n        /* \"#utility.yul\":39254:39314   */\n      mstore\n        /* \"#utility.yul\":39350:39416   */\n      0x3533373931207a22207472616e73666f726d3d227472616e736c617465283330\n        /* \"#utility.yul\":39343:39347   */\n      0x0400\n        /* \"#utility.yul\":39335:39341   */\n      dup3\n        /* \"#utility.yul\":39331:39348   */\n      add\n        /* \"#utility.yul\":39324:39417   */\n      mstore\n        /* \"#utility.yul\":39453:39519   */\n      0x302c363029207363616c6528302e3229222f3e00000000000000000000000000\n        /* \"#utility.yul\":39446:39450   */\n      0x0420\n        /* \"#utility.yul\":39438:39444   */\n      dup3\n        /* \"#utility.yul\":39434:39451   */\n      add\n        /* \"#utility.yul\":39427:39520   */\n      mstore\n        /* \"#utility.yul\":36940:39527   */\n      pop\n      jump\t// out\n        /* \"#utility.yul\":39533:39689   */\n    tag_285:\n        /* \"#utility.yul\":39673:39681   */\n      0x3c2f7376673e0000000000000000000000000000000000000000000000000000\n        /* \"#utility.yul\":39669:39670   */\n      0x00\n        /* \"#utility.yul\":39661:39667   */\n      dup3\n        /* \"#utility.yul\":39657:39671   */\n      add\n        /* \"#utility.yul\":39650:39682   */\n      mstore\n        /* \"#utility.yul\":39533:39689   */\n      pop\n      jump\t// out\n        /* \"#utility.yul\":39695:42282   */\n    tag_290:\n        /* \"#utility.yul\":39835:39901   */\n      0x3c70617468207374796c653d2266696c6c3a23396335323231222020643d226d\n        /* \"#utility.yul\":39831:39832   */\n      0x00\n        /* \"#utility.yul\":39823:39829   */\n      dup3\n        /* \"#utility.yul\":39819:39833   */\n      add\n        /* \"#utility.yul\":39812:39902   */\n      mstore\n        /* \"#utility.yul\":39936:39970   */\n      0x202d332e32303136393439652d362c31313539206320322e3133343436333365\n        /* \"#utility.yul\":39931:39933   */\n      0x20\n        /* \"#utility.yul\":39923:39929   */\n      dup3\n        /* \"#utility.yul\":39919:39934   */\n      add\n        /* \"#utility.yul\":39912:39971   */\n      mstore\n        /* \"#utility.yul\":40005:40039   */\n      0x2d362c3020312e30363732333136652d362c3020302c30207a204d20302e3132\n        /* \"#utility.yul\":40000:40002   */\n      0x40\n        /* \"#utility.yul\":39992:39998   */\n      dup3\n        /* \"#utility.yul\":39988:40003   */\n      add\n        /* \"#utility.yul\":39981:40040   */\n      mstore\n        /* \"#utility.yul\":40074:40108   */\n      0x36383036382c3238392e37352063202d302e30383435333738372c3537392e35\n        /* \"#utility.yul\":40069:40071   */\n      0x60\n        /* \"#utility.yul\":40061:40067   */\n      dup3\n        /* \"#utility.yul\":40057:40072   */\n      add\n        /* \"#utility.yul\":40050:40109   */\n      mstore\n        /* \"#utility.yul\":40144:40178   */\n      0x202d302e30343232363839332c3238392e373520302c30207a206d203230372e\n        /* \"#utility.yul\":40138:40141   */\n      0x80\n        /* \"#utility.yul\":40130:40136   */\n      dup3\n        /* \"#utility.yul\":40126:40142   */\n      add\n        /* \"#utility.yul\":40119:40179   */\n      mstore\n        /* \"#utility.yul\":40214:40248   */\n      0x313930353933322c342e35323131312033342e383137342c2d32352e33343835\n        /* \"#utility.yul\":40208:40211   */\n      0xa0\n        /* \"#utility.yul\":40200:40206   */\n      dup3\n        /* \"#utility.yul\":40196:40212   */\n      add\n        /* \"#utility.yul\":40189:40249   */\n      mstore\n        /* \"#utility.yul\":40284:40318   */\n      0x392033342e3432392c32352e303337353420632031382e3933362c31332e3737\n        /* \"#utility.yul\":40278:40281   */\n      0xc0\n        /* \"#utility.yul\":40270:40276   */\n      dup3\n        /* \"#utility.yul\":40266:40282   */\n      add\n        /* \"#utility.yul\":40259:40319   */\n      mstore\n        /* \"#utility.yul\":40354:40388   */\n      0x3036352033342e393933312c32352e31353035382033352e363832362c32352e\n        /* \"#utility.yul\":40348:40351   */\n      0xe0\n        /* \"#utility.yul\":40340:40346   */\n      dup3\n        /* \"#utility.yul\":40336:40352   */\n      add\n        /* \"#utility.yul\":40329:40389   */\n      mstore\n        /* \"#utility.yul\":40424:40458   */\n      0x323838373420302e363839352c302e313338313620312e313330372c2d302e34\n        /* \"#utility.yul\":40418:40421   */\n      0x0100\n        /* \"#utility.yul\":40410:40416   */\n      dup3\n        /* \"#utility.yul\":40406:40422   */\n      add\n        /* \"#utility.yul\":40399:40459   */\n      mstore\n        /* \"#utility.yul\":40494:40528   */\n      0x3935353420302e393830362c2d312e3430383231202d302e313530322c2d302e\n        /* \"#utility.yul\":40488:40491   */\n      0x0120\n        /* \"#utility.yul\":40480:40486   */\n      dup3\n        /* \"#utility.yul\":40476:40492   */\n      add\n        /* \"#utility.yul\":40469:40529   */\n      mstore\n        /* \"#utility.yul\":40564:40598   */\n      0x3931323638202d362e313130312c2d31392e3537343234202d31332e32343432\n        /* \"#utility.yul\":40558:40561   */\n      0x0140\n        /* \"#utility.yul\":40550:40556   */\n      dup3\n        /* \"#utility.yul\":40546:40562   */\n      add\n        /* \"#utility.yul\":40539:40599   */\n      mstore\n        /* \"#utility.yul\":40634:40668   */\n      0x2c2d34312e3437303133202d31302e313837382c2d33312e3236383136202d31\n        /* \"#utility.yul\":40628:40631   */\n      0x0160\n        /* \"#utility.yul\":40620:40626   */\n      dup3\n        /* \"#utility.yul\":40616:40632   */\n      add\n        /* \"#utility.yul\":40609:40669   */\n      mstore\n        /* \"#utility.yul\":40704:40738   */\n      0x322e373034312c2d34302e3035313237202d31312e3732372c2d34302e393331\n        /* \"#utility.yul\":40698:40701   */\n      0x0180\n        /* \"#utility.yul\":40690:40696   */\n      dup3\n        /* \"#utility.yul\":40686:40702   */\n      add\n        /* \"#utility.yul\":40679:40739   */\n      mstore\n        /* \"#utility.yul\":40774:40808   */\n      0x373520302e363834332c2d302e36313635372031372e31343938332c2d31312e\n        /* \"#utility.yul\":40768:40771   */\n      0x01a0\n        /* \"#utility.yul\":40760:40766   */\n      dup3\n        /* \"#utility.yul\":40756:40772   */\n      add\n        /* \"#utility.yul\":40749:40809   */\n      mstore\n        /* \"#utility.yul\":40844:40878   */\n      0x37393238382033352e373030392c2d32362e3032393837204c203335382e3431\n        /* \"#utility.yul\":40838:40841   */\n      0x01c0\n        /* \"#utility.yul\":40830:40836   */\n      dup3\n        /* \"#utility.yul\":40826:40842   */\n      add\n        /* \"#utility.yul\":40819:40879   */\n      mstore\n        /* \"#utility.yul\":40914:40948   */\n      0x33342c3138342e35203331342e303731312c313834203236392e373238372c31\n        /* \"#utility.yul\":40908:40911   */\n      0x01e0\n        /* \"#utility.yul\":40900:40906   */\n      dup3\n        /* \"#utility.yul\":40896:40912   */\n      add\n        /* \"#utility.yul\":40889:40949   */\n      mstore\n        /* \"#utility.yul\":40984:41018   */\n      0x38332e35203235362e343837382c3134322e37303637352063202d342e373236\n        /* \"#utility.yul\":40978:40981   */\n      0x0200\n        /* \"#utility.yul\":40970:40976   */\n      dup3\n        /* \"#utility.yul\":40966:40982   */\n      add\n        /* \"#utility.yul\":40959:41019   */\n      mstore\n        /* \"#utility.yul\":41054:41088   */\n      0x30332c2d31332e3439303036202d31302e31373033352c2d32392e3331343534\n        /* \"#utility.yul\":41048:41051   */\n      0x0220\n        /* \"#utility.yul\":41040:41046   */\n      dup3\n        /* \"#utility.yul\":41036:41052   */\n      add\n        /* \"#utility.yul\":41029:41089   */\n      mstore\n        /* \"#utility.yul\":41124:41158   */\n      0x202d31342e34333234362c2d34322e3332353634202d302e3236352c302e3236\n        /* \"#utility.yul\":41118:41121   */\n      0x0240\n        /* \"#utility.yul\":41110:41116   */\n      dup3\n        /* \"#utility.yul\":41106:41122   */\n      add\n        /* \"#utility.yul\":41099:41159   */\n      mstore\n        /* \"#utility.yul\":41194:41228   */\n      0x343938202d362e39303230342c31392e3431353635202d31342e30393235342c\n        /* \"#utility.yul\":41188:41191   */\n      0x0260\n        /* \"#utility.yul\":41180:41186   */\n      dup3\n        /* \"#utility.yul\":41176:41192   */\n      add\n        /* \"#utility.yul\":41169:41229   */\n      mstore\n        /* \"#utility.yul\":41264:41298   */\n      0x34312e3631393137202d372e313930352c32322e3230333532202d31332e3330\n        /* \"#utility.yul\":41258:41261   */\n      0x0280\n        /* \"#utility.yul\":41250:41256   */\n      dup3\n        /* \"#utility.yul\":41246:41262   */\n      add\n        /* \"#utility.yul\":41239:41299   */\n      mstore\n        /* \"#utility.yul\":41334:41368   */\n      0x30332c34302e3733363731202d31332e353737322c34312e3138343838204320\n        /* \"#utility.yul\":41328:41331   */\n      0x02a0\n        /* \"#utility.yul\":41320:41326   */\n      dup3\n        /* \"#utility.yul\":41316:41332   */\n      add\n        /* \"#utility.yul\":41309:41369   */\n      mstore\n        /* \"#utility.yul\":41404:41438   */\n      0x3231342e313038362c3138332e3633333332203139342e333333352c31383420\n        /* \"#utility.yul\":41398:41401   */\n      0x02c0\n        /* \"#utility.yul\":41390:41396   */\n      dup3\n        /* \"#utility.yul\":41386:41402   */\n      add\n        /* \"#utility.yul\":41379:41439   */\n      mstore\n        /* \"#utility.yul\":41474:41508   */\n      0x3137302e3434312c3138342063202d32332e38393235372c30202d34332e3432\n        /* \"#utility.yul\":41468:41471   */\n      0x02e0\n        /* \"#utility.yul\":41460:41466   */\n      dup3\n        /* \"#utility.yul\":41456:41472   */\n      add\n        /* \"#utility.yul\":41449:41509   */\n      mstore\n        /* \"#utility.yul\":41544:41578   */\n      0x3838382c302e33333735202d34332e34313430352c302e373520302e30313438\n        /* \"#utility.yul\":41538:41541   */\n      0x0300\n        /* \"#utility.yul\":41530:41536   */\n      dup3\n        /* \"#utility.yul\":41526:41542   */\n      add\n        /* \"#utility.yul\":41519:41579   */\n      mstore\n        /* \"#utility.yul\":41614:41648   */\n      0x2c302e343132352031352e37363438332c31322e313530322033352e30303030\n        /* \"#utility.yul\":41608:41611   */\n      0x0320\n        /* \"#utility.yul\":41600:41606   */\n      dup3\n        /* \"#utility.yul\":41596:41612   */\n      add\n        /* \"#utility.yul\":41589:41649   */\n      mstore\n        /* \"#utility.yul\":41684:41718   */\n      0x352c32362e30383337392031392e323335312c31332e39333335392033342e39\n        /* \"#utility.yul\":41678:41681   */\n      0x0340\n        /* \"#utility.yul\":41670:41676   */\n      dup3\n        /* \"#utility.yul\":41666:41682   */\n      add\n        /* \"#utility.yul\":41659:41719   */\n      mstore\n        /* \"#utility.yul\":41754:41788   */\n      0x3732352c32352e36333335392033342e3937322c3236202d36652d342c302e33\n        /* \"#utility.yul\":41748:41751   */\n      0x0360\n        /* \"#utility.yul\":41740:41746   */\n      dup3\n        /* \"#utility.yul\":41736:41752   */\n      add\n        /* \"#utility.yul\":41729:41789   */\n      mstore\n        /* \"#utility.yul\":41824:41858   */\n      0x36363432202d362e303735322c31392e3334313231202d31332e3439392c3432\n        /* \"#utility.yul\":41818:41821   */\n      0x0380\n        /* \"#utility.yul\":41810:41816   */\n      dup3\n        /* \"#utility.yul\":41806:41822   */\n      add\n        /* \"#utility.yul\":41799:41859   */\n      mstore\n        /* \"#utility.yul\":41894:41928   */\n      0x2e3136363231202d372e343233392c32322e383235202d31332e343938342c34\n        /* \"#utility.yul\":41888:41891   */\n      0x03a0\n        /* \"#utility.yul\":41880:41886   */\n      dup3\n        /* \"#utility.yul\":41876:41892   */\n      add\n        /* \"#utility.yul\":41869:41929   */\n      mstore\n        /* \"#utility.yul\":41964:41998   */\n      0x312e3633393036202d31332e3439392c34312e383039303220302c302e353836\n        /* \"#utility.yul\":41958:41961   */\n      0x03c0\n        /* \"#utility.yul\":41950:41956   */\n      dup3\n        /* \"#utility.yul\":41946:41962   */\n      add\n        /* \"#utility.yul\":41939:41999   */\n      mstore\n        /* \"#utility.yul\":42034:42068   */\n      0x393320322e36333631322c2d312e32383931352033372e333136342c2d32362e\n        /* \"#utility.yul\":42028:42031   */\n      0x03e0\n        /* \"#utility.yul\":42020:42026   */\n      dup3\n        /* \"#utility.yul\":42016:42032   */\n      add\n        /* \"#utility.yul\":42009:42069   */\n      mstore\n        /* \"#utility.yul\":42105:42171   */\n      0x3533373931207a22207472616e73666f726d3d227472616e736c617465283330\n        /* \"#utility.yul\":42098:42102   */\n      0x0400\n        /* \"#utility.yul\":42090:42096   */\n      dup3\n        /* \"#utility.yul\":42086:42103   */\n      add\n        /* \"#utility.yul\":42079:42172   */\n      mstore\n        /* \"#utility.yul\":42208:42274   */\n      0x302c3029207363616c6528302e3229222f3e0000000000000000000000000000\n        /* \"#utility.yul\":42201:42205   */\n      0x0420\n        /* \"#utility.yul\":42193:42199   */\n      dup3\n        /* \"#utility.yul\":42189:42206   */\n      add\n        /* \"#utility.yul\":42182:42275   */\n      mstore\n        /* \"#utility.yul\":39695:42282   */\n      pop\n      jump\t// out\n        /* \"#utility.yul\":42288:42445   */\n    tag_295:\n        /* \"#utility.yul\":42428:42437   */\n      0x3c7374796c653e00000000000000000000000000000000000000000000000000\n        /* \"#utility.yul\":42424:42425   */\n      0x00\n        /* \"#utility.yul\":42416:42422   */\n      dup3\n        /* \"#utility.yul\":42412:42426   */\n      add\n        /* \"#utility.yul\":42405:42438   */\n      mstore\n        /* \"#utility.yul\":42288:42445   */\n      pop\n      jump\t// out\n        /* \"#utility.yul\":42451:42822   */\n    tag_300:\n        /* \"#utility.yul\":42591:42625   */\n      0x74657874207b20666f6e742d66616d696c793a20417269616c2c2048656c7665\n        /* \"#utility.yul\":42587:42588   */\n      0x00\n        /* \"#utility.yul\":42579:42585   */\n      dup3\n        /* \"#utility.yul\":42575:42589   */\n      add\n        /* \"#utility.yul\":42568:42626   */\n      mstore\n        /* \"#utility.yul\":42664:42698   */\n      0x746963612c2073616e732d73657269663b20666f6e742d7765696768743a2020\n        /* \"#utility.yul\":42659:42661   */\n      0x20\n        /* \"#utility.yul\":42651:42657   */\n      dup3\n        /* \"#utility.yul\":42647:42662   */\n      add\n        /* \"#utility.yul\":42640:42699   */\n      mstore\n        /* \"#utility.yul\":42737:42771   */\n      0x626f6c643b2066696c6c3a20236666653530303b20666f6e742d73697a653a20\n        /* \"#utility.yul\":42732:42734   */\n      0x40\n        /* \"#utility.yul\":42724:42730   */\n      dup3\n        /* \"#utility.yul\":42720:42735   */\n      add\n        /* \"#utility.yul\":42713:42772   */\n      mstore\n        /* \"#utility.yul\":42806:42814   */\n      0x31656d3b207d0000000000000000000000000000000000000000000000000000\n        /* \"#utility.yul\":42801:42803   */\n      0x60\n        /* \"#utility.yul\":42793:42799   */\n      dup3\n        /* \"#utility.yul\":42789:42804   */\n      add\n        /* \"#utility.yul\":42782:42815   */\n      mstore\n        /* \"#utility.yul\":42451:42822   */\n      pop\n      jump\t// out\n        /* \"#utility.yul\":42828:42950   */\n    tag_149:\n        /* \"#utility.yul\":42901:42925   */\n      tag_451\n        /* \"#utility.yul\":42919:42924   */\n      dup2\n        /* \"#utility.yul\":42901:42925   */\n      tag_382\n      jump\t// in\n    tag_451:\n        /* \"#utility.yul\":42894:42899   */\n      dup2\n        /* \"#utility.yul\":42891:42926   */\n      eq\n        /* \"#utility.yul\":42881:42944   */\n      tag_452\n      jumpi\n        /* \"#utility.yul\":42940:42941   */\n      0x00\n        /* \"#utility.yul\":42937:42938   */\n      dup1\n        /* \"#utility.yul\":42930:42942   */\n      revert\n        /* \"#utility.yul\":42881:42944   */\n    tag_452:\n        /* \"#utility.yul\":42828:42950   */\n      pop\n      jump\t// out\n    stop\n    data_13ee12525b78d1800c98700a3c7bb02c6ed5e8636ea4bf89bace0c534940e1ba 3c7376672077696474683d2233393022206865696768743d22343335222066696c6c3d22677265656e2220786d6c6e733d22687474703a2f2f7777772e77332e6f72672f323030302f737667223e\n\n    auxdata: 0xa2646970667358221220bb8dc21cc5861ba30b05a58ffb260f6af53a256a4c12a760377d5d3520b8444164736f6c63430008070033\n}\n",
				"bytecode": {
					"linkReferences": {},
					"object": "60806040523480156200001157600080fd5b5060405162002bb138038062002bb183398181016040528101906200003791906200019d565b846000806101000a81548173ffffffffffffffffffffffffffffffffffffffff021916908373ffffffffffffffffffffffffffffffffffffffff16021790555083600160006101000a81548173ffffffffffffffffffffffffffffffffffffffff021916908373ffffffffffffffffffffffffffffffffffffffff16021790555082600260006101000a81548173ffffffffffffffffffffffffffffffffffffffff021916908373ffffffffffffffffffffffffffffffffffffffff16021790555081600360006101000a81548173ffffffffffffffffffffffffffffffffffffffff021916908373ffffffffffffffffffffffffffffffffffffffff16021790555080600460006101000a81548173ffffffffffffffffffffffffffffffffffffffff021916908373ffffffffffffffffffffffffffffffffffffffff160217905550505050505062000278565b60008151905062000197816200025e565b92915050565b600080600080600060a08688031215620001bc57620001bb62000259565b5b6000620001cc8882890162000186565b9550506020620001df8882890162000186565b9450506040620001f28882890162000186565b9350506060620002058882890162000186565b9250506080620002188882890162000186565b9150509295509295909350565b6000620002328262000239565b9050919050565b600073ffffffffffffffffffffffffffffffffffffffff82169050919050565b600080fd5b620002698162000225565b81146200027557600080fd5b50565b61292980620002886000396000f3fe608060405234801561001057600080fd5b506004361061002b5760003560e01c8063c737029614610030575b600080fd5b61004a60048036038101906100459190610a75565b610060565b60405161005791906111a3565b60405180910390f35b60606040518060800160405280604e81526020016128a6604e913990508060405160200161008e91906110f7565b6040516020818303038152906040529050806040516020016100b09190610ffd565b60405160208183030381529060405290506100cb8185610249565b9050600082111561015157806040516020016100e791906110d5565b6040516020818303038152906040529050600182111561015057806040516020016101129190611091565b6040516020818303038152906040529050600282111561014f578060405160200161013d919061106f565b60405160208183030381529060405290505b5b5b8084604051602001610164929190611035565b60405160208183030381529060405290508061017f886107d6565b604051602001610190929190610fb8565b6040516020818303038152906040529050806101ab876107d6565b6040516020016101bc929190610f0a565b6040516020818303038152906040529050806101d7866107d6565b6040516020016101e8929190610f7e565b6040516020818303038152906040529050808360405160200161020c929190610f44565b60405160208183030381529060405290508060405160200161022e91906110b3565b60405160208183030381529060405290509695505050505050565b60608160405160200161025c9190610ecf565b604051602081830303815290604052805190602001206040516020016102819061118e565b6040516020818303038152906040528051906020012014156103665782600260009054906101000a900473ffffffffffffffffffffffffffffffffffffffff1673ffffffffffffffffffffffffffffffffffffffff1663bd85f55f6040518163ffffffff1660e01b815260040160006040518083038186803b15801561030657600080fd5b505afa15801561031a573d6000803e3d6000fd5b505050506040513d6000823e3d601f19601f820116820180604052508101906103439190610a2c565b604051602001610354929190610ee6565b60405160208183030381529060405290505b816040516020016103779190610ecf565b6040516020818303038152906040528051906020012060405160200161039c90611179565b60405160208183030381529060405280519060200120141561047f578260008054906101000a900473ffffffffffffffffffffffffffffffffffffffff1673ffffffffffffffffffffffffffffffffffffffff1663bd85f55f6040518163ffffffff1660e01b815260040160006040518083038186803b15801561041f57600080fd5b505afa158015610433573d6000803e3d6000fd5b505050506040513d6000823e3d601f19601f8201168201806040525081019061045c9190610a2c565b60405160200161046d929190610ee6565b60405160208183030381529060405290505b816040516020016104909190610ecf565b604051602081830303815290604052805190602001206040516020016104b59061113a565b60405160208183030381529060405280519060200120141561059a5782600360009054906101000a900473ffffffffffffffffffffffffffffffffffffffff1673ffffffffffffffffffffffffffffffffffffffff1663bd85f55f6040518163ffffffff1660e01b815260040160006040518083038186803b15801561053a57600080fd5b505afa15801561054e573d6000803e3d6000fd5b505050506040513d6000823e3d601f19601f820116820180604052508101906105779190610a2c565b604051602001610588929190610ee6565b60405160208183030381529060405290505b816040516020016105ab9190610ecf565b604051602081830303815290604052805190602001206040516020016105d09061114f565b6040516020818303038152906040528051906020012014156106b55782600160009054906101000a900473ffffffffffffffffffffffffffffffffffffffff1673ffffffffffffffffffffffffffffffffffffffff1663bd85f55f6040518163ffffffff1660e01b815260040160006040518083038186803b15801561065557600080fd5b505afa158015610669573d6000803e3d6000fd5b505050506040513d6000823e3d601f19601f820116820180604052508101906106929190610a2c565b6040516020016106a3929190610ee6565b60405160208183030381529060405290505b816040516020016106c69190610ecf565b604051602081830303815290604052805190602001206040516020016106eb90611164565b6040516020818303038152906040528051906020012014156107d05782600460009054906101000a900473ffffffffffffffffffffffffffffffffffffffff1673ffffffffffffffffffffffffffffffffffffffff1663bd85f55f6040518163ffffffff1660e01b815260040160006040518083038186803b15801561077057600080fd5b505afa158015610784573d6000803e3d6000fd5b505050506040513d6000823e3d601f19601f820116820180604052508101906107ad9190610a2c565b6040516020016107be929190610ee6565b60405160208183030381529060405290505b92915050565b6060600082141561081e576040518060400160405280600181526020017f30000000000000000000000000000000000000000000000000000000000000008152509050610932565b600082905060005b600082146108505780806108399061137a565b915050600a826108499190611298565b9150610826565b60008167ffffffffffffffff81111561086c5761086b611481565b5b6040519080825280601f01601f19166020018201604052801561089e5781602001600182028036833780820191505090505b5090505b6000851461092b576001826108b791906112c9565b9150600a856108c691906113c3565b60306108d29190611242565b60f81b8183815181106108e8576108e7611452565b5b60200101907effffffffffffffffffffffffffffffffffffffffffffffffffffffffffffff1916908160001a905350600a856109249190611298565b94506108a2565b8093505050505b919050565b600061094a610945846111ea565b6111c5565b905082815260208101848484011115610966576109656114b5565b5b610971848285611307565b509392505050565b600061098c610987846111ea565b6111c5565b9050828152602081018484840111156109a8576109a76114b5565b5b6109b3848285611316565b509392505050565b600082601f8301126109d0576109cf6114b0565b5b81356109e0848260208601610937565b91505092915050565b600082601f8301126109fe576109fd6114b0565b5b8151610a0e848260208601610979565b91505092915050565b600081359050610a268161288e565b92915050565b600060208284031215610a4257610a416114bf565b5b600082015167ffffffffffffffff811115610a6057610a5f6114ba565b5b610a6c848285016109e9565b91505092915050565b60008060008060008060c08789031215610a9257610a916114bf565b5b6000610aa089828a01610a17565b9650506020610ab189828a01610a17565b9550506040610ac289828a01610a17565b945050606087013567ffffffffffffffff811115610ae357610ae26114ba565b5b610aef89828a016109bb565b935050608087013567ffffffffffffffff811115610b1057610b0f6114ba565b5b610b1c89828a016109bb565b92505060a0610b2d89828a01610a17565b9150509295509295509295565b6000610b458261121b565b610b4f8185611226565b9350610b5f818560208601611316565b610b68816114c4565b840191505092915050565b6000610b7e8261121b565b610b888185611237565b9350610b98818560208601611316565b80840191505092915050565b6000610bb1600d83611237565b9150610bbc826114d5565b600d82019050919050565b6000610bd4600783611237565b9150610bdf826114fe565b600782019050919050565b6000610bf7604283611237565b9150610c0282611527565b604282019050919050565b6000610c1a601d83611237565b9150610c258261159c565b601d82019050919050565b6000610c3d602083611237565b9150610c48826115c5565b602082019050919050565b6000610c60601d83611237565b9150610c6b826115ee565b601d82019050919050565b6000610c83602083611237565b9150610c8e82611617565b602082019050919050565b6000610ca6600b83611237565b9150610cb182611640565b600b82019050919050565b6000610cc9600883611237565b9150610cd482611669565b600882019050919050565b6000610cec600483611237565b9150610cf782611692565b600482019050919050565b6000610d0f600d83611237565b9150610d1a826116bb565b600d82019050919050565b6000610d32602783611237565b9150610d3d826116e4565b602782019050919050565b6000610d55602283611237565b9150610d6082611733565b602282019050919050565b6000610d78600c83611237565b9150610d8382611782565b600c82019050919050565b6000610d9b600783611237565b9150610da6826117ab565b600782019050919050565b6000610dbe600f83611237565b9150610dc9826117d4565b600f82019050919050565b6000610de261043483611237565b9150610ded826117fd565b61043482019050919050565b6000610e06600383611237565b9150610e1182611d26565b600382019050919050565b6000610e2a61043383611237565b9150610e3582611d4f565b61043382019050919050565b6000610e4e600683611237565b9150610e5982612278565b600682019050919050565b6000610e7261043283611237565b9150610e7d826122a1565b61043282019050919050565b6000610e96600783611237565b9150610ea1826127ca565b600782019050919050565b6000610eb9606683611237565b9150610ec4826127f3565b606682019050919050565b6000610edb8284610b73565b915081905092915050565b6000610ef28285610b73565b9150610efe8284610b73565b91508190509392505050565b6000610f168285610b73565b9150610f2182610c0d565b9150610f2d8284610b73565b9150610f3882610d8e565b91508190509392505050565b6000610f508285610b73565b9150610f5b82610c30565b9150610f678284610b73565b9150610f7282610d8e565b91508190509392505050565b6000610f8a8285610b73565b9150610f9582610c53565b9150610fa18284610b73565b9150610fac82610d8e565b91508190509392505050565b6000610fc48285610b73565b9150610fcf82610c76565b9150610fdb8284610b73565b9150610fe682610df9565b9150610ff182610d8e565b91508190509392505050565b60006110098284610b73565b915061101482610d25565b915061101f82610bc7565b915061102a82610cdf565b915081905092915050565b60006110418285610b73565b915061104c82610d48565b91506110588284610b73565b915061106382610d8e565b91508190509392505050565b600061107b8284610b73565b915061108682610dd4565b915081905092915050565b600061109d8284610b73565b91506110a882610e1c565b915081905092915050565b60006110bf8284610b73565b91506110ca82610e41565b915081905092915050565b60006110e18284610b73565b91506110ec82610e64565b915081905092915050565b60006111038284610b73565b915061110e82610e89565b915061111982610eac565b915061112482610bea565b915061112f82610cbc565b915081905092915050565b600061114582610ba4565b9150819050919050565b600061115a82610c99565b9150819050919050565b600061116f82610d02565b9150819050919050565b600061118482610d6b565b9150819050919050565b600061119982610db1565b9150819050919050565b600060208201905081810360008301526111bd8184610b3a565b905092915050565b60006111cf6111e0565b90506111db8282611349565b919050565b6000604051905090565b600067ffffffffffffffff82111561120557611204611481565b5b61120e826114c4565b9050602081019050919050565b600081519050919050565b600082825260208201905092915050565b600081905092915050565b600061124d826112fd565b9150611258836112fd565b9250827fffffffffffffffffffffffffffffffffffffffffffffffffffffffffffffffff0382111561128d5761128c6113f4565b5b828201905092915050565b60006112a3826112fd565b91506112ae836112fd565b9250826112be576112bd611423565b5b828204905092915050565b60006112d4826112fd565b91506112df836112fd565b9250828210156112f2576112f16113f4565b5b828203905092915050565b6000819050919050565b82818337600083830152505050565b60005b83811015611334578082015181840152602081019050611319565b83811115611343576000848401525b50505050565b611352826114c4565b810181811067ffffffffffffffff8211171561137157611370611481565b5b80604052505050565b6000611385826112fd565b91507fffffffffffffffffffffffffffffffffffffffffffffffffffffffffffffffff8214156113b8576113b76113f4565b5b600182019050919050565b60006113ce826112fd565b91506113d9836112fd565b9250826113e9576113e8611423565b5b828206905092915050565b7f4e487b7100000000000000000000000000000000000000000000000000000000600052601160045260246000fd5b7f4e487b7100000000000000000000000000000000000000000000000000000000600052601260045260246000fd5b7f4e487b7100000000000000000000000000000000000000000000000000000000600052603260045260246000fd5b7f4e487b7100000000000000000000000000000000000000000000000000000000600052604160045260246000fd5b600080fd5b600080fd5b600080fd5b600080fd5b6000601f19601f8301169050919050565b7f50616a74696d204b6173616d6900000000000000000000000000000000000000600082015250565b7f2365343032323700000000000000000000000000000000000000000000000000600082015250565b7f2e7469746c65207b20746578742d616e63686f723a206c6566743b20666f6e7460008201527f2d7765696768743a20626f6c643b20666f6e742d73697a653a20312e35656d3b60208201527f207d000000000000000000000000000000000000000000000000000000000000604082015250565b7f3c7465787420783d2232302220793d2233343022203e47616d65733a20000000600082015250565b7f3c7465787420783d2232302220793d2233383022203e506f736974696f6e3a20600082015250565b7f3c7465787420783d2232302220793d2233363022203e476f616c733a20000000600082015250565b7f3c7465787420783d2232302220793d2233323022203e47616d65706c61793a20600082015250565b7f4c69616d204d696c6c6172000000000000000000000000000000000000000000600082015250565b7f3c2f7374796c653e000000000000000000000000000000000000000000000000600082015250565b7f22202f3e00000000000000000000000000000000000000000000000000000000600082015250565b7f4865696e7a204c696e646e657200000000000000000000000000000000000000600082015250565b7f3c726563742077696474683d223130302522206865696768743d22313030252260008201527f2066696c6c3d2200000000000000000000000000000000000000000000000000602082015250565b7f3c7465787420783d2238302220793d2234302220636c6173733d227469746c6560008201527f223e000000000000000000000000000000000000000000000000000000000000602082015250565b7f416e64792050656c6d6172640000000000000000000000000000000000000000600082015250565b7f3c2f746578743e00000000000000000000000000000000000000000000000000600082015250565b7f4e6f6168204b6174746572626163680000000000000000000000000000000000600082015250565b7f3c70617468207374796c653d2266696c6c3a23666665343439222020643d226d60008201527f202d332e32303136393439652d362c31313539206320322e313334343633336560208201527f2d362c3020312e30363732333136652d362c3020302c30207a204d20302e313260408201527f36383036382c3238392e37352063202d302e30383435333738372c3537392e3560608201527f202d302e30343232363839332c3238392e373520302c30207a206d203230372e60808201527f313930353933322c342e35323131312033342e383137342c2d32352e3334383560a08201527f392033342e3432392c32352e303337353420632031382e3933362c31332e373760c08201527f3036352033342e393933312c32352e31353035382033352e363832362c32352e60e08201527f323838373420302e363839352c302e313338313620312e313330372c2d302e346101008201527f3935353420302e393830362c2d312e3430383231202d302e313530322c2d302e6101208201527f3931323638202d362e313130312c2d31392e3537343234202d31332e323434326101408201527f2c2d34312e3437303133202d31302e313837382c2d33312e3236383136202d316101608201527f322e373034312c2d34302e3035313237202d31312e3732372c2d34302e3933316101808201527f373520302e363834332c2d302e36313635372031372e31343938332c2d31312e6101a08201527f37393238382033352e373030392c2d32362e3032393837204c203335382e34316101c08201527f33342c3138342e35203331342e303731312c313834203236392e373238372c316101e08201527f38332e35203235362e343837382c3134322e37303637352063202d342e3732366102008201527f30332c2d31332e3439303036202d31302e31373033352c2d32392e33313435346102208201527f202d31342e34333234362c2d34322e3332353634202d302e3236352c302e32366102408201527f343938202d362e39303230342c31392e3431353635202d31342e30393235342c6102608201527f34312e3631393137202d372e313930352c32322e3230333532202d31332e33306102808201527f30332c34302e3733363731202d31332e353737322c34312e31383438382043206102a08201527f3231342e313038362c3138332e3633333332203139342e333333352c313834206102c08201527f3137302e3434312c3138342063202d32332e38393235372c30202d34332e34326102e08201527f3838382c302e33333735202d34332e34313430352c302e373520302e303134386103008201527f2c302e343132352031352e37363438332c31322e313530322033352e303030306103208201527f352c32362e30383337392031392e323335312c31332e39333335392033342e396103408201527f3732352c32352e36333335392033342e3937322c3236202d36652d342c302e336103608201527f36363432202d362e303735322c31392e3334313231202d31332e3439392c34326103808201527f2e3136363231202d372e343233392c32322e383235202d31332e343938342c346103a08201527f312e3633393036202d31332e3439392c34312e383039303220302c302e3538366103c08201527f393320322e36333631322c2d312e32383931352033372e333136342c2d32362e6103e08201527f3533373931207a22207472616e73666f726d3d227472616e736c6174652833306104008201527f302c31323029207363616c6528302e3229222f3e00000000000000000000000061042082015250565b7f6d696e0000000000000000000000000000000000000000000000000000000000600082015250565b7f3c70617468207374796c653d2266696c6c3a23623262396263222020643d226d60008201527f202d332e32303136393439652d362c31313539206320322e313334343633336560208201527f2d362c3020312e30363732333136652d362c3020302c30207a204d20302e313260408201527f36383036382c3238392e37352063202d302e30383435333738372c3537392e3560608201527f202d302e30343232363839332c3238392e373520302c30207a206d203230372e60808201527f313930353933322c342e35323131312033342e383137342c2d32352e3334383560a08201527f392033342e3432392c32352e303337353420632031382e3933362c31332e373760c08201527f3036352033342e393933312c32352e31353035382033352e363832362c32352e60e08201527f323838373420302e363839352c302e313338313620312e313330372c2d302e346101008201527f3935353420302e393830362c2d312e3430383231202d302e313530322c2d302e6101208201527f3931323638202d362e313130312c2d31392e3537343234202d31332e323434326101408201527f2c2d34312e3437303133202d31302e313837382c2d33312e3236383136202d316101608201527f322e373034312c2d34302e3035313237202d31312e3732372c2d34302e3933316101808201527f373520302e363834332c2d302e36313635372031372e31343938332c2d31312e6101a08201527f37393238382033352e373030392c2d32362e3032393837204c203335382e34316101c08201527f33342c3138342e35203331342e303731312c313834203236392e373238372c316101e08201527f38332e35203235362e343837382c3134322e37303637352063202d342e3732366102008201527f30332c2d31332e3439303036202d31302e31373033352c2d32392e33313435346102208201527f202d31342e34333234362c2d34322e3332353634202d302e3236352c302e32366102408201527f343938202d362e39303230342c31392e3431353635202d31342e30393235342c6102608201527f34312e3631393137202d372e313930352c32322e3230333532202d31332e33306102808201527f30332c34302e3733363731202d31332e353737322c34312e31383438382043206102a08201527f3231342e313038362c3138332e3633333332203139342e333333352c313834206102c08201527f3137302e3434312c3138342063202d32332e38393235372c30202d34332e34326102e08201527f3838382c302e33333735202d34332e34313430352c302e373520302e303134386103008201527f2c302e343132352031352e37363438332c31322e313530322033352e303030306103208201527f352c32362e30383337392031392e323335312c31332e39333335392033342e396103408201527f3732352c32352e36333335392033342e3937322c3236202d36652d342c302e336103608201527f36363432202d362e303735322c31392e3334313231202d31332e3439392c34326103808201527f2e3136363231202d372e343233392c32322e383235202d31332e343938342c346103a08201527f312e3633393036202d31332e3439392c34312e383039303220302c302e3538366103c08201527f393320322e36333631322c2d312e32383931352033372e333136342c2d32362e6103e08201527f3533373931207a22207472616e73666f726d3d227472616e736c6174652833306104008201527f302c363029207363616c6528302e3229222f3e0000000000000000000000000061042082015250565b7f3c2f7376673e0000000000000000000000000000000000000000000000000000600082015250565b7f3c70617468207374796c653d2266696c6c3a23396335323231222020643d226d60008201527f202d332e32303136393439652d362c31313539206320322e313334343633336560208201527f2d362c3020312e30363732333136652d362c3020302c30207a204d20302e313260408201527f36383036382c3238392e37352063202d302e30383435333738372c3537392e3560608201527f202d302e30343232363839332c3238392e373520302c30207a206d203230372e60808201527f313930353933322c342e35323131312033342e383137342c2d32352e3334383560a08201527f392033342e3432392c32352e303337353420632031382e3933362c31332e373760c08201527f3036352033342e393933312c32352e31353035382033352e363832362c32352e60e08201527f323838373420302e363839352c302e313338313620312e313330372c2d302e346101008201527f3935353420302e393830362c2d312e3430383231202d302e313530322c2d302e6101208201527f3931323638202d362e313130312c2d31392e3537343234202d31332e323434326101408201527f2c2d34312e3437303133202d31302e313837382c2d33312e3236383136202d316101608201527f322e373034312c2d34302e3035313237202d31312e3732372c2d34302e3933316101808201527f373520302e363834332c2d302e36313635372031372e31343938332c2d31312e6101a08201527f37393238382033352e373030392c2d32362e3032393837204c203335382e34316101c08201527f33342c3138342e35203331342e303731312c313834203236392e373238372c316101e08201527f38332e35203235362e343837382c3134322e37303637352063202d342e3732366102008201527f30332c2d31332e3439303036202d31302e31373033352c2d32392e33313435346102208201527f202d31342e34333234362c2d34322e3332353634202d302e3236352c302e32366102408201527f343938202d362e39303230342c31392e3431353635202d31342e30393235342c6102608201527f34312e3631393137202d372e313930352c32322e3230333532202d31332e33306102808201527f30332c34302e3733363731202d31332e353737322c34312e31383438382043206102a08201527f3231342e313038362c3138332e3633333332203139342e333333352c313834206102c08201527f3137302e3434312c3138342063202d32332e38393235372c30202d34332e34326102e08201527f3838382c302e33333735202d34332e34313430352c302e373520302e303134386103008201527f2c302e343132352031352e37363438332c31322e313530322033352e303030306103208201527f352c32362e30383337392031392e323335312c31332e39333335392033342e396103408201527f3732352c32352e36333335392033342e3937322c3236202d36652d342c302e336103608201527f36363432202d362e303735322c31392e3334313231202d31332e3439392c34326103808201527f2e3136363231202d372e343233392c32322e383235202d31332e343938342c346103a08201527f312e3633393036202d31332e3439392c34312e383039303220302c302e3538366103c08201527f393320322e36333631322c2d312e32383931352033372e333136342c2d32362e6103e08201527f3533373931207a22207472616e73666f726d3d227472616e736c6174652833306104008201527f302c3029207363616c6528302e3229222f3e000000000000000000000000000061042082015250565b7f3c7374796c653e00000000000000000000000000000000000000000000000000600082015250565b7f74657874207b20666f6e742d66616d696c793a20417269616c2c2048656c766560008201527f746963612c2073616e732d73657269663b20666f6e742d7765696768743a202060208201527f626f6c643b2066696c6c3a20236666653530303b20666f6e742d73697a653a2060408201527f31656d3b207d0000000000000000000000000000000000000000000000000000606082015250565b612897816112fd565b81146128a257600080fd5b5056fe3c7376672077696474683d2233393022206865696768743d22343335222066696c6c3d22677265656e2220786d6c6e733d22687474703a2f2f7777772e77332e6f72672f323030302f737667223ea2646970667358221220bb8dc21cc5861ba30b05a58ffb260f6af53a256a4c12a760377d5d3520b8444164736f6c63430008070033",
					"opcodes": "PUSH1 0x80 PUSH1 0x40 MSTORE CALLVALUE DUP1 ISZERO PUSH3 0x11 JUMPI PUSH1 0x0 DUP1 REVERT JUMPDEST POP PUSH1 0x40 MLOAD PUSH3 0x2BB1 CODESIZE SUB DUP1 PUSH3 0x2BB1 DUP4 CODECOPY DUP2 DUP2 ADD PUSH1 0x40 MSTORE DUP2 ADD SWAP1 PUSH3 0x37 SWAP2 SWAP1 PUSH3 0x19D JUMP JUMPDEST DUP5 PUSH1 0x0 DUP1 PUSH2 0x100 EXP DUP2 SLOAD DUP2 PUSH20 0xFFFFFFFFFFFFFFFFFFFFFFFFFFFFFFFFFFFFFFFF MUL NOT AND SWAP1 DUP4 PUSH20 0xFFFFFFFFFFFFFFFFFFFFFFFFFFFFFFFFFFFFFFFF AND MUL OR SWAP1 SSTORE POP DUP4 PUSH1 0x1 PUSH1 0x0 PUSH2 0x100 EXP DUP2 SLOAD DUP2 PUSH20 0xFFFFFFFFFFFFFFFFFFFFFFFFFFFFFFFFFFFFFFFF MUL NOT AND SWAP1 DUP4 PUSH20 0xFFFFFFFFFFFFFFFFFFFFFFFFFFFFFFFFFFFFFFFF AND MUL OR SWAP1 SSTORE POP DUP3 PUSH1 0x2 PUSH1 0x0 PUSH2 0x100 EXP DUP2 SLOAD DUP2 PUSH20 0xFFFFFFFFFFFFFFFFFFFFFFFFFFFFFFFFFFFFFFFF MUL NOT AND SWAP1 DUP4 PUSH20 0xFFFFFFFFFFFFFFFFFFFFFFFFFFFFFFFFFFFFFFFF AND MUL OR SWAP1 SSTORE POP DUP2 PUSH1 0x3 PUSH1 0x0 PUSH2 0x100 EXP DUP2 SLOAD DUP2 PUSH20 0xFFFFFFFFFFFFFFFFFFFFFFFFFFFFFFFFFFFFFFFF MUL NOT AND SWAP1 DUP4 PUSH20 0xFFFFFFFFFFFFFFFFFFFFFFFFFFFFFFFFFFFFFFFF AND MUL OR SWAP1 SSTORE POP DUP1 PUSH1 0x4 PUSH1 0x0 PUSH2 0x100 EXP DUP2 SLOAD DUP2 PUSH20 0xFFFFFFFFFFFFFFFFFFFFFFFFFFFFFFFFFFFFFFFF MUL NOT AND SWAP1 DUP4 PUSH20 0xFFFFFFFFFFFFFFFFFFFFFFFFFFFFFFFFFFFFFFFF AND MUL OR SWAP1 SSTORE POP POP POP POP POP POP PUSH3 0x278 JUMP JUMPDEST PUSH1 0x0 DUP2 MLOAD SWAP1 POP PUSH3 0x197 DUP2 PUSH3 0x25E JUMP JUMPDEST SWAP3 SWAP2 POP POP JUMP JUMPDEST PUSH1 0x0 DUP1 PUSH1 0x0 DUP1 PUSH1 0x0 PUSH1 0xA0 DUP7 DUP9 SUB SLT ISZERO PUSH3 0x1BC JUMPI PUSH3 0x1BB PUSH3 0x259 JUMP JUMPDEST JUMPDEST PUSH1 0x0 PUSH3 0x1CC DUP9 DUP3 DUP10 ADD PUSH3 0x186 JUMP JUMPDEST SWAP6 POP POP PUSH1 0x20 PUSH3 0x1DF DUP9 DUP3 DUP10 ADD PUSH3 0x186 JUMP JUMPDEST SWAP5 POP POP PUSH1 0x40 PUSH3 0x1F2 DUP9 DUP3 DUP10 ADD PUSH3 0x186 JUMP JUMPDEST SWAP4 POP POP PUSH1 0x60 PUSH3 0x205 DUP9 DUP3 DUP10 ADD PUSH3 0x186 JUMP JUMPDEST SWAP3 POP POP PUSH1 0x80 PUSH3 0x218 DUP9 DUP3 DUP10 ADD PUSH3 0x186 JUMP JUMPDEST SWAP2 POP POP SWAP3 SWAP6 POP SWAP3 SWAP6 SWAP1 SWAP4 POP JUMP JUMPDEST PUSH1 0x0 PUSH3 0x232 DUP3 PUSH3 0x239 JUMP JUMPDEST SWAP1 POP SWAP2 SWAP1 POP JUMP JUMPDEST PUSH1 0x0 PUSH20 0xFFFFFFFFFFFFFFFFFFFFFFFFFFFFFFFFFFFFFFFF DUP3 AND SWAP1 POP SWAP2 SWAP1 POP JUMP JUMPDEST PUSH1 0x0 DUP1 REVERT JUMPDEST PUSH3 0x269 DUP2 PUSH3 0x225 JUMP JUMPDEST DUP2 EQ PUSH3 0x275 JUMPI PUSH1 0x0 DUP1 REVERT JUMPDEST POP JUMP JUMPDEST PUSH2 0x2929 DUP1 PUSH3 0x288 PUSH1 0x0 CODECOPY PUSH1 0x0 RETURN INVALID PUSH1 0x80 PUSH1 0x40 MSTORE CALLVALUE DUP1 ISZERO PUSH2 0x10 JUMPI PUSH1 0x0 DUP1 REVERT JUMPDEST POP PUSH1 0x4 CALLDATASIZE LT PUSH2 0x2B JUMPI PUSH1 0x0 CALLDATALOAD PUSH1 0xE0 SHR DUP1 PUSH4 0xC7370296 EQ PUSH2 0x30 JUMPI JUMPDEST PUSH1 0x0 DUP1 REVERT JUMPDEST PUSH2 0x4A PUSH1 0x4 DUP1 CALLDATASIZE SUB DUP2 ADD SWAP1 PUSH2 0x45 SWAP2 SWAP1 PUSH2 0xA75 JUMP JUMPDEST PUSH2 0x60 JUMP JUMPDEST PUSH1 0x40 MLOAD PUSH2 0x57 SWAP2 SWAP1 PUSH2 0x11A3 JUMP JUMPDEST PUSH1 0x40 MLOAD DUP1 SWAP2 SUB SWAP1 RETURN JUMPDEST PUSH1 0x60 PUSH1 0x40 MLOAD DUP1 PUSH1 0x80 ADD PUSH1 0x40 MSTORE DUP1 PUSH1 0x4E DUP2 MSTORE PUSH1 0x20 ADD PUSH2 0x28A6 PUSH1 0x4E SWAP2 CODECOPY SWAP1 POP DUP1 PUSH1 0x40 MLOAD PUSH1 0x20 ADD PUSH2 0x8E SWAP2 SWAP1 PUSH2 0x10F7 JUMP JUMPDEST PUSH1 0x40 MLOAD PUSH1 0x20 DUP2 DUP4 SUB SUB DUP2 MSTORE SWAP1 PUSH1 0x40 MSTORE SWAP1 POP DUP1 PUSH1 0x40 MLOAD PUSH1 0x20 ADD PUSH2 0xB0 SWAP2 SWAP1 PUSH2 0xFFD JUMP JUMPDEST PUSH1 0x40 MLOAD PUSH1 0x20 DUP2 DUP4 SUB SUB DUP2 MSTORE SWAP1 PUSH1 0x40 MSTORE SWAP1 POP PUSH2 0xCB DUP2 DUP6 PUSH2 0x249 JUMP JUMPDEST SWAP1 POP PUSH1 0x0 DUP3 GT ISZERO PUSH2 0x151 JUMPI DUP1 PUSH1 0x40 MLOAD PUSH1 0x20 ADD PUSH2 0xE7 SWAP2 SWAP1 PUSH2 0x10D5 JUMP JUMPDEST PUSH1 0x40 MLOAD PUSH1 0x20 DUP2 DUP4 SUB SUB DUP2 MSTORE SWAP1 PUSH1 0x40 MSTORE SWAP1 POP PUSH1 0x1 DUP3 GT ISZERO PUSH2 0x150 JUMPI DUP1 PUSH1 0x40 MLOAD PUSH1 0x20 ADD PUSH2 0x112 SWAP2 SWAP1 PUSH2 0x1091 JUMP JUMPDEST PUSH1 0x40 MLOAD PUSH1 0x20 DUP2 DUP4 SUB SUB DUP2 MSTORE SWAP1 PUSH1 0x40 MSTORE SWAP1 POP PUSH1 0x2 DUP3 GT ISZERO PUSH2 0x14F JUMPI DUP1 PUSH1 0x40 MLOAD PUSH1 0x20 ADD PUSH2 0x13D SWAP2 SWAP1 PUSH2 0x106F JUMP JUMPDEST PUSH1 0x40 MLOAD PUSH1 0x20 DUP2 DUP4 SUB SUB DUP2 MSTORE SWAP1 PUSH1 0x40 MSTORE SWAP1 POP JUMPDEST JUMPDEST JUMPDEST DUP1 DUP5 PUSH1 0x40 MLOAD PUSH1 0x20 ADD PUSH2 0x164 SWAP3 SWAP2 SWAP1 PUSH2 0x1035 JUMP JUMPDEST PUSH1 0x40 MLOAD PUSH1 0x20 DUP2 DUP4 SUB SUB DUP2 MSTORE SWAP1 PUSH1 0x40 MSTORE SWAP1 POP DUP1 PUSH2 0x17F DUP9 PUSH2 0x7D6 JUMP JUMPDEST PUSH1 0x40 MLOAD PUSH1 0x20 ADD PUSH2 0x190 SWAP3 SWAP2 SWAP1 PUSH2 0xFB8 JUMP JUMPDEST PUSH1 0x40 MLOAD PUSH1 0x20 DUP2 DUP4 SUB SUB DUP2 MSTORE SWAP1 PUSH1 0x40 MSTORE SWAP1 POP DUP1 PUSH2 0x1AB DUP8 PUSH2 0x7D6 JUMP JUMPDEST PUSH1 0x40 MLOAD PUSH1 0x20 ADD PUSH2 0x1BC SWAP3 SWAP2 SWAP1 PUSH2 0xF0A JUMP JUMPDEST PUSH1 0x40 MLOAD PUSH1 0x20 DUP2 DUP4 SUB SUB DUP2 MSTORE SWAP1 PUSH1 0x40 MSTORE SWAP1 POP DUP1 PUSH2 0x1D7 DUP7 PUSH2 0x7D6 JUMP JUMPDEST PUSH1 0x40 MLOAD PUSH1 0x20 ADD PUSH2 0x1E8 SWAP3 SWAP2 SWAP1 PUSH2 0xF7E JUMP JUMPDEST PUSH1 0x40 MLOAD PUSH1 0x20 DUP2 DUP4 SUB SUB DUP2 MSTORE SWAP1 PUSH1 0x40 MSTORE SWAP1 POP DUP1 DUP4 PUSH1 0x40 MLOAD PUSH1 0x20 ADD PUSH2 0x20C SWAP3 SWAP2 SWAP1 PUSH2 0xF44 JUMP JUMPDEST PUSH1 0x40 MLOAD PUSH1 0x20 DUP2 DUP4 SUB SUB DUP2 MSTORE SWAP1 PUSH1 0x40 MSTORE SWAP1 POP DUP1 PUSH1 0x40 MLOAD PUSH1 0x20 ADD PUSH2 0x22E SWAP2 SWAP1 PUSH2 0x10B3 JUMP JUMPDEST PUSH1 0x40 MLOAD PUSH1 0x20 DUP2 DUP4 SUB SUB DUP2 MSTORE SWAP1 PUSH1 0x40 MSTORE SWAP1 POP SWAP7 SWAP6 POP POP POP POP POP POP JUMP JUMPDEST PUSH1 0x60 DUP2 PUSH1 0x40 MLOAD PUSH1 0x20 ADD PUSH2 0x25C SWAP2 SWAP1 PUSH2 0xECF JUMP JUMPDEST PUSH1 0x40 MLOAD PUSH1 0x20 DUP2 DUP4 SUB SUB DUP2 MSTORE SWAP1 PUSH1 0x40 MSTORE DUP1 MLOAD SWAP1 PUSH1 0x20 ADD KECCAK256 PUSH1 0x40 MLOAD PUSH1 0x20 ADD PUSH2 0x281 SWAP1 PUSH2 0x118E JUMP JUMPDEST PUSH1 0x40 MLOAD PUSH1 0x20 DUP2 DUP4 SUB SUB DUP2 MSTORE SWAP1 PUSH1 0x40 MSTORE DUP1 MLOAD SWAP1 PUSH1 0x20 ADD KECCAK256 EQ ISZERO PUSH2 0x366 JUMPI DUP3 PUSH1 0x2 PUSH1 0x0 SWAP1 SLOAD SWAP1 PUSH2 0x100 EXP SWAP1 DIV PUSH20 0xFFFFFFFFFFFFFFFFFFFFFFFFFFFFFFFFFFFFFFFF AND PUSH20 0xFFFFFFFFFFFFFFFFFFFFFFFFFFFFFFFFFFFFFFFF AND PUSH4 0xBD85F55F PUSH1 0x40 MLOAD DUP2 PUSH4 0xFFFFFFFF AND PUSH1 0xE0 SHL DUP2 MSTORE PUSH1 0x4 ADD PUSH1 0x0 PUSH1 0x40 MLOAD DUP1 DUP4 SUB DUP2 DUP7 DUP1 EXTCODESIZE ISZERO DUP1 ISZERO PUSH2 0x306 JUMPI PUSH1 0x0 DUP1 REVERT JUMPDEST POP GAS STATICCALL ISZERO DUP1 ISZERO PUSH2 0x31A JUMPI RETURNDATASIZE PUSH1 0x0 DUP1 RETURNDATACOPY RETURNDATASIZE PUSH1 0x0 REVERT JUMPDEST POP POP POP POP PUSH1 0x40 MLOAD RETURNDATASIZE PUSH1 0x0 DUP3 RETURNDATACOPY RETURNDATASIZE PUSH1 0x1F NOT PUSH1 0x1F DUP3 ADD AND DUP3 ADD DUP1 PUSH1 0x40 MSTORE POP DUP2 ADD SWAP1 PUSH2 0x343 SWAP2 SWAP1 PUSH2 0xA2C JUMP JUMPDEST PUSH1 0x40 MLOAD PUSH1 0x20 ADD PUSH2 0x354 SWAP3 SWAP2 SWAP1 PUSH2 0xEE6 JUMP JUMPDEST PUSH1 0x40 MLOAD PUSH1 0x20 DUP2 DUP4 SUB SUB DUP2 MSTORE SWAP1 PUSH1 0x40 MSTORE SWAP1 POP JUMPDEST DUP2 PUSH1 0x40 MLOAD PUSH1 0x20 ADD PUSH2 0x377 SWAP2 SWAP1 PUSH2 0xECF JUMP JUMPDEST PUSH1 0x40 MLOAD PUSH1 0x20 DUP2 DUP4 SUB SUB DUP2 MSTORE SWAP1 PUSH1 0x40 MSTORE DUP1 MLOAD SWAP1 PUSH1 0x20 ADD KECCAK256 PUSH1 0x40 MLOAD PUSH1 0x20 ADD PUSH2 0x39C SWAP1 PUSH2 0x1179 JUMP JUMPDEST PUSH1 0x40 MLOAD PUSH1 0x20 DUP2 DUP4 SUB SUB DUP2 MSTORE SWAP1 PUSH1 0x40 MSTORE DUP1 MLOAD SWAP1 PUSH1 0x20 ADD KECCAK256 EQ ISZERO PUSH2 0x47F JUMPI DUP3 PUSH1 0x0 DUP1 SLOAD SWAP1 PUSH2 0x100 EXP SWAP1 DIV PUSH20 0xFFFFFFFFFFFFFFFFFFFFFFFFFFFFFFFFFFFFFFFF AND PUSH20 0xFFFFFFFFFFFFFFFFFFFFFFFFFFFFFFFFFFFFFFFF AND PUSH4 0xBD85F55F PUSH1 0x40 MLOAD DUP2 PUSH4 0xFFFFFFFF AND PUSH1 0xE0 SHL DUP2 MSTORE PUSH1 0x4 ADD PUSH1 0x0 PUSH1 0x40 MLOAD DUP1 DUP4 SUB DUP2 DUP7 DUP1 EXTCODESIZE ISZERO DUP1 ISZERO PUSH2 0x41F JUMPI PUSH1 0x0 DUP1 REVERT JUMPDEST POP GAS STATICCALL ISZERO DUP1 ISZERO PUSH2 0x433 JUMPI RETURNDATASIZE PUSH1 0x0 DUP1 RETURNDATACOPY RETURNDATASIZE PUSH1 0x0 REVERT JUMPDEST POP POP POP POP PUSH1 0x40 MLOAD RETURNDATASIZE PUSH1 0x0 DUP3 RETURNDATACOPY RETURNDATASIZE PUSH1 0x1F NOT PUSH1 0x1F DUP3 ADD AND DUP3 ADD DUP1 PUSH1 0x40 MSTORE POP DUP2 ADD SWAP1 PUSH2 0x45C SWAP2 SWAP1 PUSH2 0xA2C JUMP JUMPDEST PUSH1 0x40 MLOAD PUSH1 0x20 ADD PUSH2 0x46D SWAP3 SWAP2 SWAP1 PUSH2 0xEE6 JUMP JUMPDEST PUSH1 0x40 MLOAD PUSH1 0x20 DUP2 DUP4 SUB SUB DUP2 MSTORE SWAP1 PUSH1 0x40 MSTORE SWAP1 POP JUMPDEST DUP2 PUSH1 0x40 MLOAD PUSH1 0x20 ADD PUSH2 0x490 SWAP2 SWAP1 PUSH2 0xECF JUMP JUMPDEST PUSH1 0x40 MLOAD PUSH1 0x20 DUP2 DUP4 SUB SUB DUP2 MSTORE SWAP1 PUSH1 0x40 MSTORE DUP1 MLOAD SWAP1 PUSH1 0x20 ADD KECCAK256 PUSH1 0x40 MLOAD PUSH1 0x20 ADD PUSH2 0x4B5 SWAP1 PUSH2 0x113A JUMP JUMPDEST PUSH1 0x40 MLOAD PUSH1 0x20 DUP2 DUP4 SUB SUB DUP2 MSTORE SWAP1 PUSH1 0x40 MSTORE DUP1 MLOAD SWAP1 PUSH1 0x20 ADD KECCAK256 EQ ISZERO PUSH2 0x59A JUMPI DUP3 PUSH1 0x3 PUSH1 0x0 SWAP1 SLOAD SWAP1 PUSH2 0x100 EXP SWAP1 DIV PUSH20 0xFFFFFFFFFFFFFFFFFFFFFFFFFFFFFFFFFFFFFFFF AND PUSH20 0xFFFFFFFFFFFFFFFFFFFFFFFFFFFFFFFFFFFFFFFF AND PUSH4 0xBD85F55F PUSH1 0x40 MLOAD DUP2 PUSH4 0xFFFFFFFF AND PUSH1 0xE0 SHL DUP2 MSTORE PUSH1 0x4 ADD PUSH1 0x0 PUSH1 0x40 MLOAD DUP1 DUP4 SUB DUP2 DUP7 DUP1 EXTCODESIZE ISZERO DUP1 ISZERO PUSH2 0x53A JUMPI PUSH1 0x0 DUP1 REVERT JUMPDEST POP GAS STATICCALL ISZERO DUP1 ISZERO PUSH2 0x54E JUMPI RETURNDATASIZE PUSH1 0x0 DUP1 RETURNDATACOPY RETURNDATASIZE PUSH1 0x0 REVERT JUMPDEST POP POP POP POP PUSH1 0x40 MLOAD RETURNDATASIZE PUSH1 0x0 DUP3 RETURNDATACOPY RETURNDATASIZE PUSH1 0x1F NOT PUSH1 0x1F DUP3 ADD AND DUP3 ADD DUP1 PUSH1 0x40 MSTORE POP DUP2 ADD SWAP1 PUSH2 0x577 SWAP2 SWAP1 PUSH2 0xA2C JUMP JUMPDEST PUSH1 0x40 MLOAD PUSH1 0x20 ADD PUSH2 0x588 SWAP3 SWAP2 SWAP1 PUSH2 0xEE6 JUMP JUMPDEST PUSH1 0x40 MLOAD PUSH1 0x20 DUP2 DUP4 SUB SUB DUP2 MSTORE SWAP1 PUSH1 0x40 MSTORE SWAP1 POP JUMPDEST DUP2 PUSH1 0x40 MLOAD PUSH1 0x20 ADD PUSH2 0x5AB SWAP2 SWAP1 PUSH2 0xECF JUMP JUMPDEST PUSH1 0x40 MLOAD PUSH1 0x20 DUP2 DUP4 SUB SUB DUP2 MSTORE SWAP1 PUSH1 0x40 MSTORE DUP1 MLOAD SWAP1 PUSH1 0x20 ADD KECCAK256 PUSH1 0x40 MLOAD PUSH1 0x20 ADD PUSH2 0x5D0 SWAP1 PUSH2 0x114F JUMP JUMPDEST PUSH1 0x40 MLOAD PUSH1 0x20 DUP2 DUP4 SUB SUB DUP2 MSTORE SWAP1 PUSH1 0x40 MSTORE DUP1 MLOAD SWAP1 PUSH1 0x20 ADD KECCAK256 EQ ISZERO PUSH2 0x6B5 JUMPI DUP3 PUSH1 0x1 PUSH1 0x0 SWAP1 SLOAD SWAP1 PUSH2 0x100 EXP SWAP1 DIV PUSH20 0xFFFFFFFFFFFFFFFFFFFFFFFFFFFFFFFFFFFFFFFF AND PUSH20 0xFFFFFFFFFFFFFFFFFFFFFFFFFFFFFFFFFFFFFFFF AND PUSH4 0xBD85F55F PUSH1 0x40 MLOAD DUP2 PUSH4 0xFFFFFFFF AND PUSH1 0xE0 SHL DUP2 MSTORE PUSH1 0x4 ADD PUSH1 0x0 PUSH1 0x40 MLOAD DUP1 DUP4 SUB DUP2 DUP7 DUP1 EXTCODESIZE ISZERO DUP1 ISZERO PUSH2 0x655 JUMPI PUSH1 0x0 DUP1 REVERT JUMPDEST POP GAS STATICCALL ISZERO DUP1 ISZERO PUSH2 0x669 JUMPI RETURNDATASIZE PUSH1 0x0 DUP1 RETURNDATACOPY RETURNDATASIZE PUSH1 0x0 REVERT JUMPDEST POP POP POP POP PUSH1 0x40 MLOAD RETURNDATASIZE PUSH1 0x0 DUP3 RETURNDATACOPY RETURNDATASIZE PUSH1 0x1F NOT PUSH1 0x1F DUP3 ADD AND DUP3 ADD DUP1 PUSH1 0x40 MSTORE POP DUP2 ADD SWAP1 PUSH2 0x692 SWAP2 SWAP1 PUSH2 0xA2C JUMP JUMPDEST PUSH1 0x40 MLOAD PUSH1 0x20 ADD PUSH2 0x6A3 SWAP3 SWAP2 SWAP1 PUSH2 0xEE6 JUMP JUMPDEST PUSH1 0x40 MLOAD PUSH1 0x20 DUP2 DUP4 SUB SUB DUP2 MSTORE SWAP1 PUSH1 0x40 MSTORE SWAP1 POP JUMPDEST DUP2 PUSH1 0x40 MLOAD PUSH1 0x20 ADD PUSH2 0x6C6 SWAP2 SWAP1 PUSH2 0xECF JUMP JUMPDEST PUSH1 0x40 MLOAD PUSH1 0x20 DUP2 DUP4 SUB SUB DUP2 MSTORE SWAP1 PUSH1 0x40 MSTORE DUP1 MLOAD SWAP1 PUSH1 0x20 ADD KECCAK256 PUSH1 0x40 MLOAD PUSH1 0x20 ADD PUSH2 0x6EB SWAP1 PUSH2 0x1164 JUMP JUMPDEST PUSH1 0x40 MLOAD PUSH1 0x20 DUP2 DUP4 SUB SUB DUP2 MSTORE SWAP1 PUSH1 0x40 MSTORE DUP1 MLOAD SWAP1 PUSH1 0x20 ADD KECCAK256 EQ ISZERO PUSH2 0x7D0 JUMPI DUP3 PUSH1 0x4 PUSH1 0x0 SWAP1 SLOAD SWAP1 PUSH2 0x100 EXP SWAP1 DIV PUSH20 0xFFFFFFFFFFFFFFFFFFFFFFFFFFFFFFFFFFFFFFFF AND PUSH20 0xFFFFFFFFFFFFFFFFFFFFFFFFFFFFFFFFFFFFFFFF AND PUSH4 0xBD85F55F PUSH1 0x40 MLOAD DUP2 PUSH4 0xFFFFFFFF AND PUSH1 0xE0 SHL DUP2 MSTORE PUSH1 0x4 ADD PUSH1 0x0 PUSH1 0x40 MLOAD DUP1 DUP4 SUB DUP2 DUP7 DUP1 EXTCODESIZE ISZERO DUP1 ISZERO PUSH2 0x770 JUMPI PUSH1 0x0 DUP1 REVERT JUMPDEST POP GAS STATICCALL ISZERO DUP1 ISZERO PUSH2 0x784 JUMPI RETURNDATASIZE PUSH1 0x0 DUP1 RETURNDATACOPY RETURNDATASIZE PUSH1 0x0 REVERT JUMPDEST POP POP POP POP PUSH1 0x40 MLOAD RETURNDATASIZE PUSH1 0x0 DUP3 RETURNDATACOPY RETURNDATASIZE PUSH1 0x1F NOT PUSH1 0x1F DUP3 ADD AND DUP3 ADD DUP1 PUSH1 0x40 MSTORE POP DUP2 ADD SWAP1 PUSH2 0x7AD SWAP2 SWAP1 PUSH2 0xA2C JUMP JUMPDEST PUSH1 0x40 MLOAD PUSH1 0x20 ADD PUSH2 0x7BE SWAP3 SWAP2 SWAP1 PUSH2 0xEE6 JUMP JUMPDEST PUSH1 0x40 MLOAD PUSH1 0x20 DUP2 DUP4 SUB SUB DUP2 MSTORE SWAP1 PUSH1 0x40 MSTORE SWAP1 POP JUMPDEST SWAP3 SWAP2 POP POP JUMP JUMPDEST PUSH1 0x60 PUSH1 0x0 DUP3 EQ ISZERO PUSH2 0x81E JUMPI PUSH1 0x40 MLOAD DUP1 PUSH1 0x40 ADD PUSH1 0x40 MSTORE DUP1 PUSH1 0x1 DUP2 MSTORE PUSH1 0x20 ADD PUSH32 0x3000000000000000000000000000000000000000000000000000000000000000 DUP2 MSTORE POP SWAP1 POP PUSH2 0x932 JUMP JUMPDEST PUSH1 0x0 DUP3 SWAP1 POP PUSH1 0x0 JUMPDEST PUSH1 0x0 DUP3 EQ PUSH2 0x850 JUMPI DUP1 DUP1 PUSH2 0x839 SWAP1 PUSH2 0x137A JUMP JUMPDEST SWAP2 POP POP PUSH1 0xA DUP3 PUSH2 0x849 SWAP2 SWAP1 PUSH2 0x1298 JUMP JUMPDEST SWAP2 POP PUSH2 0x826 JUMP JUMPDEST PUSH1 0x0 DUP2 PUSH8 0xFFFFFFFFFFFFFFFF DUP2 GT ISZERO PUSH2 0x86C JUMPI PUSH2 0x86B PUSH2 0x1481 JUMP JUMPDEST JUMPDEST PUSH1 0x40 MLOAD SWAP1 DUP1 DUP3 MSTORE DUP1 PUSH1 0x1F ADD PUSH1 0x1F NOT AND PUSH1 0x20 ADD DUP3 ADD PUSH1 0x40 MSTORE DUP1 ISZERO PUSH2 0x89E JUMPI DUP2 PUSH1 0x20 ADD PUSH1 0x1 DUP3 MUL DUP1 CALLDATASIZE DUP4 CALLDATACOPY DUP1 DUP3 ADD SWAP2 POP POP SWAP1 POP JUMPDEST POP SWAP1 POP JUMPDEST PUSH1 0x0 DUP6 EQ PUSH2 0x92B JUMPI PUSH1 0x1 DUP3 PUSH2 0x8B7 SWAP2 SWAP1 PUSH2 0x12C9 JUMP JUMPDEST SWAP2 POP PUSH1 0xA DUP6 PUSH2 0x8C6 SWAP2 SWAP1 PUSH2 0x13C3 JUMP JUMPDEST PUSH1 0x30 PUSH2 0x8D2 SWAP2 SWAP1 PUSH2 0x1242 JUMP JUMPDEST PUSH1 0xF8 SHL DUP2 DUP4 DUP2 MLOAD DUP2 LT PUSH2 0x8E8 JUMPI PUSH2 0x8E7 PUSH2 0x1452 JUMP JUMPDEST JUMPDEST PUSH1 0x20 ADD ADD SWAP1 PUSH31 0xFFFFFFFFFFFFFFFFFFFFFFFFFFFFFFFFFFFFFFFFFFFFFFFFFFFFFFFFFFFFFF NOT AND SWAP1 DUP2 PUSH1 0x0 BYTE SWAP1 MSTORE8 POP PUSH1 0xA DUP6 PUSH2 0x924 SWAP2 SWAP1 PUSH2 0x1298 JUMP JUMPDEST SWAP5 POP PUSH2 0x8A2 JUMP JUMPDEST DUP1 SWAP4 POP POP POP POP JUMPDEST SWAP2 SWAP1 POP JUMP JUMPDEST PUSH1 0x0 PUSH2 0x94A PUSH2 0x945 DUP5 PUSH2 0x11EA JUMP JUMPDEST PUSH2 0x11C5 JUMP JUMPDEST SWAP1 POP DUP3 DUP2 MSTORE PUSH1 0x20 DUP2 ADD DUP5 DUP5 DUP5 ADD GT ISZERO PUSH2 0x966 JUMPI PUSH2 0x965 PUSH2 0x14B5 JUMP JUMPDEST JUMPDEST PUSH2 0x971 DUP5 DUP3 DUP6 PUSH2 0x1307 JUMP JUMPDEST POP SWAP4 SWAP3 POP POP POP JUMP JUMPDEST PUSH1 0x0 PUSH2 0x98C PUSH2 0x987 DUP5 PUSH2 0x11EA JUMP JUMPDEST PUSH2 0x11C5 JUMP JUMPDEST SWAP1 POP DUP3 DUP2 MSTORE PUSH1 0x20 DUP2 ADD DUP5 DUP5 DUP5 ADD GT ISZERO PUSH2 0x9A8 JUMPI PUSH2 0x9A7 PUSH2 0x14B5 JUMP JUMPDEST JUMPDEST PUSH2 0x9B3 DUP5 DUP3 DUP6 PUSH2 0x1316 JUMP JUMPDEST POP SWAP4 SWAP3 POP POP POP JUMP JUMPDEST PUSH1 0x0 DUP3 PUSH1 0x1F DUP4 ADD SLT PUSH2 0x9D0 JUMPI PUSH2 0x9CF PUSH2 0x14B0 JUMP JUMPDEST JUMPDEST DUP2 CALLDATALOAD PUSH2 0x9E0 DUP5 DUP3 PUSH1 0x20 DUP7 ADD PUSH2 0x937 JUMP JUMPDEST SWAP2 POP POP SWAP3 SWAP2 POP POP JUMP JUMPDEST PUSH1 0x0 DUP3 PUSH1 0x1F DUP4 ADD SLT PUSH2 0x9FE JUMPI PUSH2 0x9FD PUSH2 0x14B0 JUMP JUMPDEST JUMPDEST DUP2 MLOAD PUSH2 0xA0E DUP5 DUP3 PUSH1 0x20 DUP7 ADD PUSH2 0x979 JUMP JUMPDEST SWAP2 POP POP SWAP3 SWAP2 POP POP JUMP JUMPDEST PUSH1 0x0 DUP2 CALLDATALOAD SWAP1 POP PUSH2 0xA26 DUP2 PUSH2 0x288E JUMP JUMPDEST SWAP3 SWAP2 POP POP JUMP JUMPDEST PUSH1 0x0 PUSH1 0x20 DUP3 DUP5 SUB SLT ISZERO PUSH2 0xA42 JUMPI PUSH2 0xA41 PUSH2 0x14BF JUMP JUMPDEST JUMPDEST PUSH1 0x0 DUP3 ADD MLOAD PUSH8 0xFFFFFFFFFFFFFFFF DUP2 GT ISZERO PUSH2 0xA60 JUMPI PUSH2 0xA5F PUSH2 0x14BA JUMP JUMPDEST JUMPDEST PUSH2 0xA6C DUP5 DUP3 DUP6 ADD PUSH2 0x9E9 JUMP JUMPDEST SWAP2 POP POP SWAP3 SWAP2 POP POP JUMP JUMPDEST PUSH1 0x0 DUP1 PUSH1 0x0 DUP1 PUSH1 0x0 DUP1 PUSH1 0xC0 DUP8 DUP10 SUB SLT ISZERO PUSH2 0xA92 JUMPI PUSH2 0xA91 PUSH2 0x14BF JUMP JUMPDEST JUMPDEST PUSH1 0x0 PUSH2 0xAA0 DUP10 DUP3 DUP11 ADD PUSH2 0xA17 JUMP JUMPDEST SWAP7 POP POP PUSH1 0x20 PUSH2 0xAB1 DUP10 DUP3 DUP11 ADD PUSH2 0xA17 JUMP JUMPDEST SWAP6 POP POP PUSH1 0x40 PUSH2 0xAC2 DUP10 DUP3 DUP11 ADD PUSH2 0xA17 JUMP JUMPDEST SWAP5 POP POP PUSH1 0x60 DUP8 ADD CALLDATALOAD PUSH8 0xFFFFFFFFFFFFFFFF DUP2 GT ISZERO PUSH2 0xAE3 JUMPI PUSH2 0xAE2 PUSH2 0x14BA JUMP JUMPDEST JUMPDEST PUSH2 0xAEF DUP10 DUP3 DUP11 ADD PUSH2 0x9BB JUMP JUMPDEST SWAP4 POP POP PUSH1 0x80 DUP8 ADD CALLDATALOAD PUSH8 0xFFFFFFFFFFFFFFFF DUP2 GT ISZERO PUSH2 0xB10 JUMPI PUSH2 0xB0F PUSH2 0x14BA JUMP JUMPDEST JUMPDEST PUSH2 0xB1C DUP10 DUP3 DUP11 ADD PUSH2 0x9BB JUMP JUMPDEST SWAP3 POP POP PUSH1 0xA0 PUSH2 0xB2D DUP10 DUP3 DUP11 ADD PUSH2 0xA17 JUMP JUMPDEST SWAP2 POP POP SWAP3 SWAP6 POP SWAP3 SWAP6 POP SWAP3 SWAP6 JUMP JUMPDEST PUSH1 0x0 PUSH2 0xB45 DUP3 PUSH2 0x121B JUMP JUMPDEST PUSH2 0xB4F DUP2 DUP6 PUSH2 0x1226 JUMP JUMPDEST SWAP4 POP PUSH2 0xB5F DUP2 DUP6 PUSH1 0x20 DUP7 ADD PUSH2 0x1316 JUMP JUMPDEST PUSH2 0xB68 DUP2 PUSH2 0x14C4 JUMP JUMPDEST DUP5 ADD SWAP2 POP POP SWAP3 SWAP2 POP POP JUMP JUMPDEST PUSH1 0x0 PUSH2 0xB7E DUP3 PUSH2 0x121B JUMP JUMPDEST PUSH2 0xB88 DUP2 DUP6 PUSH2 0x1237 JUMP JUMPDEST SWAP4 POP PUSH2 0xB98 DUP2 DUP6 PUSH1 0x20 DUP7 ADD PUSH2 0x1316 JUMP JUMPDEST DUP1 DUP5 ADD SWAP2 POP POP SWAP3 SWAP2 POP POP JUMP JUMPDEST PUSH1 0x0 PUSH2 0xBB1 PUSH1 0xD DUP4 PUSH2 0x1237 JUMP JUMPDEST SWAP2 POP PUSH2 0xBBC DUP3 PUSH2 0x14D5 JUMP JUMPDEST PUSH1 0xD DUP3 ADD SWAP1 POP SWAP2 SWAP1 POP JUMP JUMPDEST PUSH1 0x0 PUSH2 0xBD4 PUSH1 0x7 DUP4 PUSH2 0x1237 JUMP JUMPDEST SWAP2 POP PUSH2 0xBDF DUP3 PUSH2 0x14FE JUMP JUMPDEST PUSH1 0x7 DUP3 ADD SWAP1 POP SWAP2 SWAP1 POP JUMP JUMPDEST PUSH1 0x0 PUSH2 0xBF7 PUSH1 0x42 DUP4 PUSH2 0x1237 JUMP JUMPDEST SWAP2 POP PUSH2 0xC02 DUP3 PUSH2 0x1527 JUMP JUMPDEST PUSH1 0x42 DUP3 ADD SWAP1 POP SWAP2 SWAP1 POP JUMP JUMPDEST PUSH1 0x0 PUSH2 0xC1A PUSH1 0x1D DUP4 PUSH2 0x1237 JUMP JUMPDEST SWAP2 POP PUSH2 0xC25 DUP3 PUSH2 0x159C JUMP JUMPDEST PUSH1 0x1D DUP3 ADD SWAP1 POP SWAP2 SWAP1 POP JUMP JUMPDEST PUSH1 0x0 PUSH2 0xC3D PUSH1 0x20 DUP4 PUSH2 0x1237 JUMP JUMPDEST SWAP2 POP PUSH2 0xC48 DUP3 PUSH2 0x15C5 JUMP JUMPDEST PUSH1 0x20 DUP3 ADD SWAP1 POP SWAP2 SWAP1 POP JUMP JUMPDEST PUSH1 0x0 PUSH2 0xC60 PUSH1 0x1D DUP4 PUSH2 0x1237 JUMP JUMPDEST SWAP2 POP PUSH2 0xC6B DUP3 PUSH2 0x15EE JUMP JUMPDEST PUSH1 0x1D DUP3 ADD SWAP1 POP SWAP2 SWAP1 POP JUMP JUMPDEST PUSH1 0x0 PUSH2 0xC83 PUSH1 0x20 DUP4 PUSH2 0x1237 JUMP JUMPDEST SWAP2 POP PUSH2 0xC8E DUP3 PUSH2 0x1617 JUMP JUMPDEST PUSH1 0x20 DUP3 ADD SWAP1 POP SWAP2 SWAP1 POP JUMP JUMPDEST PUSH1 0x0 PUSH2 0xCA6 PUSH1 0xB DUP4 PUSH2 0x1237 JUMP JUMPDEST SWAP2 POP PUSH2 0xCB1 DUP3 PUSH2 0x1640 JUMP JUMPDEST PUSH1 0xB DUP3 ADD SWAP1 POP SWAP2 SWAP1 POP JUMP JUMPDEST PUSH1 0x0 PUSH2 0xCC9 PUSH1 0x8 DUP4 PUSH2 0x1237 JUMP JUMPDEST SWAP2 POP PUSH2 0xCD4 DUP3 PUSH2 0x1669 JUMP JUMPDEST PUSH1 0x8 DUP3 ADD SWAP1 POP SWAP2 SWAP1 POP JUMP JUMPDEST PUSH1 0x0 PUSH2 0xCEC PUSH1 0x4 DUP4 PUSH2 0x1237 JUMP JUMPDEST SWAP2 POP PUSH2 0xCF7 DUP3 PUSH2 0x1692 JUMP JUMPDEST PUSH1 0x4 DUP3 ADD SWAP1 POP SWAP2 SWAP1 POP JUMP JUMPDEST PUSH1 0x0 PUSH2 0xD0F PUSH1 0xD DUP4 PUSH2 0x1237 JUMP JUMPDEST SWAP2 POP PUSH2 0xD1A DUP3 PUSH2 0x16BB JUMP JUMPDEST PUSH1 0xD DUP3 ADD SWAP1 POP SWAP2 SWAP1 POP JUMP JUMPDEST PUSH1 0x0 PUSH2 0xD32 PUSH1 0x27 DUP4 PUSH2 0x1237 JUMP JUMPDEST SWAP2 POP PUSH2 0xD3D DUP3 PUSH2 0x16E4 JUMP JUMPDEST PUSH1 0x27 DUP3 ADD SWAP1 POP SWAP2 SWAP1 POP JUMP JUMPDEST PUSH1 0x0 PUSH2 0xD55 PUSH1 0x22 DUP4 PUSH2 0x1237 JUMP JUMPDEST SWAP2 POP PUSH2 0xD60 DUP3 PUSH2 0x1733 JUMP JUMPDEST PUSH1 0x22 DUP3 ADD SWAP1 POP SWAP2 SWAP1 POP JUMP JUMPDEST PUSH1 0x0 PUSH2 0xD78 PUSH1 0xC DUP4 PUSH2 0x1237 JUMP JUMPDEST SWAP2 POP PUSH2 0xD83 DUP3 PUSH2 0x1782 JUMP JUMPDEST PUSH1 0xC DUP3 ADD SWAP1 POP SWAP2 SWAP1 POP JUMP JUMPDEST PUSH1 0x0 PUSH2 0xD9B PUSH1 0x7 DUP4 PUSH2 0x1237 JUMP JUMPDEST SWAP2 POP PUSH2 0xDA6 DUP3 PUSH2 0x17AB JUMP JUMPDEST PUSH1 0x7 DUP3 ADD SWAP1 POP SWAP2 SWAP1 POP JUMP JUMPDEST PUSH1 0x0 PUSH2 0xDBE PUSH1 0xF DUP4 PUSH2 0x1237 JUMP JUMPDEST SWAP2 POP PUSH2 0xDC9 DUP3 PUSH2 0x17D4 JUMP JUMPDEST PUSH1 0xF DUP3 ADD SWAP1 POP SWAP2 SWAP1 POP JUMP JUMPDEST PUSH1 0x0 PUSH2 0xDE2 PUSH2 0x434 DUP4 PUSH2 0x1237 JUMP JUMPDEST SWAP2 POP PUSH2 0xDED DUP3 PUSH2 0x17FD JUMP JUMPDEST PUSH2 0x434 DUP3 ADD SWAP1 POP SWAP2 SWAP1 POP JUMP JUMPDEST PUSH1 0x0 PUSH2 0xE06 PUSH1 0x3 DUP4 PUSH2 0x1237 JUMP JUMPDEST SWAP2 POP PUSH2 0xE11 DUP3 PUSH2 0x1D26 JUMP JUMPDEST PUSH1 0x3 DUP3 ADD SWAP1 POP SWAP2 SWAP1 POP JUMP JUMPDEST PUSH1 0x0 PUSH2 0xE2A PUSH2 0x433 DUP4 PUSH2 0x1237 JUMP JUMPDEST SWAP2 POP PUSH2 0xE35 DUP3 PUSH2 0x1D4F JUMP JUMPDEST PUSH2 0x433 DUP3 ADD SWAP1 POP SWAP2 SWAP1 POP JUMP JUMPDEST PUSH1 0x0 PUSH2 0xE4E PUSH1 0x6 DUP4 PUSH2 0x1237 JUMP JUMPDEST SWAP2 POP PUSH2 0xE59 DUP3 PUSH2 0x2278 JUMP JUMPDEST PUSH1 0x6 DUP3 ADD SWAP1 POP SWAP2 SWAP1 POP JUMP JUMPDEST PUSH1 0x0 PUSH2 0xE72 PUSH2 0x432 DUP4 PUSH2 0x1237 JUMP JUMPDEST SWAP2 POP PUSH2 0xE7D DUP3 PUSH2 0x22A1 JUMP JUMPDEST PUSH2 0x432 DUP3 ADD SWAP1 POP SWAP2 SWAP1 POP JUMP JUMPDEST PUSH1 0x0 PUSH2 0xE96 PUSH1 0x7 DUP4 PUSH2 0x1237 JUMP JUMPDEST SWAP2 POP PUSH2 0xEA1 DUP3 PUSH2 0x27CA JUMP JUMPDEST PUSH1 0x7 DUP3 ADD SWAP1 POP SWAP2 SWAP1 POP JUMP JUMPDEST PUSH1 0x0 PUSH2 0xEB9 PUSH1 0x66 DUP4 PUSH2 0x1237 JUMP JUMPDEST SWAP2 POP PUSH2 0xEC4 DUP3 PUSH2 0x27F3 JUMP JUMPDEST PUSH1 0x66 DUP3 ADD SWAP1 POP SWAP2 SWAP1 POP JUMP JUMPDEST PUSH1 0x0 PUSH2 0xEDB DUP3 DUP5 PUSH2 0xB73 JUMP JUMPDEST SWAP2 POP DUP2 SWAP1 POP SWAP3 SWAP2 POP POP JUMP JUMPDEST PUSH1 0x0 PUSH2 0xEF2 DUP3 DUP6 PUSH2 0xB73 JUMP JUMPDEST SWAP2 POP PUSH2 0xEFE DUP3 DUP5 PUSH2 0xB73 JUMP JUMPDEST SWAP2 POP DUP2 SWAP1 POP SWAP4 SWAP3 POP POP POP JUMP JUMPDEST PUSH1 0x0 PUSH2 0xF16 DUP3 DUP6 PUSH2 0xB73 JUMP JUMPDEST SWAP2 POP PUSH2 0xF21 DUP3 PUSH2 0xC0D JUMP JUMPDEST SWAP2 POP PUSH2 0xF2D DUP3 DUP5 PUSH2 0xB73 JUMP JUMPDEST SWAP2 POP PUSH2 0xF38 DUP3 PUSH2 0xD8E JUMP JUMPDEST SWAP2 POP DUP2 SWAP1 POP SWAP4 SWAP3 POP POP POP JUMP JUMPDEST PUSH1 0x0 PUSH2 0xF50 DUP3 DUP6 PUSH2 0xB73 JUMP JUMPDEST SWAP2 POP PUSH2 0xF5B DUP3 PUSH2 0xC30 JUMP JUMPDEST SWAP2 POP PUSH2 0xF67 DUP3 DUP5 PUSH2 0xB73 JUMP JUMPDEST SWAP2 POP PUSH2 0xF72 DUP3 PUSH2 0xD8E JUMP JUMPDEST SWAP2 POP DUP2 SWAP1 POP SWAP4 SWAP3 POP POP POP JUMP JUMPDEST PUSH1 0x0 PUSH2 0xF8A DUP3 DUP6 PUSH2 0xB73 JUMP JUMPDEST SWAP2 POP PUSH2 0xF95 DUP3 PUSH2 0xC53 JUMP JUMPDEST SWAP2 POP PUSH2 0xFA1 DUP3 DUP5 PUSH2 0xB73 JUMP JUMPDEST SWAP2 POP PUSH2 0xFAC DUP3 PUSH2 0xD8E JUMP JUMPDEST SWAP2 POP DUP2 SWAP1 POP SWAP4 SWAP3 POP POP POP JUMP JUMPDEST PUSH1 0x0 PUSH2 0xFC4 DUP3 DUP6 PUSH2 0xB73 JUMP JUMPDEST SWAP2 POP PUSH2 0xFCF DUP3 PUSH2 0xC76 JUMP JUMPDEST SWAP2 POP PUSH2 0xFDB DUP3 DUP5 PUSH2 0xB73 JUMP JUMPDEST SWAP2 POP PUSH2 0xFE6 DUP3 PUSH2 0xDF9 JUMP JUMPDEST SWAP2 POP PUSH2 0xFF1 DUP3 PUSH2 0xD8E JUMP JUMPDEST SWAP2 POP DUP2 SWAP1 POP SWAP4 SWAP3 POP POP POP JUMP JUMPDEST PUSH1 0x0 PUSH2 0x1009 DUP3 DUP5 PUSH2 0xB73 JUMP JUMPDEST SWAP2 POP PUSH2 0x1014 DUP3 PUSH2 0xD25 JUMP JUMPDEST SWAP2 POP PUSH2 0x101F DUP3 PUSH2 0xBC7 JUMP JUMPDEST SWAP2 POP PUSH2 0x102A DUP3 PUSH2 0xCDF JUMP JUMPDEST SWAP2 POP DUP2 SWAP1 POP SWAP3 SWAP2 POP POP JUMP JUMPDEST PUSH1 0x0 PUSH2 0x1041 DUP3 DUP6 PUSH2 0xB73 JUMP JUMPDEST SWAP2 POP PUSH2 0x104C DUP3 PUSH2 0xD48 JUMP JUMPDEST SWAP2 POP PUSH2 0x1058 DUP3 DUP5 PUSH2 0xB73 JUMP JUMPDEST SWAP2 POP PUSH2 0x1063 DUP3 PUSH2 0xD8E JUMP JUMPDEST SWAP2 POP DUP2 SWAP1 POP SWAP4 SWAP3 POP POP POP JUMP JUMPDEST PUSH1 0x0 PUSH2 0x107B DUP3 DUP5 PUSH2 0xB73 JUMP JUMPDEST SWAP2 POP PUSH2 0x1086 DUP3 PUSH2 0xDD4 JUMP JUMPDEST SWAP2 POP DUP2 SWAP1 POP SWAP3 SWAP2 POP POP JUMP JUMPDEST PUSH1 0x0 PUSH2 0x109D DUP3 DUP5 PUSH2 0xB73 JUMP JUMPDEST SWAP2 POP PUSH2 0x10A8 DUP3 PUSH2 0xE1C JUMP JUMPDEST SWAP2 POP DUP2 SWAP1 POP SWAP3 SWAP2 POP POP JUMP JUMPDEST PUSH1 0x0 PUSH2 0x10BF DUP3 DUP5 PUSH2 0xB73 JUMP JUMPDEST SWAP2 POP PUSH2 0x10CA DUP3 PUSH2 0xE41 JUMP JUMPDEST SWAP2 POP DUP2 SWAP1 POP SWAP3 SWAP2 POP POP JUMP JUMPDEST PUSH1 0x0 PUSH2 0x10E1 DUP3 DUP5 PUSH2 0xB73 JUMP JUMPDEST SWAP2 POP PUSH2 0x10EC DUP3 PUSH2 0xE64 JUMP JUMPDEST SWAP2 POP DUP2 SWAP1 POP SWAP3 SWAP2 POP POP JUMP JUMPDEST PUSH1 0x0 PUSH2 0x1103 DUP3 DUP5 PUSH2 0xB73 JUMP JUMPDEST SWAP2 POP PUSH2 0x110E DUP3 PUSH2 0xE89 JUMP JUMPDEST SWAP2 POP PUSH2 0x1119 DUP3 PUSH2 0xEAC JUMP JUMPDEST SWAP2 POP PUSH2 0x1124 DUP3 PUSH2 0xBEA JUMP JUMPDEST SWAP2 POP PUSH2 0x112F DUP3 PUSH2 0xCBC JUMP JUMPDEST SWAP2 POP DUP2 SWAP1 POP SWAP3 SWAP2 POP POP JUMP JUMPDEST PUSH1 0x0 PUSH2 0x1145 DUP3 PUSH2 0xBA4 JUMP JUMPDEST SWAP2 POP DUP2 SWAP1 POP SWAP2 SWAP1 POP JUMP JUMPDEST PUSH1 0x0 PUSH2 0x115A DUP3 PUSH2 0xC99 JUMP JUMPDEST SWAP2 POP DUP2 SWAP1 POP SWAP2 SWAP1 POP JUMP JUMPDEST PUSH1 0x0 PUSH2 0x116F DUP3 PUSH2 0xD02 JUMP JUMPDEST SWAP2 POP DUP2 SWAP1 POP SWAP2 SWAP1 POP JUMP JUMPDEST PUSH1 0x0 PUSH2 0x1184 DUP3 PUSH2 0xD6B JUMP JUMPDEST SWAP2 POP DUP2 SWAP1 POP SWAP2 SWAP1 POP JUMP JUMPDEST PUSH1 0x0 PUSH2 0x1199 DUP3 PUSH2 0xDB1 JUMP JUMPDEST SWAP2 POP DUP2 SWAP1 POP SWAP2 SWAP1 POP JUMP JUMPDEST PUSH1 0x0 PUSH1 0x20 DUP3 ADD SWAP1 POP DUP2 DUP2 SUB PUSH1 0x0 DUP4 ADD MSTORE PUSH2 0x11BD DUP2 DUP5 PUSH2 0xB3A JUMP JUMPDEST SWAP1 POP SWAP3 SWAP2 POP POP JUMP JUMPDEST PUSH1 0x0 PUSH2 0x11CF PUSH2 0x11E0 JUMP JUMPDEST SWAP1 POP PUSH2 0x11DB DUP3 DUP3 PUSH2 0x1349 JUMP JUMPDEST SWAP2 SWAP1 POP JUMP JUMPDEST PUSH1 0x0 PUSH1 0x40 MLOAD SWAP1 POP SWAP1 JUMP JUMPDEST PUSH1 0x0 PUSH8 0xFFFFFFFFFFFFFFFF DUP3 GT ISZERO PUSH2 0x1205 JUMPI PUSH2 0x1204 PUSH2 0x1481 JUMP JUMPDEST JUMPDEST PUSH2 0x120E DUP3 PUSH2 0x14C4 JUMP JUMPDEST SWAP1 POP PUSH1 0x20 DUP2 ADD SWAP1 POP SWAP2 SWAP1 POP JUMP JUMPDEST PUSH1 0x0 DUP2 MLOAD SWAP1 POP SWAP2 SWAP1 POP JUMP JUMPDEST PUSH1 0x0 DUP3 DUP3 MSTORE PUSH1 0x20 DUP3 ADD SWAP1 POP SWAP3 SWAP2 POP POP JUMP JUMPDEST PUSH1 0x0 DUP2 SWAP1 POP SWAP3 SWAP2 POP POP JUMP JUMPDEST PUSH1 0x0 PUSH2 0x124D DUP3 PUSH2 0x12FD JUMP JUMPDEST SWAP2 POP PUSH2 0x1258 DUP4 PUSH2 0x12FD JUMP JUMPDEST SWAP3 POP DUP3 PUSH32 0xFFFFFFFFFFFFFFFFFFFFFFFFFFFFFFFFFFFFFFFFFFFFFFFFFFFFFFFFFFFFFFFF SUB DUP3 GT ISZERO PUSH2 0x128D JUMPI PUSH2 0x128C PUSH2 0x13F4 JUMP JUMPDEST JUMPDEST DUP3 DUP3 ADD SWAP1 POP SWAP3 SWAP2 POP POP JUMP JUMPDEST PUSH1 0x0 PUSH2 0x12A3 DUP3 PUSH2 0x12FD JUMP JUMPDEST SWAP2 POP PUSH2 0x12AE DUP4 PUSH2 0x12FD JUMP JUMPDEST SWAP3 POP DUP3 PUSH2 0x12BE JUMPI PUSH2 0x12BD PUSH2 0x1423 JUMP JUMPDEST JUMPDEST DUP3 DUP3 DIV SWAP1 POP SWAP3 SWAP2 POP POP JUMP JUMPDEST PUSH1 0x0 PUSH2 0x12D4 DUP3 PUSH2 0x12FD JUMP JUMPDEST SWAP2 POP PUSH2 0x12DF DUP4 PUSH2 0x12FD JUMP JUMPDEST SWAP3 POP DUP3 DUP3 LT ISZERO PUSH2 0x12F2 JUMPI PUSH2 0x12F1 PUSH2 0x13F4 JUMP JUMPDEST JUMPDEST DUP3 DUP3 SUB SWAP1 POP SWAP3 SWAP2 POP POP JUMP JUMPDEST PUSH1 0x0 DUP2 SWAP1 POP SWAP2 SWAP1 POP JUMP JUMPDEST DUP3 DUP2 DUP4 CALLDATACOPY PUSH1 0x0 DUP4 DUP4 ADD MSTORE POP POP POP JUMP JUMPDEST PUSH1 0x0 JUMPDEST DUP4 DUP2 LT ISZERO PUSH2 0x1334 JUMPI DUP1 DUP3 ADD MLOAD DUP2 DUP5 ADD MSTORE PUSH1 0x20 DUP2 ADD SWAP1 POP PUSH2 0x1319 JUMP JUMPDEST DUP4 DUP2 GT ISZERO PUSH2 0x1343 JUMPI PUSH1 0x0 DUP5 DUP5 ADD MSTORE JUMPDEST POP POP POP POP JUMP JUMPDEST PUSH2 0x1352 DUP3 PUSH2 0x14C4 JUMP JUMPDEST DUP2 ADD DUP2 DUP2 LT PUSH8 0xFFFFFFFFFFFFFFFF DUP3 GT OR ISZERO PUSH2 0x1371 JUMPI PUSH2 0x1370 PUSH2 0x1481 JUMP JUMPDEST JUMPDEST DUP1 PUSH1 0x40 MSTORE POP POP POP JUMP JUMPDEST PUSH1 0x0 PUSH2 0x1385 DUP3 PUSH2 0x12FD JUMP JUMPDEST SWAP2 POP PUSH32 0xFFFFFFFFFFFFFFFFFFFFFFFFFFFFFFFFFFFFFFFFFFFFFFFFFFFFFFFFFFFFFFFF DUP3 EQ ISZERO PUSH2 0x13B8 JUMPI PUSH2 0x13B7 PUSH2 0x13F4 JUMP JUMPDEST JUMPDEST PUSH1 0x1 DUP3 ADD SWAP1 POP SWAP2 SWAP1 POP JUMP JUMPDEST PUSH1 0x0 PUSH2 0x13CE DUP3 PUSH2 0x12FD JUMP JUMPDEST SWAP2 POP PUSH2 0x13D9 DUP4 PUSH2 0x12FD JUMP JUMPDEST SWAP3 POP DUP3 PUSH2 0x13E9 JUMPI PUSH2 0x13E8 PUSH2 0x1423 JUMP JUMPDEST JUMPDEST DUP3 DUP3 MOD SWAP1 POP SWAP3 SWAP2 POP POP JUMP JUMPDEST PUSH32 0x4E487B7100000000000000000000000000000000000000000000000000000000 PUSH1 0x0 MSTORE PUSH1 0x11 PUSH1 0x4 MSTORE PUSH1 0x24 PUSH1 0x0 REVERT JUMPDEST PUSH32 0x4E487B7100000000000000000000000000000000000000000000000000000000 PUSH1 0x0 MSTORE PUSH1 0x12 PUSH1 0x4 MSTORE PUSH1 0x24 PUSH1 0x0 REVERT JUMPDEST PUSH32 0x4E487B7100000000000000000000000000000000000000000000000000000000 PUSH1 0x0 MSTORE PUSH1 0x32 PUSH1 0x4 MSTORE PUSH1 0x24 PUSH1 0x0 REVERT JUMPDEST PUSH32 0x4E487B7100000000000000000000000000000000000000000000000000000000 PUSH1 0x0 MSTORE PUSH1 0x41 PUSH1 0x4 MSTORE PUSH1 0x24 PUSH1 0x0 REVERT JUMPDEST PUSH1 0x0 DUP1 REVERT JUMPDEST PUSH1 0x0 DUP1 REVERT JUMPDEST PUSH1 0x0 DUP1 REVERT JUMPDEST PUSH1 0x0 DUP1 REVERT JUMPDEST PUSH1 0x0 PUSH1 0x1F NOT PUSH1 0x1F DUP4 ADD AND SWAP1 POP SWAP2 SWAP1 POP JUMP JUMPDEST PUSH32 0x50616A74696D204B6173616D6900000000000000000000000000000000000000 PUSH1 0x0 DUP3 ADD MSTORE POP JUMP JUMPDEST PUSH32 0x2365343032323700000000000000000000000000000000000000000000000000 PUSH1 0x0 DUP3 ADD MSTORE POP JUMP JUMPDEST PUSH32 0x2E7469746C65207B20746578742D616E63686F723A206C6566743B20666F6E74 PUSH1 0x0 DUP3 ADD MSTORE PUSH32 0x2D7765696768743A20626F6C643B20666F6E742D73697A653A20312E35656D3B PUSH1 0x20 DUP3 ADD MSTORE PUSH32 0x207D000000000000000000000000000000000000000000000000000000000000 PUSH1 0x40 DUP3 ADD MSTORE POP JUMP JUMPDEST PUSH32 0x3C7465787420783D2232302220793D2233343022203E47616D65733A20000000 PUSH1 0x0 DUP3 ADD MSTORE POP JUMP JUMPDEST PUSH32 0x3C7465787420783D2232302220793D2233383022203E506F736974696F6E3A20 PUSH1 0x0 DUP3 ADD MSTORE POP JUMP JUMPDEST PUSH32 0x3C7465787420783D2232302220793D2233363022203E476F616C733A20000000 PUSH1 0x0 DUP3 ADD MSTORE POP JUMP JUMPDEST PUSH32 0x3C7465787420783D2232302220793D2233323022203E47616D65706C61793A20 PUSH1 0x0 DUP3 ADD MSTORE POP JUMP JUMPDEST PUSH32 0x4C69616D204D696C6C6172000000000000000000000000000000000000000000 PUSH1 0x0 DUP3 ADD MSTORE POP JUMP JUMPDEST PUSH32 0x3C2F7374796C653E000000000000000000000000000000000000000000000000 PUSH1 0x0 DUP3 ADD MSTORE POP JUMP JUMPDEST PUSH32 0x22202F3E00000000000000000000000000000000000000000000000000000000 PUSH1 0x0 DUP3 ADD MSTORE POP JUMP JUMPDEST PUSH32 0x4865696E7A204C696E646E657200000000000000000000000000000000000000 PUSH1 0x0 DUP3 ADD MSTORE POP JUMP JUMPDEST PUSH32 0x3C726563742077696474683D223130302522206865696768743D223130302522 PUSH1 0x0 DUP3 ADD MSTORE PUSH32 0x2066696C6C3D2200000000000000000000000000000000000000000000000000 PUSH1 0x20 DUP3 ADD MSTORE POP JUMP JUMPDEST PUSH32 0x3C7465787420783D2238302220793D2234302220636C6173733D227469746C65 PUSH1 0x0 DUP3 ADD MSTORE PUSH32 0x223E000000000000000000000000000000000000000000000000000000000000 PUSH1 0x20 DUP3 ADD MSTORE POP JUMP JUMPDEST PUSH32 0x416E64792050656C6D6172640000000000000000000000000000000000000000 PUSH1 0x0 DUP3 ADD MSTORE POP JUMP JUMPDEST PUSH32 0x3C2F746578743E00000000000000000000000000000000000000000000000000 PUSH1 0x0 DUP3 ADD MSTORE POP JUMP JUMPDEST PUSH32 0x4E6F6168204B6174746572626163680000000000000000000000000000000000 PUSH1 0x0 DUP3 ADD MSTORE POP JUMP JUMPDEST PUSH32 0x3C70617468207374796C653D2266696C6C3A23666665343439222020643D226D PUSH1 0x0 DUP3 ADD MSTORE PUSH32 0x202D332E32303136393439652D362C31313539206320322E3133343436333365 PUSH1 0x20 DUP3 ADD MSTORE PUSH32 0x2D362C3020312E30363732333136652D362C3020302C30207A204D20302E3132 PUSH1 0x40 DUP3 ADD MSTORE PUSH32 0x36383036382C3238392E37352063202D302E30383435333738372C3537392E35 PUSH1 0x60 DUP3 ADD MSTORE PUSH32 0x202D302E30343232363839332C3238392E373520302C30207A206D203230372E PUSH1 0x80 DUP3 ADD MSTORE PUSH32 0x313930353933322C342E35323131312033342E383137342C2D32352E33343835 PUSH1 0xA0 DUP3 ADD MSTORE PUSH32 0x392033342E3432392C32352E303337353420632031382E3933362C31332E3737 PUSH1 0xC0 DUP3 ADD MSTORE PUSH32 0x3036352033342E393933312C32352E31353035382033352E363832362C32352E PUSH1 0xE0 DUP3 ADD MSTORE PUSH32 0x323838373420302E363839352C302E313338313620312E313330372C2D302E34 PUSH2 0x100 DUP3 ADD MSTORE PUSH32 0x3935353420302E393830362C2D312E3430383231202D302E313530322C2D302E PUSH2 0x120 DUP3 ADD MSTORE PUSH32 0x3931323638202D362E313130312C2D31392E3537343234202D31332E32343432 PUSH2 0x140 DUP3 ADD MSTORE PUSH32 0x2C2D34312E3437303133202D31302E313837382C2D33312E3236383136202D31 PUSH2 0x160 DUP3 ADD MSTORE PUSH32 0x322E373034312C2D34302E3035313237202D31312E3732372C2D34302E393331 PUSH2 0x180 DUP3 ADD MSTORE PUSH32 0x373520302E363834332C2D302E36313635372031372E31343938332C2D31312E PUSH2 0x1A0 DUP3 ADD MSTORE PUSH32 0x37393238382033352E373030392C2D32362E3032393837204C203335382E3431 PUSH2 0x1C0 DUP3 ADD MSTORE PUSH32 0x33342C3138342E35203331342E303731312C313834203236392E373238372C31 PUSH2 0x1E0 DUP3 ADD MSTORE PUSH32 0x38332E35203235362E343837382C3134322E37303637352063202D342E373236 PUSH2 0x200 DUP3 ADD MSTORE PUSH32 0x30332C2D31332E3439303036202D31302E31373033352C2D32392E3331343534 PUSH2 0x220 DUP3 ADD MSTORE PUSH32 0x202D31342E34333234362C2D34322E3332353634202D302E3236352C302E3236 PUSH2 0x240 DUP3 ADD MSTORE PUSH32 0x343938202D362E39303230342C31392E3431353635202D31342E30393235342C PUSH2 0x260 DUP3 ADD MSTORE PUSH32 0x34312E3631393137202D372E313930352C32322E3230333532202D31332E3330 PUSH2 0x280 DUP3 ADD MSTORE PUSH32 0x30332C34302E3733363731202D31332E353737322C34312E3138343838204320 PUSH2 0x2A0 DUP3 ADD MSTORE PUSH32 0x3231342E313038362C3138332E3633333332203139342E333333352C31383420 PUSH2 0x2C0 DUP3 ADD MSTORE PUSH32 0x3137302E3434312C3138342063202D32332E38393235372C30202D34332E3432 PUSH2 0x2E0 DUP3 ADD MSTORE PUSH32 0x3838382C302E33333735202D34332E34313430352C302E373520302E30313438 PUSH2 0x300 DUP3 ADD MSTORE PUSH32 0x2C302E343132352031352E37363438332C31322E313530322033352E30303030 PUSH2 0x320 DUP3 ADD MSTORE PUSH32 0x352C32362E30383337392031392E323335312C31332E39333335392033342E39 PUSH2 0x340 DUP3 ADD MSTORE PUSH32 0x3732352C32352E36333335392033342E3937322C3236202D36652D342C302E33 PUSH2 0x360 DUP3 ADD MSTORE PUSH32 0x36363432202D362E303735322C31392E3334313231202D31332E3439392C3432 PUSH2 0x380 DUP3 ADD MSTORE PUSH32 0x2E3136363231202D372E343233392C32322E383235202D31332E343938342C34 PUSH2 0x3A0 DUP3 ADD MSTORE PUSH32 0x312E3633393036202D31332E3439392C34312E383039303220302C302E353836 PUSH2 0x3C0 DUP3 ADD MSTORE PUSH32 0x393320322E36333631322C2D312E32383931352033372E333136342C2D32362E PUSH2 0x3E0 DUP3 ADD MSTORE PUSH32 0x3533373931207A22207472616E73666F726D3D227472616E736C617465283330 PUSH2 0x400 DUP3 ADD MSTORE PUSH32 0x302C31323029207363616C6528302E3229222F3E000000000000000000000000 PUSH2 0x420 DUP3 ADD MSTORE POP JUMP JUMPDEST PUSH32 0x6D696E0000000000000000000000000000000000000000000000000000000000 PUSH1 0x0 DUP3 ADD MSTORE POP JUMP JUMPDEST PUSH32 0x3C70617468207374796C653D2266696C6C3A23623262396263222020643D226D PUSH1 0x0 DUP3 ADD MSTORE PUSH32 0x202D332E32303136393439652D362C31313539206320322E3133343436333365 PUSH1 0x20 DUP3 ADD MSTORE PUSH32 0x2D362C3020312E30363732333136652D362C3020302C30207A204D20302E3132 PUSH1 0x40 DUP3 ADD MSTORE PUSH32 0x36383036382C3238392E37352063202D302E30383435333738372C3537392E35 PUSH1 0x60 DUP3 ADD MSTORE PUSH32 0x202D302E30343232363839332C3238392E373520302C30207A206D203230372E PUSH1 0x80 DUP3 ADD MSTORE PUSH32 0x313930353933322C342E35323131312033342E383137342C2D32352E33343835 PUSH1 0xA0 DUP3 ADD MSTORE PUSH32 0x392033342E3432392C32352E303337353420632031382E3933362C31332E3737 PUSH1 0xC0 DUP3 ADD MSTORE PUSH32 0x3036352033342E393933312C32352E31353035382033352E363832362C32352E PUSH1 0xE0 DUP3 ADD MSTORE PUSH32 0x323838373420302E363839352C302E313338313620312E313330372C2D302E34 PUSH2 0x100 DUP3 ADD MSTORE PUSH32 0x3935353420302E393830362C2D312E3430383231202D302E313530322C2D302E PUSH2 0x120 DUP3 ADD MSTORE PUSH32 0x3931323638202D362E313130312C2D31392E3537343234202D31332E32343432 PUSH2 0x140 DUP3 ADD MSTORE PUSH32 0x2C2D34312E3437303133202D31302E313837382C2D33312E3236383136202D31 PUSH2 0x160 DUP3 ADD MSTORE PUSH32 0x322E373034312C2D34302E3035313237202D31312E3732372C2D34302E393331 PUSH2 0x180 DUP3 ADD MSTORE PUSH32 0x373520302E363834332C2D302E36313635372031372E31343938332C2D31312E PUSH2 0x1A0 DUP3 ADD MSTORE PUSH32 0x37393238382033352E373030392C2D32362E3032393837204C203335382E3431 PUSH2 0x1C0 DUP3 ADD MSTORE PUSH32 0x33342C3138342E35203331342E303731312C313834203236392E373238372C31 PUSH2 0x1E0 DUP3 ADD MSTORE PUSH32 0x38332E35203235362E343837382C3134322E37303637352063202D342E373236 PUSH2 0x200 DUP3 ADD MSTORE PUSH32 0x30332C2D31332E3439303036202D31302E31373033352C2D32392E3331343534 PUSH2 0x220 DUP3 ADD MSTORE PUSH32 0x202D31342E34333234362C2D34322E3332353634202D302E3236352C302E3236 PUSH2 0x240 DUP3 ADD MSTORE PUSH32 0x343938202D362E39303230342C31392E3431353635202D31342E30393235342C PUSH2 0x260 DUP3 ADD MSTORE PUSH32 0x34312E3631393137202D372E313930352C32322E3230333532202D31332E3330 PUSH2 0x280 DUP3 ADD MSTORE PUSH32 0x30332C34302E3733363731202D31332E353737322C34312E3138343838204320 PUSH2 0x2A0 DUP3 ADD MSTORE PUSH32 0x3231342E313038362C3138332E3633333332203139342E333333352C31383420 PUSH2 0x2C0 DUP3 ADD MSTORE PUSH32 0x3137302E3434312C3138342063202D32332E38393235372C30202D34332E3432 PUSH2 0x2E0 DUP3 ADD MSTORE PUSH32 0x3838382C302E33333735202D34332E34313430352C302E373520302E30313438 PUSH2 0x300 DUP3 ADD MSTORE PUSH32 0x2C302E343132352031352E37363438332C31322E313530322033352E30303030 PUSH2 0x320 DUP3 ADD MSTORE PUSH32 0x352C32362E30383337392031392E323335312C31332E39333335392033342E39 PUSH2 0x340 DUP3 ADD MSTORE PUSH32 0x3732352C32352E36333335392033342E3937322C3236202D36652D342C302E33 PUSH2 0x360 DUP3 ADD MSTORE PUSH32 0x36363432202D362E303735322C31392E3334313231202D31332E3439392C3432 PUSH2 0x380 DUP3 ADD MSTORE PUSH32 0x2E3136363231202D372E343233392C32322E383235202D31332E343938342C34 PUSH2 0x3A0 DUP3 ADD MSTORE PUSH32 0x312E3633393036202D31332E3439392C34312E383039303220302C302E353836 PUSH2 0x3C0 DUP3 ADD MSTORE PUSH32 0x393320322E36333631322C2D312E32383931352033372E333136342C2D32362E PUSH2 0x3E0 DUP3 ADD MSTORE PUSH32 0x3533373931207A22207472616E73666F726D3D227472616E736C617465283330 PUSH2 0x400 DUP3 ADD MSTORE PUSH32 0x302C363029207363616C6528302E3229222F3E00000000000000000000000000 PUSH2 0x420 DUP3 ADD MSTORE POP JUMP JUMPDEST PUSH32 0x3C2F7376673E0000000000000000000000000000000000000000000000000000 PUSH1 0x0 DUP3 ADD MSTORE POP JUMP JUMPDEST PUSH32 0x3C70617468207374796C653D2266696C6C3A23396335323231222020643D226D PUSH1 0x0 DUP3 ADD MSTORE PUSH32 0x202D332E32303136393439652D362C31313539206320322E3133343436333365 PUSH1 0x20 DUP3 ADD MSTORE PUSH32 0x2D362C3020312E30363732333136652D362C3020302C30207A204D20302E3132 PUSH1 0x40 DUP3 ADD MSTORE PUSH32 0x36383036382C3238392E37352063202D302E30383435333738372C3537392E35 PUSH1 0x60 DUP3 ADD MSTORE PUSH32 0x202D302E30343232363839332C3238392E373520302C30207A206D203230372E PUSH1 0x80 DUP3 ADD MSTORE PUSH32 0x313930353933322C342E35323131312033342E383137342C2D32352E33343835 PUSH1 0xA0 DUP3 ADD MSTORE PUSH32 0x392033342E3432392C32352E303337353420632031382E3933362C31332E3737 PUSH1 0xC0 DUP3 ADD MSTORE PUSH32 0x3036352033342E393933312C32352E31353035382033352E363832362C32352E PUSH1 0xE0 DUP3 ADD MSTORE PUSH32 0x323838373420302E363839352C302E313338313620312E313330372C2D302E34 PUSH2 0x100 DUP3 ADD MSTORE PUSH32 0x3935353420302E393830362C2D312E3430383231202D302E313530322C2D302E PUSH2 0x120 DUP3 ADD MSTORE PUSH32 0x3931323638202D362E313130312C2D31392E3537343234202D31332E32343432 PUSH2 0x140 DUP3 ADD MSTORE PUSH32 0x2C2D34312E3437303133202D31302E313837382C2D33312E3236383136202D31 PUSH2 0x160 DUP3 ADD MSTORE PUSH32 0x322E373034312C2D34302E3035313237202D31312E3732372C2D34302E393331 PUSH2 0x180 DUP3 ADD MSTORE PUSH32 0x373520302E363834332C2D302E36313635372031372E31343938332C2D31312E PUSH2 0x1A0 DUP3 ADD MSTORE PUSH32 0x37393238382033352E373030392C2D32362E3032393837204C203335382E3431 PUSH2 0x1C0 DUP3 ADD MSTORE PUSH32 0x33342C3138342E35203331342E303731312C313834203236392E373238372C31 PUSH2 0x1E0 DUP3 ADD MSTORE PUSH32 0x38332E35203235362E343837382C3134322E37303637352063202D342E373236 PUSH2 0x200 DUP3 ADD MSTORE PUSH32 0x30332C2D31332E3439303036202D31302E31373033352C2D32392E3331343534 PUSH2 0x220 DUP3 ADD MSTORE PUSH32 0x202D31342E34333234362C2D34322E3332353634202D302E3236352C302E3236 PUSH2 0x240 DUP3 ADD MSTORE PUSH32 0x343938202D362E39303230342C31392E3431353635202D31342E30393235342C PUSH2 0x260 DUP3 ADD MSTORE PUSH32 0x34312E3631393137202D372E313930352C32322E3230333532202D31332E3330 PUSH2 0x280 DUP3 ADD MSTORE PUSH32 0x30332C34302E3733363731202D31332E353737322C34312E3138343838204320 PUSH2 0x2A0 DUP3 ADD MSTORE PUSH32 0x3231342E313038362C3138332E3633333332203139342E333333352C31383420 PUSH2 0x2C0 DUP3 ADD MSTORE PUSH32 0x3137302E3434312C3138342063202D32332E38393235372C30202D34332E3432 PUSH2 0x2E0 DUP3 ADD MSTORE PUSH32 0x3838382C302E33333735202D34332E34313430352C302E373520302E30313438 PUSH2 0x300 DUP3 ADD MSTORE PUSH32 0x2C302E343132352031352E37363438332C31322E313530322033352E30303030 PUSH2 0x320 DUP3 ADD MSTORE PUSH32 0x352C32362E30383337392031392E323335312C31332E39333335392033342E39 PUSH2 0x340 DUP3 ADD MSTORE PUSH32 0x3732352C32352E36333335392033342E3937322C3236202D36652D342C302E33 PUSH2 0x360 DUP3 ADD MSTORE PUSH32 0x36363432202D362E303735322C31392E3334313231202D31332E3439392C3432 PUSH2 0x380 DUP3 ADD MSTORE PUSH32 0x2E3136363231202D372E343233392C32322E383235202D31332E343938342C34 PUSH2 0x3A0 DUP3 ADD MSTORE PUSH32 0x312E3633393036202D31332E3439392C34312E383039303220302C302E353836 PUSH2 0x3C0 DUP3 ADD MSTORE PUSH32 0x393320322E36333631322C2D312E32383931352033372E333136342C2D32362E PUSH2 0x3E0 DUP3 ADD MSTORE PUSH32 0x3533373931207A22207472616E73666F726D3D227472616E736C617465283330 PUSH2 0x400 DUP3 ADD MSTORE PUSH32 0x302C3029207363616C6528302E3229222F3E0000000000000000000000000000 PUSH2 0x420 DUP3 ADD MSTORE POP JUMP JUMPDEST PUSH32 0x3C7374796C653E00000000000000000000000000000000000000000000000000 PUSH1 0x0 DUP3 ADD MSTORE POP JUMP JUMPDEST PUSH32 0x74657874207B20666F6E742D66616D696C793A20417269616C2C2048656C7665 PUSH1 0x0 DUP3 ADD MSTORE PUSH32 0x746963612C2073616E732D73657269663B20666F6E742D7765696768743A2020 PUSH1 0x20 DUP3 ADD MSTORE PUSH32 0x626F6C643B2066696C6C3A20236666653530303B20666F6E742D73697A653A20 PUSH1 0x40 DUP3 ADD MSTORE PUSH32 0x31656D3B207D0000000000000000000000000000000000000000000000000000 PUSH1 0x60 DUP3 ADD MSTORE POP JUMP JUMPDEST PUSH2 0x2897 DUP2 PUSH2 0x12FD JUMP JUMPDEST DUP2 EQ PUSH2 0x28A2 JUMPI PUSH1 0x0 DUP1 REVERT JUMPDEST POP JUMP INVALID EXTCODECOPY PUSH20 0x76672077696474683D2233393022206865696768 PUSH21 0x3D22343335222066696C6C3D22677265656E222078 PUSH14 0x6C6E733D22687474703A2F2F7777 PUSH24 0x2E77332E6F72672F323030302F737667223EA26469706673 PC 0x22 SLT KECCAK256 0xBB DUP14 0xC2 SHR 0xC5 DUP7 SHL LOG3 SIGNEXTEND SDIV 0xA5 DUP16 0xFB 0x26 0xF PUSH11 0xF53A256A4C12A760377D5D CALLDATALOAD KECCAK256 0xB8 DIFFICULTY COINBASE PUSH5 0x736F6C6343 STOP ADDMOD SMOD STOP CALLER "
				},
				"gasEstimates": {
					"creation": {
						"codeDepositCost": "2107400",
						"executionCost": "infinite",
						"totalCost": "infinite"
					},
					"external": {
						"getSVG(uint256,uint256,uint256,string,string,uint256)": "infinite"
					},
					"internal": {
						"addImage(string memory,string memory)": "infinite"
					}
				},
				"methodIdentifiers": {
					"getSVG(uint256,uint256,uint256,string,string,uint256)": "c7370296"
				}
			},
			"userdoc": {
				"kind": "user",
				"methods": {},
				"version": 1
			}
		}
	}
}