{
	"Dynamic_Oracle_Based_NFT_BCC22/contracts/translateNumber.sol": {
		"translateNumber": {
			"abi": [
				{
					"inputs": [
						{
							"internalType": "uint256",
							"name": "randomNumber",
							"type": "uint256"
						},
						{
							"internalType": "uint256",
							"name": "i",
							"type": "uint256"
						},
						{
							"internalType": "uint256",
							"name": "modulo",
							"type": "uint256"
						}
					],
					"name": "getRandomNumber",
					"outputs": [
						{
							"internalType": "uint256",
							"name": "newNumber",
							"type": "uint256"
						}
					],
					"stateMutability": "pure",
					"type": "function"
				}
			],
			"devdoc": {
				"kind": "dev",
				"methods": {},
				"version": 1
			},
			"evm": {
				"assembly": "    /* \"Dynamic_Oracle_Based_NFT_BCC22/contracts/translateNumber.sol\":57:284  contract translateNumber {... */\n  mstore(0x40, 0x80)\n  callvalue\n  dup1\n  iszero\n  tag_1\n  jumpi\n  0x00\n  dup1\n  revert\ntag_1:\n  pop\n  dataSize(sub_0)\n  dup1\n  dataOffset(sub_0)\n  0x00\n  codecopy\n  0x00\n  return\nstop\n\nsub_0: assembly {\n        /* \"Dynamic_Oracle_Based_NFT_BCC22/contracts/translateNumber.sol\":57:284  contract translateNumber {... */\n      mstore(0x40, 0x80)\n      callvalue\n      dup1\n      iszero\n      tag_1\n      jumpi\n      0x00\n      dup1\n      revert\n    tag_1:\n      pop\n      jumpi(tag_2, lt(calldatasize, 0x04))\n      shr(0xe0, calldataload(0x00))\n      dup1\n      0x4ca7d044\n      eq\n      tag_3\n      jumpi\n    tag_2:\n      0x00\n      dup1\n      revert\n        /* \"Dynamic_Oracle_Based_NFT_BCC22/contracts/translateNumber.sol\":89:280  function getRandomNumber(uint randomNumber, uint i, uint modulo) external pure returns (uint newNumber) {... */\n    tag_3:\n      tag_4\n      0x04\n      dup1\n      calldatasize\n      sub\n      dup2\n      add\n      swap1\n      tag_5\n      swap2\n      swap1\n      tag_6\n      jump\t// in\n    tag_5:\n      tag_7\n      jump\t// in\n    tag_4:\n      mload(0x40)\n      tag_8\n      swap2\n      swap1\n      tag_9\n      jump\t// in\n    tag_8:\n      mload(0x40)\n      dup1\n      swap2\n      sub\n      swap1\n      return\n    tag_7:\n        /* \"Dynamic_Oracle_Based_NFT_BCC22/contracts/translateNumber.sol\":177:191  uint newNumber */\n      0x00\n        /* \"Dynamic_Oracle_Based_NFT_BCC22/contracts/translateNumber.sol\":267:273  modulo */\n      dup2\n        /* \"Dynamic_Oracle_Based_NFT_BCC22/contracts/translateNumber.sol\":247:259  randomNumber */\n      dup5\n        /* \"Dynamic_Oracle_Based_NFT_BCC22/contracts/translateNumber.sol\":260:261  i */\n      dup5\n        /* \"Dynamic_Oracle_Based_NFT_BCC22/contracts/translateNumber.sol\":230:262  abi.encodePacked(randomNumber,i) */\n      add(0x20, mload(0x40))\n      tag_11\n      swap3\n      swap2\n      swap1\n      tag_12\n      jump\t// in\n    tag_11:\n      mload(0x40)\n      0x20\n      dup2\n      dup4\n      sub\n      sub\n      dup2\n      mstore\n      swap1\n      0x40\n      mstore\n        /* \"Dynamic_Oracle_Based_NFT_BCC22/contracts/translateNumber.sol\":220:263  keccak256(abi.encodePacked(randomNumber,i)) */\n      dup1\n      mload\n      swap1\n      0x20\n      add\n      keccak256\n        /* \"Dynamic_Oracle_Based_NFT_BCC22/contracts/translateNumber.sol\":215:264  uint(keccak256(abi.encodePacked(randomNumber,i))) */\n      0x00\n      shr\n        /* \"Dynamic_Oracle_Based_NFT_BCC22/contracts/translateNumber.sol\":215:273  uint(keccak256(abi.encodePacked(randomNumber,i))) % modulo */\n      tag_13\n      swap2\n      swap1\n      tag_14\n      jump\t// in\n    tag_13:\n        /* \"Dynamic_Oracle_Based_NFT_BCC22/contracts/translateNumber.sol\":203:273  newNumber = uint(keccak256(abi.encodePacked(randomNumber,i))) % modulo */\n      swap1\n      pop\n        /* \"Dynamic_Oracle_Based_NFT_BCC22/contracts/translateNumber.sol\":89:280  function getRandomNumber(uint randomNumber, uint i, uint modulo) external pure returns (uint newNumber) {... */\n      swap4\n      swap3\n      pop\n      pop\n      pop\n      jump\t// out\n        /* \"#utility.yul\":7:146   */\n    tag_16:\n        /* \"#utility.yul\":53:58   */\n      0x00\n        /* \"#utility.yul\":91:97   */\n      dup2\n        /* \"#utility.yul\":78:98   */\n      calldataload\n        /* \"#utility.yul\":69:98   */\n      swap1\n      pop\n        /* \"#utility.yul\":107:140   */\n      tag_18\n        /* \"#utility.yul\":134:139   */\n      dup2\n        /* \"#utility.yul\":107:140   */\n      tag_19\n      jump\t// in\n    tag_18:\n        /* \"#utility.yul\":7:146   */\n      swap3\n      swap2\n      pop\n      pop\n      jump\t// out\n        /* \"#utility.yul\":152:771   */\n    tag_6:\n        /* \"#utility.yul\":229:235   */\n      0x00\n        /* \"#utility.yul\":237:243   */\n      dup1\n        /* \"#utility.yul\":245:251   */\n      0x00\n        /* \"#utility.yul\":294:296   */\n      0x60\n        /* \"#utility.yul\":282:291   */\n      dup5\n        /* \"#utility.yul\":273:280   */\n      dup7\n        /* \"#utility.yul\":269:292   */\n      sub\n        /* \"#utility.yul\":265:297   */\n      slt\n        /* \"#utility.yul\":262:381   */\n      iszero\n      tag_21\n      jumpi\n        /* \"#utility.yul\":300:379   */\n      tag_22\n      tag_23\n      jump\t// in\n    tag_22:\n        /* \"#utility.yul\":262:381   */\n    tag_21:\n        /* \"#utility.yul\":420:421   */\n      0x00\n        /* \"#utility.yul\":445:498   */\n      tag_24\n        /* \"#utility.yul\":490:497   */\n      dup7\n        /* \"#utility.yul\":481:487   */\n      dup3\n        /* \"#utility.yul\":470:479   */\n      dup8\n        /* \"#utility.yul\":466:488   */\n      add\n        /* \"#utility.yul\":445:498   */\n      tag_16\n      jump\t// in\n    tag_24:\n        /* \"#utility.yul\":435:498   */\n      swap4\n      pop\n        /* \"#utility.yul\":391:508   */\n      pop\n        /* \"#utility.yul\":547:549   */\n      0x20\n        /* \"#utility.yul\":573:626   */\n      tag_25\n        /* \"#utility.yul\":618:625   */\n      dup7\n        /* \"#utility.yul\":609:615   */\n      dup3\n        /* \"#utility.yul\":598:607   */\n      dup8\n        /* \"#utility.yul\":594:616   */\n      add\n        /* \"#utility.yul\":573:626   */\n      tag_16\n      jump\t// in\n    tag_25:\n        /* \"#utility.yul\":563:626   */\n      swap3\n      pop\n        /* \"#utility.yul\":518:636   */\n      pop\n        /* \"#utility.yul\":675:677   */\n      0x40\n        /* \"#utility.yul\":701:754   */\n      tag_26\n        /* \"#utility.yul\":746:753   */\n      dup7\n        /* \"#utility.yul\":737:743   */\n      dup3\n        /* \"#utility.yul\":726:735   */\n      dup8\n        /* \"#utility.yul\":722:744   */\n      add\n        /* \"#utility.yul\":701:754   */\n      tag_16\n      jump\t// in\n    tag_26:\n        /* \"#utility.yul\":691:754   */\n      swap2\n      pop\n        /* \"#utility.yul\":646:764   */\n      pop\n        /* \"#utility.yul\":152:771   */\n      swap3\n      pop\n      swap3\n      pop\n      swap3\n      jump\t// out\n        /* \"#utility.yul\":777:895   */\n    tag_27:\n        /* \"#utility.yul\":864:888   */\n      tag_29\n        /* \"#utility.yul\":882:887   */\n      dup2\n        /* \"#utility.yul\":864:888   */\n      tag_30\n      jump\t// in\n    tag_29:\n        /* \"#utility.yul\":859:862   */\n      dup3\n        /* \"#utility.yul\":852:889   */\n      mstore\n        /* \"#utility.yul\":777:895   */\n      pop\n      pop\n      jump\t// out\n        /* \"#utility.yul\":901:1058   */\n    tag_31:\n        /* \"#utility.yul\":1006:1051   */\n      tag_33\n        /* \"#utility.yul\":1026:1050   */\n      tag_34\n        /* \"#utility.yul\":1044:1049   */\n      dup3\n        /* \"#utility.yul\":1026:1050   */\n      tag_30\n      jump\t// in\n    tag_34:\n        /* \"#utility.yul\":1006:1051   */\n      tag_35\n      jump\t// in\n    tag_33:\n        /* \"#utility.yul\":1001:1004   */\n      dup3\n        /* \"#utility.yul\":994:1052   */\n      mstore\n        /* \"#utility.yul\":901:1058   */\n      pop\n      pop\n      jump\t// out\n        /* \"#utility.yul\":1064:1461   */\n    tag_12:\n        /* \"#utility.yul\":1204:1207   */\n      0x00\n        /* \"#utility.yul\":1219:1294   */\n      tag_37\n        /* \"#utility.yul\":1290:1293   */\n      dup3\n        /* \"#utility.yul\":1281:1287   */\n      dup6\n        /* \"#utility.yul\":1219:1294   */\n      tag_31\n      jump\t// in\n    tag_37:\n        /* \"#utility.yul\":1319:1321   */\n      0x20\n        /* \"#utility.yul\":1314:1317   */\n      dup3\n        /* \"#utility.yul\":1310:1322   */\n      add\n        /* \"#utility.yul\":1303:1322   */\n      swap2\n      pop\n        /* \"#utility.yul\":1332:1407   */\n      tag_38\n        /* \"#utility.yul\":1403:1406   */\n      dup3\n        /* \"#utility.yul\":1394:1400   */\n      dup5\n        /* \"#utility.yul\":1332:1407   */\n      tag_31\n      jump\t// in\n    tag_38:\n        /* \"#utility.yul\":1432:1434   */\n      0x20\n        /* \"#utility.yul\":1427:1430   */\n      dup3\n        /* \"#utility.yul\":1423:1435   */\n      add\n        /* \"#utility.yul\":1416:1435   */\n      swap2\n      pop\n        /* \"#utility.yul\":1452:1455   */\n      dup2\n        /* \"#utility.yul\":1445:1455   */\n      swap1\n      pop\n        /* \"#utility.yul\":1064:1461   */\n      swap4\n      swap3\n      pop\n      pop\n      pop\n      jump\t// out\n        /* \"#utility.yul\":1467:1689   */\n    tag_9:\n        /* \"#utility.yul\":1560:1564   */\n      0x00\n        /* \"#utility.yul\":1598:1600   */\n      0x20\n        /* \"#utility.yul\":1587:1596   */\n      dup3\n        /* \"#utility.yul\":1583:1601   */\n      add\n        /* \"#utility.yul\":1575:1601   */\n      swap1\n      pop\n        /* \"#utility.yul\":1611:1682   */\n      tag_40\n        /* \"#utility.yul\":1679:1680   */\n      0x00\n        /* \"#utility.yul\":1668:1677   */\n      dup4\n        /* \"#utility.yul\":1664:1681   */\n      add\n        /* \"#utility.yul\":1655:1661   */\n      dup5\n        /* \"#utility.yul\":1611:1682   */\n      tag_27\n      jump\t// in\n    tag_40:\n        /* \"#utility.yul\":1467:1689   */\n      swap3\n      swap2\n      pop\n      pop\n      jump\t// out\n        /* \"#utility.yul\":1776:1853   */\n    tag_30:\n        /* \"#utility.yul\":1813:1820   */\n      0x00\n        /* \"#utility.yul\":1842:1847   */\n      dup2\n        /* \"#utility.yul\":1831:1847   */\n      swap1\n      pop\n        /* \"#utility.yul\":1776:1853   */\n      swap2\n      swap1\n      pop\n      jump\t// out\n        /* \"#utility.yul\":1859:1938   */\n    tag_35:\n        /* \"#utility.yul\":1898:1905   */\n      0x00\n        /* \"#utility.yul\":1927:1932   */\n      dup2\n        /* \"#utility.yul\":1916:1932   */\n      swap1\n      pop\n        /* \"#utility.yul\":1859:1938   */\n      swap2\n      swap1\n      pop\n      jump\t// out\n        /* \"#utility.yul\":1944:2120   */\n    tag_14:\n        /* \"#utility.yul\":1976:1977   */\n      0x00\n        /* \"#utility.yul\":1993:2013   */\n      tag_46\n        /* \"#utility.yul\":2011:2012   */\n      dup3\n        /* \"#utility.yul\":1993:2013   */\n      tag_30\n      jump\t// in\n    tag_46:\n        /* \"#utility.yul\":1988:2013   */\n      swap2\n      pop\n        /* \"#utility.yul\":2027:2047   */\n      tag_47\n        /* \"#utility.yul\":2045:2046   */\n      dup4\n        /* \"#utility.yul\":2027:2047   */\n      tag_30\n      jump\t// in\n    tag_47:\n        /* \"#utility.yul\":2022:2047   */\n      swap3\n      pop\n        /* \"#utility.yul\":2066:2067   */\n      dup3\n        /* \"#utility.yul\":2056:2091   */\n      tag_48\n      jumpi\n        /* \"#utility.yul\":2071:2089   */\n      tag_49\n      tag_50\n      jump\t// in\n    tag_49:\n        /* \"#utility.yul\":2056:2091   */\n    tag_48:\n        /* \"#utility.yul\":2112:2113   */\n      dup3\n        /* \"#utility.yul\":2109:2110   */\n      dup3\n        /* \"#utility.yul\":2105:2114   */\n      mod\n        /* \"#utility.yul\":2100:2114   */\n      swap1\n      pop\n        /* \"#utility.yul\":1944:2120   */\n      swap3\n      swap2\n      pop\n      pop\n      jump\t// out\n        /* \"#utility.yul\":2126:2306   */\n    tag_50:\n        /* \"#utility.yul\":2174:2251   */\n      0x4e487b7100000000000000000000000000000000000000000000000000000000\n        /* \"#utility.yul\":2171:2172   */\n      0x00\n        /* \"#utility.yul\":2164:2252   */\n      mstore\n        /* \"#utility.yul\":2271:2275   */\n      0x12\n        /* \"#utility.yul\":2268:2269   */\n      0x04\n        /* \"#utility.yul\":2261:2276   */\n      mstore\n        /* \"#utility.yul\":2295:2299   */\n      0x24\n        /* \"#utility.yul\":2292:2293   */\n      0x00\n        /* \"#utility.yul\":2285:2300   */\n      revert\n        /* \"#utility.yul\":2435:2552   */\n    tag_23:\n        /* \"#utility.yul\":2544:2545   */\n      0x00\n        /* \"#utility.yul\":2541:2542   */\n      dup1\n        /* \"#utility.yul\":2534:2546   */\n      revert\n        /* \"#utility.yul\":2558:2680   */\n    tag_19:\n        /* \"#utility.yul\":2631:2655   */\n      tag_56\n        /* \"#utility.yul\":2649:2654   */\n      dup2\n        /* \"#utility.yul\":2631:2655   */\n      tag_30\n      jump\t// in\n    tag_56:\n        /* \"#utility.yul\":2624:2629   */\n      dup2\n        /* \"#utility.yul\":2621:2656   */\n      eq\n        /* \"#utility.yul\":2611:2674   */\n      tag_57\n      jumpi\n        /* \"#utility.yul\":2670:2671   */\n      0x00\n        /* \"#utility.yul\":2667:2668   */\n      dup1\n        /* \"#utility.yul\":2660:2672   */\n      revert\n        /* \"#utility.yul\":2611:2674   */\n    tag_57:\n        /* \"#utility.yul\":2558:2680   */\n      pop\n      jump\t// out\n\n    auxdata: 0xa2646970667358221220cb34a89bd3ffb1fb7cc5cae5a60722726cab5dc3c9bc4e3d1dfba4598a93750b64736f6c63430008070033\n}\n",
				"bytecode": {
					"linkReferences": {},
					"object": "608060405234801561001057600080fd5b5061023d806100206000396000f3fe608060405234801561001057600080fd5b506004361061002b5760003560e01c80634ca7d04414610030575b600080fd5b61004a600480360381019061004591906100b7565b610060565b604051610057919061015c565b60405180910390f35b6000818484604051602001610076929190610130565b6040516020818303038152906040528051906020012060001c610099919061018b565b90509392505050565b6000813590506100b1816101f0565b92915050565b6000806000606084860312156100d0576100cf6101eb565b5b60006100de868287016100a2565b93505060206100ef868287016100a2565b9250506040610100868287016100a2565b9150509250925092565b61011381610177565b82525050565b61012a61012582610177565b610181565b82525050565b600061013c8285610119565b60208201915061014c8284610119565b6020820191508190509392505050565b6000602082019050610171600083018461010a565b92915050565b6000819050919050565b6000819050919050565b600061019682610177565b91506101a183610177565b9250826101b1576101b06101bc565b5b828206905092915050565b7f4e487b7100000000000000000000000000000000000000000000000000000000600052601260045260246000fd5b600080fd5b6101f981610177565b811461020457600080fd5b5056fea2646970667358221220cb34a89bd3ffb1fb7cc5cae5a60722726cab5dc3c9bc4e3d1dfba4598a93750b64736f6c63430008070033",
					"opcodes": "PUSH1 0x80 PUSH1 0x40 MSTORE CALLVALUE DUP1 ISZERO PUSH2 0x10 JUMPI PUSH1 0x0 DUP1 REVERT JUMPDEST POP PUSH2 0x23D DUP1 PUSH2 0x20 PUSH1 0x0 CODECOPY PUSH1 0x0 RETURN INVALID PUSH1 0x80 PUSH1 0x40 MSTORE CALLVALUE DUP1 ISZERO PUSH2 0x10 JUMPI PUSH1 0x0 DUP1 REVERT JUMPDEST POP PUSH1 0x4 CALLDATASIZE LT PUSH2 0x2B JUMPI PUSH1 0x0 CALLDATALOAD PUSH1 0xE0 SHR DUP1 PUSH4 0x4CA7D044 EQ PUSH2 0x30 JUMPI JUMPDEST PUSH1 0x0 DUP1 REVERT JUMPDEST PUSH2 0x4A PUSH1 0x4 DUP1 CALLDATASIZE SUB DUP2 ADD SWAP1 PUSH2 0x45 SWAP2 SWAP1 PUSH2 0xB7 JUMP JUMPDEST PUSH2 0x60 JUMP JUMPDEST PUSH1 0x40 MLOAD PUSH2 0x57 SWAP2 SWAP1 PUSH2 0x15C JUMP JUMPDEST PUSH1 0x40 MLOAD DUP1 SWAP2 SUB SWAP1 RETURN JUMPDEST PUSH1 0x0 DUP2 DUP5 DUP5 PUSH1 0x40 MLOAD PUSH1 0x20 ADD PUSH2 0x76 SWAP3 SWAP2 SWAP1 PUSH2 0x130 JUMP JUMPDEST PUSH1 0x40 MLOAD PUSH1 0x20 DUP2 DUP4 SUB SUB DUP2 MSTORE SWAP1 PUSH1 0x40 MSTORE DUP1 MLOAD SWAP1 PUSH1 0x20 ADD KECCAK256 PUSH1 0x0 SHR PUSH2 0x99 SWAP2 SWAP1 PUSH2 0x18B JUMP JUMPDEST SWAP1 POP SWAP4 SWAP3 POP POP POP JUMP JUMPDEST PUSH1 0x0 DUP2 CALLDATALOAD SWAP1 POP PUSH2 0xB1 DUP2 PUSH2 0x1F0 JUMP JUMPDEST SWAP3 SWAP2 POP POP JUMP JUMPDEST PUSH1 0x0 DUP1 PUSH1 0x0 PUSH1 0x60 DUP5 DUP7 SUB SLT ISZERO PUSH2 0xD0 JUMPI PUSH2 0xCF PUSH2 0x1EB JUMP JUMPDEST JUMPDEST PUSH1 0x0 PUSH2 0xDE DUP7 DUP3 DUP8 ADD PUSH2 0xA2 JUMP JUMPDEST SWAP4 POP POP PUSH1 0x20 PUSH2 0xEF DUP7 DUP3 DUP8 ADD PUSH2 0xA2 JUMP JUMPDEST SWAP3 POP POP PUSH1 0x40 PUSH2 0x100 DUP7 DUP3 DUP8 ADD PUSH2 0xA2 JUMP JUMPDEST SWAP2 POP POP SWAP3 POP SWAP3 POP SWAP3 JUMP JUMPDEST PUSH2 0x113 DUP2 PUSH2 0x177 JUMP JUMPDEST DUP3 MSTORE POP POP JUMP JUMPDEST PUSH2 0x12A PUSH2 0x125 DUP3 PUSH2 0x177 JUMP JUMPDEST PUSH2 0x181 JUMP JUMPDEST DUP3 MSTORE POP POP JUMP JUMPDEST PUSH1 0x0 PUSH2 0x13C DUP3 DUP6 PUSH2 0x119 JUMP JUMPDEST PUSH1 0x20 DUP3 ADD SWAP2 POP PUSH2 0x14C DUP3 DUP5 PUSH2 0x119 JUMP JUMPDEST PUSH1 0x20 DUP3 ADD SWAP2 POP DUP2 SWAP1 POP SWAP4 SWAP3 POP POP POP JUMP JUMPDEST PUSH1 0x0 PUSH1 0x20 DUP3 ADD SWAP1 POP PUSH2 0x171 PUSH1 0x0 DUP4 ADD DUP5 PUSH2 0x10A JUMP JUMPDEST SWAP3 SWAP2 POP POP JUMP JUMPDEST PUSH1 0x0 DUP2 SWAP1 POP SWAP2 SWAP1 POP JUMP JUMPDEST PUSH1 0x0 DUP2 SWAP1 POP SWAP2 SWAP1 POP JUMP JUMPDEST PUSH1 0x0 PUSH2 0x196 DUP3 PUSH2 0x177 JUMP JUMPDEST SWAP2 POP PUSH2 0x1A1 DUP4 PUSH2 0x177 JUMP JUMPDEST SWAP3 POP DUP3 PUSH2 0x1B1 JUMPI PUSH2 0x1B0 PUSH2 0x1BC JUMP JUMPDEST JUMPDEST DUP3 DUP3 MOD SWAP1 POP SWAP3 SWAP2 POP POP JUMP JUMPDEST PUSH32 0x4E487B7100000000000000000000000000000000000000000000000000000000 PUSH1 0x0 MSTORE PUSH1 0x12 PUSH1 0x4 MSTORE PUSH1 0x24 PUSH1 0x0 REVERT JUMPDEST PUSH1 0x0 DUP1 REVERT JUMPDEST PUSH2 0x1F9 DUP2 PUSH2 0x177 JUMP JUMPDEST DUP2 EQ PUSH2 0x204 JUMPI PUSH1 0x0 DUP1 REVERT JUMPDEST POP JUMP INVALID LOG2 PUSH5 0x6970667358 0x22 SLT KECCAK256 0xCB CALLVALUE 0xA8 SWAP12 0xD3 SELFDESTRUCT 0xB1 0xFB PUSH29 0xC5CAE5A60722726CAB5DC3C9BC4E3D1DFBA4598A93750B64736F6C6343 STOP ADDMOD SMOD STOP CALLER "
				},
				"gasEstimates": {
					"creation": {
						"codeDepositCost": "114600",
						"executionCost": "159",
						"totalCost": "114759"
					},
					"external": {
						"getRandomNumber(uint256,uint256,uint256)": "infinite"
					}
				},
				"methodIdentifiers": {
					"getRandomNumber(uint256,uint256,uint256)": "4ca7d044"
				}
			},
			"userdoc": {
				"kind": "user",
				"methods": {},
				"version": 1
			}
		}
	}
}