{
	"SVG-MVP_football_ERC1155/contracts/getPlayerSvg.sol": {
		"getPlayerSvg": {
			"abi": [
				{
					"inputs": [
						{
							"internalType": "address",
							"name": "_AndyPelmard",
							"type": "address"
						},
						{
							"internalType": "address",
							"name": "_LiamMillar",
							"type": "address"
						},
						{
							"internalType": "address",
							"name": "_NoahKatterbach",
							"type": "address"
						},
						{
							"internalType": "address",
							"name": "_PajtimKasami",
							"type": "address"
						},
						{
							"internalType": "address",
							"name": "_HeinzLindner",
							"type": "address"
						}
					],
					"stateMutability": "nonpayable",
					"type": "constructor"
				},
				{
					"inputs": [
						{
							"internalType": "uint256",
							"name": "gameplay",
							"type": "uint256"
						},
						{
							"internalType": "uint256",
							"name": "numberOfGames",
							"type": "uint256"
						},
						{
							"internalType": "uint256",
							"name": "goals",
							"type": "uint256"
						},
						{
							"internalType": "string",
							"name": "name",
							"type": "string"
						},
						{
							"internalType": "string",
							"name": "position",
							"type": "string"
						},
						{
							"internalType": "uint256",
							"name": "level",
							"type": "uint256"
						}
					],
					"name": "getSVG",
					"outputs": [
						{
							"internalType": "string",
							"name": "svg",
							"type": "string"
						}
					],
					"stateMutability": "view",
					"type": "function"
				}
			],
			"devdoc": {
				"kind": "dev",
				"methods": {},
				"version": 1
			},
			"evm": {
				"assembly": "    /* \"SVG-MVP_football_ERC1155/contracts/getPlayerSvg.sol\":134:7640  contract getPlayerSvg {... */\n  mstore(0x40, 0x80)\n    /* \"SVG-MVP_football_ERC1155/contracts/getPlayerSvg.sol\":371:974  constructor(address _AndyPelmard, address _LiamMillar, address _NoahKatterbach, address _PajtimKasami, address _HeinzLindner) {... */\n  callvalue\n  dup1\n  iszero\n  tag_1\n  jumpi\n  0x00\n  dup1\n  revert\ntag_1:\n  pop\n  mload(0x40)\n  sub(codesize, bytecodeSize)\n  dup1\n  bytecodeSize\n  dup4\n  codecopy\n  dup2\n  dup2\n  add\n  0x40\n  mstore\n  dup2\n  add\n  swap1\n  tag_2\n  swap2\n  swap1\n  tag_3\n  jump\t// in\ntag_2:\n    /* \"SVG-MVP_football_ERC1155/contracts/getPlayerSvg.sol\":531:543  _AndyPelmard */\n  dup5\n    /* \"SVG-MVP_football_ERC1155/contracts/getPlayerSvg.sol\":505:516  andyPelmard */\n  0x00\n  dup1\n    /* \"SVG-MVP_football_ERC1155/contracts/getPlayerSvg.sol\":505:544  andyPelmard = AndyPelmard(_AndyPelmard) */\n  0x0100\n  exp\n  dup2\n  sload\n  dup2\n  0xffffffffffffffffffffffffffffffffffffffff\n  mul\n  not\n  and\n  swap1\n  dup4\n  0xffffffffffffffffffffffffffffffffffffffff\n  and\n  mul\n  or\n  swap1\n  sstore\n  pop\n    /* \"SVG-MVP_football_ERC1155/contracts/getPlayerSvg.sol\":621:632  _LiamMillar */\n  dup4\n    /* \"SVG-MVP_football_ERC1155/contracts/getPlayerSvg.sol\":597:607  liamMillar */\n  0x01\n  0x00\n    /* \"SVG-MVP_football_ERC1155/contracts/getPlayerSvg.sol\":597:633  liamMillar = LiamMillar(_LiamMillar) */\n  0x0100\n  exp\n  dup2\n  sload\n  dup2\n  0xffffffffffffffffffffffffffffffffffffffff\n  mul\n  not\n  and\n  swap1\n  dup4\n  0xffffffffffffffffffffffffffffffffffffffff\n  and\n  mul\n  or\n  swap1\n  sstore\n  pop\n    /* \"SVG-MVP_football_ERC1155/contracts/getPlayerSvg.sol\":718:733  _NoahKatterbach */\n  dup3\n    /* \"SVG-MVP_football_ERC1155/contracts/getPlayerSvg.sol\":686:700  noahKatterbach */\n  0x02\n  0x00\n    /* \"SVG-MVP_football_ERC1155/contracts/getPlayerSvg.sol\":686:734  noahKatterbach = NoahKatterbach(_NoahKatterbach) */\n  0x0100\n  exp\n  dup2\n  sload\n  dup2\n  0xffffffffffffffffffffffffffffffffffffffff\n  mul\n  not\n  and\n  swap1\n  dup4\n  0xffffffffffffffffffffffffffffffffffffffff\n  and\n  mul\n  or\n  swap1\n  sstore\n  pop\n    /* \"SVG-MVP_football_ERC1155/contracts/getPlayerSvg.sol\":815:828  _PajtimKasami */\n  dup2\n    /* \"SVG-MVP_football_ERC1155/contracts/getPlayerSvg.sol\":787:799  pajtimKasami */\n  0x03\n  0x00\n    /* \"SVG-MVP_football_ERC1155/contracts/getPlayerSvg.sol\":787:829  pajtimKasami = PajtimKasami(_PajtimKasami) */\n  0x0100\n  exp\n  dup2\n  sload\n  dup2\n  0xffffffffffffffffffffffffffffffffffffffff\n  mul\n  not\n  and\n  swap1\n  dup4\n  0xffffffffffffffffffffffffffffffffffffffff\n  and\n  mul\n  or\n  swap1\n  sstore\n  pop\n    /* \"SVG-MVP_football_ERC1155/contracts/getPlayerSvg.sol\":910:923  _HeinzLindner */\n  dup1\n    /* \"SVG-MVP_football_ERC1155/contracts/getPlayerSvg.sol\":882:894  heinzLindner */\n  0x04\n  0x00\n    /* \"SVG-MVP_football_ERC1155/contracts/getPlayerSvg.sol\":882:924  heinzLindner = HeinzLindner(_HeinzLindner) */\n  0x0100\n  exp\n  dup2\n  sload\n  dup2\n  0xffffffffffffffffffffffffffffffffffffffff\n  mul\n  not\n  and\n  swap1\n  dup4\n  0xffffffffffffffffffffffffffffffffffffffff\n  and\n  mul\n  or\n  swap1\n  sstore\n  pop\n    /* \"SVG-MVP_football_ERC1155/contracts/getPlayerSvg.sol\":371:974  constructor(address _AndyPelmard, address _LiamMillar, address _NoahKatterbach, address _PajtimKasami, address _HeinzLindner) {... */\n  pop\n  pop\n  pop\n  pop\n  pop\n    /* \"SVG-MVP_football_ERC1155/contracts/getPlayerSvg.sol\":134:7640  contract getPlayerSvg {... */\n  jump(tag_6)\n    /* \"#utility.yul\":7:150   */\ntag_8:\n    /* \"#utility.yul\":64:69   */\n  0x00\n    /* \"#utility.yul\":95:101   */\n  dup2\n    /* \"#utility.yul\":89:102   */\n  mload\n    /* \"#utility.yul\":80:102   */\n  swap1\n  pop\n    /* \"#utility.yul\":111:144   */\n  tag_10\n    /* \"#utility.yul\":138:143   */\n  dup2\n    /* \"#utility.yul\":111:144   */\n  tag_11\n  jump\t// in\ntag_10:\n    /* \"#utility.yul\":7:150   */\n  swap3\n  swap2\n  pop\n  pop\n  jump\t// out\n    /* \"#utility.yul\":156:1133   */\ntag_3:\n    /* \"#utility.yul\":262:268   */\n  0x00\n    /* \"#utility.yul\":270:276   */\n  dup1\n    /* \"#utility.yul\":278:284   */\n  0x00\n    /* \"#utility.yul\":286:292   */\n  dup1\n    /* \"#utility.yul\":294:300   */\n  0x00\n    /* \"#utility.yul\":343:346   */\n  0xa0\n    /* \"#utility.yul\":331:340   */\n  dup7\n    /* \"#utility.yul\":322:329   */\n  dup9\n    /* \"#utility.yul\":318:341   */\n  sub\n    /* \"#utility.yul\":314:347   */\n  slt\n    /* \"#utility.yul\":311:431   */\n  iszero\n  tag_13\n  jumpi\n    /* \"#utility.yul\":350:429   */\n  tag_14\n  tag_15\n  jump\t// in\ntag_14:\n    /* \"#utility.yul\":311:431   */\ntag_13:\n    /* \"#utility.yul\":470:471   */\n  0x00\n    /* \"#utility.yul\":495:559   */\n  tag_16\n    /* \"#utility.yul\":551:558   */\n  dup9\n    /* \"#utility.yul\":542:548   */\n  dup3\n    /* \"#utility.yul\":531:540   */\n  dup10\n    /* \"#utility.yul\":527:549   */\n  add\n    /* \"#utility.yul\":495:559   */\n  tag_8\n  jump\t// in\ntag_16:\n    /* \"#utility.yul\":485:559   */\n  swap6\n  pop\n    /* \"#utility.yul\":441:569   */\n  pop\n    /* \"#utility.yul\":608:610   */\n  0x20\n    /* \"#utility.yul\":634:698   */\n  tag_17\n    /* \"#utility.yul\":690:697   */\n  dup9\n    /* \"#utility.yul\":681:687   */\n  dup3\n    /* \"#utility.yul\":670:679   */\n  dup10\n    /* \"#utility.yul\":666:688   */\n  add\n    /* \"#utility.yul\":634:698   */\n  tag_8\n  jump\t// in\ntag_17:\n    /* \"#utility.yul\":624:698   */\n  swap5\n  pop\n    /* \"#utility.yul\":579:708   */\n  pop\n    /* \"#utility.yul\":747:749   */\n  0x40\n    /* \"#utility.yul\":773:837   */\n  tag_18\n    /* \"#utility.yul\":829:836   */\n  dup9\n    /* \"#utility.yul\":820:826   */\n  dup3\n    /* \"#utility.yul\":809:818   */\n  dup10\n    /* \"#utility.yul\":805:827   */\n  add\n    /* \"#utility.yul\":773:837   */\n  tag_8\n  jump\t// in\ntag_18:\n    /* \"#utility.yul\":763:837   */\n  swap4\n  pop\n    /* \"#utility.yul\":718:847   */\n  pop\n    /* \"#utility.yul\":886:888   */\n  0x60\n    /* \"#utility.yul\":912:976   */\n  tag_19\n    /* \"#utility.yul\":968:975   */\n  dup9\n    /* \"#utility.yul\":959:965   */\n  dup3\n    /* \"#utility.yul\":948:957   */\n  dup10\n    /* \"#utility.yul\":944:966   */\n  add\n    /* \"#utility.yul\":912:976   */\n  tag_8\n  jump\t// in\ntag_19:\n    /* \"#utility.yul\":902:976   */\n  swap3\n  pop\n    /* \"#utility.yul\":857:986   */\n  pop\n    /* \"#utility.yul\":1025:1028   */\n  0x80\n    /* \"#utility.yul\":1052:1116   */\n  tag_20\n    /* \"#utility.yul\":1108:1115   */\n  dup9\n    /* \"#utility.yul\":1099:1105   */\n  dup3\n    /* \"#utility.yul\":1088:1097   */\n  dup10\n    /* \"#utility.yul\":1084:1106   */\n  add\n    /* \"#utility.yul\":1052:1116   */\n  tag_8\n  jump\t// in\ntag_20:\n    /* \"#utility.yul\":1042:1116   */\n  swap2\n  pop\n    /* \"#utility.yul\":996:1126   */\n  pop\n    /* \"#utility.yul\":156:1133   */\n  swap3\n  swap6\n  pop\n  swap3\n  swap6\n  swap1\n  swap4\n  pop\n  jump\t// out\n    /* \"#utility.yul\":1220:1316   */\ntag_23:\n    /* \"#utility.yul\":1257:1264   */\n  0x00\n    /* \"#utility.yul\":1286:1310   */\n  tag_25\n    /* \"#utility.yul\":1304:1309   */\n  dup3\n    /* \"#utility.yul\":1286:1310   */\n  tag_26\n  jump\t// in\ntag_25:\n    /* \"#utility.yul\":1275:1310   */\n  swap1\n  pop\n    /* \"#utility.yul\":1220:1316   */\n  swap2\n  swap1\n  pop\n  jump\t// out\n    /* \"#utility.yul\":1322:1448   */\ntag_26:\n    /* \"#utility.yul\":1359:1366   */\n  0x00\n    /* \"#utility.yul\":1399:1441   */\n  0xffffffffffffffffffffffffffffffffffffffff\n    /* \"#utility.yul\":1392:1397   */\n  dup3\n    /* \"#utility.yul\":1388:1442   */\n  and\n    /* \"#utility.yul\":1377:1442   */\n  swap1\n  pop\n    /* \"#utility.yul\":1322:1448   */\n  swap2\n  swap1\n  pop\n  jump\t// out\n    /* \"#utility.yul\":1577:1694   */\ntag_15:\n    /* \"#utility.yul\":1686:1687   */\n  0x00\n    /* \"#utility.yul\":1683:1684   */\n  dup1\n    /* \"#utility.yul\":1676:1688   */\n  revert\n    /* \"#utility.yul\":1700:1822   */\ntag_11:\n    /* \"#utility.yul\":1773:1797   */\n  tag_32\n    /* \"#utility.yul\":1791:1796   */\n  dup2\n    /* \"#utility.yul\":1773:1797   */\n  tag_23\n  jump\t// in\ntag_32:\n    /* \"#utility.yul\":1766:1771   */\n  dup2\n    /* \"#utility.yul\":1763:1798   */\n  eq\n    /* \"#utility.yul\":1753:1816   */\n  tag_33\n  jumpi\n    /* \"#utility.yul\":1812:1813   */\n  0x00\n    /* \"#utility.yul\":1809:1810   */\n  dup1\n    /* \"#utility.yul\":1802:1814   */\n  revert\n    /* \"#utility.yul\":1753:1816   */\ntag_33:\n    /* \"#utility.yul\":1700:1822   */\n  pop\n  jump\t// out\n    /* \"SVG-MVP_football_ERC1155/contracts/getPlayerSvg.sol\":134:7640  contract getPlayerSvg {... */\ntag_6:\n  dataSize(sub_0)\n  dup1\n  dataOffset(sub_0)\n  0x00\n  codecopy\n  0x00\n  return\nstop\n\nsub_0: assembly {\n        /* \"SVG-MVP_football_ERC1155/contracts/getPlayerSvg.sol\":134:7640  contract getPlayerSvg {... */\n      mstore(0x40, 0x80)\n      callvalue\n      dup1\n      iszero\n      tag_1\n      jumpi\n      0x00\n      dup1\n      revert\n    tag_1:\n      pop\n      jumpi(tag_2, lt(calldatasize, 0x04))\n      shr(0xe0, calldataload(0x00))\n      dup1\n      0xc7370296\n      eq\n      tag_3\n      jumpi\n    tag_2:\n      0x00\n      dup1\n      revert\n        /* \"SVG-MVP_football_ERC1155/contracts/getPlayerSvg.sol\":980:6753  function getSVG(uint gameplay, uint numberOfGames, uint goals, string memory name, string memory position, uint level) external view  returns (string memory svg) {... */\n    tag_3:\n      tag_4\n      0x04\n      dup1\n      calldatasize\n      sub\n      dup2\n      add\n      swap1\n      tag_5\n      swap2\n      swap1\n      tag_6\n      jump\t// in\n    tag_5:\n      tag_7\n      jump\t// in\n    tag_4:\n      mload(0x40)\n      tag_8\n      swap2\n      swap1\n      tag_9\n      jump\t// in\n    tag_8:\n      mload(0x40)\n      dup1\n      swap2\n      sub\n      swap1\n      return\n    tag_7:\n        /* \"SVG-MVP_football_ERC1155/contracts/getPlayerSvg.sol\":1123:1140  string memory svg */\n      0x60\n        /* \"SVG-MVP_football_ERC1155/contracts/getPlayerSvg.sol\":1149:1235  svg = '<svg width=\"390\" height=\"435\" fill=\"green\" xmlns=\"http://www.w3.org/2000/svg\">' */\n      mload(0x40)\n      dup1\n      0x80\n      add\n      0x40\n      mstore\n      dup1\n      0x4e\n      dup2\n      mstore\n      0x20\n      add\n      data_13ee12525b78d1800c98700a3c7bb02c6ed5e8636ea4bf89bace0c534940e1ba\n      0x4e\n      swap2\n      codecopy\n      swap1\n      pop\n        /* \"SVG-MVP_football_ERC1155/contracts/getPlayerSvg.sol\":1271:1274  svg */\n      dup1\n        /* \"SVG-MVP_football_ERC1155/contracts/getPlayerSvg.sol\":1254:1511  abi.encodePacked(svg,... */\n      add(0x20, mload(0x40))\n      tag_11\n      swap2\n      swap1\n      tag_12\n      jump\t// in\n    tag_11:\n      mload(0x40)\n      0x20\n      dup2\n      dup4\n      sub\n      sub\n      dup2\n      mstore\n      swap1\n      0x40\n      mstore\n        /* \"SVG-MVP_football_ERC1155/contracts/getPlayerSvg.sol\":1241:1512  svg = string(abi.encodePacked(svg,... */\n      swap1\n      pop\n        /* \"SVG-MVP_football_ERC1155/contracts/getPlayerSvg.sol\":1548:1551  svg */\n      dup1\n        /* \"SVG-MVP_football_ERC1155/contracts/getPlayerSvg.sol\":1531:1614  abi.encodePacked(svg, '<rect width=\"100%\" height=\"100%\" fill=\"', \"#e40227\" ,'\" />') */\n      add(0x20, mload(0x40))\n      tag_13\n      swap2\n      swap1\n      tag_14\n      jump\t// in\n    tag_13:\n      mload(0x40)\n      0x20\n      dup2\n      dup4\n      sub\n      sub\n      dup2\n      mstore\n      swap1\n      0x40\n      mstore\n        /* \"SVG-MVP_football_ERC1155/contracts/getPlayerSvg.sol\":1518:1615  svg = string(abi.encodePacked(svg, '<rect width=\"100%\" height=\"100%\" fill=\"', \"#e40227\" ,'\" />')) */\n      swap1\n      pop\n        /* \"SVG-MVP_football_ERC1155/contracts/getPlayerSvg.sol\":1666:1667  0 */\n      0x00\n        /* \"SVG-MVP_football_ERC1155/contracts/getPlayerSvg.sol\":1660:1665  level */\n      dup3\n        /* \"SVG-MVP_football_ERC1155/contracts/getPlayerSvg.sol\":1660:1667  level>0 */\n      gt\n        /* \"SVG-MVP_football_ERC1155/contracts/getPlayerSvg.sol\":1656:6047  if (level>0) {... */\n      iszero\n      tag_15\n      jumpi\n        /* \"SVG-MVP_football_ERC1155/contracts/getPlayerSvg.sol\":2029:2032  svg */\n      dup1\n        /* \"SVG-MVP_football_ERC1155/contracts/getPlayerSvg.sol\":2012:3111  abi.encodePacked(svg, '<path style=\"fill:#9c5221\"  d=\"m -3.2016949e-6,1159 c 2.1344633e-6,0 1.0672316e-6,0 0,0 z M 0.1268068,289.75 c -0.08453787,579.5 -0.04226893,289.75 0,0 z m 207.1905932,4.52111 34.8174,-25.34859 34.429,25.03754 c 18.936,13.77065 34.9931,25.15058 35.6826,25.28874 0.6895,0.13816 1.1307,-0.49554 0.9806,-1.40821 -0.1502,-0.91268 -6.1101,-19.57424 -13.2442,-41.47013 -10.1878,-31.26816 -12.7041,-40.05127 -11.727,-40.93175 0.6843,-0.61657 17.14983,-11.79288 35.7009,-26.02987 L 358.4134,184.5 314.0711,184 269.7287,183.5 256.4878,142.70675 c -4.72603,-13.49006 -10.17035,-29.31454 -14.43246,-42.32564 -0.265,0.26498 -6.90204,19.41565 -14.09254,41.61917 -7.1905,22.20352 -13.3003,40.73671 -13.5772,41.18488 C 214.1086,183.63332 194.3335,184 170.441,184 c -23.89257,0 -43.42888,0.3375 -43.41405,0.75 0.0148,0.4125 15.76483,12.1502 35.00005,26.08379 19.2351,13.93359 34.9725,25.63359 34.972,26 -6e-4,0.36642 -6.0752,19.34121 -13.499,42.16621 -7.4239,22.825 -13.4984,41.63906 -13.499,41.80902 0,0.58693 2.63612,-1.28915 37.3164,-26.53791 z\" transform=\"translate(300,0) scale(0.2)\"/>') */\n      add(0x20, mload(0x40))\n      tag_16\n      swap2\n      swap1\n      tag_17\n      jump\t// in\n    tag_16:\n      mload(0x40)\n      0x20\n      dup2\n      dup4\n      sub\n      sub\n      dup2\n      mstore\n      swap1\n      0x40\n      mstore\n        /* \"SVG-MVP_football_ERC1155/contracts/getPlayerSvg.sol\":1999:3112  svg = string(abi.encodePacked(svg, '<path style=\"fill:#9c5221\"  d=\"m -3.2016949e-6,1159 c 2.1344633e-6,0 1.0672316e-6,0 0,0 z M 0.1268068,289.75 c -0.08453787,579.5 -0.04226893,289.75 0,0 z m 207.1905932,4.52111 34.8174,-25.34859 34.429,25.03754 c 18.936,13.77065 34.9931,25.15058 35.6826,25.28874 0.6895,0.13816 1.1307,-0.49554 0.9806,-1.40821 -0.1502,-0.91268 -6.1101,-19.57424 -13.2442,-41.47013 -10.1878,-31.26816 -12.7041,-40.05127 -11.727,-40.93175 0.6843,-0.61657 17.14983,-11.79288 35.7009,-26.02987 L 358.4134,184.5 314.0711,184 269.7287,183.5 256.4878,142.70675 c -4.72603,-13.49006 -10.17035,-29.31454 -14.43246,-42.32564 -0.265,0.26498 -6.90204,19.41565 -14.09254,41.61917 -7.1905,22.20352 -13.3003,40.73671 -13.5772,41.18488 C 214.1086,183.63332 194.3335,184 170.441,184 c -23.89257,0 -43.42888,0.3375 -43.41405,0.75 0.0148,0.4125 15.76483,12.1502 35.00005,26.08379 19.2351,13.93359 34.9725,25.63359 34.972,26 -6e-4,0.36642 -6.0752,19.34121 -13.499,42.16621 -7.4239,22.825 -13.4984,41.63906 -13.499,41.80902 0,0.58693 2.63612,-1.28915 37.3164,-26.53791 z\" transform=\"translate(300,0) scale(0.2)\"/>')) */\n      swap1\n      pop\n        /* \"SVG-MVP_football_ERC1155/contracts/getPlayerSvg.sol\":3128:3129  1 */\n      0x01\n        /* \"SVG-MVP_football_ERC1155/contracts/getPlayerSvg.sol\":3122:3127  level */\n      dup3\n        /* \"SVG-MVP_football_ERC1155/contracts/getPlayerSvg.sol\":3122:3129  level>1 */\n      gt\n        /* \"SVG-MVP_football_ERC1155/contracts/getPlayerSvg.sol\":3118:6046  if (level>1) {... */\n      iszero\n      tag_18\n      jumpi\n        /* \"SVG-MVP_football_ERC1155/contracts/getPlayerSvg.sol\":3491:3494  svg */\n      dup1\n        /* \"SVG-MVP_football_ERC1155/contracts/getPlayerSvg.sol\":3474:4574  abi.encodePacked(svg, '<path style=\"fill:#b2b9bc\"  d=\"m -3.2016949e-6,1159 c 2.1344633e-6,0 1.0672316e-6,0 0,0 z M 0.1268068,289.75 c -0.08453787,579.5 -0.04226893,289.75 0,0 z m 207.1905932,4.52111 34.8174,-25.34859 34.429,25.03754 c 18.936,13.77065 34.9931,25.15058 35.6826,25.28874 0.6895,0.13816 1.1307,-0.49554 0.9806,-1.40821 -0.1502,-0.91268 -6.1101,-19.57424 -13.2442,-41.47013 -10.1878,-31.26816 -12.7041,-40.05127 -11.727,-40.93175 0.6843,-0.61657 17.14983,-11.79288 35.7009,-26.02987 L 358.4134,184.5 314.0711,184 269.7287,183.5 256.4878,142.70675 c -4.72603,-13.49006 -10.17035,-29.31454 -14.43246,-42.32564 -0.265,0.26498 -6.90204,19.41565 -14.09254,41.61917 -7.1905,22.20352 -13.3003,40.73671 -13.5772,41.18488 C 214.1086,183.63332 194.3335,184 170.441,184 c -23.89257,0 -43.42888,0.3375 -43.41405,0.75 0.0148,0.4125 15.76483,12.1502 35.00005,26.08379 19.2351,13.93359 34.9725,25.63359 34.972,26 -6e-4,0.36642 -6.0752,19.34121 -13.499,42.16621 -7.4239,22.825 -13.4984,41.63906 -13.499,41.80902 0,0.58693 2.63612,-1.28915 37.3164,-26.53791 z\" transform=\"translate(300,60) scale(0.2)\"/>') */\n      add(0x20, mload(0x40))\n      tag_19\n      swap2\n      swap1\n      tag_20\n      jump\t// in\n    tag_19:\n      mload(0x40)\n      0x20\n      dup2\n      dup4\n      sub\n      sub\n      dup2\n      mstore\n      swap1\n      0x40\n      mstore\n        /* \"SVG-MVP_football_ERC1155/contracts/getPlayerSvg.sol\":3461:4575  svg = string(abi.encodePacked(svg, '<path style=\"fill:#b2b9bc\"  d=\"m -3.2016949e-6,1159 c 2.1344633e-6,0 1.0672316e-6,0 0,0 z M 0.1268068,289.75 c -0.08453787,579.5 -0.04226893,289.75 0,0 z m 207.1905932,4.52111 34.8174,-25.34859 34.429,25.03754 c 18.936,13.77065 34.9931,25.15058 35.6826,25.28874 0.6895,0.13816 1.1307,-0.49554 0.9806,-1.40821 -0.1502,-0.91268 -6.1101,-19.57424 -13.2442,-41.47013 -10.1878,-31.26816 -12.7041,-40.05127 -11.727,-40.93175 0.6843,-0.61657 17.14983,-11.79288 35.7009,-26.02987 L 358.4134,184.5 314.0711,184 269.7287,183.5 256.4878,142.70675 c -4.72603,-13.49006 -10.17035,-29.31454 -14.43246,-42.32564 -0.265,0.26498 -6.90204,19.41565 -14.09254,41.61917 -7.1905,22.20352 -13.3003,40.73671 -13.5772,41.18488 C 214.1086,183.63332 194.3335,184 170.441,184 c -23.89257,0 -43.42888,0.3375 -43.41405,0.75 0.0148,0.4125 15.76483,12.1502 35.00005,26.08379 19.2351,13.93359 34.9725,25.63359 34.972,26 -6e-4,0.36642 -6.0752,19.34121 -13.499,42.16621 -7.4239,22.825 -13.4984,41.63906 -13.499,41.80902 0,0.58693 2.63612,-1.28915 37.3164,-26.53791 z\" transform=\"translate(300,60) scale(0.2)\"/>')) */\n      swap1\n      pop\n        /* \"SVG-MVP_football_ERC1155/contracts/getPlayerSvg.sol\":4591:4592  2 */\n      0x02\n        /* \"SVG-MVP_football_ERC1155/contracts/getPlayerSvg.sol\":4585:4590  level */\n      dup3\n        /* \"SVG-MVP_football_ERC1155/contracts/getPlayerSvg.sol\":4585:4592  level>2 */\n      gt\n        /* \"SVG-MVP_football_ERC1155/contracts/getPlayerSvg.sol\":4581:6045  if (level>2) {... */\n      iszero\n      tag_21\n      jumpi\n        /* \"SVG-MVP_football_ERC1155/contracts/getPlayerSvg.sol\":4953:4956  svg */\n      dup1\n        /* \"SVG-MVP_football_ERC1155/contracts/getPlayerSvg.sol\":4936:6037  abi.encodePacked(svg, '<path style=\"fill:#ffe449\"  d=\"m -3.2016949e-6,1159 c 2.1344633e-6,0 1.0672316e-6,0 0,0 z M 0.1268068,289.75 c -0.08453787,579.5 -0.04226893,289.75 0,0 z m 207.1905932,4.52111 34.8174,-25.34859 34.429,25.03754 c 18.936,13.77065 34.9931,25.15058 35.6826,25.28874 0.6895,0.13816 1.1307,-0.49554 0.9806,-1.40821 -0.1502,-0.91268 -6.1101,-19.57424 -13.2442,-41.47013 -10.1878,-31.26816 -12.7041,-40.05127 -11.727,-40.93175 0.6843,-0.61657 17.14983,-11.79288 35.7009,-26.02987 L 358.4134,184.5 314.0711,184 269.7287,183.5 256.4878,142.70675 c -4.72603,-13.49006 -10.17035,-29.31454 -14.43246,-42.32564 -0.265,0.26498 -6.90204,19.41565 -14.09254,41.61917 -7.1905,22.20352 -13.3003,40.73671 -13.5772,41.18488 C 214.1086,183.63332 194.3335,184 170.441,184 c -23.89257,0 -43.42888,0.3375 -43.41405,0.75 0.0148,0.4125 15.76483,12.1502 35.00005,26.08379 19.2351,13.93359 34.9725,25.63359 34.972,26 -6e-4,0.36642 -6.0752,19.34121 -13.499,42.16621 -7.4239,22.825 -13.4984,41.63906 -13.499,41.80902 0,0.58693 2.63612,-1.28915 37.3164,-26.53791 z\" transform=\"translate(300,120) scale(0.2)\"/>') */\n      add(0x20, mload(0x40))\n      tag_22\n      swap2\n      swap1\n      tag_23\n      jump\t// in\n    tag_22:\n      mload(0x40)\n      0x20\n      dup2\n      dup4\n      sub\n      sub\n      dup2\n      mstore\n      swap1\n      0x40\n      mstore\n        /* \"SVG-MVP_football_ERC1155/contracts/getPlayerSvg.sol\":4923:6038  svg = string(abi.encodePacked(svg, '<path style=\"fill:#ffe449\"  d=\"m -3.2016949e-6,1159 c 2.1344633e-6,0 1.0672316e-6,0 0,0 z M 0.1268068,289.75 c -0.08453787,579.5 -0.04226893,289.75 0,0 z m 207.1905932,4.52111 34.8174,-25.34859 34.429,25.03754 c 18.936,13.77065 34.9931,25.15058 35.6826,25.28874 0.6895,0.13816 1.1307,-0.49554 0.9806,-1.40821 -0.1502,-0.91268 -6.1101,-19.57424 -13.2442,-41.47013 -10.1878,-31.26816 -12.7041,-40.05127 -11.727,-40.93175 0.6843,-0.61657 17.14983,-11.79288 35.7009,-26.02987 L 358.4134,184.5 314.0711,184 269.7287,183.5 256.4878,142.70675 c -4.72603,-13.49006 -10.17035,-29.31454 -14.43246,-42.32564 -0.265,0.26498 -6.90204,19.41565 -14.09254,41.61917 -7.1905,22.20352 -13.3003,40.73671 -13.5772,41.18488 C 214.1086,183.63332 194.3335,184 170.441,184 c -23.89257,0 -43.42888,0.3375 -43.41405,0.75 0.0148,0.4125 15.76483,12.1502 35.00005,26.08379 19.2351,13.93359 34.9725,25.63359 34.972,26 -6e-4,0.36642 -6.0752,19.34121 -13.499,42.16621 -7.4239,22.825 -13.4984,41.63906 -13.499,41.80902 0,0.58693 2.63612,-1.28915 37.3164,-26.53791 z\" transform=\"translate(300,120) scale(0.2)\"/>')) */\n      swap1\n      pop\n        /* \"SVG-MVP_football_ERC1155/contracts/getPlayerSvg.sol\":4581:6045  if (level>2) {... */\n    tag_21:\n        /* \"SVG-MVP_football_ERC1155/contracts/getPlayerSvg.sol\":3118:6046  if (level>1) {... */\n    tag_18:\n        /* \"SVG-MVP_football_ERC1155/contracts/getPlayerSvg.sol\":1656:6047  if (level>0) {... */\n    tag_15:\n        /* \"SVG-MVP_football_ERC1155/contracts/getPlayerSvg.sol\":6082:6085  svg */\n      dup1\n        /* \"SVG-MVP_football_ERC1155/contracts/getPlayerSvg.sol\":6125:6129  name */\n      dup5\n        /* \"SVG-MVP_football_ERC1155/contracts/getPlayerSvg.sol\":6065:6141  abi.encodePacked(svg, '<text x=\"80\" y=\"40\" class=\"title\">', name ,'</text>') */\n      add(0x20, mload(0x40))\n      tag_24\n      swap3\n      swap2\n      swap1\n      tag_25\n      jump\t// in\n    tag_24:\n      mload(0x40)\n      0x20\n      dup2\n      dup4\n      sub\n      sub\n      dup2\n      mstore\n      swap1\n      0x40\n      mstore\n        /* \"SVG-MVP_football_ERC1155/contracts/getPlayerSvg.sol\":6052:6142  svg = string(abi.encodePacked(svg, '<text x=\"80\" y=\"40\" class=\"title\">', name ,'</text>')) */\n      swap1\n      pop\n        /* \"SVG-MVP_football_ERC1155/contracts/getPlayerSvg.sol\":6178:6181  svg */\n      dup1\n        /* \"SVG-MVP_football_ERC1155/contracts/getPlayerSvg.sol\":6219:6245  Strings.toString(gameplay) */\n      tag_26\n        /* \"SVG-MVP_football_ERC1155/contracts/getPlayerSvg.sol\":6236:6244  gameplay */\n      dup9\n        /* \"SVG-MVP_football_ERC1155/contracts/getPlayerSvg.sol\":6219:6235  Strings.toString */\n      tag_27\n        /* \"SVG-MVP_football_ERC1155/contracts/getPlayerSvg.sol\":6219:6245  Strings.toString(gameplay) */\n      jump\t// in\n    tag_26:\n        /* \"SVG-MVP_football_ERC1155/contracts/getPlayerSvg.sol\":6161:6264  abi.encodePacked(svg, '<text x=\"20\" y=\"320\" >Gameplay: ', Strings.toString(gameplay), 'min', '</text>') */\n      add(0x20, mload(0x40))\n      tag_28\n      swap3\n      swap2\n      swap1\n      tag_29\n      jump\t// in\n    tag_28:\n      mload(0x40)\n      0x20\n      dup2\n      dup4\n      sub\n      sub\n      dup2\n      mstore\n      swap1\n      0x40\n      mstore\n        /* \"SVG-MVP_football_ERC1155/contracts/getPlayerSvg.sol\":6148:6265  svg = string(abi.encodePacked(svg, '<text x=\"20\" y=\"320\" >Gameplay: ', Strings.toString(gameplay), 'min', '</text>')) */\n      swap1\n      pop\n        /* \"SVG-MVP_football_ERC1155/contracts/getPlayerSvg.sol\":6301:6304  svg */\n      dup1\n        /* \"SVG-MVP_football_ERC1155/contracts/getPlayerSvg.sol\":6339:6370  Strings.toString(numberOfGames) */\n      tag_30\n        /* \"SVG-MVP_football_ERC1155/contracts/getPlayerSvg.sol\":6356:6369  numberOfGames */\n      dup8\n        /* \"SVG-MVP_football_ERC1155/contracts/getPlayerSvg.sol\":6339:6355  Strings.toString */\n      tag_27\n        /* \"SVG-MVP_football_ERC1155/contracts/getPlayerSvg.sol\":6339:6370  Strings.toString(numberOfGames) */\n      jump\t// in\n    tag_30:\n        /* \"SVG-MVP_football_ERC1155/contracts/getPlayerSvg.sol\":6284:6381  abi.encodePacked(svg, '<text x=\"20\" y=\"340\" >Games: ', Strings.toString(numberOfGames),'</text>') */\n      add(0x20, mload(0x40))\n      tag_31\n      swap3\n      swap2\n      swap1\n      tag_32\n      jump\t// in\n    tag_31:\n      mload(0x40)\n      0x20\n      dup2\n      dup4\n      sub\n      sub\n      dup2\n      mstore\n      swap1\n      0x40\n      mstore\n        /* \"SVG-MVP_football_ERC1155/contracts/getPlayerSvg.sol\":6271:6382  svg = string(abi.encodePacked(svg, '<text x=\"20\" y=\"340\" >Games: ', Strings.toString(numberOfGames),'</text>')) */\n      swap1\n      pop\n        /* \"SVG-MVP_football_ERC1155/contracts/getPlayerSvg.sol\":6418:6421  svg */\n      dup1\n        /* \"SVG-MVP_football_ERC1155/contracts/getPlayerSvg.sol\":6456:6479  Strings.toString(goals) */\n      tag_33\n        /* \"SVG-MVP_football_ERC1155/contracts/getPlayerSvg.sol\":6473:6478  goals */\n      dup7\n        /* \"SVG-MVP_football_ERC1155/contracts/getPlayerSvg.sol\":6456:6472  Strings.toString */\n      tag_27\n        /* \"SVG-MVP_football_ERC1155/contracts/getPlayerSvg.sol\":6456:6479  Strings.toString(goals) */\n      jump\t// in\n    tag_33:\n        /* \"SVG-MVP_football_ERC1155/contracts/getPlayerSvg.sol\":6401:6491  abi.encodePacked(svg, '<text x=\"20\" y=\"360\" >Goals: ', Strings.toString(goals), '</text>') */\n      add(0x20, mload(0x40))\n      tag_34\n      swap3\n      swap2\n      swap1\n      tag_35\n      jump\t// in\n    tag_34:\n      mload(0x40)\n      0x20\n      dup2\n      dup4\n      sub\n      sub\n      dup2\n      mstore\n      swap1\n      0x40\n      mstore\n        /* \"SVG-MVP_football_ERC1155/contracts/getPlayerSvg.sol\":6388:6492  svg = string(abi.encodePacked(svg, '<text x=\"20\" y=\"360\" >Goals: ', Strings.toString(goals), '</text>')) */\n      swap1\n      pop\n        /* \"SVG-MVP_football_ERC1155/contracts/getPlayerSvg.sol\":6528:6531  svg */\n      dup1\n        /* \"SVG-MVP_football_ERC1155/contracts/getPlayerSvg.sol\":6569:6577  position */\n      dup4\n        /* \"SVG-MVP_football_ERC1155/contracts/getPlayerSvg.sol\":6511:6589  abi.encodePacked(svg, '<text x=\"20\" y=\"380\" >Position: ', position, '</text>') */\n      add(0x20, mload(0x40))\n      tag_36\n      swap3\n      swap2\n      swap1\n      tag_37\n      jump\t// in\n    tag_36:\n      mload(0x40)\n      0x20\n      dup2\n      dup4\n      sub\n      sub\n      dup2\n      mstore\n      swap1\n      0x40\n      mstore\n        /* \"SVG-MVP_football_ERC1155/contracts/getPlayerSvg.sol\":6498:6590  svg = string(abi.encodePacked(svg, '<text x=\"20\" y=\"380\" >Position: ', position, '</text>')) */\n      swap1\n      pop\n        /* \"SVG-MVP_football_ERC1155/contracts/getPlayerSvg.sol\":6733:6736  svg */\n      dup1\n        /* \"SVG-MVP_football_ERC1155/contracts/getPlayerSvg.sol\":6716:6747  abi.encodePacked(svg, '</svg>') */\n      add(0x20, mload(0x40))\n      tag_38\n      swap2\n      swap1\n      tag_39\n      jump\t// in\n    tag_38:\n      mload(0x40)\n      0x20\n      dup2\n      dup4\n      sub\n      sub\n      dup2\n      mstore\n      swap1\n      0x40\n      mstore\n        /* \"SVG-MVP_football_ERC1155/contracts/getPlayerSvg.sol\":6703:6748  svg = string(abi.encodePacked(svg, '</svg>')) */\n      swap1\n      pop\n        /* \"SVG-MVP_football_ERC1155/contracts/getPlayerSvg.sol\":980:6753  function getSVG(uint gameplay, uint numberOfGames, uint goals, string memory name, string memory position, uint level) external view  returns (string memory svg) {... */\n      swap7\n      swap6\n      pop\n      pop\n      pop\n      pop\n      pop\n      pop\n      jump\t// out\n        /* \"@openzeppelin/contracts/utils/Strings.sol\":328:1031  function toString(uint256 value) internal pure returns (string memory) {... */\n    tag_27:\n        /* \"@openzeppelin/contracts/utils/Strings.sol\":384:397  string memory */\n      0x60\n        /* \"@openzeppelin/contracts/utils/Strings.sol\":610:611  0 */\n      0x00\n        /* \"@openzeppelin/contracts/utils/Strings.sol\":601:606  value */\n      dup3\n        /* \"@openzeppelin/contracts/utils/Strings.sol\":601:611  value == 0 */\n      eq\n        /* \"@openzeppelin/contracts/utils/Strings.sol\":597:648  if (value == 0) {... */\n      iszero\n      tag_41\n      jumpi\n        /* \"@openzeppelin/contracts/utils/Strings.sol\":627:637  return \"0\" */\n      mload(0x40)\n      dup1\n      0x40\n      add\n      0x40\n      mstore\n      dup1\n      0x01\n      dup2\n      mstore\n      0x20\n      add\n      0x3000000000000000000000000000000000000000000000000000000000000000\n      dup2\n      mstore\n      pop\n      swap1\n      pop\n      jump(tag_40)\n        /* \"@openzeppelin/contracts/utils/Strings.sol\":597:648  if (value == 0) {... */\n    tag_41:\n        /* \"@openzeppelin/contracts/utils/Strings.sol\":657:669  uint256 temp */\n      0x00\n        /* \"@openzeppelin/contracts/utils/Strings.sol\":672:677  value */\n      dup3\n        /* \"@openzeppelin/contracts/utils/Strings.sol\":657:677  uint256 temp = value */\n      swap1\n      pop\n        /* \"@openzeppelin/contracts/utils/Strings.sol\":687:701  uint256 digits */\n      0x00\n        /* \"@openzeppelin/contracts/utils/Strings.sol\":711:786  while (temp != 0) {... */\n    tag_42:\n        /* \"@openzeppelin/contracts/utils/Strings.sol\":726:727  0 */\n      0x00\n        /* \"@openzeppelin/contracts/utils/Strings.sol\":718:722  temp */\n      dup3\n        /* \"@openzeppelin/contracts/utils/Strings.sol\":718:727  temp != 0 */\n      eq\n        /* \"@openzeppelin/contracts/utils/Strings.sol\":711:786  while (temp != 0) {... */\n      tag_43\n      jumpi\n        /* \"@openzeppelin/contracts/utils/Strings.sol\":743:751  digits++ */\n      dup1\n      dup1\n      tag_44\n      swap1\n      tag_45\n      jump\t// in\n    tag_44:\n      swap2\n      pop\n      pop\n        /* \"@openzeppelin/contracts/utils/Strings.sol\":773:775  10 */\n      0x0a\n        /* \"@openzeppelin/contracts/utils/Strings.sol\":765:775  temp /= 10 */\n      dup3\n      tag_46\n      swap2\n      swap1\n      tag_47\n      jump\t// in\n    tag_46:\n      swap2\n      pop\n        /* \"@openzeppelin/contracts/utils/Strings.sol\":711:786  while (temp != 0) {... */\n      jump(tag_42)\n    tag_43:\n        /* \"@openzeppelin/contracts/utils/Strings.sol\":795:814  bytes memory buffer */\n      0x00\n        /* \"@openzeppelin/contracts/utils/Strings.sol\":827:833  digits */\n      dup2\n        /* \"@openzeppelin/contracts/utils/Strings.sol\":817:834  new bytes(digits) */\n      0xffffffffffffffff\n      dup2\n      gt\n      iszero\n      tag_48\n      jumpi\n      tag_49\n      tag_50\n      jump\t// in\n    tag_49:\n    tag_48:\n      mload(0x40)\n      swap1\n      dup1\n      dup3\n      mstore\n      dup1\n      0x1f\n      add\n      not(0x1f)\n      and\n      0x20\n      add\n      dup3\n      add\n      0x40\n      mstore\n      dup1\n      iszero\n      tag_51\n      jumpi\n      dup2\n      0x20\n      add\n      0x01\n      dup3\n      mul\n      dup1\n      calldatasize\n      dup4\n      calldatacopy\n      dup1\n      dup3\n      add\n      swap2\n      pop\n      pop\n      swap1\n      pop\n    tag_51:\n      pop\n        /* \"@openzeppelin/contracts/utils/Strings.sol\":795:834  bytes memory buffer = new bytes(digits) */\n      swap1\n      pop\n        /* \"@openzeppelin/contracts/utils/Strings.sol\":844:994  while (value != 0) {... */\n    tag_52:\n        /* \"@openzeppelin/contracts/utils/Strings.sol\":860:861  0 */\n      0x00\n        /* \"@openzeppelin/contracts/utils/Strings.sol\":851:856  value */\n      dup6\n        /* \"@openzeppelin/contracts/utils/Strings.sol\":851:861  value != 0 */\n      eq\n        /* \"@openzeppelin/contracts/utils/Strings.sol\":844:994  while (value != 0) {... */\n      tag_53\n      jumpi\n        /* \"@openzeppelin/contracts/utils/Strings.sol\":887:888  1 */\n      0x01\n        /* \"@openzeppelin/contracts/utils/Strings.sol\":877:888  digits -= 1 */\n      dup3\n      tag_54\n      swap2\n      swap1\n      tag_55\n      jump\t// in\n    tag_54:\n      swap2\n      pop\n        /* \"@openzeppelin/contracts/utils/Strings.sol\":953:955  10 */\n      0x0a\n        /* \"@openzeppelin/contracts/utils/Strings.sol\":945:950  value */\n      dup6\n        /* \"@openzeppelin/contracts/utils/Strings.sol\":945:955  value % 10 */\n      tag_56\n      swap2\n      swap1\n      tag_57\n      jump\t// in\n    tag_56:\n        /* \"@openzeppelin/contracts/utils/Strings.sol\":932:934  48 */\n      0x30\n        /* \"@openzeppelin/contracts/utils/Strings.sol\":932:956  48 + uint256(value % 10) */\n      tag_58\n      swap2\n      swap1\n      tag_59\n      jump\t// in\n    tag_58:\n        /* \"@openzeppelin/contracts/utils/Strings.sol\":919:958  bytes1(uint8(48 + uint256(value % 10))) */\n      0xf8\n      shl\n        /* \"@openzeppelin/contracts/utils/Strings.sol\":902:908  buffer */\n      dup2\n        /* \"@openzeppelin/contracts/utils/Strings.sol\":909:915  digits */\n      dup4\n        /* \"@openzeppelin/contracts/utils/Strings.sol\":902:916  buffer[digits] */\n      dup2\n      mload\n      dup2\n      lt\n      tag_60\n      jumpi\n      tag_61\n      tag_62\n      jump\t// in\n    tag_61:\n    tag_60:\n      0x20\n      add\n      add\n        /* \"@openzeppelin/contracts/utils/Strings.sol\":902:958  buffer[digits] = bytes1(uint8(48 + uint256(value % 10))) */\n      swap1\n      not(0xffffffffffffffffffffffffffffffffffffffffffffffffffffffffffffff)\n      and\n      swap1\n      dup2\n      0x00\n      byte\n      swap1\n      mstore8\n      pop\n        /* \"@openzeppelin/contracts/utils/Strings.sol\":981:983  10 */\n      0x0a\n        /* \"@openzeppelin/contracts/utils/Strings.sol\":972:983  value /= 10 */\n      dup6\n      tag_63\n      swap2\n      swap1\n      tag_47\n      jump\t// in\n    tag_63:\n      swap5\n      pop\n        /* \"@openzeppelin/contracts/utils/Strings.sol\":844:994  while (value != 0) {... */\n      jump(tag_52)\n    tag_53:\n        /* \"@openzeppelin/contracts/utils/Strings.sol\":1017:1023  buffer */\n      dup1\n        /* \"@openzeppelin/contracts/utils/Strings.sol\":1003:1024  return string(buffer) */\n      swap4\n      pop\n      pop\n      pop\n      pop\n        /* \"@openzeppelin/contracts/utils/Strings.sol\":328:1031  function toString(uint256 value) internal pure returns (string memory) {... */\n    tag_40:\n      swap2\n      swap1\n      pop\n      jump\t// out\n        /* \"#utility.yul\":7:419   */\n    tag_65:\n        /* \"#utility.yul\":85:90   */\n      0x00\n        /* \"#utility.yul\":110:176   */\n      tag_67\n        /* \"#utility.yul\":126:175   */\n      tag_68\n        /* \"#utility.yul\":168:174   */\n      dup5\n        /* \"#utility.yul\":126:175   */\n      tag_69\n      jump\t// in\n    tag_68:\n        /* \"#utility.yul\":110:176   */\n      tag_70\n      jump\t// in\n    tag_67:\n        /* \"#utility.yul\":101:176   */\n      swap1\n      pop\n        /* \"#utility.yul\":199:205   */\n      dup3\n        /* \"#utility.yul\":192:197   */\n      dup2\n        /* \"#utility.yul\":185:206   */\n      mstore\n        /* \"#utility.yul\":237:241   */\n      0x20\n        /* \"#utility.yul\":230:235   */\n      dup2\n        /* \"#utility.yul\":226:242   */\n      add\n        /* \"#utility.yul\":275:278   */\n      dup5\n        /* \"#utility.yul\":266:272   */\n      dup5\n        /* \"#utility.yul\":261:264   */\n      dup5\n        /* \"#utility.yul\":257:273   */\n      add\n        /* \"#utility.yul\":254:279   */\n      gt\n        /* \"#utility.yul\":251:363   */\n      iszero\n      tag_71\n      jumpi\n        /* \"#utility.yul\":282:361   */\n      tag_72\n      tag_73\n      jump\t// in\n    tag_72:\n        /* \"#utility.yul\":251:363   */\n    tag_71:\n        /* \"#utility.yul\":372:413   */\n      tag_74\n        /* \"#utility.yul\":406:412   */\n      dup5\n        /* \"#utility.yul\":401:404   */\n      dup3\n        /* \"#utility.yul\":396:399   */\n      dup6\n        /* \"#utility.yul\":372:413   */\n      tag_75\n      jump\t// in\n    tag_74:\n        /* \"#utility.yul\":91:419   */\n      pop\n        /* \"#utility.yul\":7:419   */\n      swap4\n      swap3\n      pop\n      pop\n      pop\n      jump\t// out\n        /* \"#utility.yul\":439:779   */\n    tag_76:\n        /* \"#utility.yul\":495:500   */\n      0x00\n        /* \"#utility.yul\":544:547   */\n      dup3\n        /* \"#utility.yul\":537:541   */\n      0x1f\n        /* \"#utility.yul\":529:535   */\n      dup4\n        /* \"#utility.yul\":525:542   */\n      add\n        /* \"#utility.yul\":521:548   */\n      slt\n        /* \"#utility.yul\":511:633   */\n      tag_78\n      jumpi\n        /* \"#utility.yul\":552:631   */\n      tag_79\n      tag_80\n      jump\t// in\n    tag_79:\n        /* \"#utility.yul\":511:633   */\n    tag_78:\n        /* \"#utility.yul\":669:675   */\n      dup2\n        /* \"#utility.yul\":656:676   */\n      calldataload\n        /* \"#utility.yul\":694:773   */\n      tag_81\n        /* \"#utility.yul\":769:772   */\n      dup5\n        /* \"#utility.yul\":761:767   */\n      dup3\n        /* \"#utility.yul\":754:758   */\n      0x20\n        /* \"#utility.yul\":746:752   */\n      dup7\n        /* \"#utility.yul\":742:759   */\n      add\n        /* \"#utility.yul\":694:773   */\n      tag_65\n      jump\t// in\n    tag_81:\n        /* \"#utility.yul\":685:773   */\n      swap2\n      pop\n        /* \"#utility.yul\":501:779   */\n      pop\n        /* \"#utility.yul\":439:779   */\n      swap3\n      swap2\n      pop\n      pop\n      jump\t// out\n        /* \"#utility.yul\":785:924   */\n    tag_82:\n        /* \"#utility.yul\":831:836   */\n      0x00\n        /* \"#utility.yul\":869:875   */\n      dup2\n        /* \"#utility.yul\":856:876   */\n      calldataload\n        /* \"#utility.yul\":847:876   */\n      swap1\n      pop\n        /* \"#utility.yul\":885:918   */\n      tag_84\n        /* \"#utility.yul\":912:917   */\n      dup2\n        /* \"#utility.yul\":885:918   */\n      tag_85\n      jump\t// in\n    tag_84:\n        /* \"#utility.yul\":785:924   */\n      swap3\n      swap2\n      pop\n      pop\n      jump\t// out\n        /* \"#utility.yul\":930:2347   */\n    tag_6:\n        /* \"#utility.yul\":1054:1060   */\n      0x00\n        /* \"#utility.yul\":1062:1068   */\n      dup1\n        /* \"#utility.yul\":1070:1076   */\n      0x00\n        /* \"#utility.yul\":1078:1084   */\n      dup1\n        /* \"#utility.yul\":1086:1092   */\n      0x00\n        /* \"#utility.yul\":1094:1100   */\n      dup1\n        /* \"#utility.yul\":1143:1146   */\n      0xc0\n        /* \"#utility.yul\":1131:1140   */\n      dup8\n        /* \"#utility.yul\":1122:1129   */\n      dup10\n        /* \"#utility.yul\":1118:1141   */\n      sub\n        /* \"#utility.yul\":1114:1147   */\n      slt\n        /* \"#utility.yul\":1111:1231   */\n      iszero\n      tag_87\n      jumpi\n        /* \"#utility.yul\":1150:1229   */\n      tag_88\n      tag_89\n      jump\t// in\n    tag_88:\n        /* \"#utility.yul\":1111:1231   */\n    tag_87:\n        /* \"#utility.yul\":1270:1271   */\n      0x00\n        /* \"#utility.yul\":1295:1348   */\n      tag_90\n        /* \"#utility.yul\":1340:1347   */\n      dup10\n        /* \"#utility.yul\":1331:1337   */\n      dup3\n        /* \"#utility.yul\":1320:1329   */\n      dup11\n        /* \"#utility.yul\":1316:1338   */\n      add\n        /* \"#utility.yul\":1295:1348   */\n      tag_82\n      jump\t// in\n    tag_90:\n        /* \"#utility.yul\":1285:1348   */\n      swap7\n      pop\n        /* \"#utility.yul\":1241:1358   */\n      pop\n        /* \"#utility.yul\":1397:1399   */\n      0x20\n        /* \"#utility.yul\":1423:1476   */\n      tag_91\n        /* \"#utility.yul\":1468:1475   */\n      dup10\n        /* \"#utility.yul\":1459:1465   */\n      dup3\n        /* \"#utility.yul\":1448:1457   */\n      dup11\n        /* \"#utility.yul\":1444:1466   */\n      add\n        /* \"#utility.yul\":1423:1476   */\n      tag_82\n      jump\t// in\n    tag_91:\n        /* \"#utility.yul\":1413:1476   */\n      swap6\n      pop\n        /* \"#utility.yul\":1368:1486   */\n      pop\n        /* \"#utility.yul\":1525:1527   */\n      0x40\n        /* \"#utility.yul\":1551:1604   */\n      tag_92\n        /* \"#utility.yul\":1596:1603   */\n      dup10\n        /* \"#utility.yul\":1587:1593   */\n      dup3\n        /* \"#utility.yul\":1576:1585   */\n      dup11\n        /* \"#utility.yul\":1572:1594   */\n      add\n        /* \"#utility.yul\":1551:1604   */\n      tag_82\n      jump\t// in\n    tag_92:\n        /* \"#utility.yul\":1541:1604   */\n      swap5\n      pop\n        /* \"#utility.yul\":1496:1614   */\n      pop\n        /* \"#utility.yul\":1681:1683   */\n      0x60\n        /* \"#utility.yul\":1670:1679   */\n      dup8\n        /* \"#utility.yul\":1666:1684   */\n      add\n        /* \"#utility.yul\":1653:1685   */\n      calldataload\n        /* \"#utility.yul\":1712:1730   */\n      0xffffffffffffffff\n        /* \"#utility.yul\":1704:1710   */\n      dup2\n        /* \"#utility.yul\":1701:1731   */\n      gt\n        /* \"#utility.yul\":1698:1815   */\n      iszero\n      tag_93\n      jumpi\n        /* \"#utility.yul\":1734:1813   */\n      tag_94\n      tag_95\n      jump\t// in\n    tag_94:\n        /* \"#utility.yul\":1698:1815   */\n    tag_93:\n        /* \"#utility.yul\":1839:1902   */\n      tag_96\n        /* \"#utility.yul\":1894:1901   */\n      dup10\n        /* \"#utility.yul\":1885:1891   */\n      dup3\n        /* \"#utility.yul\":1874:1883   */\n      dup11\n        /* \"#utility.yul\":1870:1892   */\n      add\n        /* \"#utility.yul\":1839:1902   */\n      tag_76\n      jump\t// in\n    tag_96:\n        /* \"#utility.yul\":1829:1902   */\n      swap4\n      pop\n        /* \"#utility.yul\":1624:1912   */\n      pop\n        /* \"#utility.yul\":1979:1982   */\n      0x80\n        /* \"#utility.yul\":1968:1977   */\n      dup8\n        /* \"#utility.yul\":1964:1983   */\n      add\n        /* \"#utility.yul\":1951:1984   */\n      calldataload\n        /* \"#utility.yul\":2011:2029   */\n      0xffffffffffffffff\n        /* \"#utility.yul\":2003:2009   */\n      dup2\n        /* \"#utility.yul\":2000:2030   */\n      gt\n        /* \"#utility.yul\":1997:2114   */\n      iszero\n      tag_97\n      jumpi\n        /* \"#utility.yul\":2033:2112   */\n      tag_98\n      tag_95\n      jump\t// in\n    tag_98:\n        /* \"#utility.yul\":1997:2114   */\n    tag_97:\n        /* \"#utility.yul\":2138:2201   */\n      tag_99\n        /* \"#utility.yul\":2193:2200   */\n      dup10\n        /* \"#utility.yul\":2184:2190   */\n      dup3\n        /* \"#utility.yul\":2173:2182   */\n      dup11\n        /* \"#utility.yul\":2169:2191   */\n      add\n        /* \"#utility.yul\":2138:2201   */\n      tag_76\n      jump\t// in\n    tag_99:\n        /* \"#utility.yul\":2128:2201   */\n      swap3\n      pop\n        /* \"#utility.yul\":1922:2211   */\n      pop\n        /* \"#utility.yul\":2250:2253   */\n      0xa0\n        /* \"#utility.yul\":2277:2330   */\n      tag_100\n        /* \"#utility.yul\":2322:2329   */\n      dup10\n        /* \"#utility.yul\":2313:2319   */\n      dup3\n        /* \"#utility.yul\":2302:2311   */\n      dup11\n        /* \"#utility.yul\":2298:2320   */\n      add\n        /* \"#utility.yul\":2277:2330   */\n      tag_82\n      jump\t// in\n    tag_100:\n        /* \"#utility.yul\":2267:2330   */\n      swap2\n      pop\n        /* \"#utility.yul\":2221:2340   */\n      pop\n        /* \"#utility.yul\":930:2347   */\n      swap3\n      swap6\n      pop\n      swap3\n      swap6\n      pop\n      swap3\n      swap6\n      jump\t// out\n        /* \"#utility.yul\":2353:2717   */\n    tag_101:\n        /* \"#utility.yul\":2441:2444   */\n      0x00\n        /* \"#utility.yul\":2469:2508   */\n      tag_103\n        /* \"#utility.yul\":2502:2507   */\n      dup3\n        /* \"#utility.yul\":2469:2508   */\n      tag_104\n      jump\t// in\n    tag_103:\n        /* \"#utility.yul\":2524:2595   */\n      tag_105\n        /* \"#utility.yul\":2588:2594   */\n      dup2\n        /* \"#utility.yul\":2583:2586   */\n      dup6\n        /* \"#utility.yul\":2524:2595   */\n      tag_106\n      jump\t// in\n    tag_105:\n        /* \"#utility.yul\":2517:2595   */\n      swap4\n      pop\n        /* \"#utility.yul\":2604:2656   */\n      tag_107\n        /* \"#utility.yul\":2649:2655   */\n      dup2\n        /* \"#utility.yul\":2644:2647   */\n      dup6\n        /* \"#utility.yul\":2637:2641   */\n      0x20\n        /* \"#utility.yul\":2630:2635   */\n      dup7\n        /* \"#utility.yul\":2626:2642   */\n      add\n        /* \"#utility.yul\":2604:2656   */\n      tag_108\n      jump\t// in\n    tag_107:\n        /* \"#utility.yul\":2681:2710   */\n      tag_109\n        /* \"#utility.yul\":2703:2709   */\n      dup2\n        /* \"#utility.yul\":2681:2710   */\n      tag_110\n      jump\t// in\n    tag_109:\n        /* \"#utility.yul\":2676:2679   */\n      dup5\n        /* \"#utility.yul\":2672:2711   */\n      add\n        /* \"#utility.yul\":2665:2711   */\n      swap2\n      pop\n        /* \"#utility.yul\":2445:2717   */\n      pop\n        /* \"#utility.yul\":2353:2717   */\n      swap3\n      swap2\n      pop\n      pop\n      jump\t// out\n        /* \"#utility.yul\":2723:3100   */\n    tag_111:\n        /* \"#utility.yul\":2829:2832   */\n      0x00\n        /* \"#utility.yul\":2857:2896   */\n      tag_113\n        /* \"#utility.yul\":2890:2895   */\n      dup3\n        /* \"#utility.yul\":2857:2896   */\n      tag_104\n      jump\t// in\n    tag_113:\n        /* \"#utility.yul\":2912:3001   */\n      tag_114\n        /* \"#utility.yul\":2994:3000   */\n      dup2\n        /* \"#utility.yul\":2989:2992   */\n      dup6\n        /* \"#utility.yul\":2912:3001   */\n      tag_115\n      jump\t// in\n    tag_114:\n        /* \"#utility.yul\":2905:3001   */\n      swap4\n      pop\n        /* \"#utility.yul\":3010:3062   */\n      tag_116\n        /* \"#utility.yul\":3055:3061   */\n      dup2\n        /* \"#utility.yul\":3050:3053   */\n      dup6\n        /* \"#utility.yul\":3043:3047   */\n      0x20\n        /* \"#utility.yul\":3036:3041   */\n      dup7\n        /* \"#utility.yul\":3032:3048   */\n      add\n        /* \"#utility.yul\":3010:3062   */\n      tag_108\n      jump\t// in\n    tag_116:\n        /* \"#utility.yul\":3087:3093   */\n      dup1\n        /* \"#utility.yul\":3082:3085   */\n      dup5\n        /* \"#utility.yul\":3078:3094   */\n      add\n        /* \"#utility.yul\":3071:3094   */\n      swap2\n      pop\n        /* \"#utility.yul\":2833:3100   */\n      pop\n        /* \"#utility.yul\":2723:3100   */\n      swap3\n      swap2\n      pop\n      pop\n      jump\t// out\n        /* \"#utility.yul\":3106:3506   */\n    tag_117:\n        /* \"#utility.yul\":3266:3269   */\n      0x00\n        /* \"#utility.yul\":3287:3371   */\n      tag_119\n        /* \"#utility.yul\":3369:3370   */\n      0x07\n        /* \"#utility.yul\":3364:3367   */\n      dup4\n        /* \"#utility.yul\":3287:3371   */\n      tag_115\n      jump\t// in\n    tag_119:\n        /* \"#utility.yul\":3280:3371   */\n      swap2\n      pop\n        /* \"#utility.yul\":3380:3473   */\n      tag_120\n        /* \"#utility.yul\":3469:3472   */\n      dup3\n        /* \"#utility.yul\":3380:3473   */\n      tag_121\n      jump\t// in\n    tag_120:\n        /* \"#utility.yul\":3498:3499   */\n      0x07\n        /* \"#utility.yul\":3493:3496   */\n      dup3\n        /* \"#utility.yul\":3489:3500   */\n      add\n        /* \"#utility.yul\":3482:3500   */\n      swap1\n      pop\n        /* \"#utility.yul\":3106:3506   */\n      swap2\n      swap1\n      pop\n      jump\t// out\n        /* \"#utility.yul\":3512:3914   */\n    tag_122:\n        /* \"#utility.yul\":3672:3675   */\n      0x00\n        /* \"#utility.yul\":3693:3778   */\n      tag_124\n        /* \"#utility.yul\":3775:3777   */\n      0x42\n        /* \"#utility.yul\":3770:3773   */\n      dup4\n        /* \"#utility.yul\":3693:3778   */\n      tag_115\n      jump\t// in\n    tag_124:\n        /* \"#utility.yul\":3686:3778   */\n      swap2\n      pop\n        /* \"#utility.yul\":3787:3880   */\n      tag_125\n        /* \"#utility.yul\":3876:3879   */\n      dup3\n        /* \"#utility.yul\":3787:3880   */\n      tag_126\n      jump\t// in\n    tag_125:\n        /* \"#utility.yul\":3905:3907   */\n      0x42\n        /* \"#utility.yul\":3900:3903   */\n      dup3\n        /* \"#utility.yul\":3896:3908   */\n      add\n        /* \"#utility.yul\":3889:3908   */\n      swap1\n      pop\n        /* \"#utility.yul\":3512:3914   */\n      swap2\n      swap1\n      pop\n      jump\t// out\n        /* \"#utility.yul\":3920:4322   */\n    tag_127:\n        /* \"#utility.yul\":4080:4083   */\n      0x00\n        /* \"#utility.yul\":4101:4186   */\n      tag_129\n        /* \"#utility.yul\":4183:4185   */\n      0x1d\n        /* \"#utility.yul\":4178:4181   */\n      dup4\n        /* \"#utility.yul\":4101:4186   */\n      tag_115\n      jump\t// in\n    tag_129:\n        /* \"#utility.yul\":4094:4186   */\n      swap2\n      pop\n        /* \"#utility.yul\":4195:4288   */\n      tag_130\n        /* \"#utility.yul\":4284:4287   */\n      dup3\n        /* \"#utility.yul\":4195:4288   */\n      tag_131\n      jump\t// in\n    tag_130:\n        /* \"#utility.yul\":4313:4315   */\n      0x1d\n        /* \"#utility.yul\":4308:4311   */\n      dup3\n        /* \"#utility.yul\":4304:4316   */\n      add\n        /* \"#utility.yul\":4297:4316   */\n      swap1\n      pop\n        /* \"#utility.yul\":3920:4322   */\n      swap2\n      swap1\n      pop\n      jump\t// out\n        /* \"#utility.yul\":4328:4730   */\n    tag_132:\n        /* \"#utility.yul\":4488:4491   */\n      0x00\n        /* \"#utility.yul\":4509:4594   */\n      tag_134\n        /* \"#utility.yul\":4591:4593   */\n      0x20\n        /* \"#utility.yul\":4586:4589   */\n      dup4\n        /* \"#utility.yul\":4509:4594   */\n      tag_115\n      jump\t// in\n    tag_134:\n        /* \"#utility.yul\":4502:4594   */\n      swap2\n      pop\n        /* \"#utility.yul\":4603:4696   */\n      tag_135\n        /* \"#utility.yul\":4692:4695   */\n      dup3\n        /* \"#utility.yul\":4603:4696   */\n      tag_136\n      jump\t// in\n    tag_135:\n        /* \"#utility.yul\":4721:4723   */\n      0x20\n        /* \"#utility.yul\":4716:4719   */\n      dup3\n        /* \"#utility.yul\":4712:4724   */\n      add\n        /* \"#utility.yul\":4705:4724   */\n      swap1\n      pop\n        /* \"#utility.yul\":4328:4730   */\n      swap2\n      swap1\n      pop\n      jump\t// out\n        /* \"#utility.yul\":4736:5138   */\n    tag_137:\n        /* \"#utility.yul\":4896:4899   */\n      0x00\n        /* \"#utility.yul\":4917:5002   */\n      tag_139\n        /* \"#utility.yul\":4999:5001   */\n      0x1d\n        /* \"#utility.yul\":4994:4997   */\n      dup4\n        /* \"#utility.yul\":4917:5002   */\n      tag_115\n      jump\t// in\n    tag_139:\n        /* \"#utility.yul\":4910:5002   */\n      swap2\n      pop\n        /* \"#utility.yul\":5011:5104   */\n      tag_140\n        /* \"#utility.yul\":5100:5103   */\n      dup3\n        /* \"#utility.yul\":5011:5104   */\n      tag_141\n      jump\t// in\n    tag_140:\n        /* \"#utility.yul\":5129:5131   */\n      0x1d\n        /* \"#utility.yul\":5124:5127   */\n      dup3\n        /* \"#utility.yul\":5120:5132   */\n      add\n        /* \"#utility.yul\":5113:5132   */\n      swap1\n      pop\n        /* \"#utility.yul\":4736:5138   */\n      swap2\n      swap1\n      pop\n      jump\t// out\n        /* \"#utility.yul\":5144:5546   */\n    tag_142:\n        /* \"#utility.yul\":5304:5307   */\n      0x00\n        /* \"#utility.yul\":5325:5410   */\n      tag_144\n        /* \"#utility.yul\":5407:5409   */\n      0x20\n        /* \"#utility.yul\":5402:5405   */\n      dup4\n        /* \"#utility.yul\":5325:5410   */\n      tag_115\n      jump\t// in\n    tag_144:\n        /* \"#utility.yul\":5318:5410   */\n      swap2\n      pop\n        /* \"#utility.yul\":5419:5512   */\n      tag_145\n        /* \"#utility.yul\":5508:5511   */\n      dup3\n        /* \"#utility.yul\":5419:5512   */\n      tag_146\n      jump\t// in\n    tag_145:\n        /* \"#utility.yul\":5537:5539   */\n      0x20\n        /* \"#utility.yul\":5532:5535   */\n      dup3\n        /* \"#utility.yul\":5528:5540   */\n      add\n        /* \"#utility.yul\":5521:5540   */\n      swap1\n      pop\n        /* \"#utility.yul\":5144:5546   */\n      swap2\n      swap1\n      pop\n      jump\t// out\n        /* \"#utility.yul\":5552:5952   */\n    tag_147:\n        /* \"#utility.yul\":5712:5715   */\n      0x00\n        /* \"#utility.yul\":5733:5817   */\n      tag_149\n        /* \"#utility.yul\":5815:5816   */\n      0x08\n        /* \"#utility.yul\":5810:5813   */\n      dup4\n        /* \"#utility.yul\":5733:5817   */\n      tag_115\n      jump\t// in\n    tag_149:\n        /* \"#utility.yul\":5726:5817   */\n      swap2\n      pop\n        /* \"#utility.yul\":5826:5919   */\n      tag_150\n        /* \"#utility.yul\":5915:5918   */\n      dup3\n        /* \"#utility.yul\":5826:5919   */\n      tag_151\n      jump\t// in\n    tag_150:\n        /* \"#utility.yul\":5944:5945   */\n      0x08\n        /* \"#utility.yul\":5939:5942   */\n      dup3\n        /* \"#utility.yul\":5935:5946   */\n      add\n        /* \"#utility.yul\":5928:5946   */\n      swap1\n      pop\n        /* \"#utility.yul\":5552:5952   */\n      swap2\n      swap1\n      pop\n      jump\t// out\n        /* \"#utility.yul\":5958:6358   */\n    tag_152:\n        /* \"#utility.yul\":6118:6121   */\n      0x00\n        /* \"#utility.yul\":6139:6223   */\n      tag_154\n        /* \"#utility.yul\":6221:6222   */\n      0x04\n        /* \"#utility.yul\":6216:6219   */\n      dup4\n        /* \"#utility.yul\":6139:6223   */\n      tag_115\n      jump\t// in\n    tag_154:\n        /* \"#utility.yul\":6132:6223   */\n      swap2\n      pop\n        /* \"#utility.yul\":6232:6325   */\n      tag_155\n        /* \"#utility.yul\":6321:6324   */\n      dup3\n        /* \"#utility.yul\":6232:6325   */\n      tag_156\n      jump\t// in\n    tag_155:\n        /* \"#utility.yul\":6350:6351   */\n      0x04\n        /* \"#utility.yul\":6345:6348   */\n      dup3\n        /* \"#utility.yul\":6341:6352   */\n      add\n        /* \"#utility.yul\":6334:6352   */\n      swap1\n      pop\n        /* \"#utility.yul\":5958:6358   */\n      swap2\n      swap1\n      pop\n      jump\t// out\n        /* \"#utility.yul\":6364:6766   */\n    tag_157:\n        /* \"#utility.yul\":6524:6527   */\n      0x00\n        /* \"#utility.yul\":6545:6630   */\n      tag_159\n        /* \"#utility.yul\":6627:6629   */\n      0x27\n        /* \"#utility.yul\":6622:6625   */\n      dup4\n        /* \"#utility.yul\":6545:6630   */\n      tag_115\n      jump\t// in\n    tag_159:\n        /* \"#utility.yul\":6538:6630   */\n      swap2\n      pop\n        /* \"#utility.yul\":6639:6732   */\n      tag_160\n        /* \"#utility.yul\":6728:6731   */\n      dup3\n        /* \"#utility.yul\":6639:6732   */\n      tag_161\n      jump\t// in\n    tag_160:\n        /* \"#utility.yul\":6757:6759   */\n      0x27\n        /* \"#utility.yul\":6752:6755   */\n      dup3\n        /* \"#utility.yul\":6748:6760   */\n      add\n        /* \"#utility.yul\":6741:6760   */\n      swap1\n      pop\n        /* \"#utility.yul\":6364:6766   */\n      swap2\n      swap1\n      pop\n      jump\t// out\n        /* \"#utility.yul\":6772:7174   */\n    tag_162:\n        /* \"#utility.yul\":6932:6935   */\n      0x00\n        /* \"#utility.yul\":6953:7038   */\n      tag_164\n        /* \"#utility.yul\":7035:7037   */\n      0x22\n        /* \"#utility.yul\":7030:7033   */\n      dup4\n        /* \"#utility.yul\":6953:7038   */\n      tag_115\n      jump\t// in\n    tag_164:\n        /* \"#utility.yul\":6946:7038   */\n      swap2\n      pop\n        /* \"#utility.yul\":7047:7140   */\n      tag_165\n        /* \"#utility.yul\":7136:7139   */\n      dup3\n        /* \"#utility.yul\":7047:7140   */\n      tag_166\n      jump\t// in\n    tag_165:\n        /* \"#utility.yul\":7165:7167   */\n      0x22\n        /* \"#utility.yul\":7160:7163   */\n      dup3\n        /* \"#utility.yul\":7156:7168   */\n      add\n        /* \"#utility.yul\":7149:7168   */\n      swap1\n      pop\n        /* \"#utility.yul\":6772:7174   */\n      swap2\n      swap1\n      pop\n      jump\t// out\n        /* \"#utility.yul\":7180:7580   */\n    tag_167:\n        /* \"#utility.yul\":7340:7343   */\n      0x00\n        /* \"#utility.yul\":7361:7445   */\n      tag_169\n        /* \"#utility.yul\":7443:7444   */\n      0x07\n        /* \"#utility.yul\":7438:7441   */\n      dup4\n        /* \"#utility.yul\":7361:7445   */\n      tag_115\n      jump\t// in\n    tag_169:\n        /* \"#utility.yul\":7354:7445   */\n      swap2\n      pop\n        /* \"#utility.yul\":7454:7547   */\n      tag_170\n        /* \"#utility.yul\":7543:7546   */\n      dup3\n        /* \"#utility.yul\":7454:7547   */\n      tag_171\n      jump\t// in\n    tag_170:\n        /* \"#utility.yul\":7572:7573   */\n      0x07\n        /* \"#utility.yul\":7567:7570   */\n      dup3\n        /* \"#utility.yul\":7563:7574   */\n      add\n        /* \"#utility.yul\":7556:7574   */\n      swap1\n      pop\n        /* \"#utility.yul\":7180:7580   */\n      swap2\n      swap1\n      pop\n      jump\t// out\n        /* \"#utility.yul\":7586:7992   */\n    tag_172:\n        /* \"#utility.yul\":7746:7749   */\n      0x00\n        /* \"#utility.yul\":7767:7854   */\n      tag_174\n        /* \"#utility.yul\":7849:7853   */\n      0x0434\n        /* \"#utility.yul\":7844:7847   */\n      dup4\n        /* \"#utility.yul\":7767:7854   */\n      tag_115\n      jump\t// in\n    tag_174:\n        /* \"#utility.yul\":7760:7854   */\n      swap2\n      pop\n        /* \"#utility.yul\":7863:7956   */\n      tag_175\n        /* \"#utility.yul\":7952:7955   */\n      dup3\n        /* \"#utility.yul\":7863:7956   */\n      tag_176\n      jump\t// in\n    tag_175:\n        /* \"#utility.yul\":7981:7985   */\n      0x0434\n        /* \"#utility.yul\":7976:7979   */\n      dup3\n        /* \"#utility.yul\":7972:7986   */\n      add\n        /* \"#utility.yul\":7965:7986   */\n      swap1\n      pop\n        /* \"#utility.yul\":7586:7992   */\n      swap2\n      swap1\n      pop\n      jump\t// out\n        /* \"#utility.yul\":7998:8398   */\n    tag_177:\n        /* \"#utility.yul\":8158:8161   */\n      0x00\n        /* \"#utility.yul\":8179:8263   */\n      tag_179\n        /* \"#utility.yul\":8261:8262   */\n      0x03\n        /* \"#utility.yul\":8256:8259   */\n      dup4\n        /* \"#utility.yul\":8179:8263   */\n      tag_115\n      jump\t// in\n    tag_179:\n        /* \"#utility.yul\":8172:8263   */\n      swap2\n      pop\n        /* \"#utility.yul\":8272:8365   */\n      tag_180\n        /* \"#utility.yul\":8361:8364   */\n      dup3\n        /* \"#utility.yul\":8272:8365   */\n      tag_181\n      jump\t// in\n    tag_180:\n        /* \"#utility.yul\":8390:8391   */\n      0x03\n        /* \"#utility.yul\":8385:8388   */\n      dup3\n        /* \"#utility.yul\":8381:8392   */\n      add\n        /* \"#utility.yul\":8374:8392   */\n      swap1\n      pop\n        /* \"#utility.yul\":7998:8398   */\n      swap2\n      swap1\n      pop\n      jump\t// out\n        /* \"#utility.yul\":8404:8810   */\n    tag_182:\n        /* \"#utility.yul\":8564:8567   */\n      0x00\n        /* \"#utility.yul\":8585:8672   */\n      tag_184\n        /* \"#utility.yul\":8667:8671   */\n      0x0433\n        /* \"#utility.yul\":8662:8665   */\n      dup4\n        /* \"#utility.yul\":8585:8672   */\n      tag_115\n      jump\t// in\n    tag_184:\n        /* \"#utility.yul\":8578:8672   */\n      swap2\n      pop\n        /* \"#utility.yul\":8681:8774   */\n      tag_185\n        /* \"#utility.yul\":8770:8773   */\n      dup3\n        /* \"#utility.yul\":8681:8774   */\n      tag_186\n      jump\t// in\n    tag_185:\n        /* \"#utility.yul\":8799:8803   */\n      0x0433\n        /* \"#utility.yul\":8794:8797   */\n      dup3\n        /* \"#utility.yul\":8790:8804   */\n      add\n        /* \"#utility.yul\":8783:8804   */\n      swap1\n      pop\n        /* \"#utility.yul\":8404:8810   */\n      swap2\n      swap1\n      pop\n      jump\t// out\n        /* \"#utility.yul\":8816:9216   */\n    tag_187:\n        /* \"#utility.yul\":8976:8979   */\n      0x00\n        /* \"#utility.yul\":8997:9081   */\n      tag_189\n        /* \"#utility.yul\":9079:9080   */\n      0x06\n        /* \"#utility.yul\":9074:9077   */\n      dup4\n        /* \"#utility.yul\":8997:9081   */\n      tag_115\n      jump\t// in\n    tag_189:\n        /* \"#utility.yul\":8990:9081   */\n      swap2\n      pop\n        /* \"#utility.yul\":9090:9183   */\n      tag_190\n        /* \"#utility.yul\":9179:9182   */\n      dup3\n        /* \"#utility.yul\":9090:9183   */\n      tag_191\n      jump\t// in\n    tag_190:\n        /* \"#utility.yul\":9208:9209   */\n      0x06\n        /* \"#utility.yul\":9203:9206   */\n      dup3\n        /* \"#utility.yul\":9199:9210   */\n      add\n        /* \"#utility.yul\":9192:9210   */\n      swap1\n      pop\n        /* \"#utility.yul\":8816:9216   */\n      swap2\n      swap1\n      pop\n      jump\t// out\n        /* \"#utility.yul\":9222:9628   */\n    tag_192:\n        /* \"#utility.yul\":9382:9385   */\n      0x00\n        /* \"#utility.yul\":9403:9490   */\n      tag_194\n        /* \"#utility.yul\":9485:9489   */\n      0x0432\n        /* \"#utility.yul\":9480:9483   */\n      dup4\n        /* \"#utility.yul\":9403:9490   */\n      tag_115\n      jump\t// in\n    tag_194:\n        /* \"#utility.yul\":9396:9490   */\n      swap2\n      pop\n        /* \"#utility.yul\":9499:9592   */\n      tag_195\n        /* \"#utility.yul\":9588:9591   */\n      dup3\n        /* \"#utility.yul\":9499:9592   */\n      tag_196\n      jump\t// in\n    tag_195:\n        /* \"#utility.yul\":9617:9621   */\n      0x0432\n        /* \"#utility.yul\":9612:9615   */\n      dup3\n        /* \"#utility.yul\":9608:9622   */\n      add\n        /* \"#utility.yul\":9601:9622   */\n      swap1\n      pop\n        /* \"#utility.yul\":9222:9628   */\n      swap2\n      swap1\n      pop\n      jump\t// out\n        /* \"#utility.yul\":9634:10034   */\n    tag_197:\n        /* \"#utility.yul\":9794:9797   */\n      0x00\n        /* \"#utility.yul\":9815:9899   */\n      tag_199\n        /* \"#utility.yul\":9897:9898   */\n      0x07\n        /* \"#utility.yul\":9892:9895   */\n      dup4\n        /* \"#utility.yul\":9815:9899   */\n      tag_115\n      jump\t// in\n    tag_199:\n        /* \"#utility.yul\":9808:9899   */\n      swap2\n      pop\n        /* \"#utility.yul\":9908:10001   */\n      tag_200\n        /* \"#utility.yul\":9997:10000   */\n      dup3\n        /* \"#utility.yul\":9908:10001   */\n      tag_201\n      jump\t// in\n    tag_200:\n        /* \"#utility.yul\":10026:10027   */\n      0x07\n        /* \"#utility.yul\":10021:10024   */\n      dup3\n        /* \"#utility.yul\":10017:10028   */\n      add\n        /* \"#utility.yul\":10010:10028   */\n      swap1\n      pop\n        /* \"#utility.yul\":9634:10034   */\n      swap2\n      swap1\n      pop\n      jump\t// out\n        /* \"#utility.yul\":10040:10444   */\n    tag_202:\n        /* \"#utility.yul\":10200:10203   */\n      0x00\n        /* \"#utility.yul\":10221:10307   */\n      tag_204\n        /* \"#utility.yul\":10303:10306   */\n      0x66\n        /* \"#utility.yul\":10298:10301   */\n      dup4\n        /* \"#utility.yul\":10221:10307   */\n      tag_115\n      jump\t// in\n    tag_204:\n        /* \"#utility.yul\":10214:10307   */\n      swap2\n      pop\n        /* \"#utility.yul\":10316:10409   */\n      tag_205\n        /* \"#utility.yul\":10405:10408   */\n      dup3\n        /* \"#utility.yul\":10316:10409   */\n      tag_206\n      jump\t// in\n    tag_205:\n        /* \"#utility.yul\":10434:10437   */\n      0x66\n        /* \"#utility.yul\":10429:10432   */\n      dup3\n        /* \"#utility.yul\":10425:10438   */\n      add\n        /* \"#utility.yul\":10418:10438   */\n      swap1\n      pop\n        /* \"#utility.yul\":10040:10444   */\n      swap2\n      swap1\n      pop\n      jump\t// out\n        /* \"#utility.yul\":10450:11417   */\n    tag_32:\n        /* \"#utility.yul\":10832:10835   */\n      0x00\n        /* \"#utility.yul\":10854:10949   */\n      tag_208\n        /* \"#utility.yul\":10945:10948   */\n      dup3\n        /* \"#utility.yul\":10936:10942   */\n      dup6\n        /* \"#utility.yul\":10854:10949   */\n      tag_111\n      jump\t// in\n    tag_208:\n        /* \"#utility.yul\":10847:10949   */\n      swap2\n      pop\n        /* \"#utility.yul\":10966:11114   */\n      tag_209\n        /* \"#utility.yul\":11110:11113   */\n      dup3\n        /* \"#utility.yul\":10966:11114   */\n      tag_127\n      jump\t// in\n    tag_209:\n        /* \"#utility.yul\":10959:11114   */\n      swap2\n      pop\n        /* \"#utility.yul\":11131:11226   */\n      tag_210\n        /* \"#utility.yul\":11222:11225   */\n      dup3\n        /* \"#utility.yul\":11213:11219   */\n      dup5\n        /* \"#utility.yul\":11131:11226   */\n      tag_111\n      jump\t// in\n    tag_210:\n        /* \"#utility.yul\":11124:11226   */\n      swap2\n      pop\n        /* \"#utility.yul\":11243:11391   */\n      tag_211\n        /* \"#utility.yul\":11387:11390   */\n      dup3\n        /* \"#utility.yul\":11243:11391   */\n      tag_167\n      jump\t// in\n    tag_211:\n        /* \"#utility.yul\":11236:11391   */\n      swap2\n      pop\n        /* \"#utility.yul\":11408:11411   */\n      dup2\n        /* \"#utility.yul\":11401:11411   */\n      swap1\n      pop\n        /* \"#utility.yul\":10450:11417   */\n      swap4\n      swap3\n      pop\n      pop\n      pop\n      jump\t// out\n        /* \"#utility.yul\":11423:12390   */\n    tag_37:\n        /* \"#utility.yul\":11805:11808   */\n      0x00\n        /* \"#utility.yul\":11827:11922   */\n      tag_213\n        /* \"#utility.yul\":11918:11921   */\n      dup3\n        /* \"#utility.yul\":11909:11915   */\n      dup6\n        /* \"#utility.yul\":11827:11922   */\n      tag_111\n      jump\t// in\n    tag_213:\n        /* \"#utility.yul\":11820:11922   */\n      swap2\n      pop\n        /* \"#utility.yul\":11939:12087   */\n      tag_214\n        /* \"#utility.yul\":12083:12086   */\n      dup3\n        /* \"#utility.yul\":11939:12087   */\n      tag_132\n      jump\t// in\n    tag_214:\n        /* \"#utility.yul\":11932:12087   */\n      swap2\n      pop\n        /* \"#utility.yul\":12104:12199   */\n      tag_215\n        /* \"#utility.yul\":12195:12198   */\n      dup3\n        /* \"#utility.yul\":12186:12192   */\n      dup5\n        /* \"#utility.yul\":12104:12199   */\n      tag_111\n      jump\t// in\n    tag_215:\n        /* \"#utility.yul\":12097:12199   */\n      swap2\n      pop\n        /* \"#utility.yul\":12216:12364   */\n      tag_216\n        /* \"#utility.yul\":12360:12363   */\n      dup3\n        /* \"#utility.yul\":12216:12364   */\n      tag_167\n      jump\t// in\n    tag_216:\n        /* \"#utility.yul\":12209:12364   */\n      swap2\n      pop\n        /* \"#utility.yul\":12381:12384   */\n      dup2\n        /* \"#utility.yul\":12374:12384   */\n      swap1\n      pop\n        /* \"#utility.yul\":11423:12390   */\n      swap4\n      swap3\n      pop\n      pop\n      pop\n      jump\t// out\n        /* \"#utility.yul\":12396:13363   */\n    tag_35:\n        /* \"#utility.yul\":12778:12781   */\n      0x00\n        /* \"#utility.yul\":12800:12895   */\n      tag_218\n        /* \"#utility.yul\":12891:12894   */\n      dup3\n        /* \"#utility.yul\":12882:12888   */\n      dup6\n        /* \"#utility.yul\":12800:12895   */\n      tag_111\n      jump\t// in\n    tag_218:\n        /* \"#utility.yul\":12793:12895   */\n      swap2\n      pop\n        /* \"#utility.yul\":12912:13060   */\n      tag_219\n        /* \"#utility.yul\":13056:13059   */\n      dup3\n        /* \"#utility.yul\":12912:13060   */\n      tag_137\n      jump\t// in\n    tag_219:\n        /* \"#utility.yul\":12905:13060   */\n      swap2\n      pop\n        /* \"#utility.yul\":13077:13172   */\n      tag_220\n        /* \"#utility.yul\":13168:13171   */\n      dup3\n        /* \"#utility.yul\":13159:13165   */\n      dup5\n        /* \"#utility.yul\":13077:13172   */\n      tag_111\n      jump\t// in\n    tag_220:\n        /* \"#utility.yul\":13070:13172   */\n      swap2\n      pop\n        /* \"#utility.yul\":13189:13337   */\n      tag_221\n        /* \"#utility.yul\":13333:13336   */\n      dup3\n        /* \"#utility.yul\":13189:13337   */\n      tag_167\n      jump\t// in\n    tag_221:\n        /* \"#utility.yul\":13182:13337   */\n      swap2\n      pop\n        /* \"#utility.yul\":13354:13357   */\n      dup2\n        /* \"#utility.yul\":13347:13357   */\n      swap1\n      pop\n        /* \"#utility.yul\":12396:13363   */\n      swap4\n      swap3\n      pop\n      pop\n      pop\n      jump\t// out\n        /* \"#utility.yul\":13369:14602   */\n    tag_29:\n        /* \"#utility.yul\":13852:13855   */\n      0x00\n        /* \"#utility.yul\":13874:13969   */\n      tag_223\n        /* \"#utility.yul\":13965:13968   */\n      dup3\n        /* \"#utility.yul\":13956:13962   */\n      dup6\n        /* \"#utility.yul\":13874:13969   */\n      tag_111\n      jump\t// in\n    tag_223:\n        /* \"#utility.yul\":13867:13969   */\n      swap2\n      pop\n        /* \"#utility.yul\":13986:14134   */\n      tag_224\n        /* \"#utility.yul\":14130:14133   */\n      dup3\n        /* \"#utility.yul\":13986:14134   */\n      tag_142\n      jump\t// in\n    tag_224:\n        /* \"#utility.yul\":13979:14134   */\n      swap2\n      pop\n        /* \"#utility.yul\":14151:14246   */\n      tag_225\n        /* \"#utility.yul\":14242:14245   */\n      dup3\n        /* \"#utility.yul\":14233:14239   */\n      dup5\n        /* \"#utility.yul\":14151:14246   */\n      tag_111\n      jump\t// in\n    tag_225:\n        /* \"#utility.yul\":14144:14246   */\n      swap2\n      pop\n        /* \"#utility.yul\":14263:14411   */\n      tag_226\n        /* \"#utility.yul\":14407:14410   */\n      dup3\n        /* \"#utility.yul\":14263:14411   */\n      tag_177\n      jump\t// in\n    tag_226:\n        /* \"#utility.yul\":14256:14411   */\n      swap2\n      pop\n        /* \"#utility.yul\":14428:14576   */\n      tag_227\n        /* \"#utility.yul\":14572:14575   */\n      dup3\n        /* \"#utility.yul\":14428:14576   */\n      tag_167\n      jump\t// in\n    tag_227:\n        /* \"#utility.yul\":14421:14576   */\n      swap2\n      pop\n        /* \"#utility.yul\":14593:14596   */\n      dup2\n        /* \"#utility.yul\":14586:14596   */\n      swap1\n      pop\n        /* \"#utility.yul\":13369:14602   */\n      swap4\n      swap3\n      pop\n      pop\n      pop\n      jump\t// out\n        /* \"#utility.yul\":14608:15681   */\n    tag_14:\n        /* \"#utility.yul\":15043:15046   */\n      0x00\n        /* \"#utility.yul\":15065:15160   */\n      tag_229\n        /* \"#utility.yul\":15156:15159   */\n      dup3\n        /* \"#utility.yul\":15147:15153   */\n      dup5\n        /* \"#utility.yul\":15065:15160   */\n      tag_111\n      jump\t// in\n    tag_229:\n        /* \"#utility.yul\":15058:15160   */\n      swap2\n      pop\n        /* \"#utility.yul\":15177:15325   */\n      tag_230\n        /* \"#utility.yul\":15321:15324   */\n      dup3\n        /* \"#utility.yul\":15177:15325   */\n      tag_157\n      jump\t// in\n    tag_230:\n        /* \"#utility.yul\":15170:15325   */\n      swap2\n      pop\n        /* \"#utility.yul\":15342:15490   */\n      tag_231\n        /* \"#utility.yul\":15486:15489   */\n      dup3\n        /* \"#utility.yul\":15342:15490   */\n      tag_117\n      jump\t// in\n    tag_231:\n        /* \"#utility.yul\":15335:15490   */\n      swap2\n      pop\n        /* \"#utility.yul\":15507:15655   */\n      tag_232\n        /* \"#utility.yul\":15651:15654   */\n      dup3\n        /* \"#utility.yul\":15507:15655   */\n      tag_152\n      jump\t// in\n    tag_232:\n        /* \"#utility.yul\":15500:15655   */\n      swap2\n      pop\n        /* \"#utility.yul\":15672:15675   */\n      dup2\n        /* \"#utility.yul\":15665:15675   */\n      swap1\n      pop\n        /* \"#utility.yul\":14608:15681   */\n      swap3\n      swap2\n      pop\n      pop\n      jump\t// out\n        /* \"#utility.yul\":15687:16654   */\n    tag_25:\n        /* \"#utility.yul\":16069:16072   */\n      0x00\n        /* \"#utility.yul\":16091:16186   */\n      tag_234\n        /* \"#utility.yul\":16182:16185   */\n      dup3\n        /* \"#utility.yul\":16173:16179   */\n      dup6\n        /* \"#utility.yul\":16091:16186   */\n      tag_111\n      jump\t// in\n    tag_234:\n        /* \"#utility.yul\":16084:16186   */\n      swap2\n      pop\n        /* \"#utility.yul\":16203:16351   */\n      tag_235\n        /* \"#utility.yul\":16347:16350   */\n      dup3\n        /* \"#utility.yul\":16203:16351   */\n      tag_162\n      jump\t// in\n    tag_235:\n        /* \"#utility.yul\":16196:16351   */\n      swap2\n      pop\n        /* \"#utility.yul\":16368:16463   */\n      tag_236\n        /* \"#utility.yul\":16459:16462   */\n      dup3\n        /* \"#utility.yul\":16450:16456   */\n      dup5\n        /* \"#utility.yul\":16368:16463   */\n      tag_111\n      jump\t// in\n    tag_236:\n        /* \"#utility.yul\":16361:16463   */\n      swap2\n      pop\n        /* \"#utility.yul\":16480:16628   */\n      tag_237\n        /* \"#utility.yul\":16624:16627   */\n      dup3\n        /* \"#utility.yul\":16480:16628   */\n      tag_167\n      jump\t// in\n    tag_237:\n        /* \"#utility.yul\":16473:16628   */\n      swap2\n      pop\n        /* \"#utility.yul\":16645:16648   */\n      dup2\n        /* \"#utility.yul\":16638:16648   */\n      swap1\n      pop\n        /* \"#utility.yul\":15687:16654   */\n      swap4\n      swap3\n      pop\n      pop\n      pop\n      jump\t// out\n        /* \"#utility.yul\":16660:17201   */\n    tag_23:\n        /* \"#utility.yul\":16893:16896   */\n      0x00\n        /* \"#utility.yul\":16915:17010   */\n      tag_239\n        /* \"#utility.yul\":17006:17009   */\n      dup3\n        /* \"#utility.yul\":16997:17003   */\n      dup5\n        /* \"#utility.yul\":16915:17010   */\n      tag_111\n      jump\t// in\n    tag_239:\n        /* \"#utility.yul\":16908:17010   */\n      swap2\n      pop\n        /* \"#utility.yul\":17027:17175   */\n      tag_240\n        /* \"#utility.yul\":17171:17174   */\n      dup3\n        /* \"#utility.yul\":17027:17175   */\n      tag_172\n      jump\t// in\n    tag_240:\n        /* \"#utility.yul\":17020:17175   */\n      swap2\n      pop\n        /* \"#utility.yul\":17192:17195   */\n      dup2\n        /* \"#utility.yul\":17185:17195   */\n      swap1\n      pop\n        /* \"#utility.yul\":16660:17201   */\n      swap3\n      swap2\n      pop\n      pop\n      jump\t// out\n        /* \"#utility.yul\":17207:17748   */\n    tag_20:\n        /* \"#utility.yul\":17440:17443   */\n      0x00\n        /* \"#utility.yul\":17462:17557   */\n      tag_242\n        /* \"#utility.yul\":17553:17556   */\n      dup3\n        /* \"#utility.yul\":17544:17550   */\n      dup5\n        /* \"#utility.yul\":17462:17557   */\n      tag_111\n      jump\t// in\n    tag_242:\n        /* \"#utility.yul\":17455:17557   */\n      swap2\n      pop\n        /* \"#utility.yul\":17574:17722   */\n      tag_243\n        /* \"#utility.yul\":17718:17721   */\n      dup3\n        /* \"#utility.yul\":17574:17722   */\n      tag_182\n      jump\t// in\n    tag_243:\n        /* \"#utility.yul\":17567:17722   */\n      swap2\n      pop\n        /* \"#utility.yul\":17739:17742   */\n      dup2\n        /* \"#utility.yul\":17732:17742   */\n      swap1\n      pop\n        /* \"#utility.yul\":17207:17748   */\n      swap3\n      swap2\n      pop\n      pop\n      jump\t// out\n        /* \"#utility.yul\":17754:18295   */\n    tag_39:\n        /* \"#utility.yul\":17987:17990   */\n      0x00\n        /* \"#utility.yul\":18009:18104   */\n      tag_245\n        /* \"#utility.yul\":18100:18103   */\n      dup3\n        /* \"#utility.yul\":18091:18097   */\n      dup5\n        /* \"#utility.yul\":18009:18104   */\n      tag_111\n      jump\t// in\n    tag_245:\n        /* \"#utility.yul\":18002:18104   */\n      swap2\n      pop\n        /* \"#utility.yul\":18121:18269   */\n      tag_246\n        /* \"#utility.yul\":18265:18268   */\n      dup3\n        /* \"#utility.yul\":18121:18269   */\n      tag_187\n      jump\t// in\n    tag_246:\n        /* \"#utility.yul\":18114:18269   */\n      swap2\n      pop\n        /* \"#utility.yul\":18286:18289   */\n      dup2\n        /* \"#utility.yul\":18279:18289   */\n      swap1\n      pop\n        /* \"#utility.yul\":17754:18295   */\n      swap3\n      swap2\n      pop\n      pop\n      jump\t// out\n        /* \"#utility.yul\":18301:18842   */\n    tag_17:\n        /* \"#utility.yul\":18534:18537   */\n      0x00\n        /* \"#utility.yul\":18556:18651   */\n      tag_248\n        /* \"#utility.yul\":18647:18650   */\n      dup3\n        /* \"#utility.yul\":18638:18644   */\n      dup5\n        /* \"#utility.yul\":18556:18651   */\n      tag_111\n      jump\t// in\n    tag_248:\n        /* \"#utility.yul\":18549:18651   */\n      swap2\n      pop\n        /* \"#utility.yul\":18668:18816   */\n      tag_249\n        /* \"#utility.yul\":18812:18815   */\n      dup3\n        /* \"#utility.yul\":18668:18816   */\n      tag_192\n      jump\t// in\n    tag_249:\n        /* \"#utility.yul\":18661:18816   */\n      swap2\n      pop\n        /* \"#utility.yul\":18833:18836   */\n      dup2\n        /* \"#utility.yul\":18826:18836   */\n      swap1\n      pop\n        /* \"#utility.yul\":18301:18842   */\n      swap3\n      swap2\n      pop\n      pop\n      jump\t// out\n        /* \"#utility.yul\":18848:20187   */\n    tag_12:\n        /* \"#utility.yul\":19384:19387   */\n      0x00\n        /* \"#utility.yul\":19406:19501   */\n      tag_251\n        /* \"#utility.yul\":19497:19500   */\n      dup3\n        /* \"#utility.yul\":19488:19494   */\n      dup5\n        /* \"#utility.yul\":19406:19501   */\n      tag_111\n      jump\t// in\n    tag_251:\n        /* \"#utility.yul\":19399:19501   */\n      swap2\n      pop\n        /* \"#utility.yul\":19518:19666   */\n      tag_252\n        /* \"#utility.yul\":19662:19665   */\n      dup3\n        /* \"#utility.yul\":19518:19666   */\n      tag_197\n      jump\t// in\n    tag_252:\n        /* \"#utility.yul\":19511:19666   */\n      swap2\n      pop\n        /* \"#utility.yul\":19683:19831   */\n      tag_253\n        /* \"#utility.yul\":19827:19830   */\n      dup3\n        /* \"#utility.yul\":19683:19831   */\n      tag_202\n      jump\t// in\n    tag_253:\n        /* \"#utility.yul\":19676:19831   */\n      swap2\n      pop\n        /* \"#utility.yul\":19848:19996   */\n      tag_254\n        /* \"#utility.yul\":19992:19995   */\n      dup3\n        /* \"#utility.yul\":19848:19996   */\n      tag_122\n      jump\t// in\n    tag_254:\n        /* \"#utility.yul\":19841:19996   */\n      swap2\n      pop\n        /* \"#utility.yul\":20013:20161   */\n      tag_255\n        /* \"#utility.yul\":20157:20160   */\n      dup3\n        /* \"#utility.yul\":20013:20161   */\n      tag_147\n      jump\t// in\n    tag_255:\n        /* \"#utility.yul\":20006:20161   */\n      swap2\n      pop\n        /* \"#utility.yul\":20178:20181   */\n      dup2\n        /* \"#utility.yul\":20171:20181   */\n      swap1\n      pop\n        /* \"#utility.yul\":18848:20187   */\n      swap3\n      swap2\n      pop\n      pop\n      jump\t// out\n        /* \"#utility.yul\":20193:20506   */\n    tag_9:\n        /* \"#utility.yul\":20306:20310   */\n      0x00\n        /* \"#utility.yul\":20344:20346   */\n      0x20\n        /* \"#utility.yul\":20333:20342   */\n      dup3\n        /* \"#utility.yul\":20329:20347   */\n      add\n        /* \"#utility.yul\":20321:20347   */\n      swap1\n      pop\n        /* \"#utility.yul\":20393:20402   */\n      dup2\n        /* \"#utility.yul\":20387:20391   */\n      dup2\n        /* \"#utility.yul\":20383:20403   */\n      sub\n        /* \"#utility.yul\":20379:20380   */\n      0x00\n        /* \"#utility.yul\":20368:20377   */\n      dup4\n        /* \"#utility.yul\":20364:20381   */\n      add\n        /* \"#utility.yul\":20357:20404   */\n      mstore\n        /* \"#utility.yul\":20421:20499   */\n      tag_257\n        /* \"#utility.yul\":20494:20498   */\n      dup2\n        /* \"#utility.yul\":20485:20491   */\n      dup5\n        /* \"#utility.yul\":20421:20499   */\n      tag_101\n      jump\t// in\n    tag_257:\n        /* \"#utility.yul\":20413:20499   */\n      swap1\n      pop\n        /* \"#utility.yul\":20193:20506   */\n      swap3\n      swap2\n      pop\n      pop\n      jump\t// out\n        /* \"#utility.yul\":20512:20641   */\n    tag_70:\n        /* \"#utility.yul\":20546:20552   */\n      0x00\n        /* \"#utility.yul\":20573:20593   */\n      tag_259\n      tag_260\n      jump\t// in\n    tag_259:\n        /* \"#utility.yul\":20563:20593   */\n      swap1\n      pop\n        /* \"#utility.yul\":20602:20635   */\n      tag_261\n        /* \"#utility.yul\":20630:20634   */\n      dup3\n        /* \"#utility.yul\":20622:20628   */\n      dup3\n        /* \"#utility.yul\":20602:20635   */\n      tag_262\n      jump\t// in\n    tag_261:\n        /* \"#utility.yul\":20512:20641   */\n      swap2\n      swap1\n      pop\n      jump\t// out\n        /* \"#utility.yul\":20647:20722   */\n    tag_260:\n        /* \"#utility.yul\":20680:20686   */\n      0x00\n        /* \"#utility.yul\":20713:20715   */\n      0x40\n        /* \"#utility.yul\":20707:20716   */\n      mload\n        /* \"#utility.yul\":20697:20716   */\n      swap1\n      pop\n        /* \"#utility.yul\":20647:20722   */\n      swap1\n      jump\t// out\n        /* \"#utility.yul\":20728:21036   */\n    tag_69:\n        /* \"#utility.yul\":20790:20794   */\n      0x00\n        /* \"#utility.yul\":20880:20898   */\n      0xffffffffffffffff\n        /* \"#utility.yul\":20872:20878   */\n      dup3\n        /* \"#utility.yul\":20869:20899   */\n      gt\n        /* \"#utility.yul\":20866:20922   */\n      iszero\n      tag_265\n      jumpi\n        /* \"#utility.yul\":20902:20920   */\n      tag_266\n      tag_50\n      jump\t// in\n    tag_266:\n        /* \"#utility.yul\":20866:20922   */\n    tag_265:\n        /* \"#utility.yul\":20940:20969   */\n      tag_267\n        /* \"#utility.yul\":20962:20968   */\n      dup3\n        /* \"#utility.yul\":20940:20969   */\n      tag_110\n      jump\t// in\n    tag_267:\n        /* \"#utility.yul\":20932:20969   */\n      swap1\n      pop\n        /* \"#utility.yul\":21024:21028   */\n      0x20\n        /* \"#utility.yul\":21018:21022   */\n      dup2\n        /* \"#utility.yul\":21014:21029   */\n      add\n        /* \"#utility.yul\":21006:21029   */\n      swap1\n      pop\n        /* \"#utility.yul\":20728:21036   */\n      swap2\n      swap1\n      pop\n      jump\t// out\n        /* \"#utility.yul\":21042:21141   */\n    tag_104:\n        /* \"#utility.yul\":21094:21100   */\n      0x00\n        /* \"#utility.yul\":21128:21133   */\n      dup2\n        /* \"#utility.yul\":21122:21134   */\n      mload\n        /* \"#utility.yul\":21112:21134   */\n      swap1\n      pop\n        /* \"#utility.yul\":21042:21141   */\n      swap2\n      swap1\n      pop\n      jump\t// out\n        /* \"#utility.yul\":21147:21316   */\n    tag_106:\n        /* \"#utility.yul\":21231:21242   */\n      0x00\n        /* \"#utility.yul\":21265:21271   */\n      dup3\n        /* \"#utility.yul\":21260:21263   */\n      dup3\n        /* \"#utility.yul\":21253:21272   */\n      mstore\n        /* \"#utility.yul\":21305:21309   */\n      0x20\n        /* \"#utility.yul\":21300:21303   */\n      dup3\n        /* \"#utility.yul\":21296:21310   */\n      add\n        /* \"#utility.yul\":21281:21310   */\n      swap1\n      pop\n        /* \"#utility.yul\":21147:21316   */\n      swap3\n      swap2\n      pop\n      pop\n      jump\t// out\n        /* \"#utility.yul\":21322:21470   */\n    tag_115:\n        /* \"#utility.yul\":21424:21435   */\n      0x00\n        /* \"#utility.yul\":21461:21464   */\n      dup2\n        /* \"#utility.yul\":21446:21464   */\n      swap1\n      pop\n        /* \"#utility.yul\":21322:21470   */\n      swap3\n      swap2\n      pop\n      pop\n      jump\t// out\n        /* \"#utility.yul\":21476:21781   */\n    tag_59:\n        /* \"#utility.yul\":21516:21519   */\n      0x00\n        /* \"#utility.yul\":21535:21555   */\n      tag_272\n        /* \"#utility.yul\":21553:21554   */\n      dup3\n        /* \"#utility.yul\":21535:21555   */\n      tag_273\n      jump\t// in\n    tag_272:\n        /* \"#utility.yul\":21530:21555   */\n      swap2\n      pop\n        /* \"#utility.yul\":21569:21589   */\n      tag_274\n        /* \"#utility.yul\":21587:21588   */\n      dup4\n        /* \"#utility.yul\":21569:21589   */\n      tag_273\n      jump\t// in\n    tag_274:\n        /* \"#utility.yul\":21564:21589   */\n      swap3\n      pop\n        /* \"#utility.yul\":21723:21724   */\n      dup3\n        /* \"#utility.yul\":21655:21721   */\n      0xffffffffffffffffffffffffffffffffffffffffffffffffffffffffffffffff\n        /* \"#utility.yul\":21651:21725   */\n      sub\n        /* \"#utility.yul\":21648:21649   */\n      dup3\n        /* \"#utility.yul\":21645:21726   */\n      gt\n        /* \"#utility.yul\":21642:21749   */\n      iszero\n      tag_275\n      jumpi\n        /* \"#utility.yul\":21729:21747   */\n      tag_276\n      tag_277\n      jump\t// in\n    tag_276:\n        /* \"#utility.yul\":21642:21749   */\n    tag_275:\n        /* \"#utility.yul\":21773:21774   */\n      dup3\n        /* \"#utility.yul\":21770:21771   */\n      dup3\n        /* \"#utility.yul\":21766:21775   */\n      add\n        /* \"#utility.yul\":21759:21775   */\n      swap1\n      pop\n        /* \"#utility.yul\":21476:21781   */\n      swap3\n      swap2\n      pop\n      pop\n      jump\t// out\n        /* \"#utility.yul\":21787:21972   */\n    tag_47:\n        /* \"#utility.yul\":21827:21828   */\n      0x00\n        /* \"#utility.yul\":21844:21864   */\n      tag_279\n        /* \"#utility.yul\":21862:21863   */\n      dup3\n        /* \"#utility.yul\":21844:21864   */\n      tag_273\n      jump\t// in\n    tag_279:\n        /* \"#utility.yul\":21839:21864   */\n      swap2\n      pop\n        /* \"#utility.yul\":21878:21898   */\n      tag_280\n        /* \"#utility.yul\":21896:21897   */\n      dup4\n        /* \"#utility.yul\":21878:21898   */\n      tag_273\n      jump\t// in\n    tag_280:\n        /* \"#utility.yul\":21873:21898   */\n      swap3\n      pop\n        /* \"#utility.yul\":21917:21918   */\n      dup3\n        /* \"#utility.yul\":21907:21942   */\n      tag_281\n      jumpi\n        /* \"#utility.yul\":21922:21940   */\n      tag_282\n      tag_283\n      jump\t// in\n    tag_282:\n        /* \"#utility.yul\":21907:21942   */\n    tag_281:\n        /* \"#utility.yul\":21964:21965   */\n      dup3\n        /* \"#utility.yul\":21961:21962   */\n      dup3\n        /* \"#utility.yul\":21957:21966   */\n      div\n        /* \"#utility.yul\":21952:21966   */\n      swap1\n      pop\n        /* \"#utility.yul\":21787:21972   */\n      swap3\n      swap2\n      pop\n      pop\n      jump\t// out\n        /* \"#utility.yul\":21978:22169   */\n    tag_55:\n        /* \"#utility.yul\":22018:22022   */\n      0x00\n        /* \"#utility.yul\":22038:22058   */\n      tag_285\n        /* \"#utility.yul\":22056:22057   */\n      dup3\n        /* \"#utility.yul\":22038:22058   */\n      tag_273\n      jump\t// in\n    tag_285:\n        /* \"#utility.yul\":22033:22058   */\n      swap2\n      pop\n        /* \"#utility.yul\":22072:22092   */\n      tag_286\n        /* \"#utility.yul\":22090:22091   */\n      dup4\n        /* \"#utility.yul\":22072:22092   */\n      tag_273\n      jump\t// in\n    tag_286:\n        /* \"#utility.yul\":22067:22092   */\n      swap3\n      pop\n        /* \"#utility.yul\":22111:22112   */\n      dup3\n        /* \"#utility.yul\":22108:22109   */\n      dup3\n        /* \"#utility.yul\":22105:22113   */\n      lt\n        /* \"#utility.yul\":22102:22136   */\n      iszero\n      tag_287\n      jumpi\n        /* \"#utility.yul\":22116:22134   */\n      tag_288\n      tag_277\n      jump\t// in\n    tag_288:\n        /* \"#utility.yul\":22102:22136   */\n    tag_287:\n        /* \"#utility.yul\":22161:22162   */\n      dup3\n        /* \"#utility.yul\":22158:22159   */\n      dup3\n        /* \"#utility.yul\":22154:22163   */\n      sub\n        /* \"#utility.yul\":22146:22163   */\n      swap1\n      pop\n        /* \"#utility.yul\":21978:22169   */\n      swap3\n      swap2\n      pop\n      pop\n      jump\t// out\n        /* \"#utility.yul\":22175:22252   */\n    tag_273:\n        /* \"#utility.yul\":22212:22219   */\n      0x00\n        /* \"#utility.yul\":22241:22246   */\n      dup2\n        /* \"#utility.yul\":22230:22246   */\n      swap1\n      pop\n        /* \"#utility.yul\":22175:22252   */\n      swap2\n      swap1\n      pop\n      jump\t// out\n        /* \"#utility.yul\":22258:22412   */\n    tag_75:\n        /* \"#utility.yul\":22342:22348   */\n      dup3\n        /* \"#utility.yul\":22337:22340   */\n      dup2\n        /* \"#utility.yul\":22332:22335   */\n      dup4\n        /* \"#utility.yul\":22319:22349   */\n      calldatacopy\n        /* \"#utility.yul\":22404:22405   */\n      0x00\n        /* \"#utility.yul\":22395:22401   */\n      dup4\n        /* \"#utility.yul\":22390:22393   */\n      dup4\n        /* \"#utility.yul\":22386:22402   */\n      add\n        /* \"#utility.yul\":22379:22406   */\n      mstore\n        /* \"#utility.yul\":22258:22412   */\n      pop\n      pop\n      pop\n      jump\t// out\n        /* \"#utility.yul\":22418:22725   */\n    tag_108:\n        /* \"#utility.yul\":22486:22487   */\n      0x00\n        /* \"#utility.yul\":22496:22609   */\n    tag_292:\n        /* \"#utility.yul\":22510:22516   */\n      dup4\n        /* \"#utility.yul\":22507:22508   */\n      dup2\n        /* \"#utility.yul\":22504:22517   */\n      lt\n        /* \"#utility.yul\":22496:22609   */\n      iszero\n      tag_294\n      jumpi\n        /* \"#utility.yul\":22595:22596   */\n      dup1\n        /* \"#utility.yul\":22590:22593   */\n      dup3\n        /* \"#utility.yul\":22586:22597   */\n      add\n        /* \"#utility.yul\":22580:22598   */\n      mload\n        /* \"#utility.yul\":22576:22577   */\n      dup2\n        /* \"#utility.yul\":22571:22574   */\n      dup5\n        /* \"#utility.yul\":22567:22578   */\n      add\n        /* \"#utility.yul\":22560:22599   */\n      mstore\n        /* \"#utility.yul\":22532:22534   */\n      0x20\n        /* \"#utility.yul\":22529:22530   */\n      dup2\n        /* \"#utility.yul\":22525:22535   */\n      add\n        /* \"#utility.yul\":22520:22535   */\n      swap1\n      pop\n        /* \"#utility.yul\":22496:22609   */\n      jump(tag_292)\n    tag_294:\n        /* \"#utility.yul\":22627:22633   */\n      dup4\n        /* \"#utility.yul\":22624:22625   */\n      dup2\n        /* \"#utility.yul\":22621:22634   */\n      gt\n        /* \"#utility.yul\":22618:22719   */\n      iszero\n      tag_295\n      jumpi\n        /* \"#utility.yul\":22707:22708   */\n      0x00\n        /* \"#utility.yul\":22698:22704   */\n      dup5\n        /* \"#utility.yul\":22693:22696   */\n      dup5\n        /* \"#utility.yul\":22689:22705   */\n      add\n        /* \"#utility.yul\":22682:22709   */\n      mstore\n        /* \"#utility.yul\":22618:22719   */\n    tag_295:\n        /* \"#utility.yul\":22467:22725   */\n      pop\n        /* \"#utility.yul\":22418:22725   */\n      pop\n      pop\n      pop\n      jump\t// out\n        /* \"#utility.yul\":22731:23012   */\n    tag_262:\n        /* \"#utility.yul\":22814:22841   */\n      tag_297\n        /* \"#utility.yul\":22836:22840   */\n      dup3\n        /* \"#utility.yul\":22814:22841   */\n      tag_110\n      jump\t// in\n    tag_297:\n        /* \"#utility.yul\":22806:22812   */\n      dup2\n        /* \"#utility.yul\":22802:22842   */\n      add\n        /* \"#utility.yul\":22944:22950   */\n      dup2\n        /* \"#utility.yul\":22932:22942   */\n      dup2\n        /* \"#utility.yul\":22929:22951   */\n      lt\n        /* \"#utility.yul\":22908:22926   */\n      0xffffffffffffffff\n        /* \"#utility.yul\":22896:22906   */\n      dup3\n        /* \"#utility.yul\":22893:22927   */\n      gt\n        /* \"#utility.yul\":22890:22952   */\n      or\n        /* \"#utility.yul\":22887:22975   */\n      iszero\n      tag_298\n      jumpi\n        /* \"#utility.yul\":22955:22973   */\n      tag_299\n      tag_50\n      jump\t// in\n    tag_299:\n        /* \"#utility.yul\":22887:22975   */\n    tag_298:\n        /* \"#utility.yul\":22995:23005   */\n      dup1\n        /* \"#utility.yul\":22991:22993   */\n      0x40\n        /* \"#utility.yul\":22984:23006   */\n      mstore\n        /* \"#utility.yul\":22774:23012   */\n      pop\n        /* \"#utility.yul\":22731:23012   */\n      pop\n      pop\n      jump\t// out\n        /* \"#utility.yul\":23018:23251   */\n    tag_45:\n        /* \"#utility.yul\":23057:23060   */\n      0x00\n        /* \"#utility.yul\":23080:23104   */\n      tag_301\n        /* \"#utility.yul\":23098:23103   */\n      dup3\n        /* \"#utility.yul\":23080:23104   */\n      tag_273\n      jump\t// in\n    tag_301:\n        /* \"#utility.yul\":23071:23104   */\n      swap2\n      pop\n        /* \"#utility.yul\":23126:23192   */\n      0xffffffffffffffffffffffffffffffffffffffffffffffffffffffffffffffff\n        /* \"#utility.yul\":23119:23124   */\n      dup3\n        /* \"#utility.yul\":23116:23193   */\n      eq\n        /* \"#utility.yul\":23113:23216   */\n      iszero\n      tag_302\n      jumpi\n        /* \"#utility.yul\":23196:23214   */\n      tag_303\n      tag_277\n      jump\t// in\n    tag_303:\n        /* \"#utility.yul\":23113:23216   */\n    tag_302:\n        /* \"#utility.yul\":23243:23244   */\n      0x01\n        /* \"#utility.yul\":23236:23241   */\n      dup3\n        /* \"#utility.yul\":23232:23245   */\n      add\n        /* \"#utility.yul\":23225:23245   */\n      swap1\n      pop\n        /* \"#utility.yul\":23018:23251   */\n      swap2\n      swap1\n      pop\n      jump\t// out\n        /* \"#utility.yul\":23257:23433   */\n    tag_57:\n        /* \"#utility.yul\":23289:23290   */\n      0x00\n        /* \"#utility.yul\":23306:23326   */\n      tag_305\n        /* \"#utility.yul\":23324:23325   */\n      dup3\n        /* \"#utility.yul\":23306:23326   */\n      tag_273\n      jump\t// in\n    tag_305:\n        /* \"#utility.yul\":23301:23326   */\n      swap2\n      pop\n        /* \"#utility.yul\":23340:23360   */\n      tag_306\n        /* \"#utility.yul\":23358:23359   */\n      dup4\n        /* \"#utility.yul\":23340:23360   */\n      tag_273\n      jump\t// in\n    tag_306:\n        /* \"#utility.yul\":23335:23360   */\n      swap3\n      pop\n        /* \"#utility.yul\":23379:23380   */\n      dup3\n        /* \"#utility.yul\":23369:23404   */\n      tag_307\n      jumpi\n        /* \"#utility.yul\":23384:23402   */\n      tag_308\n      tag_283\n      jump\t// in\n    tag_308:\n        /* \"#utility.yul\":23369:23404   */\n    tag_307:\n        /* \"#utility.yul\":23425:23426   */\n      dup3\n        /* \"#utility.yul\":23422:23423   */\n      dup3\n        /* \"#utility.yul\":23418:23427   */\n      mod\n        /* \"#utility.yul\":23413:23427   */\n      swap1\n      pop\n        /* \"#utility.yul\":23257:23433   */\n      swap3\n      swap2\n      pop\n      pop\n      jump\t// out\n        /* \"#utility.yul\":23439:23619   */\n    tag_277:\n        /* \"#utility.yul\":23487:23564   */\n      0x4e487b7100000000000000000000000000000000000000000000000000000000\n        /* \"#utility.yul\":23484:23485   */\n      0x00\n        /* \"#utility.yul\":23477:23565   */\n      mstore\n        /* \"#utility.yul\":23584:23588   */\n      0x11\n        /* \"#utility.yul\":23581:23582   */\n      0x04\n        /* \"#utility.yul\":23574:23589   */\n      mstore\n        /* \"#utility.yul\":23608:23612   */\n      0x24\n        /* \"#utility.yul\":23605:23606   */\n      0x00\n        /* \"#utility.yul\":23598:23613   */\n      revert\n        /* \"#utility.yul\":23625:23805   */\n    tag_283:\n        /* \"#utility.yul\":23673:23750   */\n      0x4e487b7100000000000000000000000000000000000000000000000000000000\n        /* \"#utility.yul\":23670:23671   */\n      0x00\n        /* \"#utility.yul\":23663:23751   */\n      mstore\n        /* \"#utility.yul\":23770:23774   */\n      0x12\n        /* \"#utility.yul\":23767:23768   */\n      0x04\n        /* \"#utility.yul\":23760:23775   */\n      mstore\n        /* \"#utility.yul\":23794:23798   */\n      0x24\n        /* \"#utility.yul\":23791:23792   */\n      0x00\n        /* \"#utility.yul\":23784:23799   */\n      revert\n        /* \"#utility.yul\":23811:23991   */\n    tag_62:\n        /* \"#utility.yul\":23859:23936   */\n      0x4e487b7100000000000000000000000000000000000000000000000000000000\n        /* \"#utility.yul\":23856:23857   */\n      0x00\n        /* \"#utility.yul\":23849:23937   */\n      mstore\n        /* \"#utility.yul\":23956:23960   */\n      0x32\n        /* \"#utility.yul\":23953:23954   */\n      0x04\n        /* \"#utility.yul\":23946:23961   */\n      mstore\n        /* \"#utility.yul\":23980:23984   */\n      0x24\n        /* \"#utility.yul\":23977:23978   */\n      0x00\n        /* \"#utility.yul\":23970:23985   */\n      revert\n        /* \"#utility.yul\":23997:24177   */\n    tag_50:\n        /* \"#utility.yul\":24045:24122   */\n      0x4e487b7100000000000000000000000000000000000000000000000000000000\n        /* \"#utility.yul\":24042:24043   */\n      0x00\n        /* \"#utility.yul\":24035:24123   */\n      mstore\n        /* \"#utility.yul\":24142:24146   */\n      0x41\n        /* \"#utility.yul\":24139:24140   */\n      0x04\n        /* \"#utility.yul\":24132:24147   */\n      mstore\n        /* \"#utility.yul\":24166:24170   */\n      0x24\n        /* \"#utility.yul\":24163:24164   */\n      0x00\n        /* \"#utility.yul\":24156:24171   */\n      revert\n        /* \"#utility.yul\":24183:24300   */\n    tag_80:\n        /* \"#utility.yul\":24292:24293   */\n      0x00\n        /* \"#utility.yul\":24289:24290   */\n      dup1\n        /* \"#utility.yul\":24282:24294   */\n      revert\n        /* \"#utility.yul\":24306:24423   */\n    tag_73:\n        /* \"#utility.yul\":24415:24416   */\n      0x00\n        /* \"#utility.yul\":24412:24413   */\n      dup1\n        /* \"#utility.yul\":24405:24417   */\n      revert\n        /* \"#utility.yul\":24429:24546   */\n    tag_95:\n        /* \"#utility.yul\":24538:24539   */\n      0x00\n        /* \"#utility.yul\":24535:24536   */\n      dup1\n        /* \"#utility.yul\":24528:24540   */\n      revert\n        /* \"#utility.yul\":24552:24669   */\n    tag_89:\n        /* \"#utility.yul\":24661:24662   */\n      0x00\n        /* \"#utility.yul\":24658:24659   */\n      dup1\n        /* \"#utility.yul\":24651:24663   */\n      revert\n        /* \"#utility.yul\":24675:24777   */\n    tag_110:\n        /* \"#utility.yul\":24716:24722   */\n      0x00\n        /* \"#utility.yul\":24767:24769   */\n      0x1f\n        /* \"#utility.yul\":24763:24770   */\n      not\n        /* \"#utility.yul\":24758:24760   */\n      0x1f\n        /* \"#utility.yul\":24751:24756   */\n      dup4\n        /* \"#utility.yul\":24747:24761   */\n      add\n        /* \"#utility.yul\":24743:24771   */\n      and\n        /* \"#utility.yul\":24733:24771   */\n      swap1\n      pop\n        /* \"#utility.yul\":24675:24777   */\n      swap2\n      swap1\n      pop\n      jump\t// out\n        /* \"#utility.yul\":24783:24940   */\n    tag_121:\n        /* \"#utility.yul\":24923:24932   */\n      0x2365343032323700000000000000000000000000000000000000000000000000\n        /* \"#utility.yul\":24919:24920   */\n      0x00\n        /* \"#utility.yul\":24911:24917   */\n      dup3\n        /* \"#utility.yul\":24907:24921   */\n      add\n        /* \"#utility.yul\":24900:24933   */\n      mstore\n        /* \"#utility.yul\":24783:24940   */\n      pop\n      jump\t// out\n        /* \"#utility.yul\":24946:25240   */\n    tag_126:\n        /* \"#utility.yul\":25086:25120   */\n      0x2e7469746c65207b20746578742d616e63686f723a206c6566743b20666f6e74\n        /* \"#utility.yul\":25082:25083   */\n      0x00\n        /* \"#utility.yul\":25074:25080   */\n      dup3\n        /* \"#utility.yul\":25070:25084   */\n      add\n        /* \"#utility.yul\":25063:25121   */\n      mstore\n        /* \"#utility.yul\":25159:25193   */\n      0x2d7765696768743a20626f6c643b20666f6e742d73697a653a20312e35656d3b\n        /* \"#utility.yul\":25154:25156   */\n      0x20\n        /* \"#utility.yul\":25146:25152   */\n      dup3\n        /* \"#utility.yul\":25142:25157   */\n      add\n        /* \"#utility.yul\":25135:25194   */\n      mstore\n        /* \"#utility.yul\":25228:25232   */\n      0x207d000000000000000000000000000000000000000000000000000000000000\n        /* \"#utility.yul\":25223:25225   */\n      0x40\n        /* \"#utility.yul\":25215:25221   */\n      dup3\n        /* \"#utility.yul\":25211:25226   */\n      add\n        /* \"#utility.yul\":25204:25233   */\n      mstore\n        /* \"#utility.yul\":24946:25240   */\n      pop\n      jump\t// out\n        /* \"#utility.yul\":25246:25460   */\n    tag_131:\n        /* \"#utility.yul\":25386:25452   */\n      0x3c7465787420783d2232302220793d2233343022203e47616d65733a20000000\n        /* \"#utility.yul\":25382:25383   */\n      0x00\n        /* \"#utility.yul\":25374:25380   */\n      dup3\n        /* \"#utility.yul\":25370:25384   */\n      add\n        /* \"#utility.yul\":25363:25453   */\n      mstore\n        /* \"#utility.yul\":25246:25460   */\n      pop\n      jump\t// out\n        /* \"#utility.yul\":25466:25680   */\n    tag_136:\n        /* \"#utility.yul\":25606:25672   */\n      0x3c7465787420783d2232302220793d2233383022203e506f736974696f6e3a20\n        /* \"#utility.yul\":25602:25603   */\n      0x00\n        /* \"#utility.yul\":25594:25600   */\n      dup3\n        /* \"#utility.yul\":25590:25604   */\n      add\n        /* \"#utility.yul\":25583:25673   */\n      mstore\n        /* \"#utility.yul\":25466:25680   */\n      pop\n      jump\t// out\n        /* \"#utility.yul\":25686:25900   */\n    tag_141:\n        /* \"#utility.yul\":25826:25892   */\n      0x3c7465787420783d2232302220793d2233363022203e476f616c733a20000000\n        /* \"#utility.yul\":25822:25823   */\n      0x00\n        /* \"#utility.yul\":25814:25820   */\n      dup3\n        /* \"#utility.yul\":25810:25824   */\n      add\n        /* \"#utility.yul\":25803:25893   */\n      mstore\n        /* \"#utility.yul\":25686:25900   */\n      pop\n      jump\t// out\n        /* \"#utility.yul\":25906:26120   */\n    tag_146:\n        /* \"#utility.yul\":26046:26112   */\n      0x3c7465787420783d2232302220793d2233323022203e47616d65706c61793a20\n        /* \"#utility.yul\":26042:26043   */\n      0x00\n        /* \"#utility.yul\":26034:26040   */\n      dup3\n        /* \"#utility.yul\":26030:26044   */\n      add\n        /* \"#utility.yul\":26023:26113   */\n      mstore\n        /* \"#utility.yul\":25906:26120   */\n      pop\n      jump\t// out\n        /* \"#utility.yul\":26126:26284   */\n    tag_151:\n        /* \"#utility.yul\":26266:26276   */\n      0x3c2f7374796c653e000000000000000000000000000000000000000000000000\n        /* \"#utility.yul\":26262:26263   */\n      0x00\n        /* \"#utility.yul\":26254:26260   */\n      dup3\n        /* \"#utility.yul\":26250:26264   */\n      add\n        /* \"#utility.yul\":26243:26277   */\n      mstore\n        /* \"#utility.yul\":26126:26284   */\n      pop\n      jump\t// out\n        /* \"#utility.yul\":26290:26504   */\n    tag_156:\n        /* \"#utility.yul\":26430:26496   */\n      0x22202f3e00000000000000000000000000000000000000000000000000000000\n        /* \"#utility.yul\":26426:26427   */\n      0x00\n        /* \"#utility.yul\":26418:26424   */\n      dup3\n        /* \"#utility.yul\":26414:26428   */\n      add\n        /* \"#utility.yul\":26407:26497   */\n      mstore\n        /* \"#utility.yul\":26290:26504   */\n      pop\n      jump\t// out\n        /* \"#utility.yul\":26510:26825   */\n    tag_161:\n        /* \"#utility.yul\":26650:26716   */\n      0x3c726563742077696474683d223130302522206865696768743d223130302522\n        /* \"#utility.yul\":26646:26647   */\n      0x00\n        /* \"#utility.yul\":26638:26644   */\n      dup3\n        /* \"#utility.yul\":26634:26648   */\n      add\n        /* \"#utility.yul\":26627:26717   */\n      mstore\n        /* \"#utility.yul\":26751:26817   */\n      0x2066696c6c3d2200000000000000000000000000000000000000000000000000\n        /* \"#utility.yul\":26746:26748   */\n      0x20\n        /* \"#utility.yul\":26738:26744   */\n      dup3\n        /* \"#utility.yul\":26734:26749   */\n      add\n        /* \"#utility.yul\":26727:26818   */\n      mstore\n        /* \"#utility.yul\":26510:26825   */\n      pop\n      jump\t// out\n        /* \"#utility.yul\":26831:27146   */\n    tag_166:\n        /* \"#utility.yul\":26971:27037   */\n      0x3c7465787420783d2238302220793d2234302220636c6173733d227469746c65\n        /* \"#utility.yul\":26967:26968   */\n      0x00\n        /* \"#utility.yul\":26959:26965   */\n      dup3\n        /* \"#utility.yul\":26955:26969   */\n      add\n        /* \"#utility.yul\":26948:27038   */\n      mstore\n        /* \"#utility.yul\":27072:27138   */\n      0x223e000000000000000000000000000000000000000000000000000000000000\n        /* \"#utility.yul\":27067:27069   */\n      0x20\n        /* \"#utility.yul\":27059:27065   */\n      dup3\n        /* \"#utility.yul\":27055:27070   */\n      add\n        /* \"#utility.yul\":27048:27139   */\n      mstore\n        /* \"#utility.yul\":26831:27146   */\n      pop\n      jump\t// out\n        /* \"#utility.yul\":27152:27309   */\n    tag_171:\n        /* \"#utility.yul\":27292:27301   */\n      0x3c2f746578743e00000000000000000000000000000000000000000000000000\n        /* \"#utility.yul\":27288:27289   */\n      0x00\n        /* \"#utility.yul\":27280:27286   */\n      dup3\n        /* \"#utility.yul\":27276:27290   */\n      add\n        /* \"#utility.yul\":27269:27302   */\n      mstore\n        /* \"#utility.yul\":27152:27309   */\n      pop\n      jump\t// out\n        /* \"#utility.yul\":27315:29902   */\n    tag_176:\n        /* \"#utility.yul\":27455:27521   */\n      0x3c70617468207374796c653d2266696c6c3a23666665343439222020643d226d\n        /* \"#utility.yul\":27451:27452   */\n      0x00\n        /* \"#utility.yul\":27443:27449   */\n      dup3\n        /* \"#utility.yul\":27439:27453   */\n      add\n        /* \"#utility.yul\":27432:27522   */\n      mstore\n        /* \"#utility.yul\":27556:27590   */\n      0x202d332e32303136393439652d362c31313539206320322e3133343436333365\n        /* \"#utility.yul\":27551:27553   */\n      0x20\n        /* \"#utility.yul\":27543:27549   */\n      dup3\n        /* \"#utility.yul\":27539:27554   */\n      add\n        /* \"#utility.yul\":27532:27591   */\n      mstore\n        /* \"#utility.yul\":27625:27659   */\n      0x2d362c3020312e30363732333136652d362c3020302c30207a204d20302e3132\n        /* \"#utility.yul\":27620:27622   */\n      0x40\n        /* \"#utility.yul\":27612:27618   */\n      dup3\n        /* \"#utility.yul\":27608:27623   */\n      add\n        /* \"#utility.yul\":27601:27660   */\n      mstore\n        /* \"#utility.yul\":27694:27728   */\n      0x36383036382c3238392e37352063202d302e30383435333738372c3537392e35\n        /* \"#utility.yul\":27689:27691   */\n      0x60\n        /* \"#utility.yul\":27681:27687   */\n      dup3\n        /* \"#utility.yul\":27677:27692   */\n      add\n        /* \"#utility.yul\":27670:27729   */\n      mstore\n        /* \"#utility.yul\":27764:27798   */\n      0x202d302e30343232363839332c3238392e373520302c30207a206d203230372e\n        /* \"#utility.yul\":27758:27761   */\n      0x80\n        /* \"#utility.yul\":27750:27756   */\n      dup3\n        /* \"#utility.yul\":27746:27762   */\n      add\n        /* \"#utility.yul\":27739:27799   */\n      mstore\n        /* \"#utility.yul\":27834:27868   */\n      0x313930353933322c342e35323131312033342e383137342c2d32352e33343835\n        /* \"#utility.yul\":27828:27831   */\n      0xa0\n        /* \"#utility.yul\":27820:27826   */\n      dup3\n        /* \"#utility.yul\":27816:27832   */\n      add\n        /* \"#utility.yul\":27809:27869   */\n      mstore\n        /* \"#utility.yul\":27904:27938   */\n      0x392033342e3432392c32352e303337353420632031382e3933362c31332e3737\n        /* \"#utility.yul\":27898:27901   */\n      0xc0\n        /* \"#utility.yul\":27890:27896   */\n      dup3\n        /* \"#utility.yul\":27886:27902   */\n      add\n        /* \"#utility.yul\":27879:27939   */\n      mstore\n        /* \"#utility.yul\":27974:28008   */\n      0x3036352033342e393933312c32352e31353035382033352e363832362c32352e\n        /* \"#utility.yul\":27968:27971   */\n      0xe0\n        /* \"#utility.yul\":27960:27966   */\n      dup3\n        /* \"#utility.yul\":27956:27972   */\n      add\n        /* \"#utility.yul\":27949:28009   */\n      mstore\n        /* \"#utility.yul\":28044:28078   */\n      0x323838373420302e363839352c302e313338313620312e313330372c2d302e34\n        /* \"#utility.yul\":28038:28041   */\n      0x0100\n        /* \"#utility.yul\":28030:28036   */\n      dup3\n        /* \"#utility.yul\":28026:28042   */\n      add\n        /* \"#utility.yul\":28019:28079   */\n      mstore\n        /* \"#utility.yul\":28114:28148   */\n      0x3935353420302e393830362c2d312e3430383231202d302e313530322c2d302e\n        /* \"#utility.yul\":28108:28111   */\n      0x0120\n        /* \"#utility.yul\":28100:28106   */\n      dup3\n        /* \"#utility.yul\":28096:28112   */\n      add\n        /* \"#utility.yul\":28089:28149   */\n      mstore\n        /* \"#utility.yul\":28184:28218   */\n      0x3931323638202d362e313130312c2d31392e3537343234202d31332e32343432\n        /* \"#utility.yul\":28178:28181   */\n      0x0140\n        /* \"#utility.yul\":28170:28176   */\n      dup3\n        /* \"#utility.yul\":28166:28182   */\n      add\n        /* \"#utility.yul\":28159:28219   */\n      mstore\n        /* \"#utility.yul\":28254:28288   */\n      0x2c2d34312e3437303133202d31302e313837382c2d33312e3236383136202d31\n        /* \"#utility.yul\":28248:28251   */\n      0x0160\n        /* \"#utility.yul\":28240:28246   */\n      dup3\n        /* \"#utility.yul\":28236:28252   */\n      add\n        /* \"#utility.yul\":28229:28289   */\n      mstore\n        /* \"#utility.yul\":28324:28358   */\n      0x322e373034312c2d34302e3035313237202d31312e3732372c2d34302e393331\n        /* \"#utility.yul\":28318:28321   */\n      0x0180\n        /* \"#utility.yul\":28310:28316   */\n      dup3\n        /* \"#utility.yul\":28306:28322   */\n      add\n        /* \"#utility.yul\":28299:28359   */\n      mstore\n        /* \"#utility.yul\":28394:28428   */\n      0x373520302e363834332c2d302e36313635372031372e31343938332c2d31312e\n        /* \"#utility.yul\":28388:28391   */\n      0x01a0\n        /* \"#utility.yul\":28380:28386   */\n      dup3\n        /* \"#utility.yul\":28376:28392   */\n      add\n        /* \"#utility.yul\":28369:28429   */\n      mstore\n        /* \"#utility.yul\":28464:28498   */\n      0x37393238382033352e373030392c2d32362e3032393837204c203335382e3431\n        /* \"#utility.yul\":28458:28461   */\n      0x01c0\n        /* \"#utility.yul\":28450:28456   */\n      dup3\n        /* \"#utility.yul\":28446:28462   */\n      add\n        /* \"#utility.yul\":28439:28499   */\n      mstore\n        /* \"#utility.yul\":28534:28568   */\n      0x33342c3138342e35203331342e303731312c313834203236392e373238372c31\n        /* \"#utility.yul\":28528:28531   */\n      0x01e0\n        /* \"#utility.yul\":28520:28526   */\n      dup3\n        /* \"#utility.yul\":28516:28532   */\n      add\n        /* \"#utility.yul\":28509:28569   */\n      mstore\n        /* \"#utility.yul\":28604:28638   */\n      0x38332e35203235362e343837382c3134322e37303637352063202d342e373236\n        /* \"#utility.yul\":28598:28601   */\n      0x0200\n        /* \"#utility.yul\":28590:28596   */\n      dup3\n        /* \"#utility.yul\":28586:28602   */\n      add\n        /* \"#utility.yul\":28579:28639   */\n      mstore\n        /* \"#utility.yul\":28674:28708   */\n      0x30332c2d31332e3439303036202d31302e31373033352c2d32392e3331343534\n        /* \"#utility.yul\":28668:28671   */\n      0x0220\n        /* \"#utility.yul\":28660:28666   */\n      dup3\n        /* \"#utility.yul\":28656:28672   */\n      add\n        /* \"#utility.yul\":28649:28709   */\n      mstore\n        /* \"#utility.yul\":28744:28778   */\n      0x202d31342e34333234362c2d34322e3332353634202d302e3236352c302e3236\n        /* \"#utility.yul\":28738:28741   */\n      0x0240\n        /* \"#utility.yul\":28730:28736   */\n      dup3\n        /* \"#utility.yul\":28726:28742   */\n      add\n        /* \"#utility.yul\":28719:28779   */\n      mstore\n        /* \"#utility.yul\":28814:28848   */\n      0x343938202d362e39303230342c31392e3431353635202d31342e30393235342c\n        /* \"#utility.yul\":28808:28811   */\n      0x0260\n        /* \"#utility.yul\":28800:28806   */\n      dup3\n        /* \"#utility.yul\":28796:28812   */\n      add\n        /* \"#utility.yul\":28789:28849   */\n      mstore\n        /* \"#utility.yul\":28884:28918   */\n      0x34312e3631393137202d372e313930352c32322e3230333532202d31332e3330\n        /* \"#utility.yul\":28878:28881   */\n      0x0280\n        /* \"#utility.yul\":28870:28876   */\n      dup3\n        /* \"#utility.yul\":28866:28882   */\n      add\n        /* \"#utility.yul\":28859:28919   */\n      mstore\n        /* \"#utility.yul\":28954:28988   */\n      0x30332c34302e3733363731202d31332e353737322c34312e3138343838204320\n        /* \"#utility.yul\":28948:28951   */\n      0x02a0\n        /* \"#utility.yul\":28940:28946   */\n      dup3\n        /* \"#utility.yul\":28936:28952   */\n      add\n        /* \"#utility.yul\":28929:28989   */\n      mstore\n        /* \"#utility.yul\":29024:29058   */\n      0x3231342e313038362c3138332e3633333332203139342e333333352c31383420\n        /* \"#utility.yul\":29018:29021   */\n      0x02c0\n        /* \"#utility.yul\":29010:29016   */\n      dup3\n        /* \"#utility.yul\":29006:29022   */\n      add\n        /* \"#utility.yul\":28999:29059   */\n      mstore\n        /* \"#utility.yul\":29094:29128   */\n      0x3137302e3434312c3138342063202d32332e38393235372c30202d34332e3432\n        /* \"#utility.yul\":29088:29091   */\n      0x02e0\n        /* \"#utility.yul\":29080:29086   */\n      dup3\n        /* \"#utility.yul\":29076:29092   */\n      add\n        /* \"#utility.yul\":29069:29129   */\n      mstore\n        /* \"#utility.yul\":29164:29198   */\n      0x3838382c302e33333735202d34332e34313430352c302e373520302e30313438\n        /* \"#utility.yul\":29158:29161   */\n      0x0300\n        /* \"#utility.yul\":29150:29156   */\n      dup3\n        /* \"#utility.yul\":29146:29162   */\n      add\n        /* \"#utility.yul\":29139:29199   */\n      mstore\n        /* \"#utility.yul\":29234:29268   */\n      0x2c302e343132352031352e37363438332c31322e313530322033352e30303030\n        /* \"#utility.yul\":29228:29231   */\n      0x0320\n        /* \"#utility.yul\":29220:29226   */\n      dup3\n        /* \"#utility.yul\":29216:29232   */\n      add\n        /* \"#utility.yul\":29209:29269   */\n      mstore\n        /* \"#utility.yul\":29304:29338   */\n      0x352c32362e30383337392031392e323335312c31332e39333335392033342e39\n        /* \"#utility.yul\":29298:29301   */\n      0x0340\n        /* \"#utility.yul\":29290:29296   */\n      dup3\n        /* \"#utility.yul\":29286:29302   */\n      add\n        /* \"#utility.yul\":29279:29339   */\n      mstore\n        /* \"#utility.yul\":29374:29408   */\n      0x3732352c32352e36333335392033342e3937322c3236202d36652d342c302e33\n        /* \"#utility.yul\":29368:29371   */\n      0x0360\n        /* \"#utility.yul\":29360:29366   */\n      dup3\n        /* \"#utility.yul\":29356:29372   */\n      add\n        /* \"#utility.yul\":29349:29409   */\n      mstore\n        /* \"#utility.yul\":29444:29478   */\n      0x36363432202d362e303735322c31392e3334313231202d31332e3439392c3432\n        /* \"#utility.yul\":29438:29441   */\n      0x0380\n        /* \"#utility.yul\":29430:29436   */\n      dup3\n        /* \"#utility.yul\":29426:29442   */\n      add\n        /* \"#utility.yul\":29419:29479   */\n      mstore\n        /* \"#utility.yul\":29514:29548   */\n      0x2e3136363231202d372e343233392c32322e383235202d31332e343938342c34\n        /* \"#utility.yul\":29508:29511   */\n      0x03a0\n        /* \"#utility.yul\":29500:29506   */\n      dup3\n        /* \"#utility.yul\":29496:29512   */\n      add\n        /* \"#utility.yul\":29489:29549   */\n      mstore\n        /* \"#utility.yul\":29584:29618   */\n      0x312e3633393036202d31332e3439392c34312e383039303220302c302e353836\n        /* \"#utility.yul\":29578:29581   */\n      0x03c0\n        /* \"#utility.yul\":29570:29576   */\n      dup3\n        /* \"#utility.yul\":29566:29582   */\n      add\n        /* \"#utility.yul\":29559:29619   */\n      mstore\n        /* \"#utility.yul\":29654:29688   */\n      0x393320322e36333631322c2d312e32383931352033372e333136342c2d32362e\n        /* \"#utility.yul\":29648:29651   */\n      0x03e0\n        /* \"#utility.yul\":29640:29646   */\n      dup3\n        /* \"#utility.yul\":29636:29652   */\n      add\n        /* \"#utility.yul\":29629:29689   */\n      mstore\n        /* \"#utility.yul\":29725:29791   */\n      0x3533373931207a22207472616e73666f726d3d227472616e736c617465283330\n        /* \"#utility.yul\":29718:29722   */\n      0x0400\n        /* \"#utility.yul\":29710:29716   */\n      dup3\n        /* \"#utility.yul\":29706:29723   */\n      add\n        /* \"#utility.yul\":29699:29792   */\n      mstore\n        /* \"#utility.yul\":29828:29894   */\n      0x302c31323029207363616c6528302e3229222f3e000000000000000000000000\n        /* \"#utility.yul\":29821:29825   */\n      0x0420\n        /* \"#utility.yul\":29813:29819   */\n      dup3\n        /* \"#utility.yul\":29809:29826   */\n      add\n        /* \"#utility.yul\":29802:29895   */\n      mstore\n        /* \"#utility.yul\":27315:29902   */\n      pop\n      jump\t// out\n        /* \"#utility.yul\":29908:30061   */\n    tag_181:\n        /* \"#utility.yul\":30048:30053   */\n      0x6d696e0000000000000000000000000000000000000000000000000000000000\n        /* \"#utility.yul\":30044:30045   */\n      0x00\n        /* \"#utility.yul\":30036:30042   */\n      dup3\n        /* \"#utility.yul\":30032:30046   */\n      add\n        /* \"#utility.yul\":30025:30054   */\n      mstore\n        /* \"#utility.yul\":29908:30061   */\n      pop\n      jump\t// out\n        /* \"#utility.yul\":30067:32654   */\n    tag_186:\n        /* \"#utility.yul\":30207:30273   */\n      0x3c70617468207374796c653d2266696c6c3a23623262396263222020643d226d\n        /* \"#utility.yul\":30203:30204   */\n      0x00\n        /* \"#utility.yul\":30195:30201   */\n      dup3\n        /* \"#utility.yul\":30191:30205   */\n      add\n        /* \"#utility.yul\":30184:30274   */\n      mstore\n        /* \"#utility.yul\":30308:30342   */\n      0x202d332e32303136393439652d362c31313539206320322e3133343436333365\n        /* \"#utility.yul\":30303:30305   */\n      0x20\n        /* \"#utility.yul\":30295:30301   */\n      dup3\n        /* \"#utility.yul\":30291:30306   */\n      add\n        /* \"#utility.yul\":30284:30343   */\n      mstore\n        /* \"#utility.yul\":30377:30411   */\n      0x2d362c3020312e30363732333136652d362c3020302c30207a204d20302e3132\n        /* \"#utility.yul\":30372:30374   */\n      0x40\n        /* \"#utility.yul\":30364:30370   */\n      dup3\n        /* \"#utility.yul\":30360:30375   */\n      add\n        /* \"#utility.yul\":30353:30412   */\n      mstore\n        /* \"#utility.yul\":30446:30480   */\n      0x36383036382c3238392e37352063202d302e30383435333738372c3537392e35\n        /* \"#utility.yul\":30441:30443   */\n      0x60\n        /* \"#utility.yul\":30433:30439   */\n      dup3\n        /* \"#utility.yul\":30429:30444   */\n      add\n        /* \"#utility.yul\":30422:30481   */\n      mstore\n        /* \"#utility.yul\":30516:30550   */\n      0x202d302e30343232363839332c3238392e373520302c30207a206d203230372e\n        /* \"#utility.yul\":30510:30513   */\n      0x80\n        /* \"#utility.yul\":30502:30508   */\n      dup3\n        /* \"#utility.yul\":30498:30514   */\n      add\n        /* \"#utility.yul\":30491:30551   */\n      mstore\n        /* \"#utility.yul\":30586:30620   */\n      0x313930353933322c342e35323131312033342e383137342c2d32352e33343835\n        /* \"#utility.yul\":30580:30583   */\n      0xa0\n        /* \"#utility.yul\":30572:30578   */\n      dup3\n        /* \"#utility.yul\":30568:30584   */\n      add\n        /* \"#utility.yul\":30561:30621   */\n      mstore\n        /* \"#utility.yul\":30656:30690   */\n      0x392033342e3432392c32352e303337353420632031382e3933362c31332e3737\n        /* \"#utility.yul\":30650:30653   */\n      0xc0\n        /* \"#utility.yul\":30642:30648   */\n      dup3\n        /* \"#utility.yul\":30638:30654   */\n      add\n        /* \"#utility.yul\":30631:30691   */\n      mstore\n        /* \"#utility.yul\":30726:30760   */\n      0x3036352033342e393933312c32352e31353035382033352e363832362c32352e\n        /* \"#utility.yul\":30720:30723   */\n      0xe0\n        /* \"#utility.yul\":30712:30718   */\n      dup3\n        /* \"#utility.yul\":30708:30724   */\n      add\n        /* \"#utility.yul\":30701:30761   */\n      mstore\n        /* \"#utility.yul\":30796:30830   */\n      0x323838373420302e363839352c302e313338313620312e313330372c2d302e34\n        /* \"#utility.yul\":30790:30793   */\n      0x0100\n        /* \"#utility.yul\":30782:30788   */\n      dup3\n        /* \"#utility.yul\":30778:30794   */\n      add\n        /* \"#utility.yul\":30771:30831   */\n      mstore\n        /* \"#utility.yul\":30866:30900   */\n      0x3935353420302e393830362c2d312e3430383231202d302e313530322c2d302e\n        /* \"#utility.yul\":30860:30863   */\n      0x0120\n        /* \"#utility.yul\":30852:30858   */\n      dup3\n        /* \"#utility.yul\":30848:30864   */\n      add\n        /* \"#utility.yul\":30841:30901   */\n      mstore\n        /* \"#utility.yul\":30936:30970   */\n      0x3931323638202d362e313130312c2d31392e3537343234202d31332e32343432\n        /* \"#utility.yul\":30930:30933   */\n      0x0140\n        /* \"#utility.yul\":30922:30928   */\n      dup3\n        /* \"#utility.yul\":30918:30934   */\n      add\n        /* \"#utility.yul\":30911:30971   */\n      mstore\n        /* \"#utility.yul\":31006:31040   */\n      0x2c2d34312e3437303133202d31302e313837382c2d33312e3236383136202d31\n        /* \"#utility.yul\":31000:31003   */\n      0x0160\n        /* \"#utility.yul\":30992:30998   */\n      dup3\n        /* \"#utility.yul\":30988:31004   */\n      add\n        /* \"#utility.yul\":30981:31041   */\n      mstore\n        /* \"#utility.yul\":31076:31110   */\n      0x322e373034312c2d34302e3035313237202d31312e3732372c2d34302e393331\n        /* \"#utility.yul\":31070:31073   */\n      0x0180\n        /* \"#utility.yul\":31062:31068   */\n      dup3\n        /* \"#utility.yul\":31058:31074   */\n      add\n        /* \"#utility.yul\":31051:31111   */\n      mstore\n        /* \"#utility.yul\":31146:31180   */\n      0x373520302e363834332c2d302e36313635372031372e31343938332c2d31312e\n        /* \"#utility.yul\":31140:31143   */\n      0x01a0\n        /* \"#utility.yul\":31132:31138   */\n      dup3\n        /* \"#utility.yul\":31128:31144   */\n      add\n        /* \"#utility.yul\":31121:31181   */\n      mstore\n        /* \"#utility.yul\":31216:31250   */\n      0x37393238382033352e373030392c2d32362e3032393837204c203335382e3431\n        /* \"#utility.yul\":31210:31213   */\n      0x01c0\n        /* \"#utility.yul\":31202:31208   */\n      dup3\n        /* \"#utility.yul\":31198:31214   */\n      add\n        /* \"#utility.yul\":31191:31251   */\n      mstore\n        /* \"#utility.yul\":31286:31320   */\n      0x33342c3138342e35203331342e303731312c313834203236392e373238372c31\n        /* \"#utility.yul\":31280:31283   */\n      0x01e0\n        /* \"#utility.yul\":31272:31278   */\n      dup3\n        /* \"#utility.yul\":31268:31284   */\n      add\n        /* \"#utility.yul\":31261:31321   */\n      mstore\n        /* \"#utility.yul\":31356:31390   */\n      0x38332e35203235362e343837382c3134322e37303637352063202d342e373236\n        /* \"#utility.yul\":31350:31353   */\n      0x0200\n        /* \"#utility.yul\":31342:31348   */\n      dup3\n        /* \"#utility.yul\":31338:31354   */\n      add\n        /* \"#utility.yul\":31331:31391   */\n      mstore\n        /* \"#utility.yul\":31426:31460   */\n      0x30332c2d31332e3439303036202d31302e31373033352c2d32392e3331343534\n        /* \"#utility.yul\":31420:31423   */\n      0x0220\n        /* \"#utility.yul\":31412:31418   */\n      dup3\n        /* \"#utility.yul\":31408:31424   */\n      add\n        /* \"#utility.yul\":31401:31461   */\n      mstore\n        /* \"#utility.yul\":31496:31530   */\n      0x202d31342e34333234362c2d34322e3332353634202d302e3236352c302e3236\n        /* \"#utility.yul\":31490:31493   */\n      0x0240\n        /* \"#utility.yul\":31482:31488   */\n      dup3\n        /* \"#utility.yul\":31478:31494   */\n      add\n        /* \"#utility.yul\":31471:31531   */\n      mstore\n        /* \"#utility.yul\":31566:31600   */\n      0x343938202d362e39303230342c31392e3431353635202d31342e30393235342c\n        /* \"#utility.yul\":31560:31563   */\n      0x0260\n        /* \"#utility.yul\":31552:31558   */\n      dup3\n        /* \"#utility.yul\":31548:31564   */\n      add\n        /* \"#utility.yul\":31541:31601   */\n      mstore\n        /* \"#utility.yul\":31636:31670   */\n      0x34312e3631393137202d372e313930352c32322e3230333532202d31332e3330\n        /* \"#utility.yul\":31630:31633   */\n      0x0280\n        /* \"#utility.yul\":31622:31628   */\n      dup3\n        /* \"#utility.yul\":31618:31634   */\n      add\n        /* \"#utility.yul\":31611:31671   */\n      mstore\n        /* \"#utility.yul\":31706:31740   */\n      0x30332c34302e3733363731202d31332e353737322c34312e3138343838204320\n        /* \"#utility.yul\":31700:31703   */\n      0x02a0\n        /* \"#utility.yul\":31692:31698   */\n      dup3\n        /* \"#utility.yul\":31688:31704   */\n      add\n        /* \"#utility.yul\":31681:31741   */\n      mstore\n        /* \"#utility.yul\":31776:31810   */\n      0x3231342e313038362c3138332e3633333332203139342e333333352c31383420\n        /* \"#utility.yul\":31770:31773   */\n      0x02c0\n        /* \"#utility.yul\":31762:31768   */\n      dup3\n        /* \"#utility.yul\":31758:31774   */\n      add\n        /* \"#utility.yul\":31751:31811   */\n      mstore\n        /* \"#utility.yul\":31846:31880   */\n      0x3137302e3434312c3138342063202d32332e38393235372c30202d34332e3432\n        /* \"#utility.yul\":31840:31843   */\n      0x02e0\n        /* \"#utility.yul\":31832:31838   */\n      dup3\n        /* \"#utility.yul\":31828:31844   */\n      add\n        /* \"#utility.yul\":31821:31881   */\n      mstore\n        /* \"#utility.yul\":31916:31950   */\n      0x3838382c302e33333735202d34332e34313430352c302e373520302e30313438\n        /* \"#utility.yul\":31910:31913   */\n      0x0300\n        /* \"#utility.yul\":31902:31908   */\n      dup3\n        /* \"#utility.yul\":31898:31914   */\n      add\n        /* \"#utility.yul\":31891:31951   */\n      mstore\n        /* \"#utility.yul\":31986:32020   */\n      0x2c302e343132352031352e37363438332c31322e313530322033352e30303030\n        /* \"#utility.yul\":31980:31983   */\n      0x0320\n        /* \"#utility.yul\":31972:31978   */\n      dup3\n        /* \"#utility.yul\":31968:31984   */\n      add\n        /* \"#utility.yul\":31961:32021   */\n      mstore\n        /* \"#utility.yul\":32056:32090   */\n      0x352c32362e30383337392031392e323335312c31332e39333335392033342e39\n        /* \"#utility.yul\":32050:32053   */\n      0x0340\n        /* \"#utility.yul\":32042:32048   */\n      dup3\n        /* \"#utility.yul\":32038:32054   */\n      add\n        /* \"#utility.yul\":32031:32091   */\n      mstore\n        /* \"#utility.yul\":32126:32160   */\n      0x3732352c32352e36333335392033342e3937322c3236202d36652d342c302e33\n        /* \"#utility.yul\":32120:32123   */\n      0x0360\n        /* \"#utility.yul\":32112:32118   */\n      dup3\n        /* \"#utility.yul\":32108:32124   */\n      add\n        /* \"#utility.yul\":32101:32161   */\n      mstore\n        /* \"#utility.yul\":32196:32230   */\n      0x36363432202d362e303735322c31392e3334313231202d31332e3439392c3432\n        /* \"#utility.yul\":32190:32193   */\n      0x0380\n        /* \"#utility.yul\":32182:32188   */\n      dup3\n        /* \"#utility.yul\":32178:32194   */\n      add\n        /* \"#utility.yul\":32171:32231   */\n      mstore\n        /* \"#utility.yul\":32266:32300   */\n      0x2e3136363231202d372e343233392c32322e383235202d31332e343938342c34\n        /* \"#utility.yul\":32260:32263   */\n      0x03a0\n        /* \"#utility.yul\":32252:32258   */\n      dup3\n        /* \"#utility.yul\":32248:32264   */\n      add\n        /* \"#utility.yul\":32241:32301   */\n      mstore\n        /* \"#utility.yul\":32336:32370   */\n      0x312e3633393036202d31332e3439392c34312e383039303220302c302e353836\n        /* \"#utility.yul\":32330:32333   */\n      0x03c0\n        /* \"#utility.yul\":32322:32328   */\n      dup3\n        /* \"#utility.yul\":32318:32334   */\n      add\n        /* \"#utility.yul\":32311:32371   */\n      mstore\n        /* \"#utility.yul\":32406:32440   */\n      0x393320322e36333631322c2d312e32383931352033372e333136342c2d32362e\n        /* \"#utility.yul\":32400:32403   */\n      0x03e0\n        /* \"#utility.yul\":32392:32398   */\n      dup3\n        /* \"#utility.yul\":32388:32404   */\n      add\n        /* \"#utility.yul\":32381:32441   */\n      mstore\n        /* \"#utility.yul\":32477:32543   */\n      0x3533373931207a22207472616e73666f726d3d227472616e736c617465283330\n        /* \"#utility.yul\":32470:32474   */\n      0x0400\n        /* \"#utility.yul\":32462:32468   */\n      dup3\n        /* \"#utility.yul\":32458:32475   */\n      add\n        /* \"#utility.yul\":32451:32544   */\n      mstore\n        /* \"#utility.yul\":32580:32646   */\n      0x302c363029207363616c6528302e3229222f3e00000000000000000000000000\n        /* \"#utility.yul\":32573:32577   */\n      0x0420\n        /* \"#utility.yul\":32565:32571   */\n      dup3\n        /* \"#utility.yul\":32561:32578   */\n      add\n        /* \"#utility.yul\":32554:32647   */\n      mstore\n        /* \"#utility.yul\":30067:32654   */\n      pop\n      jump\t// out\n        /* \"#utility.yul\":32660:32816   */\n    tag_191:\n        /* \"#utility.yul\":32800:32808   */\n      0x3c2f7376673e0000000000000000000000000000000000000000000000000000\n        /* \"#utility.yul\":32796:32797   */\n      0x00\n        /* \"#utility.yul\":32788:32794   */\n      dup3\n        /* \"#utility.yul\":32784:32798   */\n      add\n        /* \"#utility.yul\":32777:32809   */\n      mstore\n        /* \"#utility.yul\":32660:32816   */\n      pop\n      jump\t// out\n        /* \"#utility.yul\":32822:35409   */\n    tag_196:\n        /* \"#utility.yul\":32962:33028   */\n      0x3c70617468207374796c653d2266696c6c3a23396335323231222020643d226d\n        /* \"#utility.yul\":32958:32959   */\n      0x00\n        /* \"#utility.yul\":32950:32956   */\n      dup3\n        /* \"#utility.yul\":32946:32960   */\n      add\n        /* \"#utility.yul\":32939:33029   */\n      mstore\n        /* \"#utility.yul\":33063:33097   */\n      0x202d332e32303136393439652d362c31313539206320322e3133343436333365\n        /* \"#utility.yul\":33058:33060   */\n      0x20\n        /* \"#utility.yul\":33050:33056   */\n      dup3\n        /* \"#utility.yul\":33046:33061   */\n      add\n        /* \"#utility.yul\":33039:33098   */\n      mstore\n        /* \"#utility.yul\":33132:33166   */\n      0x2d362c3020312e30363732333136652d362c3020302c30207a204d20302e3132\n        /* \"#utility.yul\":33127:33129   */\n      0x40\n        /* \"#utility.yul\":33119:33125   */\n      dup3\n        /* \"#utility.yul\":33115:33130   */\n      add\n        /* \"#utility.yul\":33108:33167   */\n      mstore\n        /* \"#utility.yul\":33201:33235   */\n      0x36383036382c3238392e37352063202d302e30383435333738372c3537392e35\n        /* \"#utility.yul\":33196:33198   */\n      0x60\n        /* \"#utility.yul\":33188:33194   */\n      dup3\n        /* \"#utility.yul\":33184:33199   */\n      add\n        /* \"#utility.yul\":33177:33236   */\n      mstore\n        /* \"#utility.yul\":33271:33305   */\n      0x202d302e30343232363839332c3238392e373520302c30207a206d203230372e\n        /* \"#utility.yul\":33265:33268   */\n      0x80\n        /* \"#utility.yul\":33257:33263   */\n      dup3\n        /* \"#utility.yul\":33253:33269   */\n      add\n        /* \"#utility.yul\":33246:33306   */\n      mstore\n        /* \"#utility.yul\":33341:33375   */\n      0x313930353933322c342e35323131312033342e383137342c2d32352e33343835\n        /* \"#utility.yul\":33335:33338   */\n      0xa0\n        /* \"#utility.yul\":33327:33333   */\n      dup3\n        /* \"#utility.yul\":33323:33339   */\n      add\n        /* \"#utility.yul\":33316:33376   */\n      mstore\n        /* \"#utility.yul\":33411:33445   */\n      0x392033342e3432392c32352e303337353420632031382e3933362c31332e3737\n        /* \"#utility.yul\":33405:33408   */\n      0xc0\n        /* \"#utility.yul\":33397:33403   */\n      dup3\n        /* \"#utility.yul\":33393:33409   */\n      add\n        /* \"#utility.yul\":33386:33446   */\n      mstore\n        /* \"#utility.yul\":33481:33515   */\n      0x3036352033342e393933312c32352e31353035382033352e363832362c32352e\n        /* \"#utility.yul\":33475:33478   */\n      0xe0\n        /* \"#utility.yul\":33467:33473   */\n      dup3\n        /* \"#utility.yul\":33463:33479   */\n      add\n        /* \"#utility.yul\":33456:33516   */\n      mstore\n        /* \"#utility.yul\":33551:33585   */\n      0x323838373420302e363839352c302e313338313620312e313330372c2d302e34\n        /* \"#utility.yul\":33545:33548   */\n      0x0100\n        /* \"#utility.yul\":33537:33543   */\n      dup3\n        /* \"#utility.yul\":33533:33549   */\n      add\n        /* \"#utility.yul\":33526:33586   */\n      mstore\n        /* \"#utility.yul\":33621:33655   */\n      0x3935353420302e393830362c2d312e3430383231202d302e313530322c2d302e\n        /* \"#utility.yul\":33615:33618   */\n      0x0120\n        /* \"#utility.yul\":33607:33613   */\n      dup3\n        /* \"#utility.yul\":33603:33619   */\n      add\n        /* \"#utility.yul\":33596:33656   */\n      mstore\n        /* \"#utility.yul\":33691:33725   */\n      0x3931323638202d362e313130312c2d31392e3537343234202d31332e32343432\n        /* \"#utility.yul\":33685:33688   */\n      0x0140\n        /* \"#utility.yul\":33677:33683   */\n      dup3\n        /* \"#utility.yul\":33673:33689   */\n      add\n        /* \"#utility.yul\":33666:33726   */\n      mstore\n        /* \"#utility.yul\":33761:33795   */\n      0x2c2d34312e3437303133202d31302e313837382c2d33312e3236383136202d31\n        /* \"#utility.yul\":33755:33758   */\n      0x0160\n        /* \"#utility.yul\":33747:33753   */\n      dup3\n        /* \"#utility.yul\":33743:33759   */\n      add\n        /* \"#utility.yul\":33736:33796   */\n      mstore\n        /* \"#utility.yul\":33831:33865   */\n      0x322e373034312c2d34302e3035313237202d31312e3732372c2d34302e393331\n        /* \"#utility.yul\":33825:33828   */\n      0x0180\n        /* \"#utility.yul\":33817:33823   */\n      dup3\n        /* \"#utility.yul\":33813:33829   */\n      add\n        /* \"#utility.yul\":33806:33866   */\n      mstore\n        /* \"#utility.yul\":33901:33935   */\n      0x373520302e363834332c2d302e36313635372031372e31343938332c2d31312e\n        /* \"#utility.yul\":33895:33898   */\n      0x01a0\n        /* \"#utility.yul\":33887:33893   */\n      dup3\n        /* \"#utility.yul\":33883:33899   */\n      add\n        /* \"#utility.yul\":33876:33936   */\n      mstore\n        /* \"#utility.yul\":33971:34005   */\n      0x37393238382033352e373030392c2d32362e3032393837204c203335382e3431\n        /* \"#utility.yul\":33965:33968   */\n      0x01c0\n        /* \"#utility.yul\":33957:33963   */\n      dup3\n        /* \"#utility.yul\":33953:33969   */\n      add\n        /* \"#utility.yul\":33946:34006   */\n      mstore\n        /* \"#utility.yul\":34041:34075   */\n      0x33342c3138342e35203331342e303731312c313834203236392e373238372c31\n        /* \"#utility.yul\":34035:34038   */\n      0x01e0\n        /* \"#utility.yul\":34027:34033   */\n      dup3\n        /* \"#utility.yul\":34023:34039   */\n      add\n        /* \"#utility.yul\":34016:34076   */\n      mstore\n        /* \"#utility.yul\":34111:34145   */\n      0x38332e35203235362e343837382c3134322e37303637352063202d342e373236\n        /* \"#utility.yul\":34105:34108   */\n      0x0200\n        /* \"#utility.yul\":34097:34103   */\n      dup3\n        /* \"#utility.yul\":34093:34109   */\n      add\n        /* \"#utility.yul\":34086:34146   */\n      mstore\n        /* \"#utility.yul\":34181:34215   */\n      0x30332c2d31332e3439303036202d31302e31373033352c2d32392e3331343534\n        /* \"#utility.yul\":34175:34178   */\n      0x0220\n        /* \"#utility.yul\":34167:34173   */\n      dup3\n        /* \"#utility.yul\":34163:34179   */\n      add\n        /* \"#utility.yul\":34156:34216   */\n      mstore\n        /* \"#utility.yul\":34251:34285   */\n      0x202d31342e34333234362c2d34322e3332353634202d302e3236352c302e3236\n        /* \"#utility.yul\":34245:34248   */\n      0x0240\n        /* \"#utility.yul\":34237:34243   */\n      dup3\n        /* \"#utility.yul\":34233:34249   */\n      add\n        /* \"#utility.yul\":34226:34286   */\n      mstore\n        /* \"#utility.yul\":34321:34355   */\n      0x343938202d362e39303230342c31392e3431353635202d31342e30393235342c\n        /* \"#utility.yul\":34315:34318   */\n      0x0260\n        /* \"#utility.yul\":34307:34313   */\n      dup3\n        /* \"#utility.yul\":34303:34319   */\n      add\n        /* \"#utility.yul\":34296:34356   */\n      mstore\n        /* \"#utility.yul\":34391:34425   */\n      0x34312e3631393137202d372e313930352c32322e3230333532202d31332e3330\n        /* \"#utility.yul\":34385:34388   */\n      0x0280\n        /* \"#utility.yul\":34377:34383   */\n      dup3\n        /* \"#utility.yul\":34373:34389   */\n      add\n        /* \"#utility.yul\":34366:34426   */\n      mstore\n        /* \"#utility.yul\":34461:34495   */\n      0x30332c34302e3733363731202d31332e353737322c34312e3138343838204320\n        /* \"#utility.yul\":34455:34458   */\n      0x02a0\n        /* \"#utility.yul\":34447:34453   */\n      dup3\n        /* \"#utility.yul\":34443:34459   */\n      add\n        /* \"#utility.yul\":34436:34496   */\n      mstore\n        /* \"#utility.yul\":34531:34565   */\n      0x3231342e313038362c3138332e3633333332203139342e333333352c31383420\n        /* \"#utility.yul\":34525:34528   */\n      0x02c0\n        /* \"#utility.yul\":34517:34523   */\n      dup3\n        /* \"#utility.yul\":34513:34529   */\n      add\n        /* \"#utility.yul\":34506:34566   */\n      mstore\n        /* \"#utility.yul\":34601:34635   */\n      0x3137302e3434312c3138342063202d32332e38393235372c30202d34332e3432\n        /* \"#utility.yul\":34595:34598   */\n      0x02e0\n        /* \"#utility.yul\":34587:34593   */\n      dup3\n        /* \"#utility.yul\":34583:34599   */\n      add\n        /* \"#utility.yul\":34576:34636   */\n      mstore\n        /* \"#utility.yul\":34671:34705   */\n      0x3838382c302e33333735202d34332e34313430352c302e373520302e30313438\n        /* \"#utility.yul\":34665:34668   */\n      0x0300\n        /* \"#utility.yul\":34657:34663   */\n      dup3\n        /* \"#utility.yul\":34653:34669   */\n      add\n        /* \"#utility.yul\":34646:34706   */\n      mstore\n        /* \"#utility.yul\":34741:34775   */\n      0x2c302e343132352031352e37363438332c31322e313530322033352e30303030\n        /* \"#utility.yul\":34735:34738   */\n      0x0320\n        /* \"#utility.yul\":34727:34733   */\n      dup3\n        /* \"#utility.yul\":34723:34739   */\n      add\n        /* \"#utility.yul\":34716:34776   */\n      mstore\n        /* \"#utility.yul\":34811:34845   */\n      0x352c32362e30383337392031392e323335312c31332e39333335392033342e39\n        /* \"#utility.yul\":34805:34808   */\n      0x0340\n        /* \"#utility.yul\":34797:34803   */\n      dup3\n        /* \"#utility.yul\":34793:34809   */\n      add\n        /* \"#utility.yul\":34786:34846   */\n      mstore\n        /* \"#utility.yul\":34881:34915   */\n      0x3732352c32352e36333335392033342e3937322c3236202d36652d342c302e33\n        /* \"#utility.yul\":34875:34878   */\n      0x0360\n        /* \"#utility.yul\":34867:34873   */\n      dup3\n        /* \"#utility.yul\":34863:34879   */\n      add\n        /* \"#utility.yul\":34856:34916   */\n      mstore\n        /* \"#utility.yul\":34951:34985   */\n      0x36363432202d362e303735322c31392e3334313231202d31332e3439392c3432\n        /* \"#utility.yul\":34945:34948   */\n      0x0380\n        /* \"#utility.yul\":34937:34943   */\n      dup3\n        /* \"#utility.yul\":34933:34949   */\n      add\n        /* \"#utility.yul\":34926:34986   */\n      mstore\n        /* \"#utility.yul\":35021:35055   */\n      0x2e3136363231202d372e343233392c32322e383235202d31332e343938342c34\n        /* \"#utility.yul\":35015:35018   */\n      0x03a0\n        /* \"#utility.yul\":35007:35013   */\n      dup3\n        /* \"#utility.yul\":35003:35019   */\n      add\n        /* \"#utility.yul\":34996:35056   */\n      mstore\n        /* \"#utility.yul\":35091:35125   */\n      0x312e3633393036202d31332e3439392c34312e383039303220302c302e353836\n        /* \"#utility.yul\":35085:35088   */\n      0x03c0\n        /* \"#utility.yul\":35077:35083   */\n      dup3\n        /* \"#utility.yul\":35073:35089   */\n      add\n        /* \"#utility.yul\":35066:35126   */\n      mstore\n        /* \"#utility.yul\":35161:35195   */\n      0x393320322e36333631322c2d312e32383931352033372e333136342c2d32362e\n        /* \"#utility.yul\":35155:35158   */\n      0x03e0\n        /* \"#utility.yul\":35147:35153   */\n      dup3\n        /* \"#utility.yul\":35143:35159   */\n      add\n        /* \"#utility.yul\":35136:35196   */\n      mstore\n        /* \"#utility.yul\":35232:35298   */\n      0x3533373931207a22207472616e73666f726d3d227472616e736c617465283330\n        /* \"#utility.yul\":35225:35229   */\n      0x0400\n        /* \"#utility.yul\":35217:35223   */\n      dup3\n        /* \"#utility.yul\":35213:35230   */\n      add\n        /* \"#utility.yul\":35206:35299   */\n      mstore\n        /* \"#utility.yul\":35335:35401   */\n      0x302c3029207363616c6528302e3229222f3e0000000000000000000000000000\n        /* \"#utility.yul\":35328:35332   */\n      0x0420\n        /* \"#utility.yul\":35320:35326   */\n      dup3\n        /* \"#utility.yul\":35316:35333   */\n      add\n        /* \"#utility.yul\":35309:35402   */\n      mstore\n        /* \"#utility.yul\":32822:35409   */\n      pop\n      jump\t// out\n        /* \"#utility.yul\":35415:35572   */\n    tag_201:\n        /* \"#utility.yul\":35555:35564   */\n      0x3c7374796c653e00000000000000000000000000000000000000000000000000\n        /* \"#utility.yul\":35551:35552   */\n      0x00\n        /* \"#utility.yul\":35543:35549   */\n      dup3\n        /* \"#utility.yul\":35539:35553   */\n      add\n        /* \"#utility.yul\":35532:35565   */\n      mstore\n        /* \"#utility.yul\":35415:35572   */\n      pop\n      jump\t// out\n        /* \"#utility.yul\":35578:35949   */\n    tag_206:\n        /* \"#utility.yul\":35718:35752   */\n      0x74657874207b20666f6e742d66616d696c793a20417269616c2c2048656c7665\n        /* \"#utility.yul\":35714:35715   */\n      0x00\n        /* \"#utility.yul\":35706:35712   */\n      dup3\n        /* \"#utility.yul\":35702:35716   */\n      add\n        /* \"#utility.yul\":35695:35753   */\n      mstore\n        /* \"#utility.yul\":35791:35825   */\n      0x746963612c2073616e732d73657269663b20666f6e742d7765696768743a2020\n        /* \"#utility.yul\":35786:35788   */\n      0x20\n        /* \"#utility.yul\":35778:35784   */\n      dup3\n        /* \"#utility.yul\":35774:35789   */\n      add\n        /* \"#utility.yul\":35767:35826   */\n      mstore\n        /* \"#utility.yul\":35864:35898   */\n      0x626f6c643b2066696c6c3a20236666653530303b20666f6e742d73697a653a20\n        /* \"#utility.yul\":35859:35861   */\n      0x40\n        /* \"#utility.yul\":35851:35857   */\n      dup3\n        /* \"#utility.yul\":35847:35862   */\n      add\n        /* \"#utility.yul\":35840:35899   */\n      mstore\n        /* \"#utility.yul\":35933:35941   */\n      0x31656d3b207d0000000000000000000000000000000000000000000000000000\n        /* \"#utility.yul\":35928:35930   */\n      0x60\n        /* \"#utility.yul\":35920:35926   */\n      dup3\n        /* \"#utility.yul\":35916:35931   */\n      add\n        /* \"#utility.yul\":35909:35942   */\n      mstore\n        /* \"#utility.yul\":35578:35949   */\n      pop\n      jump\t// out\n        /* \"#utility.yul\":35955:36077   */\n    tag_85:\n        /* \"#utility.yul\":36028:36052   */\n      tag_337\n        /* \"#utility.yul\":36046:36051   */\n      dup2\n        /* \"#utility.yul\":36028:36052   */\n      tag_273\n      jump\t// in\n    tag_337:\n        /* \"#utility.yul\":36021:36026   */\n      dup2\n        /* \"#utility.yul\":36018:36053   */\n      eq\n        /* \"#utility.yul\":36008:36071   */\n      tag_338\n      jumpi\n        /* \"#utility.yul\":36067:36068   */\n      0x00\n        /* \"#utility.yul\":36064:36065   */\n      dup1\n        /* \"#utility.yul\":36057:36069   */\n      revert\n        /* \"#utility.yul\":36008:36071   */\n    tag_338:\n        /* \"#utility.yul\":35955:36077   */\n      pop\n      jump\t// out\n    stop\n    data_13ee12525b78d1800c98700a3c7bb02c6ed5e8636ea4bf89bace0c534940e1ba 3c7376672077696474683d2233393022206865696768743d22343335222066696c6c3d22677265656e2220786d6c6e733d22687474703a2f2f7777772e77332e6f72672f323030302f737667223e\n\n    auxdata: 0xa26469706673582212208f6ce3670aee0d74990e7886e3cc587c9ba07fcac737939ef5c16f396e216d7764736f6c63430008070033\n}\n",
				"bytecode": {
					"linkReferences": {},
					"object": "60806040523480156200001157600080fd5b506040516200233f3803806200233f83398181016040528101906200003791906200019d565b846000806101000a81548173ffffffffffffffffffffffffffffffffffffffff021916908373ffffffffffffffffffffffffffffffffffffffff16021790555083600160006101000a81548173ffffffffffffffffffffffffffffffffffffffff021916908373ffffffffffffffffffffffffffffffffffffffff16021790555082600260006101000a81548173ffffffffffffffffffffffffffffffffffffffff021916908373ffffffffffffffffffffffffffffffffffffffff16021790555081600360006101000a81548173ffffffffffffffffffffffffffffffffffffffff021916908373ffffffffffffffffffffffffffffffffffffffff16021790555080600460006101000a81548173ffffffffffffffffffffffffffffffffffffffff021916908373ffffffffffffffffffffffffffffffffffffffff160217905550505050505062000278565b60008151905062000197816200025e565b92915050565b600080600080600060a08688031215620001bc57620001bb62000259565b5b6000620001cc8882890162000186565b9550506020620001df8882890162000186565b9450506040620001f28882890162000186565b9350506060620002058882890162000186565b9250506080620002188882890162000186565b9150509295509295909350565b6000620002328262000239565b9050919050565b600073ffffffffffffffffffffffffffffffffffffffff82169050919050565b600080fd5b620002698162000225565b81146200027557600080fd5b50565b6120b780620002886000396000f3fe608060405234801561001057600080fd5b506004361061002b5760003560e01c8063c737029614610030575b600080fd5b61004a60048036038101906100459190610423565b610060565b60405161005791906109fe565b60405180910390f35b60606040518060800160405280604e8152602001612034604e913990508060405160200161008e91906109bb565b6040516020818303038152906040529050806040516020016100b091906108c1565b6040516020818303038152906040529050600082111561014557806040516020016100db9190610999565b6040516020818303038152906040529050600182111561014457806040516020016101069190610955565b6040516020818303038152906040529050600282111561014357806040516020016101319190610933565b60405160208183030381529060405290505b5b5b80846040516020016101589291906108f9565b6040516020818303038152906040529050806101738861023d565b60405160200161018492919061087c565b60405160208183030381529060405290508061019f8761023d565b6040516020016101b09291906107ce565b6040516020818303038152906040529050806101cb8661023d565b6040516020016101dc929190610842565b60405160208183030381529060405290508083604051602001610200929190610808565b6040516020818303038152906040529050806040516020016102229190610977565b60405160208183030381529060405290509695505050505050565b60606000821415610285576040518060400160405280600181526020017f30000000000000000000000000000000000000000000000000000000000000008152509050610399565b600082905060005b600082146102b75780806102a090610bd5565b915050600a826102b09190610af3565b915061028d565b60008167ffffffffffffffff8111156102d3576102d2610cdc565b5b6040519080825280601f01601f1916602001820160405280156103055781602001600182028036833780820191505090505b5090505b600085146103925760018261031e9190610b24565b9150600a8561032d9190610c1e565b60306103399190610a9d565b60f81b81838151811061034f5761034e610cad565b5b60200101907effffffffffffffffffffffffffffffffffffffffffffffffffffffffffffff1916908160001a905350600a8561038b9190610af3565b9450610309565b8093505050505b919050565b60006103b16103ac84610a45565b610a20565b9050828152602081018484840111156103cd576103cc610d10565b5b6103d8848285610b62565b509392505050565b600082601f8301126103f5576103f4610d0b565b5b813561040584826020860161039e565b91505092915050565b60008135905061041d8161201c565b92915050565b60008060008060008060c087890312156104405761043f610d1a565b5b600061044e89828a0161040e565b965050602061045f89828a0161040e565b955050604061047089828a0161040e565b945050606087013567ffffffffffffffff81111561049157610490610d15565b5b61049d89828a016103e0565b935050608087013567ffffffffffffffff8111156104be576104bd610d15565b5b6104ca89828a016103e0565b92505060a06104db89828a0161040e565b9150509295509295509295565b60006104f382610a76565b6104fd8185610a81565b935061050d818560208601610b71565b61051681610d1f565b840191505092915050565b600061052c82610a76565b6105368185610a92565b9350610546818560208601610b71565b80840191505092915050565b600061055f600783610a92565b915061056a82610d30565b600782019050919050565b6000610582604283610a92565b915061058d82610d59565b604282019050919050565b60006105a5601d83610a92565b91506105b082610dce565b601d82019050919050565b60006105c8602083610a92565b91506105d382610df7565b602082019050919050565b60006105eb601d83610a92565b91506105f682610e20565b601d82019050919050565b600061060e602083610a92565b915061061982610e49565b602082019050919050565b6000610631600883610a92565b915061063c82610e72565b600882019050919050565b6000610654600483610a92565b915061065f82610e9b565b600482019050919050565b6000610677602783610a92565b915061068282610ec4565b602782019050919050565b600061069a602283610a92565b91506106a582610f13565b602282019050919050565b60006106bd600783610a92565b91506106c882610f62565b600782019050919050565b60006106e161043483610a92565b91506106ec82610f8b565b61043482019050919050565b6000610705600383610a92565b9150610710826114b4565b600382019050919050565b600061072961043383610a92565b9150610734826114dd565b61043382019050919050565b600061074d600683610a92565b915061075882611a06565b600682019050919050565b600061077161043283610a92565b915061077c82611a2f565b61043282019050919050565b6000610795600783610a92565b91506107a082611f58565b600782019050919050565b60006107b8606683610a92565b91506107c382611f81565b606682019050919050565b60006107da8285610521565b91506107e582610598565b91506107f18284610521565b91506107fc826106b0565b91508190509392505050565b60006108148285610521565b915061081f826105bb565b915061082b8284610521565b9150610836826106b0565b91508190509392505050565b600061084e8285610521565b9150610859826105de565b91506108658284610521565b9150610870826106b0565b91508190509392505050565b60006108888285610521565b915061089382610601565b915061089f8284610521565b91506108aa826106f8565b91506108b5826106b0565b91508190509392505050565b60006108cd8284610521565b91506108d88261066a565b91506108e382610552565b91506108ee82610647565b915081905092915050565b60006109058285610521565b91506109108261068d565b915061091c8284610521565b9150610927826106b0565b91508190509392505050565b600061093f8284610521565b915061094a826106d3565b915081905092915050565b60006109618284610521565b915061096c8261071b565b915081905092915050565b60006109838284610521565b915061098e82610740565b915081905092915050565b60006109a58284610521565b91506109b082610763565b915081905092915050565b60006109c78284610521565b91506109d282610788565b91506109dd826107ab565b91506109e882610575565b91506109f382610624565b915081905092915050565b60006020820190508181036000830152610a1881846104e8565b905092915050565b6000610a2a610a3b565b9050610a368282610ba4565b919050565b6000604051905090565b600067ffffffffffffffff821115610a6057610a5f610cdc565b5b610a6982610d1f565b9050602081019050919050565b600081519050919050565b600082825260208201905092915050565b600081905092915050565b6000610aa882610b58565b9150610ab383610b58565b9250827fffffffffffffffffffffffffffffffffffffffffffffffffffffffffffffffff03821115610ae857610ae7610c4f565b5b828201905092915050565b6000610afe82610b58565b9150610b0983610b58565b925082610b1957610b18610c7e565b5b828204905092915050565b6000610b2f82610b58565b9150610b3a83610b58565b925082821015610b4d57610b4c610c4f565b5b828203905092915050565b6000819050919050565b82818337600083830152505050565b60005b83811015610b8f578082015181840152602081019050610b74565b83811115610b9e576000848401525b50505050565b610bad82610d1f565b810181811067ffffffffffffffff82111715610bcc57610bcb610cdc565b5b80604052505050565b6000610be082610b58565b91507fffffffffffffffffffffffffffffffffffffffffffffffffffffffffffffffff821415610c1357610c12610c4f565b5b600182019050919050565b6000610c2982610b58565b9150610c3483610b58565b925082610c4457610c43610c7e565b5b828206905092915050565b7f4e487b7100000000000000000000000000000000000000000000000000000000600052601160045260246000fd5b7f4e487b7100000000000000000000000000000000000000000000000000000000600052601260045260246000fd5b7f4e487b7100000000000000000000000000000000000000000000000000000000600052603260045260246000fd5b7f4e487b7100000000000000000000000000000000000000000000000000000000600052604160045260246000fd5b600080fd5b600080fd5b600080fd5b600080fd5b6000601f19601f8301169050919050565b7f2365343032323700000000000000000000000000000000000000000000000000600082015250565b7f2e7469746c65207b20746578742d616e63686f723a206c6566743b20666f6e7460008201527f2d7765696768743a20626f6c643b20666f6e742d73697a653a20312e35656d3b60208201527f207d000000000000000000000000000000000000000000000000000000000000604082015250565b7f3c7465787420783d2232302220793d2233343022203e47616d65733a20000000600082015250565b7f3c7465787420783d2232302220793d2233383022203e506f736974696f6e3a20600082015250565b7f3c7465787420783d2232302220793d2233363022203e476f616c733a20000000600082015250565b7f3c7465787420783d2232302220793d2233323022203e47616d65706c61793a20600082015250565b7f3c2f7374796c653e000000000000000000000000000000000000000000000000600082015250565b7f22202f3e00000000000000000000000000000000000000000000000000000000600082015250565b7f3c726563742077696474683d223130302522206865696768743d22313030252260008201527f2066696c6c3d2200000000000000000000000000000000000000000000000000602082015250565b7f3c7465787420783d2238302220793d2234302220636c6173733d227469746c6560008201527f223e000000000000000000000000000000000000000000000000000000000000602082015250565b7f3c2f746578743e00000000000000000000000000000000000000000000000000600082015250565b7f3c70617468207374796c653d2266696c6c3a23666665343439222020643d226d60008201527f202d332e32303136393439652d362c31313539206320322e313334343633336560208201527f2d362c3020312e30363732333136652d362c3020302c30207a204d20302e313260408201527f36383036382c3238392e37352063202d302e30383435333738372c3537392e3560608201527f202d302e30343232363839332c3238392e373520302c30207a206d203230372e60808201527f313930353933322c342e35323131312033342e383137342c2d32352e3334383560a08201527f392033342e3432392c32352e303337353420632031382e3933362c31332e373760c08201527f3036352033342e393933312c32352e31353035382033352e363832362c32352e60e08201527f323838373420302e363839352c302e313338313620312e313330372c2d302e346101008201527f3935353420302e393830362c2d312e3430383231202d302e313530322c2d302e6101208201527f3931323638202d362e313130312c2d31392e3537343234202d31332e323434326101408201527f2c2d34312e3437303133202d31302e313837382c2d33312e3236383136202d316101608201527f322e373034312c2d34302e3035313237202d31312e3732372c2d34302e3933316101808201527f373520302e363834332c2d302e36313635372031372e31343938332c2d31312e6101a08201527f37393238382033352e373030392c2d32362e3032393837204c203335382e34316101c08201527f33342c3138342e35203331342e303731312c313834203236392e373238372c316101e08201527f38332e35203235362e343837382c3134322e37303637352063202d342e3732366102008201527f30332c2d31332e3439303036202d31302e31373033352c2d32392e33313435346102208201527f202d31342e34333234362c2d34322e3332353634202d302e3236352c302e32366102408201527f343938202d362e39303230342c31392e3431353635202d31342e30393235342c6102608201527f34312e3631393137202d372e313930352c32322e3230333532202d31332e33306102808201527f30332c34302e3733363731202d31332e353737322c34312e31383438382043206102a08201527f3231342e313038362c3138332e3633333332203139342e333333352c313834206102c08201527f3137302e3434312c3138342063202d32332e38393235372c30202d34332e34326102e08201527f3838382c302e33333735202d34332e34313430352c302e373520302e303134386103008201527f2c302e343132352031352e37363438332c31322e313530322033352e303030306103208201527f352c32362e30383337392031392e323335312c31332e39333335392033342e396103408201527f3732352c32352e36333335392033342e3937322c3236202d36652d342c302e336103608201527f36363432202d362e303735322c31392e3334313231202d31332e3439392c34326103808201527f2e3136363231202d372e343233392c32322e383235202d31332e343938342c346103a08201527f312e3633393036202d31332e3439392c34312e383039303220302c302e3538366103c08201527f393320322e36333631322c2d312e32383931352033372e333136342c2d32362e6103e08201527f3533373931207a22207472616e73666f726d3d227472616e736c6174652833306104008201527f302c31323029207363616c6528302e3229222f3e00000000000000000000000061042082015250565b7f6d696e0000000000000000000000000000000000000000000000000000000000600082015250565b7f3c70617468207374796c653d2266696c6c3a23623262396263222020643d226d60008201527f202d332e32303136393439652d362c31313539206320322e313334343633336560208201527f2d362c3020312e30363732333136652d362c3020302c30207a204d20302e313260408201527f36383036382c3238392e37352063202d302e30383435333738372c3537392e3560608201527f202d302e30343232363839332c3238392e373520302c30207a206d203230372e60808201527f313930353933322c342e35323131312033342e383137342c2d32352e3334383560a08201527f392033342e3432392c32352e303337353420632031382e3933362c31332e373760c08201527f3036352033342e393933312c32352e31353035382033352e363832362c32352e60e08201527f323838373420302e363839352c302e313338313620312e313330372c2d302e346101008201527f3935353420302e393830362c2d312e3430383231202d302e313530322c2d302e6101208201527f3931323638202d362e313130312c2d31392e3537343234202d31332e323434326101408201527f2c2d34312e3437303133202d31302e313837382c2d33312e3236383136202d316101608201527f322e373034312c2d34302e3035313237202d31312e3732372c2d34302e3933316101808201527f373520302e363834332c2d302e36313635372031372e31343938332c2d31312e6101a08201527f37393238382033352e373030392c2d32362e3032393837204c203335382e34316101c08201527f33342c3138342e35203331342e303731312c313834203236392e373238372c316101e08201527f38332e35203235362e343837382c3134322e37303637352063202d342e3732366102008201527f30332c2d31332e3439303036202d31302e31373033352c2d32392e33313435346102208201527f202d31342e34333234362c2d34322e3332353634202d302e3236352c302e32366102408201527f343938202d362e39303230342c31392e3431353635202d31342e30393235342c6102608201527f34312e3631393137202d372e313930352c32322e3230333532202d31332e33306102808201527f30332c34302e3733363731202d31332e353737322c34312e31383438382043206102a08201527f3231342e313038362c3138332e3633333332203139342e333333352c313834206102c08201527f3137302e3434312c3138342063202d32332e38393235372c30202d34332e34326102e08201527f3838382c302e33333735202d34332e34313430352c302e373520302e303134386103008201527f2c302e343132352031352e37363438332c31322e313530322033352e303030306103208201527f352c32362e30383337392031392e323335312c31332e39333335392033342e396103408201527f3732352c32352e36333335392033342e3937322c3236202d36652d342c302e336103608201527f36363432202d362e303735322c31392e3334313231202d31332e3439392c34326103808201527f2e3136363231202d372e343233392c32322e383235202d31332e343938342c346103a08201527f312e3633393036202d31332e3439392c34312e383039303220302c302e3538366103c08201527f393320322e36333631322c2d312e32383931352033372e333136342c2d32362e6103e08201527f3533373931207a22207472616e73666f726d3d227472616e736c6174652833306104008201527f302c363029207363616c6528302e3229222f3e0000000000000000000000000061042082015250565b7f3c2f7376673e0000000000000000000000000000000000000000000000000000600082015250565b7f3c70617468207374796c653d2266696c6c3a23396335323231222020643d226d60008201527f202d332e32303136393439652d362c31313539206320322e313334343633336560208201527f2d362c3020312e30363732333136652d362c3020302c30207a204d20302e313260408201527f36383036382c3238392e37352063202d302e30383435333738372c3537392e3560608201527f202d302e30343232363839332c3238392e373520302c30207a206d203230372e60808201527f313930353933322c342e35323131312033342e383137342c2d32352e3334383560a08201527f392033342e3432392c32352e303337353420632031382e3933362c31332e373760c08201527f3036352033342e393933312c32352e31353035382033352e363832362c32352e60e08201527f323838373420302e363839352c302e313338313620312e313330372c2d302e346101008201527f3935353420302e393830362c2d312e3430383231202d302e313530322c2d302e6101208201527f3931323638202d362e313130312c2d31392e3537343234202d31332e323434326101408201527f2c2d34312e3437303133202d31302e313837382c2d33312e3236383136202d316101608201527f322e373034312c2d34302e3035313237202d31312e3732372c2d34302e3933316101808201527f373520302e363834332c2d302e36313635372031372e31343938332c2d31312e6101a08201527f37393238382033352e373030392c2d32362e3032393837204c203335382e34316101c08201527f33342c3138342e35203331342e303731312c313834203236392e373238372c316101e08201527f38332e35203235362e343837382c3134322e37303637352063202d342e3732366102008201527f30332c2d31332e3439303036202d31302e31373033352c2d32392e33313435346102208201527f202d31342e34333234362c2d34322e3332353634202d302e3236352c302e32366102408201527f343938202d362e39303230342c31392e3431353635202d31342e30393235342c6102608201527f34312e3631393137202d372e313930352c32322e3230333532202d31332e33306102808201527f30332c34302e3733363731202d31332e353737322c34312e31383438382043206102a08201527f3231342e313038362c3138332e3633333332203139342e333333352c313834206102c08201527f3137302e3434312c3138342063202d32332e38393235372c30202d34332e34326102e08201527f3838382c302e33333735202d34332e34313430352c302e373520302e303134386103008201527f2c302e343132352031352e37363438332c31322e313530322033352e303030306103208201527f352c32362e30383337392031392e323335312c31332e39333335392033342e396103408201527f3732352c32352e36333335392033342e3937322c3236202d36652d342c302e336103608201527f36363432202d362e303735322c31392e3334313231202d31332e3439392c34326103808201527f2e3136363231202d372e343233392c32322e383235202d31332e343938342c346103a08201527f312e3633393036202d31332e3439392c34312e383039303220302c302e3538366103c08201527f393320322e36333631322c2d312e32383931352033372e333136342c2d32362e6103e08201527f3533373931207a22207472616e73666f726d3d227472616e736c6174652833306104008201527f302c3029207363616c6528302e3229222f3e000000000000000000000000000061042082015250565b7f3c7374796c653e00000000000000000000000000000000000000000000000000600082015250565b7f74657874207b20666f6e742d66616d696c793a20417269616c2c2048656c766560008201527f746963612c2073616e732d73657269663b20666f6e742d7765696768743a202060208201527f626f6c643b2066696c6c3a20236666653530303b20666f6e742d73697a653a2060408201527f31656d3b207d0000000000000000000000000000000000000000000000000000606082015250565b61202581610b58565b811461203057600080fd5b5056fe3c7376672077696474683d2233393022206865696768743d22343335222066696c6c3d22677265656e2220786d6c6e733d22687474703a2f2f7777772e77332e6f72672f323030302f737667223ea26469706673582212208f6ce3670aee0d74990e7886e3cc587c9ba07fcac737939ef5c16f396e216d7764736f6c63430008070033",
					"opcodes": "PUSH1 0x80 PUSH1 0x40 MSTORE CALLVALUE DUP1 ISZERO PUSH3 0x11 JUMPI PUSH1 0x0 DUP1 REVERT JUMPDEST POP PUSH1 0x40 MLOAD PUSH3 0x233F CODESIZE SUB DUP1 PUSH3 0x233F DUP4 CODECOPY DUP2 DUP2 ADD PUSH1 0x40 MSTORE DUP2 ADD SWAP1 PUSH3 0x37 SWAP2 SWAP1 PUSH3 0x19D JUMP JUMPDEST DUP5 PUSH1 0x0 DUP1 PUSH2 0x100 EXP DUP2 SLOAD DUP2 PUSH20 0xFFFFFFFFFFFFFFFFFFFFFFFFFFFFFFFFFFFFFFFF MUL NOT AND SWAP1 DUP4 PUSH20 0xFFFFFFFFFFFFFFFFFFFFFFFFFFFFFFFFFFFFFFFF AND MUL OR SWAP1 SSTORE POP DUP4 PUSH1 0x1 PUSH1 0x0 PUSH2 0x100 EXP DUP2 SLOAD DUP2 PUSH20 0xFFFFFFFFFFFFFFFFFFFFFFFFFFFFFFFFFFFFFFFF MUL NOT AND SWAP1 DUP4 PUSH20 0xFFFFFFFFFFFFFFFFFFFFFFFFFFFFFFFFFFFFFFFF AND MUL OR SWAP1 SSTORE POP DUP3 PUSH1 0x2 PUSH1 0x0 PUSH2 0x100 EXP DUP2 SLOAD DUP2 PUSH20 0xFFFFFFFFFFFFFFFFFFFFFFFFFFFFFFFFFFFFFFFF MUL NOT AND SWAP1 DUP4 PUSH20 0xFFFFFFFFFFFFFFFFFFFFFFFFFFFFFFFFFFFFFFFF AND MUL OR SWAP1 SSTORE POP DUP2 PUSH1 0x3 PUSH1 0x0 PUSH2 0x100 EXP DUP2 SLOAD DUP2 PUSH20 0xFFFFFFFFFFFFFFFFFFFFFFFFFFFFFFFFFFFFFFFF MUL NOT AND SWAP1 DUP4 PUSH20 0xFFFFFFFFFFFFFFFFFFFFFFFFFFFFFFFFFFFFFFFF AND MUL OR SWAP1 SSTORE POP DUP1 PUSH1 0x4 PUSH1 0x0 PUSH2 0x100 EXP DUP2 SLOAD DUP2 PUSH20 0xFFFFFFFFFFFFFFFFFFFFFFFFFFFFFFFFFFFFFFFF MUL NOT AND SWAP1 DUP4 PUSH20 0xFFFFFFFFFFFFFFFFFFFFFFFFFFFFFFFFFFFFFFFF AND MUL OR SWAP1 SSTORE POP POP POP POP POP POP PUSH3 0x278 JUMP JUMPDEST PUSH1 0x0 DUP2 MLOAD SWAP1 POP PUSH3 0x197 DUP2 PUSH3 0x25E JUMP JUMPDEST SWAP3 SWAP2 POP POP JUMP JUMPDEST PUSH1 0x0 DUP1 PUSH1 0x0 DUP1 PUSH1 0x0 PUSH1 0xA0 DUP7 DUP9 SUB SLT ISZERO PUSH3 0x1BC JUMPI PUSH3 0x1BB PUSH3 0x259 JUMP JUMPDEST JUMPDEST PUSH1 0x0 PUSH3 0x1CC DUP9 DUP3 DUP10 ADD PUSH3 0x186 JUMP JUMPDEST SWAP6 POP POP PUSH1 0x20 PUSH3 0x1DF DUP9 DUP3 DUP10 ADD PUSH3 0x186 JUMP JUMPDEST SWAP5 POP POP PUSH1 0x40 PUSH3 0x1F2 DUP9 DUP3 DUP10 ADD PUSH3 0x186 JUMP JUMPDEST SWAP4 POP POP PUSH1 0x60 PUSH3 0x205 DUP9 DUP3 DUP10 ADD PUSH3 0x186 JUMP JUMPDEST SWAP3 POP POP PUSH1 0x80 PUSH3 0x218 DUP9 DUP3 DUP10 ADD PUSH3 0x186 JUMP JUMPDEST SWAP2 POP POP SWAP3 SWAP6 POP SWAP3 SWAP6 SWAP1 SWAP4 POP JUMP JUMPDEST PUSH1 0x0 PUSH3 0x232 DUP3 PUSH3 0x239 JUMP JUMPDEST SWAP1 POP SWAP2 SWAP1 POP JUMP JUMPDEST PUSH1 0x0 PUSH20 0xFFFFFFFFFFFFFFFFFFFFFFFFFFFFFFFFFFFFFFFF DUP3 AND SWAP1 POP SWAP2 SWAP1 POP JUMP JUMPDEST PUSH1 0x0 DUP1 REVERT JUMPDEST PUSH3 0x269 DUP2 PUSH3 0x225 JUMP JUMPDEST DUP2 EQ PUSH3 0x275 JUMPI PUSH1 0x0 DUP1 REVERT JUMPDEST POP JUMP JUMPDEST PUSH2 0x20B7 DUP1 PUSH3 0x288 PUSH1 0x0 CODECOPY PUSH1 0x0 RETURN INVALID PUSH1 0x80 PUSH1 0x40 MSTORE CALLVALUE DUP1 ISZERO PUSH2 0x10 JUMPI PUSH1 0x0 DUP1 REVERT JUMPDEST POP PUSH1 0x4 CALLDATASIZE LT PUSH2 0x2B JUMPI PUSH1 0x0 CALLDATALOAD PUSH1 0xE0 SHR DUP1 PUSH4 0xC7370296 EQ PUSH2 0x30 JUMPI JUMPDEST PUSH1 0x0 DUP1 REVERT JUMPDEST PUSH2 0x4A PUSH1 0x4 DUP1 CALLDATASIZE SUB DUP2 ADD SWAP1 PUSH2 0x45 SWAP2 SWAP1 PUSH2 0x423 JUMP JUMPDEST PUSH2 0x60 JUMP JUMPDEST PUSH1 0x40 MLOAD PUSH2 0x57 SWAP2 SWAP1 PUSH2 0x9FE JUMP JUMPDEST PUSH1 0x40 MLOAD DUP1 SWAP2 SUB SWAP1 RETURN JUMPDEST PUSH1 0x60 PUSH1 0x40 MLOAD DUP1 PUSH1 0x80 ADD PUSH1 0x40 MSTORE DUP1 PUSH1 0x4E DUP2 MSTORE PUSH1 0x20 ADD PUSH2 0x2034 PUSH1 0x4E SWAP2 CODECOPY SWAP1 POP DUP1 PUSH1 0x40 MLOAD PUSH1 0x20 ADD PUSH2 0x8E SWAP2 SWAP1 PUSH2 0x9BB JUMP JUMPDEST PUSH1 0x40 MLOAD PUSH1 0x20 DUP2 DUP4 SUB SUB DUP2 MSTORE SWAP1 PUSH1 0x40 MSTORE SWAP1 POP DUP1 PUSH1 0x40 MLOAD PUSH1 0x20 ADD PUSH2 0xB0 SWAP2 SWAP1 PUSH2 0x8C1 JUMP JUMPDEST PUSH1 0x40 MLOAD PUSH1 0x20 DUP2 DUP4 SUB SUB DUP2 MSTORE SWAP1 PUSH1 0x40 MSTORE SWAP1 POP PUSH1 0x0 DUP3 GT ISZERO PUSH2 0x145 JUMPI DUP1 PUSH1 0x40 MLOAD PUSH1 0x20 ADD PUSH2 0xDB SWAP2 SWAP1 PUSH2 0x999 JUMP JUMPDEST PUSH1 0x40 MLOAD PUSH1 0x20 DUP2 DUP4 SUB SUB DUP2 MSTORE SWAP1 PUSH1 0x40 MSTORE SWAP1 POP PUSH1 0x1 DUP3 GT ISZERO PUSH2 0x144 JUMPI DUP1 PUSH1 0x40 MLOAD PUSH1 0x20 ADD PUSH2 0x106 SWAP2 SWAP1 PUSH2 0x955 JUMP JUMPDEST PUSH1 0x40 MLOAD PUSH1 0x20 DUP2 DUP4 SUB SUB DUP2 MSTORE SWAP1 PUSH1 0x40 MSTORE SWAP1 POP PUSH1 0x2 DUP3 GT ISZERO PUSH2 0x143 JUMPI DUP1 PUSH1 0x40 MLOAD PUSH1 0x20 ADD PUSH2 0x131 SWAP2 SWAP1 PUSH2 0x933 JUMP JUMPDEST PUSH1 0x40 MLOAD PUSH1 0x20 DUP2 DUP4 SUB SUB DUP2 MSTORE SWAP1 PUSH1 0x40 MSTORE SWAP1 POP JUMPDEST JUMPDEST JUMPDEST DUP1 DUP5 PUSH1 0x40 MLOAD PUSH1 0x20 ADD PUSH2 0x158 SWAP3 SWAP2 SWAP1 PUSH2 0x8F9 JUMP JUMPDEST PUSH1 0x40 MLOAD PUSH1 0x20 DUP2 DUP4 SUB SUB DUP2 MSTORE SWAP1 PUSH1 0x40 MSTORE SWAP1 POP DUP1 PUSH2 0x173 DUP9 PUSH2 0x23D JUMP JUMPDEST PUSH1 0x40 MLOAD PUSH1 0x20 ADD PUSH2 0x184 SWAP3 SWAP2 SWAP1 PUSH2 0x87C JUMP JUMPDEST PUSH1 0x40 MLOAD PUSH1 0x20 DUP2 DUP4 SUB SUB DUP2 MSTORE SWAP1 PUSH1 0x40 MSTORE SWAP1 POP DUP1 PUSH2 0x19F DUP8 PUSH2 0x23D JUMP JUMPDEST PUSH1 0x40 MLOAD PUSH1 0x20 ADD PUSH2 0x1B0 SWAP3 SWAP2 SWAP1 PUSH2 0x7CE JUMP JUMPDEST PUSH1 0x40 MLOAD PUSH1 0x20 DUP2 DUP4 SUB SUB DUP2 MSTORE SWAP1 PUSH1 0x40 MSTORE SWAP1 POP DUP1 PUSH2 0x1CB DUP7 PUSH2 0x23D JUMP JUMPDEST PUSH1 0x40 MLOAD PUSH1 0x20 ADD PUSH2 0x1DC SWAP3 SWAP2 SWAP1 PUSH2 0x842 JUMP JUMPDEST PUSH1 0x40 MLOAD PUSH1 0x20 DUP2 DUP4 SUB SUB DUP2 MSTORE SWAP1 PUSH1 0x40 MSTORE SWAP1 POP DUP1 DUP4 PUSH1 0x40 MLOAD PUSH1 0x20 ADD PUSH2 0x200 SWAP3 SWAP2 SWAP1 PUSH2 0x808 JUMP JUMPDEST PUSH1 0x40 MLOAD PUSH1 0x20 DUP2 DUP4 SUB SUB DUP2 MSTORE SWAP1 PUSH1 0x40 MSTORE SWAP1 POP DUP1 PUSH1 0x40 MLOAD PUSH1 0x20 ADD PUSH2 0x222 SWAP2 SWAP1 PUSH2 0x977 JUMP JUMPDEST PUSH1 0x40 MLOAD PUSH1 0x20 DUP2 DUP4 SUB SUB DUP2 MSTORE SWAP1 PUSH1 0x40 MSTORE SWAP1 POP SWAP7 SWAP6 POP POP POP POP POP POP JUMP JUMPDEST PUSH1 0x60 PUSH1 0x0 DUP3 EQ ISZERO PUSH2 0x285 JUMPI PUSH1 0x40 MLOAD DUP1 PUSH1 0x40 ADD PUSH1 0x40 MSTORE DUP1 PUSH1 0x1 DUP2 MSTORE PUSH1 0x20 ADD PUSH32 0x3000000000000000000000000000000000000000000000000000000000000000 DUP2 MSTORE POP SWAP1 POP PUSH2 0x399 JUMP JUMPDEST PUSH1 0x0 DUP3 SWAP1 POP PUSH1 0x0 JUMPDEST PUSH1 0x0 DUP3 EQ PUSH2 0x2B7 JUMPI DUP1 DUP1 PUSH2 0x2A0 SWAP1 PUSH2 0xBD5 JUMP JUMPDEST SWAP2 POP POP PUSH1 0xA DUP3 PUSH2 0x2B0 SWAP2 SWAP1 PUSH2 0xAF3 JUMP JUMPDEST SWAP2 POP PUSH2 0x28D JUMP JUMPDEST PUSH1 0x0 DUP2 PUSH8 0xFFFFFFFFFFFFFFFF DUP2 GT ISZERO PUSH2 0x2D3 JUMPI PUSH2 0x2D2 PUSH2 0xCDC JUMP JUMPDEST JUMPDEST PUSH1 0x40 MLOAD SWAP1 DUP1 DUP3 MSTORE DUP1 PUSH1 0x1F ADD PUSH1 0x1F NOT AND PUSH1 0x20 ADD DUP3 ADD PUSH1 0x40 MSTORE DUP1 ISZERO PUSH2 0x305 JUMPI DUP2 PUSH1 0x20 ADD PUSH1 0x1 DUP3 MUL DUP1 CALLDATASIZE DUP4 CALLDATACOPY DUP1 DUP3 ADD SWAP2 POP POP SWAP1 POP JUMPDEST POP SWAP1 POP JUMPDEST PUSH1 0x0 DUP6 EQ PUSH2 0x392 JUMPI PUSH1 0x1 DUP3 PUSH2 0x31E SWAP2 SWAP1 PUSH2 0xB24 JUMP JUMPDEST SWAP2 POP PUSH1 0xA DUP6 PUSH2 0x32D SWAP2 SWAP1 PUSH2 0xC1E JUMP JUMPDEST PUSH1 0x30 PUSH2 0x339 SWAP2 SWAP1 PUSH2 0xA9D JUMP JUMPDEST PUSH1 0xF8 SHL DUP2 DUP4 DUP2 MLOAD DUP2 LT PUSH2 0x34F JUMPI PUSH2 0x34E PUSH2 0xCAD JUMP JUMPDEST JUMPDEST PUSH1 0x20 ADD ADD SWAP1 PUSH31 0xFFFFFFFFFFFFFFFFFFFFFFFFFFFFFFFFFFFFFFFFFFFFFFFFFFFFFFFFFFFFFF NOT AND SWAP1 DUP2 PUSH1 0x0 BYTE SWAP1 MSTORE8 POP PUSH1 0xA DUP6 PUSH2 0x38B SWAP2 SWAP1 PUSH2 0xAF3 JUMP JUMPDEST SWAP5 POP PUSH2 0x309 JUMP JUMPDEST DUP1 SWAP4 POP POP POP POP JUMPDEST SWAP2 SWAP1 POP JUMP JUMPDEST PUSH1 0x0 PUSH2 0x3B1 PUSH2 0x3AC DUP5 PUSH2 0xA45 JUMP JUMPDEST PUSH2 0xA20 JUMP JUMPDEST SWAP1 POP DUP3 DUP2 MSTORE PUSH1 0x20 DUP2 ADD DUP5 DUP5 DUP5 ADD GT ISZERO PUSH2 0x3CD JUMPI PUSH2 0x3CC PUSH2 0xD10 JUMP JUMPDEST JUMPDEST PUSH2 0x3D8 DUP5 DUP3 DUP6 PUSH2 0xB62 JUMP JUMPDEST POP SWAP4 SWAP3 POP POP POP JUMP JUMPDEST PUSH1 0x0 DUP3 PUSH1 0x1F DUP4 ADD SLT PUSH2 0x3F5 JUMPI PUSH2 0x3F4 PUSH2 0xD0B JUMP JUMPDEST JUMPDEST DUP2 CALLDATALOAD PUSH2 0x405 DUP5 DUP3 PUSH1 0x20 DUP7 ADD PUSH2 0x39E JUMP JUMPDEST SWAP2 POP POP SWAP3 SWAP2 POP POP JUMP JUMPDEST PUSH1 0x0 DUP2 CALLDATALOAD SWAP1 POP PUSH2 0x41D DUP2 PUSH2 0x201C JUMP JUMPDEST SWAP3 SWAP2 POP POP JUMP JUMPDEST PUSH1 0x0 DUP1 PUSH1 0x0 DUP1 PUSH1 0x0 DUP1 PUSH1 0xC0 DUP8 DUP10 SUB SLT ISZERO PUSH2 0x440 JUMPI PUSH2 0x43F PUSH2 0xD1A JUMP JUMPDEST JUMPDEST PUSH1 0x0 PUSH2 0x44E DUP10 DUP3 DUP11 ADD PUSH2 0x40E JUMP JUMPDEST SWAP7 POP POP PUSH1 0x20 PUSH2 0x45F DUP10 DUP3 DUP11 ADD PUSH2 0x40E JUMP JUMPDEST SWAP6 POP POP PUSH1 0x40 PUSH2 0x470 DUP10 DUP3 DUP11 ADD PUSH2 0x40E JUMP JUMPDEST SWAP5 POP POP PUSH1 0x60 DUP8 ADD CALLDATALOAD PUSH8 0xFFFFFFFFFFFFFFFF DUP2 GT ISZERO PUSH2 0x491 JUMPI PUSH2 0x490 PUSH2 0xD15 JUMP JUMPDEST JUMPDEST PUSH2 0x49D DUP10 DUP3 DUP11 ADD PUSH2 0x3E0 JUMP JUMPDEST SWAP4 POP POP PUSH1 0x80 DUP8 ADD CALLDATALOAD PUSH8 0xFFFFFFFFFFFFFFFF DUP2 GT ISZERO PUSH2 0x4BE JUMPI PUSH2 0x4BD PUSH2 0xD15 JUMP JUMPDEST JUMPDEST PUSH2 0x4CA DUP10 DUP3 DUP11 ADD PUSH2 0x3E0 JUMP JUMPDEST SWAP3 POP POP PUSH1 0xA0 PUSH2 0x4DB DUP10 DUP3 DUP11 ADD PUSH2 0x40E JUMP JUMPDEST SWAP2 POP POP SWAP3 SWAP6 POP SWAP3 SWAP6 POP SWAP3 SWAP6 JUMP JUMPDEST PUSH1 0x0 PUSH2 0x4F3 DUP3 PUSH2 0xA76 JUMP JUMPDEST PUSH2 0x4FD DUP2 DUP6 PUSH2 0xA81 JUMP JUMPDEST SWAP4 POP PUSH2 0x50D DUP2 DUP6 PUSH1 0x20 DUP7 ADD PUSH2 0xB71 JUMP JUMPDEST PUSH2 0x516 DUP2 PUSH2 0xD1F JUMP JUMPDEST DUP5 ADD SWAP2 POP POP SWAP3 SWAP2 POP POP JUMP JUMPDEST PUSH1 0x0 PUSH2 0x52C DUP3 PUSH2 0xA76 JUMP JUMPDEST PUSH2 0x536 DUP2 DUP6 PUSH2 0xA92 JUMP JUMPDEST SWAP4 POP PUSH2 0x546 DUP2 DUP6 PUSH1 0x20 DUP7 ADD PUSH2 0xB71 JUMP JUMPDEST DUP1 DUP5 ADD SWAP2 POP POP SWAP3 SWAP2 POP POP JUMP JUMPDEST PUSH1 0x0 PUSH2 0x55F PUSH1 0x7 DUP4 PUSH2 0xA92 JUMP JUMPDEST SWAP2 POP PUSH2 0x56A DUP3 PUSH2 0xD30 JUMP JUMPDEST PUSH1 0x7 DUP3 ADD SWAP1 POP SWAP2 SWAP1 POP JUMP JUMPDEST PUSH1 0x0 PUSH2 0x582 PUSH1 0x42 DUP4 PUSH2 0xA92 JUMP JUMPDEST SWAP2 POP PUSH2 0x58D DUP3 PUSH2 0xD59 JUMP JUMPDEST PUSH1 0x42 DUP3 ADD SWAP1 POP SWAP2 SWAP1 POP JUMP JUMPDEST PUSH1 0x0 PUSH2 0x5A5 PUSH1 0x1D DUP4 PUSH2 0xA92 JUMP JUMPDEST SWAP2 POP PUSH2 0x5B0 DUP3 PUSH2 0xDCE JUMP JUMPDEST PUSH1 0x1D DUP3 ADD SWAP1 POP SWAP2 SWAP1 POP JUMP JUMPDEST PUSH1 0x0 PUSH2 0x5C8 PUSH1 0x20 DUP4 PUSH2 0xA92 JUMP JUMPDEST SWAP2 POP PUSH2 0x5D3 DUP3 PUSH2 0xDF7 JUMP JUMPDEST PUSH1 0x20 DUP3 ADD SWAP1 POP SWAP2 SWAP1 POP JUMP JUMPDEST PUSH1 0x0 PUSH2 0x5EB PUSH1 0x1D DUP4 PUSH2 0xA92 JUMP JUMPDEST SWAP2 POP PUSH2 0x5F6 DUP3 PUSH2 0xE20 JUMP JUMPDEST PUSH1 0x1D DUP3 ADD SWAP1 POP SWAP2 SWAP1 POP JUMP JUMPDEST PUSH1 0x0 PUSH2 0x60E PUSH1 0x20 DUP4 PUSH2 0xA92 JUMP JUMPDEST SWAP2 POP PUSH2 0x619 DUP3 PUSH2 0xE49 JUMP JUMPDEST PUSH1 0x20 DUP3 ADD SWAP1 POP SWAP2 SWAP1 POP JUMP JUMPDEST PUSH1 0x0 PUSH2 0x631 PUSH1 0x8 DUP4 PUSH2 0xA92 JUMP JUMPDEST SWAP2 POP PUSH2 0x63C DUP3 PUSH2 0xE72 JUMP JUMPDEST PUSH1 0x8 DUP3 ADD SWAP1 POP SWAP2 SWAP1 POP JUMP JUMPDEST PUSH1 0x0 PUSH2 0x654 PUSH1 0x4 DUP4 PUSH2 0xA92 JUMP JUMPDEST SWAP2 POP PUSH2 0x65F DUP3 PUSH2 0xE9B JUMP JUMPDEST PUSH1 0x4 DUP3 ADD SWAP1 POP SWAP2 SWAP1 POP JUMP JUMPDEST PUSH1 0x0 PUSH2 0x677 PUSH1 0x27 DUP4 PUSH2 0xA92 JUMP JUMPDEST SWAP2 POP PUSH2 0x682 DUP3 PUSH2 0xEC4 JUMP JUMPDEST PUSH1 0x27 DUP3 ADD SWAP1 POP SWAP2 SWAP1 POP JUMP JUMPDEST PUSH1 0x0 PUSH2 0x69A PUSH1 0x22 DUP4 PUSH2 0xA92 JUMP JUMPDEST SWAP2 POP PUSH2 0x6A5 DUP3 PUSH2 0xF13 JUMP JUMPDEST PUSH1 0x22 DUP3 ADD SWAP1 POP SWAP2 SWAP1 POP JUMP JUMPDEST PUSH1 0x0 PUSH2 0x6BD PUSH1 0x7 DUP4 PUSH2 0xA92 JUMP JUMPDEST SWAP2 POP PUSH2 0x6C8 DUP3 PUSH2 0xF62 JUMP JUMPDEST PUSH1 0x7 DUP3 ADD SWAP1 POP SWAP2 SWAP1 POP JUMP JUMPDEST PUSH1 0x0 PUSH2 0x6E1 PUSH2 0x434 DUP4 PUSH2 0xA92 JUMP JUMPDEST SWAP2 POP PUSH2 0x6EC DUP3 PUSH2 0xF8B JUMP JUMPDEST PUSH2 0x434 DUP3 ADD SWAP1 POP SWAP2 SWAP1 POP JUMP JUMPDEST PUSH1 0x0 PUSH2 0x705 PUSH1 0x3 DUP4 PUSH2 0xA92 JUMP JUMPDEST SWAP2 POP PUSH2 0x710 DUP3 PUSH2 0x14B4 JUMP JUMPDEST PUSH1 0x3 DUP3 ADD SWAP1 POP SWAP2 SWAP1 POP JUMP JUMPDEST PUSH1 0x0 PUSH2 0x729 PUSH2 0x433 DUP4 PUSH2 0xA92 JUMP JUMPDEST SWAP2 POP PUSH2 0x734 DUP3 PUSH2 0x14DD JUMP JUMPDEST PUSH2 0x433 DUP3 ADD SWAP1 POP SWAP2 SWAP1 POP JUMP JUMPDEST PUSH1 0x0 PUSH2 0x74D PUSH1 0x6 DUP4 PUSH2 0xA92 JUMP JUMPDEST SWAP2 POP PUSH2 0x758 DUP3 PUSH2 0x1A06 JUMP JUMPDEST PUSH1 0x6 DUP3 ADD SWAP1 POP SWAP2 SWAP1 POP JUMP JUMPDEST PUSH1 0x0 PUSH2 0x771 PUSH2 0x432 DUP4 PUSH2 0xA92 JUMP JUMPDEST SWAP2 POP PUSH2 0x77C DUP3 PUSH2 0x1A2F JUMP JUMPDEST PUSH2 0x432 DUP3 ADD SWAP1 POP SWAP2 SWAP1 POP JUMP JUMPDEST PUSH1 0x0 PUSH2 0x795 PUSH1 0x7 DUP4 PUSH2 0xA92 JUMP JUMPDEST SWAP2 POP PUSH2 0x7A0 DUP3 PUSH2 0x1F58 JUMP JUMPDEST PUSH1 0x7 DUP3 ADD SWAP1 POP SWAP2 SWAP1 POP JUMP JUMPDEST PUSH1 0x0 PUSH2 0x7B8 PUSH1 0x66 DUP4 PUSH2 0xA92 JUMP JUMPDEST SWAP2 POP PUSH2 0x7C3 DUP3 PUSH2 0x1F81 JUMP JUMPDEST PUSH1 0x66 DUP3 ADD SWAP1 POP SWAP2 SWAP1 POP JUMP JUMPDEST PUSH1 0x0 PUSH2 0x7DA DUP3 DUP6 PUSH2 0x521 JUMP JUMPDEST SWAP2 POP PUSH2 0x7E5 DUP3 PUSH2 0x598 JUMP JUMPDEST SWAP2 POP PUSH2 0x7F1 DUP3 DUP5 PUSH2 0x521 JUMP JUMPDEST SWAP2 POP PUSH2 0x7FC DUP3 PUSH2 0x6B0 JUMP JUMPDEST SWAP2 POP DUP2 SWAP1 POP SWAP4 SWAP3 POP POP POP JUMP JUMPDEST PUSH1 0x0 PUSH2 0x814 DUP3 DUP6 PUSH2 0x521 JUMP JUMPDEST SWAP2 POP PUSH2 0x81F DUP3 PUSH2 0x5BB JUMP JUMPDEST SWAP2 POP PUSH2 0x82B DUP3 DUP5 PUSH2 0x521 JUMP JUMPDEST SWAP2 POP PUSH2 0x836 DUP3 PUSH2 0x6B0 JUMP JUMPDEST SWAP2 POP DUP2 SWAP1 POP SWAP4 SWAP3 POP POP POP JUMP JUMPDEST PUSH1 0x0 PUSH2 0x84E DUP3 DUP6 PUSH2 0x521 JUMP JUMPDEST SWAP2 POP PUSH2 0x859 DUP3 PUSH2 0x5DE JUMP JUMPDEST SWAP2 POP PUSH2 0x865 DUP3 DUP5 PUSH2 0x521 JUMP JUMPDEST SWAP2 POP PUSH2 0x870 DUP3 PUSH2 0x6B0 JUMP JUMPDEST SWAP2 POP DUP2 SWAP1 POP SWAP4 SWAP3 POP POP POP JUMP JUMPDEST PUSH1 0x0 PUSH2 0x888 DUP3 DUP6 PUSH2 0x521 JUMP JUMPDEST SWAP2 POP PUSH2 0x893 DUP3 PUSH2 0x601 JUMP JUMPDEST SWAP2 POP PUSH2 0x89F DUP3 DUP5 PUSH2 0x521 JUMP JUMPDEST SWAP2 POP PUSH2 0x8AA DUP3 PUSH2 0x6F8 JUMP JUMPDEST SWAP2 POP PUSH2 0x8B5 DUP3 PUSH2 0x6B0 JUMP JUMPDEST SWAP2 POP DUP2 SWAP1 POP SWAP4 SWAP3 POP POP POP JUMP JUMPDEST PUSH1 0x0 PUSH2 0x8CD DUP3 DUP5 PUSH2 0x521 JUMP JUMPDEST SWAP2 POP PUSH2 0x8D8 DUP3 PUSH2 0x66A JUMP JUMPDEST SWAP2 POP PUSH2 0x8E3 DUP3 PUSH2 0x552 JUMP JUMPDEST SWAP2 POP PUSH2 0x8EE DUP3 PUSH2 0x647 JUMP JUMPDEST SWAP2 POP DUP2 SWAP1 POP SWAP3 SWAP2 POP POP JUMP JUMPDEST PUSH1 0x0 PUSH2 0x905 DUP3 DUP6 PUSH2 0x521 JUMP JUMPDEST SWAP2 POP PUSH2 0x910 DUP3 PUSH2 0x68D JUMP JUMPDEST SWAP2 POP PUSH2 0x91C DUP3 DUP5 PUSH2 0x521 JUMP JUMPDEST SWAP2 POP PUSH2 0x927 DUP3 PUSH2 0x6B0 JUMP JUMPDEST SWAP2 POP DUP2 SWAP1 POP SWAP4 SWAP3 POP POP POP JUMP JUMPDEST PUSH1 0x0 PUSH2 0x93F DUP3 DUP5 PUSH2 0x521 JUMP JUMPDEST SWAP2 POP PUSH2 0x94A DUP3 PUSH2 0x6D3 JUMP JUMPDEST SWAP2 POP DUP2 SWAP1 POP SWAP3 SWAP2 POP POP JUMP JUMPDEST PUSH1 0x0 PUSH2 0x961 DUP3 DUP5 PUSH2 0x521 JUMP JUMPDEST SWAP2 POP PUSH2 0x96C DUP3 PUSH2 0x71B JUMP JUMPDEST SWAP2 POP DUP2 SWAP1 POP SWAP3 SWAP2 POP POP JUMP JUMPDEST PUSH1 0x0 PUSH2 0x983 DUP3 DUP5 PUSH2 0x521 JUMP JUMPDEST SWAP2 POP PUSH2 0x98E DUP3 PUSH2 0x740 JUMP JUMPDEST SWAP2 POP DUP2 SWAP1 POP SWAP3 SWAP2 POP POP JUMP JUMPDEST PUSH1 0x0 PUSH2 0x9A5 DUP3 DUP5 PUSH2 0x521 JUMP JUMPDEST SWAP2 POP PUSH2 0x9B0 DUP3 PUSH2 0x763 JUMP JUMPDEST SWAP2 POP DUP2 SWAP1 POP SWAP3 SWAP2 POP POP JUMP JUMPDEST PUSH1 0x0 PUSH2 0x9C7 DUP3 DUP5 PUSH2 0x521 JUMP JUMPDEST SWAP2 POP PUSH2 0x9D2 DUP3 PUSH2 0x788 JUMP JUMPDEST SWAP2 POP PUSH2 0x9DD DUP3 PUSH2 0x7AB JUMP JUMPDEST SWAP2 POP PUSH2 0x9E8 DUP3 PUSH2 0x575 JUMP JUMPDEST SWAP2 POP PUSH2 0x9F3 DUP3 PUSH2 0x624 JUMP JUMPDEST SWAP2 POP DUP2 SWAP1 POP SWAP3 SWAP2 POP POP JUMP JUMPDEST PUSH1 0x0 PUSH1 0x20 DUP3 ADD SWAP1 POP DUP2 DUP2 SUB PUSH1 0x0 DUP4 ADD MSTORE PUSH2 0xA18 DUP2 DUP5 PUSH2 0x4E8 JUMP JUMPDEST SWAP1 POP SWAP3 SWAP2 POP POP JUMP JUMPDEST PUSH1 0x0 PUSH2 0xA2A PUSH2 0xA3B JUMP JUMPDEST SWAP1 POP PUSH2 0xA36 DUP3 DUP3 PUSH2 0xBA4 JUMP JUMPDEST SWAP2 SWAP1 POP JUMP JUMPDEST PUSH1 0x0 PUSH1 0x40 MLOAD SWAP1 POP SWAP1 JUMP JUMPDEST PUSH1 0x0 PUSH8 0xFFFFFFFFFFFFFFFF DUP3 GT ISZERO PUSH2 0xA60 JUMPI PUSH2 0xA5F PUSH2 0xCDC JUMP JUMPDEST JUMPDEST PUSH2 0xA69 DUP3 PUSH2 0xD1F JUMP JUMPDEST SWAP1 POP PUSH1 0x20 DUP2 ADD SWAP1 POP SWAP2 SWAP1 POP JUMP JUMPDEST PUSH1 0x0 DUP2 MLOAD SWAP1 POP SWAP2 SWAP1 POP JUMP JUMPDEST PUSH1 0x0 DUP3 DUP3 MSTORE PUSH1 0x20 DUP3 ADD SWAP1 POP SWAP3 SWAP2 POP POP JUMP JUMPDEST PUSH1 0x0 DUP2 SWAP1 POP SWAP3 SWAP2 POP POP JUMP JUMPDEST PUSH1 0x0 PUSH2 0xAA8 DUP3 PUSH2 0xB58 JUMP JUMPDEST SWAP2 POP PUSH2 0xAB3 DUP4 PUSH2 0xB58 JUMP JUMPDEST SWAP3 POP DUP3 PUSH32 0xFFFFFFFFFFFFFFFFFFFFFFFFFFFFFFFFFFFFFFFFFFFFFFFFFFFFFFFFFFFFFFFF SUB DUP3 GT ISZERO PUSH2 0xAE8 JUMPI PUSH2 0xAE7 PUSH2 0xC4F JUMP JUMPDEST JUMPDEST DUP3 DUP3 ADD SWAP1 POP SWAP3 SWAP2 POP POP JUMP JUMPDEST PUSH1 0x0 PUSH2 0xAFE DUP3 PUSH2 0xB58 JUMP JUMPDEST SWAP2 POP PUSH2 0xB09 DUP4 PUSH2 0xB58 JUMP JUMPDEST SWAP3 POP DUP3 PUSH2 0xB19 JUMPI PUSH2 0xB18 PUSH2 0xC7E JUMP JUMPDEST JUMPDEST DUP3 DUP3 DIV SWAP1 POP SWAP3 SWAP2 POP POP JUMP JUMPDEST PUSH1 0x0 PUSH2 0xB2F DUP3 PUSH2 0xB58 JUMP JUMPDEST SWAP2 POP PUSH2 0xB3A DUP4 PUSH2 0xB58 JUMP JUMPDEST SWAP3 POP DUP3 DUP3 LT ISZERO PUSH2 0xB4D JUMPI PUSH2 0xB4C PUSH2 0xC4F JUMP JUMPDEST JUMPDEST DUP3 DUP3 SUB SWAP1 POP SWAP3 SWAP2 POP POP JUMP JUMPDEST PUSH1 0x0 DUP2 SWAP1 POP SWAP2 SWAP1 POP JUMP JUMPDEST DUP3 DUP2 DUP4 CALLDATACOPY PUSH1 0x0 DUP4 DUP4 ADD MSTORE POP POP POP JUMP JUMPDEST PUSH1 0x0 JUMPDEST DUP4 DUP2 LT ISZERO PUSH2 0xB8F JUMPI DUP1 DUP3 ADD MLOAD DUP2 DUP5 ADD MSTORE PUSH1 0x20 DUP2 ADD SWAP1 POP PUSH2 0xB74 JUMP JUMPDEST DUP4 DUP2 GT ISZERO PUSH2 0xB9E JUMPI PUSH1 0x0 DUP5 DUP5 ADD MSTORE JUMPDEST POP POP POP POP JUMP JUMPDEST PUSH2 0xBAD DUP3 PUSH2 0xD1F JUMP JUMPDEST DUP2 ADD DUP2 DUP2 LT PUSH8 0xFFFFFFFFFFFFFFFF DUP3 GT OR ISZERO PUSH2 0xBCC JUMPI PUSH2 0xBCB PUSH2 0xCDC JUMP JUMPDEST JUMPDEST DUP1 PUSH1 0x40 MSTORE POP POP POP JUMP JUMPDEST PUSH1 0x0 PUSH2 0xBE0 DUP3 PUSH2 0xB58 JUMP JUMPDEST SWAP2 POP PUSH32 0xFFFFFFFFFFFFFFFFFFFFFFFFFFFFFFFFFFFFFFFFFFFFFFFFFFFFFFFFFFFFFFFF DUP3 EQ ISZERO PUSH2 0xC13 JUMPI PUSH2 0xC12 PUSH2 0xC4F JUMP JUMPDEST JUMPDEST PUSH1 0x1 DUP3 ADD SWAP1 POP SWAP2 SWAP1 POP JUMP JUMPDEST PUSH1 0x0 PUSH2 0xC29 DUP3 PUSH2 0xB58 JUMP JUMPDEST SWAP2 POP PUSH2 0xC34 DUP4 PUSH2 0xB58 JUMP JUMPDEST SWAP3 POP DUP3 PUSH2 0xC44 JUMPI PUSH2 0xC43 PUSH2 0xC7E JUMP JUMPDEST JUMPDEST DUP3 DUP3 MOD SWAP1 POP SWAP3 SWAP2 POP POP JUMP JUMPDEST PUSH32 0x4E487B7100000000000000000000000000000000000000000000000000000000 PUSH1 0x0 MSTORE PUSH1 0x11 PUSH1 0x4 MSTORE PUSH1 0x24 PUSH1 0x0 REVERT JUMPDEST PUSH32 0x4E487B7100000000000000000000000000000000000000000000000000000000 PUSH1 0x0 MSTORE PUSH1 0x12 PUSH1 0x4 MSTORE PUSH1 0x24 PUSH1 0x0 REVERT JUMPDEST PUSH32 0x4E487B7100000000000000000000000000000000000000000000000000000000 PUSH1 0x0 MSTORE PUSH1 0x32 PUSH1 0x4 MSTORE PUSH1 0x24 PUSH1 0x0 REVERT JUMPDEST PUSH32 0x4E487B7100000000000000000000000000000000000000000000000000000000 PUSH1 0x0 MSTORE PUSH1 0x41 PUSH1 0x4 MSTORE PUSH1 0x24 PUSH1 0x0 REVERT JUMPDEST PUSH1 0x0 DUP1 REVERT JUMPDEST PUSH1 0x0 DUP1 REVERT JUMPDEST PUSH1 0x0 DUP1 REVERT JUMPDEST PUSH1 0x0 DUP1 REVERT JUMPDEST PUSH1 0x0 PUSH1 0x1F NOT PUSH1 0x1F DUP4 ADD AND SWAP1 POP SWAP2 SWAP1 POP JUMP JUMPDEST PUSH32 0x2365343032323700000000000000000000000000000000000000000000000000 PUSH1 0x0 DUP3 ADD MSTORE POP JUMP JUMPDEST PUSH32 0x2E7469746C65207B20746578742D616E63686F723A206C6566743B20666F6E74 PUSH1 0x0 DUP3 ADD MSTORE PUSH32 0x2D7765696768743A20626F6C643B20666F6E742D73697A653A20312E35656D3B PUSH1 0x20 DUP3 ADD MSTORE PUSH32 0x207D000000000000000000000000000000000000000000000000000000000000 PUSH1 0x40 DUP3 ADD MSTORE POP JUMP JUMPDEST PUSH32 0x3C7465787420783D2232302220793D2233343022203E47616D65733A20000000 PUSH1 0x0 DUP3 ADD MSTORE POP JUMP JUMPDEST PUSH32 0x3C7465787420783D2232302220793D2233383022203E506F736974696F6E3A20 PUSH1 0x0 DUP3 ADD MSTORE POP JUMP JUMPDEST PUSH32 0x3C7465787420783D2232302220793D2233363022203E476F616C733A20000000 PUSH1 0x0 DUP3 ADD MSTORE POP JUMP JUMPDEST PUSH32 0x3C7465787420783D2232302220793D2233323022203E47616D65706C61793A20 PUSH1 0x0 DUP3 ADD MSTORE POP JUMP JUMPDEST PUSH32 0x3C2F7374796C653E000000000000000000000000000000000000000000000000 PUSH1 0x0 DUP3 ADD MSTORE POP JUMP JUMPDEST PUSH32 0x22202F3E00000000000000000000000000000000000000000000000000000000 PUSH1 0x0 DUP3 ADD MSTORE POP JUMP JUMPDEST PUSH32 0x3C726563742077696474683D223130302522206865696768743D223130302522 PUSH1 0x0 DUP3 ADD MSTORE PUSH32 0x2066696C6C3D2200000000000000000000000000000000000000000000000000 PUSH1 0x20 DUP3 ADD MSTORE POP JUMP JUMPDEST PUSH32 0x3C7465787420783D2238302220793D2234302220636C6173733D227469746C65 PUSH1 0x0 DUP3 ADD MSTORE PUSH32 0x223E000000000000000000000000000000000000000000000000000000000000 PUSH1 0x20 DUP3 ADD MSTORE POP JUMP JUMPDEST PUSH32 0x3C2F746578743E00000000000000000000000000000000000000000000000000 PUSH1 0x0 DUP3 ADD MSTORE POP JUMP JUMPDEST PUSH32 0x3C70617468207374796C653D2266696C6C3A23666665343439222020643D226D PUSH1 0x0 DUP3 ADD MSTORE PUSH32 0x202D332E32303136393439652D362C31313539206320322E3133343436333365 PUSH1 0x20 DUP3 ADD MSTORE PUSH32 0x2D362C3020312E30363732333136652D362C3020302C30207A204D20302E3132 PUSH1 0x40 DUP3 ADD MSTORE PUSH32 0x36383036382C3238392E37352063202D302E30383435333738372C3537392E35 PUSH1 0x60 DUP3 ADD MSTORE PUSH32 0x202D302E30343232363839332C3238392E373520302C30207A206D203230372E PUSH1 0x80 DUP3 ADD MSTORE PUSH32 0x313930353933322C342E35323131312033342E383137342C2D32352E33343835 PUSH1 0xA0 DUP3 ADD MSTORE PUSH32 0x392033342E3432392C32352E303337353420632031382E3933362C31332E3737 PUSH1 0xC0 DUP3 ADD MSTORE PUSH32 0x3036352033342E393933312C32352E31353035382033352E363832362C32352E PUSH1 0xE0 DUP3 ADD MSTORE PUSH32 0x323838373420302E363839352C302E313338313620312E313330372C2D302E34 PUSH2 0x100 DUP3 ADD MSTORE PUSH32 0x3935353420302E393830362C2D312E3430383231202D302E313530322C2D302E PUSH2 0x120 DUP3 ADD MSTORE PUSH32 0x3931323638202D362E313130312C2D31392E3537343234202D31332E32343432 PUSH2 0x140 DUP3 ADD MSTORE PUSH32 0x2C2D34312E3437303133202D31302E313837382C2D33312E3236383136202D31 PUSH2 0x160 DUP3 ADD MSTORE PUSH32 0x322E373034312C2D34302E3035313237202D31312E3732372C2D34302E393331 PUSH2 0x180 DUP3 ADD MSTORE PUSH32 0x373520302E363834332C2D302E36313635372031372E31343938332C2D31312E PUSH2 0x1A0 DUP3 ADD MSTORE PUSH32 0x37393238382033352E373030392C2D32362E3032393837204C203335382E3431 PUSH2 0x1C0 DUP3 ADD MSTORE PUSH32 0x33342C3138342E35203331342E303731312C313834203236392E373238372C31 PUSH2 0x1E0 DUP3 ADD MSTORE PUSH32 0x38332E35203235362E343837382C3134322E37303637352063202D342E373236 PUSH2 0x200 DUP3 ADD MSTORE PUSH32 0x30332C2D31332E3439303036202D31302E31373033352C2D32392E3331343534 PUSH2 0x220 DUP3 ADD MSTORE PUSH32 0x202D31342E34333234362C2D34322E3332353634202D302E3236352C302E3236 PUSH2 0x240 DUP3 ADD MSTORE PUSH32 0x343938202D362E39303230342C31392E3431353635202D31342E30393235342C PUSH2 0x260 DUP3 ADD MSTORE PUSH32 0x34312E3631393137202D372E313930352C32322E3230333532202D31332E3330 PUSH2 0x280 DUP3 ADD MSTORE PUSH32 0x30332C34302E3733363731202D31332E353737322C34312E3138343838204320 PUSH2 0x2A0 DUP3 ADD MSTORE PUSH32 0x3231342E313038362C3138332E3633333332203139342E333333352C31383420 PUSH2 0x2C0 DUP3 ADD MSTORE PUSH32 0x3137302E3434312C3138342063202D32332E38393235372C30202D34332E3432 PUSH2 0x2E0 DUP3 ADD MSTORE PUSH32 0x3838382C302E33333735202D34332E34313430352C302E373520302E30313438 PUSH2 0x300 DUP3 ADD MSTORE PUSH32 0x2C302E343132352031352E37363438332C31322E313530322033352E30303030 PUSH2 0x320 DUP3 ADD MSTORE PUSH32 0x352C32362E30383337392031392E323335312C31332E39333335392033342E39 PUSH2 0x340 DUP3 ADD MSTORE PUSH32 0x3732352C32352E36333335392033342E3937322C3236202D36652D342C302E33 PUSH2 0x360 DUP3 ADD MSTORE PUSH32 0x36363432202D362E303735322C31392E3334313231202D31332E3439392C3432 PUSH2 0x380 DUP3 ADD MSTORE PUSH32 0x2E3136363231202D372E343233392C32322E383235202D31332E343938342C34 PUSH2 0x3A0 DUP3 ADD MSTORE PUSH32 0x312E3633393036202D31332E3439392C34312E383039303220302C302E353836 PUSH2 0x3C0 DUP3 ADD MSTORE PUSH32 0x393320322E36333631322C2D312E32383931352033372E333136342C2D32362E PUSH2 0x3E0 DUP3 ADD MSTORE PUSH32 0x3533373931207A22207472616E73666F726D3D227472616E736C617465283330 PUSH2 0x400 DUP3 ADD MSTORE PUSH32 0x302C31323029207363616C6528302E3229222F3E000000000000000000000000 PUSH2 0x420 DUP3 ADD MSTORE POP JUMP JUMPDEST PUSH32 0x6D696E0000000000000000000000000000000000000000000000000000000000 PUSH1 0x0 DUP3 ADD MSTORE POP JUMP JUMPDEST PUSH32 0x3C70617468207374796C653D2266696C6C3A23623262396263222020643D226D PUSH1 0x0 DUP3 ADD MSTORE PUSH32 0x202D332E32303136393439652D362C31313539206320322E3133343436333365 PUSH1 0x20 DUP3 ADD MSTORE PUSH32 0x2D362C3020312E30363732333136652D362C3020302C30207A204D20302E3132 PUSH1 0x40 DUP3 ADD MSTORE PUSH32 0x36383036382C3238392E37352063202D302E30383435333738372C3537392E35 PUSH1 0x60 DUP3 ADD MSTORE PUSH32 0x202D302E30343232363839332C3238392E373520302C30207A206D203230372E PUSH1 0x80 DUP3 ADD MSTORE PUSH32 0x313930353933322C342E35323131312033342E383137342C2D32352E33343835 PUSH1 0xA0 DUP3 ADD MSTORE PUSH32 0x392033342E3432392C32352E303337353420632031382E3933362C31332E3737 PUSH1 0xC0 DUP3 ADD MSTORE PUSH32 0x3036352033342E393933312C32352E31353035382033352E363832362C32352E PUSH1 0xE0 DUP3 ADD MSTORE PUSH32 0x323838373420302E363839352C302E313338313620312E313330372C2D302E34 PUSH2 0x100 DUP3 ADD MSTORE PUSH32 0x3935353420302E393830362C2D312E3430383231202D302E313530322C2D302E PUSH2 0x120 DUP3 ADD MSTORE PUSH32 0x3931323638202D362E313130312C2D31392E3537343234202D31332E32343432 PUSH2 0x140 DUP3 ADD MSTORE PUSH32 0x2C2D34312E3437303133202D31302E313837382C2D33312E3236383136202D31 PUSH2 0x160 DUP3 ADD MSTORE PUSH32 0x322E373034312C2D34302E3035313237202D31312E3732372C2D34302E393331 PUSH2 0x180 DUP3 ADD MSTORE PUSH32 0x373520302E363834332C2D302E36313635372031372E31343938332C2D31312E PUSH2 0x1A0 DUP3 ADD MSTORE PUSH32 0x37393238382033352E373030392C2D32362E3032393837204C203335382E3431 PUSH2 0x1C0 DUP3 ADD MSTORE PUSH32 0x33342C3138342E35203331342E303731312C313834203236392E373238372C31 PUSH2 0x1E0 DUP3 ADD MSTORE PUSH32 0x38332E35203235362E343837382C3134322E37303637352063202D342E373236 PUSH2 0x200 DUP3 ADD MSTORE PUSH32 0x30332C2D31332E3439303036202D31302E31373033352C2D32392E3331343534 PUSH2 0x220 DUP3 ADD MSTORE PUSH32 0x202D31342E34333234362C2D34322E3332353634202D302E3236352C302E3236 PUSH2 0x240 DUP3 ADD MSTORE PUSH32 0x343938202D362E39303230342C31392E3431353635202D31342E30393235342C PUSH2 0x260 DUP3 ADD MSTORE PUSH32 0x34312E3631393137202D372E313930352C32322E3230333532202D31332E3330 PUSH2 0x280 DUP3 ADD MSTORE PUSH32 0x30332C34302E3733363731202D31332E353737322C34312E3138343838204320 PUSH2 0x2A0 DUP3 ADD MSTORE PUSH32 0x3231342E313038362C3138332E3633333332203139342E333333352C31383420 PUSH2 0x2C0 DUP3 ADD MSTORE PUSH32 0x3137302E3434312C3138342063202D32332E38393235372C30202D34332E3432 PUSH2 0x2E0 DUP3 ADD MSTORE PUSH32 0x3838382C302E33333735202D34332E34313430352C302E373520302E30313438 PUSH2 0x300 DUP3 ADD MSTORE PUSH32 0x2C302E343132352031352E37363438332C31322E313530322033352E30303030 PUSH2 0x320 DUP3 ADD MSTORE PUSH32 0x352C32362E30383337392031392E323335312C31332E39333335392033342E39 PUSH2 0x340 DUP3 ADD MSTORE PUSH32 0x3732352C32352E36333335392033342E3937322C3236202D36652D342C302E33 PUSH2 0x360 DUP3 ADD MSTORE PUSH32 0x36363432202D362E303735322C31392E3334313231202D31332E3439392C3432 PUSH2 0x380 DUP3 ADD MSTORE PUSH32 0x2E3136363231202D372E343233392C32322E383235202D31332E343938342C34 PUSH2 0x3A0 DUP3 ADD MSTORE PUSH32 0x312E3633393036202D31332E3439392C34312E383039303220302C302E353836 PUSH2 0x3C0 DUP3 ADD MSTORE PUSH32 0x393320322E36333631322C2D312E32383931352033372E333136342C2D32362E PUSH2 0x3E0 DUP3 ADD MSTORE PUSH32 0x3533373931207A22207472616E73666F726D3D227472616E736C617465283330 PUSH2 0x400 DUP3 ADD MSTORE PUSH32 0x302C363029207363616C6528302E3229222F3E00000000000000000000000000 PUSH2 0x420 DUP3 ADD MSTORE POP JUMP JUMPDEST PUSH32 0x3C2F7376673E0000000000000000000000000000000000000000000000000000 PUSH1 0x0 DUP3 ADD MSTORE POP JUMP JUMPDEST PUSH32 0x3C70617468207374796C653D2266696C6C3A23396335323231222020643D226D PUSH1 0x0 DUP3 ADD MSTORE PUSH32 0x202D332E32303136393439652D362C31313539206320322E3133343436333365 PUSH1 0x20 DUP3 ADD MSTORE PUSH32 0x2D362C3020312E30363732333136652D362C3020302C30207A204D20302E3132 PUSH1 0x40 DUP3 ADD MSTORE PUSH32 0x36383036382C3238392E37352063202D302E30383435333738372C3537392E35 PUSH1 0x60 DUP3 ADD MSTORE PUSH32 0x202D302E30343232363839332C3238392E373520302C30207A206D203230372E PUSH1 0x80 DUP3 ADD MSTORE PUSH32 0x313930353933322C342E35323131312033342E383137342C2D32352E33343835 PUSH1 0xA0 DUP3 ADD MSTORE PUSH32 0x392033342E3432392C32352E303337353420632031382E3933362C31332E3737 PUSH1 0xC0 DUP3 ADD MSTORE PUSH32 0x3036352033342E393933312C32352E31353035382033352E363832362C32352E PUSH1 0xE0 DUP3 ADD MSTORE PUSH32 0x323838373420302E363839352C302E313338313620312E313330372C2D302E34 PUSH2 0x100 DUP3 ADD MSTORE PUSH32 0x3935353420302E393830362C2D312E3430383231202D302E313530322C2D302E PUSH2 0x120 DUP3 ADD MSTORE PUSH32 0x3931323638202D362E313130312C2D31392E3537343234202D31332E32343432 PUSH2 0x140 DUP3 ADD MSTORE PUSH32 0x2C2D34312E3437303133202D31302E313837382C2D33312E3236383136202D31 PUSH2 0x160 DUP3 ADD MSTORE PUSH32 0x322E373034312C2D34302E3035313237202D31312E3732372C2D34302E393331 PUSH2 0x180 DUP3 ADD MSTORE PUSH32 0x373520302E363834332C2D302E36313635372031372E31343938332C2D31312E PUSH2 0x1A0 DUP3 ADD MSTORE PUSH32 0x37393238382033352E373030392C2D32362E3032393837204C203335382E3431 PUSH2 0x1C0 DUP3 ADD MSTORE PUSH32 0x33342C3138342E35203331342E303731312C313834203236392E373238372C31 PUSH2 0x1E0 DUP3 ADD MSTORE PUSH32 0x38332E35203235362E343837382C3134322E37303637352063202D342E373236 PUSH2 0x200 DUP3 ADD MSTORE PUSH32 0x30332C2D31332E3439303036202D31302E31373033352C2D32392E3331343534 PUSH2 0x220 DUP3 ADD MSTORE PUSH32 0x202D31342E34333234362C2D34322E3332353634202D302E3236352C302E3236 PUSH2 0x240 DUP3 ADD MSTORE PUSH32 0x343938202D362E39303230342C31392E3431353635202D31342E30393235342C PUSH2 0x260 DUP3 ADD MSTORE PUSH32 0x34312E3631393137202D372E313930352C32322E3230333532202D31332E3330 PUSH2 0x280 DUP3 ADD MSTORE PUSH32 0x30332C34302E3733363731202D31332E353737322C34312E3138343838204320 PUSH2 0x2A0 DUP3 ADD MSTORE PUSH32 0x3231342E313038362C3138332E3633333332203139342E333333352C31383420 PUSH2 0x2C0 DUP3 ADD MSTORE PUSH32 0x3137302E3434312C3138342063202D32332E38393235372C30202D34332E3432 PUSH2 0x2E0 DUP3 ADD MSTORE PUSH32 0x3838382C302E33333735202D34332E34313430352C302E373520302E30313438 PUSH2 0x300 DUP3 ADD MSTORE PUSH32 0x2C302E343132352031352E37363438332C31322E313530322033352E30303030 PUSH2 0x320 DUP3 ADD MSTORE PUSH32 0x352C32362E30383337392031392E323335312C31332E39333335392033342E39 PUSH2 0x340 DUP3 ADD MSTORE PUSH32 0x3732352C32352E36333335392033342E3937322C3236202D36652D342C302E33 PUSH2 0x360 DUP3 ADD MSTORE PUSH32 0x36363432202D362E303735322C31392E3334313231202D31332E3439392C3432 PUSH2 0x380 DUP3 ADD MSTORE PUSH32 0x2E3136363231202D372E343233392C32322E383235202D31332E343938342C34 PUSH2 0x3A0 DUP3 ADD MSTORE PUSH32 0x312E3633393036202D31332E3439392C34312E383039303220302C302E353836 PUSH2 0x3C0 DUP3 ADD MSTORE PUSH32 0x393320322E36333631322C2D312E32383931352033372E333136342C2D32362E PUSH2 0x3E0 DUP3 ADD MSTORE PUSH32 0x3533373931207A22207472616E73666F726D3D227472616E736C617465283330 PUSH2 0x400 DUP3 ADD MSTORE PUSH32 0x302C3029207363616C6528302E3229222F3E0000000000000000000000000000 PUSH2 0x420 DUP3 ADD MSTORE POP JUMP JUMPDEST PUSH32 0x3C7374796C653E00000000000000000000000000000000000000000000000000 PUSH1 0x0 DUP3 ADD MSTORE POP JUMP JUMPDEST PUSH32 0x74657874207B20666F6E742D66616D696C793A20417269616C2C2048656C7665 PUSH1 0x0 DUP3 ADD MSTORE PUSH32 0x746963612C2073616E732D73657269663B20666F6E742D7765696768743A2020 PUSH1 0x20 DUP3 ADD MSTORE PUSH32 0x626F6C643B2066696C6C3A20236666653530303B20666F6E742D73697A653A20 PUSH1 0x40 DUP3 ADD MSTORE PUSH32 0x31656D3B207D0000000000000000000000000000000000000000000000000000 PUSH1 0x60 DUP3 ADD MSTORE POP JUMP JUMPDEST PUSH2 0x2025 DUP2 PUSH2 0xB58 JUMP JUMPDEST DUP2 EQ PUSH2 0x2030 JUMPI PUSH1 0x0 DUP1 REVERT JUMPDEST POP JUMP INVALID EXTCODECOPY PUSH20 0x76672077696474683D2233393022206865696768 PUSH21 0x3D22343335222066696C6C3D22677265656E222078 PUSH14 0x6C6E733D22687474703A2F2F7777 PUSH24 0x2E77332E6F72672F323030302F737667223EA26469706673 PC 0x22 SLT KECCAK256 DUP16 PUSH13 0xE3670AEE0D74990E7886E3CC58 PUSH29 0x9BA07FCAC737939EF5C16F396E216D7764736F6C634300080700330000 "
				},
				"gasEstimates": {
					"creation": {
						"codeDepositCost": "1675000",
						"executionCost": "infinite",
						"totalCost": "infinite"
					},
					"external": {
						"getSVG(uint256,uint256,uint256,string,string,uint256)": "infinite"
					},
					"internal": {
						"addImage(string memory,string memory)": "infinite"
					}
				},
				"methodIdentifiers": {
					"getSVG(uint256,uint256,uint256,string,string,uint256)": "c7370296"
				}
			},
			"userdoc": {
				"kind": "user",
				"methods": {},
				"version": 1
			}
		}
	}
}