{
	"SVG-MVP_football/contracts/getPlayerSvg.sol": {
		"getPlayerSvg": {
			"abi": [
				{
					"inputs": [
						{
							"internalType": "uint256",
							"name": "gameplay",
							"type": "uint256"
						},
						{
							"internalType": "uint256",
							"name": "numberOfGames",
							"type": "uint256"
						},
						{
							"internalType": "uint256",
							"name": "goals",
							"type": "uint256"
						},
						{
							"internalType": "string",
							"name": "name",
							"type": "string"
						},
						{
							"internalType": "string",
							"name": "position",
							"type": "string"
						}
					],
					"name": "getSVG",
					"outputs": [
						{
							"internalType": "string",
							"name": "svg",
							"type": "string"
						}
					],
					"stateMutability": "pure",
					"type": "function"
				}
			],
			"devdoc": {
				"kind": "dev",
				"methods": {},
				"version": 1
			},
			"evm": {
				"assembly": "    /* \"SVG-MVP_football/contracts/getPlayerSvg.sol\":110:13151  contract getPlayerSvg{... */\n  mstore(0x40, 0x80)\n  callvalue\n  dup1\n  iszero\n  tag_1\n  jumpi\n  0x00\n  dup1\n  revert\ntag_1:\n  pop\n  dataSize(sub_0)\n  dup1\n  dataOffset(sub_0)\n  0x00\n  codecopy\n  0x00\n  return\nstop\n\nsub_0: assembly {\n        /* \"SVG-MVP_football/contracts/getPlayerSvg.sol\":110:13151  contract getPlayerSvg{... */\n      mstore(0x40, 0x80)\n      callvalue\n      dup1\n      iszero\n      tag_1\n      jumpi\n      0x00\n      dup1\n      revert\n    tag_1:\n      pop\n      jumpi(tag_2, lt(calldatasize, 0x04))\n      shr(0xe0, calldataload(0x00))\n      dup1\n      0xd139e8a4\n      eq\n      tag_3\n      jumpi\n    tag_2:\n      0x00\n      dup1\n      revert\n        /* \"SVG-MVP_football/contracts/getPlayerSvg.sol\":137:1498  function getSVG(uint gameplay, uint numberOfGames, uint goals, string memory name, string memory position) public pure  returns (string memory svg) {... */\n    tag_3:\n      tag_4\n      tag_5\n      calldatasize\n      0x04\n      tag_6\n      jump\t// in\n    tag_5:\n      tag_7\n      jump\t// in\n    tag_4:\n      mload(0x40)\n      tag_8\n      swap2\n      swap1\n      tag_9\n      jump\t// in\n    tag_8:\n      mload(0x40)\n      dup1\n      swap2\n      sub\n      swap1\n      return\n    tag_7:\n        /* \"SVG-MVP_football/contracts/getPlayerSvg.sol\":266:283  string memory svg */\n      0x60\n        /* \"SVG-MVP_football/contracts/getPlayerSvg.sol\":292:378  svg = '<svg width=\"390\" height=\"435\" fill=\"green\" xmlns=\"http://www.w3.org/2000/svg\">' */\n      mload(0x40)\n      dup1\n      0x80\n      add\n      0x40\n      mstore\n      dup1\n      0x4e\n      dup2\n      mstore\n      0x20\n      add\n      data_13ee12525b78d1800c98700a3c7bb02c6ed5e8636ea4bf89bace0c534940e1ba\n      0x4e\n      swap2\n      codecopy\n      swap1\n      pop\n        /* \"SVG-MVP_football/contracts/getPlayerSvg.sol\":414:417  svg */\n      dup1\n        /* \"SVG-MVP_football/contracts/getPlayerSvg.sol\":397:654  abi.encodePacked(svg,... */\n      add(0x20, mload(0x40))\n      tag_11\n      swap2\n      swap1\n      tag_12\n      jump\t// in\n    tag_11:\n      mload(0x40)\n      0x20\n      dup2\n      dup4\n      sub\n      sub\n      dup2\n      mstore\n      swap1\n      0x40\n      mstore\n        /* \"SVG-MVP_football/contracts/getPlayerSvg.sol\":384:655  svg = string(abi.encodePacked(svg,... */\n      swap1\n      pop\n        /* \"SVG-MVP_football/contracts/getPlayerSvg.sol\":691:694  svg */\n      dup1\n        /* \"SVG-MVP_football/contracts/getPlayerSvg.sol\":674:757  abi.encodePacked(svg, '<rect width=\"100%\" height=\"100%\" fill=\"', \"#e40227\" ,'\" />') */\n      add(0x20, mload(0x40))\n      tag_13\n      swap2\n      swap1\n      tag_14\n      jump\t// in\n    tag_13:\n      mload(0x40)\n      0x20\n      dup2\n      dup4\n      sub\n      sub\n      dup2\n      mstore\n      swap1\n      0x40\n      mstore\n        /* \"SVG-MVP_football/contracts/getPlayerSvg.sol\":661:758  svg = string(abi.encodePacked(svg, '<rect width=\"100%\" height=\"100%\" fill=\"', \"#e40227\" ,'\" />')) */\n      swap1\n      pop\n        /* \"SVG-MVP_football/contracts/getPlayerSvg.sol\":770:789  addImage(svg, name) */\n      tag_15\n        /* \"SVG-MVP_football/contracts/getPlayerSvg.sol\":779:782  svg */\n      dup2\n        /* \"SVG-MVP_football/contracts/getPlayerSvg.sol\":784:788  name */\n      dup5\n        /* \"SVG-MVP_football/contracts/getPlayerSvg.sol\":770:778  addImage */\n      tag_16\n        /* \"SVG-MVP_football/contracts/getPlayerSvg.sol\":770:789  addImage(svg, name) */\n      jump\t// in\n    tag_15:\n        /* \"SVG-MVP_football/contracts/getPlayerSvg.sol\":764:789  svg = addImage(svg, name) */\n      swap1\n      pop\n        /* \"SVG-MVP_football/contracts/getPlayerSvg.sol\":827:830  svg */\n      dup1\n        /* \"SVG-MVP_football/contracts/getPlayerSvg.sol\":870:874  name */\n      dup4\n        /* \"SVG-MVP_football/contracts/getPlayerSvg.sol\":810:886  abi.encodePacked(svg, '<text x=\"80\" y=\"40\" class=\"title\">', name ,'</text>') */\n      add(0x20, mload(0x40))\n      tag_17\n      swap3\n      swap2\n      swap1\n      tag_18\n      jump\t// in\n    tag_17:\n      mload(0x40)\n      0x20\n      dup2\n      dup4\n      sub\n      sub\n      dup2\n      mstore\n      swap1\n      0x40\n      mstore\n        /* \"SVG-MVP_football/contracts/getPlayerSvg.sol\":797:887  svg = string(abi.encodePacked(svg, '<text x=\"80\" y=\"40\" class=\"title\">', name ,'</text>')) */\n      swap1\n      pop\n        /* \"SVG-MVP_football/contracts/getPlayerSvg.sol\":923:926  svg */\n      dup1\n        /* \"SVG-MVP_football/contracts/getPlayerSvg.sol\":964:990  Strings.toString(gameplay) */\n      tag_19\n        /* \"SVG-MVP_football/contracts/getPlayerSvg.sol\":981:989  gameplay */\n      dup8\n        /* \"SVG-MVP_football/contracts/getPlayerSvg.sol\":964:980  Strings.toString */\n      tag_20\n        /* \"SVG-MVP_football/contracts/getPlayerSvg.sol\":964:990  Strings.toString(gameplay) */\n      jump\t// in\n    tag_19:\n        /* \"SVG-MVP_football/contracts/getPlayerSvg.sol\":906:1009  abi.encodePacked(svg, '<text x=\"20\" y=\"320\" >Gameplay: ', Strings.toString(gameplay), 'min', '</text>') */\n      add(0x20, mload(0x40))\n      tag_21\n      swap3\n      swap2\n      swap1\n      tag_22\n      jump\t// in\n    tag_21:\n      mload(0x40)\n      0x20\n      dup2\n      dup4\n      sub\n      sub\n      dup2\n      mstore\n      swap1\n      0x40\n      mstore\n        /* \"SVG-MVP_football/contracts/getPlayerSvg.sol\":893:1010  svg = string(abi.encodePacked(svg, '<text x=\"20\" y=\"320\" >Gameplay: ', Strings.toString(gameplay), 'min', '</text>')) */\n      swap1\n      pop\n        /* \"SVG-MVP_football/contracts/getPlayerSvg.sol\":1046:1049  svg */\n      dup1\n        /* \"SVG-MVP_football/contracts/getPlayerSvg.sol\":1084:1115  Strings.toString(numberOfGames) */\n      tag_23\n        /* \"SVG-MVP_football/contracts/getPlayerSvg.sol\":1101:1114  numberOfGames */\n      dup7\n        /* \"SVG-MVP_football/contracts/getPlayerSvg.sol\":1084:1100  Strings.toString */\n      tag_20\n        /* \"SVG-MVP_football/contracts/getPlayerSvg.sol\":1084:1115  Strings.toString(numberOfGames) */\n      jump\t// in\n    tag_23:\n        /* \"SVG-MVP_football/contracts/getPlayerSvg.sol\":1029:1126  abi.encodePacked(svg, '<text x=\"20\" y=\"340\" >Games: ', Strings.toString(numberOfGames),'</text>') */\n      add(0x20, mload(0x40))\n      tag_24\n      swap3\n      swap2\n      swap1\n      tag_25\n      jump\t// in\n    tag_24:\n      mload(0x40)\n      0x20\n      dup2\n      dup4\n      sub\n      sub\n      dup2\n      mstore\n      swap1\n      0x40\n      mstore\n        /* \"SVG-MVP_football/contracts/getPlayerSvg.sol\":1016:1127  svg = string(abi.encodePacked(svg, '<text x=\"20\" y=\"340\" >Games: ', Strings.toString(numberOfGames),'</text>')) */\n      swap1\n      pop\n        /* \"SVG-MVP_football/contracts/getPlayerSvg.sol\":1163:1166  svg */\n      dup1\n        /* \"SVG-MVP_football/contracts/getPlayerSvg.sol\":1201:1224  Strings.toString(goals) */\n      tag_26\n        /* \"SVG-MVP_football/contracts/getPlayerSvg.sol\":1218:1223  goals */\n      dup6\n        /* \"SVG-MVP_football/contracts/getPlayerSvg.sol\":1201:1217  Strings.toString */\n      tag_20\n        /* \"SVG-MVP_football/contracts/getPlayerSvg.sol\":1201:1224  Strings.toString(goals) */\n      jump\t// in\n    tag_26:\n        /* \"SVG-MVP_football/contracts/getPlayerSvg.sol\":1146:1236  abi.encodePacked(svg, '<text x=\"20\" y=\"360\" >Goals: ', Strings.toString(goals), '</text>') */\n      add(0x20, mload(0x40))\n      tag_27\n      swap3\n      swap2\n      swap1\n      tag_28\n      jump\t// in\n    tag_27:\n      mload(0x40)\n      0x20\n      dup2\n      dup4\n      sub\n      sub\n      dup2\n      mstore\n      swap1\n      0x40\n      mstore\n        /* \"SVG-MVP_football/contracts/getPlayerSvg.sol\":1133:1237  svg = string(abi.encodePacked(svg, '<text x=\"20\" y=\"360\" >Goals: ', Strings.toString(goals), '</text>')) */\n      swap1\n      pop\n        /* \"SVG-MVP_football/contracts/getPlayerSvg.sol\":1273:1276  svg */\n      dup1\n        /* \"SVG-MVP_football/contracts/getPlayerSvg.sol\":1314:1322  position */\n      dup3\n        /* \"SVG-MVP_football/contracts/getPlayerSvg.sol\":1256:1334  abi.encodePacked(svg, '<text x=\"20\" y=\"380\" >Position: ', position, '</text>') */\n      add(0x20, mload(0x40))\n      tag_29\n      swap3\n      swap2\n      swap1\n      tag_30\n      jump\t// in\n    tag_29:\n      mload(0x40)\n      0x20\n      dup2\n      dup4\n      sub\n      sub\n      dup2\n      mstore\n      swap1\n      0x40\n      mstore\n        /* \"SVG-MVP_football/contracts/getPlayerSvg.sol\":1243:1335  svg = string(abi.encodePacked(svg, '<text x=\"20\" y=\"380\" >Position: ', position, '</text>')) */\n      swap1\n      pop\n        /* \"SVG-MVP_football/contracts/getPlayerSvg.sol\":1478:1481  svg */\n      dup1\n        /* \"SVG-MVP_football/contracts/getPlayerSvg.sol\":1461:1492  abi.encodePacked(svg, '</svg>') */\n      add(0x20, mload(0x40))\n      tag_31\n      swap2\n      swap1\n      tag_32\n      jump\t// in\n    tag_31:\n      mload(0x40)\n      0x20\n      dup2\n      dup4\n      sub\n      sub\n      dup2\n      mstore\n      swap1\n      0x40\n      mstore\n        /* \"SVG-MVP_football/contracts/getPlayerSvg.sol\":1448:1493  svg = string(abi.encodePacked(svg, '</svg>')) */\n      swap1\n      pop\n        /* \"SVG-MVP_football/contracts/getPlayerSvg.sol\":137:1498  function getSVG(uint gameplay, uint numberOfGames, uint goals, string memory name, string memory position) public pure  returns (string memory svg) {... */\n      swap6\n      swap5\n      pop\n      pop\n      pop\n      pop\n      pop\n      jump\t// out\n        /* \"SVG-MVP_football/contracts/getPlayerSvg.sol\":1504:13138  function addImage(string memory svg, string memory name) internal pure returns (string memory _svg) {... */\n    tag_16:\n        /* \"SVG-MVP_football/contracts/getPlayerSvg.sol\":1584:1602  string memory _svg */\n      0x60\n        /* \"SVG-MVP_football/contracts/getPlayerSvg.sol\":1689:1693  name */\n      dup2\n        /* \"SVG-MVP_football/contracts/getPlayerSvg.sol\":1672:1694  abi.encodePacked(name) */\n      add(0x20, mload(0x40))\n      tag_34\n      swap2\n      swap1\n      tag_35\n      jump\t// in\n    tag_34:\n      mload(0x40)\n      0x20\n      dup2\n      dup4\n      sub\n      sub\n      dup2\n      mstore\n      swap1\n      0x40\n      mstore\n        /* \"SVG-MVP_football/contracts/getPlayerSvg.sol\":1662:1695  keccak256(abi.encodePacked(name)) */\n      dup1\n      mload\n      swap1\n      0x20\n      add\n      keccak256\n        /* \"SVG-MVP_football/contracts/getPlayerSvg.sol\":1622:1657  abi.encodePacked(\"Noah Katterbach\") */\n      add(0x20, mload(0x40))\n      tag_36\n      swap1\n      shl(0x8b, 0x09cdec2d04096c2e8e8cae4c4c2c6d)\n        /* \"#utility.yul\":21776:21806   */\n      dup2\n      mstore\n        /* \"#utility.yul\":21831:21833   */\n      0x0f\n        /* \"#utility.yul\":21822:21834   */\n      add\n      swap1\n        /* \"#utility.yul\":21574:21840   */\n      jump\n        /* \"SVG-MVP_football/contracts/getPlayerSvg.sol\":1622:1657  abi.encodePacked(\"Noah Katterbach\") */\n    tag_36:\n      mload(0x40)\n      0x20\n      dup2\n      dup4\n      sub\n      sub\n      dup2\n      mstore\n      swap1\n      0x40\n      mstore\n        /* \"SVG-MVP_football/contracts/getPlayerSvg.sol\":1612:1658  keccak256(abi.encodePacked(\"Noah Katterbach\")) */\n      dup1\n      mload\n      swap1\n      0x20\n      add\n      keccak256\n        /* \"SVG-MVP_football/contracts/getPlayerSvg.sol\":1612:1695  keccak256(abi.encodePacked(\"Noah Katterbach\")) == keccak256(abi.encodePacked(name)) */\n      eq\n        /* \"SVG-MVP_football/contracts/getPlayerSvg.sol\":1608:7372  if (keccak256(abi.encodePacked(\"Noah Katterbach\")) == keccak256(abi.encodePacked(name)) ) {... */\n      iszero\n      tag_38\n      jumpi\n        /* \"SVG-MVP_football/contracts/getPlayerSvg.sol\":1733:1736  svg */\n      dup3\n        /* \"SVG-MVP_football/contracts/getPlayerSvg.sol\":1716:7368  abi.encodePacked(svg, '<path style=\"fill:#0f3b86\" d=\"m 1.40678,220.09322 c -11.801253,-588.94897 784.73846,216.46097 -10e-6,217.49999 z m 201.1597,30.90299 c 6.3282,-3.84418 9.41964,-7.45087 8.48164,-9.89527 -0.93686,-2.44142 -7.1407,-1.78923 -13.49566,1.41874 l -5.79729,2.92646 -2.55092,-2.17646 c -3.31167,-2.82553 -3.99478,-5.04032 -2.26059,-7.32926 0.76973,-1.01596 1.41382,-2.8597 1.43132,-4.0972 0.0175,-1.2375 0.4818,-2.25 1.0318,-2.25 0.55,0 1,-0.86786 1,-1.92857 0,-2.65104 2.65304,-5.07143 5.55888,-5.07143 2.66572,0 7.44112,-6.37217 7.44112,-9.92924 0,-2.19283 -3.65488,-5.1745 -12.25,-9.99362 -3.1625,-1.77316 -5.75,-3.58292 -5.75,-4.0217 0,-0.43878 2.26203,-1.09785 5.02674,-1.4646 6.75008,-0.89543 10.89222,-4.56567 11.66617,-10.33706 0.55585,-4.14508 0.48045,-4.2834 -3.1654,-5.80673 -3.57142,-1.49224 -3.66037,-1.64276 -2.0332,-3.44076 2.27494,-2.51379 1.13746,-4.00629 -3.05333,-4.00629 -1.89254,0 -3.44098,-0.39541 -3.44098,-0.87868 0,-1.63945 6.47592,-3.58356 12,-3.60248 5.37671,-0.0184 5.50733,0.0484 5.82695,2.98116 0.17982,1.65 0.72757,3.41275 1.21721,3.91722 1.46547,1.50982 2.39043,-2.49169 1.06612,-4.61223 -1.46121,-2.33978 -0.62057,-5.46152 1.82285,-6.7692 1.63193,-0.87339 1.85974,-0.27725 2.47075,6.46548 0.74742,8.24804 -0.73168,12.68619 -5.80656,17.42304 -1.92135,1.79338 -2.59732,3.41998 -2.59732,6.25 0,6.00018 3.34882,5.25318 12.20396,-2.72225 3.9986,-3.60136 7.63587,-7.20136 8.0828,-8 2.09898,-3.75066 5.64724,1.02981 4.18469,5.63791 -0.87095,2.74411 2.11943,3.59025 4.63685,1.31202 1.91155,-1.72993 2.01756,-2.83422 1.76364,-18.37128 -0.24055,-14.71901 -0.027,-17.31678 1.94818,-23.70311 2.49213,-8.05759 3.95526,-18.96852 4.55531,-33.97002 0.34772,-8.69296 0.13645,-10.55079 -1.47828,-13 -1.03618,-1.57167 -1.88694,-2.45034 -1.89056,-1.95259 -0.004,0.49774 -0.79409,0.22068 -1.75659,-0.61569 -0.9625,-0.83638 -2.96957,-1.81019 -4.46015,-2.16404 -1.49058,-0.35385 -4.1534,-2.43929 -5.91736,-4.63431 -1.76397,-2.19502 -3.58191,-3.99095 -4.03985,-3.99095 -0.45795,0 -0.8775,3.7125 -0.93232,8.25 -0.0548,4.5375 -0.42696,9.375 -0.82696,10.75 -0.54715,1.8808 -0.12938,3.22575 1.68673,5.43018 1.6759,2.03425 2.25612,3.71594 1.89761,5.5 -1.24529,6.19696 -1.20271,6.4203 1.3423,7.04155 2.85156,0.69608 3.73307,3.79 2.00161,7.02526 -0.61818,1.15509 -1.50342,6.84101 -1.9672,12.63539 -0.71151,8.88941 -1.19784,10.91268 -3.11314,12.95142 -1.24844,1.32891 -2.97896,2.40189 -3.84558,2.3844 -3.9481,-0.0797 -7.22005,-5.9682 -3.31624,-5.9682 2.41889,0 4.0287,-2.9223 4.79595,-8.70613 0.50689,-3.82106 0.29978,-5.16917 -0.95398,-6.2097 -0.88078,-0.73098 -1.60142,-1.87673 -1.60142,-2.5461 0,-0.66937 -1.125,-1.72962 -2.5,-2.35612 -1.375,-0.62649 -2.5,-1.68222 -2.5,-2.34606 0,-1.69097 -4.06543,-5.83589 -5.72397,-5.83589 -0.75644,0 -2.74657,0.70909 -4.42251,1.57575 -2.44196,1.26278 -2.91424,2.00758 -2.37792,3.75 0.36809,1.19584 1.65124,5.77425 2.85145,10.17425 1.20021,4.4 2.96762,9.11263 3.92758,10.47251 2.39788,3.39685 2.18677,6.26419 -0.65798,8.93669 -3.63667,3.41648 -9.21795,4.35922 -14.34665,2.42331 -2.3375,-0.88232 -4.25,-2.14507 -4.25,-2.8061 0,-1.66157 10.49599,-6.65705 12.42877,-5.91537 2.08334,0.79945 2.07961,-1.94423 -0.005,-3.67429 -1.29994,-1.07886 -1.72048,-1.07471 -2.39932,0.0237 -0.63801,1.03231 -1.40797,0.74697 -3.42379,-1.26885 -2.38321,-2.38324 -2.60066,-3.29485 -2.60066,-10.90275 0,-4.56613 0.42451,-9.78222 0.94335,-11.59132 1.40102,-4.88508 6.57982,-9.10102 14.45059,-11.76389 9.83005,-3.32575 10.29913,-3.96532 7.80242,-10.63837 -1.34261,-3.58843 -2.12041,-8.42495 -2.30833,-14.35365 -0.15589,-4.91789 -0.73847,-9.551 -1.29463,-10.2958 -2.10282,-2.81603 -5.81286,-3.25515 -17.06976,-2.02037 -8.54734,0.93757 -12.17544,0.94785 -15.7622,0.0447 -3.53608,-0.89039 -6.51745,-0.89682 -12.36795,-0.0267 -9.24755,1.3754 -13.20744,4.36404 -17.89349,13.50469 -2.61459,5.10004 -3.04449,7.11519 -3.34633,15.68565 l -0.34632,9.83382 -2.35279,-2.21033 c -3.57902,-3.36231 -5.08017,-2.02273 -5.727,5.11059 -0.4037,4.45211 -0.0155,8.3964 1.35316,13.74769 1.0556,4.12739 1.91928,8.90722 1.91928,10.62187 0,4.09996 2.38041,7.35527 5.66505,7.74717 2.40305,0.28672 2.8579,1.08766 5.00612,8.81537 1.91806,6.89972 2.46111,11.7947 2.88449,26 0.73987,24.82447 1.52404,27.1095 14.66077,42.72029 5.65596,6.72116 12.30857,13.67298 14.78357,15.4485 2.475,1.77552 5.97816,4.48889 7.7848,6.02971 1.80663,1.54083 3.54777,2.8015 3.86919,2.8015 0.32141,0 3.24898,-1.61866 6.50571,-3.59701 z M 165.33524,129.00702 c -0.89843,-1.08255 -2.23293,-1.40291 -4.2028,-1.00893 -2.041,0.4082 -2.7678,0.21378 -2.48153,-0.6638 0.22266,-0.68259 2.50882,-1.65399 5.08035,-2.15867 2.57154,-0.50468 4.67552,-1.26305 4.67552,-1.68527 0,-0.42222 -1.575,-1.3372 -3.5,-2.03329 -5.62576,-2.0343 -4.06187,-3.11081 3.9327,-2.70711 7.95378,0.40165 9.49396,1.02179 7.75165,3.12114 -0.60536,0.72941 -0.88751,2.20279 -0.62701,3.27417 0.36315,1.4935 -0.42295,2.35623 -3.36946,3.69796 -4.7264,2.15222 -5.59295,2.17177 -7.25942,0.1638 z m 81.27287,16.6537 c 0.40142,-2.35143 1.00067,-5.12857 1.33165,-6.17142 0.79676,-2.51036 -3.0095,-2.64802 -4.03931,-0.14608 -0.89654,2.17816 -1.44469,9.46991 -0.7933,10.55279 1.10375,1.83487 2.81893,-0.24006 3.50096,-4.23529 z m -20.9369,-13.66527 c 0.32877,-0.32877 0.35563,-1.22877 0.0597,-2 -0.71056,-1.85168 -5.32411,-1.83918 -5.32411,0.0144 0,1.94826 3.84974,3.40025 5.26443,1.98556 z m 23.6974,-9.51789 c -1.69788,-5.14462 -3.72892,-5.11873 -2.99686,0.0382 0.29823,2.10081 3.47436,6.05927 3.90692,4.86925 0.20454,-0.56271 -0.20499,-2.77106 -0.91006,-4.90744 z m 2.03817,-7.38434 c 0,-0.825 -0.675,-1.5 -1.5,-1.5 -0.825,0 -1.5,0.675 -1.5,1.5 0,0.825 0.675,1.5 1.5,1.5 0.825,0 1.5,-0.675 1.5,-1.5 z\" fill=\"#0f3b86\"/>') */\n      add(0x20, mload(0x40))\n      tag_39\n      swap2\n      swap1\n      tag_40\n      jump\t// in\n    tag_39:\n      mload(0x40)\n      0x20\n      dup2\n      dup4\n      sub\n      sub\n      dup2\n      mstore\n      swap1\n      0x40\n      mstore\n        /* \"SVG-MVP_football/contracts/getPlayerSvg.sol\":1702:7369  _svg = string(abi.encodePacked(svg, '<path style=\"fill:#0f3b86\" d=\"m 1.40678,220.09322 c -11.801253,-588.94897 784.73846,216.46097 -10e-6,217.49999 z m 201.1597,30.90299 c 6.3282,-3.84418 9.41964,-7.45087 8.48164,-9.89527 -0.93686,-2.44142 -7.1407,-1.78923 -13.49566,1.41874 l -5.79729,2.92646 -2.55092,-2.17646 c -3.31167,-2.82553 -3.99478,-5.04032 -2.26059,-7.32926 0.76973,-1.01596 1.41382,-2.8597 1.43132,-4.0972 0.0175,-1.2375 0.4818,-2.25 1.0318,-2.25 0.55,0 1,-0.86786 1,-1.92857 0,-2.65104 2.65304,-5.07143 5.55888,-5.07143 2.66572,0 7.44112,-6.37217 7.44112,-9.92924 0,-2.19283 -3.65488,-5.1745 -12.25,-9.99362 -3.1625,-1.77316 -5.75,-3.58292 -5.75,-4.0217 0,-0.43878 2.26203,-1.09785 5.02674,-1.4646 6.75008,-0.89543 10.89222,-4.56567 11.66617,-10.33706 0.55585,-4.14508 0.48045,-4.2834 -3.1654,-5.80673 -3.57142,-1.49224 -3.66037,-1.64276 -2.0332,-3.44076 2.27494,-2.51379 1.13746,-4.00629 -3.05333,-4.00629 -1.89254,0 -3.44098,-0.39541 -3.44098,-0.87868 0,-1.63945 6.47592,-3.58356 12,-3.60248 5.37671,-0.0184 5.50733,0.0484 5.82695,2.98116 0.17982,1.65 0.72757,3.41275 1.21721,3.91722 1.46547,1.50982 2.39043,-2.49169 1.06612,-4.61223 -1.46121,-2.33978 -0.62057,-5.46152 1.82285,-6.7692 1.63193,-0.87339 1.85974,-0.27725 2.47075,6.46548 0.74742,8.24804 -0.73168,12.68619 -5.80656,17.42304 -1.92135,1.79338 -2.59732,3.41998 -2.59732,6.25 0,6.00018 3.34882,5.25318 12.20396,-2.72225 3.9986,-3.60136 7.63587,-7.20136 8.0828,-8 2.09898,-3.75066 5.64724,1.02981 4.18469,5.63791 -0.87095,2.74411 2.11943,3.59025 4.63685,1.31202 1.91155,-1.72993 2.01756,-2.83422 1.76364,-18.37128 -0.24055,-14.71901 -0.027,-17.31678 1.94818,-23.70311 2.49213,-8.05759 3.95526,-18.96852 4.55531,-33.97002 0.34772,-8.69296 0.13645,-10.55079 -1.47828,-13 -1.03618,-1.57167 -1.88694,-2.45034 -1.89056,-1.95259 -0.004,0.49774 -0.79409,0.22068 -1.75659,-0.61569 -0.9625,-0.83638 -2.96957,-1.81019 -4.46015,-2.16404 -1.49058,-0.35385 -4.1534,-2.43929 -5.91736,-4.63431 -1.76397,-2.19502 -3.58191,-3.99095 -4.03985,-3.99095 -0.45795,0 -0.8775,3.7125 -0.93232,8.25 -0.0548,4.5375 -0.42696,9.375 -0.82696,10.75 -0.54715,1.8808 -0.12938,3.22575 1.68673,5.43018 1.6759,2.03425 2.25612,3.71594 1.89761,5.5 -1.24529,6.19696 -1.20271,6.4203 1.3423,7.04155 2.85156,0.69608 3.73307,3.79 2.00161,7.02526 -0.61818,1.15509 -1.50342,6.84101 -1.9672,12.63539 -0.71151,8.88941 -1.19784,10.91268 -3.11314,12.95142 -1.24844,1.32891 -2.97896,2.40189 -3.84558,2.3844 -3.9481,-0.0797 -7.22005,-5.9682 -3.31624,-5.9682 2.41889,0 4.0287,-2.9223 4.79595,-8.70613 0.50689,-3.82106 0.29978,-5.16917 -0.95398,-6.2097 -0.88078,-0.73098 -1.60142,-1.87673 -1.60142,-2.5461 0,-0.66937 -1.125,-1.72962 -2.5,-2.35612 -1.375,-0.62649 -2.5,-1.68222 -2.5,-2.34606 0,-1.69097 -4.06543,-5.83589 -5.72397,-5.83589 -0.75644,0 -2.74657,0.70909 -4.42251,1.57575 -2.44196,1.26278 -2.91424,2.00758 -2.37792,3.75 0.36809,1.19584 1.65124,5.77425 2.85145,10.17425 1.20021,4.4 2.96762,9.11263 3.92758,10.47251 2.39788,3.39685 2.18677,6.26419 -0.65798,8.93669 -3.63667,3.41648 -9.21795,4.35922 -14.34665,2.42331 -2.3375,-0.88232 -4.25,-2.14507 -4.25,-2.8061 0,-1.66157 10.49599,-6.65705 12.42877,-5.91537 2.08334,0.79945 2.07961,-1.94423 -0.005,-3.67429 -1.29994,-1.07886 -1.72048,-1.07471 -2.39932,0.0237 -0.63801,1.03231 -1.40797,0.74697 -3.42379,-1.26885 -2.38321,-2.38324 -2.60066,-3.29485 -2.60066,-10.90275 0,-4.56613 0.42451,-9.78222 0.94335,-11.59132 1.40102,-4.88508 6.57982,-9.10102 14.45059,-11.76389 9.83005,-3.32575 10.29913,-3.96532 7.80242,-10.63837 -1.34261,-3.58843 -2.12041,-8.42495 -2.30833,-14.35365 -0.15589,-4.91789 -0.73847,-9.551 -1.29463,-10.2958 -2.10282,-2.81603 -5.81286,-3.25515 -17.06976,-2.02037 -8.54734,0.93757 -12.17544,0.94785 -15.7622,0.0447 -3.53608,-0.89039 -6.51745,-0.89682 -12.36795,-0.0267 -9.24755,1.3754 -13.20744,4.36404 -17.89349,13.50469 -2.61459,5.10004 -3.04449,7.11519 -3.34633,15.68565 l -0.34632,9.83382 -2.35279,-2.21033 c -3.57902,-3.36231 -5.08017,-2.02273 -5.727,5.11059 -0.4037,4.45211 -0.0155,8.3964 1.35316,13.74769 1.0556,4.12739 1.91928,8.90722 1.91928,10.62187 0,4.09996 2.38041,7.35527 5.66505,7.74717 2.40305,0.28672 2.8579,1.08766 5.00612,8.81537 1.91806,6.89972 2.46111,11.7947 2.88449,26 0.73987,24.82447 1.52404,27.1095 14.66077,42.72029 5.65596,6.72116 12.30857,13.67298 14.78357,15.4485 2.475,1.77552 5.97816,4.48889 7.7848,6.02971 1.80663,1.54083 3.54777,2.8015 3.86919,2.8015 0.32141,0 3.24898,-1.61866 6.50571,-3.59701 z M 165.33524,129.00702 c -0.89843,-1.08255 -2.23293,-1.40291 -4.2028,-1.00893 -2.041,0.4082 -2.7678,0.21378 -2.48153,-0.6638 0.22266,-0.68259 2.50882,-1.65399 5.08035,-2.15867 2.57154,-0.50468 4.67552,-1.26305 4.67552,-1.68527 0,-0.42222 -1.575,-1.3372 -3.5,-2.03329 -5.62576,-2.0343 -4.06187,-3.11081 3.9327,-2.70711 7.95378,0.40165 9.49396,1.02179 7.75165,3.12114 -0.60536,0.72941 -0.88751,2.20279 -0.62701,3.27417 0.36315,1.4935 -0.42295,2.35623 -3.36946,3.69796 -4.7264,2.15222 -5.59295,2.17177 -7.25942,0.1638 z m 81.27287,16.6537 c 0.40142,-2.35143 1.00067,-5.12857 1.33165,-6.17142 0.79676,-2.51036 -3.0095,-2.64802 -4.03931,-0.14608 -0.89654,2.17816 -1.44469,9.46991 -0.7933,10.55279 1.10375,1.83487 2.81893,-0.24006 3.50096,-4.23529 z m -20.9369,-13.66527 c 0.32877,-0.32877 0.35563,-1.22877 0.0597,-2 -0.71056,-1.85168 -5.32411,-1.83918 -5.32411,0.0144 0,1.94826 3.84974,3.40025 5.26443,1.98556 z m 23.6974,-9.51789 c -1.69788,-5.14462 -3.72892,-5.11873 -2.99686,0.0382 0.29823,2.10081 3.47436,6.05927 3.90692,4.86925 0.20454,-0.56271 -0.20499,-2.77106 -0.91006,-4.90744 z m 2.03817,-7.38434 c 0,-0.825 -0.675,-1.5 -1.5,-1.5 -0.825,0 -1.5,0.675 -1.5,1.5 0,0.825 0.675,1.5 1.5,1.5 0.825,0 1.5,-0.675 1.5,-1.5 z\" fill=\"#0f3b86\"/>')) */\n      swap1\n      pop\n        /* \"SVG-MVP_football/contracts/getPlayerSvg.sol\":1608:7372  if (keccak256(abi.encodePacked(\"Noah Katterbach\")) == keccak256(abi.encodePacked(name)) ) {... */\n    tag_38:\n        /* \"SVG-MVP_football/contracts/getPlayerSvg.sol\":7451:7455  name */\n      dup2\n        /* \"SVG-MVP_football/contracts/getPlayerSvg.sol\":7434:7456  abi.encodePacked(name) */\n      add(0x20, mload(0x40))\n      tag_41\n      swap2\n      swap1\n      tag_35\n      jump\t// in\n    tag_41:\n      mload(0x40)\n      0x20\n      dup2\n      dup4\n      sub\n      sub\n      dup2\n      mstore\n      swap1\n      0x40\n      mstore\n        /* \"SVG-MVP_football/contracts/getPlayerSvg.sol\":7424:7457  keccak256(abi.encodePacked(name)) */\n      dup1\n      mload\n      swap1\n      0x20\n      add\n      keccak256\n        /* \"SVG-MVP_football/contracts/getPlayerSvg.sol\":7387:7419  abi.encodePacked(\"Andy Pelmard\") */\n      add(0x20, mload(0x40))\n      tag_42\n      swap1\n      shl(0xa2, 0x105b991e4814195b1b585c99)\n        /* \"#utility.yul\":21508:21535   */\n      dup2\n      mstore\n        /* \"#utility.yul\":21560:21562   */\n      0x0c\n        /* \"#utility.yul\":21551:21563   */\n      add\n      swap1\n        /* \"#utility.yul\":21306:21569   */\n      jump\n        /* \"SVG-MVP_football/contracts/getPlayerSvg.sol\":7387:7419  abi.encodePacked(\"Andy Pelmard\") */\n    tag_42:\n      mload(0x40)\n      0x20\n      dup2\n      dup4\n      sub\n      sub\n      dup2\n      mstore\n      swap1\n      0x40\n      mstore\n        /* \"SVG-MVP_football/contracts/getPlayerSvg.sol\":7377:7420  keccak256(abi.encodePacked(\"Andy Pelmard\")) */\n      dup1\n      mload\n      swap1\n      0x20\n      add\n      keccak256\n        /* \"SVG-MVP_football/contracts/getPlayerSvg.sol\":7377:7457  keccak256(abi.encodePacked(\"Andy Pelmard\")) == keccak256(abi.encodePacked(name)) */\n      eq\n        /* \"SVG-MVP_football/contracts/getPlayerSvg.sol\":7373:13134  if (keccak256(abi.encodePacked(\"Andy Pelmard\")) == keccak256(abi.encodePacked(name)) ) {... */\n      iszero\n      tag_44\n      jumpi\n        /* \"SVG-MVP_football/contracts/getPlayerSvg.sol\":7495:7498  svg */\n      dup3\n        /* \"SVG-MVP_football/contracts/getPlayerSvg.sol\":7478:13130  abi.encodePacked(svg, '<path style=\"fill:#0f3b86\" d=\"m 1.40678,220.09322 c -11.801253,-588.94897 784.73846,216.46097 -10e-6,217.49999 z m 201.1597,30.90299 c 6.3282,-3.84418 9.41964,-7.45087 8.48164,-9.89527 -0.93686,-2.44142 -7.1407,-1.78923 -13.49566,1.41874 l -5.79729,2.92646 -2.55092,-2.17646 c -3.31167,-2.82553 -3.99478,-5.04032 -2.26059,-7.32926 0.76973,-1.01596 1.41382,-2.8597 1.43132,-4.0972 0.0175,-1.2375 0.4818,-2.25 1.0318,-2.25 0.55,0 1,-0.86786 1,-1.92857 0,-2.65104 2.65304,-5.07143 5.55888,-5.07143 2.66572,0 7.44112,-6.37217 7.44112,-9.92924 0,-2.19283 -3.65488,-5.1745 -12.25,-9.99362 -3.1625,-1.77316 -5.75,-3.58292 -5.75,-4.0217 0,-0.43878 2.26203,-1.09785 5.02674,-1.4646 6.75008,-0.89543 10.89222,-4.56567 11.66617,-10.33706 0.55585,-4.14508 0.48045,-4.2834 -3.1654,-5.80673 -3.57142,-1.49224 -3.66037,-1.64276 -2.0332,-3.44076 2.27494,-2.51379 1.13746,-4.00629 -3.05333,-4.00629 -1.89254,0 -3.44098,-0.39541 -3.44098,-0.87868 0,-1.63945 6.47592,-3.58356 12,-3.60248 5.37671,-0.0184 5.50733,0.0484 5.82695,2.98116 0.17982,1.65 0.72757,3.41275 1.21721,3.91722 1.46547,1.50982 2.39043,-2.49169 1.06612,-4.61223 -1.46121,-2.33978 -0.62057,-5.46152 1.82285,-6.7692 1.63193,-0.87339 1.85974,-0.27725 2.47075,6.46548 0.74742,8.24804 -0.73168,12.68619 -5.80656,17.42304 -1.92135,1.79338 -2.59732,3.41998 -2.59732,6.25 0,6.00018 3.34882,5.25318 12.20396,-2.72225 3.9986,-3.60136 7.63587,-7.20136 8.0828,-8 2.09898,-3.75066 5.64724,1.02981 4.18469,5.63791 -0.87095,2.74411 2.11943,3.59025 4.63685,1.31202 1.91155,-1.72993 2.01756,-2.83422 1.76364,-18.37128 -0.24055,-14.71901 -0.027,-17.31678 1.94818,-23.70311 2.49213,-8.05759 3.95526,-18.96852 4.55531,-33.97002 0.34772,-8.69296 0.13645,-10.55079 -1.47828,-13 -1.03618,-1.57167 -1.88694,-2.45034 -1.89056,-1.95259 -0.004,0.49774 -0.79409,0.22068 -1.75659,-0.61569 -0.9625,-0.83638 -2.96957,-1.81019 -4.46015,-2.16404 -1.49058,-0.35385 -4.1534,-2.43929 -5.91736,-4.63431 -1.76397,-2.19502 -3.58191,-3.99095 -4.03985,-3.99095 -0.45795,0 -0.8775,3.7125 -0.93232,8.25 -0.0548,4.5375 -0.42696,9.375 -0.82696,10.75 -0.54715,1.8808 -0.12938,3.22575 1.68673,5.43018 1.6759,2.03425 2.25612,3.71594 1.89761,5.5 -1.24529,6.19696 -1.20271,6.4203 1.3423,7.04155 2.85156,0.69608 3.73307,3.79 2.00161,7.02526 -0.61818,1.15509 -1.50342,6.84101 -1.9672,12.63539 -0.71151,8.88941 -1.19784,10.91268 -3.11314,12.95142 -1.24844,1.32891 -2.97896,2.40189 -3.84558,2.3844 -3.9481,-0.0797 -7.22005,-5.9682 -3.31624,-5.9682 2.41889,0 4.0287,-2.9223 4.79595,-8.70613 0.50689,-3.82106 0.29978,-5.16917 -0.95398,-6.2097 -0.88078,-0.73098 -1.60142,-1.87673 -1.60142,-2.5461 0,-0.66937 -1.125,-1.72962 -2.5,-2.35612 -1.375,-0.62649 -2.5,-1.68222 -2.5,-2.34606 0,-1.69097 -4.06543,-5.83589 -5.72397,-5.83589 -0.75644,0 -2.74657,0.70909 -4.42251,1.57575 -2.44196,1.26278 -2.91424,2.00758 -2.37792,3.75 0.36809,1.19584 1.65124,5.77425 2.85145,10.17425 1.20021,4.4 2.96762,9.11263 3.92758,10.47251 2.39788,3.39685 2.18677,6.26419 -0.65798,8.93669 -3.63667,3.41648 -9.21795,4.35922 -14.34665,2.42331 -2.3375,-0.88232 -4.25,-2.14507 -4.25,-2.8061 0,-1.66157 10.49599,-6.65705 12.42877,-5.91537 2.08334,0.79945 2.07961,-1.94423 -0.005,-3.67429 -1.29994,-1.07886 -1.72048,-1.07471 -2.39932,0.0237 -0.63801,1.03231 -1.40797,0.74697 -3.42379,-1.26885 -2.38321,-2.38324 -2.60066,-3.29485 -2.60066,-10.90275 0,-4.56613 0.42451,-9.78222 0.94335,-11.59132 1.40102,-4.88508 6.57982,-9.10102 14.45059,-11.76389 9.83005,-3.32575 10.29913,-3.96532 7.80242,-10.63837 -1.34261,-3.58843 -2.12041,-8.42495 -2.30833,-14.35365 -0.15589,-4.91789 -0.73847,-9.551 -1.29463,-10.2958 -2.10282,-2.81603 -5.81286,-3.25515 -17.06976,-2.02037 -8.54734,0.93757 -12.17544,0.94785 -15.7622,0.0447 -3.53608,-0.89039 -6.51745,-0.89682 -12.36795,-0.0267 -9.24755,1.3754 -13.20744,4.36404 -17.89349,13.50469 -2.61459,5.10004 -3.04449,7.11519 -3.34633,15.68565 l -0.34632,9.83382 -2.35279,-2.21033 c -3.57902,-3.36231 -5.08017,-2.02273 -5.727,5.11059 -0.4037,4.45211 -0.0155,8.3964 1.35316,13.74769 1.0556,4.12739 1.91928,8.90722 1.91928,10.62187 0,4.09996 2.38041,7.35527 5.66505,7.74717 2.40305,0.28672 2.8579,1.08766 5.00612,8.81537 1.91806,6.89972 2.46111,11.7947 2.88449,26 0.73987,24.82447 1.52404,27.1095 14.66077,42.72029 5.65596,6.72116 12.30857,13.67298 14.78357,15.4485 2.475,1.77552 5.97816,4.48889 7.7848,6.02971 1.80663,1.54083 3.54777,2.8015 3.86919,2.8015 0.32141,0 3.24898,-1.61866 6.50571,-3.59701 z M 165.33524,129.00702 c -0.89843,-1.08255 -2.23293,-1.40291 -4.2028,-1.00893 -2.041,0.4082 -2.7678,0.21378 -2.48153,-0.6638 0.22266,-0.68259 2.50882,-1.65399 5.08035,-2.15867 2.57154,-0.50468 4.67552,-1.26305 4.67552,-1.68527 0,-0.42222 -1.575,-1.3372 -3.5,-2.03329 -5.62576,-2.0343 -4.06187,-3.11081 3.9327,-2.70711 7.95378,0.40165 9.49396,1.02179 7.75165,3.12114 -0.60536,0.72941 -0.88751,2.20279 -0.62701,3.27417 0.36315,1.4935 -0.42295,2.35623 -3.36946,3.69796 -4.7264,2.15222 -5.59295,2.17177 -7.25942,0.1638 z m 81.27287,16.6537 c 0.40142,-2.35143 1.00067,-5.12857 1.33165,-6.17142 0.79676,-2.51036 -3.0095,-2.64802 -4.03931,-0.14608 -0.89654,2.17816 -1.44469,9.46991 -0.7933,10.55279 1.10375,1.83487 2.81893,-0.24006 3.50096,-4.23529 z m -20.9369,-13.66527 c 0.32877,-0.32877 0.35563,-1.22877 0.0597,-2 -0.71056,-1.85168 -5.32411,-1.83918 -5.32411,0.0144 0,1.94826 3.84974,3.40025 5.26443,1.98556 z m 23.6974,-9.51789 c -1.69788,-5.14462 -3.72892,-5.11873 -2.99686,0.0382 0.29823,2.10081 3.47436,6.05927 3.90692,4.86925 0.20454,-0.56271 -0.20499,-2.77106 -0.91006,-4.90744 z m 2.03817,-7.38434 c 0,-0.825 -0.675,-1.5 -1.5,-1.5 -0.825,0 -1.5,0.675 -1.5,1.5 0,0.825 0.675,1.5 1.5,1.5 0.825,0 1.5,-0.675 1.5,-1.5 z\" fill=\"#0f3b86\"/>') */\n      add(0x20, mload(0x40))\n      tag_45\n      swap2\n      swap1\n      tag_40\n      jump\t// in\n    tag_45:\n      mload(0x40)\n      0x20\n      dup2\n      dup4\n      sub\n      sub\n      dup2\n      mstore\n      swap1\n      0x40\n      mstore\n        /* \"SVG-MVP_football/contracts/getPlayerSvg.sol\":7464:13131  _svg = string(abi.encodePacked(svg, '<path style=\"fill:#0f3b86\" d=\"m 1.40678,220.09322 c -11.801253,-588.94897 784.73846,216.46097 -10e-6,217.49999 z m 201.1597,30.90299 c 6.3282,-3.84418 9.41964,-7.45087 8.48164,-9.89527 -0.93686,-2.44142 -7.1407,-1.78923 -13.49566,1.41874 l -5.79729,2.92646 -2.55092,-2.17646 c -3.31167,-2.82553 -3.99478,-5.04032 -2.26059,-7.32926 0.76973,-1.01596 1.41382,-2.8597 1.43132,-4.0972 0.0175,-1.2375 0.4818,-2.25 1.0318,-2.25 0.55,0 1,-0.86786 1,-1.92857 0,-2.65104 2.65304,-5.07143 5.55888,-5.07143 2.66572,0 7.44112,-6.37217 7.44112,-9.92924 0,-2.19283 -3.65488,-5.1745 -12.25,-9.99362 -3.1625,-1.77316 -5.75,-3.58292 -5.75,-4.0217 0,-0.43878 2.26203,-1.09785 5.02674,-1.4646 6.75008,-0.89543 10.89222,-4.56567 11.66617,-10.33706 0.55585,-4.14508 0.48045,-4.2834 -3.1654,-5.80673 -3.57142,-1.49224 -3.66037,-1.64276 -2.0332,-3.44076 2.27494,-2.51379 1.13746,-4.00629 -3.05333,-4.00629 -1.89254,0 -3.44098,-0.39541 -3.44098,-0.87868 0,-1.63945 6.47592,-3.58356 12,-3.60248 5.37671,-0.0184 5.50733,0.0484 5.82695,2.98116 0.17982,1.65 0.72757,3.41275 1.21721,3.91722 1.46547,1.50982 2.39043,-2.49169 1.06612,-4.61223 -1.46121,-2.33978 -0.62057,-5.46152 1.82285,-6.7692 1.63193,-0.87339 1.85974,-0.27725 2.47075,6.46548 0.74742,8.24804 -0.73168,12.68619 -5.80656,17.42304 -1.92135,1.79338 -2.59732,3.41998 -2.59732,6.25 0,6.00018 3.34882,5.25318 12.20396,-2.72225 3.9986,-3.60136 7.63587,-7.20136 8.0828,-8 2.09898,-3.75066 5.64724,1.02981 4.18469,5.63791 -0.87095,2.74411 2.11943,3.59025 4.63685,1.31202 1.91155,-1.72993 2.01756,-2.83422 1.76364,-18.37128 -0.24055,-14.71901 -0.027,-17.31678 1.94818,-23.70311 2.49213,-8.05759 3.95526,-18.96852 4.55531,-33.97002 0.34772,-8.69296 0.13645,-10.55079 -1.47828,-13 -1.03618,-1.57167 -1.88694,-2.45034 -1.89056,-1.95259 -0.004,0.49774 -0.79409,0.22068 -1.75659,-0.61569 -0.9625,-0.83638 -2.96957,-1.81019 -4.46015,-2.16404 -1.49058,-0.35385 -4.1534,-2.43929 -5.91736,-4.63431 -1.76397,-2.19502 -3.58191,-3.99095 -4.03985,-3.99095 -0.45795,0 -0.8775,3.7125 -0.93232,8.25 -0.0548,4.5375 -0.42696,9.375 -0.82696,10.75 -0.54715,1.8808 -0.12938,3.22575 1.68673,5.43018 1.6759,2.03425 2.25612,3.71594 1.89761,5.5 -1.24529,6.19696 -1.20271,6.4203 1.3423,7.04155 2.85156,0.69608 3.73307,3.79 2.00161,7.02526 -0.61818,1.15509 -1.50342,6.84101 -1.9672,12.63539 -0.71151,8.88941 -1.19784,10.91268 -3.11314,12.95142 -1.24844,1.32891 -2.97896,2.40189 -3.84558,2.3844 -3.9481,-0.0797 -7.22005,-5.9682 -3.31624,-5.9682 2.41889,0 4.0287,-2.9223 4.79595,-8.70613 0.50689,-3.82106 0.29978,-5.16917 -0.95398,-6.2097 -0.88078,-0.73098 -1.60142,-1.87673 -1.60142,-2.5461 0,-0.66937 -1.125,-1.72962 -2.5,-2.35612 -1.375,-0.62649 -2.5,-1.68222 -2.5,-2.34606 0,-1.69097 -4.06543,-5.83589 -5.72397,-5.83589 -0.75644,0 -2.74657,0.70909 -4.42251,1.57575 -2.44196,1.26278 -2.91424,2.00758 -2.37792,3.75 0.36809,1.19584 1.65124,5.77425 2.85145,10.17425 1.20021,4.4 2.96762,9.11263 3.92758,10.47251 2.39788,3.39685 2.18677,6.26419 -0.65798,8.93669 -3.63667,3.41648 -9.21795,4.35922 -14.34665,2.42331 -2.3375,-0.88232 -4.25,-2.14507 -4.25,-2.8061 0,-1.66157 10.49599,-6.65705 12.42877,-5.91537 2.08334,0.79945 2.07961,-1.94423 -0.005,-3.67429 -1.29994,-1.07886 -1.72048,-1.07471 -2.39932,0.0237 -0.63801,1.03231 -1.40797,0.74697 -3.42379,-1.26885 -2.38321,-2.38324 -2.60066,-3.29485 -2.60066,-10.90275 0,-4.56613 0.42451,-9.78222 0.94335,-11.59132 1.40102,-4.88508 6.57982,-9.10102 14.45059,-11.76389 9.83005,-3.32575 10.29913,-3.96532 7.80242,-10.63837 -1.34261,-3.58843 -2.12041,-8.42495 -2.30833,-14.35365 -0.15589,-4.91789 -0.73847,-9.551 -1.29463,-10.2958 -2.10282,-2.81603 -5.81286,-3.25515 -17.06976,-2.02037 -8.54734,0.93757 -12.17544,0.94785 -15.7622,0.0447 -3.53608,-0.89039 -6.51745,-0.89682 -12.36795,-0.0267 -9.24755,1.3754 -13.20744,4.36404 -17.89349,13.50469 -2.61459,5.10004 -3.04449,7.11519 -3.34633,15.68565 l -0.34632,9.83382 -2.35279,-2.21033 c -3.57902,-3.36231 -5.08017,-2.02273 -5.727,5.11059 -0.4037,4.45211 -0.0155,8.3964 1.35316,13.74769 1.0556,4.12739 1.91928,8.90722 1.91928,10.62187 0,4.09996 2.38041,7.35527 5.66505,7.74717 2.40305,0.28672 2.8579,1.08766 5.00612,8.81537 1.91806,6.89972 2.46111,11.7947 2.88449,26 0.73987,24.82447 1.52404,27.1095 14.66077,42.72029 5.65596,6.72116 12.30857,13.67298 14.78357,15.4485 2.475,1.77552 5.97816,4.48889 7.7848,6.02971 1.80663,1.54083 3.54777,2.8015 3.86919,2.8015 0.32141,0 3.24898,-1.61866 6.50571,-3.59701 z M 165.33524,129.00702 c -0.89843,-1.08255 -2.23293,-1.40291 -4.2028,-1.00893 -2.041,0.4082 -2.7678,0.21378 -2.48153,-0.6638 0.22266,-0.68259 2.50882,-1.65399 5.08035,-2.15867 2.57154,-0.50468 4.67552,-1.26305 4.67552,-1.68527 0,-0.42222 -1.575,-1.3372 -3.5,-2.03329 -5.62576,-2.0343 -4.06187,-3.11081 3.9327,-2.70711 7.95378,0.40165 9.49396,1.02179 7.75165,3.12114 -0.60536,0.72941 -0.88751,2.20279 -0.62701,3.27417 0.36315,1.4935 -0.42295,2.35623 -3.36946,3.69796 -4.7264,2.15222 -5.59295,2.17177 -7.25942,0.1638 z m 81.27287,16.6537 c 0.40142,-2.35143 1.00067,-5.12857 1.33165,-6.17142 0.79676,-2.51036 -3.0095,-2.64802 -4.03931,-0.14608 -0.89654,2.17816 -1.44469,9.46991 -0.7933,10.55279 1.10375,1.83487 2.81893,-0.24006 3.50096,-4.23529 z m -20.9369,-13.66527 c 0.32877,-0.32877 0.35563,-1.22877 0.0597,-2 -0.71056,-1.85168 -5.32411,-1.83918 -5.32411,0.0144 0,1.94826 3.84974,3.40025 5.26443,1.98556 z m 23.6974,-9.51789 c -1.69788,-5.14462 -3.72892,-5.11873 -2.99686,0.0382 0.29823,2.10081 3.47436,6.05927 3.90692,4.86925 0.20454,-0.56271 -0.20499,-2.77106 -0.91006,-4.90744 z m 2.03817,-7.38434 c 0,-0.825 -0.675,-1.5 -1.5,-1.5 -0.825,0 -1.5,0.675 -1.5,1.5 0,0.825 0.675,1.5 1.5,1.5 0.825,0 1.5,-0.675 1.5,-1.5 z\" fill=\"#0f3b86\"/>')) */\n      swap1\n      pop\n        /* \"SVG-MVP_football/contracts/getPlayerSvg.sol\":7373:13134  if (keccak256(abi.encodePacked(\"Andy Pelmard\")) == keccak256(abi.encodePacked(name)) ) {... */\n    tag_44:\n        /* \"SVG-MVP_football/contracts/getPlayerSvg.sol\":1504:13138  function addImage(string memory svg, string memory name) internal pure returns (string memory _svg) {... */\n      swap3\n      swap2\n      pop\n      pop\n      jump\t// out\n        /* \"@openzeppelin/contracts/utils/Strings.sol\":328:1031  function toString(uint256 value) internal pure returns (string memory) {... */\n    tag_20:\n        /* \"@openzeppelin/contracts/utils/Strings.sol\":384:397  string memory */\n      0x60\n        /* \"@openzeppelin/contracts/utils/Strings.sol\":601:611  value == 0 */\n      dup2\n        /* \"@openzeppelin/contracts/utils/Strings.sol\":597:648  if (value == 0) {... */\n      tag_47\n      jumpi\n      pop\n      pop\n        /* \"@openzeppelin/contracts/utils/Strings.sol\":627:637  return \"0\" */\n      0x40\n      dup1\n      mload\n      dup1\n      dup3\n      add\n      swap1\n      swap2\n      mstore\n      0x01\n      dup2\n      mstore\n      shl(0xfc, 0x03)\n      0x20\n      dup3\n      add\n      mstore\n      swap1\n        /* \"@openzeppelin/contracts/utils/Strings.sol\":328:1031  function toString(uint256 value) internal pure returns (string memory) {... */\n      jump\t// out\n        /* \"@openzeppelin/contracts/utils/Strings.sol\":597:648  if (value == 0) {... */\n    tag_47:\n        /* \"@openzeppelin/contracts/utils/Strings.sol\":672:677  value */\n      dup2\n        /* \"@openzeppelin/contracts/utils/Strings.sol\":657:669  uint256 temp */\n      0x00\n        /* \"@openzeppelin/contracts/utils/Strings.sol\":711:786  while (temp != 0) {... */\n    tag_48:\n        /* \"@openzeppelin/contracts/utils/Strings.sol\":718:727  temp != 0 */\n      dup2\n      iszero\n        /* \"@openzeppelin/contracts/utils/Strings.sol\":711:786  while (temp != 0) {... */\n      tag_49\n      jumpi\n        /* \"@openzeppelin/contracts/utils/Strings.sol\":743:751  digits++ */\n      dup1\n      tag_50\n      dup2\n      tag_51\n      jump\t// in\n    tag_50:\n      swap2\n      pop\n        /* \"@openzeppelin/contracts/utils/Strings.sol\":765:775  temp /= 10 */\n      tag_52\n      swap1\n      pop\n        /* \"@openzeppelin/contracts/utils/Strings.sol\":773:775  10 */\n      0x0a\n        /* \"@openzeppelin/contracts/utils/Strings.sol\":765:775  temp /= 10 */\n      dup4\n      tag_53\n      jump\t// in\n    tag_52:\n      swap2\n      pop\n        /* \"@openzeppelin/contracts/utils/Strings.sol\":711:786  while (temp != 0) {... */\n      jump(tag_48)\n    tag_49:\n        /* \"@openzeppelin/contracts/utils/Strings.sol\":795:814  bytes memory buffer */\n      0x00\n        /* \"@openzeppelin/contracts/utils/Strings.sol\":827:833  digits */\n      dup2\n        /* \"@openzeppelin/contracts/utils/Strings.sol\":817:834  new bytes(digits) */\n      0xffffffffffffffff\n      dup2\n      gt\n      iszero\n      tag_55\n      jumpi\n      tag_55\n      tag_56\n      jump\t// in\n    tag_55:\n      mload(0x40)\n      swap1\n      dup1\n      dup3\n      mstore\n      dup1\n      0x1f\n      add\n      not(0x1f)\n      and\n      0x20\n      add\n      dup3\n      add\n      0x40\n      mstore\n      dup1\n      iszero\n      tag_57\n      jumpi\n      0x20\n      dup3\n      add\n      dup2\n      dup1\n      calldatasize\n      dup4\n      calldatacopy\n      add\n      swap1\n      pop\n    tag_57:\n      pop\n        /* \"@openzeppelin/contracts/utils/Strings.sol\":795:834  bytes memory buffer = new bytes(digits) */\n      swap1\n      pop\n        /* \"@openzeppelin/contracts/utils/Strings.sol\":844:994  while (value != 0) {... */\n    tag_58:\n        /* \"@openzeppelin/contracts/utils/Strings.sol\":851:861  value != 0 */\n      dup5\n      iszero\n        /* \"@openzeppelin/contracts/utils/Strings.sol\":844:994  while (value != 0) {... */\n      tag_59\n      jumpi\n        /* \"@openzeppelin/contracts/utils/Strings.sol\":877:888  digits -= 1 */\n      tag_60\n        /* \"@openzeppelin/contracts/utils/Strings.sol\":887:888  1 */\n      0x01\n        /* \"@openzeppelin/contracts/utils/Strings.sol\":877:888  digits -= 1 */\n      dup4\n      tag_61\n      jump\t// in\n    tag_60:\n      swap2\n      pop\n        /* \"@openzeppelin/contracts/utils/Strings.sol\":945:955  value % 10 */\n      tag_62\n        /* \"@openzeppelin/contracts/utils/Strings.sol\":953:955  10 */\n      0x0a\n        /* \"@openzeppelin/contracts/utils/Strings.sol\":945:950  value */\n      dup7\n        /* \"@openzeppelin/contracts/utils/Strings.sol\":945:955  value % 10 */\n      tag_63\n      jump\t// in\n    tag_62:\n        /* \"@openzeppelin/contracts/utils/Strings.sol\":932:956  48 + uint256(value % 10) */\n      tag_64\n      swap1\n        /* \"@openzeppelin/contracts/utils/Strings.sol\":932:934  48 */\n      0x30\n        /* \"@openzeppelin/contracts/utils/Strings.sol\":932:956  48 + uint256(value % 10) */\n      tag_65\n      jump\t// in\n    tag_64:\n        /* \"@openzeppelin/contracts/utils/Strings.sol\":919:958  bytes1(uint8(48 + uint256(value % 10))) */\n      0xf8\n      shl\n        /* \"@openzeppelin/contracts/utils/Strings.sol\":902:908  buffer */\n      dup2\n        /* \"@openzeppelin/contracts/utils/Strings.sol\":909:915  digits */\n      dup4\n        /* \"@openzeppelin/contracts/utils/Strings.sol\":902:916  buffer[digits] */\n      dup2\n      mload\n      dup2\n      lt\n      tag_67\n      jumpi\n      tag_67\n      tag_68\n      jump\t// in\n    tag_67:\n      0x20\n      add\n      add\n        /* \"@openzeppelin/contracts/utils/Strings.sol\":902:958  buffer[digits] = bytes1(uint8(48 + uint256(value % 10))) */\n      swap1\n      not(sub(shl(0xf8, 0x01), 0x01))\n      and\n      swap1\n      dup2\n      0x00\n      byte\n      swap1\n      mstore8\n      pop\n        /* \"@openzeppelin/contracts/utils/Strings.sol\":972:983  value /= 10 */\n      tag_69\n        /* \"@openzeppelin/contracts/utils/Strings.sol\":981:983  10 */\n      0x0a\n        /* \"@openzeppelin/contracts/utils/Strings.sol\":972:983  value /= 10 */\n      dup7\n      tag_53\n      jump\t// in\n    tag_69:\n      swap5\n      pop\n        /* \"@openzeppelin/contracts/utils/Strings.sol\":844:994  while (value != 0) {... */\n      jump(tag_58)\n    tag_59:\n        /* \"@openzeppelin/contracts/utils/Strings.sol\":1017:1023  buffer */\n      swap5\n        /* \"@openzeppelin/contracts/utils/Strings.sol\":328:1031  function toString(uint256 value) internal pure returns (string memory) {... */\n      swap4\n      pop\n      pop\n      pop\n      pop\n      jump\t// out\n        /* \"#utility.yul\":14:733   */\n    tag_71:\n        /* \"#utility.yul\":57:62   */\n      0x00\n        /* \"#utility.yul\":110:113   */\n      dup3\n        /* \"#utility.yul\":103:107   */\n      0x1f\n        /* \"#utility.yul\":95:101   */\n      dup4\n        /* \"#utility.yul\":91:108   */\n      add\n        /* \"#utility.yul\":87:114   */\n      slt\n        /* \"#utility.yul\":77:132   */\n      tag_73\n      jumpi\n        /* \"#utility.yul\":128:129   */\n      0x00\n        /* \"#utility.yul\":125:126   */\n      dup1\n        /* \"#utility.yul\":118:130   */\n      revert\n        /* \"#utility.yul\":77:132   */\n    tag_73:\n        /* \"#utility.yul\":164:170   */\n      dup2\n        /* \"#utility.yul\":151:171   */\n      calldataload\n        /* \"#utility.yul\":190:208   */\n      0xffffffffffffffff\n        /* \"#utility.yul\":227:229   */\n      dup1\n        /* \"#utility.yul\":223:225   */\n      dup3\n        /* \"#utility.yul\":220:230   */\n      gt\n        /* \"#utility.yul\":217:253   */\n      iszero\n      tag_75\n      jumpi\n        /* \"#utility.yul\":233:251   */\n      tag_75\n      tag_56\n      jump\t// in\n    tag_75:\n        /* \"#utility.yul\":308:310   */\n      0x40\n        /* \"#utility.yul\":302:311   */\n      mload\n        /* \"#utility.yul\":276:278   */\n      0x1f\n        /* \"#utility.yul\":362:375   */\n      dup4\n      add\n      not(0x1f)\n        /* \"#utility.yul\":358:380   */\n      swap1\n      dup2\n      and\n        /* \"#utility.yul\":382:384   */\n      0x3f\n        /* \"#utility.yul\":354:385   */\n      add\n        /* \"#utility.yul\":350:390   */\n      and\n        /* \"#utility.yul\":338:391   */\n      dup2\n      add\n      swap1\n        /* \"#utility.yul\":406:424   */\n      dup3\n      dup3\n      gt\n        /* \"#utility.yul\":426:448   */\n      dup2\n      dup4\n      lt\n        /* \"#utility.yul\":403:449   */\n      or\n        /* \"#utility.yul\":400:472   */\n      iszero\n      tag_77\n      jumpi\n        /* \"#utility.yul\":452:470   */\n      tag_77\n      tag_56\n      jump\t// in\n    tag_77:\n        /* \"#utility.yul\":492:502   */\n      dup2\n        /* \"#utility.yul\":488:490   */\n      0x40\n        /* \"#utility.yul\":481:503   */\n      mstore\n        /* \"#utility.yul\":527:529   */\n      dup4\n        /* \"#utility.yul\":519:525   */\n      dup2\n        /* \"#utility.yul\":512:530   */\n      mstore\n        /* \"#utility.yul\":573:576   */\n      dup7\n        /* \"#utility.yul\":566:570   */\n      0x20\n        /* \"#utility.yul\":561:563   */\n      dup6\n        /* \"#utility.yul\":553:559   */\n      dup9\n        /* \"#utility.yul\":549:564   */\n      add\n        /* \"#utility.yul\":545:571   */\n      add\n        /* \"#utility.yul\":542:577   */\n      gt\n        /* \"#utility.yul\":539:594   */\n      iszero\n      tag_78\n      jumpi\n        /* \"#utility.yul\":590:591   */\n      0x00\n        /* \"#utility.yul\":587:588   */\n      dup1\n        /* \"#utility.yul\":580:592   */\n      revert\n        /* \"#utility.yul\":539:594   */\n    tag_78:\n        /* \"#utility.yul\":654:656   */\n      dup4\n        /* \"#utility.yul\":647:651   */\n      0x20\n        /* \"#utility.yul\":639:645   */\n      dup8\n        /* \"#utility.yul\":635:652   */\n      add\n        /* \"#utility.yul\":628:632   */\n      0x20\n        /* \"#utility.yul\":620:626   */\n      dup4\n        /* \"#utility.yul\":616:633   */\n      add\n        /* \"#utility.yul\":603:657   */\n      calldatacopy\n        /* \"#utility.yul\":701:702   */\n      0x00\n        /* \"#utility.yul\":694:698   */\n      0x20\n        /* \"#utility.yul\":689:691   */\n      dup6\n        /* \"#utility.yul\":681:687   */\n      dup4\n        /* \"#utility.yul\":677:692   */\n      add\n        /* \"#utility.yul\":673:699   */\n      add\n        /* \"#utility.yul\":666:703   */\n      mstore\n        /* \"#utility.yul\":721:727   */\n      dup1\n        /* \"#utility.yul\":712:727   */\n      swap5\n      pop\n      pop\n      pop\n      pop\n      pop\n        /* \"#utility.yul\":14:733   */\n      swap3\n      swap2\n      pop\n      pop\n      jump\t// out\n        /* \"#utility.yul\":738:1487   */\n    tag_6:\n        /* \"#utility.yul\":853:859   */\n      0x00\n        /* \"#utility.yul\":861:867   */\n      dup1\n        /* \"#utility.yul\":869:875   */\n      0x00\n        /* \"#utility.yul\":877:883   */\n      dup1\n        /* \"#utility.yul\":885:891   */\n      0x00\n        /* \"#utility.yul\":938:941   */\n      0xa0\n        /* \"#utility.yul\":926:935   */\n      dup7\n        /* \"#utility.yul\":917:924   */\n      dup9\n        /* \"#utility.yul\":913:936   */\n      sub\n        /* \"#utility.yul\":909:942   */\n      slt\n        /* \"#utility.yul\":906:959   */\n      iszero\n      tag_80\n      jumpi\n        /* \"#utility.yul\":955:956   */\n      0x00\n        /* \"#utility.yul\":952:953   */\n      dup1\n        /* \"#utility.yul\":945:957   */\n      revert\n        /* \"#utility.yul\":906:959   */\n    tag_80:\n        /* \"#utility.yul\":991:1000   */\n      dup6\n        /* \"#utility.yul\":978:1001   */\n      calldataload\n        /* \"#utility.yul\":968:1001   */\n      swap5\n      pop\n        /* \"#utility.yul\":1048:1050   */\n      0x20\n        /* \"#utility.yul\":1037:1046   */\n      dup7\n        /* \"#utility.yul\":1033:1051   */\n      add\n        /* \"#utility.yul\":1020:1052   */\n      calldataload\n        /* \"#utility.yul\":1010:1052   */\n      swap4\n      pop\n        /* \"#utility.yul\":1099:1101   */\n      0x40\n        /* \"#utility.yul\":1088:1097   */\n      dup7\n        /* \"#utility.yul\":1084:1102   */\n      add\n        /* \"#utility.yul\":1071:1103   */\n      calldataload\n        /* \"#utility.yul\":1061:1103   */\n      swap3\n      pop\n        /* \"#utility.yul\":1154:1156   */\n      0x60\n        /* \"#utility.yul\":1143:1152   */\n      dup7\n        /* \"#utility.yul\":1139:1157   */\n      add\n        /* \"#utility.yul\":1126:1158   */\n      calldataload\n        /* \"#utility.yul\":1177:1195   */\n      0xffffffffffffffff\n        /* \"#utility.yul\":1218:1220   */\n      dup1\n        /* \"#utility.yul\":1210:1216   */\n      dup3\n        /* \"#utility.yul\":1207:1221   */\n      gt\n        /* \"#utility.yul\":1204:1238   */\n      iszero\n      tag_81\n      jumpi\n        /* \"#utility.yul\":1234:1235   */\n      0x00\n        /* \"#utility.yul\":1231:1232   */\n      dup1\n        /* \"#utility.yul\":1224:1236   */\n      revert\n        /* \"#utility.yul\":1204:1238   */\n    tag_81:\n        /* \"#utility.yul\":1257:1307   */\n      tag_82\n        /* \"#utility.yul\":1299:1306   */\n      dup10\n        /* \"#utility.yul\":1290:1296   */\n      dup4\n        /* \"#utility.yul\":1279:1288   */\n      dup11\n        /* \"#utility.yul\":1275:1297   */\n      add\n        /* \"#utility.yul\":1257:1307   */\n      tag_71\n      jump\t// in\n    tag_82:\n        /* \"#utility.yul\":1247:1307   */\n      swap4\n      pop\n        /* \"#utility.yul\":1360:1363   */\n      0x80\n        /* \"#utility.yul\":1349:1358   */\n      dup9\n        /* \"#utility.yul\":1345:1364   */\n      add\n        /* \"#utility.yul\":1332:1365   */\n      calldataload\n        /* \"#utility.yul\":1316:1365   */\n      swap2\n      pop\n        /* \"#utility.yul\":1390:1392   */\n      dup1\n        /* \"#utility.yul\":1380:1388   */\n      dup3\n        /* \"#utility.yul\":1377:1393   */\n      gt\n        /* \"#utility.yul\":1374:1410   */\n      iszero\n      tag_83\n      jumpi\n        /* \"#utility.yul\":1406:1407   */\n      0x00\n        /* \"#utility.yul\":1403:1404   */\n      dup1\n        /* \"#utility.yul\":1396:1408   */\n      revert\n        /* \"#utility.yul\":1374:1410   */\n    tag_83:\n      pop\n        /* \"#utility.yul\":1429:1481   */\n      tag_84\n        /* \"#utility.yul\":1473:1480   */\n      dup9\n        /* \"#utility.yul\":1462:1470   */\n      dup3\n        /* \"#utility.yul\":1451:1460   */\n      dup10\n        /* \"#utility.yul\":1447:1471   */\n      add\n        /* \"#utility.yul\":1429:1481   */\n      tag_71\n      jump\t// in\n    tag_84:\n        /* \"#utility.yul\":1419:1481   */\n      swap2\n      pop\n      pop\n        /* \"#utility.yul\":738:1487   */\n      swap3\n      swap6\n      pop\n      swap3\n      swap6\n      swap1\n      swap4\n      pop\n      jump\t// out\n        /* \"#utility.yul\":1492:1768   */\n    tag_35:\n        /* \"#utility.yul\":1623:1626   */\n      0x00\n        /* \"#utility.yul\":1661:1667   */\n      dup3\n        /* \"#utility.yul\":1655:1668   */\n      mload\n        /* \"#utility.yul\":1677:1730   */\n      tag_86\n        /* \"#utility.yul\":1723:1729   */\n      dup2\n        /* \"#utility.yul\":1718:1721   */\n      dup5\n        /* \"#utility.yul\":1711:1715   */\n      0x20\n        /* \"#utility.yul\":1703:1709   */\n      dup8\n        /* \"#utility.yul\":1699:1716   */\n      add\n        /* \"#utility.yul\":1677:1730   */\n      tag_87\n      jump\t// in\n    tag_86:\n        /* \"#utility.yul\":1746:1762   */\n      swap2\n      swap1\n      swap2\n      add\n      swap3\n        /* \"#utility.yul\":1492:1768   */\n      swap2\n      pop\n      pop\n      jump\t// out\n        /* \"#utility.yul\":1773:2613   */\n    tag_25:\n        /* \"#utility.yul\":2154:2157   */\n      0x00\n        /* \"#utility.yul\":2192:2198   */\n      dup4\n        /* \"#utility.yul\":2186:2199   */\n      mload\n        /* \"#utility.yul\":2208:2261   */\n      tag_89\n        /* \"#utility.yul\":2254:2260   */\n      dup2\n        /* \"#utility.yul\":2249:2252   */\n      dup5\n        /* \"#utility.yul\":2242:2246   */\n      0x20\n        /* \"#utility.yul\":2234:2240   */\n      dup9\n        /* \"#utility.yul\":2230:2247   */\n      add\n        /* \"#utility.yul\":2208:2261   */\n      tag_87\n      jump\t// in\n    tag_89:\n        /* \"#utility.yul\":2322:2388   */\n      0x3c7465787420783d2232302220793d2233343022203e47616d65733a20000000\n        /* \"#utility.yul\":2283:2299   */\n      swap1\n      dup4\n      add\n        /* \"#utility.yul\":2308:2389   */\n      swap1\n      dup2\n      mstore\n        /* \"#utility.yul\":2414:2427   */\n      dup4\n      mload\n        /* \"#utility.yul\":2436:2502   */\n      tag_90\n        /* \"#utility.yul\":2414:2427   */\n      dup2\n        /* \"#utility.yul\":2488:2490   */\n      0x1d\n        /* \"#utility.yul\":2477:2491   */\n      dup5\n      add\n        /* \"#utility.yul\":2470:2474   */\n      0x20\n        /* \"#utility.yul\":2458:2475   */\n      dup9\n      add\n        /* \"#utility.yul\":2436:2502   */\n      tag_87\n      jump\t// in\n    tag_90:\n      shl(0xc9, 0x1e17ba32bc3a1f)\n        /* \"#utility.yul\":2565:2567   */\n      0x1d\n        /* \"#utility.yul\":2521:2541   */\n      swap3\n      swap1\n      swap2\n      add\n        /* \"#utility.yul\":2557:2568   */\n      swap2\n      dup3\n      add\n        /* \"#utility.yul\":2550:2580   */\n      mstore\n        /* \"#utility.yul\":2604:2606   */\n      0x24\n        /* \"#utility.yul\":2596:2607   */\n      add\n      swap5\n        /* \"#utility.yul\":1773:2613   */\n      swap4\n      pop\n      pop\n      pop\n      pop\n      jump\t// out\n        /* \"#utility.yul\":2618:3462   */\n    tag_30:\n        /* \"#utility.yul\":2999:3002   */\n      0x00\n        /* \"#utility.yul\":3037:3043   */\n      dup4\n        /* \"#utility.yul\":3031:3044   */\n      mload\n        /* \"#utility.yul\":3053:3106   */\n      tag_92\n        /* \"#utility.yul\":3099:3105   */\n      dup2\n        /* \"#utility.yul\":3094:3097   */\n      dup5\n        /* \"#utility.yul\":3087:3091   */\n      0x20\n        /* \"#utility.yul\":3079:3085   */\n      dup9\n        /* \"#utility.yul\":3075:3092   */\n      add\n        /* \"#utility.yul\":3053:3106   */\n      tag_87\n      jump\t// in\n    tag_92:\n        /* \"#utility.yul\":3137:3143   */\n      dup1\n        /* \"#utility.yul\":3132:3135   */\n      dup4\n        /* \"#utility.yul\":3128:3144   */\n      add\n        /* \"#utility.yul\":3115:3144   */\n      swap1\n      pop\n        /* \"#utility.yul\":3167:3233   */\n      0x3c7465787420783d2232302220793d2233383022203e506f736974696f6e3a20\n        /* \"#utility.yul\":3160:3165   */\n      dup2\n        /* \"#utility.yul\":3153:3234   */\n      mstore\n        /* \"#utility.yul\":3265:3271   */\n      dup4\n        /* \"#utility.yul\":3259:3272   */\n      mload\n        /* \"#utility.yul\":3281:3349   */\n      tag_93\n        /* \"#utility.yul\":3340:3348   */\n      dup2\n        /* \"#utility.yul\":3333:3337   */\n      0x20\n        /* \"#utility.yul\":3326:3331   */\n      dup5\n        /* \"#utility.yul\":3322:3338   */\n      add\n        /* \"#utility.yul\":3315:3319   */\n      0x20\n        /* \"#utility.yul\":3307:3313   */\n      dup9\n        /* \"#utility.yul\":3303:3320   */\n      add\n        /* \"#utility.yul\":3281:3349   */\n      tag_87\n      jump\t// in\n    tag_93:\n      shl(0xc9, 0x1e17ba32bc3a1f)\n        /* \"#utility.yul\":3412:3416   */\n      0x20\n        /* \"#utility.yul\":3368:3388   */\n      swap3\n      swap1\n      swap2\n      add\n        /* \"#utility.yul\":3404:3417   */\n      swap2\n      dup3\n      add\n        /* \"#utility.yul\":3397:3429   */\n      mstore\n        /* \"#utility.yul\":3453:3455   */\n      0x27\n        /* \"#utility.yul\":3445:3456   */\n      add\n      swap5\n        /* \"#utility.yul\":2618:3462   */\n      swap4\n      pop\n      pop\n      pop\n      pop\n      jump\t// out\n        /* \"#utility.yul\":3467:4307   */\n    tag_28:\n        /* \"#utility.yul\":3848:3851   */\n      0x00\n        /* \"#utility.yul\":3886:3892   */\n      dup4\n        /* \"#utility.yul\":3880:3893   */\n      mload\n        /* \"#utility.yul\":3902:3955   */\n      tag_95\n        /* \"#utility.yul\":3948:3954   */\n      dup2\n        /* \"#utility.yul\":3943:3946   */\n      dup5\n        /* \"#utility.yul\":3936:3940   */\n      0x20\n        /* \"#utility.yul\":3928:3934   */\n      dup9\n        /* \"#utility.yul\":3924:3941   */\n      add\n        /* \"#utility.yul\":3902:3955   */\n      tag_87\n      jump\t// in\n    tag_95:\n        /* \"#utility.yul\":4016:4082   */\n      0x3c7465787420783d2232302220793d2233363022203e476f616c733a20000000\n        /* \"#utility.yul\":3977:3993   */\n      swap1\n      dup4\n      add\n        /* \"#utility.yul\":4002:4083   */\n      swap1\n      dup2\n      mstore\n        /* \"#utility.yul\":4108:4121   */\n      dup4\n      mload\n        /* \"#utility.yul\":4130:4196   */\n      tag_90\n        /* \"#utility.yul\":4108:4121   */\n      dup2\n        /* \"#utility.yul\":4182:4184   */\n      0x1d\n        /* \"#utility.yul\":4171:4185   */\n      dup5\n      add\n        /* \"#utility.yul\":4164:4168   */\n      0x20\n        /* \"#utility.yul\":4152:4169   */\n      dup9\n      add\n        /* \"#utility.yul\":4130:4196   */\n      tag_87\n      jump\t// in\n        /* \"#utility.yul\":4312:5292   */\n    tag_22:\n        /* \"#utility.yul\":4794:4797   */\n      0x00\n        /* \"#utility.yul\":4832:4838   */\n      dup4\n        /* \"#utility.yul\":4826:4839   */\n      mload\n        /* \"#utility.yul\":4848:4901   */\n      tag_98\n        /* \"#utility.yul\":4894:4900   */\n      dup2\n        /* \"#utility.yul\":4889:4892   */\n      dup5\n        /* \"#utility.yul\":4882:4886   */\n      0x20\n        /* \"#utility.yul\":4874:4880   */\n      dup9\n        /* \"#utility.yul\":4870:4887   */\n      add\n        /* \"#utility.yul\":4848:4901   */\n      tag_87\n      jump\t// in\n    tag_98:\n        /* \"#utility.yul\":4932:4938   */\n      dup1\n        /* \"#utility.yul\":4927:4930   */\n      dup4\n        /* \"#utility.yul\":4923:4939   */\n      add\n        /* \"#utility.yul\":4910:4939   */\n      swap1\n      pop\n        /* \"#utility.yul\":4962:5028   */\n      0x3c7465787420783d2232302220793d2233323022203e47616d65706c61793a20\n        /* \"#utility.yul\":4955:4960   */\n      dup2\n        /* \"#utility.yul\":4948:5029   */\n      mstore\n        /* \"#utility.yul\":5060:5066   */\n      dup4\n        /* \"#utility.yul\":5054:5067   */\n      mload\n        /* \"#utility.yul\":5076:5144   */\n      tag_99\n        /* \"#utility.yul\":5135:5143   */\n      dup2\n        /* \"#utility.yul\":5128:5132   */\n      0x20\n        /* \"#utility.yul\":5121:5126   */\n      dup5\n        /* \"#utility.yul\":5117:5133   */\n      add\n        /* \"#utility.yul\":5110:5114   */\n      0x20\n        /* \"#utility.yul\":5102:5108   */\n      dup9\n        /* \"#utility.yul\":5098:5115   */\n      add\n        /* \"#utility.yul\":5076:5144   */\n      tag_87\n      jump\t// in\n    tag_99:\n      shl(0xe9, 0x36b4b7)\n        /* \"#utility.yul\":5207:5211   */\n      0x20\n        /* \"#utility.yul\":5163:5183   */\n      swap3\n      swap1\n      swap2\n      add\n        /* \"#utility.yul\":5199:5212   */\n      swap2\n      dup3\n      add\n        /* \"#utility.yul\":5192:5220   */\n      mstore\n      shl(0xc9, 0x1e17ba32bc3a1f)\n        /* \"#utility.yul\":5244:5246   */\n      0x23\n        /* \"#utility.yul\":5236:5247   */\n      dup3\n      add\n        /* \"#utility.yul\":5229:5259   */\n      mstore\n        /* \"#utility.yul\":5283:5285   */\n      0x2a\n        /* \"#utility.yul\":5275:5286   */\n      add\n      swap5\n        /* \"#utility.yul\":4312:5292   */\n      swap4\n      pop\n      pop\n      pop\n      pop\n      jump\t// out\n        /* \"#utility.yul\":5297:17877   */\n    tag_40:\n        /* \"#utility.yul\":5529:5532   */\n      0x00\n        /* \"#utility.yul\":5567:5573   */\n      dup3\n        /* \"#utility.yul\":5561:5574   */\n      mload\n        /* \"#utility.yul\":5583:5636   */\n      tag_101\n        /* \"#utility.yul\":5629:5635   */\n      dup2\n        /* \"#utility.yul\":5624:5627   */\n      dup5\n        /* \"#utility.yul\":5617:5621   */\n      0x20\n        /* \"#utility.yul\":5609:5615   */\n      dup8\n        /* \"#utility.yul\":5605:5622   */\n      add\n        /* \"#utility.yul\":5583:5636   */\n      tag_87\n      jump\t// in\n    tag_101:\n        /* \"#utility.yul\":5697:5763   */\n      0x3c70617468207374796c653d2266696c6c3a233066336238362220643d226d20\n        /* \"#utility.yul\":5658:5674   */\n      swap3\n      add\n        /* \"#utility.yul\":5683:5764   */\n      swap2\n      dup3\n      mstore\n      pop\n        /* \"#utility.yul\":5798:5832   */\n      0x312e34303637382c3232302e30393332322063202d31312e3830313235332c2d\n        /* \"#utility.yul\":5791:5795   */\n      0x20\n        /* \"#utility.yul\":5780:5796   */\n      dup3\n      add\n        /* \"#utility.yul\":5773:5833   */\n      mstore\n        /* \"#utility.yul\":5865:5899   */\n      0x3538382e3934383937203738342e37333834362c3231362e3436303937202d31\n        /* \"#utility.yul\":5860:5862   */\n      0x40\n        /* \"#utility.yul\":5849:5863   */\n      dup3\n      add\n        /* \"#utility.yul\":5842:5900   */\n      mstore\n        /* \"#utility.yul\":5932:5966   */\n      0x30652d362c3231372e3439393939207a206d203230312e313539372c33302e39\n        /* \"#utility.yul\":5927:5929   */\n      0x60\n        /* \"#utility.yul\":5916:5930   */\n      dup3\n      add\n        /* \"#utility.yul\":5909:5967   */\n      mstore\n        /* \"#utility.yul\":6000:6034   */\n      0x30323939206320362e333238322c2d332e383434313820392e34313936342c2d\n        /* \"#utility.yul\":5994:5997   */\n      0x80\n        /* \"#utility.yul\":5983:5998   */\n      dup3\n      add\n        /* \"#utility.yul\":5976:6035   */\n      mstore\n        /* \"#utility.yul\":6068:6102   */\n      0x372e343530383720382e34383136342c2d392e3839353237202d302e39333638\n        /* \"#utility.yul\":6062:6065   */\n      0xa0\n        /* \"#utility.yul\":6051:6066   */\n      dup3\n      add\n        /* \"#utility.yul\":6044:6103   */\n      mstore\n        /* \"#utility.yul\":6136:6170   */\n      0x362c2d322e3434313432202d372e313430372c2d312e3738393233202d31332e\n        /* \"#utility.yul\":6130:6133   */\n      0xc0\n        /* \"#utility.yul\":6119:6134   */\n      dup3\n      add\n        /* \"#utility.yul\":6112:6171   */\n      mstore\n        /* \"#utility.yul\":6204:6238   */\n      0x34393536362c312e3431383734206c202d352e37393732392c322e3932363436\n        /* \"#utility.yul\":6198:6201   */\n      0xe0\n        /* \"#utility.yul\":6187:6202   */\n      dup3\n      add\n        /* \"#utility.yul\":6180:6239   */\n      mstore\n        /* \"#utility.yul\":6272:6306   */\n      0x202d322e35353039322c2d322e31373634362063202d332e33313136372c2d32\n        /* \"#utility.yul\":6266:6269   */\n      0x0100\n        /* \"#utility.yul\":6255:6270   */\n      dup3\n      add\n        /* \"#utility.yul\":6248:6307   */\n      mstore\n        /* \"#utility.yul\":6340:6374   */\n      0x2e3832353533202d332e39393437382c2d352e3034303332202d322e32363035\n        /* \"#utility.yul\":6334:6337   */\n      0x0120\n        /* \"#utility.yul\":6323:6338   */\n      dup3\n      add\n        /* \"#utility.yul\":6316:6375   */\n      mstore\n        /* \"#utility.yul\":6408:6442   */\n      0x392c2d372e333239323620302e37363937332c2d312e303135393620312e3431\n        /* \"#utility.yul\":6402:6405   */\n      0x0140\n        /* \"#utility.yul\":6391:6406   */\n      dup3\n      add\n        /* \"#utility.yul\":6384:6443   */\n      mstore\n        /* \"#utility.yul\":6476:6510   */\n      0x3338322c2d322e3835393720312e34333133322c2d342e3039373220302e3031\n        /* \"#utility.yul\":6470:6473   */\n      0x0160\n        /* \"#utility.yul\":6459:6474   */\n      dup3\n      add\n        /* \"#utility.yul\":6452:6511   */\n      mstore\n        /* \"#utility.yul\":6544:6578   */\n      0x37352c2d312e3233373520302e343831382c2d322e323520312e303331382c2d\n        /* \"#utility.yul\":6538:6541   */\n      0x0180\n        /* \"#utility.yul\":6527:6542   */\n      dup3\n      add\n        /* \"#utility.yul\":6520:6579   */\n      mstore\n        /* \"#utility.yul\":6612:6646   */\n      0x322e323520302e35352c3020312c2d302e383637383620312c2d312e39323835\n        /* \"#utility.yul\":6606:6609   */\n      0x01a0\n        /* \"#utility.yul\":6595:6610   */\n      dup3\n      add\n        /* \"#utility.yul\":6588:6647   */\n      mstore\n        /* \"#utility.yul\":6680:6714   */\n      0x3720302c2d322e363531303420322e36353330342c2d352e303731343320352e\n        /* \"#utility.yul\":6674:6677   */\n      0x01c0\n        /* \"#utility.yul\":6663:6678   */\n      dup3\n      add\n        /* \"#utility.yul\":6656:6715   */\n      mstore\n        /* \"#utility.yul\":6748:6782   */\n      0x35353838382c2d352e303731343320322e36363537322c3020372e3434313132\n        /* \"#utility.yul\":6742:6745   */\n      0x01e0\n        /* \"#utility.yul\":6731:6746   */\n      dup3\n      add\n        /* \"#utility.yul\":6724:6783   */\n      mstore\n        /* \"#utility.yul\":6816:6850   */\n      0x2c2d362e333732313720372e34343131322c2d392e393239323420302c2d322e\n        /* \"#utility.yul\":6810:6813   */\n      0x0200\n        /* \"#utility.yul\":6799:6814   */\n      dup3\n      add\n        /* \"#utility.yul\":6792:6851   */\n      mstore\n        /* \"#utility.yul\":6884:6918   */\n      0x3139323833202d332e36353438382c2d352e31373435202d31322e32352c2d39\n        /* \"#utility.yul\":6878:6881   */\n      0x0220\n        /* \"#utility.yul\":6867:6882   */\n      dup3\n      add\n        /* \"#utility.yul\":6860:6919   */\n      mstore\n        /* \"#utility.yul\":6952:6986   */\n      0x2e3939333632202d332e313632352c2d312e3737333136202d352e37352c2d33\n        /* \"#utility.yul\":6946:6949   */\n      0x0240\n        /* \"#utility.yul\":6935:6950   */\n      dup3\n      add\n        /* \"#utility.yul\":6928:6987   */\n      mstore\n        /* \"#utility.yul\":7020:7054   */\n      0x2e3538323932202d352e37352c2d342e3032313720302c2d302e343338373820\n        /* \"#utility.yul\":7014:7017   */\n      0x0260\n        /* \"#utility.yul\":7003:7018   */\n      dup3\n      add\n        /* \"#utility.yul\":6996:7055   */\n      mstore\n        /* \"#utility.yul\":7088:7122   */\n      0x322e32363230332c2d312e303937383520352e30323637342c2d312e34363436\n        /* \"#utility.yul\":7082:7085   */\n      0x0280\n        /* \"#utility.yul\":7071:7086   */\n      dup3\n      add\n        /* \"#utility.yul\":7064:7123   */\n      mstore\n        /* \"#utility.yul\":7156:7190   */\n      0x20362e37353030382c2d302e38393534332031302e38393232322c2d342e3536\n        /* \"#utility.yul\":7150:7153   */\n      0x02a0\n        /* \"#utility.yul\":7139:7154   */\n      dup3\n      add\n        /* \"#utility.yul\":7132:7191   */\n      mstore\n        /* \"#utility.yul\":7224:7258   */\n      0x3536372031312e36363631372c2d31302e333337303620302e35353538352c2d\n        /* \"#utility.yul\":7218:7221   */\n      0x02c0\n        /* \"#utility.yul\":7207:7222   */\n      dup3\n      add\n        /* \"#utility.yul\":7200:7259   */\n      mstore\n        /* \"#utility.yul\":7292:7326   */\n      0x342e313435303820302e34383034352c2d342e32383334202d332e313635342c\n        /* \"#utility.yul\":7286:7289   */\n      0x02e0\n        /* \"#utility.yul\":7275:7290   */\n      dup3\n      add\n        /* \"#utility.yul\":7268:7327   */\n      mstore\n        /* \"#utility.yul\":7360:7394   */\n      0x2d352e3830363733202d332e35373134322c2d312e3439323234202d332e3636\n        /* \"#utility.yul\":7354:7357   */\n      0x0300\n        /* \"#utility.yul\":7343:7358   */\n      dup3\n      add\n        /* \"#utility.yul\":7336:7395   */\n      mstore\n        /* \"#utility.yul\":7428:7462   */\n      0x3033372c2d312e3634323736202d322e303333322c2d332e343430373620322e\n        /* \"#utility.yul\":7422:7425   */\n      0x0320\n        /* \"#utility.yul\":7411:7426   */\n      dup3\n      add\n        /* \"#utility.yul\":7404:7463   */\n      mstore\n        /* \"#utility.yul\":7496:7530   */\n      0x32373439342c2d322e353133373920312e31333734362c2d342e303036323920\n        /* \"#utility.yul\":7490:7493   */\n      0x0340\n        /* \"#utility.yul\":7479:7494   */\n      dup3\n      add\n        /* \"#utility.yul\":7472:7531   */\n      mstore\n        /* \"#utility.yul\":7564:7598   */\n      0x2d332e30353333332c2d342e3030363239202d312e38393235342c30202d332e\n        /* \"#utility.yul\":7558:7561   */\n      0x0360\n        /* \"#utility.yul\":7547:7562   */\n      dup3\n      add\n        /* \"#utility.yul\":7540:7599   */\n      mstore\n        /* \"#utility.yul\":7632:7666   */\n      0x34343039382c2d302e3339353431202d332e34343039382c2d302e3837383638\n        /* \"#utility.yul\":7626:7629   */\n      0x0380\n        /* \"#utility.yul\":7615:7630   */\n      dup3\n      add\n        /* \"#utility.yul\":7608:7667   */\n      mstore\n        /* \"#utility.yul\":7700:7734   */\n      0x20302c2d312e363339343520362e34373539322c2d332e35383335362031322c\n        /* \"#utility.yul\":7694:7697   */\n      0x03a0\n        /* \"#utility.yul\":7683:7698   */\n      dup3\n      add\n        /* \"#utility.yul\":7676:7735   */\n      mstore\n        /* \"#utility.yul\":7768:7802   */\n      0x2d332e363032343820352e33373637312c2d302e3031383420352e3530373333\n        /* \"#utility.yul\":7762:7765   */\n      0x03c0\n        /* \"#utility.yul\":7751:7766   */\n      dup3\n      add\n        /* \"#utility.yul\":7744:7803   */\n      mstore\n        /* \"#utility.yul\":7836:7870   */\n      0x2c302e3034383420352e38323639352c322e393831313620302e31373938322c\n        /* \"#utility.yul\":7830:7833   */\n      0x03e0\n        /* \"#utility.yul\":7819:7834   */\n      dup3\n      add\n        /* \"#utility.yul\":7812:7871   */\n      mstore\n        /* \"#utility.yul\":7905:7939   */\n      0x312e363520302e37323735372c332e343132373520312e32313732312c332e39\n        /* \"#utility.yul\":7898:7902   */\n      0x0400\n        /* \"#utility.yul\":7887:7903   */\n      dup3\n      add\n        /* \"#utility.yul\":7880:7940   */\n      mstore\n        /* \"#utility.yul\":7974:8008   */\n      0x3137323220312e34363534372c312e353039383220322e33393034332c2d322e\n        /* \"#utility.yul\":7967:7971   */\n      0x0420\n        /* \"#utility.yul\":7956:7972   */\n      dup3\n      add\n        /* \"#utility.yul\":7949:8009   */\n      mstore\n        /* \"#utility.yul\":8043:8077   */\n      0x343931363920312e30363631322c2d342e3631323233202d312e34363132312c\n        /* \"#utility.yul\":8036:8040   */\n      0x0440\n        /* \"#utility.yul\":8025:8041   */\n      dup3\n      add\n        /* \"#utility.yul\":8018:8078   */\n      mstore\n        /* \"#utility.yul\":8112:8146   */\n      0x2d322e3333393738202d302e36323035372c2d352e343631353220312e383232\n        /* \"#utility.yul\":8105:8109   */\n      0x0460\n        /* \"#utility.yul\":8094:8110   */\n      dup3\n      add\n        /* \"#utility.yul\":8087:8147   */\n      mstore\n        /* \"#utility.yul\":8181:8215   */\n      0x38352c2d362e3736393220312e36333139332c2d302e383733333920312e3835\n        /* \"#utility.yul\":8174:8178   */\n      0x0480\n        /* \"#utility.yul\":8163:8179   */\n      dup3\n      add\n        /* \"#utility.yul\":8156:8216   */\n      mstore\n        /* \"#utility.yul\":8250:8284   */\n      0x3937342c2d302e323737323520322e34373037352c362e343635343820302e37\n        /* \"#utility.yul\":8243:8247   */\n      0x04a0\n        /* \"#utility.yul\":8232:8248   */\n      dup3\n      add\n        /* \"#utility.yul\":8225:8285   */\n      mstore\n        /* \"#utility.yul\":8319:8353   */\n      0x343734322c382e3234383034202d302e37333136382c31322e3638363139202d\n        /* \"#utility.yul\":8312:8316   */\n      0x04c0\n        /* \"#utility.yul\":8301:8317   */\n      dup3\n      add\n        /* \"#utility.yul\":8294:8354   */\n      mstore\n        /* \"#utility.yul\":8388:8422   */\n      0x352e38303635362c31372e3432333034202d312e39323133352c312e37393333\n        /* \"#utility.yul\":8381:8385   */\n      0x04e0\n        /* \"#utility.yul\":8370:8386   */\n      dup3\n      add\n        /* \"#utility.yul\":8363:8423   */\n      mstore\n        /* \"#utility.yul\":8457:8491   */\n      0x38202d322e35393733322c332e3431393938202d322e35393733322c362e3235\n        /* \"#utility.yul\":8450:8454   */\n      0x0500\n        /* \"#utility.yul\":8439:8455   */\n      dup3\n      add\n        /* \"#utility.yul\":8432:8492   */\n      mstore\n        /* \"#utility.yul\":8526:8560   */\n      0x20302c362e303030313820332e33343838322c352e32353331382031322e3230\n        /* \"#utility.yul\":8519:8523   */\n      0x0520\n        /* \"#utility.yul\":8508:8524   */\n      dup3\n      add\n        /* \"#utility.yul\":8501:8561   */\n      mstore\n        /* \"#utility.yul\":8595:8629   */\n      0x3339362c2d322e373232323520332e393938362c2d332e363031333620372e36\n        /* \"#utility.yul\":8588:8592   */\n      0x0540\n        /* \"#utility.yul\":8577:8593   */\n      dup3\n      add\n        /* \"#utility.yul\":8570:8630   */\n      mstore\n        /* \"#utility.yul\":8664:8698   */\n      0x333538372c2d372e323031333620382e303832382c2d3820322e30393839382c\n        /* \"#utility.yul\":8657:8661   */\n      0x0560\n        /* \"#utility.yul\":8646:8662   */\n      dup3\n      add\n        /* \"#utility.yul\":8639:8699   */\n      mstore\n        /* \"#utility.yul\":8733:8767   */\n      0x2d332e373530363620352e36343732342c312e303239383120342e3138343639\n        /* \"#utility.yul\":8726:8730   */\n      0x0580\n        /* \"#utility.yul\":8715:8731   */\n      dup3\n      add\n        /* \"#utility.yul\":8708:8768   */\n      mstore\n        /* \"#utility.yul\":8802:8836   */\n      0x2c352e3633373931202d302e38373039352c322e373434313120322e31313934\n        /* \"#utility.yul\":8795:8799   */\n      0x05a0\n        /* \"#utility.yul\":8784:8800   */\n      dup3\n      add\n        /* \"#utility.yul\":8777:8837   */\n      mstore\n        /* \"#utility.yul\":8871:8905   */\n      0x332c332e353930323520342e36333638352c312e333132303220312e39313135\n        /* \"#utility.yul\":8864:8868   */\n      0x05c0\n        /* \"#utility.yul\":8853:8869   */\n      dup3\n      add\n        /* \"#utility.yul\":8846:8906   */\n      mstore\n        /* \"#utility.yul\":8940:8974   */\n      0x352c2d312e373239393320322e30313735362c2d322e383334323220312e3736\n        /* \"#utility.yul\":8933:8937   */\n      0x05e0\n        /* \"#utility.yul\":8922:8938   */\n      dup3\n      add\n        /* \"#utility.yul\":8915:8975   */\n      mstore\n        /* \"#utility.yul\":9009:9043   */\n      0x3336342c2d31382e3337313238202d302e32343035352c2d31342e3731393031\n        /* \"#utility.yul\":9002:9006   */\n      0x0600\n        /* \"#utility.yul\":8991:9007   */\n      dup3\n      add\n        /* \"#utility.yul\":8984:9044   */\n      mstore\n        /* \"#utility.yul\":9078:9112   */\n      0x202d302e3032372c2d31372e333136373820312e39343831382c2d32332e3730\n        /* \"#utility.yul\":9071:9075   */\n      0x0620\n        /* \"#utility.yul\":9060:9076   */\n      dup3\n      add\n        /* \"#utility.yul\":9053:9113   */\n      mstore\n        /* \"#utility.yul\":9147:9181   */\n      0x33313120322e34393231332c2d382e303537353920332e39353532362c2d3138\n        /* \"#utility.yul\":9140:9144   */\n      0x0640\n        /* \"#utility.yul\":9129:9145   */\n      dup3\n      add\n        /* \"#utility.yul\":9122:9182   */\n      mstore\n        /* \"#utility.yul\":9216:9250   */\n      0x2e393638353220342e35353533312c2d33332e393730303220302e3334373732\n        /* \"#utility.yul\":9209:9213   */\n      0x0660\n        /* \"#utility.yul\":9198:9214   */\n      dup3\n      add\n        /* \"#utility.yul\":9191:9251   */\n      mstore\n        /* \"#utility.yul\":9285:9319   */\n      0x2c2d382e363932393620302e31333634352c2d31302e3535303739202d312e34\n        /* \"#utility.yul\":9278:9282   */\n      0x0680\n        /* \"#utility.yul\":9267:9283   */\n      dup3\n      add\n        /* \"#utility.yul\":9260:9320   */\n      mstore\n        /* \"#utility.yul\":9354:9388   */\n      0x373832382c2d3133202d312e30333631382c2d312e3537313637202d312e3838\n        /* \"#utility.yul\":9347:9351   */\n      0x06a0\n        /* \"#utility.yul\":9336:9352   */\n      dup3\n      add\n        /* \"#utility.yul\":9329:9389   */\n      mstore\n        /* \"#utility.yul\":9423:9457   */\n      0x3639342c2d322e3435303334202d312e38393035362c2d312e3935323539202d\n        /* \"#utility.yul\":9416:9420   */\n      0x06c0\n        /* \"#utility.yul\":9405:9421   */\n      dup3\n      add\n        /* \"#utility.yul\":9398:9458   */\n      mstore\n        /* \"#utility.yul\":9492:9526   */\n      0x302e3030342c302e3439373734202d302e37393430392c302e3232303638202d\n        /* \"#utility.yul\":9485:9489   */\n      0x06e0\n        /* \"#utility.yul\":9474:9490   */\n      dup3\n      add\n        /* \"#utility.yul\":9467:9527   */\n      mstore\n        /* \"#utility.yul\":9561:9595   */\n      0x312e37353635392c2d302e3631353639202d302e393632352c2d302e38333633\n        /* \"#utility.yul\":9554:9558   */\n      0x0700\n        /* \"#utility.yul\":9543:9559   */\n      dup3\n      add\n        /* \"#utility.yul\":9536:9596   */\n      mstore\n        /* \"#utility.yul\":9630:9664   */\n      0x38202d322e39363935372c2d312e3831303139202d342e34363031352c2d322e\n        /* \"#utility.yul\":9623:9627   */\n      0x0720\n        /* \"#utility.yul\":9612:9628   */\n      dup3\n      add\n        /* \"#utility.yul\":9605:9665   */\n      mstore\n        /* \"#utility.yul\":9699:9733   */\n      0x3136343034202d312e34393035382c2d302e3335333835202d342e313533342c\n        /* \"#utility.yul\":9692:9696   */\n      0x0740\n        /* \"#utility.yul\":9681:9697   */\n      dup3\n      add\n        /* \"#utility.yul\":9674:9734   */\n      mstore\n        /* \"#utility.yul\":9768:9802   */\n      0x2d322e3433393239202d352e39313733362c2d342e3633343331202d312e3736\n        /* \"#utility.yul\":9761:9765   */\n      0x0760\n        /* \"#utility.yul\":9750:9766   */\n      dup3\n      add\n        /* \"#utility.yul\":9743:9803   */\n      mstore\n        /* \"#utility.yul\":9837:9871   */\n      0x3339372c2d322e3139353032202d332e35383139312c2d332e3939303935202d\n        /* \"#utility.yul\":9830:9834   */\n      0x0780\n        /* \"#utility.yul\":9819:9835   */\n      dup3\n      add\n        /* \"#utility.yul\":9812:9872   */\n      mstore\n        /* \"#utility.yul\":9906:9940   */\n      0x342e30333938352c2d332e3939303935202d302e34353739352c30202d302e38\n        /* \"#utility.yul\":9899:9903   */\n      0x07a0\n        /* \"#utility.yul\":9888:9904   */\n      dup3\n      add\n        /* \"#utility.yul\":9881:9941   */\n      mstore\n        /* \"#utility.yul\":9975:10009   */\n      0x3737352c332e37313235202d302e39333233322c382e3235202d302e30353438\n        /* \"#utility.yul\":9968:9972   */\n      0x07c0\n        /* \"#utility.yul\":9957:9973   */\n      dup3\n      add\n        /* \"#utility.yul\":9950:10010   */\n      mstore\n        /* \"#utility.yul\":10044:10078   */\n      0x2c342e35333735202d302e34323639362c392e333735202d302e38323639362c\n        /* \"#utility.yul\":10037:10041   */\n      0x07e0\n        /* \"#utility.yul\":10026:10042   */\n      dup3\n      add\n        /* \"#utility.yul\":10019:10079   */\n      mstore\n        /* \"#utility.yul\":10113:10147   */\n      0x31302e3735202d302e35343731352c312e38383038202d302e31323933382c33\n        /* \"#utility.yul\":10106:10110   */\n      0x0800\n        /* \"#utility.yul\":10095:10111   */\n      dup3\n      add\n        /* \"#utility.yul\":10088:10148   */\n      mstore\n        /* \"#utility.yul\":10182:10216   */\n      0x2e323235373520312e36383637332c352e343330313820312e363735392c322e\n        /* \"#utility.yul\":10175:10179   */\n      0x0820\n        /* \"#utility.yul\":10164:10180   */\n      dup3\n      add\n        /* \"#utility.yul\":10157:10217   */\n      mstore\n        /* \"#utility.yul\":10251:10285   */\n      0x303334323520322e32353631322c332e373135393420312e38393736312c352e\n        /* \"#utility.yul\":10244:10248   */\n      0x0840\n        /* \"#utility.yul\":10233:10249   */\n      dup3\n      add\n        /* \"#utility.yul\":10226:10286   */\n      mstore\n        /* \"#utility.yul\":10320:10354   */\n      0x35202d312e32343532392c362e3139363936202d312e32303237312c362e3432\n        /* \"#utility.yul\":10313:10317   */\n      0x0860\n        /* \"#utility.yul\":10302:10318   */\n      dup3\n      add\n        /* \"#utility.yul\":10295:10355   */\n      mstore\n        /* \"#utility.yul\":10389:10423   */\n      0x303320312e333432332c372e303431353520322e38353135362c302e36393630\n        /* \"#utility.yul\":10382:10386   */\n      0x0880\n        /* \"#utility.yul\":10371:10387   */\n      dup3\n      add\n        /* \"#utility.yul\":10364:10424   */\n      mstore\n        /* \"#utility.yul\":10458:10492   */\n      0x3820332e37333330372c332e373920322e30303136312c372e3032353236202d\n        /* \"#utility.yul\":10451:10455   */\n      0x08a0\n        /* \"#utility.yul\":10440:10456   */\n      dup3\n      add\n        /* \"#utility.yul\":10433:10493   */\n      mstore\n        /* \"#utility.yul\":10527:10561   */\n      0x302e36313831382c312e3135353039202d312e35303334322c362e3834313031\n        /* \"#utility.yul\":10520:10524   */\n      0x08c0\n        /* \"#utility.yul\":10509:10525   */\n      dup3\n      add\n        /* \"#utility.yul\":10502:10562   */\n      mstore\n        /* \"#utility.yul\":10596:10630   */\n      0x202d312e393637322c31322e3633353339202d302e37313135312c382e383839\n        /* \"#utility.yul\":10589:10593   */\n      0x08e0\n        /* \"#utility.yul\":10578:10594   */\n      dup3\n      add\n        /* \"#utility.yul\":10571:10631   */\n      mstore\n        /* \"#utility.yul\":10665:10699   */\n      0x3431202d312e31393738342c31302e3931323638202d332e31313331342c3132\n        /* \"#utility.yul\":10658:10662   */\n      0x0900\n        /* \"#utility.yul\":10647:10663   */\n      dup3\n      add\n        /* \"#utility.yul\":10640:10700   */\n      mstore\n        /* \"#utility.yul\":10734:10768   */\n      0x2e3935313432202d312e32343834342c312e3332383931202d322e3937383936\n        /* \"#utility.yul\":10727:10731   */\n      0x0920\n        /* \"#utility.yul\":10716:10732   */\n      dup3\n      add\n        /* \"#utility.yul\":10709:10769   */\n      mstore\n        /* \"#utility.yul\":10803:10837   */\n      0x2c322e3430313839202d332e38343535382c322e33383434202d332e39343831\n        /* \"#utility.yul\":10796:10800   */\n      0x0940\n        /* \"#utility.yul\":10785:10801   */\n      dup3\n      add\n        /* \"#utility.yul\":10778:10838   */\n      mstore\n        /* \"#utility.yul\":10872:10906   */\n      0x2c2d302e30373937202d372e32323030352c2d352e39363832202d332e333136\n        /* \"#utility.yul\":10865:10869   */\n      0x0960\n        /* \"#utility.yul\":10854:10870   */\n      dup3\n      add\n        /* \"#utility.yul\":10847:10907   */\n      mstore\n        /* \"#utility.yul\":10941:10975   */\n      0x32342c2d352e3936383220322e34313838392c3020342e303238372c2d322e39\n        /* \"#utility.yul\":10934:10938   */\n      0x0980\n        /* \"#utility.yul\":10923:10939   */\n      dup3\n      add\n        /* \"#utility.yul\":10916:10976   */\n      mstore\n        /* \"#utility.yul\":11010:11044   */\n      0x32323320342e37393539352c2d382e373036313320302e35303638392c2d332e\n        /* \"#utility.yul\":11003:11007   */\n      0x09a0\n        /* \"#utility.yul\":10992:11008   */\n      dup3\n      add\n        /* \"#utility.yul\":10985:11045   */\n      mstore\n        /* \"#utility.yul\":11079:11113   */\n      0x383231303620302e32393937382c2d352e3136393137202d302e39353339382c\n        /* \"#utility.yul\":11072:11076   */\n      0x09c0\n        /* \"#utility.yul\":11061:11077   */\n      dup3\n      add\n        /* \"#utility.yul\":11054:11114   */\n      mstore\n        /* \"#utility.yul\":11148:11182   */\n      0x2d362e32303937202d302e38383037382c2d302e3733303938202d312e363031\n        /* \"#utility.yul\":11141:11145   */\n      0x09e0\n        /* \"#utility.yul\":11130:11146   */\n      dup3\n      add\n        /* \"#utility.yul\":11123:11183   */\n      mstore\n        /* \"#utility.yul\":11217:11251   */\n      0x34322c2d312e3837363733202d312e36303134322c2d322e3534363120302c2d\n        /* \"#utility.yul\":11210:11214   */\n      0x0a00\n        /* \"#utility.yul\":11199:11215   */\n      dup3\n      add\n        /* \"#utility.yul\":11192:11252   */\n      mstore\n        /* \"#utility.yul\":11286:11320   */\n      0x302e3636393337202d312e3132352c2d312e3732393632202d322e352c2d322e\n        /* \"#utility.yul\":11279:11283   */\n      0x0a20\n        /* \"#utility.yul\":11268:11284   */\n      dup3\n      add\n        /* \"#utility.yul\":11261:11321   */\n      mstore\n        /* \"#utility.yul\":11355:11389   */\n      0x3335363132202d312e3337352c2d302e3632363439202d322e352c2d312e3638\n        /* \"#utility.yul\":11348:11352   */\n      0x0a40\n        /* \"#utility.yul\":11337:11353   */\n      dup3\n      add\n        /* \"#utility.yul\":11330:11390   */\n      mstore\n        /* \"#utility.yul\":11424:11458   */\n      0x323232202d322e352c2d322e333436303620302c2d312e3639303937202d342e\n        /* \"#utility.yul\":11417:11421   */\n      0x0a60\n        /* \"#utility.yul\":11406:11422   */\n      dup3\n      add\n        /* \"#utility.yul\":11399:11459   */\n      mstore\n        /* \"#utility.yul\":11493:11527   */\n      0x30363534332c2d352e3833353839202d352e37323339372c2d352e3833353839\n        /* \"#utility.yul\":11486:11490   */\n      0x0a80\n        /* \"#utility.yul\":11475:11491   */\n      dup3\n      add\n        /* \"#utility.yul\":11468:11528   */\n      mstore\n        /* \"#utility.yul\":11562:11596   */\n      0x202d302e37353634342c30202d322e37343635372c302e3730393039202d342e\n        /* \"#utility.yul\":11555:11559   */\n      0x0aa0\n        /* \"#utility.yul\":11544:11560   */\n      dup3\n      add\n        /* \"#utility.yul\":11537:11597   */\n      mstore\n        /* \"#utility.yul\":11631:11665   */\n      0x34323235312c312e3537353735202d322e34343139362c312e3236323738202d\n        /* \"#utility.yul\":11624:11628   */\n      0x0ac0\n        /* \"#utility.yul\":11613:11629   */\n      dup3\n      add\n        /* \"#utility.yul\":11606:11666   */\n      mstore\n        /* \"#utility.yul\":11700:11734   */\n      0x322e39313432342c322e3030373538202d322e33373739322c332e373520302e\n        /* \"#utility.yul\":11693:11697   */\n      0x0ae0\n        /* \"#utility.yul\":11682:11698   */\n      dup3\n      add\n        /* \"#utility.yul\":11675:11735   */\n      mstore\n        /* \"#utility.yul\":11769:11803   */\n      0x33363830392c312e313935383420312e36353132342c352e373734323520322e\n        /* \"#utility.yul\":11762:11766   */\n      0x0b00\n        /* \"#utility.yul\":11751:11767   */\n      dup3\n      add\n        /* \"#utility.yul\":11744:11804   */\n      mstore\n        /* \"#utility.yul\":11838:11872   */\n      0x38353134352c31302e313734323520312e32303032312c342e3420322e393637\n        /* \"#utility.yul\":11831:11835   */\n      0x0b20\n        /* \"#utility.yul\":11820:11836   */\n      dup3\n      add\n        /* \"#utility.yul\":11813:11873   */\n      mstore\n        /* \"#utility.yul\":11907:11941   */\n      0x36322c392e313132363320332e39323735382c31302e343732353120322e3339\n        /* \"#utility.yul\":11900:11904   */\n      0x0b40\n        /* \"#utility.yul\":11889:11905   */\n      dup3\n      add\n        /* \"#utility.yul\":11882:11942   */\n      mstore\n        /* \"#utility.yul\":11976:12010   */\n      0x3738382c332e333936383520322e31383637372c362e3236343139202d302e36\n        /* \"#utility.yul\":11969:11973   */\n      0x0b60\n        /* \"#utility.yul\":11958:11974   */\n      dup3\n      add\n        /* \"#utility.yul\":11951:12011   */\n      mstore\n        /* \"#utility.yul\":12045:12079   */\n      0x353739382c382e3933363639202d332e36333636372c332e3431363438202d39\n        /* \"#utility.yul\":12038:12042   */\n      0x0b80\n        /* \"#utility.yul\":12027:12043   */\n      dup3\n      add\n        /* \"#utility.yul\":12020:12080   */\n      mstore\n        /* \"#utility.yul\":12114:12148   */\n      0x2e32313739352c342e3335393232202d31342e33343636352c322e3432333331\n        /* \"#utility.yul\":12107:12111   */\n      0x0ba0\n        /* \"#utility.yul\":12096:12112   */\n      dup3\n      add\n        /* \"#utility.yul\":12089:12149   */\n      mstore\n        /* \"#utility.yul\":12183:12217   */\n      0x202d322e333337352c2d302e3838323332202d342e32352c2d322e3134353037\n        /* \"#utility.yul\":12176:12180   */\n      0x0bc0\n        /* \"#utility.yul\":12165:12181   */\n      dup3\n      add\n        /* \"#utility.yul\":12158:12218   */\n      mstore\n        /* \"#utility.yul\":12252:12286   */\n      0x202d342e32352c2d322e3830363120302c2d312e36363135372031302e343935\n        /* \"#utility.yul\":12245:12249   */\n      0x0be0\n        /* \"#utility.yul\":12234:12250   */\n      dup3\n      add\n        /* \"#utility.yul\":12227:12287   */\n      mstore\n        /* \"#utility.yul\":12321:12355   */\n      0x39392c2d362e36353730352031322e34323837372c2d352e393135333720322e\n        /* \"#utility.yul\":12314:12318   */\n      0x0c00\n        /* \"#utility.yul\":12303:12319   */\n      dup3\n      add\n        /* \"#utility.yul\":12296:12356   */\n      mstore\n        /* \"#utility.yul\":12390:12424   */\n      0x30383333342c302e373939343520322e30373936312c2d312e3934343233202d\n        /* \"#utility.yul\":12383:12387   */\n      0x0c20\n        /* \"#utility.yul\":12372:12388   */\n      dup3\n      add\n        /* \"#utility.yul\":12365:12425   */\n      mstore\n        /* \"#utility.yul\":12459:12493   */\n      0x302e3030352c2d332e3637343239202d312e32393939342c2d312e3037383836\n        /* \"#utility.yul\":12452:12456   */\n      0x0c40\n        /* \"#utility.yul\":12441:12457   */\n      dup3\n      add\n        /* \"#utility.yul\":12434:12494   */\n      mstore\n        /* \"#utility.yul\":12528:12562   */\n      0x202d312e37323034382c2d312e3037343731202d322e33393933322c302e3032\n        /* \"#utility.yul\":12521:12525   */\n      0x0c60\n        /* \"#utility.yul\":12510:12526   */\n      dup3\n      add\n        /* \"#utility.yul\":12503:12563   */\n      mstore\n        /* \"#utility.yul\":12597:12631   */\n      0x3337202d302e36333830312c312e3033323331202d312e34303739372c302e37\n        /* \"#utility.yul\":12590:12594   */\n      0x0c80\n        /* \"#utility.yul\":12579:12595   */\n      dup3\n      add\n        /* \"#utility.yul\":12572:12632   */\n      mstore\n        /* \"#utility.yul\":12666:12700   */\n      0x34363937202d332e34323337392c2d312e3236383835202d322e33383332312c\n        /* \"#utility.yul\":12659:12663   */\n      0x0ca0\n        /* \"#utility.yul\":12648:12664   */\n      dup3\n      add\n        /* \"#utility.yul\":12641:12701   */\n      mstore\n        /* \"#utility.yul\":12735:12769   */\n      0x2d322e3338333234202d322e36303036362c2d332e3239343835202d322e3630\n        /* \"#utility.yul\":12728:12732   */\n      0x0cc0\n        /* \"#utility.yul\":12717:12733   */\n      dup3\n      add\n        /* \"#utility.yul\":12710:12770   */\n      mstore\n        /* \"#utility.yul\":12804:12838   */\n      0x3036362c2d31302e393032373520302c2d342e353636313320302e3432343531\n        /* \"#utility.yul\":12797:12801   */\n      0x0ce0\n        /* \"#utility.yul\":12786:12802   */\n      dup3\n      add\n        /* \"#utility.yul\":12779:12839   */\n      mstore\n        /* \"#utility.yul\":12873:12907   */\n      0x2c2d392e373832323220302e39343333352c2d31312e353931333220312e3430\n        /* \"#utility.yul\":12866:12870   */\n      0x0d00\n        /* \"#utility.yul\":12855:12871   */\n      dup3\n      add\n        /* \"#utility.yul\":12848:12908   */\n      mstore\n        /* \"#utility.yul\":12942:12976   */\n      0x3130322c2d342e383835303820362e35373938322c2d392e3130313032203134\n        /* \"#utility.yul\":12935:12939   */\n      0x0d20\n        /* \"#utility.yul\":12924:12940   */\n      dup3\n      add\n        /* \"#utility.yul\":12917:12977   */\n      mstore\n        /* \"#utility.yul\":13011:13045   */\n      0x2e34353035392c2d31312e373633383920392e38333030352c2d332e33323537\n        /* \"#utility.yul\":13004:13008   */\n      0x0d40\n        /* \"#utility.yul\":12993:13009   */\n      dup3\n      add\n        /* \"#utility.yul\":12986:13046   */\n      mstore\n        /* \"#utility.yul\":13080:13114   */\n      0x352031302e32393931332c2d332e393635333220372e38303234322c2d31302e\n        /* \"#utility.yul\":13073:13077   */\n      0x0d60\n        /* \"#utility.yul\":13062:13078   */\n      dup3\n      add\n        /* \"#utility.yul\":13055:13115   */\n      mstore\n        /* \"#utility.yul\":13149:13183   */\n      0x3633383337202d312e33343236312c2d332e3538383433202d322e3132303431\n        /* \"#utility.yul\":13142:13146   */\n      0x0d80\n        /* \"#utility.yul\":13131:13147   */\n      dup3\n      add\n        /* \"#utility.yul\":13124:13184   */\n      mstore\n        /* \"#utility.yul\":13218:13252   */\n      0x2c2d382e3432343935202d322e33303833332c2d31342e3335333635202d302e\n        /* \"#utility.yul\":13211:13215   */\n      0x0da0\n        /* \"#utility.yul\":13200:13216   */\n      dup3\n      add\n        /* \"#utility.yul\":13193:13253   */\n      mstore\n        /* \"#utility.yul\":13287:13321   */\n      0x31353538392c2d342e3931373839202d302e37333834372c2d392e353531202d\n        /* \"#utility.yul\":13280:13284   */\n      0x0dc0\n        /* \"#utility.yul\":13269:13285   */\n      dup3\n      add\n        /* \"#utility.yul\":13262:13322   */\n      mstore\n        /* \"#utility.yul\":13356:13390   */\n      0x312e32393436332c2d31302e32393538202d322e31303238322c2d322e383136\n        /* \"#utility.yul\":13349:13353   */\n      0x0de0\n        /* \"#utility.yul\":13338:13354   */\n      dup3\n      add\n        /* \"#utility.yul\":13331:13391   */\n      mstore\n        /* \"#utility.yul\":13425:13459   */\n      0x3033202d352e38313238362c2d332e3235353135202d31372e30363937362c2d\n        /* \"#utility.yul\":13418:13422   */\n      0x0e00\n        /* \"#utility.yul\":13407:13423   */\n      dup3\n      add\n        /* \"#utility.yul\":13400:13460   */\n      mstore\n        /* \"#utility.yul\":13494:13528   */\n      0x322e3032303337202d382e35343733342c302e3933373537202d31322e313735\n        /* \"#utility.yul\":13487:13491   */\n      0x0e20\n        /* \"#utility.yul\":13476:13492   */\n      dup3\n      add\n        /* \"#utility.yul\":13469:13529   */\n      mstore\n        /* \"#utility.yul\":13563:13597   */\n      0x34342c302e3934373835202d31352e373632322c302e30343437202d332e3533\n        /* \"#utility.yul\":13556:13560   */\n      0x0e40\n        /* \"#utility.yul\":13545:13561   */\n      dup3\n      add\n        /* \"#utility.yul\":13538:13598   */\n      mstore\n        /* \"#utility.yul\":13632:13666   */\n      0x3630382c2d302e3839303339202d362e35313734352c2d302e3839363832202d\n        /* \"#utility.yul\":13625:13629   */\n      0x0e60\n        /* \"#utility.yul\":13614:13630   */\n      dup3\n      add\n        /* \"#utility.yul\":13607:13667   */\n      mstore\n        /* \"#utility.yul\":13701:13735   */\n      0x31322e33363739352c2d302e30323637202d392e32343735352c312e33373534\n        /* \"#utility.yul\":13694:13698   */\n      0x0e80\n        /* \"#utility.yul\":13683:13699   */\n      dup3\n      add\n        /* \"#utility.yul\":13676:13736   */\n      mstore\n        /* \"#utility.yul\":13770:13804   */\n      0x202d31332e32303734342c342e3336343034202d31372e38393334392c31332e\n        /* \"#utility.yul\":13763:13767   */\n      0x0ea0\n        /* \"#utility.yul\":13752:13768   */\n      dup3\n      add\n        /* \"#utility.yul\":13745:13805   */\n      mstore\n        /* \"#utility.yul\":13839:13873   */\n      0x3530343639202d322e36313435392c352e3130303034202d332e30343434392c\n        /* \"#utility.yul\":13832:13836   */\n      0x0ec0\n        /* \"#utility.yul\":13821:13837   */\n      dup3\n      add\n        /* \"#utility.yul\":13814:13874   */\n      mstore\n        /* \"#utility.yul\":13908:13942   */\n      0x372e3131353139202d332e33343633332c31352e3638353635206c202d302e33\n        /* \"#utility.yul\":13901:13905   */\n      0x0ee0\n        /* \"#utility.yul\":13890:13906   */\n      dup3\n      add\n        /* \"#utility.yul\":13883:13943   */\n      mstore\n        /* \"#utility.yul\":13977:14011   */\n      0x343633322c392e3833333832202d322e33353237392c2d322e32313033332063\n        /* \"#utility.yul\":13970:13974   */\n      0x0f00\n        /* \"#utility.yul\":13959:13975   */\n      dup3\n      add\n        /* \"#utility.yul\":13952:14012   */\n      mstore\n        /* \"#utility.yul\":14046:14080   */\n      0x202d332e35373930322c2d332e3336323331202d352e30383031372c2d322e30\n        /* \"#utility.yul\":14039:14043   */\n      0x0f20\n        /* \"#utility.yul\":14028:14044   */\n      dup3\n      add\n        /* \"#utility.yul\":14021:14081   */\n      mstore\n        /* \"#utility.yul\":14115:14149   */\n      0x32323733202d352e3732372c352e3131303539202d302e343033372c342e3435\n        /* \"#utility.yul\":14108:14112   */\n      0x0f40\n        /* \"#utility.yul\":14097:14113   */\n      dup3\n      add\n        /* \"#utility.yul\":14090:14150   */\n      mstore\n        /* \"#utility.yul\":14184:14218   */\n      0x323131202d302e303135352c382e3339363420312e33353331362c31332e3734\n        /* \"#utility.yul\":14177:14181   */\n      0x0f60\n        /* \"#utility.yul\":14166:14182   */\n      dup3\n      add\n        /* \"#utility.yul\":14159:14219   */\n      mstore\n        /* \"#utility.yul\":14253:14287   */\n      0x37363920312e303535362c342e313237333920312e39313932382c382e393037\n        /* \"#utility.yul\":14246:14250   */\n      0x0f80\n        /* \"#utility.yul\":14235:14251   */\n      dup3\n      add\n        /* \"#utility.yul\":14228:14288   */\n      mstore\n        /* \"#utility.yul\":14322:14356   */\n      0x323220312e39313932382c31302e363231383720302c342e303939393620322e\n        /* \"#utility.yul\":14315:14319   */\n      0x0fa0\n        /* \"#utility.yul\":14304:14320   */\n      dup3\n      add\n        /* \"#utility.yul\":14297:14357   */\n      mstore\n        /* \"#utility.yul\":14391:14425   */\n      0x33383034312c372e333535323720352e36363530352c372e373437313720322e\n        /* \"#utility.yul\":14384:14388   */\n      0x0fc0\n        /* \"#utility.yul\":14373:14389   */\n      dup3\n      add\n        /* \"#utility.yul\":14366:14426   */\n      mstore\n        /* \"#utility.yul\":14460:14494   */\n      0x34303330352c302e323836373220322e383537392c312e303837363620352e30\n        /* \"#utility.yul\":14453:14457   */\n      0x0fe0\n        /* \"#utility.yul\":14442:14458   */\n      dup3\n      add\n        /* \"#utility.yul\":14435:14495   */\n      mstore\n        /* \"#utility.yul\":14529:14563   */\n      0x303631322c382e383135333720312e39313830362c362e383939373220322e34\n        /* \"#utility.yul\":14522:14526   */\n      0x1000\n        /* \"#utility.yul\":14511:14527   */\n      dup3\n      add\n        /* \"#utility.yul\":14504:14564   */\n      mstore\n        /* \"#utility.yul\":14598:14632   */\n      0x363131312c31312e3739343720322e38383434392c323620302e37333938372c\n        /* \"#utility.yul\":14591:14595   */\n      0x1020\n        /* \"#utility.yul\":14580:14596   */\n      dup3\n      add\n        /* \"#utility.yul\":14573:14633   */\n      mstore\n        /* \"#utility.yul\":14667:14701   */\n      0x32342e383234343720312e35323430342c32372e313039352031342e36363037\n        /* \"#utility.yul\":14660:14664   */\n      0x1040\n        /* \"#utility.yul\":14649:14665   */\n      dup3\n      add\n        /* \"#utility.yul\":14642:14702   */\n      mstore\n        /* \"#utility.yul\":14736:14770   */\n      0x372c34322e373230323920352e36353539362c362e37323131362031322e3330\n        /* \"#utility.yul\":14729:14733   */\n      0x1060\n        /* \"#utility.yul\":14718:14734   */\n      dup3\n      add\n        /* \"#utility.yul\":14711:14771   */\n      mstore\n        /* \"#utility.yul\":14805:14839   */\n      0x3835372c31332e36373239382031342e37383335372c31352e3434383520322e\n        /* \"#utility.yul\":14798:14802   */\n      0x1080\n        /* \"#utility.yul\":14787:14803   */\n      dup3\n      add\n        /* \"#utility.yul\":14780:14840   */\n      mstore\n        /* \"#utility.yul\":14874:14908   */\n      0x3437352c312e373735353220352e39373831362c342e343838383920372e3738\n        /* \"#utility.yul\":14867:14871   */\n      0x10a0\n        /* \"#utility.yul\":14856:14872   */\n      dup3\n      add\n        /* \"#utility.yul\":14849:14909   */\n      mstore\n        /* \"#utility.yul\":14943:14977   */\n      0x34382c362e303239373120312e38303636332c312e353430383320332e353437\n        /* \"#utility.yul\":14936:14940   */\n      0x10c0\n        /* \"#utility.yul\":14925:14941   */\n      dup3\n      add\n        /* \"#utility.yul\":14918:14978   */\n      mstore\n        /* \"#utility.yul\":15012:15046   */\n      0x37372c322e3830313520332e38363931392c322e3830313520302e3332313431\n        /* \"#utility.yul\":15005:15009   */\n      0x10e0\n        /* \"#utility.yul\":14994:15010   */\n      dup3\n      add\n        /* \"#utility.yul\":14987:15047   */\n      mstore\n        /* \"#utility.yul\":15081:15115   */\n      0x2c3020332e32343839382c2d312e363138363620362e35303537312c2d332e35\n        /* \"#utility.yul\":15074:15078   */\n      0x1100\n        /* \"#utility.yul\":15063:15079   */\n      dup3\n      add\n        /* \"#utility.yul\":15056:15116   */\n      mstore\n        /* \"#utility.yul\":15150:15184   */\n      0x39373031207a204d203136352e33333532342c3132392e30303730322063202d\n        /* \"#utility.yul\":15143:15147   */\n      0x1120\n        /* \"#utility.yul\":15132:15148   */\n      dup3\n      add\n        /* \"#utility.yul\":15125:15185   */\n      mstore\n        /* \"#utility.yul\":15219:15253   */\n      0x302e38393834332c2d312e3038323535202d322e32333239332c2d312e343032\n        /* \"#utility.yul\":15212:15216   */\n      0x1140\n        /* \"#utility.yul\":15201:15217   */\n      dup3\n      add\n        /* \"#utility.yul\":15194:15254   */\n      mstore\n        /* \"#utility.yul\":15288:15322   */\n      0x3931202d342e323032382c2d312e3030383933202d322e3034312c302e343038\n        /* \"#utility.yul\":15281:15285   */\n      0x1160\n        /* \"#utility.yul\":15270:15286   */\n      dup3\n      add\n        /* \"#utility.yul\":15263:15323   */\n      mstore\n        /* \"#utility.yul\":15357:15391   */\n      0x32202d322e373637382c302e3231333738202d322e34383135332c2d302e3636\n        /* \"#utility.yul\":15350:15354   */\n      0x1180\n        /* \"#utility.yul\":15339:15355   */\n      dup3\n      add\n        /* \"#utility.yul\":15332:15392   */\n      mstore\n        /* \"#utility.yul\":15426:15460   */\n      0x333820302e32323236362c2d302e363832353920322e35303838322c2d312e36\n        /* \"#utility.yul\":15419:15423   */\n      0x11a0\n        /* \"#utility.yul\":15408:15424   */\n      dup3\n      add\n        /* \"#utility.yul\":15401:15461   */\n      mstore\n        /* \"#utility.yul\":15495:15529   */\n      0x3533393920352e30383033352c2d322e313538363720322e35373135342c2d30\n        /* \"#utility.yul\":15488:15492   */\n      0x11c0\n        /* \"#utility.yul\":15477:15493   */\n      dup3\n      add\n        /* \"#utility.yul\":15470:15530   */\n      mstore\n        /* \"#utility.yul\":15564:15598   */\n      0x2e353034363820342e36373535322c2d312e323633303520342e36373535322c\n        /* \"#utility.yul\":15557:15561   */\n      0x11e0\n        /* \"#utility.yul\":15546:15562   */\n      dup3\n      add\n        /* \"#utility.yul\":15539:15599   */\n      mstore\n        /* \"#utility.yul\":15633:15667   */\n      0x2d312e363835323720302c2d302e3432323232202d312e3537352c2d312e3333\n        /* \"#utility.yul\":15626:15630   */\n      0x1200\n        /* \"#utility.yul\":15615:15631   */\n      dup3\n      add\n        /* \"#utility.yul\":15608:15668   */\n      mstore\n        /* \"#utility.yul\":15702:15736   */\n      0x3732202d332e352c2d322e3033333239202d352e36323537362c2d322e303334\n        /* \"#utility.yul\":15695:15699   */\n      0x1220\n        /* \"#utility.yul\":15684:15700   */\n      dup3\n      add\n        /* \"#utility.yul\":15677:15737   */\n      mstore\n        /* \"#utility.yul\":15771:15805   */\n      0x33202d342e30363138372c2d332e313130383120332e393332372c2d322e3730\n        /* \"#utility.yul\":15764:15768   */\n      0x1240\n        /* \"#utility.yul\":15753:15769   */\n      dup3\n      add\n        /* \"#utility.yul\":15746:15806   */\n      mstore\n        /* \"#utility.yul\":15840:15874   */\n      0x37313120372e39353337382c302e343031363520392e34393339362c312e3032\n        /* \"#utility.yul\":15833:15837   */\n      0x1260\n        /* \"#utility.yul\":15822:15838   */\n      dup3\n      add\n        /* \"#utility.yul\":15815:15875   */\n      mstore\n        /* \"#utility.yul\":15909:15943   */\n      0x31373920372e37353136352c332e3132313134202d302e36303533362c302e37\n        /* \"#utility.yul\":15902:15906   */\n      0x1280\n        /* \"#utility.yul\":15891:15907   */\n      dup3\n      add\n        /* \"#utility.yul\":15884:15944   */\n      mstore\n        /* \"#utility.yul\":15978:16012   */\n      0x32393431202d302e38383735312c322e3230323739202d302e36323730312c33\n        /* \"#utility.yul\":15971:15975   */\n      0x12a0\n        /* \"#utility.yul\":15960:15976   */\n      dup3\n      add\n        /* \"#utility.yul\":15953:16013   */\n      mstore\n        /* \"#utility.yul\":16047:16081   */\n      0x2e323734313720302e33363331352c312e34393335202d302e34323239352c32\n        /* \"#utility.yul\":16040:16044   */\n      0x12c0\n        /* \"#utility.yul\":16029:16045   */\n      dup3\n      add\n        /* \"#utility.yul\":16022:16082   */\n      mstore\n        /* \"#utility.yul\":16116:16150   */\n      0x2e3335363233202d332e33363934362c332e3639373936202d342e373236342c\n        /* \"#utility.yul\":16109:16113   */\n      0x12e0\n        /* \"#utility.yul\":16098:16114   */\n      dup3\n      add\n        /* \"#utility.yul\":16091:16151   */\n      mstore\n        /* \"#utility.yul\":16185:16219   */\n      0x322e3135323232202d352e35393239352c322e3137313737202d372e32353934\n        /* \"#utility.yul\":16178:16182   */\n      0x1300\n        /* \"#utility.yul\":16167:16183   */\n      dup3\n      add\n        /* \"#utility.yul\":16160:16220   */\n      mstore\n        /* \"#utility.yul\":16254:16288   */\n      0x322c302e31363338207a206d2038312e32373238372c31362e36353337206320\n        /* \"#utility.yul\":16247:16251   */\n      0x1320\n        /* \"#utility.yul\":16236:16252   */\n      dup3\n      add\n        /* \"#utility.yul\":16229:16289   */\n      mstore\n        /* \"#utility.yul\":16323:16357   */\n      0x302e34303134322c2d322e333531343320312e30303036372c2d352e31323835\n        /* \"#utility.yul\":16316:16320   */\n      0x1340\n        /* \"#utility.yul\":16305:16321   */\n      dup3\n      add\n        /* \"#utility.yul\":16298:16358   */\n      mstore\n        /* \"#utility.yul\":16392:16426   */\n      0x3720312e33333136352c2d362e313731343220302e37393637362c2d322e3531\n        /* \"#utility.yul\":16385:16389   */\n      0x1360\n        /* \"#utility.yul\":16374:16390   */\n      dup3\n      add\n        /* \"#utility.yul\":16367:16427   */\n      mstore\n        /* \"#utility.yul\":16461:16495   */\n      0x303336202d332e303039352c2d322e3634383032202d342e30333933312c2d30\n        /* \"#utility.yul\":16454:16458   */\n      0x1380\n        /* \"#utility.yul\":16443:16459   */\n      dup3\n      add\n        /* \"#utility.yul\":16436:16496   */\n      mstore\n        /* \"#utility.yul\":16530:16564   */\n      0x2e3134363038202d302e38393635342c322e3137383136202d312e3434343639\n        /* \"#utility.yul\":16523:16527   */\n      0x13a0\n        /* \"#utility.yul\":16512:16528   */\n      dup3\n      add\n        /* \"#utility.yul\":16505:16565   */\n      mstore\n        /* \"#utility.yul\":16599:16633   */\n      0x2c392e3436393931202d302e373933332c31302e353532373920312e31303337\n        /* \"#utility.yul\":16592:16596   */\n      0x13c0\n        /* \"#utility.yul\":16581:16597   */\n      dup3\n      add\n        /* \"#utility.yul\":16574:16634   */\n      mstore\n        /* \"#utility.yul\":16668:16702   */\n      0x352c312e383334383720322e38313839332c2d302e323430303620332e353030\n        /* \"#utility.yul\":16661:16665   */\n      0x13e0\n        /* \"#utility.yul\":16650:16666   */\n      dup3\n      add\n        /* \"#utility.yul\":16643:16703   */\n      mstore\n        /* \"#utility.yul\":16737:16771   */\n      0x39362c2d342e3233353239207a206d202d32302e393336392c2d31332e363635\n        /* \"#utility.yul\":16730:16734   */\n      0x1400\n        /* \"#utility.yul\":16719:16735   */\n      dup3\n      add\n        /* \"#utility.yul\":16712:16772   */\n      mstore\n        /* \"#utility.yul\":16806:16840   */\n      0x3237206320302e33323837372c2d302e333238373720302e33353536332c2d31\n        /* \"#utility.yul\":16799:16803   */\n      0x1420\n        /* \"#utility.yul\":16788:16804   */\n      dup3\n      add\n        /* \"#utility.yul\":16781:16841   */\n      mstore\n        /* \"#utility.yul\":16875:16909   */\n      0x2e323238373720302e303539372c2d32202d302e37313035362c2d312e383531\n        /* \"#utility.yul\":16868:16872   */\n      0x1440\n        /* \"#utility.yul\":16857:16873   */\n      dup3\n      add\n        /* \"#utility.yul\":16850:16910   */\n      mstore\n        /* \"#utility.yul\":16944:16978   */\n      0x3638202d352e33323431312c2d312e3833393138202d352e33323431312c302e\n        /* \"#utility.yul\":16937:16941   */\n      0x1460\n        /* \"#utility.yul\":16926:16942   */\n      dup3\n      add\n        /* \"#utility.yul\":16919:16979   */\n      mstore\n        /* \"#utility.yul\":17013:17047   */\n      0x3031343420302c312e393438323620332e38343937342c332e34303032352035\n        /* \"#utility.yul\":17006:17010   */\n      0x1480\n        /* \"#utility.yul\":16995:17011   */\n      dup3\n      add\n        /* \"#utility.yul\":16988:17048   */\n      mstore\n        /* \"#utility.yul\":17082:17116   */\n      0x2e32363434332c312e3938353536207a206d2032332e363937342c2d392e3531\n        /* \"#utility.yul\":17075:17079   */\n      0x14a0\n        /* \"#utility.yul\":17064:17080   */\n      dup3\n      add\n        /* \"#utility.yul\":17057:17117   */\n      mstore\n        /* \"#utility.yul\":17151:17185   */\n      0x3738392063202d312e36393738382c2d352e3134343632202d332e3732383932\n        /* \"#utility.yul\":17144:17148   */\n      0x14c0\n        /* \"#utility.yul\":17133:17149   */\n      dup3\n      add\n        /* \"#utility.yul\":17126:17186   */\n      mstore\n        /* \"#utility.yul\":17220:17254   */\n      0x2c2d352e3131383733202d322e39393638362c302e3033383220302e32393832\n        /* \"#utility.yul\":17213:17217   */\n      0x14e0\n        /* \"#utility.yul\":17202:17218   */\n      dup3\n      add\n        /* \"#utility.yul\":17195:17255   */\n      mstore\n        /* \"#utility.yul\":17289:17323   */\n      0x332c322e313030383120332e34373433362c362e303539323720332e39303639\n        /* \"#utility.yul\":17282:17286   */\n      0x1500\n        /* \"#utility.yul\":17271:17287   */\n      dup3\n      add\n        /* \"#utility.yul\":17264:17324   */\n      mstore\n        /* \"#utility.yul\":17358:17392   */\n      0x322c342e383639323520302e32303435342c2d302e3536323731202d302e3230\n        /* \"#utility.yul\":17351:17355   */\n      0x1520\n        /* \"#utility.yul\":17340:17356   */\n      dup3\n      add\n        /* \"#utility.yul\":17333:17393   */\n      mstore\n        /* \"#utility.yul\":17427:17461   */\n      0x3439392c2d322e3737313036202d302e39313030362c2d342e3930373434207a\n        /* \"#utility.yul\":17420:17424   */\n      0x1540\n        /* \"#utility.yul\":17409:17425   */\n      dup3\n      add\n        /* \"#utility.yul\":17402:17462   */\n      mstore\n        /* \"#utility.yul\":17496:17530   */\n      0x206d20322e30333831372c2d372e3338343334206320302c2d302e383235202d\n        /* \"#utility.yul\":17489:17493   */\n      0x1560\n        /* \"#utility.yul\":17478:17494   */\n      dup3\n      add\n        /* \"#utility.yul\":17471:17531   */\n      mstore\n        /* \"#utility.yul\":17565:17599   */\n      0x302e3637352c2d312e35202d312e352c2d312e35202d302e3832352c30202d31\n        /* \"#utility.yul\":17558:17562   */\n      0x1580\n        /* \"#utility.yul\":17547:17563   */\n      dup3\n      add\n        /* \"#utility.yul\":17540:17600   */\n      mstore\n        /* \"#utility.yul\":17634:17668   */\n      0x2e352c302e363735202d312e352c312e3520302c302e38323520302e3637352c\n        /* \"#utility.yul\":17627:17631   */\n      0x15a0\n        /* \"#utility.yul\":17616:17632   */\n      dup3\n      add\n        /* \"#utility.yul\":17609:17669   */\n      mstore\n        /* \"#utility.yul\":17703:17737   */\n      0x312e3520312e352c312e3520302e3832352c3020312e352c2d302e3637352031\n        /* \"#utility.yul\":17696:17700   */\n      0x15c0\n        /* \"#utility.yul\":17685:17701   */\n      dup3\n      add\n        /* \"#utility.yul\":17678:17738   */\n      mstore\n        /* \"#utility.yul\":17772:17838   */\n      0x2e352c2d312e35207a222066696c6c3d2223306633623836222f3e0000000000\n        /* \"#utility.yul\":17765:17769   */\n      0x15e0\n        /* \"#utility.yul\":17754:17770   */\n      dup3\n      add\n        /* \"#utility.yul\":17747:17839   */\n      mstore\n        /* \"#utility.yul\":17866:17870   */\n      0x15fb\n        /* \"#utility.yul\":17855:17871   */\n      add\n      swap2\n        /* \"#utility.yul\":5297:17877   */\n      swap1\n      pop\n      jump\t// out\n        /* \"#utility.yul\":17882:18743   */\n    tag_14:\n        /* \"#utility.yul\":18316:18319   */\n      0x00\n        /* \"#utility.yul\":18354:18360   */\n      dup3\n        /* \"#utility.yul\":18348:18361   */\n      mload\n        /* \"#utility.yul\":18370:18423   */\n      tag_103\n        /* \"#utility.yul\":18416:18422   */\n      dup2\n        /* \"#utility.yul\":18411:18414   */\n      dup5\n        /* \"#utility.yul\":18404:18408   */\n      0x20\n        /* \"#utility.yul\":18396:18402   */\n      dup8\n        /* \"#utility.yul\":18392:18409   */\n      add\n        /* \"#utility.yul\":18370:18423   */\n      tag_87\n      jump\t// in\n    tag_103:\n        /* \"#utility.yul\":18484:18550   */\n      0x3c726563742077696474683d223130302522206865696768743d223130302522\n        /* \"#utility.yul\":18445:18461   */\n      swap3\n      add\n        /* \"#utility.yul\":18470:18551   */\n      swap2\n      dup3\n      mstore\n      pop\n      shl(0xc9, 0x103334b6361e91)\n        /* \"#utility.yul\":18578:18582   */\n      0x20\n        /* \"#utility.yul\":18567:18583   */\n      dup3\n      add\n        /* \"#utility.yul\":18560:18612   */\n      mstore\n      shl(0xc8, 0x23653430323237)\n        /* \"#utility.yul\":18639:18641   */\n      0x27\n        /* \"#utility.yul\":18628:18642   */\n      dup3\n      add\n        /* \"#utility.yul\":18621:18654   */\n      mstore\n      shl(0xe1, 0x1110179f)\n        /* \"#utility.yul\":18681:18683   */\n      0x2e\n        /* \"#utility.yul\":18670:18684   */\n      dup3\n      add\n        /* \"#utility.yul\":18663:18707   */\n      mstore\n        /* \"#utility.yul\":18734:18736   */\n      0x32\n        /* \"#utility.yul\":18723:18737   */\n      add\n      swap2\n        /* \"#utility.yul\":17882:18743   */\n      swap1\n      pop\n      jump\t// out\n        /* \"#utility.yul\":18748:19637   */\n    tag_18:\n        /* \"#utility.yul\":19129:19132   */\n      0x00\n        /* \"#utility.yul\":19167:19173   */\n      dup4\n        /* \"#utility.yul\":19161:19174   */\n      mload\n        /* \"#utility.yul\":19183:19236   */\n      tag_105\n        /* \"#utility.yul\":19229:19235   */\n      dup2\n        /* \"#utility.yul\":19224:19227   */\n      dup5\n        /* \"#utility.yul\":19217:19221   */\n      0x20\n        /* \"#utility.yul\":19209:19215   */\n      dup9\n        /* \"#utility.yul\":19205:19222   */\n      add\n        /* \"#utility.yul\":19183:19236   */\n      tag_87\n      jump\t// in\n    tag_105:\n        /* \"#utility.yul\":19267:19273   */\n      dup1\n        /* \"#utility.yul\":19262:19265   */\n      dup4\n        /* \"#utility.yul\":19258:19274   */\n      add\n        /* \"#utility.yul\":19245:19274   */\n      swap1\n      pop\n        /* \"#utility.yul\":19297:19363   */\n      0x3c7465787420783d2238302220793d2234302220636c6173733d227469746c65\n        /* \"#utility.yul\":19290:19295   */\n      dup2\n        /* \"#utility.yul\":19283:19364   */\n      mstore\n        /* \"#utility.yul\":19407:19411   */\n      0x111f\n        /* \"#utility.yul\":19402:19405   */\n      0xf1\n        /* \"#utility.yul\":19398:19412   */\n      shl\n        /* \"#utility.yul\":19391:19395   */\n      0x20\n        /* \"#utility.yul\":19384:19389   */\n      dup3\n        /* \"#utility.yul\":19380:19396   */\n      add\n        /* \"#utility.yul\":19373:19413   */\n      mstore\n        /* \"#utility.yul\":19444:19450   */\n      dup4\n        /* \"#utility.yul\":19438:19451   */\n      mload\n        /* \"#utility.yul\":19460:19526   */\n      tag_106\n        /* \"#utility.yul\":19517:19525   */\n      dup2\n        /* \"#utility.yul\":19512:19514   */\n      0x22\n        /* \"#utility.yul\":19505:19510   */\n      dup5\n        /* \"#utility.yul\":19501:19515   */\n      add\n        /* \"#utility.yul\":19494:19498   */\n      0x20\n        /* \"#utility.yul\":19486:19492   */\n      dup9\n        /* \"#utility.yul\":19482:19499   */\n      add\n        /* \"#utility.yul\":19460:19526   */\n      tag_87\n      jump\t// in\n    tag_106:\n      shl(0xc9, 0x1e17ba32bc3a1f)\n        /* \"#utility.yul\":19589:19591   */\n      0x22\n        /* \"#utility.yul\":19545:19565   */\n      swap3\n      swap1\n      swap2\n      add\n        /* \"#utility.yul\":19581:19592   */\n      swap2\n      dup3\n      add\n        /* \"#utility.yul\":19574:19604   */\n      mstore\n        /* \"#utility.yul\":19628:19630   */\n      0x29\n        /* \"#utility.yul\":19620:19631   */\n      add\n      swap5\n        /* \"#utility.yul\":18748:19637   */\n      swap4\n      pop\n      pop\n      pop\n      pop\n      jump\t// out\n        /* \"#utility.yul\":19642:20086   */\n    tag_32:\n        /* \"#utility.yul\":19874:19877   */\n      0x00\n        /* \"#utility.yul\":19912:19918   */\n      dup3\n        /* \"#utility.yul\":19906:19919   */\n      mload\n        /* \"#utility.yul\":19928:19981   */\n      tag_108\n        /* \"#utility.yul\":19974:19980   */\n      dup2\n        /* \"#utility.yul\":19969:19972   */\n      dup5\n        /* \"#utility.yul\":19962:19966   */\n      0x20\n        /* \"#utility.yul\":19954:19960   */\n      dup8\n        /* \"#utility.yul\":19950:19967   */\n      add\n        /* \"#utility.yul\":19928:19981   */\n      tag_87\n      jump\t// in\n    tag_108:\n      shl(0xd1, 0x1e17b9bb339f)\n        /* \"#utility.yul\":20003:20019   */\n      swap3\n      add\n        /* \"#utility.yul\":20028:20051   */\n      swap2\n      dup3\n      mstore\n      pop\n        /* \"#utility.yul\":20078:20079   */\n      0x06\n        /* \"#utility.yul\":20067:20080   */\n      add\n      swap2\n        /* \"#utility.yul\":19642:20086   */\n      swap1\n      pop\n      jump\t// out\n        /* \"#utility.yul\":20091:21301   */\n    tag_12:\n        /* \"#utility.yul\":20626:20629   */\n      0x00\n        /* \"#utility.yul\":20664:20670   */\n      dup3\n        /* \"#utility.yul\":20658:20671   */\n      mload\n        /* \"#utility.yul\":20680:20733   */\n      tag_110\n        /* \"#utility.yul\":20726:20732   */\n      dup2\n        /* \"#utility.yul\":20721:20724   */\n      dup5\n        /* \"#utility.yul\":20714:20718   */\n      0x20\n        /* \"#utility.yul\":20706:20712   */\n      dup8\n        /* \"#utility.yul\":20702:20719   */\n      add\n        /* \"#utility.yul\":20680:20733   */\n      tag_87\n      jump\t// in\n    tag_110:\n      shl(0xc9, 0x1e39ba3cb6329f)\n        /* \"#utility.yul\":20755:20771   */\n      swap3\n      add\n        /* \"#utility.yul\":20780:20804   */\n      swap2\n      dup3\n      mstore\n      pop\n        /* \"#utility.yul\":20835:20869   */\n      0x74657874207b20666f6e742d66616d696c793a20417269616c2c2048656c7665\n        /* \"#utility.yul\":20831:20832   */\n      0x07\n        /* \"#utility.yul\":20820:20833   */\n      dup3\n      add\n        /* \"#utility.yul\":20813:20870   */\n      mstore\n        /* \"#utility.yul\":20902:20936   */\n      0x746963612c2073616e732d73657269663b20666f6e742d7765696768743a2020\n        /* \"#utility.yul\":20897:20899   */\n      0x27\n        /* \"#utility.yul\":20886:20900   */\n      dup3\n      add\n        /* \"#utility.yul\":20879:20937   */\n      mstore\n        /* \"#utility.yul\":20969:21003   */\n      0x626f6c643b2066696c6c3a20236666653530303b20666f6e742d73697a653a20\n        /* \"#utility.yul\":20964:20966   */\n      0x47\n        /* \"#utility.yul\":20953:20967   */\n      dup3\n      add\n        /* \"#utility.yul\":20946:21004   */\n      mstore\n      shl(0xd0, 0x31656d3b207d)\n        /* \"#utility.yul\":21031:21034   */\n      0x67\n        /* \"#utility.yul\":21020:21035   */\n      dup3\n      add\n        /* \"#utility.yul\":21013:21046   */\n      mstore\n        /* \"#utility.yul\":21079:21113   */\n      0x2e7469746c65207b20746578742d616e63686f723a206c6566743b20666f6e74\n        /* \"#utility.yul\":21073:21076   */\n      0x6d\n        /* \"#utility.yul\":21062:21077   */\n      dup3\n      add\n        /* \"#utility.yul\":21055:21114   */\n      mstore\n        /* \"#utility.yul\":21147:21181   */\n      0x2d7765696768743a20626f6c643b20666f6e742d73697a653a20312e35656d3b\n        /* \"#utility.yul\":21141:21144   */\n      0x8d\n        /* \"#utility.yul\":21130:21145   */\n      dup3\n      add\n        /* \"#utility.yul\":21123:21182   */\n      mstore\n      shl(0xf0, 0x207d)\n        /* \"#utility.yul\":21209:21212   */\n      0xad\n        /* \"#utility.yul\":21198:21213   */\n      dup3\n      add\n        /* \"#utility.yul\":21191:21220   */\n      mstore\n      shl(0xc1, 0x1e17b9ba3cb6329f)\n        /* \"#utility.yul\":21247:21250   */\n      0xaf\n        /* \"#utility.yul\":21236:21251   */\n      dup3\n      add\n        /* \"#utility.yul\":21229:21264   */\n      mstore\n        /* \"#utility.yul\":21291:21294   */\n      0xb7\n        /* \"#utility.yul\":21280:21295   */\n      add\n      swap2\n        /* \"#utility.yul\":20091:21301   */\n      swap1\n      pop\n      jump\t// out\n        /* \"#utility.yul\":21845:22228   */\n    tag_9:\n        /* \"#utility.yul\":21994:21996   */\n      0x20\n        /* \"#utility.yul\":21983:21992   */\n      dup2\n        /* \"#utility.yul\":21976:21997   */\n      mstore\n        /* \"#utility.yul\":21957:21961   */\n      0x00\n        /* \"#utility.yul\":22026:22032   */\n      dup3\n        /* \"#utility.yul\":22020:22033   */\n      mload\n        /* \"#utility.yul\":22069:22075   */\n      dup1\n        /* \"#utility.yul\":22064:22066   */\n      0x20\n        /* \"#utility.yul\":22053:22062   */\n      dup5\n        /* \"#utility.yul\":22049:22067   */\n      add\n        /* \"#utility.yul\":22042:22076   */\n      mstore\n        /* \"#utility.yul\":22085:22151   */\n      tag_114\n        /* \"#utility.yul\":22144:22150   */\n      dup2\n        /* \"#utility.yul\":22139:22141   */\n      0x40\n        /* \"#utility.yul\":22128:22137   */\n      dup6\n        /* \"#utility.yul\":22124:22142   */\n      add\n        /* \"#utility.yul\":22119:22121   */\n      0x20\n        /* \"#utility.yul\":22111:22117   */\n      dup8\n        /* \"#utility.yul\":22107:22122   */\n      add\n        /* \"#utility.yul\":22085:22151   */\n      tag_87\n      jump\t// in\n    tag_114:\n        /* \"#utility.yul\":22212:22214   */\n      0x1f\n        /* \"#utility.yul\":22191:22206   */\n      add\n      not(0x1f)\n        /* \"#utility.yul\":22187:22216   */\n      and\n        /* \"#utility.yul\":22172:22217   */\n      swap2\n      swap1\n      swap2\n      add\n        /* \"#utility.yul\":22219:22221   */\n      0x40\n        /* \"#utility.yul\":22168:22222   */\n      add\n      swap3\n        /* \"#utility.yul\":21845:22228   */\n      swap2\n      pop\n      pop\n      jump\t// out\n        /* \"#utility.yul\":22233:22361   */\n    tag_65:\n        /* \"#utility.yul\":22273:22276   */\n      0x00\n        /* \"#utility.yul\":22304:22305   */\n      dup3\n        /* \"#utility.yul\":22300:22306   */\n      not\n        /* \"#utility.yul\":22297:22298   */\n      dup3\n        /* \"#utility.yul\":22294:22307   */\n      gt\n        /* \"#utility.yul\":22291:22330   */\n      iszero\n      tag_117\n      jumpi\n        /* \"#utility.yul\":22310:22328   */\n      tag_117\n      tag_118\n      jump\t// in\n    tag_117:\n      pop\n        /* \"#utility.yul\":22346:22355   */\n      add\n      swap1\n        /* \"#utility.yul\":22233:22361   */\n      jump\t// out\n        /* \"#utility.yul\":22366:22486   */\n    tag_53:\n        /* \"#utility.yul\":22406:22407   */\n      0x00\n        /* \"#utility.yul\":22432:22433   */\n      dup3\n        /* \"#utility.yul\":22422:22457   */\n      tag_121\n      jumpi\n        /* \"#utility.yul\":22437:22455   */\n      tag_121\n      tag_122\n      jump\t// in\n    tag_121:\n      pop\n        /* \"#utility.yul\":22471:22480   */\n      div\n      swap1\n        /* \"#utility.yul\":22366:22486   */\n      jump\t// out\n        /* \"#utility.yul\":22491:22616   */\n    tag_61:\n        /* \"#utility.yul\":22531:22535   */\n      0x00\n        /* \"#utility.yul\":22559:22560   */\n      dup3\n        /* \"#utility.yul\":22556:22557   */\n      dup3\n        /* \"#utility.yul\":22553:22561   */\n      lt\n        /* \"#utility.yul\":22550:22584   */\n      iszero\n      tag_125\n      jumpi\n        /* \"#utility.yul\":22564:22582   */\n      tag_125\n      tag_118\n      jump\t// in\n    tag_125:\n      pop\n        /* \"#utility.yul\":22601:22610   */\n      sub\n      swap1\n        /* \"#utility.yul\":22491:22616   */\n      jump\t// out\n        /* \"#utility.yul\":22621:22879   */\n    tag_87:\n        /* \"#utility.yul\":22693:22694   */\n      0x00\n        /* \"#utility.yul\":22703:22816   */\n    tag_127:\n        /* \"#utility.yul\":22717:22723   */\n      dup4\n        /* \"#utility.yul\":22714:22715   */\n      dup2\n        /* \"#utility.yul\":22711:22724   */\n      lt\n        /* \"#utility.yul\":22703:22816   */\n      iszero\n      tag_129\n      jumpi\n        /* \"#utility.yul\":22793:22804   */\n      dup2\n      dup2\n      add\n        /* \"#utility.yul\":22787:22805   */\n      mload\n        /* \"#utility.yul\":22774:22785   */\n      dup4\n      dup3\n      add\n        /* \"#utility.yul\":22767:22806   */\n      mstore\n        /* \"#utility.yul\":22739:22741   */\n      0x20\n        /* \"#utility.yul\":22732:22742   */\n      add\n        /* \"#utility.yul\":22703:22816   */\n      jump(tag_127)\n    tag_129:\n        /* \"#utility.yul\":22834:22840   */\n      dup4\n        /* \"#utility.yul\":22831:22832   */\n      dup2\n        /* \"#utility.yul\":22828:22841   */\n      gt\n        /* \"#utility.yul\":22825:22873   */\n      iszero\n      tag_130\n      jumpi\n        /* \"#utility.yul\":22869:22870   */\n      0x00\n        /* \"#utility.yul\":22860:22866   */\n      dup5\n        /* \"#utility.yul\":22855:22858   */\n      dup5\n        /* \"#utility.yul\":22851:22867   */\n      add\n        /* \"#utility.yul\":22844:22871   */\n      mstore\n        /* \"#utility.yul\":22825:22873   */\n    tag_130:\n      pop\n        /* \"#utility.yul\":22621:22879   */\n      pop\n      pop\n      pop\n      jump\t// out\n        /* \"#utility.yul\":22884:23019   */\n    tag_51:\n        /* \"#utility.yul\":22923:22926   */\n      0x00\n      not(0x00)\n        /* \"#utility.yul\":22944:22961   */\n      dup3\n      eq\n        /* \"#utility.yul\":22941:22984   */\n      iszero\n      tag_133\n      jumpi\n        /* \"#utility.yul\":22964:22982   */\n      tag_133\n      tag_118\n      jump\t// in\n    tag_133:\n      pop\n        /* \"#utility.yul\":23011:23012   */\n      0x01\n        /* \"#utility.yul\":23000:23013   */\n      add\n      swap1\n        /* \"#utility.yul\":22884:23019   */\n      jump\t// out\n        /* \"#utility.yul\":23024:23136   */\n    tag_63:\n        /* \"#utility.yul\":23056:23057   */\n      0x00\n        /* \"#utility.yul\":23082:23083   */\n      dup3\n        /* \"#utility.yul\":23072:23107   */\n      tag_136\n      jumpi\n        /* \"#utility.yul\":23087:23105   */\n      tag_136\n      tag_122\n      jump\t// in\n    tag_136:\n      pop\n        /* \"#utility.yul\":23121:23130   */\n      mod\n      swap1\n        /* \"#utility.yul\":23024:23136   */\n      jump\t// out\n        /* \"#utility.yul\":23141:23268   */\n    tag_118:\n        /* \"#utility.yul\":23202:23212   */\n      0x4e487b71\n        /* \"#utility.yul\":23197:23200   */\n      0xe0\n        /* \"#utility.yul\":23193:23213   */\n      shl\n        /* \"#utility.yul\":23190:23191   */\n      0x00\n        /* \"#utility.yul\":23183:23214   */\n      mstore\n        /* \"#utility.yul\":23233:23237   */\n      0x11\n        /* \"#utility.yul\":23230:23231   */\n      0x04\n        /* \"#utility.yul\":23223:23238   */\n      mstore\n        /* \"#utility.yul\":23257:23261   */\n      0x24\n        /* \"#utility.yul\":23254:23255   */\n      0x00\n        /* \"#utility.yul\":23247:23262   */\n      revert\n        /* \"#utility.yul\":23273:23400   */\n    tag_122:\n        /* \"#utility.yul\":23334:23344   */\n      0x4e487b71\n        /* \"#utility.yul\":23329:23332   */\n      0xe0\n        /* \"#utility.yul\":23325:23345   */\n      shl\n        /* \"#utility.yul\":23322:23323   */\n      0x00\n        /* \"#utility.yul\":23315:23346   */\n      mstore\n        /* \"#utility.yul\":23365:23369   */\n      0x12\n        /* \"#utility.yul\":23362:23363   */\n      0x04\n        /* \"#utility.yul\":23355:23370   */\n      mstore\n        /* \"#utility.yul\":23389:23393   */\n      0x24\n        /* \"#utility.yul\":23386:23387   */\n      0x00\n        /* \"#utility.yul\":23379:23394   */\n      revert\n        /* \"#utility.yul\":23405:23532   */\n    tag_68:\n        /* \"#utility.yul\":23466:23476   */\n      0x4e487b71\n        /* \"#utility.yul\":23461:23464   */\n      0xe0\n        /* \"#utility.yul\":23457:23477   */\n      shl\n        /* \"#utility.yul\":23454:23455   */\n      0x00\n        /* \"#utility.yul\":23447:23478   */\n      mstore\n        /* \"#utility.yul\":23497:23501   */\n      0x32\n        /* \"#utility.yul\":23494:23495   */\n      0x04\n        /* \"#utility.yul\":23487:23502   */\n      mstore\n        /* \"#utility.yul\":23521:23525   */\n      0x24\n        /* \"#utility.yul\":23518:23519   */\n      0x00\n        /* \"#utility.yul\":23511:23526   */\n      revert\n        /* \"#utility.yul\":23537:23664   */\n    tag_56:\n        /* \"#utility.yul\":23598:23608   */\n      0x4e487b71\n        /* \"#utility.yul\":23593:23596   */\n      0xe0\n        /* \"#utility.yul\":23589:23609   */\n      shl\n        /* \"#utility.yul\":23586:23587   */\n      0x00\n        /* \"#utility.yul\":23579:23610   */\n      mstore\n        /* \"#utility.yul\":23629:23633   */\n      0x41\n        /* \"#utility.yul\":23626:23627   */\n      0x04\n        /* \"#utility.yul\":23619:23634   */\n      mstore\n        /* \"#utility.yul\":23653:23657   */\n      0x24\n        /* \"#utility.yul\":23650:23651   */\n      0x00\n        /* \"#utility.yul\":23643:23658   */\n      revert\n    stop\n    data_13ee12525b78d1800c98700a3c7bb02c6ed5e8636ea4bf89bace0c534940e1ba 3c7376672077696474683d2233393022206865696768743d22343335222066696c6c3d22677265656e2220786d6c6e733d22687474703a2f2f7777772e77332e6f72672f323030302f737667223e\n\n    auxdata: 0xa264697066735822122090d8d3f9784fee1c75b96681a4978db961d98060c0bce8370e89793893214ac464736f6c63430008070033\n}\n",
				"bytecode": {
					"linkReferences": {},
					"object": "608060405234801561001057600080fd5b5061255f806100206000396000f3fe608060405234801561001057600080fd5b506004361061002b5760003560e01c8063d139e8a414610030575b600080fd5b61004361003e36600461046b565b610059565b60405161005091906123ae565b60405180910390f35b60606040518060800160405280604e81526020016124dc604e9139905080604051602001610087919061229a565b6040516020818303038152906040529050806040516020016100a9919061218a565b60405160208183030381529060405290506100c481846101bd565b905080836040516020016100d99291906121f8565b6040516020818303038152906040529050806100f4876102d8565b60405160200161010592919061062d565b604051602081830303815290604052905080610120866102d8565b604051602001610131929190610508565b60405160208183030381529060405290508061014c856102d8565b60405160200161015d9291906105e1565b60405160208183030381529060405290508082604051602001610181929190610574565b6040516020818303038152906040529050806040516020016101a39190612270565b604051602081830303815290604052905095945050505050565b6060816040516020016101d091906104ec565b6040516020818303038152906040528051906020012060405160200161020b906e09cdec2d04096c2e8e8cae4c4c2c6d608b1b8152600f0190565b60405160208183030381529060405280519060200120141561024a578260405160200161023891906106a6565b60405160208183030381529060405290505b8160405160200161025b91906104ec565b60405160208183030381529060405280519060200120604051602001610293906b105b991e4814195b1b585c9960a21b8152600c0190565b6040516020818303038152906040528051906020012014156102d257826040516020016102c091906106a6565b60405160208183030381529060405290505b92915050565b6060816102fc5750506040805180820190915260018152600360fc1b602082015290565b8160005b8115610326578061031081612454565b915061031f9050600a836123f9565b9150610300565b60008167ffffffffffffffff811115610341576103416124c5565b6040519080825280601f01601f19166020018201604052801561036b576020820181803683370190505b5090505b84156103d65761038060018361240d565b915061038d600a8661246f565b6103989060306123e1565b60f81b8183815181106103ad576103ad6124af565b60200101906001600160f81b031916908160001a9053506103cf600a866123f9565b945061036f565b949350505050565b600082601f8301126103ef57600080fd5b813567ffffffffffffffff8082111561040a5761040a6124c5565b604051601f8301601f19908116603f01168101908282118183101715610432576104326124c5565b8160405283815286602085880101111561044b57600080fd5b836020870160208301376000602085830101528094505050505092915050565b600080600080600060a0868803121561048357600080fd5b853594506020860135935060408601359250606086013567ffffffffffffffff808211156104b057600080fd5b6104bc89838a016103de565b935060808801359150808211156104d257600080fd5b506104df888289016103de565b9150509295509295909350565b600082516104fe818460208701612424565b9190910192915050565b6000835161051a818460208801612424565b7f3c7465787420783d2232302220793d2233343022203e47616d65733a20000000908301908152835161055481601d840160208801612424565b661e17ba32bc3a1f60c91b601d9290910191820152602401949350505050565b60008351610586818460208801612424565b80830190507f3c7465787420783d2232302220793d2233383022203e506f736974696f6e3a20815283516105c1816020840160208801612424565b661e17ba32bc3a1f60c91b60209290910191820152602701949350505050565b600083516105f3818460208801612424565b7f3c7465787420783d2232302220793d2233363022203e476f616c733a20000000908301908152835161055481601d840160208801612424565b6000835161063f818460208801612424565b80830190507f3c7465787420783d2232302220793d2233323022203e47616d65706c61793a208152835161067a816020840160208801612424565b6236b4b760e91b60209290910191820152661e17ba32bc3a1f60c91b6023820152602a01949350505050565b600082516106b8818460208701612424565b7f3c70617468207374796c653d2266696c6c3a233066336238362220643d226d209201918252507f312e34303637382c3232302e30393332322063202d31312e3830313235332c2d60208201527f3538382e3934383937203738342e37333834362c3231362e3436303937202d3160408201527f30652d362c3231372e3439393939207a206d203230312e313539372c33302e3960608201527f30323939206320362e333238322c2d332e383434313820392e34313936342c2d60808201527f372e343530383720382e34383136342c2d392e3839353237202d302e3933363860a08201527f362c2d322e3434313432202d372e313430372c2d312e3738393233202d31332e60c08201527f34393536362c312e3431383734206c202d352e37393732392c322e393236343660e08201527f202d322e35353039322c2d322e31373634362063202d332e33313136372c2d326101008201527f2e3832353533202d332e39393437382c2d352e3034303332202d322e323630356101208201527f392c2d372e333239323620302e37363937332c2d312e303135393620312e34316101408201527f3338322c2d322e3835393720312e34333133322c2d342e3039373220302e30316101608201527f37352c2d312e3233373520302e343831382c2d322e323520312e303331382c2d6101808201527f322e323520302e35352c3020312c2d302e383637383620312c2d312e393238356101a08201527f3720302c2d322e363531303420322e36353330342c2d352e303731343320352e6101c08201527f35353838382c2d352e303731343320322e36363537322c3020372e34343131326101e08201527f2c2d362e333732313720372e34343131322c2d392e393239323420302c2d322e6102008201527f3139323833202d332e36353438382c2d352e31373435202d31322e32352c2d396102208201527f2e3939333632202d332e313632352c2d312e3737333136202d352e37352c2d336102408201527f2e3538323932202d352e37352c2d342e3032313720302c2d302e3433383738206102608201527f322e32363230332c2d312e303937383520352e30323637342c2d312e343634366102808201527f20362e37353030382c2d302e38393534332031302e38393232322c2d342e35366102a08201527f3536372031312e36363631372c2d31302e333337303620302e35353538352c2d6102c08201527f342e313435303820302e34383034352c2d342e32383334202d332e313635342c6102e08201527f2d352e3830363733202d332e35373134322c2d312e3439323234202d332e36366103008201527f3033372c2d312e3634323736202d322e303333322c2d332e343430373620322e6103208201527f32373439342c2d322e353133373920312e31333734362c2d342e3030363239206103408201527f2d332e30353333332c2d342e3030363239202d312e38393235342c30202d332e6103608201527f34343039382c2d302e3339353431202d332e34343039382c2d302e38373836386103808201527f20302c2d312e363339343520362e34373539322c2d332e35383335362031322c6103a08201527f2d332e363032343820352e33373637312c2d302e3031383420352e35303733336103c08201527f2c302e3034383420352e38323639352c322e393831313620302e31373938322c6103e08201527f312e363520302e37323735372c332e343132373520312e32313732312c332e396104008201527f3137323220312e34363534372c312e353039383220322e33393034332c2d322e6104208201527f343931363920312e30363631322c2d342e3631323233202d312e34363132312c6104408201527f2d322e3333393738202d302e36323035372c2d352e343631353220312e3832326104608201527f38352c2d362e3736393220312e36333139332c2d302e383733333920312e38356104808201527f3937342c2d302e323737323520322e34373037352c362e343635343820302e376104a08201527f343734322c382e3234383034202d302e37333136382c31322e3638363139202d6104c08201527f352e38303635362c31372e3432333034202d312e39323133352c312e373933336104e08201527f38202d322e35393733322c332e3431393938202d322e35393733322c362e32356105008201527f20302c362e303030313820332e33343838322c352e32353331382031322e32306105208201527f3339362c2d322e373232323520332e393938362c2d332e363031333620372e366105408201527f333538372c2d372e323031333620382e303832382c2d3820322e30393839382c6105608201527f2d332e373530363620352e36343732342c312e303239383120342e31383436396105808201527f2c352e3633373931202d302e38373039352c322e373434313120322e313139346105a08201527f332c332e353930323520342e36333638352c312e333132303220312e393131356105c08201527f352c2d312e373239393320322e30313735362c2d322e383334323220312e37366105e08201527f3336342c2d31382e3337313238202d302e32343035352c2d31342e37313930316106008201527f202d302e3032372c2d31372e333136373820312e39343831382c2d32332e37306106208201527f33313120322e34393231332c2d382e303537353920332e39353532362c2d31386106408201527f2e393638353220342e35353533312c2d33332e393730303220302e33343737326106608201527f2c2d382e363932393620302e31333634352c2d31302e3535303739202d312e346106808201527f373832382c2d3133202d312e30333631382c2d312e3537313637202d312e38386106a08201527f3639342c2d322e3435303334202d312e38393035362c2d312e3935323539202d6106c08201527f302e3030342c302e3439373734202d302e37393430392c302e3232303638202d6106e08201527f312e37353635392c2d302e3631353639202d302e393632352c2d302e383336336107008201527f38202d322e39363935372c2d312e3831303139202d342e34363031352c2d322e6107208201527f3136343034202d312e34393035382c2d302e3335333835202d342e313533342c6107408201527f2d322e3433393239202d352e39313733362c2d342e3633343331202d312e37366107608201527f3339372c2d322e3139353032202d332e35383139312c2d332e3939303935202d6107808201527f342e30333938352c2d332e3939303935202d302e34353739352c30202d302e386107a08201527f3737352c332e37313235202d302e39333233322c382e3235202d302e303534386107c08201527f2c342e35333735202d302e34323639362c392e333735202d302e38323639362c6107e08201527f31302e3735202d302e35343731352c312e38383038202d302e31323933382c336108008201527f2e323235373520312e36383637332c352e343330313820312e363735392c322e6108208201527f303334323520322e32353631322c332e373135393420312e38393736312c352e6108408201527f35202d312e32343532392c362e3139363936202d312e32303237312c362e34326108608201527f303320312e333432332c372e303431353520322e38353135362c302e363936306108808201527f3820332e37333330372c332e373920322e30303136312c372e3032353236202d6108a08201527f302e36313831382c312e3135353039202d312e35303334322c362e38343130316108c08201527f202d312e393637322c31322e3633353339202d302e37313135312c382e3838396108e08201527f3431202d312e31393738342c31302e3931323638202d332e31313331342c31326109008201527f2e3935313432202d312e32343834342c312e3332383931202d322e39373839366109208201527f2c322e3430313839202d332e38343535382c322e33383434202d332e393438316109408201527f2c2d302e30373937202d372e32323030352c2d352e39363832202d332e3331366109608201527f32342c2d352e3936383220322e34313838392c3020342e303238372c2d322e396109808201527f32323320342e37393539352c2d382e373036313320302e35303638392c2d332e6109a08201527f383231303620302e32393937382c2d352e3136393137202d302e39353339382c6109c08201527f2d362e32303937202d302e38383037382c2d302e3733303938202d312e3630316109e08201527f34322c2d312e3837363733202d312e36303134322c2d322e3534363120302c2d610a008201527f302e3636393337202d312e3132352c2d312e3732393632202d322e352c2d322e610a208201527f3335363132202d312e3337352c2d302e3632363439202d322e352c2d312e3638610a408201527f323232202d322e352c2d322e333436303620302c2d312e3639303937202d342e610a608201527f30363534332c2d352e3833353839202d352e37323339372c2d352e3833353839610a808201527f202d302e37353634342c30202d322e37343635372c302e3730393039202d342e610aa08201527f34323235312c312e3537353735202d322e34343139362c312e3236323738202d610ac08201527f322e39313432342c322e3030373538202d322e33373739322c332e373520302e610ae08201527f33363830392c312e313935383420312e36353132342c352e373734323520322e610b008201527f38353134352c31302e313734323520312e32303032312c342e3420322e393637610b208201527f36322c392e313132363320332e39323735382c31302e343732353120322e3339610b408201527f3738382c332e333936383520322e31383637372c362e3236343139202d302e36610b608201527f353739382c382e3933363639202d332e36333636372c332e3431363438202d39610b808201527f2e32313739352c342e3335393232202d31342e33343636352c322e3432333331610ba08201527f202d322e333337352c2d302e3838323332202d342e32352c2d322e3134353037610bc08201527f202d342e32352c2d322e3830363120302c2d312e36363135372031302e343935610be08201527f39392c2d362e36353730352031322e34323837372c2d352e393135333720322e610c008201527f30383333342c302e373939343520322e30373936312c2d312e3934343233202d610c208201527f302e3030352c2d332e3637343239202d312e32393939342c2d312e3037383836610c408201527f202d312e37323034382c2d312e3037343731202d322e33393933322c302e3032610c608201527f3337202d302e36333830312c312e3033323331202d312e34303739372c302e37610c808201527f34363937202d332e34323337392c2d312e3236383835202d322e33383332312c610ca08201527f2d322e3338333234202d322e36303036362c2d332e3239343835202d322e3630610cc08201527f3036362c2d31302e393032373520302c2d342e353636313320302e3432343531610ce08201527f2c2d392e373832323220302e39343333352c2d31312e353931333220312e3430610d008201527f3130322c2d342e383835303820362e35373938322c2d392e3130313032203134610d208201527f2e34353035392c2d31312e373633383920392e38333030352c2d332e33323537610d408201527f352031302e32393931332c2d332e393635333220372e38303234322c2d31302e610d608201527f3633383337202d312e33343236312c2d332e3538383433202d322e3132303431610d808201527f2c2d382e3432343935202d322e33303833332c2d31342e3335333635202d302e610da08201527f31353538392c2d342e3931373839202d302e37333834372c2d392e353531202d610dc08201527f312e32393436332c2d31302e32393538202d322e31303238322c2d322e383136610de08201527f3033202d352e38313238362c2d332e3235353135202d31372e30363937362c2d610e008201527f322e3032303337202d382e35343733342c302e3933373537202d31322e313735610e208201527f34342c302e3934373835202d31352e373632322c302e30343437202d332e3533610e408201527f3630382c2d302e3839303339202d362e35313734352c2d302e3839363832202d610e608201527f31322e33363739352c2d302e30323637202d392e32343735352c312e33373534610e808201527f202d31332e32303734342c342e3336343034202d31372e38393334392c31332e610ea08201527f3530343639202d322e36313435392c352e3130303034202d332e30343434392c610ec08201527f372e3131353139202d332e33343633332c31352e3638353635206c202d302e33610ee08201527f343633322c392e3833333832202d322e33353237392c2d322e32313033332063610f008201527f202d332e35373930322c2d332e3336323331202d352e30383031372c2d322e30610f208201527f32323733202d352e3732372c352e3131303539202d302e343033372c342e3435610f408201527f323131202d302e303135352c382e3339363420312e33353331362c31332e3734610f608201527f37363920312e303535362c342e313237333920312e39313932382c382e393037610f808201527f323220312e39313932382c31302e363231383720302c342e303939393620322e610fa08201527f33383034312c372e333535323720352e36363530352c372e373437313720322e610fc08201527f34303330352c302e323836373220322e383537392c312e303837363620352e30610fe08201527f303631322c382e383135333720312e39313830362c362e383939373220322e346110008201527f363131312c31312e3739343720322e38383434392c323620302e37333938372c6110208201527f32342e383234343720312e35323430342c32372e313039352031342e363630376110408201527f372c34322e373230323920352e36353539362c362e37323131362031322e33306110608201527f3835372c31332e36373239382031342e37383335372c31352e3434383520322e6110808201527f3437352c312e373735353220352e39373831362c342e343838383920372e37386110a08201527f34382c362e303239373120312e38303636332c312e353430383320332e3534376110c08201527f37372c322e3830313520332e38363931392c322e3830313520302e33323134316110e08201527f2c3020332e32343839382c2d312e363138363620362e35303537312c2d332e356111008201527f39373031207a204d203136352e33333532342c3132392e30303730322063202d6111208201527f302e38393834332c2d312e3038323535202d322e32333239332c2d312e3430326111408201527f3931202d342e323032382c2d312e3030383933202d322e3034312c302e3430386111608201527f32202d322e373637382c302e3231333738202d322e34383135332c2d302e36366111808201527f333820302e32323236362c2d302e363832353920322e35303838322c2d312e366111a08201527f3533393920352e30383033352c2d322e313538363720322e35373135342c2d306111c08201527f2e353034363820342e36373535322c2d312e323633303520342e36373535322c6111e08201527f2d312e363835323720302c2d302e3432323232202d312e3537352c2d312e33336112008201527f3732202d332e352c2d322e3033333239202d352e36323537362c2d322e3033346112208201527f33202d342e30363138372c2d332e313130383120332e393332372c2d322e37306112408201527f37313120372e39353337382c302e343031363520392e34393339362c312e30326112608201527f31373920372e37353136352c332e3132313134202d302e36303533362c302e376112808201527f32393431202d302e38383735312c322e3230323739202d302e36323730312c336112a08201527f2e323734313720302e33363331352c312e34393335202d302e34323239352c326112c08201527f2e3335363233202d332e33363934362c332e3639373936202d342e373236342c6112e08201527f322e3135323232202d352e35393239352c322e3137313737202d372e323539346113008201527f322c302e31363338207a206d2038312e32373238372c31362e363533372063206113208201527f302e34303134322c2d322e333531343320312e30303036372c2d352e313238356113408201527f3720312e33333136352c2d362e313731343220302e37393637362c2d322e35316113608201527f303336202d332e303039352c2d322e3634383032202d342e30333933312c2d306113808201527f2e3134363038202d302e38393635342c322e3137383136202d312e34343436396113a08201527f2c392e3436393931202d302e373933332c31302e353532373920312e313033376113c08201527f352c312e383334383720322e38313839332c2d302e323430303620332e3530306113e08201527f39362c2d342e3233353239207a206d202d32302e393336392c2d31332e3636356114008201527f3237206320302e33323837372c2d302e333238373720302e33353536332c2d316114208201527f2e323238373720302e303539372c2d32202d302e37313035362c2d312e3835316114408201527f3638202d352e33323431312c2d312e3833393138202d352e33323431312c302e6114608201527f3031343420302c312e393438323620332e38343937342c332e343030323520356114808201527f2e32363434332c312e3938353536207a206d2032332e363937342c2d392e35316114a08201527f3738392063202d312e36393738382c2d352e3134343632202d332e37323839326114c08201527f2c2d352e3131383733202d322e39393638362c302e3033383220302e323938326114e08201527f332c322e313030383120332e34373433362c362e303539323720332e393036396115008201527f322c342e383639323520302e32303435342c2d302e3536323731202d302e32306115208201527f3439392c2d322e3737313036202d302e39313030362c2d342e3930373434207a6115408201527f206d20322e30333831372c2d372e3338343334206320302c2d302e383235202d6115608201527f302e3637352c2d312e35202d312e352c2d312e35202d302e3832352c30202d316115808201527f2e352c302e363735202d312e352c312e3520302c302e38323520302e3637352c6115a08201527f312e3520312e352c312e3520302e3832352c3020312e352c2d302e36373520316115c08201527f2e352c2d312e35207a222066696c6c3d2223306633623836222f3e00000000006115e08201526115fb01919050565b6000825161219c818460208701612424565b7f3c726563742077696474683d223130302522206865696768743d22313030252292019182525066103334b6361e9160c91b6020820152662365343032323760c81b6027820152631110179f60e11b602e820152603201919050565b6000835161220a818460208801612424565b80830190507f3c7465787420783d2238302220793d2234302220636c6173733d227469746c65815261111f60f11b60208201528351612250816022840160208801612424565b661e17ba32bc3a1f60c91b60229290910191820152602901949350505050565b60008251612282818460208701612424565b651e17b9bb339f60d11b920191825250600601919050565b600082516122ac818460208701612424565b661e39ba3cb6329f60c91b9201918252507f74657874207b20666f6e742d66616d696c793a20417269616c2c2048656c766560078201527f746963612c2073616e732d73657269663b20666f6e742d7765696768743a202060278201527f626f6c643b2066696c6c3a20236666653530303b20666f6e742d73697a653a2060478201526531656d3b207d60d01b60678201527f2e7469746c65207b20746578742d616e63686f723a206c6566743b20666f6e74606d8201527f2d7765696768743a20626f6c643b20666f6e742d73697a653a20312e35656d3b608d82015261207d60f01b60ad820152671e17b9ba3cb6329f60c11b60af82015260b701919050565b60208152600082518060208401526123cd816040850160208701612424565b601f01601f19169190910160400192915050565b600082198211156123f4576123f4612483565b500190565b60008261240857612408612499565b500490565b60008282101561241f5761241f612483565b500390565b60005b8381101561243f578181015183820152602001612427565b8381111561244e576000848401525b50505050565b600060001982141561246857612468612483565b5060010190565b60008261247e5761247e612499565b500690565b634e487b7160e01b600052601160045260246000fd5b634e487b7160e01b600052601260045260246000fd5b634e487b7160e01b600052603260045260246000fd5b634e487b7160e01b600052604160045260246000fdfe3c7376672077696474683d2233393022206865696768743d22343335222066696c6c3d22677265656e2220786d6c6e733d22687474703a2f2f7777772e77332e6f72672f323030302f737667223ea264697066735822122090d8d3f9784fee1c75b96681a4978db961d98060c0bce8370e89793893214ac464736f6c63430008070033",
					"opcodes": "PUSH1 0x80 PUSH1 0x40 MSTORE CALLVALUE DUP1 ISZERO PUSH2 0x10 JUMPI PUSH1 0x0 DUP1 REVERT JUMPDEST POP PUSH2 0x255F DUP1 PUSH2 0x20 PUSH1 0x0 CODECOPY PUSH1 0x0 RETURN INVALID PUSH1 0x80 PUSH1 0x40 MSTORE CALLVALUE DUP1 ISZERO PUSH2 0x10 JUMPI PUSH1 0x0 DUP1 REVERT JUMPDEST POP PUSH1 0x4 CALLDATASIZE LT PUSH2 0x2B JUMPI PUSH1 0x0 CALLDATALOAD PUSH1 0xE0 SHR DUP1 PUSH4 0xD139E8A4 EQ PUSH2 0x30 JUMPI JUMPDEST PUSH1 0x0 DUP1 REVERT JUMPDEST PUSH2 0x43 PUSH2 0x3E CALLDATASIZE PUSH1 0x4 PUSH2 0x46B JUMP JUMPDEST PUSH2 0x59 JUMP JUMPDEST PUSH1 0x40 MLOAD PUSH2 0x50 SWAP2 SWAP1 PUSH2 0x23AE JUMP JUMPDEST PUSH1 0x40 MLOAD DUP1 SWAP2 SUB SWAP1 RETURN JUMPDEST PUSH1 0x60 PUSH1 0x40 MLOAD DUP1 PUSH1 0x80 ADD PUSH1 0x40 MSTORE DUP1 PUSH1 0x4E DUP2 MSTORE PUSH1 0x20 ADD PUSH2 0x24DC PUSH1 0x4E SWAP2 CODECOPY SWAP1 POP DUP1 PUSH1 0x40 MLOAD PUSH1 0x20 ADD PUSH2 0x87 SWAP2 SWAP1 PUSH2 0x229A JUMP JUMPDEST PUSH1 0x40 MLOAD PUSH1 0x20 DUP2 DUP4 SUB SUB DUP2 MSTORE SWAP1 PUSH1 0x40 MSTORE SWAP1 POP DUP1 PUSH1 0x40 MLOAD PUSH1 0x20 ADD PUSH2 0xA9 SWAP2 SWAP1 PUSH2 0x218A JUMP JUMPDEST PUSH1 0x40 MLOAD PUSH1 0x20 DUP2 DUP4 SUB SUB DUP2 MSTORE SWAP1 PUSH1 0x40 MSTORE SWAP1 POP PUSH2 0xC4 DUP2 DUP5 PUSH2 0x1BD JUMP JUMPDEST SWAP1 POP DUP1 DUP4 PUSH1 0x40 MLOAD PUSH1 0x20 ADD PUSH2 0xD9 SWAP3 SWAP2 SWAP1 PUSH2 0x21F8 JUMP JUMPDEST PUSH1 0x40 MLOAD PUSH1 0x20 DUP2 DUP4 SUB SUB DUP2 MSTORE SWAP1 PUSH1 0x40 MSTORE SWAP1 POP DUP1 PUSH2 0xF4 DUP8 PUSH2 0x2D8 JUMP JUMPDEST PUSH1 0x40 MLOAD PUSH1 0x20 ADD PUSH2 0x105 SWAP3 SWAP2 SWAP1 PUSH2 0x62D JUMP JUMPDEST PUSH1 0x40 MLOAD PUSH1 0x20 DUP2 DUP4 SUB SUB DUP2 MSTORE SWAP1 PUSH1 0x40 MSTORE SWAP1 POP DUP1 PUSH2 0x120 DUP7 PUSH2 0x2D8 JUMP JUMPDEST PUSH1 0x40 MLOAD PUSH1 0x20 ADD PUSH2 0x131 SWAP3 SWAP2 SWAP1 PUSH2 0x508 JUMP JUMPDEST PUSH1 0x40 MLOAD PUSH1 0x20 DUP2 DUP4 SUB SUB DUP2 MSTORE SWAP1 PUSH1 0x40 MSTORE SWAP1 POP DUP1 PUSH2 0x14C DUP6 PUSH2 0x2D8 JUMP JUMPDEST PUSH1 0x40 MLOAD PUSH1 0x20 ADD PUSH2 0x15D SWAP3 SWAP2 SWAP1 PUSH2 0x5E1 JUMP JUMPDEST PUSH1 0x40 MLOAD PUSH1 0x20 DUP2 DUP4 SUB SUB DUP2 MSTORE SWAP1 PUSH1 0x40 MSTORE SWAP1 POP DUP1 DUP3 PUSH1 0x40 MLOAD PUSH1 0x20 ADD PUSH2 0x181 SWAP3 SWAP2 SWAP1 PUSH2 0x574 JUMP JUMPDEST PUSH1 0x40 MLOAD PUSH1 0x20 DUP2 DUP4 SUB SUB DUP2 MSTORE SWAP1 PUSH1 0x40 MSTORE SWAP1 POP DUP1 PUSH1 0x40 MLOAD PUSH1 0x20 ADD PUSH2 0x1A3 SWAP2 SWAP1 PUSH2 0x2270 JUMP JUMPDEST PUSH1 0x40 MLOAD PUSH1 0x20 DUP2 DUP4 SUB SUB DUP2 MSTORE SWAP1 PUSH1 0x40 MSTORE SWAP1 POP SWAP6 SWAP5 POP POP POP POP POP JUMP JUMPDEST PUSH1 0x60 DUP2 PUSH1 0x40 MLOAD PUSH1 0x20 ADD PUSH2 0x1D0 SWAP2 SWAP1 PUSH2 0x4EC JUMP JUMPDEST PUSH1 0x40 MLOAD PUSH1 0x20 DUP2 DUP4 SUB SUB DUP2 MSTORE SWAP1 PUSH1 0x40 MSTORE DUP1 MLOAD SWAP1 PUSH1 0x20 ADD KECCAK256 PUSH1 0x40 MLOAD PUSH1 0x20 ADD PUSH2 0x20B SWAP1 PUSH15 0x9CDEC2D04096C2E8E8CAE4C4C2C6D PUSH1 0x8B SHL DUP2 MSTORE PUSH1 0xF ADD SWAP1 JUMP JUMPDEST PUSH1 0x40 MLOAD PUSH1 0x20 DUP2 DUP4 SUB SUB DUP2 MSTORE SWAP1 PUSH1 0x40 MSTORE DUP1 MLOAD SWAP1 PUSH1 0x20 ADD KECCAK256 EQ ISZERO PUSH2 0x24A JUMPI DUP3 PUSH1 0x40 MLOAD PUSH1 0x20 ADD PUSH2 0x238 SWAP2 SWAP1 PUSH2 0x6A6 JUMP JUMPDEST PUSH1 0x40 MLOAD PUSH1 0x20 DUP2 DUP4 SUB SUB DUP2 MSTORE SWAP1 PUSH1 0x40 MSTORE SWAP1 POP JUMPDEST DUP2 PUSH1 0x40 MLOAD PUSH1 0x20 ADD PUSH2 0x25B SWAP2 SWAP1 PUSH2 0x4EC JUMP JUMPDEST PUSH1 0x40 MLOAD PUSH1 0x20 DUP2 DUP4 SUB SUB DUP2 MSTORE SWAP1 PUSH1 0x40 MSTORE DUP1 MLOAD SWAP1 PUSH1 0x20 ADD KECCAK256 PUSH1 0x40 MLOAD PUSH1 0x20 ADD PUSH2 0x293 SWAP1 PUSH12 0x105B991E4814195B1B585C99 PUSH1 0xA2 SHL DUP2 MSTORE PUSH1 0xC ADD SWAP1 JUMP JUMPDEST PUSH1 0x40 MLOAD PUSH1 0x20 DUP2 DUP4 SUB SUB DUP2 MSTORE SWAP1 PUSH1 0x40 MSTORE DUP1 MLOAD SWAP1 PUSH1 0x20 ADD KECCAK256 EQ ISZERO PUSH2 0x2D2 JUMPI DUP3 PUSH1 0x40 MLOAD PUSH1 0x20 ADD PUSH2 0x2C0 SWAP2 SWAP1 PUSH2 0x6A6 JUMP JUMPDEST PUSH1 0x40 MLOAD PUSH1 0x20 DUP2 DUP4 SUB SUB DUP2 MSTORE SWAP1 PUSH1 0x40 MSTORE SWAP1 POP JUMPDEST SWAP3 SWAP2 POP POP JUMP JUMPDEST PUSH1 0x60 DUP2 PUSH2 0x2FC JUMPI POP POP PUSH1 0x40 DUP1 MLOAD DUP1 DUP3 ADD SWAP1 SWAP2 MSTORE PUSH1 0x1 DUP2 MSTORE PUSH1 0x3 PUSH1 0xFC SHL PUSH1 0x20 DUP3 ADD MSTORE SWAP1 JUMP JUMPDEST DUP2 PUSH1 0x0 JUMPDEST DUP2 ISZERO PUSH2 0x326 JUMPI DUP1 PUSH2 0x310 DUP2 PUSH2 0x2454 JUMP JUMPDEST SWAP2 POP PUSH2 0x31F SWAP1 POP PUSH1 0xA DUP4 PUSH2 0x23F9 JUMP JUMPDEST SWAP2 POP PUSH2 0x300 JUMP JUMPDEST PUSH1 0x0 DUP2 PUSH8 0xFFFFFFFFFFFFFFFF DUP2 GT ISZERO PUSH2 0x341 JUMPI PUSH2 0x341 PUSH2 0x24C5 JUMP JUMPDEST PUSH1 0x40 MLOAD SWAP1 DUP1 DUP3 MSTORE DUP1 PUSH1 0x1F ADD PUSH1 0x1F NOT AND PUSH1 0x20 ADD DUP3 ADD PUSH1 0x40 MSTORE DUP1 ISZERO PUSH2 0x36B JUMPI PUSH1 0x20 DUP3 ADD DUP2 DUP1 CALLDATASIZE DUP4 CALLDATACOPY ADD SWAP1 POP JUMPDEST POP SWAP1 POP JUMPDEST DUP5 ISZERO PUSH2 0x3D6 JUMPI PUSH2 0x380 PUSH1 0x1 DUP4 PUSH2 0x240D JUMP JUMPDEST SWAP2 POP PUSH2 0x38D PUSH1 0xA DUP7 PUSH2 0x246F JUMP JUMPDEST PUSH2 0x398 SWAP1 PUSH1 0x30 PUSH2 0x23E1 JUMP JUMPDEST PUSH1 0xF8 SHL DUP2 DUP4 DUP2 MLOAD DUP2 LT PUSH2 0x3AD JUMPI PUSH2 0x3AD PUSH2 0x24AF JUMP JUMPDEST PUSH1 0x20 ADD ADD SWAP1 PUSH1 0x1 PUSH1 0x1 PUSH1 0xF8 SHL SUB NOT AND SWAP1 DUP2 PUSH1 0x0 BYTE SWAP1 MSTORE8 POP PUSH2 0x3CF PUSH1 0xA DUP7 PUSH2 0x23F9 JUMP JUMPDEST SWAP5 POP PUSH2 0x36F JUMP JUMPDEST SWAP5 SWAP4 POP POP POP POP JUMP JUMPDEST PUSH1 0x0 DUP3 PUSH1 0x1F DUP4 ADD SLT PUSH2 0x3EF JUMPI PUSH1 0x0 DUP1 REVERT JUMPDEST DUP2 CALLDATALOAD PUSH8 0xFFFFFFFFFFFFFFFF DUP1 DUP3 GT ISZERO PUSH2 0x40A JUMPI PUSH2 0x40A PUSH2 0x24C5 JUMP JUMPDEST PUSH1 0x40 MLOAD PUSH1 0x1F DUP4 ADD PUSH1 0x1F NOT SWAP1 DUP2 AND PUSH1 0x3F ADD AND DUP2 ADD SWAP1 DUP3 DUP3 GT DUP2 DUP4 LT OR ISZERO PUSH2 0x432 JUMPI PUSH2 0x432 PUSH2 0x24C5 JUMP JUMPDEST DUP2 PUSH1 0x40 MSTORE DUP4 DUP2 MSTORE DUP7 PUSH1 0x20 DUP6 DUP9 ADD ADD GT ISZERO PUSH2 0x44B JUMPI PUSH1 0x0 DUP1 REVERT JUMPDEST DUP4 PUSH1 0x20 DUP8 ADD PUSH1 0x20 DUP4 ADD CALLDATACOPY PUSH1 0x0 PUSH1 0x20 DUP6 DUP4 ADD ADD MSTORE DUP1 SWAP5 POP POP POP POP POP SWAP3 SWAP2 POP POP JUMP JUMPDEST PUSH1 0x0 DUP1 PUSH1 0x0 DUP1 PUSH1 0x0 PUSH1 0xA0 DUP7 DUP9 SUB SLT ISZERO PUSH2 0x483 JUMPI PUSH1 0x0 DUP1 REVERT JUMPDEST DUP6 CALLDATALOAD SWAP5 POP PUSH1 0x20 DUP7 ADD CALLDATALOAD SWAP4 POP PUSH1 0x40 DUP7 ADD CALLDATALOAD SWAP3 POP PUSH1 0x60 DUP7 ADD CALLDATALOAD PUSH8 0xFFFFFFFFFFFFFFFF DUP1 DUP3 GT ISZERO PUSH2 0x4B0 JUMPI PUSH1 0x0 DUP1 REVERT JUMPDEST PUSH2 0x4BC DUP10 DUP4 DUP11 ADD PUSH2 0x3DE JUMP JUMPDEST SWAP4 POP PUSH1 0x80 DUP9 ADD CALLDATALOAD SWAP2 POP DUP1 DUP3 GT ISZERO PUSH2 0x4D2 JUMPI PUSH1 0x0 DUP1 REVERT JUMPDEST POP PUSH2 0x4DF DUP9 DUP3 DUP10 ADD PUSH2 0x3DE JUMP JUMPDEST SWAP2 POP POP SWAP3 SWAP6 POP SWAP3 SWAP6 SWAP1 SWAP4 POP JUMP JUMPDEST PUSH1 0x0 DUP3 MLOAD PUSH2 0x4FE DUP2 DUP5 PUSH1 0x20 DUP8 ADD PUSH2 0x2424 JUMP JUMPDEST SWAP2 SWAP1 SWAP2 ADD SWAP3 SWAP2 POP POP JUMP JUMPDEST PUSH1 0x0 DUP4 MLOAD PUSH2 0x51A DUP2 DUP5 PUSH1 0x20 DUP9 ADD PUSH2 0x2424 JUMP JUMPDEST PUSH32 0x3C7465787420783D2232302220793D2233343022203E47616D65733A20000000 SWAP1 DUP4 ADD SWAP1 DUP2 MSTORE DUP4 MLOAD PUSH2 0x554 DUP2 PUSH1 0x1D DUP5 ADD PUSH1 0x20 DUP9 ADD PUSH2 0x2424 JUMP JUMPDEST PUSH7 0x1E17BA32BC3A1F PUSH1 0xC9 SHL PUSH1 0x1D SWAP3 SWAP1 SWAP2 ADD SWAP2 DUP3 ADD MSTORE PUSH1 0x24 ADD SWAP5 SWAP4 POP POP POP POP JUMP JUMPDEST PUSH1 0x0 DUP4 MLOAD PUSH2 0x586 DUP2 DUP5 PUSH1 0x20 DUP9 ADD PUSH2 0x2424 JUMP JUMPDEST DUP1 DUP4 ADD SWAP1 POP PUSH32 0x3C7465787420783D2232302220793D2233383022203E506F736974696F6E3A20 DUP2 MSTORE DUP4 MLOAD PUSH2 0x5C1 DUP2 PUSH1 0x20 DUP5 ADD PUSH1 0x20 DUP9 ADD PUSH2 0x2424 JUMP JUMPDEST PUSH7 0x1E17BA32BC3A1F PUSH1 0xC9 SHL PUSH1 0x20 SWAP3 SWAP1 SWAP2 ADD SWAP2 DUP3 ADD MSTORE PUSH1 0x27 ADD SWAP5 SWAP4 POP POP POP POP JUMP JUMPDEST PUSH1 0x0 DUP4 MLOAD PUSH2 0x5F3 DUP2 DUP5 PUSH1 0x20 DUP9 ADD PUSH2 0x2424 JUMP JUMPDEST PUSH32 0x3C7465787420783D2232302220793D2233363022203E476F616C733A20000000 SWAP1 DUP4 ADD SWAP1 DUP2 MSTORE DUP4 MLOAD PUSH2 0x554 DUP2 PUSH1 0x1D DUP5 ADD PUSH1 0x20 DUP9 ADD PUSH2 0x2424 JUMP JUMPDEST PUSH1 0x0 DUP4 MLOAD PUSH2 0x63F DUP2 DUP5 PUSH1 0x20 DUP9 ADD PUSH2 0x2424 JUMP JUMPDEST DUP1 DUP4 ADD SWAP1 POP PUSH32 0x3C7465787420783D2232302220793D2233323022203E47616D65706C61793A20 DUP2 MSTORE DUP4 MLOAD PUSH2 0x67A DUP2 PUSH1 0x20 DUP5 ADD PUSH1 0x20 DUP9 ADD PUSH2 0x2424 JUMP JUMPDEST PUSH3 0x36B4B7 PUSH1 0xE9 SHL PUSH1 0x20 SWAP3 SWAP1 SWAP2 ADD SWAP2 DUP3 ADD MSTORE PUSH7 0x1E17BA32BC3A1F PUSH1 0xC9 SHL PUSH1 0x23 DUP3 ADD MSTORE PUSH1 0x2A ADD SWAP5 SWAP4 POP POP POP POP JUMP JUMPDEST PUSH1 0x0 DUP3 MLOAD PUSH2 0x6B8 DUP2 DUP5 PUSH1 0x20 DUP8 ADD PUSH2 0x2424 JUMP JUMPDEST PUSH32 0x3C70617468207374796C653D2266696C6C3A233066336238362220643D226D20 SWAP3 ADD SWAP2 DUP3 MSTORE POP PUSH32 0x312E34303637382C3232302E30393332322063202D31312E3830313235332C2D PUSH1 0x20 DUP3 ADD MSTORE PUSH32 0x3538382E3934383937203738342E37333834362C3231362E3436303937202D31 PUSH1 0x40 DUP3 ADD MSTORE PUSH32 0x30652D362C3231372E3439393939207A206D203230312E313539372C33302E39 PUSH1 0x60 DUP3 ADD MSTORE PUSH32 0x30323939206320362E333238322C2D332E383434313820392E34313936342C2D PUSH1 0x80 DUP3 ADD MSTORE PUSH32 0x372E343530383720382E34383136342C2D392E3839353237202D302E39333638 PUSH1 0xA0 DUP3 ADD MSTORE PUSH32 0x362C2D322E3434313432202D372E313430372C2D312E3738393233202D31332E PUSH1 0xC0 DUP3 ADD MSTORE PUSH32 0x34393536362C312E3431383734206C202D352E37393732392C322E3932363436 PUSH1 0xE0 DUP3 ADD MSTORE PUSH32 0x202D322E35353039322C2D322E31373634362063202D332E33313136372C2D32 PUSH2 0x100 DUP3 ADD MSTORE PUSH32 0x2E3832353533202D332E39393437382C2D352E3034303332202D322E32363035 PUSH2 0x120 DUP3 ADD MSTORE PUSH32 0x392C2D372E333239323620302E37363937332C2D312E303135393620312E3431 PUSH2 0x140 DUP3 ADD MSTORE PUSH32 0x3338322C2D322E3835393720312E34333133322C2D342E3039373220302E3031 PUSH2 0x160 DUP3 ADD MSTORE PUSH32 0x37352C2D312E3233373520302E343831382C2D322E323520312E303331382C2D PUSH2 0x180 DUP3 ADD MSTORE PUSH32 0x322E323520302E35352C3020312C2D302E383637383620312C2D312E39323835 PUSH2 0x1A0 DUP3 ADD MSTORE PUSH32 0x3720302C2D322E363531303420322E36353330342C2D352E303731343320352E PUSH2 0x1C0 DUP3 ADD MSTORE PUSH32 0x35353838382C2D352E303731343320322E36363537322C3020372E3434313132 PUSH2 0x1E0 DUP3 ADD MSTORE PUSH32 0x2C2D362E333732313720372E34343131322C2D392E393239323420302C2D322E PUSH2 0x200 DUP3 ADD MSTORE PUSH32 0x3139323833202D332E36353438382C2D352E31373435202D31322E32352C2D39 PUSH2 0x220 DUP3 ADD MSTORE PUSH32 0x2E3939333632202D332E313632352C2D312E3737333136202D352E37352C2D33 PUSH2 0x240 DUP3 ADD MSTORE PUSH32 0x2E3538323932202D352E37352C2D342E3032313720302C2D302E343338373820 PUSH2 0x260 DUP3 ADD MSTORE PUSH32 0x322E32363230332C2D312E303937383520352E30323637342C2D312E34363436 PUSH2 0x280 DUP3 ADD MSTORE PUSH32 0x20362E37353030382C2D302E38393534332031302E38393232322C2D342E3536 PUSH2 0x2A0 DUP3 ADD MSTORE PUSH32 0x3536372031312E36363631372C2D31302E333337303620302E35353538352C2D PUSH2 0x2C0 DUP3 ADD MSTORE PUSH32 0x342E313435303820302E34383034352C2D342E32383334202D332E313635342C PUSH2 0x2E0 DUP3 ADD MSTORE PUSH32 0x2D352E3830363733202D332E35373134322C2D312E3439323234202D332E3636 PUSH2 0x300 DUP3 ADD MSTORE PUSH32 0x3033372C2D312E3634323736202D322E303333322C2D332E343430373620322E PUSH2 0x320 DUP3 ADD MSTORE PUSH32 0x32373439342C2D322E353133373920312E31333734362C2D342E303036323920 PUSH2 0x340 DUP3 ADD MSTORE PUSH32 0x2D332E30353333332C2D342E3030363239202D312E38393235342C30202D332E PUSH2 0x360 DUP3 ADD MSTORE PUSH32 0x34343039382C2D302E3339353431202D332E34343039382C2D302E3837383638 PUSH2 0x380 DUP3 ADD MSTORE PUSH32 0x20302C2D312E363339343520362E34373539322C2D332E35383335362031322C PUSH2 0x3A0 DUP3 ADD MSTORE PUSH32 0x2D332E363032343820352E33373637312C2D302E3031383420352E3530373333 PUSH2 0x3C0 DUP3 ADD MSTORE PUSH32 0x2C302E3034383420352E38323639352C322E393831313620302E31373938322C PUSH2 0x3E0 DUP3 ADD MSTORE PUSH32 0x312E363520302E37323735372C332E343132373520312E32313732312C332E39 PUSH2 0x400 DUP3 ADD MSTORE PUSH32 0x3137323220312E34363534372C312E353039383220322E33393034332C2D322E PUSH2 0x420 DUP3 ADD MSTORE PUSH32 0x343931363920312E30363631322C2D342E3631323233202D312E34363132312C PUSH2 0x440 DUP3 ADD MSTORE PUSH32 0x2D322E3333393738202D302E36323035372C2D352E343631353220312E383232 PUSH2 0x460 DUP3 ADD MSTORE PUSH32 0x38352C2D362E3736393220312E36333139332C2D302E383733333920312E3835 PUSH2 0x480 DUP3 ADD MSTORE PUSH32 0x3937342C2D302E323737323520322E34373037352C362E343635343820302E37 PUSH2 0x4A0 DUP3 ADD MSTORE PUSH32 0x343734322C382E3234383034202D302E37333136382C31322E3638363139202D PUSH2 0x4C0 DUP3 ADD MSTORE PUSH32 0x352E38303635362C31372E3432333034202D312E39323133352C312E37393333 PUSH2 0x4E0 DUP3 ADD MSTORE PUSH32 0x38202D322E35393733322C332E3431393938202D322E35393733322C362E3235 PUSH2 0x500 DUP3 ADD MSTORE PUSH32 0x20302C362E303030313820332E33343838322C352E32353331382031322E3230 PUSH2 0x520 DUP3 ADD MSTORE PUSH32 0x3339362C2D322E373232323520332E393938362C2D332E363031333620372E36 PUSH2 0x540 DUP3 ADD MSTORE PUSH32 0x333538372C2D372E323031333620382E303832382C2D3820322E30393839382C PUSH2 0x560 DUP3 ADD MSTORE PUSH32 0x2D332E373530363620352E36343732342C312E303239383120342E3138343639 PUSH2 0x580 DUP3 ADD MSTORE PUSH32 0x2C352E3633373931202D302E38373039352C322E373434313120322E31313934 PUSH2 0x5A0 DUP3 ADD MSTORE PUSH32 0x332C332E353930323520342E36333638352C312E333132303220312E39313135 PUSH2 0x5C0 DUP3 ADD MSTORE PUSH32 0x352C2D312E373239393320322E30313735362C2D322E383334323220312E3736 PUSH2 0x5E0 DUP3 ADD MSTORE PUSH32 0x3336342C2D31382E3337313238202D302E32343035352C2D31342E3731393031 PUSH2 0x600 DUP3 ADD MSTORE PUSH32 0x202D302E3032372C2D31372E333136373820312E39343831382C2D32332E3730 PUSH2 0x620 DUP3 ADD MSTORE PUSH32 0x33313120322E34393231332C2D382E303537353920332E39353532362C2D3138 PUSH2 0x640 DUP3 ADD MSTORE PUSH32 0x2E393638353220342E35353533312C2D33332E393730303220302E3334373732 PUSH2 0x660 DUP3 ADD MSTORE PUSH32 0x2C2D382E363932393620302E31333634352C2D31302E3535303739202D312E34 PUSH2 0x680 DUP3 ADD MSTORE PUSH32 0x373832382C2D3133202D312E30333631382C2D312E3537313637202D312E3838 PUSH2 0x6A0 DUP3 ADD MSTORE PUSH32 0x3639342C2D322E3435303334202D312E38393035362C2D312E3935323539202D PUSH2 0x6C0 DUP3 ADD MSTORE PUSH32 0x302E3030342C302E3439373734202D302E37393430392C302E3232303638202D PUSH2 0x6E0 DUP3 ADD MSTORE PUSH32 0x312E37353635392C2D302E3631353639202D302E393632352C2D302E38333633 PUSH2 0x700 DUP3 ADD MSTORE PUSH32 0x38202D322E39363935372C2D312E3831303139202D342E34363031352C2D322E PUSH2 0x720 DUP3 ADD MSTORE PUSH32 0x3136343034202D312E34393035382C2D302E3335333835202D342E313533342C PUSH2 0x740 DUP3 ADD MSTORE PUSH32 0x2D322E3433393239202D352E39313733362C2D342E3633343331202D312E3736 PUSH2 0x760 DUP3 ADD MSTORE PUSH32 0x3339372C2D322E3139353032202D332E35383139312C2D332E3939303935202D PUSH2 0x780 DUP3 ADD MSTORE PUSH32 0x342E30333938352C2D332E3939303935202D302E34353739352C30202D302E38 PUSH2 0x7A0 DUP3 ADD MSTORE PUSH32 0x3737352C332E37313235202D302E39333233322C382E3235202D302E30353438 PUSH2 0x7C0 DUP3 ADD MSTORE PUSH32 0x2C342E35333735202D302E34323639362C392E333735202D302E38323639362C PUSH2 0x7E0 DUP3 ADD MSTORE PUSH32 0x31302E3735202D302E35343731352C312E38383038202D302E31323933382C33 PUSH2 0x800 DUP3 ADD MSTORE PUSH32 0x2E323235373520312E36383637332C352E343330313820312E363735392C322E PUSH2 0x820 DUP3 ADD MSTORE PUSH32 0x303334323520322E32353631322C332E373135393420312E38393736312C352E PUSH2 0x840 DUP3 ADD MSTORE PUSH32 0x35202D312E32343532392C362E3139363936202D312E32303237312C362E3432 PUSH2 0x860 DUP3 ADD MSTORE PUSH32 0x303320312E333432332C372E303431353520322E38353135362C302E36393630 PUSH2 0x880 DUP3 ADD MSTORE PUSH32 0x3820332E37333330372C332E373920322E30303136312C372E3032353236202D PUSH2 0x8A0 DUP3 ADD MSTORE PUSH32 0x302E36313831382C312E3135353039202D312E35303334322C362E3834313031 PUSH2 0x8C0 DUP3 ADD MSTORE PUSH32 0x202D312E393637322C31322E3633353339202D302E37313135312C382E383839 PUSH2 0x8E0 DUP3 ADD MSTORE PUSH32 0x3431202D312E31393738342C31302E3931323638202D332E31313331342C3132 PUSH2 0x900 DUP3 ADD MSTORE PUSH32 0x2E3935313432202D312E32343834342C312E3332383931202D322E3937383936 PUSH2 0x920 DUP3 ADD MSTORE PUSH32 0x2C322E3430313839202D332E38343535382C322E33383434202D332E39343831 PUSH2 0x940 DUP3 ADD MSTORE PUSH32 0x2C2D302E30373937202D372E32323030352C2D352E39363832202D332E333136 PUSH2 0x960 DUP3 ADD MSTORE PUSH32 0x32342C2D352E3936383220322E34313838392C3020342E303238372C2D322E39 PUSH2 0x980 DUP3 ADD MSTORE PUSH32 0x32323320342E37393539352C2D382E373036313320302E35303638392C2D332E PUSH2 0x9A0 DUP3 ADD MSTORE PUSH32 0x383231303620302E32393937382C2D352E3136393137202D302E39353339382C PUSH2 0x9C0 DUP3 ADD MSTORE PUSH32 0x2D362E32303937202D302E38383037382C2D302E3733303938202D312E363031 PUSH2 0x9E0 DUP3 ADD MSTORE PUSH32 0x34322C2D312E3837363733202D312E36303134322C2D322E3534363120302C2D PUSH2 0xA00 DUP3 ADD MSTORE PUSH32 0x302E3636393337202D312E3132352C2D312E3732393632202D322E352C2D322E PUSH2 0xA20 DUP3 ADD MSTORE PUSH32 0x3335363132202D312E3337352C2D302E3632363439202D322E352C2D312E3638 PUSH2 0xA40 DUP3 ADD MSTORE PUSH32 0x323232202D322E352C2D322E333436303620302C2D312E3639303937202D342E PUSH2 0xA60 DUP3 ADD MSTORE PUSH32 0x30363534332C2D352E3833353839202D352E37323339372C2D352E3833353839 PUSH2 0xA80 DUP3 ADD MSTORE PUSH32 0x202D302E37353634342C30202D322E37343635372C302E3730393039202D342E PUSH2 0xAA0 DUP3 ADD MSTORE PUSH32 0x34323235312C312E3537353735202D322E34343139362C312E3236323738202D PUSH2 0xAC0 DUP3 ADD MSTORE PUSH32 0x322E39313432342C322E3030373538202D322E33373739322C332E373520302E PUSH2 0xAE0 DUP3 ADD MSTORE PUSH32 0x33363830392C312E313935383420312E36353132342C352E373734323520322E PUSH2 0xB00 DUP3 ADD MSTORE PUSH32 0x38353134352C31302E313734323520312E32303032312C342E3420322E393637 PUSH2 0xB20 DUP3 ADD MSTORE PUSH32 0x36322C392E313132363320332E39323735382C31302E343732353120322E3339 PUSH2 0xB40 DUP3 ADD MSTORE PUSH32 0x3738382C332E333936383520322E31383637372C362E3236343139202D302E36 PUSH2 0xB60 DUP3 ADD MSTORE PUSH32 0x353739382C382E3933363639202D332E36333636372C332E3431363438202D39 PUSH2 0xB80 DUP3 ADD MSTORE PUSH32 0x2E32313739352C342E3335393232202D31342E33343636352C322E3432333331 PUSH2 0xBA0 DUP3 ADD MSTORE PUSH32 0x202D322E333337352C2D302E3838323332202D342E32352C2D322E3134353037 PUSH2 0xBC0 DUP3 ADD MSTORE PUSH32 0x202D342E32352C2D322E3830363120302C2D312E36363135372031302E343935 PUSH2 0xBE0 DUP3 ADD MSTORE PUSH32 0x39392C2D362E36353730352031322E34323837372C2D352E393135333720322E PUSH2 0xC00 DUP3 ADD MSTORE PUSH32 0x30383333342C302E373939343520322E30373936312C2D312E3934343233202D PUSH2 0xC20 DUP3 ADD MSTORE PUSH32 0x302E3030352C2D332E3637343239202D312E32393939342C2D312E3037383836 PUSH2 0xC40 DUP3 ADD MSTORE PUSH32 0x202D312E37323034382C2D312E3037343731202D322E33393933322C302E3032 PUSH2 0xC60 DUP3 ADD MSTORE PUSH32 0x3337202D302E36333830312C312E3033323331202D312E34303739372C302E37 PUSH2 0xC80 DUP3 ADD MSTORE PUSH32 0x34363937202D332E34323337392C2D312E3236383835202D322E33383332312C PUSH2 0xCA0 DUP3 ADD MSTORE PUSH32 0x2D322E3338333234202D322E36303036362C2D332E3239343835202D322E3630 PUSH2 0xCC0 DUP3 ADD MSTORE PUSH32 0x3036362C2D31302E393032373520302C2D342E353636313320302E3432343531 PUSH2 0xCE0 DUP3 ADD MSTORE PUSH32 0x2C2D392E373832323220302E39343333352C2D31312E353931333220312E3430 PUSH2 0xD00 DUP3 ADD MSTORE PUSH32 0x3130322C2D342E383835303820362E35373938322C2D392E3130313032203134 PUSH2 0xD20 DUP3 ADD MSTORE PUSH32 0x2E34353035392C2D31312E373633383920392E38333030352C2D332E33323537 PUSH2 0xD40 DUP3 ADD MSTORE PUSH32 0x352031302E32393931332C2D332E393635333220372E38303234322C2D31302E PUSH2 0xD60 DUP3 ADD MSTORE PUSH32 0x3633383337202D312E33343236312C2D332E3538383433202D322E3132303431 PUSH2 0xD80 DUP3 ADD MSTORE PUSH32 0x2C2D382E3432343935202D322E33303833332C2D31342E3335333635202D302E PUSH2 0xDA0 DUP3 ADD MSTORE PUSH32 0x31353538392C2D342E3931373839202D302E37333834372C2D392E353531202D PUSH2 0xDC0 DUP3 ADD MSTORE PUSH32 0x312E32393436332C2D31302E32393538202D322E31303238322C2D322E383136 PUSH2 0xDE0 DUP3 ADD MSTORE PUSH32 0x3033202D352E38313238362C2D332E3235353135202D31372E30363937362C2D PUSH2 0xE00 DUP3 ADD MSTORE PUSH32 0x322E3032303337202D382E35343733342C302E3933373537202D31322E313735 PUSH2 0xE20 DUP3 ADD MSTORE PUSH32 0x34342C302E3934373835202D31352E373632322C302E30343437202D332E3533 PUSH2 0xE40 DUP3 ADD MSTORE PUSH32 0x3630382C2D302E3839303339202D362E35313734352C2D302E3839363832202D PUSH2 0xE60 DUP3 ADD MSTORE PUSH32 0x31322E33363739352C2D302E30323637202D392E32343735352C312E33373534 PUSH2 0xE80 DUP3 ADD MSTORE PUSH32 0x202D31332E32303734342C342E3336343034202D31372E38393334392C31332E PUSH2 0xEA0 DUP3 ADD MSTORE PUSH32 0x3530343639202D322E36313435392C352E3130303034202D332E30343434392C PUSH2 0xEC0 DUP3 ADD MSTORE PUSH32 0x372E3131353139202D332E33343633332C31352E3638353635206C202D302E33 PUSH2 0xEE0 DUP3 ADD MSTORE PUSH32 0x343633322C392E3833333832202D322E33353237392C2D322E32313033332063 PUSH2 0xF00 DUP3 ADD MSTORE PUSH32 0x202D332E35373930322C2D332E3336323331202D352E30383031372C2D322E30 PUSH2 0xF20 DUP3 ADD MSTORE PUSH32 0x32323733202D352E3732372C352E3131303539202D302E343033372C342E3435 PUSH2 0xF40 DUP3 ADD MSTORE PUSH32 0x323131202D302E303135352C382E3339363420312E33353331362C31332E3734 PUSH2 0xF60 DUP3 ADD MSTORE PUSH32 0x37363920312E303535362C342E313237333920312E39313932382C382E393037 PUSH2 0xF80 DUP3 ADD MSTORE PUSH32 0x323220312E39313932382C31302E363231383720302C342E303939393620322E PUSH2 0xFA0 DUP3 ADD MSTORE PUSH32 0x33383034312C372E333535323720352E36363530352C372E373437313720322E PUSH2 0xFC0 DUP3 ADD MSTORE PUSH32 0x34303330352C302E323836373220322E383537392C312E303837363620352E30 PUSH2 0xFE0 DUP3 ADD MSTORE PUSH32 0x303631322C382E383135333720312E39313830362C362E383939373220322E34 PUSH2 0x1000 DUP3 ADD MSTORE PUSH32 0x363131312C31312E3739343720322E38383434392C323620302E37333938372C PUSH2 0x1020 DUP3 ADD MSTORE PUSH32 0x32342E383234343720312E35323430342C32372E313039352031342E36363037 PUSH2 0x1040 DUP3 ADD MSTORE PUSH32 0x372C34322E373230323920352E36353539362C362E37323131362031322E3330 PUSH2 0x1060 DUP3 ADD MSTORE PUSH32 0x3835372C31332E36373239382031342E37383335372C31352E3434383520322E PUSH2 0x1080 DUP3 ADD MSTORE PUSH32 0x3437352C312E373735353220352E39373831362C342E343838383920372E3738 PUSH2 0x10A0 DUP3 ADD MSTORE PUSH32 0x34382C362E303239373120312E38303636332C312E353430383320332E353437 PUSH2 0x10C0 DUP3 ADD MSTORE PUSH32 0x37372C322E3830313520332E38363931392C322E3830313520302E3332313431 PUSH2 0x10E0 DUP3 ADD MSTORE PUSH32 0x2C3020332E32343839382C2D312E363138363620362E35303537312C2D332E35 PUSH2 0x1100 DUP3 ADD MSTORE PUSH32 0x39373031207A204D203136352E33333532342C3132392E30303730322063202D PUSH2 0x1120 DUP3 ADD MSTORE PUSH32 0x302E38393834332C2D312E3038323535202D322E32333239332C2D312E343032 PUSH2 0x1140 DUP3 ADD MSTORE PUSH32 0x3931202D342E323032382C2D312E3030383933202D322E3034312C302E343038 PUSH2 0x1160 DUP3 ADD MSTORE PUSH32 0x32202D322E373637382C302E3231333738202D322E34383135332C2D302E3636 PUSH2 0x1180 DUP3 ADD MSTORE PUSH32 0x333820302E32323236362C2D302E363832353920322E35303838322C2D312E36 PUSH2 0x11A0 DUP3 ADD MSTORE PUSH32 0x3533393920352E30383033352C2D322E313538363720322E35373135342C2D30 PUSH2 0x11C0 DUP3 ADD MSTORE PUSH32 0x2E353034363820342E36373535322C2D312E323633303520342E36373535322C PUSH2 0x11E0 DUP3 ADD MSTORE PUSH32 0x2D312E363835323720302C2D302E3432323232202D312E3537352C2D312E3333 PUSH2 0x1200 DUP3 ADD MSTORE PUSH32 0x3732202D332E352C2D322E3033333239202D352E36323537362C2D322E303334 PUSH2 0x1220 DUP3 ADD MSTORE PUSH32 0x33202D342E30363138372C2D332E313130383120332E393332372C2D322E3730 PUSH2 0x1240 DUP3 ADD MSTORE PUSH32 0x37313120372E39353337382C302E343031363520392E34393339362C312E3032 PUSH2 0x1260 DUP3 ADD MSTORE PUSH32 0x31373920372E37353136352C332E3132313134202D302E36303533362C302E37 PUSH2 0x1280 DUP3 ADD MSTORE PUSH32 0x32393431202D302E38383735312C322E3230323739202D302E36323730312C33 PUSH2 0x12A0 DUP3 ADD MSTORE PUSH32 0x2E323734313720302E33363331352C312E34393335202D302E34323239352C32 PUSH2 0x12C0 DUP3 ADD MSTORE PUSH32 0x2E3335363233202D332E33363934362C332E3639373936202D342E373236342C PUSH2 0x12E0 DUP3 ADD MSTORE PUSH32 0x322E3135323232202D352E35393239352C322E3137313737202D372E32353934 PUSH2 0x1300 DUP3 ADD MSTORE PUSH32 0x322C302E31363338207A206D2038312E32373238372C31362E36353337206320 PUSH2 0x1320 DUP3 ADD MSTORE PUSH32 0x302E34303134322C2D322E333531343320312E30303036372C2D352E31323835 PUSH2 0x1340 DUP3 ADD MSTORE PUSH32 0x3720312E33333136352C2D362E313731343220302E37393637362C2D322E3531 PUSH2 0x1360 DUP3 ADD MSTORE PUSH32 0x303336202D332E303039352C2D322E3634383032202D342E30333933312C2D30 PUSH2 0x1380 DUP3 ADD MSTORE PUSH32 0x2E3134363038202D302E38393635342C322E3137383136202D312E3434343639 PUSH2 0x13A0 DUP3 ADD MSTORE PUSH32 0x2C392E3436393931202D302E373933332C31302E353532373920312E31303337 PUSH2 0x13C0 DUP3 ADD MSTORE PUSH32 0x352C312E383334383720322E38313839332C2D302E323430303620332E353030 PUSH2 0x13E0 DUP3 ADD MSTORE PUSH32 0x39362C2D342E3233353239207A206D202D32302E393336392C2D31332E363635 PUSH2 0x1400 DUP3 ADD MSTORE PUSH32 0x3237206320302E33323837372C2D302E333238373720302E33353536332C2D31 PUSH2 0x1420 DUP3 ADD MSTORE PUSH32 0x2E323238373720302E303539372C2D32202D302E37313035362C2D312E383531 PUSH2 0x1440 DUP3 ADD MSTORE PUSH32 0x3638202D352E33323431312C2D312E3833393138202D352E33323431312C302E PUSH2 0x1460 DUP3 ADD MSTORE PUSH32 0x3031343420302C312E393438323620332E38343937342C332E34303032352035 PUSH2 0x1480 DUP3 ADD MSTORE PUSH32 0x2E32363434332C312E3938353536207A206D2032332E363937342C2D392E3531 PUSH2 0x14A0 DUP3 ADD MSTORE PUSH32 0x3738392063202D312E36393738382C2D352E3134343632202D332E3732383932 PUSH2 0x14C0 DUP3 ADD MSTORE PUSH32 0x2C2D352E3131383733202D322E39393638362C302E3033383220302E32393832 PUSH2 0x14E0 DUP3 ADD MSTORE PUSH32 0x332C322E313030383120332E34373433362C362E303539323720332E39303639 PUSH2 0x1500 DUP3 ADD MSTORE PUSH32 0x322C342E383639323520302E32303435342C2D302E3536323731202D302E3230 PUSH2 0x1520 DUP3 ADD MSTORE PUSH32 0x3439392C2D322E3737313036202D302E39313030362C2D342E3930373434207A PUSH2 0x1540 DUP3 ADD MSTORE PUSH32 0x206D20322E30333831372C2D372E3338343334206320302C2D302E383235202D PUSH2 0x1560 DUP3 ADD MSTORE PUSH32 0x302E3637352C2D312E35202D312E352C2D312E35202D302E3832352C30202D31 PUSH2 0x1580 DUP3 ADD MSTORE PUSH32 0x2E352C302E363735202D312E352C312E3520302C302E38323520302E3637352C PUSH2 0x15A0 DUP3 ADD MSTORE PUSH32 0x312E3520312E352C312E3520302E3832352C3020312E352C2D302E3637352031 PUSH2 0x15C0 DUP3 ADD MSTORE PUSH32 0x2E352C2D312E35207A222066696C6C3D2223306633623836222F3E0000000000 PUSH2 0x15E0 DUP3 ADD MSTORE PUSH2 0x15FB ADD SWAP2 SWAP1 POP JUMP JUMPDEST PUSH1 0x0 DUP3 MLOAD PUSH2 0x219C DUP2 DUP5 PUSH1 0x20 DUP8 ADD PUSH2 0x2424 JUMP JUMPDEST PUSH32 0x3C726563742077696474683D223130302522206865696768743D223130302522 SWAP3 ADD SWAP2 DUP3 MSTORE POP PUSH7 0x103334B6361E91 PUSH1 0xC9 SHL PUSH1 0x20 DUP3 ADD MSTORE PUSH7 0x23653430323237 PUSH1 0xC8 SHL PUSH1 0x27 DUP3 ADD MSTORE PUSH4 0x1110179F PUSH1 0xE1 SHL PUSH1 0x2E DUP3 ADD MSTORE PUSH1 0x32 ADD SWAP2 SWAP1 POP JUMP JUMPDEST PUSH1 0x0 DUP4 MLOAD PUSH2 0x220A DUP2 DUP5 PUSH1 0x20 DUP9 ADD PUSH2 0x2424 JUMP JUMPDEST DUP1 DUP4 ADD SWAP1 POP PUSH32 0x3C7465787420783D2238302220793D2234302220636C6173733D227469746C65 DUP2 MSTORE PUSH2 0x111F PUSH1 0xF1 SHL PUSH1 0x20 DUP3 ADD MSTORE DUP4 MLOAD PUSH2 0x2250 DUP2 PUSH1 0x22 DUP5 ADD PUSH1 0x20 DUP9 ADD PUSH2 0x2424 JUMP JUMPDEST PUSH7 0x1E17BA32BC3A1F PUSH1 0xC9 SHL PUSH1 0x22 SWAP3 SWAP1 SWAP2 ADD SWAP2 DUP3 ADD MSTORE PUSH1 0x29 ADD SWAP5 SWAP4 POP POP POP POP JUMP JUMPDEST PUSH1 0x0 DUP3 MLOAD PUSH2 0x2282 DUP2 DUP5 PUSH1 0x20 DUP8 ADD PUSH2 0x2424 JUMP JUMPDEST PUSH6 0x1E17B9BB339F PUSH1 0xD1 SHL SWAP3 ADD SWAP2 DUP3 MSTORE POP PUSH1 0x6 ADD SWAP2 SWAP1 POP JUMP JUMPDEST PUSH1 0x0 DUP3 MLOAD PUSH2 0x22AC DUP2 DUP5 PUSH1 0x20 DUP8 ADD PUSH2 0x2424 JUMP JUMPDEST PUSH7 0x1E39BA3CB6329F PUSH1 0xC9 SHL SWAP3 ADD SWAP2 DUP3 MSTORE POP PUSH32 0x74657874207B20666F6E742D66616D696C793A20417269616C2C2048656C7665 PUSH1 0x7 DUP3 ADD MSTORE PUSH32 0x746963612C2073616E732D73657269663B20666F6E742D7765696768743A2020 PUSH1 0x27 DUP3 ADD MSTORE PUSH32 0x626F6C643B2066696C6C3A20236666653530303B20666F6E742D73697A653A20 PUSH1 0x47 DUP3 ADD MSTORE PUSH6 0x31656D3B207D PUSH1 0xD0 SHL PUSH1 0x67 DUP3 ADD MSTORE PUSH32 0x2E7469746C65207B20746578742D616E63686F723A206C6566743B20666F6E74 PUSH1 0x6D DUP3 ADD MSTORE PUSH32 0x2D7765696768743A20626F6C643B20666F6E742D73697A653A20312E35656D3B PUSH1 0x8D DUP3 ADD MSTORE PUSH2 0x207D PUSH1 0xF0 SHL PUSH1 0xAD DUP3 ADD MSTORE PUSH8 0x1E17B9BA3CB6329F PUSH1 0xC1 SHL PUSH1 0xAF DUP3 ADD MSTORE PUSH1 0xB7 ADD SWAP2 SWAP1 POP JUMP JUMPDEST PUSH1 0x20 DUP2 MSTORE PUSH1 0x0 DUP3 MLOAD DUP1 PUSH1 0x20 DUP5 ADD MSTORE PUSH2 0x23CD DUP2 PUSH1 0x40 DUP6 ADD PUSH1 0x20 DUP8 ADD PUSH2 0x2424 JUMP JUMPDEST PUSH1 0x1F ADD PUSH1 0x1F NOT AND SWAP2 SWAP1 SWAP2 ADD PUSH1 0x40 ADD SWAP3 SWAP2 POP POP JUMP JUMPDEST PUSH1 0x0 DUP3 NOT DUP3 GT ISZERO PUSH2 0x23F4 JUMPI PUSH2 0x23F4 PUSH2 0x2483 JUMP JUMPDEST POP ADD SWAP1 JUMP JUMPDEST PUSH1 0x0 DUP3 PUSH2 0x2408 JUMPI PUSH2 0x2408 PUSH2 0x2499 JUMP JUMPDEST POP DIV SWAP1 JUMP JUMPDEST PUSH1 0x0 DUP3 DUP3 LT ISZERO PUSH2 0x241F JUMPI PUSH2 0x241F PUSH2 0x2483 JUMP JUMPDEST POP SUB SWAP1 JUMP JUMPDEST PUSH1 0x0 JUMPDEST DUP4 DUP2 LT ISZERO PUSH2 0x243F JUMPI DUP2 DUP2 ADD MLOAD DUP4 DUP3 ADD MSTORE PUSH1 0x20 ADD PUSH2 0x2427 JUMP JUMPDEST DUP4 DUP2 GT ISZERO PUSH2 0x244E JUMPI PUSH1 0x0 DUP5 DUP5 ADD MSTORE JUMPDEST POP POP POP POP JUMP JUMPDEST PUSH1 0x0 PUSH1 0x0 NOT DUP3 EQ ISZERO PUSH2 0x2468 JUMPI PUSH2 0x2468 PUSH2 0x2483 JUMP JUMPDEST POP PUSH1 0x1 ADD SWAP1 JUMP JUMPDEST PUSH1 0x0 DUP3 PUSH2 0x247E JUMPI PUSH2 0x247E PUSH2 0x2499 JUMP JUMPDEST POP MOD SWAP1 JUMP JUMPDEST PUSH4 0x4E487B71 PUSH1 0xE0 SHL PUSH1 0x0 MSTORE PUSH1 0x11 PUSH1 0x4 MSTORE PUSH1 0x24 PUSH1 0x0 REVERT JUMPDEST PUSH4 0x4E487B71 PUSH1 0xE0 SHL PUSH1 0x0 MSTORE PUSH1 0x12 PUSH1 0x4 MSTORE PUSH1 0x24 PUSH1 0x0 REVERT JUMPDEST PUSH4 0x4E487B71 PUSH1 0xE0 SHL PUSH1 0x0 MSTORE PUSH1 0x32 PUSH1 0x4 MSTORE PUSH1 0x24 PUSH1 0x0 REVERT JUMPDEST PUSH4 0x4E487B71 PUSH1 0xE0 SHL PUSH1 0x0 MSTORE PUSH1 0x41 PUSH1 0x4 MSTORE PUSH1 0x24 PUSH1 0x0 REVERT INVALID EXTCODECOPY PUSH20 0x76672077696474683D2233393022206865696768 PUSH21 0x3D22343335222066696C6C3D22677265656E222078 PUSH14 0x6C6E733D22687474703A2F2F7777 PUSH24 0x2E77332E6F72672F323030302F737667223EA26469706673 PC 0x22 SLT KECCAK256 SWAP1 0xD8 0xD3 0xF9 PUSH25 0x4FEE1C75B96681A4978DB961D98060C0BCE8370E8979389321 0x4A 0xC4 PUSH5 0x736F6C6343 STOP ADDMOD SMOD STOP CALLER "
				},
				"gasEstimates": {
					"creation": {
						"codeDepositCost": "1913400",
						"executionCost": "2019",
						"totalCost": "1915419"
					},
					"external": {
						"getSVG(uint256,uint256,uint256,string,string)": "infinite"
					},
					"internal": {
						"addImage(string memory,string memory)": "infinite"
					}
				},
				"methodIdentifiers": {
					"getSVG(uint256,uint256,uint256,string,string)": "d139e8a4"
				}
			},
			"userdoc": {
				"kind": "user",
				"methods": {},
				"version": 1
			}
		}
	}
}