{
	"SVG-MVP_football_ERC1155/contracts/getPlayerSvg.sol": {
		"getPlayerSvg": {
			"abi": [
				{
					"inputs": [
						{
							"internalType": "address",
							"name": "_AndyPelmard",
							"type": "address"
						},
						{
							"internalType": "address",
							"name": "_LiamMillar",
							"type": "address"
						},
						{
							"internalType": "address",
							"name": "_NoahKatterbach",
							"type": "address"
						},
						{
							"internalType": "address",
							"name": "_PajtimKasami",
							"type": "address"
						},
						{
							"internalType": "address",
							"name": "_HeinzLindner",
							"type": "address"
						}
					],
					"stateMutability": "nonpayable",
					"type": "constructor"
				},
				{
					"inputs": [
						{
							"internalType": "uint256",
							"name": "gameplay",
							"type": "uint256"
						},
						{
							"internalType": "uint256",
							"name": "numberOfGames",
							"type": "uint256"
						},
						{
							"internalType": "uint256",
							"name": "goals",
							"type": "uint256"
						},
						{
							"internalType": "string",
							"name": "name",
							"type": "string"
						},
						{
							"internalType": "string",
							"name": "position",
							"type": "string"
						}
					],
					"name": "getSVG",
					"outputs": [
						{
							"internalType": "string",
							"name": "svg",
							"type": "string"
						}
					],
					"stateMutability": "view",
					"type": "function"
				}
			],
			"devdoc": {
				"kind": "dev",
				"methods": {},
				"version": 1
			},
			"evm": {
				"assembly": "    /* \"SVG-MVP_football_ERC1155/contracts/getPlayerSvg.sol\":134:3005  contract getPlayerSvg {... */\n  mstore(0x40, 0x80)\n    /* \"SVG-MVP_football_ERC1155/contracts/getPlayerSvg.sol\":371:749  constructor(address _AndyPelmard, address _LiamMillar, address _NoahKatterbach, address _PajtimKasami, address _HeinzLindner) {... */\n  callvalue\n  dup1\n  iszero\n  tag_1\n  jumpi\n  0x00\n  dup1\n  revert\ntag_1:\n  pop\n  mload(0x40)\n  sub(codesize, bytecodeSize)\n  dup1\n  bytecodeSize\n  dup4\n  codecopy\n  dup2\n  dup2\n  add\n  0x40\n  mstore\n  dup2\n  add\n  swap1\n  tag_2\n  swap2\n  swap1\n  tag_3\n  jump\t// in\ntag_2:\n    /* \"SVG-MVP_football_ERC1155/contracts/getPlayerSvg.sol\":531:543  _AndyPelmard */\n  dup5\n    /* \"SVG-MVP_football_ERC1155/contracts/getPlayerSvg.sol\":505:516  andyPelmard */\n  0x00\n  dup1\n    /* \"SVG-MVP_football_ERC1155/contracts/getPlayerSvg.sol\":505:544  andyPelmard = AndyPelmard(_AndyPelmard) */\n  0x0100\n  exp\n  dup2\n  sload\n  dup2\n  0xffffffffffffffffffffffffffffffffffffffff\n  mul\n  not\n  and\n  swap1\n  dup4\n  0xffffffffffffffffffffffffffffffffffffffff\n  and\n  mul\n  or\n  swap1\n  sstore\n  pop\n    /* \"SVG-MVP_football_ERC1155/contracts/getPlayerSvg.sol\":576:587  _LiamMillar */\n  dup4\n    /* \"SVG-MVP_football_ERC1155/contracts/getPlayerSvg.sol\":552:562  liamMillar */\n  0x01\n  0x00\n    /* \"SVG-MVP_football_ERC1155/contracts/getPlayerSvg.sol\":552:588  liamMillar = LiamMillar(_LiamMillar) */\n  0x0100\n  exp\n  dup2\n  sload\n  dup2\n  0xffffffffffffffffffffffffffffffffffffffff\n  mul\n  not\n  and\n  swap1\n  dup4\n  0xffffffffffffffffffffffffffffffffffffffff\n  and\n  mul\n  or\n  swap1\n  sstore\n  pop\n    /* \"SVG-MVP_football_ERC1155/contracts/getPlayerSvg.sol\":628:643  _NoahKatterbach */\n  dup3\n    /* \"SVG-MVP_football_ERC1155/contracts/getPlayerSvg.sol\":596:610  noahKatterbach */\n  0x02\n  0x00\n    /* \"SVG-MVP_football_ERC1155/contracts/getPlayerSvg.sol\":596:644  noahKatterbach = NoahKatterbach(_NoahKatterbach) */\n  0x0100\n  exp\n  dup2\n  sload\n  dup2\n  0xffffffffffffffffffffffffffffffffffffffff\n  mul\n  not\n  and\n  swap1\n  dup4\n  0xffffffffffffffffffffffffffffffffffffffff\n  and\n  mul\n  or\n  swap1\n  sstore\n  pop\n    /* \"SVG-MVP_football_ERC1155/contracts/getPlayerSvg.sol\":680:693  _PajtimKasami */\n  dup2\n    /* \"SVG-MVP_football_ERC1155/contracts/getPlayerSvg.sol\":652:664  pajtimKasami */\n  0x03\n  0x00\n    /* \"SVG-MVP_football_ERC1155/contracts/getPlayerSvg.sol\":652:694  pajtimKasami = PajtimKasami(_PajtimKasami) */\n  0x0100\n  exp\n  dup2\n  sload\n  dup2\n  0xffffffffffffffffffffffffffffffffffffffff\n  mul\n  not\n  and\n  swap1\n  dup4\n  0xffffffffffffffffffffffffffffffffffffffff\n  and\n  mul\n  or\n  swap1\n  sstore\n  pop\n    /* \"SVG-MVP_football_ERC1155/contracts/getPlayerSvg.sol\":730:743  _HeinzLindner */\n  dup1\n    /* \"SVG-MVP_football_ERC1155/contracts/getPlayerSvg.sol\":702:714  heinzLindner */\n  0x04\n  0x00\n    /* \"SVG-MVP_football_ERC1155/contracts/getPlayerSvg.sol\":702:744  heinzLindner = HeinzLindner(_HeinzLindner) */\n  0x0100\n  exp\n  dup2\n  sload\n  dup2\n  0xffffffffffffffffffffffffffffffffffffffff\n  mul\n  not\n  and\n  swap1\n  dup4\n  0xffffffffffffffffffffffffffffffffffffffff\n  and\n  mul\n  or\n  swap1\n  sstore\n  pop\n    /* \"SVG-MVP_football_ERC1155/contracts/getPlayerSvg.sol\":371:749  constructor(address _AndyPelmard, address _LiamMillar, address _NoahKatterbach, address _PajtimKasami, address _HeinzLindner) {... */\n  pop\n  pop\n  pop\n  pop\n  pop\n    /* \"SVG-MVP_football_ERC1155/contracts/getPlayerSvg.sol\":134:3005  contract getPlayerSvg {... */\n  jump(tag_6)\n    /* \"#utility.yul\":7:150   */\ntag_8:\n    /* \"#utility.yul\":64:69   */\n  0x00\n    /* \"#utility.yul\":95:101   */\n  dup2\n    /* \"#utility.yul\":89:102   */\n  mload\n    /* \"#utility.yul\":80:102   */\n  swap1\n  pop\n    /* \"#utility.yul\":111:144   */\n  tag_10\n    /* \"#utility.yul\":138:143   */\n  dup2\n    /* \"#utility.yul\":111:144   */\n  tag_11\n  jump\t// in\ntag_10:\n    /* \"#utility.yul\":7:150   */\n  swap3\n  swap2\n  pop\n  pop\n  jump\t// out\n    /* \"#utility.yul\":156:1133   */\ntag_3:\n    /* \"#utility.yul\":262:268   */\n  0x00\n    /* \"#utility.yul\":270:276   */\n  dup1\n    /* \"#utility.yul\":278:284   */\n  0x00\n    /* \"#utility.yul\":286:292   */\n  dup1\n    /* \"#utility.yul\":294:300   */\n  0x00\n    /* \"#utility.yul\":343:346   */\n  0xa0\n    /* \"#utility.yul\":331:340   */\n  dup7\n    /* \"#utility.yul\":322:329   */\n  dup9\n    /* \"#utility.yul\":318:341   */\n  sub\n    /* \"#utility.yul\":314:347   */\n  slt\n    /* \"#utility.yul\":311:431   */\n  iszero\n  tag_13\n  jumpi\n    /* \"#utility.yul\":350:429   */\n  tag_14\n  tag_15\n  jump\t// in\ntag_14:\n    /* \"#utility.yul\":311:431   */\ntag_13:\n    /* \"#utility.yul\":470:471   */\n  0x00\n    /* \"#utility.yul\":495:559   */\n  tag_16\n    /* \"#utility.yul\":551:558   */\n  dup9\n    /* \"#utility.yul\":542:548   */\n  dup3\n    /* \"#utility.yul\":531:540   */\n  dup10\n    /* \"#utility.yul\":527:549   */\n  add\n    /* \"#utility.yul\":495:559   */\n  tag_8\n  jump\t// in\ntag_16:\n    /* \"#utility.yul\":485:559   */\n  swap6\n  pop\n    /* \"#utility.yul\":441:569   */\n  pop\n    /* \"#utility.yul\":608:610   */\n  0x20\n    /* \"#utility.yul\":634:698   */\n  tag_17\n    /* \"#utility.yul\":690:697   */\n  dup9\n    /* \"#utility.yul\":681:687   */\n  dup3\n    /* \"#utility.yul\":670:679   */\n  dup10\n    /* \"#utility.yul\":666:688   */\n  add\n    /* \"#utility.yul\":634:698   */\n  tag_8\n  jump\t// in\ntag_17:\n    /* \"#utility.yul\":624:698   */\n  swap5\n  pop\n    /* \"#utility.yul\":579:708   */\n  pop\n    /* \"#utility.yul\":747:749   */\n  0x40\n    /* \"#utility.yul\":773:837   */\n  tag_18\n    /* \"#utility.yul\":829:836   */\n  dup9\n    /* \"#utility.yul\":820:826   */\n  dup3\n    /* \"#utility.yul\":809:818   */\n  dup10\n    /* \"#utility.yul\":805:827   */\n  add\n    /* \"#utility.yul\":773:837   */\n  tag_8\n  jump\t// in\ntag_18:\n    /* \"#utility.yul\":763:837   */\n  swap4\n  pop\n    /* \"#utility.yul\":718:847   */\n  pop\n    /* \"#utility.yul\":886:888   */\n  0x60\n    /* \"#utility.yul\":912:976   */\n  tag_19\n    /* \"#utility.yul\":968:975   */\n  dup9\n    /* \"#utility.yul\":959:965   */\n  dup3\n    /* \"#utility.yul\":948:957   */\n  dup10\n    /* \"#utility.yul\":944:966   */\n  add\n    /* \"#utility.yul\":912:976   */\n  tag_8\n  jump\t// in\ntag_19:\n    /* \"#utility.yul\":902:976   */\n  swap3\n  pop\n    /* \"#utility.yul\":857:986   */\n  pop\n    /* \"#utility.yul\":1025:1028   */\n  0x80\n    /* \"#utility.yul\":1052:1116   */\n  tag_20\n    /* \"#utility.yul\":1108:1115   */\n  dup9\n    /* \"#utility.yul\":1099:1105   */\n  dup3\n    /* \"#utility.yul\":1088:1097   */\n  dup10\n    /* \"#utility.yul\":1084:1106   */\n  add\n    /* \"#utility.yul\":1052:1116   */\n  tag_8\n  jump\t// in\ntag_20:\n    /* \"#utility.yul\":1042:1116   */\n  swap2\n  pop\n    /* \"#utility.yul\":996:1126   */\n  pop\n    /* \"#utility.yul\":156:1133   */\n  swap3\n  swap6\n  pop\n  swap3\n  swap6\n  swap1\n  swap4\n  pop\n  jump\t// out\n    /* \"#utility.yul\":1220:1316   */\ntag_23:\n    /* \"#utility.yul\":1257:1264   */\n  0x00\n    /* \"#utility.yul\":1286:1310   */\n  tag_25\n    /* \"#utility.yul\":1304:1309   */\n  dup3\n    /* \"#utility.yul\":1286:1310   */\n  tag_26\n  jump\t// in\ntag_25:\n    /* \"#utility.yul\":1275:1310   */\n  swap1\n  pop\n    /* \"#utility.yul\":1220:1316   */\n  swap2\n  swap1\n  pop\n  jump\t// out\n    /* \"#utility.yul\":1322:1448   */\ntag_26:\n    /* \"#utility.yul\":1359:1366   */\n  0x00\n    /* \"#utility.yul\":1399:1441   */\n  0xffffffffffffffffffffffffffffffffffffffff\n    /* \"#utility.yul\":1392:1397   */\n  dup3\n    /* \"#utility.yul\":1388:1442   */\n  and\n    /* \"#utility.yul\":1377:1442   */\n  swap1\n  pop\n    /* \"#utility.yul\":1322:1448   */\n  swap2\n  swap1\n  pop\n  jump\t// out\n    /* \"#utility.yul\":1577:1694   */\ntag_15:\n    /* \"#utility.yul\":1686:1687   */\n  0x00\n    /* \"#utility.yul\":1683:1684   */\n  dup1\n    /* \"#utility.yul\":1676:1688   */\n  revert\n    /* \"#utility.yul\":1700:1822   */\ntag_11:\n    /* \"#utility.yul\":1773:1797   */\n  tag_32\n    /* \"#utility.yul\":1791:1796   */\n  dup2\n    /* \"#utility.yul\":1773:1797   */\n  tag_23\n  jump\t// in\ntag_32:\n    /* \"#utility.yul\":1766:1771   */\n  dup2\n    /* \"#utility.yul\":1763:1798   */\n  eq\n    /* \"#utility.yul\":1753:1816   */\n  tag_33\n  jumpi\n    /* \"#utility.yul\":1812:1813   */\n  0x00\n    /* \"#utility.yul\":1809:1810   */\n  dup1\n    /* \"#utility.yul\":1802:1814   */\n  revert\n    /* \"#utility.yul\":1753:1816   */\ntag_33:\n    /* \"#utility.yul\":1700:1822   */\n  pop\n  jump\t// out\n    /* \"SVG-MVP_football_ERC1155/contracts/getPlayerSvg.sol\":134:3005  contract getPlayerSvg {... */\ntag_6:\n  dataSize(sub_0)\n  dup1\n  dataOffset(sub_0)\n  0x00\n  codecopy\n  0x00\n  return\nstop\n\nsub_0: assembly {\n        /* \"SVG-MVP_football_ERC1155/contracts/getPlayerSvg.sol\":134:3005  contract getPlayerSvg {... */\n      mstore(0x40, 0x80)\n      callvalue\n      dup1\n      iszero\n      tag_1\n      jumpi\n      0x00\n      dup1\n      revert\n    tag_1:\n      pop\n      jumpi(tag_2, lt(calldatasize, 0x04))\n      shr(0xe0, calldataload(0x00))\n      dup1\n      0xd139e8a4\n      eq\n      tag_3\n      jumpi\n    tag_2:\n      0x00\n      dup1\n      revert\n        /* \"SVG-MVP_football_ERC1155/contracts/getPlayerSvg.sol\":755:2118  function getSVG(uint gameplay, uint numberOfGames, uint goals, string memory name, string memory position) external view  returns (string memory svg) {... */\n    tag_3:\n      tag_4\n      0x04\n      dup1\n      calldatasize\n      sub\n      dup2\n      add\n      swap1\n      tag_5\n      swap2\n      swap1\n      tag_6\n      jump\t// in\n    tag_5:\n      tag_7\n      jump\t// in\n    tag_4:\n      mload(0x40)\n      tag_8\n      swap2\n      swap1\n      tag_9\n      jump\t// in\n    tag_8:\n      mload(0x40)\n      dup1\n      swap2\n      sub\n      swap1\n      return\n    tag_7:\n        /* \"SVG-MVP_football_ERC1155/contracts/getPlayerSvg.sol\":886:903  string memory svg */\n      0x60\n        /* \"SVG-MVP_football_ERC1155/contracts/getPlayerSvg.sol\":912:998  svg = '<svg width=\"390\" height=\"435\" fill=\"green\" xmlns=\"http://www.w3.org/2000/svg\">' */\n      mload(0x40)\n      dup1\n      0x80\n      add\n      0x40\n      mstore\n      dup1\n      0x4e\n      dup2\n      mstore\n      0x20\n      add\n      data_13ee12525b78d1800c98700a3c7bb02c6ed5e8636ea4bf89bace0c534940e1ba\n      0x4e\n      swap2\n      codecopy\n      swap1\n      pop\n        /* \"SVG-MVP_football_ERC1155/contracts/getPlayerSvg.sol\":1034:1037  svg */\n      dup1\n        /* \"SVG-MVP_football_ERC1155/contracts/getPlayerSvg.sol\":1017:1274  abi.encodePacked(svg,... */\n      add(0x20, mload(0x40))\n      tag_11\n      swap2\n      swap1\n      tag_12\n      jump\t// in\n    tag_11:\n      mload(0x40)\n      0x20\n      dup2\n      dup4\n      sub\n      sub\n      dup2\n      mstore\n      swap1\n      0x40\n      mstore\n        /* \"SVG-MVP_football_ERC1155/contracts/getPlayerSvg.sol\":1004:1275  svg = string(abi.encodePacked(svg,... */\n      swap1\n      pop\n        /* \"SVG-MVP_football_ERC1155/contracts/getPlayerSvg.sol\":1311:1314  svg */\n      dup1\n        /* \"SVG-MVP_football_ERC1155/contracts/getPlayerSvg.sol\":1294:1377  abi.encodePacked(svg, '<rect width=\"100%\" height=\"100%\" fill=\"', \"#e40227\" ,'\" />') */\n      add(0x20, mload(0x40))\n      tag_13\n      swap2\n      swap1\n      tag_14\n      jump\t// in\n    tag_13:\n      mload(0x40)\n      0x20\n      dup2\n      dup4\n      sub\n      sub\n      dup2\n      mstore\n      swap1\n      0x40\n      mstore\n        /* \"SVG-MVP_football_ERC1155/contracts/getPlayerSvg.sol\":1281:1378  svg = string(abi.encodePacked(svg, '<rect width=\"100%\" height=\"100%\" fill=\"', \"#e40227\" ,'\" />')) */\n      swap1\n      pop\n        /* \"SVG-MVP_football_ERC1155/contracts/getPlayerSvg.sol\":1390:1409  addImage(svg, name) */\n      tag_15\n        /* \"SVG-MVP_football_ERC1155/contracts/getPlayerSvg.sol\":1399:1402  svg */\n      dup2\n        /* \"SVG-MVP_football_ERC1155/contracts/getPlayerSvg.sol\":1404:1408  name */\n      dup5\n        /* \"SVG-MVP_football_ERC1155/contracts/getPlayerSvg.sol\":1390:1398  addImage */\n      tag_16\n        /* \"SVG-MVP_football_ERC1155/contracts/getPlayerSvg.sol\":1390:1409  addImage(svg, name) */\n      jump\t// in\n    tag_15:\n        /* \"SVG-MVP_football_ERC1155/contracts/getPlayerSvg.sol\":1384:1409  svg = addImage(svg, name) */\n      swap1\n      pop\n        /* \"SVG-MVP_football_ERC1155/contracts/getPlayerSvg.sol\":1447:1450  svg */\n      dup1\n        /* \"SVG-MVP_football_ERC1155/contracts/getPlayerSvg.sol\":1490:1494  name */\n      dup4\n        /* \"SVG-MVP_football_ERC1155/contracts/getPlayerSvg.sol\":1430:1506  abi.encodePacked(svg, '<text x=\"80\" y=\"40\" class=\"title\">', name ,'</text>') */\n      add(0x20, mload(0x40))\n      tag_17\n      swap3\n      swap2\n      swap1\n      tag_18\n      jump\t// in\n    tag_17:\n      mload(0x40)\n      0x20\n      dup2\n      dup4\n      sub\n      sub\n      dup2\n      mstore\n      swap1\n      0x40\n      mstore\n        /* \"SVG-MVP_football_ERC1155/contracts/getPlayerSvg.sol\":1417:1507  svg = string(abi.encodePacked(svg, '<text x=\"80\" y=\"40\" class=\"title\">', name ,'</text>')) */\n      swap1\n      pop\n        /* \"SVG-MVP_football_ERC1155/contracts/getPlayerSvg.sol\":1543:1546  svg */\n      dup1\n        /* \"SVG-MVP_football_ERC1155/contracts/getPlayerSvg.sol\":1584:1610  Strings.toString(gameplay) */\n      tag_19\n        /* \"SVG-MVP_football_ERC1155/contracts/getPlayerSvg.sol\":1601:1609  gameplay */\n      dup8\n        /* \"SVG-MVP_football_ERC1155/contracts/getPlayerSvg.sol\":1584:1600  Strings.toString */\n      tag_20\n        /* \"SVG-MVP_football_ERC1155/contracts/getPlayerSvg.sol\":1584:1610  Strings.toString(gameplay) */\n      jump\t// in\n    tag_19:\n        /* \"SVG-MVP_football_ERC1155/contracts/getPlayerSvg.sol\":1526:1629  abi.encodePacked(svg, '<text x=\"20\" y=\"320\" >Gameplay: ', Strings.toString(gameplay), 'min', '</text>') */\n      add(0x20, mload(0x40))\n      tag_21\n      swap3\n      swap2\n      swap1\n      tag_22\n      jump\t// in\n    tag_21:\n      mload(0x40)\n      0x20\n      dup2\n      dup4\n      sub\n      sub\n      dup2\n      mstore\n      swap1\n      0x40\n      mstore\n        /* \"SVG-MVP_football_ERC1155/contracts/getPlayerSvg.sol\":1513:1630  svg = string(abi.encodePacked(svg, '<text x=\"20\" y=\"320\" >Gameplay: ', Strings.toString(gameplay), 'min', '</text>')) */\n      swap1\n      pop\n        /* \"SVG-MVP_football_ERC1155/contracts/getPlayerSvg.sol\":1666:1669  svg */\n      dup1\n        /* \"SVG-MVP_football_ERC1155/contracts/getPlayerSvg.sol\":1704:1735  Strings.toString(numberOfGames) */\n      tag_23\n        /* \"SVG-MVP_football_ERC1155/contracts/getPlayerSvg.sol\":1721:1734  numberOfGames */\n      dup7\n        /* \"SVG-MVP_football_ERC1155/contracts/getPlayerSvg.sol\":1704:1720  Strings.toString */\n      tag_20\n        /* \"SVG-MVP_football_ERC1155/contracts/getPlayerSvg.sol\":1704:1735  Strings.toString(numberOfGames) */\n      jump\t// in\n    tag_23:\n        /* \"SVG-MVP_football_ERC1155/contracts/getPlayerSvg.sol\":1649:1746  abi.encodePacked(svg, '<text x=\"20\" y=\"340\" >Games: ', Strings.toString(numberOfGames),'</text>') */\n      add(0x20, mload(0x40))\n      tag_24\n      swap3\n      swap2\n      swap1\n      tag_25\n      jump\t// in\n    tag_24:\n      mload(0x40)\n      0x20\n      dup2\n      dup4\n      sub\n      sub\n      dup2\n      mstore\n      swap1\n      0x40\n      mstore\n        /* \"SVG-MVP_football_ERC1155/contracts/getPlayerSvg.sol\":1636:1747  svg = string(abi.encodePacked(svg, '<text x=\"20\" y=\"340\" >Games: ', Strings.toString(numberOfGames),'</text>')) */\n      swap1\n      pop\n        /* \"SVG-MVP_football_ERC1155/contracts/getPlayerSvg.sol\":1783:1786  svg */\n      dup1\n        /* \"SVG-MVP_football_ERC1155/contracts/getPlayerSvg.sol\":1821:1844  Strings.toString(goals) */\n      tag_26\n        /* \"SVG-MVP_football_ERC1155/contracts/getPlayerSvg.sol\":1838:1843  goals */\n      dup6\n        /* \"SVG-MVP_football_ERC1155/contracts/getPlayerSvg.sol\":1821:1837  Strings.toString */\n      tag_20\n        /* \"SVG-MVP_football_ERC1155/contracts/getPlayerSvg.sol\":1821:1844  Strings.toString(goals) */\n      jump\t// in\n    tag_26:\n        /* \"SVG-MVP_football_ERC1155/contracts/getPlayerSvg.sol\":1766:1856  abi.encodePacked(svg, '<text x=\"20\" y=\"360\" >Goals: ', Strings.toString(goals), '</text>') */\n      add(0x20, mload(0x40))\n      tag_27\n      swap3\n      swap2\n      swap1\n      tag_28\n      jump\t// in\n    tag_27:\n      mload(0x40)\n      0x20\n      dup2\n      dup4\n      sub\n      sub\n      dup2\n      mstore\n      swap1\n      0x40\n      mstore\n        /* \"SVG-MVP_football_ERC1155/contracts/getPlayerSvg.sol\":1753:1857  svg = string(abi.encodePacked(svg, '<text x=\"20\" y=\"360\" >Goals: ', Strings.toString(goals), '</text>')) */\n      swap1\n      pop\n        /* \"SVG-MVP_football_ERC1155/contracts/getPlayerSvg.sol\":1893:1896  svg */\n      dup1\n        /* \"SVG-MVP_football_ERC1155/contracts/getPlayerSvg.sol\":1934:1942  position */\n      dup3\n        /* \"SVG-MVP_football_ERC1155/contracts/getPlayerSvg.sol\":1876:1954  abi.encodePacked(svg, '<text x=\"20\" y=\"380\" >Position: ', position, '</text>') */\n      add(0x20, mload(0x40))\n      tag_29\n      swap3\n      swap2\n      swap1\n      tag_30\n      jump\t// in\n    tag_29:\n      mload(0x40)\n      0x20\n      dup2\n      dup4\n      sub\n      sub\n      dup2\n      mstore\n      swap1\n      0x40\n      mstore\n        /* \"SVG-MVP_football_ERC1155/contracts/getPlayerSvg.sol\":1863:1955  svg = string(abi.encodePacked(svg, '<text x=\"20\" y=\"380\" >Position: ', position, '</text>')) */\n      swap1\n      pop\n        /* \"SVG-MVP_football_ERC1155/contracts/getPlayerSvg.sol\":2098:2101  svg */\n      dup1\n        /* \"SVG-MVP_football_ERC1155/contracts/getPlayerSvg.sol\":2081:2112  abi.encodePacked(svg, '</svg>') */\n      add(0x20, mload(0x40))\n      tag_31\n      swap2\n      swap1\n      tag_32\n      jump\t// in\n    tag_31:\n      mload(0x40)\n      0x20\n      dup2\n      dup4\n      sub\n      sub\n      dup2\n      mstore\n      swap1\n      0x40\n      mstore\n        /* \"SVG-MVP_football_ERC1155/contracts/getPlayerSvg.sol\":2068:2113  svg = string(abi.encodePacked(svg, '</svg>')) */\n      swap1\n      pop\n        /* \"SVG-MVP_football_ERC1155/contracts/getPlayerSvg.sol\":755:2118  function getSVG(uint gameplay, uint numberOfGames, uint goals, string memory name, string memory position) external view  returns (string memory svg) {... */\n      swap6\n      swap5\n      pop\n      pop\n      pop\n      pop\n      pop\n      jump\t// out\n        /* \"SVG-MVP_football_ERC1155/contracts/getPlayerSvg.sol\":2124:2992  function addImage(string memory svg, string memory name) internal view returns (string memory _svg) {... */\n    tag_16:\n        /* \"SVG-MVP_football_ERC1155/contracts/getPlayerSvg.sol\":2204:2222  string memory _svg */\n      0x60\n        /* \"SVG-MVP_football_ERC1155/contracts/getPlayerSvg.sol\":2309:2313  name */\n      dup2\n        /* \"SVG-MVP_football_ERC1155/contracts/getPlayerSvg.sol\":2292:2314  abi.encodePacked(name) */\n      add(0x20, mload(0x40))\n      tag_34\n      swap2\n      swap1\n      tag_35\n      jump\t// in\n    tag_34:\n      mload(0x40)\n      0x20\n      dup2\n      dup4\n      sub\n      sub\n      dup2\n      mstore\n      swap1\n      0x40\n      mstore\n        /* \"SVG-MVP_football_ERC1155/contracts/getPlayerSvg.sol\":2282:2315  keccak256(abi.encodePacked(name)) */\n      dup1\n      mload\n      swap1\n      0x20\n      add\n      keccak256\n        /* \"SVG-MVP_football_ERC1155/contracts/getPlayerSvg.sol\":2242:2277  abi.encodePacked(\"Noah Katterbach\") */\n      add(0x20, mload(0x40))\n      tag_36\n      swap1\n      tag_37\n      jump\t// in\n    tag_36:\n      mload(0x40)\n      0x20\n      dup2\n      dup4\n      sub\n      sub\n      dup2\n      mstore\n      swap1\n      0x40\n      mstore\n        /* \"SVG-MVP_football_ERC1155/contracts/getPlayerSvg.sol\":2232:2278  keccak256(abi.encodePacked(\"Noah Katterbach\")) */\n      dup1\n      mload\n      swap1\n      0x20\n      add\n      keccak256\n        /* \"SVG-MVP_football_ERC1155/contracts/getPlayerSvg.sol\":2232:2315  keccak256(abi.encodePacked(\"Noah Katterbach\")) == keccak256(abi.encodePacked(name)) */\n      eq\n        /* \"SVG-MVP_football_ERC1155/contracts/getPlayerSvg.sol\":2228:2383  if (keccak256(abi.encodePacked(\"Noah Katterbach\")) == keccak256(abi.encodePacked(name)) ) {... */\n      iszero\n      tag_38\n      jumpi\n        /* \"SVG-MVP_football_ERC1155/contracts/getPlayerSvg.sol\":2353:2356  svg */\n      dup3\n        /* \"SVG-MVP_football_ERC1155/contracts/getPlayerSvg.sol\":2358:2372  noahKatterbach */\n      0x02\n      0x00\n      swap1\n      sload\n      swap1\n      0x0100\n      exp\n      swap1\n      div\n      0xffffffffffffffffffffffffffffffffffffffff\n      and\n        /* \"SVG-MVP_football_ERC1155/contracts/getPlayerSvg.sol\":2358:2376  noahKatterbach.svg */\n      0xffffffffffffffffffffffffffffffffffffffff\n      and\n      0xbd85f55f\n        /* \"SVG-MVP_football_ERC1155/contracts/getPlayerSvg.sol\":2358:2378  noahKatterbach.svg() */\n      mload(0x40)\n      dup2\n      0xffffffff\n      and\n      0xe0\n      shl\n      dup2\n      mstore\n      0x04\n      add\n      0x00\n      mload(0x40)\n      dup1\n      dup4\n      sub\n      dup2\n      dup7\n      dup1\n      extcodesize\n      iszero\n      dup1\n      iszero\n      tag_39\n      jumpi\n      0x00\n      dup1\n      revert\n    tag_39:\n      pop\n      gas\n      staticcall\n      iszero\n      dup1\n      iszero\n      tag_41\n      jumpi\n      returndatasize\n      0x00\n      dup1\n      returndatacopy\n      revert(0x00, returndatasize)\n    tag_41:\n      pop\n      pop\n      pop\n      pop\n      mload(0x40)\n      returndatasize\n      0x00\n      dup3\n      returndatacopy\n      returndatasize\n      not(0x1f)\n      0x1f\n      dup3\n      add\n      and\n      dup3\n      add\n      dup1\n      0x40\n      mstore\n      pop\n      dup2\n      add\n      swap1\n      tag_42\n      swap2\n      swap1\n      tag_43\n      jump\t// in\n    tag_42:\n        /* \"SVG-MVP_football_ERC1155/contracts/getPlayerSvg.sol\":2336:2379  abi.encodePacked(svg, noahKatterbach.svg()) */\n      add(0x20, mload(0x40))\n      tag_44\n      swap3\n      swap2\n      swap1\n      tag_45\n      jump\t// in\n    tag_44:\n      mload(0x40)\n      0x20\n      dup2\n      dup4\n      sub\n      sub\n      dup2\n      mstore\n      swap1\n      0x40\n      mstore\n        /* \"SVG-MVP_football_ERC1155/contracts/getPlayerSvg.sol\":2322:2380  _svg = string(abi.encodePacked(svg, noahKatterbach.svg())) */\n      swap1\n      pop\n        /* \"SVG-MVP_football_ERC1155/contracts/getPlayerSvg.sol\":2228:2383  if (keccak256(abi.encodePacked(\"Noah Katterbach\")) == keccak256(abi.encodePacked(name)) ) {... */\n    tag_38:\n        /* \"SVG-MVP_football_ERC1155/contracts/getPlayerSvg.sol\":2463:2467  name */\n      dup2\n        /* \"SVG-MVP_football_ERC1155/contracts/getPlayerSvg.sol\":2446:2468  abi.encodePacked(name) */\n      add(0x20, mload(0x40))\n      tag_46\n      swap2\n      swap1\n      tag_35\n      jump\t// in\n    tag_46:\n      mload(0x40)\n      0x20\n      dup2\n      dup4\n      sub\n      sub\n      dup2\n      mstore\n      swap1\n      0x40\n      mstore\n        /* \"SVG-MVP_football_ERC1155/contracts/getPlayerSvg.sol\":2436:2469  keccak256(abi.encodePacked(name)) */\n      dup1\n      mload\n      swap1\n      0x20\n      add\n      keccak256\n        /* \"SVG-MVP_football_ERC1155/contracts/getPlayerSvg.sol\":2399:2431  abi.encodePacked(\"Andy Pelmard\") */\n      add(0x20, mload(0x40))\n      tag_47\n      swap1\n      tag_48\n      jump\t// in\n    tag_47:\n      mload(0x40)\n      0x20\n      dup2\n      dup4\n      sub\n      sub\n      dup2\n      mstore\n      swap1\n      0x40\n      mstore\n        /* \"SVG-MVP_football_ERC1155/contracts/getPlayerSvg.sol\":2389:2432  keccak256(abi.encodePacked(\"Andy Pelmard\")) */\n      dup1\n      mload\n      swap1\n      0x20\n      add\n      keccak256\n        /* \"SVG-MVP_football_ERC1155/contracts/getPlayerSvg.sol\":2389:2469  keccak256(abi.encodePacked(\"Andy Pelmard\")) == keccak256(abi.encodePacked(name)) */\n      eq\n        /* \"SVG-MVP_football_ERC1155/contracts/getPlayerSvg.sol\":2385:2534  if (keccak256(abi.encodePacked(\"Andy Pelmard\")) == keccak256(abi.encodePacked(name)) ) {... */\n      iszero\n      tag_49\n      jumpi\n        /* \"SVG-MVP_football_ERC1155/contracts/getPlayerSvg.sol\":2507:2510  svg */\n      dup3\n        /* \"SVG-MVP_football_ERC1155/contracts/getPlayerSvg.sol\":2512:2523  andyPelmard */\n      0x00\n      dup1\n      sload\n      swap1\n      0x0100\n      exp\n      swap1\n      div\n      0xffffffffffffffffffffffffffffffffffffffff\n      and\n        /* \"SVG-MVP_football_ERC1155/contracts/getPlayerSvg.sol\":2512:2527  andyPelmard.svg */\n      0xffffffffffffffffffffffffffffffffffffffff\n      and\n      0xbd85f55f\n        /* \"SVG-MVP_football_ERC1155/contracts/getPlayerSvg.sol\":2512:2529  andyPelmard.svg() */\n      mload(0x40)\n      dup2\n      0xffffffff\n      and\n      0xe0\n      shl\n      dup2\n      mstore\n      0x04\n      add\n      0x00\n      mload(0x40)\n      dup1\n      dup4\n      sub\n      dup2\n      dup7\n      dup1\n      extcodesize\n      iszero\n      dup1\n      iszero\n      tag_50\n      jumpi\n      0x00\n      dup1\n      revert\n    tag_50:\n      pop\n      gas\n      staticcall\n      iszero\n      dup1\n      iszero\n      tag_52\n      jumpi\n      returndatasize\n      0x00\n      dup1\n      returndatacopy\n      revert(0x00, returndatasize)\n    tag_52:\n      pop\n      pop\n      pop\n      pop\n      mload(0x40)\n      returndatasize\n      0x00\n      dup3\n      returndatacopy\n      returndatasize\n      not(0x1f)\n      0x1f\n      dup3\n      add\n      and\n      dup3\n      add\n      dup1\n      0x40\n      mstore\n      pop\n      dup2\n      add\n      swap1\n      tag_53\n      swap2\n      swap1\n      tag_43\n      jump\t// in\n    tag_53:\n        /* \"SVG-MVP_football_ERC1155/contracts/getPlayerSvg.sol\":2490:2530  abi.encodePacked(svg, andyPelmard.svg()) */\n      add(0x20, mload(0x40))\n      tag_54\n      swap3\n      swap2\n      swap1\n      tag_45\n      jump\t// in\n    tag_54:\n      mload(0x40)\n      0x20\n      dup2\n      dup4\n      sub\n      sub\n      dup2\n      mstore\n      swap1\n      0x40\n      mstore\n        /* \"SVG-MVP_football_ERC1155/contracts/getPlayerSvg.sol\":2476:2531  _svg = string(abi.encodePacked(svg, andyPelmard.svg())) */\n      swap1\n      pop\n        /* \"SVG-MVP_football_ERC1155/contracts/getPlayerSvg.sol\":2385:2534  if (keccak256(abi.encodePacked(\"Andy Pelmard\")) == keccak256(abi.encodePacked(name)) ) {... */\n    tag_49:\n        /* \"SVG-MVP_football_ERC1155/contracts/getPlayerSvg.sol\":2615:2619  name */\n      dup2\n        /* \"SVG-MVP_football_ERC1155/contracts/getPlayerSvg.sol\":2598:2620  abi.encodePacked(name) */\n      add(0x20, mload(0x40))\n      tag_55\n      swap2\n      swap1\n      tag_35\n      jump\t// in\n    tag_55:\n      mload(0x40)\n      0x20\n      dup2\n      dup4\n      sub\n      sub\n      dup2\n      mstore\n      swap1\n      0x40\n      mstore\n        /* \"SVG-MVP_football_ERC1155/contracts/getPlayerSvg.sol\":2588:2621  keccak256(abi.encodePacked(name)) */\n      dup1\n      mload\n      swap1\n      0x20\n      add\n      keccak256\n        /* \"SVG-MVP_football_ERC1155/contracts/getPlayerSvg.sol\":2550:2583  abi.encodePacked(\"Pajtim Kasami\") */\n      add(0x20, mload(0x40))\n      tag_56\n      swap1\n      tag_57\n      jump\t// in\n    tag_56:\n      mload(0x40)\n      0x20\n      dup2\n      dup4\n      sub\n      sub\n      dup2\n      mstore\n      swap1\n      0x40\n      mstore\n        /* \"SVG-MVP_football_ERC1155/contracts/getPlayerSvg.sol\":2540:2584  keccak256(abi.encodePacked(\"Pajtim Kasami\")) */\n      dup1\n      mload\n      swap1\n      0x20\n      add\n      keccak256\n        /* \"SVG-MVP_football_ERC1155/contracts/getPlayerSvg.sol\":2540:2621  keccak256(abi.encodePacked(\"Pajtim Kasami\")) == keccak256(abi.encodePacked(name)) */\n      eq\n        /* \"SVG-MVP_football_ERC1155/contracts/getPlayerSvg.sol\":2536:2687  if (keccak256(abi.encodePacked(\"Pajtim Kasami\")) == keccak256(abi.encodePacked(name)) ) {... */\n      iszero\n      tag_58\n      jumpi\n        /* \"SVG-MVP_football_ERC1155/contracts/getPlayerSvg.sol\":2659:2662  svg */\n      dup3\n        /* \"SVG-MVP_football_ERC1155/contracts/getPlayerSvg.sol\":2664:2676  pajtimKasami */\n      0x03\n      0x00\n      swap1\n      sload\n      swap1\n      0x0100\n      exp\n      swap1\n      div\n      0xffffffffffffffffffffffffffffffffffffffff\n      and\n        /* \"SVG-MVP_football_ERC1155/contracts/getPlayerSvg.sol\":2664:2680  pajtimKasami.svg */\n      0xffffffffffffffffffffffffffffffffffffffff\n      and\n      0xbd85f55f\n        /* \"SVG-MVP_football_ERC1155/contracts/getPlayerSvg.sol\":2664:2682  pajtimKasami.svg() */\n      mload(0x40)\n      dup2\n      0xffffffff\n      and\n      0xe0\n      shl\n      dup2\n      mstore\n      0x04\n      add\n      0x00\n      mload(0x40)\n      dup1\n      dup4\n      sub\n      dup2\n      dup7\n      dup1\n      extcodesize\n      iszero\n      dup1\n      iszero\n      tag_59\n      jumpi\n      0x00\n      dup1\n      revert\n    tag_59:\n      pop\n      gas\n      staticcall\n      iszero\n      dup1\n      iszero\n      tag_61\n      jumpi\n      returndatasize\n      0x00\n      dup1\n      returndatacopy\n      revert(0x00, returndatasize)\n    tag_61:\n      pop\n      pop\n      pop\n      pop\n      mload(0x40)\n      returndatasize\n      0x00\n      dup3\n      returndatacopy\n      returndatasize\n      not(0x1f)\n      0x1f\n      dup3\n      add\n      and\n      dup3\n      add\n      dup1\n      0x40\n      mstore\n      pop\n      dup2\n      add\n      swap1\n      tag_62\n      swap2\n      swap1\n      tag_43\n      jump\t// in\n    tag_62:\n        /* \"SVG-MVP_football_ERC1155/contracts/getPlayerSvg.sol\":2642:2683  abi.encodePacked(svg, pajtimKasami.svg()) */\n      add(0x20, mload(0x40))\n      tag_63\n      swap3\n      swap2\n      swap1\n      tag_45\n      jump\t// in\n    tag_63:\n      mload(0x40)\n      0x20\n      dup2\n      dup4\n      sub\n      sub\n      dup2\n      mstore\n      swap1\n      0x40\n      mstore\n        /* \"SVG-MVP_football_ERC1155/contracts/getPlayerSvg.sol\":2628:2684  _svg = string(abi.encodePacked(svg, pajtimKasami.svg())) */\n      swap1\n      pop\n        /* \"SVG-MVP_football_ERC1155/contracts/getPlayerSvg.sol\":2536:2687  if (keccak256(abi.encodePacked(\"Pajtim Kasami\")) == keccak256(abi.encodePacked(name)) ) {... */\n    tag_58:\n        /* \"SVG-MVP_football_ERC1155/contracts/getPlayerSvg.sol\":2766:2770  name */\n      dup2\n        /* \"SVG-MVP_football_ERC1155/contracts/getPlayerSvg.sol\":2749:2771  abi.encodePacked(name) */\n      add(0x20, mload(0x40))\n      tag_64\n      swap2\n      swap1\n      tag_35\n      jump\t// in\n    tag_64:\n      mload(0x40)\n      0x20\n      dup2\n      dup4\n      sub\n      sub\n      dup2\n      mstore\n      swap1\n      0x40\n      mstore\n        /* \"SVG-MVP_football_ERC1155/contracts/getPlayerSvg.sol\":2739:2772  keccak256(abi.encodePacked(name)) */\n      dup1\n      mload\n      swap1\n      0x20\n      add\n      keccak256\n        /* \"SVG-MVP_football_ERC1155/contracts/getPlayerSvg.sol\":2703:2734  abi.encodePacked(\"Liam Millar\") */\n      add(0x20, mload(0x40))\n      tag_65\n      swap1\n      tag_66\n      jump\t// in\n    tag_65:\n      mload(0x40)\n      0x20\n      dup2\n      dup4\n      sub\n      sub\n      dup2\n      mstore\n      swap1\n      0x40\n      mstore\n        /* \"SVG-MVP_football_ERC1155/contracts/getPlayerSvg.sol\":2693:2735  keccak256(abi.encodePacked(\"Liam Millar\")) */\n      dup1\n      mload\n      swap1\n      0x20\n      add\n      keccak256\n        /* \"SVG-MVP_football_ERC1155/contracts/getPlayerSvg.sol\":2693:2772  keccak256(abi.encodePacked(\"Liam Millar\")) == keccak256(abi.encodePacked(name)) */\n      eq\n        /* \"SVG-MVP_football_ERC1155/contracts/getPlayerSvg.sol\":2689:2836  if (keccak256(abi.encodePacked(\"Liam Millar\")) == keccak256(abi.encodePacked(name)) ) {... */\n      iszero\n      tag_67\n      jumpi\n        /* \"SVG-MVP_football_ERC1155/contracts/getPlayerSvg.sol\":2810:2813  svg */\n      dup3\n        /* \"SVG-MVP_football_ERC1155/contracts/getPlayerSvg.sol\":2815:2825  liamMillar */\n      0x01\n      0x00\n      swap1\n      sload\n      swap1\n      0x0100\n      exp\n      swap1\n      div\n      0xffffffffffffffffffffffffffffffffffffffff\n      and\n        /* \"SVG-MVP_football_ERC1155/contracts/getPlayerSvg.sol\":2815:2829  liamMillar.svg */\n      0xffffffffffffffffffffffffffffffffffffffff\n      and\n      0xbd85f55f\n        /* \"SVG-MVP_football_ERC1155/contracts/getPlayerSvg.sol\":2815:2831  liamMillar.svg() */\n      mload(0x40)\n      dup2\n      0xffffffff\n      and\n      0xe0\n      shl\n      dup2\n      mstore\n      0x04\n      add\n      0x00\n      mload(0x40)\n      dup1\n      dup4\n      sub\n      dup2\n      dup7\n      dup1\n      extcodesize\n      iszero\n      dup1\n      iszero\n      tag_68\n      jumpi\n      0x00\n      dup1\n      revert\n    tag_68:\n      pop\n      gas\n      staticcall\n      iszero\n      dup1\n      iszero\n      tag_70\n      jumpi\n      returndatasize\n      0x00\n      dup1\n      returndatacopy\n      revert(0x00, returndatasize)\n    tag_70:\n      pop\n      pop\n      pop\n      pop\n      mload(0x40)\n      returndatasize\n      0x00\n      dup3\n      returndatacopy\n      returndatasize\n      not(0x1f)\n      0x1f\n      dup3\n      add\n      and\n      dup3\n      add\n      dup1\n      0x40\n      mstore\n      pop\n      dup2\n      add\n      swap1\n      tag_71\n      swap2\n      swap1\n      tag_43\n      jump\t// in\n    tag_71:\n        /* \"SVG-MVP_football_ERC1155/contracts/getPlayerSvg.sol\":2793:2832  abi.encodePacked(svg, liamMillar.svg()) */\n      add(0x20, mload(0x40))\n      tag_72\n      swap3\n      swap2\n      swap1\n      tag_45\n      jump\t// in\n    tag_72:\n      mload(0x40)\n      0x20\n      dup2\n      dup4\n      sub\n      sub\n      dup2\n      mstore\n      swap1\n      0x40\n      mstore\n        /* \"SVG-MVP_football_ERC1155/contracts/getPlayerSvg.sol\":2779:2833  _svg = string(abi.encodePacked(svg, liamMillar.svg())) */\n      swap1\n      pop\n        /* \"SVG-MVP_football_ERC1155/contracts/getPlayerSvg.sol\":2689:2836  if (keccak256(abi.encodePacked(\"Liam Millar\")) == keccak256(abi.encodePacked(name)) ) {... */\n    tag_67:\n        /* \"SVG-MVP_football_ERC1155/contracts/getPlayerSvg.sol\":2917:2921  name */\n      dup2\n        /* \"SVG-MVP_football_ERC1155/contracts/getPlayerSvg.sol\":2900:2922  abi.encodePacked(name) */\n      add(0x20, mload(0x40))\n      tag_73\n      swap2\n      swap1\n      tag_35\n      jump\t// in\n    tag_73:\n      mload(0x40)\n      0x20\n      dup2\n      dup4\n      sub\n      sub\n      dup2\n      mstore\n      swap1\n      0x40\n      mstore\n        /* \"SVG-MVP_football_ERC1155/contracts/getPlayerSvg.sol\":2890:2923  keccak256(abi.encodePacked(name)) */\n      dup1\n      mload\n      swap1\n      0x20\n      add\n      keccak256\n        /* \"SVG-MVP_football_ERC1155/contracts/getPlayerSvg.sol\":2852:2885  abi.encodePacked(\"Heinz Lindner\") */\n      add(0x20, mload(0x40))\n      tag_74\n      swap1\n      tag_75\n      jump\t// in\n    tag_74:\n      mload(0x40)\n      0x20\n      dup2\n      dup4\n      sub\n      sub\n      dup2\n      mstore\n      swap1\n      0x40\n      mstore\n        /* \"SVG-MVP_football_ERC1155/contracts/getPlayerSvg.sol\":2842:2886  keccak256(abi.encodePacked(\"Heinz Lindner\")) */\n      dup1\n      mload\n      swap1\n      0x20\n      add\n      keccak256\n        /* \"SVG-MVP_football_ERC1155/contracts/getPlayerSvg.sol\":2842:2923  keccak256(abi.encodePacked(\"Heinz Lindner\")) == keccak256(abi.encodePacked(name)) */\n      eq\n        /* \"SVG-MVP_football_ERC1155/contracts/getPlayerSvg.sol\":2838:2989  if (keccak256(abi.encodePacked(\"Heinz Lindner\")) == keccak256(abi.encodePacked(name)) ) {... */\n      iszero\n      tag_76\n      jumpi\n        /* \"SVG-MVP_football_ERC1155/contracts/getPlayerSvg.sol\":2961:2964  svg */\n      dup3\n        /* \"SVG-MVP_football_ERC1155/contracts/getPlayerSvg.sol\":2966:2978  heinzLindner */\n      0x04\n      0x00\n      swap1\n      sload\n      swap1\n      0x0100\n      exp\n      swap1\n      div\n      0xffffffffffffffffffffffffffffffffffffffff\n      and\n        /* \"SVG-MVP_football_ERC1155/contracts/getPlayerSvg.sol\":2966:2982  heinzLindner.svg */\n      0xffffffffffffffffffffffffffffffffffffffff\n      and\n      0xbd85f55f\n        /* \"SVG-MVP_football_ERC1155/contracts/getPlayerSvg.sol\":2966:2984  heinzLindner.svg() */\n      mload(0x40)\n      dup2\n      0xffffffff\n      and\n      0xe0\n      shl\n      dup2\n      mstore\n      0x04\n      add\n      0x00\n      mload(0x40)\n      dup1\n      dup4\n      sub\n      dup2\n      dup7\n      dup1\n      extcodesize\n      iszero\n      dup1\n      iszero\n      tag_77\n      jumpi\n      0x00\n      dup1\n      revert\n    tag_77:\n      pop\n      gas\n      staticcall\n      iszero\n      dup1\n      iszero\n      tag_79\n      jumpi\n      returndatasize\n      0x00\n      dup1\n      returndatacopy\n      revert(0x00, returndatasize)\n    tag_79:\n      pop\n      pop\n      pop\n      pop\n      mload(0x40)\n      returndatasize\n      0x00\n      dup3\n      returndatacopy\n      returndatasize\n      not(0x1f)\n      0x1f\n      dup3\n      add\n      and\n      dup3\n      add\n      dup1\n      0x40\n      mstore\n      pop\n      dup2\n      add\n      swap1\n      tag_80\n      swap2\n      swap1\n      tag_43\n      jump\t// in\n    tag_80:\n        /* \"SVG-MVP_football_ERC1155/contracts/getPlayerSvg.sol\":2944:2985  abi.encodePacked(svg, heinzLindner.svg()) */\n      add(0x20, mload(0x40))\n      tag_81\n      swap3\n      swap2\n      swap1\n      tag_45\n      jump\t// in\n    tag_81:\n      mload(0x40)\n      0x20\n      dup2\n      dup4\n      sub\n      sub\n      dup2\n      mstore\n      swap1\n      0x40\n      mstore\n        /* \"SVG-MVP_football_ERC1155/contracts/getPlayerSvg.sol\":2930:2986  _svg = string(abi.encodePacked(svg, heinzLindner.svg())) */\n      swap1\n      pop\n        /* \"SVG-MVP_football_ERC1155/contracts/getPlayerSvg.sol\":2838:2989  if (keccak256(abi.encodePacked(\"Heinz Lindner\")) == keccak256(abi.encodePacked(name)) ) {... */\n    tag_76:\n        /* \"SVG-MVP_football_ERC1155/contracts/getPlayerSvg.sol\":2124:2992  function addImage(string memory svg, string memory name) internal view returns (string memory _svg) {... */\n      swap3\n      swap2\n      pop\n      pop\n      jump\t// out\n        /* \"@openzeppelin/contracts/utils/Strings.sol\":328:1031  function toString(uint256 value) internal pure returns (string memory) {... */\n    tag_20:\n        /* \"@openzeppelin/contracts/utils/Strings.sol\":384:397  string memory */\n      0x60\n        /* \"@openzeppelin/contracts/utils/Strings.sol\":610:611  0 */\n      0x00\n        /* \"@openzeppelin/contracts/utils/Strings.sol\":601:606  value */\n      dup3\n        /* \"@openzeppelin/contracts/utils/Strings.sol\":601:611  value == 0 */\n      eq\n        /* \"@openzeppelin/contracts/utils/Strings.sol\":597:648  if (value == 0) {... */\n      iszero\n      tag_83\n      jumpi\n        /* \"@openzeppelin/contracts/utils/Strings.sol\":627:637  return \"0\" */\n      mload(0x40)\n      dup1\n      0x40\n      add\n      0x40\n      mstore\n      dup1\n      0x01\n      dup2\n      mstore\n      0x20\n      add\n      0x3000000000000000000000000000000000000000000000000000000000000000\n      dup2\n      mstore\n      pop\n      swap1\n      pop\n      jump(tag_82)\n        /* \"@openzeppelin/contracts/utils/Strings.sol\":597:648  if (value == 0) {... */\n    tag_83:\n        /* \"@openzeppelin/contracts/utils/Strings.sol\":657:669  uint256 temp */\n      0x00\n        /* \"@openzeppelin/contracts/utils/Strings.sol\":672:677  value */\n      dup3\n        /* \"@openzeppelin/contracts/utils/Strings.sol\":657:677  uint256 temp = value */\n      swap1\n      pop\n        /* \"@openzeppelin/contracts/utils/Strings.sol\":687:701  uint256 digits */\n      0x00\n        /* \"@openzeppelin/contracts/utils/Strings.sol\":711:786  while (temp != 0) {... */\n    tag_84:\n        /* \"@openzeppelin/contracts/utils/Strings.sol\":726:727  0 */\n      0x00\n        /* \"@openzeppelin/contracts/utils/Strings.sol\":718:722  temp */\n      dup3\n        /* \"@openzeppelin/contracts/utils/Strings.sol\":718:727  temp != 0 */\n      eq\n        /* \"@openzeppelin/contracts/utils/Strings.sol\":711:786  while (temp != 0) {... */\n      tag_85\n      jumpi\n        /* \"@openzeppelin/contracts/utils/Strings.sol\":743:751  digits++ */\n      dup1\n      dup1\n      tag_86\n      swap1\n      tag_87\n      jump\t// in\n    tag_86:\n      swap2\n      pop\n      pop\n        /* \"@openzeppelin/contracts/utils/Strings.sol\":773:775  10 */\n      0x0a\n        /* \"@openzeppelin/contracts/utils/Strings.sol\":765:775  temp /= 10 */\n      dup3\n      tag_88\n      swap2\n      swap1\n      tag_89\n      jump\t// in\n    tag_88:\n      swap2\n      pop\n        /* \"@openzeppelin/contracts/utils/Strings.sol\":711:786  while (temp != 0) {... */\n      jump(tag_84)\n    tag_85:\n        /* \"@openzeppelin/contracts/utils/Strings.sol\":795:814  bytes memory buffer */\n      0x00\n        /* \"@openzeppelin/contracts/utils/Strings.sol\":827:833  digits */\n      dup2\n        /* \"@openzeppelin/contracts/utils/Strings.sol\":817:834  new bytes(digits) */\n      0xffffffffffffffff\n      dup2\n      gt\n      iszero\n      tag_90\n      jumpi\n      tag_91\n      tag_92\n      jump\t// in\n    tag_91:\n    tag_90:\n      mload(0x40)\n      swap1\n      dup1\n      dup3\n      mstore\n      dup1\n      0x1f\n      add\n      not(0x1f)\n      and\n      0x20\n      add\n      dup3\n      add\n      0x40\n      mstore\n      dup1\n      iszero\n      tag_93\n      jumpi\n      dup2\n      0x20\n      add\n      0x01\n      dup3\n      mul\n      dup1\n      calldatasize\n      dup4\n      calldatacopy\n      dup1\n      dup3\n      add\n      swap2\n      pop\n      pop\n      swap1\n      pop\n    tag_93:\n      pop\n        /* \"@openzeppelin/contracts/utils/Strings.sol\":795:834  bytes memory buffer = new bytes(digits) */\n      swap1\n      pop\n        /* \"@openzeppelin/contracts/utils/Strings.sol\":844:994  while (value != 0) {... */\n    tag_94:\n        /* \"@openzeppelin/contracts/utils/Strings.sol\":860:861  0 */\n      0x00\n        /* \"@openzeppelin/contracts/utils/Strings.sol\":851:856  value */\n      dup6\n        /* \"@openzeppelin/contracts/utils/Strings.sol\":851:861  value != 0 */\n      eq\n        /* \"@openzeppelin/contracts/utils/Strings.sol\":844:994  while (value != 0) {... */\n      tag_95\n      jumpi\n        /* \"@openzeppelin/contracts/utils/Strings.sol\":887:888  1 */\n      0x01\n        /* \"@openzeppelin/contracts/utils/Strings.sol\":877:888  digits -= 1 */\n      dup3\n      tag_96\n      swap2\n      swap1\n      tag_97\n      jump\t// in\n    tag_96:\n      swap2\n      pop\n        /* \"@openzeppelin/contracts/utils/Strings.sol\":953:955  10 */\n      0x0a\n        /* \"@openzeppelin/contracts/utils/Strings.sol\":945:950  value */\n      dup6\n        /* \"@openzeppelin/contracts/utils/Strings.sol\":945:955  value % 10 */\n      tag_98\n      swap2\n      swap1\n      tag_99\n      jump\t// in\n    tag_98:\n        /* \"@openzeppelin/contracts/utils/Strings.sol\":932:934  48 */\n      0x30\n        /* \"@openzeppelin/contracts/utils/Strings.sol\":932:956  48 + uint256(value % 10) */\n      tag_100\n      swap2\n      swap1\n      tag_101\n      jump\t// in\n    tag_100:\n        /* \"@openzeppelin/contracts/utils/Strings.sol\":919:958  bytes1(uint8(48 + uint256(value % 10))) */\n      0xf8\n      shl\n        /* \"@openzeppelin/contracts/utils/Strings.sol\":902:908  buffer */\n      dup2\n        /* \"@openzeppelin/contracts/utils/Strings.sol\":909:915  digits */\n      dup4\n        /* \"@openzeppelin/contracts/utils/Strings.sol\":902:916  buffer[digits] */\n      dup2\n      mload\n      dup2\n      lt\n      tag_102\n      jumpi\n      tag_103\n      tag_104\n      jump\t// in\n    tag_103:\n    tag_102:\n      0x20\n      add\n      add\n        /* \"@openzeppelin/contracts/utils/Strings.sol\":902:958  buffer[digits] = bytes1(uint8(48 + uint256(value % 10))) */\n      swap1\n      not(0xffffffffffffffffffffffffffffffffffffffffffffffffffffffffffffff)\n      and\n      swap1\n      dup2\n      0x00\n      byte\n      swap1\n      mstore8\n      pop\n        /* \"@openzeppelin/contracts/utils/Strings.sol\":981:983  10 */\n      0x0a\n        /* \"@openzeppelin/contracts/utils/Strings.sol\":972:983  value /= 10 */\n      dup6\n      tag_105\n      swap2\n      swap1\n      tag_89\n      jump\t// in\n    tag_105:\n      swap5\n      pop\n        /* \"@openzeppelin/contracts/utils/Strings.sol\":844:994  while (value != 0) {... */\n      jump(tag_94)\n    tag_95:\n        /* \"@openzeppelin/contracts/utils/Strings.sol\":1017:1023  buffer */\n      dup1\n        /* \"@openzeppelin/contracts/utils/Strings.sol\":1003:1024  return string(buffer) */\n      swap4\n      pop\n      pop\n      pop\n      pop\n        /* \"@openzeppelin/contracts/utils/Strings.sol\":328:1031  function toString(uint256 value) internal pure returns (string memory) {... */\n    tag_82:\n      swap2\n      swap1\n      pop\n      jump\t// out\n        /* \"#utility.yul\":7:419   */\n    tag_107:\n        /* \"#utility.yul\":85:90   */\n      0x00\n        /* \"#utility.yul\":110:176   */\n      tag_109\n        /* \"#utility.yul\":126:175   */\n      tag_110\n        /* \"#utility.yul\":168:174   */\n      dup5\n        /* \"#utility.yul\":126:175   */\n      tag_111\n      jump\t// in\n    tag_110:\n        /* \"#utility.yul\":110:176   */\n      tag_112\n      jump\t// in\n    tag_109:\n        /* \"#utility.yul\":101:176   */\n      swap1\n      pop\n        /* \"#utility.yul\":199:205   */\n      dup3\n        /* \"#utility.yul\":192:197   */\n      dup2\n        /* \"#utility.yul\":185:206   */\n      mstore\n        /* \"#utility.yul\":237:241   */\n      0x20\n        /* \"#utility.yul\":230:235   */\n      dup2\n        /* \"#utility.yul\":226:242   */\n      add\n        /* \"#utility.yul\":275:278   */\n      dup5\n        /* \"#utility.yul\":266:272   */\n      dup5\n        /* \"#utility.yul\":261:264   */\n      dup5\n        /* \"#utility.yul\":257:273   */\n      add\n        /* \"#utility.yul\":254:279   */\n      gt\n        /* \"#utility.yul\":251:363   */\n      iszero\n      tag_113\n      jumpi\n        /* \"#utility.yul\":282:361   */\n      tag_114\n      tag_115\n      jump\t// in\n    tag_114:\n        /* \"#utility.yul\":251:363   */\n    tag_113:\n        /* \"#utility.yul\":372:413   */\n      tag_116\n        /* \"#utility.yul\":406:412   */\n      dup5\n        /* \"#utility.yul\":401:404   */\n      dup3\n        /* \"#utility.yul\":396:399   */\n      dup6\n        /* \"#utility.yul\":372:413   */\n      tag_117\n      jump\t// in\n    tag_116:\n        /* \"#utility.yul\":91:419   */\n      pop\n        /* \"#utility.yul\":7:419   */\n      swap4\n      swap3\n      pop\n      pop\n      pop\n      jump\t// out\n        /* \"#utility.yul\":425:846   */\n    tag_118:\n        /* \"#utility.yul\":514:519   */\n      0x00\n        /* \"#utility.yul\":539:605   */\n      tag_120\n        /* \"#utility.yul\":555:604   */\n      tag_121\n        /* \"#utility.yul\":597:603   */\n      dup5\n        /* \"#utility.yul\":555:604   */\n      tag_111\n      jump\t// in\n    tag_121:\n        /* \"#utility.yul\":539:605   */\n      tag_112\n      jump\t// in\n    tag_120:\n        /* \"#utility.yul\":530:605   */\n      swap1\n      pop\n        /* \"#utility.yul\":628:634   */\n      dup3\n        /* \"#utility.yul\":621:626   */\n      dup2\n        /* \"#utility.yul\":614:635   */\n      mstore\n        /* \"#utility.yul\":666:670   */\n      0x20\n        /* \"#utility.yul\":659:664   */\n      dup2\n        /* \"#utility.yul\":655:671   */\n      add\n        /* \"#utility.yul\":704:707   */\n      dup5\n        /* \"#utility.yul\":695:701   */\n      dup5\n        /* \"#utility.yul\":690:693   */\n      dup5\n        /* \"#utility.yul\":686:702   */\n      add\n        /* \"#utility.yul\":683:708   */\n      gt\n        /* \"#utility.yul\":680:792   */\n      iszero\n      tag_122\n      jumpi\n        /* \"#utility.yul\":711:790   */\n      tag_123\n      tag_115\n      jump\t// in\n    tag_123:\n        /* \"#utility.yul\":680:792   */\n    tag_122:\n        /* \"#utility.yul\":801:840   */\n      tag_124\n        /* \"#utility.yul\":833:839   */\n      dup5\n        /* \"#utility.yul\":828:831   */\n      dup3\n        /* \"#utility.yul\":823:826   */\n      dup6\n        /* \"#utility.yul\":801:840   */\n      tag_125\n      jump\t// in\n    tag_124:\n        /* \"#utility.yul\":520:846   */\n      pop\n        /* \"#utility.yul\":425:846   */\n      swap4\n      swap3\n      pop\n      pop\n      pop\n      jump\t// out\n        /* \"#utility.yul\":866:1206   */\n    tag_126:\n        /* \"#utility.yul\":922:927   */\n      0x00\n        /* \"#utility.yul\":971:974   */\n      dup3\n        /* \"#utility.yul\":964:968   */\n      0x1f\n        /* \"#utility.yul\":956:962   */\n      dup4\n        /* \"#utility.yul\":952:969   */\n      add\n        /* \"#utility.yul\":948:975   */\n      slt\n        /* \"#utility.yul\":938:1060   */\n      tag_128\n      jumpi\n        /* \"#utility.yul\":979:1058   */\n      tag_129\n      tag_130\n      jump\t// in\n    tag_129:\n        /* \"#utility.yul\":938:1060   */\n    tag_128:\n        /* \"#utility.yul\":1096:1102   */\n      dup2\n        /* \"#utility.yul\":1083:1103   */\n      calldataload\n        /* \"#utility.yul\":1121:1200   */\n      tag_131\n        /* \"#utility.yul\":1196:1199   */\n      dup5\n        /* \"#utility.yul\":1188:1194   */\n      dup3\n        /* \"#utility.yul\":1181:1185   */\n      0x20\n        /* \"#utility.yul\":1173:1179   */\n      dup7\n        /* \"#utility.yul\":1169:1186   */\n      add\n        /* \"#utility.yul\":1121:1200   */\n      tag_107\n      jump\t// in\n    tag_131:\n        /* \"#utility.yul\":1112:1200   */\n      swap2\n      pop\n        /* \"#utility.yul\":928:1206   */\n      pop\n        /* \"#utility.yul\":866:1206   */\n      swap3\n      swap2\n      pop\n      pop\n      jump\t// out\n        /* \"#utility.yul\":1226:1581   */\n    tag_132:\n        /* \"#utility.yul\":1293:1298   */\n      0x00\n        /* \"#utility.yul\":1342:1345   */\n      dup3\n        /* \"#utility.yul\":1335:1339   */\n      0x1f\n        /* \"#utility.yul\":1327:1333   */\n      dup4\n        /* \"#utility.yul\":1323:1340   */\n      add\n        /* \"#utility.yul\":1319:1346   */\n      slt\n        /* \"#utility.yul\":1309:1431   */\n      tag_134\n      jumpi\n        /* \"#utility.yul\":1350:1429   */\n      tag_135\n      tag_130\n      jump\t// in\n    tag_135:\n        /* \"#utility.yul\":1309:1431   */\n    tag_134:\n        /* \"#utility.yul\":1460:1466   */\n      dup2\n        /* \"#utility.yul\":1454:1467   */\n      mload\n        /* \"#utility.yul\":1485:1575   */\n      tag_136\n        /* \"#utility.yul\":1571:1574   */\n      dup5\n        /* \"#utility.yul\":1563:1569   */\n      dup3\n        /* \"#utility.yul\":1556:1560   */\n      0x20\n        /* \"#utility.yul\":1548:1554   */\n      dup7\n        /* \"#utility.yul\":1544:1561   */\n      add\n        /* \"#utility.yul\":1485:1575   */\n      tag_118\n      jump\t// in\n    tag_136:\n        /* \"#utility.yul\":1476:1575   */\n      swap2\n      pop\n        /* \"#utility.yul\":1299:1581   */\n      pop\n        /* \"#utility.yul\":1226:1581   */\n      swap3\n      swap2\n      pop\n      pop\n      jump\t// out\n        /* \"#utility.yul\":1587:1726   */\n    tag_137:\n        /* \"#utility.yul\":1633:1638   */\n      0x00\n        /* \"#utility.yul\":1671:1677   */\n      dup2\n        /* \"#utility.yul\":1658:1678   */\n      calldataload\n        /* \"#utility.yul\":1649:1678   */\n      swap1\n      pop\n        /* \"#utility.yul\":1687:1720   */\n      tag_139\n        /* \"#utility.yul\":1714:1719   */\n      dup2\n        /* \"#utility.yul\":1687:1720   */\n      tag_140\n      jump\t// in\n    tag_139:\n        /* \"#utility.yul\":1587:1726   */\n      swap3\n      swap2\n      pop\n      pop\n      jump\t// out\n        /* \"#utility.yul\":1732:2256   */\n    tag_43:\n        /* \"#utility.yul\":1812:1818   */\n      0x00\n        /* \"#utility.yul\":1861:1863   */\n      0x20\n        /* \"#utility.yul\":1849:1858   */\n      dup3\n        /* \"#utility.yul\":1840:1847   */\n      dup5\n        /* \"#utility.yul\":1836:1859   */\n      sub\n        /* \"#utility.yul\":1832:1864   */\n      slt\n        /* \"#utility.yul\":1829:1948   */\n      iszero\n      tag_142\n      jumpi\n        /* \"#utility.yul\":1867:1946   */\n      tag_143\n      tag_144\n      jump\t// in\n    tag_143:\n        /* \"#utility.yul\":1829:1948   */\n    tag_142:\n        /* \"#utility.yul\":2008:2009   */\n      0x00\n        /* \"#utility.yul\":1997:2006   */\n      dup3\n        /* \"#utility.yul\":1993:2010   */\n      add\n        /* \"#utility.yul\":1987:2011   */\n      mload\n        /* \"#utility.yul\":2038:2056   */\n      0xffffffffffffffff\n        /* \"#utility.yul\":2030:2036   */\n      dup2\n        /* \"#utility.yul\":2027:2057   */\n      gt\n        /* \"#utility.yul\":2024:2141   */\n      iszero\n      tag_145\n      jumpi\n        /* \"#utility.yul\":2060:2139   */\n      tag_146\n      tag_147\n      jump\t// in\n    tag_146:\n        /* \"#utility.yul\":2024:2141   */\n    tag_145:\n        /* \"#utility.yul\":2165:2239   */\n      tag_148\n        /* \"#utility.yul\":2231:2238   */\n      dup5\n        /* \"#utility.yul\":2222:2228   */\n      dup3\n        /* \"#utility.yul\":2211:2220   */\n      dup6\n        /* \"#utility.yul\":2207:2229   */\n      add\n        /* \"#utility.yul\":2165:2239   */\n      tag_132\n      jump\t// in\n    tag_148:\n        /* \"#utility.yul\":2155:2239   */\n      swap2\n      pop\n        /* \"#utility.yul\":1958:2249   */\n      pop\n        /* \"#utility.yul\":1732:2256   */\n      swap3\n      swap2\n      pop\n      pop\n      jump\t// out\n        /* \"#utility.yul\":2262:3533   */\n    tag_6:\n        /* \"#utility.yul\":2377:2383   */\n      0x00\n        /* \"#utility.yul\":2385:2391   */\n      dup1\n        /* \"#utility.yul\":2393:2399   */\n      0x00\n        /* \"#utility.yul\":2401:2407   */\n      dup1\n        /* \"#utility.yul\":2409:2415   */\n      0x00\n        /* \"#utility.yul\":2458:2461   */\n      0xa0\n        /* \"#utility.yul\":2446:2455   */\n      dup7\n        /* \"#utility.yul\":2437:2444   */\n      dup9\n        /* \"#utility.yul\":2433:2456   */\n      sub\n        /* \"#utility.yul\":2429:2462   */\n      slt\n        /* \"#utility.yul\":2426:2546   */\n      iszero\n      tag_150\n      jumpi\n        /* \"#utility.yul\":2465:2544   */\n      tag_151\n      tag_144\n      jump\t// in\n    tag_151:\n        /* \"#utility.yul\":2426:2546   */\n    tag_150:\n        /* \"#utility.yul\":2585:2586   */\n      0x00\n        /* \"#utility.yul\":2610:2663   */\n      tag_152\n        /* \"#utility.yul\":2655:2662   */\n      dup9\n        /* \"#utility.yul\":2646:2652   */\n      dup3\n        /* \"#utility.yul\":2635:2644   */\n      dup10\n        /* \"#utility.yul\":2631:2653   */\n      add\n        /* \"#utility.yul\":2610:2663   */\n      tag_137\n      jump\t// in\n    tag_152:\n        /* \"#utility.yul\":2600:2663   */\n      swap6\n      pop\n        /* \"#utility.yul\":2556:2673   */\n      pop\n        /* \"#utility.yul\":2712:2714   */\n      0x20\n        /* \"#utility.yul\":2738:2791   */\n      tag_153\n        /* \"#utility.yul\":2783:2790   */\n      dup9\n        /* \"#utility.yul\":2774:2780   */\n      dup3\n        /* \"#utility.yul\":2763:2772   */\n      dup10\n        /* \"#utility.yul\":2759:2781   */\n      add\n        /* \"#utility.yul\":2738:2791   */\n      tag_137\n      jump\t// in\n    tag_153:\n        /* \"#utility.yul\":2728:2791   */\n      swap5\n      pop\n        /* \"#utility.yul\":2683:2801   */\n      pop\n        /* \"#utility.yul\":2840:2842   */\n      0x40\n        /* \"#utility.yul\":2866:2919   */\n      tag_154\n        /* \"#utility.yul\":2911:2918   */\n      dup9\n        /* \"#utility.yul\":2902:2908   */\n      dup3\n        /* \"#utility.yul\":2891:2900   */\n      dup10\n        /* \"#utility.yul\":2887:2909   */\n      add\n        /* \"#utility.yul\":2866:2919   */\n      tag_137\n      jump\t// in\n    tag_154:\n        /* \"#utility.yul\":2856:2919   */\n      swap4\n      pop\n        /* \"#utility.yul\":2811:2929   */\n      pop\n        /* \"#utility.yul\":2996:2998   */\n      0x60\n        /* \"#utility.yul\":2985:2994   */\n      dup7\n        /* \"#utility.yul\":2981:2999   */\n      add\n        /* \"#utility.yul\":2968:3000   */\n      calldataload\n        /* \"#utility.yul\":3027:3045   */\n      0xffffffffffffffff\n        /* \"#utility.yul\":3019:3025   */\n      dup2\n        /* \"#utility.yul\":3016:3046   */\n      gt\n        /* \"#utility.yul\":3013:3130   */\n      iszero\n      tag_155\n      jumpi\n        /* \"#utility.yul\":3049:3128   */\n      tag_156\n      tag_147\n      jump\t// in\n    tag_156:\n        /* \"#utility.yul\":3013:3130   */\n    tag_155:\n        /* \"#utility.yul\":3154:3217   */\n      tag_157\n        /* \"#utility.yul\":3209:3216   */\n      dup9\n        /* \"#utility.yul\":3200:3206   */\n      dup3\n        /* \"#utility.yul\":3189:3198   */\n      dup10\n        /* \"#utility.yul\":3185:3207   */\n      add\n        /* \"#utility.yul\":3154:3217   */\n      tag_126\n      jump\t// in\n    tag_157:\n        /* \"#utility.yul\":3144:3217   */\n      swap3\n      pop\n        /* \"#utility.yul\":2939:3227   */\n      pop\n        /* \"#utility.yul\":3294:3297   */\n      0x80\n        /* \"#utility.yul\":3283:3292   */\n      dup7\n        /* \"#utility.yul\":3279:3298   */\n      add\n        /* \"#utility.yul\":3266:3299   */\n      calldataload\n        /* \"#utility.yul\":3326:3344   */\n      0xffffffffffffffff\n        /* \"#utility.yul\":3318:3324   */\n      dup2\n        /* \"#utility.yul\":3315:3345   */\n      gt\n        /* \"#utility.yul\":3312:3429   */\n      iszero\n      tag_158\n      jumpi\n        /* \"#utility.yul\":3348:3427   */\n      tag_159\n      tag_147\n      jump\t// in\n    tag_159:\n        /* \"#utility.yul\":3312:3429   */\n    tag_158:\n        /* \"#utility.yul\":3453:3516   */\n      tag_160\n        /* \"#utility.yul\":3508:3515   */\n      dup9\n        /* \"#utility.yul\":3499:3505   */\n      dup3\n        /* \"#utility.yul\":3488:3497   */\n      dup10\n        /* \"#utility.yul\":3484:3506   */\n      add\n        /* \"#utility.yul\":3453:3516   */\n      tag_126\n      jump\t// in\n    tag_160:\n        /* \"#utility.yul\":3443:3516   */\n      swap2\n      pop\n        /* \"#utility.yul\":3237:3526   */\n      pop\n        /* \"#utility.yul\":2262:3533   */\n      swap3\n      swap6\n      pop\n      swap3\n      swap6\n      swap1\n      swap4\n      pop\n      jump\t// out\n        /* \"#utility.yul\":3539:3903   */\n    tag_161:\n        /* \"#utility.yul\":3627:3630   */\n      0x00\n        /* \"#utility.yul\":3655:3694   */\n      tag_163\n        /* \"#utility.yul\":3688:3693   */\n      dup3\n        /* \"#utility.yul\":3655:3694   */\n      tag_164\n      jump\t// in\n    tag_163:\n        /* \"#utility.yul\":3710:3781   */\n      tag_165\n        /* \"#utility.yul\":3774:3780   */\n      dup2\n        /* \"#utility.yul\":3769:3772   */\n      dup6\n        /* \"#utility.yul\":3710:3781   */\n      tag_166\n      jump\t// in\n    tag_165:\n        /* \"#utility.yul\":3703:3781   */\n      swap4\n      pop\n        /* \"#utility.yul\":3790:3842   */\n      tag_167\n        /* \"#utility.yul\":3835:3841   */\n      dup2\n        /* \"#utility.yul\":3830:3833   */\n      dup6\n        /* \"#utility.yul\":3823:3827   */\n      0x20\n        /* \"#utility.yul\":3816:3821   */\n      dup7\n        /* \"#utility.yul\":3812:3828   */\n      add\n        /* \"#utility.yul\":3790:3842   */\n      tag_125\n      jump\t// in\n    tag_167:\n        /* \"#utility.yul\":3867:3896   */\n      tag_168\n        /* \"#utility.yul\":3889:3895   */\n      dup2\n        /* \"#utility.yul\":3867:3896   */\n      tag_169\n      jump\t// in\n    tag_168:\n        /* \"#utility.yul\":3862:3865   */\n      dup5\n        /* \"#utility.yul\":3858:3897   */\n      add\n        /* \"#utility.yul\":3851:3897   */\n      swap2\n      pop\n        /* \"#utility.yul\":3631:3903   */\n      pop\n        /* \"#utility.yul\":3539:3903   */\n      swap3\n      swap2\n      pop\n      pop\n      jump\t// out\n        /* \"#utility.yul\":3909:4286   */\n    tag_170:\n        /* \"#utility.yul\":4015:4018   */\n      0x00\n        /* \"#utility.yul\":4043:4082   */\n      tag_172\n        /* \"#utility.yul\":4076:4081   */\n      dup3\n        /* \"#utility.yul\":4043:4082   */\n      tag_164\n      jump\t// in\n    tag_172:\n        /* \"#utility.yul\":4098:4187   */\n      tag_173\n        /* \"#utility.yul\":4180:4186   */\n      dup2\n        /* \"#utility.yul\":4175:4178   */\n      dup6\n        /* \"#utility.yul\":4098:4187   */\n      tag_174\n      jump\t// in\n    tag_173:\n        /* \"#utility.yul\":4091:4187   */\n      swap4\n      pop\n        /* \"#utility.yul\":4196:4248   */\n      tag_175\n        /* \"#utility.yul\":4241:4247   */\n      dup2\n        /* \"#utility.yul\":4236:4239   */\n      dup6\n        /* \"#utility.yul\":4229:4233   */\n      0x20\n        /* \"#utility.yul\":4222:4227   */\n      dup7\n        /* \"#utility.yul\":4218:4234   */\n      add\n        /* \"#utility.yul\":4196:4248   */\n      tag_125\n      jump\t// in\n    tag_175:\n        /* \"#utility.yul\":4273:4279   */\n      dup1\n        /* \"#utility.yul\":4268:4271   */\n      dup5\n        /* \"#utility.yul\":4264:4280   */\n      add\n        /* \"#utility.yul\":4257:4280   */\n      swap2\n      pop\n        /* \"#utility.yul\":4019:4286   */\n      pop\n        /* \"#utility.yul\":3909:4286   */\n      swap3\n      swap2\n      pop\n      pop\n      jump\t// out\n        /* \"#utility.yul\":4292:4694   */\n    tag_176:\n        /* \"#utility.yul\":4452:4455   */\n      0x00\n        /* \"#utility.yul\":4473:4558   */\n      tag_178\n        /* \"#utility.yul\":4555:4557   */\n      0x0d\n        /* \"#utility.yul\":4550:4553   */\n      dup4\n        /* \"#utility.yul\":4473:4558   */\n      tag_174\n      jump\t// in\n    tag_178:\n        /* \"#utility.yul\":4466:4558   */\n      swap2\n      pop\n        /* \"#utility.yul\":4567:4660   */\n      tag_179\n        /* \"#utility.yul\":4656:4659   */\n      dup3\n        /* \"#utility.yul\":4567:4660   */\n      tag_180\n      jump\t// in\n    tag_179:\n        /* \"#utility.yul\":4685:4687   */\n      0x0d\n        /* \"#utility.yul\":4680:4683   */\n      dup3\n        /* \"#utility.yul\":4676:4688   */\n      add\n        /* \"#utility.yul\":4669:4688   */\n      swap1\n      pop\n        /* \"#utility.yul\":4292:4694   */\n      swap2\n      swap1\n      pop\n      jump\t// out\n        /* \"#utility.yul\":4700:5100   */\n    tag_181:\n        /* \"#utility.yul\":4860:4863   */\n      0x00\n        /* \"#utility.yul\":4881:4965   */\n      tag_183\n        /* \"#utility.yul\":4963:4964   */\n      0x07\n        /* \"#utility.yul\":4958:4961   */\n      dup4\n        /* \"#utility.yul\":4881:4965   */\n      tag_174\n      jump\t// in\n    tag_183:\n        /* \"#utility.yul\":4874:4965   */\n      swap2\n      pop\n        /* \"#utility.yul\":4974:5067   */\n      tag_184\n        /* \"#utility.yul\":5063:5066   */\n      dup3\n        /* \"#utility.yul\":4974:5067   */\n      tag_185\n      jump\t// in\n    tag_184:\n        /* \"#utility.yul\":5092:5093   */\n      0x07\n        /* \"#utility.yul\":5087:5090   */\n      dup3\n        /* \"#utility.yul\":5083:5094   */\n      add\n        /* \"#utility.yul\":5076:5094   */\n      swap1\n      pop\n        /* \"#utility.yul\":4700:5100   */\n      swap2\n      swap1\n      pop\n      jump\t// out\n        /* \"#utility.yul\":5106:5508   */\n    tag_186:\n        /* \"#utility.yul\":5266:5269   */\n      0x00\n        /* \"#utility.yul\":5287:5372   */\n      tag_188\n        /* \"#utility.yul\":5369:5371   */\n      0x42\n        /* \"#utility.yul\":5364:5367   */\n      dup4\n        /* \"#utility.yul\":5287:5372   */\n      tag_174\n      jump\t// in\n    tag_188:\n        /* \"#utility.yul\":5280:5372   */\n      swap2\n      pop\n        /* \"#utility.yul\":5381:5474   */\n      tag_189\n        /* \"#utility.yul\":5470:5473   */\n      dup3\n        /* \"#utility.yul\":5381:5474   */\n      tag_190\n      jump\t// in\n    tag_189:\n        /* \"#utility.yul\":5499:5501   */\n      0x42\n        /* \"#utility.yul\":5494:5497   */\n      dup3\n        /* \"#utility.yul\":5490:5502   */\n      add\n        /* \"#utility.yul\":5483:5502   */\n      swap1\n      pop\n        /* \"#utility.yul\":5106:5508   */\n      swap2\n      swap1\n      pop\n      jump\t// out\n        /* \"#utility.yul\":5514:5916   */\n    tag_191:\n        /* \"#utility.yul\":5674:5677   */\n      0x00\n        /* \"#utility.yul\":5695:5780   */\n      tag_193\n        /* \"#utility.yul\":5777:5779   */\n      0x1d\n        /* \"#utility.yul\":5772:5775   */\n      dup4\n        /* \"#utility.yul\":5695:5780   */\n      tag_174\n      jump\t// in\n    tag_193:\n        /* \"#utility.yul\":5688:5780   */\n      swap2\n      pop\n        /* \"#utility.yul\":5789:5882   */\n      tag_194\n        /* \"#utility.yul\":5878:5881   */\n      dup3\n        /* \"#utility.yul\":5789:5882   */\n      tag_195\n      jump\t// in\n    tag_194:\n        /* \"#utility.yul\":5907:5909   */\n      0x1d\n        /* \"#utility.yul\":5902:5905   */\n      dup3\n        /* \"#utility.yul\":5898:5910   */\n      add\n        /* \"#utility.yul\":5891:5910   */\n      swap1\n      pop\n        /* \"#utility.yul\":5514:5916   */\n      swap2\n      swap1\n      pop\n      jump\t// out\n        /* \"#utility.yul\":5922:6324   */\n    tag_196:\n        /* \"#utility.yul\":6082:6085   */\n      0x00\n        /* \"#utility.yul\":6103:6188   */\n      tag_198\n        /* \"#utility.yul\":6185:6187   */\n      0x20\n        /* \"#utility.yul\":6180:6183   */\n      dup4\n        /* \"#utility.yul\":6103:6188   */\n      tag_174\n      jump\t// in\n    tag_198:\n        /* \"#utility.yul\":6096:6188   */\n      swap2\n      pop\n        /* \"#utility.yul\":6197:6290   */\n      tag_199\n        /* \"#utility.yul\":6286:6289   */\n      dup3\n        /* \"#utility.yul\":6197:6290   */\n      tag_200\n      jump\t// in\n    tag_199:\n        /* \"#utility.yul\":6315:6317   */\n      0x20\n        /* \"#utility.yul\":6310:6313   */\n      dup3\n        /* \"#utility.yul\":6306:6318   */\n      add\n        /* \"#utility.yul\":6299:6318   */\n      swap1\n      pop\n        /* \"#utility.yul\":5922:6324   */\n      swap2\n      swap1\n      pop\n      jump\t// out\n        /* \"#utility.yul\":6330:6732   */\n    tag_201:\n        /* \"#utility.yul\":6490:6493   */\n      0x00\n        /* \"#utility.yul\":6511:6596   */\n      tag_203\n        /* \"#utility.yul\":6593:6595   */\n      0x1d\n        /* \"#utility.yul\":6588:6591   */\n      dup4\n        /* \"#utility.yul\":6511:6596   */\n      tag_174\n      jump\t// in\n    tag_203:\n        /* \"#utility.yul\":6504:6596   */\n      swap2\n      pop\n        /* \"#utility.yul\":6605:6698   */\n      tag_204\n        /* \"#utility.yul\":6694:6697   */\n      dup3\n        /* \"#utility.yul\":6605:6698   */\n      tag_205\n      jump\t// in\n    tag_204:\n        /* \"#utility.yul\":6723:6725   */\n      0x1d\n        /* \"#utility.yul\":6718:6721   */\n      dup3\n        /* \"#utility.yul\":6714:6726   */\n      add\n        /* \"#utility.yul\":6707:6726   */\n      swap1\n      pop\n        /* \"#utility.yul\":6330:6732   */\n      swap2\n      swap1\n      pop\n      jump\t// out\n        /* \"#utility.yul\":6738:7140   */\n    tag_206:\n        /* \"#utility.yul\":6898:6901   */\n      0x00\n        /* \"#utility.yul\":6919:7004   */\n      tag_208\n        /* \"#utility.yul\":7001:7003   */\n      0x20\n        /* \"#utility.yul\":6996:6999   */\n      dup4\n        /* \"#utility.yul\":6919:7004   */\n      tag_174\n      jump\t// in\n    tag_208:\n        /* \"#utility.yul\":6912:7004   */\n      swap2\n      pop\n        /* \"#utility.yul\":7013:7106   */\n      tag_209\n        /* \"#utility.yul\":7102:7105   */\n      dup3\n        /* \"#utility.yul\":7013:7106   */\n      tag_210\n      jump\t// in\n    tag_209:\n        /* \"#utility.yul\":7131:7133   */\n      0x20\n        /* \"#utility.yul\":7126:7129   */\n      dup3\n        /* \"#utility.yul\":7122:7134   */\n      add\n        /* \"#utility.yul\":7115:7134   */\n      swap1\n      pop\n        /* \"#utility.yul\":6738:7140   */\n      swap2\n      swap1\n      pop\n      jump\t// out\n        /* \"#utility.yul\":7146:7548   */\n    tag_211:\n        /* \"#utility.yul\":7306:7309   */\n      0x00\n        /* \"#utility.yul\":7327:7412   */\n      tag_213\n        /* \"#utility.yul\":7409:7411   */\n      0x0b\n        /* \"#utility.yul\":7404:7407   */\n      dup4\n        /* \"#utility.yul\":7327:7412   */\n      tag_174\n      jump\t// in\n    tag_213:\n        /* \"#utility.yul\":7320:7412   */\n      swap2\n      pop\n        /* \"#utility.yul\":7421:7514   */\n      tag_214\n        /* \"#utility.yul\":7510:7513   */\n      dup3\n        /* \"#utility.yul\":7421:7514   */\n      tag_215\n      jump\t// in\n    tag_214:\n        /* \"#utility.yul\":7539:7541   */\n      0x0b\n        /* \"#utility.yul\":7534:7537   */\n      dup3\n        /* \"#utility.yul\":7530:7542   */\n      add\n        /* \"#utility.yul\":7523:7542   */\n      swap1\n      pop\n        /* \"#utility.yul\":7146:7548   */\n      swap2\n      swap1\n      pop\n      jump\t// out\n        /* \"#utility.yul\":7554:7954   */\n    tag_216:\n        /* \"#utility.yul\":7714:7717   */\n      0x00\n        /* \"#utility.yul\":7735:7819   */\n      tag_218\n        /* \"#utility.yul\":7817:7818   */\n      0x08\n        /* \"#utility.yul\":7812:7815   */\n      dup4\n        /* \"#utility.yul\":7735:7819   */\n      tag_174\n      jump\t// in\n    tag_218:\n        /* \"#utility.yul\":7728:7819   */\n      swap2\n      pop\n        /* \"#utility.yul\":7828:7921   */\n      tag_219\n        /* \"#utility.yul\":7917:7920   */\n      dup3\n        /* \"#utility.yul\":7828:7921   */\n      tag_220\n      jump\t// in\n    tag_219:\n        /* \"#utility.yul\":7946:7947   */\n      0x08\n        /* \"#utility.yul\":7941:7944   */\n      dup3\n        /* \"#utility.yul\":7937:7948   */\n      add\n        /* \"#utility.yul\":7930:7948   */\n      swap1\n      pop\n        /* \"#utility.yul\":7554:7954   */\n      swap2\n      swap1\n      pop\n      jump\t// out\n        /* \"#utility.yul\":7960:8360   */\n    tag_221:\n        /* \"#utility.yul\":8120:8123   */\n      0x00\n        /* \"#utility.yul\":8141:8225   */\n      tag_223\n        /* \"#utility.yul\":8223:8224   */\n      0x04\n        /* \"#utility.yul\":8218:8221   */\n      dup4\n        /* \"#utility.yul\":8141:8225   */\n      tag_174\n      jump\t// in\n    tag_223:\n        /* \"#utility.yul\":8134:8225   */\n      swap2\n      pop\n        /* \"#utility.yul\":8234:8327   */\n      tag_224\n        /* \"#utility.yul\":8323:8326   */\n      dup3\n        /* \"#utility.yul\":8234:8327   */\n      tag_225\n      jump\t// in\n    tag_224:\n        /* \"#utility.yul\":8352:8353   */\n      0x04\n        /* \"#utility.yul\":8347:8350   */\n      dup3\n        /* \"#utility.yul\":8343:8354   */\n      add\n        /* \"#utility.yul\":8336:8354   */\n      swap1\n      pop\n        /* \"#utility.yul\":7960:8360   */\n      swap2\n      swap1\n      pop\n      jump\t// out\n        /* \"#utility.yul\":8366:8768   */\n    tag_226:\n        /* \"#utility.yul\":8526:8529   */\n      0x00\n        /* \"#utility.yul\":8547:8632   */\n      tag_228\n        /* \"#utility.yul\":8629:8631   */\n      0x0d\n        /* \"#utility.yul\":8624:8627   */\n      dup4\n        /* \"#utility.yul\":8547:8632   */\n      tag_174\n      jump\t// in\n    tag_228:\n        /* \"#utility.yul\":8540:8632   */\n      swap2\n      pop\n        /* \"#utility.yul\":8641:8734   */\n      tag_229\n        /* \"#utility.yul\":8730:8733   */\n      dup3\n        /* \"#utility.yul\":8641:8734   */\n      tag_230\n      jump\t// in\n    tag_229:\n        /* \"#utility.yul\":8759:8761   */\n      0x0d\n        /* \"#utility.yul\":8754:8757   */\n      dup3\n        /* \"#utility.yul\":8750:8762   */\n      add\n        /* \"#utility.yul\":8743:8762   */\n      swap1\n      pop\n        /* \"#utility.yul\":8366:8768   */\n      swap2\n      swap1\n      pop\n      jump\t// out\n        /* \"#utility.yul\":8774:9176   */\n    tag_231:\n        /* \"#utility.yul\":8934:8937   */\n      0x00\n        /* \"#utility.yul\":8955:9040   */\n      tag_233\n        /* \"#utility.yul\":9037:9039   */\n      0x27\n        /* \"#utility.yul\":9032:9035   */\n      dup4\n        /* \"#utility.yul\":8955:9040   */\n      tag_174\n      jump\t// in\n    tag_233:\n        /* \"#utility.yul\":8948:9040   */\n      swap2\n      pop\n        /* \"#utility.yul\":9049:9142   */\n      tag_234\n        /* \"#utility.yul\":9138:9141   */\n      dup3\n        /* \"#utility.yul\":9049:9142   */\n      tag_235\n      jump\t// in\n    tag_234:\n        /* \"#utility.yul\":9167:9169   */\n      0x27\n        /* \"#utility.yul\":9162:9165   */\n      dup3\n        /* \"#utility.yul\":9158:9170   */\n      add\n        /* \"#utility.yul\":9151:9170   */\n      swap1\n      pop\n        /* \"#utility.yul\":8774:9176   */\n      swap2\n      swap1\n      pop\n      jump\t// out\n        /* \"#utility.yul\":9182:9584   */\n    tag_236:\n        /* \"#utility.yul\":9342:9345   */\n      0x00\n        /* \"#utility.yul\":9363:9448   */\n      tag_238\n        /* \"#utility.yul\":9445:9447   */\n      0x22\n        /* \"#utility.yul\":9440:9443   */\n      dup4\n        /* \"#utility.yul\":9363:9448   */\n      tag_174\n      jump\t// in\n    tag_238:\n        /* \"#utility.yul\":9356:9448   */\n      swap2\n      pop\n        /* \"#utility.yul\":9457:9550   */\n      tag_239\n        /* \"#utility.yul\":9546:9549   */\n      dup3\n        /* \"#utility.yul\":9457:9550   */\n      tag_240\n      jump\t// in\n    tag_239:\n        /* \"#utility.yul\":9575:9577   */\n      0x22\n        /* \"#utility.yul\":9570:9573   */\n      dup3\n        /* \"#utility.yul\":9566:9578   */\n      add\n        /* \"#utility.yul\":9559:9578   */\n      swap1\n      pop\n        /* \"#utility.yul\":9182:9584   */\n      swap2\n      swap1\n      pop\n      jump\t// out\n        /* \"#utility.yul\":9590:9992   */\n    tag_241:\n        /* \"#utility.yul\":9750:9753   */\n      0x00\n        /* \"#utility.yul\":9771:9856   */\n      tag_243\n        /* \"#utility.yul\":9853:9855   */\n      0x0c\n        /* \"#utility.yul\":9848:9851   */\n      dup4\n        /* \"#utility.yul\":9771:9856   */\n      tag_174\n      jump\t// in\n    tag_243:\n        /* \"#utility.yul\":9764:9856   */\n      swap2\n      pop\n        /* \"#utility.yul\":9865:9958   */\n      tag_244\n        /* \"#utility.yul\":9954:9957   */\n      dup3\n        /* \"#utility.yul\":9865:9958   */\n      tag_245\n      jump\t// in\n    tag_244:\n        /* \"#utility.yul\":9983:9985   */\n      0x0c\n        /* \"#utility.yul\":9978:9981   */\n      dup3\n        /* \"#utility.yul\":9974:9986   */\n      add\n        /* \"#utility.yul\":9967:9986   */\n      swap1\n      pop\n        /* \"#utility.yul\":9590:9992   */\n      swap2\n      swap1\n      pop\n      jump\t// out\n        /* \"#utility.yul\":9998:10398   */\n    tag_246:\n        /* \"#utility.yul\":10158:10161   */\n      0x00\n        /* \"#utility.yul\":10179:10263   */\n      tag_248\n        /* \"#utility.yul\":10261:10262   */\n      0x07\n        /* \"#utility.yul\":10256:10259   */\n      dup4\n        /* \"#utility.yul\":10179:10263   */\n      tag_174\n      jump\t// in\n    tag_248:\n        /* \"#utility.yul\":10172:10263   */\n      swap2\n      pop\n        /* \"#utility.yul\":10272:10365   */\n      tag_249\n        /* \"#utility.yul\":10361:10364   */\n      dup3\n        /* \"#utility.yul\":10272:10365   */\n      tag_250\n      jump\t// in\n    tag_249:\n        /* \"#utility.yul\":10390:10391   */\n      0x07\n        /* \"#utility.yul\":10385:10388   */\n      dup3\n        /* \"#utility.yul\":10381:10392   */\n      add\n        /* \"#utility.yul\":10374:10392   */\n      swap1\n      pop\n        /* \"#utility.yul\":9998:10398   */\n      swap2\n      swap1\n      pop\n      jump\t// out\n        /* \"#utility.yul\":10404:10806   */\n    tag_251:\n        /* \"#utility.yul\":10564:10567   */\n      0x00\n        /* \"#utility.yul\":10585:10670   */\n      tag_253\n        /* \"#utility.yul\":10667:10669   */\n      0x0f\n        /* \"#utility.yul\":10662:10665   */\n      dup4\n        /* \"#utility.yul\":10585:10670   */\n      tag_174\n      jump\t// in\n    tag_253:\n        /* \"#utility.yul\":10578:10670   */\n      swap2\n      pop\n        /* \"#utility.yul\":10679:10772   */\n      tag_254\n        /* \"#utility.yul\":10768:10771   */\n      dup3\n        /* \"#utility.yul\":10679:10772   */\n      tag_255\n      jump\t// in\n    tag_254:\n        /* \"#utility.yul\":10797:10799   */\n      0x0f\n        /* \"#utility.yul\":10792:10795   */\n      dup3\n        /* \"#utility.yul\":10788:10800   */\n      add\n        /* \"#utility.yul\":10781:10800   */\n      swap1\n      pop\n        /* \"#utility.yul\":10404:10806   */\n      swap2\n      swap1\n      pop\n      jump\t// out\n        /* \"#utility.yul\":10812:11212   */\n    tag_256:\n        /* \"#utility.yul\":10972:10975   */\n      0x00\n        /* \"#utility.yul\":10993:11077   */\n      tag_258\n        /* \"#utility.yul\":11075:11076   */\n      0x03\n        /* \"#utility.yul\":11070:11073   */\n      dup4\n        /* \"#utility.yul\":10993:11077   */\n      tag_174\n      jump\t// in\n    tag_258:\n        /* \"#utility.yul\":10986:11077   */\n      swap2\n      pop\n        /* \"#utility.yul\":11086:11179   */\n      tag_259\n        /* \"#utility.yul\":11175:11178   */\n      dup3\n        /* \"#utility.yul\":11086:11179   */\n      tag_260\n      jump\t// in\n    tag_259:\n        /* \"#utility.yul\":11204:11205   */\n      0x03\n        /* \"#utility.yul\":11199:11202   */\n      dup3\n        /* \"#utility.yul\":11195:11206   */\n      add\n        /* \"#utility.yul\":11188:11206   */\n      swap1\n      pop\n        /* \"#utility.yul\":10812:11212   */\n      swap2\n      swap1\n      pop\n      jump\t// out\n        /* \"#utility.yul\":11218:11618   */\n    tag_261:\n        /* \"#utility.yul\":11378:11381   */\n      0x00\n        /* \"#utility.yul\":11399:11483   */\n      tag_263\n        /* \"#utility.yul\":11481:11482   */\n      0x06\n        /* \"#utility.yul\":11476:11479   */\n      dup4\n        /* \"#utility.yul\":11399:11483   */\n      tag_174\n      jump\t// in\n    tag_263:\n        /* \"#utility.yul\":11392:11483   */\n      swap2\n      pop\n        /* \"#utility.yul\":11492:11585   */\n      tag_264\n        /* \"#utility.yul\":11581:11584   */\n      dup3\n        /* \"#utility.yul\":11492:11585   */\n      tag_265\n      jump\t// in\n    tag_264:\n        /* \"#utility.yul\":11610:11611   */\n      0x06\n        /* \"#utility.yul\":11605:11608   */\n      dup3\n        /* \"#utility.yul\":11601:11612   */\n      add\n        /* \"#utility.yul\":11594:11612   */\n      swap1\n      pop\n        /* \"#utility.yul\":11218:11618   */\n      swap2\n      swap1\n      pop\n      jump\t// out\n        /* \"#utility.yul\":11624:12024   */\n    tag_266:\n        /* \"#utility.yul\":11784:11787   */\n      0x00\n        /* \"#utility.yul\":11805:11889   */\n      tag_268\n        /* \"#utility.yul\":11887:11888   */\n      0x07\n        /* \"#utility.yul\":11882:11885   */\n      dup4\n        /* \"#utility.yul\":11805:11889   */\n      tag_174\n      jump\t// in\n    tag_268:\n        /* \"#utility.yul\":11798:11889   */\n      swap2\n      pop\n        /* \"#utility.yul\":11898:11991   */\n      tag_269\n        /* \"#utility.yul\":11987:11990   */\n      dup3\n        /* \"#utility.yul\":11898:11991   */\n      tag_270\n      jump\t// in\n    tag_269:\n        /* \"#utility.yul\":12016:12017   */\n      0x07\n        /* \"#utility.yul\":12011:12014   */\n      dup3\n        /* \"#utility.yul\":12007:12018   */\n      add\n        /* \"#utility.yul\":12000:12018   */\n      swap1\n      pop\n        /* \"#utility.yul\":11624:12024   */\n      swap2\n      swap1\n      pop\n      jump\t// out\n        /* \"#utility.yul\":12030:12434   */\n    tag_271:\n        /* \"#utility.yul\":12190:12193   */\n      0x00\n        /* \"#utility.yul\":12211:12297   */\n      tag_273\n        /* \"#utility.yul\":12293:12296   */\n      0x66\n        /* \"#utility.yul\":12288:12291   */\n      dup4\n        /* \"#utility.yul\":12211:12297   */\n      tag_174\n      jump\t// in\n    tag_273:\n        /* \"#utility.yul\":12204:12297   */\n      swap2\n      pop\n        /* \"#utility.yul\":12306:12399   */\n      tag_274\n        /* \"#utility.yul\":12395:12398   */\n      dup3\n        /* \"#utility.yul\":12306:12399   */\n      tag_275\n      jump\t// in\n    tag_274:\n        /* \"#utility.yul\":12424:12427   */\n      0x66\n        /* \"#utility.yul\":12419:12422   */\n      dup3\n        /* \"#utility.yul\":12415:12428   */\n      add\n        /* \"#utility.yul\":12408:12428   */\n      swap1\n      pop\n        /* \"#utility.yul\":12030:12434   */\n      swap2\n      swap1\n      pop\n      jump\t// out\n        /* \"#utility.yul\":12440:12715   */\n    tag_35:\n        /* \"#utility.yul\":12572:12575   */\n      0x00\n        /* \"#utility.yul\":12594:12689   */\n      tag_277\n        /* \"#utility.yul\":12685:12688   */\n      dup3\n        /* \"#utility.yul\":12676:12682   */\n      dup5\n        /* \"#utility.yul\":12594:12689   */\n      tag_170\n      jump\t// in\n    tag_277:\n        /* \"#utility.yul\":12587:12689   */\n      swap2\n      pop\n        /* \"#utility.yul\":12706:12709   */\n      dup2\n        /* \"#utility.yul\":12699:12709   */\n      swap1\n      pop\n        /* \"#utility.yul\":12440:12715   */\n      swap3\n      swap2\n      pop\n      pop\n      jump\t// out\n        /* \"#utility.yul\":12721:13156   */\n    tag_45:\n        /* \"#utility.yul\":12901:12904   */\n      0x00\n        /* \"#utility.yul\":12923:13018   */\n      tag_279\n        /* \"#utility.yul\":13014:13017   */\n      dup3\n        /* \"#utility.yul\":13005:13011   */\n      dup6\n        /* \"#utility.yul\":12923:13018   */\n      tag_170\n      jump\t// in\n    tag_279:\n        /* \"#utility.yul\":12916:13018   */\n      swap2\n      pop\n        /* \"#utility.yul\":13035:13130   */\n      tag_280\n        /* \"#utility.yul\":13126:13129   */\n      dup3\n        /* \"#utility.yul\":13117:13123   */\n      dup5\n        /* \"#utility.yul\":13035:13130   */\n      tag_170\n      jump\t// in\n    tag_280:\n        /* \"#utility.yul\":13028:13130   */\n      swap2\n      pop\n        /* \"#utility.yul\":13147:13150   */\n      dup2\n        /* \"#utility.yul\":13140:13150   */\n      swap1\n      pop\n        /* \"#utility.yul\":12721:13156   */\n      swap4\n      swap3\n      pop\n      pop\n      pop\n      jump\t// out\n        /* \"#utility.yul\":13162:14129   */\n    tag_25:\n        /* \"#utility.yul\":13544:13547   */\n      0x00\n        /* \"#utility.yul\":13566:13661   */\n      tag_282\n        /* \"#utility.yul\":13657:13660   */\n      dup3\n        /* \"#utility.yul\":13648:13654   */\n      dup6\n        /* \"#utility.yul\":13566:13661   */\n      tag_170\n      jump\t// in\n    tag_282:\n        /* \"#utility.yul\":13559:13661   */\n      swap2\n      pop\n        /* \"#utility.yul\":13678:13826   */\n      tag_283\n        /* \"#utility.yul\":13822:13825   */\n      dup3\n        /* \"#utility.yul\":13678:13826   */\n      tag_191\n      jump\t// in\n    tag_283:\n        /* \"#utility.yul\":13671:13826   */\n      swap2\n      pop\n        /* \"#utility.yul\":13843:13938   */\n      tag_284\n        /* \"#utility.yul\":13934:13937   */\n      dup3\n        /* \"#utility.yul\":13925:13931   */\n      dup5\n        /* \"#utility.yul\":13843:13938   */\n      tag_170\n      jump\t// in\n    tag_284:\n        /* \"#utility.yul\":13836:13938   */\n      swap2\n      pop\n        /* \"#utility.yul\":13955:14103   */\n      tag_285\n        /* \"#utility.yul\":14099:14102   */\n      dup3\n        /* \"#utility.yul\":13955:14103   */\n      tag_246\n      jump\t// in\n    tag_285:\n        /* \"#utility.yul\":13948:14103   */\n      swap2\n      pop\n        /* \"#utility.yul\":14120:14123   */\n      dup2\n        /* \"#utility.yul\":14113:14123   */\n      swap1\n      pop\n        /* \"#utility.yul\":13162:14129   */\n      swap4\n      swap3\n      pop\n      pop\n      pop\n      jump\t// out\n        /* \"#utility.yul\":14135:15102   */\n    tag_30:\n        /* \"#utility.yul\":14517:14520   */\n      0x00\n        /* \"#utility.yul\":14539:14634   */\n      tag_287\n        /* \"#utility.yul\":14630:14633   */\n      dup3\n        /* \"#utility.yul\":14621:14627   */\n      dup6\n        /* \"#utility.yul\":14539:14634   */\n      tag_170\n      jump\t// in\n    tag_287:\n        /* \"#utility.yul\":14532:14634   */\n      swap2\n      pop\n        /* \"#utility.yul\":14651:14799   */\n      tag_288\n        /* \"#utility.yul\":14795:14798   */\n      dup3\n        /* \"#utility.yul\":14651:14799   */\n      tag_196\n      jump\t// in\n    tag_288:\n        /* \"#utility.yul\":14644:14799   */\n      swap2\n      pop\n        /* \"#utility.yul\":14816:14911   */\n      tag_289\n        /* \"#utility.yul\":14907:14910   */\n      dup3\n        /* \"#utility.yul\":14898:14904   */\n      dup5\n        /* \"#utility.yul\":14816:14911   */\n      tag_170\n      jump\t// in\n    tag_289:\n        /* \"#utility.yul\":14809:14911   */\n      swap2\n      pop\n        /* \"#utility.yul\":14928:15076   */\n      tag_290\n        /* \"#utility.yul\":15072:15075   */\n      dup3\n        /* \"#utility.yul\":14928:15076   */\n      tag_246\n      jump\t// in\n    tag_290:\n        /* \"#utility.yul\":14921:15076   */\n      swap2\n      pop\n        /* \"#utility.yul\":15093:15096   */\n      dup2\n        /* \"#utility.yul\":15086:15096   */\n      swap1\n      pop\n        /* \"#utility.yul\":14135:15102   */\n      swap4\n      swap3\n      pop\n      pop\n      pop\n      jump\t// out\n        /* \"#utility.yul\":15108:16075   */\n    tag_28:\n        /* \"#utility.yul\":15490:15493   */\n      0x00\n        /* \"#utility.yul\":15512:15607   */\n      tag_292\n        /* \"#utility.yul\":15603:15606   */\n      dup3\n        /* \"#utility.yul\":15594:15600   */\n      dup6\n        /* \"#utility.yul\":15512:15607   */\n      tag_170\n      jump\t// in\n    tag_292:\n        /* \"#utility.yul\":15505:15607   */\n      swap2\n      pop\n        /* \"#utility.yul\":15624:15772   */\n      tag_293\n        /* \"#utility.yul\":15768:15771   */\n      dup3\n        /* \"#utility.yul\":15624:15772   */\n      tag_201\n      jump\t// in\n    tag_293:\n        /* \"#utility.yul\":15617:15772   */\n      swap2\n      pop\n        /* \"#utility.yul\":15789:15884   */\n      tag_294\n        /* \"#utility.yul\":15880:15883   */\n      dup3\n        /* \"#utility.yul\":15871:15877   */\n      dup5\n        /* \"#utility.yul\":15789:15884   */\n      tag_170\n      jump\t// in\n    tag_294:\n        /* \"#utility.yul\":15782:15884   */\n      swap2\n      pop\n        /* \"#utility.yul\":15901:16049   */\n      tag_295\n        /* \"#utility.yul\":16045:16048   */\n      dup3\n        /* \"#utility.yul\":15901:16049   */\n      tag_246\n      jump\t// in\n    tag_295:\n        /* \"#utility.yul\":15894:16049   */\n      swap2\n      pop\n        /* \"#utility.yul\":16066:16069   */\n      dup2\n        /* \"#utility.yul\":16059:16069   */\n      swap1\n      pop\n        /* \"#utility.yul\":15108:16075   */\n      swap4\n      swap3\n      pop\n      pop\n      pop\n      jump\t// out\n        /* \"#utility.yul\":16081:17314   */\n    tag_22:\n        /* \"#utility.yul\":16564:16567   */\n      0x00\n        /* \"#utility.yul\":16586:16681   */\n      tag_297\n        /* \"#utility.yul\":16677:16680   */\n      dup3\n        /* \"#utility.yul\":16668:16674   */\n      dup6\n        /* \"#utility.yul\":16586:16681   */\n      tag_170\n      jump\t// in\n    tag_297:\n        /* \"#utility.yul\":16579:16681   */\n      swap2\n      pop\n        /* \"#utility.yul\":16698:16846   */\n      tag_298\n        /* \"#utility.yul\":16842:16845   */\n      dup3\n        /* \"#utility.yul\":16698:16846   */\n      tag_206\n      jump\t// in\n    tag_298:\n        /* \"#utility.yul\":16691:16846   */\n      swap2\n      pop\n        /* \"#utility.yul\":16863:16958   */\n      tag_299\n        /* \"#utility.yul\":16954:16957   */\n      dup3\n        /* \"#utility.yul\":16945:16951   */\n      dup5\n        /* \"#utility.yul\":16863:16958   */\n      tag_170\n      jump\t// in\n    tag_299:\n        /* \"#utility.yul\":16856:16958   */\n      swap2\n      pop\n        /* \"#utility.yul\":16975:17123   */\n      tag_300\n        /* \"#utility.yul\":17119:17122   */\n      dup3\n        /* \"#utility.yul\":16975:17123   */\n      tag_256\n      jump\t// in\n    tag_300:\n        /* \"#utility.yul\":16968:17123   */\n      swap2\n      pop\n        /* \"#utility.yul\":17140:17288   */\n      tag_301\n        /* \"#utility.yul\":17284:17287   */\n      dup3\n        /* \"#utility.yul\":17140:17288   */\n      tag_246\n      jump\t// in\n    tag_301:\n        /* \"#utility.yul\":17133:17288   */\n      swap2\n      pop\n        /* \"#utility.yul\":17305:17308   */\n      dup2\n        /* \"#utility.yul\":17298:17308   */\n      swap1\n      pop\n        /* \"#utility.yul\":16081:17314   */\n      swap4\n      swap3\n      pop\n      pop\n      pop\n      jump\t// out\n        /* \"#utility.yul\":17320:18393   */\n    tag_14:\n        /* \"#utility.yul\":17755:17758   */\n      0x00\n        /* \"#utility.yul\":17777:17872   */\n      tag_303\n        /* \"#utility.yul\":17868:17871   */\n      dup3\n        /* \"#utility.yul\":17859:17865   */\n      dup5\n        /* \"#utility.yul\":17777:17872   */\n      tag_170\n      jump\t// in\n    tag_303:\n        /* \"#utility.yul\":17770:17872   */\n      swap2\n      pop\n        /* \"#utility.yul\":17889:18037   */\n      tag_304\n        /* \"#utility.yul\":18033:18036   */\n      dup3\n        /* \"#utility.yul\":17889:18037   */\n      tag_231\n      jump\t// in\n    tag_304:\n        /* \"#utility.yul\":17882:18037   */\n      swap2\n      pop\n        /* \"#utility.yul\":18054:18202   */\n      tag_305\n        /* \"#utility.yul\":18198:18201   */\n      dup3\n        /* \"#utility.yul\":18054:18202   */\n      tag_181\n      jump\t// in\n    tag_305:\n        /* \"#utility.yul\":18047:18202   */\n      swap2\n      pop\n        /* \"#utility.yul\":18219:18367   */\n      tag_306\n        /* \"#utility.yul\":18363:18366   */\n      dup3\n        /* \"#utility.yul\":18219:18367   */\n      tag_221\n      jump\t// in\n    tag_306:\n        /* \"#utility.yul\":18212:18367   */\n      swap2\n      pop\n        /* \"#utility.yul\":18384:18387   */\n      dup2\n        /* \"#utility.yul\":18377:18387   */\n      swap1\n      pop\n        /* \"#utility.yul\":17320:18393   */\n      swap3\n      swap2\n      pop\n      pop\n      jump\t// out\n        /* \"#utility.yul\":18399:19366   */\n    tag_18:\n        /* \"#utility.yul\":18781:18784   */\n      0x00\n        /* \"#utility.yul\":18803:18898   */\n      tag_308\n        /* \"#utility.yul\":18894:18897   */\n      dup3\n        /* \"#utility.yul\":18885:18891   */\n      dup6\n        /* \"#utility.yul\":18803:18898   */\n      tag_170\n      jump\t// in\n    tag_308:\n        /* \"#utility.yul\":18796:18898   */\n      swap2\n      pop\n        /* \"#utility.yul\":18915:19063   */\n      tag_309\n        /* \"#utility.yul\":19059:19062   */\n      dup3\n        /* \"#utility.yul\":18915:19063   */\n      tag_236\n      jump\t// in\n    tag_309:\n        /* \"#utility.yul\":18908:19063   */\n      swap2\n      pop\n        /* \"#utility.yul\":19080:19175   */\n      tag_310\n        /* \"#utility.yul\":19171:19174   */\n      dup3\n        /* \"#utility.yul\":19162:19168   */\n      dup5\n        /* \"#utility.yul\":19080:19175   */\n      tag_170\n      jump\t// in\n    tag_310:\n        /* \"#utility.yul\":19073:19175   */\n      swap2\n      pop\n        /* \"#utility.yul\":19192:19340   */\n      tag_311\n        /* \"#utility.yul\":19336:19339   */\n      dup3\n        /* \"#utility.yul\":19192:19340   */\n      tag_246\n      jump\t// in\n    tag_311:\n        /* \"#utility.yul\":19185:19340   */\n      swap2\n      pop\n        /* \"#utility.yul\":19357:19360   */\n      dup2\n        /* \"#utility.yul\":19350:19360   */\n      swap1\n      pop\n        /* \"#utility.yul\":18399:19366   */\n      swap4\n      swap3\n      pop\n      pop\n      pop\n      jump\t// out\n        /* \"#utility.yul\":19372:19913   */\n    tag_32:\n        /* \"#utility.yul\":19605:19608   */\n      0x00\n        /* \"#utility.yul\":19627:19722   */\n      tag_313\n        /* \"#utility.yul\":19718:19721   */\n      dup3\n        /* \"#utility.yul\":19709:19715   */\n      dup5\n        /* \"#utility.yul\":19627:19722   */\n      tag_170\n      jump\t// in\n    tag_313:\n        /* \"#utility.yul\":19620:19722   */\n      swap2\n      pop\n        /* \"#utility.yul\":19739:19887   */\n      tag_314\n        /* \"#utility.yul\":19883:19886   */\n      dup3\n        /* \"#utility.yul\":19739:19887   */\n      tag_261\n      jump\t// in\n    tag_314:\n        /* \"#utility.yul\":19732:19887   */\n      swap2\n      pop\n        /* \"#utility.yul\":19904:19907   */\n      dup2\n        /* \"#utility.yul\":19897:19907   */\n      swap1\n      pop\n        /* \"#utility.yul\":19372:19913   */\n      swap3\n      swap2\n      pop\n      pop\n      jump\t// out\n        /* \"#utility.yul\":19919:21258   */\n    tag_12:\n        /* \"#utility.yul\":20455:20458   */\n      0x00\n        /* \"#utility.yul\":20477:20572   */\n      tag_316\n        /* \"#utility.yul\":20568:20571   */\n      dup3\n        /* \"#utility.yul\":20559:20565   */\n      dup5\n        /* \"#utility.yul\":20477:20572   */\n      tag_170\n      jump\t// in\n    tag_316:\n        /* \"#utility.yul\":20470:20572   */\n      swap2\n      pop\n        /* \"#utility.yul\":20589:20737   */\n      tag_317\n        /* \"#utility.yul\":20733:20736   */\n      dup3\n        /* \"#utility.yul\":20589:20737   */\n      tag_266\n      jump\t// in\n    tag_317:\n        /* \"#utility.yul\":20582:20737   */\n      swap2\n      pop\n        /* \"#utility.yul\":20754:20902   */\n      tag_318\n        /* \"#utility.yul\":20898:20901   */\n      dup3\n        /* \"#utility.yul\":20754:20902   */\n      tag_271\n      jump\t// in\n    tag_318:\n        /* \"#utility.yul\":20747:20902   */\n      swap2\n      pop\n        /* \"#utility.yul\":20919:21067   */\n      tag_319\n        /* \"#utility.yul\":21063:21066   */\n      dup3\n        /* \"#utility.yul\":20919:21067   */\n      tag_186\n      jump\t// in\n    tag_319:\n        /* \"#utility.yul\":20912:21067   */\n      swap2\n      pop\n        /* \"#utility.yul\":21084:21232   */\n      tag_320\n        /* \"#utility.yul\":21228:21231   */\n      dup3\n        /* \"#utility.yul\":21084:21232   */\n      tag_216\n      jump\t// in\n    tag_320:\n        /* \"#utility.yul\":21077:21232   */\n      swap2\n      pop\n        /* \"#utility.yul\":21249:21252   */\n      dup2\n        /* \"#utility.yul\":21242:21252   */\n      swap1\n      pop\n        /* \"#utility.yul\":19919:21258   */\n      swap3\n      swap2\n      pop\n      pop\n      jump\t// out\n        /* \"#utility.yul\":21264:21645   */\n    tag_57:\n        /* \"#utility.yul\":21449:21452   */\n      0x00\n        /* \"#utility.yul\":21471:21619   */\n      tag_322\n        /* \"#utility.yul\":21615:21618   */\n      dup3\n        /* \"#utility.yul\":21471:21619   */\n      tag_176\n      jump\t// in\n    tag_322:\n        /* \"#utility.yul\":21464:21619   */\n      swap2\n      pop\n        /* \"#utility.yul\":21636:21639   */\n      dup2\n        /* \"#utility.yul\":21629:21639   */\n      swap1\n      pop\n        /* \"#utility.yul\":21264:21645   */\n      swap2\n      swap1\n      pop\n      jump\t// out\n        /* \"#utility.yul\":21651:22032   */\n    tag_66:\n        /* \"#utility.yul\":21836:21839   */\n      0x00\n        /* \"#utility.yul\":21858:22006   */\n      tag_324\n        /* \"#utility.yul\":22002:22005   */\n      dup3\n        /* \"#utility.yul\":21858:22006   */\n      tag_211\n      jump\t// in\n    tag_324:\n        /* \"#utility.yul\":21851:22006   */\n      swap2\n      pop\n        /* \"#utility.yul\":22023:22026   */\n      dup2\n        /* \"#utility.yul\":22016:22026   */\n      swap1\n      pop\n        /* \"#utility.yul\":21651:22032   */\n      swap2\n      swap1\n      pop\n      jump\t// out\n        /* \"#utility.yul\":22038:22419   */\n    tag_75:\n        /* \"#utility.yul\":22223:22226   */\n      0x00\n        /* \"#utility.yul\":22245:22393   */\n      tag_326\n        /* \"#utility.yul\":22389:22392   */\n      dup3\n        /* \"#utility.yul\":22245:22393   */\n      tag_226\n      jump\t// in\n    tag_326:\n        /* \"#utility.yul\":22238:22393   */\n      swap2\n      pop\n        /* \"#utility.yul\":22410:22413   */\n      dup2\n        /* \"#utility.yul\":22403:22413   */\n      swap1\n      pop\n        /* \"#utility.yul\":22038:22419   */\n      swap2\n      swap1\n      pop\n      jump\t// out\n        /* \"#utility.yul\":22425:22806   */\n    tag_48:\n        /* \"#utility.yul\":22610:22613   */\n      0x00\n        /* \"#utility.yul\":22632:22780   */\n      tag_328\n        /* \"#utility.yul\":22776:22779   */\n      dup3\n        /* \"#utility.yul\":22632:22780   */\n      tag_241\n      jump\t// in\n    tag_328:\n        /* \"#utility.yul\":22625:22780   */\n      swap2\n      pop\n        /* \"#utility.yul\":22797:22800   */\n      dup2\n        /* \"#utility.yul\":22790:22800   */\n      swap1\n      pop\n        /* \"#utility.yul\":22425:22806   */\n      swap2\n      swap1\n      pop\n      jump\t// out\n        /* \"#utility.yul\":22812:23193   */\n    tag_37:\n        /* \"#utility.yul\":22997:23000   */\n      0x00\n        /* \"#utility.yul\":23019:23167   */\n      tag_330\n        /* \"#utility.yul\":23163:23166   */\n      dup3\n        /* \"#utility.yul\":23019:23167   */\n      tag_251\n      jump\t// in\n    tag_330:\n        /* \"#utility.yul\":23012:23167   */\n      swap2\n      pop\n        /* \"#utility.yul\":23184:23187   */\n      dup2\n        /* \"#utility.yul\":23177:23187   */\n      swap1\n      pop\n        /* \"#utility.yul\":22812:23193   */\n      swap2\n      swap1\n      pop\n      jump\t// out\n        /* \"#utility.yul\":23199:23512   */\n    tag_9:\n        /* \"#utility.yul\":23312:23316   */\n      0x00\n        /* \"#utility.yul\":23350:23352   */\n      0x20\n        /* \"#utility.yul\":23339:23348   */\n      dup3\n        /* \"#utility.yul\":23335:23353   */\n      add\n        /* \"#utility.yul\":23327:23353   */\n      swap1\n      pop\n        /* \"#utility.yul\":23399:23408   */\n      dup2\n        /* \"#utility.yul\":23393:23397   */\n      dup2\n        /* \"#utility.yul\":23389:23409   */\n      sub\n        /* \"#utility.yul\":23385:23386   */\n      0x00\n        /* \"#utility.yul\":23374:23383   */\n      dup4\n        /* \"#utility.yul\":23370:23387   */\n      add\n        /* \"#utility.yul\":23363:23410   */\n      mstore\n        /* \"#utility.yul\":23427:23505   */\n      tag_332\n        /* \"#utility.yul\":23500:23504   */\n      dup2\n        /* \"#utility.yul\":23491:23497   */\n      dup5\n        /* \"#utility.yul\":23427:23505   */\n      tag_161\n      jump\t// in\n    tag_332:\n        /* \"#utility.yul\":23419:23505   */\n      swap1\n      pop\n        /* \"#utility.yul\":23199:23512   */\n      swap3\n      swap2\n      pop\n      pop\n      jump\t// out\n        /* \"#utility.yul\":23518:23647   */\n    tag_112:\n        /* \"#utility.yul\":23552:23558   */\n      0x00\n        /* \"#utility.yul\":23579:23599   */\n      tag_334\n      tag_335\n      jump\t// in\n    tag_334:\n        /* \"#utility.yul\":23569:23599   */\n      swap1\n      pop\n        /* \"#utility.yul\":23608:23641   */\n      tag_336\n        /* \"#utility.yul\":23636:23640   */\n      dup3\n        /* \"#utility.yul\":23628:23634   */\n      dup3\n        /* \"#utility.yul\":23608:23641   */\n      tag_337\n      jump\t// in\n    tag_336:\n        /* \"#utility.yul\":23518:23647   */\n      swap2\n      swap1\n      pop\n      jump\t// out\n        /* \"#utility.yul\":23653:23728   */\n    tag_335:\n        /* \"#utility.yul\":23686:23692   */\n      0x00\n        /* \"#utility.yul\":23719:23721   */\n      0x40\n        /* \"#utility.yul\":23713:23722   */\n      mload\n        /* \"#utility.yul\":23703:23722   */\n      swap1\n      pop\n        /* \"#utility.yul\":23653:23728   */\n      swap1\n      jump\t// out\n        /* \"#utility.yul\":23734:24042   */\n    tag_111:\n        /* \"#utility.yul\":23796:23800   */\n      0x00\n        /* \"#utility.yul\":23886:23904   */\n      0xffffffffffffffff\n        /* \"#utility.yul\":23878:23884   */\n      dup3\n        /* \"#utility.yul\":23875:23905   */\n      gt\n        /* \"#utility.yul\":23872:23928   */\n      iszero\n      tag_340\n      jumpi\n        /* \"#utility.yul\":23908:23926   */\n      tag_341\n      tag_92\n      jump\t// in\n    tag_341:\n        /* \"#utility.yul\":23872:23928   */\n    tag_340:\n        /* \"#utility.yul\":23946:23975   */\n      tag_342\n        /* \"#utility.yul\":23968:23974   */\n      dup3\n        /* \"#utility.yul\":23946:23975   */\n      tag_169\n      jump\t// in\n    tag_342:\n        /* \"#utility.yul\":23938:23975   */\n      swap1\n      pop\n        /* \"#utility.yul\":24030:24034   */\n      0x20\n        /* \"#utility.yul\":24024:24028   */\n      dup2\n        /* \"#utility.yul\":24020:24035   */\n      add\n        /* \"#utility.yul\":24012:24035   */\n      swap1\n      pop\n        /* \"#utility.yul\":23734:24042   */\n      swap2\n      swap1\n      pop\n      jump\t// out\n        /* \"#utility.yul\":24048:24147   */\n    tag_164:\n        /* \"#utility.yul\":24100:24106   */\n      0x00\n        /* \"#utility.yul\":24134:24139   */\n      dup2\n        /* \"#utility.yul\":24128:24140   */\n      mload\n        /* \"#utility.yul\":24118:24140   */\n      swap1\n      pop\n        /* \"#utility.yul\":24048:24147   */\n      swap2\n      swap1\n      pop\n      jump\t// out\n        /* \"#utility.yul\":24153:24322   */\n    tag_166:\n        /* \"#utility.yul\":24237:24248   */\n      0x00\n        /* \"#utility.yul\":24271:24277   */\n      dup3\n        /* \"#utility.yul\":24266:24269   */\n      dup3\n        /* \"#utility.yul\":24259:24278   */\n      mstore\n        /* \"#utility.yul\":24311:24315   */\n      0x20\n        /* \"#utility.yul\":24306:24309   */\n      dup3\n        /* \"#utility.yul\":24302:24316   */\n      add\n        /* \"#utility.yul\":24287:24316   */\n      swap1\n      pop\n        /* \"#utility.yul\":24153:24322   */\n      swap3\n      swap2\n      pop\n      pop\n      jump\t// out\n        /* \"#utility.yul\":24328:24476   */\n    tag_174:\n        /* \"#utility.yul\":24430:24441   */\n      0x00\n        /* \"#utility.yul\":24467:24470   */\n      dup2\n        /* \"#utility.yul\":24452:24470   */\n      swap1\n      pop\n        /* \"#utility.yul\":24328:24476   */\n      swap3\n      swap2\n      pop\n      pop\n      jump\t// out\n        /* \"#utility.yul\":24482:24787   */\n    tag_101:\n        /* \"#utility.yul\":24522:24525   */\n      0x00\n        /* \"#utility.yul\":24541:24561   */\n      tag_347\n        /* \"#utility.yul\":24559:24560   */\n      dup3\n        /* \"#utility.yul\":24541:24561   */\n      tag_348\n      jump\t// in\n    tag_347:\n        /* \"#utility.yul\":24536:24561   */\n      swap2\n      pop\n        /* \"#utility.yul\":24575:24595   */\n      tag_349\n        /* \"#utility.yul\":24593:24594   */\n      dup4\n        /* \"#utility.yul\":24575:24595   */\n      tag_348\n      jump\t// in\n    tag_349:\n        /* \"#utility.yul\":24570:24595   */\n      swap3\n      pop\n        /* \"#utility.yul\":24729:24730   */\n      dup3\n        /* \"#utility.yul\":24661:24727   */\n      0xffffffffffffffffffffffffffffffffffffffffffffffffffffffffffffffff\n        /* \"#utility.yul\":24657:24731   */\n      sub\n        /* \"#utility.yul\":24654:24655   */\n      dup3\n        /* \"#utility.yul\":24651:24732   */\n      gt\n        /* \"#utility.yul\":24648:24755   */\n      iszero\n      tag_350\n      jumpi\n        /* \"#utility.yul\":24735:24753   */\n      tag_351\n      tag_352\n      jump\t// in\n    tag_351:\n        /* \"#utility.yul\":24648:24755   */\n    tag_350:\n        /* \"#utility.yul\":24779:24780   */\n      dup3\n        /* \"#utility.yul\":24776:24777   */\n      dup3\n        /* \"#utility.yul\":24772:24781   */\n      add\n        /* \"#utility.yul\":24765:24781   */\n      swap1\n      pop\n        /* \"#utility.yul\":24482:24787   */\n      swap3\n      swap2\n      pop\n      pop\n      jump\t// out\n        /* \"#utility.yul\":24793:24978   */\n    tag_89:\n        /* \"#utility.yul\":24833:24834   */\n      0x00\n        /* \"#utility.yul\":24850:24870   */\n      tag_354\n        /* \"#utility.yul\":24868:24869   */\n      dup3\n        /* \"#utility.yul\":24850:24870   */\n      tag_348\n      jump\t// in\n    tag_354:\n        /* \"#utility.yul\":24845:24870   */\n      swap2\n      pop\n        /* \"#utility.yul\":24884:24904   */\n      tag_355\n        /* \"#utility.yul\":24902:24903   */\n      dup4\n        /* \"#utility.yul\":24884:24904   */\n      tag_348\n      jump\t// in\n    tag_355:\n        /* \"#utility.yul\":24879:24904   */\n      swap3\n      pop\n        /* \"#utility.yul\":24923:24924   */\n      dup3\n        /* \"#utility.yul\":24913:24948   */\n      tag_356\n      jumpi\n        /* \"#utility.yul\":24928:24946   */\n      tag_357\n      tag_358\n      jump\t// in\n    tag_357:\n        /* \"#utility.yul\":24913:24948   */\n    tag_356:\n        /* \"#utility.yul\":24970:24971   */\n      dup3\n        /* \"#utility.yul\":24967:24968   */\n      dup3\n        /* \"#utility.yul\":24963:24972   */\n      div\n        /* \"#utility.yul\":24958:24972   */\n      swap1\n      pop\n        /* \"#utility.yul\":24793:24978   */\n      swap3\n      swap2\n      pop\n      pop\n      jump\t// out\n        /* \"#utility.yul\":24984:25175   */\n    tag_97:\n        /* \"#utility.yul\":25024:25028   */\n      0x00\n        /* \"#utility.yul\":25044:25064   */\n      tag_360\n        /* \"#utility.yul\":25062:25063   */\n      dup3\n        /* \"#utility.yul\":25044:25064   */\n      tag_348\n      jump\t// in\n    tag_360:\n        /* \"#utility.yul\":25039:25064   */\n      swap2\n      pop\n        /* \"#utility.yul\":25078:25098   */\n      tag_361\n        /* \"#utility.yul\":25096:25097   */\n      dup4\n        /* \"#utility.yul\":25078:25098   */\n      tag_348\n      jump\t// in\n    tag_361:\n        /* \"#utility.yul\":25073:25098   */\n      swap3\n      pop\n        /* \"#utility.yul\":25117:25118   */\n      dup3\n        /* \"#utility.yul\":25114:25115   */\n      dup3\n        /* \"#utility.yul\":25111:25119   */\n      lt\n        /* \"#utility.yul\":25108:25142   */\n      iszero\n      tag_362\n      jumpi\n        /* \"#utility.yul\":25122:25140   */\n      tag_363\n      tag_352\n      jump\t// in\n    tag_363:\n        /* \"#utility.yul\":25108:25142   */\n    tag_362:\n        /* \"#utility.yul\":25167:25168   */\n      dup3\n        /* \"#utility.yul\":25164:25165   */\n      dup3\n        /* \"#utility.yul\":25160:25169   */\n      sub\n        /* \"#utility.yul\":25152:25169   */\n      swap1\n      pop\n        /* \"#utility.yul\":24984:25175   */\n      swap3\n      swap2\n      pop\n      pop\n      jump\t// out\n        /* \"#utility.yul\":25181:25258   */\n    tag_348:\n        /* \"#utility.yul\":25218:25225   */\n      0x00\n        /* \"#utility.yul\":25247:25252   */\n      dup2\n        /* \"#utility.yul\":25236:25252   */\n      swap1\n      pop\n        /* \"#utility.yul\":25181:25258   */\n      swap2\n      swap1\n      pop\n      jump\t// out\n        /* \"#utility.yul\":25264:25418   */\n    tag_117:\n        /* \"#utility.yul\":25348:25354   */\n      dup3\n        /* \"#utility.yul\":25343:25346   */\n      dup2\n        /* \"#utility.yul\":25338:25341   */\n      dup4\n        /* \"#utility.yul\":25325:25355   */\n      calldatacopy\n        /* \"#utility.yul\":25410:25411   */\n      0x00\n        /* \"#utility.yul\":25401:25407   */\n      dup4\n        /* \"#utility.yul\":25396:25399   */\n      dup4\n        /* \"#utility.yul\":25392:25408   */\n      add\n        /* \"#utility.yul\":25385:25412   */\n      mstore\n        /* \"#utility.yul\":25264:25418   */\n      pop\n      pop\n      pop\n      jump\t// out\n        /* \"#utility.yul\":25424:25731   */\n    tag_125:\n        /* \"#utility.yul\":25492:25493   */\n      0x00\n        /* \"#utility.yul\":25502:25615   */\n    tag_367:\n        /* \"#utility.yul\":25516:25522   */\n      dup4\n        /* \"#utility.yul\":25513:25514   */\n      dup2\n        /* \"#utility.yul\":25510:25523   */\n      lt\n        /* \"#utility.yul\":25502:25615   */\n      iszero\n      tag_369\n      jumpi\n        /* \"#utility.yul\":25601:25602   */\n      dup1\n        /* \"#utility.yul\":25596:25599   */\n      dup3\n        /* \"#utility.yul\":25592:25603   */\n      add\n        /* \"#utility.yul\":25586:25604   */\n      mload\n        /* \"#utility.yul\":25582:25583   */\n      dup2\n        /* \"#utility.yul\":25577:25580   */\n      dup5\n        /* \"#utility.yul\":25573:25584   */\n      add\n        /* \"#utility.yul\":25566:25605   */\n      mstore\n        /* \"#utility.yul\":25538:25540   */\n      0x20\n        /* \"#utility.yul\":25535:25536   */\n      dup2\n        /* \"#utility.yul\":25531:25541   */\n      add\n        /* \"#utility.yul\":25526:25541   */\n      swap1\n      pop\n        /* \"#utility.yul\":25502:25615   */\n      jump(tag_367)\n    tag_369:\n        /* \"#utility.yul\":25633:25639   */\n      dup4\n        /* \"#utility.yul\":25630:25631   */\n      dup2\n        /* \"#utility.yul\":25627:25640   */\n      gt\n        /* \"#utility.yul\":25624:25725   */\n      iszero\n      tag_370\n      jumpi\n        /* \"#utility.yul\":25713:25714   */\n      0x00\n        /* \"#utility.yul\":25704:25710   */\n      dup5\n        /* \"#utility.yul\":25699:25702   */\n      dup5\n        /* \"#utility.yul\":25695:25711   */\n      add\n        /* \"#utility.yul\":25688:25715   */\n      mstore\n        /* \"#utility.yul\":25624:25725   */\n    tag_370:\n        /* \"#utility.yul\":25473:25731   */\n      pop\n        /* \"#utility.yul\":25424:25731   */\n      pop\n      pop\n      pop\n      jump\t// out\n        /* \"#utility.yul\":25737:26018   */\n    tag_337:\n        /* \"#utility.yul\":25820:25847   */\n      tag_372\n        /* \"#utility.yul\":25842:25846   */\n      dup3\n        /* \"#utility.yul\":25820:25847   */\n      tag_169\n      jump\t// in\n    tag_372:\n        /* \"#utility.yul\":25812:25818   */\n      dup2\n        /* \"#utility.yul\":25808:25848   */\n      add\n        /* \"#utility.yul\":25950:25956   */\n      dup2\n        /* \"#utility.yul\":25938:25948   */\n      dup2\n        /* \"#utility.yul\":25935:25957   */\n      lt\n        /* \"#utility.yul\":25914:25932   */\n      0xffffffffffffffff\n        /* \"#utility.yul\":25902:25912   */\n      dup3\n        /* \"#utility.yul\":25899:25933   */\n      gt\n        /* \"#utility.yul\":25896:25958   */\n      or\n        /* \"#utility.yul\":25893:25981   */\n      iszero\n      tag_373\n      jumpi\n        /* \"#utility.yul\":25961:25979   */\n      tag_374\n      tag_92\n      jump\t// in\n    tag_374:\n        /* \"#utility.yul\":25893:25981   */\n    tag_373:\n        /* \"#utility.yul\":26001:26011   */\n      dup1\n        /* \"#utility.yul\":25997:25999   */\n      0x40\n        /* \"#utility.yul\":25990:26012   */\n      mstore\n        /* \"#utility.yul\":25780:26018   */\n      pop\n        /* \"#utility.yul\":25737:26018   */\n      pop\n      pop\n      jump\t// out\n        /* \"#utility.yul\":26024:26257   */\n    tag_87:\n        /* \"#utility.yul\":26063:26066   */\n      0x00\n        /* \"#utility.yul\":26086:26110   */\n      tag_376\n        /* \"#utility.yul\":26104:26109   */\n      dup3\n        /* \"#utility.yul\":26086:26110   */\n      tag_348\n      jump\t// in\n    tag_376:\n        /* \"#utility.yul\":26077:26110   */\n      swap2\n      pop\n        /* \"#utility.yul\":26132:26198   */\n      0xffffffffffffffffffffffffffffffffffffffffffffffffffffffffffffffff\n        /* \"#utility.yul\":26125:26130   */\n      dup3\n        /* \"#utility.yul\":26122:26199   */\n      eq\n        /* \"#utility.yul\":26119:26222   */\n      iszero\n      tag_377\n      jumpi\n        /* \"#utility.yul\":26202:26220   */\n      tag_378\n      tag_352\n      jump\t// in\n    tag_378:\n        /* \"#utility.yul\":26119:26222   */\n    tag_377:\n        /* \"#utility.yul\":26249:26250   */\n      0x01\n        /* \"#utility.yul\":26242:26247   */\n      dup3\n        /* \"#utility.yul\":26238:26251   */\n      add\n        /* \"#utility.yul\":26231:26251   */\n      swap1\n      pop\n        /* \"#utility.yul\":26024:26257   */\n      swap2\n      swap1\n      pop\n      jump\t// out\n        /* \"#utility.yul\":26263:26439   */\n    tag_99:\n        /* \"#utility.yul\":26295:26296   */\n      0x00\n        /* \"#utility.yul\":26312:26332   */\n      tag_380\n        /* \"#utility.yul\":26330:26331   */\n      dup3\n        /* \"#utility.yul\":26312:26332   */\n      tag_348\n      jump\t// in\n    tag_380:\n        /* \"#utility.yul\":26307:26332   */\n      swap2\n      pop\n        /* \"#utility.yul\":26346:26366   */\n      tag_381\n        /* \"#utility.yul\":26364:26365   */\n      dup4\n        /* \"#utility.yul\":26346:26366   */\n      tag_348\n      jump\t// in\n    tag_381:\n        /* \"#utility.yul\":26341:26366   */\n      swap3\n      pop\n        /* \"#utility.yul\":26385:26386   */\n      dup3\n        /* \"#utility.yul\":26375:26410   */\n      tag_382\n      jumpi\n        /* \"#utility.yul\":26390:26408   */\n      tag_383\n      tag_358\n      jump\t// in\n    tag_383:\n        /* \"#utility.yul\":26375:26410   */\n    tag_382:\n        /* \"#utility.yul\":26431:26432   */\n      dup3\n        /* \"#utility.yul\":26428:26429   */\n      dup3\n        /* \"#utility.yul\":26424:26433   */\n      mod\n        /* \"#utility.yul\":26419:26433   */\n      swap1\n      pop\n        /* \"#utility.yul\":26263:26439   */\n      swap3\n      swap2\n      pop\n      pop\n      jump\t// out\n        /* \"#utility.yul\":26445:26625   */\n    tag_352:\n        /* \"#utility.yul\":26493:26570   */\n      0x4e487b7100000000000000000000000000000000000000000000000000000000\n        /* \"#utility.yul\":26490:26491   */\n      0x00\n        /* \"#utility.yul\":26483:26571   */\n      mstore\n        /* \"#utility.yul\":26590:26594   */\n      0x11\n        /* \"#utility.yul\":26587:26588   */\n      0x04\n        /* \"#utility.yul\":26580:26595   */\n      mstore\n        /* \"#utility.yul\":26614:26618   */\n      0x24\n        /* \"#utility.yul\":26611:26612   */\n      0x00\n        /* \"#utility.yul\":26604:26619   */\n      revert\n        /* \"#utility.yul\":26631:26811   */\n    tag_358:\n        /* \"#utility.yul\":26679:26756   */\n      0x4e487b7100000000000000000000000000000000000000000000000000000000\n        /* \"#utility.yul\":26676:26677   */\n      0x00\n        /* \"#utility.yul\":26669:26757   */\n      mstore\n        /* \"#utility.yul\":26776:26780   */\n      0x12\n        /* \"#utility.yul\":26773:26774   */\n      0x04\n        /* \"#utility.yul\":26766:26781   */\n      mstore\n        /* \"#utility.yul\":26800:26804   */\n      0x24\n        /* \"#utility.yul\":26797:26798   */\n      0x00\n        /* \"#utility.yul\":26790:26805   */\n      revert\n        /* \"#utility.yul\":26817:26997   */\n    tag_104:\n        /* \"#utility.yul\":26865:26942   */\n      0x4e487b7100000000000000000000000000000000000000000000000000000000\n        /* \"#utility.yul\":26862:26863   */\n      0x00\n        /* \"#utility.yul\":26855:26943   */\n      mstore\n        /* \"#utility.yul\":26962:26966   */\n      0x32\n        /* \"#utility.yul\":26959:26960   */\n      0x04\n        /* \"#utility.yul\":26952:26967   */\n      mstore\n        /* \"#utility.yul\":26986:26990   */\n      0x24\n        /* \"#utility.yul\":26983:26984   */\n      0x00\n        /* \"#utility.yul\":26976:26991   */\n      revert\n        /* \"#utility.yul\":27003:27183   */\n    tag_92:\n        /* \"#utility.yul\":27051:27128   */\n      0x4e487b7100000000000000000000000000000000000000000000000000000000\n        /* \"#utility.yul\":27048:27049   */\n      0x00\n        /* \"#utility.yul\":27041:27129   */\n      mstore\n        /* \"#utility.yul\":27148:27152   */\n      0x41\n        /* \"#utility.yul\":27145:27146   */\n      0x04\n        /* \"#utility.yul\":27138:27153   */\n      mstore\n        /* \"#utility.yul\":27172:27176   */\n      0x24\n        /* \"#utility.yul\":27169:27170   */\n      0x00\n        /* \"#utility.yul\":27162:27177   */\n      revert\n        /* \"#utility.yul\":27189:27306   */\n    tag_130:\n        /* \"#utility.yul\":27298:27299   */\n      0x00\n        /* \"#utility.yul\":27295:27296   */\n      dup1\n        /* \"#utility.yul\":27288:27300   */\n      revert\n        /* \"#utility.yul\":27312:27429   */\n    tag_115:\n        /* \"#utility.yul\":27421:27422   */\n      0x00\n        /* \"#utility.yul\":27418:27419   */\n      dup1\n        /* \"#utility.yul\":27411:27423   */\n      revert\n        /* \"#utility.yul\":27435:27552   */\n    tag_147:\n        /* \"#utility.yul\":27544:27545   */\n      0x00\n        /* \"#utility.yul\":27541:27542   */\n      dup1\n        /* \"#utility.yul\":27534:27546   */\n      revert\n        /* \"#utility.yul\":27558:27675   */\n    tag_144:\n        /* \"#utility.yul\":27667:27668   */\n      0x00\n        /* \"#utility.yul\":27664:27665   */\n      dup1\n        /* \"#utility.yul\":27657:27669   */\n      revert\n        /* \"#utility.yul\":27681:27783   */\n    tag_169:\n        /* \"#utility.yul\":27722:27728   */\n      0x00\n        /* \"#utility.yul\":27773:27775   */\n      0x1f\n        /* \"#utility.yul\":27769:27776   */\n      not\n        /* \"#utility.yul\":27764:27766   */\n      0x1f\n        /* \"#utility.yul\":27757:27762   */\n      dup4\n        /* \"#utility.yul\":27753:27767   */\n      add\n        /* \"#utility.yul\":27749:27777   */\n      and\n        /* \"#utility.yul\":27739:27777   */\n      swap1\n      pop\n        /* \"#utility.yul\":27681:27783   */\n      swap2\n      swap1\n      pop\n      jump\t// out\n        /* \"#utility.yul\":27789:27952   */\n    tag_180:\n        /* \"#utility.yul\":27929:27944   */\n      0x50616a74696d204b6173616d6900000000000000000000000000000000000000\n        /* \"#utility.yul\":27925:27926   */\n      0x00\n        /* \"#utility.yul\":27917:27923   */\n      dup3\n        /* \"#utility.yul\":27913:27927   */\n      add\n        /* \"#utility.yul\":27906:27945   */\n      mstore\n        /* \"#utility.yul\":27789:27952   */\n      pop\n      jump\t// out\n        /* \"#utility.yul\":27958:28115   */\n    tag_185:\n        /* \"#utility.yul\":28098:28107   */\n      0x2365343032323700000000000000000000000000000000000000000000000000\n        /* \"#utility.yul\":28094:28095   */\n      0x00\n        /* \"#utility.yul\":28086:28092   */\n      dup3\n        /* \"#utility.yul\":28082:28096   */\n      add\n        /* \"#utility.yul\":28075:28108   */\n      mstore\n        /* \"#utility.yul\":27958:28115   */\n      pop\n      jump\t// out\n        /* \"#utility.yul\":28121:28415   */\n    tag_190:\n        /* \"#utility.yul\":28261:28295   */\n      0x2e7469746c65207b20746578742d616e63686f723a206c6566743b20666f6e74\n        /* \"#utility.yul\":28257:28258   */\n      0x00\n        /* \"#utility.yul\":28249:28255   */\n      dup3\n        /* \"#utility.yul\":28245:28259   */\n      add\n        /* \"#utility.yul\":28238:28296   */\n      mstore\n        /* \"#utility.yul\":28334:28368   */\n      0x2d7765696768743a20626f6c643b20666f6e742d73697a653a20312e35656d3b\n        /* \"#utility.yul\":28329:28331   */\n      0x20\n        /* \"#utility.yul\":28321:28327   */\n      dup3\n        /* \"#utility.yul\":28317:28332   */\n      add\n        /* \"#utility.yul\":28310:28369   */\n      mstore\n        /* \"#utility.yul\":28403:28407   */\n      0x207d000000000000000000000000000000000000000000000000000000000000\n        /* \"#utility.yul\":28398:28400   */\n      0x40\n        /* \"#utility.yul\":28390:28396   */\n      dup3\n        /* \"#utility.yul\":28386:28401   */\n      add\n        /* \"#utility.yul\":28379:28408   */\n      mstore\n        /* \"#utility.yul\":28121:28415   */\n      pop\n      jump\t// out\n        /* \"#utility.yul\":28421:28635   */\n    tag_195:\n        /* \"#utility.yul\":28561:28627   */\n      0x3c7465787420783d2232302220793d2233343022203e47616d65733a20000000\n        /* \"#utility.yul\":28557:28558   */\n      0x00\n        /* \"#utility.yul\":28549:28555   */\n      dup3\n        /* \"#utility.yul\":28545:28559   */\n      add\n        /* \"#utility.yul\":28538:28628   */\n      mstore\n        /* \"#utility.yul\":28421:28635   */\n      pop\n      jump\t// out\n        /* \"#utility.yul\":28641:28855   */\n    tag_200:\n        /* \"#utility.yul\":28781:28847   */\n      0x3c7465787420783d2232302220793d2233383022203e506f736974696f6e3a20\n        /* \"#utility.yul\":28777:28778   */\n      0x00\n        /* \"#utility.yul\":28769:28775   */\n      dup3\n        /* \"#utility.yul\":28765:28779   */\n      add\n        /* \"#utility.yul\":28758:28848   */\n      mstore\n        /* \"#utility.yul\":28641:28855   */\n      pop\n      jump\t// out\n        /* \"#utility.yul\":28861:29075   */\n    tag_205:\n        /* \"#utility.yul\":29001:29067   */\n      0x3c7465787420783d2232302220793d2233363022203e476f616c733a20000000\n        /* \"#utility.yul\":28997:28998   */\n      0x00\n        /* \"#utility.yul\":28989:28995   */\n      dup3\n        /* \"#utility.yul\":28985:28999   */\n      add\n        /* \"#utility.yul\":28978:29068   */\n      mstore\n        /* \"#utility.yul\":28861:29075   */\n      pop\n      jump\t// out\n        /* \"#utility.yul\":29081:29295   */\n    tag_210:\n        /* \"#utility.yul\":29221:29287   */\n      0x3c7465787420783d2232302220793d2233323022203e47616d65706c61793a20\n        /* \"#utility.yul\":29217:29218   */\n      0x00\n        /* \"#utility.yul\":29209:29215   */\n      dup3\n        /* \"#utility.yul\":29205:29219   */\n      add\n        /* \"#utility.yul\":29198:29288   */\n      mstore\n        /* \"#utility.yul\":29081:29295   */\n      pop\n      jump\t// out\n        /* \"#utility.yul\":29301:29462   */\n    tag_215:\n        /* \"#utility.yul\":29441:29454   */\n      0x4c69616d204d696c6c6172000000000000000000000000000000000000000000\n        /* \"#utility.yul\":29437:29438   */\n      0x00\n        /* \"#utility.yul\":29429:29435   */\n      dup3\n        /* \"#utility.yul\":29425:29439   */\n      add\n        /* \"#utility.yul\":29418:29455   */\n      mstore\n        /* \"#utility.yul\":29301:29462   */\n      pop\n      jump\t// out\n        /* \"#utility.yul\":29468:29626   */\n    tag_220:\n        /* \"#utility.yul\":29608:29618   */\n      0x3c2f7374796c653e000000000000000000000000000000000000000000000000\n        /* \"#utility.yul\":29604:29605   */\n      0x00\n        /* \"#utility.yul\":29596:29602   */\n      dup3\n        /* \"#utility.yul\":29592:29606   */\n      add\n        /* \"#utility.yul\":29585:29619   */\n      mstore\n        /* \"#utility.yul\":29468:29626   */\n      pop\n      jump\t// out\n        /* \"#utility.yul\":29632:29846   */\n    tag_225:\n        /* \"#utility.yul\":29772:29838   */\n      0x22202f3e00000000000000000000000000000000000000000000000000000000\n        /* \"#utility.yul\":29768:29769   */\n      0x00\n        /* \"#utility.yul\":29760:29766   */\n      dup3\n        /* \"#utility.yul\":29756:29770   */\n      add\n        /* \"#utility.yul\":29749:29839   */\n      mstore\n        /* \"#utility.yul\":29632:29846   */\n      pop\n      jump\t// out\n        /* \"#utility.yul\":29852:30015   */\n    tag_230:\n        /* \"#utility.yul\":29992:30007   */\n      0x4865696e7a204c696e646e657200000000000000000000000000000000000000\n        /* \"#utility.yul\":29988:29989   */\n      0x00\n        /* \"#utility.yul\":29980:29986   */\n      dup3\n        /* \"#utility.yul\":29976:29990   */\n      add\n        /* \"#utility.yul\":29969:30008   */\n      mstore\n        /* \"#utility.yul\":29852:30015   */\n      pop\n      jump\t// out\n        /* \"#utility.yul\":30021:30336   */\n    tag_235:\n        /* \"#utility.yul\":30161:30227   */\n      0x3c726563742077696474683d223130302522206865696768743d223130302522\n        /* \"#utility.yul\":30157:30158   */\n      0x00\n        /* \"#utility.yul\":30149:30155   */\n      dup3\n        /* \"#utility.yul\":30145:30159   */\n      add\n        /* \"#utility.yul\":30138:30228   */\n      mstore\n        /* \"#utility.yul\":30262:30328   */\n      0x2066696c6c3d2200000000000000000000000000000000000000000000000000\n        /* \"#utility.yul\":30257:30259   */\n      0x20\n        /* \"#utility.yul\":30249:30255   */\n      dup3\n        /* \"#utility.yul\":30245:30260   */\n      add\n        /* \"#utility.yul\":30238:30329   */\n      mstore\n        /* \"#utility.yul\":30021:30336   */\n      pop\n      jump\t// out\n        /* \"#utility.yul\":30342:30657   */\n    tag_240:\n        /* \"#utility.yul\":30482:30548   */\n      0x3c7465787420783d2238302220793d2234302220636c6173733d227469746c65\n        /* \"#utility.yul\":30478:30479   */\n      0x00\n        /* \"#utility.yul\":30470:30476   */\n      dup3\n        /* \"#utility.yul\":30466:30480   */\n      add\n        /* \"#utility.yul\":30459:30549   */\n      mstore\n        /* \"#utility.yul\":30583:30649   */\n      0x223e000000000000000000000000000000000000000000000000000000000000\n        /* \"#utility.yul\":30578:30580   */\n      0x20\n        /* \"#utility.yul\":30570:30576   */\n      dup3\n        /* \"#utility.yul\":30566:30581   */\n      add\n        /* \"#utility.yul\":30559:30650   */\n      mstore\n        /* \"#utility.yul\":30342:30657   */\n      pop\n      jump\t// out\n        /* \"#utility.yul\":30663:30825   */\n    tag_245:\n        /* \"#utility.yul\":30803:30817   */\n      0x416e64792050656c6d6172640000000000000000000000000000000000000000\n        /* \"#utility.yul\":30799:30800   */\n      0x00\n        /* \"#utility.yul\":30791:30797   */\n      dup3\n        /* \"#utility.yul\":30787:30801   */\n      add\n        /* \"#utility.yul\":30780:30818   */\n      mstore\n        /* \"#utility.yul\":30663:30825   */\n      pop\n      jump\t// out\n        /* \"#utility.yul\":30831:30988   */\n    tag_250:\n        /* \"#utility.yul\":30971:30980   */\n      0x3c2f746578743e00000000000000000000000000000000000000000000000000\n        /* \"#utility.yul\":30967:30968   */\n      0x00\n        /* \"#utility.yul\":30959:30965   */\n      dup3\n        /* \"#utility.yul\":30955:30969   */\n      add\n        /* \"#utility.yul\":30948:30981   */\n      mstore\n        /* \"#utility.yul\":30831:30988   */\n      pop\n      jump\t// out\n        /* \"#utility.yul\":30994:31159   */\n    tag_255:\n        /* \"#utility.yul\":31134:31151   */\n      0x4e6f6168204b6174746572626163680000000000000000000000000000000000\n        /* \"#utility.yul\":31130:31131   */\n      0x00\n        /* \"#utility.yul\":31122:31128   */\n      dup3\n        /* \"#utility.yul\":31118:31132   */\n      add\n        /* \"#utility.yul\":31111:31152   */\n      mstore\n        /* \"#utility.yul\":30994:31159   */\n      pop\n      jump\t// out\n        /* \"#utility.yul\":31165:31318   */\n    tag_260:\n        /* \"#utility.yul\":31305:31310   */\n      0x6d696e0000000000000000000000000000000000000000000000000000000000\n        /* \"#utility.yul\":31301:31302   */\n      0x00\n        /* \"#utility.yul\":31293:31299   */\n      dup3\n        /* \"#utility.yul\":31289:31303   */\n      add\n        /* \"#utility.yul\":31282:31311   */\n      mstore\n        /* \"#utility.yul\":31165:31318   */\n      pop\n      jump\t// out\n        /* \"#utility.yul\":31324:31480   */\n    tag_265:\n        /* \"#utility.yul\":31464:31472   */\n      0x3c2f7376673e0000000000000000000000000000000000000000000000000000\n        /* \"#utility.yul\":31460:31461   */\n      0x00\n        /* \"#utility.yul\":31452:31458   */\n      dup3\n        /* \"#utility.yul\":31448:31462   */\n      add\n        /* \"#utility.yul\":31441:31473   */\n      mstore\n        /* \"#utility.yul\":31324:31480   */\n      pop\n      jump\t// out\n        /* \"#utility.yul\":31486:31643   */\n    tag_270:\n        /* \"#utility.yul\":31626:31635   */\n      0x3c7374796c653e00000000000000000000000000000000000000000000000000\n        /* \"#utility.yul\":31622:31623   */\n      0x00\n        /* \"#utility.yul\":31614:31620   */\n      dup3\n        /* \"#utility.yul\":31610:31624   */\n      add\n        /* \"#utility.yul\":31603:31636   */\n      mstore\n        /* \"#utility.yul\":31486:31643   */\n      pop\n      jump\t// out\n        /* \"#utility.yul\":31649:32020   */\n    tag_275:\n        /* \"#utility.yul\":31789:31823   */\n      0x74657874207b20666f6e742d66616d696c793a20417269616c2c2048656c7665\n        /* \"#utility.yul\":31785:31786   */\n      0x00\n        /* \"#utility.yul\":31777:31783   */\n      dup3\n        /* \"#utility.yul\":31773:31787   */\n      add\n        /* \"#utility.yul\":31766:31824   */\n      mstore\n        /* \"#utility.yul\":31862:31896   */\n      0x746963612c2073616e732d73657269663b20666f6e742d7765696768743a2020\n        /* \"#utility.yul\":31857:31859   */\n      0x20\n        /* \"#utility.yul\":31849:31855   */\n      dup3\n        /* \"#utility.yul\":31845:31860   */\n      add\n        /* \"#utility.yul\":31838:31897   */\n      mstore\n        /* \"#utility.yul\":31935:31969   */\n      0x626f6c643b2066696c6c3a20236666653530303b20666f6e742d73697a653a20\n        /* \"#utility.yul\":31930:31932   */\n      0x40\n        /* \"#utility.yul\":31922:31928   */\n      dup3\n        /* \"#utility.yul\":31918:31933   */\n      add\n        /* \"#utility.yul\":31911:31970   */\n      mstore\n        /* \"#utility.yul\":32004:32012   */\n      0x31656d3b207d0000000000000000000000000000000000000000000000000000\n        /* \"#utility.yul\":31999:32001   */\n      0x60\n        /* \"#utility.yul\":31991:31997   */\n      dup3\n        /* \"#utility.yul\":31987:32002   */\n      add\n        /* \"#utility.yul\":31980:32013   */\n      mstore\n        /* \"#utility.yul\":31649:32020   */\n      pop\n      jump\t// out\n        /* \"#utility.yul\":32026:32148   */\n    tag_140:\n        /* \"#utility.yul\":32099:32123   */\n      tag_414\n        /* \"#utility.yul\":32117:32122   */\n      dup2\n        /* \"#utility.yul\":32099:32123   */\n      tag_348\n      jump\t// in\n    tag_414:\n        /* \"#utility.yul\":32092:32097   */\n      dup2\n        /* \"#utility.yul\":32089:32124   */\n      eq\n        /* \"#utility.yul\":32079:32142   */\n      tag_415\n      jumpi\n        /* \"#utility.yul\":32138:32139   */\n      0x00\n        /* \"#utility.yul\":32135:32136   */\n      dup1\n        /* \"#utility.yul\":32128:32140   */\n      revert\n        /* \"#utility.yul\":32079:32142   */\n    tag_415:\n        /* \"#utility.yul\":32026:32148   */\n      pop\n      jump\t// out\n    stop\n    data_13ee12525b78d1800c98700a3c7bb02c6ed5e8636ea4bf89bace0c534940e1ba 3c7376672077696474683d2233393022206865696768743d22343335222066696c6c3d22677265656e2220786d6c6e733d22687474703a2f2f7777772e77332e6f72672f323030302f737667223e\n\n    auxdata: 0xa2646970667358221220ee4b407489a6d91e9d648937b040cda1e4dab74be045939c576b61704a69204f64736f6c63430008070033\n}\n",
				"bytecode": {
					"linkReferences": {},
					"object": "60806040523480156200001157600080fd5b5060405162001aca38038062001aca83398181016040528101906200003791906200019d565b846000806101000a81548173ffffffffffffffffffffffffffffffffffffffff021916908373ffffffffffffffffffffffffffffffffffffffff16021790555083600160006101000a81548173ffffffffffffffffffffffffffffffffffffffff021916908373ffffffffffffffffffffffffffffffffffffffff16021790555082600260006101000a81548173ffffffffffffffffffffffffffffffffffffffff021916908373ffffffffffffffffffffffffffffffffffffffff16021790555081600360006101000a81548173ffffffffffffffffffffffffffffffffffffffff021916908373ffffffffffffffffffffffffffffffffffffffff16021790555080600460006101000a81548173ffffffffffffffffffffffffffffffffffffffff021916908373ffffffffffffffffffffffffffffffffffffffff160217905550505050505062000278565b60008151905062000197816200025e565b92915050565b600080600080600060a08688031215620001bc57620001bb62000259565b5b6000620001cc8882890162000186565b9550506020620001df8882890162000186565b9450506040620001f28882890162000186565b9350506060620002058882890162000186565b9250506080620002188882890162000186565b9150509295509295909350565b6000620002328262000239565b9050919050565b600073ffffffffffffffffffffffffffffffffffffffff82169050919050565b600080fd5b620002698162000225565b81146200027557600080fd5b50565b61184280620002886000396000f3fe608060405234801561001057600080fd5b506004361061002b5760003560e01c8063d139e8a414610030575b600080fd5b61004a600480360381019061004591906109f0565b610060565b6040516100579190611037565b60405180910390f35b60606040518060800160405280604e81526020016117bf604e913990508060405160200161008e9190610f8b565b6040516020818303038152906040529050806040516020016100b09190610ef7565b60405160208183030381529060405290506100cb81846101c4565b905080836040516020016100e0929190610f2f565b6040516020818303038152906040529050806100fb87610751565b60405160200161010c929190610eb2565b60405160208183030381529060405290508061012786610751565b604051602001610138929190610e04565b60405160208183030381529060405290508061015385610751565b604051602001610164929190610e78565b60405160208183030381529060405290508082604051602001610188929190610e3e565b6040516020818303038152906040529050806040516020016101aa9190610f69565b604051602081830303815290604052905095945050505050565b6060816040516020016101d79190610dc9565b604051602081830303815290604052805190602001206040516020016101fc90611022565b6040516020818303038152906040528051906020012014156102e15782600260009054906101000a900473ffffffffffffffffffffffffffffffffffffffff1673ffffffffffffffffffffffffffffffffffffffff1663bd85f55f6040518163ffffffff1660e01b815260040160006040518083038186803b15801561028157600080fd5b505afa158015610295573d6000803e3d6000fd5b505050506040513d6000823e3d601f19601f820116820180604052508101906102be91906109a7565b6040516020016102cf929190610de0565b60405160208183030381529060405290505b816040516020016102f29190610dc9565b604051602081830303815290604052805190602001206040516020016103179061100d565b6040516020818303038152906040528051906020012014156103fa578260008054906101000a900473ffffffffffffffffffffffffffffffffffffffff1673ffffffffffffffffffffffffffffffffffffffff1663bd85f55f6040518163ffffffff1660e01b815260040160006040518083038186803b15801561039a57600080fd5b505afa1580156103ae573d6000803e3d6000fd5b505050506040513d6000823e3d601f19601f820116820180604052508101906103d791906109a7565b6040516020016103e8929190610de0565b60405160208183030381529060405290505b8160405160200161040b9190610dc9565b6040516020818303038152906040528051906020012060405160200161043090610fce565b6040516020818303038152906040528051906020012014156105155782600360009054906101000a900473ffffffffffffffffffffffffffffffffffffffff1673ffffffffffffffffffffffffffffffffffffffff1663bd85f55f6040518163ffffffff1660e01b815260040160006040518083038186803b1580156104b557600080fd5b505afa1580156104c9573d6000803e3d6000fd5b505050506040513d6000823e3d601f19601f820116820180604052508101906104f291906109a7565b604051602001610503929190610de0565b60405160208183030381529060405290505b816040516020016105269190610dc9565b6040516020818303038152906040528051906020012060405160200161054b90610fe3565b6040516020818303038152906040528051906020012014156106305782600160009054906101000a900473ffffffffffffffffffffffffffffffffffffffff1673ffffffffffffffffffffffffffffffffffffffff1663bd85f55f6040518163ffffffff1660e01b815260040160006040518083038186803b1580156105d057600080fd5b505afa1580156105e4573d6000803e3d6000fd5b505050506040513d6000823e3d601f19601f8201168201806040525081019061060d91906109a7565b60405160200161061e929190610de0565b60405160208183030381529060405290505b816040516020016106419190610dc9565b6040516020818303038152906040528051906020012060405160200161066690610ff8565b60405160208183030381529060405280519060200120141561074b5782600460009054906101000a900473ffffffffffffffffffffffffffffffffffffffff1673ffffffffffffffffffffffffffffffffffffffff1663bd85f55f6040518163ffffffff1660e01b815260040160006040518083038186803b1580156106eb57600080fd5b505afa1580156106ff573d6000803e3d6000fd5b505050506040513d6000823e3d601f19601f8201168201806040525081019061072891906109a7565b604051602001610739929190610de0565b60405160208183030381529060405290505b92915050565b60606000821415610799576040518060400160405280600181526020017f300000000000000000000000000000000000000000000000000000000000000081525090506108ad565b600082905060005b600082146107cb5780806107b49061120e565b915050600a826107c4919061112c565b91506107a1565b60008167ffffffffffffffff8111156107e7576107e6611315565b5b6040519080825280601f01601f1916602001820160405280156108195781602001600182028036833780820191505090505b5090505b600085146108a657600182610832919061115d565b9150600a856108419190611257565b603061084d91906110d6565b60f81b818381518110610863576108626112e6565b5b60200101907effffffffffffffffffffffffffffffffffffffffffffffffffffffffffffff1916908160001a905350600a8561089f919061112c565b945061081d565b8093505050505b919050565b60006108c56108c08461107e565b611059565b9050828152602081018484840111156108e1576108e0611349565b5b6108ec84828561119b565b509392505050565b60006109076109028461107e565b611059565b90508281526020810184848401111561092357610922611349565b5b61092e8482856111aa565b509392505050565b600082601f83011261094b5761094a611344565b5b813561095b8482602086016108b2565b91505092915050565b600082601f83011261097957610978611344565b5b81516109898482602086016108f4565b91505092915050565b6000813590506109a1816117a7565b92915050565b6000602082840312156109bd576109bc611353565b5b600082015167ffffffffffffffff8111156109db576109da61134e565b5b6109e784828501610964565b91505092915050565b600080600080600060a08688031215610a0c57610a0b611353565b5b6000610a1a88828901610992565b9550506020610a2b88828901610992565b9450506040610a3c88828901610992565b935050606086013567ffffffffffffffff811115610a5d57610a5c61134e565b5b610a6988828901610936565b925050608086013567ffffffffffffffff811115610a8a57610a8961134e565b5b610a9688828901610936565b9150509295509295909350565b6000610aae826110af565b610ab881856110ba565b9350610ac88185602086016111aa565b610ad181611358565b840191505092915050565b6000610ae7826110af565b610af181856110cb565b9350610b018185602086016111aa565b80840191505092915050565b6000610b1a600d836110cb565b9150610b2582611369565b600d82019050919050565b6000610b3d6007836110cb565b9150610b4882611392565b600782019050919050565b6000610b606042836110cb565b9150610b6b826113bb565b604282019050919050565b6000610b83601d836110cb565b9150610b8e82611430565b601d82019050919050565b6000610ba66020836110cb565b9150610bb182611459565b602082019050919050565b6000610bc9601d836110cb565b9150610bd482611482565b601d82019050919050565b6000610bec6020836110cb565b9150610bf7826114ab565b602082019050919050565b6000610c0f600b836110cb565b9150610c1a826114d4565b600b82019050919050565b6000610c326008836110cb565b9150610c3d826114fd565b600882019050919050565b6000610c556004836110cb565b9150610c6082611526565b600482019050919050565b6000610c78600d836110cb565b9150610c838261154f565b600d82019050919050565b6000610c9b6027836110cb565b9150610ca682611578565b602782019050919050565b6000610cbe6022836110cb565b9150610cc9826115c7565b602282019050919050565b6000610ce1600c836110cb565b9150610cec82611616565b600c82019050919050565b6000610d046007836110cb565b9150610d0f8261163f565b600782019050919050565b6000610d27600f836110cb565b9150610d3282611668565b600f82019050919050565b6000610d4a6003836110cb565b9150610d5582611691565b600382019050919050565b6000610d6d6006836110cb565b9150610d78826116ba565b600682019050919050565b6000610d906007836110cb565b9150610d9b826116e3565b600782019050919050565b6000610db36066836110cb565b9150610dbe8261170c565b606682019050919050565b6000610dd58284610adc565b915081905092915050565b6000610dec8285610adc565b9150610df88284610adc565b91508190509392505050565b6000610e108285610adc565b9150610e1b82610b76565b9150610e278284610adc565b9150610e3282610cf7565b91508190509392505050565b6000610e4a8285610adc565b9150610e5582610b99565b9150610e618284610adc565b9150610e6c82610cf7565b91508190509392505050565b6000610e848285610adc565b9150610e8f82610bbc565b9150610e9b8284610adc565b9150610ea682610cf7565b91508190509392505050565b6000610ebe8285610adc565b9150610ec982610bdf565b9150610ed58284610adc565b9150610ee082610d3d565b9150610eeb82610cf7565b91508190509392505050565b6000610f038284610adc565b9150610f0e82610c8e565b9150610f1982610b30565b9150610f2482610c48565b915081905092915050565b6000610f3b8285610adc565b9150610f4682610cb1565b9150610f528284610adc565b9150610f5d82610cf7565b91508190509392505050565b6000610f758284610adc565b9150610f8082610d60565b915081905092915050565b6000610f978284610adc565b9150610fa282610d83565b9150610fad82610da6565b9150610fb882610b53565b9150610fc382610c25565b915081905092915050565b6000610fd982610b0d565b9150819050919050565b6000610fee82610c02565b9150819050919050565b600061100382610c6b565b9150819050919050565b600061101882610cd4565b9150819050919050565b600061102d82610d1a565b9150819050919050565b600060208201905081810360008301526110518184610aa3565b905092915050565b6000611063611074565b905061106f82826111dd565b919050565b6000604051905090565b600067ffffffffffffffff82111561109957611098611315565b5b6110a282611358565b9050602081019050919050565b600081519050919050565b600082825260208201905092915050565b600081905092915050565b60006110e182611191565b91506110ec83611191565b9250827fffffffffffffffffffffffffffffffffffffffffffffffffffffffffffffffff0382111561112157611120611288565b5b828201905092915050565b600061113782611191565b915061114283611191565b925082611152576111516112b7565b5b828204905092915050565b600061116882611191565b915061117383611191565b92508282101561118657611185611288565b5b828203905092915050565b6000819050919050565b82818337600083830152505050565b60005b838110156111c85780820151818401526020810190506111ad565b838111156111d7576000848401525b50505050565b6111e682611358565b810181811067ffffffffffffffff8211171561120557611204611315565b5b80604052505050565b600061121982611191565b91507fffffffffffffffffffffffffffffffffffffffffffffffffffffffffffffffff82141561124c5761124b611288565b5b600182019050919050565b600061126282611191565b915061126d83611191565b92508261127d5761127c6112b7565b5b828206905092915050565b7f4e487b7100000000000000000000000000000000000000000000000000000000600052601160045260246000fd5b7f4e487b7100000000000000000000000000000000000000000000000000000000600052601260045260246000fd5b7f4e487b7100000000000000000000000000000000000000000000000000000000600052603260045260246000fd5b7f4e487b7100000000000000000000000000000000000000000000000000000000600052604160045260246000fd5b600080fd5b600080fd5b600080fd5b600080fd5b6000601f19601f8301169050919050565b7f50616a74696d204b6173616d6900000000000000000000000000000000000000600082015250565b7f2365343032323700000000000000000000000000000000000000000000000000600082015250565b7f2e7469746c65207b20746578742d616e63686f723a206c6566743b20666f6e7460008201527f2d7765696768743a20626f6c643b20666f6e742d73697a653a20312e35656d3b60208201527f207d000000000000000000000000000000000000000000000000000000000000604082015250565b7f3c7465787420783d2232302220793d2233343022203e47616d65733a20000000600082015250565b7f3c7465787420783d2232302220793d2233383022203e506f736974696f6e3a20600082015250565b7f3c7465787420783d2232302220793d2233363022203e476f616c733a20000000600082015250565b7f3c7465787420783d2232302220793d2233323022203e47616d65706c61793a20600082015250565b7f4c69616d204d696c6c6172000000000000000000000000000000000000000000600082015250565b7f3c2f7374796c653e000000000000000000000000000000000000000000000000600082015250565b7f22202f3e00000000000000000000000000000000000000000000000000000000600082015250565b7f4865696e7a204c696e646e657200000000000000000000000000000000000000600082015250565b7f3c726563742077696474683d223130302522206865696768743d22313030252260008201527f2066696c6c3d2200000000000000000000000000000000000000000000000000602082015250565b7f3c7465787420783d2238302220793d2234302220636c6173733d227469746c6560008201527f223e000000000000000000000000000000000000000000000000000000000000602082015250565b7f416e64792050656c6d6172640000000000000000000000000000000000000000600082015250565b7f3c2f746578743e00000000000000000000000000000000000000000000000000600082015250565b7f4e6f6168204b6174746572626163680000000000000000000000000000000000600082015250565b7f6d696e0000000000000000000000000000000000000000000000000000000000600082015250565b7f3c2f7376673e0000000000000000000000000000000000000000000000000000600082015250565b7f3c7374796c653e00000000000000000000000000000000000000000000000000600082015250565b7f74657874207b20666f6e742d66616d696c793a20417269616c2c2048656c766560008201527f746963612c2073616e732d73657269663b20666f6e742d7765696768743a202060208201527f626f6c643b2066696c6c3a20236666653530303b20666f6e742d73697a653a2060408201527f31656d3b207d0000000000000000000000000000000000000000000000000000606082015250565b6117b081611191565b81146117bb57600080fd5b5056fe3c7376672077696474683d2233393022206865696768743d22343335222066696c6c3d22677265656e2220786d6c6e733d22687474703a2f2f7777772e77332e6f72672f323030302f737667223ea2646970667358221220ee4b407489a6d91e9d648937b040cda1e4dab74be045939c576b61704a69204f64736f6c63430008070033",
					"opcodes": "PUSH1 0x80 PUSH1 0x40 MSTORE CALLVALUE DUP1 ISZERO PUSH3 0x11 JUMPI PUSH1 0x0 DUP1 REVERT JUMPDEST POP PUSH1 0x40 MLOAD PUSH3 0x1ACA CODESIZE SUB DUP1 PUSH3 0x1ACA DUP4 CODECOPY DUP2 DUP2 ADD PUSH1 0x40 MSTORE DUP2 ADD SWAP1 PUSH3 0x37 SWAP2 SWAP1 PUSH3 0x19D JUMP JUMPDEST DUP5 PUSH1 0x0 DUP1 PUSH2 0x100 EXP DUP2 SLOAD DUP2 PUSH20 0xFFFFFFFFFFFFFFFFFFFFFFFFFFFFFFFFFFFFFFFF MUL NOT AND SWAP1 DUP4 PUSH20 0xFFFFFFFFFFFFFFFFFFFFFFFFFFFFFFFFFFFFFFFF AND MUL OR SWAP1 SSTORE POP DUP4 PUSH1 0x1 PUSH1 0x0 PUSH2 0x100 EXP DUP2 SLOAD DUP2 PUSH20 0xFFFFFFFFFFFFFFFFFFFFFFFFFFFFFFFFFFFFFFFF MUL NOT AND SWAP1 DUP4 PUSH20 0xFFFFFFFFFFFFFFFFFFFFFFFFFFFFFFFFFFFFFFFF AND MUL OR SWAP1 SSTORE POP DUP3 PUSH1 0x2 PUSH1 0x0 PUSH2 0x100 EXP DUP2 SLOAD DUP2 PUSH20 0xFFFFFFFFFFFFFFFFFFFFFFFFFFFFFFFFFFFFFFFF MUL NOT AND SWAP1 DUP4 PUSH20 0xFFFFFFFFFFFFFFFFFFFFFFFFFFFFFFFFFFFFFFFF AND MUL OR SWAP1 SSTORE POP DUP2 PUSH1 0x3 PUSH1 0x0 PUSH2 0x100 EXP DUP2 SLOAD DUP2 PUSH20 0xFFFFFFFFFFFFFFFFFFFFFFFFFFFFFFFFFFFFFFFF MUL NOT AND SWAP1 DUP4 PUSH20 0xFFFFFFFFFFFFFFFFFFFFFFFFFFFFFFFFFFFFFFFF AND MUL OR SWAP1 SSTORE POP DUP1 PUSH1 0x4 PUSH1 0x0 PUSH2 0x100 EXP DUP2 SLOAD DUP2 PUSH20 0xFFFFFFFFFFFFFFFFFFFFFFFFFFFFFFFFFFFFFFFF MUL NOT AND SWAP1 DUP4 PUSH20 0xFFFFFFFFFFFFFFFFFFFFFFFFFFFFFFFFFFFFFFFF AND MUL OR SWAP1 SSTORE POP POP POP POP POP POP PUSH3 0x278 JUMP JUMPDEST PUSH1 0x0 DUP2 MLOAD SWAP1 POP PUSH3 0x197 DUP2 PUSH3 0x25E JUMP JUMPDEST SWAP3 SWAP2 POP POP JUMP JUMPDEST PUSH1 0x0 DUP1 PUSH1 0x0 DUP1 PUSH1 0x0 PUSH1 0xA0 DUP7 DUP9 SUB SLT ISZERO PUSH3 0x1BC JUMPI PUSH3 0x1BB PUSH3 0x259 JUMP JUMPDEST JUMPDEST PUSH1 0x0 PUSH3 0x1CC DUP9 DUP3 DUP10 ADD PUSH3 0x186 JUMP JUMPDEST SWAP6 POP POP PUSH1 0x20 PUSH3 0x1DF DUP9 DUP3 DUP10 ADD PUSH3 0x186 JUMP JUMPDEST SWAP5 POP POP PUSH1 0x40 PUSH3 0x1F2 DUP9 DUP3 DUP10 ADD PUSH3 0x186 JUMP JUMPDEST SWAP4 POP POP PUSH1 0x60 PUSH3 0x205 DUP9 DUP3 DUP10 ADD PUSH3 0x186 JUMP JUMPDEST SWAP3 POP POP PUSH1 0x80 PUSH3 0x218 DUP9 DUP3 DUP10 ADD PUSH3 0x186 JUMP JUMPDEST SWAP2 POP POP SWAP3 SWAP6 POP SWAP3 SWAP6 SWAP1 SWAP4 POP JUMP JUMPDEST PUSH1 0x0 PUSH3 0x232 DUP3 PUSH3 0x239 JUMP JUMPDEST SWAP1 POP SWAP2 SWAP1 POP JUMP JUMPDEST PUSH1 0x0 PUSH20 0xFFFFFFFFFFFFFFFFFFFFFFFFFFFFFFFFFFFFFFFF DUP3 AND SWAP1 POP SWAP2 SWAP1 POP JUMP JUMPDEST PUSH1 0x0 DUP1 REVERT JUMPDEST PUSH3 0x269 DUP2 PUSH3 0x225 JUMP JUMPDEST DUP2 EQ PUSH3 0x275 JUMPI PUSH1 0x0 DUP1 REVERT JUMPDEST POP JUMP JUMPDEST PUSH2 0x1842 DUP1 PUSH3 0x288 PUSH1 0x0 CODECOPY PUSH1 0x0 RETURN INVALID PUSH1 0x80 PUSH1 0x40 MSTORE CALLVALUE DUP1 ISZERO PUSH2 0x10 JUMPI PUSH1 0x0 DUP1 REVERT JUMPDEST POP PUSH1 0x4 CALLDATASIZE LT PUSH2 0x2B JUMPI PUSH1 0x0 CALLDATALOAD PUSH1 0xE0 SHR DUP1 PUSH4 0xD139E8A4 EQ PUSH2 0x30 JUMPI JUMPDEST PUSH1 0x0 DUP1 REVERT JUMPDEST PUSH2 0x4A PUSH1 0x4 DUP1 CALLDATASIZE SUB DUP2 ADD SWAP1 PUSH2 0x45 SWAP2 SWAP1 PUSH2 0x9F0 JUMP JUMPDEST PUSH2 0x60 JUMP JUMPDEST PUSH1 0x40 MLOAD PUSH2 0x57 SWAP2 SWAP1 PUSH2 0x1037 JUMP JUMPDEST PUSH1 0x40 MLOAD DUP1 SWAP2 SUB SWAP1 RETURN JUMPDEST PUSH1 0x60 PUSH1 0x40 MLOAD DUP1 PUSH1 0x80 ADD PUSH1 0x40 MSTORE DUP1 PUSH1 0x4E DUP2 MSTORE PUSH1 0x20 ADD PUSH2 0x17BF PUSH1 0x4E SWAP2 CODECOPY SWAP1 POP DUP1 PUSH1 0x40 MLOAD PUSH1 0x20 ADD PUSH2 0x8E SWAP2 SWAP1 PUSH2 0xF8B JUMP JUMPDEST PUSH1 0x40 MLOAD PUSH1 0x20 DUP2 DUP4 SUB SUB DUP2 MSTORE SWAP1 PUSH1 0x40 MSTORE SWAP1 POP DUP1 PUSH1 0x40 MLOAD PUSH1 0x20 ADD PUSH2 0xB0 SWAP2 SWAP1 PUSH2 0xEF7 JUMP JUMPDEST PUSH1 0x40 MLOAD PUSH1 0x20 DUP2 DUP4 SUB SUB DUP2 MSTORE SWAP1 PUSH1 0x40 MSTORE SWAP1 POP PUSH2 0xCB DUP2 DUP5 PUSH2 0x1C4 JUMP JUMPDEST SWAP1 POP DUP1 DUP4 PUSH1 0x40 MLOAD PUSH1 0x20 ADD PUSH2 0xE0 SWAP3 SWAP2 SWAP1 PUSH2 0xF2F JUMP JUMPDEST PUSH1 0x40 MLOAD PUSH1 0x20 DUP2 DUP4 SUB SUB DUP2 MSTORE SWAP1 PUSH1 0x40 MSTORE SWAP1 POP DUP1 PUSH2 0xFB DUP8 PUSH2 0x751 JUMP JUMPDEST PUSH1 0x40 MLOAD PUSH1 0x20 ADD PUSH2 0x10C SWAP3 SWAP2 SWAP1 PUSH2 0xEB2 JUMP JUMPDEST PUSH1 0x40 MLOAD PUSH1 0x20 DUP2 DUP4 SUB SUB DUP2 MSTORE SWAP1 PUSH1 0x40 MSTORE SWAP1 POP DUP1 PUSH2 0x127 DUP7 PUSH2 0x751 JUMP JUMPDEST PUSH1 0x40 MLOAD PUSH1 0x20 ADD PUSH2 0x138 SWAP3 SWAP2 SWAP1 PUSH2 0xE04 JUMP JUMPDEST PUSH1 0x40 MLOAD PUSH1 0x20 DUP2 DUP4 SUB SUB DUP2 MSTORE SWAP1 PUSH1 0x40 MSTORE SWAP1 POP DUP1 PUSH2 0x153 DUP6 PUSH2 0x751 JUMP JUMPDEST PUSH1 0x40 MLOAD PUSH1 0x20 ADD PUSH2 0x164 SWAP3 SWAP2 SWAP1 PUSH2 0xE78 JUMP JUMPDEST PUSH1 0x40 MLOAD PUSH1 0x20 DUP2 DUP4 SUB SUB DUP2 MSTORE SWAP1 PUSH1 0x40 MSTORE SWAP1 POP DUP1 DUP3 PUSH1 0x40 MLOAD PUSH1 0x20 ADD PUSH2 0x188 SWAP3 SWAP2 SWAP1 PUSH2 0xE3E JUMP JUMPDEST PUSH1 0x40 MLOAD PUSH1 0x20 DUP2 DUP4 SUB SUB DUP2 MSTORE SWAP1 PUSH1 0x40 MSTORE SWAP1 POP DUP1 PUSH1 0x40 MLOAD PUSH1 0x20 ADD PUSH2 0x1AA SWAP2 SWAP1 PUSH2 0xF69 JUMP JUMPDEST PUSH1 0x40 MLOAD PUSH1 0x20 DUP2 DUP4 SUB SUB DUP2 MSTORE SWAP1 PUSH1 0x40 MSTORE SWAP1 POP SWAP6 SWAP5 POP POP POP POP POP JUMP JUMPDEST PUSH1 0x60 DUP2 PUSH1 0x40 MLOAD PUSH1 0x20 ADD PUSH2 0x1D7 SWAP2 SWAP1 PUSH2 0xDC9 JUMP JUMPDEST PUSH1 0x40 MLOAD PUSH1 0x20 DUP2 DUP4 SUB SUB DUP2 MSTORE SWAP1 PUSH1 0x40 MSTORE DUP1 MLOAD SWAP1 PUSH1 0x20 ADD KECCAK256 PUSH1 0x40 MLOAD PUSH1 0x20 ADD PUSH2 0x1FC SWAP1 PUSH2 0x1022 JUMP JUMPDEST PUSH1 0x40 MLOAD PUSH1 0x20 DUP2 DUP4 SUB SUB DUP2 MSTORE SWAP1 PUSH1 0x40 MSTORE DUP1 MLOAD SWAP1 PUSH1 0x20 ADD KECCAK256 EQ ISZERO PUSH2 0x2E1 JUMPI DUP3 PUSH1 0x2 PUSH1 0x0 SWAP1 SLOAD SWAP1 PUSH2 0x100 EXP SWAP1 DIV PUSH20 0xFFFFFFFFFFFFFFFFFFFFFFFFFFFFFFFFFFFFFFFF AND PUSH20 0xFFFFFFFFFFFFFFFFFFFFFFFFFFFFFFFFFFFFFFFF AND PUSH4 0xBD85F55F PUSH1 0x40 MLOAD DUP2 PUSH4 0xFFFFFFFF AND PUSH1 0xE0 SHL DUP2 MSTORE PUSH1 0x4 ADD PUSH1 0x0 PUSH1 0x40 MLOAD DUP1 DUP4 SUB DUP2 DUP7 DUP1 EXTCODESIZE ISZERO DUP1 ISZERO PUSH2 0x281 JUMPI PUSH1 0x0 DUP1 REVERT JUMPDEST POP GAS STATICCALL ISZERO DUP1 ISZERO PUSH2 0x295 JUMPI RETURNDATASIZE PUSH1 0x0 DUP1 RETURNDATACOPY RETURNDATASIZE PUSH1 0x0 REVERT JUMPDEST POP POP POP POP PUSH1 0x40 MLOAD RETURNDATASIZE PUSH1 0x0 DUP3 RETURNDATACOPY RETURNDATASIZE PUSH1 0x1F NOT PUSH1 0x1F DUP3 ADD AND DUP3 ADD DUP1 PUSH1 0x40 MSTORE POP DUP2 ADD SWAP1 PUSH2 0x2BE SWAP2 SWAP1 PUSH2 0x9A7 JUMP JUMPDEST PUSH1 0x40 MLOAD PUSH1 0x20 ADD PUSH2 0x2CF SWAP3 SWAP2 SWAP1 PUSH2 0xDE0 JUMP JUMPDEST PUSH1 0x40 MLOAD PUSH1 0x20 DUP2 DUP4 SUB SUB DUP2 MSTORE SWAP1 PUSH1 0x40 MSTORE SWAP1 POP JUMPDEST DUP2 PUSH1 0x40 MLOAD PUSH1 0x20 ADD PUSH2 0x2F2 SWAP2 SWAP1 PUSH2 0xDC9 JUMP JUMPDEST PUSH1 0x40 MLOAD PUSH1 0x20 DUP2 DUP4 SUB SUB DUP2 MSTORE SWAP1 PUSH1 0x40 MSTORE DUP1 MLOAD SWAP1 PUSH1 0x20 ADD KECCAK256 PUSH1 0x40 MLOAD PUSH1 0x20 ADD PUSH2 0x317 SWAP1 PUSH2 0x100D JUMP JUMPDEST PUSH1 0x40 MLOAD PUSH1 0x20 DUP2 DUP4 SUB SUB DUP2 MSTORE SWAP1 PUSH1 0x40 MSTORE DUP1 MLOAD SWAP1 PUSH1 0x20 ADD KECCAK256 EQ ISZERO PUSH2 0x3FA JUMPI DUP3 PUSH1 0x0 DUP1 SLOAD SWAP1 PUSH2 0x100 EXP SWAP1 DIV PUSH20 0xFFFFFFFFFFFFFFFFFFFFFFFFFFFFFFFFFFFFFFFF AND PUSH20 0xFFFFFFFFFFFFFFFFFFFFFFFFFFFFFFFFFFFFFFFF AND PUSH4 0xBD85F55F PUSH1 0x40 MLOAD DUP2 PUSH4 0xFFFFFFFF AND PUSH1 0xE0 SHL DUP2 MSTORE PUSH1 0x4 ADD PUSH1 0x0 PUSH1 0x40 MLOAD DUP1 DUP4 SUB DUP2 DUP7 DUP1 EXTCODESIZE ISZERO DUP1 ISZERO PUSH2 0x39A JUMPI PUSH1 0x0 DUP1 REVERT JUMPDEST POP GAS STATICCALL ISZERO DUP1 ISZERO PUSH2 0x3AE JUMPI RETURNDATASIZE PUSH1 0x0 DUP1 RETURNDATACOPY RETURNDATASIZE PUSH1 0x0 REVERT JUMPDEST POP POP POP POP PUSH1 0x40 MLOAD RETURNDATASIZE PUSH1 0x0 DUP3 RETURNDATACOPY RETURNDATASIZE PUSH1 0x1F NOT PUSH1 0x1F DUP3 ADD AND DUP3 ADD DUP1 PUSH1 0x40 MSTORE POP DUP2 ADD SWAP1 PUSH2 0x3D7 SWAP2 SWAP1 PUSH2 0x9A7 JUMP JUMPDEST PUSH1 0x40 MLOAD PUSH1 0x20 ADD PUSH2 0x3E8 SWAP3 SWAP2 SWAP1 PUSH2 0xDE0 JUMP JUMPDEST PUSH1 0x40 MLOAD PUSH1 0x20 DUP2 DUP4 SUB SUB DUP2 MSTORE SWAP1 PUSH1 0x40 MSTORE SWAP1 POP JUMPDEST DUP2 PUSH1 0x40 MLOAD PUSH1 0x20 ADD PUSH2 0x40B SWAP2 SWAP1 PUSH2 0xDC9 JUMP JUMPDEST PUSH1 0x40 MLOAD PUSH1 0x20 DUP2 DUP4 SUB SUB DUP2 MSTORE SWAP1 PUSH1 0x40 MSTORE DUP1 MLOAD SWAP1 PUSH1 0x20 ADD KECCAK256 PUSH1 0x40 MLOAD PUSH1 0x20 ADD PUSH2 0x430 SWAP1 PUSH2 0xFCE JUMP JUMPDEST PUSH1 0x40 MLOAD PUSH1 0x20 DUP2 DUP4 SUB SUB DUP2 MSTORE SWAP1 PUSH1 0x40 MSTORE DUP1 MLOAD SWAP1 PUSH1 0x20 ADD KECCAK256 EQ ISZERO PUSH2 0x515 JUMPI DUP3 PUSH1 0x3 PUSH1 0x0 SWAP1 SLOAD SWAP1 PUSH2 0x100 EXP SWAP1 DIV PUSH20 0xFFFFFFFFFFFFFFFFFFFFFFFFFFFFFFFFFFFFFFFF AND PUSH20 0xFFFFFFFFFFFFFFFFFFFFFFFFFFFFFFFFFFFFFFFF AND PUSH4 0xBD85F55F PUSH1 0x40 MLOAD DUP2 PUSH4 0xFFFFFFFF AND PUSH1 0xE0 SHL DUP2 MSTORE PUSH1 0x4 ADD PUSH1 0x0 PUSH1 0x40 MLOAD DUP1 DUP4 SUB DUP2 DUP7 DUP1 EXTCODESIZE ISZERO DUP1 ISZERO PUSH2 0x4B5 JUMPI PUSH1 0x0 DUP1 REVERT JUMPDEST POP GAS STATICCALL ISZERO DUP1 ISZERO PUSH2 0x4C9 JUMPI RETURNDATASIZE PUSH1 0x0 DUP1 RETURNDATACOPY RETURNDATASIZE PUSH1 0x0 REVERT JUMPDEST POP POP POP POP PUSH1 0x40 MLOAD RETURNDATASIZE PUSH1 0x0 DUP3 RETURNDATACOPY RETURNDATASIZE PUSH1 0x1F NOT PUSH1 0x1F DUP3 ADD AND DUP3 ADD DUP1 PUSH1 0x40 MSTORE POP DUP2 ADD SWAP1 PUSH2 0x4F2 SWAP2 SWAP1 PUSH2 0x9A7 JUMP JUMPDEST PUSH1 0x40 MLOAD PUSH1 0x20 ADD PUSH2 0x503 SWAP3 SWAP2 SWAP1 PUSH2 0xDE0 JUMP JUMPDEST PUSH1 0x40 MLOAD PUSH1 0x20 DUP2 DUP4 SUB SUB DUP2 MSTORE SWAP1 PUSH1 0x40 MSTORE SWAP1 POP JUMPDEST DUP2 PUSH1 0x40 MLOAD PUSH1 0x20 ADD PUSH2 0x526 SWAP2 SWAP1 PUSH2 0xDC9 JUMP JUMPDEST PUSH1 0x40 MLOAD PUSH1 0x20 DUP2 DUP4 SUB SUB DUP2 MSTORE SWAP1 PUSH1 0x40 MSTORE DUP1 MLOAD SWAP1 PUSH1 0x20 ADD KECCAK256 PUSH1 0x40 MLOAD PUSH1 0x20 ADD PUSH2 0x54B SWAP1 PUSH2 0xFE3 JUMP JUMPDEST PUSH1 0x40 MLOAD PUSH1 0x20 DUP2 DUP4 SUB SUB DUP2 MSTORE SWAP1 PUSH1 0x40 MSTORE DUP1 MLOAD SWAP1 PUSH1 0x20 ADD KECCAK256 EQ ISZERO PUSH2 0x630 JUMPI DUP3 PUSH1 0x1 PUSH1 0x0 SWAP1 SLOAD SWAP1 PUSH2 0x100 EXP SWAP1 DIV PUSH20 0xFFFFFFFFFFFFFFFFFFFFFFFFFFFFFFFFFFFFFFFF AND PUSH20 0xFFFFFFFFFFFFFFFFFFFFFFFFFFFFFFFFFFFFFFFF AND PUSH4 0xBD85F55F PUSH1 0x40 MLOAD DUP2 PUSH4 0xFFFFFFFF AND PUSH1 0xE0 SHL DUP2 MSTORE PUSH1 0x4 ADD PUSH1 0x0 PUSH1 0x40 MLOAD DUP1 DUP4 SUB DUP2 DUP7 DUP1 EXTCODESIZE ISZERO DUP1 ISZERO PUSH2 0x5D0 JUMPI PUSH1 0x0 DUP1 REVERT JUMPDEST POP GAS STATICCALL ISZERO DUP1 ISZERO PUSH2 0x5E4 JUMPI RETURNDATASIZE PUSH1 0x0 DUP1 RETURNDATACOPY RETURNDATASIZE PUSH1 0x0 REVERT JUMPDEST POP POP POP POP PUSH1 0x40 MLOAD RETURNDATASIZE PUSH1 0x0 DUP3 RETURNDATACOPY RETURNDATASIZE PUSH1 0x1F NOT PUSH1 0x1F DUP3 ADD AND DUP3 ADD DUP1 PUSH1 0x40 MSTORE POP DUP2 ADD SWAP1 PUSH2 0x60D SWAP2 SWAP1 PUSH2 0x9A7 JUMP JUMPDEST PUSH1 0x40 MLOAD PUSH1 0x20 ADD PUSH2 0x61E SWAP3 SWAP2 SWAP1 PUSH2 0xDE0 JUMP JUMPDEST PUSH1 0x40 MLOAD PUSH1 0x20 DUP2 DUP4 SUB SUB DUP2 MSTORE SWAP1 PUSH1 0x40 MSTORE SWAP1 POP JUMPDEST DUP2 PUSH1 0x40 MLOAD PUSH1 0x20 ADD PUSH2 0x641 SWAP2 SWAP1 PUSH2 0xDC9 JUMP JUMPDEST PUSH1 0x40 MLOAD PUSH1 0x20 DUP2 DUP4 SUB SUB DUP2 MSTORE SWAP1 PUSH1 0x40 MSTORE DUP1 MLOAD SWAP1 PUSH1 0x20 ADD KECCAK256 PUSH1 0x40 MLOAD PUSH1 0x20 ADD PUSH2 0x666 SWAP1 PUSH2 0xFF8 JUMP JUMPDEST PUSH1 0x40 MLOAD PUSH1 0x20 DUP2 DUP4 SUB SUB DUP2 MSTORE SWAP1 PUSH1 0x40 MSTORE DUP1 MLOAD SWAP1 PUSH1 0x20 ADD KECCAK256 EQ ISZERO PUSH2 0x74B JUMPI DUP3 PUSH1 0x4 PUSH1 0x0 SWAP1 SLOAD SWAP1 PUSH2 0x100 EXP SWAP1 DIV PUSH20 0xFFFFFFFFFFFFFFFFFFFFFFFFFFFFFFFFFFFFFFFF AND PUSH20 0xFFFFFFFFFFFFFFFFFFFFFFFFFFFFFFFFFFFFFFFF AND PUSH4 0xBD85F55F PUSH1 0x40 MLOAD DUP2 PUSH4 0xFFFFFFFF AND PUSH1 0xE0 SHL DUP2 MSTORE PUSH1 0x4 ADD PUSH1 0x0 PUSH1 0x40 MLOAD DUP1 DUP4 SUB DUP2 DUP7 DUP1 EXTCODESIZE ISZERO DUP1 ISZERO PUSH2 0x6EB JUMPI PUSH1 0x0 DUP1 REVERT JUMPDEST POP GAS STATICCALL ISZERO DUP1 ISZERO PUSH2 0x6FF JUMPI RETURNDATASIZE PUSH1 0x0 DUP1 RETURNDATACOPY RETURNDATASIZE PUSH1 0x0 REVERT JUMPDEST POP POP POP POP PUSH1 0x40 MLOAD RETURNDATASIZE PUSH1 0x0 DUP3 RETURNDATACOPY RETURNDATASIZE PUSH1 0x1F NOT PUSH1 0x1F DUP3 ADD AND DUP3 ADD DUP1 PUSH1 0x40 MSTORE POP DUP2 ADD SWAP1 PUSH2 0x728 SWAP2 SWAP1 PUSH2 0x9A7 JUMP JUMPDEST PUSH1 0x40 MLOAD PUSH1 0x20 ADD PUSH2 0x739 SWAP3 SWAP2 SWAP1 PUSH2 0xDE0 JUMP JUMPDEST PUSH1 0x40 MLOAD PUSH1 0x20 DUP2 DUP4 SUB SUB DUP2 MSTORE SWAP1 PUSH1 0x40 MSTORE SWAP1 POP JUMPDEST SWAP3 SWAP2 POP POP JUMP JUMPDEST PUSH1 0x60 PUSH1 0x0 DUP3 EQ ISZERO PUSH2 0x799 JUMPI PUSH1 0x40 MLOAD DUP1 PUSH1 0x40 ADD PUSH1 0x40 MSTORE DUP1 PUSH1 0x1 DUP2 MSTORE PUSH1 0x20 ADD PUSH32 0x3000000000000000000000000000000000000000000000000000000000000000 DUP2 MSTORE POP SWAP1 POP PUSH2 0x8AD JUMP JUMPDEST PUSH1 0x0 DUP3 SWAP1 POP PUSH1 0x0 JUMPDEST PUSH1 0x0 DUP3 EQ PUSH2 0x7CB JUMPI DUP1 DUP1 PUSH2 0x7B4 SWAP1 PUSH2 0x120E JUMP JUMPDEST SWAP2 POP POP PUSH1 0xA DUP3 PUSH2 0x7C4 SWAP2 SWAP1 PUSH2 0x112C JUMP JUMPDEST SWAP2 POP PUSH2 0x7A1 JUMP JUMPDEST PUSH1 0x0 DUP2 PUSH8 0xFFFFFFFFFFFFFFFF DUP2 GT ISZERO PUSH2 0x7E7 JUMPI PUSH2 0x7E6 PUSH2 0x1315 JUMP JUMPDEST JUMPDEST PUSH1 0x40 MLOAD SWAP1 DUP1 DUP3 MSTORE DUP1 PUSH1 0x1F ADD PUSH1 0x1F NOT AND PUSH1 0x20 ADD DUP3 ADD PUSH1 0x40 MSTORE DUP1 ISZERO PUSH2 0x819 JUMPI DUP2 PUSH1 0x20 ADD PUSH1 0x1 DUP3 MUL DUP1 CALLDATASIZE DUP4 CALLDATACOPY DUP1 DUP3 ADD SWAP2 POP POP SWAP1 POP JUMPDEST POP SWAP1 POP JUMPDEST PUSH1 0x0 DUP6 EQ PUSH2 0x8A6 JUMPI PUSH1 0x1 DUP3 PUSH2 0x832 SWAP2 SWAP1 PUSH2 0x115D JUMP JUMPDEST SWAP2 POP PUSH1 0xA DUP6 PUSH2 0x841 SWAP2 SWAP1 PUSH2 0x1257 JUMP JUMPDEST PUSH1 0x30 PUSH2 0x84D SWAP2 SWAP1 PUSH2 0x10D6 JUMP JUMPDEST PUSH1 0xF8 SHL DUP2 DUP4 DUP2 MLOAD DUP2 LT PUSH2 0x863 JUMPI PUSH2 0x862 PUSH2 0x12E6 JUMP JUMPDEST JUMPDEST PUSH1 0x20 ADD ADD SWAP1 PUSH31 0xFFFFFFFFFFFFFFFFFFFFFFFFFFFFFFFFFFFFFFFFFFFFFFFFFFFFFFFFFFFFFF NOT AND SWAP1 DUP2 PUSH1 0x0 BYTE SWAP1 MSTORE8 POP PUSH1 0xA DUP6 PUSH2 0x89F SWAP2 SWAP1 PUSH2 0x112C JUMP JUMPDEST SWAP5 POP PUSH2 0x81D JUMP JUMPDEST DUP1 SWAP4 POP POP POP POP JUMPDEST SWAP2 SWAP1 POP JUMP JUMPDEST PUSH1 0x0 PUSH2 0x8C5 PUSH2 0x8C0 DUP5 PUSH2 0x107E JUMP JUMPDEST PUSH2 0x1059 JUMP JUMPDEST SWAP1 POP DUP3 DUP2 MSTORE PUSH1 0x20 DUP2 ADD DUP5 DUP5 DUP5 ADD GT ISZERO PUSH2 0x8E1 JUMPI PUSH2 0x8E0 PUSH2 0x1349 JUMP JUMPDEST JUMPDEST PUSH2 0x8EC DUP5 DUP3 DUP6 PUSH2 0x119B JUMP JUMPDEST POP SWAP4 SWAP3 POP POP POP JUMP JUMPDEST PUSH1 0x0 PUSH2 0x907 PUSH2 0x902 DUP5 PUSH2 0x107E JUMP JUMPDEST PUSH2 0x1059 JUMP JUMPDEST SWAP1 POP DUP3 DUP2 MSTORE PUSH1 0x20 DUP2 ADD DUP5 DUP5 DUP5 ADD GT ISZERO PUSH2 0x923 JUMPI PUSH2 0x922 PUSH2 0x1349 JUMP JUMPDEST JUMPDEST PUSH2 0x92E DUP5 DUP3 DUP6 PUSH2 0x11AA JUMP JUMPDEST POP SWAP4 SWAP3 POP POP POP JUMP JUMPDEST PUSH1 0x0 DUP3 PUSH1 0x1F DUP4 ADD SLT PUSH2 0x94B JUMPI PUSH2 0x94A PUSH2 0x1344 JUMP JUMPDEST JUMPDEST DUP2 CALLDATALOAD PUSH2 0x95B DUP5 DUP3 PUSH1 0x20 DUP7 ADD PUSH2 0x8B2 JUMP JUMPDEST SWAP2 POP POP SWAP3 SWAP2 POP POP JUMP JUMPDEST PUSH1 0x0 DUP3 PUSH1 0x1F DUP4 ADD SLT PUSH2 0x979 JUMPI PUSH2 0x978 PUSH2 0x1344 JUMP JUMPDEST JUMPDEST DUP2 MLOAD PUSH2 0x989 DUP5 DUP3 PUSH1 0x20 DUP7 ADD PUSH2 0x8F4 JUMP JUMPDEST SWAP2 POP POP SWAP3 SWAP2 POP POP JUMP JUMPDEST PUSH1 0x0 DUP2 CALLDATALOAD SWAP1 POP PUSH2 0x9A1 DUP2 PUSH2 0x17A7 JUMP JUMPDEST SWAP3 SWAP2 POP POP JUMP JUMPDEST PUSH1 0x0 PUSH1 0x20 DUP3 DUP5 SUB SLT ISZERO PUSH2 0x9BD JUMPI PUSH2 0x9BC PUSH2 0x1353 JUMP JUMPDEST JUMPDEST PUSH1 0x0 DUP3 ADD MLOAD PUSH8 0xFFFFFFFFFFFFFFFF DUP2 GT ISZERO PUSH2 0x9DB JUMPI PUSH2 0x9DA PUSH2 0x134E JUMP JUMPDEST JUMPDEST PUSH2 0x9E7 DUP5 DUP3 DUP6 ADD PUSH2 0x964 JUMP JUMPDEST SWAP2 POP POP SWAP3 SWAP2 POP POP JUMP JUMPDEST PUSH1 0x0 DUP1 PUSH1 0x0 DUP1 PUSH1 0x0 PUSH1 0xA0 DUP7 DUP9 SUB SLT ISZERO PUSH2 0xA0C JUMPI PUSH2 0xA0B PUSH2 0x1353 JUMP JUMPDEST JUMPDEST PUSH1 0x0 PUSH2 0xA1A DUP9 DUP3 DUP10 ADD PUSH2 0x992 JUMP JUMPDEST SWAP6 POP POP PUSH1 0x20 PUSH2 0xA2B DUP9 DUP3 DUP10 ADD PUSH2 0x992 JUMP JUMPDEST SWAP5 POP POP PUSH1 0x40 PUSH2 0xA3C DUP9 DUP3 DUP10 ADD PUSH2 0x992 JUMP JUMPDEST SWAP4 POP POP PUSH1 0x60 DUP7 ADD CALLDATALOAD PUSH8 0xFFFFFFFFFFFFFFFF DUP2 GT ISZERO PUSH2 0xA5D JUMPI PUSH2 0xA5C PUSH2 0x134E JUMP JUMPDEST JUMPDEST PUSH2 0xA69 DUP9 DUP3 DUP10 ADD PUSH2 0x936 JUMP JUMPDEST SWAP3 POP POP PUSH1 0x80 DUP7 ADD CALLDATALOAD PUSH8 0xFFFFFFFFFFFFFFFF DUP2 GT ISZERO PUSH2 0xA8A JUMPI PUSH2 0xA89 PUSH2 0x134E JUMP JUMPDEST JUMPDEST PUSH2 0xA96 DUP9 DUP3 DUP10 ADD PUSH2 0x936 JUMP JUMPDEST SWAP2 POP POP SWAP3 SWAP6 POP SWAP3 SWAP6 SWAP1 SWAP4 POP JUMP JUMPDEST PUSH1 0x0 PUSH2 0xAAE DUP3 PUSH2 0x10AF JUMP JUMPDEST PUSH2 0xAB8 DUP2 DUP6 PUSH2 0x10BA JUMP JUMPDEST SWAP4 POP PUSH2 0xAC8 DUP2 DUP6 PUSH1 0x20 DUP7 ADD PUSH2 0x11AA JUMP JUMPDEST PUSH2 0xAD1 DUP2 PUSH2 0x1358 JUMP JUMPDEST DUP5 ADD SWAP2 POP POP SWAP3 SWAP2 POP POP JUMP JUMPDEST PUSH1 0x0 PUSH2 0xAE7 DUP3 PUSH2 0x10AF JUMP JUMPDEST PUSH2 0xAF1 DUP2 DUP6 PUSH2 0x10CB JUMP JUMPDEST SWAP4 POP PUSH2 0xB01 DUP2 DUP6 PUSH1 0x20 DUP7 ADD PUSH2 0x11AA JUMP JUMPDEST DUP1 DUP5 ADD SWAP2 POP POP SWAP3 SWAP2 POP POP JUMP JUMPDEST PUSH1 0x0 PUSH2 0xB1A PUSH1 0xD DUP4 PUSH2 0x10CB JUMP JUMPDEST SWAP2 POP PUSH2 0xB25 DUP3 PUSH2 0x1369 JUMP JUMPDEST PUSH1 0xD DUP3 ADD SWAP1 POP SWAP2 SWAP1 POP JUMP JUMPDEST PUSH1 0x0 PUSH2 0xB3D PUSH1 0x7 DUP4 PUSH2 0x10CB JUMP JUMPDEST SWAP2 POP PUSH2 0xB48 DUP3 PUSH2 0x1392 JUMP JUMPDEST PUSH1 0x7 DUP3 ADD SWAP1 POP SWAP2 SWAP1 POP JUMP JUMPDEST PUSH1 0x0 PUSH2 0xB60 PUSH1 0x42 DUP4 PUSH2 0x10CB JUMP JUMPDEST SWAP2 POP PUSH2 0xB6B DUP3 PUSH2 0x13BB JUMP JUMPDEST PUSH1 0x42 DUP3 ADD SWAP1 POP SWAP2 SWAP1 POP JUMP JUMPDEST PUSH1 0x0 PUSH2 0xB83 PUSH1 0x1D DUP4 PUSH2 0x10CB JUMP JUMPDEST SWAP2 POP PUSH2 0xB8E DUP3 PUSH2 0x1430 JUMP JUMPDEST PUSH1 0x1D DUP3 ADD SWAP1 POP SWAP2 SWAP1 POP JUMP JUMPDEST PUSH1 0x0 PUSH2 0xBA6 PUSH1 0x20 DUP4 PUSH2 0x10CB JUMP JUMPDEST SWAP2 POP PUSH2 0xBB1 DUP3 PUSH2 0x1459 JUMP JUMPDEST PUSH1 0x20 DUP3 ADD SWAP1 POP SWAP2 SWAP1 POP JUMP JUMPDEST PUSH1 0x0 PUSH2 0xBC9 PUSH1 0x1D DUP4 PUSH2 0x10CB JUMP JUMPDEST SWAP2 POP PUSH2 0xBD4 DUP3 PUSH2 0x1482 JUMP JUMPDEST PUSH1 0x1D DUP3 ADD SWAP1 POP SWAP2 SWAP1 POP JUMP JUMPDEST PUSH1 0x0 PUSH2 0xBEC PUSH1 0x20 DUP4 PUSH2 0x10CB JUMP JUMPDEST SWAP2 POP PUSH2 0xBF7 DUP3 PUSH2 0x14AB JUMP JUMPDEST PUSH1 0x20 DUP3 ADD SWAP1 POP SWAP2 SWAP1 POP JUMP JUMPDEST PUSH1 0x0 PUSH2 0xC0F PUSH1 0xB DUP4 PUSH2 0x10CB JUMP JUMPDEST SWAP2 POP PUSH2 0xC1A DUP3 PUSH2 0x14D4 JUMP JUMPDEST PUSH1 0xB DUP3 ADD SWAP1 POP SWAP2 SWAP1 POP JUMP JUMPDEST PUSH1 0x0 PUSH2 0xC32 PUSH1 0x8 DUP4 PUSH2 0x10CB JUMP JUMPDEST SWAP2 POP PUSH2 0xC3D DUP3 PUSH2 0x14FD JUMP JUMPDEST PUSH1 0x8 DUP3 ADD SWAP1 POP SWAP2 SWAP1 POP JUMP JUMPDEST PUSH1 0x0 PUSH2 0xC55 PUSH1 0x4 DUP4 PUSH2 0x10CB JUMP JUMPDEST SWAP2 POP PUSH2 0xC60 DUP3 PUSH2 0x1526 JUMP JUMPDEST PUSH1 0x4 DUP3 ADD SWAP1 POP SWAP2 SWAP1 POP JUMP JUMPDEST PUSH1 0x0 PUSH2 0xC78 PUSH1 0xD DUP4 PUSH2 0x10CB JUMP JUMPDEST SWAP2 POP PUSH2 0xC83 DUP3 PUSH2 0x154F JUMP JUMPDEST PUSH1 0xD DUP3 ADD SWAP1 POP SWAP2 SWAP1 POP JUMP JUMPDEST PUSH1 0x0 PUSH2 0xC9B PUSH1 0x27 DUP4 PUSH2 0x10CB JUMP JUMPDEST SWAP2 POP PUSH2 0xCA6 DUP3 PUSH2 0x1578 JUMP JUMPDEST PUSH1 0x27 DUP3 ADD SWAP1 POP SWAP2 SWAP1 POP JUMP JUMPDEST PUSH1 0x0 PUSH2 0xCBE PUSH1 0x22 DUP4 PUSH2 0x10CB JUMP JUMPDEST SWAP2 POP PUSH2 0xCC9 DUP3 PUSH2 0x15C7 JUMP JUMPDEST PUSH1 0x22 DUP3 ADD SWAP1 POP SWAP2 SWAP1 POP JUMP JUMPDEST PUSH1 0x0 PUSH2 0xCE1 PUSH1 0xC DUP4 PUSH2 0x10CB JUMP JUMPDEST SWAP2 POP PUSH2 0xCEC DUP3 PUSH2 0x1616 JUMP JUMPDEST PUSH1 0xC DUP3 ADD SWAP1 POP SWAP2 SWAP1 POP JUMP JUMPDEST PUSH1 0x0 PUSH2 0xD04 PUSH1 0x7 DUP4 PUSH2 0x10CB JUMP JUMPDEST SWAP2 POP PUSH2 0xD0F DUP3 PUSH2 0x163F JUMP JUMPDEST PUSH1 0x7 DUP3 ADD SWAP1 POP SWAP2 SWAP1 POP JUMP JUMPDEST PUSH1 0x0 PUSH2 0xD27 PUSH1 0xF DUP4 PUSH2 0x10CB JUMP JUMPDEST SWAP2 POP PUSH2 0xD32 DUP3 PUSH2 0x1668 JUMP JUMPDEST PUSH1 0xF DUP3 ADD SWAP1 POP SWAP2 SWAP1 POP JUMP JUMPDEST PUSH1 0x0 PUSH2 0xD4A PUSH1 0x3 DUP4 PUSH2 0x10CB JUMP JUMPDEST SWAP2 POP PUSH2 0xD55 DUP3 PUSH2 0x1691 JUMP JUMPDEST PUSH1 0x3 DUP3 ADD SWAP1 POP SWAP2 SWAP1 POP JUMP JUMPDEST PUSH1 0x0 PUSH2 0xD6D PUSH1 0x6 DUP4 PUSH2 0x10CB JUMP JUMPDEST SWAP2 POP PUSH2 0xD78 DUP3 PUSH2 0x16BA JUMP JUMPDEST PUSH1 0x6 DUP3 ADD SWAP1 POP SWAP2 SWAP1 POP JUMP JUMPDEST PUSH1 0x0 PUSH2 0xD90 PUSH1 0x7 DUP4 PUSH2 0x10CB JUMP JUMPDEST SWAP2 POP PUSH2 0xD9B DUP3 PUSH2 0x16E3 JUMP JUMPDEST PUSH1 0x7 DUP3 ADD SWAP1 POP SWAP2 SWAP1 POP JUMP JUMPDEST PUSH1 0x0 PUSH2 0xDB3 PUSH1 0x66 DUP4 PUSH2 0x10CB JUMP JUMPDEST SWAP2 POP PUSH2 0xDBE DUP3 PUSH2 0x170C JUMP JUMPDEST PUSH1 0x66 DUP3 ADD SWAP1 POP SWAP2 SWAP1 POP JUMP JUMPDEST PUSH1 0x0 PUSH2 0xDD5 DUP3 DUP5 PUSH2 0xADC JUMP JUMPDEST SWAP2 POP DUP2 SWAP1 POP SWAP3 SWAP2 POP POP JUMP JUMPDEST PUSH1 0x0 PUSH2 0xDEC DUP3 DUP6 PUSH2 0xADC JUMP JUMPDEST SWAP2 POP PUSH2 0xDF8 DUP3 DUP5 PUSH2 0xADC JUMP JUMPDEST SWAP2 POP DUP2 SWAP1 POP SWAP4 SWAP3 POP POP POP JUMP JUMPDEST PUSH1 0x0 PUSH2 0xE10 DUP3 DUP6 PUSH2 0xADC JUMP JUMPDEST SWAP2 POP PUSH2 0xE1B DUP3 PUSH2 0xB76 JUMP JUMPDEST SWAP2 POP PUSH2 0xE27 DUP3 DUP5 PUSH2 0xADC JUMP JUMPDEST SWAP2 POP PUSH2 0xE32 DUP3 PUSH2 0xCF7 JUMP JUMPDEST SWAP2 POP DUP2 SWAP1 POP SWAP4 SWAP3 POP POP POP JUMP JUMPDEST PUSH1 0x0 PUSH2 0xE4A DUP3 DUP6 PUSH2 0xADC JUMP JUMPDEST SWAP2 POP PUSH2 0xE55 DUP3 PUSH2 0xB99 JUMP JUMPDEST SWAP2 POP PUSH2 0xE61 DUP3 DUP5 PUSH2 0xADC JUMP JUMPDEST SWAP2 POP PUSH2 0xE6C DUP3 PUSH2 0xCF7 JUMP JUMPDEST SWAP2 POP DUP2 SWAP1 POP SWAP4 SWAP3 POP POP POP JUMP JUMPDEST PUSH1 0x0 PUSH2 0xE84 DUP3 DUP6 PUSH2 0xADC JUMP JUMPDEST SWAP2 POP PUSH2 0xE8F DUP3 PUSH2 0xBBC JUMP JUMPDEST SWAP2 POP PUSH2 0xE9B DUP3 DUP5 PUSH2 0xADC JUMP JUMPDEST SWAP2 POP PUSH2 0xEA6 DUP3 PUSH2 0xCF7 JUMP JUMPDEST SWAP2 POP DUP2 SWAP1 POP SWAP4 SWAP3 POP POP POP JUMP JUMPDEST PUSH1 0x0 PUSH2 0xEBE DUP3 DUP6 PUSH2 0xADC JUMP JUMPDEST SWAP2 POP PUSH2 0xEC9 DUP3 PUSH2 0xBDF JUMP JUMPDEST SWAP2 POP PUSH2 0xED5 DUP3 DUP5 PUSH2 0xADC JUMP JUMPDEST SWAP2 POP PUSH2 0xEE0 DUP3 PUSH2 0xD3D JUMP JUMPDEST SWAP2 POP PUSH2 0xEEB DUP3 PUSH2 0xCF7 JUMP JUMPDEST SWAP2 POP DUP2 SWAP1 POP SWAP4 SWAP3 POP POP POP JUMP JUMPDEST PUSH1 0x0 PUSH2 0xF03 DUP3 DUP5 PUSH2 0xADC JUMP JUMPDEST SWAP2 POP PUSH2 0xF0E DUP3 PUSH2 0xC8E JUMP JUMPDEST SWAP2 POP PUSH2 0xF19 DUP3 PUSH2 0xB30 JUMP JUMPDEST SWAP2 POP PUSH2 0xF24 DUP3 PUSH2 0xC48 JUMP JUMPDEST SWAP2 POP DUP2 SWAP1 POP SWAP3 SWAP2 POP POP JUMP JUMPDEST PUSH1 0x0 PUSH2 0xF3B DUP3 DUP6 PUSH2 0xADC JUMP JUMPDEST SWAP2 POP PUSH2 0xF46 DUP3 PUSH2 0xCB1 JUMP JUMPDEST SWAP2 POP PUSH2 0xF52 DUP3 DUP5 PUSH2 0xADC JUMP JUMPDEST SWAP2 POP PUSH2 0xF5D DUP3 PUSH2 0xCF7 JUMP JUMPDEST SWAP2 POP DUP2 SWAP1 POP SWAP4 SWAP3 POP POP POP JUMP JUMPDEST PUSH1 0x0 PUSH2 0xF75 DUP3 DUP5 PUSH2 0xADC JUMP JUMPDEST SWAP2 POP PUSH2 0xF80 DUP3 PUSH2 0xD60 JUMP JUMPDEST SWAP2 POP DUP2 SWAP1 POP SWAP3 SWAP2 POP POP JUMP JUMPDEST PUSH1 0x0 PUSH2 0xF97 DUP3 DUP5 PUSH2 0xADC JUMP JUMPDEST SWAP2 POP PUSH2 0xFA2 DUP3 PUSH2 0xD83 JUMP JUMPDEST SWAP2 POP PUSH2 0xFAD DUP3 PUSH2 0xDA6 JUMP JUMPDEST SWAP2 POP PUSH2 0xFB8 DUP3 PUSH2 0xB53 JUMP JUMPDEST SWAP2 POP PUSH2 0xFC3 DUP3 PUSH2 0xC25 JUMP JUMPDEST SWAP2 POP DUP2 SWAP1 POP SWAP3 SWAP2 POP POP JUMP JUMPDEST PUSH1 0x0 PUSH2 0xFD9 DUP3 PUSH2 0xB0D JUMP JUMPDEST SWAP2 POP DUP2 SWAP1 POP SWAP2 SWAP1 POP JUMP JUMPDEST PUSH1 0x0 PUSH2 0xFEE DUP3 PUSH2 0xC02 JUMP JUMPDEST SWAP2 POP DUP2 SWAP1 POP SWAP2 SWAP1 POP JUMP JUMPDEST PUSH1 0x0 PUSH2 0x1003 DUP3 PUSH2 0xC6B JUMP JUMPDEST SWAP2 POP DUP2 SWAP1 POP SWAP2 SWAP1 POP JUMP JUMPDEST PUSH1 0x0 PUSH2 0x1018 DUP3 PUSH2 0xCD4 JUMP JUMPDEST SWAP2 POP DUP2 SWAP1 POP SWAP2 SWAP1 POP JUMP JUMPDEST PUSH1 0x0 PUSH2 0x102D DUP3 PUSH2 0xD1A JUMP JUMPDEST SWAP2 POP DUP2 SWAP1 POP SWAP2 SWAP1 POP JUMP JUMPDEST PUSH1 0x0 PUSH1 0x20 DUP3 ADD SWAP1 POP DUP2 DUP2 SUB PUSH1 0x0 DUP4 ADD MSTORE PUSH2 0x1051 DUP2 DUP5 PUSH2 0xAA3 JUMP JUMPDEST SWAP1 POP SWAP3 SWAP2 POP POP JUMP JUMPDEST PUSH1 0x0 PUSH2 0x1063 PUSH2 0x1074 JUMP JUMPDEST SWAP1 POP PUSH2 0x106F DUP3 DUP3 PUSH2 0x11DD JUMP JUMPDEST SWAP2 SWAP1 POP JUMP JUMPDEST PUSH1 0x0 PUSH1 0x40 MLOAD SWAP1 POP SWAP1 JUMP JUMPDEST PUSH1 0x0 PUSH8 0xFFFFFFFFFFFFFFFF DUP3 GT ISZERO PUSH2 0x1099 JUMPI PUSH2 0x1098 PUSH2 0x1315 JUMP JUMPDEST JUMPDEST PUSH2 0x10A2 DUP3 PUSH2 0x1358 JUMP JUMPDEST SWAP1 POP PUSH1 0x20 DUP2 ADD SWAP1 POP SWAP2 SWAP1 POP JUMP JUMPDEST PUSH1 0x0 DUP2 MLOAD SWAP1 POP SWAP2 SWAP1 POP JUMP JUMPDEST PUSH1 0x0 DUP3 DUP3 MSTORE PUSH1 0x20 DUP3 ADD SWAP1 POP SWAP3 SWAP2 POP POP JUMP JUMPDEST PUSH1 0x0 DUP2 SWAP1 POP SWAP3 SWAP2 POP POP JUMP JUMPDEST PUSH1 0x0 PUSH2 0x10E1 DUP3 PUSH2 0x1191 JUMP JUMPDEST SWAP2 POP PUSH2 0x10EC DUP4 PUSH2 0x1191 JUMP JUMPDEST SWAP3 POP DUP3 PUSH32 0xFFFFFFFFFFFFFFFFFFFFFFFFFFFFFFFFFFFFFFFFFFFFFFFFFFFFFFFFFFFFFFFF SUB DUP3 GT ISZERO PUSH2 0x1121 JUMPI PUSH2 0x1120 PUSH2 0x1288 JUMP JUMPDEST JUMPDEST DUP3 DUP3 ADD SWAP1 POP SWAP3 SWAP2 POP POP JUMP JUMPDEST PUSH1 0x0 PUSH2 0x1137 DUP3 PUSH2 0x1191 JUMP JUMPDEST SWAP2 POP PUSH2 0x1142 DUP4 PUSH2 0x1191 JUMP JUMPDEST SWAP3 POP DUP3 PUSH2 0x1152 JUMPI PUSH2 0x1151 PUSH2 0x12B7 JUMP JUMPDEST JUMPDEST DUP3 DUP3 DIV SWAP1 POP SWAP3 SWAP2 POP POP JUMP JUMPDEST PUSH1 0x0 PUSH2 0x1168 DUP3 PUSH2 0x1191 JUMP JUMPDEST SWAP2 POP PUSH2 0x1173 DUP4 PUSH2 0x1191 JUMP JUMPDEST SWAP3 POP DUP3 DUP3 LT ISZERO PUSH2 0x1186 JUMPI PUSH2 0x1185 PUSH2 0x1288 JUMP JUMPDEST JUMPDEST DUP3 DUP3 SUB SWAP1 POP SWAP3 SWAP2 POP POP JUMP JUMPDEST PUSH1 0x0 DUP2 SWAP1 POP SWAP2 SWAP1 POP JUMP JUMPDEST DUP3 DUP2 DUP4 CALLDATACOPY PUSH1 0x0 DUP4 DUP4 ADD MSTORE POP POP POP JUMP JUMPDEST PUSH1 0x0 JUMPDEST DUP4 DUP2 LT ISZERO PUSH2 0x11C8 JUMPI DUP1 DUP3 ADD MLOAD DUP2 DUP5 ADD MSTORE PUSH1 0x20 DUP2 ADD SWAP1 POP PUSH2 0x11AD JUMP JUMPDEST DUP4 DUP2 GT ISZERO PUSH2 0x11D7 JUMPI PUSH1 0x0 DUP5 DUP5 ADD MSTORE JUMPDEST POP POP POP POP JUMP JUMPDEST PUSH2 0x11E6 DUP3 PUSH2 0x1358 JUMP JUMPDEST DUP2 ADD DUP2 DUP2 LT PUSH8 0xFFFFFFFFFFFFFFFF DUP3 GT OR ISZERO PUSH2 0x1205 JUMPI PUSH2 0x1204 PUSH2 0x1315 JUMP JUMPDEST JUMPDEST DUP1 PUSH1 0x40 MSTORE POP POP POP JUMP JUMPDEST PUSH1 0x0 PUSH2 0x1219 DUP3 PUSH2 0x1191 JUMP JUMPDEST SWAP2 POP PUSH32 0xFFFFFFFFFFFFFFFFFFFFFFFFFFFFFFFFFFFFFFFFFFFFFFFFFFFFFFFFFFFFFFFF DUP3 EQ ISZERO PUSH2 0x124C JUMPI PUSH2 0x124B PUSH2 0x1288 JUMP JUMPDEST JUMPDEST PUSH1 0x1 DUP3 ADD SWAP1 POP SWAP2 SWAP1 POP JUMP JUMPDEST PUSH1 0x0 PUSH2 0x1262 DUP3 PUSH2 0x1191 JUMP JUMPDEST SWAP2 POP PUSH2 0x126D DUP4 PUSH2 0x1191 JUMP JUMPDEST SWAP3 POP DUP3 PUSH2 0x127D JUMPI PUSH2 0x127C PUSH2 0x12B7 JUMP JUMPDEST JUMPDEST DUP3 DUP3 MOD SWAP1 POP SWAP3 SWAP2 POP POP JUMP JUMPDEST PUSH32 0x4E487B7100000000000000000000000000000000000000000000000000000000 PUSH1 0x0 MSTORE PUSH1 0x11 PUSH1 0x4 MSTORE PUSH1 0x24 PUSH1 0x0 REVERT JUMPDEST PUSH32 0x4E487B7100000000000000000000000000000000000000000000000000000000 PUSH1 0x0 MSTORE PUSH1 0x12 PUSH1 0x4 MSTORE PUSH1 0x24 PUSH1 0x0 REVERT JUMPDEST PUSH32 0x4E487B7100000000000000000000000000000000000000000000000000000000 PUSH1 0x0 MSTORE PUSH1 0x32 PUSH1 0x4 MSTORE PUSH1 0x24 PUSH1 0x0 REVERT JUMPDEST PUSH32 0x4E487B7100000000000000000000000000000000000000000000000000000000 PUSH1 0x0 MSTORE PUSH1 0x41 PUSH1 0x4 MSTORE PUSH1 0x24 PUSH1 0x0 REVERT JUMPDEST PUSH1 0x0 DUP1 REVERT JUMPDEST PUSH1 0x0 DUP1 REVERT JUMPDEST PUSH1 0x0 DUP1 REVERT JUMPDEST PUSH1 0x0 DUP1 REVERT JUMPDEST PUSH1 0x0 PUSH1 0x1F NOT PUSH1 0x1F DUP4 ADD AND SWAP1 POP SWAP2 SWAP1 POP JUMP JUMPDEST PUSH32 0x50616A74696D204B6173616D6900000000000000000000000000000000000000 PUSH1 0x0 DUP3 ADD MSTORE POP JUMP JUMPDEST PUSH32 0x2365343032323700000000000000000000000000000000000000000000000000 PUSH1 0x0 DUP3 ADD MSTORE POP JUMP JUMPDEST PUSH32 0x2E7469746C65207B20746578742D616E63686F723A206C6566743B20666F6E74 PUSH1 0x0 DUP3 ADD MSTORE PUSH32 0x2D7765696768743A20626F6C643B20666F6E742D73697A653A20312E35656D3B PUSH1 0x20 DUP3 ADD MSTORE PUSH32 0x207D000000000000000000000000000000000000000000000000000000000000 PUSH1 0x40 DUP3 ADD MSTORE POP JUMP JUMPDEST PUSH32 0x3C7465787420783D2232302220793D2233343022203E47616D65733A20000000 PUSH1 0x0 DUP3 ADD MSTORE POP JUMP JUMPDEST PUSH32 0x3C7465787420783D2232302220793D2233383022203E506F736974696F6E3A20 PUSH1 0x0 DUP3 ADD MSTORE POP JUMP JUMPDEST PUSH32 0x3C7465787420783D2232302220793D2233363022203E476F616C733A20000000 PUSH1 0x0 DUP3 ADD MSTORE POP JUMP JUMPDEST PUSH32 0x3C7465787420783D2232302220793D2233323022203E47616D65706C61793A20 PUSH1 0x0 DUP3 ADD MSTORE POP JUMP JUMPDEST PUSH32 0x4C69616D204D696C6C6172000000000000000000000000000000000000000000 PUSH1 0x0 DUP3 ADD MSTORE POP JUMP JUMPDEST PUSH32 0x3C2F7374796C653E000000000000000000000000000000000000000000000000 PUSH1 0x0 DUP3 ADD MSTORE POP JUMP JUMPDEST PUSH32 0x22202F3E00000000000000000000000000000000000000000000000000000000 PUSH1 0x0 DUP3 ADD MSTORE POP JUMP JUMPDEST PUSH32 0x4865696E7A204C696E646E657200000000000000000000000000000000000000 PUSH1 0x0 DUP3 ADD MSTORE POP JUMP JUMPDEST PUSH32 0x3C726563742077696474683D223130302522206865696768743D223130302522 PUSH1 0x0 DUP3 ADD MSTORE PUSH32 0x2066696C6C3D2200000000000000000000000000000000000000000000000000 PUSH1 0x20 DUP3 ADD MSTORE POP JUMP JUMPDEST PUSH32 0x3C7465787420783D2238302220793D2234302220636C6173733D227469746C65 PUSH1 0x0 DUP3 ADD MSTORE PUSH32 0x223E000000000000000000000000000000000000000000000000000000000000 PUSH1 0x20 DUP3 ADD MSTORE POP JUMP JUMPDEST PUSH32 0x416E64792050656C6D6172640000000000000000000000000000000000000000 PUSH1 0x0 DUP3 ADD MSTORE POP JUMP JUMPDEST PUSH32 0x3C2F746578743E00000000000000000000000000000000000000000000000000 PUSH1 0x0 DUP3 ADD MSTORE POP JUMP JUMPDEST PUSH32 0x4E6F6168204B6174746572626163680000000000000000000000000000000000 PUSH1 0x0 DUP3 ADD MSTORE POP JUMP JUMPDEST PUSH32 0x6D696E0000000000000000000000000000000000000000000000000000000000 PUSH1 0x0 DUP3 ADD MSTORE POP JUMP JUMPDEST PUSH32 0x3C2F7376673E0000000000000000000000000000000000000000000000000000 PUSH1 0x0 DUP3 ADD MSTORE POP JUMP JUMPDEST PUSH32 0x3C7374796C653E00000000000000000000000000000000000000000000000000 PUSH1 0x0 DUP3 ADD MSTORE POP JUMP JUMPDEST PUSH32 0x74657874207B20666F6E742D66616D696C793A20417269616C2C2048656C7665 PUSH1 0x0 DUP3 ADD MSTORE PUSH32 0x746963612C2073616E732D73657269663B20666F6E742D7765696768743A2020 PUSH1 0x20 DUP3 ADD MSTORE PUSH32 0x626F6C643B2066696C6C3A20236666653530303B20666F6E742D73697A653A20 PUSH1 0x40 DUP3 ADD MSTORE PUSH32 0x31656D3B207D0000000000000000000000000000000000000000000000000000 PUSH1 0x60 DUP3 ADD MSTORE POP JUMP JUMPDEST PUSH2 0x17B0 DUP2 PUSH2 0x1191 JUMP JUMPDEST DUP2 EQ PUSH2 0x17BB JUMPI PUSH1 0x0 DUP1 REVERT JUMPDEST POP JUMP INVALID EXTCODECOPY PUSH20 0x76672077696474683D2233393022206865696768 PUSH21 0x3D22343335222066696C6C3D22677265656E222078 PUSH14 0x6C6E733D22687474703A2F2F7777 PUSH24 0x2E77332E6F72672F323030302F737667223EA26469706673 PC 0x22 SLT KECCAK256 0xEE 0x4B BLOCKHASH PUSH21 0x89A6D91E9D648937B040CDA1E4DAB74BE045939C57 PUSH12 0x61704A69204F64736F6C6343 STOP ADDMOD SMOD STOP CALLER "
				},
				"gasEstimates": {
					"creation": {
						"codeDepositCost": "1242000",
						"executionCost": "infinite",
						"totalCost": "infinite"
					},
					"external": {
						"getSVG(uint256,uint256,uint256,string,string)": "infinite"
					},
					"internal": {
						"addImage(string memory,string memory)": "infinite"
					}
				},
				"methodIdentifiers": {
					"getSVG(uint256,uint256,uint256,string,string)": "d139e8a4"
				}
			},
			"userdoc": {
				"kind": "user",
				"methods": {},
				"version": 1
			}
		}
	}
}