{
	"SVG-MVP_football_ERC1155/contracts/players.sol": {
		"NoahKatterbach": {
			"abi": [
				{
					"inputs": [],
					"name": "svg",
					"outputs": [
						{
							"internalType": "string",
							"name": "",
							"type": "string"
						}
					],
					"stateMutability": "view",
					"type": "function"
				}
			],
			"devdoc": {
				"kind": "dev",
				"methods": {},
				"version": 1
			},
			"evm": {
				"assembly": "    /* \"SVG-MVP_football_ERC1155/contracts/players.sol\":58:5738  contract NoahKatterbach {... */\n  mstore(0x40, 0x80)\n    /* \"SVG-MVP_football_ERC1155/contracts/players.sol\":86:5735  string public svg = '<path style=\"fill:#0f3b86\" d=\"m 1.40678,220.09322 c -11.801253,-588.94897 784.73846,216.46097 -10e-6,217.49999 z m 201.1597,30.90299 c 6.3282,-3.84418 9.41964,-7.45087 8.48164,-9.89527 -0.93686,-2.44142 -7.1407,-1.78923 -13.49566,1.41874 l -5.79729,2.92646 -2.55092,-2.17646 c -3.31167,-2.82553 -3.99478,-5.04032 -2.26059,-7.32926 0.76973,-1.01596 1.41382,-2.8597 1.43132,-4.0972 0.0175,-1.2375 0.4818,-2.25 1.0318,-2.25 0.55,0 1,-0.86786 1,-1.92857 0,-2.65104 2.65304,-5.07143 5.55888,-5.07143 2.66572,0 7.44112,-6.37217 7.44112,-9.92924 0,-2.19283 -3.65488,-5.1745 -12.25,-9.99362 -3.1625,-1.77316 -5.75,-3.58292 -5.75,-4.0217 0,-0.43878 2.26203,-1.09785 5.02674,-1.4646 6.75008,-0.89543 10.89222,-4.56567 11.66617,-10.33706 0.55585,-4.14508 0.48045,-4.2834 -3.1654,-5.80673 -3.57142,-1.49224 -3.66037,-1.64276 -2.0332,-3.44076 2.27494,-2.51379 1.13746,-4.00629 -3.05333,-4.00629 -1.89254,0 -3.44098,-0.39541 -3.44098,-0.87868 0,-1.63945 6.47592,-3.58356 12,-3.60248 5.37671,-0.0184 5.50733,0.0484 5.82695,2.98116 0.17982,1.65 0.72757,3.41275 1.21721,3.91722 1.46547,1.50982 2.39043,-2.49169 1.06612,-4.61223 -1.46121,-2.33978 -0.62057,-5.46152 1.82285,-6.7692 1.63193,-0.87339 1.85974,-0.27725 2.47075,6.46548 0.74742,8.24804 -0.73168,12.68619 -5.80656,17.42304 -1.92135,1.79338 -2.59732,3.41998 -2.59732,6.25 0,6.00018 3.34882,5.25318 12.20396,-2.72225 3.9986,-3.60136 7.63587,-7.20136 8.0828,-8 2.09898,-3.75066 5.64724,1.02981 4.18469,5.63791 -0.87095,2.74411 2.11943,3.59025 4.63685,1.31202 1.91155,-1.72993 2.01756,-2.83422 1.76364,-18.37128 -0.24055,-14.71901 -0.027,-17.31678 1.94818,-23.70311 2.49213,-8.05759 3.95526,-18.96852 4.55531,-33.97002 0.34772,-8.69296 0.13645,-10.55079 -1.47828,-13 -1.03618,-1.57167 -1.88694,-2.45034 -1.89056,-1.95259 -0.004,0.49774 -0.79409,0.22068 -1.75659,-0.61569 -0.9625,-0.83638 -2.96957,-1.81019 -4.46015,-2.16404 -1.49058,-0.35385 -4.1534,-2.43929 -5.91736,-4.63431 -1.76397,-2.19502 -3.58191,-3.99095 -4.03985,-3.99095 -0.45795,0 -0.8775,3.7125 -0.93232,8.25 -0.0548,4.5375 -0.42696,9.375 -0.82696,10.75 -0.54715,1.8808 -0.12938,3.22575 1.68673,5.43018 1.6759,2.03425 2.25612,3.71594 1.89761,5.5 -1.24529,6.19696 -1.20271,6.4203 1.3423,7.04155 2.85156,0.69608 3.73307,3.79 2.00161,7.02526 -0.61818,1.15509 -1.50342,6.84101 -1.9672,12.63539 -0.71151,8.88941 -1.19784,10.91268 -3.11314,12.95142 -1.24844,1.32891 -2.97896,2.40189 -3.84558,2.3844 -3.9481,-0.0797 -7.22005,-5.9682 -3.31624,-5.9682 2.41889,0 4.0287,-2.9223 4.79595,-8.70613 0.50689,-3.82106 0.29978,-5.16917 -0.95398,-6.2097 -0.88078,-0.73098 -1.60142,-1.87673 -1.60142,-2.5461 0,-0.66937 -1.125,-1.72962 -2.5,-2.35612 -1.375,-0.62649 -2.5,-1.68222 -2.5,-2.34606 0,-1.69097 -4.06543,-5.83589 -5.72397,-5.83589 -0.75644,0 -2.74657,0.70909 -4.42251,1.57575 -2.44196,1.26278 -2.91424,2.00758 -2.37792,3.75 0.36809,1.19584 1.65124,5.77425 2.85145,10.17425 1.20021,4.4 2.96762,9.11263 3.92758,10.47251 2.39788,3.39685 2.18677,6.26419 -0.65798,8.93669 -3.63667,3.41648 -9.21795,4.35922 -14.34665,2.42331 -2.3375,-0.88232 -4.25,-2.14507 -4.25,-2.8061 0,-1.66157 10.49599,-6.65705 12.42877,-5.91537 2.08334,0.79945 2.07961,-1.94423 -0.005,-3.67429 -1.29994,-1.07886 -1.72048,-1.07471 -2.39932,0.0237 -0.63801,1.03231 -1.40797,0.74697 -3.42379,-1.26885 -2.38321,-2.38324 -2.60066,-3.29485 -2.60066,-10.90275 0,-4.56613 0.42451,-9.78222 0.94335,-11.59132 1.40102,-4.88508 6.57982,-9.10102 14.45059,-11.76389 9.83005,-3.32575 10.29913,-3.96532 7.80242,-10.63837 -1.34261,-3.58843 -2.12041,-8.42495 -2.30833,-14.35365 -0.15589,-4.91789 -0.73847,-9.551 -1.29463,-10.2958 -2.10282,-2.81603 -5.81286,-3.25515 -17.06976,-2.02037 -8.54734,0.93757 -12.17544,0.94785 -15.7622,0.0447 -3.53608,-0.89039 -6.51745,-0.89682 -12.36795,-0.0267 -9.24755,1.3754 -13.20744,4.36404 -17.89349,13.50469 -2.61459,5.10004 -3.04449,7.11519 -3.34633,15.68565 l -0.34632,9.83382 -2.35279,-2.21033 c -3.57902,-3.36231 -5.08017,-2.02273 -5.727,5.11059 -0.4037,4.45211 -0.0155,8.3964 1.35316,13.74769 1.0556,4.12739 1.91928,8.90722 1.91928,10.62187 0,4.09996 2.38041,7.35527 5.66505,7.74717 2.40305,0.28672 2.8579,1.08766 5.00612,8.81537 1.91806,6.89972 2.46111,11.7947 2.88449,26 0.73987,24.82447 1.52404,27.1095 14.66077,42.72029 5.65596,6.72116 12.30857,13.67298 14.78357,15.4485 2.475,1.77552 5.97816,4.48889 7.7848,6.02971 1.80663,1.54083 3.54777,2.8015 3.86919,2.8015 0.32141,0 3.24898,-1.61866 6.50571,-3.59701 z M 165.33524,129.00702 c -0.89843,-1.08255 -2.23293,-1.40291 -4.2028,-1.00893 -2.041,0.4082 -2.7678,0.21378 -2.48153,-0.6638 0.22266,-0.68259 2.50882,-1.65399 5.08035,-2.15867 2.57154,-0.50468 4.67552,-1.26305 4.67552,-1.68527 0,-0.42222 -1.575,-1.3372 -3.5,-2.03329 -5.62576,-2.0343 -4.06187,-3.11081 3.9327,-2.70711 7.95378,0.40165 9.49396,1.02179 7.75165,3.12114 -0.60536,0.72941 -0.88751,2.20279 -0.62701,3.27417 0.36315,1.4935 -0.42295,2.35623 -3.36946,3.69796 -4.7264,2.15222 -5.59295,2.17177 -7.25942,0.1638 z m 81.27287,16.6537 c 0.40142,-2.35143 1.00067,-5.12857 1.33165,-6.17142 0.79676,-2.51036 -3.0095,-2.64802 -4.03931,-0.14608 -0.89654,2.17816 -1.44469,9.46991 -0.7933,10.55279 1.10375,1.83487 2.81893,-0.24006 3.50096,-4.23529 z m -20.9369,-13.66527 c 0.32877,-0.32877 0.35563,-1.22877 0.0597,-2 -0.71056,-1.85168 -5.32411,-1.83918 -5.32411,0.0144 0,1.94826 3.84974,3.40025 5.26443,1.98556 z m 23.6974,-9.51789 c -1.69788,-5.14462 -3.72892,-5.11873 -2.99686,0.0382 0.29823,2.10081 3.47436,6.05927 3.90692,4.86925 0.20454,-0.56271 -0.20499,-2.77106 -0.91006,-4.90744 z m 2.03817,-7.38434 c 0,-0.825 -0.675,-1.5 -1.5,-1.5 -0.825,0 -1.5,0.675 -1.5,1.5 0,0.825 0.675,1.5 1.5,1.5 0.825,0 1.5,-0.675 1.5,-1.5 z\" fill=\"#0f3b86\"/>' */\n  mload(0x40)\n  dup1\n  0x1620\n  add\n  0x40\n  mstore\n  dup1\n  0x15fb\n  dup2\n  mstore\n  0x20\n  add\n  data_3700398364399fca8ba4c1b0fb94b8c1a80604ba5c785eb9b056a57de5484e1c\n  0x15fb\n  swap2\n  codecopy\n  0x00\n  swap1\n  dup1\n  mload\n  swap1\n  0x20\n  add\n  swap1\n  tag_1\n  swap3\n  swap2\n  swap1\n  tag_2\n  jump\t// in\ntag_1:\n  pop\n    /* \"SVG-MVP_football_ERC1155/contracts/players.sol\":58:5738  contract NoahKatterbach {... */\n  callvalue\n  dup1\n  iszero\n  tag_3\n  jumpi\n  0x00\n  dup1\n  revert\ntag_3:\n  pop\n  jump(tag_4)\ntag_2:\n  dup3\n  dup1\n  sload\n  tag_5\n  swap1\n  tag_6\n  jump\t// in\ntag_5:\n  swap1\n  0x00\n  mstore\n  keccak256(0x00, 0x20)\n  swap1\n  0x1f\n  add\n  0x20\n  swap1\n  div\n  dup2\n  add\n  swap3\n  dup3\n  tag_8\n  jumpi\n  0x00\n  dup6\n  sstore\n  jump(tag_7)\ntag_8:\n  dup3\n  0x1f\n  lt\n  tag_9\n  jumpi\n  dup1\n  mload\n  not(0xff)\n  and\n  dup4\n  dup1\n  add\n  or\n  dup6\n  sstore\n  jump(tag_7)\ntag_9:\n  dup3\n  dup1\n  add\n  0x01\n  add\n  dup6\n  sstore\n  dup3\n  iszero\n  tag_7\n  jumpi\n  swap2\n  dup3\n  add\ntag_10:\n  dup3\n  dup2\n  gt\n  iszero\n  tag_11\n  jumpi\n  dup3\n  mload\n  dup3\n  sstore\n  swap2\n  0x20\n  add\n  swap2\n  swap1\n  0x01\n  add\n  swap1\n  jump(tag_10)\ntag_11:\ntag_7:\n  pop\n  swap1\n  pop\n  tag_12\n  swap2\n  swap1\n  tag_13\n  jump\t// in\ntag_12:\n  pop\n  swap1\n  jump\t// out\ntag_13:\ntag_14:\n  dup1\n  dup3\n  gt\n  iszero\n  tag_15\n  jumpi\n  0x00\n  dup2\n  0x00\n  swap1\n  sstore\n  pop\n  0x01\n  add\n  jump(tag_14)\ntag_15:\n  pop\n  swap1\n  jump\t// out\n    /* \"#utility.yul\":7:327   */\ntag_6:\n    /* \"#utility.yul\":51:57   */\n  0x00\n    /* \"#utility.yul\":88:89   */\n  0x02\n    /* \"#utility.yul\":82:86   */\n  dup3\n    /* \"#utility.yul\":78:90   */\n  div\n    /* \"#utility.yul\":68:90   */\n  swap1\n  pop\n    /* \"#utility.yul\":135:136   */\n  0x01\n    /* \"#utility.yul\":129:133   */\n  dup3\n    /* \"#utility.yul\":125:137   */\n  and\n    /* \"#utility.yul\":156:174   */\n  dup1\n    /* \"#utility.yul\":146:227   */\n  tag_18\n  jumpi\n    /* \"#utility.yul\":212:216   */\n  0x7f\n    /* \"#utility.yul\":204:210   */\n  dup3\n    /* \"#utility.yul\":200:217   */\n  and\n    /* \"#utility.yul\":190:217   */\n  swap2\n  pop\n    /* \"#utility.yul\":146:227   */\ntag_18:\n    /* \"#utility.yul\":274:276   */\n  0x20\n    /* \"#utility.yul\":266:272   */\n  dup3\n    /* \"#utility.yul\":263:277   */\n  lt\n    /* \"#utility.yul\":243:261   */\n  dup2\n    /* \"#utility.yul\":240:278   */\n  eq\n    /* \"#utility.yul\":237:321   */\n  iszero\n  tag_19\n  jumpi\n    /* \"#utility.yul\":293:311   */\n  tag_20\n  tag_21\n  jump\t// in\ntag_20:\n    /* \"#utility.yul\":237:321   */\ntag_19:\n    /* \"#utility.yul\":58:327   */\n  pop\n    /* \"#utility.yul\":7:327   */\n  swap2\n  swap1\n  pop\n  jump\t// out\n    /* \"#utility.yul\":333:513   */\ntag_21:\n    /* \"#utility.yul\":381:458   */\n  0x4e487b7100000000000000000000000000000000000000000000000000000000\n    /* \"#utility.yul\":378:379   */\n  0x00\n    /* \"#utility.yul\":371:459   */\n  mstore\n    /* \"#utility.yul\":478:482   */\n  0x22\n    /* \"#utility.yul\":475:476   */\n  0x04\n    /* \"#utility.yul\":468:483   */\n  mstore\n    /* \"#utility.yul\":502:506   */\n  0x24\n    /* \"#utility.yul\":499:500   */\n  0x00\n    /* \"#utility.yul\":492:507   */\n  revert\n    /* \"SVG-MVP_football_ERC1155/contracts/players.sol\":58:5738  contract NoahKatterbach {... */\ntag_4:\n  dataSize(sub_0)\n  dup1\n  dataOffset(sub_0)\n  0x00\n  codecopy\n  0x00\n  return\nstop\ndata_3700398364399fca8ba4c1b0fb94b8c1a80604ba5c785eb9b056a57de5484e1c 3c70617468207374796c653d2266696c6c3a233066336238362220643d226d20312e34303637382c3232302e30393332322063202d31312e3830313235332c2d3538382e3934383937203738342e37333834362c3231362e3436303937202d3130652d362c3231372e3439393939207a206d203230312e313539372c33302e3930323939206320362e333238322c2d332e383434313820392e34313936342c2d372e343530383720382e34383136342c2d392e3839353237202d302e39333638362c2d322e3434313432202d372e313430372c2d312e3738393233202d31332e34393536362c312e3431383734206c202d352e37393732392c322e3932363436202d322e35353039322c2d322e31373634362063202d332e33313136372c2d322e3832353533202d332e39393437382c2d352e3034303332202d322e32363035392c2d372e333239323620302e37363937332c2d312e303135393620312e34313338322c2d322e3835393720312e34333133322c2d342e3039373220302e303137352c2d312e3233373520302e343831382c2d322e323520312e303331382c2d322e323520302e35352c3020312c2d302e383637383620312c2d312e393238353720302c2d322e363531303420322e36353330342c2d352e303731343320352e35353838382c2d352e303731343320322e36363537322c3020372e34343131322c2d362e333732313720372e34343131322c2d392e393239323420302c2d322e3139323833202d332e36353438382c2d352e31373435202d31322e32352c2d392e3939333632202d332e313632352c2d312e3737333136202d352e37352c2d332e3538323932202d352e37352c2d342e3032313720302c2d302e343338373820322e32363230332c2d312e303937383520352e30323637342c2d312e3436343620362e37353030382c2d302e38393534332031302e38393232322c2d342e35363536372031312e36363631372c2d31302e333337303620302e35353538352c2d342e313435303820302e34383034352c2d342e32383334202d332e313635342c2d352e3830363733202d332e35373134322c2d312e3439323234202d332e36363033372c2d312e3634323736202d322e303333322c2d332e343430373620322e32373439342c2d322e353133373920312e31333734362c2d342e3030363239202d332e30353333332c2d342e3030363239202d312e38393235342c30202d332e34343039382c2d302e3339353431202d332e34343039382c2d302e383738363820302c2d312e363339343520362e34373539322c2d332e35383335362031322c2d332e363032343820352e33373637312c2d302e3031383420352e35303733332c302e3034383420352e38323639352c322e393831313620302e31373938322c312e363520302e37323735372c332e343132373520312e32313732312c332e393137323220312e34363534372c312e353039383220322e33393034332c2d322e343931363920312e30363631322c2d342e3631323233202d312e34363132312c2d322e3333393738202d302e36323035372c2d352e343631353220312e38323238352c2d362e3736393220312e36333139332c2d302e383733333920312e38353937342c2d302e323737323520322e34373037352c362e343635343820302e37343734322c382e3234383034202d302e37333136382c31322e3638363139202d352e38303635362c31372e3432333034202d312e39323133352c312e3739333338202d322e35393733322c332e3431393938202d322e35393733322c362e323520302c362e303030313820332e33343838322c352e32353331382031322e32303339362c2d322e373232323520332e393938362c2d332e363031333620372e36333538372c2d372e323031333620382e303832382c2d3820322e30393839382c2d332e373530363620352e36343732342c312e303239383120342e31383436392c352e3633373931202d302e38373039352c322e373434313120322e31313934332c332e353930323520342e36333638352c312e333132303220312e39313135352c2d312e373239393320322e30313735362c2d322e383334323220312e37363336342c2d31382e3337313238202d302e32343035352c2d31342e3731393031202d302e3032372c2d31372e333136373820312e39343831382c2d32332e373033313120322e34393231332c2d382e303537353920332e39353532362c2d31382e393638353220342e35353533312c2d33332e393730303220302e33343737322c2d382e363932393620302e31333634352c2d31302e3535303739202d312e34373832382c2d3133202d312e30333631382c2d312e3537313637202d312e38383639342c2d322e3435303334202d312e38393035362c2d312e3935323539202d302e3030342c302e3439373734202d302e37393430392c302e3232303638202d312e37353635392c2d302e3631353639202d302e393632352c2d302e3833363338202d322e39363935372c2d312e3831303139202d342e34363031352c2d322e3136343034202d312e34393035382c2d302e3335333835202d342e313533342c2d322e3433393239202d352e39313733362c2d342e3633343331202d312e37363339372c2d322e3139353032202d332e35383139312c2d332e3939303935202d342e30333938352c2d332e3939303935202d302e34353739352c30202d302e383737352c332e37313235202d302e39333233322c382e3235202d302e303534382c342e35333735202d302e34323639362c392e333735202d302e38323639362c31302e3735202d302e35343731352c312e38383038202d302e31323933382c332e323235373520312e36383637332c352e343330313820312e363735392c322e303334323520322e32353631322c332e373135393420312e38393736312c352e35202d312e32343532392c362e3139363936202d312e32303237312c362e3432303320312e333432332c372e303431353520322e38353135362c302e363936303820332e37333330372c332e373920322e30303136312c372e3032353236202d302e36313831382c312e3135353039202d312e35303334322c362e3834313031202d312e393637322c31322e3633353339202d302e37313135312c382e3838393431202d312e31393738342c31302e3931323638202d332e31313331342c31322e3935313432202d312e32343834342c312e3332383931202d322e39373839362c322e3430313839202d332e38343535382c322e33383434202d332e393438312c2d302e30373937202d372e32323030352c2d352e39363832202d332e33313632342c2d352e3936383220322e34313838392c3020342e303238372c2d322e3932323320342e37393539352c2d382e373036313320302e35303638392c2d332e383231303620302e32393937382c2d352e3136393137202d302e39353339382c2d362e32303937202d302e38383037382c2d302e3733303938202d312e36303134322c2d312e3837363733202d312e36303134322c2d322e3534363120302c2d302e3636393337202d312e3132352c2d312e3732393632202d322e352c2d322e3335363132202d312e3337352c2d302e3632363439202d322e352c2d312e3638323232202d322e352c2d322e333436303620302c2d312e3639303937202d342e30363534332c2d352e3833353839202d352e37323339372c2d352e3833353839202d302e37353634342c30202d322e37343635372c302e3730393039202d342e34323235312c312e3537353735202d322e34343139362c312e3236323738202d322e39313432342c322e3030373538202d322e33373739322c332e373520302e33363830392c312e313935383420312e36353132342c352e373734323520322e38353134352c31302e313734323520312e32303032312c342e3420322e39363736322c392e313132363320332e39323735382c31302e343732353120322e33393738382c332e333936383520322e31383637372c362e3236343139202d302e36353739382c382e3933363639202d332e36333636372c332e3431363438202d392e32313739352c342e3335393232202d31342e33343636352c322e3432333331202d322e333337352c2d302e3838323332202d342e32352c2d322e3134353037202d342e32352c2d322e3830363120302c2d312e36363135372031302e34393539392c2d362e36353730352031322e34323837372c2d352e393135333720322e30383333342c302e373939343520322e30373936312c2d312e3934343233202d302e3030352c2d332e3637343239202d312e32393939342c2d312e3037383836202d312e37323034382c2d312e3037343731202d322e33393933322c302e30323337202d302e36333830312c312e3033323331202d312e34303739372c302e3734363937202d332e34323337392c2d312e3236383835202d322e33383332312c2d322e3338333234202d322e36303036362c2d332e3239343835202d322e36303036362c2d31302e393032373520302c2d342e353636313320302e34323435312c2d392e373832323220302e39343333352c2d31312e353931333220312e34303130322c2d342e383835303820362e35373938322c2d392e31303130322031342e34353035392c2d31312e373633383920392e38333030352c2d332e33323537352031302e32393931332c2d332e393635333220372e38303234322c2d31302e3633383337202d312e33343236312c2d332e3538383433202d322e31323034312c2d382e3432343935202d322e33303833332c2d31342e3335333635202d302e31353538392c2d342e3931373839202d302e37333834372c2d392e353531202d312e32393436332c2d31302e32393538202d322e31303238322c2d322e3831363033202d352e38313238362c2d332e3235353135202d31372e30363937362c2d322e3032303337202d382e35343733342c302e3933373537202d31322e31373534342c302e3934373835202d31352e373632322c302e30343437202d332e35333630382c2d302e3839303339202d362e35313734352c2d302e3839363832202d31322e33363739352c2d302e30323637202d392e32343735352c312e33373534202d31332e32303734342c342e3336343034202d31372e38393334392c31332e3530343639202d322e36313435392c352e3130303034202d332e30343434392c372e3131353139202d332e33343633332c31352e3638353635206c202d302e33343633322c392e3833333832202d322e33353237392c2d322e32313033332063202d332e35373930322c2d332e3336323331202d352e30383031372c2d322e3032323733202d352e3732372c352e3131303539202d302e343033372c342e3435323131202d302e303135352c382e3339363420312e33353331362c31332e373437363920312e303535362c342e313237333920312e39313932382c382e393037323220312e39313932382c31302e363231383720302c342e303939393620322e33383034312c372e333535323720352e36363530352c372e373437313720322e34303330352c302e323836373220322e383537392c312e303837363620352e30303631322c382e383135333720312e39313830362c362e383939373220322e34363131312c31312e3739343720322e38383434392c323620302e37333938372c32342e383234343720312e35323430342c32372e313039352031342e36363037372c34322e373230323920352e36353539362c362e37323131362031322e33303835372c31332e36373239382031342e37383335372c31352e3434383520322e3437352c312e373735353220352e39373831362c342e343838383920372e373834382c362e303239373120312e38303636332c312e353430383320332e35343737372c322e3830313520332e38363931392c322e3830313520302e33323134312c3020332e32343839382c2d312e363138363620362e35303537312c2d332e3539373031207a204d203136352e33333532342c3132392e30303730322063202d302e38393834332c2d312e3038323535202d322e32333239332c2d312e3430323931202d342e323032382c2d312e3030383933202d322e3034312c302e34303832202d322e373637382c302e3231333738202d322e34383135332c2d302e3636333820302e32323236362c2d302e363832353920322e35303838322c2d312e363533393920352e30383033352c2d322e313538363720322e35373135342c2d302e353034363820342e36373535322c2d312e323633303520342e36373535322c2d312e363835323720302c2d302e3432323232202d312e3537352c2d312e33333732202d332e352c2d322e3033333239202d352e36323537362c2d322e30333433202d342e30363138372c2d332e313130383120332e393332372c2d322e373037313120372e39353337382c302e343031363520392e34393339362c312e303231373920372e37353136352c332e3132313134202d302e36303533362c302e3732393431202d302e38383735312c322e3230323739202d302e36323730312c332e323734313720302e33363331352c312e34393335202d302e34323239352c322e3335363233202d332e33363934362c332e3639373936202d342e373236342c322e3135323232202d352e35393239352c322e3137313737202d372e32353934322c302e31363338207a206d2038312e32373238372c31362e36353337206320302e34303134322c2d322e333531343320312e30303036372c2d352e313238353720312e33333136352c2d362e313731343220302e37393637362c2d322e3531303336202d332e303039352c2d322e3634383032202d342e30333933312c2d302e3134363038202d302e38393635342c322e3137383136202d312e34343436392c392e3436393931202d302e373933332c31302e353532373920312e31303337352c312e383334383720322e38313839332c2d302e323430303620332e35303039362c2d342e3233353239207a206d202d32302e393336392c2d31332e3636353237206320302e33323837372c2d302e333238373720302e33353536332c2d312e323238373720302e303539372c2d32202d302e37313035362c2d312e3835313638202d352e33323431312c2d312e3833393138202d352e33323431312c302e3031343420302c312e393438323620332e38343937342c332e343030323520352e32363434332c312e3938353536207a206d2032332e363937342c2d392e35313738392063202d312e36393738382c2d352e3134343632202d332e37323839322c2d352e3131383733202d322e39393638362c302e3033383220302e32393832332c322e313030383120332e34373433362c362e303539323720332e39303639322c342e383639323520302e32303435342c2d302e3536323731202d302e32303439392c2d322e3737313036202d302e39313030362c2d342e3930373434207a206d20322e30333831372c2d372e3338343334206320302c2d302e383235202d302e3637352c2d312e35202d312e352c2d312e35202d302e3832352c30202d312e352c302e363735202d312e352c312e3520302c302e38323520302e3637352c312e3520312e352c312e3520302e3832352c3020312e352c2d302e36373520312e352c2d312e35207a222066696c6c3d2223306633623836222f3e\n\nsub_0: assembly {\n        /* \"SVG-MVP_football_ERC1155/contracts/players.sol\":58:5738  contract NoahKatterbach {... */\n      mstore(0x40, 0x80)\n      callvalue\n      dup1\n      iszero\n      tag_1\n      jumpi\n      0x00\n      dup1\n      revert\n    tag_1:\n      pop\n      jumpi(tag_2, lt(calldatasize, 0x04))\n      shr(0xe0, calldataload(0x00))\n      dup1\n      0xbd85f55f\n      eq\n      tag_3\n      jumpi\n    tag_2:\n      0x00\n      dup1\n      revert\n        /* \"SVG-MVP_football_ERC1155/contracts/players.sol\":86:5735  string public svg = '<path style=\"fill:#0f3b86\" d=\"m 1.40678,220.09322 c -11.801253,-588.94897 784.73846,216.46097 -10e-6,217.49999 z m 201.1597,30.90299 c 6.3282,-3.84418 9.41964,-7.45087 8.48164,-9.89527 -0.93686,-2.44142 -7.1407,-1.78923 -13.49566,1.41874 l -5.79729,2.92646 -2.55092,-2.17646 c -3.31167,-2.82553 -3.99478,-5.04032 -2.26059,-7.32926 0.76973,-1.01596 1.41382,-2.8597 1.43132,-4.0972 0.0175,-1.2375 0.4818,-2.25 1.0318,-2.25 0.55,0 1,-0.86786 1,-1.92857 0,-2.65104 2.65304,-5.07143 5.55888,-5.07143 2.66572,0 7.44112,-6.37217 7.44112,-9.92924 0,-2.19283 -3.65488,-5.1745 -12.25,-9.99362 -3.1625,-1.77316 -5.75,-3.58292 -5.75,-4.0217 0,-0.43878 2.26203,-1.09785 5.02674,-1.4646 6.75008,-0.89543 10.89222,-4.56567 11.66617,-10.33706 0.55585,-4.14508 0.48045,-4.2834 -3.1654,-5.80673 -3.57142,-1.49224 -3.66037,-1.64276 -2.0332,-3.44076 2.27494,-2.51379 1.13746,-4.00629 -3.05333,-4.00629 -1.89254,0 -3.44098,-0.39541 -3.44098,-0.87868 0,-1.63945 6.47592,-3.58356 12,-3.60248 5.37671,-0.0184 5.50733,0.0484 5.82695,2.98116 0.17982,1.65 0.72757,3.41275 1.21721,3.91722 1.46547,1.50982 2.39043,-2.49169 1.06612,-4.61223 -1.46121,-2.33978 -0.62057,-5.46152 1.82285,-6.7692 1.63193,-0.87339 1.85974,-0.27725 2.47075,6.46548 0.74742,8.24804 -0.73168,12.68619 -5.80656,17.42304 -1.92135,1.79338 -2.59732,3.41998 -2.59732,6.25 0,6.00018 3.34882,5.25318 12.20396,-2.72225 3.9986,-3.60136 7.63587,-7.20136 8.0828,-8 2.09898,-3.75066 5.64724,1.02981 4.18469,5.63791 -0.87095,2.74411 2.11943,3.59025 4.63685,1.31202 1.91155,-1.72993 2.01756,-2.83422 1.76364,-18.37128 -0.24055,-14.71901 -0.027,-17.31678 1.94818,-23.70311 2.49213,-8.05759 3.95526,-18.96852 4.55531,-33.97002 0.34772,-8.69296 0.13645,-10.55079 -1.47828,-13 -1.03618,-1.57167 -1.88694,-2.45034 -1.89056,-1.95259 -0.004,0.49774 -0.79409,0.22068 -1.75659,-0.61569 -0.9625,-0.83638 -2.96957,-1.81019 -4.46015,-2.16404 -1.49058,-0.35385 -4.1534,-2.43929 -5.91736,-4.63431 -1.76397,-2.19502 -3.58191,-3.99095 -4.03985,-3.99095 -0.45795,0 -0.8775,3.7125 -0.93232,8.25 -0.0548,4.5375 -0.42696,9.375 -0.82696,10.75 -0.54715,1.8808 -0.12938,3.22575 1.68673,5.43018 1.6759,2.03425 2.25612,3.71594 1.89761,5.5 -1.24529,6.19696 -1.20271,6.4203 1.3423,7.04155 2.85156,0.69608 3.73307,3.79 2.00161,7.02526 -0.61818,1.15509 -1.50342,6.84101 -1.9672,12.63539 -0.71151,8.88941 -1.19784,10.91268 -3.11314,12.95142 -1.24844,1.32891 -2.97896,2.40189 -3.84558,2.3844 -3.9481,-0.0797 -7.22005,-5.9682 -3.31624,-5.9682 2.41889,0 4.0287,-2.9223 4.79595,-8.70613 0.50689,-3.82106 0.29978,-5.16917 -0.95398,-6.2097 -0.88078,-0.73098 -1.60142,-1.87673 -1.60142,-2.5461 0,-0.66937 -1.125,-1.72962 -2.5,-2.35612 -1.375,-0.62649 -2.5,-1.68222 -2.5,-2.34606 0,-1.69097 -4.06543,-5.83589 -5.72397,-5.83589 -0.75644,0 -2.74657,0.70909 -4.42251,1.57575 -2.44196,1.26278 -2.91424,2.00758 -2.37792,3.75 0.36809,1.19584 1.65124,5.77425 2.85145,10.17425 1.20021,4.4 2.96762,9.11263 3.92758,10.47251 2.39788,3.39685 2.18677,6.26419 -0.65798,8.93669 -3.63667,3.41648 -9.21795,4.35922 -14.34665,2.42331 -2.3375,-0.88232 -4.25,-2.14507 -4.25,-2.8061 0,-1.66157 10.49599,-6.65705 12.42877,-5.91537 2.08334,0.79945 2.07961,-1.94423 -0.005,-3.67429 -1.29994,-1.07886 -1.72048,-1.07471 -2.39932,0.0237 -0.63801,1.03231 -1.40797,0.74697 -3.42379,-1.26885 -2.38321,-2.38324 -2.60066,-3.29485 -2.60066,-10.90275 0,-4.56613 0.42451,-9.78222 0.94335,-11.59132 1.40102,-4.88508 6.57982,-9.10102 14.45059,-11.76389 9.83005,-3.32575 10.29913,-3.96532 7.80242,-10.63837 -1.34261,-3.58843 -2.12041,-8.42495 -2.30833,-14.35365 -0.15589,-4.91789 -0.73847,-9.551 -1.29463,-10.2958 -2.10282,-2.81603 -5.81286,-3.25515 -17.06976,-2.02037 -8.54734,0.93757 -12.17544,0.94785 -15.7622,0.0447 -3.53608,-0.89039 -6.51745,-0.89682 -12.36795,-0.0267 -9.24755,1.3754 -13.20744,4.36404 -17.89349,13.50469 -2.61459,5.10004 -3.04449,7.11519 -3.34633,15.68565 l -0.34632,9.83382 -2.35279,-2.21033 c -3.57902,-3.36231 -5.08017,-2.02273 -5.727,5.11059 -0.4037,4.45211 -0.0155,8.3964 1.35316,13.74769 1.0556,4.12739 1.91928,8.90722 1.91928,10.62187 0,4.09996 2.38041,7.35527 5.66505,7.74717 2.40305,0.28672 2.8579,1.08766 5.00612,8.81537 1.91806,6.89972 2.46111,11.7947 2.88449,26 0.73987,24.82447 1.52404,27.1095 14.66077,42.72029 5.65596,6.72116 12.30857,13.67298 14.78357,15.4485 2.475,1.77552 5.97816,4.48889 7.7848,6.02971 1.80663,1.54083 3.54777,2.8015 3.86919,2.8015 0.32141,0 3.24898,-1.61866 6.50571,-3.59701 z M 165.33524,129.00702 c -0.89843,-1.08255 -2.23293,-1.40291 -4.2028,-1.00893 -2.041,0.4082 -2.7678,0.21378 -2.48153,-0.6638 0.22266,-0.68259 2.50882,-1.65399 5.08035,-2.15867 2.57154,-0.50468 4.67552,-1.26305 4.67552,-1.68527 0,-0.42222 -1.575,-1.3372 -3.5,-2.03329 -5.62576,-2.0343 -4.06187,-3.11081 3.9327,-2.70711 7.95378,0.40165 9.49396,1.02179 7.75165,3.12114 -0.60536,0.72941 -0.88751,2.20279 -0.62701,3.27417 0.36315,1.4935 -0.42295,2.35623 -3.36946,3.69796 -4.7264,2.15222 -5.59295,2.17177 -7.25942,0.1638 z m 81.27287,16.6537 c 0.40142,-2.35143 1.00067,-5.12857 1.33165,-6.17142 0.79676,-2.51036 -3.0095,-2.64802 -4.03931,-0.14608 -0.89654,2.17816 -1.44469,9.46991 -0.7933,10.55279 1.10375,1.83487 2.81893,-0.24006 3.50096,-4.23529 z m -20.9369,-13.66527 c 0.32877,-0.32877 0.35563,-1.22877 0.0597,-2 -0.71056,-1.85168 -5.32411,-1.83918 -5.32411,0.0144 0,1.94826 3.84974,3.40025 5.26443,1.98556 z m 23.6974,-9.51789 c -1.69788,-5.14462 -3.72892,-5.11873 -2.99686,0.0382 0.29823,2.10081 3.47436,6.05927 3.90692,4.86925 0.20454,-0.56271 -0.20499,-2.77106 -0.91006,-4.90744 z m 2.03817,-7.38434 c 0,-0.825 -0.675,-1.5 -1.5,-1.5 -0.825,0 -1.5,0.675 -1.5,1.5 0,0.825 0.675,1.5 1.5,1.5 0.825,0 1.5,-0.675 1.5,-1.5 z\" fill=\"#0f3b86\"/>' */\n    tag_3:\n      tag_4\n      tag_5\n      jump\t// in\n    tag_4:\n      mload(0x40)\n      tag_6\n      swap2\n      swap1\n      tag_7\n      jump\t// in\n    tag_6:\n      mload(0x40)\n      dup1\n      swap2\n      sub\n      swap1\n      return\n    tag_5:\n      0x00\n      dup1\n      sload\n      tag_8\n      swap1\n      tag_9\n      jump\t// in\n    tag_8:\n      dup1\n      0x1f\n      add\n      0x20\n      dup1\n      swap2\n      div\n      mul\n      0x20\n      add\n      mload(0x40)\n      swap1\n      dup2\n      add\n      0x40\n      mstore\n      dup1\n      swap3\n      swap2\n      swap1\n      dup2\n      dup2\n      mstore\n      0x20\n      add\n      dup3\n      dup1\n      sload\n      tag_10\n      swap1\n      tag_9\n      jump\t// in\n    tag_10:\n      dup1\n      iszero\n      tag_11\n      jumpi\n      dup1\n      0x1f\n      lt\n      tag_12\n      jumpi\n      0x0100\n      dup1\n      dup4\n      sload\n      div\n      mul\n      dup4\n      mstore\n      swap2\n      0x20\n      add\n      swap2\n      jump(tag_11)\n    tag_12:\n      dup3\n      add\n      swap2\n      swap1\n      0x00\n      mstore\n      keccak256(0x00, 0x20)\n      swap1\n    tag_13:\n      dup2\n      sload\n      dup2\n      mstore\n      swap1\n      0x01\n      add\n      swap1\n      0x20\n      add\n      dup1\n      dup4\n      gt\n      tag_13\n      jumpi\n      dup3\n      swap1\n      sub\n      0x1f\n      and\n      dup3\n      add\n      swap2\n    tag_11:\n      pop\n      pop\n      pop\n      pop\n      pop\n      dup2\n      jump\t// out\n        /* \"#utility.yul\":7:371   */\n    tag_15:\n        /* \"#utility.yul\":95:98   */\n      0x00\n        /* \"#utility.yul\":123:162   */\n      tag_17\n        /* \"#utility.yul\":156:161   */\n      dup3\n        /* \"#utility.yul\":123:162   */\n      tag_18\n      jump\t// in\n    tag_17:\n        /* \"#utility.yul\":178:249   */\n      tag_19\n        /* \"#utility.yul\":242:248   */\n      dup2\n        /* \"#utility.yul\":237:240   */\n      dup6\n        /* \"#utility.yul\":178:249   */\n      tag_20\n      jump\t// in\n    tag_19:\n        /* \"#utility.yul\":171:249   */\n      swap4\n      pop\n        /* \"#utility.yul\":258:310   */\n      tag_21\n        /* \"#utility.yul\":303:309   */\n      dup2\n        /* \"#utility.yul\":298:301   */\n      dup6\n        /* \"#utility.yul\":291:295   */\n      0x20\n        /* \"#utility.yul\":284:289   */\n      dup7\n        /* \"#utility.yul\":280:296   */\n      add\n        /* \"#utility.yul\":258:310   */\n      tag_22\n      jump\t// in\n    tag_21:\n        /* \"#utility.yul\":335:364   */\n      tag_23\n        /* \"#utility.yul\":357:363   */\n      dup2\n        /* \"#utility.yul\":335:364   */\n      tag_24\n      jump\t// in\n    tag_23:\n        /* \"#utility.yul\":330:333   */\n      dup5\n        /* \"#utility.yul\":326:365   */\n      add\n        /* \"#utility.yul\":319:365   */\n      swap2\n      pop\n        /* \"#utility.yul\":99:371   */\n      pop\n        /* \"#utility.yul\":7:371   */\n      swap3\n      swap2\n      pop\n      pop\n      jump\t// out\n        /* \"#utility.yul\":377:690   */\n    tag_7:\n        /* \"#utility.yul\":490:494   */\n      0x00\n        /* \"#utility.yul\":528:530   */\n      0x20\n        /* \"#utility.yul\":517:526   */\n      dup3\n        /* \"#utility.yul\":513:531   */\n      add\n        /* \"#utility.yul\":505:531   */\n      swap1\n      pop\n        /* \"#utility.yul\":577:586   */\n      dup2\n        /* \"#utility.yul\":571:575   */\n      dup2\n        /* \"#utility.yul\":567:587   */\n      sub\n        /* \"#utility.yul\":563:564   */\n      0x00\n        /* \"#utility.yul\":552:561   */\n      dup4\n        /* \"#utility.yul\":548:565   */\n      add\n        /* \"#utility.yul\":541:588   */\n      mstore\n        /* \"#utility.yul\":605:683   */\n      tag_26\n        /* \"#utility.yul\":678:682   */\n      dup2\n        /* \"#utility.yul\":669:675   */\n      dup5\n        /* \"#utility.yul\":605:683   */\n      tag_15\n      jump\t// in\n    tag_26:\n        /* \"#utility.yul\":597:683   */\n      swap1\n      pop\n        /* \"#utility.yul\":377:690   */\n      swap3\n      swap2\n      pop\n      pop\n      jump\t// out\n        /* \"#utility.yul\":696:795   */\n    tag_18:\n        /* \"#utility.yul\":748:754   */\n      0x00\n        /* \"#utility.yul\":782:787   */\n      dup2\n        /* \"#utility.yul\":776:788   */\n      mload\n        /* \"#utility.yul\":766:788   */\n      swap1\n      pop\n        /* \"#utility.yul\":696:795   */\n      swap2\n      swap1\n      pop\n      jump\t// out\n        /* \"#utility.yul\":801:970   */\n    tag_20:\n        /* \"#utility.yul\":885:896   */\n      0x00\n        /* \"#utility.yul\":919:925   */\n      dup3\n        /* \"#utility.yul\":914:917   */\n      dup3\n        /* \"#utility.yul\":907:926   */\n      mstore\n        /* \"#utility.yul\":959:963   */\n      0x20\n        /* \"#utility.yul\":954:957   */\n      dup3\n        /* \"#utility.yul\":950:964   */\n      add\n        /* \"#utility.yul\":935:964   */\n      swap1\n      pop\n        /* \"#utility.yul\":801:970   */\n      swap3\n      swap2\n      pop\n      pop\n      jump\t// out\n        /* \"#utility.yul\":976:1283   */\n    tag_22:\n        /* \"#utility.yul\":1044:1045   */\n      0x00\n        /* \"#utility.yul\":1054:1167   */\n    tag_30:\n        /* \"#utility.yul\":1068:1074   */\n      dup4\n        /* \"#utility.yul\":1065:1066   */\n      dup2\n        /* \"#utility.yul\":1062:1075   */\n      lt\n        /* \"#utility.yul\":1054:1167   */\n      iszero\n      tag_32\n      jumpi\n        /* \"#utility.yul\":1153:1154   */\n      dup1\n        /* \"#utility.yul\":1148:1151   */\n      dup3\n        /* \"#utility.yul\":1144:1155   */\n      add\n        /* \"#utility.yul\":1138:1156   */\n      mload\n        /* \"#utility.yul\":1134:1135   */\n      dup2\n        /* \"#utility.yul\":1129:1132   */\n      dup5\n        /* \"#utility.yul\":1125:1136   */\n      add\n        /* \"#utility.yul\":1118:1157   */\n      mstore\n        /* \"#utility.yul\":1090:1092   */\n      0x20\n        /* \"#utility.yul\":1087:1088   */\n      dup2\n        /* \"#utility.yul\":1083:1093   */\n      add\n        /* \"#utility.yul\":1078:1093   */\n      swap1\n      pop\n        /* \"#utility.yul\":1054:1167   */\n      jump(tag_30)\n    tag_32:\n        /* \"#utility.yul\":1185:1191   */\n      dup4\n        /* \"#utility.yul\":1182:1183   */\n      dup2\n        /* \"#utility.yul\":1179:1192   */\n      gt\n        /* \"#utility.yul\":1176:1277   */\n      iszero\n      tag_33\n      jumpi\n        /* \"#utility.yul\":1265:1266   */\n      0x00\n        /* \"#utility.yul\":1256:1262   */\n      dup5\n        /* \"#utility.yul\":1251:1254   */\n      dup5\n        /* \"#utility.yul\":1247:1263   */\n      add\n        /* \"#utility.yul\":1240:1267   */\n      mstore\n        /* \"#utility.yul\":1176:1277   */\n    tag_33:\n        /* \"#utility.yul\":1025:1283   */\n      pop\n        /* \"#utility.yul\":976:1283   */\n      pop\n      pop\n      pop\n      jump\t// out\n        /* \"#utility.yul\":1289:1609   */\n    tag_9:\n        /* \"#utility.yul\":1333:1339   */\n      0x00\n        /* \"#utility.yul\":1370:1371   */\n      0x02\n        /* \"#utility.yul\":1364:1368   */\n      dup3\n        /* \"#utility.yul\":1360:1372   */\n      div\n        /* \"#utility.yul\":1350:1372   */\n      swap1\n      pop\n        /* \"#utility.yul\":1417:1418   */\n      0x01\n        /* \"#utility.yul\":1411:1415   */\n      dup3\n        /* \"#utility.yul\":1407:1419   */\n      and\n        /* \"#utility.yul\":1438:1456   */\n      dup1\n        /* \"#utility.yul\":1428:1509   */\n      tag_35\n      jumpi\n        /* \"#utility.yul\":1494:1498   */\n      0x7f\n        /* \"#utility.yul\":1486:1492   */\n      dup3\n        /* \"#utility.yul\":1482:1499   */\n      and\n        /* \"#utility.yul\":1472:1499   */\n      swap2\n      pop\n        /* \"#utility.yul\":1428:1509   */\n    tag_35:\n        /* \"#utility.yul\":1556:1558   */\n      0x20\n        /* \"#utility.yul\":1548:1554   */\n      dup3\n        /* \"#utility.yul\":1545:1559   */\n      lt\n        /* \"#utility.yul\":1525:1543   */\n      dup2\n        /* \"#utility.yul\":1522:1560   */\n      eq\n        /* \"#utility.yul\":1519:1603   */\n      iszero\n      tag_36\n      jumpi\n        /* \"#utility.yul\":1575:1593   */\n      tag_37\n      tag_38\n      jump\t// in\n    tag_37:\n        /* \"#utility.yul\":1519:1603   */\n    tag_36:\n        /* \"#utility.yul\":1340:1609   */\n      pop\n        /* \"#utility.yul\":1289:1609   */\n      swap2\n      swap1\n      pop\n      jump\t// out\n        /* \"#utility.yul\":1615:1795   */\n    tag_38:\n        /* \"#utility.yul\":1663:1740   */\n      0x4e487b7100000000000000000000000000000000000000000000000000000000\n        /* \"#utility.yul\":1660:1661   */\n      0x00\n        /* \"#utility.yul\":1653:1741   */\n      mstore\n        /* \"#utility.yul\":1760:1764   */\n      0x22\n        /* \"#utility.yul\":1757:1758   */\n      0x04\n        /* \"#utility.yul\":1750:1765   */\n      mstore\n        /* \"#utility.yul\":1784:1788   */\n      0x24\n        /* \"#utility.yul\":1781:1782   */\n      0x00\n        /* \"#utility.yul\":1774:1789   */\n      revert\n        /* \"#utility.yul\":1801:1903   */\n    tag_24:\n        /* \"#utility.yul\":1842:1848   */\n      0x00\n        /* \"#utility.yul\":1893:1895   */\n      0x1f\n        /* \"#utility.yul\":1889:1896   */\n      not\n        /* \"#utility.yul\":1884:1886   */\n      0x1f\n        /* \"#utility.yul\":1877:1882   */\n      dup4\n        /* \"#utility.yul\":1873:1887   */\n      add\n        /* \"#utility.yul\":1869:1897   */\n      and\n        /* \"#utility.yul\":1859:1897   */\n      swap1\n      pop\n        /* \"#utility.yul\":1801:1903   */\n      swap2\n      swap1\n      pop\n      jump\t// out\n\n    auxdata: 0xa2646970667358221220b627b3bfc7eeffd89225297fb39f48d6bc1b3c3d0d41aaa0c9ada5a12e4eec0864736f6c63430008070033\n}\n",
				"bytecode": {
					"linkReferences": {},
					"object": "60806040526040518061162001604052806115fb81526020016103896115fb913960009080519060200190610035929190610048565b5034801561004257600080fd5b5061014c565b828054610054906100eb565b90600052602060002090601f01602090048101928261007657600085556100bd565b82601f1061008f57805160ff19168380011785556100bd565b828001600101855582156100bd579182015b828111156100bc5782518255916020019190600101906100a1565b5b5090506100ca91906100ce565b5090565b5b808211156100e75760008160009055506001016100cf565b5090565b6000600282049050600182168061010357607f821691505b602082108114156101175761011661011d565b5b50919050565b7f4e487b7100000000000000000000000000000000000000000000000000000000600052602260045260246000fd5b61022e8061015b6000396000f3fe608060405234801561001057600080fd5b506004361061002b5760003560e01c8063bd85f55f14610030575b600080fd5b61003861004e565b6040516100459190610115565b60405180910390f35b6000805461005b90610186565b80601f016020809104026020016040519081016040528092919081815260200182805461008790610186565b80156100d45780601f106100a9576101008083540402835291602001916100d4565b820191906000526020600020905b8154815290600101906020018083116100b757829003601f168201915b505050505081565b60006100e782610137565b6100f18185610142565b9350610101818560208601610153565b61010a816101e7565b840191505092915050565b6000602082019050818103600083015261012f81846100dc565b905092915050565b600081519050919050565b600082825260208201905092915050565b60005b83811015610171578082015181840152602081019050610156565b83811115610180576000848401525b50505050565b6000600282049050600182168061019e57607f821691505b602082108114156101b2576101b16101b8565b5b50919050565b7f4e487b7100000000000000000000000000000000000000000000000000000000600052602260045260246000fd5b6000601f19601f830116905091905056fea2646970667358221220b627b3bfc7eeffd89225297fb39f48d6bc1b3c3d0d41aaa0c9ada5a12e4eec0864736f6c634300080700333c70617468207374796c653d2266696c6c3a233066336238362220643d226d20312e34303637382c3232302e30393332322063202d31312e3830313235332c2d3538382e3934383937203738342e37333834362c3231362e3436303937202d3130652d362c3231372e3439393939207a206d203230312e313539372c33302e3930323939206320362e333238322c2d332e383434313820392e34313936342c2d372e343530383720382e34383136342c2d392e3839353237202d302e39333638362c2d322e3434313432202d372e313430372c2d312e3738393233202d31332e34393536362c312e3431383734206c202d352e37393732392c322e3932363436202d322e35353039322c2d322e31373634362063202d332e33313136372c2d322e3832353533202d332e39393437382c2d352e3034303332202d322e32363035392c2d372e333239323620302e37363937332c2d312e303135393620312e34313338322c2d322e3835393720312e34333133322c2d342e3039373220302e303137352c2d312e3233373520302e343831382c2d322e323520312e303331382c2d322e323520302e35352c3020312c2d302e383637383620312c2d312e393238353720302c2d322e363531303420322e36353330342c2d352e303731343320352e35353838382c2d352e303731343320322e36363537322c3020372e34343131322c2d362e333732313720372e34343131322c2d392e393239323420302c2d322e3139323833202d332e36353438382c2d352e31373435202d31322e32352c2d392e3939333632202d332e313632352c2d312e3737333136202d352e37352c2d332e3538323932202d352e37352c2d342e3032313720302c2d302e343338373820322e32363230332c2d312e303937383520352e30323637342c2d312e3436343620362e37353030382c2d302e38393534332031302e38393232322c2d342e35363536372031312e36363631372c2d31302e333337303620302e35353538352c2d342e313435303820302e34383034352c2d342e32383334202d332e313635342c2d352e3830363733202d332e35373134322c2d312e3439323234202d332e36363033372c2d312e3634323736202d322e303333322c2d332e343430373620322e32373439342c2d322e353133373920312e31333734362c2d342e3030363239202d332e30353333332c2d342e3030363239202d312e38393235342c30202d332e34343039382c2d302e3339353431202d332e34343039382c2d302e383738363820302c2d312e363339343520362e34373539322c2d332e35383335362031322c2d332e363032343820352e33373637312c2d302e3031383420352e35303733332c302e3034383420352e38323639352c322e393831313620302e31373938322c312e363520302e37323735372c332e343132373520312e32313732312c332e393137323220312e34363534372c312e353039383220322e33393034332c2d322e343931363920312e30363631322c2d342e3631323233202d312e34363132312c2d322e3333393738202d302e36323035372c2d352e343631353220312e38323238352c2d362e3736393220312e36333139332c2d302e383733333920312e38353937342c2d302e323737323520322e34373037352c362e343635343820302e37343734322c382e3234383034202d302e37333136382c31322e3638363139202d352e38303635362c31372e3432333034202d312e39323133352c312e3739333338202d322e35393733322c332e3431393938202d322e35393733322c362e323520302c362e303030313820332e33343838322c352e32353331382031322e32303339362c2d322e373232323520332e393938362c2d332e363031333620372e36333538372c2d372e323031333620382e303832382c2d3820322e30393839382c2d332e373530363620352e36343732342c312e303239383120342e31383436392c352e3633373931202d302e38373039352c322e373434313120322e31313934332c332e353930323520342e36333638352c312e333132303220312e39313135352c2d312e373239393320322e30313735362c2d322e383334323220312e37363336342c2d31382e3337313238202d302e32343035352c2d31342e3731393031202d302e3032372c2d31372e333136373820312e39343831382c2d32332e373033313120322e34393231332c2d382e303537353920332e39353532362c2d31382e393638353220342e35353533312c2d33332e393730303220302e33343737322c2d382e363932393620302e31333634352c2d31302e3535303739202d312e34373832382c2d3133202d312e30333631382c2d312e3537313637202d312e38383639342c2d322e3435303334202d312e38393035362c2d312e3935323539202d302e3030342c302e3439373734202d302e37393430392c302e3232303638202d312e37353635392c2d302e3631353639202d302e393632352c2d302e3833363338202d322e39363935372c2d312e3831303139202d342e34363031352c2d322e3136343034202d312e34393035382c2d302e3335333835202d342e313533342c2d322e3433393239202d352e39313733362c2d342e3633343331202d312e37363339372c2d322e3139353032202d332e35383139312c2d332e3939303935202d342e30333938352c2d332e3939303935202d302e34353739352c30202d302e383737352c332e37313235202d302e39333233322c382e3235202d302e303534382c342e35333735202d302e34323639362c392e333735202d302e38323639362c31302e3735202d302e35343731352c312e38383038202d302e31323933382c332e323235373520312e36383637332c352e343330313820312e363735392c322e303334323520322e32353631322c332e373135393420312e38393736312c352e35202d312e32343532392c362e3139363936202d312e32303237312c362e3432303320312e333432332c372e303431353520322e38353135362c302e363936303820332e37333330372c332e373920322e30303136312c372e3032353236202d302e36313831382c312e3135353039202d312e35303334322c362e3834313031202d312e393637322c31322e3633353339202d302e37313135312c382e3838393431202d312e31393738342c31302e3931323638202d332e31313331342c31322e3935313432202d312e32343834342c312e3332383931202d322e39373839362c322e3430313839202d332e38343535382c322e33383434202d332e393438312c2d302e30373937202d372e32323030352c2d352e39363832202d332e33313632342c2d352e3936383220322e34313838392c3020342e303238372c2d322e3932323320342e37393539352c2d382e373036313320302e35303638392c2d332e383231303620302e32393937382c2d352e3136393137202d302e39353339382c2d362e32303937202d302e38383037382c2d302e3733303938202d312e36303134322c2d312e3837363733202d312e36303134322c2d322e3534363120302c2d302e3636393337202d312e3132352c2d312e3732393632202d322e352c2d322e3335363132202d312e3337352c2d302e3632363439202d322e352c2d312e3638323232202d322e352c2d322e333436303620302c2d312e3639303937202d342e30363534332c2d352e3833353839202d352e37323339372c2d352e3833353839202d302e37353634342c30202d322e37343635372c302e3730393039202d342e34323235312c312e3537353735202d322e34343139362c312e3236323738202d322e39313432342c322e3030373538202d322e33373739322c332e373520302e33363830392c312e313935383420312e36353132342c352e373734323520322e38353134352c31302e313734323520312e32303032312c342e3420322e39363736322c392e313132363320332e39323735382c31302e343732353120322e33393738382c332e333936383520322e31383637372c362e3236343139202d302e36353739382c382e3933363639202d332e36333636372c332e3431363438202d392e32313739352c342e3335393232202d31342e33343636352c322e3432333331202d322e333337352c2d302e3838323332202d342e32352c2d322e3134353037202d342e32352c2d322e3830363120302c2d312e36363135372031302e34393539392c2d362e36353730352031322e34323837372c2d352e393135333720322e30383333342c302e373939343520322e30373936312c2d312e3934343233202d302e3030352c2d332e3637343239202d312e32393939342c2d312e3037383836202d312e37323034382c2d312e3037343731202d322e33393933322c302e30323337202d302e36333830312c312e3033323331202d312e34303739372c302e3734363937202d332e34323337392c2d312e3236383835202d322e33383332312c2d322e3338333234202d322e36303036362c2d332e3239343835202d322e36303036362c2d31302e393032373520302c2d342e353636313320302e34323435312c2d392e373832323220302e39343333352c2d31312e353931333220312e34303130322c2d342e383835303820362e35373938322c2d392e31303130322031342e34353035392c2d31312e373633383920392e38333030352c2d332e33323537352031302e32393931332c2d332e393635333220372e38303234322c2d31302e3633383337202d312e33343236312c2d332e3538383433202d322e31323034312c2d382e3432343935202d322e33303833332c2d31342e3335333635202d302e31353538392c2d342e3931373839202d302e37333834372c2d392e353531202d312e32393436332c2d31302e32393538202d322e31303238322c2d322e3831363033202d352e38313238362c2d332e3235353135202d31372e30363937362c2d322e3032303337202d382e35343733342c302e3933373537202d31322e31373534342c302e3934373835202d31352e373632322c302e30343437202d332e35333630382c2d302e3839303339202d362e35313734352c2d302e3839363832202d31322e33363739352c2d302e30323637202d392e32343735352c312e33373534202d31332e32303734342c342e3336343034202d31372e38393334392c31332e3530343639202d322e36313435392c352e3130303034202d332e30343434392c372e3131353139202d332e33343633332c31352e3638353635206c202d302e33343633322c392e3833333832202d322e33353237392c2d322e32313033332063202d332e35373930322c2d332e3336323331202d352e30383031372c2d322e3032323733202d352e3732372c352e3131303539202d302e343033372c342e3435323131202d302e303135352c382e3339363420312e33353331362c31332e373437363920312e303535362c342e313237333920312e39313932382c382e393037323220312e39313932382c31302e363231383720302c342e303939393620322e33383034312c372e333535323720352e36363530352c372e373437313720322e34303330352c302e323836373220322e383537392c312e303837363620352e30303631322c382e383135333720312e39313830362c362e383939373220322e34363131312c31312e3739343720322e38383434392c323620302e37333938372c32342e383234343720312e35323430342c32372e313039352031342e36363037372c34322e373230323920352e36353539362c362e37323131362031322e33303835372c31332e36373239382031342e37383335372c31352e3434383520322e3437352c312e373735353220352e39373831362c342e343838383920372e373834382c362e303239373120312e38303636332c312e353430383320332e35343737372c322e3830313520332e38363931392c322e3830313520302e33323134312c3020332e32343839382c2d312e363138363620362e35303537312c2d332e3539373031207a204d203136352e33333532342c3132392e30303730322063202d302e38393834332c2d312e3038323535202d322e32333239332c2d312e3430323931202d342e323032382c2d312e3030383933202d322e3034312c302e34303832202d322e373637382c302e3231333738202d322e34383135332c2d302e3636333820302e32323236362c2d302e363832353920322e35303838322c2d312e363533393920352e30383033352c2d322e313538363720322e35373135342c2d302e353034363820342e36373535322c2d312e323633303520342e36373535322c2d312e363835323720302c2d302e3432323232202d312e3537352c2d312e33333732202d332e352c2d322e3033333239202d352e36323537362c2d322e30333433202d342e30363138372c2d332e313130383120332e393332372c2d322e373037313120372e39353337382c302e343031363520392e34393339362c312e303231373920372e37353136352c332e3132313134202d302e36303533362c302e3732393431202d302e38383735312c322e3230323739202d302e36323730312c332e323734313720302e33363331352c312e34393335202d302e34323239352c322e3335363233202d332e33363934362c332e3639373936202d342e373236342c322e3135323232202d352e35393239352c322e3137313737202d372e32353934322c302e31363338207a206d2038312e32373238372c31362e36353337206320302e34303134322c2d322e333531343320312e30303036372c2d352e313238353720312e33333136352c2d362e313731343220302e37393637362c2d322e3531303336202d332e303039352c2d322e3634383032202d342e30333933312c2d302e3134363038202d302e38393635342c322e3137383136202d312e34343436392c392e3436393931202d302e373933332c31302e353532373920312e31303337352c312e383334383720322e38313839332c2d302e323430303620332e35303039362c2d342e3233353239207a206d202d32302e393336392c2d31332e3636353237206320302e33323837372c2d302e333238373720302e33353536332c2d312e323238373720302e303539372c2d32202d302e37313035362c2d312e3835313638202d352e33323431312c2d312e3833393138202d352e33323431312c302e3031343420302c312e393438323620332e38343937342c332e343030323520352e32363434332c312e3938353536207a206d2032332e363937342c2d392e35313738392063202d312e36393738382c2d352e3134343632202d332e37323839322c2d352e3131383733202d322e39393638362c302e3033383220302e32393832332c322e313030383120332e34373433362c362e303539323720332e39303639322c342e383639323520302e32303435342c2d302e3536323731202d302e32303439392c2d322e3737313036202d302e39313030362c2d342e3930373434207a206d20322e30333831372c2d372e3338343334206320302c2d302e383235202d302e3637352c2d312e35202d312e352c2d312e35202d302e3832352c30202d312e352c302e363735202d312e352c312e3520302c302e38323520302e3637352c312e3520312e352c312e3520302e3832352c3020312e352c2d302e36373520312e352c2d312e35207a222066696c6c3d2223306633623836222f3e",
					"opcodes": "PUSH1 0x80 PUSH1 0x40 MSTORE PUSH1 0x40 MLOAD DUP1 PUSH2 0x1620 ADD PUSH1 0x40 MSTORE DUP1 PUSH2 0x15FB DUP2 MSTORE PUSH1 0x20 ADD PUSH2 0x389 PUSH2 0x15FB SWAP2 CODECOPY PUSH1 0x0 SWAP1 DUP1 MLOAD SWAP1 PUSH1 0x20 ADD SWAP1 PUSH2 0x35 SWAP3 SWAP2 SWAP1 PUSH2 0x48 JUMP JUMPDEST POP CALLVALUE DUP1 ISZERO PUSH2 0x42 JUMPI PUSH1 0x0 DUP1 REVERT JUMPDEST POP PUSH2 0x14C JUMP JUMPDEST DUP3 DUP1 SLOAD PUSH2 0x54 SWAP1 PUSH2 0xEB JUMP JUMPDEST SWAP1 PUSH1 0x0 MSTORE PUSH1 0x20 PUSH1 0x0 KECCAK256 SWAP1 PUSH1 0x1F ADD PUSH1 0x20 SWAP1 DIV DUP2 ADD SWAP3 DUP3 PUSH2 0x76 JUMPI PUSH1 0x0 DUP6 SSTORE PUSH2 0xBD JUMP JUMPDEST DUP3 PUSH1 0x1F LT PUSH2 0x8F JUMPI DUP1 MLOAD PUSH1 0xFF NOT AND DUP4 DUP1 ADD OR DUP6 SSTORE PUSH2 0xBD JUMP JUMPDEST DUP3 DUP1 ADD PUSH1 0x1 ADD DUP6 SSTORE DUP3 ISZERO PUSH2 0xBD JUMPI SWAP2 DUP3 ADD JUMPDEST DUP3 DUP2 GT ISZERO PUSH2 0xBC JUMPI DUP3 MLOAD DUP3 SSTORE SWAP2 PUSH1 0x20 ADD SWAP2 SWAP1 PUSH1 0x1 ADD SWAP1 PUSH2 0xA1 JUMP JUMPDEST JUMPDEST POP SWAP1 POP PUSH2 0xCA SWAP2 SWAP1 PUSH2 0xCE JUMP JUMPDEST POP SWAP1 JUMP JUMPDEST JUMPDEST DUP1 DUP3 GT ISZERO PUSH2 0xE7 JUMPI PUSH1 0x0 DUP2 PUSH1 0x0 SWAP1 SSTORE POP PUSH1 0x1 ADD PUSH2 0xCF JUMP JUMPDEST POP SWAP1 JUMP JUMPDEST PUSH1 0x0 PUSH1 0x2 DUP3 DIV SWAP1 POP PUSH1 0x1 DUP3 AND DUP1 PUSH2 0x103 JUMPI PUSH1 0x7F DUP3 AND SWAP2 POP JUMPDEST PUSH1 0x20 DUP3 LT DUP2 EQ ISZERO PUSH2 0x117 JUMPI PUSH2 0x116 PUSH2 0x11D JUMP JUMPDEST JUMPDEST POP SWAP2 SWAP1 POP JUMP JUMPDEST PUSH32 0x4E487B7100000000000000000000000000000000000000000000000000000000 PUSH1 0x0 MSTORE PUSH1 0x22 PUSH1 0x4 MSTORE PUSH1 0x24 PUSH1 0x0 REVERT JUMPDEST PUSH2 0x22E DUP1 PUSH2 0x15B PUSH1 0x0 CODECOPY PUSH1 0x0 RETURN INVALID PUSH1 0x80 PUSH1 0x40 MSTORE CALLVALUE DUP1 ISZERO PUSH2 0x10 JUMPI PUSH1 0x0 DUP1 REVERT JUMPDEST POP PUSH1 0x4 CALLDATASIZE LT PUSH2 0x2B JUMPI PUSH1 0x0 CALLDATALOAD PUSH1 0xE0 SHR DUP1 PUSH4 0xBD85F55F EQ PUSH2 0x30 JUMPI JUMPDEST PUSH1 0x0 DUP1 REVERT JUMPDEST PUSH2 0x38 PUSH2 0x4E JUMP JUMPDEST PUSH1 0x40 MLOAD PUSH2 0x45 SWAP2 SWAP1 PUSH2 0x115 JUMP JUMPDEST PUSH1 0x40 MLOAD DUP1 SWAP2 SUB SWAP1 RETURN JUMPDEST PUSH1 0x0 DUP1 SLOAD PUSH2 0x5B SWAP1 PUSH2 0x186 JUMP JUMPDEST DUP1 PUSH1 0x1F ADD PUSH1 0x20 DUP1 SWAP2 DIV MUL PUSH1 0x20 ADD PUSH1 0x40 MLOAD SWAP1 DUP2 ADD PUSH1 0x40 MSTORE DUP1 SWAP3 SWAP2 SWAP1 DUP2 DUP2 MSTORE PUSH1 0x20 ADD DUP3 DUP1 SLOAD PUSH2 0x87 SWAP1 PUSH2 0x186 JUMP JUMPDEST DUP1 ISZERO PUSH2 0xD4 JUMPI DUP1 PUSH1 0x1F LT PUSH2 0xA9 JUMPI PUSH2 0x100 DUP1 DUP4 SLOAD DIV MUL DUP4 MSTORE SWAP2 PUSH1 0x20 ADD SWAP2 PUSH2 0xD4 JUMP JUMPDEST DUP3 ADD SWAP2 SWAP1 PUSH1 0x0 MSTORE PUSH1 0x20 PUSH1 0x0 KECCAK256 SWAP1 JUMPDEST DUP2 SLOAD DUP2 MSTORE SWAP1 PUSH1 0x1 ADD SWAP1 PUSH1 0x20 ADD DUP1 DUP4 GT PUSH2 0xB7 JUMPI DUP3 SWAP1 SUB PUSH1 0x1F AND DUP3 ADD SWAP2 JUMPDEST POP POP POP POP POP DUP2 JUMP JUMPDEST PUSH1 0x0 PUSH2 0xE7 DUP3 PUSH2 0x137 JUMP JUMPDEST PUSH2 0xF1 DUP2 DUP6 PUSH2 0x142 JUMP JUMPDEST SWAP4 POP PUSH2 0x101 DUP2 DUP6 PUSH1 0x20 DUP7 ADD PUSH2 0x153 JUMP JUMPDEST PUSH2 0x10A DUP2 PUSH2 0x1E7 JUMP JUMPDEST DUP5 ADD SWAP2 POP POP SWAP3 SWAP2 POP POP JUMP JUMPDEST PUSH1 0x0 PUSH1 0x20 DUP3 ADD SWAP1 POP DUP2 DUP2 SUB PUSH1 0x0 DUP4 ADD MSTORE PUSH2 0x12F DUP2 DUP5 PUSH2 0xDC JUMP JUMPDEST SWAP1 POP SWAP3 SWAP2 POP POP JUMP JUMPDEST PUSH1 0x0 DUP2 MLOAD SWAP1 POP SWAP2 SWAP1 POP JUMP JUMPDEST PUSH1 0x0 DUP3 DUP3 MSTORE PUSH1 0x20 DUP3 ADD SWAP1 POP SWAP3 SWAP2 POP POP JUMP JUMPDEST PUSH1 0x0 JUMPDEST DUP4 DUP2 LT ISZERO PUSH2 0x171 JUMPI DUP1 DUP3 ADD MLOAD DUP2 DUP5 ADD MSTORE PUSH1 0x20 DUP2 ADD SWAP1 POP PUSH2 0x156 JUMP JUMPDEST DUP4 DUP2 GT ISZERO PUSH2 0x180 JUMPI PUSH1 0x0 DUP5 DUP5 ADD MSTORE JUMPDEST POP POP POP POP JUMP JUMPDEST PUSH1 0x0 PUSH1 0x2 DUP3 DIV SWAP1 POP PUSH1 0x1 DUP3 AND DUP1 PUSH2 0x19E JUMPI PUSH1 0x7F DUP3 AND SWAP2 POP JUMPDEST PUSH1 0x20 DUP3 LT DUP2 EQ ISZERO PUSH2 0x1B2 JUMPI PUSH2 0x1B1 PUSH2 0x1B8 JUMP JUMPDEST JUMPDEST POP SWAP2 SWAP1 POP JUMP JUMPDEST PUSH32 0x4E487B7100000000000000000000000000000000000000000000000000000000 PUSH1 0x0 MSTORE PUSH1 0x22 PUSH1 0x4 MSTORE PUSH1 0x24 PUSH1 0x0 REVERT JUMPDEST PUSH1 0x0 PUSH1 0x1F NOT PUSH1 0x1F DUP4 ADD AND SWAP1 POP SWAP2 SWAP1 POP JUMP INVALID LOG2 PUSH5 0x6970667358 0x22 SLT KECCAK256 0xB6 0x27 0xB3 0xBF 0xC7 0xEE SELFDESTRUCT 0xD8 SWAP3 0x25 0x29 PUSH32 0xB39F48D6BC1B3C3D0D41AAA0C9ADA5A12E4EEC0864736F6C634300080700333C PUSH17 0x617468207374796C653D2266696C6C3A23 ADDRESS PUSH7 0x33623836222064 RETURNDATASIZE 0x22 PUSH14 0x20312E34303637382C3232302E30 CODECOPY CALLER ORIGIN ORIGIN KECCAK256 PUSH4 0x202D3131 0x2E CODESIZE ADDRESS BALANCE ORIGIN CALLDATALOAD CALLER 0x2C 0x2D CALLDATALOAD CODESIZE CODESIZE 0x2E CODECOPY CALLVALUE CODESIZE CODECOPY CALLDATACOPY KECCAK256 CALLDATACOPY CODESIZE CALLVALUE 0x2E CALLDATACOPY CALLER CODESIZE CALLVALUE CALLDATASIZE 0x2C ORIGIN BALANCE CALLDATASIZE 0x2E CALLVALUE CALLDATASIZE ADDRESS CODECOPY CALLDATACOPY KECCAK256 0x2D BALANCE ADDRESS PUSH6 0x2D362C323137 0x2E CALLVALUE CODECOPY CODECOPY CODECOPY CODECOPY KECCAK256 PUSH27 0x206D203230312E313539372C33302E3930323939206320362E3332 CODESIZE ORIGIN 0x2C 0x2D CALLER 0x2E CODESIZE CALLVALUE CALLVALUE BALANCE CODESIZE KECCAK256 CODECOPY 0x2E CALLVALUE BALANCE CODECOPY CALLDATASIZE CALLVALUE 0x2C 0x2D CALLDATACOPY 0x2E CALLVALUE CALLDATALOAD ADDRESS CODESIZE CALLDATACOPY KECCAK256 CODESIZE 0x2E CALLVALUE CODESIZE BALANCE CALLDATASIZE CALLVALUE 0x2C 0x2D CODECOPY 0x2E CODESIZE CODECOPY CALLDATALOAD ORIGIN CALLDATACOPY KECCAK256 0x2D ADDRESS 0x2E CODECOPY CALLER CALLDATASIZE CODESIZE CALLDATASIZE 0x2C 0x2D ORIGIN 0x2E CALLVALUE CALLVALUE BALANCE CALLVALUE ORIGIN KECCAK256 0x2D CALLDATACOPY 0x2E BALANCE CALLVALUE ADDRESS CALLDATACOPY 0x2C 0x2D BALANCE 0x2E CALLDATACOPY CODESIZE CODECOPY ORIGIN CALLER KECCAK256 0x2D BALANCE CALLER 0x2E CALLVALUE CODECOPY CALLDATALOAD CALLDATASIZE CALLDATASIZE 0x2C BALANCE 0x2E CALLVALUE BALANCE CODESIZE CALLDATACOPY CALLVALUE KECCAK256 PUSH13 0x202D352E37393732392C322E39 ORIGIN CALLDATASIZE CALLVALUE CALLDATASIZE KECCAK256 0x2D ORIGIN 0x2E CALLDATALOAD CALLDATALOAD ADDRESS CODECOPY ORIGIN 0x2C 0x2D ORIGIN 0x2E BALANCE CALLDATACOPY CALLDATASIZE CALLVALUE CALLDATASIZE KECCAK256 PUSH4 0x202D332E CALLER BALANCE BALANCE CALLDATASIZE CALLDATACOPY 0x2C 0x2D ORIGIN 0x2E CODESIZE ORIGIN CALLDATALOAD CALLDATALOAD CALLER KECCAK256 0x2D CALLER 0x2E CODECOPY CODECOPY CALLVALUE CALLDATACOPY CODESIZE 0x2C 0x2D CALLDATALOAD 0x2E ADDRESS CALLVALUE ADDRESS CALLER ORIGIN KECCAK256 0x2D ORIGIN 0x2E ORIGIN CALLDATASIZE ADDRESS CALLDATALOAD CODECOPY 0x2C 0x2D CALLDATACOPY 0x2E CALLER ORIGIN CODECOPY ORIGIN CALLDATASIZE KECCAK256 ADDRESS 0x2E CALLDATACOPY CALLDATASIZE CODECOPY CALLDATACOPY CALLER 0x2C 0x2D BALANCE 0x2E ADDRESS BALANCE CALLDATALOAD CODECOPY CALLDATASIZE KECCAK256 BALANCE 0x2E CALLVALUE BALANCE CALLER CODESIZE ORIGIN 0x2C 0x2D ORIGIN 0x2E CODESIZE CALLDATALOAD CODECOPY CALLDATACOPY KECCAK256 BALANCE 0x2E CALLVALUE CALLER BALANCE CALLER ORIGIN 0x2C 0x2D CALLVALUE 0x2E ADDRESS CODECOPY CALLDATACOPY ORIGIN KECCAK256 ADDRESS 0x2E ADDRESS BALANCE CALLDATACOPY CALLDATALOAD 0x2C 0x2D BALANCE 0x2E ORIGIN CALLER CALLDATACOPY CALLDATALOAD KECCAK256 ADDRESS 0x2E CALLVALUE CODESIZE BALANCE CODESIZE 0x2C 0x2D ORIGIN 0x2E ORIGIN CALLDATALOAD KECCAK256 BALANCE 0x2E ADDRESS CALLER BALANCE CODESIZE 0x2C 0x2D ORIGIN 0x2E ORIGIN CALLDATALOAD KECCAK256 ADDRESS 0x2E CALLDATALOAD CALLDATALOAD 0x2C ADDRESS KECCAK256 BALANCE 0x2C 0x2D ADDRESS 0x2E CODESIZE CALLDATASIZE CALLDATACOPY CODESIZE CALLDATASIZE KECCAK256 BALANCE 0x2C 0x2D BALANCE 0x2E CODECOPY ORIGIN CODESIZE CALLDATALOAD CALLDATACOPY KECCAK256 ADDRESS 0x2C 0x2D ORIGIN 0x2E CALLDATASIZE CALLDATALOAD BALANCE ADDRESS CALLVALUE KECCAK256 ORIGIN 0x2E CALLDATASIZE CALLDATALOAD CALLER ADDRESS CALLVALUE 0x2C 0x2D CALLDATALOAD 0x2E ADDRESS CALLDATACOPY BALANCE CALLVALUE CALLER KECCAK256 CALLDATALOAD 0x2E CALLDATALOAD CALLDATALOAD CODESIZE CODESIZE CODESIZE 0x2C 0x2D CALLDATALOAD 0x2E ADDRESS CALLDATACOPY BALANCE CALLVALUE CALLER KECCAK256 ORIGIN 0x2E CALLDATASIZE CALLDATASIZE CALLDATALOAD CALLDATACOPY ORIGIN 0x2C ADDRESS KECCAK256 CALLDATACOPY 0x2E CALLVALUE CALLVALUE BALANCE BALANCE ORIGIN 0x2C 0x2D CALLDATASIZE 0x2E CALLER CALLDATACOPY ORIGIN BALANCE CALLDATACOPY KECCAK256 CALLDATACOPY 0x2E CALLVALUE CALLVALUE BALANCE BALANCE ORIGIN 0x2C 0x2D CODECOPY 0x2E CODECOPY ORIGIN CODECOPY ORIGIN CALLVALUE KECCAK256 ADDRESS 0x2C 0x2D ORIGIN 0x2E BALANCE CODECOPY ORIGIN CODESIZE CALLER KECCAK256 0x2D CALLER 0x2E CALLDATASIZE CALLDATALOAD CALLVALUE CODESIZE CODESIZE 0x2C 0x2D CALLDATALOAD 0x2E BALANCE CALLDATACOPY CALLVALUE CALLDATALOAD KECCAK256 0x2D BALANCE ORIGIN 0x2E ORIGIN CALLDATALOAD 0x2C 0x2D CODECOPY 0x2E CODECOPY CODECOPY CALLER CALLDATASIZE ORIGIN KECCAK256 0x2D CALLER 0x2E BALANCE CALLDATASIZE ORIGIN CALLDATALOAD 0x2C 0x2D BALANCE 0x2E CALLDATACOPY CALLDATACOPY CALLER BALANCE CALLDATASIZE KECCAK256 0x2D CALLDATALOAD 0x2E CALLDATACOPY CALLDATALOAD 0x2C 0x2D CALLER 0x2E CALLDATALOAD CODESIZE ORIGIN CODECOPY ORIGIN KECCAK256 0x2D CALLDATALOAD 0x2E CALLDATACOPY CALLDATALOAD 0x2C 0x2D CALLVALUE 0x2E ADDRESS ORIGIN BALANCE CALLDATACOPY KECCAK256 ADDRESS 0x2C 0x2D ADDRESS 0x2E CALLVALUE CALLER CODESIZE CALLDATACOPY CODESIZE KECCAK256 ORIGIN 0x2E ORIGIN CALLDATASIZE ORIGIN ADDRESS CALLER 0x2C 0x2D BALANCE 0x2E ADDRESS CODECOPY CALLDATACOPY CODESIZE CALLDATALOAD KECCAK256 CALLDATALOAD 0x2E ADDRESS ORIGIN CALLDATASIZE CALLDATACOPY CALLVALUE 0x2C 0x2D BALANCE 0x2E CALLVALUE CALLDATASIZE CALLVALUE CALLDATASIZE KECCAK256 CALLDATASIZE 0x2E CALLDATACOPY CALLDATALOAD ADDRESS ADDRESS CODESIZE 0x2C 0x2D ADDRESS 0x2E CODESIZE CODECOPY CALLDATALOAD CALLVALUE CALLER KECCAK256 BALANCE ADDRESS 0x2E CODESIZE CODECOPY ORIGIN ORIGIN ORIGIN 0x2C 0x2D CALLVALUE 0x2E CALLDATALOAD CALLDATASIZE CALLDATALOAD CALLDATASIZE CALLDATACOPY KECCAK256 BALANCE BALANCE 0x2E CALLDATASIZE CALLDATASIZE CALLDATASIZE BALANCE CALLDATACOPY 0x2C 0x2D BALANCE ADDRESS 0x2E CALLER CALLER CALLDATACOPY ADDRESS CALLDATASIZE KECCAK256 ADDRESS 0x2E CALLDATALOAD CALLDATALOAD CALLDATALOAD CODESIZE CALLDATALOAD 0x2C 0x2D CALLVALUE 0x2E BALANCE CALLVALUE CALLDATALOAD ADDRESS CODESIZE KECCAK256 ADDRESS 0x2E CALLVALUE CODESIZE ADDRESS CALLVALUE CALLDATALOAD 0x2C 0x2D CALLVALUE 0x2E ORIGIN CODESIZE CALLER CALLVALUE KECCAK256 0x2D CALLER 0x2E BALANCE CALLDATASIZE CALLDATALOAD CALLVALUE 0x2C 0x2D CALLDATALOAD 0x2E CODESIZE ADDRESS CALLDATASIZE CALLDATACOPY CALLER KECCAK256 0x2D CALLER 0x2E CALLDATALOAD CALLDATACOPY BALANCE CALLVALUE ORIGIN 0x2C 0x2D BALANCE 0x2E CALLVALUE CODECOPY ORIGIN ORIGIN CALLVALUE KECCAK256 0x2D CALLER 0x2E CALLDATASIZE CALLDATASIZE ADDRESS CALLER CALLDATACOPY 0x2C 0x2D BALANCE 0x2E CALLDATASIZE CALLVALUE ORIGIN CALLDATACOPY CALLDATASIZE KECCAK256 0x2D ORIGIN 0x2E ADDRESS CALLER CALLER ORIGIN 0x2C 0x2D CALLER 0x2E CALLVALUE CALLVALUE ADDRESS CALLDATACOPY CALLDATASIZE KECCAK256 ORIGIN 0x2E ORIGIN CALLDATACOPY CALLVALUE CODECOPY CALLVALUE 0x2C 0x2D ORIGIN 0x2E CALLDATALOAD BALANCE CALLER CALLDATACOPY CODECOPY KECCAK256 BALANCE 0x2E BALANCE CALLER CALLDATACOPY CALLVALUE CALLDATASIZE 0x2C 0x2D CALLVALUE 0x2E ADDRESS ADDRESS CALLDATASIZE ORIGIN CODECOPY KECCAK256 0x2D CALLER 0x2E ADDRESS CALLDATALOAD CALLER CALLER CALLER 0x2C 0x2D CALLVALUE 0x2E ADDRESS ADDRESS CALLDATASIZE ORIGIN CODECOPY KECCAK256 0x2D BALANCE 0x2E CODESIZE CODECOPY ORIGIN CALLDATALOAD CALLVALUE 0x2C ADDRESS KECCAK256 0x2D CALLER 0x2E CALLVALUE CALLVALUE ADDRESS CODECOPY CODESIZE 0x2C 0x2D ADDRESS 0x2E CALLER CODECOPY CALLDATALOAD CALLVALUE BALANCE KECCAK256 0x2D CALLER 0x2E CALLVALUE CALLVALUE ADDRESS CODECOPY CODESIZE 0x2C 0x2D ADDRESS 0x2E CODESIZE CALLDATACOPY CODESIZE CALLDATASIZE CODESIZE KECCAK256 ADDRESS 0x2C 0x2D BALANCE 0x2E CALLDATASIZE CALLER CODECOPY CALLVALUE CALLDATALOAD KECCAK256 CALLDATASIZE 0x2E CALLVALUE CALLDATACOPY CALLDATALOAD CODECOPY ORIGIN 0x2C 0x2D CALLER 0x2E CALLDATALOAD CODESIZE CALLER CALLDATALOAD CALLDATASIZE KECCAK256 BALANCE ORIGIN 0x2C 0x2D CALLER 0x2E CALLDATASIZE ADDRESS ORIGIN CALLVALUE CODESIZE KECCAK256 CALLDATALOAD 0x2E CALLER CALLDATACOPY CALLDATASIZE CALLDATACOPY BALANCE 0x2C 0x2D ADDRESS 0x2E ADDRESS BALANCE CODESIZE CALLVALUE KECCAK256 CALLDATALOAD 0x2E CALLDATALOAD ADDRESS CALLDATACOPY CALLER CALLER 0x2C ADDRESS 0x2E ADDRESS CALLVALUE CODESIZE CALLVALUE KECCAK256 CALLDATALOAD 0x2E CODESIZE ORIGIN CALLDATASIZE CODECOPY CALLDATALOAD 0x2C ORIGIN 0x2E CODECOPY CODESIZE BALANCE BALANCE CALLDATASIZE KECCAK256 ADDRESS 0x2E BALANCE CALLDATACOPY CODECOPY CODESIZE ORIGIN 0x2C BALANCE 0x2E CALLDATASIZE CALLDATALOAD KECCAK256 ADDRESS 0x2E CALLDATACOPY ORIGIN CALLDATACOPY CALLDATALOAD CALLDATACOPY 0x2C CALLER 0x2E CALLVALUE BALANCE ORIGIN CALLDATACOPY CALLDATALOAD KECCAK256 BALANCE 0x2E ORIGIN BALANCE CALLDATACOPY ORIGIN BALANCE 0x2C CALLER 0x2E CODECOPY BALANCE CALLDATACOPY ORIGIN ORIGIN KECCAK256 BALANCE 0x2E CALLVALUE CALLDATASIZE CALLDATALOAD CALLVALUE CALLDATACOPY 0x2C BALANCE 0x2E CALLDATALOAD ADDRESS CODECOPY CODESIZE ORIGIN KECCAK256 ORIGIN 0x2E CALLER CODECOPY ADDRESS CALLVALUE CALLER 0x2C 0x2D ORIGIN 0x2E CALLVALUE CODECOPY BALANCE CALLDATASIZE CODECOPY KECCAK256 BALANCE 0x2E ADDRESS CALLDATASIZE CALLDATASIZE BALANCE ORIGIN 0x2C 0x2D CALLVALUE 0x2E CALLDATASIZE BALANCE ORIGIN ORIGIN CALLER KECCAK256 0x2D BALANCE 0x2E CALLVALUE CALLDATASIZE BALANCE ORIGIN BALANCE 0x2C 0x2D ORIGIN 0x2E CALLER CALLER CODECOPY CALLDATACOPY CODESIZE KECCAK256 0x2D ADDRESS 0x2E CALLDATASIZE ORIGIN ADDRESS CALLDATALOAD CALLDATACOPY 0x2C 0x2D CALLDATALOAD 0x2E CALLVALUE CALLDATASIZE BALANCE CALLDATALOAD ORIGIN KECCAK256 BALANCE 0x2E CODESIZE ORIGIN ORIGIN CODESIZE CALLDATALOAD 0x2C 0x2D CALLDATASIZE 0x2E CALLDATACOPY CALLDATASIZE CODECOPY ORIGIN KECCAK256 BALANCE 0x2E CALLDATASIZE CALLER BALANCE CODECOPY CALLER 0x2C 0x2D ADDRESS 0x2E CODESIZE CALLDATACOPY CALLER CALLER CODECOPY KECCAK256 BALANCE 0x2E CODESIZE CALLDATALOAD CODECOPY CALLDATACOPY CALLVALUE 0x2C 0x2D ADDRESS 0x2E ORIGIN CALLDATACOPY CALLDATACOPY ORIGIN CALLDATALOAD KECCAK256 ORIGIN 0x2E CALLVALUE CALLDATACOPY ADDRESS CALLDATACOPY CALLDATALOAD 0x2C CALLDATASIZE 0x2E CALLVALUE CALLDATASIZE CALLDATALOAD CALLVALUE CODESIZE KECCAK256 ADDRESS 0x2E CALLDATACOPY CALLVALUE CALLDATACOPY CALLVALUE ORIGIN 0x2C CODESIZE 0x2E ORIGIN CALLVALUE CODESIZE ADDRESS CALLVALUE KECCAK256 0x2D ADDRESS 0x2E CALLDATACOPY CALLER BALANCE CALLDATASIZE CODESIZE 0x2C BALANCE ORIGIN 0x2E CALLDATASIZE CODESIZE CALLDATASIZE BALANCE CODECOPY KECCAK256 0x2D CALLDATALOAD 0x2E CODESIZE ADDRESS CALLDATASIZE CALLDATALOAD CALLDATASIZE 0x2C BALANCE CALLDATACOPY 0x2E CALLVALUE ORIGIN CALLER ADDRESS CALLVALUE KECCAK256 0x2D BALANCE 0x2E CODECOPY ORIGIN BALANCE CALLER CALLDATALOAD 0x2C BALANCE 0x2E CALLDATACOPY CODECOPY CALLER CALLER CODESIZE KECCAK256 0x2D ORIGIN 0x2E CALLDATALOAD CODECOPY CALLDATACOPY CALLER ORIGIN 0x2C CALLER 0x2E CALLVALUE BALANCE CODECOPY CODECOPY CODESIZE KECCAK256 0x2D ORIGIN 0x2E CALLDATALOAD CODECOPY CALLDATACOPY CALLER ORIGIN 0x2C CALLDATASIZE 0x2E ORIGIN CALLDATALOAD KECCAK256 ADDRESS 0x2C CALLDATASIZE 0x2E ADDRESS ADDRESS ADDRESS BALANCE CODESIZE KECCAK256 CALLER 0x2E CALLER CALLVALUE CODESIZE CODESIZE ORIGIN 0x2C CALLDATALOAD 0x2E ORIGIN CALLDATALOAD CALLER BALANCE CODESIZE KECCAK256 BALANCE ORIGIN 0x2E ORIGIN ADDRESS CALLER CODECOPY CALLDATASIZE 0x2C 0x2D ORIGIN 0x2E CALLDATACOPY ORIGIN ORIGIN ORIGIN CALLDATALOAD KECCAK256 CALLER 0x2E CODECOPY CODECOPY CODESIZE CALLDATASIZE 0x2C 0x2D CALLER 0x2E CALLDATASIZE ADDRESS BALANCE CALLER CALLDATASIZE KECCAK256 CALLDATACOPY 0x2E CALLDATASIZE CALLER CALLDATALOAD CODESIZE CALLDATACOPY 0x2C 0x2D CALLDATACOPY 0x2E ORIGIN ADDRESS BALANCE CALLER CALLDATASIZE KECCAK256 CODESIZE 0x2E ADDRESS CODESIZE ORIGIN CODESIZE 0x2C 0x2D CODESIZE KECCAK256 ORIGIN 0x2E ADDRESS CODECOPY CODESIZE CODECOPY CODESIZE 0x2C 0x2D CALLER 0x2E CALLDATACOPY CALLDATALOAD ADDRESS CALLDATASIZE CALLDATASIZE KECCAK256 CALLDATALOAD 0x2E CALLDATASIZE CALLVALUE CALLDATACOPY ORIGIN CALLVALUE 0x2C BALANCE 0x2E ADDRESS ORIGIN CODECOPY CODESIZE BALANCE KECCAK256 CALLVALUE 0x2E BALANCE CODESIZE CALLVALUE CALLDATASIZE CODECOPY 0x2C CALLDATALOAD 0x2E CALLDATASIZE CALLER CALLDATACOPY CODECOPY BALANCE KECCAK256 0x2D ADDRESS 0x2E CODESIZE CALLDATACOPY ADDRESS CODECOPY CALLDATALOAD 0x2C ORIGIN 0x2E CALLDATACOPY CALLVALUE CALLVALUE BALANCE BALANCE KECCAK256 ORIGIN 0x2E BALANCE BALANCE CODECOPY CALLVALUE CALLER 0x2C CALLER 0x2E CALLDATALOAD CODECOPY ADDRESS ORIGIN CALLDATALOAD KECCAK256 CALLVALUE 0x2E CALLDATASIZE CALLER CALLDATASIZE CODESIZE CALLDATALOAD 0x2C BALANCE 0x2E CALLER BALANCE ORIGIN ADDRESS ORIGIN KECCAK256 BALANCE 0x2E CODECOPY BALANCE BALANCE CALLDATALOAD CALLDATALOAD 0x2C 0x2D BALANCE 0x2E CALLDATACOPY ORIGIN CODECOPY CODECOPY CALLER KECCAK256 ORIGIN 0x2E ADDRESS BALANCE CALLDATACOPY CALLDATALOAD CALLDATASIZE 0x2C 0x2D ORIGIN 0x2E CODESIZE CALLER CALLVALUE ORIGIN ORIGIN KECCAK256 BALANCE 0x2E CALLDATACOPY CALLDATASIZE CALLER CALLDATASIZE CALLVALUE 0x2C 0x2D BALANCE CODESIZE 0x2E CALLER CALLDATACOPY BALANCE ORIGIN CODESIZE KECCAK256 0x2D ADDRESS 0x2E ORIGIN CALLVALUE ADDRESS CALLDATALOAD CALLDATALOAD 0x2C 0x2D BALANCE CALLVALUE 0x2E CALLDATACOPY BALANCE CODECOPY ADDRESS BALANCE KECCAK256 0x2D ADDRESS 0x2E ADDRESS ORIGIN CALLDATACOPY 0x2C 0x2D BALANCE CALLDATACOPY 0x2E CALLER BALANCE CALLDATASIZE CALLDATACOPY CODESIZE KECCAK256 BALANCE 0x2E CODECOPY CALLVALUE CODESIZE BALANCE CODESIZE 0x2C 0x2D ORIGIN CALLER 0x2E CALLDATACOPY ADDRESS CALLER BALANCE BALANCE KECCAK256 ORIGIN 0x2E CALLVALUE CODECOPY ORIGIN BALANCE CALLER 0x2C 0x2D CODESIZE 0x2E ADDRESS CALLDATALOAD CALLDATACOPY CALLDATALOAD CODECOPY KECCAK256 CALLER 0x2E CODECOPY CALLDATALOAD CALLDATALOAD ORIGIN CALLDATASIZE 0x2C 0x2D BALANCE CODESIZE 0x2E CODECOPY CALLDATASIZE CODESIZE CALLDATALOAD ORIGIN KECCAK256 CALLVALUE 0x2E CALLDATALOAD CALLDATALOAD CALLDATALOAD CALLER BALANCE 0x2C 0x2D CALLER CALLER 0x2E CODECOPY CALLDATACOPY ADDRESS ADDRESS ORIGIN KECCAK256 ADDRESS 0x2E CALLER CALLVALUE CALLDATACOPY CALLDATACOPY ORIGIN 0x2C 0x2D CODESIZE 0x2E CALLDATASIZE CODECOPY ORIGIN CODECOPY CALLDATASIZE KECCAK256 ADDRESS 0x2E BALANCE CALLER CALLDATASIZE CALLVALUE CALLDATALOAD 0x2C 0x2D BALANCE ADDRESS 0x2E CALLDATALOAD CALLDATALOAD ADDRESS CALLDATACOPY CODECOPY KECCAK256 0x2D BALANCE 0x2E CALLVALUE CALLDATACOPY CODESIZE ORIGIN CODESIZE 0x2C 0x2D BALANCE CALLER KECCAK256 0x2D BALANCE 0x2E ADDRESS CALLER CALLDATASIZE BALANCE CODESIZE 0x2C 0x2D BALANCE 0x2E CALLDATALOAD CALLDATACOPY BALANCE CALLDATASIZE CALLDATACOPY KECCAK256 0x2D BALANCE 0x2E CODESIZE CODESIZE CALLDATASIZE CODECOPY CALLVALUE 0x2C 0x2D ORIGIN 0x2E CALLVALUE CALLDATALOAD ADDRESS CALLER CALLVALUE KECCAK256 0x2D BALANCE 0x2E CODESIZE CODECOPY ADDRESS CALLDATALOAD CALLDATASIZE 0x2C 0x2D BALANCE 0x2E CODECOPY CALLDATALOAD ORIGIN CALLDATALOAD CODECOPY KECCAK256 0x2D ADDRESS 0x2E ADDRESS ADDRESS CALLVALUE 0x2C ADDRESS 0x2E CALLVALUE CODECOPY CALLDATACOPY CALLDATACOPY CALLVALUE KECCAK256 0x2D ADDRESS 0x2E CALLDATACOPY CODECOPY CALLVALUE ADDRESS CODECOPY 0x2C ADDRESS 0x2E ORIGIN ORIGIN ADDRESS CALLDATASIZE CODESIZE KECCAK256 0x2D BALANCE 0x2E CALLDATACOPY CALLDATALOAD CALLDATASIZE CALLDATALOAD CODECOPY 0x2C 0x2D ADDRESS 0x2E CALLDATASIZE BALANCE CALLDATALOAD CALLDATASIZE CODECOPY KECCAK256 0x2D ADDRESS 0x2E CODECOPY CALLDATASIZE ORIGIN CALLDATALOAD 0x2C 0x2D ADDRESS 0x2E CODESIZE CALLER CALLDATASIZE CALLER CODESIZE KECCAK256 0x2D ORIGIN 0x2E CODECOPY CALLDATASIZE CODECOPY CALLDATALOAD CALLDATACOPY 0x2C 0x2D BALANCE 0x2E CODESIZE BALANCE ADDRESS BALANCE CODECOPY KECCAK256 0x2D CALLVALUE 0x2E CALLVALUE CALLDATASIZE ADDRESS BALANCE CALLDATALOAD 0x2C 0x2D ORIGIN 0x2E BALANCE CALLDATASIZE CALLVALUE ADDRESS CALLVALUE KECCAK256 0x2D BALANCE 0x2E CALLVALUE CODECOPY ADDRESS CALLDATALOAD CODESIZE 0x2C 0x2D ADDRESS 0x2E CALLER CALLDATALOAD CALLER CODESIZE CALLDATALOAD KECCAK256 0x2D CALLVALUE 0x2E BALANCE CALLDATALOAD CALLER CALLVALUE 0x2C 0x2D ORIGIN 0x2E CALLVALUE CALLER CODECOPY ORIGIN CODECOPY KECCAK256 0x2D CALLDATALOAD 0x2E CODECOPY BALANCE CALLDATACOPY CALLER CALLDATASIZE 0x2C 0x2D CALLVALUE 0x2E CALLDATASIZE CALLER CALLVALUE CALLER BALANCE KECCAK256 0x2D BALANCE 0x2E CALLDATACOPY CALLDATASIZE CALLER CODECOPY CALLDATACOPY 0x2C 0x2D ORIGIN 0x2E BALANCE CODECOPY CALLDATALOAD ADDRESS ORIGIN KECCAK256 0x2D CALLER 0x2E CALLDATALOAD CODESIZE BALANCE CODECOPY BALANCE 0x2C 0x2D CALLER 0x2E CODECOPY CODECOPY ADDRESS CODECOPY CALLDATALOAD KECCAK256 0x2D CALLVALUE 0x2E ADDRESS CALLER CODECOPY CODESIZE CALLDATALOAD 0x2C 0x2D CALLER 0x2E CODECOPY CODECOPY ADDRESS CODECOPY CALLDATALOAD KECCAK256 0x2D ADDRESS 0x2E CALLVALUE CALLDATALOAD CALLDATACOPY CODECOPY CALLDATALOAD 0x2C ADDRESS KECCAK256 0x2D ADDRESS 0x2E CODESIZE CALLDATACOPY CALLDATACOPY CALLDATALOAD 0x2C CALLER 0x2E CALLDATACOPY BALANCE ORIGIN CALLDATALOAD KECCAK256 0x2D ADDRESS 0x2E CODECOPY CALLER ORIGIN CALLER ORIGIN 0x2C CODESIZE 0x2E ORIGIN CALLDATALOAD KECCAK256 0x2D ADDRESS 0x2E ADDRESS CALLDATALOAD CALLVALUE CODESIZE 0x2C CALLVALUE 0x2E CALLDATALOAD CALLER CALLDATACOPY CALLDATALOAD KECCAK256 0x2D ADDRESS 0x2E CALLVALUE ORIGIN CALLDATASIZE CODECOPY CALLDATASIZE 0x2C CODECOPY 0x2E CALLER CALLDATACOPY CALLDATALOAD KECCAK256 0x2D ADDRESS 0x2E CODESIZE ORIGIN CALLDATASIZE CODECOPY CALLDATASIZE 0x2C BALANCE ADDRESS 0x2E CALLDATACOPY CALLDATALOAD KECCAK256 0x2D ADDRESS 0x2E CALLDATALOAD CALLVALUE CALLDATACOPY BALANCE CALLDATALOAD 0x2C BALANCE 0x2E CODESIZE CODESIZE ADDRESS CODESIZE KECCAK256 0x2D ADDRESS 0x2E BALANCE ORIGIN CODECOPY CALLER CODESIZE 0x2C CALLER 0x2E ORIGIN ORIGIN CALLDATALOAD CALLDATACOPY CALLDATALOAD KECCAK256 BALANCE 0x2E CALLDATASIZE CODESIZE CALLDATASIZE CALLDATACOPY CALLER 0x2C CALLDATALOAD 0x2E CALLVALUE CALLER ADDRESS BALANCE CODESIZE KECCAK256 BALANCE 0x2E CALLDATASIZE CALLDATACOPY CALLDATALOAD CODECOPY 0x2C ORIGIN 0x2E ADDRESS CALLER CALLVALUE ORIGIN CALLDATALOAD KECCAK256 ORIGIN 0x2E ORIGIN CALLDATALOAD CALLDATASIZE BALANCE ORIGIN 0x2C CALLER 0x2E CALLDATACOPY BALANCE CALLDATALOAD CODECOPY CALLVALUE KECCAK256 BALANCE 0x2E CODESIZE CODECOPY CALLDATACOPY CALLDATASIZE BALANCE 0x2C CALLDATALOAD 0x2E CALLDATALOAD KECCAK256 0x2D BALANCE 0x2E ORIGIN CALLVALUE CALLDATALOAD ORIGIN CODECOPY 0x2C CALLDATASIZE 0x2E BALANCE CODECOPY CALLDATASIZE CODECOPY CALLDATASIZE KECCAK256 0x2D BALANCE 0x2E ORIGIN ADDRESS ORIGIN CALLDATACOPY BALANCE 0x2C CALLDATASIZE 0x2E CALLVALUE ORIGIN ADDRESS CALLER KECCAK256 BALANCE 0x2E CALLER CALLVALUE ORIGIN CALLER 0x2C CALLDATACOPY 0x2E ADDRESS CALLVALUE BALANCE CALLDATALOAD CALLDATALOAD KECCAK256 ORIGIN 0x2E CODESIZE CALLDATALOAD BALANCE CALLDATALOAD CALLDATASIZE 0x2C ADDRESS 0x2E CALLDATASIZE CODECOPY CALLDATASIZE ADDRESS CODESIZE KECCAK256 CALLER 0x2E CALLDATACOPY CALLER CALLER ADDRESS CALLDATACOPY 0x2C CALLER 0x2E CALLDATACOPY CODECOPY KECCAK256 ORIGIN 0x2E ADDRESS ADDRESS BALANCE CALLDATASIZE BALANCE 0x2C CALLDATACOPY 0x2E ADDRESS ORIGIN CALLDATALOAD ORIGIN CALLDATASIZE KECCAK256 0x2D ADDRESS 0x2E CALLDATASIZE BALANCE CODESIZE BALANCE CODESIZE 0x2C BALANCE 0x2E BALANCE CALLDATALOAD CALLDATALOAD ADDRESS CODECOPY KECCAK256 0x2D BALANCE 0x2E CALLDATALOAD ADDRESS CALLER CALLVALUE ORIGIN 0x2C CALLDATASIZE 0x2E CODESIZE CALLVALUE BALANCE ADDRESS BALANCE KECCAK256 0x2D BALANCE 0x2E CODECOPY CALLDATASIZE CALLDATACOPY ORIGIN 0x2C BALANCE ORIGIN 0x2E CALLDATASIZE CALLER CALLDATALOAD CALLER CODECOPY KECCAK256 0x2D ADDRESS 0x2E CALLDATACOPY BALANCE BALANCE CALLDATALOAD BALANCE 0x2C CODESIZE 0x2E CODESIZE CODESIZE CODECOPY CALLVALUE BALANCE KECCAK256 0x2D BALANCE 0x2E BALANCE CODECOPY CALLDATACOPY CODESIZE CALLVALUE 0x2C BALANCE ADDRESS 0x2E CODECOPY BALANCE ORIGIN CALLDATASIZE CODESIZE KECCAK256 0x2D CALLER 0x2E BALANCE BALANCE CALLER BALANCE CALLVALUE 0x2C BALANCE ORIGIN 0x2E CODECOPY CALLDATALOAD BALANCE CALLVALUE ORIGIN KECCAK256 0x2D BALANCE 0x2E ORIGIN CALLVALUE CODESIZE CALLVALUE CALLVALUE 0x2C BALANCE 0x2E CALLER ORIGIN CODESIZE CODECOPY BALANCE KECCAK256 0x2D ORIGIN 0x2E CODECOPY CALLDATACOPY CODESIZE CODECOPY CALLDATASIZE 0x2C ORIGIN 0x2E CALLVALUE ADDRESS BALANCE CODESIZE CODECOPY KECCAK256 0x2D CALLER 0x2E CODESIZE CALLVALUE CALLDATALOAD CALLDATALOAD CODESIZE 0x2C ORIGIN 0x2E CALLER CODESIZE CALLVALUE CALLVALUE KECCAK256 0x2D CALLER 0x2E CODECOPY CALLVALUE CODESIZE BALANCE 0x2C 0x2D ADDRESS 0x2E ADDRESS CALLDATACOPY CODECOPY CALLDATACOPY KECCAK256 0x2D CALLDATACOPY 0x2E ORIGIN ORIGIN ADDRESS ADDRESS CALLDATALOAD 0x2C 0x2D CALLDATALOAD 0x2E CODECOPY CALLDATASIZE CODESIZE ORIGIN KECCAK256 0x2D CALLER 0x2E CALLER BALANCE CALLDATASIZE ORIGIN CALLVALUE 0x2C 0x2D CALLDATALOAD 0x2E CODECOPY CALLDATASIZE CODESIZE ORIGIN KECCAK256 ORIGIN 0x2E CALLVALUE BALANCE CODESIZE CODESIZE CODECOPY 0x2C ADDRESS KECCAK256 CALLVALUE 0x2E ADDRESS ORIGIN CODESIZE CALLDATACOPY 0x2C 0x2D ORIGIN 0x2E CODECOPY ORIGIN ORIGIN CALLER KECCAK256 CALLVALUE 0x2E CALLDATACOPY CODECOPY CALLDATALOAD CODECOPY CALLDATALOAD 0x2C 0x2D CODESIZE 0x2E CALLDATACOPY ADDRESS CALLDATASIZE BALANCE CALLER KECCAK256 ADDRESS 0x2E CALLDATALOAD ADDRESS CALLDATASIZE CODESIZE CODECOPY 0x2C 0x2D CALLER 0x2E CODESIZE ORIGIN BALANCE ADDRESS CALLDATASIZE KECCAK256 ADDRESS 0x2E ORIGIN CODECOPY CODECOPY CALLDATACOPY CODESIZE 0x2C 0x2D CALLDATALOAD 0x2E BALANCE CALLDATASIZE CODECOPY BALANCE CALLDATACOPY KECCAK256 0x2D ADDRESS 0x2E CODECOPY CALLDATALOAD CALLER CODECOPY CODESIZE 0x2C 0x2D CALLDATASIZE 0x2E ORIGIN ADDRESS CODECOPY CALLDATACOPY KECCAK256 0x2D ADDRESS 0x2E CODESIZE CODESIZE ADDRESS CALLDATACOPY CODESIZE 0x2C 0x2D ADDRESS 0x2E CALLDATACOPY CALLER ADDRESS CODECOPY CODESIZE KECCAK256 0x2D BALANCE 0x2E CALLDATASIZE ADDRESS BALANCE CALLVALUE ORIGIN 0x2C 0x2D BALANCE 0x2E CODESIZE CALLDATACOPY CALLDATASIZE CALLDATACOPY CALLER KECCAK256 0x2D BALANCE 0x2E CALLDATASIZE ADDRESS BALANCE CALLVALUE ORIGIN 0x2C 0x2D ORIGIN 0x2E CALLDATALOAD CALLVALUE CALLDATASIZE BALANCE KECCAK256 ADDRESS 0x2C 0x2D ADDRESS 0x2E CALLDATASIZE CALLDATASIZE CODECOPY CALLER CALLDATACOPY KECCAK256 0x2D BALANCE 0x2E BALANCE ORIGIN CALLDATALOAD 0x2C 0x2D BALANCE 0x2E CALLDATACOPY ORIGIN CODECOPY CALLDATASIZE ORIGIN KECCAK256 0x2D ORIGIN 0x2E CALLDATALOAD 0x2C 0x2D ORIGIN 0x2E CALLER CALLDATALOAD CALLDATASIZE BALANCE ORIGIN KECCAK256 0x2D BALANCE 0x2E CALLER CALLDATACOPY CALLDATALOAD 0x2C 0x2D ADDRESS 0x2E CALLDATASIZE ORIGIN CALLDATASIZE CALLVALUE CODECOPY KECCAK256 0x2D ORIGIN 0x2E CALLDATALOAD 0x2C 0x2D BALANCE 0x2E CALLDATASIZE CODESIZE ORIGIN ORIGIN ORIGIN KECCAK256 0x2D ORIGIN 0x2E CALLDATALOAD 0x2C 0x2D ORIGIN 0x2E CALLER CALLVALUE CALLDATASIZE ADDRESS CALLDATASIZE KECCAK256 ADDRESS 0x2C 0x2D BALANCE 0x2E CALLDATASIZE CODECOPY ADDRESS CODECOPY CALLDATACOPY KECCAK256 0x2D CALLVALUE 0x2E ADDRESS CALLDATASIZE CALLDATALOAD CALLVALUE CALLER 0x2C 0x2D CALLDATALOAD 0x2E CODESIZE CALLER CALLDATALOAD CODESIZE CODECOPY KECCAK256 0x2D CALLDATALOAD 0x2E CALLDATACOPY ORIGIN CALLER CODECOPY CALLDATACOPY 0x2C 0x2D CALLDATALOAD 0x2E CODESIZE CALLER CALLDATALOAD CODESIZE CODECOPY KECCAK256 0x2D ADDRESS 0x2E CALLDATACOPY CALLDATALOAD CALLDATASIZE CALLVALUE CALLVALUE 0x2C ADDRESS KECCAK256 0x2D ORIGIN 0x2E CALLDATACOPY CALLVALUE CALLDATASIZE CALLDATALOAD CALLDATACOPY 0x2C ADDRESS 0x2E CALLDATACOPY ADDRESS CODECOPY ADDRESS CODECOPY KECCAK256 0x2D CALLVALUE 0x2E CALLVALUE ORIGIN ORIGIN CALLDATALOAD BALANCE 0x2C BALANCE 0x2E CALLDATALOAD CALLDATACOPY CALLDATALOAD CALLDATACOPY CALLDATALOAD KECCAK256 0x2D ORIGIN 0x2E CALLVALUE CALLVALUE BALANCE CODECOPY CALLDATASIZE 0x2C BALANCE 0x2E ORIGIN CALLDATASIZE ORIGIN CALLDATACOPY CODESIZE KECCAK256 0x2D ORIGIN 0x2E CODECOPY BALANCE CALLVALUE ORIGIN CALLVALUE 0x2C ORIGIN 0x2E ADDRESS ADDRESS CALLDATACOPY CALLDATALOAD CODESIZE KECCAK256 0x2D ORIGIN 0x2E CALLER CALLDATACOPY CALLDATACOPY CODECOPY ORIGIN 0x2C CALLER 0x2E CALLDATACOPY CALLDATALOAD KECCAK256 ADDRESS 0x2E CALLER CALLDATASIZE CODESIZE ADDRESS CODECOPY 0x2C BALANCE 0x2E BALANCE CODECOPY CALLDATALOAD CODESIZE CALLVALUE KECCAK256 BALANCE 0x2E CALLDATASIZE CALLDATALOAD BALANCE ORIGIN CALLVALUE 0x2C CALLDATALOAD 0x2E CALLDATACOPY CALLDATACOPY CALLVALUE ORIGIN CALLDATALOAD KECCAK256 ORIGIN 0x2E CODESIZE CALLDATALOAD BALANCE CALLVALUE CALLDATALOAD 0x2C BALANCE ADDRESS 0x2E BALANCE CALLDATACOPY CALLVALUE ORIGIN CALLDATALOAD KECCAK256 BALANCE 0x2E ORIGIN ADDRESS ADDRESS ORIGIN BALANCE 0x2C CALLVALUE 0x2E CALLVALUE KECCAK256 ORIGIN 0x2E CODECOPY CALLDATASIZE CALLDATACOPY CALLDATASIZE ORIGIN 0x2C CODECOPY 0x2E BALANCE BALANCE ORIGIN CALLDATASIZE CALLER KECCAK256 CALLER 0x2E CODECOPY ORIGIN CALLDATACOPY CALLDATALOAD CODESIZE 0x2C BALANCE ADDRESS 0x2E CALLVALUE CALLDATACOPY ORIGIN CALLDATALOAD BALANCE KECCAK256 ORIGIN 0x2E CALLER CODECOPY CALLDATACOPY CODESIZE CODESIZE 0x2C CALLER 0x2E CALLER CODECOPY CALLDATASIZE CODESIZE CALLDATALOAD KECCAK256 ORIGIN 0x2E BALANCE CODESIZE CALLDATASIZE CALLDATACOPY CALLDATACOPY 0x2C CALLDATASIZE 0x2E ORIGIN CALLDATASIZE CALLVALUE BALANCE CODECOPY KECCAK256 0x2D ADDRESS 0x2E CALLDATASIZE CALLDATALOAD CALLDATACOPY CODECOPY CODESIZE 0x2C CODESIZE 0x2E CODECOPY CALLER CALLDATASIZE CALLDATASIZE CODECOPY KECCAK256 0x2D CALLER 0x2E CALLDATASIZE CALLER CALLDATASIZE CALLDATASIZE CALLDATACOPY 0x2C CALLER 0x2E CALLVALUE BALANCE CALLDATASIZE CALLVALUE CODESIZE KECCAK256 0x2D CODECOPY 0x2E ORIGIN BALANCE CALLDATACOPY CODECOPY CALLDATALOAD 0x2C CALLVALUE 0x2E CALLER CALLDATALOAD CODECOPY ORIGIN ORIGIN KECCAK256 0x2D BALANCE CALLVALUE 0x2E CALLER CALLVALUE CALLDATASIZE CALLDATASIZE CALLDATALOAD 0x2C ORIGIN 0x2E CALLVALUE ORIGIN CALLER CALLER BALANCE KECCAK256 0x2D ORIGIN 0x2E CALLER CALLER CALLDATACOPY CALLDATALOAD 0x2C 0x2D ADDRESS 0x2E CODESIZE CODESIZE ORIGIN CALLER ORIGIN KECCAK256 0x2D CALLVALUE 0x2E ORIGIN CALLDATALOAD 0x2C 0x2D ORIGIN 0x2E BALANCE CALLVALUE CALLDATALOAD ADDRESS CALLDATACOPY KECCAK256 0x2D CALLVALUE 0x2E ORIGIN CALLDATALOAD 0x2C 0x2D ORIGIN 0x2E CODESIZE ADDRESS CALLDATASIZE BALANCE KECCAK256 ADDRESS 0x2C 0x2D BALANCE 0x2E CALLDATASIZE CALLDATASIZE BALANCE CALLDATALOAD CALLDATACOPY KECCAK256 BALANCE ADDRESS 0x2E CALLVALUE CODECOPY CALLDATALOAD CODECOPY CODECOPY 0x2C 0x2D CALLDATASIZE 0x2E CALLDATASIZE CALLDATALOAD CALLDATACOPY ADDRESS CALLDATALOAD KECCAK256 BALANCE ORIGIN 0x2E CALLVALUE ORIGIN CODESIZE CALLDATACOPY CALLDATACOPY 0x2C 0x2D CALLDATALOAD 0x2E CODECOPY BALANCE CALLDATALOAD CALLER CALLDATACOPY KECCAK256 ORIGIN 0x2E ADDRESS CODESIZE CALLER CALLER CALLVALUE 0x2C ADDRESS 0x2E CALLDATACOPY CODECOPY CODECOPY CALLVALUE CALLDATALOAD KECCAK256 ORIGIN 0x2E ADDRESS CALLDATACOPY CODECOPY CALLDATASIZE BALANCE 0x2C 0x2D BALANCE 0x2E CODECOPY CALLVALUE CALLVALUE ORIGIN CALLER KECCAK256 0x2D ADDRESS 0x2E ADDRESS ADDRESS CALLDATALOAD 0x2C 0x2D CALLER 0x2E CALLDATASIZE CALLDATACOPY CALLVALUE ORIGIN CODECOPY KECCAK256 0x2D BALANCE 0x2E ORIGIN CODECOPY CODECOPY CODECOPY CALLVALUE 0x2C 0x2D BALANCE 0x2E ADDRESS CALLDATACOPY CODESIZE CODESIZE CALLDATASIZE KECCAK256 0x2D BALANCE 0x2E CALLDATACOPY ORIGIN ADDRESS CALLVALUE CODESIZE 0x2C 0x2D BALANCE 0x2E ADDRESS CALLDATACOPY CALLVALUE CALLDATACOPY BALANCE KECCAK256 0x2D ORIGIN 0x2E CALLER CODECOPY CODECOPY CALLER ORIGIN 0x2C ADDRESS 0x2E ADDRESS ORIGIN CALLER CALLDATACOPY KECCAK256 0x2D ADDRESS 0x2E CALLDATASIZE CALLER CODESIZE ADDRESS BALANCE 0x2C BALANCE 0x2E ADDRESS CALLER ORIGIN CALLER BALANCE KECCAK256 0x2D BALANCE 0x2E CALLVALUE ADDRESS CALLDATACOPY CODECOPY CALLDATACOPY 0x2C ADDRESS 0x2E CALLDATACOPY CALLVALUE CALLDATASIZE CODECOPY CALLDATACOPY KECCAK256 0x2D CALLER 0x2E CALLVALUE ORIGIN CALLER CALLDATACOPY CODECOPY 0x2C 0x2D BALANCE 0x2E ORIGIN CALLDATASIZE CODESIZE CODESIZE CALLDATALOAD KECCAK256 0x2D ORIGIN 0x2E CALLER CODESIZE CALLER ORIGIN BALANCE 0x2C 0x2D ORIGIN 0x2E CALLER CODESIZE CALLER ORIGIN CALLVALUE KECCAK256 0x2D ORIGIN 0x2E CALLDATASIZE ADDRESS ADDRESS CALLDATASIZE CALLDATASIZE 0x2C 0x2D CALLER 0x2E ORIGIN CODECOPY CALLVALUE CODESIZE CALLDATALOAD KECCAK256 0x2D ORIGIN 0x2E CALLDATASIZE ADDRESS ADDRESS CALLDATASIZE CALLDATASIZE 0x2C 0x2D BALANCE ADDRESS 0x2E CODECOPY ADDRESS ORIGIN CALLDATACOPY CALLDATALOAD KECCAK256 ADDRESS 0x2C 0x2D CALLVALUE 0x2E CALLDATALOAD CALLDATASIZE CALLDATASIZE BALANCE CALLER KECCAK256 ADDRESS 0x2E CALLVALUE ORIGIN CALLVALUE CALLDATALOAD BALANCE 0x2C 0x2D CODECOPY 0x2E CALLDATACOPY CODESIZE ORIGIN ORIGIN ORIGIN KECCAK256 ADDRESS 0x2E CODECOPY CALLVALUE CALLER CALLER CALLDATALOAD 0x2C 0x2D BALANCE BALANCE 0x2E CALLDATALOAD CODECOPY BALANCE CALLER ORIGIN KECCAK256 BALANCE 0x2E CALLVALUE ADDRESS BALANCE ADDRESS ORIGIN 0x2C 0x2D CALLVALUE 0x2E CODESIZE CODESIZE CALLDATALOAD ADDRESS CODESIZE KECCAK256 CALLDATASIZE 0x2E CALLDATALOAD CALLDATACOPY CODECOPY CODESIZE ORIGIN 0x2C 0x2D CODECOPY 0x2E BALANCE ADDRESS BALANCE ADDRESS ORIGIN KECCAK256 BALANCE CALLVALUE 0x2E CALLVALUE CALLDATALOAD ADDRESS CALLDATALOAD CODECOPY 0x2C 0x2D BALANCE BALANCE 0x2E CALLDATACOPY CALLDATASIZE CALLER CODESIZE CODECOPY KECCAK256 CODECOPY 0x2E CODESIZE CALLER ADDRESS ADDRESS CALLDATALOAD 0x2C 0x2D CALLER 0x2E CALLER ORIGIN CALLDATALOAD CALLDATACOPY CALLDATALOAD KECCAK256 BALANCE ADDRESS 0x2E ORIGIN CODECOPY CODECOPY BALANCE CALLER 0x2C 0x2D CALLER 0x2E CODECOPY CALLDATASIZE CALLDATALOAD CALLER ORIGIN KECCAK256 CALLDATACOPY 0x2E CODESIZE ADDRESS ORIGIN CALLVALUE ORIGIN 0x2C 0x2D BALANCE ADDRESS 0x2E CALLDATASIZE CALLER CODESIZE CALLER CALLDATACOPY KECCAK256 0x2D BALANCE 0x2E CALLER CALLVALUE ORIGIN CALLDATASIZE BALANCE 0x2C 0x2D CALLER 0x2E CALLDATALOAD CODESIZE CODESIZE CALLVALUE CALLER KECCAK256 0x2D ORIGIN 0x2E BALANCE ORIGIN ADDRESS CALLVALUE BALANCE 0x2C 0x2D CODESIZE 0x2E CALLVALUE ORIGIN CALLVALUE CODECOPY CALLDATALOAD KECCAK256 0x2D ORIGIN 0x2E CALLER ADDRESS CODESIZE CALLER CALLER 0x2C 0x2D BALANCE CALLVALUE 0x2E CALLER CALLDATALOAD CALLER CALLDATASIZE CALLDATALOAD KECCAK256 0x2D ADDRESS 0x2E BALANCE CALLDATALOAD CALLDATALOAD CODESIZE CODECOPY 0x2C 0x2D CALLVALUE 0x2E CODECOPY BALANCE CALLDATACOPY CODESIZE CODECOPY KECCAK256 0x2D ADDRESS 0x2E CALLDATACOPY CALLER CODESIZE CALLVALUE CALLDATACOPY 0x2C 0x2D CODECOPY 0x2E CALLDATALOAD CALLDATALOAD BALANCE KECCAK256 0x2D BALANCE 0x2E ORIGIN CODECOPY CALLVALUE CALLDATASIZE CALLER 0x2C 0x2D BALANCE ADDRESS 0x2E ORIGIN CODECOPY CALLDATALOAD CODESIZE KECCAK256 0x2D ORIGIN 0x2E BALANCE ADDRESS ORIGIN CODESIZE ORIGIN 0x2C 0x2D ORIGIN 0x2E CODESIZE BALANCE CALLDATASIZE ADDRESS CALLER KECCAK256 0x2D CALLDATALOAD 0x2E CODESIZE BALANCE ORIGIN CODESIZE CALLDATASIZE 0x2C 0x2D CALLER 0x2E ORIGIN CALLDATALOAD CALLDATALOAD BALANCE CALLDATALOAD KECCAK256 0x2D BALANCE CALLDATACOPY 0x2E ADDRESS CALLDATASIZE CODECOPY CALLDATACOPY CALLDATASIZE 0x2C 0x2D ORIGIN 0x2E ADDRESS ORIGIN ADDRESS CALLER CALLDATACOPY KECCAK256 0x2D CODESIZE 0x2E CALLDATALOAD CALLVALUE CALLDATACOPY CALLER CALLVALUE 0x2C ADDRESS 0x2E CODECOPY CALLER CALLDATACOPY CALLDATALOAD CALLDATACOPY KECCAK256 0x2D BALANCE ORIGIN 0x2E BALANCE CALLDATACOPY CALLDATALOAD CALLVALUE CALLVALUE 0x2C ADDRESS 0x2E CODECOPY CALLVALUE CALLDATACOPY CODESIZE CALLDATALOAD KECCAK256 0x2D BALANCE CALLDATALOAD 0x2E CALLDATACOPY CALLDATASIZE ORIGIN ORIGIN 0x2C ADDRESS 0x2E ADDRESS CALLVALUE CALLVALUE CALLDATACOPY KECCAK256 0x2D CALLER 0x2E CALLDATALOAD CALLER CALLDATASIZE ADDRESS CODESIZE 0x2C 0x2D ADDRESS 0x2E CODESIZE CODECOPY ADDRESS CALLER CODECOPY KECCAK256 0x2D CALLDATASIZE 0x2E CALLDATALOAD BALANCE CALLDATACOPY CALLVALUE CALLDATALOAD 0x2C 0x2D ADDRESS 0x2E CODESIZE CODECOPY CALLDATASIZE CODESIZE ORIGIN KECCAK256 0x2D BALANCE ORIGIN 0x2E CALLER CALLDATASIZE CALLDATACOPY CODECOPY CALLDATALOAD 0x2C 0x2D ADDRESS 0x2E ADDRESS ORIGIN CALLDATASIZE CALLDATACOPY KECCAK256 0x2D CODECOPY 0x2E ORIGIN CALLVALUE CALLDATACOPY CALLDATALOAD CALLDATALOAD 0x2C BALANCE 0x2E CALLER CALLDATACOPY CALLDATALOAD CALLVALUE KECCAK256 0x2D BALANCE CALLER 0x2E ORIGIN ADDRESS CALLDATACOPY CALLVALUE CALLVALUE 0x2C CALLVALUE 0x2E CALLER CALLDATASIZE CALLVALUE ADDRESS CALLVALUE KECCAK256 0x2D BALANCE CALLDATACOPY 0x2E CODESIZE CODECOPY CALLER CALLVALUE CODECOPY 0x2C BALANCE CALLER 0x2E CALLDATALOAD ADDRESS CALLVALUE CALLDATASIZE CODECOPY KECCAK256 0x2D ORIGIN 0x2E CALLDATASIZE BALANCE CALLVALUE CALLDATALOAD CODECOPY 0x2C CALLDATALOAD 0x2E BALANCE ADDRESS ADDRESS ADDRESS CALLVALUE KECCAK256 0x2D CALLER 0x2E ADDRESS CALLVALUE CALLVALUE CALLVALUE CODECOPY 0x2C CALLDATACOPY 0x2E BALANCE BALANCE CALLDATALOAD BALANCE CODECOPY KECCAK256 0x2D CALLER 0x2E CALLER CALLVALUE CALLDATASIZE CALLER CALLER 0x2C BALANCE CALLDATALOAD 0x2E CALLDATASIZE CODESIZE CALLDATALOAD CALLDATASIZE CALLDATALOAD KECCAK256 PUSH13 0x202D302E33343633322C392E38 CALLER CALLER CODESIZE ORIGIN KECCAK256 0x2D ORIGIN 0x2E CALLER CALLDATALOAD ORIGIN CALLDATACOPY CODECOPY 0x2C 0x2D ORIGIN 0x2E ORIGIN BALANCE ADDRESS CALLER CALLER KECCAK256 PUSH4 0x202D332E CALLDATALOAD CALLDATACOPY CODECOPY ADDRESS ORIGIN 0x2C 0x2D CALLER 0x2E CALLER CALLDATASIZE ORIGIN CALLER BALANCE KECCAK256 0x2D CALLDATALOAD 0x2E ADDRESS CODESIZE ADDRESS BALANCE CALLDATACOPY 0x2C 0x2D ORIGIN 0x2E ADDRESS ORIGIN ORIGIN CALLDATACOPY CALLER KECCAK256 0x2D CALLDATALOAD 0x2E CALLDATACOPY ORIGIN CALLDATACOPY 0x2C CALLDATALOAD 0x2E BALANCE BALANCE ADDRESS CALLDATALOAD CODECOPY KECCAK256 0x2D ADDRESS 0x2E CALLVALUE ADDRESS CALLER CALLDATACOPY 0x2C CALLVALUE 0x2E CALLVALUE CALLDATALOAD ORIGIN BALANCE BALANCE KECCAK256 0x2D ADDRESS 0x2E ADDRESS BALANCE CALLDATALOAD CALLDATALOAD 0x2C CODESIZE 0x2E CALLER CODECOPY CALLDATASIZE CALLVALUE KECCAK256 BALANCE 0x2E CALLER CALLDATALOAD CALLER BALANCE CALLDATASIZE 0x2C BALANCE CALLER 0x2E CALLDATACOPY CALLVALUE CALLDATACOPY CALLDATASIZE CODECOPY KECCAK256 BALANCE 0x2E ADDRESS CALLDATALOAD CALLDATALOAD CALLDATASIZE 0x2C CALLVALUE 0x2E BALANCE ORIGIN CALLDATACOPY CALLER CODECOPY KECCAK256 BALANCE 0x2E CODECOPY BALANCE CODECOPY ORIGIN CODESIZE 0x2C CODESIZE 0x2E CODECOPY ADDRESS CALLDATACOPY ORIGIN ORIGIN KECCAK256 BALANCE 0x2E CODECOPY BALANCE CODECOPY ORIGIN CODESIZE 0x2C BALANCE ADDRESS 0x2E CALLDATASIZE ORIGIN BALANCE CODESIZE CALLDATACOPY KECCAK256 ADDRESS 0x2C CALLVALUE 0x2E ADDRESS CODECOPY CODECOPY CODECOPY CALLDATASIZE KECCAK256 ORIGIN 0x2E CALLER CODESIZE ADDRESS CALLVALUE BALANCE 0x2C CALLDATACOPY 0x2E CALLER CALLDATALOAD CALLDATALOAD ORIGIN CALLDATACOPY KECCAK256 CALLDATALOAD 0x2E CALLDATASIZE CALLDATASIZE CALLDATALOAD ADDRESS CALLDATALOAD 0x2C CALLDATACOPY 0x2E CALLDATACOPY CALLVALUE CALLDATACOPY BALANCE CALLDATACOPY KECCAK256 ORIGIN 0x2E CALLVALUE ADDRESS CALLER ADDRESS CALLDATALOAD 0x2C ADDRESS 0x2E ORIGIN CODESIZE CALLDATASIZE CALLDATACOPY ORIGIN KECCAK256 ORIGIN 0x2E CODESIZE CALLDATALOAD CALLDATACOPY CODECOPY 0x2C BALANCE 0x2E ADDRESS CODESIZE CALLDATACOPY CALLDATASIZE CALLDATASIZE KECCAK256 CALLDATALOAD 0x2E ADDRESS ADDRESS CALLDATASIZE BALANCE ORIGIN 0x2C CODESIZE 0x2E CODESIZE BALANCE CALLDATALOAD CALLER CALLDATACOPY KECCAK256 BALANCE 0x2E CODECOPY BALANCE CODESIZE ADDRESS CALLDATASIZE 0x2C CALLDATASIZE 0x2E CODESIZE CODECOPY CODECOPY CALLDATACOPY ORIGIN KECCAK256 ORIGIN 0x2E CALLVALUE CALLDATASIZE BALANCE BALANCE BALANCE 0x2C BALANCE BALANCE 0x2E CALLDATACOPY CODECOPY CALLVALUE CALLDATACOPY KECCAK256 ORIGIN 0x2E CODESIZE CODESIZE CALLVALUE CALLVALUE CODECOPY 0x2C ORIGIN CALLDATASIZE KECCAK256 ADDRESS 0x2E CALLDATACOPY CALLER CODECOPY CODESIZE CALLDATACOPY 0x2C ORIGIN CALLVALUE 0x2E CODESIZE ORIGIN CALLVALUE CALLVALUE CALLDATACOPY KECCAK256 BALANCE 0x2E CALLDATALOAD ORIGIN CALLVALUE ADDRESS CALLVALUE 0x2C ORIGIN CALLDATACOPY 0x2E BALANCE ADDRESS CODECOPY CALLDATALOAD KECCAK256 BALANCE CALLVALUE 0x2E CALLDATASIZE CALLDATASIZE ADDRESS CALLDATACOPY CALLDATACOPY 0x2C CALLVALUE ORIGIN 0x2E CALLDATACOPY ORIGIN ADDRESS ORIGIN CODECOPY KECCAK256 CALLDATALOAD 0x2E CALLDATASIZE CALLDATALOAD CALLDATALOAD CODECOPY CALLDATASIZE 0x2C CALLDATASIZE 0x2E CALLDATACOPY ORIGIN BALANCE BALANCE CALLDATASIZE KECCAK256 BALANCE ORIGIN 0x2E CALLER ADDRESS CODESIZE CALLDATALOAD CALLDATACOPY 0x2C BALANCE CALLER 0x2E CALLDATASIZE CALLDATACOPY ORIGIN CODECOPY CODESIZE KECCAK256 BALANCE CALLVALUE 0x2E CALLDATACOPY CODESIZE CALLER CALLDATALOAD CALLDATACOPY 0x2C BALANCE CALLDATALOAD 0x2E CALLVALUE CALLVALUE CODESIZE CALLDATALOAD KECCAK256 ORIGIN 0x2E CALLVALUE CALLDATACOPY CALLDATALOAD 0x2C BALANCE 0x2E CALLDATACOPY CALLDATACOPY CALLDATALOAD CALLDATALOAD ORIGIN KECCAK256 CALLDATALOAD 0x2E CODECOPY CALLDATACOPY CODESIZE BALANCE CALLDATASIZE 0x2C CALLVALUE 0x2E CALLVALUE CODESIZE CODESIZE CODESIZE CODECOPY KECCAK256 CALLDATACOPY 0x2E CALLDATACOPY CODESIZE CALLVALUE CODESIZE 0x2C CALLDATASIZE 0x2E ADDRESS ORIGIN CODECOPY CALLDATACOPY BALANCE KECCAK256 BALANCE 0x2E CODESIZE ADDRESS CALLDATASIZE CALLDATASIZE CALLER 0x2C BALANCE 0x2E CALLDATALOAD CALLVALUE ADDRESS CODESIZE CALLER KECCAK256 CALLER 0x2E CALLDATALOAD CALLVALUE CALLDATACOPY CALLDATACOPY CALLDATACOPY 0x2C ORIGIN 0x2E CODESIZE ADDRESS BALANCE CALLDATALOAD KECCAK256 CALLER 0x2E CODESIZE CALLDATASIZE CODECOPY BALANCE CODECOPY 0x2C ORIGIN 0x2E CODESIZE ADDRESS BALANCE CALLDATALOAD KECCAK256 ADDRESS 0x2E CALLER ORIGIN BALANCE CALLVALUE BALANCE 0x2C ADDRESS KECCAK256 CALLER 0x2E ORIGIN CALLVALUE CODESIZE CODECOPY CODESIZE 0x2C 0x2D BALANCE 0x2E CALLDATASIZE BALANCE CODESIZE CALLDATASIZE CALLDATASIZE KECCAK256 CALLDATASIZE 0x2E CALLDATALOAD ADDRESS CALLDATALOAD CALLDATACOPY BALANCE 0x2C 0x2D CALLER 0x2E CALLDATALOAD CODECOPY CALLDATACOPY ADDRESS BALANCE KECCAK256 PUSH27 0x204D203136352E33333532342C3132392E30303730322063202D30 0x2E CODESIZE CODECOPY CODESIZE CALLVALUE CALLER 0x2C 0x2D BALANCE 0x2E ADDRESS CODESIZE ORIGIN CALLDATALOAD CALLDATALOAD KECCAK256 0x2D ORIGIN 0x2E ORIGIN CALLER ORIGIN CODECOPY CALLER 0x2C 0x2D BALANCE 0x2E CALLVALUE ADDRESS ORIGIN CODECOPY BALANCE KECCAK256 0x2D CALLVALUE 0x2E ORIGIN ADDRESS ORIGIN CODESIZE 0x2C 0x2D BALANCE 0x2E ADDRESS ADDRESS CODESIZE CODECOPY CALLER KECCAK256 0x2D ORIGIN 0x2E ADDRESS CALLVALUE BALANCE 0x2C ADDRESS 0x2E CALLVALUE ADDRESS CODESIZE ORIGIN KECCAK256 0x2D ORIGIN 0x2E CALLDATACOPY CALLDATASIZE CALLDATACOPY CODESIZE 0x2C ADDRESS 0x2E ORIGIN BALANCE CALLER CALLDATACOPY CODESIZE KECCAK256 0x2D ORIGIN 0x2E CALLVALUE CODESIZE BALANCE CALLDATALOAD CALLER 0x2C 0x2D ADDRESS 0x2E CALLDATASIZE CALLDATASIZE CALLER CODESIZE KECCAK256 ADDRESS 0x2E ORIGIN ORIGIN ORIGIN CALLDATASIZE CALLDATASIZE 0x2C 0x2D ADDRESS 0x2E CALLDATASIZE CODESIZE ORIGIN CALLDATALOAD CODECOPY KECCAK256 ORIGIN 0x2E CALLDATALOAD ADDRESS CODESIZE CODESIZE ORIGIN 0x2C 0x2D BALANCE 0x2E CALLDATASIZE CALLDATALOAD CALLER CODECOPY CODECOPY KECCAK256 CALLDATALOAD 0x2E ADDRESS CODESIZE ADDRESS CALLER CALLDATALOAD 0x2C 0x2D ORIGIN 0x2E BALANCE CALLDATALOAD CODESIZE CALLDATASIZE CALLDATACOPY KECCAK256 ORIGIN 0x2E CALLDATALOAD CALLDATACOPY BALANCE CALLDATALOAD CALLVALUE 0x2C 0x2D ADDRESS 0x2E CALLDATALOAD ADDRESS CALLVALUE CALLDATASIZE CODESIZE KECCAK256 CALLVALUE 0x2E CALLDATASIZE CALLDATACOPY CALLDATALOAD CALLDATALOAD ORIGIN 0x2C 0x2D BALANCE 0x2E ORIGIN CALLDATASIZE CALLER ADDRESS CALLDATALOAD KECCAK256 CALLVALUE 0x2E CALLDATASIZE CALLDATACOPY CALLDATALOAD CALLDATALOAD ORIGIN 0x2C 0x2D BALANCE 0x2E CALLDATASIZE CODESIZE CALLDATALOAD ORIGIN CALLDATACOPY KECCAK256 ADDRESS 0x2C 0x2D ADDRESS 0x2E CALLVALUE ORIGIN ORIGIN ORIGIN ORIGIN KECCAK256 0x2D BALANCE 0x2E CALLDATALOAD CALLDATACOPY CALLDATALOAD 0x2C 0x2D BALANCE 0x2E CALLER CALLER CALLDATACOPY ORIGIN KECCAK256 0x2D CALLER 0x2E CALLDATALOAD 0x2C 0x2D ORIGIN 0x2E ADDRESS CALLER CALLER ORIGIN CODECOPY KECCAK256 0x2D CALLDATALOAD 0x2E CALLDATASIZE ORIGIN CALLDATALOAD CALLDATACOPY CALLDATASIZE 0x2C 0x2D ORIGIN 0x2E ADDRESS CALLER CALLVALUE CALLER KECCAK256 0x2D CALLVALUE 0x2E ADDRESS CALLDATASIZE BALANCE CODESIZE CALLDATACOPY 0x2C 0x2D CALLER 0x2E BALANCE BALANCE ADDRESS CODESIZE BALANCE KECCAK256 CALLER 0x2E CODECOPY CALLER ORIGIN CALLDATACOPY 0x2C 0x2D ORIGIN 0x2E CALLDATACOPY ADDRESS CALLDATACOPY BALANCE BALANCE KECCAK256 CALLDATACOPY 0x2E CODECOPY CALLDATALOAD CALLER CALLDATACOPY CODESIZE 0x2C ADDRESS 0x2E CALLVALUE ADDRESS BALANCE CALLDATASIZE CALLDATALOAD KECCAK256 CODECOPY 0x2E CALLVALUE CODECOPY CALLER CODECOPY CALLDATASIZE 0x2C BALANCE 0x2E ADDRESS ORIGIN BALANCE CALLDATACOPY CODECOPY KECCAK256 CALLDATACOPY 0x2E CALLDATACOPY CALLDATALOAD BALANCE CALLDATASIZE CALLDATALOAD 0x2C CALLER 0x2E BALANCE ORIGIN BALANCE BALANCE CALLVALUE KECCAK256 0x2D ADDRESS 0x2E CALLDATASIZE ADDRESS CALLDATALOAD CALLER CALLDATASIZE 0x2C ADDRESS 0x2E CALLDATACOPY ORIGIN CODECOPY CALLVALUE BALANCE KECCAK256 0x2D ADDRESS 0x2E CODESIZE CODESIZE CALLDATACOPY CALLDATALOAD BALANCE 0x2C ORIGIN 0x2E ORIGIN ADDRESS ORIGIN CALLDATACOPY CODECOPY KECCAK256 0x2D ADDRESS 0x2E CALLDATASIZE ORIGIN CALLDATACOPY ADDRESS BALANCE 0x2C CALLER 0x2E ORIGIN CALLDATACOPY CALLVALUE BALANCE CALLDATACOPY KECCAK256 ADDRESS 0x2E CALLER CALLDATASIZE CALLER BALANCE CALLDATALOAD 0x2C BALANCE 0x2E CALLVALUE CODECOPY CALLER CALLDATALOAD KECCAK256 0x2D ADDRESS 0x2E CALLVALUE ORIGIN ORIGIN CODECOPY CALLDATALOAD 0x2C ORIGIN 0x2E CALLER CALLDATALOAD CALLDATASIZE ORIGIN CALLER KECCAK256 0x2D CALLER 0x2E CALLER CALLDATASIZE CODECOPY CALLVALUE CALLDATASIZE 0x2C CALLER 0x2E CALLDATASIZE CODECOPY CALLDATACOPY CODECOPY CALLDATASIZE KECCAK256 0x2D CALLVALUE 0x2E CALLDATACOPY ORIGIN CALLDATASIZE CALLVALUE 0x2C ORIGIN 0x2E BALANCE CALLDATALOAD ORIGIN ORIGIN ORIGIN KECCAK256 0x2D CALLDATALOAD 0x2E CALLDATALOAD CODECOPY ORIGIN CODECOPY CALLDATALOAD 0x2C ORIGIN 0x2E BALANCE CALLDATACOPY BALANCE CALLDATACOPY CALLDATACOPY KECCAK256 0x2D CALLDATACOPY 0x2E ORIGIN CALLDATALOAD CODECOPY CALLVALUE ORIGIN 0x2C ADDRESS 0x2E BALANCE CALLDATASIZE CALLER CODESIZE KECCAK256 PUSH27 0x206D2038312E32373238372C31362E36353337206320302E343031 CALLVALUE ORIGIN 0x2C 0x2D ORIGIN 0x2E CALLER CALLDATALOAD BALANCE CALLVALUE CALLER KECCAK256 BALANCE 0x2E ADDRESS ADDRESS ADDRESS CALLDATASIZE CALLDATACOPY 0x2C 0x2D CALLDATALOAD 0x2E BALANCE ORIGIN CODESIZE CALLDATALOAD CALLDATACOPY KECCAK256 BALANCE 0x2E CALLER CALLER BALANCE CALLDATASIZE CALLDATALOAD 0x2C 0x2D CALLDATASIZE 0x2E BALANCE CALLDATACOPY BALANCE CALLVALUE ORIGIN KECCAK256 ADDRESS 0x2E CALLDATACOPY CODECOPY CALLDATASIZE CALLDATACOPY CALLDATASIZE 0x2C 0x2D ORIGIN 0x2E CALLDATALOAD BALANCE ADDRESS CALLER CALLDATASIZE KECCAK256 0x2D CALLER 0x2E ADDRESS ADDRESS CODECOPY CALLDATALOAD 0x2C 0x2D ORIGIN 0x2E CALLDATASIZE CALLVALUE CODESIZE ADDRESS ORIGIN KECCAK256 0x2D CALLVALUE 0x2E ADDRESS CALLER CODECOPY CALLER BALANCE 0x2C 0x2D ADDRESS 0x2E BALANCE CALLVALUE CALLDATASIZE ADDRESS CODESIZE KECCAK256 0x2D ADDRESS 0x2E CODESIZE CODECOPY CALLDATASIZE CALLDATALOAD CALLVALUE 0x2C ORIGIN 0x2E BALANCE CALLDATACOPY CODESIZE BALANCE CALLDATASIZE KECCAK256 0x2D BALANCE 0x2E CALLVALUE CALLVALUE CALLVALUE CALLDATASIZE CODECOPY 0x2C CODECOPY 0x2E CALLVALUE CALLDATASIZE CODECOPY CODECOPY BALANCE KECCAK256 0x2D ADDRESS 0x2E CALLDATACOPY CODECOPY CALLER CALLER 0x2C BALANCE ADDRESS 0x2E CALLDATALOAD CALLDATALOAD ORIGIN CALLDATACOPY CODECOPY KECCAK256 BALANCE 0x2E BALANCE ADDRESS CALLER CALLDATACOPY CALLDATALOAD 0x2C BALANCE 0x2E CODESIZE CALLER CALLVALUE CODESIZE CALLDATACOPY KECCAK256 ORIGIN 0x2E CODESIZE BALANCE CODESIZE CODECOPY CALLER 0x2C 0x2D ADDRESS 0x2E ORIGIN CALLVALUE ADDRESS ADDRESS CALLDATASIZE KECCAK256 CALLER 0x2E CALLDATALOAD ADDRESS ADDRESS CODECOPY CALLDATASIZE 0x2C 0x2D CALLVALUE 0x2E ORIGIN CALLER CALLDATALOAD ORIGIN CODECOPY KECCAK256 PUSH27 0x206D202D32302E393336392C2D31332E3636353237206320302E33 ORIGIN CODESIZE CALLDATACOPY CALLDATACOPY 0x2C 0x2D ADDRESS 0x2E CALLER ORIGIN CODESIZE CALLDATACOPY CALLDATACOPY KECCAK256 ADDRESS 0x2E CALLER CALLDATALOAD CALLDATALOAD CALLDATASIZE CALLER 0x2C 0x2D BALANCE 0x2E ORIGIN ORIGIN CODESIZE CALLDATACOPY CALLDATACOPY KECCAK256 ADDRESS 0x2E ADDRESS CALLDATALOAD CODECOPY CALLDATACOPY 0x2C 0x2D ORIGIN KECCAK256 0x2D ADDRESS 0x2E CALLDATACOPY BALANCE ADDRESS CALLDATALOAD CALLDATASIZE 0x2C 0x2D BALANCE 0x2E CODESIZE CALLDATALOAD BALANCE CALLDATASIZE CODESIZE KECCAK256 0x2D CALLDATALOAD 0x2E CALLER ORIGIN CALLVALUE BALANCE BALANCE 0x2C 0x2D BALANCE 0x2E CODESIZE CALLER CODECOPY BALANCE CODESIZE KECCAK256 0x2D CALLDATALOAD 0x2E CALLER ORIGIN CALLVALUE BALANCE BALANCE 0x2C ADDRESS 0x2E ADDRESS BALANCE CALLVALUE CALLVALUE KECCAK256 ADDRESS 0x2C BALANCE 0x2E CODECOPY CALLVALUE CODESIZE ORIGIN CALLDATASIZE KECCAK256 CALLER 0x2E CODESIZE CALLVALUE CODECOPY CALLDATACOPY CALLVALUE 0x2C CALLER 0x2E CALLVALUE ADDRESS ADDRESS ORIGIN CALLDATALOAD KECCAK256 CALLDATALOAD 0x2E ORIGIN CALLDATASIZE CALLVALUE CALLVALUE CALLER 0x2C BALANCE 0x2E CODECOPY CODESIZE CALLDATALOAD CALLDATALOAD CALLDATASIZE KECCAK256 PUSH27 0x206D2032332E363937342C2D392E35313738392063202D312E3639 CALLDATACOPY CODESIZE CODESIZE 0x2C 0x2D CALLDATALOAD 0x2E BALANCE CALLVALUE CALLVALUE CALLDATASIZE ORIGIN KECCAK256 0x2D CALLER 0x2E CALLDATACOPY ORIGIN CODESIZE CODECOPY ORIGIN 0x2C 0x2D CALLDATALOAD 0x2E BALANCE BALANCE CODESIZE CALLDATACOPY CALLER KECCAK256 0x2D ORIGIN 0x2E CODECOPY CODECOPY CALLDATASIZE CODESIZE CALLDATASIZE 0x2C ADDRESS 0x2E ADDRESS CALLER CODESIZE ORIGIN KECCAK256 ADDRESS 0x2E ORIGIN CODECOPY CODESIZE ORIGIN CALLER 0x2C ORIGIN 0x2E BALANCE ADDRESS ADDRESS CODESIZE BALANCE KECCAK256 CALLER 0x2E CALLVALUE CALLDATACOPY CALLVALUE CALLER CALLDATASIZE 0x2C CALLDATASIZE 0x2E ADDRESS CALLDATALOAD CODECOPY ORIGIN CALLDATACOPY KECCAK256 CALLER 0x2E CODECOPY ADDRESS CALLDATASIZE CODECOPY ORIGIN 0x2C CALLVALUE 0x2E CODESIZE CALLDATASIZE CODECOPY ORIGIN CALLDATALOAD KECCAK256 ADDRESS 0x2E ORIGIN ADDRESS CALLVALUE CALLDATALOAD CALLVALUE 0x2C 0x2D ADDRESS 0x2E CALLDATALOAD CALLDATASIZE ORIGIN CALLDATACOPY BALANCE KECCAK256 0x2D ADDRESS 0x2E ORIGIN ADDRESS CALLVALUE CODECOPY CODECOPY 0x2C 0x2D ORIGIN 0x2E CALLDATACOPY CALLDATACOPY BALANCE ADDRESS CALLDATASIZE KECCAK256 0x2D ADDRESS 0x2E CODECOPY BALANCE ADDRESS ADDRESS CALLDATASIZE 0x2C 0x2D CALLVALUE 0x2E CODECOPY ADDRESS CALLDATACOPY CALLVALUE CALLVALUE KECCAK256 PUSH27 0x206D20322E30333831372C2D372E3338343334206320302C2D302E CODESIZE ORIGIN CALLDATALOAD KECCAK256 0x2D ADDRESS 0x2E CALLDATASIZE CALLDATACOPY CALLDATALOAD 0x2C 0x2D BALANCE 0x2E CALLDATALOAD KECCAK256 0x2D BALANCE 0x2E CALLDATALOAD 0x2C 0x2D BALANCE 0x2E CALLDATALOAD KECCAK256 0x2D ADDRESS 0x2E CODESIZE ORIGIN CALLDATALOAD 0x2C ADDRESS KECCAK256 0x2D BALANCE 0x2E CALLDATALOAD 0x2C ADDRESS 0x2E CALLDATASIZE CALLDATACOPY CALLDATALOAD KECCAK256 0x2D BALANCE 0x2E CALLDATALOAD 0x2C BALANCE 0x2E CALLDATALOAD KECCAK256 ADDRESS 0x2C ADDRESS 0x2E CODESIZE ORIGIN CALLDATALOAD KECCAK256 ADDRESS 0x2E CALLDATASIZE CALLDATACOPY CALLDATALOAD 0x2C BALANCE 0x2E CALLDATALOAD KECCAK256 BALANCE 0x2E CALLDATALOAD 0x2C BALANCE 0x2E CALLDATALOAD KECCAK256 ADDRESS 0x2E CODESIZE ORIGIN CALLDATALOAD 0x2C ADDRESS KECCAK256 BALANCE 0x2E CALLDATALOAD 0x2C 0x2D ADDRESS 0x2E CALLDATASIZE CALLDATACOPY CALLDATALOAD KECCAK256 BALANCE 0x2E CALLDATALOAD 0x2C 0x2D BALANCE 0x2E CALLDATALOAD KECCAK256 PUSH27 0x222066696C6C3D2223306633623836222F3E000000000000000000 "
				},
				"gasEstimates": {
					"creation": {
						"codeDepositCost": "111600",
						"executionCost": "infinite",
						"totalCost": "infinite"
					},
					"external": {
						"svg()": "infinite"
					}
				},
				"methodIdentifiers": {
					"svg()": "bd85f55f"
				}
			},
			"userdoc": {
				"kind": "user",
				"methods": {},
				"version": 1
			}
		}
	}
}