{
	"SVG-MVP_football_ERC1155/contracts/players.sol": {
		"HeinzLindner": {
			"abi": [
				{
					"inputs": [],
					"name": "svg",
					"outputs": [
						{
							"internalType": "string",
							"name": "",
							"type": "string"
						}
					],
					"stateMutability": "view",
					"type": "function"
				}
			],
			"devdoc": {
				"kind": "dev",
				"methods": {},
				"version": 1
			},
			"evm": {
				"assembly": "    /* \"SVG-MVP_football_ERC1155/contracts/players.sol\":19060:21719  contract HeinzLindner {... */\n  mstore(0x40, 0x80)\n    /* \"SVG-MVP_football_ERC1155/contracts/players.sol\":19086:21715  string public svg = '<path style=\"fill:#0f3b86\"      d=\"m 289.05073,408.39347 c 18.89484,-1.2292 0.6848,-28.19215 14.2826,-18.35132 6.95839,5.04094 7.02935,5.02964 9.95578,-1.58604 3.03967,-6.48754 3.72884,-5.40249 -1.257,-9.95636 -4.67331,-4.2684 -5.08579,-8.20802 -1.43866,-13.74063 1.94926,-2.95696 2.2465,-4.523 1.22188,-6.43752 -2.15573,-4.02801 -0.53557,-5.92537 9.28112,-10.86897 5.75178,-2.89655 11.2875,-6.99436 14.72651,-10.9013 C 341.41225,330.20156 343.14672,324 339.33333,324 c -4.17446,8.81771 -14.25377,3.59535 -17.816,5.67921 -5.78361,3.41647 -8.53053,2.88119 -13.39169,-2.60958 -4.11912,-4.65263 -4.22827,-5.03036 -1.93759,-6.70535 1.33508,-0.97623 4.68894,-2.45253 7.45302,-3.28068 5.03828,-1.50949 6.18228,-2.87803 3.69226,-4.41693 -4.18737,-11.45796 -21.42653,-5.83647 -7.33333,-9.39339 3.66667,-0.92435 10.15385,-2.08681 14.41596,-2.58323 8.14145,-0.94826 10.55621,-3.12721 7.98425,-7.20461 -8.13132,-6.13782 -1.16515,6.80591 -14.16173,2.00984 -3.11353,-1.18907 -7.33035,-2.16195 -9.37071,-2.16195 -7.3881,0 -11.23893,-4.37225 -6.9707,-7.91457 14.13641,10.10008 5.51791,-14.16001 2.6782,-15.63833 -1.70075,-0.65264 -1.98475,-2.51795 -1.52044,-9.98618 0.61296,-9.85949 -0.53006,-18.7111 -3.94772,-30.57157 -1.86626,-6.47649 -2.94407,-7.94202 -8.29275,-11.27584 -3.38123,-2.10752 -6.58851,-4.45772 -7.12728,-5.22268 -1.73163,-2.4586 -1.0886,-6.94393 1.46389,-10.21101 2.08036,-2.66278 2.39367,-4.91421 1.92692,-13.84648 -0.30654,-5.86667 -1.12449,-11.23667 -1.81762,-11.93334 -3.2912,-5.30462 1.1717,-8.67419 5.30872,-8.73333 3.13232,0 27.60534,-12.40597 31.27645,-15.8548 5.0118,-3.88912 13.05391,-7.40044 17.94292,-4.92131 4.08555,2.11272 8.82531,9.92791 10.17437,16.77611 1.60068,8.1254 6.46024,21.87508 8.95359,25.33333 1.71851,2.38357 2.56424,6.56256 2.96821,14.66667 0.31072,6.23333 1.54538,14.63333 2.74367,18.66667 33.90958,303.63558 32.53694,-66.21048 -17.08568,-110.39173 C 328.05493,97.561665 302.97877,90.093745 284.66667,93.549903 276.08435,95.169698 239.6212,109.30213 232.27744,117.4579 -239.56202,554.28906 95.324221,632.11114 289.05073,408.39347 Z m 26.69371,-133.8268 c -1.10812,-1.97771 -2.49647,-1.4244 -3.48888,0 0.93077,4.97313 3.41446,5.53442 3.48888,0 z m 10.50531,-36.9 c 2.15581,-4.02811 7.41891,-8.92554 10.98828,-6.7501 3.83688,2.39618 5.85508,-0.1012 6.17266,-7.63814 0.21739,-5.15898 -0.24848,-6.43256 -3.0164,-8.24617 -2.9116,-1.90776 -4.47404,-1.94992 -14.13284,-0.38136 C 315.52788,216.394 304,220.46637 304,222.51504 c 1.75041,2.53979 5.35534,2.86477 6.66667,5.59724 0,2.03439 6.48649,9.66831 9.1716,10.794 3.72572,1.56199 5.72116,1.17617 6.41148,-1.23961 z\" fill=\"#0f3b86\"/>' */\n  mload(0x40)\n  dup1\n  0x0a60\n  add\n  0x40\n  mstore\n  dup1\n  0x0a2f\n  dup2\n  mstore\n  0x20\n  add\n  data_89e93b27e8f701ea1734087f831ab2fe14a691a0a352559091180067f52d381b\n  0x0a2f\n  swap2\n  codecopy\n  0x00\n  swap1\n  dup1\n  mload\n  swap1\n  0x20\n  add\n  swap1\n  tag_1\n  swap3\n  swap2\n  swap1\n  tag_2\n  jump\t// in\ntag_1:\n  pop\n    /* \"SVG-MVP_football_ERC1155/contracts/players.sol\":19060:21719  contract HeinzLindner {... */\n  callvalue\n  dup1\n  iszero\n  tag_3\n  jumpi\n  0x00\n  dup1\n  revert\ntag_3:\n  pop\n  jump(tag_4)\ntag_2:\n  dup3\n  dup1\n  sload\n  tag_5\n  swap1\n  tag_6\n  jump\t// in\ntag_5:\n  swap1\n  0x00\n  mstore\n  keccak256(0x00, 0x20)\n  swap1\n  0x1f\n  add\n  0x20\n  swap1\n  div\n  dup2\n  add\n  swap3\n  dup3\n  tag_8\n  jumpi\n  0x00\n  dup6\n  sstore\n  jump(tag_7)\ntag_8:\n  dup3\n  0x1f\n  lt\n  tag_9\n  jumpi\n  dup1\n  mload\n  not(0xff)\n  and\n  dup4\n  dup1\n  add\n  or\n  dup6\n  sstore\n  jump(tag_7)\ntag_9:\n  dup3\n  dup1\n  add\n  0x01\n  add\n  dup6\n  sstore\n  dup3\n  iszero\n  tag_7\n  jumpi\n  swap2\n  dup3\n  add\ntag_10:\n  dup3\n  dup2\n  gt\n  iszero\n  tag_11\n  jumpi\n  dup3\n  mload\n  dup3\n  sstore\n  swap2\n  0x20\n  add\n  swap2\n  swap1\n  0x01\n  add\n  swap1\n  jump(tag_10)\ntag_11:\ntag_7:\n  pop\n  swap1\n  pop\n  tag_12\n  swap2\n  swap1\n  tag_13\n  jump\t// in\ntag_12:\n  pop\n  swap1\n  jump\t// out\ntag_13:\ntag_14:\n  dup1\n  dup3\n  gt\n  iszero\n  tag_15\n  jumpi\n  0x00\n  dup2\n  0x00\n  swap1\n  sstore\n  pop\n  0x01\n  add\n  jump(tag_14)\ntag_15:\n  pop\n  swap1\n  jump\t// out\n    /* \"#utility.yul\":7:327   */\ntag_6:\n    /* \"#utility.yul\":51:57   */\n  0x00\n    /* \"#utility.yul\":88:89   */\n  0x02\n    /* \"#utility.yul\":82:86   */\n  dup3\n    /* \"#utility.yul\":78:90   */\n  div\n    /* \"#utility.yul\":68:90   */\n  swap1\n  pop\n    /* \"#utility.yul\":135:136   */\n  0x01\n    /* \"#utility.yul\":129:133   */\n  dup3\n    /* \"#utility.yul\":125:137   */\n  and\n    /* \"#utility.yul\":156:174   */\n  dup1\n    /* \"#utility.yul\":146:227   */\n  tag_18\n  jumpi\n    /* \"#utility.yul\":212:216   */\n  0x7f\n    /* \"#utility.yul\":204:210   */\n  dup3\n    /* \"#utility.yul\":200:217   */\n  and\n    /* \"#utility.yul\":190:217   */\n  swap2\n  pop\n    /* \"#utility.yul\":146:227   */\ntag_18:\n    /* \"#utility.yul\":274:276   */\n  0x20\n    /* \"#utility.yul\":266:272   */\n  dup3\n    /* \"#utility.yul\":263:277   */\n  lt\n    /* \"#utility.yul\":243:261   */\n  dup2\n    /* \"#utility.yul\":240:278   */\n  eq\n    /* \"#utility.yul\":237:321   */\n  iszero\n  tag_19\n  jumpi\n    /* \"#utility.yul\":293:311   */\n  tag_20\n  tag_21\n  jump\t// in\ntag_20:\n    /* \"#utility.yul\":237:321   */\ntag_19:\n    /* \"#utility.yul\":58:327   */\n  pop\n    /* \"#utility.yul\":7:327   */\n  swap2\n  swap1\n  pop\n  jump\t// out\n    /* \"#utility.yul\":333:513   */\ntag_21:\n    /* \"#utility.yul\":381:458   */\n  0x4e487b7100000000000000000000000000000000000000000000000000000000\n    /* \"#utility.yul\":378:379   */\n  0x00\n    /* \"#utility.yul\":371:459   */\n  mstore\n    /* \"#utility.yul\":478:482   */\n  0x22\n    /* \"#utility.yul\":475:476   */\n  0x04\n    /* \"#utility.yul\":468:483   */\n  mstore\n    /* \"#utility.yul\":502:506   */\n  0x24\n    /* \"#utility.yul\":499:500   */\n  0x00\n    /* \"#utility.yul\":492:507   */\n  revert\n    /* \"SVG-MVP_football_ERC1155/contracts/players.sol\":19060:21719  contract HeinzLindner {... */\ntag_4:\n  dataSize(sub_0)\n  dup1\n  dataOffset(sub_0)\n  0x00\n  codecopy\n  0x00\n  return\nstop\ndata_89e93b27e8f701ea1734087f831ab2fe14a691a0a352559091180067f52d381b 3c70617468207374796c653d2266696c6c3a2330663362383622202020202020643d226d203238392e30353037332c3430382e333933343720632031382e38393438342c2d312e3232393220302e363834382c2d32382e31393231352031342e323832362c2d31382e333531333220362e39353833392c352e303430393420372e30323933352c352e303239363420392e39353537382c2d312e353836303420332e30333936372c2d362e343837353420332e37323838342c2d352e3430323439202d312e3235372c2d392e3935363336202d342e36373333312c2d342e32363834202d352e30383537392c2d382e3230383032202d312e34333836362c2d31332e373430363320312e39343932362c2d322e393536393620322e323436352c2d342e35323320312e32323138382c2d362e3433373532202d322e31353537332c2d342e3032383031202d302e35333535372c2d352e393235333720392e32383131322c2d31302e383638393720352e37353137382c2d322e38393635352031312e323837352c2d362e39393433362031342e37323635312c2d31302e393031332043203334312e34313232352c3333302e3230313536203334332e31343637322c333234203333392e33333333332c3332342063202d342e31373434362c382e3831373731202d31342e32353337372c332e3539353335202d31372e3831362c352e3637393231202d352e37383336312c332e3431363437202d382e35333035332c322e3838313139202d31332e33393136392c2d322e3630393538202d342e31313931322c2d342e3635323633202d342e32323832372c2d352e3033303336202d312e39333735392c2d362e373035333520312e33333530382c2d302e393736323320342e36383839342c2d322e343532353320372e34353330322c2d332e323830363820352e30333832382c2d312e353039343920362e31383232382c2d322e383738303320332e36393232362c2d342e3431363933202d342e31383733372c2d31312e3435373936202d32312e34323635332c2d352e3833363437202d372e33333333332c2d392e333933333920332e36363636372c2d302e39323433352031302e31353338352c2d322e30383638312031342e34313539362c2d322e353833323320382e31343134352c2d302e39343832362031302e35353632312c2d332e313237323120372e39383432352c2d372e3230343631202d382e31333133322c2d362e3133373832202d312e31363531352c362e3830353931202d31342e31363137332c322e3030393834202d332e31313335332c2d312e3138393037202d372e33333033352c2d322e3136313935202d392e33373037312c2d322e3136313935202d372e333838312c30202d31312e32333839332c2d342e3337323235202d362e393730372c2d372e39313435372031342e31333634312c31302e313030303820352e35313739312c2d31342e313630303120322e363738322c2d31352e3633383333202d312e37303037352c2d302e3635323634202d312e39383437352c2d322e3531373935202d312e35323034342c2d392e393836313820302e36313239362c2d392e3835393439202d302e35333030362c2d31382e37313131202d332e39343737322c2d33302e3537313537202d312e38363632362c2d362e3437363439202d322e39343430372c2d372e3934323032202d382e32393237352c2d31312e3237353834202d332e33383132332c2d322e3130373532202d362e35383835312c2d342e3435373732202d372e31323732382c2d352e3232323638202d312e37333136332c2d322e34353836202d312e303838362c2d362e393433393320312e34363338392c2d31302e323131303120322e30383033362c2d322e363632373820322e33393336372c2d342e393134323120312e39323639322c2d31332e3834363438202d302e33303635342c2d352e3836363637202d312e31323434392c2d31312e3233363637202d312e38313736322c2d31312e3933333334202d332e323931322c2d352e333034363220312e313731372c2d382e363734313920352e33303837322c2d382e373333333320332e31333233322c302032372e36303533342c2d31322e34303539372033312e32373634352c2d31352e3835343820352e303131382c2d332e38383931322031332e30353339312c2d372e34303034342031372e39343239322c2d342e393231333120342e30383535352c322e313132373220382e38323533312c392e39323739312031302e31373433372c31362e373736313120312e36303036382c382e3132353420362e34363032342c32312e383735303820382e39353335392c32352e333333333320312e37313835312c322e333833353720322e35363432342c362e353632353620322e39363832312c31342e363636363720302e33313037322c362e323333333320312e35343533382c31342e363333333320322e37343336372c31382e36363636372033332e39303935382c3330332e36333535382033322e35333639342c2d36362e3231303438202d31372e30383536382c2d3131302e33393137332043203332382e30353439332c39372e353631363635203330322e39373837372c39302e303933373435203238342e36363636372c39332e353439393033203237362e30383433352c39352e313639363938203233392e363231322c3130392e3330323133203233322e32373734342c3131372e34353739202d3233392e35363230322c3535342e32383930362039352e3332343232312c3633322e3131313134203238392e30353037332c3430382e3339333437205a206d2032362e36393337312c2d3133332e383236382063202d312e31303831322c2d312e3937373731202d322e34393634372c2d312e34323434202d332e34383838382c3020302e39333037372c342e393733313320332e34313434362c352e353334343220332e34383838382c30207a206d2031302e35303533312c2d33362e39206320322e31353538312c2d342e303238313120372e34313839312c2d382e39323535342031302e39383832382c2d362e3735303120332e38333638382c322e333936313820352e38353530382c2d302e3130313220362e31373236362c2d372e363338313420302e32313733392c2d352e3135383938202d302e32343834382c2d362e3433323536202d332e303136342c2d382e3234363137202d322e393131362c2d312e3930373736202d342e34373430342c2d312e3934393932202d31342e31333238342c2d302e33383133362043203331352e35323738382c3231362e333934203330342c3232302e3436363337203330342c3232322e3531353034206320312e37353034312c322e353339373920352e33353533342c322e383634373720362e36363636372c352e353937323420302c322e303334333920362e34383634392c392e363638333120392e313731362c31302e37393420332e37323537322c312e353631393920352e37323131362c312e313736313720362e34313134382c2d312e3233393631207a222066696c6c3d2223306633623836222f3e\n\nsub_0: assembly {\n        /* \"SVG-MVP_football_ERC1155/contracts/players.sol\":19060:21719  contract HeinzLindner {... */\n      mstore(0x40, 0x80)\n      callvalue\n      dup1\n      iszero\n      tag_1\n      jumpi\n      0x00\n      dup1\n      revert\n    tag_1:\n      pop\n      jumpi(tag_2, lt(calldatasize, 0x04))\n      shr(0xe0, calldataload(0x00))\n      dup1\n      0xbd85f55f\n      eq\n      tag_3\n      jumpi\n    tag_2:\n      0x00\n      dup1\n      revert\n        /* \"SVG-MVP_football_ERC1155/contracts/players.sol\":19086:21715  string public svg = '<path style=\"fill:#0f3b86\"      d=\"m 289.05073,408.39347 c 18.89484,-1.2292 0.6848,-28.19215 14.2826,-18.35132 6.95839,5.04094 7.02935,5.02964 9.95578,-1.58604 3.03967,-6.48754 3.72884,-5.40249 -1.257,-9.95636 -4.67331,-4.2684 -5.08579,-8.20802 -1.43866,-13.74063 1.94926,-2.95696 2.2465,-4.523 1.22188,-6.43752 -2.15573,-4.02801 -0.53557,-5.92537 9.28112,-10.86897 5.75178,-2.89655 11.2875,-6.99436 14.72651,-10.9013 C 341.41225,330.20156 343.14672,324 339.33333,324 c -4.17446,8.81771 -14.25377,3.59535 -17.816,5.67921 -5.78361,3.41647 -8.53053,2.88119 -13.39169,-2.60958 -4.11912,-4.65263 -4.22827,-5.03036 -1.93759,-6.70535 1.33508,-0.97623 4.68894,-2.45253 7.45302,-3.28068 5.03828,-1.50949 6.18228,-2.87803 3.69226,-4.41693 -4.18737,-11.45796 -21.42653,-5.83647 -7.33333,-9.39339 3.66667,-0.92435 10.15385,-2.08681 14.41596,-2.58323 8.14145,-0.94826 10.55621,-3.12721 7.98425,-7.20461 -8.13132,-6.13782 -1.16515,6.80591 -14.16173,2.00984 -3.11353,-1.18907 -7.33035,-2.16195 -9.37071,-2.16195 -7.3881,0 -11.23893,-4.37225 -6.9707,-7.91457 14.13641,10.10008 5.51791,-14.16001 2.6782,-15.63833 -1.70075,-0.65264 -1.98475,-2.51795 -1.52044,-9.98618 0.61296,-9.85949 -0.53006,-18.7111 -3.94772,-30.57157 -1.86626,-6.47649 -2.94407,-7.94202 -8.29275,-11.27584 -3.38123,-2.10752 -6.58851,-4.45772 -7.12728,-5.22268 -1.73163,-2.4586 -1.0886,-6.94393 1.46389,-10.21101 2.08036,-2.66278 2.39367,-4.91421 1.92692,-13.84648 -0.30654,-5.86667 -1.12449,-11.23667 -1.81762,-11.93334 -3.2912,-5.30462 1.1717,-8.67419 5.30872,-8.73333 3.13232,0 27.60534,-12.40597 31.27645,-15.8548 5.0118,-3.88912 13.05391,-7.40044 17.94292,-4.92131 4.08555,2.11272 8.82531,9.92791 10.17437,16.77611 1.60068,8.1254 6.46024,21.87508 8.95359,25.33333 1.71851,2.38357 2.56424,6.56256 2.96821,14.66667 0.31072,6.23333 1.54538,14.63333 2.74367,18.66667 33.90958,303.63558 32.53694,-66.21048 -17.08568,-110.39173 C 328.05493,97.561665 302.97877,90.093745 284.66667,93.549903 276.08435,95.169698 239.6212,109.30213 232.27744,117.4579 -239.56202,554.28906 95.324221,632.11114 289.05073,408.39347 Z m 26.69371,-133.8268 c -1.10812,-1.97771 -2.49647,-1.4244 -3.48888,0 0.93077,4.97313 3.41446,5.53442 3.48888,0 z m 10.50531,-36.9 c 2.15581,-4.02811 7.41891,-8.92554 10.98828,-6.7501 3.83688,2.39618 5.85508,-0.1012 6.17266,-7.63814 0.21739,-5.15898 -0.24848,-6.43256 -3.0164,-8.24617 -2.9116,-1.90776 -4.47404,-1.94992 -14.13284,-0.38136 C 315.52788,216.394 304,220.46637 304,222.51504 c 1.75041,2.53979 5.35534,2.86477 6.66667,5.59724 0,2.03439 6.48649,9.66831 9.1716,10.794 3.72572,1.56199 5.72116,1.17617 6.41148,-1.23961 z\" fill=\"#0f3b86\"/>' */\n    tag_3:\n      tag_4\n      tag_5\n      jump\t// in\n    tag_4:\n      mload(0x40)\n      tag_6\n      swap2\n      swap1\n      tag_7\n      jump\t// in\n    tag_6:\n      mload(0x40)\n      dup1\n      swap2\n      sub\n      swap1\n      return\n    tag_5:\n      0x00\n      dup1\n      sload\n      tag_8\n      swap1\n      tag_9\n      jump\t// in\n    tag_8:\n      dup1\n      0x1f\n      add\n      0x20\n      dup1\n      swap2\n      div\n      mul\n      0x20\n      add\n      mload(0x40)\n      swap1\n      dup2\n      add\n      0x40\n      mstore\n      dup1\n      swap3\n      swap2\n      swap1\n      dup2\n      dup2\n      mstore\n      0x20\n      add\n      dup3\n      dup1\n      sload\n      tag_10\n      swap1\n      tag_9\n      jump\t// in\n    tag_10:\n      dup1\n      iszero\n      tag_11\n      jumpi\n      dup1\n      0x1f\n      lt\n      tag_12\n      jumpi\n      0x0100\n      dup1\n      dup4\n      sload\n      div\n      mul\n      dup4\n      mstore\n      swap2\n      0x20\n      add\n      swap2\n      jump(tag_11)\n    tag_12:\n      dup3\n      add\n      swap2\n      swap1\n      0x00\n      mstore\n      keccak256(0x00, 0x20)\n      swap1\n    tag_13:\n      dup2\n      sload\n      dup2\n      mstore\n      swap1\n      0x01\n      add\n      swap1\n      0x20\n      add\n      dup1\n      dup4\n      gt\n      tag_13\n      jumpi\n      dup3\n      swap1\n      sub\n      0x1f\n      and\n      dup3\n      add\n      swap2\n    tag_11:\n      pop\n      pop\n      pop\n      pop\n      pop\n      dup2\n      jump\t// out\n        /* \"#utility.yul\":7:371   */\n    tag_15:\n        /* \"#utility.yul\":95:98   */\n      0x00\n        /* \"#utility.yul\":123:162   */\n      tag_17\n        /* \"#utility.yul\":156:161   */\n      dup3\n        /* \"#utility.yul\":123:162   */\n      tag_18\n      jump\t// in\n    tag_17:\n        /* \"#utility.yul\":178:249   */\n      tag_19\n        /* \"#utility.yul\":242:248   */\n      dup2\n        /* \"#utility.yul\":237:240   */\n      dup6\n        /* \"#utility.yul\":178:249   */\n      tag_20\n      jump\t// in\n    tag_19:\n        /* \"#utility.yul\":171:249   */\n      swap4\n      pop\n        /* \"#utility.yul\":258:310   */\n      tag_21\n        /* \"#utility.yul\":303:309   */\n      dup2\n        /* \"#utility.yul\":298:301   */\n      dup6\n        /* \"#utility.yul\":291:295   */\n      0x20\n        /* \"#utility.yul\":284:289   */\n      dup7\n        /* \"#utility.yul\":280:296   */\n      add\n        /* \"#utility.yul\":258:310   */\n      tag_22\n      jump\t// in\n    tag_21:\n        /* \"#utility.yul\":335:364   */\n      tag_23\n        /* \"#utility.yul\":357:363   */\n      dup2\n        /* \"#utility.yul\":335:364   */\n      tag_24\n      jump\t// in\n    tag_23:\n        /* \"#utility.yul\":330:333   */\n      dup5\n        /* \"#utility.yul\":326:365   */\n      add\n        /* \"#utility.yul\":319:365   */\n      swap2\n      pop\n        /* \"#utility.yul\":99:371   */\n      pop\n        /* \"#utility.yul\":7:371   */\n      swap3\n      swap2\n      pop\n      pop\n      jump\t// out\n        /* \"#utility.yul\":377:690   */\n    tag_7:\n        /* \"#utility.yul\":490:494   */\n      0x00\n        /* \"#utility.yul\":528:530   */\n      0x20\n        /* \"#utility.yul\":517:526   */\n      dup3\n        /* \"#utility.yul\":513:531   */\n      add\n        /* \"#utility.yul\":505:531   */\n      swap1\n      pop\n        /* \"#utility.yul\":577:586   */\n      dup2\n        /* \"#utility.yul\":571:575   */\n      dup2\n        /* \"#utility.yul\":567:587   */\n      sub\n        /* \"#utility.yul\":563:564   */\n      0x00\n        /* \"#utility.yul\":552:561   */\n      dup4\n        /* \"#utility.yul\":548:565   */\n      add\n        /* \"#utility.yul\":541:588   */\n      mstore\n        /* \"#utility.yul\":605:683   */\n      tag_26\n        /* \"#utility.yul\":678:682   */\n      dup2\n        /* \"#utility.yul\":669:675   */\n      dup5\n        /* \"#utility.yul\":605:683   */\n      tag_15\n      jump\t// in\n    tag_26:\n        /* \"#utility.yul\":597:683   */\n      swap1\n      pop\n        /* \"#utility.yul\":377:690   */\n      swap3\n      swap2\n      pop\n      pop\n      jump\t// out\n        /* \"#utility.yul\":696:795   */\n    tag_18:\n        /* \"#utility.yul\":748:754   */\n      0x00\n        /* \"#utility.yul\":782:787   */\n      dup2\n        /* \"#utility.yul\":776:788   */\n      mload\n        /* \"#utility.yul\":766:788   */\n      swap1\n      pop\n        /* \"#utility.yul\":696:795   */\n      swap2\n      swap1\n      pop\n      jump\t// out\n        /* \"#utility.yul\":801:970   */\n    tag_20:\n        /* \"#utility.yul\":885:896   */\n      0x00\n        /* \"#utility.yul\":919:925   */\n      dup3\n        /* \"#utility.yul\":914:917   */\n      dup3\n        /* \"#utility.yul\":907:926   */\n      mstore\n        /* \"#utility.yul\":959:963   */\n      0x20\n        /* \"#utility.yul\":954:957   */\n      dup3\n        /* \"#utility.yul\":950:964   */\n      add\n        /* \"#utility.yul\":935:964   */\n      swap1\n      pop\n        /* \"#utility.yul\":801:970   */\n      swap3\n      swap2\n      pop\n      pop\n      jump\t// out\n        /* \"#utility.yul\":976:1283   */\n    tag_22:\n        /* \"#utility.yul\":1044:1045   */\n      0x00\n        /* \"#utility.yul\":1054:1167   */\n    tag_30:\n        /* \"#utility.yul\":1068:1074   */\n      dup4\n        /* \"#utility.yul\":1065:1066   */\n      dup2\n        /* \"#utility.yul\":1062:1075   */\n      lt\n        /* \"#utility.yul\":1054:1167   */\n      iszero\n      tag_32\n      jumpi\n        /* \"#utility.yul\":1153:1154   */\n      dup1\n        /* \"#utility.yul\":1148:1151   */\n      dup3\n        /* \"#utility.yul\":1144:1155   */\n      add\n        /* \"#utility.yul\":1138:1156   */\n      mload\n        /* \"#utility.yul\":1134:1135   */\n      dup2\n        /* \"#utility.yul\":1129:1132   */\n      dup5\n        /* \"#utility.yul\":1125:1136   */\n      add\n        /* \"#utility.yul\":1118:1157   */\n      mstore\n        /* \"#utility.yul\":1090:1092   */\n      0x20\n        /* \"#utility.yul\":1087:1088   */\n      dup2\n        /* \"#utility.yul\":1083:1093   */\n      add\n        /* \"#utility.yul\":1078:1093   */\n      swap1\n      pop\n        /* \"#utility.yul\":1054:1167   */\n      jump(tag_30)\n    tag_32:\n        /* \"#utility.yul\":1185:1191   */\n      dup4\n        /* \"#utility.yul\":1182:1183   */\n      dup2\n        /* \"#utility.yul\":1179:1192   */\n      gt\n        /* \"#utility.yul\":1176:1277   */\n      iszero\n      tag_33\n      jumpi\n        /* \"#utility.yul\":1265:1266   */\n      0x00\n        /* \"#utility.yul\":1256:1262   */\n      dup5\n        /* \"#utility.yul\":1251:1254   */\n      dup5\n        /* \"#utility.yul\":1247:1263   */\n      add\n        /* \"#utility.yul\":1240:1267   */\n      mstore\n        /* \"#utility.yul\":1176:1277   */\n    tag_33:\n        /* \"#utility.yul\":1025:1283   */\n      pop\n        /* \"#utility.yul\":976:1283   */\n      pop\n      pop\n      pop\n      jump\t// out\n        /* \"#utility.yul\":1289:1609   */\n    tag_9:\n        /* \"#utility.yul\":1333:1339   */\n      0x00\n        /* \"#utility.yul\":1370:1371   */\n      0x02\n        /* \"#utility.yul\":1364:1368   */\n      dup3\n        /* \"#utility.yul\":1360:1372   */\n      div\n        /* \"#utility.yul\":1350:1372   */\n      swap1\n      pop\n        /* \"#utility.yul\":1417:1418   */\n      0x01\n        /* \"#utility.yul\":1411:1415   */\n      dup3\n        /* \"#utility.yul\":1407:1419   */\n      and\n        /* \"#utility.yul\":1438:1456   */\n      dup1\n        /* \"#utility.yul\":1428:1509   */\n      tag_35\n      jumpi\n        /* \"#utility.yul\":1494:1498   */\n      0x7f\n        /* \"#utility.yul\":1486:1492   */\n      dup3\n        /* \"#utility.yul\":1482:1499   */\n      and\n        /* \"#utility.yul\":1472:1499   */\n      swap2\n      pop\n        /* \"#utility.yul\":1428:1509   */\n    tag_35:\n        /* \"#utility.yul\":1556:1558   */\n      0x20\n        /* \"#utility.yul\":1548:1554   */\n      dup3\n        /* \"#utility.yul\":1545:1559   */\n      lt\n        /* \"#utility.yul\":1525:1543   */\n      dup2\n        /* \"#utility.yul\":1522:1560   */\n      eq\n        /* \"#utility.yul\":1519:1603   */\n      iszero\n      tag_36\n      jumpi\n        /* \"#utility.yul\":1575:1593   */\n      tag_37\n      tag_38\n      jump\t// in\n    tag_37:\n        /* \"#utility.yul\":1519:1603   */\n    tag_36:\n        /* \"#utility.yul\":1340:1609   */\n      pop\n        /* \"#utility.yul\":1289:1609   */\n      swap2\n      swap1\n      pop\n      jump\t// out\n        /* \"#utility.yul\":1615:1795   */\n    tag_38:\n        /* \"#utility.yul\":1663:1740   */\n      0x4e487b7100000000000000000000000000000000000000000000000000000000\n        /* \"#utility.yul\":1660:1661   */\n      0x00\n        /* \"#utility.yul\":1653:1741   */\n      mstore\n        /* \"#utility.yul\":1760:1764   */\n      0x22\n        /* \"#utility.yul\":1757:1758   */\n      0x04\n        /* \"#utility.yul\":1750:1765   */\n      mstore\n        /* \"#utility.yul\":1784:1788   */\n      0x24\n        /* \"#utility.yul\":1781:1782   */\n      0x00\n        /* \"#utility.yul\":1774:1789   */\n      revert\n        /* \"#utility.yul\":1801:1903   */\n    tag_24:\n        /* \"#utility.yul\":1842:1848   */\n      0x00\n        /* \"#utility.yul\":1893:1895   */\n      0x1f\n        /* \"#utility.yul\":1889:1896   */\n      not\n        /* \"#utility.yul\":1884:1886   */\n      0x1f\n        /* \"#utility.yul\":1877:1882   */\n      dup4\n        /* \"#utility.yul\":1873:1887   */\n      add\n        /* \"#utility.yul\":1869:1897   */\n      and\n        /* \"#utility.yul\":1859:1897   */\n      swap1\n      pop\n        /* \"#utility.yul\":1801:1903   */\n      swap2\n      swap1\n      pop\n      jump\t// out\n\n    auxdata: 0xa264697066735822122044dd7a51449a22b6e879654f5950192c604b212563ed2aa526e95e743b798ae964736f6c63430008070033\n}\n",
				"bytecode": {
					"linkReferences": {},
					"object": "608060405260405180610a600160405280610a2f8152602001610389610a2f913960009080519060200190610035929190610048565b5034801561004257600080fd5b5061014c565b828054610054906100eb565b90600052602060002090601f01602090048101928261007657600085556100bd565b82601f1061008f57805160ff19168380011785556100bd565b828001600101855582156100bd579182015b828111156100bc5782518255916020019190600101906100a1565b5b5090506100ca91906100ce565b5090565b5b808211156100e75760008160009055506001016100cf565b5090565b6000600282049050600182168061010357607f821691505b602082108114156101175761011661011d565b5b50919050565b7f4e487b7100000000000000000000000000000000000000000000000000000000600052602260045260246000fd5b61022e8061015b6000396000f3fe608060405234801561001057600080fd5b506004361061002b5760003560e01c8063bd85f55f14610030575b600080fd5b61003861004e565b6040516100459190610115565b60405180910390f35b6000805461005b90610186565b80601f016020809104026020016040519081016040528092919081815260200182805461008790610186565b80156100d45780601f106100a9576101008083540402835291602001916100d4565b820191906000526020600020905b8154815290600101906020018083116100b757829003601f168201915b505050505081565b60006100e782610137565b6100f18185610142565b9350610101818560208601610153565b61010a816101e7565b840191505092915050565b6000602082019050818103600083015261012f81846100dc565b905092915050565b600081519050919050565b600082825260208201905092915050565b60005b83811015610171578082015181840152602081019050610156565b83811115610180576000848401525b50505050565b6000600282049050600182168061019e57607f821691505b602082108114156101b2576101b16101b8565b5b50919050565b7f4e487b7100000000000000000000000000000000000000000000000000000000600052602260045260246000fd5b6000601f19601f830116905091905056fea264697066735822122044dd7a51449a22b6e879654f5950192c604b212563ed2aa526e95e743b798ae964736f6c634300080700333c70617468207374796c653d2266696c6c3a2330663362383622202020202020643d226d203238392e30353037332c3430382e333933343720632031382e38393438342c2d312e3232393220302e363834382c2d32382e31393231352031342e323832362c2d31382e333531333220362e39353833392c352e303430393420372e30323933352c352e303239363420392e39353537382c2d312e353836303420332e30333936372c2d362e343837353420332e37323838342c2d352e3430323439202d312e3235372c2d392e3935363336202d342e36373333312c2d342e32363834202d352e30383537392c2d382e3230383032202d312e34333836362c2d31332e373430363320312e39343932362c2d322e393536393620322e323436352c2d342e35323320312e32323138382c2d362e3433373532202d322e31353537332c2d342e3032383031202d302e35333535372c2d352e393235333720392e32383131322c2d31302e383638393720352e37353137382c2d322e38393635352031312e323837352c2d362e39393433362031342e37323635312c2d31302e393031332043203334312e34313232352c3333302e3230313536203334332e31343637322c333234203333392e33333333332c3332342063202d342e31373434362c382e3831373731202d31342e32353337372c332e3539353335202d31372e3831362c352e3637393231202d352e37383336312c332e3431363437202d382e35333035332c322e3838313139202d31332e33393136392c2d322e3630393538202d342e31313931322c2d342e3635323633202d342e32323832372c2d352e3033303336202d312e39333735392c2d362e373035333520312e33333530382c2d302e393736323320342e36383839342c2d322e343532353320372e34353330322c2d332e323830363820352e30333832382c2d312e353039343920362e31383232382c2d322e383738303320332e36393232362c2d342e3431363933202d342e31383733372c2d31312e3435373936202d32312e34323635332c2d352e3833363437202d372e33333333332c2d392e333933333920332e36363636372c2d302e39323433352031302e31353338352c2d322e30383638312031342e34313539362c2d322e353833323320382e31343134352c2d302e39343832362031302e35353632312c2d332e313237323120372e39383432352c2d372e3230343631202d382e31333133322c2d362e3133373832202d312e31363531352c362e3830353931202d31342e31363137332c322e3030393834202d332e31313335332c2d312e3138393037202d372e33333033352c2d322e3136313935202d392e33373037312c2d322e3136313935202d372e333838312c30202d31312e32333839332c2d342e3337323235202d362e393730372c2d372e39313435372031342e31333634312c31302e313030303820352e35313739312c2d31342e313630303120322e363738322c2d31352e3633383333202d312e37303037352c2d302e3635323634202d312e39383437352c2d322e3531373935202d312e35323034342c2d392e393836313820302e36313239362c2d392e3835393439202d302e35333030362c2d31382e37313131202d332e39343737322c2d33302e3537313537202d312e38363632362c2d362e3437363439202d322e39343430372c2d372e3934323032202d382e32393237352c2d31312e3237353834202d332e33383132332c2d322e3130373532202d362e35383835312c2d342e3435373732202d372e31323732382c2d352e3232323638202d312e37333136332c2d322e34353836202d312e303838362c2d362e393433393320312e34363338392c2d31302e323131303120322e30383033362c2d322e363632373820322e33393336372c2d342e393134323120312e39323639322c2d31332e3834363438202d302e33303635342c2d352e3836363637202d312e31323434392c2d31312e3233363637202d312e38313736322c2d31312e3933333334202d332e323931322c2d352e333034363220312e313731372c2d382e363734313920352e33303837322c2d382e373333333320332e31333233322c302032372e36303533342c2d31322e34303539372033312e32373634352c2d31352e3835343820352e303131382c2d332e38383931322031332e30353339312c2d372e34303034342031372e39343239322c2d342e393231333120342e30383535352c322e313132373220382e38323533312c392e39323739312031302e31373433372c31362e373736313120312e36303036382c382e3132353420362e34363032342c32312e383735303820382e39353335392c32352e333333333320312e37313835312c322e333833353720322e35363432342c362e353632353620322e39363832312c31342e363636363720302e33313037322c362e323333333320312e35343533382c31342e363333333320322e37343336372c31382e36363636372033332e39303935382c3330332e36333535382033322e35333639342c2d36362e3231303438202d31372e30383536382c2d3131302e33393137332043203332382e30353439332c39372e353631363635203330322e39373837372c39302e303933373435203238342e36363636372c39332e353439393033203237362e30383433352c39352e313639363938203233392e363231322c3130392e3330323133203233322e32373734342c3131372e34353739202d3233392e35363230322c3535342e32383930362039352e3332343232312c3633322e3131313134203238392e30353037332c3430382e3339333437205a206d2032362e36393337312c2d3133332e383236382063202d312e31303831322c2d312e3937373731202d322e34393634372c2d312e34323434202d332e34383838382c3020302e39333037372c342e393733313320332e34313434362c352e353334343220332e34383838382c30207a206d2031302e35303533312c2d33362e39206320322e31353538312c2d342e303238313120372e34313839312c2d382e39323535342031302e39383832382c2d362e3735303120332e38333638382c322e333936313820352e38353530382c2d302e3130313220362e31373236362c2d372e363338313420302e32313733392c2d352e3135383938202d302e32343834382c2d362e3433323536202d332e303136342c2d382e3234363137202d322e393131362c2d312e3930373736202d342e34373430342c2d312e3934393932202d31342e31333238342c2d302e33383133362043203331352e35323738382c3231362e333934203330342c3232302e3436363337203330342c3232322e3531353034206320312e37353034312c322e353339373920352e33353533342c322e383634373720362e36363636372c352e353937323420302c322e303334333920362e34383634392c392e363638333120392e313731362c31302e37393420332e37323537322c312e353631393920352e37323131362c312e313736313720362e34313134382c2d312e3233393631207a222066696c6c3d2223306633623836222f3e",
					"opcodes": "PUSH1 0x80 PUSH1 0x40 MSTORE PUSH1 0x40 MLOAD DUP1 PUSH2 0xA60 ADD PUSH1 0x40 MSTORE DUP1 PUSH2 0xA2F DUP2 MSTORE PUSH1 0x20 ADD PUSH2 0x389 PUSH2 0xA2F SWAP2 CODECOPY PUSH1 0x0 SWAP1 DUP1 MLOAD SWAP1 PUSH1 0x20 ADD SWAP1 PUSH2 0x35 SWAP3 SWAP2 SWAP1 PUSH2 0x48 JUMP JUMPDEST POP CALLVALUE DUP1 ISZERO PUSH2 0x42 JUMPI PUSH1 0x0 DUP1 REVERT JUMPDEST POP PUSH2 0x14C JUMP JUMPDEST DUP3 DUP1 SLOAD PUSH2 0x54 SWAP1 PUSH2 0xEB JUMP JUMPDEST SWAP1 PUSH1 0x0 MSTORE PUSH1 0x20 PUSH1 0x0 KECCAK256 SWAP1 PUSH1 0x1F ADD PUSH1 0x20 SWAP1 DIV DUP2 ADD SWAP3 DUP3 PUSH2 0x76 JUMPI PUSH1 0x0 DUP6 SSTORE PUSH2 0xBD JUMP JUMPDEST DUP3 PUSH1 0x1F LT PUSH2 0x8F JUMPI DUP1 MLOAD PUSH1 0xFF NOT AND DUP4 DUP1 ADD OR DUP6 SSTORE PUSH2 0xBD JUMP JUMPDEST DUP3 DUP1 ADD PUSH1 0x1 ADD DUP6 SSTORE DUP3 ISZERO PUSH2 0xBD JUMPI SWAP2 DUP3 ADD JUMPDEST DUP3 DUP2 GT ISZERO PUSH2 0xBC JUMPI DUP3 MLOAD DUP3 SSTORE SWAP2 PUSH1 0x20 ADD SWAP2 SWAP1 PUSH1 0x1 ADD SWAP1 PUSH2 0xA1 JUMP JUMPDEST JUMPDEST POP SWAP1 POP PUSH2 0xCA SWAP2 SWAP1 PUSH2 0xCE JUMP JUMPDEST POP SWAP1 JUMP JUMPDEST JUMPDEST DUP1 DUP3 GT ISZERO PUSH2 0xE7 JUMPI PUSH1 0x0 DUP2 PUSH1 0x0 SWAP1 SSTORE POP PUSH1 0x1 ADD PUSH2 0xCF JUMP JUMPDEST POP SWAP1 JUMP JUMPDEST PUSH1 0x0 PUSH1 0x2 DUP3 DIV SWAP1 POP PUSH1 0x1 DUP3 AND DUP1 PUSH2 0x103 JUMPI PUSH1 0x7F DUP3 AND SWAP2 POP JUMPDEST PUSH1 0x20 DUP3 LT DUP2 EQ ISZERO PUSH2 0x117 JUMPI PUSH2 0x116 PUSH2 0x11D JUMP JUMPDEST JUMPDEST POP SWAP2 SWAP1 POP JUMP JUMPDEST PUSH32 0x4E487B7100000000000000000000000000000000000000000000000000000000 PUSH1 0x0 MSTORE PUSH1 0x22 PUSH1 0x4 MSTORE PUSH1 0x24 PUSH1 0x0 REVERT JUMPDEST PUSH2 0x22E DUP1 PUSH2 0x15B PUSH1 0x0 CODECOPY PUSH1 0x0 RETURN INVALID PUSH1 0x80 PUSH1 0x40 MSTORE CALLVALUE DUP1 ISZERO PUSH2 0x10 JUMPI PUSH1 0x0 DUP1 REVERT JUMPDEST POP PUSH1 0x4 CALLDATASIZE LT PUSH2 0x2B JUMPI PUSH1 0x0 CALLDATALOAD PUSH1 0xE0 SHR DUP1 PUSH4 0xBD85F55F EQ PUSH2 0x30 JUMPI JUMPDEST PUSH1 0x0 DUP1 REVERT JUMPDEST PUSH2 0x38 PUSH2 0x4E JUMP JUMPDEST PUSH1 0x40 MLOAD PUSH2 0x45 SWAP2 SWAP1 PUSH2 0x115 JUMP JUMPDEST PUSH1 0x40 MLOAD DUP1 SWAP2 SUB SWAP1 RETURN JUMPDEST PUSH1 0x0 DUP1 SLOAD PUSH2 0x5B SWAP1 PUSH2 0x186 JUMP JUMPDEST DUP1 PUSH1 0x1F ADD PUSH1 0x20 DUP1 SWAP2 DIV MUL PUSH1 0x20 ADD PUSH1 0x40 MLOAD SWAP1 DUP2 ADD PUSH1 0x40 MSTORE DUP1 SWAP3 SWAP2 SWAP1 DUP2 DUP2 MSTORE PUSH1 0x20 ADD DUP3 DUP1 SLOAD PUSH2 0x87 SWAP1 PUSH2 0x186 JUMP JUMPDEST DUP1 ISZERO PUSH2 0xD4 JUMPI DUP1 PUSH1 0x1F LT PUSH2 0xA9 JUMPI PUSH2 0x100 DUP1 DUP4 SLOAD DIV MUL DUP4 MSTORE SWAP2 PUSH1 0x20 ADD SWAP2 PUSH2 0xD4 JUMP JUMPDEST DUP3 ADD SWAP2 SWAP1 PUSH1 0x0 MSTORE PUSH1 0x20 PUSH1 0x0 KECCAK256 SWAP1 JUMPDEST DUP2 SLOAD DUP2 MSTORE SWAP1 PUSH1 0x1 ADD SWAP1 PUSH1 0x20 ADD DUP1 DUP4 GT PUSH2 0xB7 JUMPI DUP3 SWAP1 SUB PUSH1 0x1F AND DUP3 ADD SWAP2 JUMPDEST POP POP POP POP POP DUP2 JUMP JUMPDEST PUSH1 0x0 PUSH2 0xE7 DUP3 PUSH2 0x137 JUMP JUMPDEST PUSH2 0xF1 DUP2 DUP6 PUSH2 0x142 JUMP JUMPDEST SWAP4 POP PUSH2 0x101 DUP2 DUP6 PUSH1 0x20 DUP7 ADD PUSH2 0x153 JUMP JUMPDEST PUSH2 0x10A DUP2 PUSH2 0x1E7 JUMP JUMPDEST DUP5 ADD SWAP2 POP POP SWAP3 SWAP2 POP POP JUMP JUMPDEST PUSH1 0x0 PUSH1 0x20 DUP3 ADD SWAP1 POP DUP2 DUP2 SUB PUSH1 0x0 DUP4 ADD MSTORE PUSH2 0x12F DUP2 DUP5 PUSH2 0xDC JUMP JUMPDEST SWAP1 POP SWAP3 SWAP2 POP POP JUMP JUMPDEST PUSH1 0x0 DUP2 MLOAD SWAP1 POP SWAP2 SWAP1 POP JUMP JUMPDEST PUSH1 0x0 DUP3 DUP3 MSTORE PUSH1 0x20 DUP3 ADD SWAP1 POP SWAP3 SWAP2 POP POP JUMP JUMPDEST PUSH1 0x0 JUMPDEST DUP4 DUP2 LT ISZERO PUSH2 0x171 JUMPI DUP1 DUP3 ADD MLOAD DUP2 DUP5 ADD MSTORE PUSH1 0x20 DUP2 ADD SWAP1 POP PUSH2 0x156 JUMP JUMPDEST DUP4 DUP2 GT ISZERO PUSH2 0x180 JUMPI PUSH1 0x0 DUP5 DUP5 ADD MSTORE JUMPDEST POP POP POP POP JUMP JUMPDEST PUSH1 0x0 PUSH1 0x2 DUP3 DIV SWAP1 POP PUSH1 0x1 DUP3 AND DUP1 PUSH2 0x19E JUMPI PUSH1 0x7F DUP3 AND SWAP2 POP JUMPDEST PUSH1 0x20 DUP3 LT DUP2 EQ ISZERO PUSH2 0x1B2 JUMPI PUSH2 0x1B1 PUSH2 0x1B8 JUMP JUMPDEST JUMPDEST POP SWAP2 SWAP1 POP JUMP JUMPDEST PUSH32 0x4E487B7100000000000000000000000000000000000000000000000000000000 PUSH1 0x0 MSTORE PUSH1 0x22 PUSH1 0x4 MSTORE PUSH1 0x24 PUSH1 0x0 REVERT JUMPDEST PUSH1 0x0 PUSH1 0x1F NOT PUSH1 0x1F DUP4 ADD AND SWAP1 POP SWAP2 SWAP1 POP JUMP INVALID LOG2 PUSH5 0x6970667358 0x22 SLT KECCAK256 DIFFICULTY 0xDD PUSH27 0x51449A22B6E879654F5950192C604B212563ED2AA526E95E743B79 DUP11 0xE9 PUSH5 0x736F6C6343 STOP ADDMOD SMOD STOP CALLER EXTCODECOPY PUSH17 0x617468207374796C653D2266696C6C3A23 ADDRESS PUSH7 0x33623836222020 KECCAK256 KECCAK256 KECCAK256 KECCAK256 PUSH5 0x3D226D2032 CODESIZE CODECOPY 0x2E ADDRESS CALLDATALOAD ADDRESS CALLDATACOPY CALLER 0x2C CALLVALUE ADDRESS CODESIZE 0x2E CALLER CODECOPY CALLER CALLVALUE CALLDATACOPY KECCAK256 PUSH4 0x2031382E CODESIZE CODECOPY CALLVALUE CODESIZE CALLVALUE 0x2C 0x2D BALANCE 0x2E ORIGIN ORIGIN CODECOPY ORIGIN KECCAK256 ADDRESS 0x2E CALLDATASIZE CODESIZE CALLVALUE CODESIZE 0x2C 0x2D ORIGIN CODESIZE 0x2E BALANCE CODECOPY ORIGIN BALANCE CALLDATALOAD KECCAK256 BALANCE CALLVALUE 0x2E ORIGIN CODESIZE ORIGIN CALLDATASIZE 0x2C 0x2D BALANCE CODESIZE 0x2E CALLER CALLDATALOAD BALANCE CALLER ORIGIN KECCAK256 CALLDATASIZE 0x2E CODECOPY CALLDATALOAD CODESIZE CALLER CODECOPY 0x2C CALLDATALOAD 0x2E ADDRESS CALLVALUE ADDRESS CODECOPY CALLVALUE KECCAK256 CALLDATACOPY 0x2E ADDRESS ORIGIN CODECOPY CALLER CALLDATALOAD 0x2C CALLDATALOAD 0x2E ADDRESS ORIGIN CODECOPY CALLDATASIZE CALLVALUE KECCAK256 CODECOPY 0x2E CODECOPY CALLDATALOAD CALLDATALOAD CALLDATACOPY CODESIZE 0x2C 0x2D BALANCE 0x2E CALLDATALOAD CODESIZE CALLDATASIZE ADDRESS CALLVALUE KECCAK256 CALLER 0x2E ADDRESS CALLER CODECOPY CALLDATASIZE CALLDATACOPY 0x2C 0x2D CALLDATASIZE 0x2E CALLVALUE CODESIZE CALLDATACOPY CALLDATALOAD CALLVALUE KECCAK256 CALLER 0x2E CALLDATACOPY ORIGIN CODESIZE CODESIZE CALLVALUE 0x2C 0x2D CALLDATALOAD 0x2E CALLVALUE ADDRESS ORIGIN CALLVALUE CODECOPY KECCAK256 0x2D BALANCE 0x2E ORIGIN CALLDATALOAD CALLDATACOPY 0x2C 0x2D CODECOPY 0x2E CODECOPY CALLDATALOAD CALLDATASIZE CALLER CALLDATASIZE KECCAK256 0x2D CALLVALUE 0x2E CALLDATASIZE CALLDATACOPY CALLER CALLER BALANCE 0x2C 0x2D CALLVALUE 0x2E ORIGIN CALLDATASIZE CODESIZE CALLVALUE KECCAK256 0x2D CALLDATALOAD 0x2E ADDRESS CODESIZE CALLDATALOAD CALLDATACOPY CODECOPY 0x2C 0x2D CODESIZE 0x2E ORIGIN ADDRESS CODESIZE ADDRESS ORIGIN KECCAK256 0x2D BALANCE 0x2E CALLVALUE CALLER CODESIZE CALLDATASIZE CALLDATASIZE 0x2C 0x2D BALANCE CALLER 0x2E CALLDATACOPY CALLVALUE ADDRESS CALLDATASIZE CALLER KECCAK256 BALANCE 0x2E CODECOPY CALLVALUE CODECOPY ORIGIN CALLDATASIZE 0x2C 0x2D ORIGIN 0x2E CODECOPY CALLDATALOAD CALLDATASIZE CODECOPY CALLDATASIZE KECCAK256 ORIGIN 0x2E ORIGIN CALLVALUE CALLDATASIZE CALLDATALOAD 0x2C 0x2D CALLVALUE 0x2E CALLDATALOAD ORIGIN CALLER KECCAK256 BALANCE 0x2E ORIGIN ORIGIN BALANCE CODESIZE CODESIZE 0x2C 0x2D CALLDATASIZE 0x2E CALLVALUE CALLER CALLDATACOPY CALLDATALOAD ORIGIN KECCAK256 0x2D ORIGIN 0x2E BALANCE CALLDATALOAD CALLDATALOAD CALLDATACOPY CALLER 0x2C 0x2D CALLVALUE 0x2E ADDRESS ORIGIN CODESIZE ADDRESS BALANCE KECCAK256 0x2D ADDRESS 0x2E CALLDATALOAD CALLER CALLDATALOAD CALLDATALOAD CALLDATACOPY 0x2C 0x2D CALLDATALOAD 0x2E CODECOPY ORIGIN CALLDATALOAD CALLER CALLDATACOPY KECCAK256 CODECOPY 0x2E ORIGIN CODESIZE BALANCE BALANCE ORIGIN 0x2C 0x2D BALANCE ADDRESS 0x2E CODESIZE CALLDATASIZE CODESIZE CODECOPY CALLDATACOPY KECCAK256 CALLDATALOAD 0x2E CALLDATACOPY CALLDATALOAD BALANCE CALLDATACOPY CODESIZE 0x2C 0x2D ORIGIN 0x2E CODESIZE CODECOPY CALLDATASIZE CALLDATALOAD CALLDATALOAD KECCAK256 BALANCE BALANCE 0x2E ORIGIN CODESIZE CALLDATACOPY CALLDATALOAD 0x2C 0x2D CALLDATASIZE 0x2E CODECOPY CODECOPY CALLVALUE CALLER CALLDATASIZE KECCAK256 BALANCE CALLVALUE 0x2E CALLDATACOPY ORIGIN CALLDATASIZE CALLDATALOAD BALANCE 0x2C 0x2D BALANCE ADDRESS 0x2E CODECOPY ADDRESS BALANCE CALLER KECCAK256 NUMBER KECCAK256 CALLER CALLVALUE BALANCE 0x2E CALLVALUE BALANCE ORIGIN ORIGIN CALLDATALOAD 0x2C CALLER CALLER ADDRESS 0x2E ORIGIN ADDRESS BALANCE CALLDATALOAD CALLDATASIZE KECCAK256 CALLER CALLVALUE CALLER 0x2E BALANCE CALLVALUE CALLDATASIZE CALLDATACOPY ORIGIN 0x2C CALLER ORIGIN CALLVALUE KECCAK256 CALLER CALLER CODECOPY 0x2E CALLER CALLER CALLER CALLER CALLER 0x2C CALLER ORIGIN CALLVALUE KECCAK256 PUSH4 0x202D342E BALANCE CALLDATACOPY CALLVALUE CALLVALUE CALLDATASIZE 0x2C CODESIZE 0x2E CODESIZE BALANCE CALLDATACOPY CALLDATACOPY BALANCE KECCAK256 0x2D BALANCE CALLVALUE 0x2E ORIGIN CALLDATALOAD CALLER CALLDATACOPY CALLDATACOPY 0x2C CALLER 0x2E CALLDATALOAD CODECOPY CALLDATALOAD CALLER CALLDATALOAD KECCAK256 0x2D BALANCE CALLDATACOPY 0x2E CODESIZE BALANCE CALLDATASIZE 0x2C CALLDATALOAD 0x2E CALLDATASIZE CALLDATACOPY CODECOPY ORIGIN BALANCE KECCAK256 0x2D CALLDATALOAD 0x2E CALLDATACOPY CODESIZE CALLER CALLDATASIZE BALANCE 0x2C CALLER 0x2E CALLVALUE BALANCE CALLDATASIZE CALLVALUE CALLDATACOPY KECCAK256 0x2D CODESIZE 0x2E CALLDATALOAD CALLER ADDRESS CALLDATALOAD CALLER 0x2C ORIGIN 0x2E CODESIZE CODESIZE BALANCE BALANCE CODECOPY KECCAK256 0x2D BALANCE CALLER 0x2E CALLER CODECOPY BALANCE CALLDATASIZE CODECOPY 0x2C 0x2D ORIGIN 0x2E CALLDATASIZE ADDRESS CODECOPY CALLDATALOAD CODESIZE KECCAK256 0x2D CALLVALUE 0x2E BALANCE BALANCE CODECOPY BALANCE ORIGIN 0x2C 0x2D CALLVALUE 0x2E CALLDATASIZE CALLDATALOAD ORIGIN CALLDATASIZE CALLER KECCAK256 0x2D CALLVALUE 0x2E ORIGIN ORIGIN CODESIZE ORIGIN CALLDATACOPY 0x2C 0x2D CALLDATALOAD 0x2E ADDRESS CALLER ADDRESS CALLER CALLDATASIZE KECCAK256 0x2D BALANCE 0x2E CODECOPY CALLER CALLDATACOPY CALLDATALOAD CODECOPY 0x2C 0x2D CALLDATASIZE 0x2E CALLDATACOPY ADDRESS CALLDATALOAD CALLER CALLDATALOAD KECCAK256 BALANCE 0x2E CALLER CALLER CALLDATALOAD ADDRESS CODESIZE 0x2C 0x2D ADDRESS 0x2E CODECOPY CALLDATACOPY CALLDATASIZE ORIGIN CALLER KECCAK256 CALLVALUE 0x2E CALLDATASIZE CODESIZE CODESIZE CODECOPY CALLVALUE 0x2C 0x2D ORIGIN 0x2E CALLVALUE CALLDATALOAD ORIGIN CALLDATALOAD CALLER KECCAK256 CALLDATACOPY 0x2E CALLVALUE CALLDATALOAD CALLER ADDRESS ORIGIN 0x2C 0x2D CALLER 0x2E ORIGIN CODESIZE ADDRESS CALLDATASIZE CODESIZE KECCAK256 CALLDATALOAD 0x2E ADDRESS CALLER CODESIZE ORIGIN CODESIZE 0x2C 0x2D BALANCE 0x2E CALLDATALOAD ADDRESS CODECOPY CALLVALUE CODECOPY KECCAK256 CALLDATASIZE 0x2E BALANCE CODESIZE ORIGIN ORIGIN CODESIZE 0x2C 0x2D ORIGIN 0x2E CODESIZE CALLDATACOPY CODESIZE ADDRESS CALLER KECCAK256 CALLER 0x2E CALLDATASIZE CODECOPY ORIGIN ORIGIN CALLDATASIZE 0x2C 0x2D CALLVALUE 0x2E CALLVALUE BALANCE CALLDATASIZE CODECOPY CALLER KECCAK256 0x2D CALLVALUE 0x2E BALANCE CODESIZE CALLDATACOPY CALLER CALLDATACOPY 0x2C 0x2D BALANCE BALANCE 0x2E CALLVALUE CALLDATALOAD CALLDATACOPY CODECOPY CALLDATASIZE KECCAK256 0x2D ORIGIN BALANCE 0x2E CALLVALUE ORIGIN CALLDATASIZE CALLDATALOAD CALLER 0x2C 0x2D CALLDATALOAD 0x2E CODESIZE CALLER CALLDATASIZE CALLVALUE CALLDATACOPY KECCAK256 0x2D CALLDATACOPY 0x2E CALLER CALLER CALLER CALLER CALLER 0x2C 0x2D CODECOPY 0x2E CALLER CODECOPY CALLER CALLER CODECOPY KECCAK256 CALLER 0x2E CALLDATASIZE CALLDATASIZE CALLDATASIZE CALLDATASIZE CALLDATACOPY 0x2C 0x2D ADDRESS 0x2E CODECOPY ORIGIN CALLVALUE CALLER CALLDATALOAD KECCAK256 BALANCE ADDRESS 0x2E BALANCE CALLDATALOAD CALLER CODESIZE CALLDATALOAD 0x2C 0x2D ORIGIN 0x2E ADDRESS CODESIZE CALLDATASIZE CODESIZE BALANCE KECCAK256 BALANCE CALLVALUE 0x2E CALLVALUE BALANCE CALLDATALOAD CODECOPY CALLDATASIZE 0x2C 0x2D ORIGIN 0x2E CALLDATALOAD CODESIZE CALLER ORIGIN CALLER KECCAK256 CODESIZE 0x2E BALANCE CALLVALUE BALANCE CALLVALUE CALLDATALOAD 0x2C 0x2D ADDRESS 0x2E CODECOPY CALLVALUE CODESIZE ORIGIN CALLDATASIZE KECCAK256 BALANCE ADDRESS 0x2E CALLDATALOAD CALLDATALOAD CALLDATASIZE ORIGIN BALANCE 0x2C 0x2D CALLER 0x2E BALANCE ORIGIN CALLDATACOPY ORIGIN BALANCE KECCAK256 CALLDATACOPY 0x2E CODECOPY CODESIZE CALLVALUE ORIGIN CALLDATALOAD 0x2C 0x2D CALLDATACOPY 0x2E ORIGIN ADDRESS CALLVALUE CALLDATASIZE BALANCE KECCAK256 0x2D CODESIZE 0x2E BALANCE CALLER BALANCE CALLER ORIGIN 0x2C 0x2D CALLDATASIZE 0x2E BALANCE CALLER CALLDATACOPY CODESIZE ORIGIN KECCAK256 0x2D BALANCE 0x2E BALANCE CALLDATASIZE CALLDATALOAD BALANCE CALLDATALOAD 0x2C CALLDATASIZE 0x2E CODESIZE ADDRESS CALLDATALOAD CODECOPY BALANCE KECCAK256 0x2D BALANCE CALLVALUE 0x2E BALANCE CALLDATASIZE BALANCE CALLDATACOPY CALLER 0x2C ORIGIN 0x2E ADDRESS ADDRESS CODECOPY CODESIZE CALLVALUE KECCAK256 0x2D CALLER 0x2E BALANCE BALANCE CALLER CALLDATALOAD CALLER 0x2C 0x2D BALANCE 0x2E BALANCE CODESIZE CODECOPY ADDRESS CALLDATACOPY KECCAK256 0x2D CALLDATACOPY 0x2E CALLER CALLER ADDRESS CALLER CALLDATALOAD 0x2C 0x2D ORIGIN 0x2E BALANCE CALLDATASIZE BALANCE CODECOPY CALLDATALOAD KECCAK256 0x2D CODECOPY 0x2E CALLER CALLDATACOPY ADDRESS CALLDATACOPY BALANCE 0x2C 0x2D ORIGIN 0x2E BALANCE CALLDATASIZE BALANCE CODECOPY CALLDATALOAD KECCAK256 0x2D CALLDATACOPY 0x2E CALLER CODESIZE CODESIZE BALANCE 0x2C ADDRESS KECCAK256 0x2D BALANCE BALANCE 0x2E ORIGIN CALLER CODESIZE CODECOPY CALLER 0x2C 0x2D CALLVALUE 0x2E CALLER CALLDATACOPY ORIGIN ORIGIN CALLDATALOAD KECCAK256 0x2D CALLDATASIZE 0x2E CODECOPY CALLDATACOPY ADDRESS CALLDATACOPY 0x2C 0x2D CALLDATACOPY 0x2E CODECOPY BALANCE CALLVALUE CALLDATALOAD CALLDATACOPY KECCAK256 BALANCE CALLVALUE 0x2E BALANCE CALLER CALLDATASIZE CALLVALUE BALANCE 0x2C BALANCE ADDRESS 0x2E BALANCE ADDRESS ADDRESS ADDRESS CODESIZE KECCAK256 CALLDATALOAD 0x2E CALLDATALOAD BALANCE CALLDATACOPY CODECOPY BALANCE 0x2C 0x2D BALANCE CALLVALUE 0x2E BALANCE CALLDATASIZE ADDRESS ADDRESS BALANCE KECCAK256 ORIGIN 0x2E CALLDATASIZE CALLDATACOPY CODESIZE ORIGIN 0x2C 0x2D BALANCE CALLDATALOAD 0x2E CALLDATASIZE CALLER CODESIZE CALLER CALLER KECCAK256 0x2D BALANCE 0x2E CALLDATACOPY ADDRESS ADDRESS CALLDATACOPY CALLDATALOAD 0x2C 0x2D ADDRESS 0x2E CALLDATASIZE CALLDATALOAD ORIGIN CALLDATASIZE CALLVALUE KECCAK256 0x2D BALANCE 0x2E CODECOPY CODESIZE CALLVALUE CALLDATACOPY CALLDATALOAD 0x2C 0x2D ORIGIN 0x2E CALLDATALOAD BALANCE CALLDATACOPY CODECOPY CALLDATALOAD KECCAK256 0x2D BALANCE 0x2E CALLDATALOAD ORIGIN ADDRESS CALLVALUE CALLVALUE 0x2C 0x2D CODECOPY 0x2E CODECOPY CODESIZE CALLDATASIZE BALANCE CODESIZE KECCAK256 ADDRESS 0x2E CALLDATASIZE BALANCE ORIGIN CODECOPY CALLDATASIZE 0x2C 0x2D CODECOPY 0x2E CODESIZE CALLDATALOAD CODECOPY CALLVALUE CODECOPY KECCAK256 0x2D ADDRESS 0x2E CALLDATALOAD CALLER ADDRESS ADDRESS CALLDATASIZE 0x2C 0x2D BALANCE CODESIZE 0x2E CALLDATACOPY BALANCE BALANCE BALANCE KECCAK256 0x2D CALLER 0x2E CODECOPY CALLVALUE CALLDATACOPY CALLDATACOPY ORIGIN 0x2C 0x2D CALLER ADDRESS 0x2E CALLDATALOAD CALLDATACOPY BALANCE CALLDATALOAD CALLDATACOPY KECCAK256 0x2D BALANCE 0x2E CODESIZE CALLDATASIZE CALLDATASIZE ORIGIN CALLDATASIZE 0x2C 0x2D CALLDATASIZE 0x2E CALLVALUE CALLDATACOPY CALLDATASIZE CALLVALUE CODECOPY KECCAK256 0x2D ORIGIN 0x2E CODECOPY CALLVALUE CALLVALUE ADDRESS CALLDATACOPY 0x2C 0x2D CALLDATACOPY 0x2E CODECOPY CALLVALUE ORIGIN ADDRESS ORIGIN KECCAK256 0x2D CODESIZE 0x2E ORIGIN CODECOPY ORIGIN CALLDATACOPY CALLDATALOAD 0x2C 0x2D BALANCE BALANCE 0x2E ORIGIN CALLDATACOPY CALLDATALOAD CODESIZE CALLVALUE KECCAK256 0x2D CALLER 0x2E CALLER CODESIZE BALANCE ORIGIN CALLER 0x2C 0x2D ORIGIN 0x2E BALANCE ADDRESS CALLDATACOPY CALLDATALOAD ORIGIN KECCAK256 0x2D CALLDATASIZE 0x2E CALLDATALOAD CODESIZE CODESIZE CALLDATALOAD BALANCE 0x2C 0x2D CALLVALUE 0x2E CALLVALUE CALLDATALOAD CALLDATACOPY CALLDATACOPY ORIGIN KECCAK256 0x2D CALLDATACOPY 0x2E BALANCE ORIGIN CALLDATACOPY ORIGIN CODESIZE 0x2C 0x2D CALLDATALOAD 0x2E ORIGIN ORIGIN ORIGIN CALLDATASIZE CODESIZE KECCAK256 0x2D BALANCE 0x2E CALLDATACOPY CALLER BALANCE CALLDATASIZE CALLER 0x2C 0x2D ORIGIN 0x2E CALLVALUE CALLDATALOAD CODESIZE CALLDATASIZE KECCAK256 0x2D BALANCE 0x2E ADDRESS CODESIZE CODESIZE CALLDATASIZE 0x2C 0x2D CALLDATASIZE 0x2E CODECOPY CALLVALUE CALLER CODECOPY CALLER KECCAK256 BALANCE 0x2E CALLVALUE CALLDATASIZE CALLER CODESIZE CODECOPY 0x2C 0x2D BALANCE ADDRESS 0x2E ORIGIN BALANCE BALANCE ADDRESS BALANCE KECCAK256 ORIGIN 0x2E ADDRESS CODESIZE ADDRESS CALLER CALLDATASIZE 0x2C 0x2D ORIGIN 0x2E CALLDATASIZE CALLDATASIZE ORIGIN CALLDATACOPY CODESIZE KECCAK256 ORIGIN 0x2E CALLER CODECOPY CALLER CALLDATASIZE CALLDATACOPY 0x2C 0x2D CALLVALUE 0x2E CODECOPY BALANCE CALLVALUE ORIGIN BALANCE KECCAK256 BALANCE 0x2E CODECOPY ORIGIN CALLDATASIZE CODECOPY ORIGIN 0x2C 0x2D BALANCE CALLER 0x2E CODESIZE CALLVALUE CALLDATASIZE CALLVALUE CODESIZE KECCAK256 0x2D ADDRESS 0x2E CALLER ADDRESS CALLDATASIZE CALLDATALOAD CALLVALUE 0x2C 0x2D CALLDATALOAD 0x2E CODESIZE CALLDATASIZE CALLDATASIZE CALLDATASIZE CALLDATACOPY KECCAK256 0x2D BALANCE 0x2E BALANCE ORIGIN CALLVALUE CALLVALUE CODECOPY 0x2C 0x2D BALANCE BALANCE 0x2E ORIGIN CALLER CALLDATASIZE CALLDATASIZE CALLDATACOPY KECCAK256 0x2D BALANCE 0x2E CODESIZE BALANCE CALLDATACOPY CALLDATASIZE ORIGIN 0x2C 0x2D BALANCE BALANCE 0x2E CODECOPY CALLER CALLER CALLER CALLVALUE KECCAK256 0x2D CALLER 0x2E ORIGIN CODECOPY BALANCE ORIGIN 0x2C 0x2D CALLDATALOAD 0x2E CALLER ADDRESS CALLVALUE CALLDATASIZE ORIGIN KECCAK256 BALANCE 0x2E BALANCE CALLDATACOPY BALANCE CALLDATACOPY 0x2C 0x2D CODESIZE 0x2E CALLDATASIZE CALLDATACOPY CALLVALUE BALANCE CODECOPY KECCAK256 CALLDATALOAD 0x2E CALLER ADDRESS CODESIZE CALLDATACOPY ORIGIN 0x2C 0x2D CODESIZE 0x2E CALLDATACOPY CALLER CALLER CALLER CALLER KECCAK256 CALLER 0x2E BALANCE CALLER ORIGIN CALLER ORIGIN 0x2C ADDRESS KECCAK256 ORIGIN CALLDATACOPY 0x2E CALLDATASIZE ADDRESS CALLDATALOAD CALLER CALLVALUE 0x2C 0x2D BALANCE ORIGIN 0x2E CALLVALUE ADDRESS CALLDATALOAD CODECOPY CALLDATACOPY KECCAK256 CALLER BALANCE 0x2E ORIGIN CALLDATACOPY CALLDATASIZE CALLVALUE CALLDATALOAD 0x2C 0x2D BALANCE CALLDATALOAD 0x2E CODESIZE CALLDATALOAD CALLVALUE CODESIZE KECCAK256 CALLDATALOAD 0x2E ADDRESS BALANCE BALANCE CODESIZE 0x2C 0x2D CALLER 0x2E CODESIZE CODESIZE CODECOPY BALANCE ORIGIN KECCAK256 BALANCE CALLER 0x2E ADDRESS CALLDATALOAD CALLER CODECOPY BALANCE 0x2C 0x2D CALLDATACOPY 0x2E CALLVALUE ADDRESS ADDRESS CALLVALUE CALLVALUE KECCAK256 BALANCE CALLDATACOPY 0x2E CODECOPY CALLVALUE ORIGIN CODECOPY ORIGIN 0x2C 0x2D CALLVALUE 0x2E CODECOPY ORIGIN BALANCE CALLER BALANCE KECCAK256 CALLVALUE 0x2E ADDRESS CODESIZE CALLDATALOAD CALLDATALOAD CALLDATALOAD 0x2C ORIGIN 0x2E BALANCE BALANCE ORIGIN CALLDATACOPY ORIGIN KECCAK256 CODESIZE 0x2E CODESIZE ORIGIN CALLDATALOAD CALLER BALANCE 0x2C CODECOPY 0x2E CODECOPY ORIGIN CALLDATACOPY CODECOPY BALANCE KECCAK256 BALANCE ADDRESS 0x2E BALANCE CALLDATACOPY CALLVALUE CALLER CALLDATACOPY 0x2C BALANCE CALLDATASIZE 0x2E CALLDATACOPY CALLDATACOPY CALLDATASIZE BALANCE BALANCE KECCAK256 BALANCE 0x2E CALLDATASIZE ADDRESS ADDRESS CALLDATASIZE CODESIZE 0x2C CODESIZE 0x2E BALANCE ORIGIN CALLDATALOAD CALLVALUE KECCAK256 CALLDATASIZE 0x2E CALLVALUE CALLDATASIZE ADDRESS ORIGIN CALLVALUE 0x2C ORIGIN BALANCE 0x2E CODESIZE CALLDATACOPY CALLDATALOAD ADDRESS CODESIZE KECCAK256 CODESIZE 0x2E CODECOPY CALLDATALOAD CALLER CALLDATALOAD CODECOPY 0x2C ORIGIN CALLDATALOAD 0x2E CALLER CALLER CALLER CALLER CALLER KECCAK256 BALANCE 0x2E CALLDATACOPY BALANCE CODESIZE CALLDATALOAD BALANCE 0x2C ORIGIN 0x2E CALLER CODESIZE CALLER CALLDATALOAD CALLDATACOPY KECCAK256 ORIGIN 0x2E CALLDATALOAD CALLDATASIZE CALLVALUE ORIGIN CALLVALUE 0x2C CALLDATASIZE 0x2E CALLDATALOAD CALLDATASIZE ORIGIN CALLDATALOAD CALLDATASIZE KECCAK256 ORIGIN 0x2E CODECOPY CALLDATASIZE CODESIZE ORIGIN BALANCE 0x2C BALANCE CALLVALUE 0x2E CALLDATASIZE CALLDATASIZE CALLDATASIZE CALLDATASIZE CALLDATACOPY KECCAK256 ADDRESS 0x2E CALLER BALANCE ADDRESS CALLDATACOPY ORIGIN 0x2C CALLDATASIZE 0x2E ORIGIN CALLER CALLER CALLER CALLER KECCAK256 BALANCE 0x2E CALLDATALOAD CALLVALUE CALLDATALOAD CALLER CODESIZE 0x2C BALANCE CALLVALUE 0x2E CALLDATASIZE CALLER CALLER CALLER CALLER KECCAK256 ORIGIN 0x2E CALLDATACOPY CALLVALUE CALLER CALLDATASIZE CALLDATACOPY 0x2C BALANCE CODESIZE 0x2E CALLDATASIZE CALLDATASIZE CALLDATASIZE CALLDATASIZE CALLDATACOPY KECCAK256 CALLER CALLER 0x2E CODECOPY ADDRESS CODECOPY CALLDATALOAD CODESIZE 0x2C CALLER ADDRESS CALLER 0x2E CALLDATASIZE CALLER CALLDATALOAD CALLDATALOAD CODESIZE KECCAK256 CALLER ORIGIN 0x2E CALLDATALOAD CALLER CALLDATASIZE CODECOPY CALLVALUE 0x2C 0x2D CALLDATASIZE CALLDATASIZE 0x2E ORIGIN BALANCE ADDRESS CALLVALUE CODESIZE KECCAK256 0x2D BALANCE CALLDATACOPY 0x2E ADDRESS CODESIZE CALLDATALOAD CALLDATASIZE CODESIZE 0x2C 0x2D BALANCE BALANCE ADDRESS 0x2E CALLER CODECOPY BALANCE CALLDATACOPY CALLER KECCAK256 NUMBER KECCAK256 CALLER ORIGIN CODESIZE 0x2E ADDRESS CALLDATALOAD CALLVALUE CODECOPY CALLER 0x2C CODECOPY CALLDATACOPY 0x2E CALLDATALOAD CALLDATASIZE BALANCE CALLDATASIZE CALLDATASIZE CALLDATALOAD KECCAK256 CALLER ADDRESS ORIGIN 0x2E CODECOPY CALLDATACOPY CODESIZE CALLDATACOPY CALLDATACOPY 0x2C CODECOPY ADDRESS 0x2E ADDRESS CODECOPY CALLER CALLDATACOPY CALLVALUE CALLDATALOAD KECCAK256 ORIGIN CODESIZE CALLVALUE 0x2E CALLDATASIZE CALLDATASIZE CALLDATASIZE CALLDATASIZE CALLDATACOPY 0x2C CODECOPY CALLER 0x2E CALLDATALOAD CALLVALUE CODECOPY CODECOPY ADDRESS CALLER KECCAK256 ORIGIN CALLDATACOPY CALLDATASIZE 0x2E ADDRESS CODESIZE CALLVALUE CALLER CALLDATALOAD 0x2C CODECOPY CALLDATALOAD 0x2E BALANCE CALLDATASIZE CODECOPY CALLDATASIZE CODECOPY CODESIZE KECCAK256 ORIGIN CALLER CODECOPY 0x2E CALLDATASIZE ORIGIN BALANCE ORIGIN 0x2C BALANCE ADDRESS CODECOPY 0x2E CALLER ADDRESS ORIGIN BALANCE CALLER KECCAK256 ORIGIN CALLER ORIGIN 0x2E ORIGIN CALLDATACOPY CALLDATACOPY CALLVALUE CALLVALUE 0x2C BALANCE BALANCE CALLDATACOPY 0x2E CALLVALUE CALLDATALOAD CALLDATACOPY CODECOPY KECCAK256 0x2D ORIGIN CALLER CODECOPY 0x2E CALLDATALOAD CALLDATASIZE ORIGIN ADDRESS ORIGIN 0x2C CALLDATALOAD CALLDATALOAD CALLVALUE 0x2E ORIGIN CODESIZE CODECOPY ADDRESS CALLDATASIZE KECCAK256 CODECOPY CALLDATALOAD 0x2E CALLER ORIGIN CALLVALUE ORIGIN ORIGIN BALANCE 0x2C CALLDATASIZE CALLER ORIGIN 0x2E BALANCE BALANCE BALANCE BALANCE CALLVALUE KECCAK256 ORIGIN CODESIZE CODECOPY 0x2E ADDRESS CALLDATALOAD ADDRESS CALLDATACOPY CALLER 0x2C CALLVALUE ADDRESS CODESIZE 0x2E CALLER CODECOPY CALLER CALLVALUE CALLDATACOPY KECCAK256 GAS KECCAK256 PUSH14 0x2032362E36393337312C2D313333 0x2E CODESIZE ORIGIN CALLDATASIZE CODESIZE KECCAK256 PUSH4 0x202D312E BALANCE ADDRESS CODESIZE BALANCE ORIGIN 0x2C 0x2D BALANCE 0x2E CODECOPY CALLDATACOPY CALLDATACOPY CALLDATACOPY BALANCE KECCAK256 0x2D ORIGIN 0x2E CALLVALUE CODECOPY CALLDATASIZE CALLVALUE CALLDATACOPY 0x2C 0x2D BALANCE 0x2E CALLVALUE ORIGIN CALLVALUE CALLVALUE KECCAK256 0x2D CALLER 0x2E CALLVALUE CODESIZE CODESIZE CODESIZE CODESIZE 0x2C ADDRESS KECCAK256 ADDRESS 0x2E CODECOPY CALLER ADDRESS CALLDATACOPY CALLDATACOPY 0x2C CALLVALUE 0x2E CODECOPY CALLDATACOPY CALLER BALANCE CALLER KECCAK256 CALLER 0x2E CALLVALUE BALANCE CALLVALUE CALLVALUE CALLDATASIZE 0x2C CALLDATALOAD 0x2E CALLDATALOAD CALLER CALLVALUE CALLVALUE ORIGIN KECCAK256 CALLER 0x2E CALLVALUE CODESIZE CODESIZE CODESIZE CODESIZE 0x2C ADDRESS KECCAK256 PUSH27 0x206D2031302E35303533312C2D33362E39206320322E3135353831 0x2C 0x2D CALLVALUE 0x2E ADDRESS ORIGIN CODESIZE BALANCE BALANCE KECCAK256 CALLDATACOPY 0x2E CALLVALUE BALANCE CODESIZE CODECOPY BALANCE 0x2C 0x2D CODESIZE 0x2E CODECOPY ORIGIN CALLDATALOAD CALLDATALOAD CALLVALUE KECCAK256 BALANCE ADDRESS 0x2E CODECOPY CODESIZE CODESIZE ORIGIN CODESIZE 0x2C 0x2D CALLDATASIZE 0x2E CALLDATACOPY CALLDATALOAD ADDRESS BALANCE KECCAK256 CALLER 0x2E CODESIZE CALLER CALLDATASIZE CODESIZE CODESIZE 0x2C ORIGIN 0x2E CALLER CODECOPY CALLDATASIZE BALANCE CODESIZE KECCAK256 CALLDATALOAD 0x2E CODESIZE CALLDATALOAD CALLDATALOAD ADDRESS CODESIZE 0x2C 0x2D ADDRESS 0x2E BALANCE ADDRESS BALANCE ORIGIN KECCAK256 CALLDATASIZE 0x2E BALANCE CALLDATACOPY ORIGIN CALLDATASIZE CALLDATASIZE 0x2C 0x2D CALLDATACOPY 0x2E CALLDATASIZE CALLER CODESIZE BALANCE CALLVALUE KECCAK256 ADDRESS 0x2E ORIGIN BALANCE CALLDATACOPY CALLER CODECOPY 0x2C 0x2D CALLDATALOAD 0x2E BALANCE CALLDATALOAD CODESIZE CODECOPY CODESIZE KECCAK256 0x2D ADDRESS 0x2E ORIGIN CALLVALUE CODESIZE CALLVALUE CODESIZE 0x2C 0x2D CALLDATASIZE 0x2E CALLVALUE CALLER ORIGIN CALLDATALOAD CALLDATASIZE KECCAK256 0x2D CALLER 0x2E ADDRESS BALANCE CALLDATASIZE CALLVALUE 0x2C 0x2D CODESIZE 0x2E ORIGIN CALLVALUE CALLDATASIZE BALANCE CALLDATACOPY KECCAK256 0x2D ORIGIN 0x2E CODECOPY BALANCE BALANCE CALLDATASIZE 0x2C 0x2D BALANCE 0x2E CODECOPY ADDRESS CALLDATACOPY CALLDATACOPY CALLDATASIZE KECCAK256 0x2D CALLVALUE 0x2E CALLVALUE CALLDATACOPY CALLVALUE ADDRESS CALLVALUE 0x2C 0x2D BALANCE 0x2E CODECOPY CALLVALUE CODECOPY CODECOPY ORIGIN KECCAK256 0x2D BALANCE CALLVALUE 0x2E BALANCE CALLER ORIGIN CODESIZE CALLVALUE 0x2C 0x2D ADDRESS 0x2E CALLER CODESIZE BALANCE CALLER CALLDATASIZE KECCAK256 NUMBER KECCAK256 CALLER BALANCE CALLDATALOAD 0x2E CALLDATALOAD ORIGIN CALLDATACOPY CODESIZE CODESIZE 0x2C ORIGIN BALANCE CALLDATASIZE 0x2E CALLER CODECOPY CALLVALUE KECCAK256 CALLER ADDRESS CALLVALUE 0x2C ORIGIN ORIGIN ADDRESS 0x2E CALLVALUE CALLDATASIZE CALLDATASIZE CALLER CALLDATACOPY KECCAK256 CALLER ADDRESS CALLVALUE 0x2C ORIGIN ORIGIN ORIGIN 0x2E CALLDATALOAD BALANCE CALLDATALOAD ADDRESS CALLVALUE KECCAK256 PUSH4 0x20312E37 CALLDATALOAD ADDRESS CALLVALUE BALANCE 0x2C ORIGIN 0x2E CALLDATALOAD CALLER CODECOPY CALLDATACOPY CODECOPY KECCAK256 CALLDATALOAD 0x2E CALLER CALLDATALOAD CALLDATALOAD CALLER CALLVALUE 0x2C ORIGIN 0x2E CODESIZE CALLDATASIZE CALLVALUE CALLDATACOPY CALLDATACOPY KECCAK256 CALLDATASIZE 0x2E CALLDATASIZE CALLDATASIZE CALLDATASIZE CALLDATASIZE CALLDATACOPY 0x2C CALLDATALOAD 0x2E CALLDATALOAD CODECOPY CALLDATACOPY ORIGIN CALLVALUE KECCAK256 ADDRESS 0x2C ORIGIN 0x2E ADDRESS CALLER CALLVALUE CALLER CODECOPY KECCAK256 CALLDATASIZE 0x2E CALLVALUE CODESIZE CALLDATASIZE CALLVALUE CODECOPY 0x2C CODECOPY 0x2E CALLDATASIZE CALLDATASIZE CODESIZE CALLER BALANCE KECCAK256 CODECOPY 0x2E BALANCE CALLDATACOPY BALANCE CALLDATASIZE 0x2C BALANCE ADDRESS 0x2E CALLDATACOPY CODECOPY CALLVALUE KECCAK256 CALLER 0x2E CALLDATACOPY ORIGIN CALLDATALOAD CALLDATACOPY ORIGIN 0x2C BALANCE 0x2E CALLDATALOAD CALLDATASIZE BALANCE CODECOPY CODECOPY KECCAK256 CALLDATALOAD 0x2E CALLDATACOPY ORIGIN BALANCE BALANCE CALLDATASIZE 0x2C BALANCE 0x2E BALANCE CALLDATACOPY CALLDATASIZE BALANCE CALLDATACOPY KECCAK256 CALLDATASIZE 0x2E CALLVALUE BALANCE BALANCE CALLVALUE CODESIZE 0x2C 0x2D BALANCE 0x2E ORIGIN CALLER CODECOPY CALLDATASIZE BALANCE KECCAK256 PUSH27 0x222066696C6C3D2223306633623836222F3E000000000000000000 "
				},
				"gasEstimates": {
					"creation": {
						"codeDepositCost": "111600",
						"executionCost": "infinite",
						"totalCost": "infinite"
					},
					"external": {
						"svg()": "infinite"
					}
				},
				"methodIdentifiers": {
					"svg()": "bd85f55f"
				}
			},
			"userdoc": {
				"kind": "user",
				"methods": {},
				"version": 1
			}
		}
	}
}