{
	"SVG-MVP_football_ERC1155/contracts/players.sol": {
		"PajtimKasami": {
			"abi": [
				{
					"inputs": [],
					"name": "svg",
					"outputs": [
						{
							"internalType": "string",
							"name": "",
							"type": "string"
						}
					],
					"stateMutability": "view",
					"type": "function"
				}
			],
			"devdoc": {
				"kind": "dev",
				"methods": {},
				"version": 1
			},
			"evm": {
				"assembly": "    /* \"SVG-MVP_football_ERC1155/contracts/players.sol\":11208:14266  contract PajtimKasami {... */\n  mstore(0x40, 0x80)\n    /* \"SVG-MVP_football_ERC1155/contracts/players.sol\":11234:14263  string public svg = '<path style=\"fill:#0f3b86\"    d=\"M 10.537625,190.16552 C 20.38253,127.11156 168.96328,80.53315 188.41384,58.17855 c 2.47164,-2.97814 14.10572,-11.56462 19.24572,-14.20421 16.80935,-8.632255 47.4156,-8.552707 64.10929,0.16662 17.08619,8.92434 17.96388,9.68862 24.70694,21.51465 5.56801,9.76523 8.29333,18.62851 5.72798,18.62851 -2.54692,0 -13.13146,-9.67448 -20.97525,-19.17176 -12.6041,-9.67349 -24.64805,-7.18641 -31.32437,0.0733 -4.47195,5.79481 -10.83116,6.96042 -16.91126,8.4991 -3.66666,0.92715 -9.06666,3.03469 -12,4.68341 -3.32394,1.86826 -8.85778,3.33542 -14.68798,3.89413 -8.36083,0.80123 -9.74611,0.58856 -13.0392,-2.00179 -2.02651,-1.59404 -4.59459,-2.54905 -5.70687,-2.12223 -1.11227,0.42682 -3.85119,4.68425 -6.08647,9.46095 -3.34965,7.15803 -4.62809,8.68491 -7.27182,8.68491 -3.13158,0 -3.20766,0.26373 -3.20766,11.12005 0,7.22984 1.00442,14.80964 2.8711,21.66667 3.51746,12.92102 4.65158,23.21329 2.55792,23.21329 -0.82226,0 -2.08386,-1.54877 -2.80355,-3.44171 -9.95732,-6.09293 -3.0966,32.32084 -1.38749,36.23042 2.68608,5.99954 9.70634,12.54462 13.45538,12.54462 6.90946,5.93404 29.76413,36.60037 29.86966,22.2107 -1.17374,-3.05872 8.1815,-8.4347 16.43698,-9.44548 7.55963,-0.92558 8.16992,-0.36219 4.80764,4.43813 -1.96968,2.81211 -2.91765,3.05516 -9.33333,2.39301 -17.29248,-2.8172 1.93279,12.07305 7.06128,12.40364 2.43965,0 3.17013,0.94774 3.85376,5 0.54759,8.2974 6.16684,13.13419 14.11483,12.53402 6.93196,0.84385 10.73909,2.07711 15.63457,-4.22266 6.96908,-7.67625 12.10429,1.92856 11.15991,-13.18192 0.10931,-4.99295 3.77619,-8.02114 5.44254,-12.46277 0.6349,-1.75984 2.34202,-2.33333 6.94566,-2.33333 7.40651,2.47228 8.28258,-8.36227 13.39733,-7.19307 C 559.60031,681.83617 -445.89595,754.025 10.537625,190.16552 Z m 212.455265,1.67417 c 0,-9.629 0.78496,-11.1318 4.20012,-8.04112 1.93216,1.74859 2.80959,1.86071 4.37755,0.55941 2.45324,-2.036 6.99889,-0.68973 8.75587,2.59319 1.0817,2.0212 0.60633,3.00224 -2.54058,5.24303 -2.1292,1.51613 -5.35868,2.7566 -7.17661,2.7566 -2.18399,0 -3.54191,0.90466 -4.00268,2.66666 -1.52239,5.82162 -3.61367,2.47794 -3.61367,-5.77777 z m 3.49379,-30.88673 c 3.81415,-10.78055 -6.47794,-22.72584 -10.96617,-17.37082 -4.63236,7.94587 -14.8546,5.53982 -20.82155,11.0168 -3.13039,2.97044 -3.74217,3.14254 -4.466,1.25627 0.42222,-10.76815 14.21182,-12.95157 18.09327,-17.11546 0,-2.09766 -4.91722,-1.13237 -11.17152,2.19308 l -6.23535,3.31537 -1.5166,-3.32855 c 3.02918,-21.30341 33.51177,-10.8607 41.90305,-0.0375 2.36564,3.38572 -0.82204,32.6825 -3.65904,33.62873 -0.82256,0.27434 -1.26004,-4.83846 -1.16009,-13.55792 z m 37.16548,-23.34367 c -3.06565,-3.38752 -1.80508,-4.63677 4.78455,-4.74153 5.64116,-0.0897 6.71368,1.73506 3.12761,5.32113 -2.80081,2.80082 -4.99861,2.63982 -7.91216,-0.5796 z m -12.38113,-9.51787 c 1.35877,-4.13339 9.29801,-7.8073 16.87142,-7.8073 6.28563,0 7.12298,0.27351 5.4695,1.78656 -2.18562,1.99998 -11.61283,5.53654 -18.44371,6.91905 -3.46175,0.70063 -4.35513,0.4947 -3.89721,-0.89831 z\" transform=\"translate(-40 30)\"/>' */\n  mload(0x40)\n  dup1\n  0x0be0\n  add\n  0x40\n  mstore\n  dup1\n  0x0bbf\n  dup2\n  mstore\n  0x20\n  add\n  data_483ed346d1ef145d4f85609b0d6eb4b623c013209df2df527aa1a7226daf7af5\n  0x0bbf\n  swap2\n  codecopy\n  0x00\n  swap1\n  dup1\n  mload\n  swap1\n  0x20\n  add\n  swap1\n  tag_1\n  swap3\n  swap2\n  swap1\n  tag_2\n  jump\t// in\ntag_1:\n  pop\n    /* \"SVG-MVP_football_ERC1155/contracts/players.sol\":11208:14266  contract PajtimKasami {... */\n  callvalue\n  dup1\n  iszero\n  tag_3\n  jumpi\n  0x00\n  dup1\n  revert\ntag_3:\n  pop\n  jump(tag_4)\ntag_2:\n  dup3\n  dup1\n  sload\n  tag_5\n  swap1\n  tag_6\n  jump\t// in\ntag_5:\n  swap1\n  0x00\n  mstore\n  keccak256(0x00, 0x20)\n  swap1\n  0x1f\n  add\n  0x20\n  swap1\n  div\n  dup2\n  add\n  swap3\n  dup3\n  tag_8\n  jumpi\n  0x00\n  dup6\n  sstore\n  jump(tag_7)\ntag_8:\n  dup3\n  0x1f\n  lt\n  tag_9\n  jumpi\n  dup1\n  mload\n  not(0xff)\n  and\n  dup4\n  dup1\n  add\n  or\n  dup6\n  sstore\n  jump(tag_7)\ntag_9:\n  dup3\n  dup1\n  add\n  0x01\n  add\n  dup6\n  sstore\n  dup3\n  iszero\n  tag_7\n  jumpi\n  swap2\n  dup3\n  add\ntag_10:\n  dup3\n  dup2\n  gt\n  iszero\n  tag_11\n  jumpi\n  dup3\n  mload\n  dup3\n  sstore\n  swap2\n  0x20\n  add\n  swap2\n  swap1\n  0x01\n  add\n  swap1\n  jump(tag_10)\ntag_11:\ntag_7:\n  pop\n  swap1\n  pop\n  tag_12\n  swap2\n  swap1\n  tag_13\n  jump\t// in\ntag_12:\n  pop\n  swap1\n  jump\t// out\ntag_13:\ntag_14:\n  dup1\n  dup3\n  gt\n  iszero\n  tag_15\n  jumpi\n  0x00\n  dup2\n  0x00\n  swap1\n  sstore\n  pop\n  0x01\n  add\n  jump(tag_14)\ntag_15:\n  pop\n  swap1\n  jump\t// out\n    /* \"#utility.yul\":7:327   */\ntag_6:\n    /* \"#utility.yul\":51:57   */\n  0x00\n    /* \"#utility.yul\":88:89   */\n  0x02\n    /* \"#utility.yul\":82:86   */\n  dup3\n    /* \"#utility.yul\":78:90   */\n  div\n    /* \"#utility.yul\":68:90   */\n  swap1\n  pop\n    /* \"#utility.yul\":135:136   */\n  0x01\n    /* \"#utility.yul\":129:133   */\n  dup3\n    /* \"#utility.yul\":125:137   */\n  and\n    /* \"#utility.yul\":156:174   */\n  dup1\n    /* \"#utility.yul\":146:227   */\n  tag_18\n  jumpi\n    /* \"#utility.yul\":212:216   */\n  0x7f\n    /* \"#utility.yul\":204:210   */\n  dup3\n    /* \"#utility.yul\":200:217   */\n  and\n    /* \"#utility.yul\":190:217   */\n  swap2\n  pop\n    /* \"#utility.yul\":146:227   */\ntag_18:\n    /* \"#utility.yul\":274:276   */\n  0x20\n    /* \"#utility.yul\":266:272   */\n  dup3\n    /* \"#utility.yul\":263:277   */\n  lt\n    /* \"#utility.yul\":243:261   */\n  dup2\n    /* \"#utility.yul\":240:278   */\n  eq\n    /* \"#utility.yul\":237:321   */\n  iszero\n  tag_19\n  jumpi\n    /* \"#utility.yul\":293:311   */\n  tag_20\n  tag_21\n  jump\t// in\ntag_20:\n    /* \"#utility.yul\":237:321   */\ntag_19:\n    /* \"#utility.yul\":58:327   */\n  pop\n    /* \"#utility.yul\":7:327   */\n  swap2\n  swap1\n  pop\n  jump\t// out\n    /* \"#utility.yul\":333:513   */\ntag_21:\n    /* \"#utility.yul\":381:458   */\n  0x4e487b7100000000000000000000000000000000000000000000000000000000\n    /* \"#utility.yul\":378:379   */\n  0x00\n    /* \"#utility.yul\":371:459   */\n  mstore\n    /* \"#utility.yul\":478:482   */\n  0x22\n    /* \"#utility.yul\":475:476   */\n  0x04\n    /* \"#utility.yul\":468:483   */\n  mstore\n    /* \"#utility.yul\":502:506   */\n  0x24\n    /* \"#utility.yul\":499:500   */\n  0x00\n    /* \"#utility.yul\":492:507   */\n  revert\n    /* \"SVG-MVP_football_ERC1155/contracts/players.sol\":11208:14266  contract PajtimKasami {... */\ntag_4:\n  dataSize(sub_0)\n  dup1\n  dataOffset(sub_0)\n  0x00\n  codecopy\n  0x00\n  return\nstop\ndata_483ed346d1ef145d4f85609b0d6eb4b623c013209df2df527aa1a7226daf7af5 3c70617468207374796c653d2266696c6c3a233066336238362220202020643d224d2031302e3533373632352c3139302e313635353220432032302e33383235332c3132372e3131313536203136382e39363332382c38302e3533333135203138382e34313338342c35382e3137383535206320322e34373136342c2d322e39373831342031342e31303537322c2d31312e35363436322031392e32343537322c2d31342e32303432312031362e38303933352c2d382e3633323235352034372e343135362c2d382e3535323730372036342e31303932392c302e31363636322031372e30383631392c382e39323433342031372e39363338382c392e36383836322032342e37303639342c32312e353134363520352e35363830312c392e373635323320382e32393333332c31382e363238353120352e37323739382c31382e3632383531202d322e35343639322c30202d31332e31333134362c2d392e3637343438202d32302e39373532352c2d31392e3137313736202d31322e363034312c2d392e3637333439202d32342e36343830352c2d372e3138363431202d33312e33323433372c302e30373333202d342e34373139352c352e3739343831202d31302e38333131362c362e3936303432202d31362e39313132362c382e34393931202d332e36363636362c302e3932373135202d392e30363636362c332e3033343639202d31322c342e3638333431202d332e33323339342c312e3836383236202d382e38353737382c332e3333353432202d31342e36383739382c332e3839343133202d382e33363038332c302e3830313233202d392e37343631312c302e3538383536202d31332e303339322c2d322e3030313739202d322e30323635312c2d312e3539343034202d342e35393435392c2d322e3534393035202d352e37303638372c2d322e3132323233202d312e31313232372c302e3432363832202d332e38353131392c342e3638343235202d362e30383634372c392e3436303935202d332e33343936352c372e3135383033202d342e36323830392c382e3638343931202d372e32373138322c382e3638343931202d332e31333135382c30202d332e32303736362c302e3236333733202d332e32303736362c31312e313230303520302c372e323239383420312e30303434322c31342e383039363420322e383731312c32312e363636363720332e35313734362c31322e393231303220342e36353135382c32332e323133323920322e35353739322c32332e3231333239202d302e38323232362c30202d322e30383338362c2d312e3534383737202d322e38303335352c2d332e3434313731202d392e39353733322c2d362e3039323933202d332e303936362c33322e3332303834202d312e33383734392c33362e323330343220322e36383630382c352e393939353420392e37303633342c31322e35343436322031332e34353533382c31322e353434363220362e39303934362c352e39333430342032392e37363431332c33362e36303033372032392e38363936362c32322e32313037202d312e31373337342c2d332e303538373220382e313831352c2d382e343334372031362e34333639382c2d392e343435343820372e35353936332c2d302e393235353820382e31363939322c2d302e333632313920342e38303736342c342e3433383133202d312e39363936382c322e3831323131202d322e39313736352c332e3035353136202d392e33333333332c322e3339333031202d31372e32393234382c2d322e3831373220312e39333237392c31322e303733303520372e30363132382c31322e343033363420322e34333936352c3020332e31373031332c302e393437373420332e38353337362c3520302e35343735392c382e3239373420362e31363638342c31332e31333431392031342e31313438332c31322e353334303220362e39333139362c302e38343338352031302e37333930392c322e30373731312031352e36333435372c2d342e323232363620362e39363930382c2d372e36373632352031322e31303432392c312e39323835362031312e31353939312c2d31332e313831393220302e31303933312c2d342e393932393520332e37373631392c2d382e303231313420352e34343235342c2d31322e343632373720302e363334392c2d312e373539383420322e33343230322c2d322e333333333320362e39343536362c2d322e333333333320372e34303635312c322e343732323820382e32383235382c2d382e33363232372031332e33393733332c2d372e31393330372043203535392e36303033312c3638312e3833363137202d3434352e38393539352c3735342e3032352031302e3533373632352c3139302e3136353532205a206d203231322e3435353236352c312e3637343137206320302c2d392e36323920302e37383439362c2d31312e3133313820342e32303031322c2d382e303431313220312e39333231362c312e373438353920322e38303935392c312e383630373120342e33373735352c302e353539343120322e34353332342c2d322e30333620362e39393838392c2d302e363839373320382e37353538372c322e353933313920312e303831372c322e3032313220302e36303633332c332e3030323234202d322e35343035382c352e3234333033202d322e313239322c312e3531363133202d352e33353836382c322e37353636202d372e31373636312c322e37353636202d322e31383339392c30202d332e35343139312c302e3930343636202d342e30303236382c322e3636363636202d312e35323233392c352e3832313632202d332e36313336372c322e3437373934202d332e36313336372c2d352e3737373737207a206d20332e34393337392c2d33302e3838363733206320332e38313431352c2d31302e3738303535202d362e34373739342c2d32322e3732353834202d31302e39363631372c2d31372e3337303832202d342e36333233362c372e3934353837202d31342e383534362c352e3533393832202d32302e38323135352c31312e30313638202d332e31333033392c322e3937303434202d332e37343231372c332e3134323534202d342e3436362c312e323536323720302e34323232322c2d31302e37363831352031342e32313138322c2d31322e39353135372031382e30393332372c2d31372e313135343620302c2d322e3039373636202d342e39313732322c2d312e3133323337202d31312e31373135322c322e3139333038206c202d362e32333533352c332e3331353337202d312e353136362c2d332e3332383535206320332e30323931382c2d32312e33303334312033332e35313137372c2d31302e383630372034312e39303330352c2d302e3033373520322e33363536342c332e3338353732202d302e38323230342c33322e36383235202d332e36353930342c33332e3632383733202d302e38323235362c302e3237343334202d312e32363030342c2d342e3833383436202d312e31363030392c2d31332e3535373932207a206d2033372e31363534382c2d32332e33343336372063202d332e30363536352c2d332e3338373532202d312e38303530382c2d342e363336373720342e37383435352c2d342e373431353320352e36343131362c2d302e3038393720362e37313336382c312e373335303620332e31323736312c352e3332313133202d322e38303038312c322e3830303832202d342e39393836312c322e3633393832202d372e39313231362c2d302e35373936207a206d202d31322e33383131332c2d392e3531373837206320312e33353837372c2d342e313333333920392e32393830312c2d372e383037332031362e38373134322c2d372e3830373320362e32383536332c3020372e31323239382c302e323733353120352e343639352c312e3738363536202d322e31383536322c312e3939393938202d31312e36313238332c352e3533363534202d31382e34343337312c362e3931393035202d332e34363137352c302e3730303633202d342e33353531332c302e34393437202d332e38393732312c2d302e3839383331207a22207472616e73666f726d3d227472616e736c617465282d343020333029222f3e\n\nsub_0: assembly {\n        /* \"SVG-MVP_football_ERC1155/contracts/players.sol\":11208:14266  contract PajtimKasami {... */\n      mstore(0x40, 0x80)\n      callvalue\n      dup1\n      iszero\n      tag_1\n      jumpi\n      0x00\n      dup1\n      revert\n    tag_1:\n      pop\n      jumpi(tag_2, lt(calldatasize, 0x04))\n      shr(0xe0, calldataload(0x00))\n      dup1\n      0xbd85f55f\n      eq\n      tag_3\n      jumpi\n    tag_2:\n      0x00\n      dup1\n      revert\n        /* \"SVG-MVP_football_ERC1155/contracts/players.sol\":11234:14263  string public svg = '<path style=\"fill:#0f3b86\"    d=\"M 10.537625,190.16552 C 20.38253,127.11156 168.96328,80.53315 188.41384,58.17855 c 2.47164,-2.97814 14.10572,-11.56462 19.24572,-14.20421 16.80935,-8.632255 47.4156,-8.552707 64.10929,0.16662 17.08619,8.92434 17.96388,9.68862 24.70694,21.51465 5.56801,9.76523 8.29333,18.62851 5.72798,18.62851 -2.54692,0 -13.13146,-9.67448 -20.97525,-19.17176 -12.6041,-9.67349 -24.64805,-7.18641 -31.32437,0.0733 -4.47195,5.79481 -10.83116,6.96042 -16.91126,8.4991 -3.66666,0.92715 -9.06666,3.03469 -12,4.68341 -3.32394,1.86826 -8.85778,3.33542 -14.68798,3.89413 -8.36083,0.80123 -9.74611,0.58856 -13.0392,-2.00179 -2.02651,-1.59404 -4.59459,-2.54905 -5.70687,-2.12223 -1.11227,0.42682 -3.85119,4.68425 -6.08647,9.46095 -3.34965,7.15803 -4.62809,8.68491 -7.27182,8.68491 -3.13158,0 -3.20766,0.26373 -3.20766,11.12005 0,7.22984 1.00442,14.80964 2.8711,21.66667 3.51746,12.92102 4.65158,23.21329 2.55792,23.21329 -0.82226,0 -2.08386,-1.54877 -2.80355,-3.44171 -9.95732,-6.09293 -3.0966,32.32084 -1.38749,36.23042 2.68608,5.99954 9.70634,12.54462 13.45538,12.54462 6.90946,5.93404 29.76413,36.60037 29.86966,22.2107 -1.17374,-3.05872 8.1815,-8.4347 16.43698,-9.44548 7.55963,-0.92558 8.16992,-0.36219 4.80764,4.43813 -1.96968,2.81211 -2.91765,3.05516 -9.33333,2.39301 -17.29248,-2.8172 1.93279,12.07305 7.06128,12.40364 2.43965,0 3.17013,0.94774 3.85376,5 0.54759,8.2974 6.16684,13.13419 14.11483,12.53402 6.93196,0.84385 10.73909,2.07711 15.63457,-4.22266 6.96908,-7.67625 12.10429,1.92856 11.15991,-13.18192 0.10931,-4.99295 3.77619,-8.02114 5.44254,-12.46277 0.6349,-1.75984 2.34202,-2.33333 6.94566,-2.33333 7.40651,2.47228 8.28258,-8.36227 13.39733,-7.19307 C 559.60031,681.83617 -445.89595,754.025 10.537625,190.16552 Z m 212.455265,1.67417 c 0,-9.629 0.78496,-11.1318 4.20012,-8.04112 1.93216,1.74859 2.80959,1.86071 4.37755,0.55941 2.45324,-2.036 6.99889,-0.68973 8.75587,2.59319 1.0817,2.0212 0.60633,3.00224 -2.54058,5.24303 -2.1292,1.51613 -5.35868,2.7566 -7.17661,2.7566 -2.18399,0 -3.54191,0.90466 -4.00268,2.66666 -1.52239,5.82162 -3.61367,2.47794 -3.61367,-5.77777 z m 3.49379,-30.88673 c 3.81415,-10.78055 -6.47794,-22.72584 -10.96617,-17.37082 -4.63236,7.94587 -14.8546,5.53982 -20.82155,11.0168 -3.13039,2.97044 -3.74217,3.14254 -4.466,1.25627 0.42222,-10.76815 14.21182,-12.95157 18.09327,-17.11546 0,-2.09766 -4.91722,-1.13237 -11.17152,2.19308 l -6.23535,3.31537 -1.5166,-3.32855 c 3.02918,-21.30341 33.51177,-10.8607 41.90305,-0.0375 2.36564,3.38572 -0.82204,32.6825 -3.65904,33.62873 -0.82256,0.27434 -1.26004,-4.83846 -1.16009,-13.55792 z m 37.16548,-23.34367 c -3.06565,-3.38752 -1.80508,-4.63677 4.78455,-4.74153 5.64116,-0.0897 6.71368,1.73506 3.12761,5.32113 -2.80081,2.80082 -4.99861,2.63982 -7.91216,-0.5796 z m -12.38113,-9.51787 c 1.35877,-4.13339 9.29801,-7.8073 16.87142,-7.8073 6.28563,0 7.12298,0.27351 5.4695,1.78656 -2.18562,1.99998 -11.61283,5.53654 -18.44371,6.91905 -3.46175,0.70063 -4.35513,0.4947 -3.89721,-0.89831 z\" transform=\"translate(-40 30)\"/>' */\n    tag_3:\n      tag_4\n      tag_5\n      jump\t// in\n    tag_4:\n      mload(0x40)\n      tag_6\n      swap2\n      swap1\n      tag_7\n      jump\t// in\n    tag_6:\n      mload(0x40)\n      dup1\n      swap2\n      sub\n      swap1\n      return\n    tag_5:\n      0x00\n      dup1\n      sload\n      tag_8\n      swap1\n      tag_9\n      jump\t// in\n    tag_8:\n      dup1\n      0x1f\n      add\n      0x20\n      dup1\n      swap2\n      div\n      mul\n      0x20\n      add\n      mload(0x40)\n      swap1\n      dup2\n      add\n      0x40\n      mstore\n      dup1\n      swap3\n      swap2\n      swap1\n      dup2\n      dup2\n      mstore\n      0x20\n      add\n      dup3\n      dup1\n      sload\n      tag_10\n      swap1\n      tag_9\n      jump\t// in\n    tag_10:\n      dup1\n      iszero\n      tag_11\n      jumpi\n      dup1\n      0x1f\n      lt\n      tag_12\n      jumpi\n      0x0100\n      dup1\n      dup4\n      sload\n      div\n      mul\n      dup4\n      mstore\n      swap2\n      0x20\n      add\n      swap2\n      jump(tag_11)\n    tag_12:\n      dup3\n      add\n      swap2\n      swap1\n      0x00\n      mstore\n      keccak256(0x00, 0x20)\n      swap1\n    tag_13:\n      dup2\n      sload\n      dup2\n      mstore\n      swap1\n      0x01\n      add\n      swap1\n      0x20\n      add\n      dup1\n      dup4\n      gt\n      tag_13\n      jumpi\n      dup3\n      swap1\n      sub\n      0x1f\n      and\n      dup3\n      add\n      swap2\n    tag_11:\n      pop\n      pop\n      pop\n      pop\n      pop\n      dup2\n      jump\t// out\n        /* \"#utility.yul\":7:371   */\n    tag_15:\n        /* \"#utility.yul\":95:98   */\n      0x00\n        /* \"#utility.yul\":123:162   */\n      tag_17\n        /* \"#utility.yul\":156:161   */\n      dup3\n        /* \"#utility.yul\":123:162   */\n      tag_18\n      jump\t// in\n    tag_17:\n        /* \"#utility.yul\":178:249   */\n      tag_19\n        /* \"#utility.yul\":242:248   */\n      dup2\n        /* \"#utility.yul\":237:240   */\n      dup6\n        /* \"#utility.yul\":178:249   */\n      tag_20\n      jump\t// in\n    tag_19:\n        /* \"#utility.yul\":171:249   */\n      swap4\n      pop\n        /* \"#utility.yul\":258:310   */\n      tag_21\n        /* \"#utility.yul\":303:309   */\n      dup2\n        /* \"#utility.yul\":298:301   */\n      dup6\n        /* \"#utility.yul\":291:295   */\n      0x20\n        /* \"#utility.yul\":284:289   */\n      dup7\n        /* \"#utility.yul\":280:296   */\n      add\n        /* \"#utility.yul\":258:310   */\n      tag_22\n      jump\t// in\n    tag_21:\n        /* \"#utility.yul\":335:364   */\n      tag_23\n        /* \"#utility.yul\":357:363   */\n      dup2\n        /* \"#utility.yul\":335:364   */\n      tag_24\n      jump\t// in\n    tag_23:\n        /* \"#utility.yul\":330:333   */\n      dup5\n        /* \"#utility.yul\":326:365   */\n      add\n        /* \"#utility.yul\":319:365   */\n      swap2\n      pop\n        /* \"#utility.yul\":99:371   */\n      pop\n        /* \"#utility.yul\":7:371   */\n      swap3\n      swap2\n      pop\n      pop\n      jump\t// out\n        /* \"#utility.yul\":377:690   */\n    tag_7:\n        /* \"#utility.yul\":490:494   */\n      0x00\n        /* \"#utility.yul\":528:530   */\n      0x20\n        /* \"#utility.yul\":517:526   */\n      dup3\n        /* \"#utility.yul\":513:531   */\n      add\n        /* \"#utility.yul\":505:531   */\n      swap1\n      pop\n        /* \"#utility.yul\":577:586   */\n      dup2\n        /* \"#utility.yul\":571:575   */\n      dup2\n        /* \"#utility.yul\":567:587   */\n      sub\n        /* \"#utility.yul\":563:564   */\n      0x00\n        /* \"#utility.yul\":552:561   */\n      dup4\n        /* \"#utility.yul\":548:565   */\n      add\n        /* \"#utility.yul\":541:588   */\n      mstore\n        /* \"#utility.yul\":605:683   */\n      tag_26\n        /* \"#utility.yul\":678:682   */\n      dup2\n        /* \"#utility.yul\":669:675   */\n      dup5\n        /* \"#utility.yul\":605:683   */\n      tag_15\n      jump\t// in\n    tag_26:\n        /* \"#utility.yul\":597:683   */\n      swap1\n      pop\n        /* \"#utility.yul\":377:690   */\n      swap3\n      swap2\n      pop\n      pop\n      jump\t// out\n        /* \"#utility.yul\":696:795   */\n    tag_18:\n        /* \"#utility.yul\":748:754   */\n      0x00\n        /* \"#utility.yul\":782:787   */\n      dup2\n        /* \"#utility.yul\":776:788   */\n      mload\n        /* \"#utility.yul\":766:788   */\n      swap1\n      pop\n        /* \"#utility.yul\":696:795   */\n      swap2\n      swap1\n      pop\n      jump\t// out\n        /* \"#utility.yul\":801:970   */\n    tag_20:\n        /* \"#utility.yul\":885:896   */\n      0x00\n        /* \"#utility.yul\":919:925   */\n      dup3\n        /* \"#utility.yul\":914:917   */\n      dup3\n        /* \"#utility.yul\":907:926   */\n      mstore\n        /* \"#utility.yul\":959:963   */\n      0x20\n        /* \"#utility.yul\":954:957   */\n      dup3\n        /* \"#utility.yul\":950:964   */\n      add\n        /* \"#utility.yul\":935:964   */\n      swap1\n      pop\n        /* \"#utility.yul\":801:970   */\n      swap3\n      swap2\n      pop\n      pop\n      jump\t// out\n        /* \"#utility.yul\":976:1283   */\n    tag_22:\n        /* \"#utility.yul\":1044:1045   */\n      0x00\n        /* \"#utility.yul\":1054:1167   */\n    tag_30:\n        /* \"#utility.yul\":1068:1074   */\n      dup4\n        /* \"#utility.yul\":1065:1066   */\n      dup2\n        /* \"#utility.yul\":1062:1075   */\n      lt\n        /* \"#utility.yul\":1054:1167   */\n      iszero\n      tag_32\n      jumpi\n        /* \"#utility.yul\":1153:1154   */\n      dup1\n        /* \"#utility.yul\":1148:1151   */\n      dup3\n        /* \"#utility.yul\":1144:1155   */\n      add\n        /* \"#utility.yul\":1138:1156   */\n      mload\n        /* \"#utility.yul\":1134:1135   */\n      dup2\n        /* \"#utility.yul\":1129:1132   */\n      dup5\n        /* \"#utility.yul\":1125:1136   */\n      add\n        /* \"#utility.yul\":1118:1157   */\n      mstore\n        /* \"#utility.yul\":1090:1092   */\n      0x20\n        /* \"#utility.yul\":1087:1088   */\n      dup2\n        /* \"#utility.yul\":1083:1093   */\n      add\n        /* \"#utility.yul\":1078:1093   */\n      swap1\n      pop\n        /* \"#utility.yul\":1054:1167   */\n      jump(tag_30)\n    tag_32:\n        /* \"#utility.yul\":1185:1191   */\n      dup4\n        /* \"#utility.yul\":1182:1183   */\n      dup2\n        /* \"#utility.yul\":1179:1192   */\n      gt\n        /* \"#utility.yul\":1176:1277   */\n      iszero\n      tag_33\n      jumpi\n        /* \"#utility.yul\":1265:1266   */\n      0x00\n        /* \"#utility.yul\":1256:1262   */\n      dup5\n        /* \"#utility.yul\":1251:1254   */\n      dup5\n        /* \"#utility.yul\":1247:1263   */\n      add\n        /* \"#utility.yul\":1240:1267   */\n      mstore\n        /* \"#utility.yul\":1176:1277   */\n    tag_33:\n        /* \"#utility.yul\":1025:1283   */\n      pop\n        /* \"#utility.yul\":976:1283   */\n      pop\n      pop\n      pop\n      jump\t// out\n        /* \"#utility.yul\":1289:1609   */\n    tag_9:\n        /* \"#utility.yul\":1333:1339   */\n      0x00\n        /* \"#utility.yul\":1370:1371   */\n      0x02\n        /* \"#utility.yul\":1364:1368   */\n      dup3\n        /* \"#utility.yul\":1360:1372   */\n      div\n        /* \"#utility.yul\":1350:1372   */\n      swap1\n      pop\n        /* \"#utility.yul\":1417:1418   */\n      0x01\n        /* \"#utility.yul\":1411:1415   */\n      dup3\n        /* \"#utility.yul\":1407:1419   */\n      and\n        /* \"#utility.yul\":1438:1456   */\n      dup1\n        /* \"#utility.yul\":1428:1509   */\n      tag_35\n      jumpi\n        /* \"#utility.yul\":1494:1498   */\n      0x7f\n        /* \"#utility.yul\":1486:1492   */\n      dup3\n        /* \"#utility.yul\":1482:1499   */\n      and\n        /* \"#utility.yul\":1472:1499   */\n      swap2\n      pop\n        /* \"#utility.yul\":1428:1509   */\n    tag_35:\n        /* \"#utility.yul\":1556:1558   */\n      0x20\n        /* \"#utility.yul\":1548:1554   */\n      dup3\n        /* \"#utility.yul\":1545:1559   */\n      lt\n        /* \"#utility.yul\":1525:1543   */\n      dup2\n        /* \"#utility.yul\":1522:1560   */\n      eq\n        /* \"#utility.yul\":1519:1603   */\n      iszero\n      tag_36\n      jumpi\n        /* \"#utility.yul\":1575:1593   */\n      tag_37\n      tag_38\n      jump\t// in\n    tag_37:\n        /* \"#utility.yul\":1519:1603   */\n    tag_36:\n        /* \"#utility.yul\":1340:1609   */\n      pop\n        /* \"#utility.yul\":1289:1609   */\n      swap2\n      swap1\n      pop\n      jump\t// out\n        /* \"#utility.yul\":1615:1795   */\n    tag_38:\n        /* \"#utility.yul\":1663:1740   */\n      0x4e487b7100000000000000000000000000000000000000000000000000000000\n        /* \"#utility.yul\":1660:1661   */\n      0x00\n        /* \"#utility.yul\":1653:1741   */\n      mstore\n        /* \"#utility.yul\":1760:1764   */\n      0x22\n        /* \"#utility.yul\":1757:1758   */\n      0x04\n        /* \"#utility.yul\":1750:1765   */\n      mstore\n        /* \"#utility.yul\":1784:1788   */\n      0x24\n        /* \"#utility.yul\":1781:1782   */\n      0x00\n        /* \"#utility.yul\":1774:1789   */\n      revert\n        /* \"#utility.yul\":1801:1903   */\n    tag_24:\n        /* \"#utility.yul\":1842:1848   */\n      0x00\n        /* \"#utility.yul\":1893:1895   */\n      0x1f\n        /* \"#utility.yul\":1889:1896   */\n      not\n        /* \"#utility.yul\":1884:1886   */\n      0x1f\n        /* \"#utility.yul\":1877:1882   */\n      dup4\n        /* \"#utility.yul\":1873:1887   */\n      add\n        /* \"#utility.yul\":1869:1897   */\n      and\n        /* \"#utility.yul\":1859:1897   */\n      swap1\n      pop\n        /* \"#utility.yul\":1801:1903   */\n      swap2\n      swap1\n      pop\n      jump\t// out\n\n    auxdata: 0xa26469706673582212209b7f9294cf05ff452f177fc7450dff9c172ef0570410eeae8451923731049f0464736f6c63430008070033\n}\n",
				"bytecode": {
					"linkReferences": {},
					"object": "608060405260405180610be00160405280610bbf8152602001610389610bbf913960009080519060200190610035929190610048565b5034801561004257600080fd5b5061014c565b828054610054906100eb565b90600052602060002090601f01602090048101928261007657600085556100bd565b82601f1061008f57805160ff19168380011785556100bd565b828001600101855582156100bd579182015b828111156100bc5782518255916020019190600101906100a1565b5b5090506100ca91906100ce565b5090565b5b808211156100e75760008160009055506001016100cf565b5090565b6000600282049050600182168061010357607f821691505b602082108114156101175761011661011d565b5b50919050565b7f4e487b7100000000000000000000000000000000000000000000000000000000600052602260045260246000fd5b61022e8061015b6000396000f3fe608060405234801561001057600080fd5b506004361061002b5760003560e01c8063bd85f55f14610030575b600080fd5b61003861004e565b6040516100459190610115565b60405180910390f35b6000805461005b90610186565b80601f016020809104026020016040519081016040528092919081815260200182805461008790610186565b80156100d45780601f106100a9576101008083540402835291602001916100d4565b820191906000526020600020905b8154815290600101906020018083116100b757829003601f168201915b505050505081565b60006100e782610137565b6100f18185610142565b9350610101818560208601610153565b61010a816101e7565b840191505092915050565b6000602082019050818103600083015261012f81846100dc565b905092915050565b600081519050919050565b600082825260208201905092915050565b60005b83811015610171578082015181840152602081019050610156565b83811115610180576000848401525b50505050565b6000600282049050600182168061019e57607f821691505b602082108114156101b2576101b16101b8565b5b50919050565b7f4e487b7100000000000000000000000000000000000000000000000000000000600052602260045260246000fd5b6000601f19601f830116905091905056fea26469706673582212209b7f9294cf05ff452f177fc7450dff9c172ef0570410eeae8451923731049f0464736f6c634300080700333c70617468207374796c653d2266696c6c3a233066336238362220202020643d224d2031302e3533373632352c3139302e313635353220432032302e33383235332c3132372e3131313536203136382e39363332382c38302e3533333135203138382e34313338342c35382e3137383535206320322e34373136342c2d322e39373831342031342e31303537322c2d31312e35363436322031392e32343537322c2d31342e32303432312031362e38303933352c2d382e3633323235352034372e343135362c2d382e3535323730372036342e31303932392c302e31363636322031372e30383631392c382e39323433342031372e39363338382c392e36383836322032342e37303639342c32312e353134363520352e35363830312c392e373635323320382e32393333332c31382e363238353120352e37323739382c31382e3632383531202d322e35343639322c30202d31332e31333134362c2d392e3637343438202d32302e39373532352c2d31392e3137313736202d31322e363034312c2d392e3637333439202d32342e36343830352c2d372e3138363431202d33312e33323433372c302e30373333202d342e34373139352c352e3739343831202d31302e38333131362c362e3936303432202d31362e39313132362c382e34393931202d332e36363636362c302e3932373135202d392e30363636362c332e3033343639202d31322c342e3638333431202d332e33323339342c312e3836383236202d382e38353737382c332e3333353432202d31342e36383739382c332e3839343133202d382e33363038332c302e3830313233202d392e37343631312c302e3538383536202d31332e303339322c2d322e3030313739202d322e30323635312c2d312e3539343034202d342e35393435392c2d322e3534393035202d352e37303638372c2d322e3132323233202d312e31313232372c302e3432363832202d332e38353131392c342e3638343235202d362e30383634372c392e3436303935202d332e33343936352c372e3135383033202d342e36323830392c382e3638343931202d372e32373138322c382e3638343931202d332e31333135382c30202d332e32303736362c302e3236333733202d332e32303736362c31312e313230303520302c372e323239383420312e30303434322c31342e383039363420322e383731312c32312e363636363720332e35313734362c31322e393231303220342e36353135382c32332e323133323920322e35353739322c32332e3231333239202d302e38323232362c30202d322e30383338362c2d312e3534383737202d322e38303335352c2d332e3434313731202d392e39353733322c2d362e3039323933202d332e303936362c33322e3332303834202d312e33383734392c33362e323330343220322e36383630382c352e393939353420392e37303633342c31322e35343436322031332e34353533382c31322e353434363220362e39303934362c352e39333430342032392e37363431332c33362e36303033372032392e38363936362c32322e32313037202d312e31373337342c2d332e303538373220382e313831352c2d382e343334372031362e34333639382c2d392e343435343820372e35353936332c2d302e393235353820382e31363939322c2d302e333632313920342e38303736342c342e3433383133202d312e39363936382c322e3831323131202d322e39313736352c332e3035353136202d392e33333333332c322e3339333031202d31372e32393234382c2d322e3831373220312e39333237392c31322e303733303520372e30363132382c31322e343033363420322e34333936352c3020332e31373031332c302e393437373420332e38353337362c3520302e35343735392c382e3239373420362e31363638342c31332e31333431392031342e31313438332c31322e353334303220362e39333139362c302e38343338352031302e37333930392c322e30373731312031352e36333435372c2d342e323232363620362e39363930382c2d372e36373632352031322e31303432392c312e39323835362031312e31353939312c2d31332e313831393220302e31303933312c2d342e393932393520332e37373631392c2d382e303231313420352e34343235342c2d31322e343632373720302e363334392c2d312e373539383420322e33343230322c2d322e333333333320362e39343536362c2d322e333333333320372e34303635312c322e343732323820382e32383235382c2d382e33363232372031332e33393733332c2d372e31393330372043203535392e36303033312c3638312e3833363137202d3434352e38393539352c3735342e3032352031302e3533373632352c3139302e3136353532205a206d203231322e3435353236352c312e3637343137206320302c2d392e36323920302e37383439362c2d31312e3133313820342e32303031322c2d382e303431313220312e39333231362c312e373438353920322e38303935392c312e383630373120342e33373735352c302e353539343120322e34353332342c2d322e30333620362e39393838392c2d302e363839373320382e37353538372c322e353933313920312e303831372c322e3032313220302e36303633332c332e3030323234202d322e35343035382c352e3234333033202d322e313239322c312e3531363133202d352e33353836382c322e37353636202d372e31373636312c322e37353636202d322e31383339392c30202d332e35343139312c302e3930343636202d342e30303236382c322e3636363636202d312e35323233392c352e3832313632202d332e36313336372c322e3437373934202d332e36313336372c2d352e3737373737207a206d20332e34393337392c2d33302e3838363733206320332e38313431352c2d31302e3738303535202d362e34373739342c2d32322e3732353834202d31302e39363631372c2d31372e3337303832202d342e36333233362c372e3934353837202d31342e383534362c352e3533393832202d32302e38323135352c31312e30313638202d332e31333033392c322e3937303434202d332e37343231372c332e3134323534202d342e3436362c312e323536323720302e34323232322c2d31302e37363831352031342e32313138322c2d31322e39353135372031382e30393332372c2d31372e313135343620302c2d322e3039373636202d342e39313732322c2d312e3133323337202d31312e31373135322c322e3139333038206c202d362e32333533352c332e3331353337202d312e353136362c2d332e3332383535206320332e30323931382c2d32312e33303334312033332e35313137372c2d31302e383630372034312e39303330352c2d302e3033373520322e33363536342c332e3338353732202d302e38323230342c33322e36383235202d332e36353930342c33332e3632383733202d302e38323235362c302e3237343334202d312e32363030342c2d342e3833383436202d312e31363030392c2d31332e3535373932207a206d2033372e31363534382c2d32332e33343336372063202d332e30363536352c2d332e3338373532202d312e38303530382c2d342e363336373720342e37383435352c2d342e373431353320352e36343131362c2d302e3038393720362e37313336382c312e373335303620332e31323736312c352e3332313133202d322e38303038312c322e3830303832202d342e39393836312c322e3633393832202d372e39313231362c2d302e35373936207a206d202d31322e33383131332c2d392e3531373837206320312e33353837372c2d342e313333333920392e32393830312c2d372e383037332031362e38373134322c2d372e3830373320362e32383536332c3020372e31323239382c302e323733353120352e343639352c312e3738363536202d322e31383536322c312e3939393938202d31312e36313238332c352e3533363534202d31382e34343337312c362e3931393035202d332e34363137352c302e3730303633202d342e33353531332c302e34393437202d332e38393732312c2d302e3839383331207a22207472616e73666f726d3d227472616e736c617465282d343020333029222f3e",
					"opcodes": "PUSH1 0x80 PUSH1 0x40 MSTORE PUSH1 0x40 MLOAD DUP1 PUSH2 0xBE0 ADD PUSH1 0x40 MSTORE DUP1 PUSH2 0xBBF DUP2 MSTORE PUSH1 0x20 ADD PUSH2 0x389 PUSH2 0xBBF SWAP2 CODECOPY PUSH1 0x0 SWAP1 DUP1 MLOAD SWAP1 PUSH1 0x20 ADD SWAP1 PUSH2 0x35 SWAP3 SWAP2 SWAP1 PUSH2 0x48 JUMP JUMPDEST POP CALLVALUE DUP1 ISZERO PUSH2 0x42 JUMPI PUSH1 0x0 DUP1 REVERT JUMPDEST POP PUSH2 0x14C JUMP JUMPDEST DUP3 DUP1 SLOAD PUSH2 0x54 SWAP1 PUSH2 0xEB JUMP JUMPDEST SWAP1 PUSH1 0x0 MSTORE PUSH1 0x20 PUSH1 0x0 KECCAK256 SWAP1 PUSH1 0x1F ADD PUSH1 0x20 SWAP1 DIV DUP2 ADD SWAP3 DUP3 PUSH2 0x76 JUMPI PUSH1 0x0 DUP6 SSTORE PUSH2 0xBD JUMP JUMPDEST DUP3 PUSH1 0x1F LT PUSH2 0x8F JUMPI DUP1 MLOAD PUSH1 0xFF NOT AND DUP4 DUP1 ADD OR DUP6 SSTORE PUSH2 0xBD JUMP JUMPDEST DUP3 DUP1 ADD PUSH1 0x1 ADD DUP6 SSTORE DUP3 ISZERO PUSH2 0xBD JUMPI SWAP2 DUP3 ADD JUMPDEST DUP3 DUP2 GT ISZERO PUSH2 0xBC JUMPI DUP3 MLOAD DUP3 SSTORE SWAP2 PUSH1 0x20 ADD SWAP2 SWAP1 PUSH1 0x1 ADD SWAP1 PUSH2 0xA1 JUMP JUMPDEST JUMPDEST POP SWAP1 POP PUSH2 0xCA SWAP2 SWAP1 PUSH2 0xCE JUMP JUMPDEST POP SWAP1 JUMP JUMPDEST JUMPDEST DUP1 DUP3 GT ISZERO PUSH2 0xE7 JUMPI PUSH1 0x0 DUP2 PUSH1 0x0 SWAP1 SSTORE POP PUSH1 0x1 ADD PUSH2 0xCF JUMP JUMPDEST POP SWAP1 JUMP JUMPDEST PUSH1 0x0 PUSH1 0x2 DUP3 DIV SWAP1 POP PUSH1 0x1 DUP3 AND DUP1 PUSH2 0x103 JUMPI PUSH1 0x7F DUP3 AND SWAP2 POP JUMPDEST PUSH1 0x20 DUP3 LT DUP2 EQ ISZERO PUSH2 0x117 JUMPI PUSH2 0x116 PUSH2 0x11D JUMP JUMPDEST JUMPDEST POP SWAP2 SWAP1 POP JUMP JUMPDEST PUSH32 0x4E487B7100000000000000000000000000000000000000000000000000000000 PUSH1 0x0 MSTORE PUSH1 0x22 PUSH1 0x4 MSTORE PUSH1 0x24 PUSH1 0x0 REVERT JUMPDEST PUSH2 0x22E DUP1 PUSH2 0x15B PUSH1 0x0 CODECOPY PUSH1 0x0 RETURN INVALID PUSH1 0x80 PUSH1 0x40 MSTORE CALLVALUE DUP1 ISZERO PUSH2 0x10 JUMPI PUSH1 0x0 DUP1 REVERT JUMPDEST POP PUSH1 0x4 CALLDATASIZE LT PUSH2 0x2B JUMPI PUSH1 0x0 CALLDATALOAD PUSH1 0xE0 SHR DUP1 PUSH4 0xBD85F55F EQ PUSH2 0x30 JUMPI JUMPDEST PUSH1 0x0 DUP1 REVERT JUMPDEST PUSH2 0x38 PUSH2 0x4E JUMP JUMPDEST PUSH1 0x40 MLOAD PUSH2 0x45 SWAP2 SWAP1 PUSH2 0x115 JUMP JUMPDEST PUSH1 0x40 MLOAD DUP1 SWAP2 SUB SWAP1 RETURN JUMPDEST PUSH1 0x0 DUP1 SLOAD PUSH2 0x5B SWAP1 PUSH2 0x186 JUMP JUMPDEST DUP1 PUSH1 0x1F ADD PUSH1 0x20 DUP1 SWAP2 DIV MUL PUSH1 0x20 ADD PUSH1 0x40 MLOAD SWAP1 DUP2 ADD PUSH1 0x40 MSTORE DUP1 SWAP3 SWAP2 SWAP1 DUP2 DUP2 MSTORE PUSH1 0x20 ADD DUP3 DUP1 SLOAD PUSH2 0x87 SWAP1 PUSH2 0x186 JUMP JUMPDEST DUP1 ISZERO PUSH2 0xD4 JUMPI DUP1 PUSH1 0x1F LT PUSH2 0xA9 JUMPI PUSH2 0x100 DUP1 DUP4 SLOAD DIV MUL DUP4 MSTORE SWAP2 PUSH1 0x20 ADD SWAP2 PUSH2 0xD4 JUMP JUMPDEST DUP3 ADD SWAP2 SWAP1 PUSH1 0x0 MSTORE PUSH1 0x20 PUSH1 0x0 KECCAK256 SWAP1 JUMPDEST DUP2 SLOAD DUP2 MSTORE SWAP1 PUSH1 0x1 ADD SWAP1 PUSH1 0x20 ADD DUP1 DUP4 GT PUSH2 0xB7 JUMPI DUP3 SWAP1 SUB PUSH1 0x1F AND DUP3 ADD SWAP2 JUMPDEST POP POP POP POP POP DUP2 JUMP JUMPDEST PUSH1 0x0 PUSH2 0xE7 DUP3 PUSH2 0x137 JUMP JUMPDEST PUSH2 0xF1 DUP2 DUP6 PUSH2 0x142 JUMP JUMPDEST SWAP4 POP PUSH2 0x101 DUP2 DUP6 PUSH1 0x20 DUP7 ADD PUSH2 0x153 JUMP JUMPDEST PUSH2 0x10A DUP2 PUSH2 0x1E7 JUMP JUMPDEST DUP5 ADD SWAP2 POP POP SWAP3 SWAP2 POP POP JUMP JUMPDEST PUSH1 0x0 PUSH1 0x20 DUP3 ADD SWAP1 POP DUP2 DUP2 SUB PUSH1 0x0 DUP4 ADD MSTORE PUSH2 0x12F DUP2 DUP5 PUSH2 0xDC JUMP JUMPDEST SWAP1 POP SWAP3 SWAP2 POP POP JUMP JUMPDEST PUSH1 0x0 DUP2 MLOAD SWAP1 POP SWAP2 SWAP1 POP JUMP JUMPDEST PUSH1 0x0 DUP3 DUP3 MSTORE PUSH1 0x20 DUP3 ADD SWAP1 POP SWAP3 SWAP2 POP POP JUMP JUMPDEST PUSH1 0x0 JUMPDEST DUP4 DUP2 LT ISZERO PUSH2 0x171 JUMPI DUP1 DUP3 ADD MLOAD DUP2 DUP5 ADD MSTORE PUSH1 0x20 DUP2 ADD SWAP1 POP PUSH2 0x156 JUMP JUMPDEST DUP4 DUP2 GT ISZERO PUSH2 0x180 JUMPI PUSH1 0x0 DUP5 DUP5 ADD MSTORE JUMPDEST POP POP POP POP JUMP JUMPDEST PUSH1 0x0 PUSH1 0x2 DUP3 DIV SWAP1 POP PUSH1 0x1 DUP3 AND DUP1 PUSH2 0x19E JUMPI PUSH1 0x7F DUP3 AND SWAP2 POP JUMPDEST PUSH1 0x20 DUP3 LT DUP2 EQ ISZERO PUSH2 0x1B2 JUMPI PUSH2 0x1B1 PUSH2 0x1B8 JUMP JUMPDEST JUMPDEST POP SWAP2 SWAP1 POP JUMP JUMPDEST PUSH32 0x4E487B7100000000000000000000000000000000000000000000000000000000 PUSH1 0x0 MSTORE PUSH1 0x22 PUSH1 0x4 MSTORE PUSH1 0x24 PUSH1 0x0 REVERT JUMPDEST PUSH1 0x0 PUSH1 0x1F NOT PUSH1 0x1F DUP4 ADD AND SWAP1 POP SWAP2 SWAP1 POP JUMP INVALID LOG2 PUSH5 0x6970667358 0x22 SLT KECCAK256 SWAP12 PUSH32 0x9294CF05FF452F177FC7450DFF9C172EF0570410EEAE8451923731049F046473 PUSH16 0x6C634300080700333C70617468207374 PUSH26 0x6C653D2266696C6C3A233066336238362220202020643D224D20 BALANCE ADDRESS 0x2E CALLDATALOAD CALLER CALLDATACOPY CALLDATASIZE ORIGIN CALLDATALOAD 0x2C BALANCE CODECOPY ADDRESS 0x2E BALANCE CALLDATASIZE CALLDATALOAD CALLDATALOAD ORIGIN KECCAK256 NUMBER KECCAK256 ORIGIN ADDRESS 0x2E CALLER CODESIZE ORIGIN CALLDATALOAD CALLER 0x2C BALANCE ORIGIN CALLDATACOPY 0x2E BALANCE BALANCE BALANCE CALLDATALOAD CALLDATASIZE KECCAK256 BALANCE CALLDATASIZE CODESIZE 0x2E CODECOPY CALLDATASIZE CALLER ORIGIN CODESIZE 0x2C CODESIZE ADDRESS 0x2E CALLDATALOAD CALLER CALLER BALANCE CALLDATALOAD KECCAK256 BALANCE CODESIZE CODESIZE 0x2E CALLVALUE BALANCE CALLER CODESIZE CALLVALUE 0x2C CALLDATALOAD CODESIZE 0x2E BALANCE CALLDATACOPY CODESIZE CALLDATALOAD CALLDATALOAD KECCAK256 PUSH4 0x20322E34 CALLDATACOPY BALANCE CALLDATASIZE CALLVALUE 0x2C 0x2D ORIGIN 0x2E CODECOPY CALLDATACOPY CODESIZE BALANCE CALLVALUE KECCAK256 BALANCE CALLVALUE 0x2E BALANCE ADDRESS CALLDATALOAD CALLDATACOPY ORIGIN 0x2C 0x2D BALANCE BALANCE 0x2E CALLDATALOAD CALLDATASIZE CALLVALUE CALLDATASIZE ORIGIN KECCAK256 BALANCE CODECOPY 0x2E ORIGIN CALLVALUE CALLDATALOAD CALLDATACOPY ORIGIN 0x2C 0x2D BALANCE CALLVALUE 0x2E ORIGIN ADDRESS CALLVALUE ORIGIN BALANCE KECCAK256 BALANCE CALLDATASIZE 0x2E CODESIZE ADDRESS CODECOPY CALLER CALLDATALOAD 0x2C 0x2D CODESIZE 0x2E CALLDATASIZE CALLER ORIGIN ORIGIN CALLDATALOAD CALLDATALOAD KECCAK256 CALLVALUE CALLDATACOPY 0x2E CALLVALUE BALANCE CALLDATALOAD CALLDATASIZE 0x2C 0x2D CODESIZE 0x2E CALLDATALOAD CALLDATALOAD ORIGIN CALLDATACOPY ADDRESS CALLDATACOPY KECCAK256 CALLDATASIZE CALLVALUE 0x2E BALANCE ADDRESS CODECOPY ORIGIN CODECOPY 0x2C ADDRESS 0x2E BALANCE CALLDATASIZE CALLDATASIZE CALLDATASIZE ORIGIN KECCAK256 BALANCE CALLDATACOPY 0x2E ADDRESS CODESIZE CALLDATASIZE BALANCE CODECOPY 0x2C CODESIZE 0x2E CODECOPY ORIGIN CALLVALUE CALLER CALLVALUE KECCAK256 BALANCE CALLDATACOPY 0x2E CODECOPY CALLDATASIZE CALLER CODESIZE CODESIZE 0x2C CODECOPY 0x2E CALLDATASIZE CODESIZE CODESIZE CALLDATASIZE ORIGIN KECCAK256 ORIGIN CALLVALUE 0x2E CALLDATACOPY ADDRESS CALLDATASIZE CODECOPY CALLVALUE 0x2C ORIGIN BALANCE 0x2E CALLDATALOAD BALANCE CALLVALUE CALLDATASIZE CALLDATALOAD KECCAK256 CALLDATALOAD 0x2E CALLDATALOAD CALLDATASIZE CODESIZE ADDRESS BALANCE 0x2C CODECOPY 0x2E CALLDATACOPY CALLDATASIZE CALLDATALOAD ORIGIN CALLER KECCAK256 CODESIZE 0x2E ORIGIN CODECOPY CALLER CALLER CALLER 0x2C BALANCE CODESIZE 0x2E CALLDATASIZE ORIGIN CODESIZE CALLDATALOAD BALANCE KECCAK256 CALLDATALOAD 0x2E CALLDATACOPY ORIGIN CALLDATACOPY CODECOPY CODESIZE 0x2C BALANCE CODESIZE 0x2E CALLDATASIZE ORIGIN CODESIZE CALLDATALOAD BALANCE KECCAK256 0x2D ORIGIN 0x2E CALLDATALOAD CALLVALUE CALLDATASIZE CODECOPY ORIGIN 0x2C ADDRESS KECCAK256 0x2D BALANCE CALLER 0x2E BALANCE CALLER BALANCE CALLVALUE CALLDATASIZE 0x2C 0x2D CODECOPY 0x2E CALLDATASIZE CALLDATACOPY CALLVALUE CALLVALUE CODESIZE KECCAK256 0x2D ORIGIN ADDRESS 0x2E CODECOPY CALLDATACOPY CALLDATALOAD ORIGIN CALLDATALOAD 0x2C 0x2D BALANCE CODECOPY 0x2E BALANCE CALLDATACOPY BALANCE CALLDATACOPY CALLDATASIZE KECCAK256 0x2D BALANCE ORIGIN 0x2E CALLDATASIZE ADDRESS CALLVALUE BALANCE 0x2C 0x2D CODECOPY 0x2E CALLDATASIZE CALLDATACOPY CALLER CALLVALUE CODECOPY KECCAK256 0x2D ORIGIN CALLVALUE 0x2E CALLDATASIZE CALLVALUE CODESIZE ADDRESS CALLDATALOAD 0x2C 0x2D CALLDATACOPY 0x2E BALANCE CODESIZE CALLDATASIZE CALLVALUE BALANCE KECCAK256 0x2D CALLER BALANCE 0x2E CALLER ORIGIN CALLVALUE CALLER CALLDATACOPY 0x2C ADDRESS 0x2E ADDRESS CALLDATACOPY CALLER CALLER KECCAK256 0x2D CALLVALUE 0x2E CALLVALUE CALLDATACOPY BALANCE CODECOPY CALLDATALOAD 0x2C CALLDATALOAD 0x2E CALLDATACOPY CODECOPY CALLVALUE CODESIZE BALANCE KECCAK256 0x2D BALANCE ADDRESS 0x2E CODESIZE CALLER BALANCE BALANCE CALLDATASIZE 0x2C CALLDATASIZE 0x2E CODECOPY CALLDATASIZE ADDRESS CALLVALUE ORIGIN KECCAK256 0x2D BALANCE CALLDATASIZE 0x2E CODECOPY BALANCE BALANCE ORIGIN CALLDATASIZE 0x2C CODESIZE 0x2E CALLVALUE CODECOPY CODECOPY BALANCE KECCAK256 0x2D CALLER 0x2E CALLDATASIZE CALLDATASIZE CALLDATASIZE CALLDATASIZE CALLDATASIZE 0x2C ADDRESS 0x2E CODECOPY ORIGIN CALLDATACOPY BALANCE CALLDATALOAD KECCAK256 0x2D CODECOPY 0x2E ADDRESS CALLDATASIZE CALLDATASIZE CALLDATASIZE CALLDATASIZE 0x2C CALLER 0x2E ADDRESS CALLER CALLVALUE CALLDATASIZE CODECOPY KECCAK256 0x2D BALANCE ORIGIN 0x2C CALLVALUE 0x2E CALLDATASIZE CODESIZE CALLER CALLVALUE BALANCE KECCAK256 0x2D CALLER 0x2E CALLER ORIGIN CALLER CODECOPY CALLVALUE 0x2C BALANCE 0x2E CODESIZE CALLDATASIZE CODESIZE ORIGIN CALLDATASIZE KECCAK256 0x2D CODESIZE 0x2E CODESIZE CALLDATALOAD CALLDATACOPY CALLDATACOPY CODESIZE 0x2C CALLER 0x2E CALLER CALLER CALLDATALOAD CALLVALUE ORIGIN KECCAK256 0x2D BALANCE CALLVALUE 0x2E CALLDATASIZE CODESIZE CALLDATACOPY CODECOPY CODESIZE 0x2C CALLER 0x2E CODESIZE CODECOPY CALLVALUE BALANCE CALLER KECCAK256 0x2D CODESIZE 0x2E CALLER CALLDATASIZE ADDRESS CODESIZE CALLER 0x2C ADDRESS 0x2E CODESIZE ADDRESS BALANCE ORIGIN CALLER KECCAK256 0x2D CODECOPY 0x2E CALLDATACOPY CALLVALUE CALLDATASIZE BALANCE BALANCE 0x2C ADDRESS 0x2E CALLDATALOAD CODESIZE CODESIZE CALLDATALOAD CALLDATASIZE KECCAK256 0x2D BALANCE CALLER 0x2E ADDRESS CALLER CODECOPY ORIGIN 0x2C 0x2D ORIGIN 0x2E ADDRESS ADDRESS BALANCE CALLDATACOPY CODECOPY KECCAK256 0x2D ORIGIN 0x2E ADDRESS ORIGIN CALLDATASIZE CALLDATALOAD BALANCE 0x2C 0x2D BALANCE 0x2E CALLDATALOAD CODECOPY CALLVALUE ADDRESS CALLVALUE KECCAK256 0x2D CALLVALUE 0x2E CALLDATALOAD CODECOPY CALLVALUE CALLDATALOAD CODECOPY 0x2C 0x2D ORIGIN 0x2E CALLDATALOAD CALLVALUE CODECOPY ADDRESS CALLDATALOAD KECCAK256 0x2D CALLDATALOAD 0x2E CALLDATACOPY ADDRESS CALLDATASIZE CODESIZE CALLDATACOPY 0x2C 0x2D ORIGIN 0x2E BALANCE ORIGIN ORIGIN ORIGIN CALLER KECCAK256 0x2D BALANCE 0x2E BALANCE BALANCE ORIGIN ORIGIN CALLDATACOPY 0x2C ADDRESS 0x2E CALLVALUE ORIGIN CALLDATASIZE CODESIZE ORIGIN KECCAK256 0x2D CALLER 0x2E CODESIZE CALLDATALOAD BALANCE BALANCE CODECOPY 0x2C CALLVALUE 0x2E CALLDATASIZE CODESIZE CALLVALUE ORIGIN CALLDATALOAD KECCAK256 0x2D CALLDATASIZE 0x2E ADDRESS CODESIZE CALLDATASIZE CALLVALUE CALLDATACOPY 0x2C CODECOPY 0x2E CALLVALUE CALLDATASIZE ADDRESS CODECOPY CALLDATALOAD KECCAK256 0x2D CALLER 0x2E CALLER CALLVALUE CODECOPY CALLDATASIZE CALLDATALOAD 0x2C CALLDATACOPY 0x2E BALANCE CALLDATALOAD CODESIZE ADDRESS CALLER KECCAK256 0x2D CALLVALUE 0x2E CALLDATASIZE ORIGIN CODESIZE ADDRESS CODECOPY 0x2C CODESIZE 0x2E CALLDATASIZE CODESIZE CALLVALUE CODECOPY BALANCE KECCAK256 0x2D CALLDATACOPY 0x2E ORIGIN CALLDATACOPY BALANCE CODESIZE ORIGIN 0x2C CODESIZE 0x2E CALLDATASIZE CODESIZE CALLVALUE CODECOPY BALANCE KECCAK256 0x2D CALLER 0x2E BALANCE CALLER BALANCE CALLDATALOAD CODESIZE 0x2C ADDRESS KECCAK256 0x2D CALLER 0x2E ORIGIN ADDRESS CALLDATACOPY CALLDATASIZE CALLDATASIZE 0x2C ADDRESS 0x2E ORIGIN CALLDATASIZE CALLER CALLDATACOPY CALLER KECCAK256 0x2D CALLER 0x2E ORIGIN ADDRESS CALLDATACOPY CALLDATASIZE CALLDATASIZE 0x2C BALANCE BALANCE 0x2E BALANCE ORIGIN ADDRESS ADDRESS CALLDATALOAD KECCAK256 ADDRESS 0x2C CALLDATACOPY 0x2E ORIGIN ORIGIN CODECOPY CODESIZE CALLVALUE KECCAK256 BALANCE 0x2E ADDRESS ADDRESS CALLVALUE CALLVALUE ORIGIN 0x2C BALANCE CALLVALUE 0x2E CODESIZE ADDRESS CODECOPY CALLDATASIZE CALLVALUE KECCAK256 ORIGIN 0x2E CODESIZE CALLDATACOPY BALANCE BALANCE 0x2C ORIGIN BALANCE 0x2E CALLDATASIZE CALLDATASIZE CALLDATASIZE CALLDATASIZE CALLDATACOPY KECCAK256 CALLER 0x2E CALLDATALOAD BALANCE CALLDATACOPY CALLVALUE CALLDATASIZE 0x2C BALANCE ORIGIN 0x2E CODECOPY ORIGIN BALANCE ADDRESS ORIGIN KECCAK256 CALLVALUE 0x2E CALLDATASIZE CALLDATALOAD BALANCE CALLDATALOAD CODESIZE 0x2C ORIGIN CALLER 0x2E ORIGIN BALANCE CALLER ORIGIN CODECOPY KECCAK256 ORIGIN 0x2E CALLDATALOAD CALLDATALOAD CALLDATACOPY CODECOPY ORIGIN 0x2C ORIGIN CALLER 0x2E ORIGIN BALANCE CALLER ORIGIN CODECOPY KECCAK256 0x2D ADDRESS 0x2E CODESIZE ORIGIN ORIGIN ORIGIN CALLDATASIZE 0x2C ADDRESS KECCAK256 0x2D ORIGIN 0x2E ADDRESS CODESIZE CALLER CODESIZE CALLDATASIZE 0x2C 0x2D BALANCE 0x2E CALLDATALOAD CALLVALUE CODESIZE CALLDATACOPY CALLDATACOPY KECCAK256 0x2D ORIGIN 0x2E CODESIZE ADDRESS CALLER CALLDATALOAD CALLDATALOAD 0x2C 0x2D CALLER 0x2E CALLVALUE CALLVALUE BALANCE CALLDATACOPY BALANCE KECCAK256 0x2D CODECOPY 0x2E CODECOPY CALLDATALOAD CALLDATACOPY CALLER ORIGIN 0x2C 0x2D CALLDATASIZE 0x2E ADDRESS CODECOPY ORIGIN CODECOPY CALLER KECCAK256 0x2D CALLER 0x2E ADDRESS CODECOPY CALLDATASIZE CALLDATASIZE 0x2C CALLER ORIGIN 0x2E CALLER ORIGIN ADDRESS CODESIZE CALLVALUE KECCAK256 0x2D BALANCE 0x2E CALLER CODESIZE CALLDATACOPY CALLVALUE CODECOPY 0x2C CALLER CALLDATASIZE 0x2E ORIGIN CALLER ADDRESS CALLVALUE ORIGIN KECCAK256 ORIGIN 0x2E CALLDATASIZE CODESIZE CALLDATASIZE ADDRESS CODESIZE 0x2C CALLDATALOAD 0x2E CODECOPY CODECOPY CODECOPY CALLDATALOAD CALLVALUE KECCAK256 CODECOPY 0x2E CALLDATACOPY ADDRESS CALLDATASIZE CALLER CALLVALUE 0x2C BALANCE ORIGIN 0x2E CALLDATALOAD CALLVALUE CALLVALUE CALLDATASIZE ORIGIN KECCAK256 BALANCE CALLER 0x2E CALLVALUE CALLDATALOAD CALLDATALOAD CALLER CODESIZE 0x2C BALANCE ORIGIN 0x2E CALLDATALOAD CALLVALUE CALLVALUE CALLDATASIZE ORIGIN KECCAK256 CALLDATASIZE 0x2E CODECOPY ADDRESS CODECOPY CALLVALUE CALLDATASIZE 0x2C CALLDATALOAD 0x2E CODECOPY CALLER CALLVALUE ADDRESS CALLVALUE KECCAK256 ORIGIN CODECOPY 0x2E CALLDATACOPY CALLDATASIZE CALLVALUE BALANCE CALLER 0x2C CALLER CALLDATASIZE 0x2E CALLDATASIZE ADDRESS ADDRESS CALLER CALLDATACOPY KECCAK256 ORIGIN CODECOPY 0x2E CODESIZE CALLDATASIZE CODECOPY CALLDATASIZE CALLDATASIZE 0x2C ORIGIN ORIGIN 0x2E ORIGIN BALANCE ADDRESS CALLDATACOPY KECCAK256 0x2D BALANCE 0x2E BALANCE CALLDATACOPY CALLER CALLDATACOPY CALLVALUE 0x2C 0x2D CALLER 0x2E ADDRESS CALLDATALOAD CODESIZE CALLDATACOPY ORIGIN KECCAK256 CODESIZE 0x2E BALANCE CODESIZE BALANCE CALLDATALOAD 0x2C 0x2D CODESIZE 0x2E CALLVALUE CALLER CALLVALUE CALLDATACOPY KECCAK256 BALANCE CALLDATASIZE 0x2E CALLVALUE CALLER CALLDATASIZE CODECOPY CODESIZE 0x2C 0x2D CODECOPY 0x2E CALLVALUE CALLVALUE CALLDATALOAD CALLVALUE CODESIZE KECCAK256 CALLDATACOPY 0x2E CALLDATALOAD CALLDATALOAD CODECOPY CALLDATASIZE CALLER 0x2C 0x2D ADDRESS 0x2E CODECOPY ORIGIN CALLDATALOAD CALLDATALOAD CODESIZE KECCAK256 CODESIZE 0x2E BALANCE CALLDATASIZE CODECOPY CODECOPY ORIGIN 0x2C 0x2D ADDRESS 0x2E CALLER CALLDATASIZE ORIGIN BALANCE CODECOPY KECCAK256 CALLVALUE 0x2E CODESIZE ADDRESS CALLDATACOPY CALLDATASIZE CALLVALUE 0x2C CALLVALUE 0x2E CALLVALUE CALLER CODESIZE BALANCE CALLER KECCAK256 0x2D BALANCE 0x2E CODECOPY CALLDATASIZE CODECOPY CALLDATASIZE CODESIZE 0x2C ORIGIN 0x2E CODESIZE BALANCE ORIGIN BALANCE BALANCE KECCAK256 0x2D ORIGIN 0x2E CODECOPY BALANCE CALLDATACOPY CALLDATASIZE CALLDATALOAD 0x2C CALLER 0x2E ADDRESS CALLDATALOAD CALLDATALOAD BALANCE CALLDATASIZE KECCAK256 0x2D CODECOPY 0x2E CALLER CALLER CALLER CALLER CALLER 0x2C ORIGIN 0x2E CALLER CODECOPY CALLER ADDRESS BALANCE KECCAK256 0x2D BALANCE CALLDATACOPY 0x2E ORIGIN CODECOPY ORIGIN CALLVALUE CODESIZE 0x2C 0x2D ORIGIN 0x2E CODESIZE BALANCE CALLDATACOPY ORIGIN KECCAK256 BALANCE 0x2E CODECOPY CALLER ORIGIN CALLDATACOPY CODECOPY 0x2C BALANCE ORIGIN 0x2E ADDRESS CALLDATACOPY CALLER ADDRESS CALLDATALOAD KECCAK256 CALLDATACOPY 0x2E ADDRESS CALLDATASIZE BALANCE ORIGIN CODESIZE 0x2C BALANCE ORIGIN 0x2E CALLVALUE ADDRESS CALLER CALLDATASIZE CALLVALUE KECCAK256 ORIGIN 0x2E CALLVALUE CALLER CODECOPY CALLDATASIZE CALLDATALOAD 0x2C ADDRESS KECCAK256 CALLER 0x2E BALANCE CALLDATACOPY ADDRESS BALANCE CALLER 0x2C ADDRESS 0x2E CODECOPY CALLVALUE CALLDATACOPY CALLDATACOPY CALLVALUE KECCAK256 CALLER 0x2E CODESIZE CALLDATALOAD CALLER CALLDATACOPY CALLDATASIZE 0x2C CALLDATALOAD KECCAK256 ADDRESS 0x2E CALLDATALOAD CALLVALUE CALLDATACOPY CALLDATALOAD CODECOPY 0x2C CODESIZE 0x2E ORIGIN CODECOPY CALLDATACOPY CALLVALUE KECCAK256 CALLDATASIZE 0x2E BALANCE CALLDATASIZE CALLDATASIZE CODESIZE CALLVALUE 0x2C BALANCE CALLER 0x2E BALANCE CALLER CALLVALUE BALANCE CODECOPY KECCAK256 BALANCE CALLVALUE 0x2E BALANCE BALANCE CALLVALUE CODESIZE CALLER 0x2C BALANCE ORIGIN 0x2E CALLDATALOAD CALLER CALLVALUE ADDRESS ORIGIN KECCAK256 CALLDATASIZE 0x2E CODECOPY CALLER BALANCE CODECOPY CALLDATASIZE 0x2C ADDRESS 0x2E CODESIZE CALLVALUE CALLER CODESIZE CALLDATALOAD KECCAK256 BALANCE ADDRESS 0x2E CALLDATACOPY CALLER CODECOPY ADDRESS CODECOPY 0x2C ORIGIN 0x2E ADDRESS CALLDATACOPY CALLDATACOPY BALANCE BALANCE KECCAK256 BALANCE CALLDATALOAD 0x2E CALLDATASIZE CALLER CALLVALUE CALLDATALOAD CALLDATACOPY 0x2C 0x2D CALLVALUE 0x2E ORIGIN ORIGIN ORIGIN CALLDATASIZE CALLDATASIZE KECCAK256 CALLDATASIZE 0x2E CODECOPY CALLDATASIZE CODECOPY ADDRESS CODESIZE 0x2C 0x2D CALLDATACOPY 0x2E CALLDATASIZE CALLDATACOPY CALLDATASIZE ORIGIN CALLDATALOAD KECCAK256 BALANCE ORIGIN 0x2E BALANCE ADDRESS CALLVALUE ORIGIN CODECOPY 0x2C BALANCE 0x2E CODECOPY ORIGIN CODESIZE CALLDATALOAD CALLDATASIZE KECCAK256 BALANCE BALANCE 0x2E BALANCE CALLDATALOAD CODECOPY CODECOPY BALANCE 0x2C 0x2D BALANCE CALLER 0x2E BALANCE CODESIZE BALANCE CODECOPY ORIGIN KECCAK256 ADDRESS 0x2E BALANCE ADDRESS CODECOPY CALLER BALANCE 0x2C 0x2D CALLVALUE 0x2E CODECOPY CODECOPY ORIGIN CODECOPY CALLDATALOAD KECCAK256 CALLER 0x2E CALLDATACOPY CALLDATACOPY CALLDATASIZE BALANCE CODECOPY 0x2C 0x2D CODESIZE 0x2E ADDRESS ORIGIN BALANCE BALANCE CALLVALUE KECCAK256 CALLDATALOAD 0x2E CALLVALUE CALLVALUE ORIGIN CALLDATALOAD CALLVALUE 0x2C 0x2D BALANCE ORIGIN 0x2E CALLVALUE CALLDATASIZE ORIGIN CALLDATACOPY CALLDATACOPY KECCAK256 ADDRESS 0x2E CALLDATASIZE CALLER CALLVALUE CODECOPY 0x2C 0x2D BALANCE 0x2E CALLDATACOPY CALLDATALOAD CODECOPY CODESIZE CALLVALUE KECCAK256 ORIGIN 0x2E CALLER CALLVALUE ORIGIN ADDRESS ORIGIN 0x2C 0x2D ORIGIN 0x2E CALLER CALLER CALLER CALLER CALLER KECCAK256 CALLDATASIZE 0x2E CODECOPY CALLVALUE CALLDATALOAD CALLDATASIZE CALLDATASIZE 0x2C 0x2D ORIGIN 0x2E CALLER CALLER CALLER CALLER CALLER KECCAK256 CALLDATACOPY 0x2E CALLVALUE ADDRESS CALLDATASIZE CALLDATALOAD BALANCE 0x2C ORIGIN 0x2E CALLVALUE CALLDATACOPY ORIGIN ORIGIN CODESIZE KECCAK256 CODESIZE 0x2E ORIGIN CODESIZE ORIGIN CALLDATALOAD CODESIZE 0x2C 0x2D CODESIZE 0x2E CALLER CALLDATASIZE ORIGIN ORIGIN CALLDATACOPY KECCAK256 BALANCE CALLER 0x2E CALLER CODECOPY CALLDATACOPY CALLER CALLER 0x2C 0x2D CALLDATACOPY 0x2E BALANCE CODECOPY CALLER ADDRESS CALLDATACOPY KECCAK256 NUMBER KECCAK256 CALLDATALOAD CALLDATALOAD CODECOPY 0x2E CALLDATASIZE ADDRESS ADDRESS CALLER BALANCE 0x2C CALLDATASIZE CODESIZE BALANCE 0x2E CODESIZE CALLER CALLDATASIZE BALANCE CALLDATACOPY KECCAK256 0x2D CALLVALUE CALLVALUE CALLDATALOAD 0x2E CODESIZE CODECOPY CALLDATALOAD CODECOPY CALLDATALOAD 0x2C CALLDATACOPY CALLDATALOAD CALLVALUE 0x2E ADDRESS ORIGIN CALLDATALOAD KECCAK256 BALANCE ADDRESS 0x2E CALLDATALOAD CALLER CALLDATACOPY CALLDATASIZE ORIGIN CALLDATALOAD 0x2C BALANCE CODECOPY ADDRESS 0x2E BALANCE CALLDATASIZE CALLDATALOAD CALLDATALOAD ORIGIN KECCAK256 GAS KECCAK256 PUSH14 0x203231322E3435353236352C312E CALLDATASIZE CALLDATACOPY CALLVALUE BALANCE CALLDATACOPY KECCAK256 PUSH4 0x20302C2D CODECOPY 0x2E CALLDATASIZE ORIGIN CODECOPY KECCAK256 ADDRESS 0x2E CALLDATACOPY CODESIZE CALLVALUE CODECOPY CALLDATASIZE 0x2C 0x2D BALANCE BALANCE 0x2E BALANCE CALLER BALANCE CODESIZE KECCAK256 CALLVALUE 0x2E ORIGIN ADDRESS ADDRESS BALANCE ORIGIN 0x2C 0x2D CODESIZE 0x2E ADDRESS CALLVALUE BALANCE BALANCE ORIGIN KECCAK256 BALANCE 0x2E CODECOPY CALLER ORIGIN BALANCE CALLDATASIZE 0x2C BALANCE 0x2E CALLDATACOPY CALLVALUE CODESIZE CALLDATALOAD CODECOPY KECCAK256 ORIGIN 0x2E CODESIZE ADDRESS CODECOPY CALLDATALOAD CODECOPY 0x2C BALANCE 0x2E CODESIZE CALLDATASIZE ADDRESS CALLDATACOPY BALANCE KECCAK256 CALLVALUE 0x2E CALLER CALLDATACOPY CALLDATACOPY CALLDATALOAD CALLDATALOAD 0x2C ADDRESS 0x2E CALLDATALOAD CALLDATALOAD CODECOPY CALLVALUE BALANCE KECCAK256 ORIGIN 0x2E CALLVALUE CALLDATALOAD CALLER ORIGIN CALLVALUE 0x2C 0x2D ORIGIN 0x2E ADDRESS CALLER CALLDATASIZE KECCAK256 CALLDATASIZE 0x2E CODECOPY CODECOPY CODESIZE CODESIZE CODECOPY 0x2C 0x2D ADDRESS 0x2E CALLDATASIZE CODESIZE CODECOPY CALLDATACOPY CALLER KECCAK256 CODESIZE 0x2E CALLDATACOPY CALLDATALOAD CALLDATALOAD CODESIZE CALLDATACOPY 0x2C ORIGIN 0x2E CALLDATALOAD CODECOPY CALLER BALANCE CODECOPY KECCAK256 BALANCE 0x2E ADDRESS CODESIZE BALANCE CALLDATACOPY 0x2C ORIGIN 0x2E ADDRESS ORIGIN BALANCE ORIGIN KECCAK256 ADDRESS 0x2E CALLDATASIZE ADDRESS CALLDATASIZE CALLER CALLER 0x2C CALLER 0x2E ADDRESS ADDRESS ORIGIN ORIGIN CALLVALUE KECCAK256 0x2D ORIGIN 0x2E CALLDATALOAD CALLVALUE ADDRESS CALLDATALOAD CODESIZE 0x2C CALLDATALOAD 0x2E ORIGIN CALLVALUE CALLER ADDRESS CALLER KECCAK256 0x2D ORIGIN 0x2E BALANCE ORIGIN CODECOPY ORIGIN 0x2C BALANCE 0x2E CALLDATALOAD BALANCE CALLDATASIZE BALANCE CALLER KECCAK256 0x2D CALLDATALOAD 0x2E CALLER CALLDATALOAD CODESIZE CALLDATASIZE CODESIZE 0x2C ORIGIN 0x2E CALLDATACOPY CALLDATALOAD CALLDATASIZE CALLDATASIZE KECCAK256 0x2D CALLDATACOPY 0x2E BALANCE CALLDATACOPY CALLDATASIZE CALLDATASIZE BALANCE 0x2C ORIGIN 0x2E CALLDATACOPY CALLDATALOAD CALLDATASIZE CALLDATASIZE KECCAK256 0x2D ORIGIN 0x2E BALANCE CODESIZE CALLER CODECOPY CODECOPY 0x2C ADDRESS KECCAK256 0x2D CALLER 0x2E CALLDATALOAD CALLVALUE BALANCE CODECOPY BALANCE 0x2C ADDRESS 0x2E CODECOPY ADDRESS CALLVALUE CALLDATASIZE CALLDATASIZE KECCAK256 0x2D CALLVALUE 0x2E ADDRESS ADDRESS ORIGIN CALLDATASIZE CODESIZE 0x2C ORIGIN 0x2E CALLDATASIZE CALLDATASIZE CALLDATASIZE CALLDATASIZE CALLDATASIZE KECCAK256 0x2D BALANCE 0x2E CALLDATALOAD ORIGIN ORIGIN CALLER CODECOPY 0x2C CALLDATALOAD 0x2E CODESIZE ORIGIN BALANCE CALLDATASIZE ORIGIN KECCAK256 0x2D CALLER 0x2E CALLDATASIZE BALANCE CALLER CALLDATASIZE CALLDATACOPY 0x2C ORIGIN 0x2E CALLVALUE CALLDATACOPY CALLDATACOPY CODECOPY CALLVALUE KECCAK256 0x2D CALLER 0x2E CALLDATASIZE BALANCE CALLER CALLDATASIZE CALLDATACOPY 0x2C 0x2D CALLDATALOAD 0x2E CALLDATACOPY CALLDATACOPY CALLDATACOPY CALLDATACOPY CALLDATACOPY KECCAK256 PUSH27 0x206D20332E34393337392C2D33302E3838363733206320332E3831 CALLVALUE BALANCE CALLDATALOAD 0x2C 0x2D BALANCE ADDRESS 0x2E CALLDATACOPY CODESIZE ADDRESS CALLDATALOAD CALLDATALOAD KECCAK256 0x2D CALLDATASIZE 0x2E CALLVALUE CALLDATACOPY CALLDATACOPY CODECOPY CALLVALUE 0x2C 0x2D ORIGIN ORIGIN 0x2E CALLDATACOPY ORIGIN CALLDATALOAD CODESIZE CALLVALUE KECCAK256 0x2D BALANCE ADDRESS 0x2E CODECOPY CALLDATASIZE CALLDATASIZE BALANCE CALLDATACOPY 0x2C 0x2D BALANCE CALLDATACOPY 0x2E CALLER CALLDATACOPY ADDRESS CODESIZE ORIGIN KECCAK256 0x2D CALLVALUE 0x2E CALLDATASIZE CALLER ORIGIN CALLER CALLDATASIZE 0x2C CALLDATACOPY 0x2E CODECOPY CALLVALUE CALLDATALOAD CODESIZE CALLDATACOPY KECCAK256 0x2D BALANCE CALLVALUE 0x2E CODESIZE CALLDATALOAD CALLVALUE CALLDATASIZE 0x2C CALLDATALOAD 0x2E CALLDATALOAD CALLER CODECOPY CODESIZE ORIGIN KECCAK256 0x2D ORIGIN ADDRESS 0x2E CODESIZE ORIGIN BALANCE CALLDATALOAD CALLDATALOAD 0x2C BALANCE BALANCE 0x2E ADDRESS BALANCE CALLDATASIZE CODESIZE KECCAK256 0x2D CALLER 0x2E BALANCE CALLER ADDRESS CALLER CODECOPY 0x2C ORIGIN 0x2E CODECOPY CALLDATACOPY ADDRESS CALLVALUE CALLVALUE KECCAK256 0x2D CALLER 0x2E CALLDATACOPY CALLVALUE ORIGIN BALANCE CALLDATACOPY 0x2C CALLER 0x2E BALANCE CALLVALUE ORIGIN CALLDATALOAD CALLVALUE KECCAK256 0x2D CALLVALUE 0x2E CALLVALUE CALLDATASIZE CALLDATASIZE 0x2C BALANCE 0x2E ORIGIN CALLDATALOAD CALLDATASIZE ORIGIN CALLDATACOPY KECCAK256 ADDRESS 0x2E CALLVALUE ORIGIN ORIGIN ORIGIN ORIGIN 0x2C 0x2D BALANCE ADDRESS 0x2E CALLDATACOPY CALLDATASIZE CODESIZE BALANCE CALLDATALOAD KECCAK256 BALANCE CALLVALUE 0x2E ORIGIN BALANCE BALANCE CODESIZE ORIGIN 0x2C 0x2D BALANCE ORIGIN 0x2E CODECOPY CALLDATALOAD BALANCE CALLDATALOAD CALLDATACOPY KECCAK256 BALANCE CODESIZE 0x2E ADDRESS CODECOPY CALLER ORIGIN CALLDATACOPY 0x2C 0x2D BALANCE CALLDATACOPY 0x2E BALANCE BALANCE CALLDATALOAD CALLVALUE CALLDATASIZE KECCAK256 ADDRESS 0x2C 0x2D ORIGIN 0x2E ADDRESS CODECOPY CALLDATACOPY CALLDATASIZE CALLDATASIZE KECCAK256 0x2D CALLVALUE 0x2E CODECOPY BALANCE CALLDATACOPY ORIGIN ORIGIN 0x2C 0x2D BALANCE 0x2E BALANCE CALLER ORIGIN CALLER CALLDATACOPY KECCAK256 0x2D BALANCE BALANCE 0x2E BALANCE CALLDATACOPY BALANCE CALLDATALOAD ORIGIN 0x2C ORIGIN 0x2E BALANCE CODECOPY CALLER ADDRESS CODESIZE KECCAK256 PUSH13 0x202D362E32333533352C332E33 BALANCE CALLDATALOAD CALLER CALLDATACOPY KECCAK256 0x2D BALANCE 0x2E CALLDATALOAD BALANCE CALLDATASIZE CALLDATASIZE 0x2C 0x2D CALLER 0x2E CALLER ORIGIN CODESIZE CALLDATALOAD CALLDATALOAD KECCAK256 PUSH4 0x20332E30 ORIGIN CODECOPY BALANCE CODESIZE 0x2C 0x2D ORIGIN BALANCE 0x2E CALLER ADDRESS CALLER CALLVALUE BALANCE KECCAK256 CALLER CALLER 0x2E CALLDATALOAD BALANCE BALANCE CALLDATACOPY CALLDATACOPY 0x2C 0x2D BALANCE ADDRESS 0x2E CODESIZE CALLDATASIZE ADDRESS CALLDATACOPY KECCAK256 CALLVALUE BALANCE 0x2E CODECOPY ADDRESS CALLER ADDRESS CALLDATALOAD 0x2C 0x2D ADDRESS 0x2E ADDRESS CALLER CALLDATACOPY CALLDATALOAD KECCAK256 ORIGIN 0x2E CALLER CALLDATASIZE CALLDATALOAD CALLDATASIZE CALLVALUE 0x2C CALLER 0x2E CALLER CODESIZE CALLDATALOAD CALLDATACOPY ORIGIN KECCAK256 0x2D ADDRESS 0x2E CODESIZE ORIGIN ORIGIN ADDRESS CALLVALUE 0x2C CALLER ORIGIN 0x2E CALLDATASIZE CODESIZE ORIGIN CALLDATALOAD KECCAK256 0x2D CALLER 0x2E CALLDATASIZE CALLDATALOAD CODECOPY ADDRESS CALLVALUE 0x2C CALLER CALLER 0x2E CALLDATASIZE ORIGIN CODESIZE CALLDATACOPY CALLER KECCAK256 0x2D ADDRESS 0x2E CODESIZE ORIGIN ORIGIN CALLDATALOAD CALLDATASIZE 0x2C ADDRESS 0x2E ORIGIN CALLDATACOPY CALLVALUE CALLER CALLVALUE KECCAK256 0x2D BALANCE 0x2E ORIGIN CALLDATASIZE ADDRESS ADDRESS CALLVALUE 0x2C 0x2D CALLVALUE 0x2E CODESIZE CALLER CODESIZE CALLVALUE CALLDATASIZE KECCAK256 0x2D BALANCE 0x2E BALANCE CALLDATASIZE ADDRESS ADDRESS CODECOPY 0x2C 0x2D BALANCE CALLER 0x2E CALLDATALOAD CALLDATALOAD CALLDATACOPY CODECOPY ORIGIN KECCAK256 PUSH27 0x206D2033372E31363534382C2D32332E33343336372063202D332E ADDRESS CALLDATASIZE CALLDATALOAD CALLDATASIZE CALLDATALOAD 0x2C 0x2D CALLER 0x2E CALLER CODESIZE CALLDATACOPY CALLDATALOAD ORIGIN KECCAK256 0x2D BALANCE 0x2E CODESIZE ADDRESS CALLDATALOAD ADDRESS CODESIZE 0x2C 0x2D CALLVALUE 0x2E CALLDATASIZE CALLER CALLDATASIZE CALLDATACOPY CALLDATACOPY KECCAK256 CALLVALUE 0x2E CALLDATACOPY CODESIZE CALLVALUE CALLDATALOAD CALLDATALOAD 0x2C 0x2D CALLVALUE 0x2E CALLDATACOPY CALLVALUE BALANCE CALLDATALOAD CALLER KECCAK256 CALLDATALOAD 0x2E CALLDATASIZE CALLVALUE BALANCE BALANCE CALLDATASIZE 0x2C 0x2D ADDRESS 0x2E ADDRESS CODESIZE CODECOPY CALLDATACOPY KECCAK256 CALLDATASIZE 0x2E CALLDATACOPY BALANCE CALLER CALLDATASIZE CODESIZE 0x2C BALANCE 0x2E CALLDATACOPY CALLER CALLDATALOAD ADDRESS CALLDATASIZE KECCAK256 CALLER 0x2E BALANCE ORIGIN CALLDATACOPY CALLDATASIZE BALANCE 0x2C CALLDATALOAD 0x2E CALLER ORIGIN BALANCE BALANCE CALLER KECCAK256 0x2D ORIGIN 0x2E CODESIZE ADDRESS ADDRESS CODESIZE BALANCE 0x2C ORIGIN 0x2E CODESIZE ADDRESS ADDRESS CODESIZE ORIGIN KECCAK256 0x2D CALLVALUE 0x2E CODECOPY CODECOPY CODESIZE CALLDATASIZE BALANCE 0x2C ORIGIN 0x2E CALLDATASIZE CALLER CODECOPY CODESIZE ORIGIN KECCAK256 0x2D CALLDATACOPY 0x2E CODECOPY BALANCE ORIGIN BALANCE CALLDATASIZE 0x2C 0x2D ADDRESS 0x2E CALLDATALOAD CALLDATACOPY CODECOPY CALLDATASIZE KECCAK256 PUSH27 0x206D202D31322E33383131332C2D392E3531373837206320312E33 CALLDATALOAD CODESIZE CALLDATACOPY CALLDATACOPY 0x2C 0x2D CALLVALUE 0x2E BALANCE CALLER CALLER CALLER CODECOPY KECCAK256 CODECOPY 0x2E ORIGIN CODECOPY CODESIZE ADDRESS BALANCE 0x2C 0x2D CALLDATACOPY 0x2E CODESIZE ADDRESS CALLDATACOPY CALLER KECCAK256 BALANCE CALLDATASIZE 0x2E CODESIZE CALLDATACOPY BALANCE CALLVALUE ORIGIN 0x2C 0x2D CALLDATACOPY 0x2E CODESIZE ADDRESS CALLDATACOPY CALLER KECCAK256 CALLDATASIZE 0x2E ORIGIN CODESIZE CALLDATALOAD CALLDATASIZE CALLER 0x2C ADDRESS KECCAK256 CALLDATACOPY 0x2E BALANCE ORIGIN ORIGIN CODECOPY CODESIZE 0x2C ADDRESS 0x2E ORIGIN CALLDATACOPY CALLER CALLDATALOAD BALANCE KECCAK256 CALLDATALOAD 0x2E CALLVALUE CALLDATASIZE CODECOPY CALLDATALOAD 0x2C BALANCE 0x2E CALLDATACOPY CODESIZE CALLDATASIZE CALLDATALOAD CALLDATASIZE KECCAK256 0x2D ORIGIN 0x2E BALANCE CODESIZE CALLDATALOAD CALLDATASIZE ORIGIN 0x2C BALANCE 0x2E CODECOPY CODECOPY CODECOPY CODECOPY CODESIZE KECCAK256 0x2D BALANCE BALANCE 0x2E CALLDATASIZE BALANCE ORIGIN CODESIZE CALLER 0x2C CALLDATALOAD 0x2E CALLDATALOAD CALLER CALLDATASIZE CALLDATALOAD CALLVALUE KECCAK256 0x2D BALANCE CODESIZE 0x2E CALLVALUE CALLVALUE CALLER CALLDATACOPY BALANCE 0x2C CALLDATASIZE 0x2E CODECOPY BALANCE CODECOPY ADDRESS CALLDATALOAD KECCAK256 0x2D CALLER 0x2E CALLVALUE CALLDATASIZE BALANCE CALLDATACOPY CALLDATALOAD 0x2C ADDRESS 0x2E CALLDATACOPY ADDRESS ADDRESS CALLDATASIZE CALLER KECCAK256 0x2D CALLVALUE 0x2E CALLER CALLDATALOAD CALLDATALOAD BALANCE CALLER 0x2C ADDRESS 0x2E CALLVALUE CODECOPY CALLVALUE CALLDATACOPY KECCAK256 0x2D CALLER 0x2E CODESIZE CODECOPY CALLDATACOPY ORIGIN BALANCE 0x2C 0x2D ADDRESS 0x2E CODESIZE CODECOPY CODESIZE CALLER BALANCE KECCAK256 PUSH27 0x22207472616E73666F726D3D227472616E736C617465282D343020 CALLER ADDRESS 0x29 0x22 0x2F RETURNDATACOPY "
				},
				"gasEstimates": {
					"creation": {
						"codeDepositCost": "111600",
						"executionCost": "infinite",
						"totalCost": "infinite"
					},
					"external": {
						"svg()": "infinite"
					}
				},
				"methodIdentifiers": {
					"svg()": "bd85f55f"
				}
			},
			"userdoc": {
				"kind": "user",
				"methods": {},
				"version": 1
			}
		}
	}
}