{
	"Dynamic_Oracle_Based_NFT_BCC22/contracts/players.sol": {
		"AndyPelmard": {
			"abi": [
				{
					"inputs": [
						{
							"internalType": "uint256",
							"name": "level",
							"type": "uint256"
						}
					],
					"name": "getSVG",
					"outputs": [
						{
							"internalType": "string",
							"name": "svg",
							"type": "string"
						}
					],
					"stateMutability": "pure",
					"type": "function"
				}
			],
			"devdoc": {
				"kind": "dev",
				"methods": {},
				"version": 1
			},
			"evm": {
				"assembly": "    /* \"Dynamic_Oracle_Based_NFT_BCC22/contracts/players.sol\":14284:29182  contract AndyPelmard {... */\n  mstore(0x40, 0x80)\n  callvalue\n  dup1\n  iszero\n  tag_1\n  jumpi\n  0x00\n  dup1\n  revert\ntag_1:\n  pop\n  dataSize(sub_0)\n  dup1\n  dataOffset(sub_0)\n  0x00\n  codecopy\n  0x00\n  return\nstop\n\nsub_0: assembly {\n        /* \"Dynamic_Oracle_Based_NFT_BCC22/contracts/players.sol\":14284:29182  contract AndyPelmard {... */\n      mstore(0x40, 0x80)\n      callvalue\n      dup1\n      iszero\n      tag_1\n      jumpi\n      0x00\n      dup1\n      revert\n    tag_1:\n      pop\n      jumpi(tag_2, lt(calldatasize, 0x04))\n      shr(0xe0, calldataload(0x00))\n      dup1\n      0xbe985ac9\n      eq\n      tag_3\n      jumpi\n    tag_2:\n      0x00\n      dup1\n      revert\n        /* \"Dynamic_Oracle_Based_NFT_BCC22/contracts/players.sol\":14310:29180  function getSVG(uint level) external pure returns (string memory svg) {... */\n    tag_3:\n      tag_4\n      tag_5\n      calldatasize\n      0x04\n      tag_6\n      jump\t// in\n    tag_5:\n      tag_7\n      jump\t// in\n    tag_4:\n      mload(0x40)\n      tag_8\n      swap2\n      swap1\n      tag_9\n      jump\t// in\n    tag_8:\n      mload(0x40)\n      dup1\n      swap2\n      sub\n      swap1\n      return\n    tag_7:\n        /* \"Dynamic_Oracle_Based_NFT_BCC22/contracts/players.sol\":14361:14378  string memory svg */\n      0x60\n        /* \"Dynamic_Oracle_Based_NFT_BCC22/contracts/players.sol\":19780:24781  svg = '<path style=\"fill:#0f3b86\" d=\"m 0,234.3186 c 4.9790399,-3.4679 9.9495265,-7.16656 15.256168,-9.96404 5.575832,-2.95857 9.865488,-7.91541 15.446599,-10.89484 6.786178,-0.6752 11.33,-9.1625 17.39827,-9.29659 3.621795,-0.007 3.648339,1.15888 0.09394,4.12765 -7.33741,5.6849 -2.447735,13.43611 1.89033,17.84024 3.802311,4.50731 9.388574,4.54202 12.641891,8.66072 12.377823,7.16146 33.762787,11.69806 47.672802,8.91324 13.15296,-6.48209 33.79195,-14.87111 38.42396,-27.85624 1.4618,-4.5706 -4.62228,-7.72049 -4.8238,-12.40264 12.39986,1.49749 38.85026,21.13245 47.99984,29.63945 V 256 H 0 Z m 76.450448,-55.98162 c 2.659409,0.2653 5.075009,1.6886 6.572835,3.01538 3.523479,2.57023 7.898399,4.49693 12.427459,4.08336 4.35638,-0.46455 9.368158,-0.0343 12.869258,-1.24904 5.24304,-1.71074 8.24782,-5.49272 12.70325,-8.74668 5.78834,-0.28676 7.75287,-5.04116 12.02512,-7.61037 3.08384,-0.98089 4.59007,-3.95899 7.58613,-5.58963 2.18626,0 -1.81888,6.86693 -4.94597,8.48 -6.57824,3.71219 -10.36445,12.42239 -15.31052,15.76646 -13.96723,6.81198 -40.176083,7.33214 -43.927562,-8.14948 z M 90.88,157.42367 c -0.792,-0.14093 -2.344624,-0.26691 -3.450278,-0.27995 -3.152989,-0.0372 -3.961716,-0.49869 -8.709722,-4.97007 -2.406395,-2.09754 -6.692196,-4.36405 -3.864614,-7.23826 1.246131,-1.24614 1.866492,-1.18057 3.260643,0.34461 4.65232,3.1312 6.798836,-0.20765 12.443971,1.96172 4.206112,1.31034 7.514406,-1.89892 11.88375,-1.21583 6.37956,-0.72468 11.90747,-1.02809 18.26781,-1.24873 0.80524,-1.05193 1.79274,-2.04838 2.8546,-2.70211 0.71957,0.007 2.51384,1.73289 2.51384,2.41836 -3.0376,3.95559 -7.13754,10.82291 -13.05738,11.02659 -7.03792,1.22776 -14.650761,3.10354 -22.14262,1.90365 z m 20.48788,-5.67211 c 1.72939,-0.16618 2.55212,-0.8701 2.55212,-2.18358 -0.56056,-1.42097 -11.12391,-0.753 -12.68316,-0.2545 -4.715733,0.32081 -8.820064,-0.84632 -13.435138,-0.0419 -3.376499,0.43961 -3.468198,0.52333 -2.301523,2.10134 2.122009,1.47549 5.415642,1.62703 8.099821,2.3646 6.7816,2.42602 11.72697,-1.35208 17.76788,-1.98598 z M 85.869155,137.38952 c -0.614205,-2.3571 -1.09536,-4.04086 0.770845,-5.22285 2.019331,-1.26807 3.54527,-1.26733 5.76,0.003 9.61719,8.07131 8.80737,-3.72939 15.77612,-1.1694 1.65154,0.8239 2.76337,0.68251 3.33566,-0.42419 1.40599,-3.40302 -1.85379,-5.00299 -2.09557,-7.01144 2.23904,-1.15476 5.39868,1.89711 6.12685,4.06635 1.1904,4.13358 -3.31802,6.59123 -4.86206,9.18284 -0.76733,1.7346 -2.27007,3.02629 -3.52083,3.02629 -2.26289,-0.42714 -2.16814,-2.87221 -3.77524,-2.88 -2.27058,0.26943 -2.96254,2.39336 -5.016165,3.03717 -2.439129,1.17717 -4.396922,-0.84446 -6.034327,-0.0685 -1.991768,0.64308 -5.726945,-0.36167 -6.465283,-2.53927 z M 147.82024,132.96 c 0.4292,-3.24487 1.75201,-6.19965 3.71388,-8.81453 1.65166,-2.99511 0.89414,-5.16049 -1.31,-2.47407 -1.8272,-1.43612 -2.24633,-3.55252 -1.70375,-5.16967 -1.15286,-9.47032 -0.13294,-17.707238 -3.783,-26.74173 -3.34866,-7.501168 -5.3152,-16.256679 -4.59214,-23.859712 -3.63459,-20.910016 -30.95533,-14.448313 -44.387912,-10.042 -9.282654,4.328998 -29.14916,-4.143217 -35.469158,-1.652198 -7.569345,7.12577 -1.262853,21.877613 -6.053542,32.975388 -2.214383,12.2961 -1.942265,17.321502 -3.407978,27.858522 -4.225648,1.33758 -1.296942,9.36664 -3.604749,9.44 -1.381097,0 -3.378323,-3.02688 -3.378323,-5.12 C 52.889133,108.57468 39.229635,101.06173 42.4,97.221642 43.41624,96.013907 43.405776,95.703286 42.215645,91.749869 41.977382,84.23154 38.611163,72.480397 39.474006,63.653856 42.931519,42.570645 50.246219,35.436337 62.153805,22.685888 80.333597,14.046552 106.14583,9.2928232 123.84,18.80258 c 9.89195,4.975087 19.38583,11.79842 24.89836,18.613062 9.65637,13.378288 9.29089,29.956802 10.06016,45.65918 -0.22781,3.152428 -2.95369,9.906446 -0.71852,11.59458 3.00596,3.359043 3.52,6.024708 3.52,10.977438 0.12184,14.36895 -11.94748,20.43233 -10.34909,33.05595 -4.87698,1.47875 -3.63788,-4.00608 -3.43067,-5.74279 z m -42.51831,-20.49045 c -4.68337,-5.77506 -0.39604,-9.16574 0.28142,-14.771339 0.29141,-2.560758 1.23443,-4.448729 2.45359,-4.912256 6.90594,-0.865549 14.88523,-3.17138 21.88306,-0.819984 3.94998,1.013835 7.76355,2.733602 9.78841,5.265712 2.57739,4.203387 1.4648,4.740897 -1.87274,6.127887 0.38438,1.92556 -0.0596,4.16543 -1.51784,4.96155 -5.04584,1.18668 -10.40985,-0.31546 -16.15783,1.45464 -1.34001,0.43894 -3.10807,2.62829 -2.88567,3.57326 -0.75029,4.27566 -10.03906,0.80905 -11.9724,-0.87947 z m -20.374026,1.52023 c -1.128615,-2.35836 -5.519479,-1.05849 -5.567904,-3.1346 -2.406347,-4.63619 -11.786956,-0.87241 -16.029104,-3.29063 -1.010371,-2.44323 1.291126,-3.72509 2.589104,-5.25803 -2.609514,-0.30167 -6.69915,0.82435 -6.72,-2.620091 1.247622,-5.507305 10.274623,-6.533442 15.52,-7.048234 6.341271,-1.052637 12.895187,-1.317044 18.559683,1.885101 2.306451,1.296432 2.62905,2.955168 0.96041,4.938234 -0.973869,1.15738 -0.985194,1.47866 -0.120999,3.43232 1.048875,4.2919 0.04804,7.54602 -2.566009,10.67607 -0.700099,0.3578 -6.187411,0.70555 -6.625181,0.41986 z\" transform=\"translate(0 0) scale(1.9)\"/>' */\n      mload(0x40)\n      dup1\n      0x13c0\n      add\n      0x40\n      mstore\n      dup1\n      0x1381\n      dup2\n      mstore\n      0x20\n      add\n      data_b7f52011a44150afc62dbed9c45e19927c5368bc6f8cd86e03545d4bdff0f4e4\n      0x1381\n      swap2\n      codecopy\n      swap1\n      pop\n        /* \"Dynamic_Oracle_Based_NFT_BCC22/contracts/players.sol\":24791:24798  level>0 */\n      dup2\n      iszero\n        /* \"Dynamic_Oracle_Based_NFT_BCC22/contracts/players.sol\":24787:29178  if (level>0) {... */\n      tag_17\n      jumpi\n        /* \"Dynamic_Oracle_Based_NFT_BCC22/contracts/players.sol\":25160:25163  svg */\n      dup1\n        /* \"Dynamic_Oracle_Based_NFT_BCC22/contracts/players.sol\":25143:26242  abi.encodePacked(svg, '<path style=\"fill:#9c5221\"  d=\"m -3.2016949e-6,1159 c 2.1344633e-6,0 1.0672316e-6,0 0,0 z M 0.1268068,289.75 c -0.08453787,579.5 -0.04226893,289.75 0,0 z m 207.1905932,4.52111 34.8174,-25.34859 34.429,25.03754 c 18.936,13.77065 34.9931,25.15058 35.6826,25.28874 0.6895,0.13816 1.1307,-0.49554 0.9806,-1.40821 -0.1502,-0.91268 -6.1101,-19.57424 -13.2442,-41.47013 -10.1878,-31.26816 -12.7041,-40.05127 -11.727,-40.93175 0.6843,-0.61657 17.14983,-11.79288 35.7009,-26.02987 L 358.4134,184.5 314.0711,184 269.7287,183.5 256.4878,142.70675 c -4.72603,-13.49006 -10.17035,-29.31454 -14.43246,-42.32564 -0.265,0.26498 -6.90204,19.41565 -14.09254,41.61917 -7.1905,22.20352 -13.3003,40.73671 -13.5772,41.18488 C 214.1086,183.63332 194.3335,184 170.441,184 c -23.89257,0 -43.42888,0.3375 -43.41405,0.75 0.0148,0.4125 15.76483,12.1502 35.00005,26.08379 19.2351,13.93359 34.9725,25.63359 34.972,26 -6e-4,0.36642 -6.0752,19.34121 -13.499,42.16621 -7.4239,22.825 -13.4984,41.63906 -13.499,41.80902 0,0.58693 2.63612,-1.28915 37.3164,-26.53791 z\" transform=\"translate(300,0) scale(0.2)\"/>') */\n      add(0x20, mload(0x40))\n      tag_12\n      swap2\n      swap1\n      tag_13\n      jump\t// in\n    tag_12:\n      mload(0x40)\n      0x20\n      dup2\n      dup4\n      sub\n      sub\n      dup2\n      mstore\n      swap1\n      0x40\n      mstore\n        /* \"Dynamic_Oracle_Based_NFT_BCC22/contracts/players.sol\":25130:26243  svg = string(abi.encodePacked(svg, '<path style=\"fill:#9c5221\"  d=\"m -3.2016949e-6,1159 c 2.1344633e-6,0 1.0672316e-6,0 0,0 z M 0.1268068,289.75 c -0.08453787,579.5 -0.04226893,289.75 0,0 z m 207.1905932,4.52111 34.8174,-25.34859 34.429,25.03754 c 18.936,13.77065 34.9931,25.15058 35.6826,25.28874 0.6895,0.13816 1.1307,-0.49554 0.9806,-1.40821 -0.1502,-0.91268 -6.1101,-19.57424 -13.2442,-41.47013 -10.1878,-31.26816 -12.7041,-40.05127 -11.727,-40.93175 0.6843,-0.61657 17.14983,-11.79288 35.7009,-26.02987 L 358.4134,184.5 314.0711,184 269.7287,183.5 256.4878,142.70675 c -4.72603,-13.49006 -10.17035,-29.31454 -14.43246,-42.32564 -0.265,0.26498 -6.90204,19.41565 -14.09254,41.61917 -7.1905,22.20352 -13.3003,40.73671 -13.5772,41.18488 C 214.1086,183.63332 194.3335,184 170.441,184 c -23.89257,0 -43.42888,0.3375 -43.41405,0.75 0.0148,0.4125 15.76483,12.1502 35.00005,26.08379 19.2351,13.93359 34.9725,25.63359 34.972,26 -6e-4,0.36642 -6.0752,19.34121 -13.499,42.16621 -7.4239,22.825 -13.4984,41.63906 -13.499,41.80902 0,0.58693 2.63612,-1.28915 37.3164,-26.53791 z\" transform=\"translate(300,0) scale(0.2)\"/>')) */\n      swap1\n      pop\n        /* \"Dynamic_Oracle_Based_NFT_BCC22/contracts/players.sol\":26259:26260  1 */\n      0x01\n        /* \"Dynamic_Oracle_Based_NFT_BCC22/contracts/players.sol\":26253:26258  level */\n      dup3\n        /* \"Dynamic_Oracle_Based_NFT_BCC22/contracts/players.sol\":26253:26260  level>1 */\n      gt\n        /* \"Dynamic_Oracle_Based_NFT_BCC22/contracts/players.sol\":26249:29177  if (level>1) {... */\n      iszero\n      tag_17\n      jumpi\n        /* \"Dynamic_Oracle_Based_NFT_BCC22/contracts/players.sol\":26622:26625  svg */\n      dup1\n        /* \"Dynamic_Oracle_Based_NFT_BCC22/contracts/players.sol\":26605:27705  abi.encodePacked(svg, '<path style=\"fill:#b2b9bc\"  d=\"m -3.2016949e-6,1159 c 2.1344633e-6,0 1.0672316e-6,0 0,0 z M 0.1268068,289.75 c -0.08453787,579.5 -0.04226893,289.75 0,0 z m 207.1905932,4.52111 34.8174,-25.34859 34.429,25.03754 c 18.936,13.77065 34.9931,25.15058 35.6826,25.28874 0.6895,0.13816 1.1307,-0.49554 0.9806,-1.40821 -0.1502,-0.91268 -6.1101,-19.57424 -13.2442,-41.47013 -10.1878,-31.26816 -12.7041,-40.05127 -11.727,-40.93175 0.6843,-0.61657 17.14983,-11.79288 35.7009,-26.02987 L 358.4134,184.5 314.0711,184 269.7287,183.5 256.4878,142.70675 c -4.72603,-13.49006 -10.17035,-29.31454 -14.43246,-42.32564 -0.265,0.26498 -6.90204,19.41565 -14.09254,41.61917 -7.1905,22.20352 -13.3003,40.73671 -13.5772,41.18488 C 214.1086,183.63332 194.3335,184 170.441,184 c -23.89257,0 -43.42888,0.3375 -43.41405,0.75 0.0148,0.4125 15.76483,12.1502 35.00005,26.08379 19.2351,13.93359 34.9725,25.63359 34.972,26 -6e-4,0.36642 -6.0752,19.34121 -13.499,42.16621 -7.4239,22.825 -13.4984,41.63906 -13.499,41.80902 0,0.58693 2.63612,-1.28915 37.3164,-26.53791 z\" transform=\"translate(300,60) scale(0.2)\"/>') */\n      add(0x20, mload(0x40))\n      tag_15\n      swap2\n      swap1\n      tag_16\n      jump\t// in\n    tag_15:\n      mload(0x40)\n      0x20\n      dup2\n      dup4\n      sub\n      sub\n      dup2\n      mstore\n      swap1\n      0x40\n      mstore\n        /* \"Dynamic_Oracle_Based_NFT_BCC22/contracts/players.sol\":26592:27706  svg = string(abi.encodePacked(svg, '<path style=\"fill:#b2b9bc\"  d=\"m -3.2016949e-6,1159 c 2.1344633e-6,0 1.0672316e-6,0 0,0 z M 0.1268068,289.75 c -0.08453787,579.5 -0.04226893,289.75 0,0 z m 207.1905932,4.52111 34.8174,-25.34859 34.429,25.03754 c 18.936,13.77065 34.9931,25.15058 35.6826,25.28874 0.6895,0.13816 1.1307,-0.49554 0.9806,-1.40821 -0.1502,-0.91268 -6.1101,-19.57424 -13.2442,-41.47013 -10.1878,-31.26816 -12.7041,-40.05127 -11.727,-40.93175 0.6843,-0.61657 17.14983,-11.79288 35.7009,-26.02987 L 358.4134,184.5 314.0711,184 269.7287,183.5 256.4878,142.70675 c -4.72603,-13.49006 -10.17035,-29.31454 -14.43246,-42.32564 -0.265,0.26498 -6.90204,19.41565 -14.09254,41.61917 -7.1905,22.20352 -13.3003,40.73671 -13.5772,41.18488 C 214.1086,183.63332 194.3335,184 170.441,184 c -23.89257,0 -43.42888,0.3375 -43.41405,0.75 0.0148,0.4125 15.76483,12.1502 35.00005,26.08379 19.2351,13.93359 34.9725,25.63359 34.972,26 -6e-4,0.36642 -6.0752,19.34121 -13.499,42.16621 -7.4239,22.825 -13.4984,41.63906 -13.499,41.80902 0,0.58693 2.63612,-1.28915 37.3164,-26.53791 z\" transform=\"translate(300,60) scale(0.2)\"/>')) */\n      swap1\n      pop\n        /* \"Dynamic_Oracle_Based_NFT_BCC22/contracts/players.sol\":27722:27723  2 */\n      0x02\n        /* \"Dynamic_Oracle_Based_NFT_BCC22/contracts/players.sol\":27716:27721  level */\n      dup3\n        /* \"Dynamic_Oracle_Based_NFT_BCC22/contracts/players.sol\":27716:27723  level>2 */\n      gt\n        /* \"Dynamic_Oracle_Based_NFT_BCC22/contracts/players.sol\":27712:29176  if (level>2) {... */\n      iszero\n      tag_17\n      jumpi\n        /* \"Dynamic_Oracle_Based_NFT_BCC22/contracts/players.sol\":28084:28087  svg */\n      dup1\n        /* \"Dynamic_Oracle_Based_NFT_BCC22/contracts/players.sol\":28067:29168  abi.encodePacked(svg, '<path style=\"fill:#ffe449\"  d=\"m -3.2016949e-6,1159 c 2.1344633e-6,0 1.0672316e-6,0 0,0 z M 0.1268068,289.75 c -0.08453787,579.5 -0.04226893,289.75 0,0 z m 207.1905932,4.52111 34.8174,-25.34859 34.429,25.03754 c 18.936,13.77065 34.9931,25.15058 35.6826,25.28874 0.6895,0.13816 1.1307,-0.49554 0.9806,-1.40821 -0.1502,-0.91268 -6.1101,-19.57424 -13.2442,-41.47013 -10.1878,-31.26816 -12.7041,-40.05127 -11.727,-40.93175 0.6843,-0.61657 17.14983,-11.79288 35.7009,-26.02987 L 358.4134,184.5 314.0711,184 269.7287,183.5 256.4878,142.70675 c -4.72603,-13.49006 -10.17035,-29.31454 -14.43246,-42.32564 -0.265,0.26498 -6.90204,19.41565 -14.09254,41.61917 -7.1905,22.20352 -13.3003,40.73671 -13.5772,41.18488 C 214.1086,183.63332 194.3335,184 170.441,184 c -23.89257,0 -43.42888,0.3375 -43.41405,0.75 0.0148,0.4125 15.76483,12.1502 35.00005,26.08379 19.2351,13.93359 34.9725,25.63359 34.972,26 -6e-4,0.36642 -6.0752,19.34121 -13.499,42.16621 -7.4239,22.825 -13.4984,41.63906 -13.499,41.80902 0,0.58693 2.63612,-1.28915 37.3164,-26.53791 z\" transform=\"translate(300,120) scale(0.2)\"/>') */\n      add(0x20, mload(0x40))\n      tag_18\n      swap2\n      swap1\n      tag_19\n      jump\t// in\n    tag_18:\n      mload(0x40)\n      0x20\n      dup2\n      dup4\n      sub\n      sub\n      dup2\n      mstore\n      swap1\n      0x40\n      mstore\n        /* \"Dynamic_Oracle_Based_NFT_BCC22/contracts/players.sol\":28054:29169  svg = string(abi.encodePacked(svg, '<path style=\"fill:#ffe449\"  d=\"m -3.2016949e-6,1159 c 2.1344633e-6,0 1.0672316e-6,0 0,0 z M 0.1268068,289.75 c -0.08453787,579.5 -0.04226893,289.75 0,0 z m 207.1905932,4.52111 34.8174,-25.34859 34.429,25.03754 c 18.936,13.77065 34.9931,25.15058 35.6826,25.28874 0.6895,0.13816 1.1307,-0.49554 0.9806,-1.40821 -0.1502,-0.91268 -6.1101,-19.57424 -13.2442,-41.47013 -10.1878,-31.26816 -12.7041,-40.05127 -11.727,-40.93175 0.6843,-0.61657 17.14983,-11.79288 35.7009,-26.02987 L 358.4134,184.5 314.0711,184 269.7287,183.5 256.4878,142.70675 c -4.72603,-13.49006 -10.17035,-29.31454 -14.43246,-42.32564 -0.265,0.26498 -6.90204,19.41565 -14.09254,41.61917 -7.1905,22.20352 -13.3003,40.73671 -13.5772,41.18488 C 214.1086,183.63332 194.3335,184 170.441,184 c -23.89257,0 -43.42888,0.3375 -43.41405,0.75 0.0148,0.4125 15.76483,12.1502 35.00005,26.08379 19.2351,13.93359 34.9725,25.63359 34.972,26 -6e-4,0.36642 -6.0752,19.34121 -13.499,42.16621 -7.4239,22.825 -13.4984,41.63906 -13.499,41.80902 0,0.58693 2.63612,-1.28915 37.3164,-26.53791 z\" transform=\"translate(300,120) scale(0.2)\"/>')) */\n      swap1\n      pop\n        /* \"Dynamic_Oracle_Based_NFT_BCC22/contracts/players.sol\":27712:29176  if (level>2) {... */\n    tag_17:\n        /* \"Dynamic_Oracle_Based_NFT_BCC22/contracts/players.sol\":14310:29180  function getSVG(uint level) external pure returns (string memory svg) {... */\n      swap2\n      swap1\n      pop\n      jump\t// out\n        /* \"#utility.yul\":14:194   */\n    tag_6:\n        /* \"#utility.yul\":73:79   */\n      0x00\n        /* \"#utility.yul\":126:128   */\n      0x20\n        /* \"#utility.yul\":114:123   */\n      dup3\n        /* \"#utility.yul\":105:112   */\n      dup5\n        /* \"#utility.yul\":101:124   */\n      sub\n        /* \"#utility.yul\":97:129   */\n      slt\n        /* \"#utility.yul\":94:146   */\n      iszero\n      tag_22\n      jumpi\n        /* \"#utility.yul\":142:143   */\n      0x00\n        /* \"#utility.yul\":139:140   */\n      dup1\n        /* \"#utility.yul\":132:144   */\n      revert\n        /* \"#utility.yul\":94:146   */\n    tag_22:\n      pop\n        /* \"#utility.yul\":165:188   */\n      calldataload\n      swap2\n        /* \"#utility.yul\":14:194   */\n      swap1\n      pop\n      jump\t// out\n        /* \"#utility.yul\":199:2998   */\n    tag_19:\n        /* \"#utility.yul\":431:434   */\n      0x00\n        /* \"#utility.yul\":469:475   */\n      dup3\n        /* \"#utility.yul\":463:476   */\n      mload\n        /* \"#utility.yul\":485:538   */\n      tag_24\n        /* \"#utility.yul\":531:537   */\n      dup2\n        /* \"#utility.yul\":526:529   */\n      dup5\n        /* \"#utility.yul\":519:523   */\n      0x20\n        /* \"#utility.yul\":511:517   */\n      dup8\n        /* \"#utility.yul\":507:524   */\n      add\n        /* \"#utility.yul\":485:538   */\n      tag_25\n      jump\t// in\n    tag_24:\n        /* \"#utility.yul\":599:665   */\n      0x3c70617468207374796c653d2266696c6c3a23666665343439222020643d226d\n        /* \"#utility.yul\":560:576   */\n      swap3\n      add\n        /* \"#utility.yul\":585:666   */\n      swap2\n      dup3\n      mstore\n      pop\n        /* \"#utility.yul\":700:734   */\n      0x202d332e32303136393439652d362c31313539206320322e3133343436333365\n        /* \"#utility.yul\":693:697   */\n      0x20\n        /* \"#utility.yul\":682:698   */\n      dup3\n      add\n        /* \"#utility.yul\":675:735   */\n      mstore\n        /* \"#utility.yul\":767:801   */\n      0x2d362c3020312e30363732333136652d362c3020302c30207a204d20302e3132\n        /* \"#utility.yul\":762:764   */\n      0x40\n        /* \"#utility.yul\":751:765   */\n      dup3\n      add\n        /* \"#utility.yul\":744:802   */\n      mstore\n        /* \"#utility.yul\":834:868   */\n      0x36383036382c3238392e37352063202d302e30383435333738372c3537392e35\n        /* \"#utility.yul\":829:831   */\n      0x60\n        /* \"#utility.yul\":818:832   */\n      dup3\n      add\n        /* \"#utility.yul\":811:869   */\n      mstore\n        /* \"#utility.yul\":902:936   */\n      0x202d302e30343232363839332c3238392e373520302c30207a206d203230372e\n        /* \"#utility.yul\":896:899   */\n      0x80\n        /* \"#utility.yul\":885:900   */\n      dup3\n      add\n        /* \"#utility.yul\":878:937   */\n      mstore\n        /* \"#utility.yul\":970:1004   */\n      0x313930353933322c342e35323131312033342e383137342c2d32352e33343835\n        /* \"#utility.yul\":964:967   */\n      0xa0\n        /* \"#utility.yul\":953:968   */\n      dup3\n      add\n        /* \"#utility.yul\":946:1005   */\n      mstore\n        /* \"#utility.yul\":1038:1072   */\n      0x392033342e3432392c32352e303337353420632031382e3933362c31332e3737\n        /* \"#utility.yul\":1032:1035   */\n      0xc0\n        /* \"#utility.yul\":1021:1036   */\n      dup3\n      add\n        /* \"#utility.yul\":1014:1073   */\n      mstore\n        /* \"#utility.yul\":1106:1140   */\n      0x3036352033342e393933312c32352e31353035382033352e363832362c32352e\n        /* \"#utility.yul\":1100:1103   */\n      0xe0\n        /* \"#utility.yul\":1089:1104   */\n      dup3\n      add\n        /* \"#utility.yul\":1082:1141   */\n      mstore\n        /* \"#utility.yul\":1174:1208   */\n      0x323838373420302e363839352c302e313338313620312e313330372c2d302e34\n        /* \"#utility.yul\":1168:1171   */\n      0x0100\n        /* \"#utility.yul\":1157:1172   */\n      dup3\n      add\n        /* \"#utility.yul\":1150:1209   */\n      mstore\n        /* \"#utility.yul\":1242:1276   */\n      0x3935353420302e393830362c2d312e3430383231202d302e313530322c2d302e\n        /* \"#utility.yul\":1236:1239   */\n      0x0120\n        /* \"#utility.yul\":1225:1240   */\n      dup3\n      add\n        /* \"#utility.yul\":1218:1277   */\n      mstore\n        /* \"#utility.yul\":1310:1344   */\n      0x3931323638202d362e313130312c2d31392e3537343234202d31332e32343432\n        /* \"#utility.yul\":1304:1307   */\n      0x0140\n        /* \"#utility.yul\":1293:1308   */\n      dup3\n      add\n        /* \"#utility.yul\":1286:1345   */\n      mstore\n        /* \"#utility.yul\":1378:1412   */\n      0x2c2d34312e3437303133202d31302e313837382c2d33312e3236383136202d31\n        /* \"#utility.yul\":1372:1375   */\n      0x0160\n        /* \"#utility.yul\":1361:1376   */\n      dup3\n      add\n        /* \"#utility.yul\":1354:1413   */\n      mstore\n        /* \"#utility.yul\":1446:1480   */\n      0x322e373034312c2d34302e3035313237202d31312e3732372c2d34302e393331\n        /* \"#utility.yul\":1440:1443   */\n      0x0180\n        /* \"#utility.yul\":1429:1444   */\n      dup3\n      add\n        /* \"#utility.yul\":1422:1481   */\n      mstore\n        /* \"#utility.yul\":1514:1548   */\n      0x373520302e363834332c2d302e36313635372031372e31343938332c2d31312e\n        /* \"#utility.yul\":1508:1511   */\n      0x01a0\n        /* \"#utility.yul\":1497:1512   */\n      dup3\n      add\n        /* \"#utility.yul\":1490:1549   */\n      mstore\n        /* \"#utility.yul\":1582:1616   */\n      0x37393238382033352e373030392c2d32362e3032393837204c203335382e3431\n        /* \"#utility.yul\":1576:1579   */\n      0x01c0\n        /* \"#utility.yul\":1565:1580   */\n      dup3\n      add\n        /* \"#utility.yul\":1558:1617   */\n      mstore\n        /* \"#utility.yul\":1650:1684   */\n      0x33342c3138342e35203331342e303731312c313834203236392e373238372c31\n        /* \"#utility.yul\":1644:1647   */\n      0x01e0\n        /* \"#utility.yul\":1633:1648   */\n      dup3\n      add\n        /* \"#utility.yul\":1626:1685   */\n      mstore\n        /* \"#utility.yul\":1718:1752   */\n      0x38332e35203235362e343837382c3134322e37303637352063202d342e373236\n        /* \"#utility.yul\":1712:1715   */\n      0x0200\n        /* \"#utility.yul\":1701:1716   */\n      dup3\n      add\n        /* \"#utility.yul\":1694:1753   */\n      mstore\n        /* \"#utility.yul\":1786:1820   */\n      0x30332c2d31332e3439303036202d31302e31373033352c2d32392e3331343534\n        /* \"#utility.yul\":1780:1783   */\n      0x0220\n        /* \"#utility.yul\":1769:1784   */\n      dup3\n      add\n        /* \"#utility.yul\":1762:1821   */\n      mstore\n        /* \"#utility.yul\":1854:1888   */\n      0x202d31342e34333234362c2d34322e3332353634202d302e3236352c302e3236\n        /* \"#utility.yul\":1848:1851   */\n      0x0240\n        /* \"#utility.yul\":1837:1852   */\n      dup3\n      add\n        /* \"#utility.yul\":1830:1889   */\n      mstore\n        /* \"#utility.yul\":1922:1956   */\n      0x343938202d362e39303230342c31392e3431353635202d31342e30393235342c\n        /* \"#utility.yul\":1916:1919   */\n      0x0260\n        /* \"#utility.yul\":1905:1920   */\n      dup3\n      add\n        /* \"#utility.yul\":1898:1957   */\n      mstore\n        /* \"#utility.yul\":1990:2024   */\n      0x34312e3631393137202d372e313930352c32322e3230333532202d31332e3330\n        /* \"#utility.yul\":1984:1987   */\n      0x0280\n        /* \"#utility.yul\":1973:1988   */\n      dup3\n      add\n        /* \"#utility.yul\":1966:2025   */\n      mstore\n        /* \"#utility.yul\":2058:2092   */\n      0x30332c34302e3733363731202d31332e353737322c34312e3138343838204320\n        /* \"#utility.yul\":2052:2055   */\n      0x02a0\n        /* \"#utility.yul\":2041:2056   */\n      dup3\n      add\n        /* \"#utility.yul\":2034:2093   */\n      mstore\n        /* \"#utility.yul\":2126:2160   */\n      0x3231342e313038362c3138332e3633333332203139342e333333352c31383420\n        /* \"#utility.yul\":2120:2123   */\n      0x02c0\n        /* \"#utility.yul\":2109:2124   */\n      dup3\n      add\n        /* \"#utility.yul\":2102:2161   */\n      mstore\n        /* \"#utility.yul\":2194:2228   */\n      0x3137302e3434312c3138342063202d32332e38393235372c30202d34332e3432\n        /* \"#utility.yul\":2188:2191   */\n      0x02e0\n        /* \"#utility.yul\":2177:2192   */\n      dup3\n      add\n        /* \"#utility.yul\":2170:2229   */\n      mstore\n        /* \"#utility.yul\":2262:2296   */\n      0x3838382c302e33333735202d34332e34313430352c302e373520302e30313438\n        /* \"#utility.yul\":2256:2259   */\n      0x0300\n        /* \"#utility.yul\":2245:2260   */\n      dup3\n      add\n        /* \"#utility.yul\":2238:2297   */\n      mstore\n        /* \"#utility.yul\":2330:2364   */\n      0x2c302e343132352031352e37363438332c31322e313530322033352e30303030\n        /* \"#utility.yul\":2324:2327   */\n      0x0320\n        /* \"#utility.yul\":2313:2328   */\n      dup3\n      add\n        /* \"#utility.yul\":2306:2365   */\n      mstore\n        /* \"#utility.yul\":2398:2432   */\n      0x352c32362e30383337392031392e323335312c31332e39333335392033342e39\n        /* \"#utility.yul\":2392:2395   */\n      0x0340\n        /* \"#utility.yul\":2381:2396   */\n      dup3\n      add\n        /* \"#utility.yul\":2374:2433   */\n      mstore\n        /* \"#utility.yul\":2466:2500   */\n      0x3732352c32352e36333335392033342e3937322c3236202d36652d342c302e33\n        /* \"#utility.yul\":2460:2463   */\n      0x0360\n        /* \"#utility.yul\":2449:2464   */\n      dup3\n      add\n        /* \"#utility.yul\":2442:2501   */\n      mstore\n        /* \"#utility.yul\":2534:2568   */\n      0x36363432202d362e303735322c31392e3334313231202d31332e3439392c3432\n        /* \"#utility.yul\":2528:2531   */\n      0x0380\n        /* \"#utility.yul\":2517:2532   */\n      dup3\n      add\n        /* \"#utility.yul\":2510:2569   */\n      mstore\n        /* \"#utility.yul\":2602:2636   */\n      0x2e3136363231202d372e343233392c32322e383235202d31332e343938342c34\n        /* \"#utility.yul\":2596:2599   */\n      0x03a0\n        /* \"#utility.yul\":2585:2600   */\n      dup3\n      add\n        /* \"#utility.yul\":2578:2637   */\n      mstore\n        /* \"#utility.yul\":2670:2704   */\n      0x312e3633393036202d31332e3439392c34312e383039303220302c302e353836\n        /* \"#utility.yul\":2664:2667   */\n      0x03c0\n        /* \"#utility.yul\":2653:2668   */\n      dup3\n      add\n        /* \"#utility.yul\":2646:2705   */\n      mstore\n        /* \"#utility.yul\":2738:2772   */\n      0x393320322e36333631322c2d312e32383931352033372e333136342c2d32362e\n        /* \"#utility.yul\":2732:2735   */\n      0x03e0\n        /* \"#utility.yul\":2721:2736   */\n      dup3\n      add\n        /* \"#utility.yul\":2714:2773   */\n      mstore\n        /* \"#utility.yul\":2807:2873   */\n      0x3533373931207a22207472616e73666f726d3d227472616e736c617465283330\n        /* \"#utility.yul\":2800:2804   */\n      0x0400\n        /* \"#utility.yul\":2789:2805   */\n      dup3\n      add\n        /* \"#utility.yul\":2782:2874   */\n      mstore\n      shl(0x61, 0x1816189918149039b1b0b632941817191491179f)\n        /* \"#utility.yul\":2901:2905   */\n      0x0420\n        /* \"#utility.yul\":2890:2906   */\n      dup3\n      add\n        /* \"#utility.yul\":2883:2960   */\n      mstore\n        /* \"#utility.yul\":2987:2991   */\n      0x0434\n        /* \"#utility.yul\":2976:2992   */\n      add\n      swap2\n        /* \"#utility.yul\":199:2998   */\n      swap1\n      pop\n      jump\t// out\n        /* \"#utility.yul\":3003:5801   */\n    tag_16:\n        /* \"#utility.yul\":3235:3238   */\n      0x00\n        /* \"#utility.yul\":3273:3279   */\n      dup3\n        /* \"#utility.yul\":3267:3280   */\n      mload\n        /* \"#utility.yul\":3289:3342   */\n      tag_27\n        /* \"#utility.yul\":3335:3341   */\n      dup2\n        /* \"#utility.yul\":3330:3333   */\n      dup5\n        /* \"#utility.yul\":3323:3327   */\n      0x20\n        /* \"#utility.yul\":3315:3321   */\n      dup8\n        /* \"#utility.yul\":3311:3328   */\n      add\n        /* \"#utility.yul\":3289:3342   */\n      tag_25\n      jump\t// in\n    tag_27:\n        /* \"#utility.yul\":3403:3469   */\n      0x3c70617468207374796c653d2266696c6c3a23623262396263222020643d226d\n        /* \"#utility.yul\":3364:3380   */\n      swap3\n      add\n        /* \"#utility.yul\":3389:3470   */\n      swap2\n      dup3\n      mstore\n      pop\n        /* \"#utility.yul\":3504:3538   */\n      0x202d332e32303136393439652d362c31313539206320322e3133343436333365\n        /* \"#utility.yul\":3497:3501   */\n      0x20\n        /* \"#utility.yul\":3486:3502   */\n      dup3\n      add\n        /* \"#utility.yul\":3479:3539   */\n      mstore\n        /* \"#utility.yul\":3571:3605   */\n      0x2d362c3020312e30363732333136652d362c3020302c30207a204d20302e3132\n        /* \"#utility.yul\":3566:3568   */\n      0x40\n        /* \"#utility.yul\":3555:3569   */\n      dup3\n      add\n        /* \"#utility.yul\":3548:3606   */\n      mstore\n        /* \"#utility.yul\":3638:3672   */\n      0x36383036382c3238392e37352063202d302e30383435333738372c3537392e35\n        /* \"#utility.yul\":3633:3635   */\n      0x60\n        /* \"#utility.yul\":3622:3636   */\n      dup3\n      add\n        /* \"#utility.yul\":3615:3673   */\n      mstore\n        /* \"#utility.yul\":3706:3740   */\n      0x202d302e30343232363839332c3238392e373520302c30207a206d203230372e\n        /* \"#utility.yul\":3700:3703   */\n      0x80\n        /* \"#utility.yul\":3689:3704   */\n      dup3\n      add\n        /* \"#utility.yul\":3682:3741   */\n      mstore\n        /* \"#utility.yul\":3774:3808   */\n      0x313930353933322c342e35323131312033342e383137342c2d32352e33343835\n        /* \"#utility.yul\":3768:3771   */\n      0xa0\n        /* \"#utility.yul\":3757:3772   */\n      dup3\n      add\n        /* \"#utility.yul\":3750:3809   */\n      mstore\n        /* \"#utility.yul\":3842:3876   */\n      0x392033342e3432392c32352e303337353420632031382e3933362c31332e3737\n        /* \"#utility.yul\":3836:3839   */\n      0xc0\n        /* \"#utility.yul\":3825:3840   */\n      dup3\n      add\n        /* \"#utility.yul\":3818:3877   */\n      mstore\n        /* \"#utility.yul\":3910:3944   */\n      0x3036352033342e393933312c32352e31353035382033352e363832362c32352e\n        /* \"#utility.yul\":3904:3907   */\n      0xe0\n        /* \"#utility.yul\":3893:3908   */\n      dup3\n      add\n        /* \"#utility.yul\":3886:3945   */\n      mstore\n        /* \"#utility.yul\":3978:4012   */\n      0x323838373420302e363839352c302e313338313620312e313330372c2d302e34\n        /* \"#utility.yul\":3972:3975   */\n      0x0100\n        /* \"#utility.yul\":3961:3976   */\n      dup3\n      add\n        /* \"#utility.yul\":3954:4013   */\n      mstore\n        /* \"#utility.yul\":4046:4080   */\n      0x3935353420302e393830362c2d312e3430383231202d302e313530322c2d302e\n        /* \"#utility.yul\":4040:4043   */\n      0x0120\n        /* \"#utility.yul\":4029:4044   */\n      dup3\n      add\n        /* \"#utility.yul\":4022:4081   */\n      mstore\n        /* \"#utility.yul\":4114:4148   */\n      0x3931323638202d362e313130312c2d31392e3537343234202d31332e32343432\n        /* \"#utility.yul\":4108:4111   */\n      0x0140\n        /* \"#utility.yul\":4097:4112   */\n      dup3\n      add\n        /* \"#utility.yul\":4090:4149   */\n      mstore\n        /* \"#utility.yul\":4182:4216   */\n      0x2c2d34312e3437303133202d31302e313837382c2d33312e3236383136202d31\n        /* \"#utility.yul\":4176:4179   */\n      0x0160\n        /* \"#utility.yul\":4165:4180   */\n      dup3\n      add\n        /* \"#utility.yul\":4158:4217   */\n      mstore\n        /* \"#utility.yul\":4250:4284   */\n      0x322e373034312c2d34302e3035313237202d31312e3732372c2d34302e393331\n        /* \"#utility.yul\":4244:4247   */\n      0x0180\n        /* \"#utility.yul\":4233:4248   */\n      dup3\n      add\n        /* \"#utility.yul\":4226:4285   */\n      mstore\n        /* \"#utility.yul\":4318:4352   */\n      0x373520302e363834332c2d302e36313635372031372e31343938332c2d31312e\n        /* \"#utility.yul\":4312:4315   */\n      0x01a0\n        /* \"#utility.yul\":4301:4316   */\n      dup3\n      add\n        /* \"#utility.yul\":4294:4353   */\n      mstore\n        /* \"#utility.yul\":4386:4420   */\n      0x37393238382033352e373030392c2d32362e3032393837204c203335382e3431\n        /* \"#utility.yul\":4380:4383   */\n      0x01c0\n        /* \"#utility.yul\":4369:4384   */\n      dup3\n      add\n        /* \"#utility.yul\":4362:4421   */\n      mstore\n        /* \"#utility.yul\":4454:4488   */\n      0x33342c3138342e35203331342e303731312c313834203236392e373238372c31\n        /* \"#utility.yul\":4448:4451   */\n      0x01e0\n        /* \"#utility.yul\":4437:4452   */\n      dup3\n      add\n        /* \"#utility.yul\":4430:4489   */\n      mstore\n        /* \"#utility.yul\":4522:4556   */\n      0x38332e35203235362e343837382c3134322e37303637352063202d342e373236\n        /* \"#utility.yul\":4516:4519   */\n      0x0200\n        /* \"#utility.yul\":4505:4520   */\n      dup3\n      add\n        /* \"#utility.yul\":4498:4557   */\n      mstore\n        /* \"#utility.yul\":4590:4624   */\n      0x30332c2d31332e3439303036202d31302e31373033352c2d32392e3331343534\n        /* \"#utility.yul\":4584:4587   */\n      0x0220\n        /* \"#utility.yul\":4573:4588   */\n      dup3\n      add\n        /* \"#utility.yul\":4566:4625   */\n      mstore\n        /* \"#utility.yul\":4658:4692   */\n      0x202d31342e34333234362c2d34322e3332353634202d302e3236352c302e3236\n        /* \"#utility.yul\":4652:4655   */\n      0x0240\n        /* \"#utility.yul\":4641:4656   */\n      dup3\n      add\n        /* \"#utility.yul\":4634:4693   */\n      mstore\n        /* \"#utility.yul\":4726:4760   */\n      0x343938202d362e39303230342c31392e3431353635202d31342e30393235342c\n        /* \"#utility.yul\":4720:4723   */\n      0x0260\n        /* \"#utility.yul\":4709:4724   */\n      dup3\n      add\n        /* \"#utility.yul\":4702:4761   */\n      mstore\n        /* \"#utility.yul\":4794:4828   */\n      0x34312e3631393137202d372e313930352c32322e3230333532202d31332e3330\n        /* \"#utility.yul\":4788:4791   */\n      0x0280\n        /* \"#utility.yul\":4777:4792   */\n      dup3\n      add\n        /* \"#utility.yul\":4770:4829   */\n      mstore\n        /* \"#utility.yul\":4862:4896   */\n      0x30332c34302e3733363731202d31332e353737322c34312e3138343838204320\n        /* \"#utility.yul\":4856:4859   */\n      0x02a0\n        /* \"#utility.yul\":4845:4860   */\n      dup3\n      add\n        /* \"#utility.yul\":4838:4897   */\n      mstore\n        /* \"#utility.yul\":4930:4964   */\n      0x3231342e313038362c3138332e3633333332203139342e333333352c31383420\n        /* \"#utility.yul\":4924:4927   */\n      0x02c0\n        /* \"#utility.yul\":4913:4928   */\n      dup3\n      add\n        /* \"#utility.yul\":4906:4965   */\n      mstore\n        /* \"#utility.yul\":4998:5032   */\n      0x3137302e3434312c3138342063202d32332e38393235372c30202d34332e3432\n        /* \"#utility.yul\":4992:4995   */\n      0x02e0\n        /* \"#utility.yul\":4981:4996   */\n      dup3\n      add\n        /* \"#utility.yul\":4974:5033   */\n      mstore\n        /* \"#utility.yul\":5066:5100   */\n      0x3838382c302e33333735202d34332e34313430352c302e373520302e30313438\n        /* \"#utility.yul\":5060:5063   */\n      0x0300\n        /* \"#utility.yul\":5049:5064   */\n      dup3\n      add\n        /* \"#utility.yul\":5042:5101   */\n      mstore\n        /* \"#utility.yul\":5134:5168   */\n      0x2c302e343132352031352e37363438332c31322e313530322033352e30303030\n        /* \"#utility.yul\":5128:5131   */\n      0x0320\n        /* \"#utility.yul\":5117:5132   */\n      dup3\n      add\n        /* \"#utility.yul\":5110:5169   */\n      mstore\n        /* \"#utility.yul\":5202:5236   */\n      0x352c32362e30383337392031392e323335312c31332e39333335392033342e39\n        /* \"#utility.yul\":5196:5199   */\n      0x0340\n        /* \"#utility.yul\":5185:5200   */\n      dup3\n      add\n        /* \"#utility.yul\":5178:5237   */\n      mstore\n        /* \"#utility.yul\":5270:5304   */\n      0x3732352c32352e36333335392033342e3937322c3236202d36652d342c302e33\n        /* \"#utility.yul\":5264:5267   */\n      0x0360\n        /* \"#utility.yul\":5253:5268   */\n      dup3\n      add\n        /* \"#utility.yul\":5246:5305   */\n      mstore\n        /* \"#utility.yul\":5338:5372   */\n      0x36363432202d362e303735322c31392e3334313231202d31332e3439392c3432\n        /* \"#utility.yul\":5332:5335   */\n      0x0380\n        /* \"#utility.yul\":5321:5336   */\n      dup3\n      add\n        /* \"#utility.yul\":5314:5373   */\n      mstore\n        /* \"#utility.yul\":5406:5440   */\n      0x2e3136363231202d372e343233392c32322e383235202d31332e343938342c34\n        /* \"#utility.yul\":5400:5403   */\n      0x03a0\n        /* \"#utility.yul\":5389:5404   */\n      dup3\n      add\n        /* \"#utility.yul\":5382:5441   */\n      mstore\n        /* \"#utility.yul\":5474:5508   */\n      0x312e3633393036202d31332e3439392c34312e383039303220302c302e353836\n        /* \"#utility.yul\":5468:5471   */\n      0x03c0\n        /* \"#utility.yul\":5457:5472   */\n      dup3\n      add\n        /* \"#utility.yul\":5450:5509   */\n      mstore\n        /* \"#utility.yul\":5542:5576   */\n      0x393320322e36333631322c2d312e32383931352033372e333136342c2d32362e\n        /* \"#utility.yul\":5536:5539   */\n      0x03e0\n        /* \"#utility.yul\":5525:5540   */\n      dup3\n      add\n        /* \"#utility.yul\":5518:5577   */\n      mstore\n        /* \"#utility.yul\":5611:5677   */\n      0x3533373931207a22207472616e73666f726d3d227472616e736c617465283330\n        /* \"#utility.yul\":5604:5608   */\n      0x0400\n        /* \"#utility.yul\":5593:5609   */\n      dup3\n      add\n        /* \"#utility.yul\":5586:5678   */\n      mstore\n      shl(0x69, 0x18161b18149039b1b0b632941817191491179f)\n        /* \"#utility.yul\":5705:5709   */\n      0x0420\n        /* \"#utility.yul\":5694:5710   */\n      dup3\n      add\n        /* \"#utility.yul\":5687:5763   */\n      mstore\n        /* \"#utility.yul\":5790:5794   */\n      0x0433\n        /* \"#utility.yul\":5779:5795   */\n      add\n      swap2\n        /* \"#utility.yul\":3003:5801   */\n      swap1\n      pop\n      jump\t// out\n        /* \"#utility.yul\":5806:8602   */\n    tag_13:\n        /* \"#utility.yul\":6038:6041   */\n      0x00\n        /* \"#utility.yul\":6076:6082   */\n      dup3\n        /* \"#utility.yul\":6070:6083   */\n      mload\n        /* \"#utility.yul\":6092:6145   */\n      tag_29\n        /* \"#utility.yul\":6138:6144   */\n      dup2\n        /* \"#utility.yul\":6133:6136   */\n      dup5\n        /* \"#utility.yul\":6126:6130   */\n      0x20\n        /* \"#utility.yul\":6118:6124   */\n      dup8\n        /* \"#utility.yul\":6114:6131   */\n      add\n        /* \"#utility.yul\":6092:6145   */\n      tag_25\n      jump\t// in\n    tag_29:\n        /* \"#utility.yul\":6206:6272   */\n      0x3c70617468207374796c653d2266696c6c3a23396335323231222020643d226d\n        /* \"#utility.yul\":6167:6183   */\n      swap3\n      add\n        /* \"#utility.yul\":6192:6273   */\n      swap2\n      dup3\n      mstore\n      pop\n        /* \"#utility.yul\":6307:6341   */\n      0x202d332e32303136393439652d362c31313539206320322e3133343436333365\n        /* \"#utility.yul\":6300:6304   */\n      0x20\n        /* \"#utility.yul\":6289:6305   */\n      dup3\n      add\n        /* \"#utility.yul\":6282:6342   */\n      mstore\n        /* \"#utility.yul\":6374:6408   */\n      0x2d362c3020312e30363732333136652d362c3020302c30207a204d20302e3132\n        /* \"#utility.yul\":6369:6371   */\n      0x40\n        /* \"#utility.yul\":6358:6372   */\n      dup3\n      add\n        /* \"#utility.yul\":6351:6409   */\n      mstore\n        /* \"#utility.yul\":6441:6475   */\n      0x36383036382c3238392e37352063202d302e30383435333738372c3537392e35\n        /* \"#utility.yul\":6436:6438   */\n      0x60\n        /* \"#utility.yul\":6425:6439   */\n      dup3\n      add\n        /* \"#utility.yul\":6418:6476   */\n      mstore\n        /* \"#utility.yul\":6509:6543   */\n      0x202d302e30343232363839332c3238392e373520302c30207a206d203230372e\n        /* \"#utility.yul\":6503:6506   */\n      0x80\n        /* \"#utility.yul\":6492:6507   */\n      dup3\n      add\n        /* \"#utility.yul\":6485:6544   */\n      mstore\n        /* \"#utility.yul\":6577:6611   */\n      0x313930353933322c342e35323131312033342e383137342c2d32352e33343835\n        /* \"#utility.yul\":6571:6574   */\n      0xa0\n        /* \"#utility.yul\":6560:6575   */\n      dup3\n      add\n        /* \"#utility.yul\":6553:6612   */\n      mstore\n        /* \"#utility.yul\":6645:6679   */\n      0x392033342e3432392c32352e303337353420632031382e3933362c31332e3737\n        /* \"#utility.yul\":6639:6642   */\n      0xc0\n        /* \"#utility.yul\":6628:6643   */\n      dup3\n      add\n        /* \"#utility.yul\":6621:6680   */\n      mstore\n        /* \"#utility.yul\":6713:6747   */\n      0x3036352033342e393933312c32352e31353035382033352e363832362c32352e\n        /* \"#utility.yul\":6707:6710   */\n      0xe0\n        /* \"#utility.yul\":6696:6711   */\n      dup3\n      add\n        /* \"#utility.yul\":6689:6748   */\n      mstore\n        /* \"#utility.yul\":6781:6815   */\n      0x323838373420302e363839352c302e313338313620312e313330372c2d302e34\n        /* \"#utility.yul\":6775:6778   */\n      0x0100\n        /* \"#utility.yul\":6764:6779   */\n      dup3\n      add\n        /* \"#utility.yul\":6757:6816   */\n      mstore\n        /* \"#utility.yul\":6849:6883   */\n      0x3935353420302e393830362c2d312e3430383231202d302e313530322c2d302e\n        /* \"#utility.yul\":6843:6846   */\n      0x0120\n        /* \"#utility.yul\":6832:6847   */\n      dup3\n      add\n        /* \"#utility.yul\":6825:6884   */\n      mstore\n        /* \"#utility.yul\":6917:6951   */\n      0x3931323638202d362e313130312c2d31392e3537343234202d31332e32343432\n        /* \"#utility.yul\":6911:6914   */\n      0x0140\n        /* \"#utility.yul\":6900:6915   */\n      dup3\n      add\n        /* \"#utility.yul\":6893:6952   */\n      mstore\n        /* \"#utility.yul\":6985:7019   */\n      0x2c2d34312e3437303133202d31302e313837382c2d33312e3236383136202d31\n        /* \"#utility.yul\":6979:6982   */\n      0x0160\n        /* \"#utility.yul\":6968:6983   */\n      dup3\n      add\n        /* \"#utility.yul\":6961:7020   */\n      mstore\n        /* \"#utility.yul\":7053:7087   */\n      0x322e373034312c2d34302e3035313237202d31312e3732372c2d34302e393331\n        /* \"#utility.yul\":7047:7050   */\n      0x0180\n        /* \"#utility.yul\":7036:7051   */\n      dup3\n      add\n        /* \"#utility.yul\":7029:7088   */\n      mstore\n        /* \"#utility.yul\":7121:7155   */\n      0x373520302e363834332c2d302e36313635372031372e31343938332c2d31312e\n        /* \"#utility.yul\":7115:7118   */\n      0x01a0\n        /* \"#utility.yul\":7104:7119   */\n      dup3\n      add\n        /* \"#utility.yul\":7097:7156   */\n      mstore\n        /* \"#utility.yul\":7189:7223   */\n      0x37393238382033352e373030392c2d32362e3032393837204c203335382e3431\n        /* \"#utility.yul\":7183:7186   */\n      0x01c0\n        /* \"#utility.yul\":7172:7187   */\n      dup3\n      add\n        /* \"#utility.yul\":7165:7224   */\n      mstore\n        /* \"#utility.yul\":7257:7291   */\n      0x33342c3138342e35203331342e303731312c313834203236392e373238372c31\n        /* \"#utility.yul\":7251:7254   */\n      0x01e0\n        /* \"#utility.yul\":7240:7255   */\n      dup3\n      add\n        /* \"#utility.yul\":7233:7292   */\n      mstore\n        /* \"#utility.yul\":7325:7359   */\n      0x38332e35203235362e343837382c3134322e37303637352063202d342e373236\n        /* \"#utility.yul\":7319:7322   */\n      0x0200\n        /* \"#utility.yul\":7308:7323   */\n      dup3\n      add\n        /* \"#utility.yul\":7301:7360   */\n      mstore\n        /* \"#utility.yul\":7393:7427   */\n      0x30332c2d31332e3439303036202d31302e31373033352c2d32392e3331343534\n        /* \"#utility.yul\":7387:7390   */\n      0x0220\n        /* \"#utility.yul\":7376:7391   */\n      dup3\n      add\n        /* \"#utility.yul\":7369:7428   */\n      mstore\n        /* \"#utility.yul\":7461:7495   */\n      0x202d31342e34333234362c2d34322e3332353634202d302e3236352c302e3236\n        /* \"#utility.yul\":7455:7458   */\n      0x0240\n        /* \"#utility.yul\":7444:7459   */\n      dup3\n      add\n        /* \"#utility.yul\":7437:7496   */\n      mstore\n        /* \"#utility.yul\":7529:7563   */\n      0x343938202d362e39303230342c31392e3431353635202d31342e30393235342c\n        /* \"#utility.yul\":7523:7526   */\n      0x0260\n        /* \"#utility.yul\":7512:7527   */\n      dup3\n      add\n        /* \"#utility.yul\":7505:7564   */\n      mstore\n        /* \"#utility.yul\":7597:7631   */\n      0x34312e3631393137202d372e313930352c32322e3230333532202d31332e3330\n        /* \"#utility.yul\":7591:7594   */\n      0x0280\n        /* \"#utility.yul\":7580:7595   */\n      dup3\n      add\n        /* \"#utility.yul\":7573:7632   */\n      mstore\n        /* \"#utility.yul\":7665:7699   */\n      0x30332c34302e3733363731202d31332e353737322c34312e3138343838204320\n        /* \"#utility.yul\":7659:7662   */\n      0x02a0\n        /* \"#utility.yul\":7648:7663   */\n      dup3\n      add\n        /* \"#utility.yul\":7641:7700   */\n      mstore\n        /* \"#utility.yul\":7733:7767   */\n      0x3231342e313038362c3138332e3633333332203139342e333333352c31383420\n        /* \"#utility.yul\":7727:7730   */\n      0x02c0\n        /* \"#utility.yul\":7716:7731   */\n      dup3\n      add\n        /* \"#utility.yul\":7709:7768   */\n      mstore\n        /* \"#utility.yul\":7801:7835   */\n      0x3137302e3434312c3138342063202d32332e38393235372c30202d34332e3432\n        /* \"#utility.yul\":7795:7798   */\n      0x02e0\n        /* \"#utility.yul\":7784:7799   */\n      dup3\n      add\n        /* \"#utility.yul\":7777:7836   */\n      mstore\n        /* \"#utility.yul\":7869:7903   */\n      0x3838382c302e33333735202d34332e34313430352c302e373520302e30313438\n        /* \"#utility.yul\":7863:7866   */\n      0x0300\n        /* \"#utility.yul\":7852:7867   */\n      dup3\n      add\n        /* \"#utility.yul\":7845:7904   */\n      mstore\n        /* \"#utility.yul\":7937:7971   */\n      0x2c302e343132352031352e37363438332c31322e313530322033352e30303030\n        /* \"#utility.yul\":7931:7934   */\n      0x0320\n        /* \"#utility.yul\":7920:7935   */\n      dup3\n      add\n        /* \"#utility.yul\":7913:7972   */\n      mstore\n        /* \"#utility.yul\":8005:8039   */\n      0x352c32362e30383337392031392e323335312c31332e39333335392033342e39\n        /* \"#utility.yul\":7999:8002   */\n      0x0340\n        /* \"#utility.yul\":7988:8003   */\n      dup3\n      add\n        /* \"#utility.yul\":7981:8040   */\n      mstore\n        /* \"#utility.yul\":8073:8107   */\n      0x3732352c32352e36333335392033342e3937322c3236202d36652d342c302e33\n        /* \"#utility.yul\":8067:8070   */\n      0x0360\n        /* \"#utility.yul\":8056:8071   */\n      dup3\n      add\n        /* \"#utility.yul\":8049:8108   */\n      mstore\n        /* \"#utility.yul\":8141:8175   */\n      0x36363432202d362e303735322c31392e3334313231202d31332e3439392c3432\n        /* \"#utility.yul\":8135:8138   */\n      0x0380\n        /* \"#utility.yul\":8124:8139   */\n      dup3\n      add\n        /* \"#utility.yul\":8117:8176   */\n      mstore\n        /* \"#utility.yul\":8209:8243   */\n      0x2e3136363231202d372e343233392c32322e383235202d31332e343938342c34\n        /* \"#utility.yul\":8203:8206   */\n      0x03a0\n        /* \"#utility.yul\":8192:8207   */\n      dup3\n      add\n        /* \"#utility.yul\":8185:8244   */\n      mstore\n        /* \"#utility.yul\":8277:8311   */\n      0x312e3633393036202d31332e3439392c34312e383039303220302c302e353836\n        /* \"#utility.yul\":8271:8274   */\n      0x03c0\n        /* \"#utility.yul\":8260:8275   */\n      dup3\n      add\n        /* \"#utility.yul\":8253:8312   */\n      mstore\n        /* \"#utility.yul\":8345:8379   */\n      0x393320322e36333631322c2d312e32383931352033372e333136342c2d32362e\n        /* \"#utility.yul\":8339:8342   */\n      0x03e0\n        /* \"#utility.yul\":8328:8343   */\n      dup3\n      add\n        /* \"#utility.yul\":8321:8380   */\n      mstore\n        /* \"#utility.yul\":8414:8480   */\n      0x3533373931207a22207472616e73666f726d3d227472616e736c617465283330\n        /* \"#utility.yul\":8407:8411   */\n      0x0400\n        /* \"#utility.yul\":8396:8412   */\n      dup3\n      add\n        /* \"#utility.yul\":8389:8481   */\n      mstore\n      shl(0x71, 0x181618149039b1b0b632941817191491179f)\n        /* \"#utility.yul\":8508:8512   */\n      0x0420\n        /* \"#utility.yul\":8497:8513   */\n      dup3\n      add\n        /* \"#utility.yul\":8490:8564   */\n      mstore\n        /* \"#utility.yul\":8591:8595   */\n      0x0432\n        /* \"#utility.yul\":8580:8596   */\n      add\n      swap2\n        /* \"#utility.yul\":5806:8602   */\n      swap1\n      pop\n      jump\t// out\n        /* \"#utility.yul\":8607:8990   */\n    tag_9:\n        /* \"#utility.yul\":8756:8758   */\n      0x20\n        /* \"#utility.yul\":8745:8754   */\n      dup2\n        /* \"#utility.yul\":8738:8759   */\n      mstore\n        /* \"#utility.yul\":8719:8723   */\n      0x00\n        /* \"#utility.yul\":8788:8794   */\n      dup3\n        /* \"#utility.yul\":8782:8795   */\n      mload\n        /* \"#utility.yul\":8831:8837   */\n      dup1\n        /* \"#utility.yul\":8826:8828   */\n      0x20\n        /* \"#utility.yul\":8815:8824   */\n      dup5\n        /* \"#utility.yul\":8811:8829   */\n      add\n        /* \"#utility.yul\":8804:8838   */\n      mstore\n        /* \"#utility.yul\":8847:8913   */\n      tag_31\n        /* \"#utility.yul\":8906:8912   */\n      dup2\n        /* \"#utility.yul\":8901:8903   */\n      0x40\n        /* \"#utility.yul\":8890:8899   */\n      dup6\n        /* \"#utility.yul\":8886:8904   */\n      add\n        /* \"#utility.yul\":8881:8883   */\n      0x20\n        /* \"#utility.yul\":8873:8879   */\n      dup8\n        /* \"#utility.yul\":8869:8884   */\n      add\n        /* \"#utility.yul\":8847:8913   */\n      tag_25\n      jump\t// in\n    tag_31:\n        /* \"#utility.yul\":8974:8976   */\n      0x1f\n        /* \"#utility.yul\":8953:8968   */\n      add\n      not(0x1f)\n        /* \"#utility.yul\":8949:8978   */\n      and\n        /* \"#utility.yul\":8934:8979   */\n      swap2\n      swap1\n      swap2\n      add\n        /* \"#utility.yul\":8981:8983   */\n      0x40\n        /* \"#utility.yul\":8930:8984   */\n      add\n      swap3\n        /* \"#utility.yul\":8607:8990   */\n      swap2\n      pop\n      pop\n      jump\t// out\n        /* \"#utility.yul\":8995:9253   */\n    tag_25:\n        /* \"#utility.yul\":9067:9068   */\n      0x00\n        /* \"#utility.yul\":9077:9190   */\n    tag_33:\n        /* \"#utility.yul\":9091:9097   */\n      dup4\n        /* \"#utility.yul\":9088:9089   */\n      dup2\n        /* \"#utility.yul\":9085:9098   */\n      lt\n        /* \"#utility.yul\":9077:9190   */\n      iszero\n      tag_35\n      jumpi\n        /* \"#utility.yul\":9167:9178   */\n      dup2\n      dup2\n      add\n        /* \"#utility.yul\":9161:9179   */\n      mload\n        /* \"#utility.yul\":9148:9159   */\n      dup4\n      dup3\n      add\n        /* \"#utility.yul\":9141:9180   */\n      mstore\n        /* \"#utility.yul\":9113:9115   */\n      0x20\n        /* \"#utility.yul\":9106:9116   */\n      add\n        /* \"#utility.yul\":9077:9190   */\n      jump(tag_33)\n    tag_35:\n        /* \"#utility.yul\":9208:9214   */\n      dup4\n        /* \"#utility.yul\":9205:9206   */\n      dup2\n        /* \"#utility.yul\":9202:9215   */\n      gt\n        /* \"#utility.yul\":9199:9247   */\n      iszero\n      tag_36\n      jumpi\n        /* \"#utility.yul\":9243:9244   */\n      0x00\n        /* \"#utility.yul\":9234:9240   */\n      dup5\n        /* \"#utility.yul\":9229:9232   */\n      dup5\n        /* \"#utility.yul\":9225:9241   */\n      add\n        /* \"#utility.yul\":9218:9245   */\n      mstore\n        /* \"#utility.yul\":9199:9247   */\n    tag_36:\n      pop\n        /* \"#utility.yul\":8995:9253   */\n      pop\n      pop\n      pop\n      jump\t// out\n    stop\n    data_b7f52011a44150afc62dbed9c45e19927c5368bc6f8cd86e03545d4bdff0f4e4 3c70617468207374796c653d2266696c6c3a233066336238362220643d226d20302c3233342e33313836206320342e393739303339392c2d332e3436373920392e393439353236352c2d372e31363635362031352e3235363136382c2d392e393634303420352e3537353833322c2d322e393538353720392e3836353438382c2d372e39313534312031352e3434363539392c2d31302e383934383420362e3738363137382c2d302e363735322031312e33332c2d392e313632352031372e33393832372c2d392e323936353920332e3632313739352c2d302e30303720332e3634383333392c312e313538383820302e30393339342c342e3132373635202d372e33333734312c352e36383439202d322e3434373733352c31332e343336313120312e38393033332c31372e383430323420332e3830323331312c342e353037333120392e3338383537342c342e35343230322031322e3634313839312c382e36363037322031322e3337373832332c372e31363134362033332e3736323738372c31312e36393830362034372e3637323830322c382e39313332342031332e31353239362c2d362e34383230392033332e37393139352c2d31342e38373131312033382e34323339362c2d32372e383536323420312e343631382c2d342e35373036202d342e36323232382c2d372e3732303439202d342e383233382c2d31322e34303236342031322e33393938362c312e34393734392033382e38353032362c32312e31333234352034372e39393938342c32392e363339343520562032353620482030205a206d2037362e3435303434382c2d35352e3938313632206320322e3635393430392c302e3236353320352e3037353030392c312e3638383620362e3537323833352c332e303135333820332e3532333437392c322e353730323320372e3839383339392c342e34393639332031322e3432373435392c342e303833333620342e33353633382c2d302e343634353520392e3336383135382c2d302e303334332031322e3836393235382c2d312e323439303420352e32343330342c2d312e373130373420382e32343738322c2d352e34393237322031322e37303332352c2d382e373436363820352e37383833342c2d302e323836373620372e37353238372c2d352e30343131362031322e30323531322c2d372e363130333720332e30383338342c2d302e393830383920342e35393030372c2d332e393538393920372e35383631332c2d352e353839363320322e31383632362c30202d312e38313838382c362e3836363933202d342e39343539372c382e3438202d362e35373832342c332e3731323139202d31302e33363434352c31322e3432323339202d31352e33313035322c31352e3736363436202d31332e39363732332c362e3831313938202d34302e3137363038332c372e3333323134202d34332e3932373536322c2d382e3134393438207a204d2039302e38382c3135372e34323336372063202d302e3739322c2d302e3134303933202d322e3334343632342c2d302e3236363931202d332e3435303237382c2d302e3237393935202d332e3135323938392c2d302e30333732202d332e3936313731362c2d302e3439383639202d382e3730393732322c2d342e3937303037202d322e3430363339352c2d322e3039373534202d362e3639323139362c2d342e3336343035202d332e3836343631342c2d372e323338323620312e3234363133312c2d312e323436313420312e3836363439322c2d312e313830353720332e3236303634332c302e333434363120342e36353233322c332e3133313220362e3739383833362c2d302e32303736352031322e3434333937312c312e393631373220342e3230363131322c312e333130333420372e3531343430362c2d312e38393839322031312e38383337352c2d312e323135383320362e33373935362c2d302e37323436382031312e39303734372c2d312e30323830392031382e32363738312c2d312e323438373320302e38303532342c2d312e303531393320312e37393237342c2d322e303438333820322e383534362c2d322e373032313120302e37313935372c302e30303720322e35313338342c312e373332383920322e35313338342c322e3431383336202d332e303337362c332e3935353539202d372e31333735342c31302e3832323931202d31332e30353733382c31312e3032363539202d372e30333739322c312e3232373736202d31342e3635303736312c332e3130333534202d32322e31343236322c312e3930333635207a206d2032302e34383738382c2d352e3637323131206320312e37323933392c2d302e313636313820322e35353231322c2d302e3837303120322e35353231322c2d322e3138333538202d302e35363035362c2d312e3432303937202d31312e31323339312c2d302e373533202d31322e36383331362c2d302e32353435202d342e3731353733332c302e3332303831202d382e3832303036342c2d302e3834363332202d31332e3433353133382c2d302e30343139202d332e3337363439392c302e3433393631202d332e3436383139382c302e3532333333202d322e3330313532332c322e313031333420322e3132323030392c312e343735343920352e3431353634322c312e363237303320382e3039393832312c322e3336343620362e373831362c322e34323630322031312e37323639372c2d312e33353230382031372e37363738382c2d312e3938353938207a204d2038352e3836393135352c3133372e33383935322063202d302e3631343230352c2d322e33353731202d312e30393533362c2d342e303430383620302e3737303834352c2d352e323232383520322e3031393333312c2d312e323638303720332e35343532372c2d312e323637333320352e37362c302e30303320392e36313731392c382e303731333120382e38303733372c2d332e37323933392031352e37373631322c2d312e3136393420312e36353135342c302e3832333920322e37363333372c302e363832353120332e33333536362c2d302e343234313920312e34303539392c2d332e3430333032202d312e38353337392c2d352e3030323939202d322e30393535372c2d372e303131343420322e32333930342c2d312e313534373620352e33393836382c312e383937313120362e31323638352c342e303636333520312e313930342c342e3133333538202d332e33313830322c362e3539313233202d342e38363230362c392e3138323834202d302e37363733332c312e37333436202d322e32373030372c332e3032363239202d332e35323038332c332e3032363239202d322e32363238392c2d302e3432373134202d322e31363831342c2d322e3837323231202d332e37373532342c2d322e3838202d322e32373035382c302e3236393433202d322e39363235342c322e3339333336202d352e3031363136352c332e3033373137202d322e3433393132392c312e3137373137202d342e3339363932322c2d302e3834343436202d362e3033343332372c2d302e30363835202d312e3939313736382c302e3634333038202d352e3732363934352c2d302e3336313637202d362e3436353238332c2d322e3533393237207a204d203134372e38323032342c3133322e3936206320302e343239322c2d332e323434383720312e37353230312c2d362e313939363520332e37313338382c2d382e383134353320312e36353136362c2d322e393935313120302e38393431342c2d352e3136303439202d312e33312c2d322e3437343037202d312e383237322c2d312e3433363132202d322e32343633332c2d332e3535323532202d312e37303337352c2d352e3136393637202d312e31353238362c2d392e3437303332202d302e31333239342c2d31372e373037323338202d332e3738332c2d32362e3734313733202d332e33343836362c2d372e353031313638202d352e333135322c2d31362e323536363739202d342e35393231342c2d32332e383539373132202d332e36333435392c2d32302e393130303136202d33302e39353533332c2d31342e343438333133202d34342e3338373931322c2d31302e303432202d392e3238323635342c342e333238393938202d32392e31343931362c2d342e313433323137202d33352e3436393135382c2d312e363532313938202d372e3536393334352c372e3132353737202d312e3236323835332c32312e383737363133202d362e3035333534322c33322e393735333838202d322e3231343338332c31322e32393631202d312e3934323236352c31372e333231353032202d332e3430373937382c32372e383538353232202d342e3232353634382c312e3333373538202d312e3239363934322c392e3336363634202d332e3630343734392c392e3434202d312e3338313039372c30202d332e3337383332332c2d332e3032363838202d332e3337383332332c2d352e313220432035322e3838393133332c3130382e35373436382033392e3232393633352c3130312e30363137332034322e342c39372e3232313634322034332e34313632342c39362e3031333930372034332e3430353737362c39352e3730333238362034322e3231353634352c39312e3734393836392034312e3937373338322c38342e32333135342033382e3631313136332c37322e3438303339372033392e3437343030362c36332e3635333835362034322e3933313531392c34322e3537303634352035302e3234363231392c33352e3433363333372036322e3135333830352c32322e3638353838382038302e3333333539372c31342e303436353532203130362e31343538332c392e32393238323332203132332e38342c31382e3830323538206320392e38393139352c342e3937353038372031392e33383538332c31312e37393834322032342e38393833362c31382e36313330363220392e36353633372c31332e33373832383820392e32393038392c32392e3935363830322031302e30363031362c34352e3635393138202d302e32323738312c332e313532343238202d322e39353336392c392e393036343436202d302e37313835322c31312e353934353820332e30303539362c332e33353930343320332e35322c362e30323437303820332e35322c31302e39373734333820302e31323138342c31342e3336383935202d31312e39343734382c32302e3433323333202d31302e33343930392c33332e3035353935202d342e38373639382c312e3437383735202d332e36333738382c2d342e3030363038202d332e34333036372c2d352e3734323739207a206d202d34322e35313833312c2d32302e34393034352063202d342e36383333372c2d352e3737353036202d302e33393630342c2d392e313635373420302e32383134322c2d31342e37373133333920302e32393134312c2d322e35363037353820312e32333434332c2d342e34343837323920322e34353335392c2d342e39313232353620362e39303539342c2d302e3836353534392031342e38383532332c2d332e31373133382032312e38383330362c2d302e38313939383420332e39343939382c312e30313338333520372e37363335352c322e37333336303220392e37383834312c352e32363537313220322e35373733392c342e32303333383720312e343634382c342e373430383937202d312e38373237342c362e31323738383720302e33383433382c312e3932353536202d302e303539362c342e3136353433202d312e35313738342c342e3936313535202d352e30343538342c312e3138363638202d31302e34303938352c2d302e3331353436202d31362e31353738332c312e3435343634202d312e33343030312c302e3433383934202d332e31303830372c322e3632383239202d322e38383536372c332e3537333236202d302e37353032392c342e3237353636202d31302e30333930362c302e3830393035202d31312e393732342c2d302e3837393437207a206d202d32302e3337343032362c312e35323032332063202d312e3132383631352c2d322e3335383336202d352e3531393437392c2d312e3035383439202d352e3536373930342c2d332e31333436202d322e3430363334372c2d342e3633363139202d31312e3738363935362c2d302e3837323431202d31362e3032393130342c2d332e3239303633202d312e3031303337312c2d322e343433323320312e3239313132362c2d332e373235303920322e3538393130342c2d352e3235383033202d322e3630393531342c2d302e3330313637202d362e36393931352c302e3832343335202d362e37322c2d322e36323030393120312e3234373632322c2d352e3530373330352031302e3237343632332c2d362e3533333434322031352e35322c2d372e30343832333420362e3334313237312c2d312e3035323633372031322e3839353138372c2d312e3331373034342031382e3535393638332c312e38383531303120322e3330363435312c312e32393634333220322e36323930352c322e39353531363820302e39363034312c342e393338323334202d302e3937333836392c312e3135373338202d302e3938353139342c312e3437383636202d302e3132303939392c332e343332333220312e3034383837352c342e3239313920302e30343830342c372e3534363032202d322e3536363030392c31302e3637363037202d302e3730303039392c302e33353738202d362e3138373431312c302e3730353535202d362e3632353138312c302e3431393836207a22207472616e73666f726d3d227472616e736c6174652830203029207363616c6528312e3929222f3e\n\n    auxdata: 0xa2646970667358221220c7b7d7e269e5da227e9cb18d779dcaed2650e5046a28671c6697fd5e74bfa9ee64736f6c63430008070033\n}\n",
				"bytecode": {
					"linkReferences": {},
					"object": "608060405234801561001057600080fd5b506124d8806100206000396000f3fe608060405234801561001057600080fd5b506004361061002b5760003560e01c8063be985ac914610030575b600080fd5b61004361003e3660046100fd565b610059565b60405161005091906110be565b60405180910390f35b6060604051806113c0016040528061138181526020016111226113819139905081156100f857806040516020016100909190610b87565b604051602081830303815290604052905060018211156100f857806040516020016100bb919061064f565b604051602081830303815290604052905060028211156100f857806040516020016100e69190610116565b60405160208183030381529060405290505b919050565b60006020828403121561010f57600080fd5b5035919050565b600082516101288184602087016110f1565b7f3c70617468207374796c653d2266696c6c3a23666665343439222020643d226d9201918252507f202d332e32303136393439652d362c31313539206320322e313334343633336560208201527f2d362c3020312e30363732333136652d362c3020302c30207a204d20302e313260408201527f36383036382c3238392e37352063202d302e30383435333738372c3537392e3560608201527f202d302e30343232363839332c3238392e373520302c30207a206d203230372e60808201527f313930353933322c342e35323131312033342e383137342c2d32352e3334383560a08201527f392033342e3432392c32352e303337353420632031382e3933362c31332e373760c08201527f3036352033342e393933312c32352e31353035382033352e363832362c32352e60e08201527f323838373420302e363839352c302e313338313620312e313330372c2d302e346101008201527f3935353420302e393830362c2d312e3430383231202d302e313530322c2d302e6101208201527f3931323638202d362e313130312c2d31392e3537343234202d31332e323434326101408201527f2c2d34312e3437303133202d31302e313837382c2d33312e3236383136202d316101608201527f322e373034312c2d34302e3035313237202d31312e3732372c2d34302e3933316101808201527f373520302e363834332c2d302e36313635372031372e31343938332c2d31312e6101a08201527f37393238382033352e373030392c2d32362e3032393837204c203335382e34316101c08201527f33342c3138342e35203331342e303731312c313834203236392e373238372c316101e08201527f38332e35203235362e343837382c3134322e37303637352063202d342e3732366102008201527f30332c2d31332e3439303036202d31302e31373033352c2d32392e33313435346102208201527f202d31342e34333234362c2d34322e3332353634202d302e3236352c302e32366102408201527f343938202d362e39303230342c31392e3431353635202d31342e30393235342c6102608201527f34312e3631393137202d372e313930352c32322e3230333532202d31332e33306102808201527f30332c34302e3733363731202d31332e353737322c34312e31383438382043206102a08201527f3231342e313038362c3138332e3633333332203139342e333333352c313834206102c08201527f3137302e3434312c3138342063202d32332e38393235372c30202d34332e34326102e08201527f3838382c302e33333735202d34332e34313430352c302e373520302e303134386103008201527f2c302e343132352031352e37363438332c31322e313530322033352e303030306103208201527f352c32362e30383337392031392e323335312c31332e39333335392033342e396103408201527f3732352c32352e36333335392033342e3937322c3236202d36652d342c302e336103608201527f36363432202d362e303735322c31392e3334313231202d31332e3439392c34326103808201527f2e3136363231202d372e343233392c32322e383235202d31332e343938342c346103a08201527f312e3633393036202d31332e3439392c34312e383039303220302c302e3538366103c08201527f393320322e36333631322c2d312e32383931352033372e333136342c2d32362e6103e08201527f3533373931207a22207472616e73666f726d3d227472616e736c617465283330610400820152731816189918149039b1b0b632941817191491179f60611b61042082015261043401919050565b600082516106618184602087016110f1565b7f3c70617468207374796c653d2266696c6c3a23623262396263222020643d226d9201918252507f202d332e32303136393439652d362c31313539206320322e313334343633336560208201527f2d362c3020312e30363732333136652d362c3020302c30207a204d20302e313260408201527f36383036382c3238392e37352063202d302e30383435333738372c3537392e3560608201527f202d302e30343232363839332c3238392e373520302c30207a206d203230372e60808201527f313930353933322c342e35323131312033342e383137342c2d32352e3334383560a08201527f392033342e3432392c32352e303337353420632031382e3933362c31332e373760c08201527f3036352033342e393933312c32352e31353035382033352e363832362c32352e60e08201527f323838373420302e363839352c302e313338313620312e313330372c2d302e346101008201527f3935353420302e393830362c2d312e3430383231202d302e313530322c2d302e6101208201527f3931323638202d362e313130312c2d31392e3537343234202d31332e323434326101408201527f2c2d34312e3437303133202d31302e313837382c2d33312e3236383136202d316101608201527f322e373034312c2d34302e3035313237202d31312e3732372c2d34302e3933316101808201527f373520302e363834332c2d302e36313635372031372e31343938332c2d31312e6101a08201527f37393238382033352e373030392c2d32362e3032393837204c203335382e34316101c08201527f33342c3138342e35203331342e303731312c313834203236392e373238372c316101e08201527f38332e35203235362e343837382c3134322e37303637352063202d342e3732366102008201527f30332c2d31332e3439303036202d31302e31373033352c2d32392e33313435346102208201527f202d31342e34333234362c2d34322e3332353634202d302e3236352c302e32366102408201527f343938202d362e39303230342c31392e3431353635202d31342e30393235342c6102608201527f34312e3631393137202d372e313930352c32322e3230333532202d31332e33306102808201527f30332c34302e3733363731202d31332e353737322c34312e31383438382043206102a08201527f3231342e313038362c3138332e3633333332203139342e333333352c313834206102c08201527f3137302e3434312c3138342063202d32332e38393235372c30202d34332e34326102e08201527f3838382c302e33333735202d34332e34313430352c302e373520302e303134386103008201527f2c302e343132352031352e37363438332c31322e313530322033352e303030306103208201527f352c32362e30383337392031392e323335312c31332e39333335392033342e396103408201527f3732352c32352e36333335392033342e3937322c3236202d36652d342c302e336103608201527f36363432202d362e303735322c31392e3334313231202d31332e3439392c34326103808201527f2e3136363231202d372e343233392c32322e383235202d31332e343938342c346103a08201527f312e3633393036202d31332e3439392c34312e383039303220302c302e3538366103c08201527f393320322e36333631322c2d312e32383931352033372e333136342c2d32362e6103e08201527f3533373931207a22207472616e73666f726d3d227472616e736c6174652833306104008201527218161b18149039b1b0b632941817191491179f60691b61042082015261043301919050565b60008251610b998184602087016110f1565b7f3c70617468207374796c653d2266696c6c3a23396335323231222020643d226d9201918252507f202d332e32303136393439652d362c31313539206320322e313334343633336560208201527f2d362c3020312e30363732333136652d362c3020302c30207a204d20302e313260408201527f36383036382c3238392e37352063202d302e30383435333738372c3537392e3560608201527f202d302e30343232363839332c3238392e373520302c30207a206d203230372e60808201527f313930353933322c342e35323131312033342e383137342c2d32352e3334383560a08201527f392033342e3432392c32352e303337353420632031382e3933362c31332e373760c08201527f3036352033342e393933312c32352e31353035382033352e363832362c32352e60e08201527f323838373420302e363839352c302e313338313620312e313330372c2d302e346101008201527f3935353420302e393830362c2d312e3430383231202d302e313530322c2d302e6101208201527f3931323638202d362e313130312c2d31392e3537343234202d31332e323434326101408201527f2c2d34312e3437303133202d31302e313837382c2d33312e3236383136202d316101608201527f322e373034312c2d34302e3035313237202d31312e3732372c2d34302e3933316101808201527f373520302e363834332c2d302e36313635372031372e31343938332c2d31312e6101a08201527f37393238382033352e373030392c2d32362e3032393837204c203335382e34316101c08201527f33342c3138342e35203331342e303731312c313834203236392e373238372c316101e08201527f38332e35203235362e343837382c3134322e37303637352063202d342e3732366102008201527f30332c2d31332e3439303036202d31302e31373033352c2d32392e33313435346102208201527f202d31342e34333234362c2d34322e3332353634202d302e3236352c302e32366102408201527f343938202d362e39303230342c31392e3431353635202d31342e30393235342c6102608201527f34312e3631393137202d372e313930352c32322e3230333532202d31332e33306102808201527f30332c34302e3733363731202d31332e353737322c34312e31383438382043206102a08201527f3231342e313038362c3138332e3633333332203139342e333333352c313834206102c08201527f3137302e3434312c3138342063202d32332e38393235372c30202d34332e34326102e08201527f3838382c302e33333735202d34332e34313430352c302e373520302e303134386103008201527f2c302e343132352031352e37363438332c31322e313530322033352e303030306103208201527f352c32362e30383337392031392e323335312c31332e39333335392033342e396103408201527f3732352c32352e36333335392033342e3937322c3236202d36652d342c302e336103608201527f36363432202d362e303735322c31392e3334313231202d31332e3439392c34326103808201527f2e3136363231202d372e343233392c32322e383235202d31332e343938342c346103a08201527f312e3633393036202d31332e3439392c34312e383039303220302c302e3538366103c08201527f393320322e36333631322c2d312e32383931352033372e333136342c2d32362e6103e08201527f3533373931207a22207472616e73666f726d3d227472616e736c61746528333061040082015271181618149039b1b0b632941817191491179f60711b61042082015261043201919050565b60208152600082518060208401526110dd8160408501602087016110f1565b601f01601f19169190910160400192915050565b60005b8381101561110c5781810151838201526020016110f4565b8381111561111b576000848401525b5050505056fe3c70617468207374796c653d2266696c6c3a233066336238362220643d226d20302c3233342e33313836206320342e393739303339392c2d332e3436373920392e393439353236352c2d372e31363635362031352e3235363136382c2d392e393634303420352e3537353833322c2d322e393538353720392e3836353438382c2d372e39313534312031352e3434363539392c2d31302e383934383420362e3738363137382c2d302e363735322031312e33332c2d392e313632352031372e33393832372c2d392e323936353920332e3632313739352c2d302e30303720332e3634383333392c312e313538383820302e30393339342c342e3132373635202d372e33333734312c352e36383439202d322e3434373733352c31332e343336313120312e38393033332c31372e383430323420332e3830323331312c342e353037333120392e3338383537342c342e35343230322031322e3634313839312c382e36363037322031322e3337373832332c372e31363134362033332e3736323738372c31312e36393830362034372e3637323830322c382e39313332342031332e31353239362c2d362e34383230392033332e37393139352c2d31342e38373131312033382e34323339362c2d32372e383536323420312e343631382c2d342e35373036202d342e36323232382c2d372e3732303439202d342e383233382c2d31322e34303236342031322e33393938362c312e34393734392033382e38353032362c32312e31333234352034372e39393938342c32392e363339343520562032353620482030205a206d2037362e3435303434382c2d35352e3938313632206320322e3635393430392c302e3236353320352e3037353030392c312e3638383620362e3537323833352c332e303135333820332e3532333437392c322e353730323320372e3839383339392c342e34393639332031322e3432373435392c342e303833333620342e33353633382c2d302e343634353520392e3336383135382c2d302e303334332031322e3836393235382c2d312e323439303420352e32343330342c2d312e373130373420382e32343738322c2d352e34393237322031322e37303332352c2d382e373436363820352e37383833342c2d302e323836373620372e37353238372c2d352e30343131362031322e30323531322c2d372e363130333720332e30383338342c2d302e393830383920342e35393030372c2d332e393538393920372e35383631332c2d352e353839363320322e31383632362c30202d312e38313838382c362e3836363933202d342e39343539372c382e3438202d362e35373832342c332e3731323139202d31302e33363434352c31322e3432323339202d31352e33313035322c31352e3736363436202d31332e39363732332c362e3831313938202d34302e3137363038332c372e3333323134202d34332e3932373536322c2d382e3134393438207a204d2039302e38382c3135372e34323336372063202d302e3739322c2d302e3134303933202d322e3334343632342c2d302e3236363931202d332e3435303237382c2d302e3237393935202d332e3135323938392c2d302e30333732202d332e3936313731362c2d302e3439383639202d382e3730393732322c2d342e3937303037202d322e3430363339352c2d322e3039373534202d362e3639323139362c2d342e3336343035202d332e3836343631342c2d372e323338323620312e3234363133312c2d312e323436313420312e3836363439322c2d312e313830353720332e3236303634332c302e333434363120342e36353233322c332e3133313220362e3739383833362c2d302e32303736352031322e3434333937312c312e393631373220342e3230363131322c312e333130333420372e3531343430362c2d312e38393839322031312e38383337352c2d312e323135383320362e33373935362c2d302e37323436382031312e39303734372c2d312e30323830392031382e32363738312c2d312e323438373320302e38303532342c2d312e303531393320312e37393237342c2d322e303438333820322e383534362c2d322e373032313120302e37313935372c302e30303720322e35313338342c312e373332383920322e35313338342c322e3431383336202d332e303337362c332e3935353539202d372e31333735342c31302e3832323931202d31332e30353733382c31312e3032363539202d372e30333739322c312e3232373736202d31342e3635303736312c332e3130333534202d32322e31343236322c312e3930333635207a206d2032302e34383738382c2d352e3637323131206320312e37323933392c2d302e313636313820322e35353231322c2d302e3837303120322e35353231322c2d322e3138333538202d302e35363035362c2d312e3432303937202d31312e31323339312c2d302e373533202d31322e36383331362c2d302e32353435202d342e3731353733332c302e3332303831202d382e3832303036342c2d302e3834363332202d31332e3433353133382c2d302e30343139202d332e3337363439392c302e3433393631202d332e3436383139382c302e3532333333202d322e3330313532332c322e313031333420322e3132323030392c312e343735343920352e3431353634322c312e363237303320382e3039393832312c322e3336343620362e373831362c322e34323630322031312e37323639372c2d312e33353230382031372e37363738382c2d312e3938353938207a204d2038352e3836393135352c3133372e33383935322063202d302e3631343230352c2d322e33353731202d312e30393533362c2d342e303430383620302e3737303834352c2d352e323232383520322e3031393333312c2d312e323638303720332e35343532372c2d312e323637333320352e37362c302e30303320392e36313731392c382e303731333120382e38303733372c2d332e37323933392031352e37373631322c2d312e3136393420312e36353135342c302e3832333920322e37363333372c302e363832353120332e33333536362c2d302e343234313920312e34303539392c2d332e3430333032202d312e38353337392c2d352e3030323939202d322e30393535372c2d372e303131343420322e32333930342c2d312e313534373620352e33393836382c312e383937313120362e31323638352c342e303636333520312e313930342c342e3133333538202d332e33313830322c362e3539313233202d342e38363230362c392e3138323834202d302e37363733332c312e37333436202d322e32373030372c332e3032363239202d332e35323038332c332e3032363239202d322e32363238392c2d302e3432373134202d322e31363831342c2d322e3837323231202d332e37373532342c2d322e3838202d322e32373035382c302e3236393433202d322e39363235342c322e3339333336202d352e3031363136352c332e3033373137202d322e3433393132392c312e3137373137202d342e3339363932322c2d302e3834343436202d362e3033343332372c2d302e30363835202d312e3939313736382c302e3634333038202d352e3732363934352c2d302e3336313637202d362e3436353238332c2d322e3533393237207a204d203134372e38323032342c3133322e3936206320302e343239322c2d332e323434383720312e37353230312c2d362e313939363520332e37313338382c2d382e383134353320312e36353136362c2d322e393935313120302e38393431342c2d352e3136303439202d312e33312c2d322e3437343037202d312e383237322c2d312e3433363132202d322e32343633332c2d332e3535323532202d312e37303337352c2d352e3136393637202d312e31353238362c2d392e3437303332202d302e31333239342c2d31372e373037323338202d332e3738332c2d32362e3734313733202d332e33343836362c2d372e353031313638202d352e333135322c2d31362e323536363739202d342e35393231342c2d32332e383539373132202d332e36333435392c2d32302e393130303136202d33302e39353533332c2d31342e343438333133202d34342e3338373931322c2d31302e303432202d392e3238323635342c342e333238393938202d32392e31343931362c2d342e313433323137202d33352e3436393135382c2d312e363532313938202d372e3536393334352c372e3132353737202d312e3236323835332c32312e383737363133202d362e3035333534322c33322e393735333838202d322e3231343338332c31322e32393631202d312e3934323236352c31372e333231353032202d332e3430373937382c32372e383538353232202d342e3232353634382c312e3333373538202d312e3239363934322c392e3336363634202d332e3630343734392c392e3434202d312e3338313039372c30202d332e3337383332332c2d332e3032363838202d332e3337383332332c2d352e313220432035322e3838393133332c3130382e35373436382033392e3232393633352c3130312e30363137332034322e342c39372e3232313634322034332e34313632342c39362e3031333930372034332e3430353737362c39352e3730333238362034322e3231353634352c39312e3734393836392034312e3937373338322c38342e32333135342033382e3631313136332c37322e3438303339372033392e3437343030362c36332e3635333835362034322e3933313531392c34322e3537303634352035302e3234363231392c33352e3433363333372036322e3135333830352c32322e3638353838382038302e3333333539372c31342e303436353532203130362e31343538332c392e32393238323332203132332e38342c31382e3830323538206320392e38393139352c342e3937353038372031392e33383538332c31312e37393834322032342e38393833362c31382e36313330363220392e36353633372c31332e33373832383820392e32393038392c32392e3935363830322031302e30363031362c34352e3635393138202d302e32323738312c332e313532343238202d322e39353336392c392e393036343436202d302e37313835322c31312e353934353820332e30303539362c332e33353930343320332e35322c362e30323437303820332e35322c31302e39373734333820302e31323138342c31342e3336383935202d31312e39343734382c32302e3433323333202d31302e33343930392c33332e3035353935202d342e38373639382c312e3437383735202d332e36333738382c2d342e3030363038202d332e34333036372c2d352e3734323739207a206d202d34322e35313833312c2d32302e34393034352063202d342e36383333372c2d352e3737353036202d302e33393630342c2d392e313635373420302e32383134322c2d31342e37373133333920302e32393134312c2d322e35363037353820312e32333434332c2d342e34343837323920322e34353335392c2d342e39313232353620362e39303539342c2d302e3836353534392031342e38383532332c2d332e31373133382032312e38383330362c2d302e38313939383420332e39343939382c312e30313338333520372e37363335352c322e37333336303220392e37383834312c352e32363537313220322e35373733392c342e32303333383720312e343634382c342e373430383937202d312e38373237342c362e31323738383720302e33383433382c312e3932353536202d302e303539362c342e3136353433202d312e35313738342c342e3936313535202d352e30343538342c312e3138363638202d31302e34303938352c2d302e3331353436202d31362e31353738332c312e3435343634202d312e33343030312c302e3433383934202d332e31303830372c322e3632383239202d322e38383536372c332e3537333236202d302e37353032392c342e3237353636202d31302e30333930362c302e3830393035202d31312e393732342c2d302e3837393437207a206d202d32302e3337343032362c312e35323032332063202d312e3132383631352c2d322e3335383336202d352e3531393437392c2d312e3035383439202d352e3536373930342c2d332e31333436202d322e3430363334372c2d342e3633363139202d31312e3738363935362c2d302e3837323431202d31362e3032393130342c2d332e3239303633202d312e3031303337312c2d322e343433323320312e3239313132362c2d332e373235303920322e3538393130342c2d352e3235383033202d322e3630393531342c2d302e3330313637202d362e36393931352c302e3832343335202d362e37322c2d322e36323030393120312e3234373632322c2d352e3530373330352031302e3237343632332c2d362e3533333434322031352e35322c2d372e30343832333420362e3334313237312c2d312e3035323633372031322e3839353138372c2d312e3331373034342031382e3535393638332c312e38383531303120322e3330363435312c312e32393634333220322e36323930352c322e39353531363820302e39363034312c342e393338323334202d302e3937333836392c312e3135373338202d302e3938353139342c312e3437383636202d302e3132303939392c332e343332333220312e3034383837352c342e3239313920302e30343830342c372e3534363032202d322e3536363030392c31302e3637363037202d302e3730303039392c302e33353738202d362e3138373431312c302e3730353535202d362e3632353138312c302e3431393836207a22207472616e73666f726d3d227472616e736c6174652830203029207363616c6528312e3929222f3ea2646970667358221220c7b7d7e269e5da227e9cb18d779dcaed2650e5046a28671c6697fd5e74bfa9ee64736f6c63430008070033",
					"opcodes": "PUSH1 0x80 PUSH1 0x40 MSTORE CALLVALUE DUP1 ISZERO PUSH2 0x10 JUMPI PUSH1 0x0 DUP1 REVERT JUMPDEST POP PUSH2 0x24D8 DUP1 PUSH2 0x20 PUSH1 0x0 CODECOPY PUSH1 0x0 RETURN INVALID PUSH1 0x80 PUSH1 0x40 MSTORE CALLVALUE DUP1 ISZERO PUSH2 0x10 JUMPI PUSH1 0x0 DUP1 REVERT JUMPDEST POP PUSH1 0x4 CALLDATASIZE LT PUSH2 0x2B JUMPI PUSH1 0x0 CALLDATALOAD PUSH1 0xE0 SHR DUP1 PUSH4 0xBE985AC9 EQ PUSH2 0x30 JUMPI JUMPDEST PUSH1 0x0 DUP1 REVERT JUMPDEST PUSH2 0x43 PUSH2 0x3E CALLDATASIZE PUSH1 0x4 PUSH2 0xFD JUMP JUMPDEST PUSH2 0x59 JUMP JUMPDEST PUSH1 0x40 MLOAD PUSH2 0x50 SWAP2 SWAP1 PUSH2 0x10BE JUMP JUMPDEST PUSH1 0x40 MLOAD DUP1 SWAP2 SUB SWAP1 RETURN JUMPDEST PUSH1 0x60 PUSH1 0x40 MLOAD DUP1 PUSH2 0x13C0 ADD PUSH1 0x40 MSTORE DUP1 PUSH2 0x1381 DUP2 MSTORE PUSH1 0x20 ADD PUSH2 0x1122 PUSH2 0x1381 SWAP2 CODECOPY SWAP1 POP DUP2 ISZERO PUSH2 0xF8 JUMPI DUP1 PUSH1 0x40 MLOAD PUSH1 0x20 ADD PUSH2 0x90 SWAP2 SWAP1 PUSH2 0xB87 JUMP JUMPDEST PUSH1 0x40 MLOAD PUSH1 0x20 DUP2 DUP4 SUB SUB DUP2 MSTORE SWAP1 PUSH1 0x40 MSTORE SWAP1 POP PUSH1 0x1 DUP3 GT ISZERO PUSH2 0xF8 JUMPI DUP1 PUSH1 0x40 MLOAD PUSH1 0x20 ADD PUSH2 0xBB SWAP2 SWAP1 PUSH2 0x64F JUMP JUMPDEST PUSH1 0x40 MLOAD PUSH1 0x20 DUP2 DUP4 SUB SUB DUP2 MSTORE SWAP1 PUSH1 0x40 MSTORE SWAP1 POP PUSH1 0x2 DUP3 GT ISZERO PUSH2 0xF8 JUMPI DUP1 PUSH1 0x40 MLOAD PUSH1 0x20 ADD PUSH2 0xE6 SWAP2 SWAP1 PUSH2 0x116 JUMP JUMPDEST PUSH1 0x40 MLOAD PUSH1 0x20 DUP2 DUP4 SUB SUB DUP2 MSTORE SWAP1 PUSH1 0x40 MSTORE SWAP1 POP JUMPDEST SWAP2 SWAP1 POP JUMP JUMPDEST PUSH1 0x0 PUSH1 0x20 DUP3 DUP5 SUB SLT ISZERO PUSH2 0x10F JUMPI PUSH1 0x0 DUP1 REVERT JUMPDEST POP CALLDATALOAD SWAP2 SWAP1 POP JUMP JUMPDEST PUSH1 0x0 DUP3 MLOAD PUSH2 0x128 DUP2 DUP5 PUSH1 0x20 DUP8 ADD PUSH2 0x10F1 JUMP JUMPDEST PUSH32 0x3C70617468207374796C653D2266696C6C3A23666665343439222020643D226D SWAP3 ADD SWAP2 DUP3 MSTORE POP PUSH32 0x202D332E32303136393439652D362C31313539206320322E3133343436333365 PUSH1 0x20 DUP3 ADD MSTORE PUSH32 0x2D362C3020312E30363732333136652D362C3020302C30207A204D20302E3132 PUSH1 0x40 DUP3 ADD MSTORE PUSH32 0x36383036382C3238392E37352063202D302E30383435333738372C3537392E35 PUSH1 0x60 DUP3 ADD MSTORE PUSH32 0x202D302E30343232363839332C3238392E373520302C30207A206D203230372E PUSH1 0x80 DUP3 ADD MSTORE PUSH32 0x313930353933322C342E35323131312033342E383137342C2D32352E33343835 PUSH1 0xA0 DUP3 ADD MSTORE PUSH32 0x392033342E3432392C32352E303337353420632031382E3933362C31332E3737 PUSH1 0xC0 DUP3 ADD MSTORE PUSH32 0x3036352033342E393933312C32352E31353035382033352E363832362C32352E PUSH1 0xE0 DUP3 ADD MSTORE PUSH32 0x323838373420302E363839352C302E313338313620312E313330372C2D302E34 PUSH2 0x100 DUP3 ADD MSTORE PUSH32 0x3935353420302E393830362C2D312E3430383231202D302E313530322C2D302E PUSH2 0x120 DUP3 ADD MSTORE PUSH32 0x3931323638202D362E313130312C2D31392E3537343234202D31332E32343432 PUSH2 0x140 DUP3 ADD MSTORE PUSH32 0x2C2D34312E3437303133202D31302E313837382C2D33312E3236383136202D31 PUSH2 0x160 DUP3 ADD MSTORE PUSH32 0x322E373034312C2D34302E3035313237202D31312E3732372C2D34302E393331 PUSH2 0x180 DUP3 ADD MSTORE PUSH32 0x373520302E363834332C2D302E36313635372031372E31343938332C2D31312E PUSH2 0x1A0 DUP3 ADD MSTORE PUSH32 0x37393238382033352E373030392C2D32362E3032393837204C203335382E3431 PUSH2 0x1C0 DUP3 ADD MSTORE PUSH32 0x33342C3138342E35203331342E303731312C313834203236392E373238372C31 PUSH2 0x1E0 DUP3 ADD MSTORE PUSH32 0x38332E35203235362E343837382C3134322E37303637352063202D342E373236 PUSH2 0x200 DUP3 ADD MSTORE PUSH32 0x30332C2D31332E3439303036202D31302E31373033352C2D32392E3331343534 PUSH2 0x220 DUP3 ADD MSTORE PUSH32 0x202D31342E34333234362C2D34322E3332353634202D302E3236352C302E3236 PUSH2 0x240 DUP3 ADD MSTORE PUSH32 0x343938202D362E39303230342C31392E3431353635202D31342E30393235342C PUSH2 0x260 DUP3 ADD MSTORE PUSH32 0x34312E3631393137202D372E313930352C32322E3230333532202D31332E3330 PUSH2 0x280 DUP3 ADD MSTORE PUSH32 0x30332C34302E3733363731202D31332E353737322C34312E3138343838204320 PUSH2 0x2A0 DUP3 ADD MSTORE PUSH32 0x3231342E313038362C3138332E3633333332203139342E333333352C31383420 PUSH2 0x2C0 DUP3 ADD MSTORE PUSH32 0x3137302E3434312C3138342063202D32332E38393235372C30202D34332E3432 PUSH2 0x2E0 DUP3 ADD MSTORE PUSH32 0x3838382C302E33333735202D34332E34313430352C302E373520302E30313438 PUSH2 0x300 DUP3 ADD MSTORE PUSH32 0x2C302E343132352031352E37363438332C31322E313530322033352E30303030 PUSH2 0x320 DUP3 ADD MSTORE PUSH32 0x352C32362E30383337392031392E323335312C31332E39333335392033342E39 PUSH2 0x340 DUP3 ADD MSTORE PUSH32 0x3732352C32352E36333335392033342E3937322C3236202D36652D342C302E33 PUSH2 0x360 DUP3 ADD MSTORE PUSH32 0x36363432202D362E303735322C31392E3334313231202D31332E3439392C3432 PUSH2 0x380 DUP3 ADD MSTORE PUSH32 0x2E3136363231202D372E343233392C32322E383235202D31332E343938342C34 PUSH2 0x3A0 DUP3 ADD MSTORE PUSH32 0x312E3633393036202D31332E3439392C34312E383039303220302C302E353836 PUSH2 0x3C0 DUP3 ADD MSTORE PUSH32 0x393320322E36333631322C2D312E32383931352033372E333136342C2D32362E PUSH2 0x3E0 DUP3 ADD MSTORE PUSH32 0x3533373931207A22207472616E73666F726D3D227472616E736C617465283330 PUSH2 0x400 DUP3 ADD MSTORE PUSH20 0x1816189918149039B1B0B632941817191491179F PUSH1 0x61 SHL PUSH2 0x420 DUP3 ADD MSTORE PUSH2 0x434 ADD SWAP2 SWAP1 POP JUMP JUMPDEST PUSH1 0x0 DUP3 MLOAD PUSH2 0x661 DUP2 DUP5 PUSH1 0x20 DUP8 ADD PUSH2 0x10F1 JUMP JUMPDEST PUSH32 0x3C70617468207374796C653D2266696C6C3A23623262396263222020643D226D SWAP3 ADD SWAP2 DUP3 MSTORE POP PUSH32 0x202D332E32303136393439652D362C31313539206320322E3133343436333365 PUSH1 0x20 DUP3 ADD MSTORE PUSH32 0x2D362C3020312E30363732333136652D362C3020302C30207A204D20302E3132 PUSH1 0x40 DUP3 ADD MSTORE PUSH32 0x36383036382C3238392E37352063202D302E30383435333738372C3537392E35 PUSH1 0x60 DUP3 ADD MSTORE PUSH32 0x202D302E30343232363839332C3238392E373520302C30207A206D203230372E PUSH1 0x80 DUP3 ADD MSTORE PUSH32 0x313930353933322C342E35323131312033342E383137342C2D32352E33343835 PUSH1 0xA0 DUP3 ADD MSTORE PUSH32 0x392033342E3432392C32352E303337353420632031382E3933362C31332E3737 PUSH1 0xC0 DUP3 ADD MSTORE PUSH32 0x3036352033342E393933312C32352E31353035382033352E363832362C32352E PUSH1 0xE0 DUP3 ADD MSTORE PUSH32 0x323838373420302E363839352C302E313338313620312E313330372C2D302E34 PUSH2 0x100 DUP3 ADD MSTORE PUSH32 0x3935353420302E393830362C2D312E3430383231202D302E313530322C2D302E PUSH2 0x120 DUP3 ADD MSTORE PUSH32 0x3931323638202D362E313130312C2D31392E3537343234202D31332E32343432 PUSH2 0x140 DUP3 ADD MSTORE PUSH32 0x2C2D34312E3437303133202D31302E313837382C2D33312E3236383136202D31 PUSH2 0x160 DUP3 ADD MSTORE PUSH32 0x322E373034312C2D34302E3035313237202D31312E3732372C2D34302E393331 PUSH2 0x180 DUP3 ADD MSTORE PUSH32 0x373520302E363834332C2D302E36313635372031372E31343938332C2D31312E PUSH2 0x1A0 DUP3 ADD MSTORE PUSH32 0x37393238382033352E373030392C2D32362E3032393837204C203335382E3431 PUSH2 0x1C0 DUP3 ADD MSTORE PUSH32 0x33342C3138342E35203331342E303731312C313834203236392E373238372C31 PUSH2 0x1E0 DUP3 ADD MSTORE PUSH32 0x38332E35203235362E343837382C3134322E37303637352063202D342E373236 PUSH2 0x200 DUP3 ADD MSTORE PUSH32 0x30332C2D31332E3439303036202D31302E31373033352C2D32392E3331343534 PUSH2 0x220 DUP3 ADD MSTORE PUSH32 0x202D31342E34333234362C2D34322E3332353634202D302E3236352C302E3236 PUSH2 0x240 DUP3 ADD MSTORE PUSH32 0x343938202D362E39303230342C31392E3431353635202D31342E30393235342C PUSH2 0x260 DUP3 ADD MSTORE PUSH32 0x34312E3631393137202D372E313930352C32322E3230333532202D31332E3330 PUSH2 0x280 DUP3 ADD MSTORE PUSH32 0x30332C34302E3733363731202D31332E353737322C34312E3138343838204320 PUSH2 0x2A0 DUP3 ADD MSTORE PUSH32 0x3231342E313038362C3138332E3633333332203139342E333333352C31383420 PUSH2 0x2C0 DUP3 ADD MSTORE PUSH32 0x3137302E3434312C3138342063202D32332E38393235372C30202D34332E3432 PUSH2 0x2E0 DUP3 ADD MSTORE PUSH32 0x3838382C302E33333735202D34332E34313430352C302E373520302E30313438 PUSH2 0x300 DUP3 ADD MSTORE PUSH32 0x2C302E343132352031352E37363438332C31322E313530322033352E30303030 PUSH2 0x320 DUP3 ADD MSTORE PUSH32 0x352C32362E30383337392031392E323335312C31332E39333335392033342E39 PUSH2 0x340 DUP3 ADD MSTORE PUSH32 0x3732352C32352E36333335392033342E3937322C3236202D36652D342C302E33 PUSH2 0x360 DUP3 ADD MSTORE PUSH32 0x36363432202D362E303735322C31392E3334313231202D31332E3439392C3432 PUSH2 0x380 DUP3 ADD MSTORE PUSH32 0x2E3136363231202D372E343233392C32322E383235202D31332E343938342C34 PUSH2 0x3A0 DUP3 ADD MSTORE PUSH32 0x312E3633393036202D31332E3439392C34312E383039303220302C302E353836 PUSH2 0x3C0 DUP3 ADD MSTORE PUSH32 0x393320322E36333631322C2D312E32383931352033372E333136342C2D32362E PUSH2 0x3E0 DUP3 ADD MSTORE PUSH32 0x3533373931207A22207472616E73666F726D3D227472616E736C617465283330 PUSH2 0x400 DUP3 ADD MSTORE PUSH19 0x18161B18149039B1B0B632941817191491179F PUSH1 0x69 SHL PUSH2 0x420 DUP3 ADD MSTORE PUSH2 0x433 ADD SWAP2 SWAP1 POP JUMP JUMPDEST PUSH1 0x0 DUP3 MLOAD PUSH2 0xB99 DUP2 DUP5 PUSH1 0x20 DUP8 ADD PUSH2 0x10F1 JUMP JUMPDEST PUSH32 0x3C70617468207374796C653D2266696C6C3A23396335323231222020643D226D SWAP3 ADD SWAP2 DUP3 MSTORE POP PUSH32 0x202D332E32303136393439652D362C31313539206320322E3133343436333365 PUSH1 0x20 DUP3 ADD MSTORE PUSH32 0x2D362C3020312E30363732333136652D362C3020302C30207A204D20302E3132 PUSH1 0x40 DUP3 ADD MSTORE PUSH32 0x36383036382C3238392E37352063202D302E30383435333738372C3537392E35 PUSH1 0x60 DUP3 ADD MSTORE PUSH32 0x202D302E30343232363839332C3238392E373520302C30207A206D203230372E PUSH1 0x80 DUP3 ADD MSTORE PUSH32 0x313930353933322C342E35323131312033342E383137342C2D32352E33343835 PUSH1 0xA0 DUP3 ADD MSTORE PUSH32 0x392033342E3432392C32352E303337353420632031382E3933362C31332E3737 PUSH1 0xC0 DUP3 ADD MSTORE PUSH32 0x3036352033342E393933312C32352E31353035382033352E363832362C32352E PUSH1 0xE0 DUP3 ADD MSTORE PUSH32 0x323838373420302E363839352C302E313338313620312E313330372C2D302E34 PUSH2 0x100 DUP3 ADD MSTORE PUSH32 0x3935353420302E393830362C2D312E3430383231202D302E313530322C2D302E PUSH2 0x120 DUP3 ADD MSTORE PUSH32 0x3931323638202D362E313130312C2D31392E3537343234202D31332E32343432 PUSH2 0x140 DUP3 ADD MSTORE PUSH32 0x2C2D34312E3437303133202D31302E313837382C2D33312E3236383136202D31 PUSH2 0x160 DUP3 ADD MSTORE PUSH32 0x322E373034312C2D34302E3035313237202D31312E3732372C2D34302E393331 PUSH2 0x180 DUP3 ADD MSTORE PUSH32 0x373520302E363834332C2D302E36313635372031372E31343938332C2D31312E PUSH2 0x1A0 DUP3 ADD MSTORE PUSH32 0x37393238382033352E373030392C2D32362E3032393837204C203335382E3431 PUSH2 0x1C0 DUP3 ADD MSTORE PUSH32 0x33342C3138342E35203331342E303731312C313834203236392E373238372C31 PUSH2 0x1E0 DUP3 ADD MSTORE PUSH32 0x38332E35203235362E343837382C3134322E37303637352063202D342E373236 PUSH2 0x200 DUP3 ADD MSTORE PUSH32 0x30332C2D31332E3439303036202D31302E31373033352C2D32392E3331343534 PUSH2 0x220 DUP3 ADD MSTORE PUSH32 0x202D31342E34333234362C2D34322E3332353634202D302E3236352C302E3236 PUSH2 0x240 DUP3 ADD MSTORE PUSH32 0x343938202D362E39303230342C31392E3431353635202D31342E30393235342C PUSH2 0x260 DUP3 ADD MSTORE PUSH32 0x34312E3631393137202D372E313930352C32322E3230333532202D31332E3330 PUSH2 0x280 DUP3 ADD MSTORE PUSH32 0x30332C34302E3733363731202D31332E353737322C34312E3138343838204320 PUSH2 0x2A0 DUP3 ADD MSTORE PUSH32 0x3231342E313038362C3138332E3633333332203139342E333333352C31383420 PUSH2 0x2C0 DUP3 ADD MSTORE PUSH32 0x3137302E3434312C3138342063202D32332E38393235372C30202D34332E3432 PUSH2 0x2E0 DUP3 ADD MSTORE PUSH32 0x3838382C302E33333735202D34332E34313430352C302E373520302E30313438 PUSH2 0x300 DUP3 ADD MSTORE PUSH32 0x2C302E343132352031352E37363438332C31322E313530322033352E30303030 PUSH2 0x320 DUP3 ADD MSTORE PUSH32 0x352C32362E30383337392031392E323335312C31332E39333335392033342E39 PUSH2 0x340 DUP3 ADD MSTORE PUSH32 0x3732352C32352E36333335392033342E3937322C3236202D36652D342C302E33 PUSH2 0x360 DUP3 ADD MSTORE PUSH32 0x36363432202D362E303735322C31392E3334313231202D31332E3439392C3432 PUSH2 0x380 DUP3 ADD MSTORE PUSH32 0x2E3136363231202D372E343233392C32322E383235202D31332E343938342C34 PUSH2 0x3A0 DUP3 ADD MSTORE PUSH32 0x312E3633393036202D31332E3439392C34312E383039303220302C302E353836 PUSH2 0x3C0 DUP3 ADD MSTORE PUSH32 0x393320322E36333631322C2D312E32383931352033372E333136342C2D32362E PUSH2 0x3E0 DUP3 ADD MSTORE PUSH32 0x3533373931207A22207472616E73666F726D3D227472616E736C617465283330 PUSH2 0x400 DUP3 ADD MSTORE PUSH18 0x181618149039B1B0B632941817191491179F PUSH1 0x71 SHL PUSH2 0x420 DUP3 ADD MSTORE PUSH2 0x432 ADD SWAP2 SWAP1 POP JUMP JUMPDEST PUSH1 0x20 DUP2 MSTORE PUSH1 0x0 DUP3 MLOAD DUP1 PUSH1 0x20 DUP5 ADD MSTORE PUSH2 0x10DD DUP2 PUSH1 0x40 DUP6 ADD PUSH1 0x20 DUP8 ADD PUSH2 0x10F1 JUMP JUMPDEST PUSH1 0x1F ADD PUSH1 0x1F NOT AND SWAP2 SWAP1 SWAP2 ADD PUSH1 0x40 ADD SWAP3 SWAP2 POP POP JUMP JUMPDEST PUSH1 0x0 JUMPDEST DUP4 DUP2 LT ISZERO PUSH2 0x110C JUMPI DUP2 DUP2 ADD MLOAD DUP4 DUP3 ADD MSTORE PUSH1 0x20 ADD PUSH2 0x10F4 JUMP JUMPDEST DUP4 DUP2 GT ISZERO PUSH2 0x111B JUMPI PUSH1 0x0 DUP5 DUP5 ADD MSTORE JUMPDEST POP POP POP POP JUMP INVALID EXTCODECOPY PUSH17 0x617468207374796C653D2266696C6C3A23 ADDRESS PUSH7 0x33623836222064 RETURNDATASIZE 0x22 PUSH14 0x20302C3233342E33313836206320 CALLVALUE 0x2E CODECOPY CALLDATACOPY CODECOPY ADDRESS CALLER CODECOPY CODECOPY 0x2C 0x2D CALLER 0x2E CALLVALUE CALLDATASIZE CALLDATACOPY CODECOPY KECCAK256 CODECOPY 0x2E CODECOPY CALLVALUE CODECOPY CALLDATALOAD ORIGIN CALLDATASIZE CALLDATALOAD 0x2C 0x2D CALLDATACOPY 0x2E BALANCE CALLDATASIZE CALLDATASIZE CALLDATALOAD CALLDATASIZE KECCAK256 BALANCE CALLDATALOAD 0x2E ORIGIN CALLDATALOAD CALLDATASIZE BALANCE CALLDATASIZE CODESIZE 0x2C 0x2D CODECOPY 0x2E CODECOPY CALLDATASIZE CALLVALUE ADDRESS CALLVALUE KECCAK256 CALLDATALOAD 0x2E CALLDATALOAD CALLDATACOPY CALLDATALOAD CODESIZE CALLER ORIGIN 0x2C 0x2D ORIGIN 0x2E CODECOPY CALLDATALOAD CODESIZE CALLDATALOAD CALLDATACOPY KECCAK256 CODECOPY 0x2E CODESIZE CALLDATASIZE CALLDATALOAD CALLVALUE CODESIZE CODESIZE 0x2C 0x2D CALLDATACOPY 0x2E CODECOPY BALANCE CALLDATALOAD CALLVALUE BALANCE KECCAK256 BALANCE CALLDATALOAD 0x2E CALLVALUE CALLVALUE CALLDATASIZE CALLDATALOAD CODECOPY CODECOPY 0x2C 0x2D BALANCE ADDRESS 0x2E CODESIZE CODECOPY CALLVALUE CODESIZE CALLVALUE KECCAK256 CALLDATASIZE 0x2E CALLDATACOPY CODESIZE CALLDATASIZE BALANCE CALLDATACOPY CODESIZE 0x2C 0x2D ADDRESS 0x2E CALLDATASIZE CALLDATACOPY CALLDATALOAD ORIGIN KECCAK256 BALANCE BALANCE 0x2E CALLER CALLER 0x2C 0x2D CODECOPY 0x2E BALANCE CALLDATASIZE ORIGIN CALLDATALOAD KECCAK256 BALANCE CALLDATACOPY 0x2E CALLER CODECOPY CODESIZE ORIGIN CALLDATACOPY 0x2C 0x2D CODECOPY 0x2E ORIGIN CODECOPY CALLDATASIZE CALLDATALOAD CODECOPY KECCAK256 CALLER 0x2E CALLDATASIZE ORIGIN BALANCE CALLDATACOPY CODECOPY CALLDATALOAD 0x2C 0x2D ADDRESS 0x2E ADDRESS ADDRESS CALLDATACOPY KECCAK256 CALLER 0x2E CALLDATASIZE CALLVALUE CODESIZE CALLER CALLER CODECOPY 0x2C BALANCE 0x2E BALANCE CALLDATALOAD CODESIZE CODESIZE CODESIZE KECCAK256 ADDRESS 0x2E ADDRESS CODECOPY CALLER CODECOPY CALLVALUE 0x2C CALLVALUE 0x2E BALANCE ORIGIN CALLDATACOPY CALLDATASIZE CALLDATALOAD KECCAK256 0x2D CALLDATACOPY 0x2E CALLER CALLER CALLDATACOPY CALLVALUE BALANCE 0x2C CALLDATALOAD 0x2E CALLDATASIZE CODESIZE CALLVALUE CODECOPY KECCAK256 0x2D ORIGIN 0x2E CALLVALUE CALLVALUE CALLDATACOPY CALLDATACOPY CALLER CALLDATALOAD 0x2C BALANCE CALLER 0x2E CALLVALUE CALLER CALLDATASIZE BALANCE BALANCE KECCAK256 BALANCE 0x2E CODESIZE CODECOPY ADDRESS CALLER CALLER 0x2C BALANCE CALLDATACOPY 0x2E CODESIZE CALLVALUE ADDRESS ORIGIN CALLVALUE KECCAK256 CALLER 0x2E CODESIZE ADDRESS ORIGIN CALLER BALANCE BALANCE 0x2C CALLVALUE 0x2E CALLDATALOAD ADDRESS CALLDATACOPY CALLER BALANCE KECCAK256 CODECOPY 0x2E CALLER CODESIZE CODESIZE CALLDATALOAD CALLDATACOPY CALLVALUE 0x2C CALLVALUE 0x2E CALLDATALOAD CALLVALUE ORIGIN ADDRESS ORIGIN KECCAK256 BALANCE ORIGIN 0x2E CALLDATASIZE CALLVALUE BALANCE CODESIZE CODECOPY BALANCE 0x2C CODESIZE 0x2E CALLDATASIZE CALLDATASIZE ADDRESS CALLDATACOPY ORIGIN KECCAK256 BALANCE ORIGIN 0x2E CALLER CALLDATACOPY CALLDATACOPY CODESIZE ORIGIN CALLER 0x2C CALLDATACOPY 0x2E BALANCE CALLDATASIZE BALANCE CALLVALUE CALLDATASIZE KECCAK256 CALLER CALLER 0x2E CALLDATACOPY CALLDATASIZE ORIGIN CALLDATACOPY CODESIZE CALLDATACOPY 0x2C BALANCE BALANCE 0x2E CALLDATASIZE CODECOPY CODESIZE ADDRESS CALLDATASIZE KECCAK256 CALLVALUE CALLDATACOPY 0x2E CALLDATASIZE CALLDATACOPY ORIGIN CODESIZE ADDRESS ORIGIN 0x2C CODESIZE 0x2E CODECOPY BALANCE CALLER ORIGIN CALLVALUE KECCAK256 BALANCE CALLER 0x2E BALANCE CALLDATALOAD ORIGIN CODECOPY CALLDATASIZE 0x2C 0x2D CALLDATASIZE 0x2E CALLVALUE CODESIZE ORIGIN ADDRESS CODECOPY KECCAK256 CALLER CALLER 0x2E CALLDATACOPY CODECOPY BALANCE CODECOPY CALLDATALOAD 0x2C 0x2D BALANCE CALLVALUE 0x2E CODESIZE CALLDATACOPY BALANCE BALANCE BALANCE KECCAK256 CALLER CODESIZE 0x2E CALLVALUE ORIGIN CALLER CODECOPY CALLDATASIZE 0x2C 0x2D ORIGIN CALLDATACOPY 0x2E CODESIZE CALLDATALOAD CALLDATASIZE ORIGIN CALLVALUE KECCAK256 BALANCE 0x2E CALLVALUE CALLDATASIZE BALANCE CODESIZE 0x2C 0x2D CALLVALUE 0x2E CALLDATALOAD CALLDATACOPY ADDRESS CALLDATASIZE KECCAK256 0x2D CALLVALUE 0x2E CALLDATASIZE ORIGIN ORIGIN ORIGIN CODESIZE 0x2C 0x2D CALLDATACOPY 0x2E CALLDATACOPY ORIGIN ADDRESS CALLVALUE CODECOPY KECCAK256 0x2D CALLVALUE 0x2E CODESIZE ORIGIN CALLER CODESIZE 0x2C 0x2D BALANCE ORIGIN 0x2E CALLVALUE ADDRESS ORIGIN CALLDATASIZE CALLVALUE KECCAK256 BALANCE ORIGIN 0x2E CALLER CODECOPY CODECOPY CODESIZE CALLDATASIZE 0x2C BALANCE 0x2E CALLVALUE CODECOPY CALLDATACOPY CALLVALUE CODECOPY KECCAK256 CALLER CODESIZE 0x2E CODESIZE CALLDATALOAD ADDRESS ORIGIN CALLDATASIZE 0x2C ORIGIN BALANCE 0x2E BALANCE CALLER ORIGIN CALLVALUE CALLDATALOAD KECCAK256 CALLVALUE CALLDATACOPY 0x2E CODECOPY CODECOPY CODECOPY CODESIZE CALLVALUE 0x2C ORIGIN CODECOPY 0x2E CALLDATASIZE CALLER CODECOPY CALLVALUE CALLDATALOAD KECCAK256 JUMP KECCAK256 ORIGIN CALLDATALOAD CALLDATASIZE KECCAK256 BASEFEE KECCAK256 ADDRESS KECCAK256 GAS KECCAK256 PUSH14 0x2037362E3435303434382C2D3535 0x2E CODECOPY CODESIZE BALANCE CALLDATASIZE ORIGIN KECCAK256 PUSH4 0x20322E36 CALLDATALOAD CODECOPY CALLVALUE ADDRESS CODECOPY 0x2C ADDRESS 0x2E ORIGIN CALLDATASIZE CALLDATALOAD CALLER KECCAK256 CALLDATALOAD 0x2E ADDRESS CALLDATACOPY CALLDATALOAD ADDRESS ADDRESS CODECOPY 0x2C BALANCE 0x2E CALLDATASIZE CODESIZE CODESIZE CALLDATASIZE KECCAK256 CALLDATASIZE 0x2E CALLDATALOAD CALLDATACOPY ORIGIN CODESIZE CALLER CALLDATALOAD 0x2C CALLER 0x2E ADDRESS BALANCE CALLDATALOAD CALLER CODESIZE KECCAK256 CALLER 0x2E CALLDATALOAD ORIGIN CALLER CALLVALUE CALLDATACOPY CODECOPY 0x2C ORIGIN 0x2E CALLDATALOAD CALLDATACOPY ADDRESS ORIGIN CALLER KECCAK256 CALLDATACOPY 0x2E CODESIZE CODECOPY CODESIZE CALLER CODECOPY CODECOPY 0x2C CALLVALUE 0x2E CALLVALUE CODECOPY CALLDATASIZE CODECOPY CALLER KECCAK256 BALANCE ORIGIN 0x2E CALLVALUE ORIGIN CALLDATACOPY CALLVALUE CALLDATALOAD CODECOPY 0x2C CALLVALUE 0x2E ADDRESS CODESIZE CALLER CALLER CALLDATASIZE KECCAK256 CALLVALUE 0x2E CALLER CALLDATALOAD CALLDATASIZE CALLER CODESIZE 0x2C 0x2D ADDRESS 0x2E CALLVALUE CALLDATASIZE CALLVALUE CALLDATALOAD CALLDATALOAD KECCAK256 CODECOPY 0x2E CALLER CALLDATASIZE CODESIZE BALANCE CALLDATALOAD CODESIZE 0x2C 0x2D ADDRESS 0x2E ADDRESS CALLER CALLVALUE CALLER KECCAK256 BALANCE ORIGIN 0x2E CODESIZE CALLDATASIZE CODECOPY ORIGIN CALLDATALOAD CODESIZE 0x2C 0x2D BALANCE 0x2E ORIGIN CALLVALUE CODECOPY ADDRESS CALLVALUE KECCAK256 CALLDATALOAD 0x2E ORIGIN CALLVALUE CALLER ADDRESS CALLVALUE 0x2C 0x2D BALANCE 0x2E CALLDATACOPY BALANCE ADDRESS CALLDATACOPY CALLVALUE KECCAK256 CODESIZE 0x2E ORIGIN CALLVALUE CALLDATACOPY CODESIZE ORIGIN 0x2C 0x2D CALLDATALOAD 0x2E CALLVALUE CODECOPY ORIGIN CALLDATACOPY ORIGIN KECCAK256 BALANCE ORIGIN 0x2E CALLDATACOPY ADDRESS CALLER ORIGIN CALLDATALOAD 0x2C 0x2D CODESIZE 0x2E CALLDATACOPY CALLVALUE CALLDATASIZE CALLDATASIZE CODESIZE KECCAK256 CALLDATALOAD 0x2E CALLDATACOPY CODESIZE CODESIZE CALLER CALLVALUE 0x2C 0x2D ADDRESS 0x2E ORIGIN CODESIZE CALLDATASIZE CALLDATACOPY CALLDATASIZE KECCAK256 CALLDATACOPY 0x2E CALLDATACOPY CALLDATALOAD ORIGIN CODESIZE CALLDATACOPY 0x2C 0x2D CALLDATALOAD 0x2E ADDRESS CALLVALUE BALANCE BALANCE CALLDATASIZE KECCAK256 BALANCE ORIGIN 0x2E ADDRESS ORIGIN CALLDATALOAD BALANCE ORIGIN 0x2C 0x2D CALLDATACOPY 0x2E CALLDATASIZE BALANCE ADDRESS CALLER CALLDATACOPY KECCAK256 CALLER 0x2E ADDRESS CODESIZE CALLER CODESIZE CALLVALUE 0x2C 0x2D ADDRESS 0x2E CODECOPY CODESIZE ADDRESS CODESIZE CODECOPY KECCAK256 CALLVALUE 0x2E CALLDATALOAD CODECOPY ADDRESS ADDRESS CALLDATACOPY 0x2C 0x2D CALLER 0x2E CODECOPY CALLDATALOAD CODESIZE CODECOPY CODECOPY KECCAK256 CALLDATACOPY 0x2E CALLDATALOAD CODESIZE CALLDATASIZE BALANCE CALLER 0x2C 0x2D CALLDATALOAD 0x2E CALLDATALOAD CODESIZE CODECOPY CALLDATASIZE CALLER KECCAK256 ORIGIN 0x2E BALANCE CODESIZE CALLDATASIZE ORIGIN CALLDATASIZE 0x2C ADDRESS KECCAK256 0x2D BALANCE 0x2E CODESIZE BALANCE CODESIZE CODESIZE CODESIZE 0x2C CALLDATASIZE 0x2E CODESIZE CALLDATASIZE CALLDATASIZE CODECOPY CALLER KECCAK256 0x2D CALLVALUE 0x2E CODECOPY CALLVALUE CALLDATALOAD CODECOPY CALLDATACOPY 0x2C CODESIZE 0x2E CALLVALUE CODESIZE KECCAK256 0x2D CALLDATASIZE 0x2E CALLDATALOAD CALLDATACOPY CODESIZE ORIGIN CALLVALUE 0x2C CALLER 0x2E CALLDATACOPY BALANCE ORIGIN BALANCE CODECOPY KECCAK256 0x2D BALANCE ADDRESS 0x2E CALLER CALLDATASIZE CALLVALUE CALLVALUE CALLDATALOAD 0x2C BALANCE ORIGIN 0x2E CALLVALUE ORIGIN ORIGIN CALLER CODECOPY KECCAK256 0x2D BALANCE CALLDATALOAD 0x2E CALLER BALANCE ADDRESS CALLDATALOAD ORIGIN 0x2C BALANCE CALLDATALOAD 0x2E CALLDATACOPY CALLDATASIZE CALLDATASIZE CALLVALUE CALLDATASIZE KECCAK256 0x2D BALANCE CALLER 0x2E CODECOPY CALLDATASIZE CALLDATACOPY ORIGIN CALLER 0x2C CALLDATASIZE 0x2E CODESIZE BALANCE BALANCE CODECOPY CODESIZE KECCAK256 0x2D CALLVALUE ADDRESS 0x2E BALANCE CALLDATACOPY CALLDATASIZE ADDRESS CODESIZE CALLER 0x2C CALLDATACOPY 0x2E CALLER CALLER ORIGIN BALANCE CALLVALUE KECCAK256 0x2D CALLVALUE CALLER 0x2E CODECOPY ORIGIN CALLDATACOPY CALLDATALOAD CALLDATASIZE ORIGIN 0x2C 0x2D CODESIZE 0x2E BALANCE CALLVALUE CODECOPY CALLVALUE CODESIZE KECCAK256 PUSH27 0x204D2039302E38382C3135372E34323336372063202D302E373932 0x2C 0x2D ADDRESS 0x2E BALANCE CALLVALUE ADDRESS CODECOPY CALLER KECCAK256 0x2D ORIGIN 0x2E CALLER CALLVALUE CALLVALUE CALLDATASIZE ORIGIN CALLVALUE 0x2C 0x2D ADDRESS 0x2E ORIGIN CALLDATASIZE CALLDATASIZE CODECOPY BALANCE KECCAK256 0x2D CALLER 0x2E CALLVALUE CALLDATALOAD ADDRESS ORIGIN CALLDATACOPY CODESIZE 0x2C 0x2D ADDRESS 0x2E ORIGIN CALLDATACOPY CODECOPY CODECOPY CALLDATALOAD KECCAK256 0x2D CALLER 0x2E BALANCE CALLDATALOAD ORIGIN CODECOPY CODESIZE CODECOPY 0x2C 0x2D ADDRESS 0x2E ADDRESS CALLER CALLDATACOPY ORIGIN KECCAK256 0x2D CALLER 0x2E CODECOPY CALLDATASIZE BALANCE CALLDATACOPY BALANCE CALLDATASIZE 0x2C 0x2D ADDRESS 0x2E CALLVALUE CODECOPY CODESIZE CALLDATASIZE CODECOPY KECCAK256 0x2D CODESIZE 0x2E CALLDATACOPY ADDRESS CODECOPY CALLDATACOPY ORIGIN ORIGIN 0x2C 0x2D CALLVALUE 0x2E CODECOPY CALLDATACOPY ADDRESS ADDRESS CALLDATACOPY KECCAK256 0x2D ORIGIN 0x2E CALLVALUE ADDRESS CALLDATASIZE CALLER CODECOPY CALLDATALOAD 0x2C 0x2D ORIGIN 0x2E ADDRESS CODECOPY CALLDATACOPY CALLDATALOAD CALLVALUE KECCAK256 0x2D CALLDATASIZE 0x2E CALLDATASIZE CODECOPY ORIGIN BALANCE CODECOPY CALLDATASIZE 0x2C 0x2D CALLVALUE 0x2E CALLER CALLDATASIZE CALLVALUE ADDRESS CALLDATALOAD KECCAK256 0x2D CALLER 0x2E CODESIZE CALLDATASIZE CALLVALUE CALLDATASIZE BALANCE CALLVALUE 0x2C 0x2D CALLDATACOPY 0x2E ORIGIN CALLER CODESIZE ORIGIN CALLDATASIZE KECCAK256 BALANCE 0x2E ORIGIN CALLVALUE CALLDATASIZE BALANCE CALLER BALANCE 0x2C 0x2D BALANCE 0x2E ORIGIN CALLVALUE CALLDATASIZE BALANCE CALLVALUE KECCAK256 BALANCE 0x2E CODESIZE CALLDATASIZE CALLDATASIZE CALLVALUE CODECOPY ORIGIN 0x2C 0x2D BALANCE 0x2E BALANCE CODESIZE ADDRESS CALLDATALOAD CALLDATACOPY KECCAK256 CALLER 0x2E ORIGIN CALLDATASIZE ADDRESS CALLDATASIZE CALLVALUE CALLER 0x2C ADDRESS 0x2E CALLER CALLVALUE CALLVALUE CALLDATASIZE BALANCE KECCAK256 CALLVALUE 0x2E CALLDATASIZE CALLDATALOAD ORIGIN CALLER ORIGIN 0x2C CALLER 0x2E BALANCE CALLER BALANCE ORIGIN KECCAK256 CALLDATASIZE 0x2E CALLDATACOPY CODECOPY CODESIZE CODESIZE CALLER CALLDATASIZE 0x2C 0x2D ADDRESS 0x2E ORIGIN ADDRESS CALLDATACOPY CALLDATASIZE CALLDATALOAD KECCAK256 BALANCE ORIGIN 0x2E CALLVALUE CALLVALUE CALLER CODECOPY CALLDATACOPY BALANCE 0x2C BALANCE 0x2E CODECOPY CALLDATASIZE BALANCE CALLDATACOPY ORIGIN KECCAK256 CALLVALUE 0x2E ORIGIN ADDRESS CALLDATASIZE BALANCE BALANCE ORIGIN 0x2C BALANCE 0x2E CALLER BALANCE ADDRESS CALLER CALLVALUE KECCAK256 CALLDATACOPY 0x2E CALLDATALOAD BALANCE CALLVALUE CALLVALUE ADDRESS CALLDATASIZE 0x2C 0x2D BALANCE 0x2E CODESIZE CODECOPY CODESIZE CODECOPY ORIGIN KECCAK256 BALANCE BALANCE 0x2E CODESIZE CODESIZE CALLER CALLDATACOPY CALLDATALOAD 0x2C 0x2D BALANCE 0x2E ORIGIN BALANCE CALLDATALOAD CODESIZE CALLER KECCAK256 CALLDATASIZE 0x2E CALLER CALLDATACOPY CODECOPY CALLDATALOAD CALLDATASIZE 0x2C 0x2D ADDRESS 0x2E CALLDATACOPY ORIGIN CALLVALUE CALLDATASIZE CODESIZE KECCAK256 BALANCE BALANCE 0x2E CODECOPY ADDRESS CALLDATACOPY CALLVALUE CALLDATACOPY 0x2C 0x2D BALANCE 0x2E ADDRESS ORIGIN CODESIZE ADDRESS CODECOPY KECCAK256 BALANCE CODESIZE 0x2E ORIGIN CALLDATASIZE CALLDATACOPY CODESIZE BALANCE 0x2C 0x2D BALANCE 0x2E ORIGIN CALLVALUE CODESIZE CALLDATACOPY CALLER KECCAK256 ADDRESS 0x2E CODESIZE ADDRESS CALLDATALOAD ORIGIN CALLVALUE 0x2C 0x2D BALANCE 0x2E ADDRESS CALLDATALOAD BALANCE CODECOPY CALLER KECCAK256 BALANCE 0x2E CALLDATACOPY CODECOPY ORIGIN CALLDATACOPY CALLVALUE 0x2C 0x2D ORIGIN 0x2E ADDRESS CALLVALUE CODESIZE CALLER CODESIZE KECCAK256 ORIGIN 0x2E CODESIZE CALLDATALOAD CALLVALUE CALLDATASIZE 0x2C 0x2D ORIGIN 0x2E CALLDATACOPY ADDRESS ORIGIN BALANCE BALANCE KECCAK256 ADDRESS 0x2E CALLDATACOPY BALANCE CODECOPY CALLDATALOAD CALLDATACOPY 0x2C ADDRESS 0x2E ADDRESS ADDRESS CALLDATACOPY KECCAK256 ORIGIN 0x2E CALLDATALOAD BALANCE CALLER CODESIZE CALLVALUE 0x2C BALANCE 0x2E CALLDATACOPY CALLER ORIGIN CODESIZE CODECOPY KECCAK256 ORIGIN 0x2E CALLDATALOAD BALANCE CALLER CODESIZE CALLVALUE 0x2C ORIGIN 0x2E CALLVALUE BALANCE CODESIZE CALLER CALLDATASIZE KECCAK256 0x2D CALLER 0x2E ADDRESS CALLER CALLDATACOPY CALLDATASIZE 0x2C CALLER 0x2E CODECOPY CALLDATALOAD CALLDATALOAD CALLDATALOAD CODECOPY KECCAK256 0x2D CALLDATACOPY 0x2E BALANCE CALLER CALLDATACOPY CALLDATALOAD CALLVALUE 0x2C BALANCE ADDRESS 0x2E CODESIZE ORIGIN ORIGIN CODECOPY BALANCE KECCAK256 0x2D BALANCE CALLER 0x2E ADDRESS CALLDATALOAD CALLDATACOPY CALLER CODESIZE 0x2C BALANCE BALANCE 0x2E ADDRESS ORIGIN CALLDATASIZE CALLDATALOAD CODECOPY KECCAK256 0x2D CALLDATACOPY 0x2E ADDRESS CALLER CALLDATACOPY CODECOPY ORIGIN 0x2C BALANCE 0x2E ORIGIN ORIGIN CALLDATACOPY CALLDATACOPY CALLDATASIZE KECCAK256 0x2D BALANCE CALLVALUE 0x2E CALLDATASIZE CALLDATALOAD ADDRESS CALLDATACOPY CALLDATASIZE BALANCE 0x2C CALLER 0x2E BALANCE ADDRESS CALLER CALLDATALOAD CALLVALUE KECCAK256 0x2D ORIGIN ORIGIN 0x2E BALANCE CALLVALUE ORIGIN CALLDATASIZE ORIGIN 0x2C BALANCE 0x2E CODECOPY ADDRESS CALLER CALLDATASIZE CALLDATALOAD KECCAK256 PUSH27 0x206D2032302E34383738382C2D352E3637323131206320312E3732 CODECOPY CALLER CODECOPY 0x2C 0x2D ADDRESS 0x2E BALANCE CALLDATASIZE CALLDATASIZE BALANCE CODESIZE KECCAK256 ORIGIN 0x2E CALLDATALOAD CALLDATALOAD ORIGIN BALANCE ORIGIN 0x2C 0x2D ADDRESS 0x2E CODESIZE CALLDATACOPY ADDRESS BALANCE KECCAK256 ORIGIN 0x2E CALLDATALOAD CALLDATALOAD ORIGIN BALANCE ORIGIN 0x2C 0x2D ORIGIN 0x2E BALANCE CODESIZE CALLER CALLDATALOAD CODESIZE KECCAK256 0x2D ADDRESS 0x2E CALLDATALOAD CALLDATASIZE ADDRESS CALLDATALOAD CALLDATASIZE 0x2C 0x2D BALANCE 0x2E CALLVALUE ORIGIN ADDRESS CODECOPY CALLDATACOPY KECCAK256 0x2D BALANCE BALANCE 0x2E BALANCE ORIGIN CALLER CODECOPY BALANCE 0x2C 0x2D ADDRESS 0x2E CALLDATACOPY CALLDATALOAD CALLER KECCAK256 0x2D BALANCE ORIGIN 0x2E CALLDATASIZE CODESIZE CALLER BALANCE CALLDATASIZE 0x2C 0x2D ADDRESS 0x2E ORIGIN CALLDATALOAD CALLVALUE CALLDATALOAD KECCAK256 0x2D CALLVALUE 0x2E CALLDATACOPY BALANCE CALLDATALOAD CALLDATACOPY CALLER CALLER 0x2C ADDRESS 0x2E CALLER ORIGIN ADDRESS CODESIZE BALANCE KECCAK256 0x2D CODESIZE 0x2E CODESIZE ORIGIN ADDRESS ADDRESS CALLDATASIZE CALLVALUE 0x2C 0x2D ADDRESS 0x2E CODESIZE CALLVALUE CALLDATASIZE CALLER ORIGIN KECCAK256 0x2D BALANCE CALLER 0x2E CALLVALUE CALLER CALLDATALOAD BALANCE CALLER CODESIZE 0x2C 0x2D ADDRESS 0x2E ADDRESS CALLVALUE BALANCE CODECOPY KECCAK256 0x2D CALLER 0x2E CALLER CALLDATACOPY CALLDATASIZE CALLVALUE CODECOPY CODECOPY 0x2C ADDRESS 0x2E CALLVALUE CALLER CODECOPY CALLDATASIZE BALANCE KECCAK256 0x2D CALLER 0x2E CALLVALUE CALLDATASIZE CODESIZE BALANCE CODECOPY CODESIZE 0x2C ADDRESS 0x2E CALLDATALOAD ORIGIN CALLER CALLER CALLER KECCAK256 0x2D ORIGIN 0x2E CALLER ADDRESS BALANCE CALLDATALOAD ORIGIN CALLER 0x2C ORIGIN 0x2E BALANCE ADDRESS BALANCE CALLER CALLVALUE KECCAK256 ORIGIN 0x2E BALANCE ORIGIN ORIGIN ADDRESS ADDRESS CODECOPY 0x2C BALANCE 0x2E CALLVALUE CALLDATACOPY CALLDATALOAD CALLVALUE CODECOPY KECCAK256 CALLDATALOAD 0x2E CALLVALUE BALANCE CALLDATALOAD CALLDATASIZE CALLVALUE ORIGIN 0x2C BALANCE 0x2E CALLDATASIZE ORIGIN CALLDATACOPY ADDRESS CALLER KECCAK256 CODESIZE 0x2E ADDRESS CODECOPY CODECOPY CODESIZE ORIGIN BALANCE 0x2C ORIGIN 0x2E CALLER CALLDATASIZE CALLVALUE CALLDATASIZE KECCAK256 CALLDATASIZE 0x2E CALLDATACOPY CODESIZE BALANCE CALLDATASIZE 0x2C ORIGIN 0x2E CALLVALUE ORIGIN CALLDATASIZE ADDRESS ORIGIN KECCAK256 BALANCE BALANCE 0x2E CALLDATACOPY ORIGIN CALLDATASIZE CODECOPY CALLDATACOPY 0x2C 0x2D BALANCE 0x2E CALLER CALLDATALOAD ORIGIN ADDRESS CODESIZE KECCAK256 BALANCE CALLDATACOPY 0x2E CALLDATACOPY CALLDATASIZE CALLDATACOPY CODESIZE CODESIZE 0x2C 0x2D BALANCE 0x2E CODECOPY CODESIZE CALLDATALOAD CODECOPY CODESIZE KECCAK256 PUSH27 0x204D2038352E3836393135352C3133372E33383935322063202D30 0x2E CALLDATASIZE BALANCE CALLVALUE ORIGIN ADDRESS CALLDATALOAD 0x2C 0x2D ORIGIN 0x2E CALLER CALLDATALOAD CALLDATACOPY BALANCE KECCAK256 0x2D BALANCE 0x2E ADDRESS CODECOPY CALLDATALOAD CALLER CALLDATASIZE 0x2C 0x2D CALLVALUE 0x2E ADDRESS CALLVALUE ADDRESS CODESIZE CALLDATASIZE KECCAK256 ADDRESS 0x2E CALLDATACOPY CALLDATACOPY ADDRESS CODESIZE CALLVALUE CALLDATALOAD 0x2C 0x2D CALLDATALOAD 0x2E ORIGIN ORIGIN ORIGIN CODESIZE CALLDATALOAD KECCAK256 ORIGIN 0x2E ADDRESS BALANCE CODECOPY CALLER CALLER BALANCE 0x2C 0x2D BALANCE 0x2E ORIGIN CALLDATASIZE CODESIZE ADDRESS CALLDATACOPY KECCAK256 CALLER 0x2E CALLDATALOAD CALLVALUE CALLDATALOAD ORIGIN CALLDATACOPY 0x2C 0x2D BALANCE 0x2E ORIGIN CALLDATASIZE CALLDATACOPY CALLER CALLER KECCAK256 CALLDATALOAD 0x2E CALLDATACOPY CALLDATASIZE 0x2C ADDRESS 0x2E ADDRESS ADDRESS CALLER KECCAK256 CODECOPY 0x2E CALLDATASIZE BALANCE CALLDATACOPY BALANCE CODECOPY 0x2C CODESIZE 0x2E ADDRESS CALLDATACOPY BALANCE CALLER BALANCE KECCAK256 CODESIZE 0x2E CODESIZE ADDRESS CALLDATACOPY CALLER CALLDATACOPY 0x2C 0x2D CALLER 0x2E CALLDATACOPY ORIGIN CODECOPY CALLER CODECOPY KECCAK256 BALANCE CALLDATALOAD 0x2E CALLDATACOPY CALLDATACOPY CALLDATASIZE BALANCE ORIGIN 0x2C 0x2D BALANCE 0x2E BALANCE CALLDATASIZE CODECOPY CALLVALUE KECCAK256 BALANCE 0x2E CALLDATASIZE CALLDATALOAD BALANCE CALLDATALOAD CALLVALUE 0x2C ADDRESS 0x2E CODESIZE ORIGIN CALLER CODECOPY KECCAK256 ORIGIN 0x2E CALLDATACOPY CALLDATASIZE CALLER CALLER CALLDATACOPY 0x2C ADDRESS 0x2E CALLDATASIZE CODESIZE ORIGIN CALLDATALOAD BALANCE KECCAK256 CALLER 0x2E CALLER CALLER CALLDATALOAD CALLDATASIZE CALLDATASIZE 0x2C 0x2D ADDRESS 0x2E CALLVALUE ORIGIN CALLVALUE BALANCE CODECOPY KECCAK256 BALANCE 0x2E CALLVALUE ADDRESS CALLDATALOAD CODECOPY CODECOPY 0x2C 0x2D CALLER 0x2E CALLVALUE ADDRESS CALLER ADDRESS ORIGIN KECCAK256 0x2D BALANCE 0x2E CODESIZE CALLDATALOAD CALLER CALLDATACOPY CODECOPY 0x2C 0x2D CALLDATALOAD 0x2E ADDRESS ADDRESS ORIGIN CODECOPY CODECOPY KECCAK256 0x2D ORIGIN 0x2E ADDRESS CODECOPY CALLDATALOAD CALLDATALOAD CALLDATACOPY 0x2C 0x2D CALLDATACOPY 0x2E ADDRESS BALANCE BALANCE CALLVALUE CALLVALUE KECCAK256 ORIGIN 0x2E ORIGIN CALLER CODECOPY ADDRESS CALLVALUE 0x2C 0x2D BALANCE 0x2E BALANCE CALLDATALOAD CALLVALUE CALLDATACOPY CALLDATASIZE KECCAK256 CALLDATALOAD 0x2E CALLER CODECOPY CODESIZE CALLDATASIZE CODESIZE 0x2C BALANCE 0x2E CODESIZE CODECOPY CALLDATACOPY BALANCE BALANCE KECCAK256 CALLDATASIZE 0x2E BALANCE ORIGIN CALLDATASIZE CODESIZE CALLDATALOAD 0x2C CALLVALUE 0x2E ADDRESS CALLDATASIZE CALLDATASIZE CALLER CALLDATALOAD KECCAK256 BALANCE 0x2E BALANCE CODECOPY ADDRESS CALLVALUE 0x2C CALLVALUE 0x2E BALANCE CALLER CALLER CALLDATALOAD CODESIZE KECCAK256 0x2D CALLER 0x2E CALLER BALANCE CODESIZE ADDRESS ORIGIN 0x2C CALLDATASIZE 0x2E CALLDATALOAD CODECOPY BALANCE ORIGIN CALLER KECCAK256 0x2D CALLVALUE 0x2E CODESIZE CALLDATASIZE ORIGIN ADDRESS CALLDATASIZE 0x2C CODECOPY 0x2E BALANCE CODESIZE ORIGIN CODESIZE CALLVALUE KECCAK256 0x2D ADDRESS 0x2E CALLDATACOPY CALLDATASIZE CALLDATACOPY CALLER CALLER 0x2C BALANCE 0x2E CALLDATACOPY CALLER CALLVALUE CALLDATASIZE KECCAK256 0x2D ORIGIN 0x2E ORIGIN CALLDATACOPY ADDRESS ADDRESS CALLDATACOPY 0x2C CALLER 0x2E ADDRESS ORIGIN CALLDATASIZE ORIGIN CODECOPY KECCAK256 0x2D CALLER 0x2E CALLDATALOAD ORIGIN ADDRESS CODESIZE CALLER 0x2C CALLER 0x2E ADDRESS ORIGIN CALLDATASIZE ORIGIN CODECOPY KECCAK256 0x2D ORIGIN 0x2E ORIGIN CALLDATASIZE ORIGIN CODESIZE CODECOPY 0x2C 0x2D ADDRESS 0x2E CALLVALUE ORIGIN CALLDATACOPY BALANCE CALLVALUE KECCAK256 0x2D ORIGIN 0x2E BALANCE CALLDATASIZE CODESIZE BALANCE CALLVALUE 0x2C 0x2D ORIGIN 0x2E CODESIZE CALLDATACOPY ORIGIN ORIGIN BALANCE KECCAK256 0x2D CALLER 0x2E CALLDATACOPY CALLDATACOPY CALLDATALOAD ORIGIN CALLVALUE 0x2C 0x2D ORIGIN 0x2E CODESIZE CODESIZE KECCAK256 0x2D ORIGIN 0x2E ORIGIN CALLDATACOPY ADDRESS CALLDATALOAD CODESIZE 0x2C ADDRESS 0x2E ORIGIN CALLDATASIZE CODECOPY CALLVALUE CALLER KECCAK256 0x2D ORIGIN 0x2E CODECOPY CALLDATASIZE ORIGIN CALLDATALOAD CALLVALUE 0x2C ORIGIN 0x2E CALLER CODECOPY CALLER CALLER CALLDATASIZE KECCAK256 0x2D CALLDATALOAD 0x2E ADDRESS BALANCE CALLDATASIZE BALANCE CALLDATASIZE CALLDATALOAD 0x2C CALLER 0x2E ADDRESS CALLER CALLDATACOPY BALANCE CALLDATACOPY KECCAK256 0x2D ORIGIN 0x2E CALLVALUE CALLER CODECOPY BALANCE ORIGIN CODECOPY 0x2C BALANCE 0x2E BALANCE CALLDATACOPY CALLDATACOPY BALANCE CALLDATACOPY KECCAK256 0x2D CALLVALUE 0x2E CALLER CODECOPY CALLDATASIZE CODECOPY ORIGIN ORIGIN 0x2C 0x2D ADDRESS 0x2E CODESIZE CALLVALUE CALLVALUE CALLVALUE CALLDATASIZE KECCAK256 0x2D CALLDATASIZE 0x2E ADDRESS CALLER CALLVALUE CALLER ORIGIN CALLDATACOPY 0x2C 0x2D ADDRESS 0x2E ADDRESS CALLDATASIZE CODESIZE CALLDATALOAD KECCAK256 0x2D BALANCE 0x2E CODECOPY CODECOPY BALANCE CALLDATACOPY CALLDATASIZE CODESIZE 0x2C ADDRESS 0x2E CALLDATASIZE CALLVALUE CALLER ADDRESS CODESIZE KECCAK256 0x2D CALLDATALOAD 0x2E CALLDATACOPY ORIGIN CALLDATASIZE CODECOPY CALLVALUE CALLDATALOAD 0x2C 0x2D ADDRESS 0x2E CALLER CALLDATASIZE BALANCE CALLDATASIZE CALLDATACOPY KECCAK256 0x2D CALLDATASIZE 0x2E CALLVALUE CALLDATASIZE CALLDATALOAD ORIGIN CODESIZE CALLER 0x2C 0x2D ORIGIN 0x2E CALLDATALOAD CALLER CODECOPY ORIGIN CALLDATACOPY KECCAK256 PUSH27 0x204D203134372E38323032342C3133322E3936206320302E343239 ORIGIN 0x2C 0x2D CALLER 0x2E ORIGIN CALLVALUE CALLVALUE CODESIZE CALLDATACOPY KECCAK256 BALANCE 0x2E CALLDATACOPY CALLDATALOAD ORIGIN ADDRESS BALANCE 0x2C 0x2D CALLDATASIZE 0x2E BALANCE CODECOPY CODECOPY CALLDATASIZE CALLDATALOAD KECCAK256 CALLER 0x2E CALLDATACOPY BALANCE CALLER CODESIZE CODESIZE 0x2C 0x2D CODESIZE 0x2E CODESIZE BALANCE CALLVALUE CALLDATALOAD CALLER KECCAK256 BALANCE 0x2E CALLDATASIZE CALLDATALOAD BALANCE CALLDATASIZE CALLDATASIZE 0x2C 0x2D ORIGIN 0x2E CODECOPY CODECOPY CALLDATALOAD BALANCE BALANCE KECCAK256 ADDRESS 0x2E CODESIZE CODECOPY CALLVALUE BALANCE CALLVALUE 0x2C 0x2D CALLDATALOAD 0x2E BALANCE CALLDATASIZE ADDRESS CALLVALUE CODECOPY KECCAK256 0x2D BALANCE 0x2E CALLER BALANCE 0x2C 0x2D ORIGIN 0x2E CALLVALUE CALLDATACOPY CALLVALUE ADDRESS CALLDATACOPY KECCAK256 0x2D BALANCE 0x2E CODESIZE ORIGIN CALLDATACOPY ORIGIN 0x2C 0x2D BALANCE 0x2E CALLVALUE CALLER CALLDATASIZE BALANCE ORIGIN KECCAK256 0x2D ORIGIN 0x2E ORIGIN CALLVALUE CALLDATASIZE CALLER CALLER 0x2C 0x2D CALLER 0x2E CALLDATALOAD CALLDATALOAD ORIGIN CALLDATALOAD ORIGIN KECCAK256 0x2D BALANCE 0x2E CALLDATACOPY ADDRESS CALLER CALLDATACOPY CALLDATALOAD 0x2C 0x2D CALLDATALOAD 0x2E BALANCE CALLDATASIZE CODECOPY CALLDATASIZE CALLDATACOPY KECCAK256 0x2D BALANCE 0x2E BALANCE CALLDATALOAD ORIGIN CODESIZE CALLDATASIZE 0x2C 0x2D CODECOPY 0x2E CALLVALUE CALLDATACOPY ADDRESS CALLER ORIGIN KECCAK256 0x2D ADDRESS 0x2E BALANCE CALLER ORIGIN CODECOPY CALLVALUE 0x2C 0x2D BALANCE CALLDATACOPY 0x2E CALLDATACOPY ADDRESS CALLDATACOPY ORIGIN CALLER CODESIZE KECCAK256 0x2D CALLER 0x2E CALLDATACOPY CODESIZE CALLER 0x2C 0x2D ORIGIN CALLDATASIZE 0x2E CALLDATACOPY CALLVALUE BALANCE CALLDATACOPY CALLER KECCAK256 0x2D CALLER 0x2E CALLER CALLVALUE CODESIZE CALLDATASIZE CALLDATASIZE 0x2C 0x2D CALLDATACOPY 0x2E CALLDATALOAD ADDRESS BALANCE BALANCE CALLDATASIZE CODESIZE KECCAK256 0x2D CALLDATALOAD 0x2E CALLER BALANCE CALLDATALOAD ORIGIN 0x2C 0x2D BALANCE CALLDATASIZE 0x2E ORIGIN CALLDATALOAD CALLDATASIZE CALLDATASIZE CALLDATACOPY CODECOPY KECCAK256 0x2D CALLVALUE 0x2E CALLDATALOAD CODECOPY ORIGIN BALANCE CALLVALUE 0x2C 0x2D ORIGIN CALLER 0x2E CODESIZE CALLDATALOAD CODECOPY CALLDATACOPY BALANCE ORIGIN KECCAK256 0x2D CALLER 0x2E CALLDATASIZE CALLER CALLVALUE CALLDATALOAD CODECOPY 0x2C 0x2D ORIGIN ADDRESS 0x2E CODECOPY BALANCE ADDRESS ADDRESS BALANCE CALLDATASIZE KECCAK256 0x2D CALLER ADDRESS 0x2E CODECOPY CALLDATALOAD CALLDATALOAD CALLER CALLER 0x2C 0x2D BALANCE CALLVALUE 0x2E CALLVALUE CALLVALUE CODESIZE CALLER BALANCE CALLER KECCAK256 0x2D CALLVALUE CALLVALUE 0x2E CALLER CODESIZE CALLDATACOPY CODECOPY BALANCE ORIGIN 0x2C 0x2D BALANCE ADDRESS 0x2E ADDRESS CALLVALUE ORIGIN KECCAK256 0x2D CODECOPY 0x2E ORIGIN CODESIZE ORIGIN CALLDATASIZE CALLDATALOAD CALLVALUE 0x2C CALLVALUE 0x2E CALLER ORIGIN CODESIZE CODECOPY CODECOPY CODESIZE KECCAK256 0x2D ORIGIN CODECOPY 0x2E BALANCE CALLVALUE CODECOPY BALANCE CALLDATASIZE 0x2C 0x2D CALLVALUE 0x2E BALANCE CALLVALUE CALLER ORIGIN BALANCE CALLDATACOPY KECCAK256 0x2D CALLER CALLDATALOAD 0x2E CALLVALUE CALLDATASIZE CODECOPY BALANCE CALLDATALOAD CODESIZE 0x2C 0x2D BALANCE 0x2E CALLDATASIZE CALLDATALOAD ORIGIN BALANCE CODECOPY CODESIZE KECCAK256 0x2D CALLDATACOPY 0x2E CALLDATALOAD CALLDATASIZE CODECOPY CALLER CALLVALUE CALLDATALOAD 0x2C CALLDATACOPY 0x2E BALANCE ORIGIN CALLDATALOAD CALLDATACOPY CALLDATACOPY KECCAK256 0x2D BALANCE 0x2E ORIGIN CALLDATASIZE ORIGIN CODESIZE CALLDATALOAD CALLER 0x2C ORIGIN BALANCE 0x2E CODESIZE CALLDATACOPY CALLDATACOPY CALLDATASIZE BALANCE CALLER KECCAK256 0x2D CALLDATASIZE 0x2E ADDRESS CALLDATALOAD CALLER CALLDATALOAD CALLVALUE ORIGIN 0x2C CALLER ORIGIN 0x2E CODECOPY CALLDATACOPY CALLDATALOAD CALLER CODESIZE CODESIZE KECCAK256 0x2D ORIGIN 0x2E ORIGIN BALANCE CALLVALUE CALLER CODESIZE CALLER 0x2C BALANCE ORIGIN 0x2E ORIGIN CODECOPY CALLDATASIZE BALANCE KECCAK256 0x2D BALANCE 0x2E CODECOPY CALLVALUE ORIGIN ORIGIN CALLDATASIZE CALLDATALOAD 0x2C BALANCE CALLDATACOPY 0x2E CALLER ORIGIN BALANCE CALLDATALOAD ADDRESS ORIGIN KECCAK256 0x2D CALLER 0x2E CALLVALUE ADDRESS CALLDATACOPY CODECOPY CALLDATACOPY CODESIZE 0x2C ORIGIN CALLDATACOPY 0x2E CODESIZE CALLDATALOAD CODESIZE CALLDATALOAD ORIGIN ORIGIN KECCAK256 0x2D CALLVALUE 0x2E ORIGIN ORIGIN CALLDATALOAD CALLDATASIZE CALLVALUE CODESIZE 0x2C BALANCE 0x2E CALLER CALLER CALLDATACOPY CALLDATALOAD CODESIZE KECCAK256 0x2D BALANCE 0x2E ORIGIN CODECOPY CALLDATASIZE CODECOPY CALLVALUE ORIGIN 0x2C CODECOPY 0x2E CALLER CALLDATASIZE CALLDATASIZE CALLDATASIZE CALLVALUE KECCAK256 0x2D CALLER 0x2E CALLDATASIZE ADDRESS CALLVALUE CALLDATACOPY CALLVALUE CODECOPY 0x2C CODECOPY 0x2E CALLVALUE CALLVALUE KECCAK256 0x2D BALANCE 0x2E CALLER CODESIZE BALANCE ADDRESS CODECOPY CALLDATACOPY 0x2C ADDRESS KECCAK256 0x2D CALLER 0x2E CALLER CALLDATACOPY CODESIZE CALLER ORIGIN CALLER 0x2C 0x2D CALLER 0x2E ADDRESS ORIGIN CALLDATASIZE CODESIZE CODESIZE KECCAK256 0x2D CALLER 0x2E CALLER CALLDATACOPY CODESIZE CALLER ORIGIN CALLER 0x2C 0x2D CALLDATALOAD 0x2E BALANCE ORIGIN KECCAK256 NUMBER KECCAK256 CALLDATALOAD ORIGIN 0x2E CODESIZE CODESIZE CODECOPY BALANCE CALLER CALLER 0x2C BALANCE ADDRESS CODESIZE 0x2E CALLDATALOAD CALLDATACOPY CALLVALUE CALLDATASIZE CODESIZE KECCAK256 CALLER CODECOPY 0x2E ORIGIN ORIGIN CODECOPY CALLDATASIZE CALLER CALLDATALOAD 0x2C BALANCE ADDRESS BALANCE 0x2E ADDRESS CALLDATASIZE BALANCE CALLDATACOPY CALLER KECCAK256 CALLVALUE ORIGIN 0x2E CALLVALUE 0x2C CODECOPY CALLDATACOPY 0x2E ORIGIN ORIGIN BALANCE CALLDATASIZE CALLVALUE ORIGIN KECCAK256 CALLVALUE CALLER 0x2E CALLVALUE BALANCE CALLDATASIZE ORIGIN CALLVALUE 0x2C CODECOPY CALLDATASIZE 0x2E ADDRESS BALANCE CALLER CODECOPY ADDRESS CALLDATACOPY KECCAK256 CALLVALUE CALLER 0x2E CALLVALUE ADDRESS CALLDATALOAD CALLDATACOPY CALLDATACOPY CALLDATASIZE 0x2C CODECOPY CALLDATALOAD 0x2E CALLDATACOPY ADDRESS CALLER ORIGIN CODESIZE CALLDATASIZE KECCAK256 CALLVALUE ORIGIN 0x2E ORIGIN BALANCE CALLDATALOAD CALLDATASIZE CALLVALUE CALLDATALOAD 0x2C CODECOPY BALANCE 0x2E CALLDATACOPY CALLVALUE CODECOPY CODESIZE CALLDATASIZE CODECOPY KECCAK256 CALLVALUE BALANCE 0x2E CODECOPY CALLDATACOPY CALLDATACOPY CALLER CODESIZE ORIGIN 0x2C CODESIZE CALLVALUE 0x2E ORIGIN CALLER BALANCE CALLDATALOAD CALLVALUE KECCAK256 CALLER CODESIZE 0x2E CALLDATASIZE BALANCE BALANCE BALANCE CALLDATASIZE CALLER 0x2C CALLDATACOPY ORIGIN 0x2E CALLVALUE CODESIZE ADDRESS CALLER CODECOPY CALLDATACOPY KECCAK256 CALLER CODECOPY 0x2E CALLVALUE CALLDATACOPY CALLVALUE ADDRESS ADDRESS CALLDATASIZE 0x2C CALLDATASIZE CALLER 0x2E CALLDATASIZE CALLDATALOAD CALLER CODESIZE CALLDATALOAD CALLDATASIZE KECCAK256 CALLVALUE ORIGIN 0x2E CODECOPY CALLER BALANCE CALLDATALOAD BALANCE CODECOPY 0x2C CALLVALUE ORIGIN 0x2E CALLDATALOAD CALLDATACOPY ADDRESS CALLDATASIZE CALLVALUE CALLDATALOAD KECCAK256 CALLDATALOAD ADDRESS 0x2E ORIGIN CALLVALUE CALLDATASIZE ORIGIN BALANCE CODECOPY 0x2C CALLER CALLDATALOAD 0x2E CALLVALUE CALLER CALLDATASIZE CALLER CALLER CALLDATACOPY KECCAK256 CALLDATASIZE ORIGIN 0x2E BALANCE CALLDATALOAD CALLER CODESIZE ADDRESS CALLDATALOAD 0x2C ORIGIN ORIGIN 0x2E CALLDATASIZE CODESIZE CALLDATALOAD CODESIZE CODESIZE CODESIZE KECCAK256 CODESIZE ADDRESS 0x2E CALLER CALLER CALLER CALLDATALOAD CODECOPY CALLDATACOPY 0x2C BALANCE CALLVALUE 0x2E ADDRESS CALLVALUE CALLDATASIZE CALLDATALOAD CALLDATALOAD ORIGIN KECCAK256 BALANCE ADDRESS CALLDATASIZE 0x2E BALANCE CALLVALUE CALLDATALOAD CODESIZE CALLER 0x2C CODECOPY 0x2E ORIGIN CODECOPY ORIGIN CODESIZE ORIGIN CALLER ORIGIN KECCAK256 BALANCE ORIGIN CALLER 0x2E CODESIZE CALLVALUE 0x2C BALANCE CODESIZE 0x2E CODESIZE ADDRESS ORIGIN CALLDATALOAD CODESIZE KECCAK256 PUSH4 0x20392E38 CODECOPY BALANCE CODECOPY CALLDATALOAD 0x2C CALLVALUE 0x2E CODECOPY CALLDATACOPY CALLDATALOAD ADDRESS CODESIZE CALLDATACOPY KECCAK256 BALANCE CODECOPY 0x2E CALLER CODESIZE CALLDATALOAD CODESIZE CALLER 0x2C BALANCE BALANCE 0x2E CALLDATACOPY CODECOPY CODESIZE CALLVALUE ORIGIN KECCAK256 ORIGIN CALLVALUE 0x2E CODESIZE CODECOPY CODESIZE CALLER CALLDATASIZE 0x2C BALANCE CODESIZE 0x2E CALLDATASIZE BALANCE CALLER ADDRESS CALLDATASIZE ORIGIN KECCAK256 CODECOPY 0x2E CALLDATASIZE CALLDATALOAD CALLDATASIZE CALLER CALLDATACOPY 0x2C BALANCE CALLER 0x2E CALLER CALLDATACOPY CODESIZE ORIGIN CODESIZE CODESIZE KECCAK256 CODECOPY 0x2E ORIGIN CODECOPY ADDRESS CODESIZE CODECOPY 0x2C ORIGIN CODECOPY 0x2E CODECOPY CALLDATALOAD CALLDATASIZE CODESIZE ADDRESS ORIGIN KECCAK256 BALANCE ADDRESS 0x2E ADDRESS CALLDATASIZE ADDRESS BALANCE CALLDATASIZE 0x2C CALLVALUE CALLDATALOAD 0x2E CALLDATASIZE CALLDATALOAD CODECOPY BALANCE CODESIZE KECCAK256 0x2D ADDRESS 0x2E ORIGIN ORIGIN CALLDATACOPY CODESIZE BALANCE 0x2C CALLER 0x2E BALANCE CALLDATALOAD ORIGIN CALLVALUE ORIGIN CODESIZE KECCAK256 0x2D ORIGIN 0x2E CODECOPY CALLDATALOAD CALLER CALLDATASIZE CODECOPY 0x2C CODECOPY 0x2E CODECOPY ADDRESS CALLDATASIZE CALLVALUE CALLVALUE CALLDATASIZE KECCAK256 0x2D ADDRESS 0x2E CALLDATACOPY BALANCE CODESIZE CALLDATALOAD ORIGIN 0x2C BALANCE BALANCE 0x2E CALLDATALOAD CODECOPY CALLVALUE CALLDATALOAD CODESIZE KECCAK256 CALLER 0x2E ADDRESS ADDRESS CALLDATALOAD CODECOPY CALLDATASIZE 0x2C CALLER 0x2E CALLER CALLDATALOAD CODECOPY ADDRESS CALLVALUE CALLER KECCAK256 CALLER 0x2E CALLDATALOAD ORIGIN 0x2C CALLDATASIZE 0x2E ADDRESS ORIGIN CALLVALUE CALLDATACOPY ADDRESS CODESIZE KECCAK256 CALLER 0x2E CALLDATALOAD ORIGIN 0x2C BALANCE ADDRESS 0x2E CODECOPY CALLDATACOPY CALLDATACOPY CALLVALUE CALLER CODESIZE KECCAK256 ADDRESS 0x2E BALANCE ORIGIN BALANCE CODESIZE CALLVALUE 0x2C BALANCE CALLVALUE 0x2E CALLER CALLDATASIZE CODESIZE CODECOPY CALLDATALOAD KECCAK256 0x2D BALANCE BALANCE 0x2E CODECOPY CALLVALUE CALLDATACOPY CALLVALUE CODESIZE 0x2C ORIGIN ADDRESS 0x2E CALLVALUE CALLER ORIGIN CALLER CALLER KECCAK256 0x2D BALANCE ADDRESS 0x2E CALLER CALLVALUE CODECOPY ADDRESS CODECOPY 0x2C CALLER CALLER 0x2E ADDRESS CALLDATALOAD CALLDATALOAD CODECOPY CALLDATALOAD KECCAK256 0x2D CALLVALUE 0x2E CODESIZE CALLDATACOPY CALLDATASIZE CODECOPY CODESIZE 0x2C BALANCE 0x2E CALLVALUE CALLDATACOPY CODESIZE CALLDATACOPY CALLDATALOAD KECCAK256 0x2D CALLER 0x2E CALLDATASIZE CALLER CALLDATACOPY CODESIZE CODESIZE 0x2C 0x2D CALLVALUE 0x2E ADDRESS ADDRESS CALLDATASIZE ADDRESS CODESIZE KECCAK256 0x2D CALLER 0x2E CALLVALUE CALLER ADDRESS CALLDATASIZE CALLDATACOPY 0x2C 0x2D CALLDATALOAD 0x2E CALLDATACOPY CALLVALUE ORIGIN CALLDATACOPY CODECOPY KECCAK256 PUSH27 0x206D202D34322E35313833312C2D32302E34393034352063202D34 0x2E CALLDATASIZE CODESIZE CALLER CALLER CALLDATACOPY 0x2C 0x2D CALLDATALOAD 0x2E CALLDATACOPY CALLDATACOPY CALLDATALOAD ADDRESS CALLDATASIZE KECCAK256 0x2D ADDRESS 0x2E CALLER CODECOPY CALLDATASIZE ADDRESS CALLVALUE 0x2C 0x2D CODECOPY 0x2E BALANCE CALLDATASIZE CALLDATALOAD CALLDATACOPY CALLVALUE KECCAK256 ADDRESS 0x2E ORIGIN CODESIZE BALANCE CALLVALUE ORIGIN 0x2C 0x2D BALANCE CALLVALUE 0x2E CALLDATACOPY CALLDATACOPY BALANCE CALLER CALLER CODECOPY KECCAK256 ADDRESS 0x2E ORIGIN CODECOPY BALANCE CALLVALUE BALANCE 0x2C 0x2D ORIGIN 0x2E CALLDATALOAD CALLDATASIZE ADDRESS CALLDATACOPY CALLDATALOAD CODESIZE KECCAK256 BALANCE 0x2E ORIGIN CALLER CALLVALUE CALLVALUE CALLER 0x2C 0x2D CALLVALUE 0x2E CALLVALUE CALLVALUE CODESIZE CALLDATACOPY ORIGIN CODECOPY KECCAK256 ORIGIN 0x2E CALLVALUE CALLDATALOAD CALLER CALLDATALOAD CODECOPY 0x2C 0x2D CALLVALUE 0x2E CODECOPY BALANCE ORIGIN ORIGIN CALLDATALOAD CALLDATASIZE KECCAK256 CALLDATASIZE 0x2E CODECOPY ADDRESS CALLDATALOAD CODECOPY CALLVALUE 0x2C 0x2D ADDRESS 0x2E CODESIZE CALLDATASIZE CALLDATALOAD CALLDATALOAD CALLVALUE CODECOPY KECCAK256 BALANCE CALLVALUE 0x2E CODESIZE CODESIZE CALLDATALOAD ORIGIN CALLER 0x2C 0x2D CALLER 0x2E BALANCE CALLDATACOPY BALANCE CALLER CODESIZE KECCAK256 ORIGIN BALANCE 0x2E CODESIZE CODESIZE CALLER ADDRESS CALLDATASIZE 0x2C 0x2D ADDRESS 0x2E CODESIZE BALANCE CODECOPY CODECOPY CODESIZE CALLVALUE KECCAK256 CALLER 0x2E CODECOPY CALLVALUE CODECOPY CODECOPY CODESIZE 0x2C BALANCE 0x2E ADDRESS BALANCE CALLER CODESIZE CALLER CALLDATALOAD KECCAK256 CALLDATACOPY 0x2E CALLDATACOPY CALLDATASIZE CALLER CALLDATALOAD CALLDATALOAD 0x2C ORIGIN 0x2E CALLDATACOPY CALLER CALLER CALLDATASIZE ADDRESS ORIGIN KECCAK256 CODECOPY 0x2E CALLDATACOPY CODESIZE CODESIZE CALLVALUE BALANCE 0x2C CALLDATALOAD 0x2E ORIGIN CALLDATASIZE CALLDATALOAD CALLDATACOPY BALANCE ORIGIN KECCAK256 ORIGIN 0x2E CALLDATALOAD CALLDATACOPY CALLDATACOPY CALLER CODECOPY 0x2C CALLVALUE 0x2E ORIGIN ADDRESS CALLER CALLER CODESIZE CALLDATACOPY KECCAK256 BALANCE 0x2E CALLVALUE CALLDATASIZE CALLVALUE CODESIZE 0x2C CALLVALUE 0x2E CALLDATACOPY CALLVALUE ADDRESS CODESIZE CODECOPY CALLDATACOPY KECCAK256 0x2D BALANCE 0x2E CODESIZE CALLDATACOPY ORIGIN CALLDATACOPY CALLVALUE 0x2C CALLDATASIZE 0x2E BALANCE ORIGIN CALLDATACOPY CODESIZE CODESIZE CALLDATACOPY KECCAK256 ADDRESS 0x2E CALLER CODESIZE CALLVALUE CALLER CODESIZE 0x2C BALANCE 0x2E CODECOPY ORIGIN CALLDATALOAD CALLDATALOAD CALLDATASIZE KECCAK256 0x2D ADDRESS 0x2E ADDRESS CALLDATALOAD CODECOPY CALLDATASIZE 0x2C CALLVALUE 0x2E BALANCE CALLDATASIZE CALLDATALOAD CALLVALUE CALLER KECCAK256 0x2D BALANCE 0x2E CALLDATALOAD BALANCE CALLDATACOPY CODESIZE CALLVALUE 0x2C CALLVALUE 0x2E CODECOPY CALLDATASIZE BALANCE CALLDATALOAD CALLDATALOAD KECCAK256 0x2D CALLDATALOAD 0x2E ADDRESS CALLVALUE CALLDATALOAD CODESIZE CALLVALUE 0x2C BALANCE 0x2E BALANCE CODESIZE CALLDATASIZE CALLDATASIZE CODESIZE KECCAK256 0x2D BALANCE ADDRESS 0x2E CALLVALUE ADDRESS CODECOPY CODESIZE CALLDATALOAD 0x2C 0x2D ADDRESS 0x2E CALLER BALANCE CALLDATALOAD CALLVALUE CALLDATASIZE KECCAK256 0x2D BALANCE CALLDATASIZE 0x2E BALANCE CALLDATALOAD CALLDATACOPY CODESIZE CALLER 0x2C BALANCE 0x2E CALLVALUE CALLDATALOAD CALLVALUE CALLDATASIZE CALLVALUE KECCAK256 0x2D BALANCE 0x2E CALLER CALLVALUE ADDRESS ADDRESS BALANCE 0x2C ADDRESS 0x2E CALLVALUE CALLER CODESIZE CODECOPY CALLVALUE KECCAK256 0x2D CALLER 0x2E BALANCE ADDRESS CODESIZE ADDRESS CALLDATACOPY 0x2C ORIGIN 0x2E CALLDATASIZE ORIGIN CODESIZE ORIGIN CODECOPY KECCAK256 0x2D ORIGIN 0x2E CODESIZE CODESIZE CALLDATALOAD CALLDATASIZE CALLDATACOPY 0x2C CALLER 0x2E CALLDATALOAD CALLDATACOPY CALLER ORIGIN CALLDATASIZE KECCAK256 0x2D ADDRESS 0x2E CALLDATACOPY CALLDATALOAD ADDRESS ORIGIN CODECOPY 0x2C CALLVALUE 0x2E ORIGIN CALLDATACOPY CALLDATALOAD CALLDATASIZE CALLDATASIZE KECCAK256 0x2D BALANCE ADDRESS 0x2E ADDRESS CALLER CODECOPY ADDRESS CALLDATASIZE 0x2C ADDRESS 0x2E CODESIZE ADDRESS CODECOPY ADDRESS CALLDATALOAD KECCAK256 0x2D BALANCE BALANCE 0x2E CODECOPY CALLDATACOPY ORIGIN CALLVALUE 0x2C 0x2D ADDRESS 0x2E CODESIZE CALLDATACOPY CODECOPY CALLVALUE CALLDATACOPY KECCAK256 PUSH27 0x206D202D32302E3337343032362C312E35323032332063202D312E BALANCE ORIGIN CODESIZE CALLDATASIZE BALANCE CALLDATALOAD 0x2C 0x2D ORIGIN 0x2E CALLER CALLDATALOAD CODESIZE CALLER CALLDATASIZE KECCAK256 0x2D CALLDATALOAD 0x2E CALLDATALOAD BALANCE CODECOPY CALLVALUE CALLDATACOPY CODECOPY 0x2C 0x2D BALANCE 0x2E ADDRESS CALLDATALOAD CODESIZE CALLVALUE CODECOPY KECCAK256 0x2D CALLDATALOAD 0x2E CALLDATALOAD CALLDATASIZE CALLDATACOPY CODECOPY ADDRESS CALLVALUE 0x2C 0x2D CALLER 0x2E BALANCE CALLER CALLVALUE CALLDATASIZE KECCAK256 0x2D ORIGIN 0x2E CALLVALUE ADDRESS CALLDATASIZE CALLER CALLVALUE CALLDATACOPY 0x2C 0x2D CALLVALUE 0x2E CALLDATASIZE CALLER CALLDATASIZE BALANCE CODECOPY KECCAK256 0x2D BALANCE BALANCE 0x2E CALLDATACOPY CODESIZE CALLDATASIZE CODECOPY CALLDATALOAD CALLDATASIZE 0x2C 0x2D ADDRESS 0x2E CODESIZE CALLDATACOPY ORIGIN CALLVALUE BALANCE KECCAK256 0x2D BALANCE CALLDATASIZE 0x2E ADDRESS ORIGIN CODECOPY BALANCE ADDRESS CALLVALUE 0x2C 0x2D CALLER 0x2E ORIGIN CODECOPY ADDRESS CALLDATASIZE CALLER KECCAK256 0x2D BALANCE 0x2E ADDRESS BALANCE ADDRESS CALLER CALLDATACOPY BALANCE 0x2C 0x2D ORIGIN 0x2E CALLVALUE CALLVALUE CALLER ORIGIN CALLER KECCAK256 BALANCE 0x2E ORIGIN CODECOPY BALANCE BALANCE ORIGIN CALLDATASIZE 0x2C 0x2D CALLER 0x2E CALLDATACOPY ORIGIN CALLDATALOAD ADDRESS CODECOPY KECCAK256 ORIGIN 0x2E CALLDATALOAD CODESIZE CODECOPY BALANCE ADDRESS CALLVALUE 0x2C 0x2D CALLDATALOAD 0x2E ORIGIN CALLDATALOAD CODESIZE ADDRESS CALLER KECCAK256 0x2D ORIGIN 0x2E CALLDATASIZE ADDRESS CODECOPY CALLDATALOAD BALANCE CALLVALUE 0x2C 0x2D ADDRESS 0x2E CALLER ADDRESS BALANCE CALLDATASIZE CALLDATACOPY KECCAK256 0x2D CALLDATASIZE 0x2E CALLDATASIZE CODECOPY CODECOPY BALANCE CALLDATALOAD 0x2C ADDRESS 0x2E CODESIZE ORIGIN CALLVALUE CALLER CALLDATALOAD KECCAK256 0x2D CALLDATASIZE 0x2E CALLDATACOPY ORIGIN 0x2C 0x2D ORIGIN 0x2E CALLDATASIZE ORIGIN ADDRESS ADDRESS CODECOPY BALANCE KECCAK256 BALANCE 0x2E ORIGIN CALLVALUE CALLDATACOPY CALLDATASIZE ORIGIN ORIGIN 0x2C 0x2D CALLDATALOAD 0x2E CALLDATALOAD ADDRESS CALLDATACOPY CALLER ADDRESS CALLDATALOAD KECCAK256 BALANCE ADDRESS 0x2E ORIGIN CALLDATACOPY CALLVALUE CALLDATASIZE ORIGIN CALLER 0x2C 0x2D CALLDATASIZE 0x2E CALLDATALOAD CALLER CALLER CALLVALUE CALLVALUE ORIGIN KECCAK256 BALANCE CALLDATALOAD 0x2E CALLDATALOAD ORIGIN 0x2C 0x2D CALLDATACOPY 0x2E ADDRESS CALLVALUE CODESIZE ORIGIN CALLER CALLVALUE KECCAK256 CALLDATASIZE 0x2E CALLER CALLVALUE BALANCE ORIGIN CALLDATACOPY BALANCE 0x2C 0x2D BALANCE 0x2E ADDRESS CALLDATALOAD ORIGIN CALLDATASIZE CALLER CALLDATACOPY KECCAK256 BALANCE ORIGIN 0x2E CODESIZE CODECOPY CALLDATALOAD BALANCE CODESIZE CALLDATACOPY 0x2C 0x2D BALANCE 0x2E CALLER BALANCE CALLDATACOPY ADDRESS CALLVALUE CALLVALUE KECCAK256 BALANCE CODESIZE 0x2E CALLDATALOAD CALLDATALOAD CODECOPY CALLDATASIZE CODESIZE CALLER 0x2C BALANCE 0x2E CODESIZE CODESIZE CALLDATALOAD BALANCE ADDRESS BALANCE KECCAK256 ORIGIN 0x2E CALLER ADDRESS CALLDATASIZE CALLVALUE CALLDATALOAD BALANCE 0x2C BALANCE 0x2E ORIGIN CODECOPY CALLDATASIZE CALLVALUE CALLER ORIGIN KECCAK256 ORIGIN 0x2E CALLDATASIZE ORIGIN CODECOPY ADDRESS CALLDATALOAD 0x2C ORIGIN 0x2E CODECOPY CALLDATALOAD CALLDATALOAD BALANCE CALLDATASIZE CODESIZE KECCAK256 ADDRESS 0x2E CODECOPY CALLDATASIZE ADDRESS CALLVALUE BALANCE 0x2C CALLVALUE 0x2E CODECOPY CALLER CODESIZE ORIGIN CALLER CALLVALUE KECCAK256 0x2D ADDRESS 0x2E CODECOPY CALLDATACOPY CALLER CODESIZE CALLDATASIZE CODECOPY 0x2C BALANCE 0x2E BALANCE CALLDATALOAD CALLDATACOPY CALLER CODESIZE KECCAK256 0x2D ADDRESS 0x2E CODECOPY CODESIZE CALLDATALOAD BALANCE CODECOPY CALLVALUE 0x2C BALANCE 0x2E CALLVALUE CALLDATACOPY CODESIZE CALLDATASIZE CALLDATASIZE KECCAK256 0x2D ADDRESS 0x2E BALANCE ORIGIN ADDRESS CODECOPY CODECOPY CODECOPY 0x2C CALLER 0x2E CALLVALUE CALLER ORIGIN CALLER ORIGIN KECCAK256 BALANCE 0x2E ADDRESS CALLVALUE CODESIZE CODESIZE CALLDATACOPY CALLDATALOAD 0x2C CALLVALUE 0x2E ORIGIN CODECOPY BALANCE CODECOPY KECCAK256 ADDRESS 0x2E ADDRESS CALLVALUE CODESIZE ADDRESS CALLVALUE 0x2C CALLDATACOPY 0x2E CALLDATALOAD CALLVALUE CALLDATASIZE ADDRESS ORIGIN KECCAK256 0x2D ORIGIN 0x2E CALLDATALOAD CALLDATASIZE CALLDATASIZE ADDRESS ADDRESS CODECOPY 0x2C BALANCE ADDRESS 0x2E CALLDATASIZE CALLDATACOPY CALLDATASIZE ADDRESS CALLDATACOPY KECCAK256 0x2D ADDRESS 0x2E CALLDATACOPY ADDRESS ADDRESS ADDRESS CODECOPY CODECOPY 0x2C ADDRESS 0x2E CALLER CALLDATALOAD CALLDATACOPY CODESIZE KECCAK256 0x2D CALLDATASIZE 0x2E BALANCE CODESIZE CALLDATACOPY CALLVALUE BALANCE BALANCE 0x2C ADDRESS 0x2E CALLDATACOPY ADDRESS CALLDATALOAD CALLDATALOAD CALLDATALOAD KECCAK256 0x2D CALLDATASIZE 0x2E CALLDATASIZE ORIGIN CALLDATALOAD BALANCE CODESIZE BALANCE 0x2C ADDRESS 0x2E CALLVALUE BALANCE CODECOPY CODESIZE CALLDATASIZE KECCAK256 PUSH27 0x22207472616E73666F726D3D227472616E736C6174652830203029 KECCAK256 PUSH20 0x63616C6528312E3929222F3EA264697066735822 SLT KECCAK256 0xC7 0xB7 0xD7 0xE2 PUSH10 0xE5DA227E9CB18D779DCA 0xED 0x26 POP 0xE5 DIV PUSH11 0x28671C6697FD5E74BFA9EE PUSH5 0x736F6C6343 STOP ADDMOD SMOD STOP CALLER "
				},
				"gasEstimates": {
					"creation": {
						"codeDepositCost": "1886400",
						"executionCost": "1990",
						"totalCost": "1888390"
					},
					"external": {
						"getSVG(uint256)": "infinite"
					}
				},
				"methodIdentifiers": {
					"getSVG(uint256)": "be985ac9"
				}
			},
			"userdoc": {
				"kind": "user",
				"methods": {},
				"version": 1
			}
		}
	}
}