{
	"data": {
		"bytecode": {
			"linkReferences": {},
			"object": "60806040523480156200001157600080fd5b5060405162003f1838038062003f188339810160408190526200003491620005fd565b60408051808201909152600c81526b46432d436861696e6c696e6b60a01b60208201526200006281620003a2565b5080516200007890600590602084019062000557565b50600780546001600160a01b0384166001600160a01b0319918216178255600d8054821633908117909155600e8054909216179055604080518082018252918252660706c61796572360cc1b60208084019190915281518083018352600a81526923b7b0b635b2b2b832b960b11b818301528251808401909352600c83526b0aedee4dae640aecacaeec2f60a31b918301919091526200012492916000908190819081908190620003bb565b620001b260405180604001604052806007815260200166706c617965723160c81b81525060405180604001604052806007815260200166446566656e636560c81b81525060008060008060006040518060400160405280601381526020017f427574746f636b732057696e7465726b6f726e00000000000000000000000000815250620003bb60201b60201c565b6200023060405180604001604052806007815260200166383630bcb2b91960c91b81525060405180604001604052806007815260200166446566656e636560c81b81525060008060008060006040518060400160405280600d81526020016c2234b1b6b0b71023bab9ba32b960991b815250620003bb60201b60201c565b620002b160405180604001604052806007815260200166706c617965723360c81b81525060405180604001604052806008815260200167135a59199a595b1960c21b81525060008060008060006040518060400160405280600f81526020016e15195955195948115b991a58dbdd1d608a1b815250620003bb60201b60201c565b62000330604051806040016040528060078152602001661c1b185e595c8d60ca1b815250604051806040016040528060078152602001664f6666656e736560c81b81525060008060008060006040518060400160405280600e81526020016d29b1baba1029b0b1b5b934b232b960911b815250620003bb60201b60201c565b60408051808201909152600c8082526b46432d436861696e6c696e6b60a01b6020909201918252620003659160089162000557565b50604051806101400160405280610116815260200162003e0261011691398051620003999160099160209091019062000557565b505050620007d1565b8051620003b790600490602084019062000557565b5050565b60005b60048161ffff1610156200054c57600081905060066040518061012001604052808a61ffff1681526020018961ffff1681526020018861ffff1681526020018361ffff1681526020018661ffff1681526020018761ffff1681526020018b81526020018c8152602001858152509080600181540180825580915050600190039060005260206000209060090201600090919091909150600082015181600001556020820151816001015560408201518160020155606082015181600301556080820151816004015560a0820151816005015560c0820151816006019080519060200190620004ae92919062000557565b5060e08201518051620004cc91600784019160209091019062000557565b506101008201518051620004eb91600884019160209091019062000557565b505050600a8a604051620005009190620006d8565b9081526040519081900360200190206006546200052090600190620006f6565b815460018101835560009283526020909220909101555080620005438162000780565b915050620003be565b505050505050505050565b828054620005659062000743565b90600052602060002090601f016020900481019282620005895760008555620005d4565b82601f10620005a457805160ff1916838001178555620005d4565b82800160010185558215620005d4579182015b82811115620005d4578251825591602001919060010190620005b7565b50620005e2929150620005e6565b5090565b5b80821115620005e25760008155600101620005e7565b600080604083850312156200061157600080fd5b82516001600160a01b03811681146200062957600080fd5b60208401519092506001600160401b03808211156200064757600080fd5b818501915085601f8301126200065c57600080fd5b815181811115620006715762000671620007bb565b604051601f8201601f19908116603f011681019083821181831017156200069c576200069c620007bb565b81604052828152886020848701011115620006b657600080fd5b620006c983602083016020880162000710565b80955050505050509250929050565b60008251620006ec81846020870162000710565b9190910192915050565b6000828210156200070b576200070b620007a5565b500390565b60005b838110156200072d57818101518382015260200162000713565b838111156200073d576000848401525b50505050565b600181811c908216806200075857607f821691505b602082108114156200077a57634e487b7160e01b600052602260045260246000fd5b50919050565b600061ffff808316818114156200079b576200079b620007a5565b6001019392505050565b634e487b7160e01b600052601160045260246000fd5b634e487b7160e01b600052604160045260246000fd5b61362180620007e16000396000f3fe608060405234801561001057600080fd5b50600436106101205760003560e01c806385ade74f116100ad578063c236fe4411610071578063c236fe4414610265578063d1ae4ea414610278578063ddcbf7941461028b578063e985e9c51461029e578063f242432a146102da57600080fd5b806385ade74f14610204578063995c9d7714610217578063a22cb4651461022a578063a39fac121461023d578063a6f9dae11461025257600080fd5b8063203da719116100f4578063203da719146101965780632eb2c2d6146101a95780633feb9f7d146101be5780634e1273f4146101d15780635c7a8d27146101f157600080fd5b8062fdd58e1461012557806301ffc9a71461014b57806306fdde031461016e5780630e89341c14610183575b600080fd5b6101386101333660046126ca565b6102ed565b6040519081526020015b60405180910390f35b61015e610159366004612838565b610383565b6040519015158152602001610142565b6101766103d5565b6040516101429190613106565b61017661019136600461293b565b610463565b6101386101a436600461293b565b610bda565b6101bc6101b7366004612581565b610c25565b005b6101bc6101cc366004612954565b610cbc565b6101e46101df3660046126f4565b610d5f565b60405161014291906130c5565b6101bc6101ff366004612989565b610e88565b6101bc610212366004612872565b611193565b6101bc610225366004612954565b6111d4565b6101bc61023836600461268e565b611223565b61024561122e565b6040516101429190613078565b6101bc610260366004612533565b61127d565b6101bc61027336600461254e565b6112c9565b6101bc6102863660046127c4565b611321565b6101bc6102993660046129f6565b6113c3565b61015e6102ac36600461254e565b6001600160a01b03918216600090815260016020908152604080832093909416825291909152205460ff1690565b6101bc6102e836600461262a565b611414565b60006001600160a01b03831661035d5760405162461bcd60e51b815260206004820152602a60248201527f455243313135353a2061646472657373207a65726f206973206e6f742061207660448201526930b634b21037bbb732b960b11b60648201526084015b60405180910390fd5b506000908152602081815260408083206001600160a01b03949094168352929052205490565b60006001600160e01b03198216636cdb3d1360e11b14806103b457506001600160e01b031982166303a24d0760e21b145b806103cf57506301ffc9a760e01b6001600160e01b03198316145b92915050565b600580546103e2906133ff565b80601f016020809104026020016040519081016040528092919081815260200182805461040e906133ff565b801561045b5780601f106104305761010080835404028352916020019161045b565b820191906000526020600020905b81548152906001019060200180831161043e57829003601f168201915b505050505081565b606060008060606103e985101561052c5760068581548110610487576104876134c1565b9060005260206000209060090201600301549250849150600980546104ab906133ff565b80601f01602080910402602001604051908101604052809291908181526020018280546104d7906133ff565b80156105245780601f106104f957610100808354040283529160200191610524565b820191906000526020600020905b81548152906001019060200180831161050757829003601f168201915b505050505090505b846103e914156105bc57604080516020808201889052428284015266506c616365203160c81b606083015260036067808401829052845180850390910181526087909301909352815191012090935061058790600590613481565b61059290600461339d565b915060096040516020016105a69190612e6f565b60405160208183030381529060405290506106c2565b846103ea141561063657604080516020808201889052428284015266283630b1b2901960c91b606083015260026067808401829052845180850390910181526087909301909352815191012090935061061790600590613481565b61062290600461339d565b915060096040516020016105a69190612fc3565b846103eb14156106c257604080516020808201889052428284015266506c616365203360c81b606083015260016067808401829052845180850390910181526087909301909352815191012090935061069190600590613481565b61069c90600461339d565b915060096040516020016106b09190612f60565b60405160208183030381529060405290505b6107d0851180156106d557506298968185105b1561076157600092506005854260405160200161070d9291909182526020820152671519585b4813919560c21b604082015260480190565b6040516020818303038152906040528051906020012060001c6107309190613481565b61073b90600461339d565b9150600960405160200161074f9190612e4e565b60405160208183030381529060405290505b629896808511156107f357600092506005854260405160200161079f9291909182526020820152671519585b4813919560c21b604082015260480190565b6040516020818303038152906040528051906020012060001c6107c29190613481565b6107cd90600461339d565b915060096040516020016107e19190612e2f565b60405160208183030381529060405290505b6000858152600c60205260408120546006805491929185908110610819576108196134c1565b90600052602060002090600902016040518061012001604052908160008201548152602001600182015481526020016002820154815260200160038201548152602001600482015481526020016005820154815260200160068201805461087f906133ff565b80601f01602080910402602001604051908101604052809291908181526020018280546108ab906133ff565b80156108f85780601f106108cd576101008083540402835291602001916108f8565b820191906000526020600020905b8154815290600101906020018083116108db57829003601f168201915b50505050508152602001600782018054610911906133ff565b80601f016020809104026020016040519081016040528092919081815260200182805461093d906133ff565b801561098a5780601f1061095f5761010080835404028352916020019161098a565b820191906000526020600020905b81548152906001019060200180831161096d57829003601f168201915b505050505081526020016008820180546109a3906133ff565b80601f01602080910402602001604051908101604052809291908181526020018280546109cf906133ff565b8015610a1c5780601f106109f157610100808354040283529160200191610a1c565b820191906000526020600020905b8154815290600101906020018083116109ff57829003601f168201915b5050509190925250506007546040516321f8dd9d60e01b81529293506000926001600160a01b0390911691506321f8dd9d90610a629085908a908d908990600401613267565b60006040518083038186803b158015610a7a57600080fd5b505afa158015610a8e573d6000803e3d6000fd5b505050506040513d6000823e601f3d908101601f19168201604052610ab691908101906128ba565b9050600082610100015185610aca8461149b565b604051602001610adc93929190612e8d565b6040516020818303038152906040529050808361010001518460c00151610b068660000151611600565b610b138760200151611600565b604051602001610b27959493929190612ce4565b604051602081830303815290604052905080610b468460400151611600565b610b538560600151611600565b610b608660800151611600565b610b6d8760a00151611600565b610b7e610b798c611705565b611600565b604051602001610b9396959493929190612b51565b6040516020818303038152906040529050610bad8161149b565b604051602001610bbd9190612f7e565b604051602081830303815290604052975050505050505050919050565b600e546000906001600160a01b0316331480610c005750600f546001600160a01b031633145b610c1c5760405162461bcd60e51b81526004016103549061321f565b6103cf82611705565b6001600160a01b038516331480610c415750610c4185336102ac565b610ca85760405162461bcd60e51b815260206004820152603260248201527f455243313135353a207472616e736665722063616c6c6572206973206e6f74206044820152711bdddb995c881b9bdc88185c1c1c9bdd995960721b6064820152608401610354565b610cb5858585858561189d565b5050505050565b600e546001600160a01b0316331480610cdf5750600f546001600160a01b031633145b610cfb5760405162461bcd60e51b81526004016103549061321f565b610d1682848360405180602001604052806000815250611afe565b60408051848152602081018390526001600160a01b038416917fc53d2da4a9ef9b259c31a6afa294d43b018aa5930a327c1defc6ad7ceb406c5e910160405180910390a2505050565b60608151835114610dc45760405162461bcd60e51b815260206004820152602960248201527f455243313135353a206163636f756e747320616e6420696473206c656e677468604482015268040dad2e6dac2e8c6d60bb1b6064820152608401610354565b600083516001600160401b03811115610ddf57610ddf6134d7565b604051908082528060200260200182016040528015610e08578160200160208202803683370190505b50905060005b8451811015610e8057610e53858281518110610e2c57610e2c6134c1565b6020026020010151858381518110610e4657610e466134c1565b60200260200101516102ed565b828281518110610e6557610e656134c1565b6020908102919091010152610e7981613466565b9050610e0e565b509392505050565b600e546001600160a01b0316331480610eab5750600f546001600160a01b031633145b610ec75760405162461bcd60e51b81526004016103549061321f565b60608660041415610ef657506040805180820190915260078152661c1b185e595c8d60ca1b6020820152610fa2565b8660031415610f235750604080518082019091526007815266706c617965723360c81b6020820152610fa2565b8660021415610f505750604080518082019091526007815266383630bcb2b91960c91b6020820152610fa2565b8660011415610f7d5750604080518082019091526007815266706c617965723160c81b6020820152610fa2565b86610fa257506040805180820190915260078152660706c61796572360cc1b60208201525b6000600a82604051610fb49190612b35565b908152604080519182900360209081018320805480830285018301909352828452919083018282801561100657602002820191906000526020600020905b815481526020019060010190808311610ff2575b5050505050905060005b8151811015611188578761ffff166006838381518110611032576110326134c1565b60200260200101518154811061104a5761104a6134c1565b9060005260206000209060090201600001819055508661ffff166006838381518110611078576110786134c1565b602002602001015181548110611090576110906134c1565b9060005260206000209060090201600101819055508561ffff1660068383815181106110be576110be6134c1565b6020026020010151815481106110d6576110d66134c1565b9060005260206000209060090201600201819055508361ffff166006838381518110611104576111046134c1565b60200260200101518154811061111c5761111c6134c1565b9060005260206000209060090201600401819055508461ffff16600683838151811061114a5761114a6134c1565b602002602001015181548110611162576111626134c1565b60009182526020909120600560099092020101558061118081613466565b915050611010565b505050505050505050565b600d546001600160a01b031633146111bd5760405162461bcd60e51b815260040161035490613161565b80516111d090600990602084019061238f565b5050565b600e546001600160a01b03163314806111f75750600f546001600160a01b031633145b6112135760405162461bcd60e51b81526004016103549061321f565b61121e828483611c98565b505050565b6111d0338383611e14565b600e546060906001600160a01b03163314806112545750600f546001600160a01b031633145b6112705760405162461bcd60e51b81526004016103549061321f565b611278611ef5565b905090565b600d546001600160a01b031633146112a75760405162461bcd60e51b815260040161035490613161565b600d80546001600160a01b0319166001600160a01b0392909216919091179055565b600d546001600160a01b031633146112f35760405162461bcd60e51b815260040161035490613161565b600e80546001600160a01b039384166001600160a01b031991821617909155600f8054929093169116179055565b600e546001600160a01b03163314806113445750600f546001600160a01b031633145b6113605760405162461bcd60e51b81526004016103549061321f565b6107d160005b828110156113bd57838382818110611380576113806134c1565b90506020020135600b6000848061139690613466565b955081526020019081526020016000208190555080806113b590613466565b915050611366565b50505050565b600e546001600160a01b03163314806113e65750600f546001600160a01b031633145b6114025760405162461bcd60e51b81526004016103549061321f565b6000918252600c602052604090912055565b6001600160a01b038516331480611430575061143085336102ac565b61148e5760405162461bcd60e51b815260206004820152602960248201527f455243313135353a2063616c6c6572206973206e6f74206f776e6572206e6f7260448201526808185c1c1c9bdd995960ba1b6064820152608401610354565b610cb58585858585611f57565b8051606090806114bb575050604080516020810190915260008152919050565b600060036114ca836002613371565b6114d49190613389565b6114df90600461339d565b905060006114ee826020613371565b6001600160401b03811115611505576115056134d7565b6040519080825280601f01601f19166020018201604052801561152f576020820181803683370190505b50905060006040518060600160405280604081526020016135ac604091399050600181016020830160005b868110156115bb576003818a01810151603f601282901c8116860151600c83901c8216870151600684901c831688015192909316870151600891821b60ff94851601821b92841692909201901b91160160e01b83526004909201910161155a565b5060038606600181146115d557600281146115e6576115f2565b613d3d60f01b6001198301526115f2565b603d60f81b6000198301525b505050918152949350505050565b6060816116245750506040805180820190915260018152600360fc1b602082015290565b8160005b811561164e578061163881613466565b91506116479050600a83613389565b9150611628565b6000816001600160401b03811115611668576116686134d7565b6040519080825280601f01601f191660200182016040528015611692576020820181803683370190505b5090505b84156116fd576116a76001836133bc565b91506116b4600a86613481565b6116bf906030613371565b60f81b8183815181106116d4576116d46134c1565b60200101906001600160f81b031916908160001a9053506116f6600a86613389565b9450611696565b949350505050565b600080600190506006838154811061171f5761171f6134c1565b90600052602060002090600902016006016040516020016117409190612e23565b604051602081830303815290604052805190602001206040516020016117739066446566656e636560c81b815260070190565b604051602081830303815290604052805190602001201415611793575060025b600683815481106117a6576117a66134c1565b906000526020600020906009020160040154600684815481106117cb576117cb6134c1565b906000526020600020906009020160050154600685815481106117f0576117f06134c1565b90600052602060002090600902016002015461180c9190613371565b611816908361339d565b600a6006868154811061182b5761182b6134c1565b9060005260206000209060090201600001546118479190613389565b6006868154811061185a5761185a6134c1565b90600052602060002090600902016001015460016118789190613371565b6118829190613371565b61188c9190613371565b6118969190613371565b9392505050565b81518351146118ff5760405162461bcd60e51b815260206004820152602860248201527f455243313135353a2069647320616e6420616d6f756e7473206c656e677468206044820152670dad2e6dac2e8c6d60c31b6064820152608401610354565b6001600160a01b0384166119255760405162461bcd60e51b815260040161035490613190565b3360005b8451811015611a90576000858281518110611946576119466134c1565b602002602001015190506000858381518110611964576119646134c1565b602090810291909101810151600084815280835260408082206001600160a01b038e1683529093529190912054909150818110156119b45760405162461bcd60e51b8152600401610354906131d5565b6000838152602081815260408083206001600160a01b038e8116855292528083208585039055908b168252812080548492906119f1908490613371565b90915550506001600160a01b03891660009081526002602052604090205460ff16611a7c576001600160a01b0389166000818152600260205260408120805460ff191660019081179091556003805491820181559091527fc2575a0e9e593c00f959f8c92f12db2869c3395a3b0502d05e2516446f71f85b0180546001600160a01b03191690911790555b50505080611a8990613466565b9050611929565b50846001600160a01b0316866001600160a01b0316826001600160a01b03167f4a39dc06d4c0dbc64b70af90fd698a233a518aa5d07e595d983b8c0526c8f7fb8787604051611ae09291906130d8565b60405180910390a4611af681878787878761210f565b505050505050565b6001600160a01b038416611b5e5760405162461bcd60e51b815260206004820152602160248201527f455243313135353a206d696e7420746f20746865207a65726f206164647265736044820152607360f81b6064820152608401610354565b336000611b6a8561227a565b90506000611b778561227a565b90506000868152602081815260408083206001600160a01b038b16845290915281208054879290611ba9908490613371565b90915550506001600160a01b03871660009081526002602052604090205460ff16611c34576001600160a01b0387166000818152600260205260408120805460ff191660019081179091556003805491820181559091527fc2575a0e9e593c00f959f8c92f12db2869c3395a3b0502d05e2516446f71f85b0180546001600160a01b03191690911790555b60408051878152602081018790526001600160a01b03808a1692600092918716917fc3d58168c5ae7397731d063d5bbf3d657854427343f4c083240f7aacaa2d0f62910160405180910390a4611c8f836000898989896122c5565b50505050505050565b6001600160a01b038316611cfa5760405162461bcd60e51b815260206004820152602360248201527f455243313135353a206275726e2066726f6d20746865207a65726f206164647260448201526265737360e81b6064820152608401610354565b336000611d068461227a565b90506000611d138461227a565b60408051602080820183526000918290528882528181528282206001600160a01b038b1683529052205490915084811015611d9c5760405162461bcd60e51b8152602060048201526024808201527f455243313135353a206275726e20616d6f756e7420657863656564732062616c604482015263616e636560e01b6064820152608401610354565b6000868152602081815260408083206001600160a01b038b81168086529184528285208a8703905582518b81529384018a90529092908816917fc3d58168c5ae7397731d063d5bbf3d657854427343f4c083240f7aacaa2d0f62910160405180910390a4604080516020810190915260009052611c8f565b816001600160a01b0316836001600160a01b03161415611e885760405162461bcd60e51b815260206004820152602960248201527f455243313135353a2073657474696e6720617070726f76616c20737461747573604482015268103337b91039b2b63360b91b6064820152608401610354565b6001600160a01b03838116600081815260016020908152604080832094871680845294825291829020805460ff191686151590811790915591519182527f17307eab39ab6107e8899845ad3d59bd9653f200f220920489ca2b5937696c31910160405180910390a3505050565b60606003805480602002602001604051908101604052809291908181526020018280548015611f4d57602002820191906000526020600020905b81546001600160a01b03168152600190910190602001808311611f2f575b5050505050905090565b6001600160a01b038416611f7d5760405162461bcd60e51b815260040161035490613190565b336000611f898561227a565b90506000611f968561227a565b90506000868152602081815260408083206001600160a01b038c16845290915290205485811015611fd95760405162461bcd60e51b8152600401610354906131d5565b6000878152602081815260408083206001600160a01b038d8116855292528083208985039055908a16825281208054889290612016908490613371565b90915550506001600160a01b03881660009081526002602052604090205460ff166120a1576001600160a01b0388166000818152600260205260408120805460ff191660019081179091556003805491820181559091527fc2575a0e9e593c00f959f8c92f12db2869c3395a3b0502d05e2516446f71f85b0180546001600160a01b03191690911790555b876001600160a01b0316896001600160a01b0316856001600160a01b03167fc3d58168c5ae7397731d063d5bbf3d657854427343f4c083240f7aacaa2d0f628a8a6040516120f9929190918252602082015260400190565b60405180910390a4611188848a8a8a8a8a6122c5565b6001600160a01b0384163b15611af65760405163bc197c8160e01b81526001600160a01b0385169063bc197c81906121539089908990889088908890600401612fe1565b602060405180830381600087803b15801561216d57600080fd5b505af192505050801561219d575060408051601f3d908101601f1916820190925261219a91810190612855565b60015b61224a576121a96134ed565b806308c379a014156121e357506121be613509565b806121c957506121e5565b8060405162461bcd60e51b81526004016103549190613106565b505b60405162461bcd60e51b815260206004820152603460248201527f455243313135353a207472616e7366657220746f206e6f6e20455243313135356044820152732932b1b2b4bb32b91034b6b83632b6b2b73a32b960611b6064820152608401610354565b6001600160e01b0319811663bc197c8160e01b14611c8f5760405162461bcd60e51b815260040161035490613119565b604080516001808252818301909252606091600091906020808301908036833701905050905082816000815181106122b4576122b46134c1565b602090810291909101015292915050565b6001600160a01b0384163b15611af65760405163f23a6e6160e01b81526001600160a01b0385169063f23a6e61906123099089908990889088908890600401613033565b602060405180830381600087803b15801561232357600080fd5b505af1925050508015612353575060408051601f3d908101601f1916820190925261235091810190612855565b60015b61235f576121a96134ed565b6001600160e01b0319811663f23a6e6160e01b14611c8f5760405162461bcd60e51b815260040161035490613119565b82805461239b906133ff565b90600052602060002090601f0160209004810192826123bd5760008555612403565b82601f106123d657805160ff1916838001178555612403565b82800160010185558215612403579182015b828111156124035782518255916020019190600101906123e8565b5061240f929150612413565b5090565b5b8082111561240f5760008155600101612414565b60006124338361334a565b604051612440828261343a565b80925084815285858501111561245557600080fd5b8484602083013760006020868301015250509392505050565b80356001600160a01b038116811461248557600080fd5b919050565b600082601f83011261249b57600080fd5b813560206124a882613327565b6040516124b5828261343a565b8381528281019150858301600585901b870184018810156124d557600080fd5b60005b858110156124f4578135845292840192908401906001016124d8565b5090979650505050505050565b600082601f83011261251257600080fd5b61189683833560208501612428565b803561ffff8116811461248557600080fd5b60006020828403121561254557600080fd5b6118968261246e565b6000806040838503121561256157600080fd5b61256a8361246e565b91506125786020840161246e565b90509250929050565b600080600080600060a0868803121561259957600080fd5b6125a28661246e565b94506125b06020870161246e565b935060408601356001600160401b03808211156125cc57600080fd5b6125d889838a0161248a565b945060608801359150808211156125ee57600080fd5b6125fa89838a0161248a565b9350608088013591508082111561261057600080fd5b5061261d88828901612501565b9150509295509295909350565b600080600080600060a0868803121561264257600080fd5b61264b8661246e565b94506126596020870161246e565b9350604086013592506060860135915060808601356001600160401b0381111561268257600080fd5b61261d88828901612501565b600080604083850312156126a157600080fd5b6126aa8361246e565b9150602083013580151581146126bf57600080fd5b809150509250929050565b600080604083850312156126dd57600080fd5b6126e68361246e565b946020939093013593505050565b6000806040838503121561270757600080fd5b82356001600160401b038082111561271e57600080fd5b818501915085601f83011261273257600080fd5b8135602061273f82613327565b60405161274c828261343a565b8381528281019150858301600585901b870184018b101561276c57600080fd5b600096505b84871015612796576127828161246e565b835260019690960195918301918301612771565b50965050860135925050808211156127ad57600080fd5b506127ba8582860161248a565b9150509250929050565b600080602083850312156127d757600080fd5b82356001600160401b03808211156127ee57600080fd5b818501915085601f83011261280257600080fd5b81358181111561281157600080fd5b8660208260051b850101111561282657600080fd5b60209290920196919550909350505050565b60006020828403121561284a57600080fd5b813561189681613592565b60006020828403121561286757600080fd5b815161189681613592565b60006020828403121561288457600080fd5b81356001600160401b0381111561289a57600080fd5b8201601f810184136128ab57600080fd5b6116fd84823560208401612428565b6000602082840312156128cc57600080fd5b81516001600160401b038111156128e257600080fd5b8201601f810184136128f357600080fd5b80516128fe8161334a565b60405161290b828261343a565b82815286602084860101111561292057600080fd5b6129318360208301602087016133d3565b9695505050505050565b60006020828403121561294d57600080fd5b5035919050565b60008060006060848603121561296957600080fd5b833592506129796020850161246e565b9150604084013590509250925092565b60008060008060008060c087890312156129a257600080fd5b863595506129b260208801612521565b94506129c060408801612521565b93506129ce60608801612521565b92506129dc60808801612521565b91506129ea60a08801612521565b90509295509295509295565b60008060408385031215612a0957600080fd5b50508035926020909101359150565b600081518084526020808501945080840160005b83811015612a4857815187529582019590820190600101612a2c565b509495945050505050565b60008151808452612a6b8160208601602086016133d3565b601f01601f19169290920160200192915050565b60008151612a918185602086016133d3565b9290920192915050565b8054600090600181811c9080831680612ab557607f831692505b6020808410821415612ad757634e487b7160e01b600052602260045260246000fd5b818015612aeb5760018114612afc57612b29565b60ff19861689528489019650612b29565b60008881526020902060005b86811015612b215781548b820152908501908301612b08565b505084890196505b50505050505092915050565b60008251612b478184602087016133d3565b9190910192915050565b60008751612b63818460208c016133d3565b80830190507f7b2274726169745f74797065223a2022476f616c73222c2276616c7565223a208152601160f91b60208201528751612ba8816021840160208c016133d3565b7f227d2c7b2274726169745f74797065223a20224c6576656c222c2276616c75656021929091019182015263111d101160e11b604182018190528751612bf5816045850160208c016133d3565b7f227d2c7b2274726169745f74797065223a20225361766573222c2276616c75656045939091019283015260658201528551612c38816069840160208a016133d3565b612cd6612cc6612cc0612c8a612c846069868801017f227d2c7b2274726169745f74797065223a2022417373697374222c2276616c7581526432911d101160d91b602082015260250190565b8a612a7f565b7f227d2c7b2274726169745f74797065223a202253636f7265222c2276616c7565815263111d101160e11b602082015260240190565b87612a7f565b63227d5d7d60e01b815260040190565b9a9950505050505050505050565b600086516020612cf78285838c016133d3565b7f7b2274726169745f74797065223a20224e616d65222c2276616c7565223a20229184019182528751612d2f81838501848c016133d3565b7f227d2c7b2274726169745f74797065223a2022506f736974696f6e222c22766192018181019290925266363ab2911d101160c91b604083018190528751612d7d81604786018b86016133d3565b7f227d2c7b2274726169745f74797065223a202247616d65706c6179222c2276616047949091019384015260678301528551612dbf81606e8501848a016133d3565b7f227d2c7b2274726169745f74797065223a202247616d6573222c2276616c7565606e93909101928301525063111d101160e11b608e820152612e17612e086092830186612a7f565b62089f4b60ea1b815260030190565b98975050505050505050565b60006118968284612a9b565b6902a32b0b69027232a10960b51b81526000611896600a830184612a9b565b6b02ab734b8bab29027232a10960a51b81526000611896600c830184612a9b565b680283630b1b2901890960bd1b815260006118966009830184612a9b565b693d913730b6b2911d101160b11b81528351600090612eb381600a8501602089016133d3565b72111610113232b9b1b934b83a34b7b7111d101160691b600a918401918201528451612ee681601d8401602089016133d3565b7f222c2022696d616765223a2022646174613a696d6167652f7376672b786d6c3b601d92909101918201526618985cd94d8d0b60ca1b603d8201528351612f348160448401602088016133d3565b71222c202261747472696275746573223a205b60701b6044929091019182015260560195945050505050565b680283630b1b2901990960bd1b815260006118966009830184612a9b565b7f646174613a6170706c69636174696f6e2f6a736f6e3b6261736536342c000000815260008251612fb681601d8501602087016133d3565b91909101601d0192915050565b680283630b1b2901910960bd1b815260006118966009830184612a9b565b6001600160a01b0386811682528516602082015260a06040820181905260009061300d90830186612a18565b828103606084015261301f8186612a18565b90508281036080840152612e178185612a53565b6001600160a01b03868116825285166020820152604081018490526060810183905260a06080820181905260009061306d90830184612a53565b979650505050505050565b6020808252825182820181905260009190848201906040850190845b818110156130b95783516001600160a01b031683529284019291840191600101613094565b50909695505050505050565b6020815260006118966020830184612a18565b6040815260006130eb6040830185612a18565b82810360208401526130fd8185612a18565b95945050505050565b6020815260006118966020830184612a53565b60208082526028908201527f455243313135353a204552433131353552656365697665722072656a656374656040820152676420746f6b656e7360c01b606082015260800190565b602080825260159082015274139bdd0813dddb995c881bd98810dbdb9d1c9858dd605a1b604082015260600190565b60208082526025908201527f455243313135353a207472616e7366657220746f20746865207a65726f206164604082015264647265737360d81b606082015260800190565b6020808252602a908201527f455243313135353a20696e73756666696369656e742062616c616e636520666f60408201526939103a3930b739b332b960b11b606082015260800190565b60208082526028908201527f4e6f74205065726d6973696f6e20746f20696e746572616374207769746820636040820152671c99585d1953919560c21b606082015260800190565b6080815284516080820152602085015160a0820152604085015160c0820152606085015160e082015260006080860151610100818185015260a08801519150610120828186015260c0890151925080610140860152506132cb6101a0850183612a53565b915060e0880151607f1980868503016101608701526132ea8483612a53565b9350828a01519250808685030161018087015250506133098282612a53565b60208501979097525050506040810192909252606090910152919050565b60006001600160401b03821115613340576133406134d7565b5060051b60200190565b60006001600160401b03821115613363576133636134d7565b50601f01601f191660200190565b6000821982111561338457613384613495565b500190565b600082613398576133986134ab565b500490565b60008160001904831182151516156133b7576133b7613495565b500290565b6000828210156133ce576133ce613495565b500390565b60005b838110156133ee5781810151838201526020016133d6565b838111156113bd5750506000910152565b600181811c9082168061341357607f821691505b6020821081141561343457634e487b7160e01b600052602260045260246000fd5b50919050565b601f8201601f191681016001600160401b038111828210171561345f5761345f6134d7565b6040525050565b600060001982141561347a5761347a613495565b5060010190565b600082613490576134906134ab565b500690565b634e487b7160e01b600052601160045260246000fd5b634e487b7160e01b600052601260045260246000fd5b634e487b7160e01b600052603260045260246000fd5b634e487b7160e01b600052604160045260246000fd5b600060033d11156135065760046000803e5060005160e01c5b90565b600060443d10156135175790565b6040516003193d81016004833e81513d6001600160401b03816024840111818411171561354657505050505090565b828501915081518181111561355e5750505050505090565b843d87010160208285010111156135785750505050505090565b6135876020828601018761343a565b509095945050505050565b6001600160e01b0319811681146135a857600080fd5b5056fe4142434445464748494a4b4c4d4e4f505152535455565758595a6162636465666768696a6b6c6d6e6f707172737475767778797a303132333435363738392b2fa2646970667358221220fabe009e0967898c841c3892633cc483f33ab73e94330c19004312bba9c5ba5b64736f6c63430008070033446973636c61696d65723a205468652073636f7065206f66207468652070726f6a6563742069732077697468696e2074686520426c6f636b636861696e204368616c6c656e67652032303232206c656374757265206f6666657265642062792074686520556e6976657273697479206f6620426173656c2e205468652070726f6a6563742077696c6c2072656d61696e2077697468696e207468652074657374206e65742e20546865204e4654732077696c6c206e6576657220626520736f6c64206e6f7220697320746865726520616e792066696e616e6369616c20696e7465726573742061742068616e6420627920746865206f776e657273206f722074686520636f7572736520726573706f6e7369626c652e",
			"opcodes": "PUSH1 0x80 PUSH1 0x40 MSTORE CALLVALUE DUP1 ISZERO PUSH3 0x11 JUMPI PUSH1 0x0 DUP1 REVERT JUMPDEST POP PUSH1 0x40 MLOAD PUSH3 0x3F18 CODESIZE SUB DUP1 PUSH3 0x3F18 DUP4 CODECOPY DUP2 ADD PUSH1 0x40 DUP2 SWAP1 MSTORE PUSH3 0x34 SWAP2 PUSH3 0x5FD JUMP JUMPDEST PUSH1 0x40 DUP1 MLOAD DUP1 DUP3 ADD SWAP1 SWAP2 MSTORE PUSH1 0xC DUP2 MSTORE PUSH12 0x46432D436861696E6C696E6B PUSH1 0xA0 SHL PUSH1 0x20 DUP3 ADD MSTORE PUSH3 0x62 DUP2 PUSH3 0x3A2 JUMP JUMPDEST POP DUP1 MLOAD PUSH3 0x78 SWAP1 PUSH1 0x5 SWAP1 PUSH1 0x20 DUP5 ADD SWAP1 PUSH3 0x557 JUMP JUMPDEST POP PUSH1 0x7 DUP1 SLOAD PUSH1 0x1 PUSH1 0x1 PUSH1 0xA0 SHL SUB DUP5 AND PUSH1 0x1 PUSH1 0x1 PUSH1 0xA0 SHL SUB NOT SWAP2 DUP3 AND OR DUP3 SSTORE PUSH1 0xD DUP1 SLOAD DUP3 AND CALLER SWAP1 DUP2 OR SWAP1 SWAP2 SSTORE PUSH1 0xE DUP1 SLOAD SWAP1 SWAP3 AND OR SWAP1 SSTORE PUSH1 0x40 DUP1 MLOAD DUP1 DUP3 ADD DUP3 MSTORE SWAP2 DUP3 MSTORE PUSH7 0x706C617965723 PUSH1 0xCC SHL PUSH1 0x20 DUP1 DUP5 ADD SWAP2 SWAP1 SWAP2 MSTORE DUP2 MLOAD DUP1 DUP4 ADD DUP4 MSTORE PUSH1 0xA DUP2 MSTORE PUSH10 0x23B7B0B635B2B2B832B9 PUSH1 0xB1 SHL DUP2 DUP4 ADD MSTORE DUP3 MLOAD DUP1 DUP5 ADD SWAP1 SWAP4 MSTORE PUSH1 0xC DUP4 MSTORE PUSH12 0xAEDEE4DAE640AECACAEEC2F PUSH1 0xA3 SHL SWAP2 DUP4 ADD SWAP2 SWAP1 SWAP2 MSTORE PUSH3 0x124 SWAP3 SWAP2 PUSH1 0x0 SWAP1 DUP2 SWAP1 DUP2 SWAP1 DUP2 SWAP1 DUP2 SWAP1 PUSH3 0x3BB JUMP JUMPDEST PUSH3 0x1B2 PUSH1 0x40 MLOAD DUP1 PUSH1 0x40 ADD PUSH1 0x40 MSTORE DUP1 PUSH1 0x7 DUP2 MSTORE PUSH1 0x20 ADD PUSH7 0x706C6179657231 PUSH1 0xC8 SHL DUP2 MSTORE POP PUSH1 0x40 MLOAD DUP1 PUSH1 0x40 ADD PUSH1 0x40 MSTORE DUP1 PUSH1 0x7 DUP2 MSTORE PUSH1 0x20 ADD PUSH7 0x446566656E6365 PUSH1 0xC8 SHL DUP2 MSTORE POP PUSH1 0x0 DUP1 PUSH1 0x0 DUP1 PUSH1 0x0 PUSH1 0x40 MLOAD DUP1 PUSH1 0x40 ADD PUSH1 0x40 MSTORE DUP1 PUSH1 0x13 DUP2 MSTORE PUSH1 0x20 ADD PUSH32 0x427574746F636B732057696E7465726B6F726E00000000000000000000000000 DUP2 MSTORE POP PUSH3 0x3BB PUSH1 0x20 SHL PUSH1 0x20 SHR JUMP JUMPDEST PUSH3 0x230 PUSH1 0x40 MLOAD DUP1 PUSH1 0x40 ADD PUSH1 0x40 MSTORE DUP1 PUSH1 0x7 DUP2 MSTORE PUSH1 0x20 ADD PUSH7 0x383630BCB2B919 PUSH1 0xC9 SHL DUP2 MSTORE POP PUSH1 0x40 MLOAD DUP1 PUSH1 0x40 ADD PUSH1 0x40 MSTORE DUP1 PUSH1 0x7 DUP2 MSTORE PUSH1 0x20 ADD PUSH7 0x446566656E6365 PUSH1 0xC8 SHL DUP2 MSTORE POP PUSH1 0x0 DUP1 PUSH1 0x0 DUP1 PUSH1 0x0 PUSH1 0x40 MLOAD DUP1 PUSH1 0x40 ADD PUSH1 0x40 MSTORE DUP1 PUSH1 0xD DUP2 MSTORE PUSH1 0x20 ADD PUSH13 0x2234B1B6B0B71023BAB9BA32B9 PUSH1 0x99 SHL DUP2 MSTORE POP PUSH3 0x3BB PUSH1 0x20 SHL PUSH1 0x20 SHR JUMP JUMPDEST PUSH3 0x2B1 PUSH1 0x40 MLOAD DUP1 PUSH1 0x40 ADD PUSH1 0x40 MSTORE DUP1 PUSH1 0x7 DUP2 MSTORE PUSH1 0x20 ADD PUSH7 0x706C6179657233 PUSH1 0xC8 SHL DUP2 MSTORE POP PUSH1 0x40 MLOAD DUP1 PUSH1 0x40 ADD PUSH1 0x40 MSTORE DUP1 PUSH1 0x8 DUP2 MSTORE PUSH1 0x20 ADD PUSH8 0x135A59199A595B19 PUSH1 0xC2 SHL DUP2 MSTORE POP PUSH1 0x0 DUP1 PUSH1 0x0 DUP1 PUSH1 0x0 PUSH1 0x40 MLOAD DUP1 PUSH1 0x40 ADD PUSH1 0x40 MSTORE DUP1 PUSH1 0xF DUP2 MSTORE PUSH1 0x20 ADD PUSH15 0x15195955195948115B991A58DBDD1D PUSH1 0x8A SHL DUP2 MSTORE POP PUSH3 0x3BB PUSH1 0x20 SHL PUSH1 0x20 SHR JUMP JUMPDEST PUSH3 0x330 PUSH1 0x40 MLOAD DUP1 PUSH1 0x40 ADD PUSH1 0x40 MSTORE DUP1 PUSH1 0x7 DUP2 MSTORE PUSH1 0x20 ADD PUSH7 0x1C1B185E595C8D PUSH1 0xCA SHL DUP2 MSTORE POP PUSH1 0x40 MLOAD DUP1 PUSH1 0x40 ADD PUSH1 0x40 MSTORE DUP1 PUSH1 0x7 DUP2 MSTORE PUSH1 0x20 ADD PUSH7 0x4F6666656E7365 PUSH1 0xC8 SHL DUP2 MSTORE POP PUSH1 0x0 DUP1 PUSH1 0x0 DUP1 PUSH1 0x0 PUSH1 0x40 MLOAD DUP1 PUSH1 0x40 ADD PUSH1 0x40 MSTORE DUP1 PUSH1 0xE DUP2 MSTORE PUSH1 0x20 ADD PUSH14 0x29B1BABA1029B0B1B5B934B232B9 PUSH1 0x91 SHL DUP2 MSTORE POP PUSH3 0x3BB PUSH1 0x20 SHL PUSH1 0x20 SHR JUMP JUMPDEST PUSH1 0x40 DUP1 MLOAD DUP1 DUP3 ADD SWAP1 SWAP2 MSTORE PUSH1 0xC DUP1 DUP3 MSTORE PUSH12 0x46432D436861696E6C696E6B PUSH1 0xA0 SHL PUSH1 0x20 SWAP1 SWAP3 ADD SWAP2 DUP3 MSTORE PUSH3 0x365 SWAP2 PUSH1 0x8 SWAP2 PUSH3 0x557 JUMP JUMPDEST POP PUSH1 0x40 MLOAD DUP1 PUSH2 0x140 ADD PUSH1 0x40 MSTORE DUP1 PUSH2 0x116 DUP2 MSTORE PUSH1 0x20 ADD PUSH3 0x3E02 PUSH2 0x116 SWAP2 CODECOPY DUP1 MLOAD PUSH3 0x399 SWAP2 PUSH1 0x9 SWAP2 PUSH1 0x20 SWAP1 SWAP2 ADD SWAP1 PUSH3 0x557 JUMP JUMPDEST POP POP POP PUSH3 0x7D1 JUMP JUMPDEST DUP1 MLOAD PUSH3 0x3B7 SWAP1 PUSH1 0x4 SWAP1 PUSH1 0x20 DUP5 ADD SWAP1 PUSH3 0x557 JUMP JUMPDEST POP POP JUMP JUMPDEST PUSH1 0x0 JUMPDEST PUSH1 0x4 DUP2 PUSH2 0xFFFF AND LT ISZERO PUSH3 0x54C JUMPI PUSH1 0x0 DUP2 SWAP1 POP PUSH1 0x6 PUSH1 0x40 MLOAD DUP1 PUSH2 0x120 ADD PUSH1 0x40 MSTORE DUP1 DUP11 PUSH2 0xFFFF AND DUP2 MSTORE PUSH1 0x20 ADD DUP10 PUSH2 0xFFFF AND DUP2 MSTORE PUSH1 0x20 ADD DUP9 PUSH2 0xFFFF AND DUP2 MSTORE PUSH1 0x20 ADD DUP4 PUSH2 0xFFFF AND DUP2 MSTORE PUSH1 0x20 ADD DUP7 PUSH2 0xFFFF AND DUP2 MSTORE PUSH1 0x20 ADD DUP8 PUSH2 0xFFFF AND DUP2 MSTORE PUSH1 0x20 ADD DUP12 DUP2 MSTORE PUSH1 0x20 ADD DUP13 DUP2 MSTORE PUSH1 0x20 ADD DUP6 DUP2 MSTORE POP SWAP1 DUP1 PUSH1 0x1 DUP2 SLOAD ADD DUP1 DUP3 SSTORE DUP1 SWAP2 POP POP PUSH1 0x1 SWAP1 SUB SWAP1 PUSH1 0x0 MSTORE PUSH1 0x20 PUSH1 0x0 KECCAK256 SWAP1 PUSH1 0x9 MUL ADD PUSH1 0x0 SWAP1 SWAP2 SWAP1 SWAP2 SWAP1 SWAP2 POP PUSH1 0x0 DUP3 ADD MLOAD DUP2 PUSH1 0x0 ADD SSTORE PUSH1 0x20 DUP3 ADD MLOAD DUP2 PUSH1 0x1 ADD SSTORE PUSH1 0x40 DUP3 ADD MLOAD DUP2 PUSH1 0x2 ADD SSTORE PUSH1 0x60 DUP3 ADD MLOAD DUP2 PUSH1 0x3 ADD SSTORE PUSH1 0x80 DUP3 ADD MLOAD DUP2 PUSH1 0x4 ADD SSTORE PUSH1 0xA0 DUP3 ADD MLOAD DUP2 PUSH1 0x5 ADD SSTORE PUSH1 0xC0 DUP3 ADD MLOAD DUP2 PUSH1 0x6 ADD SWAP1 DUP1 MLOAD SWAP1 PUSH1 0x20 ADD SWAP1 PUSH3 0x4AE SWAP3 SWAP2 SWAP1 PUSH3 0x557 JUMP JUMPDEST POP PUSH1 0xE0 DUP3 ADD MLOAD DUP1 MLOAD PUSH3 0x4CC SWAP2 PUSH1 0x7 DUP5 ADD SWAP2 PUSH1 0x20 SWAP1 SWAP2 ADD SWAP1 PUSH3 0x557 JUMP JUMPDEST POP PUSH2 0x100 DUP3 ADD MLOAD DUP1 MLOAD PUSH3 0x4EB SWAP2 PUSH1 0x8 DUP5 ADD SWAP2 PUSH1 0x20 SWAP1 SWAP2 ADD SWAP1 PUSH3 0x557 JUMP JUMPDEST POP POP POP PUSH1 0xA DUP11 PUSH1 0x40 MLOAD PUSH3 0x500 SWAP2 SWAP1 PUSH3 0x6D8 JUMP JUMPDEST SWAP1 DUP2 MSTORE PUSH1 0x40 MLOAD SWAP1 DUP2 SWAP1 SUB PUSH1 0x20 ADD SWAP1 KECCAK256 PUSH1 0x6 SLOAD PUSH3 0x520 SWAP1 PUSH1 0x1 SWAP1 PUSH3 0x6F6 JUMP JUMPDEST DUP2 SLOAD PUSH1 0x1 DUP2 ADD DUP4 SSTORE PUSH1 0x0 SWAP3 DUP4 MSTORE PUSH1 0x20 SWAP1 SWAP3 KECCAK256 SWAP1 SWAP2 ADD SSTORE POP DUP1 PUSH3 0x543 DUP2 PUSH3 0x780 JUMP JUMPDEST SWAP2 POP POP PUSH3 0x3BE JUMP JUMPDEST POP POP POP POP POP POP POP POP POP JUMP JUMPDEST DUP3 DUP1 SLOAD PUSH3 0x565 SWAP1 PUSH3 0x743 JUMP JUMPDEST SWAP1 PUSH1 0x0 MSTORE PUSH1 0x20 PUSH1 0x0 KECCAK256 SWAP1 PUSH1 0x1F ADD PUSH1 0x20 SWAP1 DIV DUP2 ADD SWAP3 DUP3 PUSH3 0x589 JUMPI PUSH1 0x0 DUP6 SSTORE PUSH3 0x5D4 JUMP JUMPDEST DUP3 PUSH1 0x1F LT PUSH3 0x5A4 JUMPI DUP1 MLOAD PUSH1 0xFF NOT AND DUP4 DUP1 ADD OR DUP6 SSTORE PUSH3 0x5D4 JUMP JUMPDEST DUP3 DUP1 ADD PUSH1 0x1 ADD DUP6 SSTORE DUP3 ISZERO PUSH3 0x5D4 JUMPI SWAP2 DUP3 ADD JUMPDEST DUP3 DUP2 GT ISZERO PUSH3 0x5D4 JUMPI DUP3 MLOAD DUP3 SSTORE SWAP2 PUSH1 0x20 ADD SWAP2 SWAP1 PUSH1 0x1 ADD SWAP1 PUSH3 0x5B7 JUMP JUMPDEST POP PUSH3 0x5E2 SWAP3 SWAP2 POP PUSH3 0x5E6 JUMP JUMPDEST POP SWAP1 JUMP JUMPDEST JUMPDEST DUP1 DUP3 GT ISZERO PUSH3 0x5E2 JUMPI PUSH1 0x0 DUP2 SSTORE PUSH1 0x1 ADD PUSH3 0x5E7 JUMP JUMPDEST PUSH1 0x0 DUP1 PUSH1 0x40 DUP4 DUP6 SUB SLT ISZERO PUSH3 0x611 JUMPI PUSH1 0x0 DUP1 REVERT JUMPDEST DUP3 MLOAD PUSH1 0x1 PUSH1 0x1 PUSH1 0xA0 SHL SUB DUP2 AND DUP2 EQ PUSH3 0x629 JUMPI PUSH1 0x0 DUP1 REVERT JUMPDEST PUSH1 0x20 DUP5 ADD MLOAD SWAP1 SWAP3 POP PUSH1 0x1 PUSH1 0x1 PUSH1 0x40 SHL SUB DUP1 DUP3 GT ISZERO PUSH3 0x647 JUMPI PUSH1 0x0 DUP1 REVERT JUMPDEST DUP2 DUP6 ADD SWAP2 POP DUP6 PUSH1 0x1F DUP4 ADD SLT PUSH3 0x65C JUMPI PUSH1 0x0 DUP1 REVERT JUMPDEST DUP2 MLOAD DUP2 DUP2 GT ISZERO PUSH3 0x671 JUMPI PUSH3 0x671 PUSH3 0x7BB JUMP JUMPDEST PUSH1 0x40 MLOAD PUSH1 0x1F DUP3 ADD PUSH1 0x1F NOT SWAP1 DUP2 AND PUSH1 0x3F ADD AND DUP2 ADD SWAP1 DUP4 DUP3 GT DUP2 DUP4 LT OR ISZERO PUSH3 0x69C JUMPI PUSH3 0x69C PUSH3 0x7BB JUMP JUMPDEST DUP2 PUSH1 0x40 MSTORE DUP3 DUP2 MSTORE DUP9 PUSH1 0x20 DUP5 DUP8 ADD ADD GT ISZERO PUSH3 0x6B6 JUMPI PUSH1 0x0 DUP1 REVERT JUMPDEST PUSH3 0x6C9 DUP4 PUSH1 0x20 DUP4 ADD PUSH1 0x20 DUP9 ADD PUSH3 0x710 JUMP JUMPDEST DUP1 SWAP6 POP POP POP POP POP POP SWAP3 POP SWAP3 SWAP1 POP JUMP JUMPDEST PUSH1 0x0 DUP3 MLOAD PUSH3 0x6EC DUP2 DUP5 PUSH1 0x20 DUP8 ADD PUSH3 0x710 JUMP JUMPDEST SWAP2 SWAP1 SWAP2 ADD SWAP3 SWAP2 POP POP JUMP JUMPDEST PUSH1 0x0 DUP3 DUP3 LT ISZERO PUSH3 0x70B JUMPI PUSH3 0x70B PUSH3 0x7A5 JUMP JUMPDEST POP SUB SWAP1 JUMP JUMPDEST PUSH1 0x0 JUMPDEST DUP4 DUP2 LT ISZERO PUSH3 0x72D JUMPI DUP2 DUP2 ADD MLOAD DUP4 DUP3 ADD MSTORE PUSH1 0x20 ADD PUSH3 0x713 JUMP JUMPDEST DUP4 DUP2 GT ISZERO PUSH3 0x73D JUMPI PUSH1 0x0 DUP5 DUP5 ADD MSTORE JUMPDEST POP POP POP POP JUMP JUMPDEST PUSH1 0x1 DUP2 DUP2 SHR SWAP1 DUP3 AND DUP1 PUSH3 0x758 JUMPI PUSH1 0x7F DUP3 AND SWAP2 POP JUMPDEST PUSH1 0x20 DUP3 LT DUP2 EQ ISZERO PUSH3 0x77A JUMPI PUSH4 0x4E487B71 PUSH1 0xE0 SHL PUSH1 0x0 MSTORE PUSH1 0x22 PUSH1 0x4 MSTORE PUSH1 0x24 PUSH1 0x0 REVERT JUMPDEST POP SWAP2 SWAP1 POP JUMP JUMPDEST PUSH1 0x0 PUSH2 0xFFFF DUP1 DUP4 AND DUP2 DUP2 EQ ISZERO PUSH3 0x79B JUMPI PUSH3 0x79B PUSH3 0x7A5 JUMP JUMPDEST PUSH1 0x1 ADD SWAP4 SWAP3 POP POP POP JUMP JUMPDEST PUSH4 0x4E487B71 PUSH1 0xE0 SHL PUSH1 0x0 MSTORE PUSH1 0x11 PUSH1 0x4 MSTORE PUSH1 0x24 PUSH1 0x0 REVERT JUMPDEST PUSH4 0x4E487B71 PUSH1 0xE0 SHL PUSH1 0x0 MSTORE PUSH1 0x41 PUSH1 0x4 MSTORE PUSH1 0x24 PUSH1 0x0 REVERT JUMPDEST PUSH2 0x3621 DUP1 PUSH3 0x7E1 PUSH1 0x0 CODECOPY PUSH1 0x0 RETURN INVALID PUSH1 0x80 PUSH1 0x40 MSTORE CALLVALUE DUP1 ISZERO PUSH2 0x10 JUMPI PUSH1 0x0 DUP1 REVERT JUMPDEST POP PUSH1 0x4 CALLDATASIZE LT PUSH2 0x120 JUMPI PUSH1 0x0 CALLDATALOAD PUSH1 0xE0 SHR DUP1 PUSH4 0x85ADE74F GT PUSH2 0xAD JUMPI DUP1 PUSH4 0xC236FE44 GT PUSH2 0x71 JUMPI DUP1 PUSH4 0xC236FE44 EQ PUSH2 0x265 JUMPI DUP1 PUSH4 0xD1AE4EA4 EQ PUSH2 0x278 JUMPI DUP1 PUSH4 0xDDCBF794 EQ PUSH2 0x28B JUMPI DUP1 PUSH4 0xE985E9C5 EQ PUSH2 0x29E JUMPI DUP1 PUSH4 0xF242432A EQ PUSH2 0x2DA JUMPI PUSH1 0x0 DUP1 REVERT JUMPDEST DUP1 PUSH4 0x85ADE74F EQ PUSH2 0x204 JUMPI DUP1 PUSH4 0x995C9D77 EQ PUSH2 0x217 JUMPI DUP1 PUSH4 0xA22CB465 EQ PUSH2 0x22A JUMPI DUP1 PUSH4 0xA39FAC12 EQ PUSH2 0x23D JUMPI DUP1 PUSH4 0xA6F9DAE1 EQ PUSH2 0x252 JUMPI PUSH1 0x0 DUP1 REVERT JUMPDEST DUP1 PUSH4 0x203DA719 GT PUSH2 0xF4 JUMPI DUP1 PUSH4 0x203DA719 EQ PUSH2 0x196 JUMPI DUP1 PUSH4 0x2EB2C2D6 EQ PUSH2 0x1A9 JUMPI DUP1 PUSH4 0x3FEB9F7D EQ PUSH2 0x1BE JUMPI DUP1 PUSH4 0x4E1273F4 EQ PUSH2 0x1D1 JUMPI DUP1 PUSH4 0x5C7A8D27 EQ PUSH2 0x1F1 JUMPI PUSH1 0x0 DUP1 REVERT JUMPDEST DUP1 PUSH3 0xFDD58E EQ PUSH2 0x125 JUMPI DUP1 PUSH4 0x1FFC9A7 EQ PUSH2 0x14B JUMPI DUP1 PUSH4 0x6FDDE03 EQ PUSH2 0x16E JUMPI DUP1 PUSH4 0xE89341C EQ PUSH2 0x183 JUMPI JUMPDEST PUSH1 0x0 DUP1 REVERT JUMPDEST PUSH2 0x138 PUSH2 0x133 CALLDATASIZE PUSH1 0x4 PUSH2 0x26CA JUMP JUMPDEST PUSH2 0x2ED JUMP JUMPDEST PUSH1 0x40 MLOAD SWAP1 DUP2 MSTORE PUSH1 0x20 ADD JUMPDEST PUSH1 0x40 MLOAD DUP1 SWAP2 SUB SWAP1 RETURN JUMPDEST PUSH2 0x15E PUSH2 0x159 CALLDATASIZE PUSH1 0x4 PUSH2 0x2838 JUMP JUMPDEST PUSH2 0x383 JUMP JUMPDEST PUSH1 0x40 MLOAD SWAP1 ISZERO ISZERO DUP2 MSTORE PUSH1 0x20 ADD PUSH2 0x142 JUMP JUMPDEST PUSH2 0x176 PUSH2 0x3D5 JUMP JUMPDEST PUSH1 0x40 MLOAD PUSH2 0x142 SWAP2 SWAP1 PUSH2 0x3106 JUMP JUMPDEST PUSH2 0x176 PUSH2 0x191 CALLDATASIZE PUSH1 0x4 PUSH2 0x293B JUMP JUMPDEST PUSH2 0x463 JUMP JUMPDEST PUSH2 0x138 PUSH2 0x1A4 CALLDATASIZE PUSH1 0x4 PUSH2 0x293B JUMP JUMPDEST PUSH2 0xBDA JUMP JUMPDEST PUSH2 0x1BC PUSH2 0x1B7 CALLDATASIZE PUSH1 0x4 PUSH2 0x2581 JUMP JUMPDEST PUSH2 0xC25 JUMP JUMPDEST STOP JUMPDEST PUSH2 0x1BC PUSH2 0x1CC CALLDATASIZE PUSH1 0x4 PUSH2 0x2954 JUMP JUMPDEST PUSH2 0xCBC JUMP JUMPDEST PUSH2 0x1E4 PUSH2 0x1DF CALLDATASIZE PUSH1 0x4 PUSH2 0x26F4 JUMP JUMPDEST PUSH2 0xD5F JUMP JUMPDEST PUSH1 0x40 MLOAD PUSH2 0x142 SWAP2 SWAP1 PUSH2 0x30C5 JUMP JUMPDEST PUSH2 0x1BC PUSH2 0x1FF CALLDATASIZE PUSH1 0x4 PUSH2 0x2989 JUMP JUMPDEST PUSH2 0xE88 JUMP JUMPDEST PUSH2 0x1BC PUSH2 0x212 CALLDATASIZE PUSH1 0x4 PUSH2 0x2872 JUMP JUMPDEST PUSH2 0x1193 JUMP JUMPDEST PUSH2 0x1BC PUSH2 0x225 CALLDATASIZE PUSH1 0x4 PUSH2 0x2954 JUMP JUMPDEST PUSH2 0x11D4 JUMP JUMPDEST PUSH2 0x1BC PUSH2 0x238 CALLDATASIZE PUSH1 0x4 PUSH2 0x268E JUMP JUMPDEST PUSH2 0x1223 JUMP JUMPDEST PUSH2 0x245 PUSH2 0x122E JUMP JUMPDEST PUSH1 0x40 MLOAD PUSH2 0x142 SWAP2 SWAP1 PUSH2 0x3078 JUMP JUMPDEST PUSH2 0x1BC PUSH2 0x260 CALLDATASIZE PUSH1 0x4 PUSH2 0x2533 JUMP JUMPDEST PUSH2 0x127D JUMP JUMPDEST PUSH2 0x1BC PUSH2 0x273 CALLDATASIZE PUSH1 0x4 PUSH2 0x254E JUMP JUMPDEST PUSH2 0x12C9 JUMP JUMPDEST PUSH2 0x1BC PUSH2 0x286 CALLDATASIZE PUSH1 0x4 PUSH2 0x27C4 JUMP JUMPDEST PUSH2 0x1321 JUMP JUMPDEST PUSH2 0x1BC PUSH2 0x299 CALLDATASIZE PUSH1 0x4 PUSH2 0x29F6 JUMP JUMPDEST PUSH2 0x13C3 JUMP JUMPDEST PUSH2 0x15E PUSH2 0x2AC CALLDATASIZE PUSH1 0x4 PUSH2 0x254E JUMP JUMPDEST PUSH1 0x1 PUSH1 0x1 PUSH1 0xA0 SHL SUB SWAP2 DUP3 AND PUSH1 0x0 SWAP1 DUP2 MSTORE PUSH1 0x1 PUSH1 0x20 SWAP1 DUP2 MSTORE PUSH1 0x40 DUP1 DUP4 KECCAK256 SWAP4 SWAP1 SWAP5 AND DUP3 MSTORE SWAP2 SWAP1 SWAP2 MSTORE KECCAK256 SLOAD PUSH1 0xFF AND SWAP1 JUMP JUMPDEST PUSH2 0x1BC PUSH2 0x2E8 CALLDATASIZE PUSH1 0x4 PUSH2 0x262A JUMP JUMPDEST PUSH2 0x1414 JUMP JUMPDEST PUSH1 0x0 PUSH1 0x1 PUSH1 0x1 PUSH1 0xA0 SHL SUB DUP4 AND PUSH2 0x35D JUMPI PUSH1 0x40 MLOAD PUSH3 0x461BCD PUSH1 0xE5 SHL DUP2 MSTORE PUSH1 0x20 PUSH1 0x4 DUP3 ADD MSTORE PUSH1 0x2A PUSH1 0x24 DUP3 ADD MSTORE PUSH32 0x455243313135353A2061646472657373207A65726F206973206E6F7420612076 PUSH1 0x44 DUP3 ADD MSTORE PUSH10 0x30B634B21037BBB732B9 PUSH1 0xB1 SHL PUSH1 0x64 DUP3 ADD MSTORE PUSH1 0x84 ADD JUMPDEST PUSH1 0x40 MLOAD DUP1 SWAP2 SUB SWAP1 REVERT JUMPDEST POP PUSH1 0x0 SWAP1 DUP2 MSTORE PUSH1 0x20 DUP2 DUP2 MSTORE PUSH1 0x40 DUP1 DUP4 KECCAK256 PUSH1 0x1 PUSH1 0x1 PUSH1 0xA0 SHL SUB SWAP5 SWAP1 SWAP5 AND DUP4 MSTORE SWAP3 SWAP1 MSTORE KECCAK256 SLOAD SWAP1 JUMP JUMPDEST PUSH1 0x0 PUSH1 0x1 PUSH1 0x1 PUSH1 0xE0 SHL SUB NOT DUP3 AND PUSH4 0x6CDB3D13 PUSH1 0xE1 SHL EQ DUP1 PUSH2 0x3B4 JUMPI POP PUSH1 0x1 PUSH1 0x1 PUSH1 0xE0 SHL SUB NOT DUP3 AND PUSH4 0x3A24D07 PUSH1 0xE2 SHL EQ JUMPDEST DUP1 PUSH2 0x3CF JUMPI POP PUSH4 0x1FFC9A7 PUSH1 0xE0 SHL PUSH1 0x1 PUSH1 0x1 PUSH1 0xE0 SHL SUB NOT DUP4 AND EQ JUMPDEST SWAP3 SWAP2 POP POP JUMP JUMPDEST PUSH1 0x5 DUP1 SLOAD PUSH2 0x3E2 SWAP1 PUSH2 0x33FF JUMP JUMPDEST DUP1 PUSH1 0x1F ADD PUSH1 0x20 DUP1 SWAP2 DIV MUL PUSH1 0x20 ADD PUSH1 0x40 MLOAD SWAP1 DUP2 ADD PUSH1 0x40 MSTORE DUP1 SWAP3 SWAP2 SWAP1 DUP2 DUP2 MSTORE PUSH1 0x20 ADD DUP3 DUP1 SLOAD PUSH2 0x40E SWAP1 PUSH2 0x33FF JUMP JUMPDEST DUP1 ISZERO PUSH2 0x45B JUMPI DUP1 PUSH1 0x1F LT PUSH2 0x430 JUMPI PUSH2 0x100 DUP1 DUP4 SLOAD DIV MUL DUP4 MSTORE SWAP2 PUSH1 0x20 ADD SWAP2 PUSH2 0x45B JUMP JUMPDEST DUP3 ADD SWAP2 SWAP1 PUSH1 0x0 MSTORE PUSH1 0x20 PUSH1 0x0 KECCAK256 SWAP1 JUMPDEST DUP2 SLOAD DUP2 MSTORE SWAP1 PUSH1 0x1 ADD SWAP1 PUSH1 0x20 ADD DUP1 DUP4 GT PUSH2 0x43E JUMPI DUP3 SWAP1 SUB PUSH1 0x1F AND DUP3 ADD SWAP2 JUMPDEST POP POP POP POP POP DUP2 JUMP JUMPDEST PUSH1 0x60 PUSH1 0x0 DUP1 PUSH1 0x60 PUSH2 0x3E9 DUP6 LT ISZERO PUSH2 0x52C JUMPI PUSH1 0x6 DUP6 DUP2 SLOAD DUP2 LT PUSH2 0x487 JUMPI PUSH2 0x487 PUSH2 0x34C1 JUMP JUMPDEST SWAP1 PUSH1 0x0 MSTORE PUSH1 0x20 PUSH1 0x0 KECCAK256 SWAP1 PUSH1 0x9 MUL ADD PUSH1 0x3 ADD SLOAD SWAP3 POP DUP5 SWAP2 POP PUSH1 0x9 DUP1 SLOAD PUSH2 0x4AB SWAP1 PUSH2 0x33FF JUMP JUMPDEST DUP1 PUSH1 0x1F ADD PUSH1 0x20 DUP1 SWAP2 DIV MUL PUSH1 0x20 ADD PUSH1 0x40 MLOAD SWAP1 DUP2 ADD PUSH1 0x40 MSTORE DUP1 SWAP3 SWAP2 SWAP1 DUP2 DUP2 MSTORE PUSH1 0x20 ADD DUP3 DUP1 SLOAD PUSH2 0x4D7 SWAP1 PUSH2 0x33FF JUMP JUMPDEST DUP1 ISZERO PUSH2 0x524 JUMPI DUP1 PUSH1 0x1F LT PUSH2 0x4F9 JUMPI PUSH2 0x100 DUP1 DUP4 SLOAD DIV MUL DUP4 MSTORE SWAP2 PUSH1 0x20 ADD SWAP2 PUSH2 0x524 JUMP JUMPDEST DUP3 ADD SWAP2 SWAP1 PUSH1 0x0 MSTORE PUSH1 0x20 PUSH1 0x0 KECCAK256 SWAP1 JUMPDEST DUP2 SLOAD DUP2 MSTORE SWAP1 PUSH1 0x1 ADD SWAP1 PUSH1 0x20 ADD DUP1 DUP4 GT PUSH2 0x507 JUMPI DUP3 SWAP1 SUB PUSH1 0x1F AND DUP3 ADD SWAP2 JUMPDEST POP POP POP POP POP SWAP1 POP JUMPDEST DUP5 PUSH2 0x3E9 EQ ISZERO PUSH2 0x5BC JUMPI PUSH1 0x40 DUP1 MLOAD PUSH1 0x20 DUP1 DUP3 ADD DUP9 SWAP1 MSTORE TIMESTAMP DUP3 DUP5 ADD MSTORE PUSH7 0x506C6163652031 PUSH1 0xC8 SHL PUSH1 0x60 DUP4 ADD MSTORE PUSH1 0x3 PUSH1 0x67 DUP1 DUP5 ADD DUP3 SWAP1 MSTORE DUP5 MLOAD DUP1 DUP6 SUB SWAP1 SWAP2 ADD DUP2 MSTORE PUSH1 0x87 SWAP1 SWAP4 ADD SWAP1 SWAP4 MSTORE DUP2 MLOAD SWAP2 ADD KECCAK256 SWAP1 SWAP4 POP PUSH2 0x587 SWAP1 PUSH1 0x5 SWAP1 PUSH2 0x3481 JUMP JUMPDEST PUSH2 0x592 SWAP1 PUSH1 0x4 PUSH2 0x339D JUMP JUMPDEST SWAP2 POP PUSH1 0x9 PUSH1 0x40 MLOAD PUSH1 0x20 ADD PUSH2 0x5A6 SWAP2 SWAP1 PUSH2 0x2E6F JUMP JUMPDEST PUSH1 0x40 MLOAD PUSH1 0x20 DUP2 DUP4 SUB SUB DUP2 MSTORE SWAP1 PUSH1 0x40 MSTORE SWAP1 POP PUSH2 0x6C2 JUMP JUMPDEST DUP5 PUSH2 0x3EA EQ ISZERO PUSH2 0x636 JUMPI PUSH1 0x40 DUP1 MLOAD PUSH1 0x20 DUP1 DUP3 ADD DUP9 SWAP1 MSTORE TIMESTAMP DUP3 DUP5 ADD MSTORE PUSH7 0x283630B1B29019 PUSH1 0xC9 SHL PUSH1 0x60 DUP4 ADD MSTORE PUSH1 0x2 PUSH1 0x67 DUP1 DUP5 ADD DUP3 SWAP1 MSTORE DUP5 MLOAD DUP1 DUP6 SUB SWAP1 SWAP2 ADD DUP2 MSTORE PUSH1 0x87 SWAP1 SWAP4 ADD SWAP1 SWAP4 MSTORE DUP2 MLOAD SWAP2 ADD KECCAK256 SWAP1 SWAP4 POP PUSH2 0x617 SWAP1 PUSH1 0x5 SWAP1 PUSH2 0x3481 JUMP JUMPDEST PUSH2 0x622 SWAP1 PUSH1 0x4 PUSH2 0x339D JUMP JUMPDEST SWAP2 POP PUSH1 0x9 PUSH1 0x40 MLOAD PUSH1 0x20 ADD PUSH2 0x5A6 SWAP2 SWAP1 PUSH2 0x2FC3 JUMP JUMPDEST DUP5 PUSH2 0x3EB EQ ISZERO PUSH2 0x6C2 JUMPI PUSH1 0x40 DUP1 MLOAD PUSH1 0x20 DUP1 DUP3 ADD DUP9 SWAP1 MSTORE TIMESTAMP DUP3 DUP5 ADD MSTORE PUSH7 0x506C6163652033 PUSH1 0xC8 SHL PUSH1 0x60 DUP4 ADD MSTORE PUSH1 0x1 PUSH1 0x67 DUP1 DUP5 ADD DUP3 SWAP1 MSTORE DUP5 MLOAD DUP1 DUP6 SUB SWAP1 SWAP2 ADD DUP2 MSTORE PUSH1 0x87 SWAP1 SWAP4 ADD SWAP1 SWAP4 MSTORE DUP2 MLOAD SWAP2 ADD KECCAK256 SWAP1 SWAP4 POP PUSH2 0x691 SWAP1 PUSH1 0x5 SWAP1 PUSH2 0x3481 JUMP JUMPDEST PUSH2 0x69C SWAP1 PUSH1 0x4 PUSH2 0x339D JUMP JUMPDEST SWAP2 POP PUSH1 0x9 PUSH1 0x40 MLOAD PUSH1 0x20 ADD PUSH2 0x6B0 SWAP2 SWAP1 PUSH2 0x2F60 JUMP JUMPDEST PUSH1 0x40 MLOAD PUSH1 0x20 DUP2 DUP4 SUB SUB DUP2 MSTORE SWAP1 PUSH1 0x40 MSTORE SWAP1 POP JUMPDEST PUSH2 0x7D0 DUP6 GT DUP1 ISZERO PUSH2 0x6D5 JUMPI POP PUSH3 0x989681 DUP6 LT JUMPDEST ISZERO PUSH2 0x761 JUMPI PUSH1 0x0 SWAP3 POP PUSH1 0x5 DUP6 TIMESTAMP PUSH1 0x40 MLOAD PUSH1 0x20 ADD PUSH2 0x70D SWAP3 SWAP2 SWAP1 SWAP2 DUP3 MSTORE PUSH1 0x20 DUP3 ADD MSTORE PUSH8 0x1519585B48139195 PUSH1 0xC2 SHL PUSH1 0x40 DUP3 ADD MSTORE PUSH1 0x48 ADD SWAP1 JUMP JUMPDEST PUSH1 0x40 MLOAD PUSH1 0x20 DUP2 DUP4 SUB SUB DUP2 MSTORE SWAP1 PUSH1 0x40 MSTORE DUP1 MLOAD SWAP1 PUSH1 0x20 ADD KECCAK256 PUSH1 0x0 SHR PUSH2 0x730 SWAP2 SWAP1 PUSH2 0x3481 JUMP JUMPDEST PUSH2 0x73B SWAP1 PUSH1 0x4 PUSH2 0x339D JUMP JUMPDEST SWAP2 POP PUSH1 0x9 PUSH1 0x40 MLOAD PUSH1 0x20 ADD PUSH2 0x74F SWAP2 SWAP1 PUSH2 0x2E4E JUMP JUMPDEST PUSH1 0x40 MLOAD PUSH1 0x20 DUP2 DUP4 SUB SUB DUP2 MSTORE SWAP1 PUSH1 0x40 MSTORE SWAP1 POP JUMPDEST PUSH3 0x989680 DUP6 GT ISZERO PUSH2 0x7F3 JUMPI PUSH1 0x0 SWAP3 POP PUSH1 0x5 DUP6 TIMESTAMP PUSH1 0x40 MLOAD PUSH1 0x20 ADD PUSH2 0x79F SWAP3 SWAP2 SWAP1 SWAP2 DUP3 MSTORE PUSH1 0x20 DUP3 ADD MSTORE PUSH8 0x1519585B48139195 PUSH1 0xC2 SHL PUSH1 0x40 DUP3 ADD MSTORE PUSH1 0x48 ADD SWAP1 JUMP JUMPDEST PUSH1 0x40 MLOAD PUSH1 0x20 DUP2 DUP4 SUB SUB DUP2 MSTORE SWAP1 PUSH1 0x40 MSTORE DUP1 MLOAD SWAP1 PUSH1 0x20 ADD KECCAK256 PUSH1 0x0 SHR PUSH2 0x7C2 SWAP2 SWAP1 PUSH2 0x3481 JUMP JUMPDEST PUSH2 0x7CD SWAP1 PUSH1 0x4 PUSH2 0x339D JUMP JUMPDEST SWAP2 POP PUSH1 0x9 PUSH1 0x40 MLOAD PUSH1 0x20 ADD PUSH2 0x7E1 SWAP2 SWAP1 PUSH2 0x2E2F JUMP JUMPDEST PUSH1 0x40 MLOAD PUSH1 0x20 DUP2 DUP4 SUB SUB DUP2 MSTORE SWAP1 PUSH1 0x40 MSTORE SWAP1 POP JUMPDEST PUSH1 0x0 DUP6 DUP2 MSTORE PUSH1 0xC PUSH1 0x20 MSTORE PUSH1 0x40 DUP2 KECCAK256 SLOAD PUSH1 0x6 DUP1 SLOAD SWAP2 SWAP3 SWAP2 DUP6 SWAP1 DUP2 LT PUSH2 0x819 JUMPI PUSH2 0x819 PUSH2 0x34C1 JUMP JUMPDEST SWAP1 PUSH1 0x0 MSTORE PUSH1 0x20 PUSH1 0x0 KECCAK256 SWAP1 PUSH1 0x9 MUL ADD PUSH1 0x40 MLOAD DUP1 PUSH2 0x120 ADD PUSH1 0x40 MSTORE SWAP1 DUP2 PUSH1 0x0 DUP3 ADD SLOAD DUP2 MSTORE PUSH1 0x20 ADD PUSH1 0x1 DUP3 ADD SLOAD DUP2 MSTORE PUSH1 0x20 ADD PUSH1 0x2 DUP3 ADD SLOAD DUP2 MSTORE PUSH1 0x20 ADD PUSH1 0x3 DUP3 ADD SLOAD DUP2 MSTORE PUSH1 0x20 ADD PUSH1 0x4 DUP3 ADD SLOAD DUP2 MSTORE PUSH1 0x20 ADD PUSH1 0x5 DUP3 ADD SLOAD DUP2 MSTORE PUSH1 0x20 ADD PUSH1 0x6 DUP3 ADD DUP1 SLOAD PUSH2 0x87F SWAP1 PUSH2 0x33FF JUMP JUMPDEST DUP1 PUSH1 0x1F ADD PUSH1 0x20 DUP1 SWAP2 DIV MUL PUSH1 0x20 ADD PUSH1 0x40 MLOAD SWAP1 DUP2 ADD PUSH1 0x40 MSTORE DUP1 SWAP3 SWAP2 SWAP1 DUP2 DUP2 MSTORE PUSH1 0x20 ADD DUP3 DUP1 SLOAD PUSH2 0x8AB SWAP1 PUSH2 0x33FF JUMP JUMPDEST DUP1 ISZERO PUSH2 0x8F8 JUMPI DUP1 PUSH1 0x1F LT PUSH2 0x8CD JUMPI PUSH2 0x100 DUP1 DUP4 SLOAD DIV MUL DUP4 MSTORE SWAP2 PUSH1 0x20 ADD SWAP2 PUSH2 0x8F8 JUMP JUMPDEST DUP3 ADD SWAP2 SWAP1 PUSH1 0x0 MSTORE PUSH1 0x20 PUSH1 0x0 KECCAK256 SWAP1 JUMPDEST DUP2 SLOAD DUP2 MSTORE SWAP1 PUSH1 0x1 ADD SWAP1 PUSH1 0x20 ADD DUP1 DUP4 GT PUSH2 0x8DB JUMPI DUP3 SWAP1 SUB PUSH1 0x1F AND DUP3 ADD SWAP2 JUMPDEST POP POP POP POP POP DUP2 MSTORE PUSH1 0x20 ADD PUSH1 0x7 DUP3 ADD DUP1 SLOAD PUSH2 0x911 SWAP1 PUSH2 0x33FF JUMP JUMPDEST DUP1 PUSH1 0x1F ADD PUSH1 0x20 DUP1 SWAP2 DIV MUL PUSH1 0x20 ADD PUSH1 0x40 MLOAD SWAP1 DUP2 ADD PUSH1 0x40 MSTORE DUP1 SWAP3 SWAP2 SWAP1 DUP2 DUP2 MSTORE PUSH1 0x20 ADD DUP3 DUP1 SLOAD PUSH2 0x93D SWAP1 PUSH2 0x33FF JUMP JUMPDEST DUP1 ISZERO PUSH2 0x98A JUMPI DUP1 PUSH1 0x1F LT PUSH2 0x95F JUMPI PUSH2 0x100 DUP1 DUP4 SLOAD DIV MUL DUP4 MSTORE SWAP2 PUSH1 0x20 ADD SWAP2 PUSH2 0x98A JUMP JUMPDEST DUP3 ADD SWAP2 SWAP1 PUSH1 0x0 MSTORE PUSH1 0x20 PUSH1 0x0 KECCAK256 SWAP1 JUMPDEST DUP2 SLOAD DUP2 MSTORE SWAP1 PUSH1 0x1 ADD SWAP1 PUSH1 0x20 ADD DUP1 DUP4 GT PUSH2 0x96D JUMPI DUP3 SWAP1 SUB PUSH1 0x1F AND DUP3 ADD SWAP2 JUMPDEST POP POP POP POP POP DUP2 MSTORE PUSH1 0x20 ADD PUSH1 0x8 DUP3 ADD DUP1 SLOAD PUSH2 0x9A3 SWAP1 PUSH2 0x33FF JUMP JUMPDEST DUP1 PUSH1 0x1F ADD PUSH1 0x20 DUP1 SWAP2 DIV MUL PUSH1 0x20 ADD PUSH1 0x40 MLOAD SWAP1 DUP2 ADD PUSH1 0x40 MSTORE DUP1 SWAP3 SWAP2 SWAP1 DUP2 DUP2 MSTORE PUSH1 0x20 ADD DUP3 DUP1 SLOAD PUSH2 0x9CF SWAP1 PUSH2 0x33FF JUMP JUMPDEST DUP1 ISZERO PUSH2 0xA1C JUMPI DUP1 PUSH1 0x1F LT PUSH2 0x9F1 JUMPI PUSH2 0x100 DUP1 DUP4 SLOAD DIV MUL DUP4 MSTORE SWAP2 PUSH1 0x20 ADD SWAP2 PUSH2 0xA1C JUMP JUMPDEST DUP3 ADD SWAP2 SWAP1 PUSH1 0x0 MSTORE PUSH1 0x20 PUSH1 0x0 KECCAK256 SWAP1 JUMPDEST DUP2 SLOAD DUP2 MSTORE SWAP1 PUSH1 0x1 ADD SWAP1 PUSH1 0x20 ADD DUP1 DUP4 GT PUSH2 0x9FF JUMPI DUP3 SWAP1 SUB PUSH1 0x1F AND DUP3 ADD SWAP2 JUMPDEST POP POP POP SWAP2 SWAP1 SWAP3 MSTORE POP POP PUSH1 0x7 SLOAD PUSH1 0x40 MLOAD PUSH4 0x21F8DD9D PUSH1 0xE0 SHL DUP2 MSTORE SWAP3 SWAP4 POP PUSH1 0x0 SWAP3 PUSH1 0x1 PUSH1 0x1 PUSH1 0xA0 SHL SUB SWAP1 SWAP2 AND SWAP2 POP PUSH4 0x21F8DD9D SWAP1 PUSH2 0xA62 SWAP1 DUP6 SWAP1 DUP11 SWAP1 DUP14 SWAP1 DUP10 SWAP1 PUSH1 0x4 ADD PUSH2 0x3267 JUMP JUMPDEST PUSH1 0x0 PUSH1 0x40 MLOAD DUP1 DUP4 SUB DUP2 DUP7 DUP1 EXTCODESIZE ISZERO DUP1 ISZERO PUSH2 0xA7A JUMPI PUSH1 0x0 DUP1 REVERT JUMPDEST POP GAS STATICCALL ISZERO DUP1 ISZERO PUSH2 0xA8E JUMPI RETURNDATASIZE PUSH1 0x0 DUP1 RETURNDATACOPY RETURNDATASIZE PUSH1 0x0 REVERT JUMPDEST POP POP POP POP PUSH1 0x40 MLOAD RETURNDATASIZE PUSH1 0x0 DUP3 RETURNDATACOPY PUSH1 0x1F RETURNDATASIZE SWAP1 DUP2 ADD PUSH1 0x1F NOT AND DUP3 ADD PUSH1 0x40 MSTORE PUSH2 0xAB6 SWAP2 SWAP1 DUP2 ADD SWAP1 PUSH2 0x28BA JUMP JUMPDEST SWAP1 POP PUSH1 0x0 DUP3 PUSH2 0x100 ADD MLOAD DUP6 PUSH2 0xACA DUP5 PUSH2 0x149B JUMP JUMPDEST PUSH1 0x40 MLOAD PUSH1 0x20 ADD PUSH2 0xADC SWAP4 SWAP3 SWAP2 SWAP1 PUSH2 0x2E8D JUMP JUMPDEST PUSH1 0x40 MLOAD PUSH1 0x20 DUP2 DUP4 SUB SUB DUP2 MSTORE SWAP1 PUSH1 0x40 MSTORE SWAP1 POP DUP1 DUP4 PUSH2 0x100 ADD MLOAD DUP5 PUSH1 0xC0 ADD MLOAD PUSH2 0xB06 DUP7 PUSH1 0x0 ADD MLOAD PUSH2 0x1600 JUMP JUMPDEST PUSH2 0xB13 DUP8 PUSH1 0x20 ADD MLOAD PUSH2 0x1600 JUMP JUMPDEST PUSH1 0x40 MLOAD PUSH1 0x20 ADD PUSH2 0xB27 SWAP6 SWAP5 SWAP4 SWAP3 SWAP2 SWAP1 PUSH2 0x2CE4 JUMP JUMPDEST PUSH1 0x40 MLOAD PUSH1 0x20 DUP2 DUP4 SUB SUB DUP2 MSTORE SWAP1 PUSH1 0x40 MSTORE SWAP1 POP DUP1 PUSH2 0xB46 DUP5 PUSH1 0x40 ADD MLOAD PUSH2 0x1600 JUMP JUMPDEST PUSH2 0xB53 DUP6 PUSH1 0x60 ADD MLOAD PUSH2 0x1600 JUMP JUMPDEST PUSH2 0xB60 DUP7 PUSH1 0x80 ADD MLOAD PUSH2 0x1600 JUMP JUMPDEST PUSH2 0xB6D DUP8 PUSH1 0xA0 ADD MLOAD PUSH2 0x1600 JUMP JUMPDEST PUSH2 0xB7E PUSH2 0xB79 DUP13 PUSH2 0x1705 JUMP JUMPDEST PUSH2 0x1600 JUMP JUMPDEST PUSH1 0x40 MLOAD PUSH1 0x20 ADD PUSH2 0xB93 SWAP7 SWAP6 SWAP5 SWAP4 SWAP3 SWAP2 SWAP1 PUSH2 0x2B51 JUMP JUMPDEST PUSH1 0x40 MLOAD PUSH1 0x20 DUP2 DUP4 SUB SUB DUP2 MSTORE SWAP1 PUSH1 0x40 MSTORE SWAP1 POP PUSH2 0xBAD DUP2 PUSH2 0x149B JUMP JUMPDEST PUSH1 0x40 MLOAD PUSH1 0x20 ADD PUSH2 0xBBD SWAP2 SWAP1 PUSH2 0x2F7E JUMP JUMPDEST PUSH1 0x40 MLOAD PUSH1 0x20 DUP2 DUP4 SUB SUB DUP2 MSTORE SWAP1 PUSH1 0x40 MSTORE SWAP8 POP POP POP POP POP POP POP POP SWAP2 SWAP1 POP JUMP JUMPDEST PUSH1 0xE SLOAD PUSH1 0x0 SWAP1 PUSH1 0x1 PUSH1 0x1 PUSH1 0xA0 SHL SUB AND CALLER EQ DUP1 PUSH2 0xC00 JUMPI POP PUSH1 0xF SLOAD PUSH1 0x1 PUSH1 0x1 PUSH1 0xA0 SHL SUB AND CALLER EQ JUMPDEST PUSH2 0xC1C JUMPI PUSH1 0x40 MLOAD PUSH3 0x461BCD PUSH1 0xE5 SHL DUP2 MSTORE PUSH1 0x4 ADD PUSH2 0x354 SWAP1 PUSH2 0x321F JUMP JUMPDEST PUSH2 0x3CF DUP3 PUSH2 0x1705 JUMP JUMPDEST PUSH1 0x1 PUSH1 0x1 PUSH1 0xA0 SHL SUB DUP6 AND CALLER EQ DUP1 PUSH2 0xC41 JUMPI POP PUSH2 0xC41 DUP6 CALLER PUSH2 0x2AC JUMP JUMPDEST PUSH2 0xCA8 JUMPI PUSH1 0x40 MLOAD PUSH3 0x461BCD PUSH1 0xE5 SHL DUP2 MSTORE PUSH1 0x20 PUSH1 0x4 DUP3 ADD MSTORE PUSH1 0x32 PUSH1 0x24 DUP3 ADD MSTORE PUSH32 0x455243313135353A207472616E736665722063616C6C6572206973206E6F7420 PUSH1 0x44 DUP3 ADD MSTORE PUSH18 0x1BDDDB995C881B9BDC88185C1C1C9BDD9959 PUSH1 0x72 SHL PUSH1 0x64 DUP3 ADD MSTORE PUSH1 0x84 ADD PUSH2 0x354 JUMP JUMPDEST PUSH2 0xCB5 DUP6 DUP6 DUP6 DUP6 DUP6 PUSH2 0x189D JUMP JUMPDEST POP POP POP POP POP JUMP JUMPDEST PUSH1 0xE SLOAD PUSH1 0x1 PUSH1 0x1 PUSH1 0xA0 SHL SUB AND CALLER EQ DUP1 PUSH2 0xCDF JUMPI POP PUSH1 0xF SLOAD PUSH1 0x1 PUSH1 0x1 PUSH1 0xA0 SHL SUB AND CALLER EQ JUMPDEST PUSH2 0xCFB JUMPI PUSH1 0x40 MLOAD PUSH3 0x461BCD PUSH1 0xE5 SHL DUP2 MSTORE PUSH1 0x4 ADD PUSH2 0x354 SWAP1 PUSH2 0x321F JUMP JUMPDEST PUSH2 0xD16 DUP3 DUP5 DUP4 PUSH1 0x40 MLOAD DUP1 PUSH1 0x20 ADD PUSH1 0x40 MSTORE DUP1 PUSH1 0x0 DUP2 MSTORE POP PUSH2 0x1AFE JUMP JUMPDEST PUSH1 0x40 DUP1 MLOAD DUP5 DUP2 MSTORE PUSH1 0x20 DUP2 ADD DUP4 SWAP1 MSTORE PUSH1 0x1 PUSH1 0x1 PUSH1 0xA0 SHL SUB DUP5 AND SWAP2 PUSH32 0xC53D2DA4A9EF9B259C31A6AFA294D43B018AA5930A327C1DEFC6AD7CEB406C5E SWAP2 ADD PUSH1 0x40 MLOAD DUP1 SWAP2 SUB SWAP1 LOG2 POP POP POP JUMP JUMPDEST PUSH1 0x60 DUP2 MLOAD DUP4 MLOAD EQ PUSH2 0xDC4 JUMPI PUSH1 0x40 MLOAD PUSH3 0x461BCD PUSH1 0xE5 SHL DUP2 MSTORE PUSH1 0x20 PUSH1 0x4 DUP3 ADD MSTORE PUSH1 0x29 PUSH1 0x24 DUP3 ADD MSTORE PUSH32 0x455243313135353A206163636F756E747320616E6420696473206C656E677468 PUSH1 0x44 DUP3 ADD MSTORE PUSH9 0x40DAD2E6DAC2E8C6D PUSH1 0xBB SHL PUSH1 0x64 DUP3 ADD MSTORE PUSH1 0x84 ADD PUSH2 0x354 JUMP JUMPDEST PUSH1 0x0 DUP4 MLOAD PUSH1 0x1 PUSH1 0x1 PUSH1 0x40 SHL SUB DUP2 GT ISZERO PUSH2 0xDDF JUMPI PUSH2 0xDDF PUSH2 0x34D7 JUMP JUMPDEST PUSH1 0x40 MLOAD SWAP1 DUP1 DUP3 MSTORE DUP1 PUSH1 0x20 MUL PUSH1 0x20 ADD DUP3 ADD PUSH1 0x40 MSTORE DUP1 ISZERO PUSH2 0xE08 JUMPI DUP2 PUSH1 0x20 ADD PUSH1 0x20 DUP3 MUL DUP1 CALLDATASIZE DUP4 CALLDATACOPY ADD SWAP1 POP JUMPDEST POP SWAP1 POP PUSH1 0x0 JUMPDEST DUP5 MLOAD DUP2 LT ISZERO PUSH2 0xE80 JUMPI PUSH2 0xE53 DUP6 DUP3 DUP2 MLOAD DUP2 LT PUSH2 0xE2C JUMPI PUSH2 0xE2C PUSH2 0x34C1 JUMP JUMPDEST PUSH1 0x20 MUL PUSH1 0x20 ADD ADD MLOAD DUP6 DUP4 DUP2 MLOAD DUP2 LT PUSH2 0xE46 JUMPI PUSH2 0xE46 PUSH2 0x34C1 JUMP JUMPDEST PUSH1 0x20 MUL PUSH1 0x20 ADD ADD MLOAD PUSH2 0x2ED JUMP JUMPDEST DUP3 DUP3 DUP2 MLOAD DUP2 LT PUSH2 0xE65 JUMPI PUSH2 0xE65 PUSH2 0x34C1 JUMP JUMPDEST PUSH1 0x20 SWAP1 DUP2 MUL SWAP2 SWAP1 SWAP2 ADD ADD MSTORE PUSH2 0xE79 DUP2 PUSH2 0x3466 JUMP JUMPDEST SWAP1 POP PUSH2 0xE0E JUMP JUMPDEST POP SWAP4 SWAP3 POP POP POP JUMP JUMPDEST PUSH1 0xE SLOAD PUSH1 0x1 PUSH1 0x1 PUSH1 0xA0 SHL SUB AND CALLER EQ DUP1 PUSH2 0xEAB JUMPI POP PUSH1 0xF SLOAD PUSH1 0x1 PUSH1 0x1 PUSH1 0xA0 SHL SUB AND CALLER EQ JUMPDEST PUSH2 0xEC7 JUMPI PUSH1 0x40 MLOAD PUSH3 0x461BCD PUSH1 0xE5 SHL DUP2 MSTORE PUSH1 0x4 ADD PUSH2 0x354 SWAP1 PUSH2 0x321F JUMP JUMPDEST PUSH1 0x60 DUP7 PUSH1 0x4 EQ ISZERO PUSH2 0xEF6 JUMPI POP PUSH1 0x40 DUP1 MLOAD DUP1 DUP3 ADD SWAP1 SWAP2 MSTORE PUSH1 0x7 DUP2 MSTORE PUSH7 0x1C1B185E595C8D PUSH1 0xCA SHL PUSH1 0x20 DUP3 ADD MSTORE PUSH2 0xFA2 JUMP JUMPDEST DUP7 PUSH1 0x3 EQ ISZERO PUSH2 0xF23 JUMPI POP PUSH1 0x40 DUP1 MLOAD DUP1 DUP3 ADD SWAP1 SWAP2 MSTORE PUSH1 0x7 DUP2 MSTORE PUSH7 0x706C6179657233 PUSH1 0xC8 SHL PUSH1 0x20 DUP3 ADD MSTORE PUSH2 0xFA2 JUMP JUMPDEST DUP7 PUSH1 0x2 EQ ISZERO PUSH2 0xF50 JUMPI POP PUSH1 0x40 DUP1 MLOAD DUP1 DUP3 ADD SWAP1 SWAP2 MSTORE PUSH1 0x7 DUP2 MSTORE PUSH7 0x383630BCB2B919 PUSH1 0xC9 SHL PUSH1 0x20 DUP3 ADD MSTORE PUSH2 0xFA2 JUMP JUMPDEST DUP7 PUSH1 0x1 EQ ISZERO PUSH2 0xF7D JUMPI POP PUSH1 0x40 DUP1 MLOAD DUP1 DUP3 ADD SWAP1 SWAP2 MSTORE PUSH1 0x7 DUP2 MSTORE PUSH7 0x706C6179657231 PUSH1 0xC8 SHL PUSH1 0x20 DUP3 ADD MSTORE PUSH2 0xFA2 JUMP JUMPDEST DUP7 PUSH2 0xFA2 JUMPI POP PUSH1 0x40 DUP1 MLOAD DUP1 DUP3 ADD SWAP1 SWAP2 MSTORE PUSH1 0x7 DUP2 MSTORE PUSH7 0x706C617965723 PUSH1 0xCC SHL PUSH1 0x20 DUP3 ADD MSTORE JUMPDEST PUSH1 0x0 PUSH1 0xA DUP3 PUSH1 0x40 MLOAD PUSH2 0xFB4 SWAP2 SWAP1 PUSH2 0x2B35 JUMP JUMPDEST SWAP1 DUP2 MSTORE PUSH1 0x40 DUP1 MLOAD SWAP2 DUP3 SWAP1 SUB PUSH1 0x20 SWAP1 DUP2 ADD DUP4 KECCAK256 DUP1 SLOAD DUP1 DUP4 MUL DUP6 ADD DUP4 ADD SWAP1 SWAP4 MSTORE DUP3 DUP5 MSTORE SWAP2 SWAP1 DUP4 ADD DUP3 DUP3 DUP1 ISZERO PUSH2 0x1006 JUMPI PUSH1 0x20 MUL DUP3 ADD SWAP2 SWAP1 PUSH1 0x0 MSTORE PUSH1 0x20 PUSH1 0x0 KECCAK256 SWAP1 JUMPDEST DUP2 SLOAD DUP2 MSTORE PUSH1 0x20 ADD SWAP1 PUSH1 0x1 ADD SWAP1 DUP1 DUP4 GT PUSH2 0xFF2 JUMPI JUMPDEST POP POP POP POP POP SWAP1 POP PUSH1 0x0 JUMPDEST DUP2 MLOAD DUP2 LT ISZERO PUSH2 0x1188 JUMPI DUP8 PUSH2 0xFFFF AND PUSH1 0x6 DUP4 DUP4 DUP2 MLOAD DUP2 LT PUSH2 0x1032 JUMPI PUSH2 0x1032 PUSH2 0x34C1 JUMP JUMPDEST PUSH1 0x20 MUL PUSH1 0x20 ADD ADD MLOAD DUP2 SLOAD DUP2 LT PUSH2 0x104A JUMPI PUSH2 0x104A PUSH2 0x34C1 JUMP JUMPDEST SWAP1 PUSH1 0x0 MSTORE PUSH1 0x20 PUSH1 0x0 KECCAK256 SWAP1 PUSH1 0x9 MUL ADD PUSH1 0x0 ADD DUP2 SWAP1 SSTORE POP DUP7 PUSH2 0xFFFF AND PUSH1 0x6 DUP4 DUP4 DUP2 MLOAD DUP2 LT PUSH2 0x1078 JUMPI PUSH2 0x1078 PUSH2 0x34C1 JUMP JUMPDEST PUSH1 0x20 MUL PUSH1 0x20 ADD ADD MLOAD DUP2 SLOAD DUP2 LT PUSH2 0x1090 JUMPI PUSH2 0x1090 PUSH2 0x34C1 JUMP JUMPDEST SWAP1 PUSH1 0x0 MSTORE PUSH1 0x20 PUSH1 0x0 KECCAK256 SWAP1 PUSH1 0x9 MUL ADD PUSH1 0x1 ADD DUP2 SWAP1 SSTORE POP DUP6 PUSH2 0xFFFF AND PUSH1 0x6 DUP4 DUP4 DUP2 MLOAD DUP2 LT PUSH2 0x10BE JUMPI PUSH2 0x10BE PUSH2 0x34C1 JUMP JUMPDEST PUSH1 0x20 MUL PUSH1 0x20 ADD ADD MLOAD DUP2 SLOAD DUP2 LT PUSH2 0x10D6 JUMPI PUSH2 0x10D6 PUSH2 0x34C1 JUMP JUMPDEST SWAP1 PUSH1 0x0 MSTORE PUSH1 0x20 PUSH1 0x0 KECCAK256 SWAP1 PUSH1 0x9 MUL ADD PUSH1 0x2 ADD DUP2 SWAP1 SSTORE POP DUP4 PUSH2 0xFFFF AND PUSH1 0x6 DUP4 DUP4 DUP2 MLOAD DUP2 LT PUSH2 0x1104 JUMPI PUSH2 0x1104 PUSH2 0x34C1 JUMP JUMPDEST PUSH1 0x20 MUL PUSH1 0x20 ADD ADD MLOAD DUP2 SLOAD DUP2 LT PUSH2 0x111C JUMPI PUSH2 0x111C PUSH2 0x34C1 JUMP JUMPDEST SWAP1 PUSH1 0x0 MSTORE PUSH1 0x20 PUSH1 0x0 KECCAK256 SWAP1 PUSH1 0x9 MUL ADD PUSH1 0x4 ADD DUP2 SWAP1 SSTORE POP DUP5 PUSH2 0xFFFF AND PUSH1 0x6 DUP4 DUP4 DUP2 MLOAD DUP2 LT PUSH2 0x114A JUMPI PUSH2 0x114A PUSH2 0x34C1 JUMP JUMPDEST PUSH1 0x20 MUL PUSH1 0x20 ADD ADD MLOAD DUP2 SLOAD DUP2 LT PUSH2 0x1162 JUMPI PUSH2 0x1162 PUSH2 0x34C1 JUMP JUMPDEST PUSH1 0x0 SWAP2 DUP3 MSTORE PUSH1 0x20 SWAP1 SWAP2 KECCAK256 PUSH1 0x5 PUSH1 0x9 SWAP1 SWAP3 MUL ADD ADD SSTORE DUP1 PUSH2 0x1180 DUP2 PUSH2 0x3466 JUMP JUMPDEST SWAP2 POP POP PUSH2 0x1010 JUMP JUMPDEST POP POP POP POP POP POP POP POP POP JUMP JUMPDEST PUSH1 0xD SLOAD PUSH1 0x1 PUSH1 0x1 PUSH1 0xA0 SHL SUB AND CALLER EQ PUSH2 0x11BD JUMPI PUSH1 0x40 MLOAD PUSH3 0x461BCD PUSH1 0xE5 SHL DUP2 MSTORE PUSH1 0x4 ADD PUSH2 0x354 SWAP1 PUSH2 0x3161 JUMP JUMPDEST DUP1 MLOAD PUSH2 0x11D0 SWAP1 PUSH1 0x9 SWAP1 PUSH1 0x20 DUP5 ADD SWAP1 PUSH2 0x238F JUMP JUMPDEST POP POP JUMP JUMPDEST PUSH1 0xE SLOAD PUSH1 0x1 PUSH1 0x1 PUSH1 0xA0 SHL SUB AND CALLER EQ DUP1 PUSH2 0x11F7 JUMPI POP PUSH1 0xF SLOAD PUSH1 0x1 PUSH1 0x1 PUSH1 0xA0 SHL SUB AND CALLER EQ JUMPDEST PUSH2 0x1213 JUMPI PUSH1 0x40 MLOAD PUSH3 0x461BCD PUSH1 0xE5 SHL DUP2 MSTORE PUSH1 0x4 ADD PUSH2 0x354 SWAP1 PUSH2 0x321F JUMP JUMPDEST PUSH2 0x121E DUP3 DUP5 DUP4 PUSH2 0x1C98 JUMP JUMPDEST POP POP POP JUMP JUMPDEST PUSH2 0x11D0 CALLER DUP4 DUP4 PUSH2 0x1E14 JUMP JUMPDEST PUSH1 0xE SLOAD PUSH1 0x60 SWAP1 PUSH1 0x1 PUSH1 0x1 PUSH1 0xA0 SHL SUB AND CALLER EQ DUP1 PUSH2 0x1254 JUMPI POP PUSH1 0xF SLOAD PUSH1 0x1 PUSH1 0x1 PUSH1 0xA0 SHL SUB AND CALLER EQ JUMPDEST PUSH2 0x1270 JUMPI PUSH1 0x40 MLOAD PUSH3 0x461BCD PUSH1 0xE5 SHL DUP2 MSTORE PUSH1 0x4 ADD PUSH2 0x354 SWAP1 PUSH2 0x321F JUMP JUMPDEST PUSH2 0x1278 PUSH2 0x1EF5 JUMP JUMPDEST SWAP1 POP SWAP1 JUMP JUMPDEST PUSH1 0xD SLOAD PUSH1 0x1 PUSH1 0x1 PUSH1 0xA0 SHL SUB AND CALLER EQ PUSH2 0x12A7 JUMPI PUSH1 0x40 MLOAD PUSH3 0x461BCD PUSH1 0xE5 SHL DUP2 MSTORE PUSH1 0x4 ADD PUSH2 0x354 SWAP1 PUSH2 0x3161 JUMP JUMPDEST PUSH1 0xD DUP1 SLOAD PUSH1 0x1 PUSH1 0x1 PUSH1 0xA0 SHL SUB NOT AND PUSH1 0x1 PUSH1 0x1 PUSH1 0xA0 SHL SUB SWAP3 SWAP1 SWAP3 AND SWAP2 SWAP1 SWAP2 OR SWAP1 SSTORE JUMP JUMPDEST PUSH1 0xD SLOAD PUSH1 0x1 PUSH1 0x1 PUSH1 0xA0 SHL SUB AND CALLER EQ PUSH2 0x12F3 JUMPI PUSH1 0x40 MLOAD PUSH3 0x461BCD PUSH1 0xE5 SHL DUP2 MSTORE PUSH1 0x4 ADD PUSH2 0x354 SWAP1 PUSH2 0x3161 JUMP JUMPDEST PUSH1 0xE DUP1 SLOAD PUSH1 0x1 PUSH1 0x1 PUSH1 0xA0 SHL SUB SWAP4 DUP5 AND PUSH1 0x1 PUSH1 0x1 PUSH1 0xA0 SHL SUB NOT SWAP2 DUP3 AND OR SWAP1 SWAP2 SSTORE PUSH1 0xF DUP1 SLOAD SWAP3 SWAP1 SWAP4 AND SWAP2 AND OR SWAP1 SSTORE JUMP JUMPDEST PUSH1 0xE SLOAD PUSH1 0x1 PUSH1 0x1 PUSH1 0xA0 SHL SUB AND CALLER EQ DUP1 PUSH2 0x1344 JUMPI POP PUSH1 0xF SLOAD PUSH1 0x1 PUSH1 0x1 PUSH1 0xA0 SHL SUB AND CALLER EQ JUMPDEST PUSH2 0x1360 JUMPI PUSH1 0x40 MLOAD PUSH3 0x461BCD PUSH1 0xE5 SHL DUP2 MSTORE PUSH1 0x4 ADD PUSH2 0x354 SWAP1 PUSH2 0x321F JUMP JUMPDEST PUSH2 0x7D1 PUSH1 0x0 JUMPDEST DUP3 DUP2 LT ISZERO PUSH2 0x13BD JUMPI DUP4 DUP4 DUP3 DUP2 DUP2 LT PUSH2 0x1380 JUMPI PUSH2 0x1380 PUSH2 0x34C1 JUMP JUMPDEST SWAP1 POP PUSH1 0x20 MUL ADD CALLDATALOAD PUSH1 0xB PUSH1 0x0 DUP5 DUP1 PUSH2 0x1396 SWAP1 PUSH2 0x3466 JUMP JUMPDEST SWAP6 POP DUP2 MSTORE PUSH1 0x20 ADD SWAP1 DUP2 MSTORE PUSH1 0x20 ADD PUSH1 0x0 KECCAK256 DUP2 SWAP1 SSTORE POP DUP1 DUP1 PUSH2 0x13B5 SWAP1 PUSH2 0x3466 JUMP JUMPDEST SWAP2 POP POP PUSH2 0x1366 JUMP JUMPDEST POP POP POP POP JUMP JUMPDEST PUSH1 0xE SLOAD PUSH1 0x1 PUSH1 0x1 PUSH1 0xA0 SHL SUB AND CALLER EQ DUP1 PUSH2 0x13E6 JUMPI POP PUSH1 0xF SLOAD PUSH1 0x1 PUSH1 0x1 PUSH1 0xA0 SHL SUB AND CALLER EQ JUMPDEST PUSH2 0x1402 JUMPI PUSH1 0x40 MLOAD PUSH3 0x461BCD PUSH1 0xE5 SHL DUP2 MSTORE PUSH1 0x4 ADD PUSH2 0x354 SWAP1 PUSH2 0x321F JUMP JUMPDEST PUSH1 0x0 SWAP2 DUP3 MSTORE PUSH1 0xC PUSH1 0x20 MSTORE PUSH1 0x40 SWAP1 SWAP2 KECCAK256 SSTORE JUMP JUMPDEST PUSH1 0x1 PUSH1 0x1 PUSH1 0xA0 SHL SUB DUP6 AND CALLER EQ DUP1 PUSH2 0x1430 JUMPI POP PUSH2 0x1430 DUP6 CALLER PUSH2 0x2AC JUMP JUMPDEST PUSH2 0x148E JUMPI PUSH1 0x40 MLOAD PUSH3 0x461BCD PUSH1 0xE5 SHL DUP2 MSTORE PUSH1 0x20 PUSH1 0x4 DUP3 ADD MSTORE PUSH1 0x29 PUSH1 0x24 DUP3 ADD MSTORE PUSH32 0x455243313135353A2063616C6C6572206973206E6F74206F776E6572206E6F72 PUSH1 0x44 DUP3 ADD MSTORE PUSH9 0x8185C1C1C9BDD9959 PUSH1 0xBA SHL PUSH1 0x64 DUP3 ADD MSTORE PUSH1 0x84 ADD PUSH2 0x354 JUMP JUMPDEST PUSH2 0xCB5 DUP6 DUP6 DUP6 DUP6 DUP6 PUSH2 0x1F57 JUMP JUMPDEST DUP1 MLOAD PUSH1 0x60 SWAP1 DUP1 PUSH2 0x14BB JUMPI POP POP PUSH1 0x40 DUP1 MLOAD PUSH1 0x20 DUP2 ADD SWAP1 SWAP2 MSTORE PUSH1 0x0 DUP2 MSTORE SWAP2 SWAP1 POP JUMP JUMPDEST PUSH1 0x0 PUSH1 0x3 PUSH2 0x14CA DUP4 PUSH1 0x2 PUSH2 0x3371 JUMP JUMPDEST PUSH2 0x14D4 SWAP2 SWAP1 PUSH2 0x3389 JUMP JUMPDEST PUSH2 0x14DF SWAP1 PUSH1 0x4 PUSH2 0x339D JUMP JUMPDEST SWAP1 POP PUSH1 0x0 PUSH2 0x14EE DUP3 PUSH1 0x20 PUSH2 0x3371 JUMP JUMPDEST PUSH1 0x1 PUSH1 0x1 PUSH1 0x40 SHL SUB DUP2 GT ISZERO PUSH2 0x1505 JUMPI PUSH2 0x1505 PUSH2 0x34D7 JUMP JUMPDEST PUSH1 0x40 MLOAD SWAP1 DUP1 DUP3 MSTORE DUP1 PUSH1 0x1F ADD PUSH1 0x1F NOT AND PUSH1 0x20 ADD DUP3 ADD PUSH1 0x40 MSTORE DUP1 ISZERO PUSH2 0x152F JUMPI PUSH1 0x20 DUP3 ADD DUP2 DUP1 CALLDATASIZE DUP4 CALLDATACOPY ADD SWAP1 POP JUMPDEST POP SWAP1 POP PUSH1 0x0 PUSH1 0x40 MLOAD DUP1 PUSH1 0x60 ADD PUSH1 0x40 MSTORE DUP1 PUSH1 0x40 DUP2 MSTORE PUSH1 0x20 ADD PUSH2 0x35AC PUSH1 0x40 SWAP2 CODECOPY SWAP1 POP PUSH1 0x1 DUP2 ADD PUSH1 0x20 DUP4 ADD PUSH1 0x0 JUMPDEST DUP7 DUP2 LT ISZERO PUSH2 0x15BB JUMPI PUSH1 0x3 DUP2 DUP11 ADD DUP2 ADD MLOAD PUSH1 0x3F PUSH1 0x12 DUP3 SWAP1 SHR DUP2 AND DUP7 ADD MLOAD PUSH1 0xC DUP4 SWAP1 SHR DUP3 AND DUP8 ADD MLOAD PUSH1 0x6 DUP5 SWAP1 SHR DUP4 AND DUP9 ADD MLOAD SWAP3 SWAP1 SWAP4 AND DUP8 ADD MLOAD PUSH1 0x8 SWAP2 DUP3 SHL PUSH1 0xFF SWAP5 DUP6 AND ADD DUP3 SHL SWAP3 DUP5 AND SWAP3 SWAP1 SWAP3 ADD SWAP1 SHL SWAP2 AND ADD PUSH1 0xE0 SHL DUP4 MSTORE PUSH1 0x4 SWAP1 SWAP3 ADD SWAP2 ADD PUSH2 0x155A JUMP JUMPDEST POP PUSH1 0x3 DUP7 MOD PUSH1 0x1 DUP2 EQ PUSH2 0x15D5 JUMPI PUSH1 0x2 DUP2 EQ PUSH2 0x15E6 JUMPI PUSH2 0x15F2 JUMP JUMPDEST PUSH2 0x3D3D PUSH1 0xF0 SHL PUSH1 0x1 NOT DUP4 ADD MSTORE PUSH2 0x15F2 JUMP JUMPDEST PUSH1 0x3D PUSH1 0xF8 SHL PUSH1 0x0 NOT DUP4 ADD MSTORE JUMPDEST POP POP POP SWAP2 DUP2 MSTORE SWAP5 SWAP4 POP POP POP POP JUMP JUMPDEST PUSH1 0x60 DUP2 PUSH2 0x1624 JUMPI POP POP PUSH1 0x40 DUP1 MLOAD DUP1 DUP3 ADD SWAP1 SWAP2 MSTORE PUSH1 0x1 DUP2 MSTORE PUSH1 0x3 PUSH1 0xFC SHL PUSH1 0x20 DUP3 ADD MSTORE SWAP1 JUMP JUMPDEST DUP2 PUSH1 0x0 JUMPDEST DUP2 ISZERO PUSH2 0x164E JUMPI DUP1 PUSH2 0x1638 DUP2 PUSH2 0x3466 JUMP JUMPDEST SWAP2 POP PUSH2 0x1647 SWAP1 POP PUSH1 0xA DUP4 PUSH2 0x3389 JUMP JUMPDEST SWAP2 POP PUSH2 0x1628 JUMP JUMPDEST PUSH1 0x0 DUP2 PUSH1 0x1 PUSH1 0x1 PUSH1 0x40 SHL SUB DUP2 GT ISZERO PUSH2 0x1668 JUMPI PUSH2 0x1668 PUSH2 0x34D7 JUMP JUMPDEST PUSH1 0x40 MLOAD SWAP1 DUP1 DUP3 MSTORE DUP1 PUSH1 0x1F ADD PUSH1 0x1F NOT AND PUSH1 0x20 ADD DUP3 ADD PUSH1 0x40 MSTORE DUP1 ISZERO PUSH2 0x1692 JUMPI PUSH1 0x20 DUP3 ADD DUP2 DUP1 CALLDATASIZE DUP4 CALLDATACOPY ADD SWAP1 POP JUMPDEST POP SWAP1 POP JUMPDEST DUP5 ISZERO PUSH2 0x16FD JUMPI PUSH2 0x16A7 PUSH1 0x1 DUP4 PUSH2 0x33BC JUMP JUMPDEST SWAP2 POP PUSH2 0x16B4 PUSH1 0xA DUP7 PUSH2 0x3481 JUMP JUMPDEST PUSH2 0x16BF SWAP1 PUSH1 0x30 PUSH2 0x3371 JUMP JUMPDEST PUSH1 0xF8 SHL DUP2 DUP4 DUP2 MLOAD DUP2 LT PUSH2 0x16D4 JUMPI PUSH2 0x16D4 PUSH2 0x34C1 JUMP JUMPDEST PUSH1 0x20 ADD ADD SWAP1 PUSH1 0x1 PUSH1 0x1 PUSH1 0xF8 SHL SUB NOT AND SWAP1 DUP2 PUSH1 0x0 BYTE SWAP1 MSTORE8 POP PUSH2 0x16F6 PUSH1 0xA DUP7 PUSH2 0x3389 JUMP JUMPDEST SWAP5 POP PUSH2 0x1696 JUMP JUMPDEST SWAP5 SWAP4 POP POP POP POP JUMP JUMPDEST PUSH1 0x0 DUP1 PUSH1 0x1 SWAP1 POP PUSH1 0x6 DUP4 DUP2 SLOAD DUP2 LT PUSH2 0x171F JUMPI PUSH2 0x171F PUSH2 0x34C1 JUMP JUMPDEST SWAP1 PUSH1 0x0 MSTORE PUSH1 0x20 PUSH1 0x0 KECCAK256 SWAP1 PUSH1 0x9 MUL ADD PUSH1 0x6 ADD PUSH1 0x40 MLOAD PUSH1 0x20 ADD PUSH2 0x1740 SWAP2 SWAP1 PUSH2 0x2E23 JUMP JUMPDEST PUSH1 0x40 MLOAD PUSH1 0x20 DUP2 DUP4 SUB SUB DUP2 MSTORE SWAP1 PUSH1 0x40 MSTORE DUP1 MLOAD SWAP1 PUSH1 0x20 ADD KECCAK256 PUSH1 0x40 MLOAD PUSH1 0x20 ADD PUSH2 0x1773 SWAP1 PUSH7 0x446566656E6365 PUSH1 0xC8 SHL DUP2 MSTORE PUSH1 0x7 ADD SWAP1 JUMP JUMPDEST PUSH1 0x40 MLOAD PUSH1 0x20 DUP2 DUP4 SUB SUB DUP2 MSTORE SWAP1 PUSH1 0x40 MSTORE DUP1 MLOAD SWAP1 PUSH1 0x20 ADD KECCAK256 EQ ISZERO PUSH2 0x1793 JUMPI POP PUSH1 0x2 JUMPDEST PUSH1 0x6 DUP4 DUP2 SLOAD DUP2 LT PUSH2 0x17A6 JUMPI PUSH2 0x17A6 PUSH2 0x34C1 JUMP JUMPDEST SWAP1 PUSH1 0x0 MSTORE PUSH1 0x20 PUSH1 0x0 KECCAK256 SWAP1 PUSH1 0x9 MUL ADD PUSH1 0x4 ADD SLOAD PUSH1 0x6 DUP5 DUP2 SLOAD DUP2 LT PUSH2 0x17CB JUMPI PUSH2 0x17CB PUSH2 0x34C1 JUMP JUMPDEST SWAP1 PUSH1 0x0 MSTORE PUSH1 0x20 PUSH1 0x0 KECCAK256 SWAP1 PUSH1 0x9 MUL ADD PUSH1 0x5 ADD SLOAD PUSH1 0x6 DUP6 DUP2 SLOAD DUP2 LT PUSH2 0x17F0 JUMPI PUSH2 0x17F0 PUSH2 0x34C1 JUMP JUMPDEST SWAP1 PUSH1 0x0 MSTORE PUSH1 0x20 PUSH1 0x0 KECCAK256 SWAP1 PUSH1 0x9 MUL ADD PUSH1 0x2 ADD SLOAD PUSH2 0x180C SWAP2 SWAP1 PUSH2 0x3371 JUMP JUMPDEST PUSH2 0x1816 SWAP1 DUP4 PUSH2 0x339D JUMP JUMPDEST PUSH1 0xA PUSH1 0x6 DUP7 DUP2 SLOAD DUP2 LT PUSH2 0x182B JUMPI PUSH2 0x182B PUSH2 0x34C1 JUMP JUMPDEST SWAP1 PUSH1 0x0 MSTORE PUSH1 0x20 PUSH1 0x0 KECCAK256 SWAP1 PUSH1 0x9 MUL ADD PUSH1 0x0 ADD SLOAD PUSH2 0x1847 SWAP2 SWAP1 PUSH2 0x3389 JUMP JUMPDEST PUSH1 0x6 DUP7 DUP2 SLOAD DUP2 LT PUSH2 0x185A JUMPI PUSH2 0x185A PUSH2 0x34C1 JUMP JUMPDEST SWAP1 PUSH1 0x0 MSTORE PUSH1 0x20 PUSH1 0x0 KECCAK256 SWAP1 PUSH1 0x9 MUL ADD PUSH1 0x1 ADD SLOAD PUSH1 0x1 PUSH2 0x1878 SWAP2 SWAP1 PUSH2 0x3371 JUMP JUMPDEST PUSH2 0x1882 SWAP2 SWAP1 PUSH2 0x3371 JUMP JUMPDEST PUSH2 0x188C SWAP2 SWAP1 PUSH2 0x3371 JUMP JUMPDEST PUSH2 0x1896 SWAP2 SWAP1 PUSH2 0x3371 JUMP JUMPDEST SWAP4 SWAP3 POP POP POP JUMP JUMPDEST DUP2 MLOAD DUP4 MLOAD EQ PUSH2 0x18FF JUMPI PUSH1 0x40 MLOAD PUSH3 0x461BCD PUSH1 0xE5 SHL DUP2 MSTORE PUSH1 0x20 PUSH1 0x4 DUP3 ADD MSTORE PUSH1 0x28 PUSH1 0x24 DUP3 ADD MSTORE PUSH32 0x455243313135353A2069647320616E6420616D6F756E7473206C656E67746820 PUSH1 0x44 DUP3 ADD MSTORE PUSH8 0xDAD2E6DAC2E8C6D PUSH1 0xC3 SHL PUSH1 0x64 DUP3 ADD MSTORE PUSH1 0x84 ADD PUSH2 0x354 JUMP JUMPDEST PUSH1 0x1 PUSH1 0x1 PUSH1 0xA0 SHL SUB DUP5 AND PUSH2 0x1925 JUMPI PUSH1 0x40 MLOAD PUSH3 0x461BCD PUSH1 0xE5 SHL DUP2 MSTORE PUSH1 0x4 ADD PUSH2 0x354 SWAP1 PUSH2 0x3190 JUMP JUMPDEST CALLER PUSH1 0x0 JUMPDEST DUP5 MLOAD DUP2 LT ISZERO PUSH2 0x1A90 JUMPI PUSH1 0x0 DUP6 DUP3 DUP2 MLOAD DUP2 LT PUSH2 0x1946 JUMPI PUSH2 0x1946 PUSH2 0x34C1 JUMP JUMPDEST PUSH1 0x20 MUL PUSH1 0x20 ADD ADD MLOAD SWAP1 POP PUSH1 0x0 DUP6 DUP4 DUP2 MLOAD DUP2 LT PUSH2 0x1964 JUMPI PUSH2 0x1964 PUSH2 0x34C1 JUMP JUMPDEST PUSH1 0x20 SWAP1 DUP2 MUL SWAP2 SWAP1 SWAP2 ADD DUP2 ADD MLOAD PUSH1 0x0 DUP5 DUP2 MSTORE DUP1 DUP4 MSTORE PUSH1 0x40 DUP1 DUP3 KECCAK256 PUSH1 0x1 PUSH1 0x1 PUSH1 0xA0 SHL SUB DUP15 AND DUP4 MSTORE SWAP1 SWAP4 MSTORE SWAP2 SWAP1 SWAP2 KECCAK256 SLOAD SWAP1 SWAP2 POP DUP2 DUP2 LT ISZERO PUSH2 0x19B4 JUMPI PUSH1 0x40 MLOAD PUSH3 0x461BCD PUSH1 0xE5 SHL DUP2 MSTORE PUSH1 0x4 ADD PUSH2 0x354 SWAP1 PUSH2 0x31D5 JUMP JUMPDEST PUSH1 0x0 DUP4 DUP2 MSTORE PUSH1 0x20 DUP2 DUP2 MSTORE PUSH1 0x40 DUP1 DUP4 KECCAK256 PUSH1 0x1 PUSH1 0x1 PUSH1 0xA0 SHL SUB DUP15 DUP2 AND DUP6 MSTORE SWAP3 MSTORE DUP1 DUP4 KECCAK256 DUP6 DUP6 SUB SWAP1 SSTORE SWAP1 DUP12 AND DUP3 MSTORE DUP2 KECCAK256 DUP1 SLOAD DUP5 SWAP3 SWAP1 PUSH2 0x19F1 SWAP1 DUP5 SWAP1 PUSH2 0x3371 JUMP JUMPDEST SWAP1 SWAP2 SSTORE POP POP PUSH1 0x1 PUSH1 0x1 PUSH1 0xA0 SHL SUB DUP10 AND PUSH1 0x0 SWAP1 DUP2 MSTORE PUSH1 0x2 PUSH1 0x20 MSTORE PUSH1 0x40 SWAP1 KECCAK256 SLOAD PUSH1 0xFF AND PUSH2 0x1A7C JUMPI PUSH1 0x1 PUSH1 0x1 PUSH1 0xA0 SHL SUB DUP10 AND PUSH1 0x0 DUP2 DUP2 MSTORE PUSH1 0x2 PUSH1 0x20 MSTORE PUSH1 0x40 DUP2 KECCAK256 DUP1 SLOAD PUSH1 0xFF NOT AND PUSH1 0x1 SWAP1 DUP2 OR SWAP1 SWAP2 SSTORE PUSH1 0x3 DUP1 SLOAD SWAP2 DUP3 ADD DUP2 SSTORE SWAP1 SWAP2 MSTORE PUSH32 0xC2575A0E9E593C00F959F8C92F12DB2869C3395A3B0502D05E2516446F71F85B ADD DUP1 SLOAD PUSH1 0x1 PUSH1 0x1 PUSH1 0xA0 SHL SUB NOT AND SWAP1 SWAP2 OR SWAP1 SSTORE JUMPDEST POP POP POP DUP1 PUSH2 0x1A89 SWAP1 PUSH2 0x3466 JUMP JUMPDEST SWAP1 POP PUSH2 0x1929 JUMP JUMPDEST POP DUP5 PUSH1 0x1 PUSH1 0x1 PUSH1 0xA0 SHL SUB AND DUP7 PUSH1 0x1 PUSH1 0x1 PUSH1 0xA0 SHL SUB AND DUP3 PUSH1 0x1 PUSH1 0x1 PUSH1 0xA0 SHL SUB AND PUSH32 0x4A39DC06D4C0DBC64B70AF90FD698A233A518AA5D07E595D983B8C0526C8F7FB DUP8 DUP8 PUSH1 0x40 MLOAD PUSH2 0x1AE0 SWAP3 SWAP2 SWAP1 PUSH2 0x30D8 JUMP JUMPDEST PUSH1 0x40 MLOAD DUP1 SWAP2 SUB SWAP1 LOG4 PUSH2 0x1AF6 DUP2 DUP8 DUP8 DUP8 DUP8 DUP8 PUSH2 0x210F JUMP JUMPDEST POP POP POP POP POP POP JUMP JUMPDEST PUSH1 0x1 PUSH1 0x1 PUSH1 0xA0 SHL SUB DUP5 AND PUSH2 0x1B5E JUMPI PUSH1 0x40 MLOAD PUSH3 0x461BCD PUSH1 0xE5 SHL DUP2 MSTORE PUSH1 0x20 PUSH1 0x4 DUP3 ADD MSTORE PUSH1 0x21 PUSH1 0x24 DUP3 ADD MSTORE PUSH32 0x455243313135353A206D696E7420746F20746865207A65726F20616464726573 PUSH1 0x44 DUP3 ADD MSTORE PUSH1 0x73 PUSH1 0xF8 SHL PUSH1 0x64 DUP3 ADD MSTORE PUSH1 0x84 ADD PUSH2 0x354 JUMP JUMPDEST CALLER PUSH1 0x0 PUSH2 0x1B6A DUP6 PUSH2 0x227A JUMP JUMPDEST SWAP1 POP PUSH1 0x0 PUSH2 0x1B77 DUP6 PUSH2 0x227A JUMP JUMPDEST SWAP1 POP PUSH1 0x0 DUP7 DUP2 MSTORE PUSH1 0x20 DUP2 DUP2 MSTORE PUSH1 0x40 DUP1 DUP4 KECCAK256 PUSH1 0x1 PUSH1 0x1 PUSH1 0xA0 SHL SUB DUP12 AND DUP5 MSTORE SWAP1 SWAP2 MSTORE DUP2 KECCAK256 DUP1 SLOAD DUP8 SWAP3 SWAP1 PUSH2 0x1BA9 SWAP1 DUP5 SWAP1 PUSH2 0x3371 JUMP JUMPDEST SWAP1 SWAP2 SSTORE POP POP PUSH1 0x1 PUSH1 0x1 PUSH1 0xA0 SHL SUB DUP8 AND PUSH1 0x0 SWAP1 DUP2 MSTORE PUSH1 0x2 PUSH1 0x20 MSTORE PUSH1 0x40 SWAP1 KECCAK256 SLOAD PUSH1 0xFF AND PUSH2 0x1C34 JUMPI PUSH1 0x1 PUSH1 0x1 PUSH1 0xA0 SHL SUB DUP8 AND PUSH1 0x0 DUP2 DUP2 MSTORE PUSH1 0x2 PUSH1 0x20 MSTORE PUSH1 0x40 DUP2 KECCAK256 DUP1 SLOAD PUSH1 0xFF NOT AND PUSH1 0x1 SWAP1 DUP2 OR SWAP1 SWAP2 SSTORE PUSH1 0x3 DUP1 SLOAD SWAP2 DUP3 ADD DUP2 SSTORE SWAP1 SWAP2 MSTORE PUSH32 0xC2575A0E9E593C00F959F8C92F12DB2869C3395A3B0502D05E2516446F71F85B ADD DUP1 SLOAD PUSH1 0x1 PUSH1 0x1 PUSH1 0xA0 SHL SUB NOT AND SWAP1 SWAP2 OR SWAP1 SSTORE JUMPDEST PUSH1 0x40 DUP1 MLOAD DUP8 DUP2 MSTORE PUSH1 0x20 DUP2 ADD DUP8 SWAP1 MSTORE PUSH1 0x1 PUSH1 0x1 PUSH1 0xA0 SHL SUB DUP1 DUP11 AND SWAP3 PUSH1 0x0 SWAP3 SWAP2 DUP8 AND SWAP2 PUSH32 0xC3D58168C5AE7397731D063D5BBF3D657854427343F4C083240F7AACAA2D0F62 SWAP2 ADD PUSH1 0x40 MLOAD DUP1 SWAP2 SUB SWAP1 LOG4 PUSH2 0x1C8F DUP4 PUSH1 0x0 DUP10 DUP10 DUP10 DUP10 PUSH2 0x22C5 JUMP JUMPDEST POP POP POP POP POP POP POP JUMP JUMPDEST PUSH1 0x1 PUSH1 0x1 PUSH1 0xA0 SHL SUB DUP4 AND PUSH2 0x1CFA JUMPI PUSH1 0x40 MLOAD PUSH3 0x461BCD PUSH1 0xE5 SHL DUP2 MSTORE PUSH1 0x20 PUSH1 0x4 DUP3 ADD MSTORE PUSH1 0x23 PUSH1 0x24 DUP3 ADD MSTORE PUSH32 0x455243313135353A206275726E2066726F6D20746865207A65726F2061646472 PUSH1 0x44 DUP3 ADD MSTORE PUSH3 0x657373 PUSH1 0xE8 SHL PUSH1 0x64 DUP3 ADD MSTORE PUSH1 0x84 ADD PUSH2 0x354 JUMP JUMPDEST CALLER PUSH1 0x0 PUSH2 0x1D06 DUP5 PUSH2 0x227A JUMP JUMPDEST SWAP1 POP PUSH1 0x0 PUSH2 0x1D13 DUP5 PUSH2 0x227A JUMP JUMPDEST PUSH1 0x40 DUP1 MLOAD PUSH1 0x20 DUP1 DUP3 ADD DUP4 MSTORE PUSH1 0x0 SWAP2 DUP3 SWAP1 MSTORE DUP9 DUP3 MSTORE DUP2 DUP2 MSTORE DUP3 DUP3 KECCAK256 PUSH1 0x1 PUSH1 0x1 PUSH1 0xA0 SHL SUB DUP12 AND DUP4 MSTORE SWAP1 MSTORE KECCAK256 SLOAD SWAP1 SWAP2 POP DUP5 DUP2 LT ISZERO PUSH2 0x1D9C JUMPI PUSH1 0x40 MLOAD PUSH3 0x461BCD PUSH1 0xE5 SHL DUP2 MSTORE PUSH1 0x20 PUSH1 0x4 DUP3 ADD MSTORE PUSH1 0x24 DUP1 DUP3 ADD MSTORE PUSH32 0x455243313135353A206275726E20616D6F756E7420657863656564732062616C PUSH1 0x44 DUP3 ADD MSTORE PUSH4 0x616E6365 PUSH1 0xE0 SHL PUSH1 0x64 DUP3 ADD MSTORE PUSH1 0x84 ADD PUSH2 0x354 JUMP JUMPDEST PUSH1 0x0 DUP7 DUP2 MSTORE PUSH1 0x20 DUP2 DUP2 MSTORE PUSH1 0x40 DUP1 DUP4 KECCAK256 PUSH1 0x1 PUSH1 0x1 PUSH1 0xA0 SHL SUB DUP12 DUP2 AND DUP1 DUP7 MSTORE SWAP2 DUP5 MSTORE DUP3 DUP6 KECCAK256 DUP11 DUP8 SUB SWAP1 SSTORE DUP3 MLOAD DUP12 DUP2 MSTORE SWAP4 DUP5 ADD DUP11 SWAP1 MSTORE SWAP1 SWAP3 SWAP1 DUP9 AND SWAP2 PUSH32 0xC3D58168C5AE7397731D063D5BBF3D657854427343F4C083240F7AACAA2D0F62 SWAP2 ADD PUSH1 0x40 MLOAD DUP1 SWAP2 SUB SWAP1 LOG4 PUSH1 0x40 DUP1 MLOAD PUSH1 0x20 DUP2 ADD SWAP1 SWAP2 MSTORE PUSH1 0x0 SWAP1 MSTORE PUSH2 0x1C8F JUMP JUMPDEST DUP2 PUSH1 0x1 PUSH1 0x1 PUSH1 0xA0 SHL SUB AND DUP4 PUSH1 0x1 PUSH1 0x1 PUSH1 0xA0 SHL SUB AND EQ ISZERO PUSH2 0x1E88 JUMPI PUSH1 0x40 MLOAD PUSH3 0x461BCD PUSH1 0xE5 SHL DUP2 MSTORE PUSH1 0x20 PUSH1 0x4 DUP3 ADD MSTORE PUSH1 0x29 PUSH1 0x24 DUP3 ADD MSTORE PUSH32 0x455243313135353A2073657474696E6720617070726F76616C20737461747573 PUSH1 0x44 DUP3 ADD MSTORE PUSH9 0x103337B91039B2B633 PUSH1 0xB9 SHL PUSH1 0x64 DUP3 ADD MSTORE PUSH1 0x84 ADD PUSH2 0x354 JUMP JUMPDEST PUSH1 0x1 PUSH1 0x1 PUSH1 0xA0 SHL SUB DUP4 DUP2 AND PUSH1 0x0 DUP2 DUP2 MSTORE PUSH1 0x1 PUSH1 0x20 SWAP1 DUP2 MSTORE PUSH1 0x40 DUP1 DUP4 KECCAK256 SWAP5 DUP8 AND DUP1 DUP5 MSTORE SWAP5 DUP3 MSTORE SWAP2 DUP3 SWAP1 KECCAK256 DUP1 SLOAD PUSH1 0xFF NOT AND DUP7 ISZERO ISZERO SWAP1 DUP2 OR SWAP1 SWAP2 SSTORE SWAP2 MLOAD SWAP2 DUP3 MSTORE PUSH32 0x17307EAB39AB6107E8899845AD3D59BD9653F200F220920489CA2B5937696C31 SWAP2 ADD PUSH1 0x40 MLOAD DUP1 SWAP2 SUB SWAP1 LOG3 POP POP POP JUMP JUMPDEST PUSH1 0x60 PUSH1 0x3 DUP1 SLOAD DUP1 PUSH1 0x20 MUL PUSH1 0x20 ADD PUSH1 0x40 MLOAD SWAP1 DUP2 ADD PUSH1 0x40 MSTORE DUP1 SWAP3 SWAP2 SWAP1 DUP2 DUP2 MSTORE PUSH1 0x20 ADD DUP3 DUP1 SLOAD DUP1 ISZERO PUSH2 0x1F4D JUMPI PUSH1 0x20 MUL DUP3 ADD SWAP2 SWAP1 PUSH1 0x0 MSTORE PUSH1 0x20 PUSH1 0x0 KECCAK256 SWAP1 JUMPDEST DUP2 SLOAD PUSH1 0x1 PUSH1 0x1 PUSH1 0xA0 SHL SUB AND DUP2 MSTORE PUSH1 0x1 SWAP1 SWAP2 ADD SWAP1 PUSH1 0x20 ADD DUP1 DUP4 GT PUSH2 0x1F2F JUMPI JUMPDEST POP POP POP POP POP SWAP1 POP SWAP1 JUMP JUMPDEST PUSH1 0x1 PUSH1 0x1 PUSH1 0xA0 SHL SUB DUP5 AND PUSH2 0x1F7D JUMPI PUSH1 0x40 MLOAD PUSH3 0x461BCD PUSH1 0xE5 SHL DUP2 MSTORE PUSH1 0x4 ADD PUSH2 0x354 SWAP1 PUSH2 0x3190 JUMP JUMPDEST CALLER PUSH1 0x0 PUSH2 0x1F89 DUP6 PUSH2 0x227A JUMP JUMPDEST SWAP1 POP PUSH1 0x0 PUSH2 0x1F96 DUP6 PUSH2 0x227A JUMP JUMPDEST SWAP1 POP PUSH1 0x0 DUP7 DUP2 MSTORE PUSH1 0x20 DUP2 DUP2 MSTORE PUSH1 0x40 DUP1 DUP4 KECCAK256 PUSH1 0x1 PUSH1 0x1 PUSH1 0xA0 SHL SUB DUP13 AND DUP5 MSTORE SWAP1 SWAP2 MSTORE SWAP1 KECCAK256 SLOAD DUP6 DUP2 LT ISZERO PUSH2 0x1FD9 JUMPI PUSH1 0x40 MLOAD PUSH3 0x461BCD PUSH1 0xE5 SHL DUP2 MSTORE PUSH1 0x4 ADD PUSH2 0x354 SWAP1 PUSH2 0x31D5 JUMP JUMPDEST PUSH1 0x0 DUP8 DUP2 MSTORE PUSH1 0x20 DUP2 DUP2 MSTORE PUSH1 0x40 DUP1 DUP4 KECCAK256 PUSH1 0x1 PUSH1 0x1 PUSH1 0xA0 SHL SUB DUP14 DUP2 AND DUP6 MSTORE SWAP3 MSTORE DUP1 DUP4 KECCAK256 DUP10 DUP6 SUB SWAP1 SSTORE SWAP1 DUP11 AND DUP3 MSTORE DUP2 KECCAK256 DUP1 SLOAD DUP9 SWAP3 SWAP1 PUSH2 0x2016 SWAP1 DUP5 SWAP1 PUSH2 0x3371 JUMP JUMPDEST SWAP1 SWAP2 SSTORE POP POP PUSH1 0x1 PUSH1 0x1 PUSH1 0xA0 SHL SUB DUP9 AND PUSH1 0x0 SWAP1 DUP2 MSTORE PUSH1 0x2 PUSH1 0x20 MSTORE PUSH1 0x40 SWAP1 KECCAK256 SLOAD PUSH1 0xFF AND PUSH2 0x20A1 JUMPI PUSH1 0x1 PUSH1 0x1 PUSH1 0xA0 SHL SUB DUP9 AND PUSH1 0x0 DUP2 DUP2 MSTORE PUSH1 0x2 PUSH1 0x20 MSTORE PUSH1 0x40 DUP2 KECCAK256 DUP1 SLOAD PUSH1 0xFF NOT AND PUSH1 0x1 SWAP1 DUP2 OR SWAP1 SWAP2 SSTORE PUSH1 0x3 DUP1 SLOAD SWAP2 DUP3 ADD DUP2 SSTORE SWAP1 SWAP2 MSTORE PUSH32 0xC2575A0E9E593C00F959F8C92F12DB2869C3395A3B0502D05E2516446F71F85B ADD DUP1 SLOAD PUSH1 0x1 PUSH1 0x1 PUSH1 0xA0 SHL SUB NOT AND SWAP1 SWAP2 OR SWAP1 SSTORE JUMPDEST DUP8 PUSH1 0x1 PUSH1 0x1 PUSH1 0xA0 SHL SUB AND DUP10 PUSH1 0x1 PUSH1 0x1 PUSH1 0xA0 SHL SUB AND DUP6 PUSH1 0x1 PUSH1 0x1 PUSH1 0xA0 SHL SUB AND PUSH32 0xC3D58168C5AE7397731D063D5BBF3D657854427343F4C083240F7AACAA2D0F62 DUP11 DUP11 PUSH1 0x40 MLOAD PUSH2 0x20F9 SWAP3 SWAP2 SWAP1 SWAP2 DUP3 MSTORE PUSH1 0x20 DUP3 ADD MSTORE PUSH1 0x40 ADD SWAP1 JUMP JUMPDEST PUSH1 0x40 MLOAD DUP1 SWAP2 SUB SWAP1 LOG4 PUSH2 0x1188 DUP5 DUP11 DUP11 DUP11 DUP11 DUP11 PUSH2 0x22C5 JUMP JUMPDEST PUSH1 0x1 PUSH1 0x1 PUSH1 0xA0 SHL SUB DUP5 AND EXTCODESIZE ISZERO PUSH2 0x1AF6 JUMPI PUSH1 0x40 MLOAD PUSH4 0xBC197C81 PUSH1 0xE0 SHL DUP2 MSTORE PUSH1 0x1 PUSH1 0x1 PUSH1 0xA0 SHL SUB DUP6 AND SWAP1 PUSH4 0xBC197C81 SWAP1 PUSH2 0x2153 SWAP1 DUP10 SWAP1 DUP10 SWAP1 DUP9 SWAP1 DUP9 SWAP1 DUP9 SWAP1 PUSH1 0x4 ADD PUSH2 0x2FE1 JUMP JUMPDEST PUSH1 0x20 PUSH1 0x40 MLOAD DUP1 DUP4 SUB DUP2 PUSH1 0x0 DUP8 DUP1 EXTCODESIZE ISZERO DUP1 ISZERO PUSH2 0x216D JUMPI PUSH1 0x0 DUP1 REVERT JUMPDEST POP GAS CALL SWAP3 POP POP POP DUP1 ISZERO PUSH2 0x219D JUMPI POP PUSH1 0x40 DUP1 MLOAD PUSH1 0x1F RETURNDATASIZE SWAP1 DUP2 ADD PUSH1 0x1F NOT AND DUP3 ADD SWAP1 SWAP3 MSTORE PUSH2 0x219A SWAP2 DUP2 ADD SWAP1 PUSH2 0x2855 JUMP JUMPDEST PUSH1 0x1 JUMPDEST PUSH2 0x224A JUMPI PUSH2 0x21A9 PUSH2 0x34ED JUMP JUMPDEST DUP1 PUSH4 0x8C379A0 EQ ISZERO PUSH2 0x21E3 JUMPI POP PUSH2 0x21BE PUSH2 0x3509 JUMP JUMPDEST DUP1 PUSH2 0x21C9 JUMPI POP PUSH2 0x21E5 JUMP JUMPDEST DUP1 PUSH1 0x40 MLOAD PUSH3 0x461BCD PUSH1 0xE5 SHL DUP2 MSTORE PUSH1 0x4 ADD PUSH2 0x354 SWAP2 SWAP1 PUSH2 0x3106 JUMP JUMPDEST POP JUMPDEST PUSH1 0x40 MLOAD PUSH3 0x461BCD PUSH1 0xE5 SHL DUP2 MSTORE PUSH1 0x20 PUSH1 0x4 DUP3 ADD MSTORE PUSH1 0x34 PUSH1 0x24 DUP3 ADD MSTORE PUSH32 0x455243313135353A207472616E7366657220746F206E6F6E2045524331313535 PUSH1 0x44 DUP3 ADD MSTORE PUSH20 0x2932B1B2B4BB32B91034B6B83632B6B2B73A32B9 PUSH1 0x61 SHL PUSH1 0x64 DUP3 ADD MSTORE PUSH1 0x84 ADD PUSH2 0x354 JUMP JUMPDEST PUSH1 0x1 PUSH1 0x1 PUSH1 0xE0 SHL SUB NOT DUP2 AND PUSH4 0xBC197C81 PUSH1 0xE0 SHL EQ PUSH2 0x1C8F JUMPI PUSH1 0x40 MLOAD PUSH3 0x461BCD PUSH1 0xE5 SHL DUP2 MSTORE PUSH1 0x4 ADD PUSH2 0x354 SWAP1 PUSH2 0x3119 JUMP JUMPDEST PUSH1 0x40 DUP1 MLOAD PUSH1 0x1 DUP1 DUP3 MSTORE DUP2 DUP4 ADD SWAP1 SWAP3 MSTORE PUSH1 0x60 SWAP2 PUSH1 0x0 SWAP2 SWAP1 PUSH1 0x20 DUP1 DUP4 ADD SWAP1 DUP1 CALLDATASIZE DUP4 CALLDATACOPY ADD SWAP1 POP POP SWAP1 POP DUP3 DUP2 PUSH1 0x0 DUP2 MLOAD DUP2 LT PUSH2 0x22B4 JUMPI PUSH2 0x22B4 PUSH2 0x34C1 JUMP JUMPDEST PUSH1 0x20 SWAP1 DUP2 MUL SWAP2 SWAP1 SWAP2 ADD ADD MSTORE SWAP3 SWAP2 POP POP JUMP JUMPDEST PUSH1 0x1 PUSH1 0x1 PUSH1 0xA0 SHL SUB DUP5 AND EXTCODESIZE ISZERO PUSH2 0x1AF6 JUMPI PUSH1 0x40 MLOAD PUSH4 0xF23A6E61 PUSH1 0xE0 SHL DUP2 MSTORE PUSH1 0x1 PUSH1 0x1 PUSH1 0xA0 SHL SUB DUP6 AND SWAP1 PUSH4 0xF23A6E61 SWAP1 PUSH2 0x2309 SWAP1 DUP10 SWAP1 DUP10 SWAP1 DUP9 SWAP1 DUP9 SWAP1 DUP9 SWAP1 PUSH1 0x4 ADD PUSH2 0x3033 JUMP JUMPDEST PUSH1 0x20 PUSH1 0x40 MLOAD DUP1 DUP4 SUB DUP2 PUSH1 0x0 DUP8 DUP1 EXTCODESIZE ISZERO DUP1 ISZERO PUSH2 0x2323 JUMPI PUSH1 0x0 DUP1 REVERT JUMPDEST POP GAS CALL SWAP3 POP POP POP DUP1 ISZERO PUSH2 0x2353 JUMPI POP PUSH1 0x40 DUP1 MLOAD PUSH1 0x1F RETURNDATASIZE SWAP1 DUP2 ADD PUSH1 0x1F NOT AND DUP3 ADD SWAP1 SWAP3 MSTORE PUSH2 0x2350 SWAP2 DUP2 ADD SWAP1 PUSH2 0x2855 JUMP JUMPDEST PUSH1 0x1 JUMPDEST PUSH2 0x235F JUMPI PUSH2 0x21A9 PUSH2 0x34ED JUMP JUMPDEST PUSH1 0x1 PUSH1 0x1 PUSH1 0xE0 SHL SUB NOT DUP2 AND PUSH4 0xF23A6E61 PUSH1 0xE0 SHL EQ PUSH2 0x1C8F JUMPI PUSH1 0x40 MLOAD PUSH3 0x461BCD PUSH1 0xE5 SHL DUP2 MSTORE PUSH1 0x4 ADD PUSH2 0x354 SWAP1 PUSH2 0x3119 JUMP JUMPDEST DUP3 DUP1 SLOAD PUSH2 0x239B SWAP1 PUSH2 0x33FF JUMP JUMPDEST SWAP1 PUSH1 0x0 MSTORE PUSH1 0x20 PUSH1 0x0 KECCAK256 SWAP1 PUSH1 0x1F ADD PUSH1 0x20 SWAP1 DIV DUP2 ADD SWAP3 DUP3 PUSH2 0x23BD JUMPI PUSH1 0x0 DUP6 SSTORE PUSH2 0x2403 JUMP JUMPDEST DUP3 PUSH1 0x1F LT PUSH2 0x23D6 JUMPI DUP1 MLOAD PUSH1 0xFF NOT AND DUP4 DUP1 ADD OR DUP6 SSTORE PUSH2 0x2403 JUMP JUMPDEST DUP3 DUP1 ADD PUSH1 0x1 ADD DUP6 SSTORE DUP3 ISZERO PUSH2 0x2403 JUMPI SWAP2 DUP3 ADD JUMPDEST DUP3 DUP2 GT ISZERO PUSH2 0x2403 JUMPI DUP3 MLOAD DUP3 SSTORE SWAP2 PUSH1 0x20 ADD SWAP2 SWAP1 PUSH1 0x1 ADD SWAP1 PUSH2 0x23E8 JUMP JUMPDEST POP PUSH2 0x240F SWAP3 SWAP2 POP PUSH2 0x2413 JUMP JUMPDEST POP SWAP1 JUMP JUMPDEST JUMPDEST DUP1 DUP3 GT ISZERO PUSH2 0x240F JUMPI PUSH1 0x0 DUP2 SSTORE PUSH1 0x1 ADD PUSH2 0x2414 JUMP JUMPDEST PUSH1 0x0 PUSH2 0x2433 DUP4 PUSH2 0x334A JUMP JUMPDEST PUSH1 0x40 MLOAD PUSH2 0x2440 DUP3 DUP3 PUSH2 0x343A JUMP JUMPDEST DUP1 SWAP3 POP DUP5 DUP2 MSTORE DUP6 DUP6 DUP6 ADD GT ISZERO PUSH2 0x2455 JUMPI PUSH1 0x0 DUP1 REVERT JUMPDEST DUP5 DUP5 PUSH1 0x20 DUP4 ADD CALLDATACOPY PUSH1 0x0 PUSH1 0x20 DUP7 DUP4 ADD ADD MSTORE POP POP SWAP4 SWAP3 POP POP POP JUMP JUMPDEST DUP1 CALLDATALOAD PUSH1 0x1 PUSH1 0x1 PUSH1 0xA0 SHL SUB DUP2 AND DUP2 EQ PUSH2 0x2485 JUMPI PUSH1 0x0 DUP1 REVERT JUMPDEST SWAP2 SWAP1 POP JUMP JUMPDEST PUSH1 0x0 DUP3 PUSH1 0x1F DUP4 ADD SLT PUSH2 0x249B JUMPI PUSH1 0x0 DUP1 REVERT JUMPDEST DUP2 CALLDATALOAD PUSH1 0x20 PUSH2 0x24A8 DUP3 PUSH2 0x3327 JUMP JUMPDEST PUSH1 0x40 MLOAD PUSH2 0x24B5 DUP3 DUP3 PUSH2 0x343A JUMP JUMPDEST DUP4 DUP2 MSTORE DUP3 DUP2 ADD SWAP2 POP DUP6 DUP4 ADD PUSH1 0x5 DUP6 SWAP1 SHL DUP8 ADD DUP5 ADD DUP9 LT ISZERO PUSH2 0x24D5 JUMPI PUSH1 0x0 DUP1 REVERT JUMPDEST PUSH1 0x0 JUMPDEST DUP6 DUP2 LT ISZERO PUSH2 0x24F4 JUMPI DUP2 CALLDATALOAD DUP5 MSTORE SWAP3 DUP5 ADD SWAP3 SWAP1 DUP5 ADD SWAP1 PUSH1 0x1 ADD PUSH2 0x24D8 JUMP JUMPDEST POP SWAP1 SWAP8 SWAP7 POP POP POP POP POP POP POP JUMP JUMPDEST PUSH1 0x0 DUP3 PUSH1 0x1F DUP4 ADD SLT PUSH2 0x2512 JUMPI PUSH1 0x0 DUP1 REVERT JUMPDEST PUSH2 0x1896 DUP4 DUP4 CALLDATALOAD PUSH1 0x20 DUP6 ADD PUSH2 0x2428 JUMP JUMPDEST DUP1 CALLDATALOAD PUSH2 0xFFFF DUP2 AND DUP2 EQ PUSH2 0x2485 JUMPI PUSH1 0x0 DUP1 REVERT JUMPDEST PUSH1 0x0 PUSH1 0x20 DUP3 DUP5 SUB SLT ISZERO PUSH2 0x2545 JUMPI PUSH1 0x0 DUP1 REVERT JUMPDEST PUSH2 0x1896 DUP3 PUSH2 0x246E JUMP JUMPDEST PUSH1 0x0 DUP1 PUSH1 0x40 DUP4 DUP6 SUB SLT ISZERO PUSH2 0x2561 JUMPI PUSH1 0x0 DUP1 REVERT JUMPDEST PUSH2 0x256A DUP4 PUSH2 0x246E JUMP JUMPDEST SWAP2 POP PUSH2 0x2578 PUSH1 0x20 DUP5 ADD PUSH2 0x246E JUMP JUMPDEST SWAP1 POP SWAP3 POP SWAP3 SWAP1 POP JUMP JUMPDEST PUSH1 0x0 DUP1 PUSH1 0x0 DUP1 PUSH1 0x0 PUSH1 0xA0 DUP7 DUP9 SUB SLT ISZERO PUSH2 0x2599 JUMPI PUSH1 0x0 DUP1 REVERT JUMPDEST PUSH2 0x25A2 DUP7 PUSH2 0x246E JUMP JUMPDEST SWAP5 POP PUSH2 0x25B0 PUSH1 0x20 DUP8 ADD PUSH2 0x246E JUMP JUMPDEST SWAP4 POP PUSH1 0x40 DUP7 ADD CALLDATALOAD PUSH1 0x1 PUSH1 0x1 PUSH1 0x40 SHL SUB DUP1 DUP3 GT ISZERO PUSH2 0x25CC JUMPI PUSH1 0x0 DUP1 REVERT JUMPDEST PUSH2 0x25D8 DUP10 DUP4 DUP11 ADD PUSH2 0x248A JUMP JUMPDEST SWAP5 POP PUSH1 0x60 DUP9 ADD CALLDATALOAD SWAP2 POP DUP1 DUP3 GT ISZERO PUSH2 0x25EE JUMPI PUSH1 0x0 DUP1 REVERT JUMPDEST PUSH2 0x25FA DUP10 DUP4 DUP11 ADD PUSH2 0x248A JUMP JUMPDEST SWAP4 POP PUSH1 0x80 DUP9 ADD CALLDATALOAD SWAP2 POP DUP1 DUP3 GT ISZERO PUSH2 0x2610 JUMPI PUSH1 0x0 DUP1 REVERT JUMPDEST POP PUSH2 0x261D DUP9 DUP3 DUP10 ADD PUSH2 0x2501 JUMP JUMPDEST SWAP2 POP POP SWAP3 SWAP6 POP SWAP3 SWAP6 SWAP1 SWAP4 POP JUMP JUMPDEST PUSH1 0x0 DUP1 PUSH1 0x0 DUP1 PUSH1 0x0 PUSH1 0xA0 DUP7 DUP9 SUB SLT ISZERO PUSH2 0x2642 JUMPI PUSH1 0x0 DUP1 REVERT JUMPDEST PUSH2 0x264B DUP7 PUSH2 0x246E JUMP JUMPDEST SWAP5 POP PUSH2 0x2659 PUSH1 0x20 DUP8 ADD PUSH2 0x246E JUMP JUMPDEST SWAP4 POP PUSH1 0x40 DUP7 ADD CALLDATALOAD SWAP3 POP PUSH1 0x60 DUP7 ADD CALLDATALOAD SWAP2 POP PUSH1 0x80 DUP7 ADD CALLDATALOAD PUSH1 0x1 PUSH1 0x1 PUSH1 0x40 SHL SUB DUP2 GT ISZERO PUSH2 0x2682 JUMPI PUSH1 0x0 DUP1 REVERT JUMPDEST PUSH2 0x261D DUP9 DUP3 DUP10 ADD PUSH2 0x2501 JUMP JUMPDEST PUSH1 0x0 DUP1 PUSH1 0x40 DUP4 DUP6 SUB SLT ISZERO PUSH2 0x26A1 JUMPI PUSH1 0x0 DUP1 REVERT JUMPDEST PUSH2 0x26AA DUP4 PUSH2 0x246E JUMP JUMPDEST SWAP2 POP PUSH1 0x20 DUP4 ADD CALLDATALOAD DUP1 ISZERO ISZERO DUP2 EQ PUSH2 0x26BF JUMPI PUSH1 0x0 DUP1 REVERT JUMPDEST DUP1 SWAP2 POP POP SWAP3 POP SWAP3 SWAP1 POP JUMP JUMPDEST PUSH1 0x0 DUP1 PUSH1 0x40 DUP4 DUP6 SUB SLT ISZERO PUSH2 0x26DD JUMPI PUSH1 0x0 DUP1 REVERT JUMPDEST PUSH2 0x26E6 DUP4 PUSH2 0x246E JUMP JUMPDEST SWAP5 PUSH1 0x20 SWAP4 SWAP1 SWAP4 ADD CALLDATALOAD SWAP4 POP POP POP JUMP JUMPDEST PUSH1 0x0 DUP1 PUSH1 0x40 DUP4 DUP6 SUB SLT ISZERO PUSH2 0x2707 JUMPI PUSH1 0x0 DUP1 REVERT JUMPDEST DUP3 CALLDATALOAD PUSH1 0x1 PUSH1 0x1 PUSH1 0x40 SHL SUB DUP1 DUP3 GT ISZERO PUSH2 0x271E JUMPI PUSH1 0x0 DUP1 REVERT JUMPDEST DUP2 DUP6 ADD SWAP2 POP DUP6 PUSH1 0x1F DUP4 ADD SLT PUSH2 0x2732 JUMPI PUSH1 0x0 DUP1 REVERT JUMPDEST DUP2 CALLDATALOAD PUSH1 0x20 PUSH2 0x273F DUP3 PUSH2 0x3327 JUMP JUMPDEST PUSH1 0x40 MLOAD PUSH2 0x274C DUP3 DUP3 PUSH2 0x343A JUMP JUMPDEST DUP4 DUP2 MSTORE DUP3 DUP2 ADD SWAP2 POP DUP6 DUP4 ADD PUSH1 0x5 DUP6 SWAP1 SHL DUP8 ADD DUP5 ADD DUP12 LT ISZERO PUSH2 0x276C JUMPI PUSH1 0x0 DUP1 REVERT JUMPDEST PUSH1 0x0 SWAP7 POP JUMPDEST DUP5 DUP8 LT ISZERO PUSH2 0x2796 JUMPI PUSH2 0x2782 DUP2 PUSH2 0x246E JUMP JUMPDEST DUP4 MSTORE PUSH1 0x1 SWAP7 SWAP1 SWAP7 ADD SWAP6 SWAP2 DUP4 ADD SWAP2 DUP4 ADD PUSH2 0x2771 JUMP JUMPDEST POP SWAP7 POP POP DUP7 ADD CALLDATALOAD SWAP3 POP POP DUP1 DUP3 GT ISZERO PUSH2 0x27AD JUMPI PUSH1 0x0 DUP1 REVERT JUMPDEST POP PUSH2 0x27BA DUP6 DUP3 DUP7 ADD PUSH2 0x248A JUMP JUMPDEST SWAP2 POP POP SWAP3 POP SWAP3 SWAP1 POP JUMP JUMPDEST PUSH1 0x0 DUP1 PUSH1 0x20 DUP4 DUP6 SUB SLT ISZERO PUSH2 0x27D7 JUMPI PUSH1 0x0 DUP1 REVERT JUMPDEST DUP3 CALLDATALOAD PUSH1 0x1 PUSH1 0x1 PUSH1 0x40 SHL SUB DUP1 DUP3 GT ISZERO PUSH2 0x27EE JUMPI PUSH1 0x0 DUP1 REVERT JUMPDEST DUP2 DUP6 ADD SWAP2 POP DUP6 PUSH1 0x1F DUP4 ADD SLT PUSH2 0x2802 JUMPI PUSH1 0x0 DUP1 REVERT JUMPDEST DUP2 CALLDATALOAD DUP2 DUP2 GT ISZERO PUSH2 0x2811 JUMPI PUSH1 0x0 DUP1 REVERT JUMPDEST DUP7 PUSH1 0x20 DUP3 PUSH1 0x5 SHL DUP6 ADD ADD GT ISZERO PUSH2 0x2826 JUMPI PUSH1 0x0 DUP1 REVERT JUMPDEST PUSH1 0x20 SWAP3 SWAP1 SWAP3 ADD SWAP7 SWAP2 SWAP6 POP SWAP1 SWAP4 POP POP POP POP JUMP JUMPDEST PUSH1 0x0 PUSH1 0x20 DUP3 DUP5 SUB SLT ISZERO PUSH2 0x284A JUMPI PUSH1 0x0 DUP1 REVERT JUMPDEST DUP2 CALLDATALOAD PUSH2 0x1896 DUP2 PUSH2 0x3592 JUMP JUMPDEST PUSH1 0x0 PUSH1 0x20 DUP3 DUP5 SUB SLT ISZERO PUSH2 0x2867 JUMPI PUSH1 0x0 DUP1 REVERT JUMPDEST DUP2 MLOAD PUSH2 0x1896 DUP2 PUSH2 0x3592 JUMP JUMPDEST PUSH1 0x0 PUSH1 0x20 DUP3 DUP5 SUB SLT ISZERO PUSH2 0x2884 JUMPI PUSH1 0x0 DUP1 REVERT JUMPDEST DUP2 CALLDATALOAD PUSH1 0x1 PUSH1 0x1 PUSH1 0x40 SHL SUB DUP2 GT ISZERO PUSH2 0x289A JUMPI PUSH1 0x0 DUP1 REVERT JUMPDEST DUP3 ADD PUSH1 0x1F DUP2 ADD DUP5 SGT PUSH2 0x28AB JUMPI PUSH1 0x0 DUP1 REVERT JUMPDEST PUSH2 0x16FD DUP5 DUP3 CALLDATALOAD PUSH1 0x20 DUP5 ADD PUSH2 0x2428 JUMP JUMPDEST PUSH1 0x0 PUSH1 0x20 DUP3 DUP5 SUB SLT ISZERO PUSH2 0x28CC JUMPI PUSH1 0x0 DUP1 REVERT JUMPDEST DUP2 MLOAD PUSH1 0x1 PUSH1 0x1 PUSH1 0x40 SHL SUB DUP2 GT ISZERO PUSH2 0x28E2 JUMPI PUSH1 0x0 DUP1 REVERT JUMPDEST DUP3 ADD PUSH1 0x1F DUP2 ADD DUP5 SGT PUSH2 0x28F3 JUMPI PUSH1 0x0 DUP1 REVERT JUMPDEST DUP1 MLOAD PUSH2 0x28FE DUP2 PUSH2 0x334A JUMP JUMPDEST PUSH1 0x40 MLOAD PUSH2 0x290B DUP3 DUP3 PUSH2 0x343A JUMP JUMPDEST DUP3 DUP2 MSTORE DUP7 PUSH1 0x20 DUP5 DUP7 ADD ADD GT ISZERO PUSH2 0x2920 JUMPI PUSH1 0x0 DUP1 REVERT JUMPDEST PUSH2 0x2931 DUP4 PUSH1 0x20 DUP4 ADD PUSH1 0x20 DUP8 ADD PUSH2 0x33D3 JUMP JUMPDEST SWAP7 SWAP6 POP POP POP POP POP POP JUMP JUMPDEST PUSH1 0x0 PUSH1 0x20 DUP3 DUP5 SUB SLT ISZERO PUSH2 0x294D JUMPI PUSH1 0x0 DUP1 REVERT JUMPDEST POP CALLDATALOAD SWAP2 SWAP1 POP JUMP JUMPDEST PUSH1 0x0 DUP1 PUSH1 0x0 PUSH1 0x60 DUP5 DUP7 SUB SLT ISZERO PUSH2 0x2969 JUMPI PUSH1 0x0 DUP1 REVERT JUMPDEST DUP4 CALLDATALOAD SWAP3 POP PUSH2 0x2979 PUSH1 0x20 DUP6 ADD PUSH2 0x246E JUMP JUMPDEST SWAP2 POP PUSH1 0x40 DUP5 ADD CALLDATALOAD SWAP1 POP SWAP3 POP SWAP3 POP SWAP3 JUMP JUMPDEST PUSH1 0x0 DUP1 PUSH1 0x0 DUP1 PUSH1 0x0 DUP1 PUSH1 0xC0 DUP8 DUP10 SUB SLT ISZERO PUSH2 0x29A2 JUMPI PUSH1 0x0 DUP1 REVERT JUMPDEST DUP7 CALLDATALOAD SWAP6 POP PUSH2 0x29B2 PUSH1 0x20 DUP9 ADD PUSH2 0x2521 JUMP JUMPDEST SWAP5 POP PUSH2 0x29C0 PUSH1 0x40 DUP9 ADD PUSH2 0x2521 JUMP JUMPDEST SWAP4 POP PUSH2 0x29CE PUSH1 0x60 DUP9 ADD PUSH2 0x2521 JUMP JUMPDEST SWAP3 POP PUSH2 0x29DC PUSH1 0x80 DUP9 ADD PUSH2 0x2521 JUMP JUMPDEST SWAP2 POP PUSH2 0x29EA PUSH1 0xA0 DUP9 ADD PUSH2 0x2521 JUMP JUMPDEST SWAP1 POP SWAP3 SWAP6 POP SWAP3 SWAP6 POP SWAP3 SWAP6 JUMP JUMPDEST PUSH1 0x0 DUP1 PUSH1 0x40 DUP4 DUP6 SUB SLT ISZERO PUSH2 0x2A09 JUMPI PUSH1 0x0 DUP1 REVERT JUMPDEST POP POP DUP1 CALLDATALOAD SWAP3 PUSH1 0x20 SWAP1 SWAP2 ADD CALLDATALOAD SWAP2 POP JUMP JUMPDEST PUSH1 0x0 DUP2 MLOAD DUP1 DUP5 MSTORE PUSH1 0x20 DUP1 DUP6 ADD SWAP5 POP DUP1 DUP5 ADD PUSH1 0x0 JUMPDEST DUP4 DUP2 LT ISZERO PUSH2 0x2A48 JUMPI DUP2 MLOAD DUP8 MSTORE SWAP6 DUP3 ADD SWAP6 SWAP1 DUP3 ADD SWAP1 PUSH1 0x1 ADD PUSH2 0x2A2C JUMP JUMPDEST POP SWAP5 SWAP6 SWAP5 POP POP POP POP POP JUMP JUMPDEST PUSH1 0x0 DUP2 MLOAD DUP1 DUP5 MSTORE PUSH2 0x2A6B DUP2 PUSH1 0x20 DUP7 ADD PUSH1 0x20 DUP7 ADD PUSH2 0x33D3 JUMP JUMPDEST PUSH1 0x1F ADD PUSH1 0x1F NOT AND SWAP3 SWAP1 SWAP3 ADD PUSH1 0x20 ADD SWAP3 SWAP2 POP POP JUMP JUMPDEST PUSH1 0x0 DUP2 MLOAD PUSH2 0x2A91 DUP2 DUP6 PUSH1 0x20 DUP7 ADD PUSH2 0x33D3 JUMP JUMPDEST SWAP3 SWAP1 SWAP3 ADD SWAP3 SWAP2 POP POP JUMP JUMPDEST DUP1 SLOAD PUSH1 0x0 SWAP1 PUSH1 0x1 DUP2 DUP2 SHR SWAP1 DUP1 DUP4 AND DUP1 PUSH2 0x2AB5 JUMPI PUSH1 0x7F DUP4 AND SWAP3 POP JUMPDEST PUSH1 0x20 DUP1 DUP5 LT DUP3 EQ ISZERO PUSH2 0x2AD7 JUMPI PUSH4 0x4E487B71 PUSH1 0xE0 SHL PUSH1 0x0 MSTORE PUSH1 0x22 PUSH1 0x4 MSTORE PUSH1 0x24 PUSH1 0x0 REVERT JUMPDEST DUP2 DUP1 ISZERO PUSH2 0x2AEB JUMPI PUSH1 0x1 DUP2 EQ PUSH2 0x2AFC JUMPI PUSH2 0x2B29 JUMP JUMPDEST PUSH1 0xFF NOT DUP7 AND DUP10 MSTORE DUP5 DUP10 ADD SWAP7 POP PUSH2 0x2B29 JUMP JUMPDEST PUSH1 0x0 DUP9 DUP2 MSTORE PUSH1 0x20 SWAP1 KECCAK256 PUSH1 0x0 JUMPDEST DUP7 DUP2 LT ISZERO PUSH2 0x2B21 JUMPI DUP2 SLOAD DUP12 DUP3 ADD MSTORE SWAP1 DUP6 ADD SWAP1 DUP4 ADD PUSH2 0x2B08 JUMP JUMPDEST POP POP DUP5 DUP10 ADD SWAP7 POP JUMPDEST POP POP POP POP POP POP SWAP3 SWAP2 POP POP JUMP JUMPDEST PUSH1 0x0 DUP3 MLOAD PUSH2 0x2B47 DUP2 DUP5 PUSH1 0x20 DUP8 ADD PUSH2 0x33D3 JUMP JUMPDEST SWAP2 SWAP1 SWAP2 ADD SWAP3 SWAP2 POP POP JUMP JUMPDEST PUSH1 0x0 DUP8 MLOAD PUSH2 0x2B63 DUP2 DUP5 PUSH1 0x20 DUP13 ADD PUSH2 0x33D3 JUMP JUMPDEST DUP1 DUP4 ADD SWAP1 POP PUSH32 0x7B2274726169745F74797065223A2022476F616C73222C2276616C7565223A20 DUP2 MSTORE PUSH1 0x11 PUSH1 0xF9 SHL PUSH1 0x20 DUP3 ADD MSTORE DUP8 MLOAD PUSH2 0x2BA8 DUP2 PUSH1 0x21 DUP5 ADD PUSH1 0x20 DUP13 ADD PUSH2 0x33D3 JUMP JUMPDEST PUSH32 0x227D2C7B2274726169745F74797065223A20224C6576656C222C2276616C7565 PUSH1 0x21 SWAP3 SWAP1 SWAP2 ADD SWAP2 DUP3 ADD MSTORE PUSH4 0x111D1011 PUSH1 0xE1 SHL PUSH1 0x41 DUP3 ADD DUP2 SWAP1 MSTORE DUP8 MLOAD PUSH2 0x2BF5 DUP2 PUSH1 0x45 DUP6 ADD PUSH1 0x20 DUP13 ADD PUSH2 0x33D3 JUMP JUMPDEST PUSH32 0x227D2C7B2274726169745F74797065223A20225361766573222C2276616C7565 PUSH1 0x45 SWAP4 SWAP1 SWAP2 ADD SWAP3 DUP4 ADD MSTORE PUSH1 0x65 DUP3 ADD MSTORE DUP6 MLOAD PUSH2 0x2C38 DUP2 PUSH1 0x69 DUP5 ADD PUSH1 0x20 DUP11 ADD PUSH2 0x33D3 JUMP JUMPDEST PUSH2 0x2CD6 PUSH2 0x2CC6 PUSH2 0x2CC0 PUSH2 0x2C8A PUSH2 0x2C84 PUSH1 0x69 DUP7 DUP9 ADD ADD PUSH32 0x227D2C7B2274726169745F74797065223A2022417373697374222C2276616C75 DUP2 MSTORE PUSH5 0x32911D1011 PUSH1 0xD9 SHL PUSH1 0x20 DUP3 ADD MSTORE PUSH1 0x25 ADD SWAP1 JUMP JUMPDEST DUP11 PUSH2 0x2A7F JUMP JUMPDEST PUSH32 0x227D2C7B2274726169745F74797065223A202253636F7265222C2276616C7565 DUP2 MSTORE PUSH4 0x111D1011 PUSH1 0xE1 SHL PUSH1 0x20 DUP3 ADD MSTORE PUSH1 0x24 ADD SWAP1 JUMP JUMPDEST DUP8 PUSH2 0x2A7F JUMP JUMPDEST PUSH4 0x227D5D7D PUSH1 0xE0 SHL DUP2 MSTORE PUSH1 0x4 ADD SWAP1 JUMP JUMPDEST SWAP11 SWAP10 POP POP POP POP POP POP POP POP POP POP JUMP JUMPDEST PUSH1 0x0 DUP7 MLOAD PUSH1 0x20 PUSH2 0x2CF7 DUP3 DUP6 DUP4 DUP13 ADD PUSH2 0x33D3 JUMP JUMPDEST PUSH32 0x7B2274726169745F74797065223A20224E616D65222C2276616C7565223A2022 SWAP2 DUP5 ADD SWAP2 DUP3 MSTORE DUP8 MLOAD PUSH2 0x2D2F DUP2 DUP4 DUP6 ADD DUP5 DUP13 ADD PUSH2 0x33D3 JUMP JUMPDEST PUSH32 0x227D2C7B2274726169745F74797065223A2022506F736974696F6E222C227661 SWAP3 ADD DUP2 DUP2 ADD SWAP3 SWAP1 SWAP3 MSTORE PUSH7 0x363AB2911D1011 PUSH1 0xC9 SHL PUSH1 0x40 DUP4 ADD DUP2 SWAP1 MSTORE DUP8 MLOAD PUSH2 0x2D7D DUP2 PUSH1 0x47 DUP7 ADD DUP12 DUP7 ADD PUSH2 0x33D3 JUMP JUMPDEST PUSH32 0x227D2C7B2274726169745F74797065223A202247616D65706C6179222C227661 PUSH1 0x47 SWAP5 SWAP1 SWAP2 ADD SWAP4 DUP5 ADD MSTORE PUSH1 0x67 DUP4 ADD MSTORE DUP6 MLOAD PUSH2 0x2DBF DUP2 PUSH1 0x6E DUP6 ADD DUP5 DUP11 ADD PUSH2 0x33D3 JUMP JUMPDEST PUSH32 0x227D2C7B2274726169745F74797065223A202247616D6573222C2276616C7565 PUSH1 0x6E SWAP4 SWAP1 SWAP2 ADD SWAP3 DUP4 ADD MSTORE POP PUSH4 0x111D1011 PUSH1 0xE1 SHL PUSH1 0x8E DUP3 ADD MSTORE PUSH2 0x2E17 PUSH2 0x2E08 PUSH1 0x92 DUP4 ADD DUP7 PUSH2 0x2A7F JUMP JUMPDEST PUSH3 0x89F4B PUSH1 0xEA SHL DUP2 MSTORE PUSH1 0x3 ADD SWAP1 JUMP JUMPDEST SWAP9 SWAP8 POP POP POP POP POP POP POP POP JUMP JUMPDEST PUSH1 0x0 PUSH2 0x1896 DUP3 DUP5 PUSH2 0x2A9B JUMP JUMPDEST PUSH10 0x2A32B0B69027232A109 PUSH1 0xB5 SHL DUP2 MSTORE PUSH1 0x0 PUSH2 0x1896 PUSH1 0xA DUP4 ADD DUP5 PUSH2 0x2A9B JUMP JUMPDEST PUSH12 0x2AB734B8BAB29027232A109 PUSH1 0xA5 SHL DUP2 MSTORE PUSH1 0x0 PUSH2 0x1896 PUSH1 0xC DUP4 ADD DUP5 PUSH2 0x2A9B JUMP JUMPDEST PUSH9 0x283630B1B29018909 PUSH1 0xBD SHL DUP2 MSTORE PUSH1 0x0 PUSH2 0x1896 PUSH1 0x9 DUP4 ADD DUP5 PUSH2 0x2A9B JUMP JUMPDEST PUSH10 0x3D913730B6B2911D1011 PUSH1 0xB1 SHL DUP2 MSTORE DUP4 MLOAD PUSH1 0x0 SWAP1 PUSH2 0x2EB3 DUP2 PUSH1 0xA DUP6 ADD PUSH1 0x20 DUP10 ADD PUSH2 0x33D3 JUMP JUMPDEST PUSH19 0x111610113232B9B1B934B83A34B7B7111D1011 PUSH1 0x69 SHL PUSH1 0xA SWAP2 DUP5 ADD SWAP2 DUP3 ADD MSTORE DUP5 MLOAD PUSH2 0x2EE6 DUP2 PUSH1 0x1D DUP5 ADD PUSH1 0x20 DUP10 ADD PUSH2 0x33D3 JUMP JUMPDEST PUSH32 0x222C2022696D616765223A2022646174613A696D6167652F7376672B786D6C3B PUSH1 0x1D SWAP3 SWAP1 SWAP2 ADD SWAP2 DUP3 ADD MSTORE PUSH7 0x18985CD94D8D0B PUSH1 0xCA SHL PUSH1 0x3D DUP3 ADD MSTORE DUP4 MLOAD PUSH2 0x2F34 DUP2 PUSH1 0x44 DUP5 ADD PUSH1 0x20 DUP9 ADD PUSH2 0x33D3 JUMP JUMPDEST PUSH18 0x222C202261747472696275746573223A205B PUSH1 0x70 SHL PUSH1 0x44 SWAP3 SWAP1 SWAP2 ADD SWAP2 DUP3 ADD MSTORE PUSH1 0x56 ADD SWAP6 SWAP5 POP POP POP POP POP JUMP JUMPDEST PUSH9 0x283630B1B29019909 PUSH1 0xBD SHL DUP2 MSTORE PUSH1 0x0 PUSH2 0x1896 PUSH1 0x9 DUP4 ADD DUP5 PUSH2 0x2A9B JUMP JUMPDEST PUSH32 0x646174613A6170706C69636174696F6E2F6A736F6E3B6261736536342C000000 DUP2 MSTORE PUSH1 0x0 DUP3 MLOAD PUSH2 0x2FB6 DUP2 PUSH1 0x1D DUP6 ADD PUSH1 0x20 DUP8 ADD PUSH2 0x33D3 JUMP JUMPDEST SWAP2 SWAP1 SWAP2 ADD PUSH1 0x1D ADD SWAP3 SWAP2 POP POP JUMP JUMPDEST PUSH9 0x283630B1B29019109 PUSH1 0xBD SHL DUP2 MSTORE PUSH1 0x0 PUSH2 0x1896 PUSH1 0x9 DUP4 ADD DUP5 PUSH2 0x2A9B JUMP JUMPDEST PUSH1 0x1 PUSH1 0x1 PUSH1 0xA0 SHL SUB DUP7 DUP2 AND DUP3 MSTORE DUP6 AND PUSH1 0x20 DUP3 ADD MSTORE PUSH1 0xA0 PUSH1 0x40 DUP3 ADD DUP2 SWAP1 MSTORE PUSH1 0x0 SWAP1 PUSH2 0x300D SWAP1 DUP4 ADD DUP7 PUSH2 0x2A18 JUMP JUMPDEST DUP3 DUP2 SUB PUSH1 0x60 DUP5 ADD MSTORE PUSH2 0x301F DUP2 DUP7 PUSH2 0x2A18 JUMP JUMPDEST SWAP1 POP DUP3 DUP2 SUB PUSH1 0x80 DUP5 ADD MSTORE PUSH2 0x2E17 DUP2 DUP6 PUSH2 0x2A53 JUMP JUMPDEST PUSH1 0x1 PUSH1 0x1 PUSH1 0xA0 SHL SUB DUP7 DUP2 AND DUP3 MSTORE DUP6 AND PUSH1 0x20 DUP3 ADD MSTORE PUSH1 0x40 DUP2 ADD DUP5 SWAP1 MSTORE PUSH1 0x60 DUP2 ADD DUP4 SWAP1 MSTORE PUSH1 0xA0 PUSH1 0x80 DUP3 ADD DUP2 SWAP1 MSTORE PUSH1 0x0 SWAP1 PUSH2 0x306D SWAP1 DUP4 ADD DUP5 PUSH2 0x2A53 JUMP JUMPDEST SWAP8 SWAP7 POP POP POP POP POP POP POP JUMP JUMPDEST PUSH1 0x20 DUP1 DUP3 MSTORE DUP3 MLOAD DUP3 DUP3 ADD DUP2 SWAP1 MSTORE PUSH1 0x0 SWAP2 SWAP1 DUP5 DUP3 ADD SWAP1 PUSH1 0x40 DUP6 ADD SWAP1 DUP5 JUMPDEST DUP2 DUP2 LT ISZERO PUSH2 0x30B9 JUMPI DUP4 MLOAD PUSH1 0x1 PUSH1 0x1 PUSH1 0xA0 SHL SUB AND DUP4 MSTORE SWAP3 DUP5 ADD SWAP3 SWAP2 DUP5 ADD SWAP2 PUSH1 0x1 ADD PUSH2 0x3094 JUMP JUMPDEST POP SWAP1 SWAP7 SWAP6 POP POP POP POP POP POP JUMP JUMPDEST PUSH1 0x20 DUP2 MSTORE PUSH1 0x0 PUSH2 0x1896 PUSH1 0x20 DUP4 ADD DUP5 PUSH2 0x2A18 JUMP JUMPDEST PUSH1 0x40 DUP2 MSTORE PUSH1 0x0 PUSH2 0x30EB PUSH1 0x40 DUP4 ADD DUP6 PUSH2 0x2A18 JUMP JUMPDEST DUP3 DUP2 SUB PUSH1 0x20 DUP5 ADD MSTORE PUSH2 0x30FD DUP2 DUP6 PUSH2 0x2A18 JUMP JUMPDEST SWAP6 SWAP5 POP POP POP POP POP JUMP JUMPDEST PUSH1 0x20 DUP2 MSTORE PUSH1 0x0 PUSH2 0x1896 PUSH1 0x20 DUP4 ADD DUP5 PUSH2 0x2A53 JUMP JUMPDEST PUSH1 0x20 DUP1 DUP3 MSTORE PUSH1 0x28 SWAP1 DUP3 ADD MSTORE PUSH32 0x455243313135353A204552433131353552656365697665722072656A65637465 PUSH1 0x40 DUP3 ADD MSTORE PUSH8 0x6420746F6B656E73 PUSH1 0xC0 SHL PUSH1 0x60 DUP3 ADD MSTORE PUSH1 0x80 ADD SWAP1 JUMP JUMPDEST PUSH1 0x20 DUP1 DUP3 MSTORE PUSH1 0x15 SWAP1 DUP3 ADD MSTORE PUSH21 0x139BDD0813DDDB995C881BD98810DBDB9D1C9858DD PUSH1 0x5A SHL PUSH1 0x40 DUP3 ADD MSTORE PUSH1 0x60 ADD SWAP1 JUMP JUMPDEST PUSH1 0x20 DUP1 DUP3 MSTORE PUSH1 0x25 SWAP1 DUP3 ADD MSTORE PUSH32 0x455243313135353A207472616E7366657220746F20746865207A65726F206164 PUSH1 0x40 DUP3 ADD MSTORE PUSH5 0x6472657373 PUSH1 0xD8 SHL PUSH1 0x60 DUP3 ADD MSTORE PUSH1 0x80 ADD SWAP1 JUMP JUMPDEST PUSH1 0x20 DUP1 DUP3 MSTORE PUSH1 0x2A SWAP1 DUP3 ADD MSTORE PUSH32 0x455243313135353A20696E73756666696369656E742062616C616E636520666F PUSH1 0x40 DUP3 ADD MSTORE PUSH10 0x39103A3930B739B332B9 PUSH1 0xB1 SHL PUSH1 0x60 DUP3 ADD MSTORE PUSH1 0x80 ADD SWAP1 JUMP JUMPDEST PUSH1 0x20 DUP1 DUP3 MSTORE PUSH1 0x28 SWAP1 DUP3 ADD MSTORE PUSH32 0x4E6F74205065726D6973696F6E20746F20696E74657261637420776974682063 PUSH1 0x40 DUP3 ADD MSTORE PUSH8 0x1C99585D19539195 PUSH1 0xC2 SHL PUSH1 0x60 DUP3 ADD MSTORE PUSH1 0x80 ADD SWAP1 JUMP JUMPDEST PUSH1 0x80 DUP2 MSTORE DUP5 MLOAD PUSH1 0x80 DUP3 ADD MSTORE PUSH1 0x20 DUP6 ADD MLOAD PUSH1 0xA0 DUP3 ADD MSTORE PUSH1 0x40 DUP6 ADD MLOAD PUSH1 0xC0 DUP3 ADD MSTORE PUSH1 0x60 DUP6 ADD MLOAD PUSH1 0xE0 DUP3 ADD MSTORE PUSH1 0x0 PUSH1 0x80 DUP7 ADD MLOAD PUSH2 0x100 DUP2 DUP2 DUP6 ADD MSTORE PUSH1 0xA0 DUP9 ADD MLOAD SWAP2 POP PUSH2 0x120 DUP3 DUP2 DUP7 ADD MSTORE PUSH1 0xC0 DUP10 ADD MLOAD SWAP3 POP DUP1 PUSH2 0x140 DUP7 ADD MSTORE POP PUSH2 0x32CB PUSH2 0x1A0 DUP6 ADD DUP4 PUSH2 0x2A53 JUMP JUMPDEST SWAP2 POP PUSH1 0xE0 DUP9 ADD MLOAD PUSH1 0x7F NOT DUP1 DUP7 DUP6 SUB ADD PUSH2 0x160 DUP8 ADD MSTORE PUSH2 0x32EA DUP5 DUP4 PUSH2 0x2A53 JUMP JUMPDEST SWAP4 POP DUP3 DUP11 ADD MLOAD SWAP3 POP DUP1 DUP7 DUP6 SUB ADD PUSH2 0x180 DUP8 ADD MSTORE POP POP PUSH2 0x3309 DUP3 DUP3 PUSH2 0x2A53 JUMP JUMPDEST PUSH1 0x20 DUP6 ADD SWAP8 SWAP1 SWAP8 MSTORE POP POP POP PUSH1 0x40 DUP2 ADD SWAP3 SWAP1 SWAP3 MSTORE PUSH1 0x60 SWAP1 SWAP2 ADD MSTORE SWAP2 SWAP1 POP JUMP JUMPDEST PUSH1 0x0 PUSH1 0x1 PUSH1 0x1 PUSH1 0x40 SHL SUB DUP3 GT ISZERO PUSH2 0x3340 JUMPI PUSH2 0x3340 PUSH2 0x34D7 JUMP JUMPDEST POP PUSH1 0x5 SHL PUSH1 0x20 ADD SWAP1 JUMP JUMPDEST PUSH1 0x0 PUSH1 0x1 PUSH1 0x1 PUSH1 0x40 SHL SUB DUP3 GT ISZERO PUSH2 0x3363 JUMPI PUSH2 0x3363 PUSH2 0x34D7 JUMP JUMPDEST POP PUSH1 0x1F ADD PUSH1 0x1F NOT AND PUSH1 0x20 ADD SWAP1 JUMP JUMPDEST PUSH1 0x0 DUP3 NOT DUP3 GT ISZERO PUSH2 0x3384 JUMPI PUSH2 0x3384 PUSH2 0x3495 JUMP JUMPDEST POP ADD SWAP1 JUMP JUMPDEST PUSH1 0x0 DUP3 PUSH2 0x3398 JUMPI PUSH2 0x3398 PUSH2 0x34AB JUMP JUMPDEST POP DIV SWAP1 JUMP JUMPDEST PUSH1 0x0 DUP2 PUSH1 0x0 NOT DIV DUP4 GT DUP3 ISZERO ISZERO AND ISZERO PUSH2 0x33B7 JUMPI PUSH2 0x33B7 PUSH2 0x3495 JUMP JUMPDEST POP MUL SWAP1 JUMP JUMPDEST PUSH1 0x0 DUP3 DUP3 LT ISZERO PUSH2 0x33CE JUMPI PUSH2 0x33CE PUSH2 0x3495 JUMP JUMPDEST POP SUB SWAP1 JUMP JUMPDEST PUSH1 0x0 JUMPDEST DUP4 DUP2 LT ISZERO PUSH2 0x33EE JUMPI DUP2 DUP2 ADD MLOAD DUP4 DUP3 ADD MSTORE PUSH1 0x20 ADD PUSH2 0x33D6 JUMP JUMPDEST DUP4 DUP2 GT ISZERO PUSH2 0x13BD JUMPI POP POP PUSH1 0x0 SWAP2 ADD MSTORE JUMP JUMPDEST PUSH1 0x1 DUP2 DUP2 SHR SWAP1 DUP3 AND DUP1 PUSH2 0x3413 JUMPI PUSH1 0x7F DUP3 AND SWAP2 POP JUMPDEST PUSH1 0x20 DUP3 LT DUP2 EQ ISZERO PUSH2 0x3434 JUMPI PUSH4 0x4E487B71 PUSH1 0xE0 SHL PUSH1 0x0 MSTORE PUSH1 0x22 PUSH1 0x4 MSTORE PUSH1 0x24 PUSH1 0x0 REVERT JUMPDEST POP SWAP2 SWAP1 POP JUMP JUMPDEST PUSH1 0x1F DUP3 ADD PUSH1 0x1F NOT AND DUP2 ADD PUSH1 0x1 PUSH1 0x1 PUSH1 0x40 SHL SUB DUP2 GT DUP3 DUP3 LT OR ISZERO PUSH2 0x345F JUMPI PUSH2 0x345F PUSH2 0x34D7 JUMP JUMPDEST PUSH1 0x40 MSTORE POP POP JUMP JUMPDEST PUSH1 0x0 PUSH1 0x0 NOT DUP3 EQ ISZERO PUSH2 0x347A JUMPI PUSH2 0x347A PUSH2 0x3495 JUMP JUMPDEST POP PUSH1 0x1 ADD SWAP1 JUMP JUMPDEST PUSH1 0x0 DUP3 PUSH2 0x3490 JUMPI PUSH2 0x3490 PUSH2 0x34AB JUMP JUMPDEST POP MOD SWAP1 JUMP JUMPDEST PUSH4 0x4E487B71 PUSH1 0xE0 SHL PUSH1 0x0 MSTORE PUSH1 0x11 PUSH1 0x4 MSTORE PUSH1 0x24 PUSH1 0x0 REVERT JUMPDEST PUSH4 0x4E487B71 PUSH1 0xE0 SHL PUSH1 0x0 MSTORE PUSH1 0x12 PUSH1 0x4 MSTORE PUSH1 0x24 PUSH1 0x0 REVERT JUMPDEST PUSH4 0x4E487B71 PUSH1 0xE0 SHL PUSH1 0x0 MSTORE PUSH1 0x32 PUSH1 0x4 MSTORE PUSH1 0x24 PUSH1 0x0 REVERT JUMPDEST PUSH4 0x4E487B71 PUSH1 0xE0 SHL PUSH1 0x0 MSTORE PUSH1 0x41 PUSH1 0x4 MSTORE PUSH1 0x24 PUSH1 0x0 REVERT JUMPDEST PUSH1 0x0 PUSH1 0x3 RETURNDATASIZE GT ISZERO PUSH2 0x3506 JUMPI PUSH1 0x4 PUSH1 0x0 DUP1 RETURNDATACOPY POP PUSH1 0x0 MLOAD PUSH1 0xE0 SHR JUMPDEST SWAP1 JUMP JUMPDEST PUSH1 0x0 PUSH1 0x44 RETURNDATASIZE LT ISZERO PUSH2 0x3517 JUMPI SWAP1 JUMP JUMPDEST PUSH1 0x40 MLOAD PUSH1 0x3 NOT RETURNDATASIZE DUP2 ADD PUSH1 0x4 DUP4 RETURNDATACOPY DUP2 MLOAD RETURNDATASIZE PUSH1 0x1 PUSH1 0x1 PUSH1 0x40 SHL SUB DUP2 PUSH1 0x24 DUP5 ADD GT DUP2 DUP5 GT OR ISZERO PUSH2 0x3546 JUMPI POP POP POP POP POP SWAP1 JUMP JUMPDEST DUP3 DUP6 ADD SWAP2 POP DUP2 MLOAD DUP2 DUP2 GT ISZERO PUSH2 0x355E JUMPI POP POP POP POP POP POP SWAP1 JUMP JUMPDEST DUP5 RETURNDATASIZE DUP8 ADD ADD PUSH1 0x20 DUP3 DUP6 ADD ADD GT ISZERO PUSH2 0x3578 JUMPI POP POP POP POP POP POP SWAP1 JUMP JUMPDEST PUSH2 0x3587 PUSH1 0x20 DUP3 DUP7 ADD ADD DUP8 PUSH2 0x343A JUMP JUMPDEST POP SWAP1 SWAP6 SWAP5 POP POP POP POP POP JUMP JUMPDEST PUSH1 0x1 PUSH1 0x1 PUSH1 0xE0 SHL SUB NOT DUP2 AND DUP2 EQ PUSH2 0x35A8 JUMPI PUSH1 0x0 DUP1 REVERT JUMPDEST POP JUMP INVALID COINBASE TIMESTAMP NUMBER DIFFICULTY GASLIMIT CHAINID SELFBALANCE BASEFEE 0x49 0x4A 0x4B 0x4C 0x4D 0x4E 0x4F POP MLOAD MSTORE MSTORE8 SLOAD SSTORE JUMP JUMPI PC MSIZE GAS PUSH2 0x6263 PUSH5 0x6566676869 PUSH11 0x6B6C6D6E6F707172737475 PUSH23 0x7778797A303132333435363738392B2FA2646970667358 0x22 SLT KECCAK256 STATICCALL 0xBE STOP SWAP15 MULMOD PUSH8 0x898C841C3892633C 0xC4 DUP4 RETURN GASPRICE 0xB7 RETURNDATACOPY SWAP5 CALLER 0xC NOT STOP NUMBER SLT 0xBB 0xA9 0xC5 0xBA JUMPDEST PUSH5 0x736F6C6343 STOP ADDMOD SMOD STOP CALLER DIFFICULTY PUSH10 0x73636C61696D65723A20 SLOAD PUSH9 0x652073636F7065206F PUSH7 0x20746865207072 PUSH16 0x6A6563742069732077697468696E2074 PUSH9 0x6520426C6F636B6368 PUSH2 0x696E KECCAK256 NUMBER PUSH9 0x616C6C656E67652032 ADDRESS ORIGIN ORIGIN KECCAK256 PUSH13 0x656374757265206F6666657265 PUSH5 0x2062792074 PUSH9 0x6520556E6976657273 PUSH10 0x7479206F662042617365 PUSH13 0x2E205468652070726F6A656374 KECCAK256 PUSH24 0x696C6C2072656D61696E2077697468696E20746865207465 PUSH20 0x74206E65742E20546865204E4654732077696C6C KECCAK256 PUSH15 0x6576657220626520736F6C64206E6F PUSH19 0x20697320746865726520616E792066696E616E PUSH4 0x69616C20 PUSH10 0x6E746572657374206174 KECCAK256 PUSH9 0x616E64206279207468 PUSH6 0x206F776E6572 PUSH20 0x206F722074686520636F7572736520726573706F PUSH15 0x7369626C652E000000000000000000 "
		},
		"gasEstimates": {
			"creation": {
				"codeDepositCost": "2771400",
				"executionCost": "infinite",
				"totalCost": "infinite"
			},
			"external": {
				"addDistribution(uint256[])": "infinite",
				"addScore(uint256,uint256)": "26767",
				"balanceOf(address,uint256)": "2695",
				"balanceOfBatch(address[],uint256[])": "infinite",
				"burnPlayer(uint256,address,uint256)": "infinite",
				"changeMintingProcess(address,address)": "infinite",
				"changeOwner(address)": "26822",
				"getAddresses()": "infinite",
				"getScoreFromPlayer(uint256)": "infinite",
				"isApprovedForAll(address,address)": "infinite",
				"mintPlayer(uint256,address,uint256)": "infinite",
				"name()": "infinite",
				"safeBatchTransferFrom(address,address,uint256[],uint256[],bytes)": "infinite",
				"safeTransferFrom(address,address,uint256,uint256,bytes)": "infinite",
				"setApprovalForAll(address,bool)": "26753",
				"supportsInterface(bytes4)": "567",
				"updateDesciption(string)": "infinite",
				"updatePlayer(uint256,uint16,uint16,uint16,uint16,uint16)": "infinite",
				"uri(uint256)": "infinite"
			},
			"internal": {
				"_addPlayer(string memory,string memory,uint16,uint16,uint16,uint16,uint16,string memory)": "infinite",
				"_getScoreFromPlayer(uint256)": "infinite"
			}
		},
		"methodIdentifiers": {
			"addDistribution(uint256[])": "d1ae4ea4",
			"addScore(uint256,uint256)": "ddcbf794",
			"balanceOf(address,uint256)": "00fdd58e",
			"balanceOfBatch(address[],uint256[])": "4e1273f4",
			"burnPlayer(uint256,address,uint256)": "995c9d77",
			"changeMintingProcess(address,address)": "c236fe44",
			"changeOwner(address)": "a6f9dae1",
			"getAddresses()": "a39fac12",
			"getScoreFromPlayer(uint256)": "203da719",
			"isApprovedForAll(address,address)": "e985e9c5",
			"mintPlayer(uint256,address,uint256)": "3feb9f7d",
			"name()": "06fdde03",
			"safeBatchTransferFrom(address,address,uint256[],uint256[],bytes)": "2eb2c2d6",
			"safeTransferFrom(address,address,uint256,uint256,bytes)": "f242432a",
			"setApprovalForAll(address,bool)": "a22cb465",
			"supportsInterface(bytes4)": "01ffc9a7",
			"updateDesciption(string)": "85ade74f",
			"updatePlayer(uint256,uint16,uint16,uint16,uint16,uint16)": "5c7a8d27",
			"uri(uint256)": "0e89341c"
		}
	},
	"abi": [
		{
			"inputs": [
				{
					"internalType": "address",
					"name": "_getPlayerSVG",
					"type": "address"
				},
				{
					"internalType": "string",
					"name": "_NFT_name",
					"type": "string"
				}
			],
			"stateMutability": "nonpayable",
			"type": "constructor"
		},
		{
			"anonymous": false,
			"inputs": [
				{
					"indexed": true,
					"internalType": "address",
					"name": "account",
					"type": "address"
				},
				{
					"indexed": true,
					"internalType": "address",
					"name": "operator",
					"type": "address"
				},
				{
					"indexed": false,
					"internalType": "bool",
					"name": "approved",
					"type": "bool"
				}
			],
			"name": "ApprovalForAll",
			"type": "event"
		},
		{
			"anonymous": false,
			"inputs": [
				{
					"indexed": false,
					"internalType": "uint256",
					"name": "idx",
					"type": "uint256"
				},
				{
					"indexed": true,
					"internalType": "address",
					"name": "nftOwner",
					"type": "address"
				},
				{
					"indexed": false,
					"internalType": "uint256",
					"name": "numberOfPlayer",
					"type": "uint256"
				}
			],
			"name": "Minting",
			"type": "event"
		},
		{
			"anonymous": false,
			"inputs": [
				{
					"indexed": true,
					"internalType": "address",
					"name": "operator",
					"type": "address"
				},
				{
					"indexed": true,
					"internalType": "address",
					"name": "from",
					"type": "address"
				},
				{
					"indexed": true,
					"internalType": "address",
					"name": "to",
					"type": "address"
				},
				{
					"indexed": false,
					"internalType": "uint256[]",
					"name": "ids",
					"type": "uint256[]"
				},
				{
					"indexed": false,
					"internalType": "uint256[]",
					"name": "values",
					"type": "uint256[]"
				}
			],
			"name": "TransferBatch",
			"type": "event"
		},
		{
			"anonymous": false,
			"inputs": [
				{
					"indexed": true,
					"internalType": "address",
					"name": "operator",
					"type": "address"
				},
				{
					"indexed": true,
					"internalType": "address",
					"name": "from",
					"type": "address"
				},
				{
					"indexed": true,
					"internalType": "address",
					"name": "to",
					"type": "address"
				},
				{
					"indexed": false,
					"internalType": "uint256",
					"name": "id",
					"type": "uint256"
				},
				{
					"indexed": false,
					"internalType": "uint256",
					"name": "value",
					"type": "uint256"
				}
			],
			"name": "TransferSingle",
			"type": "event"
		},
		{
			"anonymous": false,
			"inputs": [
				{
					"indexed": false,
					"internalType": "string",
					"name": "value",
					"type": "string"
				},
				{
					"indexed": true,
					"internalType": "uint256",
					"name": "id",
					"type": "uint256"
				}
			],
			"name": "URI",
			"type": "event"
		},
		{
			"inputs": [
				{
					"internalType": "uint256[]",
					"name": "_distributionForRaffel",
					"type": "uint256[]"
				}
			],
			"name": "addDistribution",
			"outputs": [],
			"stateMutability": "nonpayable",
			"type": "function"
		},
		{
			"inputs": [
				{
					"internalType": "uint256",
					"name": "tokenId",
					"type": "uint256"
				},
				{
					"internalType": "uint256",
					"name": "_totalScore",
					"type": "uint256"
				}
			],
			"name": "addScore",
			"outputs": [],
			"stateMutability": "nonpayable",
			"type": "function"
		},
		{
			"inputs": [
				{
					"internalType": "address",
					"name": "account",
					"type": "address"
				},
				{
					"internalType": "uint256",
					"name": "id",
					"type": "uint256"
				}
			],
			"name": "balanceOf",
			"outputs": [
				{
					"internalType": "uint256",
					"name": "",
					"type": "uint256"
				}
			],
			"stateMutability": "view",
			"type": "function"
		},
		{
			"inputs": [
				{
					"internalType": "address[]",
					"name": "accounts",
					"type": "address[]"
				},
				{
					"internalType": "uint256[]",
					"name": "ids",
					"type": "uint256[]"
				}
			],
			"name": "balanceOfBatch",
			"outputs": [
				{
					"internalType": "uint256[]",
					"name": "",
					"type": "uint256[]"
				}
			],
			"stateMutability": "view",
			"type": "function"
		},
		{
			"inputs": [
				{
					"internalType": "uint256",
					"name": "_idx",
					"type": "uint256"
				},
				{
					"internalType": "address",
					"name": "nftOwner",
					"type": "address"
				},
				{
					"internalType": "uint256",
					"name": "numberOfPlayer",
					"type": "uint256"
				}
			],
			"name": "burnPlayer",
			"outputs": [],
			"stateMutability": "nonpayable",
			"type": "function"
		},
		{
			"inputs": [
				{
					"internalType": "address",
					"name": "_contractOfMintingProcess",
					"type": "address"
				},
				{
					"internalType": "address",
					"name": "__contractOfInterface",
					"type": "address"
				}
			],
			"name": "changeMintingProcess",
			"outputs": [],
			"stateMutability": "nonpayable",
			"type": "function"
		},
		{
			"inputs": [
				{
					"internalType": "address",
					"name": "_newOwner",
					"type": "address"
				}
			],
			"name": "changeOwner",
			"outputs": [],
			"stateMutability": "nonpayable",
			"type": "function"
		},
		{
			"inputs": [],
			"name": "getAddresses",
			"outputs": [
				{
					"internalType": "address[]",
					"name": "nft_addresses",
					"type": "address[]"
				}
			],
			"stateMutability": "view",
			"type": "function"
		},
		{
			"inputs": [
				{
					"internalType": "uint256",
					"name": "tokenId",
					"type": "uint256"
				}
			],
			"name": "getScoreFromPlayer",
			"outputs": [
				{
					"internalType": "uint256",
					"name": "_score",
					"type": "uint256"
				}
			],
			"stateMutability": "view",
			"type": "function"
		},
		{
			"inputs": [
				{
					"internalType": "address",
					"name": "account",
					"type": "address"
				},
				{
					"internalType": "address",
					"name": "operator",
					"type": "address"
				}
			],
			"name": "isApprovedForAll",
			"outputs": [
				{
					"internalType": "bool",
					"name": "",
					"type": "bool"
				}
			],
			"stateMutability": "view",
			"type": "function"
		},
		{
			"inputs": [
				{
					"internalType": "uint256",
					"name": "idx",
					"type": "uint256"
				},
				{
					"internalType": "address",
					"name": "nftOwner",
					"type": "address"
				},
				{
					"internalType": "uint256",
					"name": "numberOfPlayer",
					"type": "uint256"
				}
			],
			"name": "mintPlayer",
			"outputs": [],
			"stateMutability": "nonpayable",
			"type": "function"
		},
		{
			"inputs": [],
			"name": "name",
			"outputs": [
				{
					"internalType": "string",
					"name": "",
					"type": "string"
				}
			],
			"stateMutability": "view",
			"type": "function"
		},
		{
			"inputs": [
				{
					"internalType": "address",
					"name": "from",
					"type": "address"
				},
				{
					"internalType": "address",
					"name": "to",
					"type": "address"
				},
				{
					"internalType": "uint256[]",
					"name": "ids",
					"type": "uint256[]"
				},
				{
					"internalType": "uint256[]",
					"name": "amounts",
					"type": "uint256[]"
				},
				{
					"internalType": "bytes",
					"name": "data",
					"type": "bytes"
				}
			],
			"name": "safeBatchTransferFrom",
			"outputs": [],
			"stateMutability": "nonpayable",
			"type": "function"
		},
		{
			"inputs": [
				{
					"internalType": "address",
					"name": "from",
					"type": "address"
				},
				{
					"internalType": "address",
					"name": "to",
					"type": "address"
				},
				{
					"internalType": "uint256",
					"name": "id",
					"type": "uint256"
				},
				{
					"internalType": "uint256",
					"name": "amount",
					"type": "uint256"
				},
				{
					"internalType": "bytes",
					"name": "data",
					"type": "bytes"
				}
			],
			"name": "safeTransferFrom",
			"outputs": [],
			"stateMutability": "nonpayable",
			"type": "function"
		},
		{
			"inputs": [
				{
					"internalType": "address",
					"name": "operator",
					"type": "address"
				},
				{
					"internalType": "bool",
					"name": "approved",
					"type": "bool"
				}
			],
			"name": "setApprovalForAll",
			"outputs": [],
			"stateMutability": "nonpayable",
			"type": "function"
		},
		{
			"inputs": [
				{
					"internalType": "bytes4",
					"name": "interfaceId",
					"type": "bytes4"
				}
			],
			"name": "supportsInterface",
			"outputs": [
				{
					"internalType": "bool",
					"name": "",
					"type": "bool"
				}
			],
			"stateMutability": "view",
			"type": "function"
		},
		{
			"inputs": [
				{
					"internalType": "string",
					"name": "_img_description",
					"type": "string"
				}
			],
			"name": "updateDesciption",
			"outputs": [],
			"stateMutability": "nonpayable",
			"type": "function"
		},
		{
			"inputs": [
				{
					"internalType": "uint256",
					"name": "player",
					"type": "uint256"
				},
				{
					"internalType": "uint16",
					"name": "_gameplay",
					"type": "uint16"
				},
				{
					"internalType": "uint16",
					"name": "_numberOfGames",
					"type": "uint16"
				},
				{
					"internalType": "uint16",
					"name": "_goals",
					"type": "uint16"
				},
				{
					"internalType": "uint16",
					"name": "_assist",
					"type": "uint16"
				},
				{
					"internalType": "uint16",
					"name": "_saves",
					"type": "uint16"
				}
			],
			"name": "updatePlayer",
			"outputs": [],
			"stateMutability": "nonpayable",
			"type": "function"
		},
		{
			"inputs": [
				{
					"internalType": "uint256",
					"name": "tokenId",
					"type": "uint256"
				}
			],
			"name": "uri",
			"outputs": [
				{
					"internalType": "string",
					"name": "output",
					"type": "string"
				}
			],
			"stateMutability": "view",
			"type": "function"
		}
	]
}