{
	"data": {
		"bytecode": {
			"linkReferences": {},
			"object": "60806040523480156200001157600080fd5b50604051620013cb380380620013cb8339810160408190526200003491620000b4565b600080546001600160a01b03199081166001600160a01b0397881617909155600180548216958716959095179094556002805485169386169390931790925560038054841691851691909117905560048054909216921691909117905562000124565b80516001600160a01b0381168114620000af57600080fd5b919050565b600080600080600060a08688031215620000cd57600080fd5b620000d88662000097565b9450620000e86020870162000097565b9350620000f86040870162000097565b9250620001086060870162000097565b9150620001186080870162000097565b90509295509295909350565b61129780620001346000396000f3fe608060405234801561001057600080fd5b506004361061002b5760003560e01c80639b679c4a14610030575b600080fd5b61004361003e3660046109c5565b610059565b604051610050919061106d565b60405180910390f35b60606040518060800160405280604e81526020016111f4604e91399050806040516020016100879190610f59565b6040516020818303038152906040529050806040516020016100a99190610c4a565b60405160208183030381529060405290506100c58187866102bb565b905080866040516020016100da929190610cb8565b6040516020818303038152906040529050806100f58a6107f2565b604051602001610106929190610bd1565b604051602081830303815290604052905080610121896107f2565b604051602001610132929190610aac565b60405160208183030381529060405290508061014d886107f2565b60405160200161015e929190610b85565b60405160208183030381529060405290508085604051602001610182929190610b18565b6040516020818303038152906040529050826103e914156101c057806040516020016101ae9190610def565b60405160208183030381529060405290505b826103ea14156101ed57806040516020016101db9190610efa565b60405160208183030381529060405290505b826103eb141561021a57806040516020016102089190610d90565b60405160208183030381529060405290505b6298968083111561024857806040516020016102369190610d30565b60405160208183030381529060405290505b6107d08311801561025b57506298968183105b1561028d578061026a836107f2565b60405160200161027b929190610e4e565b60405160208183030381529060405290505b8060405160200161029e9190610ed0565b604051602081830303815290604052905098975050505050505050565b6060826040516020016102ce9190610a61565b60405160208183030381529060405280519060200120604051602001610309906e09cdec2d04096c2e8e8cae4c4c2c6d608b1b8152600f0190565b6040516020818303038152906040528051906020012014156103c85760025460405163be985ac960e01b81526004810184905285916001600160a01b03169063be985ac99060240160006040518083038186803b15801561036957600080fd5b505afa15801561037d573d6000803e3d6000fd5b505050506040513d6000823e601f3d908101601f191682016040526103a5919081019061094e565b6040516020016103b6929190610a7d565b60405160208183030381529060405290505b826040516020016103d99190610a61565b60405160208183030381529060405280519060200120604051602001610411906b105b991e4814195b1b585c9960a21b8152600c0190565b6040516020818303038152906040528051906020012014156104d05760005460405163be985ac960e01b81526004810184905285916001600160a01b03169063be985ac99060240160006040518083038186803b15801561047157600080fd5b505afa158015610485573d6000803e3d6000fd5b505050506040513d6000823e601f3d908101601f191682016040526104ad919081019061094e565b6040516020016104be929190610a7d565b60405160208183030381529060405290505b826040516020016104e19190610a61565b6040516020818303038152906040528051906020012060405160200161051a906c50616a74696d204b6173616d6960981b8152600d0190565b6040516020818303038152906040528051906020012014156105d95760035460405163be985ac960e01b81526004810184905285916001600160a01b03169063be985ac99060240160006040518083038186803b15801561057a57600080fd5b505afa15801561058e573d6000803e3d6000fd5b505050506040513d6000823e601f3d908101601f191682016040526105b6919081019061094e565b6040516020016105c7929190610a7d565b60405160208183030381529060405290505b826040516020016105ea9190610a61565b60405160208183030381529060405280519060200120604051602001610621906a2634b0b69026b4b63630b960a91b8152600b0190565b6040516020818303038152906040528051906020012014156106e05760015460405163be985ac960e01b81526004810184905285916001600160a01b03169063be985ac99060240160006040518083038186803b15801561068157600080fd5b505afa158015610695573d6000803e3d6000fd5b505050506040513d6000823e601f3d908101601f191682016040526106bd919081019061094e565b6040516020016106ce929190610a7d565b60405160208183030381529060405290505b826040516020016106f19190610a61565b6040516020818303038152906040528051906020012060405160200161072a906c2432b4b73d102634b7323732b960991b8152600d0190565b6040516020818303038152906040528051906020012014156107eb576004805460405163be985ac960e01b815291820184905285916001600160a01b039091169063be985ac99060240160006040518083038186803b15801561078c57600080fd5b505afa1580156107a0573d6000803e3d6000fd5b505050506040513d6000823e601f3d908101601f191682016040526107c8919081019061094e565b6040516020016107d9929190610a7d565b60405160208183030381529060405290505b9392505050565b6060816108165750506040805180820190915260018152600360fc1b602082015290565b8160005b8115610840578061082a8161116c565b91506108399050600a83611111565b915061081a565b60008167ffffffffffffffff81111561085b5761085b6111dd565b6040519080825280601f01601f191660200182016040528015610885576020820181803683370190505b5090505b84156108f05761089a600183611125565b91506108a7600a86611187565b6108b29060306110f9565b60f81b8183815181106108c7576108c76111c7565b60200101906001600160f81b031916908160001a9053506108e9600a86611111565b9450610889565b949350505050565b600082601f83011261090957600080fd5b813561091c610917826110d1565b6110a0565b81815284602083860101111561093157600080fd5b816020850160208301376000918101602001919091529392505050565b60006020828403121561096057600080fd5b815167ffffffffffffffff81111561097757600080fd5b8201601f8101841361098857600080fd5b8051610996610917826110d1565b8181528560208385010111156109ab57600080fd5b6109bc82602083016020860161113c565b95945050505050565b600080600080600080600080610100898b0312156109e257600080fd5b883597506020890135965060408901359550606089013567ffffffffffffffff80821115610a0f57600080fd5b610a1b8c838d016108f8565b965060808b0135915080821115610a3157600080fd5b50610a3e8b828c016108f8565b989b979a50959894979660a0860135965060c08601359560e00135945092505050565b60008251610a7381846020870161113c565b9190910192915050565b60008351610a8f81846020880161113c565b835190830190610aa381836020880161113c565b01949350505050565b60008351610abe81846020880161113c565b7f3c7465787420783d2232302220793d2233343022203e47616d65733a200000009083019081528351610af881601d84016020880161113c565b661e17ba32bc3a1f60c91b601d9290910191820152602401949350505050565b60008351610b2a81846020880161113c565b80830190507f3c7465787420783d2232302220793d2233383022203e506f736974696f6e3a2081528351610b6581602084016020880161113c565b661e17ba32bc3a1f60c91b60209290910191820152602701949350505050565b60008351610b9781846020880161113c565b7f3c7465787420783d2232302220793d2233363022203e476f616c733a200000009083019081528351610af881601d84016020880161113c565b60008351610be381846020880161113c565b80830190507f3c7465787420783d2232302220793d2233323022203e47616d65706c61793a2081528351610c1e81602084016020880161113c565b6236b4b760e91b60209290910191820152661e17ba32bc3a1f60c91b6023820152602a01949350505050565b60008251610c5c81846020870161113c565b7f3c726563742077696474683d223130302522206865696768743d22313030252292019182525066103334b6361e9160c91b6020820152662365343032323760c81b6027820152631110179f60e11b602e820152603201919050565b60008351610cca81846020880161113c565b80830190507f3c7465787420783d2238302220793d2234302220636c6173733d227469746c65815261111f60f11b60208201528351610d1081602284016020880161113c565b661e17ba32bc3a1f60c91b60229290910191820152602901949350505050565b60008251610d4281846020870161113c565b6000805160206112428339815191529201918252507f31352920726f74617465282d39302922203e5465616d204e4654203c2f7465786020820152613a1f60f11b6040820152604201919050565b60008251610da281846020870161113c565b6000805160206112428339815191529201918252507f31352920726f74617465282d39302922203e506c6163652033203c2f746578746020820152601f60f91b6040820152604101919050565b60008251610e0181846020870161113c565b6000805160206112428339815191529201918252507f31352920726f74617465282d39302922203e506c6163652031203c2f746578746020820152601f60f91b6040820152604101919050565b60008351610e6081846020880161113c565b808301905060008051602061124283398151915281527f31352920726f74617465282d39302922203e53636f72653a200000000000000060208201528351610eaf81603984016020880161113c565b67101e17ba32bc3a1f60c11b60399290910191820152604101949350505050565b60008251610ee281846020870161113c565b651e17b9bb339f60d11b920191825250600601919050565b60008251610f0c81846020870161113c565b6000805160206112428339815191529201918252507f31352920726f74617465282d39302922203e506c6163652032203c2f746578746020820152601f60f91b6040820152604101919050565b60008251610f6b81846020870161113c565b661e39ba3cb6329f60c91b9201918252507f74657874207b20666f6e742d66616d696c793a20417269616c2c2048656c766560078201527f746963612c2073616e732d73657269663b20666f6e742d7765696768743a202060278201527f626f6c643b2066696c6c3a20236666653530303b20666f6e742d73697a653a2060478201526531656d3b207d60d01b60678201527f2e7469746c65207b20746578742d616e63686f723a206c6566743b20666f6e74606d8201527f2d7765696768743a20626f6c643b20666f6e742d73697a653a20312e35656d3b608d82015261207d60f01b60ad820152671e17b9ba3cb6329f60c11b60af82015260b701919050565b602081526000825180602084015261108c81604085016020870161113c565b601f01601f19169190910160400192915050565b604051601f8201601f1916810167ffffffffffffffff811182821017156110c9576110c96111dd565b604052919050565b600067ffffffffffffffff8211156110eb576110eb6111dd565b50601f01601f191660200190565b6000821982111561110c5761110c61119b565b500190565b600082611120576111206111b1565b500490565b6000828210156111375761113761119b565b500390565b60005b8381101561115757818101518382015260200161113f565b83811115611166576000848401525b50505050565b60006000198214156111805761118061119b565b5060010190565b600082611196576111966111b1565b500690565b634e487b7160e01b600052601160045260246000fd5b634e487b7160e01b600052601260045260246000fd5b634e487b7160e01b600052603260045260246000fd5b634e487b7160e01b600052604160045260246000fdfe3c7376672077696474683d2233393022206865696768743d22343335222066696c6c3d22677265656e2220786d6c6e733d22687474703a2f2f7777772e77332e6f72672f323030302f737667223e3c74657874207472616e73666f726d3d227472616e736c617465283338302c34a2646970667358221220d454c897c63979d205ef55df38a63046d13dd9a27a980c846337890c181fe15e64736f6c63430008070033",
			"opcodes": "PUSH1 0x80 PUSH1 0x40 MSTORE CALLVALUE DUP1 ISZERO PUSH3 0x11 JUMPI PUSH1 0x0 DUP1 REVERT JUMPDEST POP PUSH1 0x40 MLOAD PUSH3 0x13CB CODESIZE SUB DUP1 PUSH3 0x13CB DUP4 CODECOPY DUP2 ADD PUSH1 0x40 DUP2 SWAP1 MSTORE PUSH3 0x34 SWAP2 PUSH3 0xB4 JUMP JUMPDEST PUSH1 0x0 DUP1 SLOAD PUSH1 0x1 PUSH1 0x1 PUSH1 0xA0 SHL SUB NOT SWAP1 DUP2 AND PUSH1 0x1 PUSH1 0x1 PUSH1 0xA0 SHL SUB SWAP8 DUP9 AND OR SWAP1 SWAP2 SSTORE PUSH1 0x1 DUP1 SLOAD DUP3 AND SWAP6 DUP8 AND SWAP6 SWAP1 SWAP6 OR SWAP1 SWAP5 SSTORE PUSH1 0x2 DUP1 SLOAD DUP6 AND SWAP4 DUP7 AND SWAP4 SWAP1 SWAP4 OR SWAP1 SWAP3 SSTORE PUSH1 0x3 DUP1 SLOAD DUP5 AND SWAP2 DUP6 AND SWAP2 SWAP1 SWAP2 OR SWAP1 SSTORE PUSH1 0x4 DUP1 SLOAD SWAP1 SWAP3 AND SWAP3 AND SWAP2 SWAP1 SWAP2 OR SWAP1 SSTORE PUSH3 0x124 JUMP JUMPDEST DUP1 MLOAD PUSH1 0x1 PUSH1 0x1 PUSH1 0xA0 SHL SUB DUP2 AND DUP2 EQ PUSH3 0xAF JUMPI PUSH1 0x0 DUP1 REVERT JUMPDEST SWAP2 SWAP1 POP JUMP JUMPDEST PUSH1 0x0 DUP1 PUSH1 0x0 DUP1 PUSH1 0x0 PUSH1 0xA0 DUP7 DUP9 SUB SLT ISZERO PUSH3 0xCD JUMPI PUSH1 0x0 DUP1 REVERT JUMPDEST PUSH3 0xD8 DUP7 PUSH3 0x97 JUMP JUMPDEST SWAP5 POP PUSH3 0xE8 PUSH1 0x20 DUP8 ADD PUSH3 0x97 JUMP JUMPDEST SWAP4 POP PUSH3 0xF8 PUSH1 0x40 DUP8 ADD PUSH3 0x97 JUMP JUMPDEST SWAP3 POP PUSH3 0x108 PUSH1 0x60 DUP8 ADD PUSH3 0x97 JUMP JUMPDEST SWAP2 POP PUSH3 0x118 PUSH1 0x80 DUP8 ADD PUSH3 0x97 JUMP JUMPDEST SWAP1 POP SWAP3 SWAP6 POP SWAP3 SWAP6 SWAP1 SWAP4 POP JUMP JUMPDEST PUSH2 0x1297 DUP1 PUSH3 0x134 PUSH1 0x0 CODECOPY PUSH1 0x0 RETURN INVALID PUSH1 0x80 PUSH1 0x40 MSTORE CALLVALUE DUP1 ISZERO PUSH2 0x10 JUMPI PUSH1 0x0 DUP1 REVERT JUMPDEST POP PUSH1 0x4 CALLDATASIZE LT PUSH2 0x2B JUMPI PUSH1 0x0 CALLDATALOAD PUSH1 0xE0 SHR DUP1 PUSH4 0x9B679C4A EQ PUSH2 0x30 JUMPI JUMPDEST PUSH1 0x0 DUP1 REVERT JUMPDEST PUSH2 0x43 PUSH2 0x3E CALLDATASIZE PUSH1 0x4 PUSH2 0x9C5 JUMP JUMPDEST PUSH2 0x59 JUMP JUMPDEST PUSH1 0x40 MLOAD PUSH2 0x50 SWAP2 SWAP1 PUSH2 0x106D JUMP JUMPDEST PUSH1 0x40 MLOAD DUP1 SWAP2 SUB SWAP1 RETURN JUMPDEST PUSH1 0x60 PUSH1 0x40 MLOAD DUP1 PUSH1 0x80 ADD PUSH1 0x40 MSTORE DUP1 PUSH1 0x4E DUP2 MSTORE PUSH1 0x20 ADD PUSH2 0x11F4 PUSH1 0x4E SWAP2 CODECOPY SWAP1 POP DUP1 PUSH1 0x40 MLOAD PUSH1 0x20 ADD PUSH2 0x87 SWAP2 SWAP1 PUSH2 0xF59 JUMP JUMPDEST PUSH1 0x40 MLOAD PUSH1 0x20 DUP2 DUP4 SUB SUB DUP2 MSTORE SWAP1 PUSH1 0x40 MSTORE SWAP1 POP DUP1 PUSH1 0x40 MLOAD PUSH1 0x20 ADD PUSH2 0xA9 SWAP2 SWAP1 PUSH2 0xC4A JUMP JUMPDEST PUSH1 0x40 MLOAD PUSH1 0x20 DUP2 DUP4 SUB SUB DUP2 MSTORE SWAP1 PUSH1 0x40 MSTORE SWAP1 POP PUSH2 0xC5 DUP2 DUP8 DUP7 PUSH2 0x2BB JUMP JUMPDEST SWAP1 POP DUP1 DUP7 PUSH1 0x40 MLOAD PUSH1 0x20 ADD PUSH2 0xDA SWAP3 SWAP2 SWAP1 PUSH2 0xCB8 JUMP JUMPDEST PUSH1 0x40 MLOAD PUSH1 0x20 DUP2 DUP4 SUB SUB DUP2 MSTORE SWAP1 PUSH1 0x40 MSTORE SWAP1 POP DUP1 PUSH2 0xF5 DUP11 PUSH2 0x7F2 JUMP JUMPDEST PUSH1 0x40 MLOAD PUSH1 0x20 ADD PUSH2 0x106 SWAP3 SWAP2 SWAP1 PUSH2 0xBD1 JUMP JUMPDEST PUSH1 0x40 MLOAD PUSH1 0x20 DUP2 DUP4 SUB SUB DUP2 MSTORE SWAP1 PUSH1 0x40 MSTORE SWAP1 POP DUP1 PUSH2 0x121 DUP10 PUSH2 0x7F2 JUMP JUMPDEST PUSH1 0x40 MLOAD PUSH1 0x20 ADD PUSH2 0x132 SWAP3 SWAP2 SWAP1 PUSH2 0xAAC JUMP JUMPDEST PUSH1 0x40 MLOAD PUSH1 0x20 DUP2 DUP4 SUB SUB DUP2 MSTORE SWAP1 PUSH1 0x40 MSTORE SWAP1 POP DUP1 PUSH2 0x14D DUP9 PUSH2 0x7F2 JUMP JUMPDEST PUSH1 0x40 MLOAD PUSH1 0x20 ADD PUSH2 0x15E SWAP3 SWAP2 SWAP1 PUSH2 0xB85 JUMP JUMPDEST PUSH1 0x40 MLOAD PUSH1 0x20 DUP2 DUP4 SUB SUB DUP2 MSTORE SWAP1 PUSH1 0x40 MSTORE SWAP1 POP DUP1 DUP6 PUSH1 0x40 MLOAD PUSH1 0x20 ADD PUSH2 0x182 SWAP3 SWAP2 SWAP1 PUSH2 0xB18 JUMP JUMPDEST PUSH1 0x40 MLOAD PUSH1 0x20 DUP2 DUP4 SUB SUB DUP2 MSTORE SWAP1 PUSH1 0x40 MSTORE SWAP1 POP DUP3 PUSH2 0x3E9 EQ ISZERO PUSH2 0x1C0 JUMPI DUP1 PUSH1 0x40 MLOAD PUSH1 0x20 ADD PUSH2 0x1AE SWAP2 SWAP1 PUSH2 0xDEF JUMP JUMPDEST PUSH1 0x40 MLOAD PUSH1 0x20 DUP2 DUP4 SUB SUB DUP2 MSTORE SWAP1 PUSH1 0x40 MSTORE SWAP1 POP JUMPDEST DUP3 PUSH2 0x3EA EQ ISZERO PUSH2 0x1ED JUMPI DUP1 PUSH1 0x40 MLOAD PUSH1 0x20 ADD PUSH2 0x1DB SWAP2 SWAP1 PUSH2 0xEFA JUMP JUMPDEST PUSH1 0x40 MLOAD PUSH1 0x20 DUP2 DUP4 SUB SUB DUP2 MSTORE SWAP1 PUSH1 0x40 MSTORE SWAP1 POP JUMPDEST DUP3 PUSH2 0x3EB EQ ISZERO PUSH2 0x21A JUMPI DUP1 PUSH1 0x40 MLOAD PUSH1 0x20 ADD PUSH2 0x208 SWAP2 SWAP1 PUSH2 0xD90 JUMP JUMPDEST PUSH1 0x40 MLOAD PUSH1 0x20 DUP2 DUP4 SUB SUB DUP2 MSTORE SWAP1 PUSH1 0x40 MSTORE SWAP1 POP JUMPDEST PUSH3 0x989680 DUP4 GT ISZERO PUSH2 0x248 JUMPI DUP1 PUSH1 0x40 MLOAD PUSH1 0x20 ADD PUSH2 0x236 SWAP2 SWAP1 PUSH2 0xD30 JUMP JUMPDEST PUSH1 0x40 MLOAD PUSH1 0x20 DUP2 DUP4 SUB SUB DUP2 MSTORE SWAP1 PUSH1 0x40 MSTORE SWAP1 POP JUMPDEST PUSH2 0x7D0 DUP4 GT DUP1 ISZERO PUSH2 0x25B JUMPI POP PUSH3 0x989681 DUP4 LT JUMPDEST ISZERO PUSH2 0x28D JUMPI DUP1 PUSH2 0x26A DUP4 PUSH2 0x7F2 JUMP JUMPDEST PUSH1 0x40 MLOAD PUSH1 0x20 ADD PUSH2 0x27B SWAP3 SWAP2 SWAP1 PUSH2 0xE4E JUMP JUMPDEST PUSH1 0x40 MLOAD PUSH1 0x20 DUP2 DUP4 SUB SUB DUP2 MSTORE SWAP1 PUSH1 0x40 MSTORE SWAP1 POP JUMPDEST DUP1 PUSH1 0x40 MLOAD PUSH1 0x20 ADD PUSH2 0x29E SWAP2 SWAP1 PUSH2 0xED0 JUMP JUMPDEST PUSH1 0x40 MLOAD PUSH1 0x20 DUP2 DUP4 SUB SUB DUP2 MSTORE SWAP1 PUSH1 0x40 MSTORE SWAP1 POP SWAP9 SWAP8 POP POP POP POP POP POP POP POP JUMP JUMPDEST PUSH1 0x60 DUP3 PUSH1 0x40 MLOAD PUSH1 0x20 ADD PUSH2 0x2CE SWAP2 SWAP1 PUSH2 0xA61 JUMP JUMPDEST PUSH1 0x40 MLOAD PUSH1 0x20 DUP2 DUP4 SUB SUB DUP2 MSTORE SWAP1 PUSH1 0x40 MSTORE DUP1 MLOAD SWAP1 PUSH1 0x20 ADD KECCAK256 PUSH1 0x40 MLOAD PUSH1 0x20 ADD PUSH2 0x309 SWAP1 PUSH15 0x9CDEC2D04096C2E8E8CAE4C4C2C6D PUSH1 0x8B SHL DUP2 MSTORE PUSH1 0xF ADD SWAP1 JUMP JUMPDEST PUSH1 0x40 MLOAD PUSH1 0x20 DUP2 DUP4 SUB SUB DUP2 MSTORE SWAP1 PUSH1 0x40 MSTORE DUP1 MLOAD SWAP1 PUSH1 0x20 ADD KECCAK256 EQ ISZERO PUSH2 0x3C8 JUMPI PUSH1 0x2 SLOAD PUSH1 0x40 MLOAD PUSH4 0xBE985AC9 PUSH1 0xE0 SHL DUP2 MSTORE PUSH1 0x4 DUP2 ADD DUP5 SWAP1 MSTORE DUP6 SWAP2 PUSH1 0x1 PUSH1 0x1 PUSH1 0xA0 SHL SUB AND SWAP1 PUSH4 0xBE985AC9 SWAP1 PUSH1 0x24 ADD PUSH1 0x0 PUSH1 0x40 MLOAD DUP1 DUP4 SUB DUP2 DUP7 DUP1 EXTCODESIZE ISZERO DUP1 ISZERO PUSH2 0x369 JUMPI PUSH1 0x0 DUP1 REVERT JUMPDEST POP GAS STATICCALL ISZERO DUP1 ISZERO PUSH2 0x37D JUMPI RETURNDATASIZE PUSH1 0x0 DUP1 RETURNDATACOPY RETURNDATASIZE PUSH1 0x0 REVERT JUMPDEST POP POP POP POP PUSH1 0x40 MLOAD RETURNDATASIZE PUSH1 0x0 DUP3 RETURNDATACOPY PUSH1 0x1F RETURNDATASIZE SWAP1 DUP2 ADD PUSH1 0x1F NOT AND DUP3 ADD PUSH1 0x40 MSTORE PUSH2 0x3A5 SWAP2 SWAP1 DUP2 ADD SWAP1 PUSH2 0x94E JUMP JUMPDEST PUSH1 0x40 MLOAD PUSH1 0x20 ADD PUSH2 0x3B6 SWAP3 SWAP2 SWAP1 PUSH2 0xA7D JUMP JUMPDEST PUSH1 0x40 MLOAD PUSH1 0x20 DUP2 DUP4 SUB SUB DUP2 MSTORE SWAP1 PUSH1 0x40 MSTORE SWAP1 POP JUMPDEST DUP3 PUSH1 0x40 MLOAD PUSH1 0x20 ADD PUSH2 0x3D9 SWAP2 SWAP1 PUSH2 0xA61 JUMP JUMPDEST PUSH1 0x40 MLOAD PUSH1 0x20 DUP2 DUP4 SUB SUB DUP2 MSTORE SWAP1 PUSH1 0x40 MSTORE DUP1 MLOAD SWAP1 PUSH1 0x20 ADD KECCAK256 PUSH1 0x40 MLOAD PUSH1 0x20 ADD PUSH2 0x411 SWAP1 PUSH12 0x105B991E4814195B1B585C99 PUSH1 0xA2 SHL DUP2 MSTORE PUSH1 0xC ADD SWAP1 JUMP JUMPDEST PUSH1 0x40 MLOAD PUSH1 0x20 DUP2 DUP4 SUB SUB DUP2 MSTORE SWAP1 PUSH1 0x40 MSTORE DUP1 MLOAD SWAP1 PUSH1 0x20 ADD KECCAK256 EQ ISZERO PUSH2 0x4D0 JUMPI PUSH1 0x0 SLOAD PUSH1 0x40 MLOAD PUSH4 0xBE985AC9 PUSH1 0xE0 SHL DUP2 MSTORE PUSH1 0x4 DUP2 ADD DUP5 SWAP1 MSTORE DUP6 SWAP2 PUSH1 0x1 PUSH1 0x1 PUSH1 0xA0 SHL SUB AND SWAP1 PUSH4 0xBE985AC9 SWAP1 PUSH1 0x24 ADD PUSH1 0x0 PUSH1 0x40 MLOAD DUP1 DUP4 SUB DUP2 DUP7 DUP1 EXTCODESIZE ISZERO DUP1 ISZERO PUSH2 0x471 JUMPI PUSH1 0x0 DUP1 REVERT JUMPDEST POP GAS STATICCALL ISZERO DUP1 ISZERO PUSH2 0x485 JUMPI RETURNDATASIZE PUSH1 0x0 DUP1 RETURNDATACOPY RETURNDATASIZE PUSH1 0x0 REVERT JUMPDEST POP POP POP POP PUSH1 0x40 MLOAD RETURNDATASIZE PUSH1 0x0 DUP3 RETURNDATACOPY PUSH1 0x1F RETURNDATASIZE SWAP1 DUP2 ADD PUSH1 0x1F NOT AND DUP3 ADD PUSH1 0x40 MSTORE PUSH2 0x4AD SWAP2 SWAP1 DUP2 ADD SWAP1 PUSH2 0x94E JUMP JUMPDEST PUSH1 0x40 MLOAD PUSH1 0x20 ADD PUSH2 0x4BE SWAP3 SWAP2 SWAP1 PUSH2 0xA7D JUMP JUMPDEST PUSH1 0x40 MLOAD PUSH1 0x20 DUP2 DUP4 SUB SUB DUP2 MSTORE SWAP1 PUSH1 0x40 MSTORE SWAP1 POP JUMPDEST DUP3 PUSH1 0x40 MLOAD PUSH1 0x20 ADD PUSH2 0x4E1 SWAP2 SWAP1 PUSH2 0xA61 JUMP JUMPDEST PUSH1 0x40 MLOAD PUSH1 0x20 DUP2 DUP4 SUB SUB DUP2 MSTORE SWAP1 PUSH1 0x40 MSTORE DUP1 MLOAD SWAP1 PUSH1 0x20 ADD KECCAK256 PUSH1 0x40 MLOAD PUSH1 0x20 ADD PUSH2 0x51A SWAP1 PUSH13 0x50616A74696D204B6173616D69 PUSH1 0x98 SHL DUP2 MSTORE PUSH1 0xD ADD SWAP1 JUMP JUMPDEST PUSH1 0x40 MLOAD PUSH1 0x20 DUP2 DUP4 SUB SUB DUP2 MSTORE SWAP1 PUSH1 0x40 MSTORE DUP1 MLOAD SWAP1 PUSH1 0x20 ADD KECCAK256 EQ ISZERO PUSH2 0x5D9 JUMPI PUSH1 0x3 SLOAD PUSH1 0x40 MLOAD PUSH4 0xBE985AC9 PUSH1 0xE0 SHL DUP2 MSTORE PUSH1 0x4 DUP2 ADD DUP5 SWAP1 MSTORE DUP6 SWAP2 PUSH1 0x1 PUSH1 0x1 PUSH1 0xA0 SHL SUB AND SWAP1 PUSH4 0xBE985AC9 SWAP1 PUSH1 0x24 ADD PUSH1 0x0 PUSH1 0x40 MLOAD DUP1 DUP4 SUB DUP2 DUP7 DUP1 EXTCODESIZE ISZERO DUP1 ISZERO PUSH2 0x57A JUMPI PUSH1 0x0 DUP1 REVERT JUMPDEST POP GAS STATICCALL ISZERO DUP1 ISZERO PUSH2 0x58E JUMPI RETURNDATASIZE PUSH1 0x0 DUP1 RETURNDATACOPY RETURNDATASIZE PUSH1 0x0 REVERT JUMPDEST POP POP POP POP PUSH1 0x40 MLOAD RETURNDATASIZE PUSH1 0x0 DUP3 RETURNDATACOPY PUSH1 0x1F RETURNDATASIZE SWAP1 DUP2 ADD PUSH1 0x1F NOT AND DUP3 ADD PUSH1 0x40 MSTORE PUSH2 0x5B6 SWAP2 SWAP1 DUP2 ADD SWAP1 PUSH2 0x94E JUMP JUMPDEST PUSH1 0x40 MLOAD PUSH1 0x20 ADD PUSH2 0x5C7 SWAP3 SWAP2 SWAP1 PUSH2 0xA7D JUMP JUMPDEST PUSH1 0x40 MLOAD PUSH1 0x20 DUP2 DUP4 SUB SUB DUP2 MSTORE SWAP1 PUSH1 0x40 MSTORE SWAP1 POP JUMPDEST DUP3 PUSH1 0x40 MLOAD PUSH1 0x20 ADD PUSH2 0x5EA SWAP2 SWAP1 PUSH2 0xA61 JUMP JUMPDEST PUSH1 0x40 MLOAD PUSH1 0x20 DUP2 DUP4 SUB SUB DUP2 MSTORE SWAP1 PUSH1 0x40 MSTORE DUP1 MLOAD SWAP1 PUSH1 0x20 ADD KECCAK256 PUSH1 0x40 MLOAD PUSH1 0x20 ADD PUSH2 0x621 SWAP1 PUSH11 0x2634B0B69026B4B63630B9 PUSH1 0xA9 SHL DUP2 MSTORE PUSH1 0xB ADD SWAP1 JUMP JUMPDEST PUSH1 0x40 MLOAD PUSH1 0x20 DUP2 DUP4 SUB SUB DUP2 MSTORE SWAP1 PUSH1 0x40 MSTORE DUP1 MLOAD SWAP1 PUSH1 0x20 ADD KECCAK256 EQ ISZERO PUSH2 0x6E0 JUMPI PUSH1 0x1 SLOAD PUSH1 0x40 MLOAD PUSH4 0xBE985AC9 PUSH1 0xE0 SHL DUP2 MSTORE PUSH1 0x4 DUP2 ADD DUP5 SWAP1 MSTORE DUP6 SWAP2 PUSH1 0x1 PUSH1 0x1 PUSH1 0xA0 SHL SUB AND SWAP1 PUSH4 0xBE985AC9 SWAP1 PUSH1 0x24 ADD PUSH1 0x0 PUSH1 0x40 MLOAD DUP1 DUP4 SUB DUP2 DUP7 DUP1 EXTCODESIZE ISZERO DUP1 ISZERO PUSH2 0x681 JUMPI PUSH1 0x0 DUP1 REVERT JUMPDEST POP GAS STATICCALL ISZERO DUP1 ISZERO PUSH2 0x695 JUMPI RETURNDATASIZE PUSH1 0x0 DUP1 RETURNDATACOPY RETURNDATASIZE PUSH1 0x0 REVERT JUMPDEST POP POP POP POP PUSH1 0x40 MLOAD RETURNDATASIZE PUSH1 0x0 DUP3 RETURNDATACOPY PUSH1 0x1F RETURNDATASIZE SWAP1 DUP2 ADD PUSH1 0x1F NOT AND DUP3 ADD PUSH1 0x40 MSTORE PUSH2 0x6BD SWAP2 SWAP1 DUP2 ADD SWAP1 PUSH2 0x94E JUMP JUMPDEST PUSH1 0x40 MLOAD PUSH1 0x20 ADD PUSH2 0x6CE SWAP3 SWAP2 SWAP1 PUSH2 0xA7D JUMP JUMPDEST PUSH1 0x40 MLOAD PUSH1 0x20 DUP2 DUP4 SUB SUB DUP2 MSTORE SWAP1 PUSH1 0x40 MSTORE SWAP1 POP JUMPDEST DUP3 PUSH1 0x40 MLOAD PUSH1 0x20 ADD PUSH2 0x6F1 SWAP2 SWAP1 PUSH2 0xA61 JUMP JUMPDEST PUSH1 0x40 MLOAD PUSH1 0x20 DUP2 DUP4 SUB SUB DUP2 MSTORE SWAP1 PUSH1 0x40 MSTORE DUP1 MLOAD SWAP1 PUSH1 0x20 ADD KECCAK256 PUSH1 0x40 MLOAD PUSH1 0x20 ADD PUSH2 0x72A SWAP1 PUSH13 0x2432B4B73D102634B7323732B9 PUSH1 0x99 SHL DUP2 MSTORE PUSH1 0xD ADD SWAP1 JUMP JUMPDEST PUSH1 0x40 MLOAD PUSH1 0x20 DUP2 DUP4 SUB SUB DUP2 MSTORE SWAP1 PUSH1 0x40 MSTORE DUP1 MLOAD SWAP1 PUSH1 0x20 ADD KECCAK256 EQ ISZERO PUSH2 0x7EB JUMPI PUSH1 0x4 DUP1 SLOAD PUSH1 0x40 MLOAD PUSH4 0xBE985AC9 PUSH1 0xE0 SHL DUP2 MSTORE SWAP2 DUP3 ADD DUP5 SWAP1 MSTORE DUP6 SWAP2 PUSH1 0x1 PUSH1 0x1 PUSH1 0xA0 SHL SUB SWAP1 SWAP2 AND SWAP1 PUSH4 0xBE985AC9 SWAP1 PUSH1 0x24 ADD PUSH1 0x0 PUSH1 0x40 MLOAD DUP1 DUP4 SUB DUP2 DUP7 DUP1 EXTCODESIZE ISZERO DUP1 ISZERO PUSH2 0x78C JUMPI PUSH1 0x0 DUP1 REVERT JUMPDEST POP GAS STATICCALL ISZERO DUP1 ISZERO PUSH2 0x7A0 JUMPI RETURNDATASIZE PUSH1 0x0 DUP1 RETURNDATACOPY RETURNDATASIZE PUSH1 0x0 REVERT JUMPDEST POP POP POP POP PUSH1 0x40 MLOAD RETURNDATASIZE PUSH1 0x0 DUP3 RETURNDATACOPY PUSH1 0x1F RETURNDATASIZE SWAP1 DUP2 ADD PUSH1 0x1F NOT AND DUP3 ADD PUSH1 0x40 MSTORE PUSH2 0x7C8 SWAP2 SWAP1 DUP2 ADD SWAP1 PUSH2 0x94E JUMP JUMPDEST PUSH1 0x40 MLOAD PUSH1 0x20 ADD PUSH2 0x7D9 SWAP3 SWAP2 SWAP1 PUSH2 0xA7D JUMP JUMPDEST PUSH1 0x40 MLOAD PUSH1 0x20 DUP2 DUP4 SUB SUB DUP2 MSTORE SWAP1 PUSH1 0x40 MSTORE SWAP1 POP JUMPDEST SWAP4 SWAP3 POP POP POP JUMP JUMPDEST PUSH1 0x60 DUP2 PUSH2 0x816 JUMPI POP POP PUSH1 0x40 DUP1 MLOAD DUP1 DUP3 ADD SWAP1 SWAP2 MSTORE PUSH1 0x1 DUP2 MSTORE PUSH1 0x3 PUSH1 0xFC SHL PUSH1 0x20 DUP3 ADD MSTORE SWAP1 JUMP JUMPDEST DUP2 PUSH1 0x0 JUMPDEST DUP2 ISZERO PUSH2 0x840 JUMPI DUP1 PUSH2 0x82A DUP2 PUSH2 0x116C JUMP JUMPDEST SWAP2 POP PUSH2 0x839 SWAP1 POP PUSH1 0xA DUP4 PUSH2 0x1111 JUMP JUMPDEST SWAP2 POP PUSH2 0x81A JUMP JUMPDEST PUSH1 0x0 DUP2 PUSH8 0xFFFFFFFFFFFFFFFF DUP2 GT ISZERO PUSH2 0x85B JUMPI PUSH2 0x85B PUSH2 0x11DD JUMP JUMPDEST PUSH1 0x40 MLOAD SWAP1 DUP1 DUP3 MSTORE DUP1 PUSH1 0x1F ADD PUSH1 0x1F NOT AND PUSH1 0x20 ADD DUP3 ADD PUSH1 0x40 MSTORE DUP1 ISZERO PUSH2 0x885 JUMPI PUSH1 0x20 DUP3 ADD DUP2 DUP1 CALLDATASIZE DUP4 CALLDATACOPY ADD SWAP1 POP JUMPDEST POP SWAP1 POP JUMPDEST DUP5 ISZERO PUSH2 0x8F0 JUMPI PUSH2 0x89A PUSH1 0x1 DUP4 PUSH2 0x1125 JUMP JUMPDEST SWAP2 POP PUSH2 0x8A7 PUSH1 0xA DUP7 PUSH2 0x1187 JUMP JUMPDEST PUSH2 0x8B2 SWAP1 PUSH1 0x30 PUSH2 0x10F9 JUMP JUMPDEST PUSH1 0xF8 SHL DUP2 DUP4 DUP2 MLOAD DUP2 LT PUSH2 0x8C7 JUMPI PUSH2 0x8C7 PUSH2 0x11C7 JUMP JUMPDEST PUSH1 0x20 ADD ADD SWAP1 PUSH1 0x1 PUSH1 0x1 PUSH1 0xF8 SHL SUB NOT AND SWAP1 DUP2 PUSH1 0x0 BYTE SWAP1 MSTORE8 POP PUSH2 0x8E9 PUSH1 0xA DUP7 PUSH2 0x1111 JUMP JUMPDEST SWAP5 POP PUSH2 0x889 JUMP JUMPDEST SWAP5 SWAP4 POP POP POP POP JUMP JUMPDEST PUSH1 0x0 DUP3 PUSH1 0x1F DUP4 ADD SLT PUSH2 0x909 JUMPI PUSH1 0x0 DUP1 REVERT JUMPDEST DUP2 CALLDATALOAD PUSH2 0x91C PUSH2 0x917 DUP3 PUSH2 0x10D1 JUMP JUMPDEST PUSH2 0x10A0 JUMP JUMPDEST DUP2 DUP2 MSTORE DUP5 PUSH1 0x20 DUP4 DUP7 ADD ADD GT ISZERO PUSH2 0x931 JUMPI PUSH1 0x0 DUP1 REVERT JUMPDEST DUP2 PUSH1 0x20 DUP6 ADD PUSH1 0x20 DUP4 ADD CALLDATACOPY PUSH1 0x0 SWAP2 DUP2 ADD PUSH1 0x20 ADD SWAP2 SWAP1 SWAP2 MSTORE SWAP4 SWAP3 POP POP POP JUMP JUMPDEST PUSH1 0x0 PUSH1 0x20 DUP3 DUP5 SUB SLT ISZERO PUSH2 0x960 JUMPI PUSH1 0x0 DUP1 REVERT JUMPDEST DUP2 MLOAD PUSH8 0xFFFFFFFFFFFFFFFF DUP2 GT ISZERO PUSH2 0x977 JUMPI PUSH1 0x0 DUP1 REVERT JUMPDEST DUP3 ADD PUSH1 0x1F DUP2 ADD DUP5 SGT PUSH2 0x988 JUMPI PUSH1 0x0 DUP1 REVERT JUMPDEST DUP1 MLOAD PUSH2 0x996 PUSH2 0x917 DUP3 PUSH2 0x10D1 JUMP JUMPDEST DUP2 DUP2 MSTORE DUP6 PUSH1 0x20 DUP4 DUP6 ADD ADD GT ISZERO PUSH2 0x9AB JUMPI PUSH1 0x0 DUP1 REVERT JUMPDEST PUSH2 0x9BC DUP3 PUSH1 0x20 DUP4 ADD PUSH1 0x20 DUP7 ADD PUSH2 0x113C JUMP JUMPDEST SWAP6 SWAP5 POP POP POP POP POP JUMP JUMPDEST PUSH1 0x0 DUP1 PUSH1 0x0 DUP1 PUSH1 0x0 DUP1 PUSH1 0x0 DUP1 PUSH2 0x100 DUP10 DUP12 SUB SLT ISZERO PUSH2 0x9E2 JUMPI PUSH1 0x0 DUP1 REVERT JUMPDEST DUP9 CALLDATALOAD SWAP8 POP PUSH1 0x20 DUP10 ADD CALLDATALOAD SWAP7 POP PUSH1 0x40 DUP10 ADD CALLDATALOAD SWAP6 POP PUSH1 0x60 DUP10 ADD CALLDATALOAD PUSH8 0xFFFFFFFFFFFFFFFF DUP1 DUP3 GT ISZERO PUSH2 0xA0F JUMPI PUSH1 0x0 DUP1 REVERT JUMPDEST PUSH2 0xA1B DUP13 DUP4 DUP14 ADD PUSH2 0x8F8 JUMP JUMPDEST SWAP7 POP PUSH1 0x80 DUP12 ADD CALLDATALOAD SWAP2 POP DUP1 DUP3 GT ISZERO PUSH2 0xA31 JUMPI PUSH1 0x0 DUP1 REVERT JUMPDEST POP PUSH2 0xA3E DUP12 DUP3 DUP13 ADD PUSH2 0x8F8 JUMP JUMPDEST SWAP9 SWAP12 SWAP8 SWAP11 POP SWAP6 SWAP9 SWAP5 SWAP8 SWAP7 PUSH1 0xA0 DUP7 ADD CALLDATALOAD SWAP7 POP PUSH1 0xC0 DUP7 ADD CALLDATALOAD SWAP6 PUSH1 0xE0 ADD CALLDATALOAD SWAP5 POP SWAP3 POP POP POP JUMP JUMPDEST PUSH1 0x0 DUP3 MLOAD PUSH2 0xA73 DUP2 DUP5 PUSH1 0x20 DUP8 ADD PUSH2 0x113C JUMP JUMPDEST SWAP2 SWAP1 SWAP2 ADD SWAP3 SWAP2 POP POP JUMP JUMPDEST PUSH1 0x0 DUP4 MLOAD PUSH2 0xA8F DUP2 DUP5 PUSH1 0x20 DUP9 ADD PUSH2 0x113C JUMP JUMPDEST DUP4 MLOAD SWAP1 DUP4 ADD SWAP1 PUSH2 0xAA3 DUP2 DUP4 PUSH1 0x20 DUP9 ADD PUSH2 0x113C JUMP JUMPDEST ADD SWAP5 SWAP4 POP POP POP POP JUMP JUMPDEST PUSH1 0x0 DUP4 MLOAD PUSH2 0xABE DUP2 DUP5 PUSH1 0x20 DUP9 ADD PUSH2 0x113C JUMP JUMPDEST PUSH32 0x3C7465787420783D2232302220793D2233343022203E47616D65733A20000000 SWAP1 DUP4 ADD SWAP1 DUP2 MSTORE DUP4 MLOAD PUSH2 0xAF8 DUP2 PUSH1 0x1D DUP5 ADD PUSH1 0x20 DUP9 ADD PUSH2 0x113C JUMP JUMPDEST PUSH7 0x1E17BA32BC3A1F PUSH1 0xC9 SHL PUSH1 0x1D SWAP3 SWAP1 SWAP2 ADD SWAP2 DUP3 ADD MSTORE PUSH1 0x24 ADD SWAP5 SWAP4 POP POP POP POP JUMP JUMPDEST PUSH1 0x0 DUP4 MLOAD PUSH2 0xB2A DUP2 DUP5 PUSH1 0x20 DUP9 ADD PUSH2 0x113C JUMP JUMPDEST DUP1 DUP4 ADD SWAP1 POP PUSH32 0x3C7465787420783D2232302220793D2233383022203E506F736974696F6E3A20 DUP2 MSTORE DUP4 MLOAD PUSH2 0xB65 DUP2 PUSH1 0x20 DUP5 ADD PUSH1 0x20 DUP9 ADD PUSH2 0x113C JUMP JUMPDEST PUSH7 0x1E17BA32BC3A1F PUSH1 0xC9 SHL PUSH1 0x20 SWAP3 SWAP1 SWAP2 ADD SWAP2 DUP3 ADD MSTORE PUSH1 0x27 ADD SWAP5 SWAP4 POP POP POP POP JUMP JUMPDEST PUSH1 0x0 DUP4 MLOAD PUSH2 0xB97 DUP2 DUP5 PUSH1 0x20 DUP9 ADD PUSH2 0x113C JUMP JUMPDEST PUSH32 0x3C7465787420783D2232302220793D2233363022203E476F616C733A20000000 SWAP1 DUP4 ADD SWAP1 DUP2 MSTORE DUP4 MLOAD PUSH2 0xAF8 DUP2 PUSH1 0x1D DUP5 ADD PUSH1 0x20 DUP9 ADD PUSH2 0x113C JUMP JUMPDEST PUSH1 0x0 DUP4 MLOAD PUSH2 0xBE3 DUP2 DUP5 PUSH1 0x20 DUP9 ADD PUSH2 0x113C JUMP JUMPDEST DUP1 DUP4 ADD SWAP1 POP PUSH32 0x3C7465787420783D2232302220793D2233323022203E47616D65706C61793A20 DUP2 MSTORE DUP4 MLOAD PUSH2 0xC1E DUP2 PUSH1 0x20 DUP5 ADD PUSH1 0x20 DUP9 ADD PUSH2 0x113C JUMP JUMPDEST PUSH3 0x36B4B7 PUSH1 0xE9 SHL PUSH1 0x20 SWAP3 SWAP1 SWAP2 ADD SWAP2 DUP3 ADD MSTORE PUSH7 0x1E17BA32BC3A1F PUSH1 0xC9 SHL PUSH1 0x23 DUP3 ADD MSTORE PUSH1 0x2A ADD SWAP5 SWAP4 POP POP POP POP JUMP JUMPDEST PUSH1 0x0 DUP3 MLOAD PUSH2 0xC5C DUP2 DUP5 PUSH1 0x20 DUP8 ADD PUSH2 0x113C JUMP JUMPDEST PUSH32 0x3C726563742077696474683D223130302522206865696768743D223130302522 SWAP3 ADD SWAP2 DUP3 MSTORE POP PUSH7 0x103334B6361E91 PUSH1 0xC9 SHL PUSH1 0x20 DUP3 ADD MSTORE PUSH7 0x23653430323237 PUSH1 0xC8 SHL PUSH1 0x27 DUP3 ADD MSTORE PUSH4 0x1110179F PUSH1 0xE1 SHL PUSH1 0x2E DUP3 ADD MSTORE PUSH1 0x32 ADD SWAP2 SWAP1 POP JUMP JUMPDEST PUSH1 0x0 DUP4 MLOAD PUSH2 0xCCA DUP2 DUP5 PUSH1 0x20 DUP9 ADD PUSH2 0x113C JUMP JUMPDEST DUP1 DUP4 ADD SWAP1 POP PUSH32 0x3C7465787420783D2238302220793D2234302220636C6173733D227469746C65 DUP2 MSTORE PUSH2 0x111F PUSH1 0xF1 SHL PUSH1 0x20 DUP3 ADD MSTORE DUP4 MLOAD PUSH2 0xD10 DUP2 PUSH1 0x22 DUP5 ADD PUSH1 0x20 DUP9 ADD PUSH2 0x113C JUMP JUMPDEST PUSH7 0x1E17BA32BC3A1F PUSH1 0xC9 SHL PUSH1 0x22 SWAP3 SWAP1 SWAP2 ADD SWAP2 DUP3 ADD MSTORE PUSH1 0x29 ADD SWAP5 SWAP4 POP POP POP POP JUMP JUMPDEST PUSH1 0x0 DUP3 MLOAD PUSH2 0xD42 DUP2 DUP5 PUSH1 0x20 DUP8 ADD PUSH2 0x113C JUMP JUMPDEST PUSH1 0x0 DUP1 MLOAD PUSH1 0x20 PUSH2 0x1242 DUP4 CODECOPY DUP2 MLOAD SWAP2 MSTORE SWAP3 ADD SWAP2 DUP3 MSTORE POP PUSH32 0x31352920726F74617465282D39302922203E5465616D204E4654203C2F746578 PUSH1 0x20 DUP3 ADD MSTORE PUSH2 0x3A1F PUSH1 0xF1 SHL PUSH1 0x40 DUP3 ADD MSTORE PUSH1 0x42 ADD SWAP2 SWAP1 POP JUMP JUMPDEST PUSH1 0x0 DUP3 MLOAD PUSH2 0xDA2 DUP2 DUP5 PUSH1 0x20 DUP8 ADD PUSH2 0x113C JUMP JUMPDEST PUSH1 0x0 DUP1 MLOAD PUSH1 0x20 PUSH2 0x1242 DUP4 CODECOPY DUP2 MLOAD SWAP2 MSTORE SWAP3 ADD SWAP2 DUP3 MSTORE POP PUSH32 0x31352920726F74617465282D39302922203E506C6163652033203C2F74657874 PUSH1 0x20 DUP3 ADD MSTORE PUSH1 0x1F PUSH1 0xF9 SHL PUSH1 0x40 DUP3 ADD MSTORE PUSH1 0x41 ADD SWAP2 SWAP1 POP JUMP JUMPDEST PUSH1 0x0 DUP3 MLOAD PUSH2 0xE01 DUP2 DUP5 PUSH1 0x20 DUP8 ADD PUSH2 0x113C JUMP JUMPDEST PUSH1 0x0 DUP1 MLOAD PUSH1 0x20 PUSH2 0x1242 DUP4 CODECOPY DUP2 MLOAD SWAP2 MSTORE SWAP3 ADD SWAP2 DUP3 MSTORE POP PUSH32 0x31352920726F74617465282D39302922203E506C6163652031203C2F74657874 PUSH1 0x20 DUP3 ADD MSTORE PUSH1 0x1F PUSH1 0xF9 SHL PUSH1 0x40 DUP3 ADD MSTORE PUSH1 0x41 ADD SWAP2 SWAP1 POP JUMP JUMPDEST PUSH1 0x0 DUP4 MLOAD PUSH2 0xE60 DUP2 DUP5 PUSH1 0x20 DUP9 ADD PUSH2 0x113C JUMP JUMPDEST DUP1 DUP4 ADD SWAP1 POP PUSH1 0x0 DUP1 MLOAD PUSH1 0x20 PUSH2 0x1242 DUP4 CODECOPY DUP2 MLOAD SWAP2 MSTORE DUP2 MSTORE PUSH32 0x31352920726F74617465282D39302922203E53636F72653A2000000000000000 PUSH1 0x20 DUP3 ADD MSTORE DUP4 MLOAD PUSH2 0xEAF DUP2 PUSH1 0x39 DUP5 ADD PUSH1 0x20 DUP9 ADD PUSH2 0x113C JUMP JUMPDEST PUSH8 0x101E17BA32BC3A1F PUSH1 0xC1 SHL PUSH1 0x39 SWAP3 SWAP1 SWAP2 ADD SWAP2 DUP3 ADD MSTORE PUSH1 0x41 ADD SWAP5 SWAP4 POP POP POP POP JUMP JUMPDEST PUSH1 0x0 DUP3 MLOAD PUSH2 0xEE2 DUP2 DUP5 PUSH1 0x20 DUP8 ADD PUSH2 0x113C JUMP JUMPDEST PUSH6 0x1E17B9BB339F PUSH1 0xD1 SHL SWAP3 ADD SWAP2 DUP3 MSTORE POP PUSH1 0x6 ADD SWAP2 SWAP1 POP JUMP JUMPDEST PUSH1 0x0 DUP3 MLOAD PUSH2 0xF0C DUP2 DUP5 PUSH1 0x20 DUP8 ADD PUSH2 0x113C JUMP JUMPDEST PUSH1 0x0 DUP1 MLOAD PUSH1 0x20 PUSH2 0x1242 DUP4 CODECOPY DUP2 MLOAD SWAP2 MSTORE SWAP3 ADD SWAP2 DUP3 MSTORE POP PUSH32 0x31352920726F74617465282D39302922203E506C6163652032203C2F74657874 PUSH1 0x20 DUP3 ADD MSTORE PUSH1 0x1F PUSH1 0xF9 SHL PUSH1 0x40 DUP3 ADD MSTORE PUSH1 0x41 ADD SWAP2 SWAP1 POP JUMP JUMPDEST PUSH1 0x0 DUP3 MLOAD PUSH2 0xF6B DUP2 DUP5 PUSH1 0x20 DUP8 ADD PUSH2 0x113C JUMP JUMPDEST PUSH7 0x1E39BA3CB6329F PUSH1 0xC9 SHL SWAP3 ADD SWAP2 DUP3 MSTORE POP PUSH32 0x74657874207B20666F6E742D66616D696C793A20417269616C2C2048656C7665 PUSH1 0x7 DUP3 ADD MSTORE PUSH32 0x746963612C2073616E732D73657269663B20666F6E742D7765696768743A2020 PUSH1 0x27 DUP3 ADD MSTORE PUSH32 0x626F6C643B2066696C6C3A20236666653530303B20666F6E742D73697A653A20 PUSH1 0x47 DUP3 ADD MSTORE PUSH6 0x31656D3B207D PUSH1 0xD0 SHL PUSH1 0x67 DUP3 ADD MSTORE PUSH32 0x2E7469746C65207B20746578742D616E63686F723A206C6566743B20666F6E74 PUSH1 0x6D DUP3 ADD MSTORE PUSH32 0x2D7765696768743A20626F6C643B20666F6E742D73697A653A20312E35656D3B PUSH1 0x8D DUP3 ADD MSTORE PUSH2 0x207D PUSH1 0xF0 SHL PUSH1 0xAD DUP3 ADD MSTORE PUSH8 0x1E17B9BA3CB6329F PUSH1 0xC1 SHL PUSH1 0xAF DUP3 ADD MSTORE PUSH1 0xB7 ADD SWAP2 SWAP1 POP JUMP JUMPDEST PUSH1 0x20 DUP2 MSTORE PUSH1 0x0 DUP3 MLOAD DUP1 PUSH1 0x20 DUP5 ADD MSTORE PUSH2 0x108C DUP2 PUSH1 0x40 DUP6 ADD PUSH1 0x20 DUP8 ADD PUSH2 0x113C JUMP JUMPDEST PUSH1 0x1F ADD PUSH1 0x1F NOT AND SWAP2 SWAP1 SWAP2 ADD PUSH1 0x40 ADD SWAP3 SWAP2 POP POP JUMP JUMPDEST PUSH1 0x40 MLOAD PUSH1 0x1F DUP3 ADD PUSH1 0x1F NOT AND DUP2 ADD PUSH8 0xFFFFFFFFFFFFFFFF DUP2 GT DUP3 DUP3 LT OR ISZERO PUSH2 0x10C9 JUMPI PUSH2 0x10C9 PUSH2 0x11DD JUMP JUMPDEST PUSH1 0x40 MSTORE SWAP2 SWAP1 POP JUMP JUMPDEST PUSH1 0x0 PUSH8 0xFFFFFFFFFFFFFFFF DUP3 GT ISZERO PUSH2 0x10EB JUMPI PUSH2 0x10EB PUSH2 0x11DD JUMP JUMPDEST POP PUSH1 0x1F ADD PUSH1 0x1F NOT AND PUSH1 0x20 ADD SWAP1 JUMP JUMPDEST PUSH1 0x0 DUP3 NOT DUP3 GT ISZERO PUSH2 0x110C JUMPI PUSH2 0x110C PUSH2 0x119B JUMP JUMPDEST POP ADD SWAP1 JUMP JUMPDEST PUSH1 0x0 DUP3 PUSH2 0x1120 JUMPI PUSH2 0x1120 PUSH2 0x11B1 JUMP JUMPDEST POP DIV SWAP1 JUMP JUMPDEST PUSH1 0x0 DUP3 DUP3 LT ISZERO PUSH2 0x1137 JUMPI PUSH2 0x1137 PUSH2 0x119B JUMP JUMPDEST POP SUB SWAP1 JUMP JUMPDEST PUSH1 0x0 JUMPDEST DUP4 DUP2 LT ISZERO PUSH2 0x1157 JUMPI DUP2 DUP2 ADD MLOAD DUP4 DUP3 ADD MSTORE PUSH1 0x20 ADD PUSH2 0x113F JUMP JUMPDEST DUP4 DUP2 GT ISZERO PUSH2 0x1166 JUMPI PUSH1 0x0 DUP5 DUP5 ADD MSTORE JUMPDEST POP POP POP POP JUMP JUMPDEST PUSH1 0x0 PUSH1 0x0 NOT DUP3 EQ ISZERO PUSH2 0x1180 JUMPI PUSH2 0x1180 PUSH2 0x119B JUMP JUMPDEST POP PUSH1 0x1 ADD SWAP1 JUMP JUMPDEST PUSH1 0x0 DUP3 PUSH2 0x1196 JUMPI PUSH2 0x1196 PUSH2 0x11B1 JUMP JUMPDEST POP MOD SWAP1 JUMP JUMPDEST PUSH4 0x4E487B71 PUSH1 0xE0 SHL PUSH1 0x0 MSTORE PUSH1 0x11 PUSH1 0x4 MSTORE PUSH1 0x24 PUSH1 0x0 REVERT JUMPDEST PUSH4 0x4E487B71 PUSH1 0xE0 SHL PUSH1 0x0 MSTORE PUSH1 0x12 PUSH1 0x4 MSTORE PUSH1 0x24 PUSH1 0x0 REVERT JUMPDEST PUSH4 0x4E487B71 PUSH1 0xE0 SHL PUSH1 0x0 MSTORE PUSH1 0x32 PUSH1 0x4 MSTORE PUSH1 0x24 PUSH1 0x0 REVERT JUMPDEST PUSH4 0x4E487B71 PUSH1 0xE0 SHL PUSH1 0x0 MSTORE PUSH1 0x41 PUSH1 0x4 MSTORE PUSH1 0x24 PUSH1 0x0 REVERT INVALID EXTCODECOPY PUSH20 0x76672077696474683D2233393022206865696768 PUSH21 0x3D22343335222066696C6C3D22677265656E222078 PUSH14 0x6C6E733D22687474703A2F2F7777 PUSH24 0x2E77332E6F72672F323030302F737667223E3C7465787420 PUSH21 0x72616E73666F726D3D227472616E736C6174652833 CODESIZE ADDRESS 0x2C CALLVALUE LOG2 PUSH5 0x6970667358 0x22 SLT KECCAK256 0xD4 SLOAD 0xC8 SWAP8 0xC6 CODECOPY PUSH26 0xD205EF55DF38A63046D13DD9A27A980C846337890C181FE15E64 PUSH20 0x6F6C634300080700330000000000000000000000 "
		},
		"gasEstimates": {
			"creation": {
				"codeDepositCost": "951800",
				"executionCost": "infinite",
				"totalCost": "infinite"
			},
			"external": {
				"getSVG(uint256,uint256,uint256,string,string,uint256,uint256,uint256)": "infinite"
			},
			"internal": {
				"addImage(string memory,string memory,uint256)": "infinite"
			}
		},
		"methodIdentifiers": {
			"getSVG(uint256,uint256,uint256,string,string,uint256,uint256,uint256)": "9b679c4a"
		}
	},
	"abi": [
		{
			"inputs": [
				{
					"internalType": "address",
					"name": "_AndyPelmard",
					"type": "address"
				},
				{
					"internalType": "address",
					"name": "_LiamMillar",
					"type": "address"
				},
				{
					"internalType": "address",
					"name": "_NoahKatterbach",
					"type": "address"
				},
				{
					"internalType": "address",
					"name": "_PajtimKasami",
					"type": "address"
				},
				{
					"internalType": "address",
					"name": "_HeinzLindner",
					"type": "address"
				}
			],
			"stateMutability": "nonpayable",
			"type": "constructor"
		},
		{
			"inputs": [
				{
					"internalType": "uint256",
					"name": "gameplay",
					"type": "uint256"
				},
				{
					"internalType": "uint256",
					"name": "numberOfGames",
					"type": "uint256"
				},
				{
					"internalType": "uint256",
					"name": "goals",
					"type": "uint256"
				},
				{
					"internalType": "string",
					"name": "name",
					"type": "string"
				},
				{
					"internalType": "string",
					"name": "position",
					"type": "string"
				},
				{
					"internalType": "uint256",
					"name": "level",
					"type": "uint256"
				},
				{
					"internalType": "uint256",
					"name": "tokenId",
					"type": "uint256"
				},
				{
					"internalType": "uint256",
					"name": "score",
					"type": "uint256"
				}
			],
			"name": "getSVG",
			"outputs": [
				{
					"internalType": "string",
					"name": "svg",
					"type": "string"
				}
			],
			"stateMutability": "view",
			"type": "function"
		}
	]
}