{
	"data": {
		"bytecode": {
			"linkReferences": {},
			"object": "60806040523480156200001157600080fd5b50604051620015b9380380620015b98339810160408190526200003491620000b4565b600080546001600160a01b03199081166001600160a01b0397881617909155600180548216958716959095179094556002805485169386169390931790925560038054841691851691909117905560048054909216921691909117905562000124565b80516001600160a01b0381168114620000af57600080fd5b919050565b600080600080600060a08688031215620000cd57600080fd5b620000d88662000097565b9450620000e86020870162000097565b9350620000f86040870162000097565b9250620001086060870162000097565b9150620001186080870162000097565b90509295509295909350565b61148580620001346000396000f3fe608060405234801561001057600080fd5b506004361061002b5760003560e01c806321f8dd9d14610030575b600080fd5b61004361003e366004610b48565b610059565b6040516100509190611266565b60405180910390f35b6060843560208601356040870135600061007660e08a018a611299565b8080601f01602080910402602001604051908101604052809392919081815260200183838082843760009201829052509394506100bb925050506101008b018b611299565b8080601f01602080910402602001604051908101604052809392919081815260200183838082843760009201829052509394506100ff9250505060c08c018c611299565b8080601f016020809104026020016040519081016040528093929190818152602001838380828437600081840152601f19601f82011690508083019250505050505050905060008b60a00135905060008c6080013590506040518060800160405280604e81526020016113e2604e91399850886040516020016101829190611152565b6040516020818303038152906040529850886040516020016101a49190610d32565b60405160208183030381529060405298506101c089868e61047b565b985088846040516020016101d5929190610da0565b604051602081830303815290604052985088836040516020016101f9929190610bed565b60405160208183030381529060405298508861021489610995565b604051602001610225929190611004565b60405160208183030381529060405298508861024088610995565b604051602001610251929190610ed7565b60405160208183030381529060405298508861026c87610995565b60405160200161027d929190610c5a565b60405160208183030381529060405298508260405160200161029f9190610ba2565b604051602081830303815290604052805190602001206040516020016102d5906923b7b0b635b2b2b832b960b11b8152600a0190565b60405160208183030381529060405280519060200120141561032257886102fb82610995565b60405160200161030c9291906110a7565b604051602081830303815290604052985061034f565b8861032c83610995565b60405160200161033d929190610cc6565b60405160208183030381529060405298505b8a6103e9141561037c578860405160200161036a9190610f23565b60405160208183030381529060405298505b8a6103ea14156103a9578860405160200161039791906110f3565b60405160208183030381529060405298505b8a6103eb14156103d657886040516020016103c49190610e78565b60405160208183030381529060405298505b629896808b111561040457886040516020016103f29190610e18565b60405160208183030381529060405298505b6107d08b1180156104175750629896818b105b1561044957886104268b610995565b604051602001610437929190610f82565b60405160208183030381529060405298505b8860405160200161045a919061107d565b60405160208183030381529060405298505050505050505050949350505050565b60608260405160200161048e9190610ba2565b604051602081830303815290604052805190602001206040516020016104c190660706c61796572360cc1b815260070190565b6040516020818303038152906040528051906020012014156105805760005460405163be985ac960e01b81526004810184905285916001600160a01b03169063be985ac99060240160006040518083038186803b15801561052157600080fd5b505afa158015610535573d6000803e3d6000fd5b505050506040513d6000823e601f3d908101601f1916820160405261055d9190810190610a9b565b60405160200161056e929190610bbe565b60405160208183030381529060405290505b826040516020016105919190610ba2565b604051602081830303815290604052805190602001206040516020016105c49066706c617965723160c81b815260070190565b6040516020818303038152906040528051906020012014156106835760015460405163be985ac960e01b81526004810184905285916001600160a01b03169063be985ac99060240160006040518083038186803b15801561062457600080fd5b505afa158015610638573d6000803e3d6000fd5b505050506040513d6000823e601f3d908101601f191682016040526106609190810190610a9b565b604051602001610671929190610bbe565b60405160208183030381529060405290505b826040516020016106949190610ba2565b604051602081830303815290604052805190602001206040516020016106c79066383630bcb2b91960c91b815260070190565b6040516020818303038152906040528051906020012014156107865760025460405163be985ac960e01b81526004810184905285916001600160a01b03169063be985ac99060240160006040518083038186803b15801561072757600080fd5b505afa15801561073b573d6000803e3d6000fd5b505050506040513d6000823e601f3d908101601f191682016040526107639190810190610a9b565b604051602001610774929190610bbe565b60405160208183030381529060405290505b826040516020016107979190610ba2565b604051602081830303815290604052805190602001206040516020016107ca9066706c617965723360c81b815260070190565b6040516020818303038152906040528051906020012014156108895760035460405163be985ac960e01b81526004810184905285916001600160a01b03169063be985ac99060240160006040518083038186803b15801561082a57600080fd5b505afa15801561083e573d6000803e3d6000fd5b505050506040513d6000823e601f3d908101601f191682016040526108669190810190610a9b565b604051602001610877929190610bbe565b60405160208183030381529060405290505b8260405160200161089a9190610ba2565b604051602081830303815290604052805190602001206040516020016108cd90661c1b185e595c8d60ca1b815260070190565b60405160208183030381529060405280519060200120141561098e576004805460405163be985ac960e01b815291820184905285916001600160a01b039091169063be985ac99060240160006040518083038186803b15801561092f57600080fd5b505afa158015610943573d6000803e3d6000fd5b505050506040513d6000823e601f3d908101601f1916820160405261096b9190810190610a9b565b60405160200161097c929190610bbe565b60405160208183030381529060405290505b9392505050565b6060816109b95750506040805180820190915260018152600360fc1b602082015290565b8160005b81156109e357806109cd8161135a565b91506109dc9050600a836112ff565b91506109bd565b60008167ffffffffffffffff8111156109fe576109fe6113cb565b6040519080825280601f01601f191660200182016040528015610a28576020820181803683370190505b5090505b8415610a9357610a3d600183611313565b9150610a4a600a86611375565b610a559060306112e7565b60f81b818381518110610a6a57610a6a6113b5565b60200101906001600160f81b031916908160001a905350610a8c600a866112ff565b9450610a2c565b949350505050565b600060208284031215610aad57600080fd5b815167ffffffffffffffff80821115610ac557600080fd5b818401915084601f830112610ad957600080fd5b815181811115610aeb57610aeb6113cb565b604051601f8201601f19908116603f01168101908382118183101715610b1357610b136113cb565b81604052828152876020848701011115610b2c57600080fd5b610b3d83602083016020880161132a565b979650505050505050565b60008060008060808587031215610b5e57600080fd5b843567ffffffffffffffff811115610b7557600080fd5b85016101208188031215610b8857600080fd5b966020860135965060408601359560600135945092505050565b60008251610bb481846020870161132a565b9190910192915050565b60008351610bd081846020880161132a565b835190830190610be481836020880161132a565b01949350505050565b60008351610bff81846020880161132a565b80830190507f3c7465787420783d2232302220793d2233323022203e506f736974696f6e3a2081528351610c3a81602084016020880161132a565b661e17ba32bc3a1f60c91b60209290910191820152602701949350505050565b60008351610c6c81846020880161132a565b7f3c7465787420783d2232302220793d2233383022203e476f616c733a200000009083019081528351610ca681601d84016020880161132a565b661e17ba32bc3a1f60c91b601d9290910191820152602401949350505050565b60008351610cd881846020880161132a565b7f3c7465787420783d2232302220793d2234303022203e4173736973743a2000009083019081528351610d1281601e84016020880161132a565b661e17ba32bc3a1f60c91b601e9290910191820152602501949350505050565b60008251610d4481846020870161132a565b7f3c726563742077696474683d223130302522206865696768743d22313030252292019182525066103334b6361e9160c91b6020820152662365343032323760c81b6027820152631110179f60e11b602e820152603201919050565b60008351610db281846020880161132a565b80830190507f3c7465787420783d2238302220793d2234302220636c6173733d227469746c65815261111f60f11b60208201528351610df881602284016020880161132a565b661e17ba32bc3a1f60c91b60229290910191820152602901949350505050565b60008251610e2a81846020870161132a565b6000805160206114308339815191529201918252507f31352920726f74617465282d39302922203e5465616d204e4654203c2f7465786020820152613a1f60f11b6040820152604201919050565b60008251610e8a81846020870161132a565b6000805160206114308339815191529201918252507f31352920726f74617465282d39302922203e506c6163652033203c2f746578746020820152601f60f91b6040820152604101919050565b60008351610ee981846020880161132a565b7f3c7465787420783d2232302220793d2233363022203e47616d65733a200000009083019081528351610ca681601d84016020880161132a565b60008251610f3581846020870161132a565b6000805160206114308339815191529201918252507f31352920726f74617465282d39302922203e506c6163652031203c2f746578746020820152601f60f91b6040820152604101919050565b60008351610f9481846020880161132a565b808301905060008051602061143083398151915281527f31352920726f74617465282d39302922203e546f74616c2053636f72653a200060208201528351610fe381603f84016020880161132a565b67101e17ba32bc3a1f60c11b603f9290910191820152604701949350505050565b6000835161101681846020880161132a565b80830190507f3c7465787420783d2232302220793d2233343022203e47616d65706c61793a208152835161105181602084016020880161132a565b6236b4b760e91b60209290910191820152661e17ba32bc3a1f60c91b6023820152602a01949350505050565b6000825161108f81846020870161132a565b651e17b9bb339f60d11b920191825250600601919050565b600083516110b981846020880161132a565b7f3c7465787420783d2232302220793d2234303022203e53617665733a200000009083019081528351610ca681601d84016020880161132a565b6000825161110581846020870161132a565b6000805160206114308339815191529201918252507f31352920726f74617465282d39302922203e506c6163652032203c2f746578746020820152601f60f91b6040820152604101919050565b6000825161116481846020870161132a565b661e39ba3cb6329f60c91b9201918252507f74657874207b20666f6e742d66616d696c793a20417269616c2c2048656c766560078201527f746963612c2073616e732d73657269663b20666f6e742d7765696768743a202060278201527f626f6c643b2066696c6c3a20236666653530303b20666f6e742d73697a653a2060478201526531656d3b207d60d01b60678201527f2e7469746c65207b20746578742d616e63686f723a206c6566743b20666f6e74606d8201527f2d7765696768743a20626f6c643b20666f6e742d73697a653a20312e35656d3b608d82015261207d60f01b60ad820152671e17b9ba3cb6329f60c11b60af82015260b701919050565b602081526000825180602084015261128581604085016020870161132a565b601f01601f19169190910160400192915050565b6000808335601e198436030181126112b057600080fd5b83018035915067ffffffffffffffff8211156112cb57600080fd5b6020019150368190038213156112e057600080fd5b9250929050565b600082198211156112fa576112fa611389565b500190565b60008261130e5761130e61139f565b500490565b60008282101561132557611325611389565b500390565b60005b8381101561134557818101518382015260200161132d565b83811115611354576000848401525b50505050565b600060001982141561136e5761136e611389565b5060010190565b6000826113845761138461139f565b500690565b634e487b7160e01b600052601160045260246000fd5b634e487b7160e01b600052601260045260246000fd5b634e487b7160e01b600052603260045260246000fd5b634e487b7160e01b600052604160045260246000fdfe3c7376672077696474683d2233393022206865696768743d22343335222066696c6c3d22677265656e2220786d6c6e733d22687474703a2f2f7777772e77332e6f72672f323030302f737667223e3c74657874207472616e73666f726d3d227472616e736c617465283338302c34a2646970667358221220cfdd40946814ff1e2af62794e4a4016c4aa2650b844618afeae9bc5b0f4cdee864736f6c63430008070033",
			"opcodes": "PUSH1 0x80 PUSH1 0x40 MSTORE CALLVALUE DUP1 ISZERO PUSH3 0x11 JUMPI PUSH1 0x0 DUP1 REVERT JUMPDEST POP PUSH1 0x40 MLOAD PUSH3 0x15B9 CODESIZE SUB DUP1 PUSH3 0x15B9 DUP4 CODECOPY DUP2 ADD PUSH1 0x40 DUP2 SWAP1 MSTORE PUSH3 0x34 SWAP2 PUSH3 0xB4 JUMP JUMPDEST PUSH1 0x0 DUP1 SLOAD PUSH1 0x1 PUSH1 0x1 PUSH1 0xA0 SHL SUB NOT SWAP1 DUP2 AND PUSH1 0x1 PUSH1 0x1 PUSH1 0xA0 SHL SUB SWAP8 DUP9 AND OR SWAP1 SWAP2 SSTORE PUSH1 0x1 DUP1 SLOAD DUP3 AND SWAP6 DUP8 AND SWAP6 SWAP1 SWAP6 OR SWAP1 SWAP5 SSTORE PUSH1 0x2 DUP1 SLOAD DUP6 AND SWAP4 DUP7 AND SWAP4 SWAP1 SWAP4 OR SWAP1 SWAP3 SSTORE PUSH1 0x3 DUP1 SLOAD DUP5 AND SWAP2 DUP6 AND SWAP2 SWAP1 SWAP2 OR SWAP1 SSTORE PUSH1 0x4 DUP1 SLOAD SWAP1 SWAP3 AND SWAP3 AND SWAP2 SWAP1 SWAP2 OR SWAP1 SSTORE PUSH3 0x124 JUMP JUMPDEST DUP1 MLOAD PUSH1 0x1 PUSH1 0x1 PUSH1 0xA0 SHL SUB DUP2 AND DUP2 EQ PUSH3 0xAF JUMPI PUSH1 0x0 DUP1 REVERT JUMPDEST SWAP2 SWAP1 POP JUMP JUMPDEST PUSH1 0x0 DUP1 PUSH1 0x0 DUP1 PUSH1 0x0 PUSH1 0xA0 DUP7 DUP9 SUB SLT ISZERO PUSH3 0xCD JUMPI PUSH1 0x0 DUP1 REVERT JUMPDEST PUSH3 0xD8 DUP7 PUSH3 0x97 JUMP JUMPDEST SWAP5 POP PUSH3 0xE8 PUSH1 0x20 DUP8 ADD PUSH3 0x97 JUMP JUMPDEST SWAP4 POP PUSH3 0xF8 PUSH1 0x40 DUP8 ADD PUSH3 0x97 JUMP JUMPDEST SWAP3 POP PUSH3 0x108 PUSH1 0x60 DUP8 ADD PUSH3 0x97 JUMP JUMPDEST SWAP2 POP PUSH3 0x118 PUSH1 0x80 DUP8 ADD PUSH3 0x97 JUMP JUMPDEST SWAP1 POP SWAP3 SWAP6 POP SWAP3 SWAP6 SWAP1 SWAP4 POP JUMP JUMPDEST PUSH2 0x1485 DUP1 PUSH3 0x134 PUSH1 0x0 CODECOPY PUSH1 0x0 RETURN INVALID PUSH1 0x80 PUSH1 0x40 MSTORE CALLVALUE DUP1 ISZERO PUSH2 0x10 JUMPI PUSH1 0x0 DUP1 REVERT JUMPDEST POP PUSH1 0x4 CALLDATASIZE LT PUSH2 0x2B JUMPI PUSH1 0x0 CALLDATALOAD PUSH1 0xE0 SHR DUP1 PUSH4 0x21F8DD9D EQ PUSH2 0x30 JUMPI JUMPDEST PUSH1 0x0 DUP1 REVERT JUMPDEST PUSH2 0x43 PUSH2 0x3E CALLDATASIZE PUSH1 0x4 PUSH2 0xB48 JUMP JUMPDEST PUSH2 0x59 JUMP JUMPDEST PUSH1 0x40 MLOAD PUSH2 0x50 SWAP2 SWAP1 PUSH2 0x1266 JUMP JUMPDEST PUSH1 0x40 MLOAD DUP1 SWAP2 SUB SWAP1 RETURN JUMPDEST PUSH1 0x60 DUP5 CALLDATALOAD PUSH1 0x20 DUP7 ADD CALLDATALOAD PUSH1 0x40 DUP8 ADD CALLDATALOAD PUSH1 0x0 PUSH2 0x76 PUSH1 0xE0 DUP11 ADD DUP11 PUSH2 0x1299 JUMP JUMPDEST DUP1 DUP1 PUSH1 0x1F ADD PUSH1 0x20 DUP1 SWAP2 DIV MUL PUSH1 0x20 ADD PUSH1 0x40 MLOAD SWAP1 DUP2 ADD PUSH1 0x40 MSTORE DUP1 SWAP4 SWAP3 SWAP2 SWAP1 DUP2 DUP2 MSTORE PUSH1 0x20 ADD DUP4 DUP4 DUP1 DUP3 DUP5 CALLDATACOPY PUSH1 0x0 SWAP3 ADD DUP3 SWAP1 MSTORE POP SWAP4 SWAP5 POP PUSH2 0xBB SWAP3 POP POP POP PUSH2 0x100 DUP12 ADD DUP12 PUSH2 0x1299 JUMP JUMPDEST DUP1 DUP1 PUSH1 0x1F ADD PUSH1 0x20 DUP1 SWAP2 DIV MUL PUSH1 0x20 ADD PUSH1 0x40 MLOAD SWAP1 DUP2 ADD PUSH1 0x40 MSTORE DUP1 SWAP4 SWAP3 SWAP2 SWAP1 DUP2 DUP2 MSTORE PUSH1 0x20 ADD DUP4 DUP4 DUP1 DUP3 DUP5 CALLDATACOPY PUSH1 0x0 SWAP3 ADD DUP3 SWAP1 MSTORE POP SWAP4 SWAP5 POP PUSH2 0xFF SWAP3 POP POP POP PUSH1 0xC0 DUP13 ADD DUP13 PUSH2 0x1299 JUMP JUMPDEST DUP1 DUP1 PUSH1 0x1F ADD PUSH1 0x20 DUP1 SWAP2 DIV MUL PUSH1 0x20 ADD PUSH1 0x40 MLOAD SWAP1 DUP2 ADD PUSH1 0x40 MSTORE DUP1 SWAP4 SWAP3 SWAP2 SWAP1 DUP2 DUP2 MSTORE PUSH1 0x20 ADD DUP4 DUP4 DUP1 DUP3 DUP5 CALLDATACOPY PUSH1 0x0 DUP2 DUP5 ADD MSTORE PUSH1 0x1F NOT PUSH1 0x1F DUP3 ADD AND SWAP1 POP DUP1 DUP4 ADD SWAP3 POP POP POP POP POP POP POP SWAP1 POP PUSH1 0x0 DUP12 PUSH1 0xA0 ADD CALLDATALOAD SWAP1 POP PUSH1 0x0 DUP13 PUSH1 0x80 ADD CALLDATALOAD SWAP1 POP PUSH1 0x40 MLOAD DUP1 PUSH1 0x80 ADD PUSH1 0x40 MSTORE DUP1 PUSH1 0x4E DUP2 MSTORE PUSH1 0x20 ADD PUSH2 0x13E2 PUSH1 0x4E SWAP2 CODECOPY SWAP9 POP DUP9 PUSH1 0x40 MLOAD PUSH1 0x20 ADD PUSH2 0x182 SWAP2 SWAP1 PUSH2 0x1152 JUMP JUMPDEST PUSH1 0x40 MLOAD PUSH1 0x20 DUP2 DUP4 SUB SUB DUP2 MSTORE SWAP1 PUSH1 0x40 MSTORE SWAP9 POP DUP9 PUSH1 0x40 MLOAD PUSH1 0x20 ADD PUSH2 0x1A4 SWAP2 SWAP1 PUSH2 0xD32 JUMP JUMPDEST PUSH1 0x40 MLOAD PUSH1 0x20 DUP2 DUP4 SUB SUB DUP2 MSTORE SWAP1 PUSH1 0x40 MSTORE SWAP9 POP PUSH2 0x1C0 DUP10 DUP7 DUP15 PUSH2 0x47B JUMP JUMPDEST SWAP9 POP DUP9 DUP5 PUSH1 0x40 MLOAD PUSH1 0x20 ADD PUSH2 0x1D5 SWAP3 SWAP2 SWAP1 PUSH2 0xDA0 JUMP JUMPDEST PUSH1 0x40 MLOAD PUSH1 0x20 DUP2 DUP4 SUB SUB DUP2 MSTORE SWAP1 PUSH1 0x40 MSTORE SWAP9 POP DUP9 DUP4 PUSH1 0x40 MLOAD PUSH1 0x20 ADD PUSH2 0x1F9 SWAP3 SWAP2 SWAP1 PUSH2 0xBED JUMP JUMPDEST PUSH1 0x40 MLOAD PUSH1 0x20 DUP2 DUP4 SUB SUB DUP2 MSTORE SWAP1 PUSH1 0x40 MSTORE SWAP9 POP DUP9 PUSH2 0x214 DUP10 PUSH2 0x995 JUMP JUMPDEST PUSH1 0x40 MLOAD PUSH1 0x20 ADD PUSH2 0x225 SWAP3 SWAP2 SWAP1 PUSH2 0x1004 JUMP JUMPDEST PUSH1 0x40 MLOAD PUSH1 0x20 DUP2 DUP4 SUB SUB DUP2 MSTORE SWAP1 PUSH1 0x40 MSTORE SWAP9 POP DUP9 PUSH2 0x240 DUP9 PUSH2 0x995 JUMP JUMPDEST PUSH1 0x40 MLOAD PUSH1 0x20 ADD PUSH2 0x251 SWAP3 SWAP2 SWAP1 PUSH2 0xED7 JUMP JUMPDEST PUSH1 0x40 MLOAD PUSH1 0x20 DUP2 DUP4 SUB SUB DUP2 MSTORE SWAP1 PUSH1 0x40 MSTORE SWAP9 POP DUP9 PUSH2 0x26C DUP8 PUSH2 0x995 JUMP JUMPDEST PUSH1 0x40 MLOAD PUSH1 0x20 ADD PUSH2 0x27D SWAP3 SWAP2 SWAP1 PUSH2 0xC5A JUMP JUMPDEST PUSH1 0x40 MLOAD PUSH1 0x20 DUP2 DUP4 SUB SUB DUP2 MSTORE SWAP1 PUSH1 0x40 MSTORE SWAP9 POP DUP3 PUSH1 0x40 MLOAD PUSH1 0x20 ADD PUSH2 0x29F SWAP2 SWAP1 PUSH2 0xBA2 JUMP JUMPDEST PUSH1 0x40 MLOAD PUSH1 0x20 DUP2 DUP4 SUB SUB DUP2 MSTORE SWAP1 PUSH1 0x40 MSTORE DUP1 MLOAD SWAP1 PUSH1 0x20 ADD KECCAK256 PUSH1 0x40 MLOAD PUSH1 0x20 ADD PUSH2 0x2D5 SWAP1 PUSH10 0x23B7B0B635B2B2B832B9 PUSH1 0xB1 SHL DUP2 MSTORE PUSH1 0xA ADD SWAP1 JUMP JUMPDEST PUSH1 0x40 MLOAD PUSH1 0x20 DUP2 DUP4 SUB SUB DUP2 MSTORE SWAP1 PUSH1 0x40 MSTORE DUP1 MLOAD SWAP1 PUSH1 0x20 ADD KECCAK256 EQ ISZERO PUSH2 0x322 JUMPI DUP9 PUSH2 0x2FB DUP3 PUSH2 0x995 JUMP JUMPDEST PUSH1 0x40 MLOAD PUSH1 0x20 ADD PUSH2 0x30C SWAP3 SWAP2 SWAP1 PUSH2 0x10A7 JUMP JUMPDEST PUSH1 0x40 MLOAD PUSH1 0x20 DUP2 DUP4 SUB SUB DUP2 MSTORE SWAP1 PUSH1 0x40 MSTORE SWAP9 POP PUSH2 0x34F JUMP JUMPDEST DUP9 PUSH2 0x32C DUP4 PUSH2 0x995 JUMP JUMPDEST PUSH1 0x40 MLOAD PUSH1 0x20 ADD PUSH2 0x33D SWAP3 SWAP2 SWAP1 PUSH2 0xCC6 JUMP JUMPDEST PUSH1 0x40 MLOAD PUSH1 0x20 DUP2 DUP4 SUB SUB DUP2 MSTORE SWAP1 PUSH1 0x40 MSTORE SWAP9 POP JUMPDEST DUP11 PUSH2 0x3E9 EQ ISZERO PUSH2 0x37C JUMPI DUP9 PUSH1 0x40 MLOAD PUSH1 0x20 ADD PUSH2 0x36A SWAP2 SWAP1 PUSH2 0xF23 JUMP JUMPDEST PUSH1 0x40 MLOAD PUSH1 0x20 DUP2 DUP4 SUB SUB DUP2 MSTORE SWAP1 PUSH1 0x40 MSTORE SWAP9 POP JUMPDEST DUP11 PUSH2 0x3EA EQ ISZERO PUSH2 0x3A9 JUMPI DUP9 PUSH1 0x40 MLOAD PUSH1 0x20 ADD PUSH2 0x397 SWAP2 SWAP1 PUSH2 0x10F3 JUMP JUMPDEST PUSH1 0x40 MLOAD PUSH1 0x20 DUP2 DUP4 SUB SUB DUP2 MSTORE SWAP1 PUSH1 0x40 MSTORE SWAP9 POP JUMPDEST DUP11 PUSH2 0x3EB EQ ISZERO PUSH2 0x3D6 JUMPI DUP9 PUSH1 0x40 MLOAD PUSH1 0x20 ADD PUSH2 0x3C4 SWAP2 SWAP1 PUSH2 0xE78 JUMP JUMPDEST PUSH1 0x40 MLOAD PUSH1 0x20 DUP2 DUP4 SUB SUB DUP2 MSTORE SWAP1 PUSH1 0x40 MSTORE SWAP9 POP JUMPDEST PUSH3 0x989680 DUP12 GT ISZERO PUSH2 0x404 JUMPI DUP9 PUSH1 0x40 MLOAD PUSH1 0x20 ADD PUSH2 0x3F2 SWAP2 SWAP1 PUSH2 0xE18 JUMP JUMPDEST PUSH1 0x40 MLOAD PUSH1 0x20 DUP2 DUP4 SUB SUB DUP2 MSTORE SWAP1 PUSH1 0x40 MSTORE SWAP9 POP JUMPDEST PUSH2 0x7D0 DUP12 GT DUP1 ISZERO PUSH2 0x417 JUMPI POP PUSH3 0x989681 DUP12 LT JUMPDEST ISZERO PUSH2 0x449 JUMPI DUP9 PUSH2 0x426 DUP12 PUSH2 0x995 JUMP JUMPDEST PUSH1 0x40 MLOAD PUSH1 0x20 ADD PUSH2 0x437 SWAP3 SWAP2 SWAP1 PUSH2 0xF82 JUMP JUMPDEST PUSH1 0x40 MLOAD PUSH1 0x20 DUP2 DUP4 SUB SUB DUP2 MSTORE SWAP1 PUSH1 0x40 MSTORE SWAP9 POP JUMPDEST DUP9 PUSH1 0x40 MLOAD PUSH1 0x20 ADD PUSH2 0x45A SWAP2 SWAP1 PUSH2 0x107D JUMP JUMPDEST PUSH1 0x40 MLOAD PUSH1 0x20 DUP2 DUP4 SUB SUB DUP2 MSTORE SWAP1 PUSH1 0x40 MSTORE SWAP9 POP POP POP POP POP POP POP POP POP SWAP5 SWAP4 POP POP POP POP JUMP JUMPDEST PUSH1 0x60 DUP3 PUSH1 0x40 MLOAD PUSH1 0x20 ADD PUSH2 0x48E SWAP2 SWAP1 PUSH2 0xBA2 JUMP JUMPDEST PUSH1 0x40 MLOAD PUSH1 0x20 DUP2 DUP4 SUB SUB DUP2 MSTORE SWAP1 PUSH1 0x40 MSTORE DUP1 MLOAD SWAP1 PUSH1 0x20 ADD KECCAK256 PUSH1 0x40 MLOAD PUSH1 0x20 ADD PUSH2 0x4C1 SWAP1 PUSH7 0x706C617965723 PUSH1 0xCC SHL DUP2 MSTORE PUSH1 0x7 ADD SWAP1 JUMP JUMPDEST PUSH1 0x40 MLOAD PUSH1 0x20 DUP2 DUP4 SUB SUB DUP2 MSTORE SWAP1 PUSH1 0x40 MSTORE DUP1 MLOAD SWAP1 PUSH1 0x20 ADD KECCAK256 EQ ISZERO PUSH2 0x580 JUMPI PUSH1 0x0 SLOAD PUSH1 0x40 MLOAD PUSH4 0xBE985AC9 PUSH1 0xE0 SHL DUP2 MSTORE PUSH1 0x4 DUP2 ADD DUP5 SWAP1 MSTORE DUP6 SWAP2 PUSH1 0x1 PUSH1 0x1 PUSH1 0xA0 SHL SUB AND SWAP1 PUSH4 0xBE985AC9 SWAP1 PUSH1 0x24 ADD PUSH1 0x0 PUSH1 0x40 MLOAD DUP1 DUP4 SUB DUP2 DUP7 DUP1 EXTCODESIZE ISZERO DUP1 ISZERO PUSH2 0x521 JUMPI PUSH1 0x0 DUP1 REVERT JUMPDEST POP GAS STATICCALL ISZERO DUP1 ISZERO PUSH2 0x535 JUMPI RETURNDATASIZE PUSH1 0x0 DUP1 RETURNDATACOPY RETURNDATASIZE PUSH1 0x0 REVERT JUMPDEST POP POP POP POP PUSH1 0x40 MLOAD RETURNDATASIZE PUSH1 0x0 DUP3 RETURNDATACOPY PUSH1 0x1F RETURNDATASIZE SWAP1 DUP2 ADD PUSH1 0x1F NOT AND DUP3 ADD PUSH1 0x40 MSTORE PUSH2 0x55D SWAP2 SWAP1 DUP2 ADD SWAP1 PUSH2 0xA9B JUMP JUMPDEST PUSH1 0x40 MLOAD PUSH1 0x20 ADD PUSH2 0x56E SWAP3 SWAP2 SWAP1 PUSH2 0xBBE JUMP JUMPDEST PUSH1 0x40 MLOAD PUSH1 0x20 DUP2 DUP4 SUB SUB DUP2 MSTORE SWAP1 PUSH1 0x40 MSTORE SWAP1 POP JUMPDEST DUP3 PUSH1 0x40 MLOAD PUSH1 0x20 ADD PUSH2 0x591 SWAP2 SWAP1 PUSH2 0xBA2 JUMP JUMPDEST PUSH1 0x40 MLOAD PUSH1 0x20 DUP2 DUP4 SUB SUB DUP2 MSTORE SWAP1 PUSH1 0x40 MSTORE DUP1 MLOAD SWAP1 PUSH1 0x20 ADD KECCAK256 PUSH1 0x40 MLOAD PUSH1 0x20 ADD PUSH2 0x5C4 SWAP1 PUSH7 0x706C6179657231 PUSH1 0xC8 SHL DUP2 MSTORE PUSH1 0x7 ADD SWAP1 JUMP JUMPDEST PUSH1 0x40 MLOAD PUSH1 0x20 DUP2 DUP4 SUB SUB DUP2 MSTORE SWAP1 PUSH1 0x40 MSTORE DUP1 MLOAD SWAP1 PUSH1 0x20 ADD KECCAK256 EQ ISZERO PUSH2 0x683 JUMPI PUSH1 0x1 SLOAD PUSH1 0x40 MLOAD PUSH4 0xBE985AC9 PUSH1 0xE0 SHL DUP2 MSTORE PUSH1 0x4 DUP2 ADD DUP5 SWAP1 MSTORE DUP6 SWAP2 PUSH1 0x1 PUSH1 0x1 PUSH1 0xA0 SHL SUB AND SWAP1 PUSH4 0xBE985AC9 SWAP1 PUSH1 0x24 ADD PUSH1 0x0 PUSH1 0x40 MLOAD DUP1 DUP4 SUB DUP2 DUP7 DUP1 EXTCODESIZE ISZERO DUP1 ISZERO PUSH2 0x624 JUMPI PUSH1 0x0 DUP1 REVERT JUMPDEST POP GAS STATICCALL ISZERO DUP1 ISZERO PUSH2 0x638 JUMPI RETURNDATASIZE PUSH1 0x0 DUP1 RETURNDATACOPY RETURNDATASIZE PUSH1 0x0 REVERT JUMPDEST POP POP POP POP PUSH1 0x40 MLOAD RETURNDATASIZE PUSH1 0x0 DUP3 RETURNDATACOPY PUSH1 0x1F RETURNDATASIZE SWAP1 DUP2 ADD PUSH1 0x1F NOT AND DUP3 ADD PUSH1 0x40 MSTORE PUSH2 0x660 SWAP2 SWAP1 DUP2 ADD SWAP1 PUSH2 0xA9B JUMP JUMPDEST PUSH1 0x40 MLOAD PUSH1 0x20 ADD PUSH2 0x671 SWAP3 SWAP2 SWAP1 PUSH2 0xBBE JUMP JUMPDEST PUSH1 0x40 MLOAD PUSH1 0x20 DUP2 DUP4 SUB SUB DUP2 MSTORE SWAP1 PUSH1 0x40 MSTORE SWAP1 POP JUMPDEST DUP3 PUSH1 0x40 MLOAD PUSH1 0x20 ADD PUSH2 0x694 SWAP2 SWAP1 PUSH2 0xBA2 JUMP JUMPDEST PUSH1 0x40 MLOAD PUSH1 0x20 DUP2 DUP4 SUB SUB DUP2 MSTORE SWAP1 PUSH1 0x40 MSTORE DUP1 MLOAD SWAP1 PUSH1 0x20 ADD KECCAK256 PUSH1 0x40 MLOAD PUSH1 0x20 ADD PUSH2 0x6C7 SWAP1 PUSH7 0x383630BCB2B919 PUSH1 0xC9 SHL DUP2 MSTORE PUSH1 0x7 ADD SWAP1 JUMP JUMPDEST PUSH1 0x40 MLOAD PUSH1 0x20 DUP2 DUP4 SUB SUB DUP2 MSTORE SWAP1 PUSH1 0x40 MSTORE DUP1 MLOAD SWAP1 PUSH1 0x20 ADD KECCAK256 EQ ISZERO PUSH2 0x786 JUMPI PUSH1 0x2 SLOAD PUSH1 0x40 MLOAD PUSH4 0xBE985AC9 PUSH1 0xE0 SHL DUP2 MSTORE PUSH1 0x4 DUP2 ADD DUP5 SWAP1 MSTORE DUP6 SWAP2 PUSH1 0x1 PUSH1 0x1 PUSH1 0xA0 SHL SUB AND SWAP1 PUSH4 0xBE985AC9 SWAP1 PUSH1 0x24 ADD PUSH1 0x0 PUSH1 0x40 MLOAD DUP1 DUP4 SUB DUP2 DUP7 DUP1 EXTCODESIZE ISZERO DUP1 ISZERO PUSH2 0x727 JUMPI PUSH1 0x0 DUP1 REVERT JUMPDEST POP GAS STATICCALL ISZERO DUP1 ISZERO PUSH2 0x73B JUMPI RETURNDATASIZE PUSH1 0x0 DUP1 RETURNDATACOPY RETURNDATASIZE PUSH1 0x0 REVERT JUMPDEST POP POP POP POP PUSH1 0x40 MLOAD RETURNDATASIZE PUSH1 0x0 DUP3 RETURNDATACOPY PUSH1 0x1F RETURNDATASIZE SWAP1 DUP2 ADD PUSH1 0x1F NOT AND DUP3 ADD PUSH1 0x40 MSTORE PUSH2 0x763 SWAP2 SWAP1 DUP2 ADD SWAP1 PUSH2 0xA9B JUMP JUMPDEST PUSH1 0x40 MLOAD PUSH1 0x20 ADD PUSH2 0x774 SWAP3 SWAP2 SWAP1 PUSH2 0xBBE JUMP JUMPDEST PUSH1 0x40 MLOAD PUSH1 0x20 DUP2 DUP4 SUB SUB DUP2 MSTORE SWAP1 PUSH1 0x40 MSTORE SWAP1 POP JUMPDEST DUP3 PUSH1 0x40 MLOAD PUSH1 0x20 ADD PUSH2 0x797 SWAP2 SWAP1 PUSH2 0xBA2 JUMP JUMPDEST PUSH1 0x40 MLOAD PUSH1 0x20 DUP2 DUP4 SUB SUB DUP2 MSTORE SWAP1 PUSH1 0x40 MSTORE DUP1 MLOAD SWAP1 PUSH1 0x20 ADD KECCAK256 PUSH1 0x40 MLOAD PUSH1 0x20 ADD PUSH2 0x7CA SWAP1 PUSH7 0x706C6179657233 PUSH1 0xC8 SHL DUP2 MSTORE PUSH1 0x7 ADD SWAP1 JUMP JUMPDEST PUSH1 0x40 MLOAD PUSH1 0x20 DUP2 DUP4 SUB SUB DUP2 MSTORE SWAP1 PUSH1 0x40 MSTORE DUP1 MLOAD SWAP1 PUSH1 0x20 ADD KECCAK256 EQ ISZERO PUSH2 0x889 JUMPI PUSH1 0x3 SLOAD PUSH1 0x40 MLOAD PUSH4 0xBE985AC9 PUSH1 0xE0 SHL DUP2 MSTORE PUSH1 0x4 DUP2 ADD DUP5 SWAP1 MSTORE DUP6 SWAP2 PUSH1 0x1 PUSH1 0x1 PUSH1 0xA0 SHL SUB AND SWAP1 PUSH4 0xBE985AC9 SWAP1 PUSH1 0x24 ADD PUSH1 0x0 PUSH1 0x40 MLOAD DUP1 DUP4 SUB DUP2 DUP7 DUP1 EXTCODESIZE ISZERO DUP1 ISZERO PUSH2 0x82A JUMPI PUSH1 0x0 DUP1 REVERT JUMPDEST POP GAS STATICCALL ISZERO DUP1 ISZERO PUSH2 0x83E JUMPI RETURNDATASIZE PUSH1 0x0 DUP1 RETURNDATACOPY RETURNDATASIZE PUSH1 0x0 REVERT JUMPDEST POP POP POP POP PUSH1 0x40 MLOAD RETURNDATASIZE PUSH1 0x0 DUP3 RETURNDATACOPY PUSH1 0x1F RETURNDATASIZE SWAP1 DUP2 ADD PUSH1 0x1F NOT AND DUP3 ADD PUSH1 0x40 MSTORE PUSH2 0x866 SWAP2 SWAP1 DUP2 ADD SWAP1 PUSH2 0xA9B JUMP JUMPDEST PUSH1 0x40 MLOAD PUSH1 0x20 ADD PUSH2 0x877 SWAP3 SWAP2 SWAP1 PUSH2 0xBBE JUMP JUMPDEST PUSH1 0x40 MLOAD PUSH1 0x20 DUP2 DUP4 SUB SUB DUP2 MSTORE SWAP1 PUSH1 0x40 MSTORE SWAP1 POP JUMPDEST DUP3 PUSH1 0x40 MLOAD PUSH1 0x20 ADD PUSH2 0x89A SWAP2 SWAP1 PUSH2 0xBA2 JUMP JUMPDEST PUSH1 0x40 MLOAD PUSH1 0x20 DUP2 DUP4 SUB SUB DUP2 MSTORE SWAP1 PUSH1 0x40 MSTORE DUP1 MLOAD SWAP1 PUSH1 0x20 ADD KECCAK256 PUSH1 0x40 MLOAD PUSH1 0x20 ADD PUSH2 0x8CD SWAP1 PUSH7 0x1C1B185E595C8D PUSH1 0xCA SHL DUP2 MSTORE PUSH1 0x7 ADD SWAP1 JUMP JUMPDEST PUSH1 0x40 MLOAD PUSH1 0x20 DUP2 DUP4 SUB SUB DUP2 MSTORE SWAP1 PUSH1 0x40 MSTORE DUP1 MLOAD SWAP1 PUSH1 0x20 ADD KECCAK256 EQ ISZERO PUSH2 0x98E JUMPI PUSH1 0x4 DUP1 SLOAD PUSH1 0x40 MLOAD PUSH4 0xBE985AC9 PUSH1 0xE0 SHL DUP2 MSTORE SWAP2 DUP3 ADD DUP5 SWAP1 MSTORE DUP6 SWAP2 PUSH1 0x1 PUSH1 0x1 PUSH1 0xA0 SHL SUB SWAP1 SWAP2 AND SWAP1 PUSH4 0xBE985AC9 SWAP1 PUSH1 0x24 ADD PUSH1 0x0 PUSH1 0x40 MLOAD DUP1 DUP4 SUB DUP2 DUP7 DUP1 EXTCODESIZE ISZERO DUP1 ISZERO PUSH2 0x92F JUMPI PUSH1 0x0 DUP1 REVERT JUMPDEST POP GAS STATICCALL ISZERO DUP1 ISZERO PUSH2 0x943 JUMPI RETURNDATASIZE PUSH1 0x0 DUP1 RETURNDATACOPY RETURNDATASIZE PUSH1 0x0 REVERT JUMPDEST POP POP POP POP PUSH1 0x40 MLOAD RETURNDATASIZE PUSH1 0x0 DUP3 RETURNDATACOPY PUSH1 0x1F RETURNDATASIZE SWAP1 DUP2 ADD PUSH1 0x1F NOT AND DUP3 ADD PUSH1 0x40 MSTORE PUSH2 0x96B SWAP2 SWAP1 DUP2 ADD SWAP1 PUSH2 0xA9B JUMP JUMPDEST PUSH1 0x40 MLOAD PUSH1 0x20 ADD PUSH2 0x97C SWAP3 SWAP2 SWAP1 PUSH2 0xBBE JUMP JUMPDEST PUSH1 0x40 MLOAD PUSH1 0x20 DUP2 DUP4 SUB SUB DUP2 MSTORE SWAP1 PUSH1 0x40 MSTORE SWAP1 POP JUMPDEST SWAP4 SWAP3 POP POP POP JUMP JUMPDEST PUSH1 0x60 DUP2 PUSH2 0x9B9 JUMPI POP POP PUSH1 0x40 DUP1 MLOAD DUP1 DUP3 ADD SWAP1 SWAP2 MSTORE PUSH1 0x1 DUP2 MSTORE PUSH1 0x3 PUSH1 0xFC SHL PUSH1 0x20 DUP3 ADD MSTORE SWAP1 JUMP JUMPDEST DUP2 PUSH1 0x0 JUMPDEST DUP2 ISZERO PUSH2 0x9E3 JUMPI DUP1 PUSH2 0x9CD DUP2 PUSH2 0x135A JUMP JUMPDEST SWAP2 POP PUSH2 0x9DC SWAP1 POP PUSH1 0xA DUP4 PUSH2 0x12FF JUMP JUMPDEST SWAP2 POP PUSH2 0x9BD JUMP JUMPDEST PUSH1 0x0 DUP2 PUSH8 0xFFFFFFFFFFFFFFFF DUP2 GT ISZERO PUSH2 0x9FE JUMPI PUSH2 0x9FE PUSH2 0x13CB JUMP JUMPDEST PUSH1 0x40 MLOAD SWAP1 DUP1 DUP3 MSTORE DUP1 PUSH1 0x1F ADD PUSH1 0x1F NOT AND PUSH1 0x20 ADD DUP3 ADD PUSH1 0x40 MSTORE DUP1 ISZERO PUSH2 0xA28 JUMPI PUSH1 0x20 DUP3 ADD DUP2 DUP1 CALLDATASIZE DUP4 CALLDATACOPY ADD SWAP1 POP JUMPDEST POP SWAP1 POP JUMPDEST DUP5 ISZERO PUSH2 0xA93 JUMPI PUSH2 0xA3D PUSH1 0x1 DUP4 PUSH2 0x1313 JUMP JUMPDEST SWAP2 POP PUSH2 0xA4A PUSH1 0xA DUP7 PUSH2 0x1375 JUMP JUMPDEST PUSH2 0xA55 SWAP1 PUSH1 0x30 PUSH2 0x12E7 JUMP JUMPDEST PUSH1 0xF8 SHL DUP2 DUP4 DUP2 MLOAD DUP2 LT PUSH2 0xA6A JUMPI PUSH2 0xA6A PUSH2 0x13B5 JUMP JUMPDEST PUSH1 0x20 ADD ADD SWAP1 PUSH1 0x1 PUSH1 0x1 PUSH1 0xF8 SHL SUB NOT AND SWAP1 DUP2 PUSH1 0x0 BYTE SWAP1 MSTORE8 POP PUSH2 0xA8C PUSH1 0xA DUP7 PUSH2 0x12FF JUMP JUMPDEST SWAP5 POP PUSH2 0xA2C JUMP JUMPDEST SWAP5 SWAP4 POP POP POP POP JUMP JUMPDEST PUSH1 0x0 PUSH1 0x20 DUP3 DUP5 SUB SLT ISZERO PUSH2 0xAAD JUMPI PUSH1 0x0 DUP1 REVERT JUMPDEST DUP2 MLOAD PUSH8 0xFFFFFFFFFFFFFFFF DUP1 DUP3 GT ISZERO PUSH2 0xAC5 JUMPI PUSH1 0x0 DUP1 REVERT JUMPDEST DUP2 DUP5 ADD SWAP2 POP DUP5 PUSH1 0x1F DUP4 ADD SLT PUSH2 0xAD9 JUMPI PUSH1 0x0 DUP1 REVERT JUMPDEST DUP2 MLOAD DUP2 DUP2 GT ISZERO PUSH2 0xAEB JUMPI PUSH2 0xAEB PUSH2 0x13CB JUMP JUMPDEST PUSH1 0x40 MLOAD PUSH1 0x1F DUP3 ADD PUSH1 0x1F NOT SWAP1 DUP2 AND PUSH1 0x3F ADD AND DUP2 ADD SWAP1 DUP4 DUP3 GT DUP2 DUP4 LT OR ISZERO PUSH2 0xB13 JUMPI PUSH2 0xB13 PUSH2 0x13CB JUMP JUMPDEST DUP2 PUSH1 0x40 MSTORE DUP3 DUP2 MSTORE DUP8 PUSH1 0x20 DUP5 DUP8 ADD ADD GT ISZERO PUSH2 0xB2C JUMPI PUSH1 0x0 DUP1 REVERT JUMPDEST PUSH2 0xB3D DUP4 PUSH1 0x20 DUP4 ADD PUSH1 0x20 DUP9 ADD PUSH2 0x132A JUMP JUMPDEST SWAP8 SWAP7 POP POP POP POP POP POP POP JUMP JUMPDEST PUSH1 0x0 DUP1 PUSH1 0x0 DUP1 PUSH1 0x80 DUP6 DUP8 SUB SLT ISZERO PUSH2 0xB5E JUMPI PUSH1 0x0 DUP1 REVERT JUMPDEST DUP5 CALLDATALOAD PUSH8 0xFFFFFFFFFFFFFFFF DUP2 GT ISZERO PUSH2 0xB75 JUMPI PUSH1 0x0 DUP1 REVERT JUMPDEST DUP6 ADD PUSH2 0x120 DUP2 DUP9 SUB SLT ISZERO PUSH2 0xB88 JUMPI PUSH1 0x0 DUP1 REVERT JUMPDEST SWAP7 PUSH1 0x20 DUP7 ADD CALLDATALOAD SWAP7 POP PUSH1 0x40 DUP7 ADD CALLDATALOAD SWAP6 PUSH1 0x60 ADD CALLDATALOAD SWAP5 POP SWAP3 POP POP POP JUMP JUMPDEST PUSH1 0x0 DUP3 MLOAD PUSH2 0xBB4 DUP2 DUP5 PUSH1 0x20 DUP8 ADD PUSH2 0x132A JUMP JUMPDEST SWAP2 SWAP1 SWAP2 ADD SWAP3 SWAP2 POP POP JUMP JUMPDEST PUSH1 0x0 DUP4 MLOAD PUSH2 0xBD0 DUP2 DUP5 PUSH1 0x20 DUP9 ADD PUSH2 0x132A JUMP JUMPDEST DUP4 MLOAD SWAP1 DUP4 ADD SWAP1 PUSH2 0xBE4 DUP2 DUP4 PUSH1 0x20 DUP9 ADD PUSH2 0x132A JUMP JUMPDEST ADD SWAP5 SWAP4 POP POP POP POP JUMP JUMPDEST PUSH1 0x0 DUP4 MLOAD PUSH2 0xBFF DUP2 DUP5 PUSH1 0x20 DUP9 ADD PUSH2 0x132A JUMP JUMPDEST DUP1 DUP4 ADD SWAP1 POP PUSH32 0x3C7465787420783D2232302220793D2233323022203E506F736974696F6E3A20 DUP2 MSTORE DUP4 MLOAD PUSH2 0xC3A DUP2 PUSH1 0x20 DUP5 ADD PUSH1 0x20 DUP9 ADD PUSH2 0x132A JUMP JUMPDEST PUSH7 0x1E17BA32BC3A1F PUSH1 0xC9 SHL PUSH1 0x20 SWAP3 SWAP1 SWAP2 ADD SWAP2 DUP3 ADD MSTORE PUSH1 0x27 ADD SWAP5 SWAP4 POP POP POP POP JUMP JUMPDEST PUSH1 0x0 DUP4 MLOAD PUSH2 0xC6C DUP2 DUP5 PUSH1 0x20 DUP9 ADD PUSH2 0x132A JUMP JUMPDEST PUSH32 0x3C7465787420783D2232302220793D2233383022203E476F616C733A20000000 SWAP1 DUP4 ADD SWAP1 DUP2 MSTORE DUP4 MLOAD PUSH2 0xCA6 DUP2 PUSH1 0x1D DUP5 ADD PUSH1 0x20 DUP9 ADD PUSH2 0x132A JUMP JUMPDEST PUSH7 0x1E17BA32BC3A1F PUSH1 0xC9 SHL PUSH1 0x1D SWAP3 SWAP1 SWAP2 ADD SWAP2 DUP3 ADD MSTORE PUSH1 0x24 ADD SWAP5 SWAP4 POP POP POP POP JUMP JUMPDEST PUSH1 0x0 DUP4 MLOAD PUSH2 0xCD8 DUP2 DUP5 PUSH1 0x20 DUP9 ADD PUSH2 0x132A JUMP JUMPDEST PUSH32 0x3C7465787420783D2232302220793D2234303022203E4173736973743A200000 SWAP1 DUP4 ADD SWAP1 DUP2 MSTORE DUP4 MLOAD PUSH2 0xD12 DUP2 PUSH1 0x1E DUP5 ADD PUSH1 0x20 DUP9 ADD PUSH2 0x132A JUMP JUMPDEST PUSH7 0x1E17BA32BC3A1F PUSH1 0xC9 SHL PUSH1 0x1E SWAP3 SWAP1 SWAP2 ADD SWAP2 DUP3 ADD MSTORE PUSH1 0x25 ADD SWAP5 SWAP4 POP POP POP POP JUMP JUMPDEST PUSH1 0x0 DUP3 MLOAD PUSH2 0xD44 DUP2 DUP5 PUSH1 0x20 DUP8 ADD PUSH2 0x132A JUMP JUMPDEST PUSH32 0x3C726563742077696474683D223130302522206865696768743D223130302522 SWAP3 ADD SWAP2 DUP3 MSTORE POP PUSH7 0x103334B6361E91 PUSH1 0xC9 SHL PUSH1 0x20 DUP3 ADD MSTORE PUSH7 0x23653430323237 PUSH1 0xC8 SHL PUSH1 0x27 DUP3 ADD MSTORE PUSH4 0x1110179F PUSH1 0xE1 SHL PUSH1 0x2E DUP3 ADD MSTORE PUSH1 0x32 ADD SWAP2 SWAP1 POP JUMP JUMPDEST PUSH1 0x0 DUP4 MLOAD PUSH2 0xDB2 DUP2 DUP5 PUSH1 0x20 DUP9 ADD PUSH2 0x132A JUMP JUMPDEST DUP1 DUP4 ADD SWAP1 POP PUSH32 0x3C7465787420783D2238302220793D2234302220636C6173733D227469746C65 DUP2 MSTORE PUSH2 0x111F PUSH1 0xF1 SHL PUSH1 0x20 DUP3 ADD MSTORE DUP4 MLOAD PUSH2 0xDF8 DUP2 PUSH1 0x22 DUP5 ADD PUSH1 0x20 DUP9 ADD PUSH2 0x132A JUMP JUMPDEST PUSH7 0x1E17BA32BC3A1F PUSH1 0xC9 SHL PUSH1 0x22 SWAP3 SWAP1 SWAP2 ADD SWAP2 DUP3 ADD MSTORE PUSH1 0x29 ADD SWAP5 SWAP4 POP POP POP POP JUMP JUMPDEST PUSH1 0x0 DUP3 MLOAD PUSH2 0xE2A DUP2 DUP5 PUSH1 0x20 DUP8 ADD PUSH2 0x132A JUMP JUMPDEST PUSH1 0x0 DUP1 MLOAD PUSH1 0x20 PUSH2 0x1430 DUP4 CODECOPY DUP2 MLOAD SWAP2 MSTORE SWAP3 ADD SWAP2 DUP3 MSTORE POP PUSH32 0x31352920726F74617465282D39302922203E5465616D204E4654203C2F746578 PUSH1 0x20 DUP3 ADD MSTORE PUSH2 0x3A1F PUSH1 0xF1 SHL PUSH1 0x40 DUP3 ADD MSTORE PUSH1 0x42 ADD SWAP2 SWAP1 POP JUMP JUMPDEST PUSH1 0x0 DUP3 MLOAD PUSH2 0xE8A DUP2 DUP5 PUSH1 0x20 DUP8 ADD PUSH2 0x132A JUMP JUMPDEST PUSH1 0x0 DUP1 MLOAD PUSH1 0x20 PUSH2 0x1430 DUP4 CODECOPY DUP2 MLOAD SWAP2 MSTORE SWAP3 ADD SWAP2 DUP3 MSTORE POP PUSH32 0x31352920726F74617465282D39302922203E506C6163652033203C2F74657874 PUSH1 0x20 DUP3 ADD MSTORE PUSH1 0x1F PUSH1 0xF9 SHL PUSH1 0x40 DUP3 ADD MSTORE PUSH1 0x41 ADD SWAP2 SWAP1 POP JUMP JUMPDEST PUSH1 0x0 DUP4 MLOAD PUSH2 0xEE9 DUP2 DUP5 PUSH1 0x20 DUP9 ADD PUSH2 0x132A JUMP JUMPDEST PUSH32 0x3C7465787420783D2232302220793D2233363022203E47616D65733A20000000 SWAP1 DUP4 ADD SWAP1 DUP2 MSTORE DUP4 MLOAD PUSH2 0xCA6 DUP2 PUSH1 0x1D DUP5 ADD PUSH1 0x20 DUP9 ADD PUSH2 0x132A JUMP JUMPDEST PUSH1 0x0 DUP3 MLOAD PUSH2 0xF35 DUP2 DUP5 PUSH1 0x20 DUP8 ADD PUSH2 0x132A JUMP JUMPDEST PUSH1 0x0 DUP1 MLOAD PUSH1 0x20 PUSH2 0x1430 DUP4 CODECOPY DUP2 MLOAD SWAP2 MSTORE SWAP3 ADD SWAP2 DUP3 MSTORE POP PUSH32 0x31352920726F74617465282D39302922203E506C6163652031203C2F74657874 PUSH1 0x20 DUP3 ADD MSTORE PUSH1 0x1F PUSH1 0xF9 SHL PUSH1 0x40 DUP3 ADD MSTORE PUSH1 0x41 ADD SWAP2 SWAP1 POP JUMP JUMPDEST PUSH1 0x0 DUP4 MLOAD PUSH2 0xF94 DUP2 DUP5 PUSH1 0x20 DUP9 ADD PUSH2 0x132A JUMP JUMPDEST DUP1 DUP4 ADD SWAP1 POP PUSH1 0x0 DUP1 MLOAD PUSH1 0x20 PUSH2 0x1430 DUP4 CODECOPY DUP2 MLOAD SWAP2 MSTORE DUP2 MSTORE PUSH32 0x31352920726F74617465282D39302922203E546F74616C2053636F72653A2000 PUSH1 0x20 DUP3 ADD MSTORE DUP4 MLOAD PUSH2 0xFE3 DUP2 PUSH1 0x3F DUP5 ADD PUSH1 0x20 DUP9 ADD PUSH2 0x132A JUMP JUMPDEST PUSH8 0x101E17BA32BC3A1F PUSH1 0xC1 SHL PUSH1 0x3F SWAP3 SWAP1 SWAP2 ADD SWAP2 DUP3 ADD MSTORE PUSH1 0x47 ADD SWAP5 SWAP4 POP POP POP POP JUMP JUMPDEST PUSH1 0x0 DUP4 MLOAD PUSH2 0x1016 DUP2 DUP5 PUSH1 0x20 DUP9 ADD PUSH2 0x132A JUMP JUMPDEST DUP1 DUP4 ADD SWAP1 POP PUSH32 0x3C7465787420783D2232302220793D2233343022203E47616D65706C61793A20 DUP2 MSTORE DUP4 MLOAD PUSH2 0x1051 DUP2 PUSH1 0x20 DUP5 ADD PUSH1 0x20 DUP9 ADD PUSH2 0x132A JUMP JUMPDEST PUSH3 0x36B4B7 PUSH1 0xE9 SHL PUSH1 0x20 SWAP3 SWAP1 SWAP2 ADD SWAP2 DUP3 ADD MSTORE PUSH7 0x1E17BA32BC3A1F PUSH1 0xC9 SHL PUSH1 0x23 DUP3 ADD MSTORE PUSH1 0x2A ADD SWAP5 SWAP4 POP POP POP POP JUMP JUMPDEST PUSH1 0x0 DUP3 MLOAD PUSH2 0x108F DUP2 DUP5 PUSH1 0x20 DUP8 ADD PUSH2 0x132A JUMP JUMPDEST PUSH6 0x1E17B9BB339F PUSH1 0xD1 SHL SWAP3 ADD SWAP2 DUP3 MSTORE POP PUSH1 0x6 ADD SWAP2 SWAP1 POP JUMP JUMPDEST PUSH1 0x0 DUP4 MLOAD PUSH2 0x10B9 DUP2 DUP5 PUSH1 0x20 DUP9 ADD PUSH2 0x132A JUMP JUMPDEST PUSH32 0x3C7465787420783D2232302220793D2234303022203E53617665733A20000000 SWAP1 DUP4 ADD SWAP1 DUP2 MSTORE DUP4 MLOAD PUSH2 0xCA6 DUP2 PUSH1 0x1D DUP5 ADD PUSH1 0x20 DUP9 ADD PUSH2 0x132A JUMP JUMPDEST PUSH1 0x0 DUP3 MLOAD PUSH2 0x1105 DUP2 DUP5 PUSH1 0x20 DUP8 ADD PUSH2 0x132A JUMP JUMPDEST PUSH1 0x0 DUP1 MLOAD PUSH1 0x20 PUSH2 0x1430 DUP4 CODECOPY DUP2 MLOAD SWAP2 MSTORE SWAP3 ADD SWAP2 DUP3 MSTORE POP PUSH32 0x31352920726F74617465282D39302922203E506C6163652032203C2F74657874 PUSH1 0x20 DUP3 ADD MSTORE PUSH1 0x1F PUSH1 0xF9 SHL PUSH1 0x40 DUP3 ADD MSTORE PUSH1 0x41 ADD SWAP2 SWAP1 POP JUMP JUMPDEST PUSH1 0x0 DUP3 MLOAD PUSH2 0x1164 DUP2 DUP5 PUSH1 0x20 DUP8 ADD PUSH2 0x132A JUMP JUMPDEST PUSH7 0x1E39BA3CB6329F PUSH1 0xC9 SHL SWAP3 ADD SWAP2 DUP3 MSTORE POP PUSH32 0x74657874207B20666F6E742D66616D696C793A20417269616C2C2048656C7665 PUSH1 0x7 DUP3 ADD MSTORE PUSH32 0x746963612C2073616E732D73657269663B20666F6E742D7765696768743A2020 PUSH1 0x27 DUP3 ADD MSTORE PUSH32 0x626F6C643B2066696C6C3A20236666653530303B20666F6E742D73697A653A20 PUSH1 0x47 DUP3 ADD MSTORE PUSH6 0x31656D3B207D PUSH1 0xD0 SHL PUSH1 0x67 DUP3 ADD MSTORE PUSH32 0x2E7469746C65207B20746578742D616E63686F723A206C6566743B20666F6E74 PUSH1 0x6D DUP3 ADD MSTORE PUSH32 0x2D7765696768743A20626F6C643B20666F6E742D73697A653A20312E35656D3B PUSH1 0x8D DUP3 ADD MSTORE PUSH2 0x207D PUSH1 0xF0 SHL PUSH1 0xAD DUP3 ADD MSTORE PUSH8 0x1E17B9BA3CB6329F PUSH1 0xC1 SHL PUSH1 0xAF DUP3 ADD MSTORE PUSH1 0xB7 ADD SWAP2 SWAP1 POP JUMP JUMPDEST PUSH1 0x20 DUP2 MSTORE PUSH1 0x0 DUP3 MLOAD DUP1 PUSH1 0x20 DUP5 ADD MSTORE PUSH2 0x1285 DUP2 PUSH1 0x40 DUP6 ADD PUSH1 0x20 DUP8 ADD PUSH2 0x132A JUMP JUMPDEST PUSH1 0x1F ADD PUSH1 0x1F NOT AND SWAP2 SWAP1 SWAP2 ADD PUSH1 0x40 ADD SWAP3 SWAP2 POP POP JUMP JUMPDEST PUSH1 0x0 DUP1 DUP4 CALLDATALOAD PUSH1 0x1E NOT DUP5 CALLDATASIZE SUB ADD DUP2 SLT PUSH2 0x12B0 JUMPI PUSH1 0x0 DUP1 REVERT JUMPDEST DUP4 ADD DUP1 CALLDATALOAD SWAP2 POP PUSH8 0xFFFFFFFFFFFFFFFF DUP3 GT ISZERO PUSH2 0x12CB JUMPI PUSH1 0x0 DUP1 REVERT JUMPDEST PUSH1 0x20 ADD SWAP2 POP CALLDATASIZE DUP2 SWAP1 SUB DUP3 SGT ISZERO PUSH2 0x12E0 JUMPI PUSH1 0x0 DUP1 REVERT JUMPDEST SWAP3 POP SWAP3 SWAP1 POP JUMP JUMPDEST PUSH1 0x0 DUP3 NOT DUP3 GT ISZERO PUSH2 0x12FA JUMPI PUSH2 0x12FA PUSH2 0x1389 JUMP JUMPDEST POP ADD SWAP1 JUMP JUMPDEST PUSH1 0x0 DUP3 PUSH2 0x130E JUMPI PUSH2 0x130E PUSH2 0x139F JUMP JUMPDEST POP DIV SWAP1 JUMP JUMPDEST PUSH1 0x0 DUP3 DUP3 LT ISZERO PUSH2 0x1325 JUMPI PUSH2 0x1325 PUSH2 0x1389 JUMP JUMPDEST POP SUB SWAP1 JUMP JUMPDEST PUSH1 0x0 JUMPDEST DUP4 DUP2 LT ISZERO PUSH2 0x1345 JUMPI DUP2 DUP2 ADD MLOAD DUP4 DUP3 ADD MSTORE PUSH1 0x20 ADD PUSH2 0x132D JUMP JUMPDEST DUP4 DUP2 GT ISZERO PUSH2 0x1354 JUMPI PUSH1 0x0 DUP5 DUP5 ADD MSTORE JUMPDEST POP POP POP POP JUMP JUMPDEST PUSH1 0x0 PUSH1 0x0 NOT DUP3 EQ ISZERO PUSH2 0x136E JUMPI PUSH2 0x136E PUSH2 0x1389 JUMP JUMPDEST POP PUSH1 0x1 ADD SWAP1 JUMP JUMPDEST PUSH1 0x0 DUP3 PUSH2 0x1384 JUMPI PUSH2 0x1384 PUSH2 0x139F JUMP JUMPDEST POP MOD SWAP1 JUMP JUMPDEST PUSH4 0x4E487B71 PUSH1 0xE0 SHL PUSH1 0x0 MSTORE PUSH1 0x11 PUSH1 0x4 MSTORE PUSH1 0x24 PUSH1 0x0 REVERT JUMPDEST PUSH4 0x4E487B71 PUSH1 0xE0 SHL PUSH1 0x0 MSTORE PUSH1 0x12 PUSH1 0x4 MSTORE PUSH1 0x24 PUSH1 0x0 REVERT JUMPDEST PUSH4 0x4E487B71 PUSH1 0xE0 SHL PUSH1 0x0 MSTORE PUSH1 0x32 PUSH1 0x4 MSTORE PUSH1 0x24 PUSH1 0x0 REVERT JUMPDEST PUSH4 0x4E487B71 PUSH1 0xE0 SHL PUSH1 0x0 MSTORE PUSH1 0x41 PUSH1 0x4 MSTORE PUSH1 0x24 PUSH1 0x0 REVERT INVALID EXTCODECOPY PUSH20 0x76672077696474683D2233393022206865696768 PUSH21 0x3D22343335222066696C6C3D22677265656E222078 PUSH14 0x6C6E733D22687474703A2F2F7777 PUSH24 0x2E77332E6F72672F323030302F737667223E3C7465787420 PUSH21 0x72616E73666F726D3D227472616E736C6174652833 CODESIZE ADDRESS 0x2C CALLVALUE LOG2 PUSH5 0x6970667358 0x22 SLT KECCAK256 0xCF 0xDD BLOCKHASH SWAP5 PUSH9 0x14FF1E2AF62794E4A4 ADD PUSH13 0x4AA2650B844618AFEAE9BC5B0F 0x4C 0xDE 0xE8 PUSH5 0x736F6C6343 STOP ADDMOD SMOD STOP CALLER "
		},
		"gasEstimates": {
			"creation": {
				"codeDepositCost": "1050600",
				"executionCost": "infinite",
				"totalCost": "infinite"
			},
			"external": {
				"getSVG((uint256,uint256,uint256,uint256,uint256,uint256,string,string,string),uint256,uint256,uint256)": "infinite"
			},
			"internal": {
				"_addImage(string memory,string memory,uint256)": "infinite"
			}
		},
		"methodIdentifiers": {
			"getSVG((uint256,uint256,uint256,uint256,uint256,uint256,string,string,string),uint256,uint256,uint256)": "21f8dd9d"
		}
	},
	"abi": [
		{
			"inputs": [
				{
					"internalType": "address",
					"name": "_Player0",
					"type": "address"
				},
				{
					"internalType": "address",
					"name": "_Player1",
					"type": "address"
				},
				{
					"internalType": "address",
					"name": "_Player2",
					"type": "address"
				},
				{
					"internalType": "address",
					"name": "_Player3",
					"type": "address"
				},
				{
					"internalType": "address",
					"name": "_Player4",
					"type": "address"
				}
			],
			"stateMutability": "nonpayable",
			"type": "constructor"
		},
		{
			"inputs": [
				{
					"components": [
						{
							"internalType": "uint256",
							"name": "gameplay",
							"type": "uint256"
						},
						{
							"internalType": "uint256",
							"name": "numberOfGames",
							"type": "uint256"
						},
						{
							"internalType": "uint256",
							"name": "goals",
							"type": "uint256"
						},
						{
							"internalType": "uint256",
							"name": "level",
							"type": "uint256"
						},
						{
							"internalType": "uint256",
							"name": "saves",
							"type": "uint256"
						},
						{
							"internalType": "uint256",
							"name": "assist",
							"type": "uint256"
						},
						{
							"internalType": "string",
							"name": "position",
							"type": "string"
						},
						{
							"internalType": "string",
							"name": "playersName",
							"type": "string"
						},
						{
							"internalType": "string",
							"name": "playersName_display",
							"type": "string"
						}
					],
					"internalType": "struct PlayerDetail.playerDetail",
					"name": "_details",
					"type": "tuple"
				},
				{
					"internalType": "uint256",
					"name": "level",
					"type": "uint256"
				},
				{
					"internalType": "uint256",
					"name": "tokenId",
					"type": "uint256"
				},
				{
					"internalType": "uint256",
					"name": "score",
					"type": "uint256"
				}
			],
			"name": "getSVG",
			"outputs": [
				{
					"internalType": "string",
					"name": "svg",
					"type": "string"
				}
			],
			"stateMutability": "view",
			"type": "function"
		}
	]
}