{
	"data": {
		"bytecode": {
			"linkReferences": {},
			"object": "60806040523480156200001157600080fd5b50604051620015d9380380620015d98339810160408190526200003491620000b4565b600080546001600160a01b03199081166001600160a01b0397881617909155600180548216958716959095179094556002805485169386169390931790925560038054841691851691909117905560048054909216921691909117905562000124565b80516001600160a01b0381168114620000af57600080fd5b919050565b600080600080600060a08688031215620000cd57600080fd5b620000d88662000097565b9450620000e86020870162000097565b9350620000f86040870162000097565b9250620001086060870162000097565b9150620001186080870162000097565b90509295509295909350565b6114a580620001346000396000f3fe608060405234801561001057600080fd5b506004361061002b5760003560e01c806321f8dd9d14610030575b600080fd5b61004361003e366004610b68565b610059565b6040516100509190611286565b60405180910390f35b6060843560208601356040870135600061007660e08a018a6112b9565b8080601f01602080910402602001604051908101604052809392919081815260200183838082843760009201829052509394506100bb925050506101008b018b6112b9565b8080601f01602080910402602001604051908101604052809392919081815260200183838082843760009201829052509394506100ff9250505060c08c018c6112b9565b8080601f016020809104026020016040519081016040528093929190818152602001838380828437600081840152601f19601f82011690508083019250505050505050905060008b60a00135905060008c6080013590506040518060800160405280604e8152602001611402604e91399850886040516020016101829190611172565b6040516020818303038152906040529850886040516020016101a49190610d52565b60405160208183030381529060405298506101c089868e61047e565b985088846040516020016101d5929190610dc0565b604051602081830303815290604052985088836040516020016101f9929190610c0d565b604051602081830303815290604052985088610214896109b5565b604051602001610225929190610fa2565b604051602081830303815290604052985088610240886109b5565b604051602001610251929190610ef7565b60405160208183030381529060405298508861026c876109b5565b60405160200161027d929190610c7a565b60405160208183030381529060405298508460405160200161029f9190610bc2565b604051602081830303815290604052805190602001206040516020016102d8906c2432b4b73d102634b7323732b960991b8152600d0190565b60405160208183030381529060405280519060200120141561032557886102fe826109b5565b60405160200161030f9291906110c7565b6040516020818303038152906040529850610352565b8861032f836109b5565b604051602001610340929190610ce6565b60405160208183030381529060405298505b8a6103e9141561037f578860405160200161036d9190610f43565b60405160208183030381529060405298505b8a6103ea14156103ac578860405160200161039a9190611113565b60405160208183030381529060405298505b8a6103eb14156103d957886040516020016103c79190610e98565b60405160208183030381529060405298505b629896808b111561040757886040516020016103f59190610e38565b60405160208183030381529060405298505b6107d08b11801561041a5750629896818b105b1561044c57886104298b6109b5565b60405160200161043a92919061101b565b60405160208183030381529060405298505b8860405160200161045d919061109d565b60405160208183030381529060405298505050505050505050949350505050565b6060826040516020016104919190610bc2565b604051602081830303815290604052805190602001206040516020016104cc906e09cdec2d04096c2e8e8cae4c4c2c6d608b1b8152600f0190565b60405160208183030381529060405280519060200120141561058b5760025460405163be985ac960e01b81526004810184905285916001600160a01b03169063be985ac99060240160006040518083038186803b15801561052c57600080fd5b505afa158015610540573d6000803e3d6000fd5b505050506040513d6000823e601f3d908101601f191682016040526105689190810190610abb565b604051602001610579929190610bde565b60405160208183030381529060405290505b8260405160200161059c9190610bc2565b604051602081830303815290604052805190602001206040516020016105d4906b105b991e4814195b1b585c9960a21b8152600c0190565b6040516020818303038152906040528051906020012014156106935760005460405163be985ac960e01b81526004810184905285916001600160a01b03169063be985ac99060240160006040518083038186803b15801561063457600080fd5b505afa158015610648573d6000803e3d6000fd5b505050506040513d6000823e601f3d908101601f191682016040526106709190810190610abb565b604051602001610681929190610bde565b60405160208183030381529060405290505b826040516020016106a49190610bc2565b604051602081830303815290604052805190602001206040516020016106dd906c50616a74696d204b6173616d6960981b8152600d0190565b60405160208183030381529060405280519060200120141561079c5760035460405163be985ac960e01b81526004810184905285916001600160a01b03169063be985ac99060240160006040518083038186803b15801561073d57600080fd5b505afa158015610751573d6000803e3d6000fd5b505050506040513d6000823e601f3d908101601f191682016040526107799190810190610abb565b60405160200161078a929190610bde565b60405160208183030381529060405290505b826040516020016107ad9190610bc2565b604051602081830303815290604052805190602001206040516020016107e4906a2634b0b69026b4b63630b960a91b8152600b0190565b6040516020818303038152906040528051906020012014156108a35760015460405163be985ac960e01b81526004810184905285916001600160a01b03169063be985ac99060240160006040518083038186803b15801561084457600080fd5b505afa158015610858573d6000803e3d6000fd5b505050506040513d6000823e601f3d908101601f191682016040526108809190810190610abb565b604051602001610891929190610bde565b60405160208183030381529060405290505b826040516020016108b49190610bc2565b604051602081830303815290604052805190602001206040516020016108ed906c2432b4b73d102634b7323732b960991b8152600d0190565b6040516020818303038152906040528051906020012014156109ae576004805460405163be985ac960e01b815291820184905285916001600160a01b039091169063be985ac99060240160006040518083038186803b15801561094f57600080fd5b505afa158015610963573d6000803e3d6000fd5b505050506040513d6000823e601f3d908101601f1916820160405261098b9190810190610abb565b60405160200161099c929190610bde565b60405160208183030381529060405290505b9392505050565b6060816109d95750506040805180820190915260018152600360fc1b602082015290565b8160005b8115610a0357806109ed8161137a565b91506109fc9050600a8361131f565b91506109dd565b60008167ffffffffffffffff811115610a1e57610a1e6113eb565b6040519080825280601f01601f191660200182016040528015610a48576020820181803683370190505b5090505b8415610ab357610a5d600183611333565b9150610a6a600a86611395565b610a75906030611307565b60f81b818381518110610a8a57610a8a6113d5565b60200101906001600160f81b031916908160001a905350610aac600a8661131f565b9450610a4c565b949350505050565b600060208284031215610acd57600080fd5b815167ffffffffffffffff80821115610ae557600080fd5b818401915084601f830112610af957600080fd5b815181811115610b0b57610b0b6113eb565b604051601f8201601f19908116603f01168101908382118183101715610b3357610b336113eb565b81604052828152876020848701011115610b4c57600080fd5b610b5d83602083016020880161134a565b979650505050505050565b60008060008060808587031215610b7e57600080fd5b843567ffffffffffffffff811115610b9557600080fd5b85016101208188031215610ba857600080fd5b966020860135965060408601359560600135945092505050565b60008251610bd481846020870161134a565b9190910192915050565b60008351610bf081846020880161134a565b835190830190610c0481836020880161134a565b01949350505050565b60008351610c1f81846020880161134a565b80830190507f3c7465787420783d2232302220793d2233323022203e506f736974696f6e3a2081528351610c5a81602084016020880161134a565b661e17ba32bc3a1f60c91b60209290910191820152602701949350505050565b60008351610c8c81846020880161134a565b7f3c7465787420783d2232302220793d2233383022203e476f616c733a200000009083019081528351610cc681601d84016020880161134a565b661e17ba32bc3a1f60c91b601d9290910191820152602401949350505050565b60008351610cf881846020880161134a565b7f3c7465787420783d2232302220793d2234303022203e4173736973743a2000009083019081528351610d3281601e84016020880161134a565b661e17ba32bc3a1f60c91b601e9290910191820152602501949350505050565b60008251610d6481846020870161134a565b7f3c726563742077696474683d223130302522206865696768743d22313030252292019182525066103334b6361e9160c91b6020820152662365343032323760c81b6027820152631110179f60e11b602e820152603201919050565b60008351610dd281846020880161134a565b80830190507f3c7465787420783d2238302220793d2234302220636c6173733d227469746c65815261111f60f11b60208201528351610e1881602284016020880161134a565b661e17ba32bc3a1f60c91b60229290910191820152602901949350505050565b60008251610e4a81846020870161134a565b6000805160206114508339815191529201918252507f31352920726f74617465282d39302922203e5465616d204e4654203c2f7465786020820152613a1f60f11b6040820152604201919050565b60008251610eaa81846020870161134a565b6000805160206114508339815191529201918252507f31352920726f74617465282d39302922203e506c6163652033203c2f746578746020820152601f60f91b6040820152604101919050565b60008351610f0981846020880161134a565b7f3c7465787420783d2232302220793d2233363022203e47616d65733a200000009083019081528351610cc681601d84016020880161134a565b60008251610f5581846020870161134a565b6000805160206114508339815191529201918252507f31352920726f74617465282d39302922203e506c6163652031203c2f746578746020820152601f60f91b6040820152604101919050565b60008351610fb481846020880161134a565b80830190507f3c7465787420783d2232302220793d2233343022203e47616d65706c61793a2081528351610fef81602084016020880161134a565b6236b4b760e91b60209290910191820152661e17ba32bc3a1f60c91b6023820152602a01949350505050565b6000835161102d81846020880161134a565b808301905060008051602061145083398151915281527f31352920726f74617465282d39302922203e53636f72653a20000000000000006020820152835161107c81603984016020880161134a565b67101e17ba32bc3a1f60c11b60399290910191820152604101949350505050565b600082516110af81846020870161134a565b651e17b9bb339f60d11b920191825250600601919050565b600083516110d981846020880161134a565b7f3c7465787420783d2232302220793d2234303022203e53617665733a200000009083019081528351610cc681601d84016020880161134a565b6000825161112581846020870161134a565b6000805160206114508339815191529201918252507f31352920726f74617465282d39302922203e506c6163652032203c2f746578746020820152601f60f91b6040820152604101919050565b6000825161118481846020870161134a565b661e39ba3cb6329f60c91b9201918252507f74657874207b20666f6e742d66616d696c793a20417269616c2c2048656c766560078201527f746963612c2073616e732d73657269663b20666f6e742d7765696768743a202060278201527f626f6c643b2066696c6c3a20236666653530303b20666f6e742d73697a653a2060478201526531656d3b207d60d01b60678201527f2e7469746c65207b20746578742d616e63686f723a206c6566743b20666f6e74606d8201527f2d7765696768743a20626f6c643b20666f6e742d73697a653a20312e35656d3b608d82015261207d60f01b60ad820152671e17b9ba3cb6329f60c11b60af82015260b701919050565b60208152600082518060208401526112a581604085016020870161134a565b601f01601f19169190910160400192915050565b6000808335601e198436030181126112d057600080fd5b83018035915067ffffffffffffffff8211156112eb57600080fd5b60200191503681900382131561130057600080fd5b9250929050565b6000821982111561131a5761131a6113a9565b500190565b60008261132e5761132e6113bf565b500490565b600082821015611345576113456113a9565b500390565b60005b8381101561136557818101518382015260200161134d565b83811115611374576000848401525b50505050565b600060001982141561138e5761138e6113a9565b5060010190565b6000826113a4576113a46113bf565b500690565b634e487b7160e01b600052601160045260246000fd5b634e487b7160e01b600052601260045260246000fd5b634e487b7160e01b600052603260045260246000fd5b634e487b7160e01b600052604160045260246000fdfe3c7376672077696474683d2233393022206865696768743d22343335222066696c6c3d22677265656e2220786d6c6e733d22687474703a2f2f7777772e77332e6f72672f323030302f737667223e3c74657874207472616e73666f726d3d227472616e736c617465283338302c34a26469706673582212208f801abe23e4284f21187c27ebe3a5b298c34e09cb9be5b6cea2617bc86ea53464736f6c63430008070033",
			"opcodes": "PUSH1 0x80 PUSH1 0x40 MSTORE CALLVALUE DUP1 ISZERO PUSH3 0x11 JUMPI PUSH1 0x0 DUP1 REVERT JUMPDEST POP PUSH1 0x40 MLOAD PUSH3 0x15D9 CODESIZE SUB DUP1 PUSH3 0x15D9 DUP4 CODECOPY DUP2 ADD PUSH1 0x40 DUP2 SWAP1 MSTORE PUSH3 0x34 SWAP2 PUSH3 0xB4 JUMP JUMPDEST PUSH1 0x0 DUP1 SLOAD PUSH1 0x1 PUSH1 0x1 PUSH1 0xA0 SHL SUB NOT SWAP1 DUP2 AND PUSH1 0x1 PUSH1 0x1 PUSH1 0xA0 SHL SUB SWAP8 DUP9 AND OR SWAP1 SWAP2 SSTORE PUSH1 0x1 DUP1 SLOAD DUP3 AND SWAP6 DUP8 AND SWAP6 SWAP1 SWAP6 OR SWAP1 SWAP5 SSTORE PUSH1 0x2 DUP1 SLOAD DUP6 AND SWAP4 DUP7 AND SWAP4 SWAP1 SWAP4 OR SWAP1 SWAP3 SSTORE PUSH1 0x3 DUP1 SLOAD DUP5 AND SWAP2 DUP6 AND SWAP2 SWAP1 SWAP2 OR SWAP1 SSTORE PUSH1 0x4 DUP1 SLOAD SWAP1 SWAP3 AND SWAP3 AND SWAP2 SWAP1 SWAP2 OR SWAP1 SSTORE PUSH3 0x124 JUMP JUMPDEST DUP1 MLOAD PUSH1 0x1 PUSH1 0x1 PUSH1 0xA0 SHL SUB DUP2 AND DUP2 EQ PUSH3 0xAF JUMPI PUSH1 0x0 DUP1 REVERT JUMPDEST SWAP2 SWAP1 POP JUMP JUMPDEST PUSH1 0x0 DUP1 PUSH1 0x0 DUP1 PUSH1 0x0 PUSH1 0xA0 DUP7 DUP9 SUB SLT ISZERO PUSH3 0xCD JUMPI PUSH1 0x0 DUP1 REVERT JUMPDEST PUSH3 0xD8 DUP7 PUSH3 0x97 JUMP JUMPDEST SWAP5 POP PUSH3 0xE8 PUSH1 0x20 DUP8 ADD PUSH3 0x97 JUMP JUMPDEST SWAP4 POP PUSH3 0xF8 PUSH1 0x40 DUP8 ADD PUSH3 0x97 JUMP JUMPDEST SWAP3 POP PUSH3 0x108 PUSH1 0x60 DUP8 ADD PUSH3 0x97 JUMP JUMPDEST SWAP2 POP PUSH3 0x118 PUSH1 0x80 DUP8 ADD PUSH3 0x97 JUMP JUMPDEST SWAP1 POP SWAP3 SWAP6 POP SWAP3 SWAP6 SWAP1 SWAP4 POP JUMP JUMPDEST PUSH2 0x14A5 DUP1 PUSH3 0x134 PUSH1 0x0 CODECOPY PUSH1 0x0 RETURN INVALID PUSH1 0x80 PUSH1 0x40 MSTORE CALLVALUE DUP1 ISZERO PUSH2 0x10 JUMPI PUSH1 0x0 DUP1 REVERT JUMPDEST POP PUSH1 0x4 CALLDATASIZE LT PUSH2 0x2B JUMPI PUSH1 0x0 CALLDATALOAD PUSH1 0xE0 SHR DUP1 PUSH4 0x21F8DD9D EQ PUSH2 0x30 JUMPI JUMPDEST PUSH1 0x0 DUP1 REVERT JUMPDEST PUSH2 0x43 PUSH2 0x3E CALLDATASIZE PUSH1 0x4 PUSH2 0xB68 JUMP JUMPDEST PUSH2 0x59 JUMP JUMPDEST PUSH1 0x40 MLOAD PUSH2 0x50 SWAP2 SWAP1 PUSH2 0x1286 JUMP JUMPDEST PUSH1 0x40 MLOAD DUP1 SWAP2 SUB SWAP1 RETURN JUMPDEST PUSH1 0x60 DUP5 CALLDATALOAD PUSH1 0x20 DUP7 ADD CALLDATALOAD PUSH1 0x40 DUP8 ADD CALLDATALOAD PUSH1 0x0 PUSH2 0x76 PUSH1 0xE0 DUP11 ADD DUP11 PUSH2 0x12B9 JUMP JUMPDEST DUP1 DUP1 PUSH1 0x1F ADD PUSH1 0x20 DUP1 SWAP2 DIV MUL PUSH1 0x20 ADD PUSH1 0x40 MLOAD SWAP1 DUP2 ADD PUSH1 0x40 MSTORE DUP1 SWAP4 SWAP3 SWAP2 SWAP1 DUP2 DUP2 MSTORE PUSH1 0x20 ADD DUP4 DUP4 DUP1 DUP3 DUP5 CALLDATACOPY PUSH1 0x0 SWAP3 ADD DUP3 SWAP1 MSTORE POP SWAP4 SWAP5 POP PUSH2 0xBB SWAP3 POP POP POP PUSH2 0x100 DUP12 ADD DUP12 PUSH2 0x12B9 JUMP JUMPDEST DUP1 DUP1 PUSH1 0x1F ADD PUSH1 0x20 DUP1 SWAP2 DIV MUL PUSH1 0x20 ADD PUSH1 0x40 MLOAD SWAP1 DUP2 ADD PUSH1 0x40 MSTORE DUP1 SWAP4 SWAP3 SWAP2 SWAP1 DUP2 DUP2 MSTORE PUSH1 0x20 ADD DUP4 DUP4 DUP1 DUP3 DUP5 CALLDATACOPY PUSH1 0x0 SWAP3 ADD DUP3 SWAP1 MSTORE POP SWAP4 SWAP5 POP PUSH2 0xFF SWAP3 POP POP POP PUSH1 0xC0 DUP13 ADD DUP13 PUSH2 0x12B9 JUMP JUMPDEST DUP1 DUP1 PUSH1 0x1F ADD PUSH1 0x20 DUP1 SWAP2 DIV MUL PUSH1 0x20 ADD PUSH1 0x40 MLOAD SWAP1 DUP2 ADD PUSH1 0x40 MSTORE DUP1 SWAP4 SWAP3 SWAP2 SWAP1 DUP2 DUP2 MSTORE PUSH1 0x20 ADD DUP4 DUP4 DUP1 DUP3 DUP5 CALLDATACOPY PUSH1 0x0 DUP2 DUP5 ADD MSTORE PUSH1 0x1F NOT PUSH1 0x1F DUP3 ADD AND SWAP1 POP DUP1 DUP4 ADD SWAP3 POP POP POP POP POP POP POP SWAP1 POP PUSH1 0x0 DUP12 PUSH1 0xA0 ADD CALLDATALOAD SWAP1 POP PUSH1 0x0 DUP13 PUSH1 0x80 ADD CALLDATALOAD SWAP1 POP PUSH1 0x40 MLOAD DUP1 PUSH1 0x80 ADD PUSH1 0x40 MSTORE DUP1 PUSH1 0x4E DUP2 MSTORE PUSH1 0x20 ADD PUSH2 0x1402 PUSH1 0x4E SWAP2 CODECOPY SWAP9 POP DUP9 PUSH1 0x40 MLOAD PUSH1 0x20 ADD PUSH2 0x182 SWAP2 SWAP1 PUSH2 0x1172 JUMP JUMPDEST PUSH1 0x40 MLOAD PUSH1 0x20 DUP2 DUP4 SUB SUB DUP2 MSTORE SWAP1 PUSH1 0x40 MSTORE SWAP9 POP DUP9 PUSH1 0x40 MLOAD PUSH1 0x20 ADD PUSH2 0x1A4 SWAP2 SWAP1 PUSH2 0xD52 JUMP JUMPDEST PUSH1 0x40 MLOAD PUSH1 0x20 DUP2 DUP4 SUB SUB DUP2 MSTORE SWAP1 PUSH1 0x40 MSTORE SWAP9 POP PUSH2 0x1C0 DUP10 DUP7 DUP15 PUSH2 0x47E JUMP JUMPDEST SWAP9 POP DUP9 DUP5 PUSH1 0x40 MLOAD PUSH1 0x20 ADD PUSH2 0x1D5 SWAP3 SWAP2 SWAP1 PUSH2 0xDC0 JUMP JUMPDEST PUSH1 0x40 MLOAD PUSH1 0x20 DUP2 DUP4 SUB SUB DUP2 MSTORE SWAP1 PUSH1 0x40 MSTORE SWAP9 POP DUP9 DUP4 PUSH1 0x40 MLOAD PUSH1 0x20 ADD PUSH2 0x1F9 SWAP3 SWAP2 SWAP1 PUSH2 0xC0D JUMP JUMPDEST PUSH1 0x40 MLOAD PUSH1 0x20 DUP2 DUP4 SUB SUB DUP2 MSTORE SWAP1 PUSH1 0x40 MSTORE SWAP9 POP DUP9 PUSH2 0x214 DUP10 PUSH2 0x9B5 JUMP JUMPDEST PUSH1 0x40 MLOAD PUSH1 0x20 ADD PUSH2 0x225 SWAP3 SWAP2 SWAP1 PUSH2 0xFA2 JUMP JUMPDEST PUSH1 0x40 MLOAD PUSH1 0x20 DUP2 DUP4 SUB SUB DUP2 MSTORE SWAP1 PUSH1 0x40 MSTORE SWAP9 POP DUP9 PUSH2 0x240 DUP9 PUSH2 0x9B5 JUMP JUMPDEST PUSH1 0x40 MLOAD PUSH1 0x20 ADD PUSH2 0x251 SWAP3 SWAP2 SWAP1 PUSH2 0xEF7 JUMP JUMPDEST PUSH1 0x40 MLOAD PUSH1 0x20 DUP2 DUP4 SUB SUB DUP2 MSTORE SWAP1 PUSH1 0x40 MSTORE SWAP9 POP DUP9 PUSH2 0x26C DUP8 PUSH2 0x9B5 JUMP JUMPDEST PUSH1 0x40 MLOAD PUSH1 0x20 ADD PUSH2 0x27D SWAP3 SWAP2 SWAP1 PUSH2 0xC7A JUMP JUMPDEST PUSH1 0x40 MLOAD PUSH1 0x20 DUP2 DUP4 SUB SUB DUP2 MSTORE SWAP1 PUSH1 0x40 MSTORE SWAP9 POP DUP5 PUSH1 0x40 MLOAD PUSH1 0x20 ADD PUSH2 0x29F SWAP2 SWAP1 PUSH2 0xBC2 JUMP JUMPDEST PUSH1 0x40 MLOAD PUSH1 0x20 DUP2 DUP4 SUB SUB DUP2 MSTORE SWAP1 PUSH1 0x40 MSTORE DUP1 MLOAD SWAP1 PUSH1 0x20 ADD KECCAK256 PUSH1 0x40 MLOAD PUSH1 0x20 ADD PUSH2 0x2D8 SWAP1 PUSH13 0x2432B4B73D102634B7323732B9 PUSH1 0x99 SHL DUP2 MSTORE PUSH1 0xD ADD SWAP1 JUMP JUMPDEST PUSH1 0x40 MLOAD PUSH1 0x20 DUP2 DUP4 SUB SUB DUP2 MSTORE SWAP1 PUSH1 0x40 MSTORE DUP1 MLOAD SWAP1 PUSH1 0x20 ADD KECCAK256 EQ ISZERO PUSH2 0x325 JUMPI DUP9 PUSH2 0x2FE DUP3 PUSH2 0x9B5 JUMP JUMPDEST PUSH1 0x40 MLOAD PUSH1 0x20 ADD PUSH2 0x30F SWAP3 SWAP2 SWAP1 PUSH2 0x10C7 JUMP JUMPDEST PUSH1 0x40 MLOAD PUSH1 0x20 DUP2 DUP4 SUB SUB DUP2 MSTORE SWAP1 PUSH1 0x40 MSTORE SWAP9 POP PUSH2 0x352 JUMP JUMPDEST DUP9 PUSH2 0x32F DUP4 PUSH2 0x9B5 JUMP JUMPDEST PUSH1 0x40 MLOAD PUSH1 0x20 ADD PUSH2 0x340 SWAP3 SWAP2 SWAP1 PUSH2 0xCE6 JUMP JUMPDEST PUSH1 0x40 MLOAD PUSH1 0x20 DUP2 DUP4 SUB SUB DUP2 MSTORE SWAP1 PUSH1 0x40 MSTORE SWAP9 POP JUMPDEST DUP11 PUSH2 0x3E9 EQ ISZERO PUSH2 0x37F JUMPI DUP9 PUSH1 0x40 MLOAD PUSH1 0x20 ADD PUSH2 0x36D SWAP2 SWAP1 PUSH2 0xF43 JUMP JUMPDEST PUSH1 0x40 MLOAD PUSH1 0x20 DUP2 DUP4 SUB SUB DUP2 MSTORE SWAP1 PUSH1 0x40 MSTORE SWAP9 POP JUMPDEST DUP11 PUSH2 0x3EA EQ ISZERO PUSH2 0x3AC JUMPI DUP9 PUSH1 0x40 MLOAD PUSH1 0x20 ADD PUSH2 0x39A SWAP2 SWAP1 PUSH2 0x1113 JUMP JUMPDEST PUSH1 0x40 MLOAD PUSH1 0x20 DUP2 DUP4 SUB SUB DUP2 MSTORE SWAP1 PUSH1 0x40 MSTORE SWAP9 POP JUMPDEST DUP11 PUSH2 0x3EB EQ ISZERO PUSH2 0x3D9 JUMPI DUP9 PUSH1 0x40 MLOAD PUSH1 0x20 ADD PUSH2 0x3C7 SWAP2 SWAP1 PUSH2 0xE98 JUMP JUMPDEST PUSH1 0x40 MLOAD PUSH1 0x20 DUP2 DUP4 SUB SUB DUP2 MSTORE SWAP1 PUSH1 0x40 MSTORE SWAP9 POP JUMPDEST PUSH3 0x989680 DUP12 GT ISZERO PUSH2 0x407 JUMPI DUP9 PUSH1 0x40 MLOAD PUSH1 0x20 ADD PUSH2 0x3F5 SWAP2 SWAP1 PUSH2 0xE38 JUMP JUMPDEST PUSH1 0x40 MLOAD PUSH1 0x20 DUP2 DUP4 SUB SUB DUP2 MSTORE SWAP1 PUSH1 0x40 MSTORE SWAP9 POP JUMPDEST PUSH2 0x7D0 DUP12 GT DUP1 ISZERO PUSH2 0x41A JUMPI POP PUSH3 0x989681 DUP12 LT JUMPDEST ISZERO PUSH2 0x44C JUMPI DUP9 PUSH2 0x429 DUP12 PUSH2 0x9B5 JUMP JUMPDEST PUSH1 0x40 MLOAD PUSH1 0x20 ADD PUSH2 0x43A SWAP3 SWAP2 SWAP1 PUSH2 0x101B JUMP JUMPDEST PUSH1 0x40 MLOAD PUSH1 0x20 DUP2 DUP4 SUB SUB DUP2 MSTORE SWAP1 PUSH1 0x40 MSTORE SWAP9 POP JUMPDEST DUP9 PUSH1 0x40 MLOAD PUSH1 0x20 ADD PUSH2 0x45D SWAP2 SWAP1 PUSH2 0x109D JUMP JUMPDEST PUSH1 0x40 MLOAD PUSH1 0x20 DUP2 DUP4 SUB SUB DUP2 MSTORE SWAP1 PUSH1 0x40 MSTORE SWAP9 POP POP POP POP POP POP POP POP POP SWAP5 SWAP4 POP POP POP POP JUMP JUMPDEST PUSH1 0x60 DUP3 PUSH1 0x40 MLOAD PUSH1 0x20 ADD PUSH2 0x491 SWAP2 SWAP1 PUSH2 0xBC2 JUMP JUMPDEST PUSH1 0x40 MLOAD PUSH1 0x20 DUP2 DUP4 SUB SUB DUP2 MSTORE SWAP1 PUSH1 0x40 MSTORE DUP1 MLOAD SWAP1 PUSH1 0x20 ADD KECCAK256 PUSH1 0x40 MLOAD PUSH1 0x20 ADD PUSH2 0x4CC SWAP1 PUSH15 0x9CDEC2D04096C2E8E8CAE4C4C2C6D PUSH1 0x8B SHL DUP2 MSTORE PUSH1 0xF ADD SWAP1 JUMP JUMPDEST PUSH1 0x40 MLOAD PUSH1 0x20 DUP2 DUP4 SUB SUB DUP2 MSTORE SWAP1 PUSH1 0x40 MSTORE DUP1 MLOAD SWAP1 PUSH1 0x20 ADD KECCAK256 EQ ISZERO PUSH2 0x58B JUMPI PUSH1 0x2 SLOAD PUSH1 0x40 MLOAD PUSH4 0xBE985AC9 PUSH1 0xE0 SHL DUP2 MSTORE PUSH1 0x4 DUP2 ADD DUP5 SWAP1 MSTORE DUP6 SWAP2 PUSH1 0x1 PUSH1 0x1 PUSH1 0xA0 SHL SUB AND SWAP1 PUSH4 0xBE985AC9 SWAP1 PUSH1 0x24 ADD PUSH1 0x0 PUSH1 0x40 MLOAD DUP1 DUP4 SUB DUP2 DUP7 DUP1 EXTCODESIZE ISZERO DUP1 ISZERO PUSH2 0x52C JUMPI PUSH1 0x0 DUP1 REVERT JUMPDEST POP GAS STATICCALL ISZERO DUP1 ISZERO PUSH2 0x540 JUMPI RETURNDATASIZE PUSH1 0x0 DUP1 RETURNDATACOPY RETURNDATASIZE PUSH1 0x0 REVERT JUMPDEST POP POP POP POP PUSH1 0x40 MLOAD RETURNDATASIZE PUSH1 0x0 DUP3 RETURNDATACOPY PUSH1 0x1F RETURNDATASIZE SWAP1 DUP2 ADD PUSH1 0x1F NOT AND DUP3 ADD PUSH1 0x40 MSTORE PUSH2 0x568 SWAP2 SWAP1 DUP2 ADD SWAP1 PUSH2 0xABB JUMP JUMPDEST PUSH1 0x40 MLOAD PUSH1 0x20 ADD PUSH2 0x579 SWAP3 SWAP2 SWAP1 PUSH2 0xBDE JUMP JUMPDEST PUSH1 0x40 MLOAD PUSH1 0x20 DUP2 DUP4 SUB SUB DUP2 MSTORE SWAP1 PUSH1 0x40 MSTORE SWAP1 POP JUMPDEST DUP3 PUSH1 0x40 MLOAD PUSH1 0x20 ADD PUSH2 0x59C SWAP2 SWAP1 PUSH2 0xBC2 JUMP JUMPDEST PUSH1 0x40 MLOAD PUSH1 0x20 DUP2 DUP4 SUB SUB DUP2 MSTORE SWAP1 PUSH1 0x40 MSTORE DUP1 MLOAD SWAP1 PUSH1 0x20 ADD KECCAK256 PUSH1 0x40 MLOAD PUSH1 0x20 ADD PUSH2 0x5D4 SWAP1 PUSH12 0x105B991E4814195B1B585C99 PUSH1 0xA2 SHL DUP2 MSTORE PUSH1 0xC ADD SWAP1 JUMP JUMPDEST PUSH1 0x40 MLOAD PUSH1 0x20 DUP2 DUP4 SUB SUB DUP2 MSTORE SWAP1 PUSH1 0x40 MSTORE DUP1 MLOAD SWAP1 PUSH1 0x20 ADD KECCAK256 EQ ISZERO PUSH2 0x693 JUMPI PUSH1 0x0 SLOAD PUSH1 0x40 MLOAD PUSH4 0xBE985AC9 PUSH1 0xE0 SHL DUP2 MSTORE PUSH1 0x4 DUP2 ADD DUP5 SWAP1 MSTORE DUP6 SWAP2 PUSH1 0x1 PUSH1 0x1 PUSH1 0xA0 SHL SUB AND SWAP1 PUSH4 0xBE985AC9 SWAP1 PUSH1 0x24 ADD PUSH1 0x0 PUSH1 0x40 MLOAD DUP1 DUP4 SUB DUP2 DUP7 DUP1 EXTCODESIZE ISZERO DUP1 ISZERO PUSH2 0x634 JUMPI PUSH1 0x0 DUP1 REVERT JUMPDEST POP GAS STATICCALL ISZERO DUP1 ISZERO PUSH2 0x648 JUMPI RETURNDATASIZE PUSH1 0x0 DUP1 RETURNDATACOPY RETURNDATASIZE PUSH1 0x0 REVERT JUMPDEST POP POP POP POP PUSH1 0x40 MLOAD RETURNDATASIZE PUSH1 0x0 DUP3 RETURNDATACOPY PUSH1 0x1F RETURNDATASIZE SWAP1 DUP2 ADD PUSH1 0x1F NOT AND DUP3 ADD PUSH1 0x40 MSTORE PUSH2 0x670 SWAP2 SWAP1 DUP2 ADD SWAP1 PUSH2 0xABB JUMP JUMPDEST PUSH1 0x40 MLOAD PUSH1 0x20 ADD PUSH2 0x681 SWAP3 SWAP2 SWAP1 PUSH2 0xBDE JUMP JUMPDEST PUSH1 0x40 MLOAD PUSH1 0x20 DUP2 DUP4 SUB SUB DUP2 MSTORE SWAP1 PUSH1 0x40 MSTORE SWAP1 POP JUMPDEST DUP3 PUSH1 0x40 MLOAD PUSH1 0x20 ADD PUSH2 0x6A4 SWAP2 SWAP1 PUSH2 0xBC2 JUMP JUMPDEST PUSH1 0x40 MLOAD PUSH1 0x20 DUP2 DUP4 SUB SUB DUP2 MSTORE SWAP1 PUSH1 0x40 MSTORE DUP1 MLOAD SWAP1 PUSH1 0x20 ADD KECCAK256 PUSH1 0x40 MLOAD PUSH1 0x20 ADD PUSH2 0x6DD SWAP1 PUSH13 0x50616A74696D204B6173616D69 PUSH1 0x98 SHL DUP2 MSTORE PUSH1 0xD ADD SWAP1 JUMP JUMPDEST PUSH1 0x40 MLOAD PUSH1 0x20 DUP2 DUP4 SUB SUB DUP2 MSTORE SWAP1 PUSH1 0x40 MSTORE DUP1 MLOAD SWAP1 PUSH1 0x20 ADD KECCAK256 EQ ISZERO PUSH2 0x79C JUMPI PUSH1 0x3 SLOAD PUSH1 0x40 MLOAD PUSH4 0xBE985AC9 PUSH1 0xE0 SHL DUP2 MSTORE PUSH1 0x4 DUP2 ADD DUP5 SWAP1 MSTORE DUP6 SWAP2 PUSH1 0x1 PUSH1 0x1 PUSH1 0xA0 SHL SUB AND SWAP1 PUSH4 0xBE985AC9 SWAP1 PUSH1 0x24 ADD PUSH1 0x0 PUSH1 0x40 MLOAD DUP1 DUP4 SUB DUP2 DUP7 DUP1 EXTCODESIZE ISZERO DUP1 ISZERO PUSH2 0x73D JUMPI PUSH1 0x0 DUP1 REVERT JUMPDEST POP GAS STATICCALL ISZERO DUP1 ISZERO PUSH2 0x751 JUMPI RETURNDATASIZE PUSH1 0x0 DUP1 RETURNDATACOPY RETURNDATASIZE PUSH1 0x0 REVERT JUMPDEST POP POP POP POP PUSH1 0x40 MLOAD RETURNDATASIZE PUSH1 0x0 DUP3 RETURNDATACOPY PUSH1 0x1F RETURNDATASIZE SWAP1 DUP2 ADD PUSH1 0x1F NOT AND DUP3 ADD PUSH1 0x40 MSTORE PUSH2 0x779 SWAP2 SWAP1 DUP2 ADD SWAP1 PUSH2 0xABB JUMP JUMPDEST PUSH1 0x40 MLOAD PUSH1 0x20 ADD PUSH2 0x78A SWAP3 SWAP2 SWAP1 PUSH2 0xBDE JUMP JUMPDEST PUSH1 0x40 MLOAD PUSH1 0x20 DUP2 DUP4 SUB SUB DUP2 MSTORE SWAP1 PUSH1 0x40 MSTORE SWAP1 POP JUMPDEST DUP3 PUSH1 0x40 MLOAD PUSH1 0x20 ADD PUSH2 0x7AD SWAP2 SWAP1 PUSH2 0xBC2 JUMP JUMPDEST PUSH1 0x40 MLOAD PUSH1 0x20 DUP2 DUP4 SUB SUB DUP2 MSTORE SWAP1 PUSH1 0x40 MSTORE DUP1 MLOAD SWAP1 PUSH1 0x20 ADD KECCAK256 PUSH1 0x40 MLOAD PUSH1 0x20 ADD PUSH2 0x7E4 SWAP1 PUSH11 0x2634B0B69026B4B63630B9 PUSH1 0xA9 SHL DUP2 MSTORE PUSH1 0xB ADD SWAP1 JUMP JUMPDEST PUSH1 0x40 MLOAD PUSH1 0x20 DUP2 DUP4 SUB SUB DUP2 MSTORE SWAP1 PUSH1 0x40 MSTORE DUP1 MLOAD SWAP1 PUSH1 0x20 ADD KECCAK256 EQ ISZERO PUSH2 0x8A3 JUMPI PUSH1 0x1 SLOAD PUSH1 0x40 MLOAD PUSH4 0xBE985AC9 PUSH1 0xE0 SHL DUP2 MSTORE PUSH1 0x4 DUP2 ADD DUP5 SWAP1 MSTORE DUP6 SWAP2 PUSH1 0x1 PUSH1 0x1 PUSH1 0xA0 SHL SUB AND SWAP1 PUSH4 0xBE985AC9 SWAP1 PUSH1 0x24 ADD PUSH1 0x0 PUSH1 0x40 MLOAD DUP1 DUP4 SUB DUP2 DUP7 DUP1 EXTCODESIZE ISZERO DUP1 ISZERO PUSH2 0x844 JUMPI PUSH1 0x0 DUP1 REVERT JUMPDEST POP GAS STATICCALL ISZERO DUP1 ISZERO PUSH2 0x858 JUMPI RETURNDATASIZE PUSH1 0x0 DUP1 RETURNDATACOPY RETURNDATASIZE PUSH1 0x0 REVERT JUMPDEST POP POP POP POP PUSH1 0x40 MLOAD RETURNDATASIZE PUSH1 0x0 DUP3 RETURNDATACOPY PUSH1 0x1F RETURNDATASIZE SWAP1 DUP2 ADD PUSH1 0x1F NOT AND DUP3 ADD PUSH1 0x40 MSTORE PUSH2 0x880 SWAP2 SWAP1 DUP2 ADD SWAP1 PUSH2 0xABB JUMP JUMPDEST PUSH1 0x40 MLOAD PUSH1 0x20 ADD PUSH2 0x891 SWAP3 SWAP2 SWAP1 PUSH2 0xBDE JUMP JUMPDEST PUSH1 0x40 MLOAD PUSH1 0x20 DUP2 DUP4 SUB SUB DUP2 MSTORE SWAP1 PUSH1 0x40 MSTORE SWAP1 POP JUMPDEST DUP3 PUSH1 0x40 MLOAD PUSH1 0x20 ADD PUSH2 0x8B4 SWAP2 SWAP1 PUSH2 0xBC2 JUMP JUMPDEST PUSH1 0x40 MLOAD PUSH1 0x20 DUP2 DUP4 SUB SUB DUP2 MSTORE SWAP1 PUSH1 0x40 MSTORE DUP1 MLOAD SWAP1 PUSH1 0x20 ADD KECCAK256 PUSH1 0x40 MLOAD PUSH1 0x20 ADD PUSH2 0x8ED SWAP1 PUSH13 0x2432B4B73D102634B7323732B9 PUSH1 0x99 SHL DUP2 MSTORE PUSH1 0xD ADD SWAP1 JUMP JUMPDEST PUSH1 0x40 MLOAD PUSH1 0x20 DUP2 DUP4 SUB SUB DUP2 MSTORE SWAP1 PUSH1 0x40 MSTORE DUP1 MLOAD SWAP1 PUSH1 0x20 ADD KECCAK256 EQ ISZERO PUSH2 0x9AE JUMPI PUSH1 0x4 DUP1 SLOAD PUSH1 0x40 MLOAD PUSH4 0xBE985AC9 PUSH1 0xE0 SHL DUP2 MSTORE SWAP2 DUP3 ADD DUP5 SWAP1 MSTORE DUP6 SWAP2 PUSH1 0x1 PUSH1 0x1 PUSH1 0xA0 SHL SUB SWAP1 SWAP2 AND SWAP1 PUSH4 0xBE985AC9 SWAP1 PUSH1 0x24 ADD PUSH1 0x0 PUSH1 0x40 MLOAD DUP1 DUP4 SUB DUP2 DUP7 DUP1 EXTCODESIZE ISZERO DUP1 ISZERO PUSH2 0x94F JUMPI PUSH1 0x0 DUP1 REVERT JUMPDEST POP GAS STATICCALL ISZERO DUP1 ISZERO PUSH2 0x963 JUMPI RETURNDATASIZE PUSH1 0x0 DUP1 RETURNDATACOPY RETURNDATASIZE PUSH1 0x0 REVERT JUMPDEST POP POP POP POP PUSH1 0x40 MLOAD RETURNDATASIZE PUSH1 0x0 DUP3 RETURNDATACOPY PUSH1 0x1F RETURNDATASIZE SWAP1 DUP2 ADD PUSH1 0x1F NOT AND DUP3 ADD PUSH1 0x40 MSTORE PUSH2 0x98B SWAP2 SWAP1 DUP2 ADD SWAP1 PUSH2 0xABB JUMP JUMPDEST PUSH1 0x40 MLOAD PUSH1 0x20 ADD PUSH2 0x99C SWAP3 SWAP2 SWAP1 PUSH2 0xBDE JUMP JUMPDEST PUSH1 0x40 MLOAD PUSH1 0x20 DUP2 DUP4 SUB SUB DUP2 MSTORE SWAP1 PUSH1 0x40 MSTORE SWAP1 POP JUMPDEST SWAP4 SWAP3 POP POP POP JUMP JUMPDEST PUSH1 0x60 DUP2 PUSH2 0x9D9 JUMPI POP POP PUSH1 0x40 DUP1 MLOAD DUP1 DUP3 ADD SWAP1 SWAP2 MSTORE PUSH1 0x1 DUP2 MSTORE PUSH1 0x3 PUSH1 0xFC SHL PUSH1 0x20 DUP3 ADD MSTORE SWAP1 JUMP JUMPDEST DUP2 PUSH1 0x0 JUMPDEST DUP2 ISZERO PUSH2 0xA03 JUMPI DUP1 PUSH2 0x9ED DUP2 PUSH2 0x137A JUMP JUMPDEST SWAP2 POP PUSH2 0x9FC SWAP1 POP PUSH1 0xA DUP4 PUSH2 0x131F JUMP JUMPDEST SWAP2 POP PUSH2 0x9DD JUMP JUMPDEST PUSH1 0x0 DUP2 PUSH8 0xFFFFFFFFFFFFFFFF DUP2 GT ISZERO PUSH2 0xA1E JUMPI PUSH2 0xA1E PUSH2 0x13EB JUMP JUMPDEST PUSH1 0x40 MLOAD SWAP1 DUP1 DUP3 MSTORE DUP1 PUSH1 0x1F ADD PUSH1 0x1F NOT AND PUSH1 0x20 ADD DUP3 ADD PUSH1 0x40 MSTORE DUP1 ISZERO PUSH2 0xA48 JUMPI PUSH1 0x20 DUP3 ADD DUP2 DUP1 CALLDATASIZE DUP4 CALLDATACOPY ADD SWAP1 POP JUMPDEST POP SWAP1 POP JUMPDEST DUP5 ISZERO PUSH2 0xAB3 JUMPI PUSH2 0xA5D PUSH1 0x1 DUP4 PUSH2 0x1333 JUMP JUMPDEST SWAP2 POP PUSH2 0xA6A PUSH1 0xA DUP7 PUSH2 0x1395 JUMP JUMPDEST PUSH2 0xA75 SWAP1 PUSH1 0x30 PUSH2 0x1307 JUMP JUMPDEST PUSH1 0xF8 SHL DUP2 DUP4 DUP2 MLOAD DUP2 LT PUSH2 0xA8A JUMPI PUSH2 0xA8A PUSH2 0x13D5 JUMP JUMPDEST PUSH1 0x20 ADD ADD SWAP1 PUSH1 0x1 PUSH1 0x1 PUSH1 0xF8 SHL SUB NOT AND SWAP1 DUP2 PUSH1 0x0 BYTE SWAP1 MSTORE8 POP PUSH2 0xAAC PUSH1 0xA DUP7 PUSH2 0x131F JUMP JUMPDEST SWAP5 POP PUSH2 0xA4C JUMP JUMPDEST SWAP5 SWAP4 POP POP POP POP JUMP JUMPDEST PUSH1 0x0 PUSH1 0x20 DUP3 DUP5 SUB SLT ISZERO PUSH2 0xACD JUMPI PUSH1 0x0 DUP1 REVERT JUMPDEST DUP2 MLOAD PUSH8 0xFFFFFFFFFFFFFFFF DUP1 DUP3 GT ISZERO PUSH2 0xAE5 JUMPI PUSH1 0x0 DUP1 REVERT JUMPDEST DUP2 DUP5 ADD SWAP2 POP DUP5 PUSH1 0x1F DUP4 ADD SLT PUSH2 0xAF9 JUMPI PUSH1 0x0 DUP1 REVERT JUMPDEST DUP2 MLOAD DUP2 DUP2 GT ISZERO PUSH2 0xB0B JUMPI PUSH2 0xB0B PUSH2 0x13EB JUMP JUMPDEST PUSH1 0x40 MLOAD PUSH1 0x1F DUP3 ADD PUSH1 0x1F NOT SWAP1 DUP2 AND PUSH1 0x3F ADD AND DUP2 ADD SWAP1 DUP4 DUP3 GT DUP2 DUP4 LT OR ISZERO PUSH2 0xB33 JUMPI PUSH2 0xB33 PUSH2 0x13EB JUMP JUMPDEST DUP2 PUSH1 0x40 MSTORE DUP3 DUP2 MSTORE DUP8 PUSH1 0x20 DUP5 DUP8 ADD ADD GT ISZERO PUSH2 0xB4C JUMPI PUSH1 0x0 DUP1 REVERT JUMPDEST PUSH2 0xB5D DUP4 PUSH1 0x20 DUP4 ADD PUSH1 0x20 DUP9 ADD PUSH2 0x134A JUMP JUMPDEST SWAP8 SWAP7 POP POP POP POP POP POP POP JUMP JUMPDEST PUSH1 0x0 DUP1 PUSH1 0x0 DUP1 PUSH1 0x80 DUP6 DUP8 SUB SLT ISZERO PUSH2 0xB7E JUMPI PUSH1 0x0 DUP1 REVERT JUMPDEST DUP5 CALLDATALOAD PUSH8 0xFFFFFFFFFFFFFFFF DUP2 GT ISZERO PUSH2 0xB95 JUMPI PUSH1 0x0 DUP1 REVERT JUMPDEST DUP6 ADD PUSH2 0x120 DUP2 DUP9 SUB SLT ISZERO PUSH2 0xBA8 JUMPI PUSH1 0x0 DUP1 REVERT JUMPDEST SWAP7 PUSH1 0x20 DUP7 ADD CALLDATALOAD SWAP7 POP PUSH1 0x40 DUP7 ADD CALLDATALOAD SWAP6 PUSH1 0x60 ADD CALLDATALOAD SWAP5 POP SWAP3 POP POP POP JUMP JUMPDEST PUSH1 0x0 DUP3 MLOAD PUSH2 0xBD4 DUP2 DUP5 PUSH1 0x20 DUP8 ADD PUSH2 0x134A JUMP JUMPDEST SWAP2 SWAP1 SWAP2 ADD SWAP3 SWAP2 POP POP JUMP JUMPDEST PUSH1 0x0 DUP4 MLOAD PUSH2 0xBF0 DUP2 DUP5 PUSH1 0x20 DUP9 ADD PUSH2 0x134A JUMP JUMPDEST DUP4 MLOAD SWAP1 DUP4 ADD SWAP1 PUSH2 0xC04 DUP2 DUP4 PUSH1 0x20 DUP9 ADD PUSH2 0x134A JUMP JUMPDEST ADD SWAP5 SWAP4 POP POP POP POP JUMP JUMPDEST PUSH1 0x0 DUP4 MLOAD PUSH2 0xC1F DUP2 DUP5 PUSH1 0x20 DUP9 ADD PUSH2 0x134A JUMP JUMPDEST DUP1 DUP4 ADD SWAP1 POP PUSH32 0x3C7465787420783D2232302220793D2233323022203E506F736974696F6E3A20 DUP2 MSTORE DUP4 MLOAD PUSH2 0xC5A DUP2 PUSH1 0x20 DUP5 ADD PUSH1 0x20 DUP9 ADD PUSH2 0x134A JUMP JUMPDEST PUSH7 0x1E17BA32BC3A1F PUSH1 0xC9 SHL PUSH1 0x20 SWAP3 SWAP1 SWAP2 ADD SWAP2 DUP3 ADD MSTORE PUSH1 0x27 ADD SWAP5 SWAP4 POP POP POP POP JUMP JUMPDEST PUSH1 0x0 DUP4 MLOAD PUSH2 0xC8C DUP2 DUP5 PUSH1 0x20 DUP9 ADD PUSH2 0x134A JUMP JUMPDEST PUSH32 0x3C7465787420783D2232302220793D2233383022203E476F616C733A20000000 SWAP1 DUP4 ADD SWAP1 DUP2 MSTORE DUP4 MLOAD PUSH2 0xCC6 DUP2 PUSH1 0x1D DUP5 ADD PUSH1 0x20 DUP9 ADD PUSH2 0x134A JUMP JUMPDEST PUSH7 0x1E17BA32BC3A1F PUSH1 0xC9 SHL PUSH1 0x1D SWAP3 SWAP1 SWAP2 ADD SWAP2 DUP3 ADD MSTORE PUSH1 0x24 ADD SWAP5 SWAP4 POP POP POP POP JUMP JUMPDEST PUSH1 0x0 DUP4 MLOAD PUSH2 0xCF8 DUP2 DUP5 PUSH1 0x20 DUP9 ADD PUSH2 0x134A JUMP JUMPDEST PUSH32 0x3C7465787420783D2232302220793D2234303022203E4173736973743A200000 SWAP1 DUP4 ADD SWAP1 DUP2 MSTORE DUP4 MLOAD PUSH2 0xD32 DUP2 PUSH1 0x1E DUP5 ADD PUSH1 0x20 DUP9 ADD PUSH2 0x134A JUMP JUMPDEST PUSH7 0x1E17BA32BC3A1F PUSH1 0xC9 SHL PUSH1 0x1E SWAP3 SWAP1 SWAP2 ADD SWAP2 DUP3 ADD MSTORE PUSH1 0x25 ADD SWAP5 SWAP4 POP POP POP POP JUMP JUMPDEST PUSH1 0x0 DUP3 MLOAD PUSH2 0xD64 DUP2 DUP5 PUSH1 0x20 DUP8 ADD PUSH2 0x134A JUMP JUMPDEST PUSH32 0x3C726563742077696474683D223130302522206865696768743D223130302522 SWAP3 ADD SWAP2 DUP3 MSTORE POP PUSH7 0x103334B6361E91 PUSH1 0xC9 SHL PUSH1 0x20 DUP3 ADD MSTORE PUSH7 0x23653430323237 PUSH1 0xC8 SHL PUSH1 0x27 DUP3 ADD MSTORE PUSH4 0x1110179F PUSH1 0xE1 SHL PUSH1 0x2E DUP3 ADD MSTORE PUSH1 0x32 ADD SWAP2 SWAP1 POP JUMP JUMPDEST PUSH1 0x0 DUP4 MLOAD PUSH2 0xDD2 DUP2 DUP5 PUSH1 0x20 DUP9 ADD PUSH2 0x134A JUMP JUMPDEST DUP1 DUP4 ADD SWAP1 POP PUSH32 0x3C7465787420783D2238302220793D2234302220636C6173733D227469746C65 DUP2 MSTORE PUSH2 0x111F PUSH1 0xF1 SHL PUSH1 0x20 DUP3 ADD MSTORE DUP4 MLOAD PUSH2 0xE18 DUP2 PUSH1 0x22 DUP5 ADD PUSH1 0x20 DUP9 ADD PUSH2 0x134A JUMP JUMPDEST PUSH7 0x1E17BA32BC3A1F PUSH1 0xC9 SHL PUSH1 0x22 SWAP3 SWAP1 SWAP2 ADD SWAP2 DUP3 ADD MSTORE PUSH1 0x29 ADD SWAP5 SWAP4 POP POP POP POP JUMP JUMPDEST PUSH1 0x0 DUP3 MLOAD PUSH2 0xE4A DUP2 DUP5 PUSH1 0x20 DUP8 ADD PUSH2 0x134A JUMP JUMPDEST PUSH1 0x0 DUP1 MLOAD PUSH1 0x20 PUSH2 0x1450 DUP4 CODECOPY DUP2 MLOAD SWAP2 MSTORE SWAP3 ADD SWAP2 DUP3 MSTORE POP PUSH32 0x31352920726F74617465282D39302922203E5465616D204E4654203C2F746578 PUSH1 0x20 DUP3 ADD MSTORE PUSH2 0x3A1F PUSH1 0xF1 SHL PUSH1 0x40 DUP3 ADD MSTORE PUSH1 0x42 ADD SWAP2 SWAP1 POP JUMP JUMPDEST PUSH1 0x0 DUP3 MLOAD PUSH2 0xEAA DUP2 DUP5 PUSH1 0x20 DUP8 ADD PUSH2 0x134A JUMP JUMPDEST PUSH1 0x0 DUP1 MLOAD PUSH1 0x20 PUSH2 0x1450 DUP4 CODECOPY DUP2 MLOAD SWAP2 MSTORE SWAP3 ADD SWAP2 DUP3 MSTORE POP PUSH32 0x31352920726F74617465282D39302922203E506C6163652033203C2F74657874 PUSH1 0x20 DUP3 ADD MSTORE PUSH1 0x1F PUSH1 0xF9 SHL PUSH1 0x40 DUP3 ADD MSTORE PUSH1 0x41 ADD SWAP2 SWAP1 POP JUMP JUMPDEST PUSH1 0x0 DUP4 MLOAD PUSH2 0xF09 DUP2 DUP5 PUSH1 0x20 DUP9 ADD PUSH2 0x134A JUMP JUMPDEST PUSH32 0x3C7465787420783D2232302220793D2233363022203E47616D65733A20000000 SWAP1 DUP4 ADD SWAP1 DUP2 MSTORE DUP4 MLOAD PUSH2 0xCC6 DUP2 PUSH1 0x1D DUP5 ADD PUSH1 0x20 DUP9 ADD PUSH2 0x134A JUMP JUMPDEST PUSH1 0x0 DUP3 MLOAD PUSH2 0xF55 DUP2 DUP5 PUSH1 0x20 DUP8 ADD PUSH2 0x134A JUMP JUMPDEST PUSH1 0x0 DUP1 MLOAD PUSH1 0x20 PUSH2 0x1450 DUP4 CODECOPY DUP2 MLOAD SWAP2 MSTORE SWAP3 ADD SWAP2 DUP3 MSTORE POP PUSH32 0x31352920726F74617465282D39302922203E506C6163652031203C2F74657874 PUSH1 0x20 DUP3 ADD MSTORE PUSH1 0x1F PUSH1 0xF9 SHL PUSH1 0x40 DUP3 ADD MSTORE PUSH1 0x41 ADD SWAP2 SWAP1 POP JUMP JUMPDEST PUSH1 0x0 DUP4 MLOAD PUSH2 0xFB4 DUP2 DUP5 PUSH1 0x20 DUP9 ADD PUSH2 0x134A JUMP JUMPDEST DUP1 DUP4 ADD SWAP1 POP PUSH32 0x3C7465787420783D2232302220793D2233343022203E47616D65706C61793A20 DUP2 MSTORE DUP4 MLOAD PUSH2 0xFEF DUP2 PUSH1 0x20 DUP5 ADD PUSH1 0x20 DUP9 ADD PUSH2 0x134A JUMP JUMPDEST PUSH3 0x36B4B7 PUSH1 0xE9 SHL PUSH1 0x20 SWAP3 SWAP1 SWAP2 ADD SWAP2 DUP3 ADD MSTORE PUSH7 0x1E17BA32BC3A1F PUSH1 0xC9 SHL PUSH1 0x23 DUP3 ADD MSTORE PUSH1 0x2A ADD SWAP5 SWAP4 POP POP POP POP JUMP JUMPDEST PUSH1 0x0 DUP4 MLOAD PUSH2 0x102D DUP2 DUP5 PUSH1 0x20 DUP9 ADD PUSH2 0x134A JUMP JUMPDEST DUP1 DUP4 ADD SWAP1 POP PUSH1 0x0 DUP1 MLOAD PUSH1 0x20 PUSH2 0x1450 DUP4 CODECOPY DUP2 MLOAD SWAP2 MSTORE DUP2 MSTORE PUSH32 0x31352920726F74617465282D39302922203E53636F72653A2000000000000000 PUSH1 0x20 DUP3 ADD MSTORE DUP4 MLOAD PUSH2 0x107C DUP2 PUSH1 0x39 DUP5 ADD PUSH1 0x20 DUP9 ADD PUSH2 0x134A JUMP JUMPDEST PUSH8 0x101E17BA32BC3A1F PUSH1 0xC1 SHL PUSH1 0x39 SWAP3 SWAP1 SWAP2 ADD SWAP2 DUP3 ADD MSTORE PUSH1 0x41 ADD SWAP5 SWAP4 POP POP POP POP JUMP JUMPDEST PUSH1 0x0 DUP3 MLOAD PUSH2 0x10AF DUP2 DUP5 PUSH1 0x20 DUP8 ADD PUSH2 0x134A JUMP JUMPDEST PUSH6 0x1E17B9BB339F PUSH1 0xD1 SHL SWAP3 ADD SWAP2 DUP3 MSTORE POP PUSH1 0x6 ADD SWAP2 SWAP1 POP JUMP JUMPDEST PUSH1 0x0 DUP4 MLOAD PUSH2 0x10D9 DUP2 DUP5 PUSH1 0x20 DUP9 ADD PUSH2 0x134A JUMP JUMPDEST PUSH32 0x3C7465787420783D2232302220793D2234303022203E53617665733A20000000 SWAP1 DUP4 ADD SWAP1 DUP2 MSTORE DUP4 MLOAD PUSH2 0xCC6 DUP2 PUSH1 0x1D DUP5 ADD PUSH1 0x20 DUP9 ADD PUSH2 0x134A JUMP JUMPDEST PUSH1 0x0 DUP3 MLOAD PUSH2 0x1125 DUP2 DUP5 PUSH1 0x20 DUP8 ADD PUSH2 0x134A JUMP JUMPDEST PUSH1 0x0 DUP1 MLOAD PUSH1 0x20 PUSH2 0x1450 DUP4 CODECOPY DUP2 MLOAD SWAP2 MSTORE SWAP3 ADD SWAP2 DUP3 MSTORE POP PUSH32 0x31352920726F74617465282D39302922203E506C6163652032203C2F74657874 PUSH1 0x20 DUP3 ADD MSTORE PUSH1 0x1F PUSH1 0xF9 SHL PUSH1 0x40 DUP3 ADD MSTORE PUSH1 0x41 ADD SWAP2 SWAP1 POP JUMP JUMPDEST PUSH1 0x0 DUP3 MLOAD PUSH2 0x1184 DUP2 DUP5 PUSH1 0x20 DUP8 ADD PUSH2 0x134A JUMP JUMPDEST PUSH7 0x1E39BA3CB6329F PUSH1 0xC9 SHL SWAP3 ADD SWAP2 DUP3 MSTORE POP PUSH32 0x74657874207B20666F6E742D66616D696C793A20417269616C2C2048656C7665 PUSH1 0x7 DUP3 ADD MSTORE PUSH32 0x746963612C2073616E732D73657269663B20666F6E742D7765696768743A2020 PUSH1 0x27 DUP3 ADD MSTORE PUSH32 0x626F6C643B2066696C6C3A20236666653530303B20666F6E742D73697A653A20 PUSH1 0x47 DUP3 ADD MSTORE PUSH6 0x31656D3B207D PUSH1 0xD0 SHL PUSH1 0x67 DUP3 ADD MSTORE PUSH32 0x2E7469746C65207B20746578742D616E63686F723A206C6566743B20666F6E74 PUSH1 0x6D DUP3 ADD MSTORE PUSH32 0x2D7765696768743A20626F6C643B20666F6E742D73697A653A20312E35656D3B PUSH1 0x8D DUP3 ADD MSTORE PUSH2 0x207D PUSH1 0xF0 SHL PUSH1 0xAD DUP3 ADD MSTORE PUSH8 0x1E17B9BA3CB6329F PUSH1 0xC1 SHL PUSH1 0xAF DUP3 ADD MSTORE PUSH1 0xB7 ADD SWAP2 SWAP1 POP JUMP JUMPDEST PUSH1 0x20 DUP2 MSTORE PUSH1 0x0 DUP3 MLOAD DUP1 PUSH1 0x20 DUP5 ADD MSTORE PUSH2 0x12A5 DUP2 PUSH1 0x40 DUP6 ADD PUSH1 0x20 DUP8 ADD PUSH2 0x134A JUMP JUMPDEST PUSH1 0x1F ADD PUSH1 0x1F NOT AND SWAP2 SWAP1 SWAP2 ADD PUSH1 0x40 ADD SWAP3 SWAP2 POP POP JUMP JUMPDEST PUSH1 0x0 DUP1 DUP4 CALLDATALOAD PUSH1 0x1E NOT DUP5 CALLDATASIZE SUB ADD DUP2 SLT PUSH2 0x12D0 JUMPI PUSH1 0x0 DUP1 REVERT JUMPDEST DUP4 ADD DUP1 CALLDATALOAD SWAP2 POP PUSH8 0xFFFFFFFFFFFFFFFF DUP3 GT ISZERO PUSH2 0x12EB JUMPI PUSH1 0x0 DUP1 REVERT JUMPDEST PUSH1 0x20 ADD SWAP2 POP CALLDATASIZE DUP2 SWAP1 SUB DUP3 SGT ISZERO PUSH2 0x1300 JUMPI PUSH1 0x0 DUP1 REVERT JUMPDEST SWAP3 POP SWAP3 SWAP1 POP JUMP JUMPDEST PUSH1 0x0 DUP3 NOT DUP3 GT ISZERO PUSH2 0x131A JUMPI PUSH2 0x131A PUSH2 0x13A9 JUMP JUMPDEST POP ADD SWAP1 JUMP JUMPDEST PUSH1 0x0 DUP3 PUSH2 0x132E JUMPI PUSH2 0x132E PUSH2 0x13BF JUMP JUMPDEST POP DIV SWAP1 JUMP JUMPDEST PUSH1 0x0 DUP3 DUP3 LT ISZERO PUSH2 0x1345 JUMPI PUSH2 0x1345 PUSH2 0x13A9 JUMP JUMPDEST POP SUB SWAP1 JUMP JUMPDEST PUSH1 0x0 JUMPDEST DUP4 DUP2 LT ISZERO PUSH2 0x1365 JUMPI DUP2 DUP2 ADD MLOAD DUP4 DUP3 ADD MSTORE PUSH1 0x20 ADD PUSH2 0x134D JUMP JUMPDEST DUP4 DUP2 GT ISZERO PUSH2 0x1374 JUMPI PUSH1 0x0 DUP5 DUP5 ADD MSTORE JUMPDEST POP POP POP POP JUMP JUMPDEST PUSH1 0x0 PUSH1 0x0 NOT DUP3 EQ ISZERO PUSH2 0x138E JUMPI PUSH2 0x138E PUSH2 0x13A9 JUMP JUMPDEST POP PUSH1 0x1 ADD SWAP1 JUMP JUMPDEST PUSH1 0x0 DUP3 PUSH2 0x13A4 JUMPI PUSH2 0x13A4 PUSH2 0x13BF JUMP JUMPDEST POP MOD SWAP1 JUMP JUMPDEST PUSH4 0x4E487B71 PUSH1 0xE0 SHL PUSH1 0x0 MSTORE PUSH1 0x11 PUSH1 0x4 MSTORE PUSH1 0x24 PUSH1 0x0 REVERT JUMPDEST PUSH4 0x4E487B71 PUSH1 0xE0 SHL PUSH1 0x0 MSTORE PUSH1 0x12 PUSH1 0x4 MSTORE PUSH1 0x24 PUSH1 0x0 REVERT JUMPDEST PUSH4 0x4E487B71 PUSH1 0xE0 SHL PUSH1 0x0 MSTORE PUSH1 0x32 PUSH1 0x4 MSTORE PUSH1 0x24 PUSH1 0x0 REVERT JUMPDEST PUSH4 0x4E487B71 PUSH1 0xE0 SHL PUSH1 0x0 MSTORE PUSH1 0x41 PUSH1 0x4 MSTORE PUSH1 0x24 PUSH1 0x0 REVERT INVALID EXTCODECOPY PUSH20 0x76672077696474683D2233393022206865696768 PUSH21 0x3D22343335222066696C6C3D22677265656E222078 PUSH14 0x6C6E733D22687474703A2F2F7777 PUSH24 0x2E77332E6F72672F323030302F737667223E3C7465787420 PUSH21 0x72616E73666F726D3D227472616E736C6174652833 CODESIZE ADDRESS 0x2C CALLVALUE LOG2 PUSH5 0x6970667358 0x22 SLT KECCAK256 DUP16 DUP1 BYTE 0xBE 0x23 0xE4 0x28 0x4F 0x21 XOR PUSH29 0x27EBE3A5B298C34E09CB9BE5B6CEA2617BC86EA53464736F6C63430008 SMOD STOP CALLER "
		},
		"gasEstimates": {
			"creation": {
				"codeDepositCost": "1057000",
				"executionCost": "infinite",
				"totalCost": "infinite"
			},
			"external": {
				"getSVG((uint256,uint256,uint256,uint256,uint256,uint256,string,string,string),uint256,uint256,uint256)": "infinite"
			},
			"internal": {
				"addImage(string memory,string memory,uint256)": "infinite"
			}
		},
		"methodIdentifiers": {
			"getSVG((uint256,uint256,uint256,uint256,uint256,uint256,string,string,string),uint256,uint256,uint256)": "21f8dd9d"
		}
	},
	"abi": [
		{
			"inputs": [
				{
					"internalType": "address",
					"name": "_AndyPelmard",
					"type": "address"
				},
				{
					"internalType": "address",
					"name": "_LiamMillar",
					"type": "address"
				},
				{
					"internalType": "address",
					"name": "_NoahKatterbach",
					"type": "address"
				},
				{
					"internalType": "address",
					"name": "_PajtimKasami",
					"type": "address"
				},
				{
					"internalType": "address",
					"name": "_HeinzLindner",
					"type": "address"
				}
			],
			"stateMutability": "nonpayable",
			"type": "constructor"
		},
		{
			"inputs": [
				{
					"components": [
						{
							"internalType": "uint256",
							"name": "gameplay",
							"type": "uint256"
						},
						{
							"internalType": "uint256",
							"name": "numberOfGames",
							"type": "uint256"
						},
						{
							"internalType": "uint256",
							"name": "goals",
							"type": "uint256"
						},
						{
							"internalType": "uint256",
							"name": "level",
							"type": "uint256"
						},
						{
							"internalType": "uint256",
							"name": "saves",
							"type": "uint256"
						},
						{
							"internalType": "uint256",
							"name": "assist",
							"type": "uint256"
						},
						{
							"internalType": "string",
							"name": "position",
							"type": "string"
						},
						{
							"internalType": "string",
							"name": "playersName",
							"type": "string"
						},
						{
							"internalType": "string",
							"name": "playersName_fake",
							"type": "string"
						}
					],
					"internalType": "struct PlayerDetail.playerDetail",
					"name": "_details",
					"type": "tuple"
				},
				{
					"internalType": "uint256",
					"name": "level",
					"type": "uint256"
				},
				{
					"internalType": "uint256",
					"name": "tokenId",
					"type": "uint256"
				},
				{
					"internalType": "uint256",
					"name": "score",
					"type": "uint256"
				}
			],
			"name": "getSVG",
			"outputs": [
				{
					"internalType": "string",
					"name": "svg",
					"type": "string"
				}
			],
			"stateMutability": "view",
			"type": "function"
		}
	]
}