{
	"data": {
		"bytecode": {
			"linkReferences": {},
			"object": "608060405266038d7ea4c680006002553480156200001c57600080fd5b5060405162002195380380620021958339810160408190526200003f91620000d2565b60008054600180546001600160a01b039586166001600160a01b03199091161790556004805493151560ff199690951661010002959095166001600160a81b03199182161793909317905560ff60a81b1960ff60a01b1933169290911691909117600160a01b1716600160a81b17905562000124565b80516001600160a01b0381168114620000cd57600080fd5b919050565b600080600060608486031215620000e857600080fd5b620000f384620000b5565b92506200010360208501620000b5565b9150604084015180151581146200011957600080fd5b809150509250925092565b61206180620001346000396000f3fe6080604052600436106100705760003560e01c8063593292b61161004e578063593292b6146100b4578063a39fac12146100c9578063a6f9dae1146100f4578063ef6380071461011457600080fd5b80630a67d2c71461007557806337954ce31461009757806349f22cd8146100ac575b600080fd5b34801561008157600080fd5b506100956100903660046115e4565b610134565b005b3480156100a357600080fd5b506100956101ce565b6100956107ef565b3480156100c057600080fd5b506100956109df565b3480156100d557600080fd5b506100de6114c8565b6040516100eb9190611e2b565b60405180910390f35b34801561010057600080fd5b5061009561010f3660046115e4565b611571565b34801561012057600080fd5b5061009561012f3660046116d4565b6115aa565b6004546001600160a01b0316331461014b57600080fd5b60006003541161018e5760405162461bcd60e51b8152602060048201526009602482015268273790333ab732399760b91b60448201526064015b60405180910390fd5b6003546040516001600160a01b0383169180156108fc02916000818181858888f193505050501580156101c5573d6000803e3d6000fd5b50506000600355565b6004546001600160a01b031633146101e557600080fd5b600454600160a01b900460ff1615156001146102365760405162461bcd60e51b815260206004820152601060248201526f2930b33332b6103bb0b9903237b7329760811b6044820152606401610185565b6004805461ffff60a01b19168155600154604080516351cfd60960e11b815290516000936001600160a01b039093169263a39fac12928082019286929091829003018186803b15801561028857600080fd5b505afa15801561029c573d6000803e3d6000fd5b505050506040513d6000823e601f3d908101601f191682016040526102c49190810190611608565b905060005b81518110156107795760008060005b60058110156106305760015485516000916001600160a01b03169062fdd58e9088908890811061030a5761030a611fea565b602002602001015184600461031f9190611f83565b6040518363ffffffff1660e01b815260040161033c929190611e12565b60206040518083038186803b15801561035457600080fd5b505afa158015610368573d6000803e3d6000fd5b505050506040513d601f19601f8201168201806040525081019061038c91906116f6565b610397906032611f83565b60015487519192506001600160a01b03169062fdd58e908890889081106103c0576103c0611fea565b60200260200101518460046103d59190611f83565b6103e0906001611f49565b6040518363ffffffff1660e01b81526004016103fd929190611e12565b60206040518083038186803b15801561041557600080fd5b505afa158015610429573d6000803e3d6000fd5b505050506040513d601f19601f8201168201806040525081019061044d91906116f6565b6104589060c8611f83565b6104629082611f49565b60015487519192506001600160a01b03169062fdd58e9088908890811061048b5761048b611fea565b60200260200101518460046104a09190611f83565b6104ab906002611f49565b6040518363ffffffff1660e01b81526004016104c8929190611e12565b60206040518083038186803b1580156104e057600080fd5b505afa1580156104f4573d6000803e3d6000fd5b505050506040513d601f19601f8201168201806040525081019061051891906116f6565b610524906102ee611f83565b61052e9082611f49565b60015487519192506001600160a01b03169062fdd58e9088908890811061055757610557611fea565b602002602001015184600461056c9190611f83565b610577906003611f49565b6040518363ffffffff1660e01b8152600401610594929190611e12565b60206040518083038186803b1580156105ac57600080fd5b505afa1580156105c0573d6000803e3d6000fd5b505050506040513d601f19601f820116820180604052508101906105e491906116f6565b6105f0906109c4611f83565b6105fa9082611f49565b905080156106105761060d600184611f49565b92505b61061a8185611f49565b935050808061062890611fb9565b9150506102d8565b50811561076457600580546001810182556000919091527f036b6384b5eca791c62761152d0c79bb0604c104a5fb6f4eb0703f3154bb3db001829055835160069085908590811061068357610683611fea565b60209081029190910181015182546001810184556000938452919092200180546001600160a01b0319166001600160a01b0390921691909117905560058114156107195760078054600181018255600091909152602081047fa66cc928b5edb82af9bd49922954155ab7b0942694bea4ce44661d9a8736c68801805460ff601f9093166101000a92830219169091179055610764565b600780546001810182556000919091527fa66cc928b5edb82af9bd49922954155ab7b0942694bea4ce44661d9a8736c68860208204018054601f9092166101000a60ff021990911690555b5050808061077190611fb9565b9150506102c9565b50600054604051631c04951560e01b81526001600160a01b0361010083041691631c049515916107ba9160059160069160079160ff90911690600401611e78565b600060405180830381600087803b1580156107d457600080fd5b505af11580156107e8573d6000803e3d6000fd5b5050505050565b600454600160a01b900460ff16151560011461084d5760405162461bcd60e51b815260206004820152601b60248201527f4e6f206d6f726520627579696e6720697320706f737369626c652e00000000006044820152606401610185565b6002543410156108b05760405162461bcd60e51b815260206004820152602860248201527f496e737566666963656e742046756e64732c20706c656173652073656e64206d60448201526737b9329022aa241760c11b6064820152608401610185565b6729a2241af62c00003411156109085760405162461bcd60e51b815260206004820152601e60248201527f506c656173652062757920666f72206c657373207468616e20332045544800006044820152606401610185565b6000600254346109189190611f61565b905034600254826109299190611f83565b10156109765760025433906108fc906109429084611f83565b61094c9034611fa2565b6040518115909202916000818181858888f19350505050158015610974573d6000803e3d6000fd5b505b6002546109839082611f83565b600360008282546109949190611f49565b90915550506000546040516315a33d9360e11b81523360048201526024810183905260ff8216151560448201526101009091046001600160a01b031690632b467b26906064016107ba565b600454600160a81b900460ff161515600114610a3d5760405162461bcd60e51b815260206004820152601e60248201527f4e6f206d6f72652075706772616465732061726520706f737369626c652e00006044820152606401610185565b60005b60058110156114c5576001546000906001600160a01b031662fdd58e33610a68856004611f83565b6040518363ffffffff1660e01b8152600401610a85929190611e12565b60206040518083038186803b158015610a9d57600080fd5b505afa158015610ab1573d6000803e3d6000fd5b505050506040513d601f19601f82011682018060405250810190610ad591906116f6565b90506000610ae4601b83611f61565b9050610af181601b611f83565b610afb9083611fa2565b91506000610b0a600984611f61565b9050610b17816009611f83565b610b219084611fa2565b92506000610b30600385611f61565b9050610b3d816003611f83565b610b479085611fa2565b60015490945060009085906001600160a01b031662fdd58e33610b6b8a6004611f83565b6040518363ffffffff1660e01b8152600401610b88929190611e12565b60206040518083038186803b158015610ba057600080fd5b505afa158015610bb4573d6000803e3d6000fd5b505050506040513d601f19601f82011682018060405250810190610bd891906116f6565b610be29190611fa2565b6001549091506001600160a01b031662fdd58e33610c01896004611f83565b610c0c906001611f49565b6040518363ffffffff1660e01b8152600401610c29929190611e12565b60206040518083038186803b158015610c4157600080fd5b505afa158015610c55573d6000803e3d6000fd5b505050506040513d601f19601f82011682018060405250810190610c7991906116f6565b610c839083611f49565b91506000610c92600984611f61565b9050610c9e8186611f49565b9450610cab816009611f83565b610cb59084611fa2565b92506000610cc4600385611f61565b9050610cd08186611f49565b9450610cdd816003611f83565b610ce79085611fa2565b600154909450600090819086906001600160a01b031662fdd58e33610d0d8e6004611f83565b610d18906001611f49565b6040518363ffffffff1660e01b8152600401610d35929190611e12565b60206040518083038186803b158015610d4d57600080fd5b505afa158015610d61573d6000803e3d6000fd5b505050506040513d601f19601f82011682018060405250810190610d8591906116f6565b1115610e325760015486906001600160a01b031662fdd58e33610da98e6004611f83565b610db4906001611f49565b6040518363ffffffff1660e01b8152600401610dd1929190611e12565b60206040518083038186803b158015610de957600080fd5b505afa158015610dfd573d6000803e3d6000fd5b505050506040513d601f19601f82011682018060405250810190610e2191906116f6565b610e2b9190611fa2565b9150610ed3565b6001546001600160a01b031662fdd58e33610e4e8d6004611f83565b610e59906001611f49565b6040518363ffffffff1660e01b8152600401610e76929190611e12565b60206040518083038186803b158015610e8e57600080fd5b505afa158015610ea2573d6000803e3d6000fd5b505050506040513d601f19601f82011682018060405250810190610ec691906116f6565b610ed09087611fa2565b90505b6001546001600160a01b031662fdd58e33610eef8d6004611f83565b610efa906002611f49565b6040518363ffffffff1660e01b8152600401610f17929190611e12565b60206040518083038186803b158015610f2f57600080fd5b505afa158015610f43573d6000803e3d6000fd5b505050506040513d601f19601f82011682018060405250810190610f6791906116f6565b610f719088611f49565b9650610f7e600388611f61565b9350610f8a8489611f49565b9750610f97846003611f83565b610fa19088611fa2565b965060008088600160009054906101000a90046001600160a01b03166001600160a01b031662fdd58e338f6004610fd89190611f83565b610fe3906002611f49565b6040518363ffffffff1660e01b8152600401611000929190611e12565b60206040518083038186803b15801561101857600080fd5b505afa15801561102c573d6000803e3d6000fd5b505050506040513d601f19601f8201168201806040525081019061105091906116f6565b11156111115788600160009054906101000a90046001600160a01b03166001600160a01b031662fdd58e338f60046110889190611f83565b611093906002611f49565b6040518363ffffffff1660e01b81526004016110b0929190611e12565b60206040518083038186803b1580156110c857600080fd5b505afa1580156110dc573d6000803e3d6000fd5b505050506040513d601f19601f8201168201806040525081019061110091906116f6565b61110a9190611fa2565b91506111b2565b6001546001600160a01b031662fdd58e3361112d8f6004611f83565b611138906002611f49565b6040518363ffffffff1660e01b8152600401611155929190611e12565b60206040518083038186803b15801561116d57600080fd5b505afa158015611181573d6000803e3d6000fd5b505050506040513d601f19601f820116820180604052508101906111a591906116f6565b6111af908a611fa2565b90505b8615611227576001546001600160a01b031663995c9d776111d48e6004611f83565b338a6040518463ffffffff1660e01b81526004016111f493929190611f2a565b600060405180830381600087803b15801561120e57600080fd5b505af1158015611222573d6000803e3d6000fd5b505050505b83156112a7576001546001600160a01b031663995c9d776112498e6004611f83565b611254906001611f49565b33876040518463ffffffff1660e01b815260040161127493929190611f2a565b600060405180830381600087803b15801561128e57600080fd5b505af11580156112a2573d6000803e3d6000fd5b505050505b8115611327576001546001600160a01b031663995c9d776112c98e6004611f83565b6112d4906002611f49565b33856040518463ffffffff1660e01b81526004016112f493929190611f2a565b600060405180830381600087803b15801561130e57600080fd5b505af1158015611322573d6000803e3d6000fd5b505050505b82156113a7576001546001600160a01b0316633feb9f7d6113498e6004611f83565b611354906001611f49565b33866040518463ffffffff1660e01b815260040161137493929190611f2a565b600060405180830381600087803b15801561138e57600080fd5b505af11580156113a2573d6000803e3d6000fd5b505050505b8015611427576001546001600160a01b0316633feb9f7d6113c98e6004611f83565b6113d4906002611f49565b33846040518463ffffffff1660e01b81526004016113f493929190611f2a565b600060405180830381600087803b15801561140e57600080fd5b505af1158015611422573d6000803e3d6000fd5b505050505b89156114a7576001546001600160a01b0316633feb9f7d6114498e6004611f83565b611454906003611f49565b338d6040518463ffffffff1660e01b815260040161147493929190611f2a565b600060405180830381600087803b15801561148e57600080fd5b505af11580156114a2573d6000803e3d6000fd5b505050505b505050505050505050505080806114bd90611fb9565b915050610a40565b50565b6004546060906001600160a01b031633146114e257600080fd5b600160009054906101000a90046001600160a01b03166001600160a01b031663a39fac126040518163ffffffff1660e01b815260040160006040518083038186803b15801561153057600080fd5b505afa158015611544573d6000803e3d6000fd5b505050506040513d6000823e601f3d908101601f1916820160405261156c9190810190611608565b905090565b6004546001600160a01b0316331461158857600080fd5b600480546001600160a01b0319166001600160a01b0392909216919091179055565b6004546001600160a01b031633146115c157600080fd5b6000805460ff1916911515919091179055565b80516115df81612016565b919050565b6000602082840312156115f657600080fd5b813561160181612016565b9392505050565b6000602080838503121561161b57600080fd5b825167ffffffffffffffff8082111561163357600080fd5b818501915085601f83011261164757600080fd5b81518181111561165957611659612000565b8060051b604051601f19603f8301168101818110858211171561167e5761167e612000565b604052828152858101935084860182860187018a101561169d57600080fd5b600095505b838610156116c7576116b3816115d4565b8552600195909501949386019386016116a2565b5098975050505050505050565b6000602082840312156116e657600080fd5b8135801515811461160157600080fd5b60006020828403121561170857600080fd5b5051919050565b805480835260008281526020808220940193909190825b82601f8201101561199657815460ff808216151588526020611750818a01838560081c1615159052565b6040611764818b01848660101c1615159052565b6060611778818c01858760181c1615159052565b608061178b818d018688871c1615159052565b60a093506117a1848d01868860281c1615159052565b60c06117b5818e01878960301c1615159052565b60e06117c9818f01888a60381c1615159052565b87851c871615156101008f01526117ea6101208f01888a60481c1615159052565b6117fe6101408f01888a60501c1615159052565b6118126101608f01888a60581c1615159052565b87841c871615156101808f01526118336101a08f01888a60681c1615159052565b6118476101c08f01888a60701c1615159052565b61185b6101e08f01888a60781c1615159052565b87831c871615156102008f015261187c6102208f01888a60881c1615159052565b6118906102408f01888a60901c1615159052565b6118a46102608f01888a60981c1615159052565b87861c871615156102808f01526118c56102a08f01888a60a81c1615159052565b6118d96102c08f01888a60b01c1615159052565b6118ed6102e08f01888a60b81c1615159052565b87821c871615156103008f015261190e6103208f01888a60c81c1615159052565b6119226103408f01888a60d01c1615159052565b6119366103608f01888a60d81c1615159052565b87901c861615156103808e0152505050505060e882901c811615156103a089015261196b6103c08901828460f01c1615159052565b5061197e6103e088018260f81c15159052565b50610400959095019460019190910190602001611726565b905490828110156119b35760ff8216151586526020909501946001015b828110156119d7576119cc8660ff8460081c1615159052565b602095909501946001015b828110156119fb576119f08660ff8460101c1615159052565b602095909501946001015b82811015611a1f57611a148660ff8460181c1615159052565b602095909501946001015b82811015611a4357611a388660ff8460201c1615159052565b602095909501946001015b82811015611a6757611a5c8660ff8460281c1615159052565b602095909501946001015b82811015611a8b57611a808660ff8460301c1615159052565b602095909501946001015b82811015611aaf57611aa48660ff8460381c1615159052565b602095909501946001015b82811015611ad357611ac88660ff8460401c1615159052565b602095909501946001015b82811015611af757611aec8660ff8460481c1615159052565b602095909501946001015b82811015611b1b57611b108660ff8460501c1615159052565b602095909501946001015b82811015611b3f57611b348660ff8460581c1615159052565b602095909501946001015b82811015611b6357611b588660ff8460601c1615159052565b602095909501946001015b82811015611b8757611b7c8660ff8460681c1615159052565b602095909501946001015b82811015611bab57611ba08660ff8460701c1615159052565b602095909501946001015b82811015611bcf57611bc48660ff8460781c1615159052565b602095909501946001015b82811015611bf357611be88660ff8460801c1615159052565b602095909501946001015b82811015611c1757611c0c8660ff8460881c1615159052565b602095909501946001015b82811015611c3b57611c308660ff8460901c1615159052565b602095909501946001015b82811015611c5f57611c548660ff8460981c1615159052565b602095909501946001015b82811015611c8357611c788660ff8460a01c1615159052565b602095909501946001015b82811015611ca757611c9c8660ff8460a81c1615159052565b602095909501946001015b82811015611ccb57611cc08660ff8460b01c1615159052565b602095909501946001015b82811015611cef57611ce48660ff8460b81c1615159052565b602095909501946001015b82811015611d1357611d088660ff8460c01c1615159052565b602095909501946001015b82811015611d3757611d2c8660ff8460c81c1615159052565b602095909501946001015b82811015611d5b57611d508660ff8460d01c1615159052565b602095909501946001015b82811015611d7f57611d748660ff8460d81c1615159052565b602095909501946001015b82811015611da357611d988660ff8460e01c1615159052565b602095909501946001015b82811015611dc757611dbc8660ff8460e81c1615159052565b602095909501946001015b82811015611deb57611de08660ff8460f01c1615159052565b602095909501946001015b82811015611e0857611e01868360f81c15159052565b6020860195505b5093949350505050565b6001600160a01b03929092168252602082015260400190565b6020808252825182820181905260009190848201906040850190845b81811015611e6c5783516001600160a01b031683529284019291840191600101611e47565b50909695505050505050565b6000608082016080835280875480835260a085019150600092508883526020808420845b83811015611eb857815485529382019360019182019101611e9c565b505085830381870152885480845289855281852093820192505b80851015611efa5783546001600160a01b031683526001948501949093019291810191611ed2565b50508481036040860152611f0e818861170f565b9350505050611f21606083018415159052565b95945050505050565b9283526001600160a01b03919091166020830152604082015260600190565b60008219821115611f5c57611f5c611fd4565b500190565b600082611f7e57634e487b7160e01b600052601260045260246000fd5b500490565b6000816000190483118215151615611f9d57611f9d611fd4565b500290565b600082821015611fb457611fb4611fd4565b500390565b6000600019821415611fcd57611fcd611fd4565b5060010190565b634e487b7160e01b600052601160045260246000fd5b634e487b7160e01b600052603260045260246000fd5b634e487b7160e01b600052604160045260246000fd5b6001600160a01b03811681146114c557600080fdfea2646970667358221220d916eb857dc76d067db1150ee4c5eb9fcf22e0485c4b9821c6f6c0aab1d110d164736f6c63430008070033",
			"opcodes": "PUSH1 0x80 PUSH1 0x40 MSTORE PUSH7 0x38D7EA4C68000 PUSH1 0x2 SSTORE CALLVALUE DUP1 ISZERO PUSH3 0x1C JUMPI PUSH1 0x0 DUP1 REVERT JUMPDEST POP PUSH1 0x40 MLOAD PUSH3 0x2195 CODESIZE SUB DUP1 PUSH3 0x2195 DUP4 CODECOPY DUP2 ADD PUSH1 0x40 DUP2 SWAP1 MSTORE PUSH3 0x3F SWAP2 PUSH3 0xD2 JUMP JUMPDEST PUSH1 0x0 DUP1 SLOAD PUSH1 0x1 DUP1 SLOAD PUSH1 0x1 PUSH1 0x1 PUSH1 0xA0 SHL SUB SWAP6 DUP7 AND PUSH1 0x1 PUSH1 0x1 PUSH1 0xA0 SHL SUB NOT SWAP1 SWAP2 AND OR SWAP1 SSTORE PUSH1 0x4 DUP1 SLOAD SWAP4 ISZERO ISZERO PUSH1 0xFF NOT SWAP7 SWAP1 SWAP6 AND PUSH2 0x100 MUL SWAP6 SWAP1 SWAP6 AND PUSH1 0x1 PUSH1 0x1 PUSH1 0xA8 SHL SUB NOT SWAP2 DUP3 AND OR SWAP4 SWAP1 SWAP4 OR SWAP1 SSTORE PUSH1 0xFF PUSH1 0xA8 SHL NOT PUSH1 0xFF PUSH1 0xA0 SHL NOT CALLER AND SWAP3 SWAP1 SWAP2 AND SWAP2 SWAP1 SWAP2 OR PUSH1 0x1 PUSH1 0xA0 SHL OR AND PUSH1 0x1 PUSH1 0xA8 SHL OR SWAP1 SSTORE PUSH3 0x124 JUMP JUMPDEST DUP1 MLOAD PUSH1 0x1 PUSH1 0x1 PUSH1 0xA0 SHL SUB DUP2 AND DUP2 EQ PUSH3 0xCD JUMPI PUSH1 0x0 DUP1 REVERT JUMPDEST SWAP2 SWAP1 POP JUMP JUMPDEST PUSH1 0x0 DUP1 PUSH1 0x0 PUSH1 0x60 DUP5 DUP7 SUB SLT ISZERO PUSH3 0xE8 JUMPI PUSH1 0x0 DUP1 REVERT JUMPDEST PUSH3 0xF3 DUP5 PUSH3 0xB5 JUMP JUMPDEST SWAP3 POP PUSH3 0x103 PUSH1 0x20 DUP6 ADD PUSH3 0xB5 JUMP JUMPDEST SWAP2 POP PUSH1 0x40 DUP5 ADD MLOAD DUP1 ISZERO ISZERO DUP2 EQ PUSH3 0x119 JUMPI PUSH1 0x0 DUP1 REVERT JUMPDEST DUP1 SWAP2 POP POP SWAP3 POP SWAP3 POP SWAP3 JUMP JUMPDEST PUSH2 0x2061 DUP1 PUSH3 0x134 PUSH1 0x0 CODECOPY PUSH1 0x0 RETURN INVALID PUSH1 0x80 PUSH1 0x40 MSTORE PUSH1 0x4 CALLDATASIZE LT PUSH2 0x70 JUMPI PUSH1 0x0 CALLDATALOAD PUSH1 0xE0 SHR DUP1 PUSH4 0x593292B6 GT PUSH2 0x4E JUMPI DUP1 PUSH4 0x593292B6 EQ PUSH2 0xB4 JUMPI DUP1 PUSH4 0xA39FAC12 EQ PUSH2 0xC9 JUMPI DUP1 PUSH4 0xA6F9DAE1 EQ PUSH2 0xF4 JUMPI DUP1 PUSH4 0xEF638007 EQ PUSH2 0x114 JUMPI PUSH1 0x0 DUP1 REVERT JUMPDEST DUP1 PUSH4 0xA67D2C7 EQ PUSH2 0x75 JUMPI DUP1 PUSH4 0x37954CE3 EQ PUSH2 0x97 JUMPI DUP1 PUSH4 0x49F22CD8 EQ PUSH2 0xAC JUMPI JUMPDEST PUSH1 0x0 DUP1 REVERT JUMPDEST CALLVALUE DUP1 ISZERO PUSH2 0x81 JUMPI PUSH1 0x0 DUP1 REVERT JUMPDEST POP PUSH2 0x95 PUSH2 0x90 CALLDATASIZE PUSH1 0x4 PUSH2 0x15E4 JUMP JUMPDEST PUSH2 0x134 JUMP JUMPDEST STOP JUMPDEST CALLVALUE DUP1 ISZERO PUSH2 0xA3 JUMPI PUSH1 0x0 DUP1 REVERT JUMPDEST POP PUSH2 0x95 PUSH2 0x1CE JUMP JUMPDEST PUSH2 0x95 PUSH2 0x7EF JUMP JUMPDEST CALLVALUE DUP1 ISZERO PUSH2 0xC0 JUMPI PUSH1 0x0 DUP1 REVERT JUMPDEST POP PUSH2 0x95 PUSH2 0x9DF JUMP JUMPDEST CALLVALUE DUP1 ISZERO PUSH2 0xD5 JUMPI PUSH1 0x0 DUP1 REVERT JUMPDEST POP PUSH2 0xDE PUSH2 0x14C8 JUMP JUMPDEST PUSH1 0x40 MLOAD PUSH2 0xEB SWAP2 SWAP1 PUSH2 0x1E2B JUMP JUMPDEST PUSH1 0x40 MLOAD DUP1 SWAP2 SUB SWAP1 RETURN JUMPDEST CALLVALUE DUP1 ISZERO PUSH2 0x100 JUMPI PUSH1 0x0 DUP1 REVERT JUMPDEST POP PUSH2 0x95 PUSH2 0x10F CALLDATASIZE PUSH1 0x4 PUSH2 0x15E4 JUMP JUMPDEST PUSH2 0x1571 JUMP JUMPDEST CALLVALUE DUP1 ISZERO PUSH2 0x120 JUMPI PUSH1 0x0 DUP1 REVERT JUMPDEST POP PUSH2 0x95 PUSH2 0x12F CALLDATASIZE PUSH1 0x4 PUSH2 0x16D4 JUMP JUMPDEST PUSH2 0x15AA JUMP JUMPDEST PUSH1 0x4 SLOAD PUSH1 0x1 PUSH1 0x1 PUSH1 0xA0 SHL SUB AND CALLER EQ PUSH2 0x14B JUMPI PUSH1 0x0 DUP1 REVERT JUMPDEST PUSH1 0x0 PUSH1 0x3 SLOAD GT PUSH2 0x18E JUMPI PUSH1 0x40 MLOAD PUSH3 0x461BCD PUSH1 0xE5 SHL DUP2 MSTORE PUSH1 0x20 PUSH1 0x4 DUP3 ADD MSTORE PUSH1 0x9 PUSH1 0x24 DUP3 ADD MSTORE PUSH9 0x273790333AB7323997 PUSH1 0xB9 SHL PUSH1 0x44 DUP3 ADD MSTORE PUSH1 0x64 ADD JUMPDEST PUSH1 0x40 MLOAD DUP1 SWAP2 SUB SWAP1 REVERT JUMPDEST PUSH1 0x3 SLOAD PUSH1 0x40 MLOAD PUSH1 0x1 PUSH1 0x1 PUSH1 0xA0 SHL SUB DUP4 AND SWAP2 DUP1 ISZERO PUSH2 0x8FC MUL SWAP2 PUSH1 0x0 DUP2 DUP2 DUP2 DUP6 DUP9 DUP9 CALL SWAP4 POP POP POP POP ISZERO DUP1 ISZERO PUSH2 0x1C5 JUMPI RETURNDATASIZE PUSH1 0x0 DUP1 RETURNDATACOPY RETURNDATASIZE PUSH1 0x0 REVERT JUMPDEST POP POP PUSH1 0x0 PUSH1 0x3 SSTORE JUMP JUMPDEST PUSH1 0x4 SLOAD PUSH1 0x1 PUSH1 0x1 PUSH1 0xA0 SHL SUB AND CALLER EQ PUSH2 0x1E5 JUMPI PUSH1 0x0 DUP1 REVERT JUMPDEST PUSH1 0x4 SLOAD PUSH1 0x1 PUSH1 0xA0 SHL SWAP1 DIV PUSH1 0xFF AND ISZERO ISZERO PUSH1 0x1 EQ PUSH2 0x236 JUMPI PUSH1 0x40 MLOAD PUSH3 0x461BCD PUSH1 0xE5 SHL DUP2 MSTORE PUSH1 0x20 PUSH1 0x4 DUP3 ADD MSTORE PUSH1 0x10 PUSH1 0x24 DUP3 ADD MSTORE PUSH16 0x2930B33332B6103BB0B9903237B73297 PUSH1 0x81 SHL PUSH1 0x44 DUP3 ADD MSTORE PUSH1 0x64 ADD PUSH2 0x185 JUMP JUMPDEST PUSH1 0x4 DUP1 SLOAD PUSH2 0xFFFF PUSH1 0xA0 SHL NOT AND DUP2 SSTORE PUSH1 0x1 SLOAD PUSH1 0x40 DUP1 MLOAD PUSH4 0x51CFD609 PUSH1 0xE1 SHL DUP2 MSTORE SWAP1 MLOAD PUSH1 0x0 SWAP4 PUSH1 0x1 PUSH1 0x1 PUSH1 0xA0 SHL SUB SWAP1 SWAP4 AND SWAP3 PUSH4 0xA39FAC12 SWAP3 DUP1 DUP3 ADD SWAP3 DUP7 SWAP3 SWAP1 SWAP2 DUP3 SWAP1 SUB ADD DUP2 DUP7 DUP1 EXTCODESIZE ISZERO DUP1 ISZERO PUSH2 0x288 JUMPI PUSH1 0x0 DUP1 REVERT JUMPDEST POP GAS STATICCALL ISZERO DUP1 ISZERO PUSH2 0x29C JUMPI RETURNDATASIZE PUSH1 0x0 DUP1 RETURNDATACOPY RETURNDATASIZE PUSH1 0x0 REVERT JUMPDEST POP POP POP POP PUSH1 0x40 MLOAD RETURNDATASIZE PUSH1 0x0 DUP3 RETURNDATACOPY PUSH1 0x1F RETURNDATASIZE SWAP1 DUP2 ADD PUSH1 0x1F NOT AND DUP3 ADD PUSH1 0x40 MSTORE PUSH2 0x2C4 SWAP2 SWAP1 DUP2 ADD SWAP1 PUSH2 0x1608 JUMP JUMPDEST SWAP1 POP PUSH1 0x0 JUMPDEST DUP2 MLOAD DUP2 LT ISZERO PUSH2 0x779 JUMPI PUSH1 0x0 DUP1 PUSH1 0x0 JUMPDEST PUSH1 0x5 DUP2 LT ISZERO PUSH2 0x630 JUMPI PUSH1 0x1 SLOAD DUP6 MLOAD PUSH1 0x0 SWAP2 PUSH1 0x1 PUSH1 0x1 PUSH1 0xA0 SHL SUB AND SWAP1 PUSH3 0xFDD58E SWAP1 DUP9 SWAP1 DUP9 SWAP1 DUP2 LT PUSH2 0x30A JUMPI PUSH2 0x30A PUSH2 0x1FEA JUMP JUMPDEST PUSH1 0x20 MUL PUSH1 0x20 ADD ADD MLOAD DUP5 PUSH1 0x4 PUSH2 0x31F SWAP2 SWAP1 PUSH2 0x1F83 JUMP JUMPDEST PUSH1 0x40 MLOAD DUP4 PUSH4 0xFFFFFFFF AND PUSH1 0xE0 SHL DUP2 MSTORE PUSH1 0x4 ADD PUSH2 0x33C SWAP3 SWAP2 SWAP1 PUSH2 0x1E12 JUMP JUMPDEST PUSH1 0x20 PUSH1 0x40 MLOAD DUP1 DUP4 SUB DUP2 DUP7 DUP1 EXTCODESIZE ISZERO DUP1 ISZERO PUSH2 0x354 JUMPI PUSH1 0x0 DUP1 REVERT JUMPDEST POP GAS STATICCALL ISZERO DUP1 ISZERO PUSH2 0x368 JUMPI RETURNDATASIZE PUSH1 0x0 DUP1 RETURNDATACOPY RETURNDATASIZE PUSH1 0x0 REVERT JUMPDEST POP POP POP POP PUSH1 0x40 MLOAD RETURNDATASIZE PUSH1 0x1F NOT PUSH1 0x1F DUP3 ADD AND DUP3 ADD DUP1 PUSH1 0x40 MSTORE POP DUP2 ADD SWAP1 PUSH2 0x38C SWAP2 SWAP1 PUSH2 0x16F6 JUMP JUMPDEST PUSH2 0x397 SWAP1 PUSH1 0x32 PUSH2 0x1F83 JUMP JUMPDEST PUSH1 0x1 SLOAD DUP8 MLOAD SWAP2 SWAP3 POP PUSH1 0x1 PUSH1 0x1 PUSH1 0xA0 SHL SUB AND SWAP1 PUSH3 0xFDD58E SWAP1 DUP9 SWAP1 DUP9 SWAP1 DUP2 LT PUSH2 0x3C0 JUMPI PUSH2 0x3C0 PUSH2 0x1FEA JUMP JUMPDEST PUSH1 0x20 MUL PUSH1 0x20 ADD ADD MLOAD DUP5 PUSH1 0x4 PUSH2 0x3D5 SWAP2 SWAP1 PUSH2 0x1F83 JUMP JUMPDEST PUSH2 0x3E0 SWAP1 PUSH1 0x1 PUSH2 0x1F49 JUMP JUMPDEST PUSH1 0x40 MLOAD DUP4 PUSH4 0xFFFFFFFF AND PUSH1 0xE0 SHL DUP2 MSTORE PUSH1 0x4 ADD PUSH2 0x3FD SWAP3 SWAP2 SWAP1 PUSH2 0x1E12 JUMP JUMPDEST PUSH1 0x20 PUSH1 0x40 MLOAD DUP1 DUP4 SUB DUP2 DUP7 DUP1 EXTCODESIZE ISZERO DUP1 ISZERO PUSH2 0x415 JUMPI PUSH1 0x0 DUP1 REVERT JUMPDEST POP GAS STATICCALL ISZERO DUP1 ISZERO PUSH2 0x429 JUMPI RETURNDATASIZE PUSH1 0x0 DUP1 RETURNDATACOPY RETURNDATASIZE PUSH1 0x0 REVERT JUMPDEST POP POP POP POP PUSH1 0x40 MLOAD RETURNDATASIZE PUSH1 0x1F NOT PUSH1 0x1F DUP3 ADD AND DUP3 ADD DUP1 PUSH1 0x40 MSTORE POP DUP2 ADD SWAP1 PUSH2 0x44D SWAP2 SWAP1 PUSH2 0x16F6 JUMP JUMPDEST PUSH2 0x458 SWAP1 PUSH1 0xC8 PUSH2 0x1F83 JUMP JUMPDEST PUSH2 0x462 SWAP1 DUP3 PUSH2 0x1F49 JUMP JUMPDEST PUSH1 0x1 SLOAD DUP8 MLOAD SWAP2 SWAP3 POP PUSH1 0x1 PUSH1 0x1 PUSH1 0xA0 SHL SUB AND SWAP1 PUSH3 0xFDD58E SWAP1 DUP9 SWAP1 DUP9 SWAP1 DUP2 LT PUSH2 0x48B JUMPI PUSH2 0x48B PUSH2 0x1FEA JUMP JUMPDEST PUSH1 0x20 MUL PUSH1 0x20 ADD ADD MLOAD DUP5 PUSH1 0x4 PUSH2 0x4A0 SWAP2 SWAP1 PUSH2 0x1F83 JUMP JUMPDEST PUSH2 0x4AB SWAP1 PUSH1 0x2 PUSH2 0x1F49 JUMP JUMPDEST PUSH1 0x40 MLOAD DUP4 PUSH4 0xFFFFFFFF AND PUSH1 0xE0 SHL DUP2 MSTORE PUSH1 0x4 ADD PUSH2 0x4C8 SWAP3 SWAP2 SWAP1 PUSH2 0x1E12 JUMP JUMPDEST PUSH1 0x20 PUSH1 0x40 MLOAD DUP1 DUP4 SUB DUP2 DUP7 DUP1 EXTCODESIZE ISZERO DUP1 ISZERO PUSH2 0x4E0 JUMPI PUSH1 0x0 DUP1 REVERT JUMPDEST POP GAS STATICCALL ISZERO DUP1 ISZERO PUSH2 0x4F4 JUMPI RETURNDATASIZE PUSH1 0x0 DUP1 RETURNDATACOPY RETURNDATASIZE PUSH1 0x0 REVERT JUMPDEST POP POP POP POP PUSH1 0x40 MLOAD RETURNDATASIZE PUSH1 0x1F NOT PUSH1 0x1F DUP3 ADD AND DUP3 ADD DUP1 PUSH1 0x40 MSTORE POP DUP2 ADD SWAP1 PUSH2 0x518 SWAP2 SWAP1 PUSH2 0x16F6 JUMP JUMPDEST PUSH2 0x524 SWAP1 PUSH2 0x2EE PUSH2 0x1F83 JUMP JUMPDEST PUSH2 0x52E SWAP1 DUP3 PUSH2 0x1F49 JUMP JUMPDEST PUSH1 0x1 SLOAD DUP8 MLOAD SWAP2 SWAP3 POP PUSH1 0x1 PUSH1 0x1 PUSH1 0xA0 SHL SUB AND SWAP1 PUSH3 0xFDD58E SWAP1 DUP9 SWAP1 DUP9 SWAP1 DUP2 LT PUSH2 0x557 JUMPI PUSH2 0x557 PUSH2 0x1FEA JUMP JUMPDEST PUSH1 0x20 MUL PUSH1 0x20 ADD ADD MLOAD DUP5 PUSH1 0x4 PUSH2 0x56C SWAP2 SWAP1 PUSH2 0x1F83 JUMP JUMPDEST PUSH2 0x577 SWAP1 PUSH1 0x3 PUSH2 0x1F49 JUMP JUMPDEST PUSH1 0x40 MLOAD DUP4 PUSH4 0xFFFFFFFF AND PUSH1 0xE0 SHL DUP2 MSTORE PUSH1 0x4 ADD PUSH2 0x594 SWAP3 SWAP2 SWAP1 PUSH2 0x1E12 JUMP JUMPDEST PUSH1 0x20 PUSH1 0x40 MLOAD DUP1 DUP4 SUB DUP2 DUP7 DUP1 EXTCODESIZE ISZERO DUP1 ISZERO PUSH2 0x5AC JUMPI PUSH1 0x0 DUP1 REVERT JUMPDEST POP GAS STATICCALL ISZERO DUP1 ISZERO PUSH2 0x5C0 JUMPI RETURNDATASIZE PUSH1 0x0 DUP1 RETURNDATACOPY RETURNDATASIZE PUSH1 0x0 REVERT JUMPDEST POP POP POP POP PUSH1 0x40 MLOAD RETURNDATASIZE PUSH1 0x1F NOT PUSH1 0x1F DUP3 ADD AND DUP3 ADD DUP1 PUSH1 0x40 MSTORE POP DUP2 ADD SWAP1 PUSH2 0x5E4 SWAP2 SWAP1 PUSH2 0x16F6 JUMP JUMPDEST PUSH2 0x5F0 SWAP1 PUSH2 0x9C4 PUSH2 0x1F83 JUMP JUMPDEST PUSH2 0x5FA SWAP1 DUP3 PUSH2 0x1F49 JUMP JUMPDEST SWAP1 POP DUP1 ISZERO PUSH2 0x610 JUMPI PUSH2 0x60D PUSH1 0x1 DUP5 PUSH2 0x1F49 JUMP JUMPDEST SWAP3 POP JUMPDEST PUSH2 0x61A DUP2 DUP6 PUSH2 0x1F49 JUMP JUMPDEST SWAP4 POP POP DUP1 DUP1 PUSH2 0x628 SWAP1 PUSH2 0x1FB9 JUMP JUMPDEST SWAP2 POP POP PUSH2 0x2D8 JUMP JUMPDEST POP DUP2 ISZERO PUSH2 0x764 JUMPI PUSH1 0x5 DUP1 SLOAD PUSH1 0x1 DUP2 ADD DUP3 SSTORE PUSH1 0x0 SWAP2 SWAP1 SWAP2 MSTORE PUSH32 0x36B6384B5ECA791C62761152D0C79BB0604C104A5FB6F4EB0703F3154BB3DB0 ADD DUP3 SWAP1 SSTORE DUP4 MLOAD PUSH1 0x6 SWAP1 DUP6 SWAP1 DUP6 SWAP1 DUP2 LT PUSH2 0x683 JUMPI PUSH2 0x683 PUSH2 0x1FEA JUMP JUMPDEST PUSH1 0x20 SWAP1 DUP2 MUL SWAP2 SWAP1 SWAP2 ADD DUP2 ADD MLOAD DUP3 SLOAD PUSH1 0x1 DUP2 ADD DUP5 SSTORE PUSH1 0x0 SWAP4 DUP5 MSTORE SWAP2 SWAP1 SWAP3 KECCAK256 ADD DUP1 SLOAD PUSH1 0x1 PUSH1 0x1 PUSH1 0xA0 SHL SUB NOT AND PUSH1 0x1 PUSH1 0x1 PUSH1 0xA0 SHL SUB SWAP1 SWAP3 AND SWAP2 SWAP1 SWAP2 OR SWAP1 SSTORE PUSH1 0x5 DUP2 EQ ISZERO PUSH2 0x719 JUMPI PUSH1 0x7 DUP1 SLOAD PUSH1 0x1 DUP2 ADD DUP3 SSTORE PUSH1 0x0 SWAP2 SWAP1 SWAP2 MSTORE PUSH1 0x20 DUP2 DIV PUSH32 0xA66CC928B5EDB82AF9BD49922954155AB7B0942694BEA4CE44661D9A8736C688 ADD DUP1 SLOAD PUSH1 0xFF PUSH1 0x1F SWAP1 SWAP4 AND PUSH2 0x100 EXP SWAP3 DUP4 MUL NOT AND SWAP1 SWAP2 OR SWAP1 SSTORE PUSH2 0x764 JUMP JUMPDEST PUSH1 0x7 DUP1 SLOAD PUSH1 0x1 DUP2 ADD DUP3 SSTORE PUSH1 0x0 SWAP2 SWAP1 SWAP2 MSTORE PUSH32 0xA66CC928B5EDB82AF9BD49922954155AB7B0942694BEA4CE44661D9A8736C688 PUSH1 0x20 DUP3 DIV ADD DUP1 SLOAD PUSH1 0x1F SWAP1 SWAP3 AND PUSH2 0x100 EXP PUSH1 0xFF MUL NOT SWAP1 SWAP2 AND SWAP1 SSTORE JUMPDEST POP POP DUP1 DUP1 PUSH2 0x771 SWAP1 PUSH2 0x1FB9 JUMP JUMPDEST SWAP2 POP POP PUSH2 0x2C9 JUMP JUMPDEST POP PUSH1 0x0 SLOAD PUSH1 0x40 MLOAD PUSH4 0x1C049515 PUSH1 0xE0 SHL DUP2 MSTORE PUSH1 0x1 PUSH1 0x1 PUSH1 0xA0 SHL SUB PUSH2 0x100 DUP4 DIV AND SWAP2 PUSH4 0x1C049515 SWAP2 PUSH2 0x7BA SWAP2 PUSH1 0x5 SWAP2 PUSH1 0x6 SWAP2 PUSH1 0x7 SWAP2 PUSH1 0xFF SWAP1 SWAP2 AND SWAP1 PUSH1 0x4 ADD PUSH2 0x1E78 JUMP JUMPDEST PUSH1 0x0 PUSH1 0x40 MLOAD DUP1 DUP4 SUB DUP2 PUSH1 0x0 DUP8 DUP1 EXTCODESIZE ISZERO DUP1 ISZERO PUSH2 0x7D4 JUMPI PUSH1 0x0 DUP1 REVERT JUMPDEST POP GAS CALL ISZERO DUP1 ISZERO PUSH2 0x7E8 JUMPI RETURNDATASIZE PUSH1 0x0 DUP1 RETURNDATACOPY RETURNDATASIZE PUSH1 0x0 REVERT JUMPDEST POP POP POP POP POP JUMP JUMPDEST PUSH1 0x4 SLOAD PUSH1 0x1 PUSH1 0xA0 SHL SWAP1 DIV PUSH1 0xFF AND ISZERO ISZERO PUSH1 0x1 EQ PUSH2 0x84D JUMPI PUSH1 0x40 MLOAD PUSH3 0x461BCD PUSH1 0xE5 SHL DUP2 MSTORE PUSH1 0x20 PUSH1 0x4 DUP3 ADD MSTORE PUSH1 0x1B PUSH1 0x24 DUP3 ADD MSTORE PUSH32 0x4E6F206D6F726520627579696E6720697320706F737369626C652E0000000000 PUSH1 0x44 DUP3 ADD MSTORE PUSH1 0x64 ADD PUSH2 0x185 JUMP JUMPDEST PUSH1 0x2 SLOAD CALLVALUE LT ISZERO PUSH2 0x8B0 JUMPI PUSH1 0x40 MLOAD PUSH3 0x461BCD PUSH1 0xE5 SHL DUP2 MSTORE PUSH1 0x20 PUSH1 0x4 DUP3 ADD MSTORE PUSH1 0x28 PUSH1 0x24 DUP3 ADD MSTORE PUSH32 0x496E737566666963656E742046756E64732C20706C656173652073656E64206D PUSH1 0x44 DUP3 ADD MSTORE PUSH8 0x37B9329022AA2417 PUSH1 0xC1 SHL PUSH1 0x64 DUP3 ADD MSTORE PUSH1 0x84 ADD PUSH2 0x185 JUMP JUMPDEST PUSH8 0x29A2241AF62C0000 CALLVALUE GT ISZERO PUSH2 0x908 JUMPI PUSH1 0x40 MLOAD PUSH3 0x461BCD PUSH1 0xE5 SHL DUP2 MSTORE PUSH1 0x20 PUSH1 0x4 DUP3 ADD MSTORE PUSH1 0x1E PUSH1 0x24 DUP3 ADD MSTORE PUSH32 0x506C656173652062757920666F72206C657373207468616E2033204554480000 PUSH1 0x44 DUP3 ADD MSTORE PUSH1 0x64 ADD PUSH2 0x185 JUMP JUMPDEST PUSH1 0x0 PUSH1 0x2 SLOAD CALLVALUE PUSH2 0x918 SWAP2 SWAP1 PUSH2 0x1F61 JUMP JUMPDEST SWAP1 POP CALLVALUE PUSH1 0x2 SLOAD DUP3 PUSH2 0x929 SWAP2 SWAP1 PUSH2 0x1F83 JUMP JUMPDEST LT ISZERO PUSH2 0x976 JUMPI PUSH1 0x2 SLOAD CALLER SWAP1 PUSH2 0x8FC SWAP1 PUSH2 0x942 SWAP1 DUP5 PUSH2 0x1F83 JUMP JUMPDEST PUSH2 0x94C SWAP1 CALLVALUE PUSH2 0x1FA2 JUMP JUMPDEST PUSH1 0x40 MLOAD DUP2 ISZERO SWAP1 SWAP3 MUL SWAP2 PUSH1 0x0 DUP2 DUP2 DUP2 DUP6 DUP9 DUP9 CALL SWAP4 POP POP POP POP ISZERO DUP1 ISZERO PUSH2 0x974 JUMPI RETURNDATASIZE PUSH1 0x0 DUP1 RETURNDATACOPY RETURNDATASIZE PUSH1 0x0 REVERT JUMPDEST POP JUMPDEST PUSH1 0x2 SLOAD PUSH2 0x983 SWAP1 DUP3 PUSH2 0x1F83 JUMP JUMPDEST PUSH1 0x3 PUSH1 0x0 DUP3 DUP3 SLOAD PUSH2 0x994 SWAP2 SWAP1 PUSH2 0x1F49 JUMP JUMPDEST SWAP1 SWAP2 SSTORE POP POP PUSH1 0x0 SLOAD PUSH1 0x40 MLOAD PUSH4 0x15A33D93 PUSH1 0xE1 SHL DUP2 MSTORE CALLER PUSH1 0x4 DUP3 ADD MSTORE PUSH1 0x24 DUP2 ADD DUP4 SWAP1 MSTORE PUSH1 0xFF DUP3 AND ISZERO ISZERO PUSH1 0x44 DUP3 ADD MSTORE PUSH2 0x100 SWAP1 SWAP2 DIV PUSH1 0x1 PUSH1 0x1 PUSH1 0xA0 SHL SUB AND SWAP1 PUSH4 0x2B467B26 SWAP1 PUSH1 0x64 ADD PUSH2 0x7BA JUMP JUMPDEST PUSH1 0x4 SLOAD PUSH1 0x1 PUSH1 0xA8 SHL SWAP1 DIV PUSH1 0xFF AND ISZERO ISZERO PUSH1 0x1 EQ PUSH2 0xA3D JUMPI PUSH1 0x40 MLOAD PUSH3 0x461BCD PUSH1 0xE5 SHL DUP2 MSTORE PUSH1 0x20 PUSH1 0x4 DUP3 ADD MSTORE PUSH1 0x1E PUSH1 0x24 DUP3 ADD MSTORE PUSH32 0x4E6F206D6F72652075706772616465732061726520706F737369626C652E0000 PUSH1 0x44 DUP3 ADD MSTORE PUSH1 0x64 ADD PUSH2 0x185 JUMP JUMPDEST PUSH1 0x0 JUMPDEST PUSH1 0x5 DUP2 LT ISZERO PUSH2 0x14C5 JUMPI PUSH1 0x1 SLOAD PUSH1 0x0 SWAP1 PUSH1 0x1 PUSH1 0x1 PUSH1 0xA0 SHL SUB AND PUSH3 0xFDD58E CALLER PUSH2 0xA68 DUP6 PUSH1 0x4 PUSH2 0x1F83 JUMP JUMPDEST PUSH1 0x40 MLOAD DUP4 PUSH4 0xFFFFFFFF AND PUSH1 0xE0 SHL DUP2 MSTORE PUSH1 0x4 ADD PUSH2 0xA85 SWAP3 SWAP2 SWAP1 PUSH2 0x1E12 JUMP JUMPDEST PUSH1 0x20 PUSH1 0x40 MLOAD DUP1 DUP4 SUB DUP2 DUP7 DUP1 EXTCODESIZE ISZERO DUP1 ISZERO PUSH2 0xA9D JUMPI PUSH1 0x0 DUP1 REVERT JUMPDEST POP GAS STATICCALL ISZERO DUP1 ISZERO PUSH2 0xAB1 JUMPI RETURNDATASIZE PUSH1 0x0 DUP1 RETURNDATACOPY RETURNDATASIZE PUSH1 0x0 REVERT JUMPDEST POP POP POP POP PUSH1 0x40 MLOAD RETURNDATASIZE PUSH1 0x1F NOT PUSH1 0x1F DUP3 ADD AND DUP3 ADD DUP1 PUSH1 0x40 MSTORE POP DUP2 ADD SWAP1 PUSH2 0xAD5 SWAP2 SWAP1 PUSH2 0x16F6 JUMP JUMPDEST SWAP1 POP PUSH1 0x0 PUSH2 0xAE4 PUSH1 0x1B DUP4 PUSH2 0x1F61 JUMP JUMPDEST SWAP1 POP PUSH2 0xAF1 DUP2 PUSH1 0x1B PUSH2 0x1F83 JUMP JUMPDEST PUSH2 0xAFB SWAP1 DUP4 PUSH2 0x1FA2 JUMP JUMPDEST SWAP2 POP PUSH1 0x0 PUSH2 0xB0A PUSH1 0x9 DUP5 PUSH2 0x1F61 JUMP JUMPDEST SWAP1 POP PUSH2 0xB17 DUP2 PUSH1 0x9 PUSH2 0x1F83 JUMP JUMPDEST PUSH2 0xB21 SWAP1 DUP5 PUSH2 0x1FA2 JUMP JUMPDEST SWAP3 POP PUSH1 0x0 PUSH2 0xB30 PUSH1 0x3 DUP6 PUSH2 0x1F61 JUMP JUMPDEST SWAP1 POP PUSH2 0xB3D DUP2 PUSH1 0x3 PUSH2 0x1F83 JUMP JUMPDEST PUSH2 0xB47 SWAP1 DUP6 PUSH2 0x1FA2 JUMP JUMPDEST PUSH1 0x1 SLOAD SWAP1 SWAP5 POP PUSH1 0x0 SWAP1 DUP6 SWAP1 PUSH1 0x1 PUSH1 0x1 PUSH1 0xA0 SHL SUB AND PUSH3 0xFDD58E CALLER PUSH2 0xB6B DUP11 PUSH1 0x4 PUSH2 0x1F83 JUMP JUMPDEST PUSH1 0x40 MLOAD DUP4 PUSH4 0xFFFFFFFF AND PUSH1 0xE0 SHL DUP2 MSTORE PUSH1 0x4 ADD PUSH2 0xB88 SWAP3 SWAP2 SWAP1 PUSH2 0x1E12 JUMP JUMPDEST PUSH1 0x20 PUSH1 0x40 MLOAD DUP1 DUP4 SUB DUP2 DUP7 DUP1 EXTCODESIZE ISZERO DUP1 ISZERO PUSH2 0xBA0 JUMPI PUSH1 0x0 DUP1 REVERT JUMPDEST POP GAS STATICCALL ISZERO DUP1 ISZERO PUSH2 0xBB4 JUMPI RETURNDATASIZE PUSH1 0x0 DUP1 RETURNDATACOPY RETURNDATASIZE PUSH1 0x0 REVERT JUMPDEST POP POP POP POP PUSH1 0x40 MLOAD RETURNDATASIZE PUSH1 0x1F NOT PUSH1 0x1F DUP3 ADD AND DUP3 ADD DUP1 PUSH1 0x40 MSTORE POP DUP2 ADD SWAP1 PUSH2 0xBD8 SWAP2 SWAP1 PUSH2 0x16F6 JUMP JUMPDEST PUSH2 0xBE2 SWAP2 SWAP1 PUSH2 0x1FA2 JUMP JUMPDEST PUSH1 0x1 SLOAD SWAP1 SWAP2 POP PUSH1 0x1 PUSH1 0x1 PUSH1 0xA0 SHL SUB AND PUSH3 0xFDD58E CALLER PUSH2 0xC01 DUP10 PUSH1 0x4 PUSH2 0x1F83 JUMP JUMPDEST PUSH2 0xC0C SWAP1 PUSH1 0x1 PUSH2 0x1F49 JUMP JUMPDEST PUSH1 0x40 MLOAD DUP4 PUSH4 0xFFFFFFFF AND PUSH1 0xE0 SHL DUP2 MSTORE PUSH1 0x4 ADD PUSH2 0xC29 SWAP3 SWAP2 SWAP1 PUSH2 0x1E12 JUMP JUMPDEST PUSH1 0x20 PUSH1 0x40 MLOAD DUP1 DUP4 SUB DUP2 DUP7 DUP1 EXTCODESIZE ISZERO DUP1 ISZERO PUSH2 0xC41 JUMPI PUSH1 0x0 DUP1 REVERT JUMPDEST POP GAS STATICCALL ISZERO DUP1 ISZERO PUSH2 0xC55 JUMPI RETURNDATASIZE PUSH1 0x0 DUP1 RETURNDATACOPY RETURNDATASIZE PUSH1 0x0 REVERT JUMPDEST POP POP POP POP PUSH1 0x40 MLOAD RETURNDATASIZE PUSH1 0x1F NOT PUSH1 0x1F DUP3 ADD AND DUP3 ADD DUP1 PUSH1 0x40 MSTORE POP DUP2 ADD SWAP1 PUSH2 0xC79 SWAP2 SWAP1 PUSH2 0x16F6 JUMP JUMPDEST PUSH2 0xC83 SWAP1 DUP4 PUSH2 0x1F49 JUMP JUMPDEST SWAP2 POP PUSH1 0x0 PUSH2 0xC92 PUSH1 0x9 DUP5 PUSH2 0x1F61 JUMP JUMPDEST SWAP1 POP PUSH2 0xC9E DUP2 DUP7 PUSH2 0x1F49 JUMP JUMPDEST SWAP5 POP PUSH2 0xCAB DUP2 PUSH1 0x9 PUSH2 0x1F83 JUMP JUMPDEST PUSH2 0xCB5 SWAP1 DUP5 PUSH2 0x1FA2 JUMP JUMPDEST SWAP3 POP PUSH1 0x0 PUSH2 0xCC4 PUSH1 0x3 DUP6 PUSH2 0x1F61 JUMP JUMPDEST SWAP1 POP PUSH2 0xCD0 DUP2 DUP7 PUSH2 0x1F49 JUMP JUMPDEST SWAP5 POP PUSH2 0xCDD DUP2 PUSH1 0x3 PUSH2 0x1F83 JUMP JUMPDEST PUSH2 0xCE7 SWAP1 DUP6 PUSH2 0x1FA2 JUMP JUMPDEST PUSH1 0x1 SLOAD SWAP1 SWAP5 POP PUSH1 0x0 SWAP1 DUP2 SWAP1 DUP7 SWAP1 PUSH1 0x1 PUSH1 0x1 PUSH1 0xA0 SHL SUB AND PUSH3 0xFDD58E CALLER PUSH2 0xD0D DUP15 PUSH1 0x4 PUSH2 0x1F83 JUMP JUMPDEST PUSH2 0xD18 SWAP1 PUSH1 0x1 PUSH2 0x1F49 JUMP JUMPDEST PUSH1 0x40 MLOAD DUP4 PUSH4 0xFFFFFFFF AND PUSH1 0xE0 SHL DUP2 MSTORE PUSH1 0x4 ADD PUSH2 0xD35 SWAP3 SWAP2 SWAP1 PUSH2 0x1E12 JUMP JUMPDEST PUSH1 0x20 PUSH1 0x40 MLOAD DUP1 DUP4 SUB DUP2 DUP7 DUP1 EXTCODESIZE ISZERO DUP1 ISZERO PUSH2 0xD4D JUMPI PUSH1 0x0 DUP1 REVERT JUMPDEST POP GAS STATICCALL ISZERO DUP1 ISZERO PUSH2 0xD61 JUMPI RETURNDATASIZE PUSH1 0x0 DUP1 RETURNDATACOPY RETURNDATASIZE PUSH1 0x0 REVERT JUMPDEST POP POP POP POP PUSH1 0x40 MLOAD RETURNDATASIZE PUSH1 0x1F NOT PUSH1 0x1F DUP3 ADD AND DUP3 ADD DUP1 PUSH1 0x40 MSTORE POP DUP2 ADD SWAP1 PUSH2 0xD85 SWAP2 SWAP1 PUSH2 0x16F6 JUMP JUMPDEST GT ISZERO PUSH2 0xE32 JUMPI PUSH1 0x1 SLOAD DUP7 SWAP1 PUSH1 0x1 PUSH1 0x1 PUSH1 0xA0 SHL SUB AND PUSH3 0xFDD58E CALLER PUSH2 0xDA9 DUP15 PUSH1 0x4 PUSH2 0x1F83 JUMP JUMPDEST PUSH2 0xDB4 SWAP1 PUSH1 0x1 PUSH2 0x1F49 JUMP JUMPDEST PUSH1 0x40 MLOAD DUP4 PUSH4 0xFFFFFFFF AND PUSH1 0xE0 SHL DUP2 MSTORE PUSH1 0x4 ADD PUSH2 0xDD1 SWAP3 SWAP2 SWAP1 PUSH2 0x1E12 JUMP JUMPDEST PUSH1 0x20 PUSH1 0x40 MLOAD DUP1 DUP4 SUB DUP2 DUP7 DUP1 EXTCODESIZE ISZERO DUP1 ISZERO PUSH2 0xDE9 JUMPI PUSH1 0x0 DUP1 REVERT JUMPDEST POP GAS STATICCALL ISZERO DUP1 ISZERO PUSH2 0xDFD JUMPI RETURNDATASIZE PUSH1 0x0 DUP1 RETURNDATACOPY RETURNDATASIZE PUSH1 0x0 REVERT JUMPDEST POP POP POP POP PUSH1 0x40 MLOAD RETURNDATASIZE PUSH1 0x1F NOT PUSH1 0x1F DUP3 ADD AND DUP3 ADD DUP1 PUSH1 0x40 MSTORE POP DUP2 ADD SWAP1 PUSH2 0xE21 SWAP2 SWAP1 PUSH2 0x16F6 JUMP JUMPDEST PUSH2 0xE2B SWAP2 SWAP1 PUSH2 0x1FA2 JUMP JUMPDEST SWAP2 POP PUSH2 0xED3 JUMP JUMPDEST PUSH1 0x1 SLOAD PUSH1 0x1 PUSH1 0x1 PUSH1 0xA0 SHL SUB AND PUSH3 0xFDD58E CALLER PUSH2 0xE4E DUP14 PUSH1 0x4 PUSH2 0x1F83 JUMP JUMPDEST PUSH2 0xE59 SWAP1 PUSH1 0x1 PUSH2 0x1F49 JUMP JUMPDEST PUSH1 0x40 MLOAD DUP4 PUSH4 0xFFFFFFFF AND PUSH1 0xE0 SHL DUP2 MSTORE PUSH1 0x4 ADD PUSH2 0xE76 SWAP3 SWAP2 SWAP1 PUSH2 0x1E12 JUMP JUMPDEST PUSH1 0x20 PUSH1 0x40 MLOAD DUP1 DUP4 SUB DUP2 DUP7 DUP1 EXTCODESIZE ISZERO DUP1 ISZERO PUSH2 0xE8E JUMPI PUSH1 0x0 DUP1 REVERT JUMPDEST POP GAS STATICCALL ISZERO DUP1 ISZERO PUSH2 0xEA2 JUMPI RETURNDATASIZE PUSH1 0x0 DUP1 RETURNDATACOPY RETURNDATASIZE PUSH1 0x0 REVERT JUMPDEST POP POP POP POP PUSH1 0x40 MLOAD RETURNDATASIZE PUSH1 0x1F NOT PUSH1 0x1F DUP3 ADD AND DUP3 ADD DUP1 PUSH1 0x40 MSTORE POP DUP2 ADD SWAP1 PUSH2 0xEC6 SWAP2 SWAP1 PUSH2 0x16F6 JUMP JUMPDEST PUSH2 0xED0 SWAP1 DUP8 PUSH2 0x1FA2 JUMP JUMPDEST SWAP1 POP JUMPDEST PUSH1 0x1 SLOAD PUSH1 0x1 PUSH1 0x1 PUSH1 0xA0 SHL SUB AND PUSH3 0xFDD58E CALLER PUSH2 0xEEF DUP14 PUSH1 0x4 PUSH2 0x1F83 JUMP JUMPDEST PUSH2 0xEFA SWAP1 PUSH1 0x2 PUSH2 0x1F49 JUMP JUMPDEST PUSH1 0x40 MLOAD DUP4 PUSH4 0xFFFFFFFF AND PUSH1 0xE0 SHL DUP2 MSTORE PUSH1 0x4 ADD PUSH2 0xF17 SWAP3 SWAP2 SWAP1 PUSH2 0x1E12 JUMP JUMPDEST PUSH1 0x20 PUSH1 0x40 MLOAD DUP1 DUP4 SUB DUP2 DUP7 DUP1 EXTCODESIZE ISZERO DUP1 ISZERO PUSH2 0xF2F JUMPI PUSH1 0x0 DUP1 REVERT JUMPDEST POP GAS STATICCALL ISZERO DUP1 ISZERO PUSH2 0xF43 JUMPI RETURNDATASIZE PUSH1 0x0 DUP1 RETURNDATACOPY RETURNDATASIZE PUSH1 0x0 REVERT JUMPDEST POP POP POP POP PUSH1 0x40 MLOAD RETURNDATASIZE PUSH1 0x1F NOT PUSH1 0x1F DUP3 ADD AND DUP3 ADD DUP1 PUSH1 0x40 MSTORE POP DUP2 ADD SWAP1 PUSH2 0xF67 SWAP2 SWAP1 PUSH2 0x16F6 JUMP JUMPDEST PUSH2 0xF71 SWAP1 DUP9 PUSH2 0x1F49 JUMP JUMPDEST SWAP7 POP PUSH2 0xF7E PUSH1 0x3 DUP9 PUSH2 0x1F61 JUMP JUMPDEST SWAP4 POP PUSH2 0xF8A DUP5 DUP10 PUSH2 0x1F49 JUMP JUMPDEST SWAP8 POP PUSH2 0xF97 DUP5 PUSH1 0x3 PUSH2 0x1F83 JUMP JUMPDEST PUSH2 0xFA1 SWAP1 DUP9 PUSH2 0x1FA2 JUMP JUMPDEST SWAP7 POP PUSH1 0x0 DUP1 DUP9 PUSH1 0x1 PUSH1 0x0 SWAP1 SLOAD SWAP1 PUSH2 0x100 EXP SWAP1 DIV PUSH1 0x1 PUSH1 0x1 PUSH1 0xA0 SHL SUB AND PUSH1 0x1 PUSH1 0x1 PUSH1 0xA0 SHL SUB AND PUSH3 0xFDD58E CALLER DUP16 PUSH1 0x4 PUSH2 0xFD8 SWAP2 SWAP1 PUSH2 0x1F83 JUMP JUMPDEST PUSH2 0xFE3 SWAP1 PUSH1 0x2 PUSH2 0x1F49 JUMP JUMPDEST PUSH1 0x40 MLOAD DUP4 PUSH4 0xFFFFFFFF AND PUSH1 0xE0 SHL DUP2 MSTORE PUSH1 0x4 ADD PUSH2 0x1000 SWAP3 SWAP2 SWAP1 PUSH2 0x1E12 JUMP JUMPDEST PUSH1 0x20 PUSH1 0x40 MLOAD DUP1 DUP4 SUB DUP2 DUP7 DUP1 EXTCODESIZE ISZERO DUP1 ISZERO PUSH2 0x1018 JUMPI PUSH1 0x0 DUP1 REVERT JUMPDEST POP GAS STATICCALL ISZERO DUP1 ISZERO PUSH2 0x102C JUMPI RETURNDATASIZE PUSH1 0x0 DUP1 RETURNDATACOPY RETURNDATASIZE PUSH1 0x0 REVERT JUMPDEST POP POP POP POP PUSH1 0x40 MLOAD RETURNDATASIZE PUSH1 0x1F NOT PUSH1 0x1F DUP3 ADD AND DUP3 ADD DUP1 PUSH1 0x40 MSTORE POP DUP2 ADD SWAP1 PUSH2 0x1050 SWAP2 SWAP1 PUSH2 0x16F6 JUMP JUMPDEST GT ISZERO PUSH2 0x1111 JUMPI DUP9 PUSH1 0x1 PUSH1 0x0 SWAP1 SLOAD SWAP1 PUSH2 0x100 EXP SWAP1 DIV PUSH1 0x1 PUSH1 0x1 PUSH1 0xA0 SHL SUB AND PUSH1 0x1 PUSH1 0x1 PUSH1 0xA0 SHL SUB AND PUSH3 0xFDD58E CALLER DUP16 PUSH1 0x4 PUSH2 0x1088 SWAP2 SWAP1 PUSH2 0x1F83 JUMP JUMPDEST PUSH2 0x1093 SWAP1 PUSH1 0x2 PUSH2 0x1F49 JUMP JUMPDEST PUSH1 0x40 MLOAD DUP4 PUSH4 0xFFFFFFFF AND PUSH1 0xE0 SHL DUP2 MSTORE PUSH1 0x4 ADD PUSH2 0x10B0 SWAP3 SWAP2 SWAP1 PUSH2 0x1E12 JUMP JUMPDEST PUSH1 0x20 PUSH1 0x40 MLOAD DUP1 DUP4 SUB DUP2 DUP7 DUP1 EXTCODESIZE ISZERO DUP1 ISZERO PUSH2 0x10C8 JUMPI PUSH1 0x0 DUP1 REVERT JUMPDEST POP GAS STATICCALL ISZERO DUP1 ISZERO PUSH2 0x10DC JUMPI RETURNDATASIZE PUSH1 0x0 DUP1 RETURNDATACOPY RETURNDATASIZE PUSH1 0x0 REVERT JUMPDEST POP POP POP POP PUSH1 0x40 MLOAD RETURNDATASIZE PUSH1 0x1F NOT PUSH1 0x1F DUP3 ADD AND DUP3 ADD DUP1 PUSH1 0x40 MSTORE POP DUP2 ADD SWAP1 PUSH2 0x1100 SWAP2 SWAP1 PUSH2 0x16F6 JUMP JUMPDEST PUSH2 0x110A SWAP2 SWAP1 PUSH2 0x1FA2 JUMP JUMPDEST SWAP2 POP PUSH2 0x11B2 JUMP JUMPDEST PUSH1 0x1 SLOAD PUSH1 0x1 PUSH1 0x1 PUSH1 0xA0 SHL SUB AND PUSH3 0xFDD58E CALLER PUSH2 0x112D DUP16 PUSH1 0x4 PUSH2 0x1F83 JUMP JUMPDEST PUSH2 0x1138 SWAP1 PUSH1 0x2 PUSH2 0x1F49 JUMP JUMPDEST PUSH1 0x40 MLOAD DUP4 PUSH4 0xFFFFFFFF AND PUSH1 0xE0 SHL DUP2 MSTORE PUSH1 0x4 ADD PUSH2 0x1155 SWAP3 SWAP2 SWAP1 PUSH2 0x1E12 JUMP JUMPDEST PUSH1 0x20 PUSH1 0x40 MLOAD DUP1 DUP4 SUB DUP2 DUP7 DUP1 EXTCODESIZE ISZERO DUP1 ISZERO PUSH2 0x116D JUMPI PUSH1 0x0 DUP1 REVERT JUMPDEST POP GAS STATICCALL ISZERO DUP1 ISZERO PUSH2 0x1181 JUMPI RETURNDATASIZE PUSH1 0x0 DUP1 RETURNDATACOPY RETURNDATASIZE PUSH1 0x0 REVERT JUMPDEST POP POP POP POP PUSH1 0x40 MLOAD RETURNDATASIZE PUSH1 0x1F NOT PUSH1 0x1F DUP3 ADD AND DUP3 ADD DUP1 PUSH1 0x40 MSTORE POP DUP2 ADD SWAP1 PUSH2 0x11A5 SWAP2 SWAP1 PUSH2 0x16F6 JUMP JUMPDEST PUSH2 0x11AF SWAP1 DUP11 PUSH2 0x1FA2 JUMP JUMPDEST SWAP1 POP JUMPDEST DUP7 ISZERO PUSH2 0x1227 JUMPI PUSH1 0x1 SLOAD PUSH1 0x1 PUSH1 0x1 PUSH1 0xA0 SHL SUB AND PUSH4 0x995C9D77 PUSH2 0x11D4 DUP15 PUSH1 0x4 PUSH2 0x1F83 JUMP JUMPDEST CALLER DUP11 PUSH1 0x40 MLOAD DUP5 PUSH4 0xFFFFFFFF AND PUSH1 0xE0 SHL DUP2 MSTORE PUSH1 0x4 ADD PUSH2 0x11F4 SWAP4 SWAP3 SWAP2 SWAP1 PUSH2 0x1F2A JUMP JUMPDEST PUSH1 0x0 PUSH1 0x40 MLOAD DUP1 DUP4 SUB DUP2 PUSH1 0x0 DUP8 DUP1 EXTCODESIZE ISZERO DUP1 ISZERO PUSH2 0x120E JUMPI PUSH1 0x0 DUP1 REVERT JUMPDEST POP GAS CALL ISZERO DUP1 ISZERO PUSH2 0x1222 JUMPI RETURNDATASIZE PUSH1 0x0 DUP1 RETURNDATACOPY RETURNDATASIZE PUSH1 0x0 REVERT JUMPDEST POP POP POP POP JUMPDEST DUP4 ISZERO PUSH2 0x12A7 JUMPI PUSH1 0x1 SLOAD PUSH1 0x1 PUSH1 0x1 PUSH1 0xA0 SHL SUB AND PUSH4 0x995C9D77 PUSH2 0x1249 DUP15 PUSH1 0x4 PUSH2 0x1F83 JUMP JUMPDEST PUSH2 0x1254 SWAP1 PUSH1 0x1 PUSH2 0x1F49 JUMP JUMPDEST CALLER DUP8 PUSH1 0x40 MLOAD DUP5 PUSH4 0xFFFFFFFF AND PUSH1 0xE0 SHL DUP2 MSTORE PUSH1 0x4 ADD PUSH2 0x1274 SWAP4 SWAP3 SWAP2 SWAP1 PUSH2 0x1F2A JUMP JUMPDEST PUSH1 0x0 PUSH1 0x40 MLOAD DUP1 DUP4 SUB DUP2 PUSH1 0x0 DUP8 DUP1 EXTCODESIZE ISZERO DUP1 ISZERO PUSH2 0x128E JUMPI PUSH1 0x0 DUP1 REVERT JUMPDEST POP GAS CALL ISZERO DUP1 ISZERO PUSH2 0x12A2 JUMPI RETURNDATASIZE PUSH1 0x0 DUP1 RETURNDATACOPY RETURNDATASIZE PUSH1 0x0 REVERT JUMPDEST POP POP POP POP JUMPDEST DUP2 ISZERO PUSH2 0x1327 JUMPI PUSH1 0x1 SLOAD PUSH1 0x1 PUSH1 0x1 PUSH1 0xA0 SHL SUB AND PUSH4 0x995C9D77 PUSH2 0x12C9 DUP15 PUSH1 0x4 PUSH2 0x1F83 JUMP JUMPDEST PUSH2 0x12D4 SWAP1 PUSH1 0x2 PUSH2 0x1F49 JUMP JUMPDEST CALLER DUP6 PUSH1 0x40 MLOAD DUP5 PUSH4 0xFFFFFFFF AND PUSH1 0xE0 SHL DUP2 MSTORE PUSH1 0x4 ADD PUSH2 0x12F4 SWAP4 SWAP3 SWAP2 SWAP1 PUSH2 0x1F2A JUMP JUMPDEST PUSH1 0x0 PUSH1 0x40 MLOAD DUP1 DUP4 SUB DUP2 PUSH1 0x0 DUP8 DUP1 EXTCODESIZE ISZERO DUP1 ISZERO PUSH2 0x130E JUMPI PUSH1 0x0 DUP1 REVERT JUMPDEST POP GAS CALL ISZERO DUP1 ISZERO PUSH2 0x1322 JUMPI RETURNDATASIZE PUSH1 0x0 DUP1 RETURNDATACOPY RETURNDATASIZE PUSH1 0x0 REVERT JUMPDEST POP POP POP POP JUMPDEST DUP3 ISZERO PUSH2 0x13A7 JUMPI PUSH1 0x1 SLOAD PUSH1 0x1 PUSH1 0x1 PUSH1 0xA0 SHL SUB AND PUSH4 0x3FEB9F7D PUSH2 0x1349 DUP15 PUSH1 0x4 PUSH2 0x1F83 JUMP JUMPDEST PUSH2 0x1354 SWAP1 PUSH1 0x1 PUSH2 0x1F49 JUMP JUMPDEST CALLER DUP7 PUSH1 0x40 MLOAD DUP5 PUSH4 0xFFFFFFFF AND PUSH1 0xE0 SHL DUP2 MSTORE PUSH1 0x4 ADD PUSH2 0x1374 SWAP4 SWAP3 SWAP2 SWAP1 PUSH2 0x1F2A JUMP JUMPDEST PUSH1 0x0 PUSH1 0x40 MLOAD DUP1 DUP4 SUB DUP2 PUSH1 0x0 DUP8 DUP1 EXTCODESIZE ISZERO DUP1 ISZERO PUSH2 0x138E JUMPI PUSH1 0x0 DUP1 REVERT JUMPDEST POP GAS CALL ISZERO DUP1 ISZERO PUSH2 0x13A2 JUMPI RETURNDATASIZE PUSH1 0x0 DUP1 RETURNDATACOPY RETURNDATASIZE PUSH1 0x0 REVERT JUMPDEST POP POP POP POP JUMPDEST DUP1 ISZERO PUSH2 0x1427 JUMPI PUSH1 0x1 SLOAD PUSH1 0x1 PUSH1 0x1 PUSH1 0xA0 SHL SUB AND PUSH4 0x3FEB9F7D PUSH2 0x13C9 DUP15 PUSH1 0x4 PUSH2 0x1F83 JUMP JUMPDEST PUSH2 0x13D4 SWAP1 PUSH1 0x2 PUSH2 0x1F49 JUMP JUMPDEST CALLER DUP5 PUSH1 0x40 MLOAD DUP5 PUSH4 0xFFFFFFFF AND PUSH1 0xE0 SHL DUP2 MSTORE PUSH1 0x4 ADD PUSH2 0x13F4 SWAP4 SWAP3 SWAP2 SWAP1 PUSH2 0x1F2A JUMP JUMPDEST PUSH1 0x0 PUSH1 0x40 MLOAD DUP1 DUP4 SUB DUP2 PUSH1 0x0 DUP8 DUP1 EXTCODESIZE ISZERO DUP1 ISZERO PUSH2 0x140E JUMPI PUSH1 0x0 DUP1 REVERT JUMPDEST POP GAS CALL ISZERO DUP1 ISZERO PUSH2 0x1422 JUMPI RETURNDATASIZE PUSH1 0x0 DUP1 RETURNDATACOPY RETURNDATASIZE PUSH1 0x0 REVERT JUMPDEST POP POP POP POP JUMPDEST DUP10 ISZERO PUSH2 0x14A7 JUMPI PUSH1 0x1 SLOAD PUSH1 0x1 PUSH1 0x1 PUSH1 0xA0 SHL SUB AND PUSH4 0x3FEB9F7D PUSH2 0x1449 DUP15 PUSH1 0x4 PUSH2 0x1F83 JUMP JUMPDEST PUSH2 0x1454 SWAP1 PUSH1 0x3 PUSH2 0x1F49 JUMP JUMPDEST CALLER DUP14 PUSH1 0x40 MLOAD DUP5 PUSH4 0xFFFFFFFF AND PUSH1 0xE0 SHL DUP2 MSTORE PUSH1 0x4 ADD PUSH2 0x1474 SWAP4 SWAP3 SWAP2 SWAP1 PUSH2 0x1F2A JUMP JUMPDEST PUSH1 0x0 PUSH1 0x40 MLOAD DUP1 DUP4 SUB DUP2 PUSH1 0x0 DUP8 DUP1 EXTCODESIZE ISZERO DUP1 ISZERO PUSH2 0x148E JUMPI PUSH1 0x0 DUP1 REVERT JUMPDEST POP GAS CALL ISZERO DUP1 ISZERO PUSH2 0x14A2 JUMPI RETURNDATASIZE PUSH1 0x0 DUP1 RETURNDATACOPY RETURNDATASIZE PUSH1 0x0 REVERT JUMPDEST POP POP POP POP JUMPDEST POP POP POP POP POP POP POP POP POP POP POP DUP1 DUP1 PUSH2 0x14BD SWAP1 PUSH2 0x1FB9 JUMP JUMPDEST SWAP2 POP POP PUSH2 0xA40 JUMP JUMPDEST POP JUMP JUMPDEST PUSH1 0x4 SLOAD PUSH1 0x60 SWAP1 PUSH1 0x1 PUSH1 0x1 PUSH1 0xA0 SHL SUB AND CALLER EQ PUSH2 0x14E2 JUMPI PUSH1 0x0 DUP1 REVERT JUMPDEST PUSH1 0x1 PUSH1 0x0 SWAP1 SLOAD SWAP1 PUSH2 0x100 EXP SWAP1 DIV PUSH1 0x1 PUSH1 0x1 PUSH1 0xA0 SHL SUB AND PUSH1 0x1 PUSH1 0x1 PUSH1 0xA0 SHL SUB AND PUSH4 0xA39FAC12 PUSH1 0x40 MLOAD DUP2 PUSH4 0xFFFFFFFF AND PUSH1 0xE0 SHL DUP2 MSTORE PUSH1 0x4 ADD PUSH1 0x0 PUSH1 0x40 MLOAD DUP1 DUP4 SUB DUP2 DUP7 DUP1 EXTCODESIZE ISZERO DUP1 ISZERO PUSH2 0x1530 JUMPI PUSH1 0x0 DUP1 REVERT JUMPDEST POP GAS STATICCALL ISZERO DUP1 ISZERO PUSH2 0x1544 JUMPI RETURNDATASIZE PUSH1 0x0 DUP1 RETURNDATACOPY RETURNDATASIZE PUSH1 0x0 REVERT JUMPDEST POP POP POP POP PUSH1 0x40 MLOAD RETURNDATASIZE PUSH1 0x0 DUP3 RETURNDATACOPY PUSH1 0x1F RETURNDATASIZE SWAP1 DUP2 ADD PUSH1 0x1F NOT AND DUP3 ADD PUSH1 0x40 MSTORE PUSH2 0x156C SWAP2 SWAP1 DUP2 ADD SWAP1 PUSH2 0x1608 JUMP JUMPDEST SWAP1 POP SWAP1 JUMP JUMPDEST PUSH1 0x4 SLOAD PUSH1 0x1 PUSH1 0x1 PUSH1 0xA0 SHL SUB AND CALLER EQ PUSH2 0x1588 JUMPI PUSH1 0x0 DUP1 REVERT JUMPDEST PUSH1 0x4 DUP1 SLOAD PUSH1 0x1 PUSH1 0x1 PUSH1 0xA0 SHL SUB NOT AND PUSH1 0x1 PUSH1 0x1 PUSH1 0xA0 SHL SUB SWAP3 SWAP1 SWAP3 AND SWAP2 SWAP1 SWAP2 OR SWAP1 SSTORE JUMP JUMPDEST PUSH1 0x4 SLOAD PUSH1 0x1 PUSH1 0x1 PUSH1 0xA0 SHL SUB AND CALLER EQ PUSH2 0x15C1 JUMPI PUSH1 0x0 DUP1 REVERT JUMPDEST PUSH1 0x0 DUP1 SLOAD PUSH1 0xFF NOT AND SWAP2 ISZERO ISZERO SWAP2 SWAP1 SWAP2 OR SWAP1 SSTORE JUMP JUMPDEST DUP1 MLOAD PUSH2 0x15DF DUP2 PUSH2 0x2016 JUMP JUMPDEST SWAP2 SWAP1 POP JUMP JUMPDEST PUSH1 0x0 PUSH1 0x20 DUP3 DUP5 SUB SLT ISZERO PUSH2 0x15F6 JUMPI PUSH1 0x0 DUP1 REVERT JUMPDEST DUP2 CALLDATALOAD PUSH2 0x1601 DUP2 PUSH2 0x2016 JUMP JUMPDEST SWAP4 SWAP3 POP POP POP JUMP JUMPDEST PUSH1 0x0 PUSH1 0x20 DUP1 DUP4 DUP6 SUB SLT ISZERO PUSH2 0x161B JUMPI PUSH1 0x0 DUP1 REVERT JUMPDEST DUP3 MLOAD PUSH8 0xFFFFFFFFFFFFFFFF DUP1 DUP3 GT ISZERO PUSH2 0x1633 JUMPI PUSH1 0x0 DUP1 REVERT JUMPDEST DUP2 DUP6 ADD SWAP2 POP DUP6 PUSH1 0x1F DUP4 ADD SLT PUSH2 0x1647 JUMPI PUSH1 0x0 DUP1 REVERT JUMPDEST DUP2 MLOAD DUP2 DUP2 GT ISZERO PUSH2 0x1659 JUMPI PUSH2 0x1659 PUSH2 0x2000 JUMP JUMPDEST DUP1 PUSH1 0x5 SHL PUSH1 0x40 MLOAD PUSH1 0x1F NOT PUSH1 0x3F DUP4 ADD AND DUP2 ADD DUP2 DUP2 LT DUP6 DUP3 GT OR ISZERO PUSH2 0x167E JUMPI PUSH2 0x167E PUSH2 0x2000 JUMP JUMPDEST PUSH1 0x40 MSTORE DUP3 DUP2 MSTORE DUP6 DUP2 ADD SWAP4 POP DUP5 DUP7 ADD DUP3 DUP7 ADD DUP8 ADD DUP11 LT ISZERO PUSH2 0x169D JUMPI PUSH1 0x0 DUP1 REVERT JUMPDEST PUSH1 0x0 SWAP6 POP JUMPDEST DUP4 DUP7 LT ISZERO PUSH2 0x16C7 JUMPI PUSH2 0x16B3 DUP2 PUSH2 0x15D4 JUMP JUMPDEST DUP6 MSTORE PUSH1 0x1 SWAP6 SWAP1 SWAP6 ADD SWAP5 SWAP4 DUP7 ADD SWAP4 DUP7 ADD PUSH2 0x16A2 JUMP JUMPDEST POP SWAP9 SWAP8 POP POP POP POP POP POP POP POP JUMP JUMPDEST PUSH1 0x0 PUSH1 0x20 DUP3 DUP5 SUB SLT ISZERO PUSH2 0x16E6 JUMPI PUSH1 0x0 DUP1 REVERT JUMPDEST DUP2 CALLDATALOAD DUP1 ISZERO ISZERO DUP2 EQ PUSH2 0x1601 JUMPI PUSH1 0x0 DUP1 REVERT JUMPDEST PUSH1 0x0 PUSH1 0x20 DUP3 DUP5 SUB SLT ISZERO PUSH2 0x1708 JUMPI PUSH1 0x0 DUP1 REVERT JUMPDEST POP MLOAD SWAP2 SWAP1 POP JUMP JUMPDEST DUP1 SLOAD DUP1 DUP4 MSTORE PUSH1 0x0 DUP3 DUP2 MSTORE PUSH1 0x20 DUP1 DUP3 KECCAK256 SWAP5 ADD SWAP4 SWAP1 SWAP2 SWAP1 DUP3 JUMPDEST DUP3 PUSH1 0x1F DUP3 ADD LT ISZERO PUSH2 0x1996 JUMPI DUP2 SLOAD PUSH1 0xFF DUP1 DUP3 AND ISZERO ISZERO DUP9 MSTORE PUSH1 0x20 PUSH2 0x1750 DUP2 DUP11 ADD DUP4 DUP6 PUSH1 0x8 SHR AND ISZERO ISZERO SWAP1 MSTORE JUMP JUMPDEST PUSH1 0x40 PUSH2 0x1764 DUP2 DUP12 ADD DUP5 DUP7 PUSH1 0x10 SHR AND ISZERO ISZERO SWAP1 MSTORE JUMP JUMPDEST PUSH1 0x60 PUSH2 0x1778 DUP2 DUP13 ADD DUP6 DUP8 PUSH1 0x18 SHR AND ISZERO ISZERO SWAP1 MSTORE JUMP JUMPDEST PUSH1 0x80 PUSH2 0x178B DUP2 DUP14 ADD DUP7 DUP9 DUP8 SHR AND ISZERO ISZERO SWAP1 MSTORE JUMP JUMPDEST PUSH1 0xA0 SWAP4 POP PUSH2 0x17A1 DUP5 DUP14 ADD DUP7 DUP9 PUSH1 0x28 SHR AND ISZERO ISZERO SWAP1 MSTORE JUMP JUMPDEST PUSH1 0xC0 PUSH2 0x17B5 DUP2 DUP15 ADD DUP8 DUP10 PUSH1 0x30 SHR AND ISZERO ISZERO SWAP1 MSTORE JUMP JUMPDEST PUSH1 0xE0 PUSH2 0x17C9 DUP2 DUP16 ADD DUP9 DUP11 PUSH1 0x38 SHR AND ISZERO ISZERO SWAP1 MSTORE JUMP JUMPDEST DUP8 DUP6 SHR DUP8 AND ISZERO ISZERO PUSH2 0x100 DUP16 ADD MSTORE PUSH2 0x17EA PUSH2 0x120 DUP16 ADD DUP9 DUP11 PUSH1 0x48 SHR AND ISZERO ISZERO SWAP1 MSTORE JUMP JUMPDEST PUSH2 0x17FE PUSH2 0x140 DUP16 ADD DUP9 DUP11 PUSH1 0x50 SHR AND ISZERO ISZERO SWAP1 MSTORE JUMP JUMPDEST PUSH2 0x1812 PUSH2 0x160 DUP16 ADD DUP9 DUP11 PUSH1 0x58 SHR AND ISZERO ISZERO SWAP1 MSTORE JUMP JUMPDEST DUP8 DUP5 SHR DUP8 AND ISZERO ISZERO PUSH2 0x180 DUP16 ADD MSTORE PUSH2 0x1833 PUSH2 0x1A0 DUP16 ADD DUP9 DUP11 PUSH1 0x68 SHR AND ISZERO ISZERO SWAP1 MSTORE JUMP JUMPDEST PUSH2 0x1847 PUSH2 0x1C0 DUP16 ADD DUP9 DUP11 PUSH1 0x70 SHR AND ISZERO ISZERO SWAP1 MSTORE JUMP JUMPDEST PUSH2 0x185B PUSH2 0x1E0 DUP16 ADD DUP9 DUP11 PUSH1 0x78 SHR AND ISZERO ISZERO SWAP1 MSTORE JUMP JUMPDEST DUP8 DUP4 SHR DUP8 AND ISZERO ISZERO PUSH2 0x200 DUP16 ADD MSTORE PUSH2 0x187C PUSH2 0x220 DUP16 ADD DUP9 DUP11 PUSH1 0x88 SHR AND ISZERO ISZERO SWAP1 MSTORE JUMP JUMPDEST PUSH2 0x1890 PUSH2 0x240 DUP16 ADD DUP9 DUP11 PUSH1 0x90 SHR AND ISZERO ISZERO SWAP1 MSTORE JUMP JUMPDEST PUSH2 0x18A4 PUSH2 0x260 DUP16 ADD DUP9 DUP11 PUSH1 0x98 SHR AND ISZERO ISZERO SWAP1 MSTORE JUMP JUMPDEST DUP8 DUP7 SHR DUP8 AND ISZERO ISZERO PUSH2 0x280 DUP16 ADD MSTORE PUSH2 0x18C5 PUSH2 0x2A0 DUP16 ADD DUP9 DUP11 PUSH1 0xA8 SHR AND ISZERO ISZERO SWAP1 MSTORE JUMP JUMPDEST PUSH2 0x18D9 PUSH2 0x2C0 DUP16 ADD DUP9 DUP11 PUSH1 0xB0 SHR AND ISZERO ISZERO SWAP1 MSTORE JUMP JUMPDEST PUSH2 0x18ED PUSH2 0x2E0 DUP16 ADD DUP9 DUP11 PUSH1 0xB8 SHR AND ISZERO ISZERO SWAP1 MSTORE JUMP JUMPDEST DUP8 DUP3 SHR DUP8 AND ISZERO ISZERO PUSH2 0x300 DUP16 ADD MSTORE PUSH2 0x190E PUSH2 0x320 DUP16 ADD DUP9 DUP11 PUSH1 0xC8 SHR AND ISZERO ISZERO SWAP1 MSTORE JUMP JUMPDEST PUSH2 0x1922 PUSH2 0x340 DUP16 ADD DUP9 DUP11 PUSH1 0xD0 SHR AND ISZERO ISZERO SWAP1 MSTORE JUMP JUMPDEST PUSH2 0x1936 PUSH2 0x360 DUP16 ADD DUP9 DUP11 PUSH1 0xD8 SHR AND ISZERO ISZERO SWAP1 MSTORE JUMP JUMPDEST DUP8 SWAP1 SHR DUP7 AND ISZERO ISZERO PUSH2 0x380 DUP15 ADD MSTORE POP POP POP POP POP PUSH1 0xE8 DUP3 SWAP1 SHR DUP2 AND ISZERO ISZERO PUSH2 0x3A0 DUP10 ADD MSTORE PUSH2 0x196B PUSH2 0x3C0 DUP10 ADD DUP3 DUP5 PUSH1 0xF0 SHR AND ISZERO ISZERO SWAP1 MSTORE JUMP JUMPDEST POP PUSH2 0x197E PUSH2 0x3E0 DUP9 ADD DUP3 PUSH1 0xF8 SHR ISZERO ISZERO SWAP1 MSTORE JUMP JUMPDEST POP PUSH2 0x400 SWAP6 SWAP1 SWAP6 ADD SWAP5 PUSH1 0x1 SWAP2 SWAP1 SWAP2 ADD SWAP1 PUSH1 0x20 ADD PUSH2 0x1726 JUMP JUMPDEST SWAP1 SLOAD SWAP1 DUP3 DUP2 LT ISZERO PUSH2 0x19B3 JUMPI PUSH1 0xFF DUP3 AND ISZERO ISZERO DUP7 MSTORE PUSH1 0x20 SWAP1 SWAP6 ADD SWAP5 PUSH1 0x1 ADD JUMPDEST DUP3 DUP2 LT ISZERO PUSH2 0x19D7 JUMPI PUSH2 0x19CC DUP7 PUSH1 0xFF DUP5 PUSH1 0x8 SHR AND ISZERO ISZERO SWAP1 MSTORE JUMP JUMPDEST PUSH1 0x20 SWAP6 SWAP1 SWAP6 ADD SWAP5 PUSH1 0x1 ADD JUMPDEST DUP3 DUP2 LT ISZERO PUSH2 0x19FB JUMPI PUSH2 0x19F0 DUP7 PUSH1 0xFF DUP5 PUSH1 0x10 SHR AND ISZERO ISZERO SWAP1 MSTORE JUMP JUMPDEST PUSH1 0x20 SWAP6 SWAP1 SWAP6 ADD SWAP5 PUSH1 0x1 ADD JUMPDEST DUP3 DUP2 LT ISZERO PUSH2 0x1A1F JUMPI PUSH2 0x1A14 DUP7 PUSH1 0xFF DUP5 PUSH1 0x18 SHR AND ISZERO ISZERO SWAP1 MSTORE JUMP JUMPDEST PUSH1 0x20 SWAP6 SWAP1 SWAP6 ADD SWAP5 PUSH1 0x1 ADD JUMPDEST DUP3 DUP2 LT ISZERO PUSH2 0x1A43 JUMPI PUSH2 0x1A38 DUP7 PUSH1 0xFF DUP5 PUSH1 0x20 SHR AND ISZERO ISZERO SWAP1 MSTORE JUMP JUMPDEST PUSH1 0x20 SWAP6 SWAP1 SWAP6 ADD SWAP5 PUSH1 0x1 ADD JUMPDEST DUP3 DUP2 LT ISZERO PUSH2 0x1A67 JUMPI PUSH2 0x1A5C DUP7 PUSH1 0xFF DUP5 PUSH1 0x28 SHR AND ISZERO ISZERO SWAP1 MSTORE JUMP JUMPDEST PUSH1 0x20 SWAP6 SWAP1 SWAP6 ADD SWAP5 PUSH1 0x1 ADD JUMPDEST DUP3 DUP2 LT ISZERO PUSH2 0x1A8B JUMPI PUSH2 0x1A80 DUP7 PUSH1 0xFF DUP5 PUSH1 0x30 SHR AND ISZERO ISZERO SWAP1 MSTORE JUMP JUMPDEST PUSH1 0x20 SWAP6 SWAP1 SWAP6 ADD SWAP5 PUSH1 0x1 ADD JUMPDEST DUP3 DUP2 LT ISZERO PUSH2 0x1AAF JUMPI PUSH2 0x1AA4 DUP7 PUSH1 0xFF DUP5 PUSH1 0x38 SHR AND ISZERO ISZERO SWAP1 MSTORE JUMP JUMPDEST PUSH1 0x20 SWAP6 SWAP1 SWAP6 ADD SWAP5 PUSH1 0x1 ADD JUMPDEST DUP3 DUP2 LT ISZERO PUSH2 0x1AD3 JUMPI PUSH2 0x1AC8 DUP7 PUSH1 0xFF DUP5 PUSH1 0x40 SHR AND ISZERO ISZERO SWAP1 MSTORE JUMP JUMPDEST PUSH1 0x20 SWAP6 SWAP1 SWAP6 ADD SWAP5 PUSH1 0x1 ADD JUMPDEST DUP3 DUP2 LT ISZERO PUSH2 0x1AF7 JUMPI PUSH2 0x1AEC DUP7 PUSH1 0xFF DUP5 PUSH1 0x48 SHR AND ISZERO ISZERO SWAP1 MSTORE JUMP JUMPDEST PUSH1 0x20 SWAP6 SWAP1 SWAP6 ADD SWAP5 PUSH1 0x1 ADD JUMPDEST DUP3 DUP2 LT ISZERO PUSH2 0x1B1B JUMPI PUSH2 0x1B10 DUP7 PUSH1 0xFF DUP5 PUSH1 0x50 SHR AND ISZERO ISZERO SWAP1 MSTORE JUMP JUMPDEST PUSH1 0x20 SWAP6 SWAP1 SWAP6 ADD SWAP5 PUSH1 0x1 ADD JUMPDEST DUP3 DUP2 LT ISZERO PUSH2 0x1B3F JUMPI PUSH2 0x1B34 DUP7 PUSH1 0xFF DUP5 PUSH1 0x58 SHR AND ISZERO ISZERO SWAP1 MSTORE JUMP JUMPDEST PUSH1 0x20 SWAP6 SWAP1 SWAP6 ADD SWAP5 PUSH1 0x1 ADD JUMPDEST DUP3 DUP2 LT ISZERO PUSH2 0x1B63 JUMPI PUSH2 0x1B58 DUP7 PUSH1 0xFF DUP5 PUSH1 0x60 SHR AND ISZERO ISZERO SWAP1 MSTORE JUMP JUMPDEST PUSH1 0x20 SWAP6 SWAP1 SWAP6 ADD SWAP5 PUSH1 0x1 ADD JUMPDEST DUP3 DUP2 LT ISZERO PUSH2 0x1B87 JUMPI PUSH2 0x1B7C DUP7 PUSH1 0xFF DUP5 PUSH1 0x68 SHR AND ISZERO ISZERO SWAP1 MSTORE JUMP JUMPDEST PUSH1 0x20 SWAP6 SWAP1 SWAP6 ADD SWAP5 PUSH1 0x1 ADD JUMPDEST DUP3 DUP2 LT ISZERO PUSH2 0x1BAB JUMPI PUSH2 0x1BA0 DUP7 PUSH1 0xFF DUP5 PUSH1 0x70 SHR AND ISZERO ISZERO SWAP1 MSTORE JUMP JUMPDEST PUSH1 0x20 SWAP6 SWAP1 SWAP6 ADD SWAP5 PUSH1 0x1 ADD JUMPDEST DUP3 DUP2 LT ISZERO PUSH2 0x1BCF JUMPI PUSH2 0x1BC4 DUP7 PUSH1 0xFF DUP5 PUSH1 0x78 SHR AND ISZERO ISZERO SWAP1 MSTORE JUMP JUMPDEST PUSH1 0x20 SWAP6 SWAP1 SWAP6 ADD SWAP5 PUSH1 0x1 ADD JUMPDEST DUP3 DUP2 LT ISZERO PUSH2 0x1BF3 JUMPI PUSH2 0x1BE8 DUP7 PUSH1 0xFF DUP5 PUSH1 0x80 SHR AND ISZERO ISZERO SWAP1 MSTORE JUMP JUMPDEST PUSH1 0x20 SWAP6 SWAP1 SWAP6 ADD SWAP5 PUSH1 0x1 ADD JUMPDEST DUP3 DUP2 LT ISZERO PUSH2 0x1C17 JUMPI PUSH2 0x1C0C DUP7 PUSH1 0xFF DUP5 PUSH1 0x88 SHR AND ISZERO ISZERO SWAP1 MSTORE JUMP JUMPDEST PUSH1 0x20 SWAP6 SWAP1 SWAP6 ADD SWAP5 PUSH1 0x1 ADD JUMPDEST DUP3 DUP2 LT ISZERO PUSH2 0x1C3B JUMPI PUSH2 0x1C30 DUP7 PUSH1 0xFF DUP5 PUSH1 0x90 SHR AND ISZERO ISZERO SWAP1 MSTORE JUMP JUMPDEST PUSH1 0x20 SWAP6 SWAP1 SWAP6 ADD SWAP5 PUSH1 0x1 ADD JUMPDEST DUP3 DUP2 LT ISZERO PUSH2 0x1C5F JUMPI PUSH2 0x1C54 DUP7 PUSH1 0xFF DUP5 PUSH1 0x98 SHR AND ISZERO ISZERO SWAP1 MSTORE JUMP JUMPDEST PUSH1 0x20 SWAP6 SWAP1 SWAP6 ADD SWAP5 PUSH1 0x1 ADD JUMPDEST DUP3 DUP2 LT ISZERO PUSH2 0x1C83 JUMPI PUSH2 0x1C78 DUP7 PUSH1 0xFF DUP5 PUSH1 0xA0 SHR AND ISZERO ISZERO SWAP1 MSTORE JUMP JUMPDEST PUSH1 0x20 SWAP6 SWAP1 SWAP6 ADD SWAP5 PUSH1 0x1 ADD JUMPDEST DUP3 DUP2 LT ISZERO PUSH2 0x1CA7 JUMPI PUSH2 0x1C9C DUP7 PUSH1 0xFF DUP5 PUSH1 0xA8 SHR AND ISZERO ISZERO SWAP1 MSTORE JUMP JUMPDEST PUSH1 0x20 SWAP6 SWAP1 SWAP6 ADD SWAP5 PUSH1 0x1 ADD JUMPDEST DUP3 DUP2 LT ISZERO PUSH2 0x1CCB JUMPI PUSH2 0x1CC0 DUP7 PUSH1 0xFF DUP5 PUSH1 0xB0 SHR AND ISZERO ISZERO SWAP1 MSTORE JUMP JUMPDEST PUSH1 0x20 SWAP6 SWAP1 SWAP6 ADD SWAP5 PUSH1 0x1 ADD JUMPDEST DUP3 DUP2 LT ISZERO PUSH2 0x1CEF JUMPI PUSH2 0x1CE4 DUP7 PUSH1 0xFF DUP5 PUSH1 0xB8 SHR AND ISZERO ISZERO SWAP1 MSTORE JUMP JUMPDEST PUSH1 0x20 SWAP6 SWAP1 SWAP6 ADD SWAP5 PUSH1 0x1 ADD JUMPDEST DUP3 DUP2 LT ISZERO PUSH2 0x1D13 JUMPI PUSH2 0x1D08 DUP7 PUSH1 0xFF DUP5 PUSH1 0xC0 SHR AND ISZERO ISZERO SWAP1 MSTORE JUMP JUMPDEST PUSH1 0x20 SWAP6 SWAP1 SWAP6 ADD SWAP5 PUSH1 0x1 ADD JUMPDEST DUP3 DUP2 LT ISZERO PUSH2 0x1D37 JUMPI PUSH2 0x1D2C DUP7 PUSH1 0xFF DUP5 PUSH1 0xC8 SHR AND ISZERO ISZERO SWAP1 MSTORE JUMP JUMPDEST PUSH1 0x20 SWAP6 SWAP1 SWAP6 ADD SWAP5 PUSH1 0x1 ADD JUMPDEST DUP3 DUP2 LT ISZERO PUSH2 0x1D5B JUMPI PUSH2 0x1D50 DUP7 PUSH1 0xFF DUP5 PUSH1 0xD0 SHR AND ISZERO ISZERO SWAP1 MSTORE JUMP JUMPDEST PUSH1 0x20 SWAP6 SWAP1 SWAP6 ADD SWAP5 PUSH1 0x1 ADD JUMPDEST DUP3 DUP2 LT ISZERO PUSH2 0x1D7F JUMPI PUSH2 0x1D74 DUP7 PUSH1 0xFF DUP5 PUSH1 0xD8 SHR AND ISZERO ISZERO SWAP1 MSTORE JUMP JUMPDEST PUSH1 0x20 SWAP6 SWAP1 SWAP6 ADD SWAP5 PUSH1 0x1 ADD JUMPDEST DUP3 DUP2 LT ISZERO PUSH2 0x1DA3 JUMPI PUSH2 0x1D98 DUP7 PUSH1 0xFF DUP5 PUSH1 0xE0 SHR AND ISZERO ISZERO SWAP1 MSTORE JUMP JUMPDEST PUSH1 0x20 SWAP6 SWAP1 SWAP6 ADD SWAP5 PUSH1 0x1 ADD JUMPDEST DUP3 DUP2 LT ISZERO PUSH2 0x1DC7 JUMPI PUSH2 0x1DBC DUP7 PUSH1 0xFF DUP5 PUSH1 0xE8 SHR AND ISZERO ISZERO SWAP1 MSTORE JUMP JUMPDEST PUSH1 0x20 SWAP6 SWAP1 SWAP6 ADD SWAP5 PUSH1 0x1 ADD JUMPDEST DUP3 DUP2 LT ISZERO PUSH2 0x1DEB JUMPI PUSH2 0x1DE0 DUP7 PUSH1 0xFF DUP5 PUSH1 0xF0 SHR AND ISZERO ISZERO SWAP1 MSTORE JUMP JUMPDEST PUSH1 0x20 SWAP6 SWAP1 SWAP6 ADD SWAP5 PUSH1 0x1 ADD JUMPDEST DUP3 DUP2 LT ISZERO PUSH2 0x1E08 JUMPI PUSH2 0x1E01 DUP7 DUP4 PUSH1 0xF8 SHR ISZERO ISZERO SWAP1 MSTORE JUMP JUMPDEST PUSH1 0x20 DUP7 ADD SWAP6 POP JUMPDEST POP SWAP4 SWAP5 SWAP4 POP POP POP POP JUMP JUMPDEST PUSH1 0x1 PUSH1 0x1 PUSH1 0xA0 SHL SUB SWAP3 SWAP1 SWAP3 AND DUP3 MSTORE PUSH1 0x20 DUP3 ADD MSTORE PUSH1 0x40 ADD SWAP1 JUMP JUMPDEST PUSH1 0x20 DUP1 DUP3 MSTORE DUP3 MLOAD DUP3 DUP3 ADD DUP2 SWAP1 MSTORE PUSH1 0x0 SWAP2 SWAP1 DUP5 DUP3 ADD SWAP1 PUSH1 0x40 DUP6 ADD SWAP1 DUP5 JUMPDEST DUP2 DUP2 LT ISZERO PUSH2 0x1E6C JUMPI DUP4 MLOAD PUSH1 0x1 PUSH1 0x1 PUSH1 0xA0 SHL SUB AND DUP4 MSTORE SWAP3 DUP5 ADD SWAP3 SWAP2 DUP5 ADD SWAP2 PUSH1 0x1 ADD PUSH2 0x1E47 JUMP JUMPDEST POP SWAP1 SWAP7 SWAP6 POP POP POP POP POP POP JUMP JUMPDEST PUSH1 0x0 PUSH1 0x80 DUP3 ADD PUSH1 0x80 DUP4 MSTORE DUP1 DUP8 SLOAD DUP1 DUP4 MSTORE PUSH1 0xA0 DUP6 ADD SWAP2 POP PUSH1 0x0 SWAP3 POP DUP9 DUP4 MSTORE PUSH1 0x20 DUP1 DUP5 KECCAK256 DUP5 JUMPDEST DUP4 DUP2 LT ISZERO PUSH2 0x1EB8 JUMPI DUP2 SLOAD DUP6 MSTORE SWAP4 DUP3 ADD SWAP4 PUSH1 0x1 SWAP2 DUP3 ADD SWAP2 ADD PUSH2 0x1E9C JUMP JUMPDEST POP POP DUP6 DUP4 SUB DUP2 DUP8 ADD MSTORE DUP9 SLOAD DUP1 DUP5 MSTORE DUP10 DUP6 MSTORE DUP2 DUP6 KECCAK256 SWAP4 DUP3 ADD SWAP3 POP JUMPDEST DUP1 DUP6 LT ISZERO PUSH2 0x1EFA JUMPI DUP4 SLOAD PUSH1 0x1 PUSH1 0x1 PUSH1 0xA0 SHL SUB AND DUP4 MSTORE PUSH1 0x1 SWAP5 DUP6 ADD SWAP5 SWAP1 SWAP4 ADD SWAP3 SWAP2 DUP2 ADD SWAP2 PUSH2 0x1ED2 JUMP JUMPDEST POP POP DUP5 DUP2 SUB PUSH1 0x40 DUP7 ADD MSTORE PUSH2 0x1F0E DUP2 DUP9 PUSH2 0x170F JUMP JUMPDEST SWAP4 POP POP POP POP PUSH2 0x1F21 PUSH1 0x60 DUP4 ADD DUP5 ISZERO ISZERO SWAP1 MSTORE JUMP JUMPDEST SWAP6 SWAP5 POP POP POP POP POP JUMP JUMPDEST SWAP3 DUP4 MSTORE PUSH1 0x1 PUSH1 0x1 PUSH1 0xA0 SHL SUB SWAP2 SWAP1 SWAP2 AND PUSH1 0x20 DUP4 ADD MSTORE PUSH1 0x40 DUP3 ADD MSTORE PUSH1 0x60 ADD SWAP1 JUMP JUMPDEST PUSH1 0x0 DUP3 NOT DUP3 GT ISZERO PUSH2 0x1F5C JUMPI PUSH2 0x1F5C PUSH2 0x1FD4 JUMP JUMPDEST POP ADD SWAP1 JUMP JUMPDEST PUSH1 0x0 DUP3 PUSH2 0x1F7E JUMPI PUSH4 0x4E487B71 PUSH1 0xE0 SHL PUSH1 0x0 MSTORE PUSH1 0x12 PUSH1 0x4 MSTORE PUSH1 0x24 PUSH1 0x0 REVERT JUMPDEST POP DIV SWAP1 JUMP JUMPDEST PUSH1 0x0 DUP2 PUSH1 0x0 NOT DIV DUP4 GT DUP3 ISZERO ISZERO AND ISZERO PUSH2 0x1F9D JUMPI PUSH2 0x1F9D PUSH2 0x1FD4 JUMP JUMPDEST POP MUL SWAP1 JUMP JUMPDEST PUSH1 0x0 DUP3 DUP3 LT ISZERO PUSH2 0x1FB4 JUMPI PUSH2 0x1FB4 PUSH2 0x1FD4 JUMP JUMPDEST POP SUB SWAP1 JUMP JUMPDEST PUSH1 0x0 PUSH1 0x0 NOT DUP3 EQ ISZERO PUSH2 0x1FCD JUMPI PUSH2 0x1FCD PUSH2 0x1FD4 JUMP JUMPDEST POP PUSH1 0x1 ADD SWAP1 JUMP JUMPDEST PUSH4 0x4E487B71 PUSH1 0xE0 SHL PUSH1 0x0 MSTORE PUSH1 0x11 PUSH1 0x4 MSTORE PUSH1 0x24 PUSH1 0x0 REVERT JUMPDEST PUSH4 0x4E487B71 PUSH1 0xE0 SHL PUSH1 0x0 MSTORE PUSH1 0x32 PUSH1 0x4 MSTORE PUSH1 0x24 PUSH1 0x0 REVERT JUMPDEST PUSH4 0x4E487B71 PUSH1 0xE0 SHL PUSH1 0x0 MSTORE PUSH1 0x41 PUSH1 0x4 MSTORE PUSH1 0x24 PUSH1 0x0 REVERT JUMPDEST PUSH1 0x1 PUSH1 0x1 PUSH1 0xA0 SHL SUB DUP2 AND DUP2 EQ PUSH2 0x14C5 JUMPI PUSH1 0x0 DUP1 REVERT INVALID LOG2 PUSH5 0x6970667358 0x22 SLT KECCAK256 0xD9 AND 0xEB DUP6 PUSH30 0xC76D067DB1150EE4C5EB9FCF22E0485C4B9821C6F6C0AAB1D110D164736F PUSH13 0x63430008070033000000000000 "
		},
		"gasEstimates": {
			"creation": {
				"codeDepositCost": "1657800",
				"executionCost": "infinite",
				"totalCost": "infinite"
			},
			"external": {
				"buyPlayer()": "infinite",
				"changeOwner(address)": "26749",
				"changeVrf(bool)": "26700",
				"createDistributionForRaffel()": "infinite",
				"getAddresses()": "infinite",
				"upgradeAllToMax()": "infinite",
				"withDraw(address)": "infinite"
			}
		},
		"methodIdentifiers": {
			"buyPlayer()": "49f22cd8",
			"changeOwner(address)": "a6f9dae1",
			"changeVrf(bool)": "ef638007",
			"createDistributionForRaffel()": "37954ce3",
			"getAddresses()": "a39fac12",
			"upgradeAllToMax()": "593292b6",
			"withDraw(address)": "0a67d2c7"
		}
	},
	"abi": [
		{
			"inputs": [
				{
					"internalType": "address",
					"name": "mintingProcess_address",
					"type": "address"
				},
				{
					"internalType": "address",
					"name": "svg_address",
					"type": "address"
				},
				{
					"internalType": "bool",
					"name": "_vrf",
					"type": "bool"
				}
			],
			"stateMutability": "nonpayable",
			"type": "constructor"
		},
		{
			"inputs": [],
			"name": "buyPlayer",
			"outputs": [],
			"stateMutability": "payable",
			"type": "function"
		},
		{
			"inputs": [
				{
					"internalType": "address",
					"name": "_newOwner",
					"type": "address"
				}
			],
			"name": "changeOwner",
			"outputs": [],
			"stateMutability": "nonpayable",
			"type": "function"
		},
		{
			"inputs": [
				{
					"internalType": "bool",
					"name": "_vrf",
					"type": "bool"
				}
			],
			"name": "changeVrf",
			"outputs": [],
			"stateMutability": "nonpayable",
			"type": "function"
		},
		{
			"inputs": [],
			"name": "createDistributionForRaffel",
			"outputs": [],
			"stateMutability": "nonpayable",
			"type": "function"
		},
		{
			"inputs": [],
			"name": "getAddresses",
			"outputs": [
				{
					"internalType": "address[]",
					"name": "_nft_addresses",
					"type": "address[]"
				}
			],
			"stateMutability": "view",
			"type": "function"
		},
		{
			"inputs": [],
			"name": "upgradeAllToMax",
			"outputs": [],
			"stateMutability": "nonpayable",
			"type": "function"
		},
		{
			"inputs": [
				{
					"internalType": "address",
					"name": "_payout",
					"type": "address"
				}
			],
			"name": "withDraw",
			"outputs": [],
			"stateMutability": "nonpayable",
			"type": "function"
		}
	]
}