{
	"data": {
		"bytecode": {
			"linkReferences": {},
			"object": "608060405266038d7ea4c680006002556010805461ffff191690553480156200002757600080fd5b5060405162002ed938038062002ed98339810160408190526200004a9162000137565b60008054600180546001600160a01b03199081166001600160a01b038b8116919091179092556004805433921691909117905562ffff01600160b81b03199091166301000000918a169190910260ff1916178615151762ffff0019166101008615150262ff0000191617620100008515150217815542600855600b55620000d382603c620001ba565b600955620000e381603c620001ba565b600a5550506004805461ffff60a01b191661010160a01b17905550620001e89350505050565b80516001600160a01b03811681146200012157600080fd5b919050565b805180151581146200012157600080fd5b600080600080600080600060e0888a0312156200015357600080fd5b6200015e8862000109565b96506200016e6020890162000109565b95506200017e6040890162000126565b94506200018e6060890162000126565b93506200019e6080890162000126565b925060a0880151915060c0880151905092959891949750929550565b6000816000190483118215151615620001e357634e487b7160e01b600052601160045260246000fd5b500290565b612ce180620001f86000396000f3fe6080604052600436106100a05760003560e01c80636e04ff0d116100645780636e04ff0d1461014a57806372f603cc146101785780638e3f94ad1461018e578063a39fac12146101ae578063a6f9dae1146101d0578063a7cf018a146101f057600080fd5b80630a67d2c7146100c4578063261e5636146100e45780634585e33b1461010d57806349f22cd81461012d578063593292b61461013557600080fd5b366100bf5734156100b7576100b53433610205565b005b6100b561048a565b600080fd5b3480156100d057600080fd5b506100b56100df366004612123565b6111ed565b3480156100f057600080fd5b506100fa600a5481565b6040519081526020015b60405180910390f35b34801561011957600080fd5b506100b5610128366004612256565b611282565b6100b56112a2565b34801561014157600080fd5b506100b56112ae565b34801561015657600080fd5b5061016a610165366004612256565b6112b6565b604051610104929190612afc565b34801561018457600080fd5b506100fa600b5481565b34801561019a57600080fd5b506100b56101a9366004612213565b6112df565b3480156101ba57600080fd5b506101c361132f565b60405161010491906129fd565b3480156101dc57600080fd5b506100b56101eb366004612123565b6113d8565b3480156101fc57600080fd5b506100b5611411565b600454600160a01b900460ff1615156001146102685760405162461bcd60e51b815260206004820152601b60248201527f4e6f206d6f726520627579696e6720697320706f737369626c652e000000000060448201526064015b60405180910390fd5b6002548210156102cb5760405162461bcd60e51b815260206004820152602860248201527f496e737566666963656e742046756e64732c20706c656173652073656e64206d60448201526737b9329022aa241760c11b606482015260840161025f565b670429d069189e00008211156103235760405162461bcd60e51b815260206004820152601f60248201527f506c656173652062757920666f72206c657373207468616e202e332045544800604482015260640161025f565b6000600254836103339190612bb8565b905082600254826103449190612bcc565b101561039957816001600160a01b03166108fc600254836103659190612bcc565b61036f9086612beb565b6040518115909202916000818181858888f19350505050158015610397573d6000803e3d6000fd5b505b6002546103a69082612bcc565b600360008282546103b79190612ba0565b90915550506000546040516315a33d9360e11b81526001600160a01b0384811660048301526024820184905260ff831615156044830152630100000090920490911690632b467b2690606401600060405180830381600087803b15801561041d57600080fd5b505af1158015610431573d6000803e3d6000fd5b50505050816001600160a01b03167f12cf645aad7ceea04bc4bfd75a9c10f254dde6cbbf7a53fe152c38e02b1c63a26002548361046e9190612bcc565b60408051918252602082018590520160405180910390a2505050565b600454600160a81b900460ff1615156001146104e85760405162461bcd60e51b815260206004820152601e60248201527f4e6f206d6f72652075706772616465732061726520706f737369626c652e0000604482015260640161025f565b6000805b60058110156106e3576001546003906001600160a01b031662fdd58e33610514856004612bcc565b6040518363ffffffff1660e01b81526004016105319291906129e4565b60206040518083038186803b15801561054957600080fd5b505afa15801561055d573d6000803e3d6000fd5b505050506040513d601f19601f8201168201806040525081019061058191906122c8565b10158061062357506001546003906001600160a01b031662fdd58e336105a8856004612bcc565b6105b3906001612ba0565b6040518363ffffffff1660e01b81526004016105d09291906129e4565b60206040518083038186803b1580156105e857600080fd5b505afa1580156105fc573d6000803e3d6000fd5b505050506040513d601f19601f8201168201806040525081019061062091906122c8565b10155b806106c357506001546003906001600160a01b031662fdd58e33610648856004612bcc565b610653906002612ba0565b6040518363ffffffff1660e01b81526004016106709291906129e4565b60206040518083038186803b15801561068857600080fd5b505afa15801561069c573d6000803e3d6000fd5b505050506040513d601f19601f820116820180604052508101906106c091906122c8565b10155b156106d157600191506106e3565b806106db81612c02565b9150506104ec565b506001811515146107365760405162461bcd60e51b815260206004820152601960248201527f416c6c20636172647320617265206174206d6178696d756d2e00000000000000604482015260640161025f565b60005b60058110156111be576001546000906001600160a01b031662fdd58e33610761856004612bcc565b6040518363ffffffff1660e01b815260040161077e9291906129e4565b60206040518083038186803b15801561079657600080fd5b505afa1580156107aa573d6000803e3d6000fd5b505050506040513d601f19601f820116820180604052508101906107ce91906122c8565b905060006107dd601b83612bb8565b90506107ea81601b612bcc565b6107f49083612beb565b91506000610803600984612bb8565b9050610810816009612bcc565b61081a9084612beb565b92506000610829600385612bb8565b9050610836816003612bcc565b6108409085612beb565b60015490945060009085906001600160a01b031662fdd58e336108648a6004612bcc565b6040518363ffffffff1660e01b81526004016108819291906129e4565b60206040518083038186803b15801561089957600080fd5b505afa1580156108ad573d6000803e3d6000fd5b505050506040513d601f19601f820116820180604052508101906108d191906122c8565b6108db9190612beb565b6001549091506001600160a01b031662fdd58e336108fa896004612bcc565b610905906001612ba0565b6040518363ffffffff1660e01b81526004016109229291906129e4565b60206040518083038186803b15801561093a57600080fd5b505afa15801561094e573d6000803e3d6000fd5b505050506040513d601f19601f8201168201806040525081019061097291906122c8565b61097c9083612ba0565b9150600061098b600984612bb8565b90506109978186612ba0565b94506109a4816009612bcc565b6109ae9084612beb565b925060006109bd600385612bb8565b90506109c98186612ba0565b94506109d6816003612bcc565b6109e09085612beb565b600154909450600090819086906001600160a01b031662fdd58e33610a068e6004612bcc565b610a11906001612ba0565b6040518363ffffffff1660e01b8152600401610a2e9291906129e4565b60206040518083038186803b158015610a4657600080fd5b505afa158015610a5a573d6000803e3d6000fd5b505050506040513d601f19601f82011682018060405250810190610a7e91906122c8565b1115610b2b5760015486906001600160a01b031662fdd58e33610aa28e6004612bcc565b610aad906001612ba0565b6040518363ffffffff1660e01b8152600401610aca9291906129e4565b60206040518083038186803b158015610ae257600080fd5b505afa158015610af6573d6000803e3d6000fd5b505050506040513d601f19601f82011682018060405250810190610b1a91906122c8565b610b249190612beb565b9150610bcc565b6001546001600160a01b031662fdd58e33610b478d6004612bcc565b610b52906001612ba0565b6040518363ffffffff1660e01b8152600401610b6f9291906129e4565b60206040518083038186803b158015610b8757600080fd5b505afa158015610b9b573d6000803e3d6000fd5b505050506040513d601f19601f82011682018060405250810190610bbf91906122c8565b610bc99087612beb565b90505b6001546001600160a01b031662fdd58e33610be88d6004612bcc565b610bf3906002612ba0565b6040518363ffffffff1660e01b8152600401610c109291906129e4565b60206040518083038186803b158015610c2857600080fd5b505afa158015610c3c573d6000803e3d6000fd5b505050506040513d601f19601f82011682018060405250810190610c6091906122c8565b610c6a9088612ba0565b9650610c77600388612bb8565b9350610c838489612ba0565b9750610c90846003612bcc565b610c9a9088612beb565b965060008088600160009054906101000a90046001600160a01b03166001600160a01b031662fdd58e338f6004610cd19190612bcc565b610cdc906002612ba0565b6040518363ffffffff1660e01b8152600401610cf99291906129e4565b60206040518083038186803b158015610d1157600080fd5b505afa158015610d25573d6000803e3d6000fd5b505050506040513d601f19601f82011682018060405250810190610d4991906122c8565b1115610e0a5788600160009054906101000a90046001600160a01b03166001600160a01b031662fdd58e338f6004610d819190612bcc565b610d8c906002612ba0565b6040518363ffffffff1660e01b8152600401610da99291906129e4565b60206040518083038186803b158015610dc157600080fd5b505afa158015610dd5573d6000803e3d6000fd5b505050506040513d601f19601f82011682018060405250810190610df991906122c8565b610e039190612beb565b9150610eab565b6001546001600160a01b031662fdd58e33610e268f6004612bcc565b610e31906002612ba0565b6040518363ffffffff1660e01b8152600401610e4e9291906129e4565b60206040518083038186803b158015610e6657600080fd5b505afa158015610e7a573d6000803e3d6000fd5b505050506040513d601f19601f82011682018060405250810190610e9e91906122c8565b610ea8908a612beb565b90505b8615610f20576001546001600160a01b031663995c9d77610ecd8e6004612bcc565b338a6040518463ffffffff1660e01b8152600401610eed93929190612b5b565b600060405180830381600087803b158015610f0757600080fd5b505af1158015610f1b573d6000803e3d6000fd5b505050505b8315610fa0576001546001600160a01b031663995c9d77610f428e6004612bcc565b610f4d906001612ba0565b33876040518463ffffffff1660e01b8152600401610f6d93929190612b5b565b600060405180830381600087803b158015610f8757600080fd5b505af1158015610f9b573d6000803e3d6000fd5b505050505b8115611020576001546001600160a01b031663995c9d77610fc28e6004612bcc565b610fcd906002612ba0565b33856040518463ffffffff1660e01b8152600401610fed93929190612b5b565b600060405180830381600087803b15801561100757600080fd5b505af115801561101b573d6000803e3d6000fd5b505050505b82156110a0576001546001600160a01b0316633feb9f7d6110428e6004612bcc565b61104d906001612ba0565b33866040518463ffffffff1660e01b815260040161106d93929190612b5b565b600060405180830381600087803b15801561108757600080fd5b505af115801561109b573d6000803e3d6000fd5b505050505b8015611120576001546001600160a01b0316633feb9f7d6110c28e6004612bcc565b6110cd906002612ba0565b33846040518463ffffffff1660e01b81526004016110ed93929190612b5b565b600060405180830381600087803b15801561110757600080fd5b505af115801561111b573d6000803e3d6000fd5b505050505b89156111a0576001546001600160a01b0316633feb9f7d6111428e6004612bcc565b61114d906003612ba0565b338d6040518463ffffffff1660e01b815260040161116d93929190612b5b565b600060405180830381600087803b15801561118757600080fd5b505af115801561119b573d6000803e3d6000fd5b505050505b505050505050505050505080806111b690612c02565b915050610739565b5060405133907f2b3ce49b33919d106d8bd2245a230a4897e3a72996d9a1823ec0fce8074a431890600090a250565b6004546001600160a01b0316331461120457600080fd5b6000600354116112425760405162461bcd60e51b8152602060048201526009602482015268273790333ab732399760b91b604482015260640161025f565b6003546040516001600160a01b0383169180156108fc02916000818181858888f19350505050158015611279573d6000803e3d6000fd5b50506000600355565b600054610100900460ff1661129657600080fd5b61129e61149d565b5050565b6112ac3433610205565b565b6112ac61048a565b60008054606090610100900460ff166112ce57600080fd5b6112d6611508565b91509250929050565b6004546001600160a01b031633146112f657600080fd5b6000805461ffff191693151561ff00191693909317610100921515929092029190911762ff000019166201000091151591909102179055565b6004546060906001600160a01b0316331461134957600080fd5b600160009054906101000a90046001600160a01b03166001600160a01b031663a39fac126040518163ffffffff1660e01b815260040160006040518083038186803b15801561139757600080fd5b505afa1580156113ab573d6000803e3d6000fd5b505050506040513d6000823e601f3d908101601f191682016040526113d39190810190612147565b905090565b6004546001600160a01b031633146113ef57600080fd5b600480546001600160a01b0319166001600160a01b0392909216919091179055565b6004546001600160a01b0316331461142857600080fd5b600054610100900460ff16156114805760405162461bcd60e51b815260206004820152601b60248201527f506c6561736520736574206b656570657220746f2066616c73652e0000000000604482015260640161025f565b600061148a611508565b9050801561149a5761149a61149d565b50565b600454600160a01b900460ff1680156114bf5750600454600160a81b900460ff165b6114c857600080fd5b600a54600b546114d89042612beb565b11156114ea5742600b556114ea61156d565b6009546008546114fa9042612beb565b11156112ac576112ac611a39565b600454600090600160a01b900460ff16801561152d5750600454600160a81b900460ff165b61153657600080fd5b600a54600b546115469042612beb565b1115611550575060015b6009546008546115609042612beb565b111561156a575060015b90565b60005462010000900460ff16611a0e5760005b6005811015611a0c576040805142602080830191909152818301849052825180830384018152606090920190925280519101206115be600282612c1d565b600d83600581106115d1576115d1612c6a565b601091828204019190066002028282829054906101000a900461ffff166115f89190612b7a565b92506101000a81548161ffff021916908361ffff16021790555060006002826116219190612c1d565b61ffff1611156119f957611636603c82612c1d565b61164190601e612b7a565b600c836005811061165457611654612c6a565b601091828204019190066002028282829054906101000a900461ffff1661167b9190612b7a565b92506101000a81548161ffff021916908361ffff1602179055506003816116a29190612c1d565b600e83600581106116b5576116b5612c6a565b601091828204019190066002028282829054906101000a900461ffff166116dc9190612b7a565b92506101000a81548161ffff021916908361ffff1602179055506004816117039190612c1d565b600f836005811061171657611716612c6a565b601091828204019190066002028282829054906101000a900461ffff1661173d9190612b7a565b92506101000a81548161ffff021916908361ffff16021790555081600014156118be5761176b603282612c1d565b61177690600a612b7a565b6010805460009061178c90849061ffff16612b7a565b825461ffff9182166101009390930a9283029190920219909116179055506001546001600160a01b0316635c7a8d2783600c81600581106117cf576117cf612c6a565b601091828204019190066002029054906101000a900461ffff16600d86600581106117fc576117fc612c6a565b601091828204019190066002029054906101000a900461ffff16600e876005811061182957611829612c6a565b60108082049290920154915460405160e088901b6001600160e01b0319168152600481019690965261ffff94851660248701529284166044860152600f166002026101000a900482166064840152600060848401521660a482015260c401600060405180830381600087803b1580156118a157600080fd5b505af11580156118b5573d6000803e3d6000fd5b505050506119f9565b6001546001600160a01b0316635c7a8d2783600c81600581106118e3576118e3612c6a565b601091828204019190066002029054906101000a900461ffff16600d866005811061191057611910612c6a565b601091828204019190066002029054906101000a900461ffff16600e876005811061193d5761193d612c6a565b601091828204019190066002029054906101000a900461ffff16600f886005811061196a5761196a612c6a565b60108104919091015460405160e088901b6001600160e01b0319168152600481019690965261ffff948516602487015292841660448601529083166064850152600f166002026101000a9004166084820152600060a482015260c401600060405180830381600087803b1580156119e057600080fd5b505af11580156119f4573d6000803e3d6000fd5b505050505b5080611a0481612c02565b915050611580565b505b6040517f4df4ae4164fe500d50794868e7c9215b69dd8bc8ea7d7204e582b420cbd18a9390600090a1565b600454600160a01b900460ff161515600114611a8a5760405162461bcd60e51b815260206004820152601060248201526f2930b33332b6103bb0b9903237b7329760811b604482015260640161025f565b6004805461ffff60a01b19168155600154604080516351cfd60960e11b815290516000936001600160a01b039093169263a39fac12928082019286929091829003018186803b158015611adc57600080fd5b505afa158015611af0573d6000803e3d6000fd5b505050506040513d6000823e601f3d908101601f19168201604052611b189190810190612147565b905060005b81518110156120625760008060005b6005811015611f195760015485516000916001600160a01b03169062fdd58e90889088908110611b5e57611b5e612c6a565b6020026020010151846004611b739190612bcc565b6040518363ffffffff1660e01b8152600401611b909291906129e4565b60206040518083038186803b158015611ba857600080fd5b505afa158015611bbc573d6000803e3d6000fd5b505050506040513d601f19601f82011682018060405250810190611be091906122c8565b611beb906001612bcc565b60015487519192506001600160a01b03169062fdd58e90889088908110611c1457611c14612c6a565b6020026020010151846004611c299190612bcc565b611c34906001612ba0565b6040518363ffffffff1660e01b8152600401611c519291906129e4565b60206040518083038186803b158015611c6957600080fd5b505afa158015611c7d573d6000803e3d6000fd5b505050506040513d601f19601f82011682018060405250810190611ca191906122c8565b611cac906004612bcc565b611cb69082612ba0565b60015487519192506001600160a01b03169062fdd58e90889088908110611cdf57611cdf612c6a565b6020026020010151846004611cf49190612bcc565b611cff906002612ba0565b6040518363ffffffff1660e01b8152600401611d1c9291906129e4565b60206040518083038186803b158015611d3457600080fd5b505afa158015611d48573d6000803e3d6000fd5b505050506040513d601f19601f82011682018060405250810190611d6c91906122c8565b611d7790600f612bcc565b611d819082612ba0565b60015487519192506001600160a01b03169062fdd58e90889088908110611daa57611daa612c6a565b6020026020010151846004611dbf9190612bcc565b611dca906003612ba0565b6040518363ffffffff1660e01b8152600401611de79291906129e4565b60206040518083038186803b158015611dff57600080fd5b505afa158015611e13573d6000803e3d6000fd5b505050506040513d601f19601f82011682018060405250810190611e3791906122c8565b611e4290601e612bcc565b611e4c9082612ba0565b6001549091506001600160a01b031663203da719611e6b846004612bcc565b6040518263ffffffff1660e01b8152600401611e8991815260200190565b60206040518083038186803b158015611ea157600080fd5b505afa158015611eb5573d6000803e3d6000fd5b505050506040513d601f19601f82011682018060405250810190611ed991906122c8565b611ee39082612bcc565b90508015611ef957611ef6600184612ba0565b92505b611f038185612ba0565b9350508080611f1190612c02565b915050611b2c565b50811561204d57600580546001810182556000919091527f036b6384b5eca791c62761152d0c79bb0604c104a5fb6f4eb0703f3154bb3db0018290558351600690859085908110611f6c57611f6c612c6a565b60209081029190910181015182546001810184556000938452919092200180546001600160a01b0319166001600160a01b0390921691909117905560058114156120025760078054600181018255600091909152602081047fa66cc928b5edb82af9bd49922954155ab7b0942694bea4ce44661d9a8736c68801805460ff601f9093166101000a9283021916909117905561204d565b600780546001810182556000919091527fa66cc928b5edb82af9bd49922954155ab7b0942694bea4ce44661d9a8736c68860208204018054601f9092166101000a60ff021990911690555b5050808061205a90612c02565b915050611b1d565b50600054604051631c04951560e01b81526001600160a01b03630100000083041691631c049515916120a59160059160069160079160ff90911690600401612a4a565b600060405180830381600087803b1580156120bf57600080fd5b505af11580156120d3573d6000803e3d6000fd5b50506040517f19f7095e53231c75fa1bba7489c37a17ba180ec85470e65946e54837507a3075925060009150a150565b805161210e81612c96565b919050565b8035801515811461210e57600080fd5b60006020828403121561213557600080fd5b813561214081612c96565b9392505050565b6000602080838503121561215a57600080fd5b825167ffffffffffffffff8082111561217257600080fd5b818501915085601f83011261218657600080fd5b81518181111561219857612198612c80565b8060051b604051601f19603f830116810181811085821117156121bd576121bd612c80565b604052828152858101935084860182860187018a10156121dc57600080fd5b600095505b83861015612206576121f281612103565b8552600195909501949386019386016121e1565b5098975050505050505050565b60008060006060848603121561222857600080fd5b61223184612113565b925061223f60208501612113565b915061224d60408501612113565b90509250925092565b6000806020838503121561226957600080fd5b823567ffffffffffffffff8082111561228157600080fd5b818501915085601f83011261229557600080fd5b8135818111156122a457600080fd5b8660208285010111156122b657600080fd5b60209290920196919550909350505050565b6000602082840312156122da57600080fd5b5051919050565b805480835260008281526020808220940193909190825b82601f8201101561256857815460ff808216151588526020612322818a01838560081c1615159052565b6040612336818b01848660101c1615159052565b606061234a818c01858760181c1615159052565b608061235d818d018688871c1615159052565b60a09350612373848d01868860281c1615159052565b60c0612387818e01878960301c1615159052565b60e061239b818f01888a60381c1615159052565b87851c871615156101008f01526123bc6101208f01888a60481c1615159052565b6123d06101408f01888a60501c1615159052565b6123e46101608f01888a60581c1615159052565b87841c871615156101808f01526124056101a08f01888a60681c1615159052565b6124196101c08f01888a60701c1615159052565b61242d6101e08f01888a60781c1615159052565b87831c871615156102008f015261244e6102208f01888a60881c1615159052565b6124626102408f01888a60901c1615159052565b6124766102608f01888a60981c1615159052565b87861c871615156102808f01526124976102a08f01888a60a81c1615159052565b6124ab6102c08f01888a60b01c1615159052565b6124bf6102e08f01888a60b81c1615159052565b87821c871615156103008f01526124e06103208f01888a60c81c1615159052565b6124f46103408f01888a60d01c1615159052565b6125086103608f01888a60d81c1615159052565b87901c861615156103808e0152505050505060e882901c811615156103a089015261253d6103c08901828460f01c1615159052565b506125506103e088018260f81c15159052565b506104009590950194600191909101906020016122f8565b905490828110156125855760ff8216151586526020909501946001015b828110156125a95761259e8660ff8460081c1615159052565b602095909501946001015b828110156125cd576125c28660ff8460101c1615159052565b602095909501946001015b828110156125f1576125e68660ff8460181c1615159052565b602095909501946001015b828110156126155761260a8660ff8460201c1615159052565b602095909501946001015b828110156126395761262e8660ff8460281c1615159052565b602095909501946001015b8281101561265d576126528660ff8460301c1615159052565b602095909501946001015b82811015612681576126768660ff8460381c1615159052565b602095909501946001015b828110156126a55761269a8660ff8460401c1615159052565b602095909501946001015b828110156126c9576126be8660ff8460481c1615159052565b602095909501946001015b828110156126ed576126e28660ff8460501c1615159052565b602095909501946001015b82811015612711576127068660ff8460581c1615159052565b602095909501946001015b828110156127355761272a8660ff8460601c1615159052565b602095909501946001015b828110156127595761274e8660ff8460681c1615159052565b602095909501946001015b8281101561277d576127728660ff8460701c1615159052565b602095909501946001015b828110156127a1576127968660ff8460781c1615159052565b602095909501946001015b828110156127c5576127ba8660ff8460801c1615159052565b602095909501946001015b828110156127e9576127de8660ff8460881c1615159052565b602095909501946001015b8281101561280d576128028660ff8460901c1615159052565b602095909501946001015b82811015612831576128268660ff8460981c1615159052565b602095909501946001015b828110156128555761284a8660ff8460a01c1615159052565b602095909501946001015b828110156128795761286e8660ff8460a81c1615159052565b602095909501946001015b8281101561289d576128928660ff8460b01c1615159052565b602095909501946001015b828110156128c1576128b68660ff8460b81c1615159052565b602095909501946001015b828110156128e5576128da8660ff8460c01c1615159052565b602095909501946001015b82811015612909576128fe8660ff8460c81c1615159052565b602095909501946001015b8281101561292d576129228660ff8460d01c1615159052565b602095909501946001015b82811015612951576129468660ff8460d81c1615159052565b602095909501946001015b828110156129755761296a8660ff8460e01c1615159052565b602095909501946001015b828110156129995761298e8660ff8460e81c1615159052565b602095909501946001015b828110156129bd576129b28660ff8460f01c1615159052565b602095909501946001015b828110156129da576129d3868360f81c15159052565b6020860195505b5093949350505050565b6001600160a01b03929092168252602082015260400190565b6020808252825182820181905260009190848201906040850190845b81811015612a3e5783516001600160a01b031683529284019291840191600101612a19565b50909695505050505050565b6000608082016080835280875480835260a085019150600092508883526020808420845b83811015612a8a57815485529382019360019182019101612a6e565b505085830381870152885480845289855281852093820192505b80851015612acc5783546001600160a01b031683526001948501949093019291810191612aa4565b50508481036040860152612ae081886122e1565b9350505050612af3606083018415159052565b95945050505050565b821515815260006020604081840152835180604085015260005b81811015612b3257858101830151858201606001528201612b16565b81811115612b44576000606083870101525b50601f01601f191692909201606001949350505050565b9283526001600160a01b03919091166020830152604082015260600190565b600061ffff808316818516808303821115612b9757612b97612c3e565b01949350505050565b60008219821115612bb357612bb3612c3e565b500190565b600082612bc757612bc7612c54565b500490565b6000816000190483118215151615612be657612be6612c3e565b500290565b600082821015612bfd57612bfd612c3e565b500390565b6000600019821415612c1657612c16612c3e565b5060010190565b600061ffff80841680612c3257612c32612c54565b92169190910692915050565b634e487b7160e01b600052601160045260246000fd5b634e487b7160e01b600052601260045260246000fd5b634e487b7160e01b600052603260045260246000fd5b634e487b7160e01b600052604160045260246000fd5b6001600160a01b038116811461149a57600080fdfea2646970667358221220607312966e055d0e028a94f09da38bd477d44711472d61c7d69a5344723b4db164736f6c63430008070033",
			"opcodes": "PUSH1 0x80 PUSH1 0x40 MSTORE PUSH7 0x38D7EA4C68000 PUSH1 0x2 SSTORE PUSH1 0x10 DUP1 SLOAD PUSH2 0xFFFF NOT AND SWAP1 SSTORE CALLVALUE DUP1 ISZERO PUSH3 0x27 JUMPI PUSH1 0x0 DUP1 REVERT JUMPDEST POP PUSH1 0x40 MLOAD PUSH3 0x2ED9 CODESIZE SUB DUP1 PUSH3 0x2ED9 DUP4 CODECOPY DUP2 ADD PUSH1 0x40 DUP2 SWAP1 MSTORE PUSH3 0x4A SWAP2 PUSH3 0x137 JUMP JUMPDEST PUSH1 0x0 DUP1 SLOAD PUSH1 0x1 DUP1 SLOAD PUSH1 0x1 PUSH1 0x1 PUSH1 0xA0 SHL SUB NOT SWAP1 DUP2 AND PUSH1 0x1 PUSH1 0x1 PUSH1 0xA0 SHL SUB DUP12 DUP2 AND SWAP2 SWAP1 SWAP2 OR SWAP1 SWAP3 SSTORE PUSH1 0x4 DUP1 SLOAD CALLER SWAP3 AND SWAP2 SWAP1 SWAP2 OR SWAP1 SSTORE PUSH3 0xFFFF01 PUSH1 0x1 PUSH1 0xB8 SHL SUB NOT SWAP1 SWAP2 AND PUSH4 0x1000000 SWAP2 DUP11 AND SWAP2 SWAP1 SWAP2 MUL PUSH1 0xFF NOT AND OR DUP7 ISZERO ISZERO OR PUSH3 0xFFFF00 NOT AND PUSH2 0x100 DUP7 ISZERO ISZERO MUL PUSH3 0xFF0000 NOT AND OR PUSH3 0x10000 DUP6 ISZERO ISZERO MUL OR DUP2 SSTORE TIMESTAMP PUSH1 0x8 SSTORE PUSH1 0xB SSTORE PUSH3 0xD3 DUP3 PUSH1 0x3C PUSH3 0x1BA JUMP JUMPDEST PUSH1 0x9 SSTORE PUSH3 0xE3 DUP2 PUSH1 0x3C PUSH3 0x1BA JUMP JUMPDEST PUSH1 0xA SSTORE POP POP PUSH1 0x4 DUP1 SLOAD PUSH2 0xFFFF PUSH1 0xA0 SHL NOT AND PUSH2 0x101 PUSH1 0xA0 SHL OR SWAP1 SSTORE POP PUSH3 0x1E8 SWAP4 POP POP POP POP JUMP JUMPDEST DUP1 MLOAD PUSH1 0x1 PUSH1 0x1 PUSH1 0xA0 SHL SUB DUP2 AND DUP2 EQ PUSH3 0x121 JUMPI PUSH1 0x0 DUP1 REVERT JUMPDEST SWAP2 SWAP1 POP JUMP JUMPDEST DUP1 MLOAD DUP1 ISZERO ISZERO DUP2 EQ PUSH3 0x121 JUMPI PUSH1 0x0 DUP1 REVERT JUMPDEST PUSH1 0x0 DUP1 PUSH1 0x0 DUP1 PUSH1 0x0 DUP1 PUSH1 0x0 PUSH1 0xE0 DUP9 DUP11 SUB SLT ISZERO PUSH3 0x153 JUMPI PUSH1 0x0 DUP1 REVERT JUMPDEST PUSH3 0x15E DUP9 PUSH3 0x109 JUMP JUMPDEST SWAP7 POP PUSH3 0x16E PUSH1 0x20 DUP10 ADD PUSH3 0x109 JUMP JUMPDEST SWAP6 POP PUSH3 0x17E PUSH1 0x40 DUP10 ADD PUSH3 0x126 JUMP JUMPDEST SWAP5 POP PUSH3 0x18E PUSH1 0x60 DUP10 ADD PUSH3 0x126 JUMP JUMPDEST SWAP4 POP PUSH3 0x19E PUSH1 0x80 DUP10 ADD PUSH3 0x126 JUMP JUMPDEST SWAP3 POP PUSH1 0xA0 DUP9 ADD MLOAD SWAP2 POP PUSH1 0xC0 DUP9 ADD MLOAD SWAP1 POP SWAP3 SWAP6 SWAP9 SWAP2 SWAP5 SWAP8 POP SWAP3 SWAP6 POP JUMP JUMPDEST PUSH1 0x0 DUP2 PUSH1 0x0 NOT DIV DUP4 GT DUP3 ISZERO ISZERO AND ISZERO PUSH3 0x1E3 JUMPI PUSH4 0x4E487B71 PUSH1 0xE0 SHL PUSH1 0x0 MSTORE PUSH1 0x11 PUSH1 0x4 MSTORE PUSH1 0x24 PUSH1 0x0 REVERT JUMPDEST POP MUL SWAP1 JUMP JUMPDEST PUSH2 0x2CE1 DUP1 PUSH3 0x1F8 PUSH1 0x0 CODECOPY PUSH1 0x0 RETURN INVALID PUSH1 0x80 PUSH1 0x40 MSTORE PUSH1 0x4 CALLDATASIZE LT PUSH2 0xA0 JUMPI PUSH1 0x0 CALLDATALOAD PUSH1 0xE0 SHR DUP1 PUSH4 0x6E04FF0D GT PUSH2 0x64 JUMPI DUP1 PUSH4 0x6E04FF0D EQ PUSH2 0x14A JUMPI DUP1 PUSH4 0x72F603CC EQ PUSH2 0x178 JUMPI DUP1 PUSH4 0x8E3F94AD EQ PUSH2 0x18E JUMPI DUP1 PUSH4 0xA39FAC12 EQ PUSH2 0x1AE JUMPI DUP1 PUSH4 0xA6F9DAE1 EQ PUSH2 0x1D0 JUMPI DUP1 PUSH4 0xA7CF018A EQ PUSH2 0x1F0 JUMPI PUSH1 0x0 DUP1 REVERT JUMPDEST DUP1 PUSH4 0xA67D2C7 EQ PUSH2 0xC4 JUMPI DUP1 PUSH4 0x261E5636 EQ PUSH2 0xE4 JUMPI DUP1 PUSH4 0x4585E33B EQ PUSH2 0x10D JUMPI DUP1 PUSH4 0x49F22CD8 EQ PUSH2 0x12D JUMPI DUP1 PUSH4 0x593292B6 EQ PUSH2 0x135 JUMPI PUSH1 0x0 DUP1 REVERT JUMPDEST CALLDATASIZE PUSH2 0xBF JUMPI CALLVALUE ISZERO PUSH2 0xB7 JUMPI PUSH2 0xB5 CALLVALUE CALLER PUSH2 0x205 JUMP JUMPDEST STOP JUMPDEST PUSH2 0xB5 PUSH2 0x48A JUMP JUMPDEST PUSH1 0x0 DUP1 REVERT JUMPDEST CALLVALUE DUP1 ISZERO PUSH2 0xD0 JUMPI PUSH1 0x0 DUP1 REVERT JUMPDEST POP PUSH2 0xB5 PUSH2 0xDF CALLDATASIZE PUSH1 0x4 PUSH2 0x2123 JUMP JUMPDEST PUSH2 0x11ED JUMP JUMPDEST CALLVALUE DUP1 ISZERO PUSH2 0xF0 JUMPI PUSH1 0x0 DUP1 REVERT JUMPDEST POP PUSH2 0xFA PUSH1 0xA SLOAD DUP2 JUMP JUMPDEST PUSH1 0x40 MLOAD SWAP1 DUP2 MSTORE PUSH1 0x20 ADD JUMPDEST PUSH1 0x40 MLOAD DUP1 SWAP2 SUB SWAP1 RETURN JUMPDEST CALLVALUE DUP1 ISZERO PUSH2 0x119 JUMPI PUSH1 0x0 DUP1 REVERT JUMPDEST POP PUSH2 0xB5 PUSH2 0x128 CALLDATASIZE PUSH1 0x4 PUSH2 0x2256 JUMP JUMPDEST PUSH2 0x1282 JUMP JUMPDEST PUSH2 0xB5 PUSH2 0x12A2 JUMP JUMPDEST CALLVALUE DUP1 ISZERO PUSH2 0x141 JUMPI PUSH1 0x0 DUP1 REVERT JUMPDEST POP PUSH2 0xB5 PUSH2 0x12AE JUMP JUMPDEST CALLVALUE DUP1 ISZERO PUSH2 0x156 JUMPI PUSH1 0x0 DUP1 REVERT JUMPDEST POP PUSH2 0x16A PUSH2 0x165 CALLDATASIZE PUSH1 0x4 PUSH2 0x2256 JUMP JUMPDEST PUSH2 0x12B6 JUMP JUMPDEST PUSH1 0x40 MLOAD PUSH2 0x104 SWAP3 SWAP2 SWAP1 PUSH2 0x2AFC JUMP JUMPDEST CALLVALUE DUP1 ISZERO PUSH2 0x184 JUMPI PUSH1 0x0 DUP1 REVERT JUMPDEST POP PUSH2 0xFA PUSH1 0xB SLOAD DUP2 JUMP JUMPDEST CALLVALUE DUP1 ISZERO PUSH2 0x19A JUMPI PUSH1 0x0 DUP1 REVERT JUMPDEST POP PUSH2 0xB5 PUSH2 0x1A9 CALLDATASIZE PUSH1 0x4 PUSH2 0x2213 JUMP JUMPDEST PUSH2 0x12DF JUMP JUMPDEST CALLVALUE DUP1 ISZERO PUSH2 0x1BA JUMPI PUSH1 0x0 DUP1 REVERT JUMPDEST POP PUSH2 0x1C3 PUSH2 0x132F JUMP JUMPDEST PUSH1 0x40 MLOAD PUSH2 0x104 SWAP2 SWAP1 PUSH2 0x29FD JUMP JUMPDEST CALLVALUE DUP1 ISZERO PUSH2 0x1DC JUMPI PUSH1 0x0 DUP1 REVERT JUMPDEST POP PUSH2 0xB5 PUSH2 0x1EB CALLDATASIZE PUSH1 0x4 PUSH2 0x2123 JUMP JUMPDEST PUSH2 0x13D8 JUMP JUMPDEST CALLVALUE DUP1 ISZERO PUSH2 0x1FC JUMPI PUSH1 0x0 DUP1 REVERT JUMPDEST POP PUSH2 0xB5 PUSH2 0x1411 JUMP JUMPDEST PUSH1 0x4 SLOAD PUSH1 0x1 PUSH1 0xA0 SHL SWAP1 DIV PUSH1 0xFF AND ISZERO ISZERO PUSH1 0x1 EQ PUSH2 0x268 JUMPI PUSH1 0x40 MLOAD PUSH3 0x461BCD PUSH1 0xE5 SHL DUP2 MSTORE PUSH1 0x20 PUSH1 0x4 DUP3 ADD MSTORE PUSH1 0x1B PUSH1 0x24 DUP3 ADD MSTORE PUSH32 0x4E6F206D6F726520627579696E6720697320706F737369626C652E0000000000 PUSH1 0x44 DUP3 ADD MSTORE PUSH1 0x64 ADD JUMPDEST PUSH1 0x40 MLOAD DUP1 SWAP2 SUB SWAP1 REVERT JUMPDEST PUSH1 0x2 SLOAD DUP3 LT ISZERO PUSH2 0x2CB JUMPI PUSH1 0x40 MLOAD PUSH3 0x461BCD PUSH1 0xE5 SHL DUP2 MSTORE PUSH1 0x20 PUSH1 0x4 DUP3 ADD MSTORE PUSH1 0x28 PUSH1 0x24 DUP3 ADD MSTORE PUSH32 0x496E737566666963656E742046756E64732C20706C656173652073656E64206D PUSH1 0x44 DUP3 ADD MSTORE PUSH8 0x37B9329022AA2417 PUSH1 0xC1 SHL PUSH1 0x64 DUP3 ADD MSTORE PUSH1 0x84 ADD PUSH2 0x25F JUMP JUMPDEST PUSH8 0x429D069189E0000 DUP3 GT ISZERO PUSH2 0x323 JUMPI PUSH1 0x40 MLOAD PUSH3 0x461BCD PUSH1 0xE5 SHL DUP2 MSTORE PUSH1 0x20 PUSH1 0x4 DUP3 ADD MSTORE PUSH1 0x1F PUSH1 0x24 DUP3 ADD MSTORE PUSH32 0x506C656173652062757920666F72206C657373207468616E202E332045544800 PUSH1 0x44 DUP3 ADD MSTORE PUSH1 0x64 ADD PUSH2 0x25F JUMP JUMPDEST PUSH1 0x0 PUSH1 0x2 SLOAD DUP4 PUSH2 0x333 SWAP2 SWAP1 PUSH2 0x2BB8 JUMP JUMPDEST SWAP1 POP DUP3 PUSH1 0x2 SLOAD DUP3 PUSH2 0x344 SWAP2 SWAP1 PUSH2 0x2BCC JUMP JUMPDEST LT ISZERO PUSH2 0x399 JUMPI DUP2 PUSH1 0x1 PUSH1 0x1 PUSH1 0xA0 SHL SUB AND PUSH2 0x8FC PUSH1 0x2 SLOAD DUP4 PUSH2 0x365 SWAP2 SWAP1 PUSH2 0x2BCC JUMP JUMPDEST PUSH2 0x36F SWAP1 DUP7 PUSH2 0x2BEB JUMP JUMPDEST PUSH1 0x40 MLOAD DUP2 ISZERO SWAP1 SWAP3 MUL SWAP2 PUSH1 0x0 DUP2 DUP2 DUP2 DUP6 DUP9 DUP9 CALL SWAP4 POP POP POP POP ISZERO DUP1 ISZERO PUSH2 0x397 JUMPI RETURNDATASIZE PUSH1 0x0 DUP1 RETURNDATACOPY RETURNDATASIZE PUSH1 0x0 REVERT JUMPDEST POP JUMPDEST PUSH1 0x2 SLOAD PUSH2 0x3A6 SWAP1 DUP3 PUSH2 0x2BCC JUMP JUMPDEST PUSH1 0x3 PUSH1 0x0 DUP3 DUP3 SLOAD PUSH2 0x3B7 SWAP2 SWAP1 PUSH2 0x2BA0 JUMP JUMPDEST SWAP1 SWAP2 SSTORE POP POP PUSH1 0x0 SLOAD PUSH1 0x40 MLOAD PUSH4 0x15A33D93 PUSH1 0xE1 SHL DUP2 MSTORE PUSH1 0x1 PUSH1 0x1 PUSH1 0xA0 SHL SUB DUP5 DUP2 AND PUSH1 0x4 DUP4 ADD MSTORE PUSH1 0x24 DUP3 ADD DUP5 SWAP1 MSTORE PUSH1 0xFF DUP4 AND ISZERO ISZERO PUSH1 0x44 DUP4 ADD MSTORE PUSH4 0x1000000 SWAP1 SWAP3 DIV SWAP1 SWAP2 AND SWAP1 PUSH4 0x2B467B26 SWAP1 PUSH1 0x64 ADD PUSH1 0x0 PUSH1 0x40 MLOAD DUP1 DUP4 SUB DUP2 PUSH1 0x0 DUP8 DUP1 EXTCODESIZE ISZERO DUP1 ISZERO PUSH2 0x41D JUMPI PUSH1 0x0 DUP1 REVERT JUMPDEST POP GAS CALL ISZERO DUP1 ISZERO PUSH2 0x431 JUMPI RETURNDATASIZE PUSH1 0x0 DUP1 RETURNDATACOPY RETURNDATASIZE PUSH1 0x0 REVERT JUMPDEST POP POP POP POP DUP2 PUSH1 0x1 PUSH1 0x1 PUSH1 0xA0 SHL SUB AND PUSH32 0x12CF645AAD7CEEA04BC4BFD75A9C10F254DDE6CBBF7A53FE152C38E02B1C63A2 PUSH1 0x2 SLOAD DUP4 PUSH2 0x46E SWAP2 SWAP1 PUSH2 0x2BCC JUMP JUMPDEST PUSH1 0x40 DUP1 MLOAD SWAP2 DUP3 MSTORE PUSH1 0x20 DUP3 ADD DUP6 SWAP1 MSTORE ADD PUSH1 0x40 MLOAD DUP1 SWAP2 SUB SWAP1 LOG2 POP POP POP JUMP JUMPDEST PUSH1 0x4 SLOAD PUSH1 0x1 PUSH1 0xA8 SHL SWAP1 DIV PUSH1 0xFF AND ISZERO ISZERO PUSH1 0x1 EQ PUSH2 0x4E8 JUMPI PUSH1 0x40 MLOAD PUSH3 0x461BCD PUSH1 0xE5 SHL DUP2 MSTORE PUSH1 0x20 PUSH1 0x4 DUP3 ADD MSTORE PUSH1 0x1E PUSH1 0x24 DUP3 ADD MSTORE PUSH32 0x4E6F206D6F72652075706772616465732061726520706F737369626C652E0000 PUSH1 0x44 DUP3 ADD MSTORE PUSH1 0x64 ADD PUSH2 0x25F JUMP JUMPDEST PUSH1 0x0 DUP1 JUMPDEST PUSH1 0x5 DUP2 LT ISZERO PUSH2 0x6E3 JUMPI PUSH1 0x1 SLOAD PUSH1 0x3 SWAP1 PUSH1 0x1 PUSH1 0x1 PUSH1 0xA0 SHL SUB AND PUSH3 0xFDD58E CALLER PUSH2 0x514 DUP6 PUSH1 0x4 PUSH2 0x2BCC JUMP JUMPDEST PUSH1 0x40 MLOAD DUP4 PUSH4 0xFFFFFFFF AND PUSH1 0xE0 SHL DUP2 MSTORE PUSH1 0x4 ADD PUSH2 0x531 SWAP3 SWAP2 SWAP1 PUSH2 0x29E4 JUMP JUMPDEST PUSH1 0x20 PUSH1 0x40 MLOAD DUP1 DUP4 SUB DUP2 DUP7 DUP1 EXTCODESIZE ISZERO DUP1 ISZERO PUSH2 0x549 JUMPI PUSH1 0x0 DUP1 REVERT JUMPDEST POP GAS STATICCALL ISZERO DUP1 ISZERO PUSH2 0x55D JUMPI RETURNDATASIZE PUSH1 0x0 DUP1 RETURNDATACOPY RETURNDATASIZE PUSH1 0x0 REVERT JUMPDEST POP POP POP POP PUSH1 0x40 MLOAD RETURNDATASIZE PUSH1 0x1F NOT PUSH1 0x1F DUP3 ADD AND DUP3 ADD DUP1 PUSH1 0x40 MSTORE POP DUP2 ADD SWAP1 PUSH2 0x581 SWAP2 SWAP1 PUSH2 0x22C8 JUMP JUMPDEST LT ISZERO DUP1 PUSH2 0x623 JUMPI POP PUSH1 0x1 SLOAD PUSH1 0x3 SWAP1 PUSH1 0x1 PUSH1 0x1 PUSH1 0xA0 SHL SUB AND PUSH3 0xFDD58E CALLER PUSH2 0x5A8 DUP6 PUSH1 0x4 PUSH2 0x2BCC JUMP JUMPDEST PUSH2 0x5B3 SWAP1 PUSH1 0x1 PUSH2 0x2BA0 JUMP JUMPDEST PUSH1 0x40 MLOAD DUP4 PUSH4 0xFFFFFFFF AND PUSH1 0xE0 SHL DUP2 MSTORE PUSH1 0x4 ADD PUSH2 0x5D0 SWAP3 SWAP2 SWAP1 PUSH2 0x29E4 JUMP JUMPDEST PUSH1 0x20 PUSH1 0x40 MLOAD DUP1 DUP4 SUB DUP2 DUP7 DUP1 EXTCODESIZE ISZERO DUP1 ISZERO PUSH2 0x5E8 JUMPI PUSH1 0x0 DUP1 REVERT JUMPDEST POP GAS STATICCALL ISZERO DUP1 ISZERO PUSH2 0x5FC JUMPI RETURNDATASIZE PUSH1 0x0 DUP1 RETURNDATACOPY RETURNDATASIZE PUSH1 0x0 REVERT JUMPDEST POP POP POP POP PUSH1 0x40 MLOAD RETURNDATASIZE PUSH1 0x1F NOT PUSH1 0x1F DUP3 ADD AND DUP3 ADD DUP1 PUSH1 0x40 MSTORE POP DUP2 ADD SWAP1 PUSH2 0x620 SWAP2 SWAP1 PUSH2 0x22C8 JUMP JUMPDEST LT ISZERO JUMPDEST DUP1 PUSH2 0x6C3 JUMPI POP PUSH1 0x1 SLOAD PUSH1 0x3 SWAP1 PUSH1 0x1 PUSH1 0x1 PUSH1 0xA0 SHL SUB AND PUSH3 0xFDD58E CALLER PUSH2 0x648 DUP6 PUSH1 0x4 PUSH2 0x2BCC JUMP JUMPDEST PUSH2 0x653 SWAP1 PUSH1 0x2 PUSH2 0x2BA0 JUMP JUMPDEST PUSH1 0x40 MLOAD DUP4 PUSH4 0xFFFFFFFF AND PUSH1 0xE0 SHL DUP2 MSTORE PUSH1 0x4 ADD PUSH2 0x670 SWAP3 SWAP2 SWAP1 PUSH2 0x29E4 JUMP JUMPDEST PUSH1 0x20 PUSH1 0x40 MLOAD DUP1 DUP4 SUB DUP2 DUP7 DUP1 EXTCODESIZE ISZERO DUP1 ISZERO PUSH2 0x688 JUMPI PUSH1 0x0 DUP1 REVERT JUMPDEST POP GAS STATICCALL ISZERO DUP1 ISZERO PUSH2 0x69C JUMPI RETURNDATASIZE PUSH1 0x0 DUP1 RETURNDATACOPY RETURNDATASIZE PUSH1 0x0 REVERT JUMPDEST POP POP POP POP PUSH1 0x40 MLOAD RETURNDATASIZE PUSH1 0x1F NOT PUSH1 0x1F DUP3 ADD AND DUP3 ADD DUP1 PUSH1 0x40 MSTORE POP DUP2 ADD SWAP1 PUSH2 0x6C0 SWAP2 SWAP1 PUSH2 0x22C8 JUMP JUMPDEST LT ISZERO JUMPDEST ISZERO PUSH2 0x6D1 JUMPI PUSH1 0x1 SWAP2 POP PUSH2 0x6E3 JUMP JUMPDEST DUP1 PUSH2 0x6DB DUP2 PUSH2 0x2C02 JUMP JUMPDEST SWAP2 POP POP PUSH2 0x4EC JUMP JUMPDEST POP PUSH1 0x1 DUP2 ISZERO ISZERO EQ PUSH2 0x736 JUMPI PUSH1 0x40 MLOAD PUSH3 0x461BCD PUSH1 0xE5 SHL DUP2 MSTORE PUSH1 0x20 PUSH1 0x4 DUP3 ADD MSTORE PUSH1 0x19 PUSH1 0x24 DUP3 ADD MSTORE PUSH32 0x416C6C20636172647320617265206174206D6178696D756D2E00000000000000 PUSH1 0x44 DUP3 ADD MSTORE PUSH1 0x64 ADD PUSH2 0x25F JUMP JUMPDEST PUSH1 0x0 JUMPDEST PUSH1 0x5 DUP2 LT ISZERO PUSH2 0x11BE JUMPI PUSH1 0x1 SLOAD PUSH1 0x0 SWAP1 PUSH1 0x1 PUSH1 0x1 PUSH1 0xA0 SHL SUB AND PUSH3 0xFDD58E CALLER PUSH2 0x761 DUP6 PUSH1 0x4 PUSH2 0x2BCC JUMP JUMPDEST PUSH1 0x40 MLOAD DUP4 PUSH4 0xFFFFFFFF AND PUSH1 0xE0 SHL DUP2 MSTORE PUSH1 0x4 ADD PUSH2 0x77E SWAP3 SWAP2 SWAP1 PUSH2 0x29E4 JUMP JUMPDEST PUSH1 0x20 PUSH1 0x40 MLOAD DUP1 DUP4 SUB DUP2 DUP7 DUP1 EXTCODESIZE ISZERO DUP1 ISZERO PUSH2 0x796 JUMPI PUSH1 0x0 DUP1 REVERT JUMPDEST POP GAS STATICCALL ISZERO DUP1 ISZERO PUSH2 0x7AA JUMPI RETURNDATASIZE PUSH1 0x0 DUP1 RETURNDATACOPY RETURNDATASIZE PUSH1 0x0 REVERT JUMPDEST POP POP POP POP PUSH1 0x40 MLOAD RETURNDATASIZE PUSH1 0x1F NOT PUSH1 0x1F DUP3 ADD AND DUP3 ADD DUP1 PUSH1 0x40 MSTORE POP DUP2 ADD SWAP1 PUSH2 0x7CE SWAP2 SWAP1 PUSH2 0x22C8 JUMP JUMPDEST SWAP1 POP PUSH1 0x0 PUSH2 0x7DD PUSH1 0x1B DUP4 PUSH2 0x2BB8 JUMP JUMPDEST SWAP1 POP PUSH2 0x7EA DUP2 PUSH1 0x1B PUSH2 0x2BCC JUMP JUMPDEST PUSH2 0x7F4 SWAP1 DUP4 PUSH2 0x2BEB JUMP JUMPDEST SWAP2 POP PUSH1 0x0 PUSH2 0x803 PUSH1 0x9 DUP5 PUSH2 0x2BB8 JUMP JUMPDEST SWAP1 POP PUSH2 0x810 DUP2 PUSH1 0x9 PUSH2 0x2BCC JUMP JUMPDEST PUSH2 0x81A SWAP1 DUP5 PUSH2 0x2BEB JUMP JUMPDEST SWAP3 POP PUSH1 0x0 PUSH2 0x829 PUSH1 0x3 DUP6 PUSH2 0x2BB8 JUMP JUMPDEST SWAP1 POP PUSH2 0x836 DUP2 PUSH1 0x3 PUSH2 0x2BCC JUMP JUMPDEST PUSH2 0x840 SWAP1 DUP6 PUSH2 0x2BEB JUMP JUMPDEST PUSH1 0x1 SLOAD SWAP1 SWAP5 POP PUSH1 0x0 SWAP1 DUP6 SWAP1 PUSH1 0x1 PUSH1 0x1 PUSH1 0xA0 SHL SUB AND PUSH3 0xFDD58E CALLER PUSH2 0x864 DUP11 PUSH1 0x4 PUSH2 0x2BCC JUMP JUMPDEST PUSH1 0x40 MLOAD DUP4 PUSH4 0xFFFFFFFF AND PUSH1 0xE0 SHL DUP2 MSTORE PUSH1 0x4 ADD PUSH2 0x881 SWAP3 SWAP2 SWAP1 PUSH2 0x29E4 JUMP JUMPDEST PUSH1 0x20 PUSH1 0x40 MLOAD DUP1 DUP4 SUB DUP2 DUP7 DUP1 EXTCODESIZE ISZERO DUP1 ISZERO PUSH2 0x899 JUMPI PUSH1 0x0 DUP1 REVERT JUMPDEST POP GAS STATICCALL ISZERO DUP1 ISZERO PUSH2 0x8AD JUMPI RETURNDATASIZE PUSH1 0x0 DUP1 RETURNDATACOPY RETURNDATASIZE PUSH1 0x0 REVERT JUMPDEST POP POP POP POP PUSH1 0x40 MLOAD RETURNDATASIZE PUSH1 0x1F NOT PUSH1 0x1F DUP3 ADD AND DUP3 ADD DUP1 PUSH1 0x40 MSTORE POP DUP2 ADD SWAP1 PUSH2 0x8D1 SWAP2 SWAP1 PUSH2 0x22C8 JUMP JUMPDEST PUSH2 0x8DB SWAP2 SWAP1 PUSH2 0x2BEB JUMP JUMPDEST PUSH1 0x1 SLOAD SWAP1 SWAP2 POP PUSH1 0x1 PUSH1 0x1 PUSH1 0xA0 SHL SUB AND PUSH3 0xFDD58E CALLER PUSH2 0x8FA DUP10 PUSH1 0x4 PUSH2 0x2BCC JUMP JUMPDEST PUSH2 0x905 SWAP1 PUSH1 0x1 PUSH2 0x2BA0 JUMP JUMPDEST PUSH1 0x40 MLOAD DUP4 PUSH4 0xFFFFFFFF AND PUSH1 0xE0 SHL DUP2 MSTORE PUSH1 0x4 ADD PUSH2 0x922 SWAP3 SWAP2 SWAP1 PUSH2 0x29E4 JUMP JUMPDEST PUSH1 0x20 PUSH1 0x40 MLOAD DUP1 DUP4 SUB DUP2 DUP7 DUP1 EXTCODESIZE ISZERO DUP1 ISZERO PUSH2 0x93A JUMPI PUSH1 0x0 DUP1 REVERT JUMPDEST POP GAS STATICCALL ISZERO DUP1 ISZERO PUSH2 0x94E JUMPI RETURNDATASIZE PUSH1 0x0 DUP1 RETURNDATACOPY RETURNDATASIZE PUSH1 0x0 REVERT JUMPDEST POP POP POP POP PUSH1 0x40 MLOAD RETURNDATASIZE PUSH1 0x1F NOT PUSH1 0x1F DUP3 ADD AND DUP3 ADD DUP1 PUSH1 0x40 MSTORE POP DUP2 ADD SWAP1 PUSH2 0x972 SWAP2 SWAP1 PUSH2 0x22C8 JUMP JUMPDEST PUSH2 0x97C SWAP1 DUP4 PUSH2 0x2BA0 JUMP JUMPDEST SWAP2 POP PUSH1 0x0 PUSH2 0x98B PUSH1 0x9 DUP5 PUSH2 0x2BB8 JUMP JUMPDEST SWAP1 POP PUSH2 0x997 DUP2 DUP7 PUSH2 0x2BA0 JUMP JUMPDEST SWAP5 POP PUSH2 0x9A4 DUP2 PUSH1 0x9 PUSH2 0x2BCC JUMP JUMPDEST PUSH2 0x9AE SWAP1 DUP5 PUSH2 0x2BEB JUMP JUMPDEST SWAP3 POP PUSH1 0x0 PUSH2 0x9BD PUSH1 0x3 DUP6 PUSH2 0x2BB8 JUMP JUMPDEST SWAP1 POP PUSH2 0x9C9 DUP2 DUP7 PUSH2 0x2BA0 JUMP JUMPDEST SWAP5 POP PUSH2 0x9D6 DUP2 PUSH1 0x3 PUSH2 0x2BCC JUMP JUMPDEST PUSH2 0x9E0 SWAP1 DUP6 PUSH2 0x2BEB JUMP JUMPDEST PUSH1 0x1 SLOAD SWAP1 SWAP5 POP PUSH1 0x0 SWAP1 DUP2 SWAP1 DUP7 SWAP1 PUSH1 0x1 PUSH1 0x1 PUSH1 0xA0 SHL SUB AND PUSH3 0xFDD58E CALLER PUSH2 0xA06 DUP15 PUSH1 0x4 PUSH2 0x2BCC JUMP JUMPDEST PUSH2 0xA11 SWAP1 PUSH1 0x1 PUSH2 0x2BA0 JUMP JUMPDEST PUSH1 0x40 MLOAD DUP4 PUSH4 0xFFFFFFFF AND PUSH1 0xE0 SHL DUP2 MSTORE PUSH1 0x4 ADD PUSH2 0xA2E SWAP3 SWAP2 SWAP1 PUSH2 0x29E4 JUMP JUMPDEST PUSH1 0x20 PUSH1 0x40 MLOAD DUP1 DUP4 SUB DUP2 DUP7 DUP1 EXTCODESIZE ISZERO DUP1 ISZERO PUSH2 0xA46 JUMPI PUSH1 0x0 DUP1 REVERT JUMPDEST POP GAS STATICCALL ISZERO DUP1 ISZERO PUSH2 0xA5A JUMPI RETURNDATASIZE PUSH1 0x0 DUP1 RETURNDATACOPY RETURNDATASIZE PUSH1 0x0 REVERT JUMPDEST POP POP POP POP PUSH1 0x40 MLOAD RETURNDATASIZE PUSH1 0x1F NOT PUSH1 0x1F DUP3 ADD AND DUP3 ADD DUP1 PUSH1 0x40 MSTORE POP DUP2 ADD SWAP1 PUSH2 0xA7E SWAP2 SWAP1 PUSH2 0x22C8 JUMP JUMPDEST GT ISZERO PUSH2 0xB2B JUMPI PUSH1 0x1 SLOAD DUP7 SWAP1 PUSH1 0x1 PUSH1 0x1 PUSH1 0xA0 SHL SUB AND PUSH3 0xFDD58E CALLER PUSH2 0xAA2 DUP15 PUSH1 0x4 PUSH2 0x2BCC JUMP JUMPDEST PUSH2 0xAAD SWAP1 PUSH1 0x1 PUSH2 0x2BA0 JUMP JUMPDEST PUSH1 0x40 MLOAD DUP4 PUSH4 0xFFFFFFFF AND PUSH1 0xE0 SHL DUP2 MSTORE PUSH1 0x4 ADD PUSH2 0xACA SWAP3 SWAP2 SWAP1 PUSH2 0x29E4 JUMP JUMPDEST PUSH1 0x20 PUSH1 0x40 MLOAD DUP1 DUP4 SUB DUP2 DUP7 DUP1 EXTCODESIZE ISZERO DUP1 ISZERO PUSH2 0xAE2 JUMPI PUSH1 0x0 DUP1 REVERT JUMPDEST POP GAS STATICCALL ISZERO DUP1 ISZERO PUSH2 0xAF6 JUMPI RETURNDATASIZE PUSH1 0x0 DUP1 RETURNDATACOPY RETURNDATASIZE PUSH1 0x0 REVERT JUMPDEST POP POP POP POP PUSH1 0x40 MLOAD RETURNDATASIZE PUSH1 0x1F NOT PUSH1 0x1F DUP3 ADD AND DUP3 ADD DUP1 PUSH1 0x40 MSTORE POP DUP2 ADD SWAP1 PUSH2 0xB1A SWAP2 SWAP1 PUSH2 0x22C8 JUMP JUMPDEST PUSH2 0xB24 SWAP2 SWAP1 PUSH2 0x2BEB JUMP JUMPDEST SWAP2 POP PUSH2 0xBCC JUMP JUMPDEST PUSH1 0x1 SLOAD PUSH1 0x1 PUSH1 0x1 PUSH1 0xA0 SHL SUB AND PUSH3 0xFDD58E CALLER PUSH2 0xB47 DUP14 PUSH1 0x4 PUSH2 0x2BCC JUMP JUMPDEST PUSH2 0xB52 SWAP1 PUSH1 0x1 PUSH2 0x2BA0 JUMP JUMPDEST PUSH1 0x40 MLOAD DUP4 PUSH4 0xFFFFFFFF AND PUSH1 0xE0 SHL DUP2 MSTORE PUSH1 0x4 ADD PUSH2 0xB6F SWAP3 SWAP2 SWAP1 PUSH2 0x29E4 JUMP JUMPDEST PUSH1 0x20 PUSH1 0x40 MLOAD DUP1 DUP4 SUB DUP2 DUP7 DUP1 EXTCODESIZE ISZERO DUP1 ISZERO PUSH2 0xB87 JUMPI PUSH1 0x0 DUP1 REVERT JUMPDEST POP GAS STATICCALL ISZERO DUP1 ISZERO PUSH2 0xB9B JUMPI RETURNDATASIZE PUSH1 0x0 DUP1 RETURNDATACOPY RETURNDATASIZE PUSH1 0x0 REVERT JUMPDEST POP POP POP POP PUSH1 0x40 MLOAD RETURNDATASIZE PUSH1 0x1F NOT PUSH1 0x1F DUP3 ADD AND DUP3 ADD DUP1 PUSH1 0x40 MSTORE POP DUP2 ADD SWAP1 PUSH2 0xBBF SWAP2 SWAP1 PUSH2 0x22C8 JUMP JUMPDEST PUSH2 0xBC9 SWAP1 DUP8 PUSH2 0x2BEB JUMP JUMPDEST SWAP1 POP JUMPDEST PUSH1 0x1 SLOAD PUSH1 0x1 PUSH1 0x1 PUSH1 0xA0 SHL SUB AND PUSH3 0xFDD58E CALLER PUSH2 0xBE8 DUP14 PUSH1 0x4 PUSH2 0x2BCC JUMP JUMPDEST PUSH2 0xBF3 SWAP1 PUSH1 0x2 PUSH2 0x2BA0 JUMP JUMPDEST PUSH1 0x40 MLOAD DUP4 PUSH4 0xFFFFFFFF AND PUSH1 0xE0 SHL DUP2 MSTORE PUSH1 0x4 ADD PUSH2 0xC10 SWAP3 SWAP2 SWAP1 PUSH2 0x29E4 JUMP JUMPDEST PUSH1 0x20 PUSH1 0x40 MLOAD DUP1 DUP4 SUB DUP2 DUP7 DUP1 EXTCODESIZE ISZERO DUP1 ISZERO PUSH2 0xC28 JUMPI PUSH1 0x0 DUP1 REVERT JUMPDEST POP GAS STATICCALL ISZERO DUP1 ISZERO PUSH2 0xC3C JUMPI RETURNDATASIZE PUSH1 0x0 DUP1 RETURNDATACOPY RETURNDATASIZE PUSH1 0x0 REVERT JUMPDEST POP POP POP POP PUSH1 0x40 MLOAD RETURNDATASIZE PUSH1 0x1F NOT PUSH1 0x1F DUP3 ADD AND DUP3 ADD DUP1 PUSH1 0x40 MSTORE POP DUP2 ADD SWAP1 PUSH2 0xC60 SWAP2 SWAP1 PUSH2 0x22C8 JUMP JUMPDEST PUSH2 0xC6A SWAP1 DUP9 PUSH2 0x2BA0 JUMP JUMPDEST SWAP7 POP PUSH2 0xC77 PUSH1 0x3 DUP9 PUSH2 0x2BB8 JUMP JUMPDEST SWAP4 POP PUSH2 0xC83 DUP5 DUP10 PUSH2 0x2BA0 JUMP JUMPDEST SWAP8 POP PUSH2 0xC90 DUP5 PUSH1 0x3 PUSH2 0x2BCC JUMP JUMPDEST PUSH2 0xC9A SWAP1 DUP9 PUSH2 0x2BEB JUMP JUMPDEST SWAP7 POP PUSH1 0x0 DUP1 DUP9 PUSH1 0x1 PUSH1 0x0 SWAP1 SLOAD SWAP1 PUSH2 0x100 EXP SWAP1 DIV PUSH1 0x1 PUSH1 0x1 PUSH1 0xA0 SHL SUB AND PUSH1 0x1 PUSH1 0x1 PUSH1 0xA0 SHL SUB AND PUSH3 0xFDD58E CALLER DUP16 PUSH1 0x4 PUSH2 0xCD1 SWAP2 SWAP1 PUSH2 0x2BCC JUMP JUMPDEST PUSH2 0xCDC SWAP1 PUSH1 0x2 PUSH2 0x2BA0 JUMP JUMPDEST PUSH1 0x40 MLOAD DUP4 PUSH4 0xFFFFFFFF AND PUSH1 0xE0 SHL DUP2 MSTORE PUSH1 0x4 ADD PUSH2 0xCF9 SWAP3 SWAP2 SWAP1 PUSH2 0x29E4 JUMP JUMPDEST PUSH1 0x20 PUSH1 0x40 MLOAD DUP1 DUP4 SUB DUP2 DUP7 DUP1 EXTCODESIZE ISZERO DUP1 ISZERO PUSH2 0xD11 JUMPI PUSH1 0x0 DUP1 REVERT JUMPDEST POP GAS STATICCALL ISZERO DUP1 ISZERO PUSH2 0xD25 JUMPI RETURNDATASIZE PUSH1 0x0 DUP1 RETURNDATACOPY RETURNDATASIZE PUSH1 0x0 REVERT JUMPDEST POP POP POP POP PUSH1 0x40 MLOAD RETURNDATASIZE PUSH1 0x1F NOT PUSH1 0x1F DUP3 ADD AND DUP3 ADD DUP1 PUSH1 0x40 MSTORE POP DUP2 ADD SWAP1 PUSH2 0xD49 SWAP2 SWAP1 PUSH2 0x22C8 JUMP JUMPDEST GT ISZERO PUSH2 0xE0A JUMPI DUP9 PUSH1 0x1 PUSH1 0x0 SWAP1 SLOAD SWAP1 PUSH2 0x100 EXP SWAP1 DIV PUSH1 0x1 PUSH1 0x1 PUSH1 0xA0 SHL SUB AND PUSH1 0x1 PUSH1 0x1 PUSH1 0xA0 SHL SUB AND PUSH3 0xFDD58E CALLER DUP16 PUSH1 0x4 PUSH2 0xD81 SWAP2 SWAP1 PUSH2 0x2BCC JUMP JUMPDEST PUSH2 0xD8C SWAP1 PUSH1 0x2 PUSH2 0x2BA0 JUMP JUMPDEST PUSH1 0x40 MLOAD DUP4 PUSH4 0xFFFFFFFF AND PUSH1 0xE0 SHL DUP2 MSTORE PUSH1 0x4 ADD PUSH2 0xDA9 SWAP3 SWAP2 SWAP1 PUSH2 0x29E4 JUMP JUMPDEST PUSH1 0x20 PUSH1 0x40 MLOAD DUP1 DUP4 SUB DUP2 DUP7 DUP1 EXTCODESIZE ISZERO DUP1 ISZERO PUSH2 0xDC1 JUMPI PUSH1 0x0 DUP1 REVERT JUMPDEST POP GAS STATICCALL ISZERO DUP1 ISZERO PUSH2 0xDD5 JUMPI RETURNDATASIZE PUSH1 0x0 DUP1 RETURNDATACOPY RETURNDATASIZE PUSH1 0x0 REVERT JUMPDEST POP POP POP POP PUSH1 0x40 MLOAD RETURNDATASIZE PUSH1 0x1F NOT PUSH1 0x1F DUP3 ADD AND DUP3 ADD DUP1 PUSH1 0x40 MSTORE POP DUP2 ADD SWAP1 PUSH2 0xDF9 SWAP2 SWAP1 PUSH2 0x22C8 JUMP JUMPDEST PUSH2 0xE03 SWAP2 SWAP1 PUSH2 0x2BEB JUMP JUMPDEST SWAP2 POP PUSH2 0xEAB JUMP JUMPDEST PUSH1 0x1 SLOAD PUSH1 0x1 PUSH1 0x1 PUSH1 0xA0 SHL SUB AND PUSH3 0xFDD58E CALLER PUSH2 0xE26 DUP16 PUSH1 0x4 PUSH2 0x2BCC JUMP JUMPDEST PUSH2 0xE31 SWAP1 PUSH1 0x2 PUSH2 0x2BA0 JUMP JUMPDEST PUSH1 0x40 MLOAD DUP4 PUSH4 0xFFFFFFFF AND PUSH1 0xE0 SHL DUP2 MSTORE PUSH1 0x4 ADD PUSH2 0xE4E SWAP3 SWAP2 SWAP1 PUSH2 0x29E4 JUMP JUMPDEST PUSH1 0x20 PUSH1 0x40 MLOAD DUP1 DUP4 SUB DUP2 DUP7 DUP1 EXTCODESIZE ISZERO DUP1 ISZERO PUSH2 0xE66 JUMPI PUSH1 0x0 DUP1 REVERT JUMPDEST POP GAS STATICCALL ISZERO DUP1 ISZERO PUSH2 0xE7A JUMPI RETURNDATASIZE PUSH1 0x0 DUP1 RETURNDATACOPY RETURNDATASIZE PUSH1 0x0 REVERT JUMPDEST POP POP POP POP PUSH1 0x40 MLOAD RETURNDATASIZE PUSH1 0x1F NOT PUSH1 0x1F DUP3 ADD AND DUP3 ADD DUP1 PUSH1 0x40 MSTORE POP DUP2 ADD SWAP1 PUSH2 0xE9E SWAP2 SWAP1 PUSH2 0x22C8 JUMP JUMPDEST PUSH2 0xEA8 SWAP1 DUP11 PUSH2 0x2BEB JUMP JUMPDEST SWAP1 POP JUMPDEST DUP7 ISZERO PUSH2 0xF20 JUMPI PUSH1 0x1 SLOAD PUSH1 0x1 PUSH1 0x1 PUSH1 0xA0 SHL SUB AND PUSH4 0x995C9D77 PUSH2 0xECD DUP15 PUSH1 0x4 PUSH2 0x2BCC JUMP JUMPDEST CALLER DUP11 PUSH1 0x40 MLOAD DUP5 PUSH4 0xFFFFFFFF AND PUSH1 0xE0 SHL DUP2 MSTORE PUSH1 0x4 ADD PUSH2 0xEED SWAP4 SWAP3 SWAP2 SWAP1 PUSH2 0x2B5B JUMP JUMPDEST PUSH1 0x0 PUSH1 0x40 MLOAD DUP1 DUP4 SUB DUP2 PUSH1 0x0 DUP8 DUP1 EXTCODESIZE ISZERO DUP1 ISZERO PUSH2 0xF07 JUMPI PUSH1 0x0 DUP1 REVERT JUMPDEST POP GAS CALL ISZERO DUP1 ISZERO PUSH2 0xF1B JUMPI RETURNDATASIZE PUSH1 0x0 DUP1 RETURNDATACOPY RETURNDATASIZE PUSH1 0x0 REVERT JUMPDEST POP POP POP POP JUMPDEST DUP4 ISZERO PUSH2 0xFA0 JUMPI PUSH1 0x1 SLOAD PUSH1 0x1 PUSH1 0x1 PUSH1 0xA0 SHL SUB AND PUSH4 0x995C9D77 PUSH2 0xF42 DUP15 PUSH1 0x4 PUSH2 0x2BCC JUMP JUMPDEST PUSH2 0xF4D SWAP1 PUSH1 0x1 PUSH2 0x2BA0 JUMP JUMPDEST CALLER DUP8 PUSH1 0x40 MLOAD DUP5 PUSH4 0xFFFFFFFF AND PUSH1 0xE0 SHL DUP2 MSTORE PUSH1 0x4 ADD PUSH2 0xF6D SWAP4 SWAP3 SWAP2 SWAP1 PUSH2 0x2B5B JUMP JUMPDEST PUSH1 0x0 PUSH1 0x40 MLOAD DUP1 DUP4 SUB DUP2 PUSH1 0x0 DUP8 DUP1 EXTCODESIZE ISZERO DUP1 ISZERO PUSH2 0xF87 JUMPI PUSH1 0x0 DUP1 REVERT JUMPDEST POP GAS CALL ISZERO DUP1 ISZERO PUSH2 0xF9B JUMPI RETURNDATASIZE PUSH1 0x0 DUP1 RETURNDATACOPY RETURNDATASIZE PUSH1 0x0 REVERT JUMPDEST POP POP POP POP JUMPDEST DUP2 ISZERO PUSH2 0x1020 JUMPI PUSH1 0x1 SLOAD PUSH1 0x1 PUSH1 0x1 PUSH1 0xA0 SHL SUB AND PUSH4 0x995C9D77 PUSH2 0xFC2 DUP15 PUSH1 0x4 PUSH2 0x2BCC JUMP JUMPDEST PUSH2 0xFCD SWAP1 PUSH1 0x2 PUSH2 0x2BA0 JUMP JUMPDEST CALLER DUP6 PUSH1 0x40 MLOAD DUP5 PUSH4 0xFFFFFFFF AND PUSH1 0xE0 SHL DUP2 MSTORE PUSH1 0x4 ADD PUSH2 0xFED SWAP4 SWAP3 SWAP2 SWAP1 PUSH2 0x2B5B JUMP JUMPDEST PUSH1 0x0 PUSH1 0x40 MLOAD DUP1 DUP4 SUB DUP2 PUSH1 0x0 DUP8 DUP1 EXTCODESIZE ISZERO DUP1 ISZERO PUSH2 0x1007 JUMPI PUSH1 0x0 DUP1 REVERT JUMPDEST POP GAS CALL ISZERO DUP1 ISZERO PUSH2 0x101B JUMPI RETURNDATASIZE PUSH1 0x0 DUP1 RETURNDATACOPY RETURNDATASIZE PUSH1 0x0 REVERT JUMPDEST POP POP POP POP JUMPDEST DUP3 ISZERO PUSH2 0x10A0 JUMPI PUSH1 0x1 SLOAD PUSH1 0x1 PUSH1 0x1 PUSH1 0xA0 SHL SUB AND PUSH4 0x3FEB9F7D PUSH2 0x1042 DUP15 PUSH1 0x4 PUSH2 0x2BCC JUMP JUMPDEST PUSH2 0x104D SWAP1 PUSH1 0x1 PUSH2 0x2BA0 JUMP JUMPDEST CALLER DUP7 PUSH1 0x40 MLOAD DUP5 PUSH4 0xFFFFFFFF AND PUSH1 0xE0 SHL DUP2 MSTORE PUSH1 0x4 ADD PUSH2 0x106D SWAP4 SWAP3 SWAP2 SWAP1 PUSH2 0x2B5B JUMP JUMPDEST PUSH1 0x0 PUSH1 0x40 MLOAD DUP1 DUP4 SUB DUP2 PUSH1 0x0 DUP8 DUP1 EXTCODESIZE ISZERO DUP1 ISZERO PUSH2 0x1087 JUMPI PUSH1 0x0 DUP1 REVERT JUMPDEST POP GAS CALL ISZERO DUP1 ISZERO PUSH2 0x109B JUMPI RETURNDATASIZE PUSH1 0x0 DUP1 RETURNDATACOPY RETURNDATASIZE PUSH1 0x0 REVERT JUMPDEST POP POP POP POP JUMPDEST DUP1 ISZERO PUSH2 0x1120 JUMPI PUSH1 0x1 SLOAD PUSH1 0x1 PUSH1 0x1 PUSH1 0xA0 SHL SUB AND PUSH4 0x3FEB9F7D PUSH2 0x10C2 DUP15 PUSH1 0x4 PUSH2 0x2BCC JUMP JUMPDEST PUSH2 0x10CD SWAP1 PUSH1 0x2 PUSH2 0x2BA0 JUMP JUMPDEST CALLER DUP5 PUSH1 0x40 MLOAD DUP5 PUSH4 0xFFFFFFFF AND PUSH1 0xE0 SHL DUP2 MSTORE PUSH1 0x4 ADD PUSH2 0x10ED SWAP4 SWAP3 SWAP2 SWAP1 PUSH2 0x2B5B JUMP JUMPDEST PUSH1 0x0 PUSH1 0x40 MLOAD DUP1 DUP4 SUB DUP2 PUSH1 0x0 DUP8 DUP1 EXTCODESIZE ISZERO DUP1 ISZERO PUSH2 0x1107 JUMPI PUSH1 0x0 DUP1 REVERT JUMPDEST POP GAS CALL ISZERO DUP1 ISZERO PUSH2 0x111B JUMPI RETURNDATASIZE PUSH1 0x0 DUP1 RETURNDATACOPY RETURNDATASIZE PUSH1 0x0 REVERT JUMPDEST POP POP POP POP JUMPDEST DUP10 ISZERO PUSH2 0x11A0 JUMPI PUSH1 0x1 SLOAD PUSH1 0x1 PUSH1 0x1 PUSH1 0xA0 SHL SUB AND PUSH4 0x3FEB9F7D PUSH2 0x1142 DUP15 PUSH1 0x4 PUSH2 0x2BCC JUMP JUMPDEST PUSH2 0x114D SWAP1 PUSH1 0x3 PUSH2 0x2BA0 JUMP JUMPDEST CALLER DUP14 PUSH1 0x40 MLOAD DUP5 PUSH4 0xFFFFFFFF AND PUSH1 0xE0 SHL DUP2 MSTORE PUSH1 0x4 ADD PUSH2 0x116D SWAP4 SWAP3 SWAP2 SWAP1 PUSH2 0x2B5B JUMP JUMPDEST PUSH1 0x0 PUSH1 0x40 MLOAD DUP1 DUP4 SUB DUP2 PUSH1 0x0 DUP8 DUP1 EXTCODESIZE ISZERO DUP1 ISZERO PUSH2 0x1187 JUMPI PUSH1 0x0 DUP1 REVERT JUMPDEST POP GAS CALL ISZERO DUP1 ISZERO PUSH2 0x119B JUMPI RETURNDATASIZE PUSH1 0x0 DUP1 RETURNDATACOPY RETURNDATASIZE PUSH1 0x0 REVERT JUMPDEST POP POP POP POP JUMPDEST POP POP POP POP POP POP POP POP POP POP POP DUP1 DUP1 PUSH2 0x11B6 SWAP1 PUSH2 0x2C02 JUMP JUMPDEST SWAP2 POP POP PUSH2 0x739 JUMP JUMPDEST POP PUSH1 0x40 MLOAD CALLER SWAP1 PUSH32 0x2B3CE49B33919D106D8BD2245A230A4897E3A72996D9A1823EC0FCE8074A4318 SWAP1 PUSH1 0x0 SWAP1 LOG2 POP JUMP JUMPDEST PUSH1 0x4 SLOAD PUSH1 0x1 PUSH1 0x1 PUSH1 0xA0 SHL SUB AND CALLER EQ PUSH2 0x1204 JUMPI PUSH1 0x0 DUP1 REVERT JUMPDEST PUSH1 0x0 PUSH1 0x3 SLOAD GT PUSH2 0x1242 JUMPI PUSH1 0x40 MLOAD PUSH3 0x461BCD PUSH1 0xE5 SHL DUP2 MSTORE PUSH1 0x20 PUSH1 0x4 DUP3 ADD MSTORE PUSH1 0x9 PUSH1 0x24 DUP3 ADD MSTORE PUSH9 0x273790333AB7323997 PUSH1 0xB9 SHL PUSH1 0x44 DUP3 ADD MSTORE PUSH1 0x64 ADD PUSH2 0x25F JUMP JUMPDEST PUSH1 0x3 SLOAD PUSH1 0x40 MLOAD PUSH1 0x1 PUSH1 0x1 PUSH1 0xA0 SHL SUB DUP4 AND SWAP2 DUP1 ISZERO PUSH2 0x8FC MUL SWAP2 PUSH1 0x0 DUP2 DUP2 DUP2 DUP6 DUP9 DUP9 CALL SWAP4 POP POP POP POP ISZERO DUP1 ISZERO PUSH2 0x1279 JUMPI RETURNDATASIZE PUSH1 0x0 DUP1 RETURNDATACOPY RETURNDATASIZE PUSH1 0x0 REVERT JUMPDEST POP POP PUSH1 0x0 PUSH1 0x3 SSTORE JUMP JUMPDEST PUSH1 0x0 SLOAD PUSH2 0x100 SWAP1 DIV PUSH1 0xFF AND PUSH2 0x1296 JUMPI PUSH1 0x0 DUP1 REVERT JUMPDEST PUSH2 0x129E PUSH2 0x149D JUMP JUMPDEST POP POP JUMP JUMPDEST PUSH2 0x12AC CALLVALUE CALLER PUSH2 0x205 JUMP JUMPDEST JUMP JUMPDEST PUSH2 0x12AC PUSH2 0x48A JUMP JUMPDEST PUSH1 0x0 DUP1 SLOAD PUSH1 0x60 SWAP1 PUSH2 0x100 SWAP1 DIV PUSH1 0xFF AND PUSH2 0x12CE JUMPI PUSH1 0x0 DUP1 REVERT JUMPDEST PUSH2 0x12D6 PUSH2 0x1508 JUMP JUMPDEST SWAP2 POP SWAP3 POP SWAP3 SWAP1 POP JUMP JUMPDEST PUSH1 0x4 SLOAD PUSH1 0x1 PUSH1 0x1 PUSH1 0xA0 SHL SUB AND CALLER EQ PUSH2 0x12F6 JUMPI PUSH1 0x0 DUP1 REVERT JUMPDEST PUSH1 0x0 DUP1 SLOAD PUSH2 0xFFFF NOT AND SWAP4 ISZERO ISZERO PUSH2 0xFF00 NOT AND SWAP4 SWAP1 SWAP4 OR PUSH2 0x100 SWAP3 ISZERO ISZERO SWAP3 SWAP1 SWAP3 MUL SWAP2 SWAP1 SWAP2 OR PUSH3 0xFF0000 NOT AND PUSH3 0x10000 SWAP2 ISZERO ISZERO SWAP2 SWAP1 SWAP2 MUL OR SWAP1 SSTORE JUMP JUMPDEST PUSH1 0x4 SLOAD PUSH1 0x60 SWAP1 PUSH1 0x1 PUSH1 0x1 PUSH1 0xA0 SHL SUB AND CALLER EQ PUSH2 0x1349 JUMPI PUSH1 0x0 DUP1 REVERT JUMPDEST PUSH1 0x1 PUSH1 0x0 SWAP1 SLOAD SWAP1 PUSH2 0x100 EXP SWAP1 DIV PUSH1 0x1 PUSH1 0x1 PUSH1 0xA0 SHL SUB AND PUSH1 0x1 PUSH1 0x1 PUSH1 0xA0 SHL SUB AND PUSH4 0xA39FAC12 PUSH1 0x40 MLOAD DUP2 PUSH4 0xFFFFFFFF AND PUSH1 0xE0 SHL DUP2 MSTORE PUSH1 0x4 ADD PUSH1 0x0 PUSH1 0x40 MLOAD DUP1 DUP4 SUB DUP2 DUP7 DUP1 EXTCODESIZE ISZERO DUP1 ISZERO PUSH2 0x1397 JUMPI PUSH1 0x0 DUP1 REVERT JUMPDEST POP GAS STATICCALL ISZERO DUP1 ISZERO PUSH2 0x13AB JUMPI RETURNDATASIZE PUSH1 0x0 DUP1 RETURNDATACOPY RETURNDATASIZE PUSH1 0x0 REVERT JUMPDEST POP POP POP POP PUSH1 0x40 MLOAD RETURNDATASIZE PUSH1 0x0 DUP3 RETURNDATACOPY PUSH1 0x1F RETURNDATASIZE SWAP1 DUP2 ADD PUSH1 0x1F NOT AND DUP3 ADD PUSH1 0x40 MSTORE PUSH2 0x13D3 SWAP2 SWAP1 DUP2 ADD SWAP1 PUSH2 0x2147 JUMP JUMPDEST SWAP1 POP SWAP1 JUMP JUMPDEST PUSH1 0x4 SLOAD PUSH1 0x1 PUSH1 0x1 PUSH1 0xA0 SHL SUB AND CALLER EQ PUSH2 0x13EF JUMPI PUSH1 0x0 DUP1 REVERT JUMPDEST PUSH1 0x4 DUP1 SLOAD PUSH1 0x1 PUSH1 0x1 PUSH1 0xA0 SHL SUB NOT AND PUSH1 0x1 PUSH1 0x1 PUSH1 0xA0 SHL SUB SWAP3 SWAP1 SWAP3 AND SWAP2 SWAP1 SWAP2 OR SWAP1 SSTORE JUMP JUMPDEST PUSH1 0x4 SLOAD PUSH1 0x1 PUSH1 0x1 PUSH1 0xA0 SHL SUB AND CALLER EQ PUSH2 0x1428 JUMPI PUSH1 0x0 DUP1 REVERT JUMPDEST PUSH1 0x0 SLOAD PUSH2 0x100 SWAP1 DIV PUSH1 0xFF AND ISZERO PUSH2 0x1480 JUMPI PUSH1 0x40 MLOAD PUSH3 0x461BCD PUSH1 0xE5 SHL DUP2 MSTORE PUSH1 0x20 PUSH1 0x4 DUP3 ADD MSTORE PUSH1 0x1B PUSH1 0x24 DUP3 ADD MSTORE PUSH32 0x506C6561736520736574206B656570657220746F2066616C73652E0000000000 PUSH1 0x44 DUP3 ADD MSTORE PUSH1 0x64 ADD PUSH2 0x25F JUMP JUMPDEST PUSH1 0x0 PUSH2 0x148A PUSH2 0x1508 JUMP JUMPDEST SWAP1 POP DUP1 ISZERO PUSH2 0x149A JUMPI PUSH2 0x149A PUSH2 0x149D JUMP JUMPDEST POP JUMP JUMPDEST PUSH1 0x4 SLOAD PUSH1 0x1 PUSH1 0xA0 SHL SWAP1 DIV PUSH1 0xFF AND DUP1 ISZERO PUSH2 0x14BF JUMPI POP PUSH1 0x4 SLOAD PUSH1 0x1 PUSH1 0xA8 SHL SWAP1 DIV PUSH1 0xFF AND JUMPDEST PUSH2 0x14C8 JUMPI PUSH1 0x0 DUP1 REVERT JUMPDEST PUSH1 0xA SLOAD PUSH1 0xB SLOAD PUSH2 0x14D8 SWAP1 TIMESTAMP PUSH2 0x2BEB JUMP JUMPDEST GT ISZERO PUSH2 0x14EA JUMPI TIMESTAMP PUSH1 0xB SSTORE PUSH2 0x14EA PUSH2 0x156D JUMP JUMPDEST PUSH1 0x9 SLOAD PUSH1 0x8 SLOAD PUSH2 0x14FA SWAP1 TIMESTAMP PUSH2 0x2BEB JUMP JUMPDEST GT ISZERO PUSH2 0x12AC JUMPI PUSH2 0x12AC PUSH2 0x1A39 JUMP JUMPDEST PUSH1 0x4 SLOAD PUSH1 0x0 SWAP1 PUSH1 0x1 PUSH1 0xA0 SHL SWAP1 DIV PUSH1 0xFF AND DUP1 ISZERO PUSH2 0x152D JUMPI POP PUSH1 0x4 SLOAD PUSH1 0x1 PUSH1 0xA8 SHL SWAP1 DIV PUSH1 0xFF AND JUMPDEST PUSH2 0x1536 JUMPI PUSH1 0x0 DUP1 REVERT JUMPDEST PUSH1 0xA SLOAD PUSH1 0xB SLOAD PUSH2 0x1546 SWAP1 TIMESTAMP PUSH2 0x2BEB JUMP JUMPDEST GT ISZERO PUSH2 0x1550 JUMPI POP PUSH1 0x1 JUMPDEST PUSH1 0x9 SLOAD PUSH1 0x8 SLOAD PUSH2 0x1560 SWAP1 TIMESTAMP PUSH2 0x2BEB JUMP JUMPDEST GT ISZERO PUSH2 0x156A JUMPI POP PUSH1 0x1 JUMPDEST SWAP1 JUMP JUMPDEST PUSH1 0x0 SLOAD PUSH3 0x10000 SWAP1 DIV PUSH1 0xFF AND PUSH2 0x1A0E JUMPI PUSH1 0x0 JUMPDEST PUSH1 0x5 DUP2 LT ISZERO PUSH2 0x1A0C JUMPI PUSH1 0x40 DUP1 MLOAD TIMESTAMP PUSH1 0x20 DUP1 DUP4 ADD SWAP2 SWAP1 SWAP2 MSTORE DUP2 DUP4 ADD DUP5 SWAP1 MSTORE DUP3 MLOAD DUP1 DUP4 SUB DUP5 ADD DUP2 MSTORE PUSH1 0x60 SWAP1 SWAP3 ADD SWAP1 SWAP3 MSTORE DUP1 MLOAD SWAP2 ADD KECCAK256 PUSH2 0x15BE PUSH1 0x2 DUP3 PUSH2 0x2C1D JUMP JUMPDEST PUSH1 0xD DUP4 PUSH1 0x5 DUP2 LT PUSH2 0x15D1 JUMPI PUSH2 0x15D1 PUSH2 0x2C6A JUMP JUMPDEST PUSH1 0x10 SWAP2 DUP3 DUP3 DIV ADD SWAP2 SWAP1 MOD PUSH1 0x2 MUL DUP3 DUP3 DUP3 SWAP1 SLOAD SWAP1 PUSH2 0x100 EXP SWAP1 DIV PUSH2 0xFFFF AND PUSH2 0x15F8 SWAP2 SWAP1 PUSH2 0x2B7A JUMP JUMPDEST SWAP3 POP PUSH2 0x100 EXP DUP2 SLOAD DUP2 PUSH2 0xFFFF MUL NOT AND SWAP1 DUP4 PUSH2 0xFFFF AND MUL OR SWAP1 SSTORE POP PUSH1 0x0 PUSH1 0x2 DUP3 PUSH2 0x1621 SWAP2 SWAP1 PUSH2 0x2C1D JUMP JUMPDEST PUSH2 0xFFFF AND GT ISZERO PUSH2 0x19F9 JUMPI PUSH2 0x1636 PUSH1 0x3C DUP3 PUSH2 0x2C1D JUMP JUMPDEST PUSH2 0x1641 SWAP1 PUSH1 0x1E PUSH2 0x2B7A JUMP JUMPDEST PUSH1 0xC DUP4 PUSH1 0x5 DUP2 LT PUSH2 0x1654 JUMPI PUSH2 0x1654 PUSH2 0x2C6A JUMP JUMPDEST PUSH1 0x10 SWAP2 DUP3 DUP3 DIV ADD SWAP2 SWAP1 MOD PUSH1 0x2 MUL DUP3 DUP3 DUP3 SWAP1 SLOAD SWAP1 PUSH2 0x100 EXP SWAP1 DIV PUSH2 0xFFFF AND PUSH2 0x167B SWAP2 SWAP1 PUSH2 0x2B7A JUMP JUMPDEST SWAP3 POP PUSH2 0x100 EXP DUP2 SLOAD DUP2 PUSH2 0xFFFF MUL NOT AND SWAP1 DUP4 PUSH2 0xFFFF AND MUL OR SWAP1 SSTORE POP PUSH1 0x3 DUP2 PUSH2 0x16A2 SWAP2 SWAP1 PUSH2 0x2C1D JUMP JUMPDEST PUSH1 0xE DUP4 PUSH1 0x5 DUP2 LT PUSH2 0x16B5 JUMPI PUSH2 0x16B5 PUSH2 0x2C6A JUMP JUMPDEST PUSH1 0x10 SWAP2 DUP3 DUP3 DIV ADD SWAP2 SWAP1 MOD PUSH1 0x2 MUL DUP3 DUP3 DUP3 SWAP1 SLOAD SWAP1 PUSH2 0x100 EXP SWAP1 DIV PUSH2 0xFFFF AND PUSH2 0x16DC SWAP2 SWAP1 PUSH2 0x2B7A JUMP JUMPDEST SWAP3 POP PUSH2 0x100 EXP DUP2 SLOAD DUP2 PUSH2 0xFFFF MUL NOT AND SWAP1 DUP4 PUSH2 0xFFFF AND MUL OR SWAP1 SSTORE POP PUSH1 0x4 DUP2 PUSH2 0x1703 SWAP2 SWAP1 PUSH2 0x2C1D JUMP JUMPDEST PUSH1 0xF DUP4 PUSH1 0x5 DUP2 LT PUSH2 0x1716 JUMPI PUSH2 0x1716 PUSH2 0x2C6A JUMP JUMPDEST PUSH1 0x10 SWAP2 DUP3 DUP3 DIV ADD SWAP2 SWAP1 MOD PUSH1 0x2 MUL DUP3 DUP3 DUP3 SWAP1 SLOAD SWAP1 PUSH2 0x100 EXP SWAP1 DIV PUSH2 0xFFFF AND PUSH2 0x173D SWAP2 SWAP1 PUSH2 0x2B7A JUMP JUMPDEST SWAP3 POP PUSH2 0x100 EXP DUP2 SLOAD DUP2 PUSH2 0xFFFF MUL NOT AND SWAP1 DUP4 PUSH2 0xFFFF AND MUL OR SWAP1 SSTORE POP DUP2 PUSH1 0x0 EQ ISZERO PUSH2 0x18BE JUMPI PUSH2 0x176B PUSH1 0x32 DUP3 PUSH2 0x2C1D JUMP JUMPDEST PUSH2 0x1776 SWAP1 PUSH1 0xA PUSH2 0x2B7A JUMP JUMPDEST PUSH1 0x10 DUP1 SLOAD PUSH1 0x0 SWAP1 PUSH2 0x178C SWAP1 DUP5 SWAP1 PUSH2 0xFFFF AND PUSH2 0x2B7A JUMP JUMPDEST DUP3 SLOAD PUSH2 0xFFFF SWAP2 DUP3 AND PUSH2 0x100 SWAP4 SWAP1 SWAP4 EXP SWAP3 DUP4 MUL SWAP2 SWAP1 SWAP3 MUL NOT SWAP1 SWAP2 AND OR SWAP1 SSTORE POP PUSH1 0x1 SLOAD PUSH1 0x1 PUSH1 0x1 PUSH1 0xA0 SHL SUB AND PUSH4 0x5C7A8D27 DUP4 PUSH1 0xC DUP2 PUSH1 0x5 DUP2 LT PUSH2 0x17CF JUMPI PUSH2 0x17CF PUSH2 0x2C6A JUMP JUMPDEST PUSH1 0x10 SWAP2 DUP3 DUP3 DIV ADD SWAP2 SWAP1 MOD PUSH1 0x2 MUL SWAP1 SLOAD SWAP1 PUSH2 0x100 EXP SWAP1 DIV PUSH2 0xFFFF AND PUSH1 0xD DUP7 PUSH1 0x5 DUP2 LT PUSH2 0x17FC JUMPI PUSH2 0x17FC PUSH2 0x2C6A JUMP JUMPDEST PUSH1 0x10 SWAP2 DUP3 DUP3 DIV ADD SWAP2 SWAP1 MOD PUSH1 0x2 MUL SWAP1 SLOAD SWAP1 PUSH2 0x100 EXP SWAP1 DIV PUSH2 0xFFFF AND PUSH1 0xE DUP8 PUSH1 0x5 DUP2 LT PUSH2 0x1829 JUMPI PUSH2 0x1829 PUSH2 0x2C6A JUMP JUMPDEST PUSH1 0x10 DUP1 DUP3 DIV SWAP3 SWAP1 SWAP3 ADD SLOAD SWAP2 SLOAD PUSH1 0x40 MLOAD PUSH1 0xE0 DUP9 SWAP1 SHL PUSH1 0x1 PUSH1 0x1 PUSH1 0xE0 SHL SUB NOT AND DUP2 MSTORE PUSH1 0x4 DUP2 ADD SWAP7 SWAP1 SWAP7 MSTORE PUSH2 0xFFFF SWAP5 DUP6 AND PUSH1 0x24 DUP8 ADD MSTORE SWAP3 DUP5 AND PUSH1 0x44 DUP7 ADD MSTORE PUSH1 0xF AND PUSH1 0x2 MUL PUSH2 0x100 EXP SWAP1 DIV DUP3 AND PUSH1 0x64 DUP5 ADD MSTORE PUSH1 0x0 PUSH1 0x84 DUP5 ADD MSTORE AND PUSH1 0xA4 DUP3 ADD MSTORE PUSH1 0xC4 ADD PUSH1 0x0 PUSH1 0x40 MLOAD DUP1 DUP4 SUB DUP2 PUSH1 0x0 DUP8 DUP1 EXTCODESIZE ISZERO DUP1 ISZERO PUSH2 0x18A1 JUMPI PUSH1 0x0 DUP1 REVERT JUMPDEST POP GAS CALL ISZERO DUP1 ISZERO PUSH2 0x18B5 JUMPI RETURNDATASIZE PUSH1 0x0 DUP1 RETURNDATACOPY RETURNDATASIZE PUSH1 0x0 REVERT JUMPDEST POP POP POP POP PUSH2 0x19F9 JUMP JUMPDEST PUSH1 0x1 SLOAD PUSH1 0x1 PUSH1 0x1 PUSH1 0xA0 SHL SUB AND PUSH4 0x5C7A8D27 DUP4 PUSH1 0xC DUP2 PUSH1 0x5 DUP2 LT PUSH2 0x18E3 JUMPI PUSH2 0x18E3 PUSH2 0x2C6A JUMP JUMPDEST PUSH1 0x10 SWAP2 DUP3 DUP3 DIV ADD SWAP2 SWAP1 MOD PUSH1 0x2 MUL SWAP1 SLOAD SWAP1 PUSH2 0x100 EXP SWAP1 DIV PUSH2 0xFFFF AND PUSH1 0xD DUP7 PUSH1 0x5 DUP2 LT PUSH2 0x1910 JUMPI PUSH2 0x1910 PUSH2 0x2C6A JUMP JUMPDEST PUSH1 0x10 SWAP2 DUP3 DUP3 DIV ADD SWAP2 SWAP1 MOD PUSH1 0x2 MUL SWAP1 SLOAD SWAP1 PUSH2 0x100 EXP SWAP1 DIV PUSH2 0xFFFF AND PUSH1 0xE DUP8 PUSH1 0x5 DUP2 LT PUSH2 0x193D JUMPI PUSH2 0x193D PUSH2 0x2C6A JUMP JUMPDEST PUSH1 0x10 SWAP2 DUP3 DUP3 DIV ADD SWAP2 SWAP1 MOD PUSH1 0x2 MUL SWAP1 SLOAD SWAP1 PUSH2 0x100 EXP SWAP1 DIV PUSH2 0xFFFF AND PUSH1 0xF DUP9 PUSH1 0x5 DUP2 LT PUSH2 0x196A JUMPI PUSH2 0x196A PUSH2 0x2C6A JUMP JUMPDEST PUSH1 0x10 DUP2 DIV SWAP2 SWAP1 SWAP2 ADD SLOAD PUSH1 0x40 MLOAD PUSH1 0xE0 DUP9 SWAP1 SHL PUSH1 0x1 PUSH1 0x1 PUSH1 0xE0 SHL SUB NOT AND DUP2 MSTORE PUSH1 0x4 DUP2 ADD SWAP7 SWAP1 SWAP7 MSTORE PUSH2 0xFFFF SWAP5 DUP6 AND PUSH1 0x24 DUP8 ADD MSTORE SWAP3 DUP5 AND PUSH1 0x44 DUP7 ADD MSTORE SWAP1 DUP4 AND PUSH1 0x64 DUP6 ADD MSTORE PUSH1 0xF AND PUSH1 0x2 MUL PUSH2 0x100 EXP SWAP1 DIV AND PUSH1 0x84 DUP3 ADD MSTORE PUSH1 0x0 PUSH1 0xA4 DUP3 ADD MSTORE PUSH1 0xC4 ADD PUSH1 0x0 PUSH1 0x40 MLOAD DUP1 DUP4 SUB DUP2 PUSH1 0x0 DUP8 DUP1 EXTCODESIZE ISZERO DUP1 ISZERO PUSH2 0x19E0 JUMPI PUSH1 0x0 DUP1 REVERT JUMPDEST POP GAS CALL ISZERO DUP1 ISZERO PUSH2 0x19F4 JUMPI RETURNDATASIZE PUSH1 0x0 DUP1 RETURNDATACOPY RETURNDATASIZE PUSH1 0x0 REVERT JUMPDEST POP POP POP POP JUMPDEST POP DUP1 PUSH2 0x1A04 DUP2 PUSH2 0x2C02 JUMP JUMPDEST SWAP2 POP POP PUSH2 0x1580 JUMP JUMPDEST POP JUMPDEST PUSH1 0x40 MLOAD PUSH32 0x4DF4AE4164FE500D50794868E7C9215B69DD8BC8EA7D7204E582B420CBD18A93 SWAP1 PUSH1 0x0 SWAP1 LOG1 JUMP JUMPDEST PUSH1 0x4 SLOAD PUSH1 0x1 PUSH1 0xA0 SHL SWAP1 DIV PUSH1 0xFF AND ISZERO ISZERO PUSH1 0x1 EQ PUSH2 0x1A8A JUMPI PUSH1 0x40 MLOAD PUSH3 0x461BCD PUSH1 0xE5 SHL DUP2 MSTORE PUSH1 0x20 PUSH1 0x4 DUP3 ADD MSTORE PUSH1 0x10 PUSH1 0x24 DUP3 ADD MSTORE PUSH16 0x2930B33332B6103BB0B9903237B73297 PUSH1 0x81 SHL PUSH1 0x44 DUP3 ADD MSTORE PUSH1 0x64 ADD PUSH2 0x25F JUMP JUMPDEST PUSH1 0x4 DUP1 SLOAD PUSH2 0xFFFF PUSH1 0xA0 SHL NOT AND DUP2 SSTORE PUSH1 0x1 SLOAD PUSH1 0x40 DUP1 MLOAD PUSH4 0x51CFD609 PUSH1 0xE1 SHL DUP2 MSTORE SWAP1 MLOAD PUSH1 0x0 SWAP4 PUSH1 0x1 PUSH1 0x1 PUSH1 0xA0 SHL SUB SWAP1 SWAP4 AND SWAP3 PUSH4 0xA39FAC12 SWAP3 DUP1 DUP3 ADD SWAP3 DUP7 SWAP3 SWAP1 SWAP2 DUP3 SWAP1 SUB ADD DUP2 DUP7 DUP1 EXTCODESIZE ISZERO DUP1 ISZERO PUSH2 0x1ADC JUMPI PUSH1 0x0 DUP1 REVERT JUMPDEST POP GAS STATICCALL ISZERO DUP1 ISZERO PUSH2 0x1AF0 JUMPI RETURNDATASIZE PUSH1 0x0 DUP1 RETURNDATACOPY RETURNDATASIZE PUSH1 0x0 REVERT JUMPDEST POP POP POP POP PUSH1 0x40 MLOAD RETURNDATASIZE PUSH1 0x0 DUP3 RETURNDATACOPY PUSH1 0x1F RETURNDATASIZE SWAP1 DUP2 ADD PUSH1 0x1F NOT AND DUP3 ADD PUSH1 0x40 MSTORE PUSH2 0x1B18 SWAP2 SWAP1 DUP2 ADD SWAP1 PUSH2 0x2147 JUMP JUMPDEST SWAP1 POP PUSH1 0x0 JUMPDEST DUP2 MLOAD DUP2 LT ISZERO PUSH2 0x2062 JUMPI PUSH1 0x0 DUP1 PUSH1 0x0 JUMPDEST PUSH1 0x5 DUP2 LT ISZERO PUSH2 0x1F19 JUMPI PUSH1 0x1 SLOAD DUP6 MLOAD PUSH1 0x0 SWAP2 PUSH1 0x1 PUSH1 0x1 PUSH1 0xA0 SHL SUB AND SWAP1 PUSH3 0xFDD58E SWAP1 DUP9 SWAP1 DUP9 SWAP1 DUP2 LT PUSH2 0x1B5E JUMPI PUSH2 0x1B5E PUSH2 0x2C6A JUMP JUMPDEST PUSH1 0x20 MUL PUSH1 0x20 ADD ADD MLOAD DUP5 PUSH1 0x4 PUSH2 0x1B73 SWAP2 SWAP1 PUSH2 0x2BCC JUMP JUMPDEST PUSH1 0x40 MLOAD DUP4 PUSH4 0xFFFFFFFF AND PUSH1 0xE0 SHL DUP2 MSTORE PUSH1 0x4 ADD PUSH2 0x1B90 SWAP3 SWAP2 SWAP1 PUSH2 0x29E4 JUMP JUMPDEST PUSH1 0x20 PUSH1 0x40 MLOAD DUP1 DUP4 SUB DUP2 DUP7 DUP1 EXTCODESIZE ISZERO DUP1 ISZERO PUSH2 0x1BA8 JUMPI PUSH1 0x0 DUP1 REVERT JUMPDEST POP GAS STATICCALL ISZERO DUP1 ISZERO PUSH2 0x1BBC JUMPI RETURNDATASIZE PUSH1 0x0 DUP1 RETURNDATACOPY RETURNDATASIZE PUSH1 0x0 REVERT JUMPDEST POP POP POP POP PUSH1 0x40 MLOAD RETURNDATASIZE PUSH1 0x1F NOT PUSH1 0x1F DUP3 ADD AND DUP3 ADD DUP1 PUSH1 0x40 MSTORE POP DUP2 ADD SWAP1 PUSH2 0x1BE0 SWAP2 SWAP1 PUSH2 0x22C8 JUMP JUMPDEST PUSH2 0x1BEB SWAP1 PUSH1 0x1 PUSH2 0x2BCC JUMP JUMPDEST PUSH1 0x1 SLOAD DUP8 MLOAD SWAP2 SWAP3 POP PUSH1 0x1 PUSH1 0x1 PUSH1 0xA0 SHL SUB AND SWAP1 PUSH3 0xFDD58E SWAP1 DUP9 SWAP1 DUP9 SWAP1 DUP2 LT PUSH2 0x1C14 JUMPI PUSH2 0x1C14 PUSH2 0x2C6A JUMP JUMPDEST PUSH1 0x20 MUL PUSH1 0x20 ADD ADD MLOAD DUP5 PUSH1 0x4 PUSH2 0x1C29 SWAP2 SWAP1 PUSH2 0x2BCC JUMP JUMPDEST PUSH2 0x1C34 SWAP1 PUSH1 0x1 PUSH2 0x2BA0 JUMP JUMPDEST PUSH1 0x40 MLOAD DUP4 PUSH4 0xFFFFFFFF AND PUSH1 0xE0 SHL DUP2 MSTORE PUSH1 0x4 ADD PUSH2 0x1C51 SWAP3 SWAP2 SWAP1 PUSH2 0x29E4 JUMP JUMPDEST PUSH1 0x20 PUSH1 0x40 MLOAD DUP1 DUP4 SUB DUP2 DUP7 DUP1 EXTCODESIZE ISZERO DUP1 ISZERO PUSH2 0x1C69 JUMPI PUSH1 0x0 DUP1 REVERT JUMPDEST POP GAS STATICCALL ISZERO DUP1 ISZERO PUSH2 0x1C7D JUMPI RETURNDATASIZE PUSH1 0x0 DUP1 RETURNDATACOPY RETURNDATASIZE PUSH1 0x0 REVERT JUMPDEST POP POP POP POP PUSH1 0x40 MLOAD RETURNDATASIZE PUSH1 0x1F NOT PUSH1 0x1F DUP3 ADD AND DUP3 ADD DUP1 PUSH1 0x40 MSTORE POP DUP2 ADD SWAP1 PUSH2 0x1CA1 SWAP2 SWAP1 PUSH2 0x22C8 JUMP JUMPDEST PUSH2 0x1CAC SWAP1 PUSH1 0x4 PUSH2 0x2BCC JUMP JUMPDEST PUSH2 0x1CB6 SWAP1 DUP3 PUSH2 0x2BA0 JUMP JUMPDEST PUSH1 0x1 SLOAD DUP8 MLOAD SWAP2 SWAP3 POP PUSH1 0x1 PUSH1 0x1 PUSH1 0xA0 SHL SUB AND SWAP1 PUSH3 0xFDD58E SWAP1 DUP9 SWAP1 DUP9 SWAP1 DUP2 LT PUSH2 0x1CDF JUMPI PUSH2 0x1CDF PUSH2 0x2C6A JUMP JUMPDEST PUSH1 0x20 MUL PUSH1 0x20 ADD ADD MLOAD DUP5 PUSH1 0x4 PUSH2 0x1CF4 SWAP2 SWAP1 PUSH2 0x2BCC JUMP JUMPDEST PUSH2 0x1CFF SWAP1 PUSH1 0x2 PUSH2 0x2BA0 JUMP JUMPDEST PUSH1 0x40 MLOAD DUP4 PUSH4 0xFFFFFFFF AND PUSH1 0xE0 SHL DUP2 MSTORE PUSH1 0x4 ADD PUSH2 0x1D1C SWAP3 SWAP2 SWAP1 PUSH2 0x29E4 JUMP JUMPDEST PUSH1 0x20 PUSH1 0x40 MLOAD DUP1 DUP4 SUB DUP2 DUP7 DUP1 EXTCODESIZE ISZERO DUP1 ISZERO PUSH2 0x1D34 JUMPI PUSH1 0x0 DUP1 REVERT JUMPDEST POP GAS STATICCALL ISZERO DUP1 ISZERO PUSH2 0x1D48 JUMPI RETURNDATASIZE PUSH1 0x0 DUP1 RETURNDATACOPY RETURNDATASIZE PUSH1 0x0 REVERT JUMPDEST POP POP POP POP PUSH1 0x40 MLOAD RETURNDATASIZE PUSH1 0x1F NOT PUSH1 0x1F DUP3 ADD AND DUP3 ADD DUP1 PUSH1 0x40 MSTORE POP DUP2 ADD SWAP1 PUSH2 0x1D6C SWAP2 SWAP1 PUSH2 0x22C8 JUMP JUMPDEST PUSH2 0x1D77 SWAP1 PUSH1 0xF PUSH2 0x2BCC JUMP JUMPDEST PUSH2 0x1D81 SWAP1 DUP3 PUSH2 0x2BA0 JUMP JUMPDEST PUSH1 0x1 SLOAD DUP8 MLOAD SWAP2 SWAP3 POP PUSH1 0x1 PUSH1 0x1 PUSH1 0xA0 SHL SUB AND SWAP1 PUSH3 0xFDD58E SWAP1 DUP9 SWAP1 DUP9 SWAP1 DUP2 LT PUSH2 0x1DAA JUMPI PUSH2 0x1DAA PUSH2 0x2C6A JUMP JUMPDEST PUSH1 0x20 MUL PUSH1 0x20 ADD ADD MLOAD DUP5 PUSH1 0x4 PUSH2 0x1DBF SWAP2 SWAP1 PUSH2 0x2BCC JUMP JUMPDEST PUSH2 0x1DCA SWAP1 PUSH1 0x3 PUSH2 0x2BA0 JUMP JUMPDEST PUSH1 0x40 MLOAD DUP4 PUSH4 0xFFFFFFFF AND PUSH1 0xE0 SHL DUP2 MSTORE PUSH1 0x4 ADD PUSH2 0x1DE7 SWAP3 SWAP2 SWAP1 PUSH2 0x29E4 JUMP JUMPDEST PUSH1 0x20 PUSH1 0x40 MLOAD DUP1 DUP4 SUB DUP2 DUP7 DUP1 EXTCODESIZE ISZERO DUP1 ISZERO PUSH2 0x1DFF JUMPI PUSH1 0x0 DUP1 REVERT JUMPDEST POP GAS STATICCALL ISZERO DUP1 ISZERO PUSH2 0x1E13 JUMPI RETURNDATASIZE PUSH1 0x0 DUP1 RETURNDATACOPY RETURNDATASIZE PUSH1 0x0 REVERT JUMPDEST POP POP POP POP PUSH1 0x40 MLOAD RETURNDATASIZE PUSH1 0x1F NOT PUSH1 0x1F DUP3 ADD AND DUP3 ADD DUP1 PUSH1 0x40 MSTORE POP DUP2 ADD SWAP1 PUSH2 0x1E37 SWAP2 SWAP1 PUSH2 0x22C8 JUMP JUMPDEST PUSH2 0x1E42 SWAP1 PUSH1 0x1E PUSH2 0x2BCC JUMP JUMPDEST PUSH2 0x1E4C SWAP1 DUP3 PUSH2 0x2BA0 JUMP JUMPDEST PUSH1 0x1 SLOAD SWAP1 SWAP2 POP PUSH1 0x1 PUSH1 0x1 PUSH1 0xA0 SHL SUB AND PUSH4 0x203DA719 PUSH2 0x1E6B DUP5 PUSH1 0x4 PUSH2 0x2BCC JUMP JUMPDEST PUSH1 0x40 MLOAD DUP3 PUSH4 0xFFFFFFFF AND PUSH1 0xE0 SHL DUP2 MSTORE PUSH1 0x4 ADD PUSH2 0x1E89 SWAP2 DUP2 MSTORE PUSH1 0x20 ADD SWAP1 JUMP JUMPDEST PUSH1 0x20 PUSH1 0x40 MLOAD DUP1 DUP4 SUB DUP2 DUP7 DUP1 EXTCODESIZE ISZERO DUP1 ISZERO PUSH2 0x1EA1 JUMPI PUSH1 0x0 DUP1 REVERT JUMPDEST POP GAS STATICCALL ISZERO DUP1 ISZERO PUSH2 0x1EB5 JUMPI RETURNDATASIZE PUSH1 0x0 DUP1 RETURNDATACOPY RETURNDATASIZE PUSH1 0x0 REVERT JUMPDEST POP POP POP POP PUSH1 0x40 MLOAD RETURNDATASIZE PUSH1 0x1F NOT PUSH1 0x1F DUP3 ADD AND DUP3 ADD DUP1 PUSH1 0x40 MSTORE POP DUP2 ADD SWAP1 PUSH2 0x1ED9 SWAP2 SWAP1 PUSH2 0x22C8 JUMP JUMPDEST PUSH2 0x1EE3 SWAP1 DUP3 PUSH2 0x2BCC JUMP JUMPDEST SWAP1 POP DUP1 ISZERO PUSH2 0x1EF9 JUMPI PUSH2 0x1EF6 PUSH1 0x1 DUP5 PUSH2 0x2BA0 JUMP JUMPDEST SWAP3 POP JUMPDEST PUSH2 0x1F03 DUP2 DUP6 PUSH2 0x2BA0 JUMP JUMPDEST SWAP4 POP POP DUP1 DUP1 PUSH2 0x1F11 SWAP1 PUSH2 0x2C02 JUMP JUMPDEST SWAP2 POP POP PUSH2 0x1B2C JUMP JUMPDEST POP DUP2 ISZERO PUSH2 0x204D JUMPI PUSH1 0x5 DUP1 SLOAD PUSH1 0x1 DUP2 ADD DUP3 SSTORE PUSH1 0x0 SWAP2 SWAP1 SWAP2 MSTORE PUSH32 0x36B6384B5ECA791C62761152D0C79BB0604C104A5FB6F4EB0703F3154BB3DB0 ADD DUP3 SWAP1 SSTORE DUP4 MLOAD PUSH1 0x6 SWAP1 DUP6 SWAP1 DUP6 SWAP1 DUP2 LT PUSH2 0x1F6C JUMPI PUSH2 0x1F6C PUSH2 0x2C6A JUMP JUMPDEST PUSH1 0x20 SWAP1 DUP2 MUL SWAP2 SWAP1 SWAP2 ADD DUP2 ADD MLOAD DUP3 SLOAD PUSH1 0x1 DUP2 ADD DUP5 SSTORE PUSH1 0x0 SWAP4 DUP5 MSTORE SWAP2 SWAP1 SWAP3 KECCAK256 ADD DUP1 SLOAD PUSH1 0x1 PUSH1 0x1 PUSH1 0xA0 SHL SUB NOT AND PUSH1 0x1 PUSH1 0x1 PUSH1 0xA0 SHL SUB SWAP1 SWAP3 AND SWAP2 SWAP1 SWAP2 OR SWAP1 SSTORE PUSH1 0x5 DUP2 EQ ISZERO PUSH2 0x2002 JUMPI PUSH1 0x7 DUP1 SLOAD PUSH1 0x1 DUP2 ADD DUP3 SSTORE PUSH1 0x0 SWAP2 SWAP1 SWAP2 MSTORE PUSH1 0x20 DUP2 DIV PUSH32 0xA66CC928B5EDB82AF9BD49922954155AB7B0942694BEA4CE44661D9A8736C688 ADD DUP1 SLOAD PUSH1 0xFF PUSH1 0x1F SWAP1 SWAP4 AND PUSH2 0x100 EXP SWAP3 DUP4 MUL NOT AND SWAP1 SWAP2 OR SWAP1 SSTORE PUSH2 0x204D JUMP JUMPDEST PUSH1 0x7 DUP1 SLOAD PUSH1 0x1 DUP2 ADD DUP3 SSTORE PUSH1 0x0 SWAP2 SWAP1 SWAP2 MSTORE PUSH32 0xA66CC928B5EDB82AF9BD49922954155AB7B0942694BEA4CE44661D9A8736C688 PUSH1 0x20 DUP3 DIV ADD DUP1 SLOAD PUSH1 0x1F SWAP1 SWAP3 AND PUSH2 0x100 EXP PUSH1 0xFF MUL NOT SWAP1 SWAP2 AND SWAP1 SSTORE JUMPDEST POP POP DUP1 DUP1 PUSH2 0x205A SWAP1 PUSH2 0x2C02 JUMP JUMPDEST SWAP2 POP POP PUSH2 0x1B1D JUMP JUMPDEST POP PUSH1 0x0 SLOAD PUSH1 0x40 MLOAD PUSH4 0x1C049515 PUSH1 0xE0 SHL DUP2 MSTORE PUSH1 0x1 PUSH1 0x1 PUSH1 0xA0 SHL SUB PUSH4 0x1000000 DUP4 DIV AND SWAP2 PUSH4 0x1C049515 SWAP2 PUSH2 0x20A5 SWAP2 PUSH1 0x5 SWAP2 PUSH1 0x6 SWAP2 PUSH1 0x7 SWAP2 PUSH1 0xFF SWAP1 SWAP2 AND SWAP1 PUSH1 0x4 ADD PUSH2 0x2A4A JUMP JUMPDEST PUSH1 0x0 PUSH1 0x40 MLOAD DUP1 DUP4 SUB DUP2 PUSH1 0x0 DUP8 DUP1 EXTCODESIZE ISZERO DUP1 ISZERO PUSH2 0x20BF JUMPI PUSH1 0x0 DUP1 REVERT JUMPDEST POP GAS CALL ISZERO DUP1 ISZERO PUSH2 0x20D3 JUMPI RETURNDATASIZE PUSH1 0x0 DUP1 RETURNDATACOPY RETURNDATASIZE PUSH1 0x0 REVERT JUMPDEST POP POP PUSH1 0x40 MLOAD PUSH32 0x19F7095E53231C75FA1BBA7489C37A17BA180EC85470E65946E54837507A3075 SWAP3 POP PUSH1 0x0 SWAP2 POP LOG1 POP JUMP JUMPDEST DUP1 MLOAD PUSH2 0x210E DUP2 PUSH2 0x2C96 JUMP JUMPDEST SWAP2 SWAP1 POP JUMP JUMPDEST DUP1 CALLDATALOAD DUP1 ISZERO ISZERO DUP2 EQ PUSH2 0x210E JUMPI PUSH1 0x0 DUP1 REVERT JUMPDEST PUSH1 0x0 PUSH1 0x20 DUP3 DUP5 SUB SLT ISZERO PUSH2 0x2135 JUMPI PUSH1 0x0 DUP1 REVERT JUMPDEST DUP2 CALLDATALOAD PUSH2 0x2140 DUP2 PUSH2 0x2C96 JUMP JUMPDEST SWAP4 SWAP3 POP POP POP JUMP JUMPDEST PUSH1 0x0 PUSH1 0x20 DUP1 DUP4 DUP6 SUB SLT ISZERO PUSH2 0x215A JUMPI PUSH1 0x0 DUP1 REVERT JUMPDEST DUP3 MLOAD PUSH8 0xFFFFFFFFFFFFFFFF DUP1 DUP3 GT ISZERO PUSH2 0x2172 JUMPI PUSH1 0x0 DUP1 REVERT JUMPDEST DUP2 DUP6 ADD SWAP2 POP DUP6 PUSH1 0x1F DUP4 ADD SLT PUSH2 0x2186 JUMPI PUSH1 0x0 DUP1 REVERT JUMPDEST DUP2 MLOAD DUP2 DUP2 GT ISZERO PUSH2 0x2198 JUMPI PUSH2 0x2198 PUSH2 0x2C80 JUMP JUMPDEST DUP1 PUSH1 0x5 SHL PUSH1 0x40 MLOAD PUSH1 0x1F NOT PUSH1 0x3F DUP4 ADD AND DUP2 ADD DUP2 DUP2 LT DUP6 DUP3 GT OR ISZERO PUSH2 0x21BD JUMPI PUSH2 0x21BD PUSH2 0x2C80 JUMP JUMPDEST PUSH1 0x40 MSTORE DUP3 DUP2 MSTORE DUP6 DUP2 ADD SWAP4 POP DUP5 DUP7 ADD DUP3 DUP7 ADD DUP8 ADD DUP11 LT ISZERO PUSH2 0x21DC JUMPI PUSH1 0x0 DUP1 REVERT JUMPDEST PUSH1 0x0 SWAP6 POP JUMPDEST DUP4 DUP7 LT ISZERO PUSH2 0x2206 JUMPI PUSH2 0x21F2 DUP2 PUSH2 0x2103 JUMP JUMPDEST DUP6 MSTORE PUSH1 0x1 SWAP6 SWAP1 SWAP6 ADD SWAP5 SWAP4 DUP7 ADD SWAP4 DUP7 ADD PUSH2 0x21E1 JUMP JUMPDEST POP SWAP9 SWAP8 POP POP POP POP POP POP POP POP JUMP JUMPDEST PUSH1 0x0 DUP1 PUSH1 0x0 PUSH1 0x60 DUP5 DUP7 SUB SLT ISZERO PUSH2 0x2228 JUMPI PUSH1 0x0 DUP1 REVERT JUMPDEST PUSH2 0x2231 DUP5 PUSH2 0x2113 JUMP JUMPDEST SWAP3 POP PUSH2 0x223F PUSH1 0x20 DUP6 ADD PUSH2 0x2113 JUMP JUMPDEST SWAP2 POP PUSH2 0x224D PUSH1 0x40 DUP6 ADD PUSH2 0x2113 JUMP JUMPDEST SWAP1 POP SWAP3 POP SWAP3 POP SWAP3 JUMP JUMPDEST PUSH1 0x0 DUP1 PUSH1 0x20 DUP4 DUP6 SUB SLT ISZERO PUSH2 0x2269 JUMPI PUSH1 0x0 DUP1 REVERT JUMPDEST DUP3 CALLDATALOAD PUSH8 0xFFFFFFFFFFFFFFFF DUP1 DUP3 GT ISZERO PUSH2 0x2281 JUMPI PUSH1 0x0 DUP1 REVERT JUMPDEST DUP2 DUP6 ADD SWAP2 POP DUP6 PUSH1 0x1F DUP4 ADD SLT PUSH2 0x2295 JUMPI PUSH1 0x0 DUP1 REVERT JUMPDEST DUP2 CALLDATALOAD DUP2 DUP2 GT ISZERO PUSH2 0x22A4 JUMPI PUSH1 0x0 DUP1 REVERT JUMPDEST DUP7 PUSH1 0x20 DUP3 DUP6 ADD ADD GT ISZERO PUSH2 0x22B6 JUMPI PUSH1 0x0 DUP1 REVERT JUMPDEST PUSH1 0x20 SWAP3 SWAP1 SWAP3 ADD SWAP7 SWAP2 SWAP6 POP SWAP1 SWAP4 POP POP POP POP JUMP JUMPDEST PUSH1 0x0 PUSH1 0x20 DUP3 DUP5 SUB SLT ISZERO PUSH2 0x22DA JUMPI PUSH1 0x0 DUP1 REVERT JUMPDEST POP MLOAD SWAP2 SWAP1 POP JUMP JUMPDEST DUP1 SLOAD DUP1 DUP4 MSTORE PUSH1 0x0 DUP3 DUP2 MSTORE PUSH1 0x20 DUP1 DUP3 KECCAK256 SWAP5 ADD SWAP4 SWAP1 SWAP2 SWAP1 DUP3 JUMPDEST DUP3 PUSH1 0x1F DUP3 ADD LT ISZERO PUSH2 0x2568 JUMPI DUP2 SLOAD PUSH1 0xFF DUP1 DUP3 AND ISZERO ISZERO DUP9 MSTORE PUSH1 0x20 PUSH2 0x2322 DUP2 DUP11 ADD DUP4 DUP6 PUSH1 0x8 SHR AND ISZERO ISZERO SWAP1 MSTORE JUMP JUMPDEST PUSH1 0x40 PUSH2 0x2336 DUP2 DUP12 ADD DUP5 DUP7 PUSH1 0x10 SHR AND ISZERO ISZERO SWAP1 MSTORE JUMP JUMPDEST PUSH1 0x60 PUSH2 0x234A DUP2 DUP13 ADD DUP6 DUP8 PUSH1 0x18 SHR AND ISZERO ISZERO SWAP1 MSTORE JUMP JUMPDEST PUSH1 0x80 PUSH2 0x235D DUP2 DUP14 ADD DUP7 DUP9 DUP8 SHR AND ISZERO ISZERO SWAP1 MSTORE JUMP JUMPDEST PUSH1 0xA0 SWAP4 POP PUSH2 0x2373 DUP5 DUP14 ADD DUP7 DUP9 PUSH1 0x28 SHR AND ISZERO ISZERO SWAP1 MSTORE JUMP JUMPDEST PUSH1 0xC0 PUSH2 0x2387 DUP2 DUP15 ADD DUP8 DUP10 PUSH1 0x30 SHR AND ISZERO ISZERO SWAP1 MSTORE JUMP JUMPDEST PUSH1 0xE0 PUSH2 0x239B DUP2 DUP16 ADD DUP9 DUP11 PUSH1 0x38 SHR AND ISZERO ISZERO SWAP1 MSTORE JUMP JUMPDEST DUP8 DUP6 SHR DUP8 AND ISZERO ISZERO PUSH2 0x100 DUP16 ADD MSTORE PUSH2 0x23BC PUSH2 0x120 DUP16 ADD DUP9 DUP11 PUSH1 0x48 SHR AND ISZERO ISZERO SWAP1 MSTORE JUMP JUMPDEST PUSH2 0x23D0 PUSH2 0x140 DUP16 ADD DUP9 DUP11 PUSH1 0x50 SHR AND ISZERO ISZERO SWAP1 MSTORE JUMP JUMPDEST PUSH2 0x23E4 PUSH2 0x160 DUP16 ADD DUP9 DUP11 PUSH1 0x58 SHR AND ISZERO ISZERO SWAP1 MSTORE JUMP JUMPDEST DUP8 DUP5 SHR DUP8 AND ISZERO ISZERO PUSH2 0x180 DUP16 ADD MSTORE PUSH2 0x2405 PUSH2 0x1A0 DUP16 ADD DUP9 DUP11 PUSH1 0x68 SHR AND ISZERO ISZERO SWAP1 MSTORE JUMP JUMPDEST PUSH2 0x2419 PUSH2 0x1C0 DUP16 ADD DUP9 DUP11 PUSH1 0x70 SHR AND ISZERO ISZERO SWAP1 MSTORE JUMP JUMPDEST PUSH2 0x242D PUSH2 0x1E0 DUP16 ADD DUP9 DUP11 PUSH1 0x78 SHR AND ISZERO ISZERO SWAP1 MSTORE JUMP JUMPDEST DUP8 DUP4 SHR DUP8 AND ISZERO ISZERO PUSH2 0x200 DUP16 ADD MSTORE PUSH2 0x244E PUSH2 0x220 DUP16 ADD DUP9 DUP11 PUSH1 0x88 SHR AND ISZERO ISZERO SWAP1 MSTORE JUMP JUMPDEST PUSH2 0x2462 PUSH2 0x240 DUP16 ADD DUP9 DUP11 PUSH1 0x90 SHR AND ISZERO ISZERO SWAP1 MSTORE JUMP JUMPDEST PUSH2 0x2476 PUSH2 0x260 DUP16 ADD DUP9 DUP11 PUSH1 0x98 SHR AND ISZERO ISZERO SWAP1 MSTORE JUMP JUMPDEST DUP8 DUP7 SHR DUP8 AND ISZERO ISZERO PUSH2 0x280 DUP16 ADD MSTORE PUSH2 0x2497 PUSH2 0x2A0 DUP16 ADD DUP9 DUP11 PUSH1 0xA8 SHR AND ISZERO ISZERO SWAP1 MSTORE JUMP JUMPDEST PUSH2 0x24AB PUSH2 0x2C0 DUP16 ADD DUP9 DUP11 PUSH1 0xB0 SHR AND ISZERO ISZERO SWAP1 MSTORE JUMP JUMPDEST PUSH2 0x24BF PUSH2 0x2E0 DUP16 ADD DUP9 DUP11 PUSH1 0xB8 SHR AND ISZERO ISZERO SWAP1 MSTORE JUMP JUMPDEST DUP8 DUP3 SHR DUP8 AND ISZERO ISZERO PUSH2 0x300 DUP16 ADD MSTORE PUSH2 0x24E0 PUSH2 0x320 DUP16 ADD DUP9 DUP11 PUSH1 0xC8 SHR AND ISZERO ISZERO SWAP1 MSTORE JUMP JUMPDEST PUSH2 0x24F4 PUSH2 0x340 DUP16 ADD DUP9 DUP11 PUSH1 0xD0 SHR AND ISZERO ISZERO SWAP1 MSTORE JUMP JUMPDEST PUSH2 0x2508 PUSH2 0x360 DUP16 ADD DUP9 DUP11 PUSH1 0xD8 SHR AND ISZERO ISZERO SWAP1 MSTORE JUMP JUMPDEST DUP8 SWAP1 SHR DUP7 AND ISZERO ISZERO PUSH2 0x380 DUP15 ADD MSTORE POP POP POP POP POP PUSH1 0xE8 DUP3 SWAP1 SHR DUP2 AND ISZERO ISZERO PUSH2 0x3A0 DUP10 ADD MSTORE PUSH2 0x253D PUSH2 0x3C0 DUP10 ADD DUP3 DUP5 PUSH1 0xF0 SHR AND ISZERO ISZERO SWAP1 MSTORE JUMP JUMPDEST POP PUSH2 0x2550 PUSH2 0x3E0 DUP9 ADD DUP3 PUSH1 0xF8 SHR ISZERO ISZERO SWAP1 MSTORE JUMP JUMPDEST POP PUSH2 0x400 SWAP6 SWAP1 SWAP6 ADD SWAP5 PUSH1 0x1 SWAP2 SWAP1 SWAP2 ADD SWAP1 PUSH1 0x20 ADD PUSH2 0x22F8 JUMP JUMPDEST SWAP1 SLOAD SWAP1 DUP3 DUP2 LT ISZERO PUSH2 0x2585 JUMPI PUSH1 0xFF DUP3 AND ISZERO ISZERO DUP7 MSTORE PUSH1 0x20 SWAP1 SWAP6 ADD SWAP5 PUSH1 0x1 ADD JUMPDEST DUP3 DUP2 LT ISZERO PUSH2 0x25A9 JUMPI PUSH2 0x259E DUP7 PUSH1 0xFF DUP5 PUSH1 0x8 SHR AND ISZERO ISZERO SWAP1 MSTORE JUMP JUMPDEST PUSH1 0x20 SWAP6 SWAP1 SWAP6 ADD SWAP5 PUSH1 0x1 ADD JUMPDEST DUP3 DUP2 LT ISZERO PUSH2 0x25CD JUMPI PUSH2 0x25C2 DUP7 PUSH1 0xFF DUP5 PUSH1 0x10 SHR AND ISZERO ISZERO SWAP1 MSTORE JUMP JUMPDEST PUSH1 0x20 SWAP6 SWAP1 SWAP6 ADD SWAP5 PUSH1 0x1 ADD JUMPDEST DUP3 DUP2 LT ISZERO PUSH2 0x25F1 JUMPI PUSH2 0x25E6 DUP7 PUSH1 0xFF DUP5 PUSH1 0x18 SHR AND ISZERO ISZERO SWAP1 MSTORE JUMP JUMPDEST PUSH1 0x20 SWAP6 SWAP1 SWAP6 ADD SWAP5 PUSH1 0x1 ADD JUMPDEST DUP3 DUP2 LT ISZERO PUSH2 0x2615 JUMPI PUSH2 0x260A DUP7 PUSH1 0xFF DUP5 PUSH1 0x20 SHR AND ISZERO ISZERO SWAP1 MSTORE JUMP JUMPDEST PUSH1 0x20 SWAP6 SWAP1 SWAP6 ADD SWAP5 PUSH1 0x1 ADD JUMPDEST DUP3 DUP2 LT ISZERO PUSH2 0x2639 JUMPI PUSH2 0x262E DUP7 PUSH1 0xFF DUP5 PUSH1 0x28 SHR AND ISZERO ISZERO SWAP1 MSTORE JUMP JUMPDEST PUSH1 0x20 SWAP6 SWAP1 SWAP6 ADD SWAP5 PUSH1 0x1 ADD JUMPDEST DUP3 DUP2 LT ISZERO PUSH2 0x265D JUMPI PUSH2 0x2652 DUP7 PUSH1 0xFF DUP5 PUSH1 0x30 SHR AND ISZERO ISZERO SWAP1 MSTORE JUMP JUMPDEST PUSH1 0x20 SWAP6 SWAP1 SWAP6 ADD SWAP5 PUSH1 0x1 ADD JUMPDEST DUP3 DUP2 LT ISZERO PUSH2 0x2681 JUMPI PUSH2 0x2676 DUP7 PUSH1 0xFF DUP5 PUSH1 0x38 SHR AND ISZERO ISZERO SWAP1 MSTORE JUMP JUMPDEST PUSH1 0x20 SWAP6 SWAP1 SWAP6 ADD SWAP5 PUSH1 0x1 ADD JUMPDEST DUP3 DUP2 LT ISZERO PUSH2 0x26A5 JUMPI PUSH2 0x269A DUP7 PUSH1 0xFF DUP5 PUSH1 0x40 SHR AND ISZERO ISZERO SWAP1 MSTORE JUMP JUMPDEST PUSH1 0x20 SWAP6 SWAP1 SWAP6 ADD SWAP5 PUSH1 0x1 ADD JUMPDEST DUP3 DUP2 LT ISZERO PUSH2 0x26C9 JUMPI PUSH2 0x26BE DUP7 PUSH1 0xFF DUP5 PUSH1 0x48 SHR AND ISZERO ISZERO SWAP1 MSTORE JUMP JUMPDEST PUSH1 0x20 SWAP6 SWAP1 SWAP6 ADD SWAP5 PUSH1 0x1 ADD JUMPDEST DUP3 DUP2 LT ISZERO PUSH2 0x26ED JUMPI PUSH2 0x26E2 DUP7 PUSH1 0xFF DUP5 PUSH1 0x50 SHR AND ISZERO ISZERO SWAP1 MSTORE JUMP JUMPDEST PUSH1 0x20 SWAP6 SWAP1 SWAP6 ADD SWAP5 PUSH1 0x1 ADD JUMPDEST DUP3 DUP2 LT ISZERO PUSH2 0x2711 JUMPI PUSH2 0x2706 DUP7 PUSH1 0xFF DUP5 PUSH1 0x58 SHR AND ISZERO ISZERO SWAP1 MSTORE JUMP JUMPDEST PUSH1 0x20 SWAP6 SWAP1 SWAP6 ADD SWAP5 PUSH1 0x1 ADD JUMPDEST DUP3 DUP2 LT ISZERO PUSH2 0x2735 JUMPI PUSH2 0x272A DUP7 PUSH1 0xFF DUP5 PUSH1 0x60 SHR AND ISZERO ISZERO SWAP1 MSTORE JUMP JUMPDEST PUSH1 0x20 SWAP6 SWAP1 SWAP6 ADD SWAP5 PUSH1 0x1 ADD JUMPDEST DUP3 DUP2 LT ISZERO PUSH2 0x2759 JUMPI PUSH2 0x274E DUP7 PUSH1 0xFF DUP5 PUSH1 0x68 SHR AND ISZERO ISZERO SWAP1 MSTORE JUMP JUMPDEST PUSH1 0x20 SWAP6 SWAP1 SWAP6 ADD SWAP5 PUSH1 0x1 ADD JUMPDEST DUP3 DUP2 LT ISZERO PUSH2 0x277D JUMPI PUSH2 0x2772 DUP7 PUSH1 0xFF DUP5 PUSH1 0x70 SHR AND ISZERO ISZERO SWAP1 MSTORE JUMP JUMPDEST PUSH1 0x20 SWAP6 SWAP1 SWAP6 ADD SWAP5 PUSH1 0x1 ADD JUMPDEST DUP3 DUP2 LT ISZERO PUSH2 0x27A1 JUMPI PUSH2 0x2796 DUP7 PUSH1 0xFF DUP5 PUSH1 0x78 SHR AND ISZERO ISZERO SWAP1 MSTORE JUMP JUMPDEST PUSH1 0x20 SWAP6 SWAP1 SWAP6 ADD SWAP5 PUSH1 0x1 ADD JUMPDEST DUP3 DUP2 LT ISZERO PUSH2 0x27C5 JUMPI PUSH2 0x27BA DUP7 PUSH1 0xFF DUP5 PUSH1 0x80 SHR AND ISZERO ISZERO SWAP1 MSTORE JUMP JUMPDEST PUSH1 0x20 SWAP6 SWAP1 SWAP6 ADD SWAP5 PUSH1 0x1 ADD JUMPDEST DUP3 DUP2 LT ISZERO PUSH2 0x27E9 JUMPI PUSH2 0x27DE DUP7 PUSH1 0xFF DUP5 PUSH1 0x88 SHR AND ISZERO ISZERO SWAP1 MSTORE JUMP JUMPDEST PUSH1 0x20 SWAP6 SWAP1 SWAP6 ADD SWAP5 PUSH1 0x1 ADD JUMPDEST DUP3 DUP2 LT ISZERO PUSH2 0x280D JUMPI PUSH2 0x2802 DUP7 PUSH1 0xFF DUP5 PUSH1 0x90 SHR AND ISZERO ISZERO SWAP1 MSTORE JUMP JUMPDEST PUSH1 0x20 SWAP6 SWAP1 SWAP6 ADD SWAP5 PUSH1 0x1 ADD JUMPDEST DUP3 DUP2 LT ISZERO PUSH2 0x2831 JUMPI PUSH2 0x2826 DUP7 PUSH1 0xFF DUP5 PUSH1 0x98 SHR AND ISZERO ISZERO SWAP1 MSTORE JUMP JUMPDEST PUSH1 0x20 SWAP6 SWAP1 SWAP6 ADD SWAP5 PUSH1 0x1 ADD JUMPDEST DUP3 DUP2 LT ISZERO PUSH2 0x2855 JUMPI PUSH2 0x284A DUP7 PUSH1 0xFF DUP5 PUSH1 0xA0 SHR AND ISZERO ISZERO SWAP1 MSTORE JUMP JUMPDEST PUSH1 0x20 SWAP6 SWAP1 SWAP6 ADD SWAP5 PUSH1 0x1 ADD JUMPDEST DUP3 DUP2 LT ISZERO PUSH2 0x2879 JUMPI PUSH2 0x286E DUP7 PUSH1 0xFF DUP5 PUSH1 0xA8 SHR AND ISZERO ISZERO SWAP1 MSTORE JUMP JUMPDEST PUSH1 0x20 SWAP6 SWAP1 SWAP6 ADD SWAP5 PUSH1 0x1 ADD JUMPDEST DUP3 DUP2 LT ISZERO PUSH2 0x289D JUMPI PUSH2 0x2892 DUP7 PUSH1 0xFF DUP5 PUSH1 0xB0 SHR AND ISZERO ISZERO SWAP1 MSTORE JUMP JUMPDEST PUSH1 0x20 SWAP6 SWAP1 SWAP6 ADD SWAP5 PUSH1 0x1 ADD JUMPDEST DUP3 DUP2 LT ISZERO PUSH2 0x28C1 JUMPI PUSH2 0x28B6 DUP7 PUSH1 0xFF DUP5 PUSH1 0xB8 SHR AND ISZERO ISZERO SWAP1 MSTORE JUMP JUMPDEST PUSH1 0x20 SWAP6 SWAP1 SWAP6 ADD SWAP5 PUSH1 0x1 ADD JUMPDEST DUP3 DUP2 LT ISZERO PUSH2 0x28E5 JUMPI PUSH2 0x28DA DUP7 PUSH1 0xFF DUP5 PUSH1 0xC0 SHR AND ISZERO ISZERO SWAP1 MSTORE JUMP JUMPDEST PUSH1 0x20 SWAP6 SWAP1 SWAP6 ADD SWAP5 PUSH1 0x1 ADD JUMPDEST DUP3 DUP2 LT ISZERO PUSH2 0x2909 JUMPI PUSH2 0x28FE DUP7 PUSH1 0xFF DUP5 PUSH1 0xC8 SHR AND ISZERO ISZERO SWAP1 MSTORE JUMP JUMPDEST PUSH1 0x20 SWAP6 SWAP1 SWAP6 ADD SWAP5 PUSH1 0x1 ADD JUMPDEST DUP3 DUP2 LT ISZERO PUSH2 0x292D JUMPI PUSH2 0x2922 DUP7 PUSH1 0xFF DUP5 PUSH1 0xD0 SHR AND ISZERO ISZERO SWAP1 MSTORE JUMP JUMPDEST PUSH1 0x20 SWAP6 SWAP1 SWAP6 ADD SWAP5 PUSH1 0x1 ADD JUMPDEST DUP3 DUP2 LT ISZERO PUSH2 0x2951 JUMPI PUSH2 0x2946 DUP7 PUSH1 0xFF DUP5 PUSH1 0xD8 SHR AND ISZERO ISZERO SWAP1 MSTORE JUMP JUMPDEST PUSH1 0x20 SWAP6 SWAP1 SWAP6 ADD SWAP5 PUSH1 0x1 ADD JUMPDEST DUP3 DUP2 LT ISZERO PUSH2 0x2975 JUMPI PUSH2 0x296A DUP7 PUSH1 0xFF DUP5 PUSH1 0xE0 SHR AND ISZERO ISZERO SWAP1 MSTORE JUMP JUMPDEST PUSH1 0x20 SWAP6 SWAP1 SWAP6 ADD SWAP5 PUSH1 0x1 ADD JUMPDEST DUP3 DUP2 LT ISZERO PUSH2 0x2999 JUMPI PUSH2 0x298E DUP7 PUSH1 0xFF DUP5 PUSH1 0xE8 SHR AND ISZERO ISZERO SWAP1 MSTORE JUMP JUMPDEST PUSH1 0x20 SWAP6 SWAP1 SWAP6 ADD SWAP5 PUSH1 0x1 ADD JUMPDEST DUP3 DUP2 LT ISZERO PUSH2 0x29BD JUMPI PUSH2 0x29B2 DUP7 PUSH1 0xFF DUP5 PUSH1 0xF0 SHR AND ISZERO ISZERO SWAP1 MSTORE JUMP JUMPDEST PUSH1 0x20 SWAP6 SWAP1 SWAP6 ADD SWAP5 PUSH1 0x1 ADD JUMPDEST DUP3 DUP2 LT ISZERO PUSH2 0x29DA JUMPI PUSH2 0x29D3 DUP7 DUP4 PUSH1 0xF8 SHR ISZERO ISZERO SWAP1 MSTORE JUMP JUMPDEST PUSH1 0x20 DUP7 ADD SWAP6 POP JUMPDEST POP SWAP4 SWAP5 SWAP4 POP POP POP POP JUMP JUMPDEST PUSH1 0x1 PUSH1 0x1 PUSH1 0xA0 SHL SUB SWAP3 SWAP1 SWAP3 AND DUP3 MSTORE PUSH1 0x20 DUP3 ADD MSTORE PUSH1 0x40 ADD SWAP1 JUMP JUMPDEST PUSH1 0x20 DUP1 DUP3 MSTORE DUP3 MLOAD DUP3 DUP3 ADD DUP2 SWAP1 MSTORE PUSH1 0x0 SWAP2 SWAP1 DUP5 DUP3 ADD SWAP1 PUSH1 0x40 DUP6 ADD SWAP1 DUP5 JUMPDEST DUP2 DUP2 LT ISZERO PUSH2 0x2A3E JUMPI DUP4 MLOAD PUSH1 0x1 PUSH1 0x1 PUSH1 0xA0 SHL SUB AND DUP4 MSTORE SWAP3 DUP5 ADD SWAP3 SWAP2 DUP5 ADD SWAP2 PUSH1 0x1 ADD PUSH2 0x2A19 JUMP JUMPDEST POP SWAP1 SWAP7 SWAP6 POP POP POP POP POP POP JUMP JUMPDEST PUSH1 0x0 PUSH1 0x80 DUP3 ADD PUSH1 0x80 DUP4 MSTORE DUP1 DUP8 SLOAD DUP1 DUP4 MSTORE PUSH1 0xA0 DUP6 ADD SWAP2 POP PUSH1 0x0 SWAP3 POP DUP9 DUP4 MSTORE PUSH1 0x20 DUP1 DUP5 KECCAK256 DUP5 JUMPDEST DUP4 DUP2 LT ISZERO PUSH2 0x2A8A JUMPI DUP2 SLOAD DUP6 MSTORE SWAP4 DUP3 ADD SWAP4 PUSH1 0x1 SWAP2 DUP3 ADD SWAP2 ADD PUSH2 0x2A6E JUMP JUMPDEST POP POP DUP6 DUP4 SUB DUP2 DUP8 ADD MSTORE DUP9 SLOAD DUP1 DUP5 MSTORE DUP10 DUP6 MSTORE DUP2 DUP6 KECCAK256 SWAP4 DUP3 ADD SWAP3 POP JUMPDEST DUP1 DUP6 LT ISZERO PUSH2 0x2ACC JUMPI DUP4 SLOAD PUSH1 0x1 PUSH1 0x1 PUSH1 0xA0 SHL SUB AND DUP4 MSTORE PUSH1 0x1 SWAP5 DUP6 ADD SWAP5 SWAP1 SWAP4 ADD SWAP3 SWAP2 DUP2 ADD SWAP2 PUSH2 0x2AA4 JUMP JUMPDEST POP POP DUP5 DUP2 SUB PUSH1 0x40 DUP7 ADD MSTORE PUSH2 0x2AE0 DUP2 DUP9 PUSH2 0x22E1 JUMP JUMPDEST SWAP4 POP POP POP POP PUSH2 0x2AF3 PUSH1 0x60 DUP4 ADD DUP5 ISZERO ISZERO SWAP1 MSTORE JUMP JUMPDEST SWAP6 SWAP5 POP POP POP POP POP JUMP JUMPDEST DUP3 ISZERO ISZERO DUP2 MSTORE PUSH1 0x0 PUSH1 0x20 PUSH1 0x40 DUP2 DUP5 ADD MSTORE DUP4 MLOAD DUP1 PUSH1 0x40 DUP6 ADD MSTORE PUSH1 0x0 JUMPDEST DUP2 DUP2 LT ISZERO PUSH2 0x2B32 JUMPI DUP6 DUP2 ADD DUP4 ADD MLOAD DUP6 DUP3 ADD PUSH1 0x60 ADD MSTORE DUP3 ADD PUSH2 0x2B16 JUMP JUMPDEST DUP2 DUP2 GT ISZERO PUSH2 0x2B44 JUMPI PUSH1 0x0 PUSH1 0x60 DUP4 DUP8 ADD ADD MSTORE JUMPDEST POP PUSH1 0x1F ADD PUSH1 0x1F NOT AND SWAP3 SWAP1 SWAP3 ADD PUSH1 0x60 ADD SWAP5 SWAP4 POP POP POP POP JUMP JUMPDEST SWAP3 DUP4 MSTORE PUSH1 0x1 PUSH1 0x1 PUSH1 0xA0 SHL SUB SWAP2 SWAP1 SWAP2 AND PUSH1 0x20 DUP4 ADD MSTORE PUSH1 0x40 DUP3 ADD MSTORE PUSH1 0x60 ADD SWAP1 JUMP JUMPDEST PUSH1 0x0 PUSH2 0xFFFF DUP1 DUP4 AND DUP2 DUP6 AND DUP1 DUP4 SUB DUP3 GT ISZERO PUSH2 0x2B97 JUMPI PUSH2 0x2B97 PUSH2 0x2C3E JUMP JUMPDEST ADD SWAP5 SWAP4 POP POP POP POP JUMP JUMPDEST PUSH1 0x0 DUP3 NOT DUP3 GT ISZERO PUSH2 0x2BB3 JUMPI PUSH2 0x2BB3 PUSH2 0x2C3E JUMP JUMPDEST POP ADD SWAP1 JUMP JUMPDEST PUSH1 0x0 DUP3 PUSH2 0x2BC7 JUMPI PUSH2 0x2BC7 PUSH2 0x2C54 JUMP JUMPDEST POP DIV SWAP1 JUMP JUMPDEST PUSH1 0x0 DUP2 PUSH1 0x0 NOT DIV DUP4 GT DUP3 ISZERO ISZERO AND ISZERO PUSH2 0x2BE6 JUMPI PUSH2 0x2BE6 PUSH2 0x2C3E JUMP JUMPDEST POP MUL SWAP1 JUMP JUMPDEST PUSH1 0x0 DUP3 DUP3 LT ISZERO PUSH2 0x2BFD JUMPI PUSH2 0x2BFD PUSH2 0x2C3E JUMP JUMPDEST POP SUB SWAP1 JUMP JUMPDEST PUSH1 0x0 PUSH1 0x0 NOT DUP3 EQ ISZERO PUSH2 0x2C16 JUMPI PUSH2 0x2C16 PUSH2 0x2C3E JUMP JUMPDEST POP PUSH1 0x1 ADD SWAP1 JUMP JUMPDEST PUSH1 0x0 PUSH2 0xFFFF DUP1 DUP5 AND DUP1 PUSH2 0x2C32 JUMPI PUSH2 0x2C32 PUSH2 0x2C54 JUMP JUMPDEST SWAP3 AND SWAP2 SWAP1 SWAP2 MOD SWAP3 SWAP2 POP POP JUMP JUMPDEST PUSH4 0x4E487B71 PUSH1 0xE0 SHL PUSH1 0x0 MSTORE PUSH1 0x11 PUSH1 0x4 MSTORE PUSH1 0x24 PUSH1 0x0 REVERT JUMPDEST PUSH4 0x4E487B71 PUSH1 0xE0 SHL PUSH1 0x0 MSTORE PUSH1 0x12 PUSH1 0x4 MSTORE PUSH1 0x24 PUSH1 0x0 REVERT JUMPDEST PUSH4 0x4E487B71 PUSH1 0xE0 SHL PUSH1 0x0 MSTORE PUSH1 0x32 PUSH1 0x4 MSTORE PUSH1 0x24 PUSH1 0x0 REVERT JUMPDEST PUSH4 0x4E487B71 PUSH1 0xE0 SHL PUSH1 0x0 MSTORE PUSH1 0x41 PUSH1 0x4 MSTORE PUSH1 0x24 PUSH1 0x0 REVERT JUMPDEST PUSH1 0x1 PUSH1 0x1 PUSH1 0xA0 SHL SUB DUP2 AND DUP2 EQ PUSH2 0x149A JUMPI PUSH1 0x0 DUP1 REVERT INVALID LOG2 PUSH5 0x6970667358 0x22 SLT KECCAK256 PUSH1 0x73 SLT SWAP7 PUSH15 0x55D0E028A94F09DA38BD477D44711 SELFBALANCE 0x2D PUSH2 0xC7D6 SWAP11 MSTORE8 DIFFICULTY PUSH19 0x3B4DB164736F6C634300080700330000000000 "
		},
		"gasEstimates": {
			"creation": {
				"codeDepositCost": "2297800",
				"executionCost": "infinite",
				"totalCost": "infinite"
			},
			"external": {
				"buyPlayer()": "infinite",
				"changeOwner(address)": "26793",
				"changeSimulation(bool,bool,bool)": "infinite",
				"checkOracle()": "2307",
				"checkUpkeep(bytes)": "infinite",
				"getAddresses()": "infinite",
				"lastOracle()": "2306",
				"performUpkeep(bytes)": "infinite",
				"simulateKeeper()": "infinite",
				"upgradeAllToMax()": "infinite",
				"withDraw(address)": "infinite"
			},
			"internal": {
				"_buyPlayer(uint256,address)": "infinite",
				"_checkUpkeep()": "infinite",
				"_createDistributionForRaffel()": "infinite",
				"_performUpkeep()": "infinite",
				"_updatePlayer()": "infinite",
				"_upgradeAllToMax()": "infinite"
			}
		},
		"methodIdentifiers": {
			"buyPlayer()": "49f22cd8",
			"changeOwner(address)": "a6f9dae1",
			"changeSimulation(bool,bool,bool)": "8e3f94ad",
			"checkOracle()": "261e5636",
			"checkUpkeep(bytes)": "6e04ff0d",
			"getAddresses()": "a39fac12",
			"lastOracle()": "72f603cc",
			"performUpkeep(bytes)": "4585e33b",
			"simulateKeeper()": "a7cf018a",
			"upgradeAllToMax()": "593292b6",
			"withDraw(address)": "0a67d2c7"
		}
	},
	"abi": [
		{
			"inputs": [
				{
					"internalType": "address",
					"name": "mintingProcess_address",
					"type": "address"
				},
				{
					"internalType": "address",
					"name": "createNFT_address",
					"type": "address"
				},
				{
					"internalType": "bool",
					"name": "_vrf",
					"type": "bool"
				},
				{
					"internalType": "bool",
					"name": "_keeper",
					"type": "bool"
				},
				{
					"internalType": "bool",
					"name": "_oracle",
					"type": "bool"
				},
				{
					"internalType": "uint256",
					"name": "_startRaffel",
					"type": "uint256"
				},
				{
					"internalType": "uint256",
					"name": "_checkOracle",
					"type": "uint256"
				}
			],
			"stateMutability": "nonpayable",
			"type": "constructor"
		},
		{
			"anonymous": false,
			"inputs": [
				{
					"indexed": false,
					"internalType": "uint256",
					"name": "price",
					"type": "uint256"
				},
				{
					"indexed": false,
					"internalType": "uint256",
					"name": "numberOfNewPlayers",
					"type": "uint256"
				},
				{
					"indexed": true,
					"internalType": "address",
					"name": "owner",
					"type": "address"
				}
			],
			"name": "BuyPlayers",
			"type": "event"
		},
		{
			"anonymous": false,
			"inputs": [],
			"name": "DrawWinnerOfRaffel",
			"type": "event"
		},
		{
			"anonymous": false,
			"inputs": [
				{
					"indexed": false,
					"internalType": "uint256",
					"name": "tokenId",
					"type": "uint256"
				},
				{
					"indexed": true,
					"internalType": "address",
					"name": "owner",
					"type": "address"
				}
			],
			"name": "TeanNFT",
			"type": "event"
		},
		{
			"anonymous": false,
			"inputs": [
				{
					"indexed": false,
					"internalType": "uint256",
					"name": "tokenId",
					"type": "uint256"
				},
				{
					"indexed": true,
					"internalType": "address",
					"name": "owner",
					"type": "address"
				}
			],
			"name": "UniqueNFT",
			"type": "event"
		},
		{
			"anonymous": false,
			"inputs": [],
			"name": "UpdatePlayer",
			"type": "event"
		},
		{
			"anonymous": false,
			"inputs": [
				{
					"indexed": true,
					"internalType": "address",
					"name": "owner",
					"type": "address"
				}
			],
			"name": "UpgradeAllTokens",
			"type": "event"
		},
		{
			"inputs": [],
			"name": "buyPlayer",
			"outputs": [],
			"stateMutability": "payable",
			"type": "function"
		},
		{
			"inputs": [
				{
					"internalType": "address",
					"name": "_newOwner",
					"type": "address"
				}
			],
			"name": "changeOwner",
			"outputs": [],
			"stateMutability": "nonpayable",
			"type": "function"
		},
		{
			"inputs": [
				{
					"internalType": "bool",
					"name": "_vrf",
					"type": "bool"
				},
				{
					"internalType": "bool",
					"name": "_keeper",
					"type": "bool"
				},
				{
					"internalType": "bool",
					"name": "_oracle",
					"type": "bool"
				}
			],
			"name": "changeSimulation",
			"outputs": [],
			"stateMutability": "nonpayable",
			"type": "function"
		},
		{
			"inputs": [],
			"name": "checkOracle",
			"outputs": [
				{
					"internalType": "uint256",
					"name": "",
					"type": "uint256"
				}
			],
			"stateMutability": "view",
			"type": "function"
		},
		{
			"inputs": [
				{
					"internalType": "bytes",
					"name": "",
					"type": "bytes"
				}
			],
			"name": "checkUpkeep",
			"outputs": [
				{
					"internalType": "bool",
					"name": "upkeepNeeded",
					"type": "bool"
				},
				{
					"internalType": "bytes",
					"name": "performData",
					"type": "bytes"
				}
			],
			"stateMutability": "view",
			"type": "function"
		},
		{
			"inputs": [],
			"name": "getAddresses",
			"outputs": [
				{
					"internalType": "address[]",
					"name": "_nft_addresses",
					"type": "address[]"
				}
			],
			"stateMutability": "view",
			"type": "function"
		},
		{
			"inputs": [],
			"name": "lastOracle",
			"outputs": [
				{
					"internalType": "uint256",
					"name": "",
					"type": "uint256"
				}
			],
			"stateMutability": "view",
			"type": "function"
		},
		{
			"inputs": [
				{
					"internalType": "bytes",
					"name": "performData",
					"type": "bytes"
				}
			],
			"name": "performUpkeep",
			"outputs": [],
			"stateMutability": "nonpayable",
			"type": "function"
		},
		{
			"inputs": [],
			"name": "simulateKeeper",
			"outputs": [],
			"stateMutability": "nonpayable",
			"type": "function"
		},
		{
			"inputs": [],
			"name": "upgradeAllToMax",
			"outputs": [],
			"stateMutability": "nonpayable",
			"type": "function"
		},
		{
			"inputs": [
				{
					"internalType": "address",
					"name": "_payout",
					"type": "address"
				}
			],
			"name": "withDraw",
			"outputs": [],
			"stateMutability": "nonpayable",
			"type": "function"
		},
		{
			"stateMutability": "payable",
			"type": "receive"
		}
	]
}