{
	"data": {
		"bytecode": {
			"linkReferences": {},
			"object": "608060405266038d7ea4c680006002553480156200001c57600080fd5b506040516200270c3803806200270c8339810160408190526200003f91620000f6565b60008054600180546001600160a01b038881166001600160a01b031992831617909255600480549091163317905585151560ff1991891661010002919091166001600160a81b03199092169190911717815542600855600b55620000a582603c62000159565b600955620000b581603c62000159565b600a5550506004805461ffff60a01b191661010160a01b1790555062000187915050565b80516001600160a01b0381168114620000f157600080fd5b919050565b600080600080600060a086880312156200010f57600080fd5b6200011a86620000d9565b94506200012a60208701620000d9565b9350604086015180151581146200014057600080fd5b6060870151608090970151959894975095949392505050565b60008160001904831182151516156200018257634e487b7160e01b600052601160045260246000fd5b500290565b61257580620001976000396000f3fe6080604052600436106100865760003560e01c80636e04ff0d116100595780636e04ff0d146100ea578063a39fac1214610121578063a6f9dae114610143578063a7cf018a14610163578063ef6380071461017857600080fd5b80630a67d2c71461008b5780634585e33b146100ad57806349f22cd8146100cd578063593292b6146100d5575b600080fd5b34801561009757600080fd5b506100ab6100a6366004611a27565b610198565b005b3480156100b957600080fd5b506100ab6100c8366004611b39565b610232565b6100ab61023e565b3480156100e157600080fd5b506100ab61045f565b3480156100f657600080fd5b5061010a610105366004611b39565b610f48565b6040516101189291906123df565b60405180910390f35b34801561012d57600080fd5b50610136610f5d565b60405161011891906122e0565b34801561014f57600080fd5b506100ab61015e366004611a27565b611006565b34801561016f57600080fd5b506100ab61103f565b34801561018457600080fd5b506100ab610193366004611b17565b611070565b6004546001600160a01b031633146101af57600080fd5b6000600354116101f25760405162461bcd60e51b8152602060048201526009602482015268273790333ab732399760b91b60448201526064015b60405180910390fd5b6003546040516001600160a01b0383169180156108fc02916000818181858888f19350505050158015610229573d6000803e3d6000fd5b50506000600355565b61023a61109a565b5050565b600454600160a01b900460ff16151560011461029c5760405162461bcd60e51b815260206004820152601b60248201527f4e6f206d6f726520627579696e6720697320706f737369626c652e000000000060448201526064016101e9565b6002543410156102ff5760405162461bcd60e51b815260206004820152602860248201527f496e737566666963656e742046756e64732c20706c656173652073656e64206d60448201526737b9329022aa241760c11b60648201526084016101e9565b670429d069189e00003411156103575760405162461bcd60e51b815260206004820152601f60248201527f506c656173652062757920666f72206c657373207468616e202e33204554480060448201526064016101e9565b6000600254346103679190612475565b905034600254826103789190612497565b10156103c55760025433906108fc906103919084612497565b61039b90346124b6565b6040518115909202916000818181858888f193505050501580156103c3573d6000803e3d6000fd5b505b6002546103d29082612497565b600360008282546103e3919061245d565b90915550506000546040516315a33d9360e11b81523360048201526024810183905260ff8216151560448201526101009091046001600160a01b031690632b467b26906064015b600060405180830381600087803b15801561044457600080fd5b505af1158015610458573d6000803e3d6000fd5b5050505050565b600454600160a81b900460ff1615156001146104bd5760405162461bcd60e51b815260206004820152601e60248201527f4e6f206d6f72652075706772616465732061726520706f737369626c652e000060448201526064016101e9565b60005b6005811015610f45576001546000906001600160a01b031662fdd58e336104e8856004612497565b6040518363ffffffff1660e01b81526004016105059291906122c7565b60206040518083038186803b15801561051d57600080fd5b505afa158015610531573d6000803e3d6000fd5b505050506040513d601f19601f820116820180604052508101906105559190611bab565b90506000610564601b83612475565b905061057181601b612497565b61057b90836124b6565b9150600061058a600984612475565b9050610597816009612497565b6105a190846124b6565b925060006105b0600385612475565b90506105bd816003612497565b6105c790856124b6565b60015490945060009085906001600160a01b031662fdd58e336105eb8a6004612497565b6040518363ffffffff1660e01b81526004016106089291906122c7565b60206040518083038186803b15801561062057600080fd5b505afa158015610634573d6000803e3d6000fd5b505050506040513d601f19601f820116820180604052508101906106589190611bab565b61066291906124b6565b6001549091506001600160a01b031662fdd58e33610681896004612497565b61068c90600161245d565b6040518363ffffffff1660e01b81526004016106a99291906122c7565b60206040518083038186803b1580156106c157600080fd5b505afa1580156106d5573d6000803e3d6000fd5b505050506040513d601f19601f820116820180604052508101906106f99190611bab565b610703908361245d565b91506000610712600984612475565b905061071e818661245d565b945061072b816009612497565b61073590846124b6565b92506000610744600385612475565b9050610750818661245d565b945061075d816003612497565b61076790856124b6565b600154909450600090819086906001600160a01b031662fdd58e3361078d8e6004612497565b61079890600161245d565b6040518363ffffffff1660e01b81526004016107b59291906122c7565b60206040518083038186803b1580156107cd57600080fd5b505afa1580156107e1573d6000803e3d6000fd5b505050506040513d601f19601f820116820180604052508101906108059190611bab565b11156108b25760015486906001600160a01b031662fdd58e336108298e6004612497565b61083490600161245d565b6040518363ffffffff1660e01b81526004016108519291906122c7565b60206040518083038186803b15801561086957600080fd5b505afa15801561087d573d6000803e3d6000fd5b505050506040513d601f19601f820116820180604052508101906108a19190611bab565b6108ab91906124b6565b9150610953565b6001546001600160a01b031662fdd58e336108ce8d6004612497565b6108d990600161245d565b6040518363ffffffff1660e01b81526004016108f69291906122c7565b60206040518083038186803b15801561090e57600080fd5b505afa158015610922573d6000803e3d6000fd5b505050506040513d601f19601f820116820180604052508101906109469190611bab565b61095090876124b6565b90505b6001546001600160a01b031662fdd58e3361096f8d6004612497565b61097a90600261245d565b6040518363ffffffff1660e01b81526004016109979291906122c7565b60206040518083038186803b1580156109af57600080fd5b505afa1580156109c3573d6000803e3d6000fd5b505050506040513d601f19601f820116820180604052508101906109e79190611bab565b6109f1908861245d565b96506109fe600388612475565b9350610a0a848961245d565b9750610a17846003612497565b610a2190886124b6565b965060008088600160009054906101000a90046001600160a01b03166001600160a01b031662fdd58e338f6004610a589190612497565b610a6390600261245d565b6040518363ffffffff1660e01b8152600401610a809291906122c7565b60206040518083038186803b158015610a9857600080fd5b505afa158015610aac573d6000803e3d6000fd5b505050506040513d601f19601f82011682018060405250810190610ad09190611bab565b1115610b915788600160009054906101000a90046001600160a01b03166001600160a01b031662fdd58e338f6004610b089190612497565b610b1390600261245d565b6040518363ffffffff1660e01b8152600401610b309291906122c7565b60206040518083038186803b158015610b4857600080fd5b505afa158015610b5c573d6000803e3d6000fd5b505050506040513d601f19601f82011682018060405250810190610b809190611bab565b610b8a91906124b6565b9150610c32565b6001546001600160a01b031662fdd58e33610bad8f6004612497565b610bb890600261245d565b6040518363ffffffff1660e01b8152600401610bd59291906122c7565b60206040518083038186803b158015610bed57600080fd5b505afa158015610c01573d6000803e3d6000fd5b505050506040513d601f19601f82011682018060405250810190610c259190611bab565b610c2f908a6124b6565b90505b8615610ca7576001546001600160a01b031663995c9d77610c548e6004612497565b338a6040518463ffffffff1660e01b8152600401610c749392919061243e565b600060405180830381600087803b158015610c8e57600080fd5b505af1158015610ca2573d6000803e3d6000fd5b505050505b8315610d27576001546001600160a01b031663995c9d77610cc98e6004612497565b610cd490600161245d565b33876040518463ffffffff1660e01b8152600401610cf49392919061243e565b600060405180830381600087803b158015610d0e57600080fd5b505af1158015610d22573d6000803e3d6000fd5b505050505b8115610da7576001546001600160a01b031663995c9d77610d498e6004612497565b610d5490600261245d565b33856040518463ffffffff1660e01b8152600401610d749392919061243e565b600060405180830381600087803b158015610d8e57600080fd5b505af1158015610da2573d6000803e3d6000fd5b505050505b8215610e27576001546001600160a01b0316633feb9f7d610dc98e6004612497565b610dd490600161245d565b33866040518463ffffffff1660e01b8152600401610df49392919061243e565b600060405180830381600087803b158015610e0e57600080fd5b505af1158015610e22573d6000803e3d6000fd5b505050505b8015610ea7576001546001600160a01b0316633feb9f7d610e498e6004612497565b610e5490600261245d565b33846040518463ffffffff1660e01b8152600401610e749392919061243e565b600060405180830381600087803b158015610e8e57600080fd5b505af1158015610ea2573d6000803e3d6000fd5b505050505b8915610f27576001546001600160a01b0316633feb9f7d610ec98e6004612497565b610ed490600361245d565b338d6040518463ffffffff1660e01b8152600401610ef49392919061243e565b600060405180830381600087803b158015610f0e57600080fd5b505af1158015610f22573d6000803e3d6000fd5b505050505b50505050505050505050508080610f3d906124cd565b9150506104c0565b50565b60006060610f54611107565b91509250929050565b6004546060906001600160a01b03163314610f7757600080fd5b600160009054906101000a90046001600160a01b03166001600160a01b031663a39fac126040518163ffffffff1660e01b815260040160006040518083038186803b158015610fc557600080fd5b505afa158015610fd9573d6000803e3d6000fd5b505050506040513d6000823e601f3d908101601f191682016040526110019190810190611a4b565b905090565b6004546001600160a01b0316331461101d57600080fd5b600480546001600160a01b0319166001600160a01b0392909216919091179055565b6004546001600160a01b0316331461105657600080fd5b6000611060611107565b90508015610f4557610f4561109a565b6004546001600160a01b0316331461108757600080fd5b6000805460ff1916911515919091179055565b600454600160a01b900460ff1680156110bc5750600454600160a81b900460ff165b6110c557600080fd5b600a54600b546110d590426124b6565b11156110e75742600b556110e761116c565b6009546008546110f790426124b6565b111561110557611105611442565b565b600454600090600160a01b900460ff16801561112c5750600454600160a81b900460ff165b61113557600080fd5b600a54600b5461114590426124b6565b111561114f575060015b60095460085461115f90426124b6565b1115611169575060015b90565b6001805460405163339907f760e11b815260806004820152600f60848201526e09cdec2d04096c2e8e8cae4c4c2c6d608b1b60a48201526102fe60248201526008604482015260648101929092526001600160a01b0316906367320fee9060c401600060405180830381600087803b1580156111e757600080fd5b505af11580156111fb573d6000803e3d6000fd5b505060015460405163339907f760e11b815260806004820152600c60848201526b105b991e4814195b1b585c9960a21b60a48201526108db602482015260186044820152600060648201526001600160a01b0390911692506367320fee915060c401600060405180830381600087803b15801561127757600080fd5b505af115801561128b573d6000803e3d6000fd5b505060015460405163339907f760e11b815260806004820152600d60848201526c50616a74696d204b6173616d6960981b60a48201526106c6602482015260186044820152600360648201526001600160a01b0390911692506367320fee915060c401600060405180830381600087803b15801561130857600080fd5b505af115801561131c573d6000803e3d6000fd5b505060015460405163339907f760e11b815260806004820152600b60848201526a2634b0b69026b4b63630b960a91b60a482015261064b602482015260196044820152600560648201526001600160a01b0390911692506367320fee915060c401600060405180830381600087803b15801561139757600080fd5b505af11580156113ab573d6000803e3d6000fd5b505060015460405163339907f760e11b815260806004820152600d60848201526c2432b4b73d102634b7323732b960991b60a48201526109b96024820152601a6044820152600060648201526001600160a01b0390911692506367320fee915060c401600060405180830381600087803b15801561142857600080fd5b505af115801561143c573d6000803e3d6000fd5b50505050565b600454600160a01b900460ff1615156001146114935760405162461bcd60e51b815260206004820152601060248201526f2930b33332b6103bb0b9903237b7329760811b60448201526064016101e9565b6004805461ffff60a01b19168155600154604080516351cfd60960e11b815290516000936001600160a01b039093169263a39fac12928082019286929091829003018186803b1580156114e557600080fd5b505afa1580156114f9573d6000803e3d6000fd5b505050506040513d6000823e601f3d908101601f191682016040526115219190810190611a4b565b905060005b81518110156119d65760008060005b600581101561188d5760015485516000916001600160a01b03169062fdd58e90889088908110611567576115676124fe565b602002602001015184600461157c9190612497565b6040518363ffffffff1660e01b81526004016115999291906122c7565b60206040518083038186803b1580156115b157600080fd5b505afa1580156115c5573d6000803e3d6000fd5b505050506040513d601f19601f820116820180604052508101906115e99190611bab565b6115f4906032612497565b60015487519192506001600160a01b03169062fdd58e9088908890811061161d5761161d6124fe565b60200260200101518460046116329190612497565b61163d90600161245d565b6040518363ffffffff1660e01b815260040161165a9291906122c7565b60206040518083038186803b15801561167257600080fd5b505afa158015611686573d6000803e3d6000fd5b505050506040513d601f19601f820116820180604052508101906116aa9190611bab565b6116b59060c8612497565b6116bf908261245d565b60015487519192506001600160a01b03169062fdd58e908890889081106116e8576116e86124fe565b60200260200101518460046116fd9190612497565b61170890600261245d565b6040518363ffffffff1660e01b81526004016117259291906122c7565b60206040518083038186803b15801561173d57600080fd5b505afa158015611751573d6000803e3d6000fd5b505050506040513d601f19601f820116820180604052508101906117759190611bab565b611781906102ee612497565b61178b908261245d565b60015487519192506001600160a01b03169062fdd58e908890889081106117b4576117b46124fe565b60200260200101518460046117c99190612497565b6117d490600361245d565b6040518363ffffffff1660e01b81526004016117f19291906122c7565b60206040518083038186803b15801561180957600080fd5b505afa15801561181d573d6000803e3d6000fd5b505050506040513d601f19601f820116820180604052508101906118419190611bab565b61184d906109c4612497565b611857908261245d565b9050801561186d5761186a60018461245d565b92505b611877818561245d565b9350508080611885906124cd565b915050611535565b5081156119c157600580546001810182556000919091527f036b6384b5eca791c62761152d0c79bb0604c104a5fb6f4eb0703f3154bb3db00182905583516006908590859081106118e0576118e06124fe565b60209081029190910181015182546001810184556000938452919092200180546001600160a01b0319166001600160a01b0390921691909117905560058114156119765760078054600181018255600091909152602081047fa66cc928b5edb82af9bd49922954155ab7b0942694bea4ce44661d9a8736c68801805460ff601f9093166101000a928302191690911790556119c1565b600780546001810182556000919091527fa66cc928b5edb82af9bd49922954155ab7b0942694bea4ce44661d9a8736c68860208204018054601f9092166101000a60ff021990911690555b505080806119ce906124cd565b915050611526565b50600054604051631c04951560e01b81526001600160a01b0361010083041691631c0495159161042a9160059160069160079160ff9091169060040161232d565b8051611a228161252a565b919050565b600060208284031215611a3957600080fd5b8135611a448161252a565b9392505050565b60006020808385031215611a5e57600080fd5b825167ffffffffffffffff80821115611a7657600080fd5b818501915085601f830112611a8a57600080fd5b815181811115611a9c57611a9c612514565b8060051b604051601f19603f83011681018181108582111715611ac157611ac1612514565b604052828152858101935084860182860187018a1015611ae057600080fd5b600095505b83861015611b0a57611af681611a17565b855260019590950194938601938601611ae5565b5098975050505050505050565b600060208284031215611b2957600080fd5b81358015158114611a4457600080fd5b60008060208385031215611b4c57600080fd5b823567ffffffffffffffff80821115611b6457600080fd5b818501915085601f830112611b7857600080fd5b813581811115611b8757600080fd5b866020828501011115611b9957600080fd5b60209290920196919550909350505050565b600060208284031215611bbd57600080fd5b5051919050565b805480835260008281526020808220940193909190825b82601f82011015611e4b57815460ff808216151588526020611c05818a01838560081c1615159052565b6040611c19818b01848660101c1615159052565b6060611c2d818c01858760181c1615159052565b6080611c40818d018688871c1615159052565b60a09350611c56848d01868860281c1615159052565b60c0611c6a818e01878960301c1615159052565b60e0611c7e818f01888a60381c1615159052565b87851c871615156101008f0152611c9f6101208f01888a60481c1615159052565b611cb36101408f01888a60501c1615159052565b611cc76101608f01888a60581c1615159052565b87841c871615156101808f0152611ce86101a08f01888a60681c1615159052565b611cfc6101c08f01888a60701c1615159052565b611d106101e08f01888a60781c1615159052565b87831c871615156102008f0152611d316102208f01888a60881c1615159052565b611d456102408f01888a60901c1615159052565b611d596102608f01888a60981c1615159052565b87861c871615156102808f0152611d7a6102a08f01888a60a81c1615159052565b611d8e6102c08f01888a60b01c1615159052565b611da26102e08f01888a60b81c1615159052565b87821c871615156103008f0152611dc36103208f01888a60c81c1615159052565b611dd76103408f01888a60d01c1615159052565b611deb6103608f01888a60d81c1615159052565b87901c861615156103808e0152505050505060e882901c811615156103a0890152611e206103c08901828460f01c1615159052565b50611e336103e088018260f81c15159052565b50610400959095019460019190910190602001611bdb565b90549082811015611e685760ff8216151586526020909501946001015b82811015611e8c57611e818660ff8460081c1615159052565b602095909501946001015b82811015611eb057611ea58660ff8460101c1615159052565b602095909501946001015b82811015611ed457611ec98660ff8460181c1615159052565b602095909501946001015b82811015611ef857611eed8660ff8460201c1615159052565b602095909501946001015b82811015611f1c57611f118660ff8460281c1615159052565b602095909501946001015b82811015611f4057611f358660ff8460301c1615159052565b602095909501946001015b82811015611f6457611f598660ff8460381c1615159052565b602095909501946001015b82811015611f8857611f7d8660ff8460401c1615159052565b602095909501946001015b82811015611fac57611fa18660ff8460481c1615159052565b602095909501946001015b82811015611fd057611fc58660ff8460501c1615159052565b602095909501946001015b82811015611ff457611fe98660ff8460581c1615159052565b602095909501946001015b828110156120185761200d8660ff8460601c1615159052565b602095909501946001015b8281101561203c576120318660ff8460681c1615159052565b602095909501946001015b82811015612060576120558660ff8460701c1615159052565b602095909501946001015b82811015612084576120798660ff8460781c1615159052565b602095909501946001015b828110156120a85761209d8660ff8460801c1615159052565b602095909501946001015b828110156120cc576120c18660ff8460881c1615159052565b602095909501946001015b828110156120f0576120e58660ff8460901c1615159052565b602095909501946001015b82811015612114576121098660ff8460981c1615159052565b602095909501946001015b828110156121385761212d8660ff8460a01c1615159052565b602095909501946001015b8281101561215c576121518660ff8460a81c1615159052565b602095909501946001015b82811015612180576121758660ff8460b01c1615159052565b602095909501946001015b828110156121a4576121998660ff8460b81c1615159052565b602095909501946001015b828110156121c8576121bd8660ff8460c01c1615159052565b602095909501946001015b828110156121ec576121e18660ff8460c81c1615159052565b602095909501946001015b82811015612210576122058660ff8460d01c1615159052565b602095909501946001015b82811015612234576122298660ff8460d81c1615159052565b602095909501946001015b828110156122585761224d8660ff8460e01c1615159052565b602095909501946001015b8281101561227c576122718660ff8460e81c1615159052565b602095909501946001015b828110156122a0576122958660ff8460f01c1615159052565b602095909501946001015b828110156122bd576122b6868360f81c15159052565b6020860195505b5093949350505050565b6001600160a01b03929092168252602082015260400190565b6020808252825182820181905260009190848201906040850190845b818110156123215783516001600160a01b0316835292840192918401916001016122fc565b50909695505050505050565b6000608082016080835280875480835260a085019150600092508883526020808420845b8381101561236d57815485529382019360019182019101612351565b505085830381870152885480845289855281852093820192505b808510156123af5783546001600160a01b031683526001948501949093019291810191612387565b505084810360408601526123c38188611bc4565b93505050506123d6606083018415159052565b95945050505050565b821515815260006020604081840152835180604085015260005b81811015612415578581018301518582016060015282016123f9565b81811115612427576000606083870101525b50601f01601f191692909201606001949350505050565b9283526001600160a01b03919091166020830152604082015260600190565b60008219821115612470576124706124e8565b500190565b60008261249257634e487b7160e01b600052601260045260246000fd5b500490565b60008160001904831182151516156124b1576124b16124e8565b500290565b6000828210156124c8576124c86124e8565b500390565b60006000198214156124e1576124e16124e8565b5060010190565b634e487b7160e01b600052601160045260246000fd5b634e487b7160e01b600052603260045260246000fd5b634e487b7160e01b600052604160045260246000fd5b6001600160a01b0381168114610f4557600080fdfea2646970667358221220ce9136af91add0d6eae792d1c6ac8ff2c02ecb7c68a2cb62e7d3041932f7119364736f6c63430008070033",
			"opcodes": "PUSH1 0x80 PUSH1 0x40 MSTORE PUSH7 0x38D7EA4C68000 PUSH1 0x2 SSTORE CALLVALUE DUP1 ISZERO PUSH3 0x1C JUMPI PUSH1 0x0 DUP1 REVERT JUMPDEST POP PUSH1 0x40 MLOAD PUSH3 0x270C CODESIZE SUB DUP1 PUSH3 0x270C DUP4 CODECOPY DUP2 ADD PUSH1 0x40 DUP2 SWAP1 MSTORE PUSH3 0x3F SWAP2 PUSH3 0xF6 JUMP JUMPDEST PUSH1 0x0 DUP1 SLOAD PUSH1 0x1 DUP1 SLOAD PUSH1 0x1 PUSH1 0x1 PUSH1 0xA0 SHL SUB DUP9 DUP2 AND PUSH1 0x1 PUSH1 0x1 PUSH1 0xA0 SHL SUB NOT SWAP3 DUP4 AND OR SWAP1 SWAP3 SSTORE PUSH1 0x4 DUP1 SLOAD SWAP1 SWAP2 AND CALLER OR SWAP1 SSTORE DUP6 ISZERO ISZERO PUSH1 0xFF NOT SWAP2 DUP10 AND PUSH2 0x100 MUL SWAP2 SWAP1 SWAP2 AND PUSH1 0x1 PUSH1 0x1 PUSH1 0xA8 SHL SUB NOT SWAP1 SWAP3 AND SWAP2 SWAP1 SWAP2 OR OR DUP2 SSTORE TIMESTAMP PUSH1 0x8 SSTORE PUSH1 0xB SSTORE PUSH3 0xA5 DUP3 PUSH1 0x3C PUSH3 0x159 JUMP JUMPDEST PUSH1 0x9 SSTORE PUSH3 0xB5 DUP2 PUSH1 0x3C PUSH3 0x159 JUMP JUMPDEST PUSH1 0xA SSTORE POP POP PUSH1 0x4 DUP1 SLOAD PUSH2 0xFFFF PUSH1 0xA0 SHL NOT AND PUSH2 0x101 PUSH1 0xA0 SHL OR SWAP1 SSTORE POP PUSH3 0x187 SWAP2 POP POP JUMP JUMPDEST DUP1 MLOAD PUSH1 0x1 PUSH1 0x1 PUSH1 0xA0 SHL SUB DUP2 AND DUP2 EQ PUSH3 0xF1 JUMPI PUSH1 0x0 DUP1 REVERT JUMPDEST SWAP2 SWAP1 POP JUMP JUMPDEST PUSH1 0x0 DUP1 PUSH1 0x0 DUP1 PUSH1 0x0 PUSH1 0xA0 DUP7 DUP9 SUB SLT ISZERO PUSH3 0x10F JUMPI PUSH1 0x0 DUP1 REVERT JUMPDEST PUSH3 0x11A DUP7 PUSH3 0xD9 JUMP JUMPDEST SWAP5 POP PUSH3 0x12A PUSH1 0x20 DUP8 ADD PUSH3 0xD9 JUMP JUMPDEST SWAP4 POP PUSH1 0x40 DUP7 ADD MLOAD DUP1 ISZERO ISZERO DUP2 EQ PUSH3 0x140 JUMPI PUSH1 0x0 DUP1 REVERT JUMPDEST PUSH1 0x60 DUP8 ADD MLOAD PUSH1 0x80 SWAP1 SWAP8 ADD MLOAD SWAP6 SWAP9 SWAP5 SWAP8 POP SWAP6 SWAP5 SWAP4 SWAP3 POP POP POP JUMP JUMPDEST PUSH1 0x0 DUP2 PUSH1 0x0 NOT DIV DUP4 GT DUP3 ISZERO ISZERO AND ISZERO PUSH3 0x182 JUMPI PUSH4 0x4E487B71 PUSH1 0xE0 SHL PUSH1 0x0 MSTORE PUSH1 0x11 PUSH1 0x4 MSTORE PUSH1 0x24 PUSH1 0x0 REVERT JUMPDEST POP MUL SWAP1 JUMP JUMPDEST PUSH2 0x2575 DUP1 PUSH3 0x197 PUSH1 0x0 CODECOPY PUSH1 0x0 RETURN INVALID PUSH1 0x80 PUSH1 0x40 MSTORE PUSH1 0x4 CALLDATASIZE LT PUSH2 0x86 JUMPI PUSH1 0x0 CALLDATALOAD PUSH1 0xE0 SHR DUP1 PUSH4 0x6E04FF0D GT PUSH2 0x59 JUMPI DUP1 PUSH4 0x6E04FF0D EQ PUSH2 0xEA JUMPI DUP1 PUSH4 0xA39FAC12 EQ PUSH2 0x121 JUMPI DUP1 PUSH4 0xA6F9DAE1 EQ PUSH2 0x143 JUMPI DUP1 PUSH4 0xA7CF018A EQ PUSH2 0x163 JUMPI DUP1 PUSH4 0xEF638007 EQ PUSH2 0x178 JUMPI PUSH1 0x0 DUP1 REVERT JUMPDEST DUP1 PUSH4 0xA67D2C7 EQ PUSH2 0x8B JUMPI DUP1 PUSH4 0x4585E33B EQ PUSH2 0xAD JUMPI DUP1 PUSH4 0x49F22CD8 EQ PUSH2 0xCD JUMPI DUP1 PUSH4 0x593292B6 EQ PUSH2 0xD5 JUMPI JUMPDEST PUSH1 0x0 DUP1 REVERT JUMPDEST CALLVALUE DUP1 ISZERO PUSH2 0x97 JUMPI PUSH1 0x0 DUP1 REVERT JUMPDEST POP PUSH2 0xAB PUSH2 0xA6 CALLDATASIZE PUSH1 0x4 PUSH2 0x1A27 JUMP JUMPDEST PUSH2 0x198 JUMP JUMPDEST STOP JUMPDEST CALLVALUE DUP1 ISZERO PUSH2 0xB9 JUMPI PUSH1 0x0 DUP1 REVERT JUMPDEST POP PUSH2 0xAB PUSH2 0xC8 CALLDATASIZE PUSH1 0x4 PUSH2 0x1B39 JUMP JUMPDEST PUSH2 0x232 JUMP JUMPDEST PUSH2 0xAB PUSH2 0x23E JUMP JUMPDEST CALLVALUE DUP1 ISZERO PUSH2 0xE1 JUMPI PUSH1 0x0 DUP1 REVERT JUMPDEST POP PUSH2 0xAB PUSH2 0x45F JUMP JUMPDEST CALLVALUE DUP1 ISZERO PUSH2 0xF6 JUMPI PUSH1 0x0 DUP1 REVERT JUMPDEST POP PUSH2 0x10A PUSH2 0x105 CALLDATASIZE PUSH1 0x4 PUSH2 0x1B39 JUMP JUMPDEST PUSH2 0xF48 JUMP JUMPDEST PUSH1 0x40 MLOAD PUSH2 0x118 SWAP3 SWAP2 SWAP1 PUSH2 0x23DF JUMP JUMPDEST PUSH1 0x40 MLOAD DUP1 SWAP2 SUB SWAP1 RETURN JUMPDEST CALLVALUE DUP1 ISZERO PUSH2 0x12D JUMPI PUSH1 0x0 DUP1 REVERT JUMPDEST POP PUSH2 0x136 PUSH2 0xF5D JUMP JUMPDEST PUSH1 0x40 MLOAD PUSH2 0x118 SWAP2 SWAP1 PUSH2 0x22E0 JUMP JUMPDEST CALLVALUE DUP1 ISZERO PUSH2 0x14F JUMPI PUSH1 0x0 DUP1 REVERT JUMPDEST POP PUSH2 0xAB PUSH2 0x15E CALLDATASIZE PUSH1 0x4 PUSH2 0x1A27 JUMP JUMPDEST PUSH2 0x1006 JUMP JUMPDEST CALLVALUE DUP1 ISZERO PUSH2 0x16F JUMPI PUSH1 0x0 DUP1 REVERT JUMPDEST POP PUSH2 0xAB PUSH2 0x103F JUMP JUMPDEST CALLVALUE DUP1 ISZERO PUSH2 0x184 JUMPI PUSH1 0x0 DUP1 REVERT JUMPDEST POP PUSH2 0xAB PUSH2 0x193 CALLDATASIZE PUSH1 0x4 PUSH2 0x1B17 JUMP JUMPDEST PUSH2 0x1070 JUMP JUMPDEST PUSH1 0x4 SLOAD PUSH1 0x1 PUSH1 0x1 PUSH1 0xA0 SHL SUB AND CALLER EQ PUSH2 0x1AF JUMPI PUSH1 0x0 DUP1 REVERT JUMPDEST PUSH1 0x0 PUSH1 0x3 SLOAD GT PUSH2 0x1F2 JUMPI PUSH1 0x40 MLOAD PUSH3 0x461BCD PUSH1 0xE5 SHL DUP2 MSTORE PUSH1 0x20 PUSH1 0x4 DUP3 ADD MSTORE PUSH1 0x9 PUSH1 0x24 DUP3 ADD MSTORE PUSH9 0x273790333AB7323997 PUSH1 0xB9 SHL PUSH1 0x44 DUP3 ADD MSTORE PUSH1 0x64 ADD JUMPDEST PUSH1 0x40 MLOAD DUP1 SWAP2 SUB SWAP1 REVERT JUMPDEST PUSH1 0x3 SLOAD PUSH1 0x40 MLOAD PUSH1 0x1 PUSH1 0x1 PUSH1 0xA0 SHL SUB DUP4 AND SWAP2 DUP1 ISZERO PUSH2 0x8FC MUL SWAP2 PUSH1 0x0 DUP2 DUP2 DUP2 DUP6 DUP9 DUP9 CALL SWAP4 POP POP POP POP ISZERO DUP1 ISZERO PUSH2 0x229 JUMPI RETURNDATASIZE PUSH1 0x0 DUP1 RETURNDATACOPY RETURNDATASIZE PUSH1 0x0 REVERT JUMPDEST POP POP PUSH1 0x0 PUSH1 0x3 SSTORE JUMP JUMPDEST PUSH2 0x23A PUSH2 0x109A JUMP JUMPDEST POP POP JUMP JUMPDEST PUSH1 0x4 SLOAD PUSH1 0x1 PUSH1 0xA0 SHL SWAP1 DIV PUSH1 0xFF AND ISZERO ISZERO PUSH1 0x1 EQ PUSH2 0x29C JUMPI PUSH1 0x40 MLOAD PUSH3 0x461BCD PUSH1 0xE5 SHL DUP2 MSTORE PUSH1 0x20 PUSH1 0x4 DUP3 ADD MSTORE PUSH1 0x1B PUSH1 0x24 DUP3 ADD MSTORE PUSH32 0x4E6F206D6F726520627579696E6720697320706F737369626C652E0000000000 PUSH1 0x44 DUP3 ADD MSTORE PUSH1 0x64 ADD PUSH2 0x1E9 JUMP JUMPDEST PUSH1 0x2 SLOAD CALLVALUE LT ISZERO PUSH2 0x2FF JUMPI PUSH1 0x40 MLOAD PUSH3 0x461BCD PUSH1 0xE5 SHL DUP2 MSTORE PUSH1 0x20 PUSH1 0x4 DUP3 ADD MSTORE PUSH1 0x28 PUSH1 0x24 DUP3 ADD MSTORE PUSH32 0x496E737566666963656E742046756E64732C20706C656173652073656E64206D PUSH1 0x44 DUP3 ADD MSTORE PUSH8 0x37B9329022AA2417 PUSH1 0xC1 SHL PUSH1 0x64 DUP3 ADD MSTORE PUSH1 0x84 ADD PUSH2 0x1E9 JUMP JUMPDEST PUSH8 0x429D069189E0000 CALLVALUE GT ISZERO PUSH2 0x357 JUMPI PUSH1 0x40 MLOAD PUSH3 0x461BCD PUSH1 0xE5 SHL DUP2 MSTORE PUSH1 0x20 PUSH1 0x4 DUP3 ADD MSTORE PUSH1 0x1F PUSH1 0x24 DUP3 ADD MSTORE PUSH32 0x506C656173652062757920666F72206C657373207468616E202E332045544800 PUSH1 0x44 DUP3 ADD MSTORE PUSH1 0x64 ADD PUSH2 0x1E9 JUMP JUMPDEST PUSH1 0x0 PUSH1 0x2 SLOAD CALLVALUE PUSH2 0x367 SWAP2 SWAP1 PUSH2 0x2475 JUMP JUMPDEST SWAP1 POP CALLVALUE PUSH1 0x2 SLOAD DUP3 PUSH2 0x378 SWAP2 SWAP1 PUSH2 0x2497 JUMP JUMPDEST LT ISZERO PUSH2 0x3C5 JUMPI PUSH1 0x2 SLOAD CALLER SWAP1 PUSH2 0x8FC SWAP1 PUSH2 0x391 SWAP1 DUP5 PUSH2 0x2497 JUMP JUMPDEST PUSH2 0x39B SWAP1 CALLVALUE PUSH2 0x24B6 JUMP JUMPDEST PUSH1 0x40 MLOAD DUP2 ISZERO SWAP1 SWAP3 MUL SWAP2 PUSH1 0x0 DUP2 DUP2 DUP2 DUP6 DUP9 DUP9 CALL SWAP4 POP POP POP POP ISZERO DUP1 ISZERO PUSH2 0x3C3 JUMPI RETURNDATASIZE PUSH1 0x0 DUP1 RETURNDATACOPY RETURNDATASIZE PUSH1 0x0 REVERT JUMPDEST POP JUMPDEST PUSH1 0x2 SLOAD PUSH2 0x3D2 SWAP1 DUP3 PUSH2 0x2497 JUMP JUMPDEST PUSH1 0x3 PUSH1 0x0 DUP3 DUP3 SLOAD PUSH2 0x3E3 SWAP2 SWAP1 PUSH2 0x245D JUMP JUMPDEST SWAP1 SWAP2 SSTORE POP POP PUSH1 0x0 SLOAD PUSH1 0x40 MLOAD PUSH4 0x15A33D93 PUSH1 0xE1 SHL DUP2 MSTORE CALLER PUSH1 0x4 DUP3 ADD MSTORE PUSH1 0x24 DUP2 ADD DUP4 SWAP1 MSTORE PUSH1 0xFF DUP3 AND ISZERO ISZERO PUSH1 0x44 DUP3 ADD MSTORE PUSH2 0x100 SWAP1 SWAP2 DIV PUSH1 0x1 PUSH1 0x1 PUSH1 0xA0 SHL SUB AND SWAP1 PUSH4 0x2B467B26 SWAP1 PUSH1 0x64 ADD JUMPDEST PUSH1 0x0 PUSH1 0x40 MLOAD DUP1 DUP4 SUB DUP2 PUSH1 0x0 DUP8 DUP1 EXTCODESIZE ISZERO DUP1 ISZERO PUSH2 0x444 JUMPI PUSH1 0x0 DUP1 REVERT JUMPDEST POP GAS CALL ISZERO DUP1 ISZERO PUSH2 0x458 JUMPI RETURNDATASIZE PUSH1 0x0 DUP1 RETURNDATACOPY RETURNDATASIZE PUSH1 0x0 REVERT JUMPDEST POP POP POP POP POP JUMP JUMPDEST PUSH1 0x4 SLOAD PUSH1 0x1 PUSH1 0xA8 SHL SWAP1 DIV PUSH1 0xFF AND ISZERO ISZERO PUSH1 0x1 EQ PUSH2 0x4BD JUMPI PUSH1 0x40 MLOAD PUSH3 0x461BCD PUSH1 0xE5 SHL DUP2 MSTORE PUSH1 0x20 PUSH1 0x4 DUP3 ADD MSTORE PUSH1 0x1E PUSH1 0x24 DUP3 ADD MSTORE PUSH32 0x4E6F206D6F72652075706772616465732061726520706F737369626C652E0000 PUSH1 0x44 DUP3 ADD MSTORE PUSH1 0x64 ADD PUSH2 0x1E9 JUMP JUMPDEST PUSH1 0x0 JUMPDEST PUSH1 0x5 DUP2 LT ISZERO PUSH2 0xF45 JUMPI PUSH1 0x1 SLOAD PUSH1 0x0 SWAP1 PUSH1 0x1 PUSH1 0x1 PUSH1 0xA0 SHL SUB AND PUSH3 0xFDD58E CALLER PUSH2 0x4E8 DUP6 PUSH1 0x4 PUSH2 0x2497 JUMP JUMPDEST PUSH1 0x40 MLOAD DUP4 PUSH4 0xFFFFFFFF AND PUSH1 0xE0 SHL DUP2 MSTORE PUSH1 0x4 ADD PUSH2 0x505 SWAP3 SWAP2 SWAP1 PUSH2 0x22C7 JUMP JUMPDEST PUSH1 0x20 PUSH1 0x40 MLOAD DUP1 DUP4 SUB DUP2 DUP7 DUP1 EXTCODESIZE ISZERO DUP1 ISZERO PUSH2 0x51D JUMPI PUSH1 0x0 DUP1 REVERT JUMPDEST POP GAS STATICCALL ISZERO DUP1 ISZERO PUSH2 0x531 JUMPI RETURNDATASIZE PUSH1 0x0 DUP1 RETURNDATACOPY RETURNDATASIZE PUSH1 0x0 REVERT JUMPDEST POP POP POP POP PUSH1 0x40 MLOAD RETURNDATASIZE PUSH1 0x1F NOT PUSH1 0x1F DUP3 ADD AND DUP3 ADD DUP1 PUSH1 0x40 MSTORE POP DUP2 ADD SWAP1 PUSH2 0x555 SWAP2 SWAP1 PUSH2 0x1BAB JUMP JUMPDEST SWAP1 POP PUSH1 0x0 PUSH2 0x564 PUSH1 0x1B DUP4 PUSH2 0x2475 JUMP JUMPDEST SWAP1 POP PUSH2 0x571 DUP2 PUSH1 0x1B PUSH2 0x2497 JUMP JUMPDEST PUSH2 0x57B SWAP1 DUP4 PUSH2 0x24B6 JUMP JUMPDEST SWAP2 POP PUSH1 0x0 PUSH2 0x58A PUSH1 0x9 DUP5 PUSH2 0x2475 JUMP JUMPDEST SWAP1 POP PUSH2 0x597 DUP2 PUSH1 0x9 PUSH2 0x2497 JUMP JUMPDEST PUSH2 0x5A1 SWAP1 DUP5 PUSH2 0x24B6 JUMP JUMPDEST SWAP3 POP PUSH1 0x0 PUSH2 0x5B0 PUSH1 0x3 DUP6 PUSH2 0x2475 JUMP JUMPDEST SWAP1 POP PUSH2 0x5BD DUP2 PUSH1 0x3 PUSH2 0x2497 JUMP JUMPDEST PUSH2 0x5C7 SWAP1 DUP6 PUSH2 0x24B6 JUMP JUMPDEST PUSH1 0x1 SLOAD SWAP1 SWAP5 POP PUSH1 0x0 SWAP1 DUP6 SWAP1 PUSH1 0x1 PUSH1 0x1 PUSH1 0xA0 SHL SUB AND PUSH3 0xFDD58E CALLER PUSH2 0x5EB DUP11 PUSH1 0x4 PUSH2 0x2497 JUMP JUMPDEST PUSH1 0x40 MLOAD DUP4 PUSH4 0xFFFFFFFF AND PUSH1 0xE0 SHL DUP2 MSTORE PUSH1 0x4 ADD PUSH2 0x608 SWAP3 SWAP2 SWAP1 PUSH2 0x22C7 JUMP JUMPDEST PUSH1 0x20 PUSH1 0x40 MLOAD DUP1 DUP4 SUB DUP2 DUP7 DUP1 EXTCODESIZE ISZERO DUP1 ISZERO PUSH2 0x620 JUMPI PUSH1 0x0 DUP1 REVERT JUMPDEST POP GAS STATICCALL ISZERO DUP1 ISZERO PUSH2 0x634 JUMPI RETURNDATASIZE PUSH1 0x0 DUP1 RETURNDATACOPY RETURNDATASIZE PUSH1 0x0 REVERT JUMPDEST POP POP POP POP PUSH1 0x40 MLOAD RETURNDATASIZE PUSH1 0x1F NOT PUSH1 0x1F DUP3 ADD AND DUP3 ADD DUP1 PUSH1 0x40 MSTORE POP DUP2 ADD SWAP1 PUSH2 0x658 SWAP2 SWAP1 PUSH2 0x1BAB JUMP JUMPDEST PUSH2 0x662 SWAP2 SWAP1 PUSH2 0x24B6 JUMP JUMPDEST PUSH1 0x1 SLOAD SWAP1 SWAP2 POP PUSH1 0x1 PUSH1 0x1 PUSH1 0xA0 SHL SUB AND PUSH3 0xFDD58E CALLER PUSH2 0x681 DUP10 PUSH1 0x4 PUSH2 0x2497 JUMP JUMPDEST PUSH2 0x68C SWAP1 PUSH1 0x1 PUSH2 0x245D JUMP JUMPDEST PUSH1 0x40 MLOAD DUP4 PUSH4 0xFFFFFFFF AND PUSH1 0xE0 SHL DUP2 MSTORE PUSH1 0x4 ADD PUSH2 0x6A9 SWAP3 SWAP2 SWAP1 PUSH2 0x22C7 JUMP JUMPDEST PUSH1 0x20 PUSH1 0x40 MLOAD DUP1 DUP4 SUB DUP2 DUP7 DUP1 EXTCODESIZE ISZERO DUP1 ISZERO PUSH2 0x6C1 JUMPI PUSH1 0x0 DUP1 REVERT JUMPDEST POP GAS STATICCALL ISZERO DUP1 ISZERO PUSH2 0x6D5 JUMPI RETURNDATASIZE PUSH1 0x0 DUP1 RETURNDATACOPY RETURNDATASIZE PUSH1 0x0 REVERT JUMPDEST POP POP POP POP PUSH1 0x40 MLOAD RETURNDATASIZE PUSH1 0x1F NOT PUSH1 0x1F DUP3 ADD AND DUP3 ADD DUP1 PUSH1 0x40 MSTORE POP DUP2 ADD SWAP1 PUSH2 0x6F9 SWAP2 SWAP1 PUSH2 0x1BAB JUMP JUMPDEST PUSH2 0x703 SWAP1 DUP4 PUSH2 0x245D JUMP JUMPDEST SWAP2 POP PUSH1 0x0 PUSH2 0x712 PUSH1 0x9 DUP5 PUSH2 0x2475 JUMP JUMPDEST SWAP1 POP PUSH2 0x71E DUP2 DUP7 PUSH2 0x245D JUMP JUMPDEST SWAP5 POP PUSH2 0x72B DUP2 PUSH1 0x9 PUSH2 0x2497 JUMP JUMPDEST PUSH2 0x735 SWAP1 DUP5 PUSH2 0x24B6 JUMP JUMPDEST SWAP3 POP PUSH1 0x0 PUSH2 0x744 PUSH1 0x3 DUP6 PUSH2 0x2475 JUMP JUMPDEST SWAP1 POP PUSH2 0x750 DUP2 DUP7 PUSH2 0x245D JUMP JUMPDEST SWAP5 POP PUSH2 0x75D DUP2 PUSH1 0x3 PUSH2 0x2497 JUMP JUMPDEST PUSH2 0x767 SWAP1 DUP6 PUSH2 0x24B6 JUMP JUMPDEST PUSH1 0x1 SLOAD SWAP1 SWAP5 POP PUSH1 0x0 SWAP1 DUP2 SWAP1 DUP7 SWAP1 PUSH1 0x1 PUSH1 0x1 PUSH1 0xA0 SHL SUB AND PUSH3 0xFDD58E CALLER PUSH2 0x78D DUP15 PUSH1 0x4 PUSH2 0x2497 JUMP JUMPDEST PUSH2 0x798 SWAP1 PUSH1 0x1 PUSH2 0x245D JUMP JUMPDEST PUSH1 0x40 MLOAD DUP4 PUSH4 0xFFFFFFFF AND PUSH1 0xE0 SHL DUP2 MSTORE PUSH1 0x4 ADD PUSH2 0x7B5 SWAP3 SWAP2 SWAP1 PUSH2 0x22C7 JUMP JUMPDEST PUSH1 0x20 PUSH1 0x40 MLOAD DUP1 DUP4 SUB DUP2 DUP7 DUP1 EXTCODESIZE ISZERO DUP1 ISZERO PUSH2 0x7CD JUMPI PUSH1 0x0 DUP1 REVERT JUMPDEST POP GAS STATICCALL ISZERO DUP1 ISZERO PUSH2 0x7E1 JUMPI RETURNDATASIZE PUSH1 0x0 DUP1 RETURNDATACOPY RETURNDATASIZE PUSH1 0x0 REVERT JUMPDEST POP POP POP POP PUSH1 0x40 MLOAD RETURNDATASIZE PUSH1 0x1F NOT PUSH1 0x1F DUP3 ADD AND DUP3 ADD DUP1 PUSH1 0x40 MSTORE POP DUP2 ADD SWAP1 PUSH2 0x805 SWAP2 SWAP1 PUSH2 0x1BAB JUMP JUMPDEST GT ISZERO PUSH2 0x8B2 JUMPI PUSH1 0x1 SLOAD DUP7 SWAP1 PUSH1 0x1 PUSH1 0x1 PUSH1 0xA0 SHL SUB AND PUSH3 0xFDD58E CALLER PUSH2 0x829 DUP15 PUSH1 0x4 PUSH2 0x2497 JUMP JUMPDEST PUSH2 0x834 SWAP1 PUSH1 0x1 PUSH2 0x245D JUMP JUMPDEST PUSH1 0x40 MLOAD DUP4 PUSH4 0xFFFFFFFF AND PUSH1 0xE0 SHL DUP2 MSTORE PUSH1 0x4 ADD PUSH2 0x851 SWAP3 SWAP2 SWAP1 PUSH2 0x22C7 JUMP JUMPDEST PUSH1 0x20 PUSH1 0x40 MLOAD DUP1 DUP4 SUB DUP2 DUP7 DUP1 EXTCODESIZE ISZERO DUP1 ISZERO PUSH2 0x869 JUMPI PUSH1 0x0 DUP1 REVERT JUMPDEST POP GAS STATICCALL ISZERO DUP1 ISZERO PUSH2 0x87D JUMPI RETURNDATASIZE PUSH1 0x0 DUP1 RETURNDATACOPY RETURNDATASIZE PUSH1 0x0 REVERT JUMPDEST POP POP POP POP PUSH1 0x40 MLOAD RETURNDATASIZE PUSH1 0x1F NOT PUSH1 0x1F DUP3 ADD AND DUP3 ADD DUP1 PUSH1 0x40 MSTORE POP DUP2 ADD SWAP1 PUSH2 0x8A1 SWAP2 SWAP1 PUSH2 0x1BAB JUMP JUMPDEST PUSH2 0x8AB SWAP2 SWAP1 PUSH2 0x24B6 JUMP JUMPDEST SWAP2 POP PUSH2 0x953 JUMP JUMPDEST PUSH1 0x1 SLOAD PUSH1 0x1 PUSH1 0x1 PUSH1 0xA0 SHL SUB AND PUSH3 0xFDD58E CALLER PUSH2 0x8CE DUP14 PUSH1 0x4 PUSH2 0x2497 JUMP JUMPDEST PUSH2 0x8D9 SWAP1 PUSH1 0x1 PUSH2 0x245D JUMP JUMPDEST PUSH1 0x40 MLOAD DUP4 PUSH4 0xFFFFFFFF AND PUSH1 0xE0 SHL DUP2 MSTORE PUSH1 0x4 ADD PUSH2 0x8F6 SWAP3 SWAP2 SWAP1 PUSH2 0x22C7 JUMP JUMPDEST PUSH1 0x20 PUSH1 0x40 MLOAD DUP1 DUP4 SUB DUP2 DUP7 DUP1 EXTCODESIZE ISZERO DUP1 ISZERO PUSH2 0x90E JUMPI PUSH1 0x0 DUP1 REVERT JUMPDEST POP GAS STATICCALL ISZERO DUP1 ISZERO PUSH2 0x922 JUMPI RETURNDATASIZE PUSH1 0x0 DUP1 RETURNDATACOPY RETURNDATASIZE PUSH1 0x0 REVERT JUMPDEST POP POP POP POP PUSH1 0x40 MLOAD RETURNDATASIZE PUSH1 0x1F NOT PUSH1 0x1F DUP3 ADD AND DUP3 ADD DUP1 PUSH1 0x40 MSTORE POP DUP2 ADD SWAP1 PUSH2 0x946 SWAP2 SWAP1 PUSH2 0x1BAB JUMP JUMPDEST PUSH2 0x950 SWAP1 DUP8 PUSH2 0x24B6 JUMP JUMPDEST SWAP1 POP JUMPDEST PUSH1 0x1 SLOAD PUSH1 0x1 PUSH1 0x1 PUSH1 0xA0 SHL SUB AND PUSH3 0xFDD58E CALLER PUSH2 0x96F DUP14 PUSH1 0x4 PUSH2 0x2497 JUMP JUMPDEST PUSH2 0x97A SWAP1 PUSH1 0x2 PUSH2 0x245D JUMP JUMPDEST PUSH1 0x40 MLOAD DUP4 PUSH4 0xFFFFFFFF AND PUSH1 0xE0 SHL DUP2 MSTORE PUSH1 0x4 ADD PUSH2 0x997 SWAP3 SWAP2 SWAP1 PUSH2 0x22C7 JUMP JUMPDEST PUSH1 0x20 PUSH1 0x40 MLOAD DUP1 DUP4 SUB DUP2 DUP7 DUP1 EXTCODESIZE ISZERO DUP1 ISZERO PUSH2 0x9AF JUMPI PUSH1 0x0 DUP1 REVERT JUMPDEST POP GAS STATICCALL ISZERO DUP1 ISZERO PUSH2 0x9C3 JUMPI RETURNDATASIZE PUSH1 0x0 DUP1 RETURNDATACOPY RETURNDATASIZE PUSH1 0x0 REVERT JUMPDEST POP POP POP POP PUSH1 0x40 MLOAD RETURNDATASIZE PUSH1 0x1F NOT PUSH1 0x1F DUP3 ADD AND DUP3 ADD DUP1 PUSH1 0x40 MSTORE POP DUP2 ADD SWAP1 PUSH2 0x9E7 SWAP2 SWAP1 PUSH2 0x1BAB JUMP JUMPDEST PUSH2 0x9F1 SWAP1 DUP9 PUSH2 0x245D JUMP JUMPDEST SWAP7 POP PUSH2 0x9FE PUSH1 0x3 DUP9 PUSH2 0x2475 JUMP JUMPDEST SWAP4 POP PUSH2 0xA0A DUP5 DUP10 PUSH2 0x245D JUMP JUMPDEST SWAP8 POP PUSH2 0xA17 DUP5 PUSH1 0x3 PUSH2 0x2497 JUMP JUMPDEST PUSH2 0xA21 SWAP1 DUP9 PUSH2 0x24B6 JUMP JUMPDEST SWAP7 POP PUSH1 0x0 DUP1 DUP9 PUSH1 0x1 PUSH1 0x0 SWAP1 SLOAD SWAP1 PUSH2 0x100 EXP SWAP1 DIV PUSH1 0x1 PUSH1 0x1 PUSH1 0xA0 SHL SUB AND PUSH1 0x1 PUSH1 0x1 PUSH1 0xA0 SHL SUB AND PUSH3 0xFDD58E CALLER DUP16 PUSH1 0x4 PUSH2 0xA58 SWAP2 SWAP1 PUSH2 0x2497 JUMP JUMPDEST PUSH2 0xA63 SWAP1 PUSH1 0x2 PUSH2 0x245D JUMP JUMPDEST PUSH1 0x40 MLOAD DUP4 PUSH4 0xFFFFFFFF AND PUSH1 0xE0 SHL DUP2 MSTORE PUSH1 0x4 ADD PUSH2 0xA80 SWAP3 SWAP2 SWAP1 PUSH2 0x22C7 JUMP JUMPDEST PUSH1 0x20 PUSH1 0x40 MLOAD DUP1 DUP4 SUB DUP2 DUP7 DUP1 EXTCODESIZE ISZERO DUP1 ISZERO PUSH2 0xA98 JUMPI PUSH1 0x0 DUP1 REVERT JUMPDEST POP GAS STATICCALL ISZERO DUP1 ISZERO PUSH2 0xAAC JUMPI RETURNDATASIZE PUSH1 0x0 DUP1 RETURNDATACOPY RETURNDATASIZE PUSH1 0x0 REVERT JUMPDEST POP POP POP POP PUSH1 0x40 MLOAD RETURNDATASIZE PUSH1 0x1F NOT PUSH1 0x1F DUP3 ADD AND DUP3 ADD DUP1 PUSH1 0x40 MSTORE POP DUP2 ADD SWAP1 PUSH2 0xAD0 SWAP2 SWAP1 PUSH2 0x1BAB JUMP JUMPDEST GT ISZERO PUSH2 0xB91 JUMPI DUP9 PUSH1 0x1 PUSH1 0x0 SWAP1 SLOAD SWAP1 PUSH2 0x100 EXP SWAP1 DIV PUSH1 0x1 PUSH1 0x1 PUSH1 0xA0 SHL SUB AND PUSH1 0x1 PUSH1 0x1 PUSH1 0xA0 SHL SUB AND PUSH3 0xFDD58E CALLER DUP16 PUSH1 0x4 PUSH2 0xB08 SWAP2 SWAP1 PUSH2 0x2497 JUMP JUMPDEST PUSH2 0xB13 SWAP1 PUSH1 0x2 PUSH2 0x245D JUMP JUMPDEST PUSH1 0x40 MLOAD DUP4 PUSH4 0xFFFFFFFF AND PUSH1 0xE0 SHL DUP2 MSTORE PUSH1 0x4 ADD PUSH2 0xB30 SWAP3 SWAP2 SWAP1 PUSH2 0x22C7 JUMP JUMPDEST PUSH1 0x20 PUSH1 0x40 MLOAD DUP1 DUP4 SUB DUP2 DUP7 DUP1 EXTCODESIZE ISZERO DUP1 ISZERO PUSH2 0xB48 JUMPI PUSH1 0x0 DUP1 REVERT JUMPDEST POP GAS STATICCALL ISZERO DUP1 ISZERO PUSH2 0xB5C JUMPI RETURNDATASIZE PUSH1 0x0 DUP1 RETURNDATACOPY RETURNDATASIZE PUSH1 0x0 REVERT JUMPDEST POP POP POP POP PUSH1 0x40 MLOAD RETURNDATASIZE PUSH1 0x1F NOT PUSH1 0x1F DUP3 ADD AND DUP3 ADD DUP1 PUSH1 0x40 MSTORE POP DUP2 ADD SWAP1 PUSH2 0xB80 SWAP2 SWAP1 PUSH2 0x1BAB JUMP JUMPDEST PUSH2 0xB8A SWAP2 SWAP1 PUSH2 0x24B6 JUMP JUMPDEST SWAP2 POP PUSH2 0xC32 JUMP JUMPDEST PUSH1 0x1 SLOAD PUSH1 0x1 PUSH1 0x1 PUSH1 0xA0 SHL SUB AND PUSH3 0xFDD58E CALLER PUSH2 0xBAD DUP16 PUSH1 0x4 PUSH2 0x2497 JUMP JUMPDEST PUSH2 0xBB8 SWAP1 PUSH1 0x2 PUSH2 0x245D JUMP JUMPDEST PUSH1 0x40 MLOAD DUP4 PUSH4 0xFFFFFFFF AND PUSH1 0xE0 SHL DUP2 MSTORE PUSH1 0x4 ADD PUSH2 0xBD5 SWAP3 SWAP2 SWAP1 PUSH2 0x22C7 JUMP JUMPDEST PUSH1 0x20 PUSH1 0x40 MLOAD DUP1 DUP4 SUB DUP2 DUP7 DUP1 EXTCODESIZE ISZERO DUP1 ISZERO PUSH2 0xBED JUMPI PUSH1 0x0 DUP1 REVERT JUMPDEST POP GAS STATICCALL ISZERO DUP1 ISZERO PUSH2 0xC01 JUMPI RETURNDATASIZE PUSH1 0x0 DUP1 RETURNDATACOPY RETURNDATASIZE PUSH1 0x0 REVERT JUMPDEST POP POP POP POP PUSH1 0x40 MLOAD RETURNDATASIZE PUSH1 0x1F NOT PUSH1 0x1F DUP3 ADD AND DUP3 ADD DUP1 PUSH1 0x40 MSTORE POP DUP2 ADD SWAP1 PUSH2 0xC25 SWAP2 SWAP1 PUSH2 0x1BAB JUMP JUMPDEST PUSH2 0xC2F SWAP1 DUP11 PUSH2 0x24B6 JUMP JUMPDEST SWAP1 POP JUMPDEST DUP7 ISZERO PUSH2 0xCA7 JUMPI PUSH1 0x1 SLOAD PUSH1 0x1 PUSH1 0x1 PUSH1 0xA0 SHL SUB AND PUSH4 0x995C9D77 PUSH2 0xC54 DUP15 PUSH1 0x4 PUSH2 0x2497 JUMP JUMPDEST CALLER DUP11 PUSH1 0x40 MLOAD DUP5 PUSH4 0xFFFFFFFF AND PUSH1 0xE0 SHL DUP2 MSTORE PUSH1 0x4 ADD PUSH2 0xC74 SWAP4 SWAP3 SWAP2 SWAP1 PUSH2 0x243E JUMP JUMPDEST PUSH1 0x0 PUSH1 0x40 MLOAD DUP1 DUP4 SUB DUP2 PUSH1 0x0 DUP8 DUP1 EXTCODESIZE ISZERO DUP1 ISZERO PUSH2 0xC8E JUMPI PUSH1 0x0 DUP1 REVERT JUMPDEST POP GAS CALL ISZERO DUP1 ISZERO PUSH2 0xCA2 JUMPI RETURNDATASIZE PUSH1 0x0 DUP1 RETURNDATACOPY RETURNDATASIZE PUSH1 0x0 REVERT JUMPDEST POP POP POP POP JUMPDEST DUP4 ISZERO PUSH2 0xD27 JUMPI PUSH1 0x1 SLOAD PUSH1 0x1 PUSH1 0x1 PUSH1 0xA0 SHL SUB AND PUSH4 0x995C9D77 PUSH2 0xCC9 DUP15 PUSH1 0x4 PUSH2 0x2497 JUMP JUMPDEST PUSH2 0xCD4 SWAP1 PUSH1 0x1 PUSH2 0x245D JUMP JUMPDEST CALLER DUP8 PUSH1 0x40 MLOAD DUP5 PUSH4 0xFFFFFFFF AND PUSH1 0xE0 SHL DUP2 MSTORE PUSH1 0x4 ADD PUSH2 0xCF4 SWAP4 SWAP3 SWAP2 SWAP1 PUSH2 0x243E JUMP JUMPDEST PUSH1 0x0 PUSH1 0x40 MLOAD DUP1 DUP4 SUB DUP2 PUSH1 0x0 DUP8 DUP1 EXTCODESIZE ISZERO DUP1 ISZERO PUSH2 0xD0E JUMPI PUSH1 0x0 DUP1 REVERT JUMPDEST POP GAS CALL ISZERO DUP1 ISZERO PUSH2 0xD22 JUMPI RETURNDATASIZE PUSH1 0x0 DUP1 RETURNDATACOPY RETURNDATASIZE PUSH1 0x0 REVERT JUMPDEST POP POP POP POP JUMPDEST DUP2 ISZERO PUSH2 0xDA7 JUMPI PUSH1 0x1 SLOAD PUSH1 0x1 PUSH1 0x1 PUSH1 0xA0 SHL SUB AND PUSH4 0x995C9D77 PUSH2 0xD49 DUP15 PUSH1 0x4 PUSH2 0x2497 JUMP JUMPDEST PUSH2 0xD54 SWAP1 PUSH1 0x2 PUSH2 0x245D JUMP JUMPDEST CALLER DUP6 PUSH1 0x40 MLOAD DUP5 PUSH4 0xFFFFFFFF AND PUSH1 0xE0 SHL DUP2 MSTORE PUSH1 0x4 ADD PUSH2 0xD74 SWAP4 SWAP3 SWAP2 SWAP1 PUSH2 0x243E JUMP JUMPDEST PUSH1 0x0 PUSH1 0x40 MLOAD DUP1 DUP4 SUB DUP2 PUSH1 0x0 DUP8 DUP1 EXTCODESIZE ISZERO DUP1 ISZERO PUSH2 0xD8E JUMPI PUSH1 0x0 DUP1 REVERT JUMPDEST POP GAS CALL ISZERO DUP1 ISZERO PUSH2 0xDA2 JUMPI RETURNDATASIZE PUSH1 0x0 DUP1 RETURNDATACOPY RETURNDATASIZE PUSH1 0x0 REVERT JUMPDEST POP POP POP POP JUMPDEST DUP3 ISZERO PUSH2 0xE27 JUMPI PUSH1 0x1 SLOAD PUSH1 0x1 PUSH1 0x1 PUSH1 0xA0 SHL SUB AND PUSH4 0x3FEB9F7D PUSH2 0xDC9 DUP15 PUSH1 0x4 PUSH2 0x2497 JUMP JUMPDEST PUSH2 0xDD4 SWAP1 PUSH1 0x1 PUSH2 0x245D JUMP JUMPDEST CALLER DUP7 PUSH1 0x40 MLOAD DUP5 PUSH4 0xFFFFFFFF AND PUSH1 0xE0 SHL DUP2 MSTORE PUSH1 0x4 ADD PUSH2 0xDF4 SWAP4 SWAP3 SWAP2 SWAP1 PUSH2 0x243E JUMP JUMPDEST PUSH1 0x0 PUSH1 0x40 MLOAD DUP1 DUP4 SUB DUP2 PUSH1 0x0 DUP8 DUP1 EXTCODESIZE ISZERO DUP1 ISZERO PUSH2 0xE0E JUMPI PUSH1 0x0 DUP1 REVERT JUMPDEST POP GAS CALL ISZERO DUP1 ISZERO PUSH2 0xE22 JUMPI RETURNDATASIZE PUSH1 0x0 DUP1 RETURNDATACOPY RETURNDATASIZE PUSH1 0x0 REVERT JUMPDEST POP POP POP POP JUMPDEST DUP1 ISZERO PUSH2 0xEA7 JUMPI PUSH1 0x1 SLOAD PUSH1 0x1 PUSH1 0x1 PUSH1 0xA0 SHL SUB AND PUSH4 0x3FEB9F7D PUSH2 0xE49 DUP15 PUSH1 0x4 PUSH2 0x2497 JUMP JUMPDEST PUSH2 0xE54 SWAP1 PUSH1 0x2 PUSH2 0x245D JUMP JUMPDEST CALLER DUP5 PUSH1 0x40 MLOAD DUP5 PUSH4 0xFFFFFFFF AND PUSH1 0xE0 SHL DUP2 MSTORE PUSH1 0x4 ADD PUSH2 0xE74 SWAP4 SWAP3 SWAP2 SWAP1 PUSH2 0x243E JUMP JUMPDEST PUSH1 0x0 PUSH1 0x40 MLOAD DUP1 DUP4 SUB DUP2 PUSH1 0x0 DUP8 DUP1 EXTCODESIZE ISZERO DUP1 ISZERO PUSH2 0xE8E JUMPI PUSH1 0x0 DUP1 REVERT JUMPDEST POP GAS CALL ISZERO DUP1 ISZERO PUSH2 0xEA2 JUMPI RETURNDATASIZE PUSH1 0x0 DUP1 RETURNDATACOPY RETURNDATASIZE PUSH1 0x0 REVERT JUMPDEST POP POP POP POP JUMPDEST DUP10 ISZERO PUSH2 0xF27 JUMPI PUSH1 0x1 SLOAD PUSH1 0x1 PUSH1 0x1 PUSH1 0xA0 SHL SUB AND PUSH4 0x3FEB9F7D PUSH2 0xEC9 DUP15 PUSH1 0x4 PUSH2 0x2497 JUMP JUMPDEST PUSH2 0xED4 SWAP1 PUSH1 0x3 PUSH2 0x245D JUMP JUMPDEST CALLER DUP14 PUSH1 0x40 MLOAD DUP5 PUSH4 0xFFFFFFFF AND PUSH1 0xE0 SHL DUP2 MSTORE PUSH1 0x4 ADD PUSH2 0xEF4 SWAP4 SWAP3 SWAP2 SWAP1 PUSH2 0x243E JUMP JUMPDEST PUSH1 0x0 PUSH1 0x40 MLOAD DUP1 DUP4 SUB DUP2 PUSH1 0x0 DUP8 DUP1 EXTCODESIZE ISZERO DUP1 ISZERO PUSH2 0xF0E JUMPI PUSH1 0x0 DUP1 REVERT JUMPDEST POP GAS CALL ISZERO DUP1 ISZERO PUSH2 0xF22 JUMPI RETURNDATASIZE PUSH1 0x0 DUP1 RETURNDATACOPY RETURNDATASIZE PUSH1 0x0 REVERT JUMPDEST POP POP POP POP JUMPDEST POP POP POP POP POP POP POP POP POP POP POP DUP1 DUP1 PUSH2 0xF3D SWAP1 PUSH2 0x24CD JUMP JUMPDEST SWAP2 POP POP PUSH2 0x4C0 JUMP JUMPDEST POP JUMP JUMPDEST PUSH1 0x0 PUSH1 0x60 PUSH2 0xF54 PUSH2 0x1107 JUMP JUMPDEST SWAP2 POP SWAP3 POP SWAP3 SWAP1 POP JUMP JUMPDEST PUSH1 0x4 SLOAD PUSH1 0x60 SWAP1 PUSH1 0x1 PUSH1 0x1 PUSH1 0xA0 SHL SUB AND CALLER EQ PUSH2 0xF77 JUMPI PUSH1 0x0 DUP1 REVERT JUMPDEST PUSH1 0x1 PUSH1 0x0 SWAP1 SLOAD SWAP1 PUSH2 0x100 EXP SWAP1 DIV PUSH1 0x1 PUSH1 0x1 PUSH1 0xA0 SHL SUB AND PUSH1 0x1 PUSH1 0x1 PUSH1 0xA0 SHL SUB AND PUSH4 0xA39FAC12 PUSH1 0x40 MLOAD DUP2 PUSH4 0xFFFFFFFF AND PUSH1 0xE0 SHL DUP2 MSTORE PUSH1 0x4 ADD PUSH1 0x0 PUSH1 0x40 MLOAD DUP1 DUP4 SUB DUP2 DUP7 DUP1 EXTCODESIZE ISZERO DUP1 ISZERO PUSH2 0xFC5 JUMPI PUSH1 0x0 DUP1 REVERT JUMPDEST POP GAS STATICCALL ISZERO DUP1 ISZERO PUSH2 0xFD9 JUMPI RETURNDATASIZE PUSH1 0x0 DUP1 RETURNDATACOPY RETURNDATASIZE PUSH1 0x0 REVERT JUMPDEST POP POP POP POP PUSH1 0x40 MLOAD RETURNDATASIZE PUSH1 0x0 DUP3 RETURNDATACOPY PUSH1 0x1F RETURNDATASIZE SWAP1 DUP2 ADD PUSH1 0x1F NOT AND DUP3 ADD PUSH1 0x40 MSTORE PUSH2 0x1001 SWAP2 SWAP1 DUP2 ADD SWAP1 PUSH2 0x1A4B JUMP JUMPDEST SWAP1 POP SWAP1 JUMP JUMPDEST PUSH1 0x4 SLOAD PUSH1 0x1 PUSH1 0x1 PUSH1 0xA0 SHL SUB AND CALLER EQ PUSH2 0x101D JUMPI PUSH1 0x0 DUP1 REVERT JUMPDEST PUSH1 0x4 DUP1 SLOAD PUSH1 0x1 PUSH1 0x1 PUSH1 0xA0 SHL SUB NOT AND PUSH1 0x1 PUSH1 0x1 PUSH1 0xA0 SHL SUB SWAP3 SWAP1 SWAP3 AND SWAP2 SWAP1 SWAP2 OR SWAP1 SSTORE JUMP JUMPDEST PUSH1 0x4 SLOAD PUSH1 0x1 PUSH1 0x1 PUSH1 0xA0 SHL SUB AND CALLER EQ PUSH2 0x1056 JUMPI PUSH1 0x0 DUP1 REVERT JUMPDEST PUSH1 0x0 PUSH2 0x1060 PUSH2 0x1107 JUMP JUMPDEST SWAP1 POP DUP1 ISZERO PUSH2 0xF45 JUMPI PUSH2 0xF45 PUSH2 0x109A JUMP JUMPDEST PUSH1 0x4 SLOAD PUSH1 0x1 PUSH1 0x1 PUSH1 0xA0 SHL SUB AND CALLER EQ PUSH2 0x1087 JUMPI PUSH1 0x0 DUP1 REVERT JUMPDEST PUSH1 0x0 DUP1 SLOAD PUSH1 0xFF NOT AND SWAP2 ISZERO ISZERO SWAP2 SWAP1 SWAP2 OR SWAP1 SSTORE JUMP JUMPDEST PUSH1 0x4 SLOAD PUSH1 0x1 PUSH1 0xA0 SHL SWAP1 DIV PUSH1 0xFF AND DUP1 ISZERO PUSH2 0x10BC JUMPI POP PUSH1 0x4 SLOAD PUSH1 0x1 PUSH1 0xA8 SHL SWAP1 DIV PUSH1 0xFF AND JUMPDEST PUSH2 0x10C5 JUMPI PUSH1 0x0 DUP1 REVERT JUMPDEST PUSH1 0xA SLOAD PUSH1 0xB SLOAD PUSH2 0x10D5 SWAP1 TIMESTAMP PUSH2 0x24B6 JUMP JUMPDEST GT ISZERO PUSH2 0x10E7 JUMPI TIMESTAMP PUSH1 0xB SSTORE PUSH2 0x10E7 PUSH2 0x116C JUMP JUMPDEST PUSH1 0x9 SLOAD PUSH1 0x8 SLOAD PUSH2 0x10F7 SWAP1 TIMESTAMP PUSH2 0x24B6 JUMP JUMPDEST GT ISZERO PUSH2 0x1105 JUMPI PUSH2 0x1105 PUSH2 0x1442 JUMP JUMPDEST JUMP JUMPDEST PUSH1 0x4 SLOAD PUSH1 0x0 SWAP1 PUSH1 0x1 PUSH1 0xA0 SHL SWAP1 DIV PUSH1 0xFF AND DUP1 ISZERO PUSH2 0x112C JUMPI POP PUSH1 0x4 SLOAD PUSH1 0x1 PUSH1 0xA8 SHL SWAP1 DIV PUSH1 0xFF AND JUMPDEST PUSH2 0x1135 JUMPI PUSH1 0x0 DUP1 REVERT JUMPDEST PUSH1 0xA SLOAD PUSH1 0xB SLOAD PUSH2 0x1145 SWAP1 TIMESTAMP PUSH2 0x24B6 JUMP JUMPDEST GT ISZERO PUSH2 0x114F JUMPI POP PUSH1 0x1 JUMPDEST PUSH1 0x9 SLOAD PUSH1 0x8 SLOAD PUSH2 0x115F SWAP1 TIMESTAMP PUSH2 0x24B6 JUMP JUMPDEST GT ISZERO PUSH2 0x1169 JUMPI POP PUSH1 0x1 JUMPDEST SWAP1 JUMP JUMPDEST PUSH1 0x1 DUP1 SLOAD PUSH1 0x40 MLOAD PUSH4 0x339907F7 PUSH1 0xE1 SHL DUP2 MSTORE PUSH1 0x80 PUSH1 0x4 DUP3 ADD MSTORE PUSH1 0xF PUSH1 0x84 DUP3 ADD MSTORE PUSH15 0x9CDEC2D04096C2E8E8CAE4C4C2C6D PUSH1 0x8B SHL PUSH1 0xA4 DUP3 ADD MSTORE PUSH2 0x2FE PUSH1 0x24 DUP3 ADD MSTORE PUSH1 0x8 PUSH1 0x44 DUP3 ADD MSTORE PUSH1 0x64 DUP2 ADD SWAP3 SWAP1 SWAP3 MSTORE PUSH1 0x1 PUSH1 0x1 PUSH1 0xA0 SHL SUB AND SWAP1 PUSH4 0x67320FEE SWAP1 PUSH1 0xC4 ADD PUSH1 0x0 PUSH1 0x40 MLOAD DUP1 DUP4 SUB DUP2 PUSH1 0x0 DUP8 DUP1 EXTCODESIZE ISZERO DUP1 ISZERO PUSH2 0x11E7 JUMPI PUSH1 0x0 DUP1 REVERT JUMPDEST POP GAS CALL ISZERO DUP1 ISZERO PUSH2 0x11FB JUMPI RETURNDATASIZE PUSH1 0x0 DUP1 RETURNDATACOPY RETURNDATASIZE PUSH1 0x0 REVERT JUMPDEST POP POP PUSH1 0x1 SLOAD PUSH1 0x40 MLOAD PUSH4 0x339907F7 PUSH1 0xE1 SHL DUP2 MSTORE PUSH1 0x80 PUSH1 0x4 DUP3 ADD MSTORE PUSH1 0xC PUSH1 0x84 DUP3 ADD MSTORE PUSH12 0x105B991E4814195B1B585C99 PUSH1 0xA2 SHL PUSH1 0xA4 DUP3 ADD MSTORE PUSH2 0x8DB PUSH1 0x24 DUP3 ADD MSTORE PUSH1 0x18 PUSH1 0x44 DUP3 ADD MSTORE PUSH1 0x0 PUSH1 0x64 DUP3 ADD MSTORE PUSH1 0x1 PUSH1 0x1 PUSH1 0xA0 SHL SUB SWAP1 SWAP2 AND SWAP3 POP PUSH4 0x67320FEE SWAP2 POP PUSH1 0xC4 ADD PUSH1 0x0 PUSH1 0x40 MLOAD DUP1 DUP4 SUB DUP2 PUSH1 0x0 DUP8 DUP1 EXTCODESIZE ISZERO DUP1 ISZERO PUSH2 0x1277 JUMPI PUSH1 0x0 DUP1 REVERT JUMPDEST POP GAS CALL ISZERO DUP1 ISZERO PUSH2 0x128B JUMPI RETURNDATASIZE PUSH1 0x0 DUP1 RETURNDATACOPY RETURNDATASIZE PUSH1 0x0 REVERT JUMPDEST POP POP PUSH1 0x1 SLOAD PUSH1 0x40 MLOAD PUSH4 0x339907F7 PUSH1 0xE1 SHL DUP2 MSTORE PUSH1 0x80 PUSH1 0x4 DUP3 ADD MSTORE PUSH1 0xD PUSH1 0x84 DUP3 ADD MSTORE PUSH13 0x50616A74696D204B6173616D69 PUSH1 0x98 SHL PUSH1 0xA4 DUP3 ADD MSTORE PUSH2 0x6C6 PUSH1 0x24 DUP3 ADD MSTORE PUSH1 0x18 PUSH1 0x44 DUP3 ADD MSTORE PUSH1 0x3 PUSH1 0x64 DUP3 ADD MSTORE PUSH1 0x1 PUSH1 0x1 PUSH1 0xA0 SHL SUB SWAP1 SWAP2 AND SWAP3 POP PUSH4 0x67320FEE SWAP2 POP PUSH1 0xC4 ADD PUSH1 0x0 PUSH1 0x40 MLOAD DUP1 DUP4 SUB DUP2 PUSH1 0x0 DUP8 DUP1 EXTCODESIZE ISZERO DUP1 ISZERO PUSH2 0x1308 JUMPI PUSH1 0x0 DUP1 REVERT JUMPDEST POP GAS CALL ISZERO DUP1 ISZERO PUSH2 0x131C JUMPI RETURNDATASIZE PUSH1 0x0 DUP1 RETURNDATACOPY RETURNDATASIZE PUSH1 0x0 REVERT JUMPDEST POP POP PUSH1 0x1 SLOAD PUSH1 0x40 MLOAD PUSH4 0x339907F7 PUSH1 0xE1 SHL DUP2 MSTORE PUSH1 0x80 PUSH1 0x4 DUP3 ADD MSTORE PUSH1 0xB PUSH1 0x84 DUP3 ADD MSTORE PUSH11 0x2634B0B69026B4B63630B9 PUSH1 0xA9 SHL PUSH1 0xA4 DUP3 ADD MSTORE PUSH2 0x64B PUSH1 0x24 DUP3 ADD MSTORE PUSH1 0x19 PUSH1 0x44 DUP3 ADD MSTORE PUSH1 0x5 PUSH1 0x64 DUP3 ADD MSTORE PUSH1 0x1 PUSH1 0x1 PUSH1 0xA0 SHL SUB SWAP1 SWAP2 AND SWAP3 POP PUSH4 0x67320FEE SWAP2 POP PUSH1 0xC4 ADD PUSH1 0x0 PUSH1 0x40 MLOAD DUP1 DUP4 SUB DUP2 PUSH1 0x0 DUP8 DUP1 EXTCODESIZE ISZERO DUP1 ISZERO PUSH2 0x1397 JUMPI PUSH1 0x0 DUP1 REVERT JUMPDEST POP GAS CALL ISZERO DUP1 ISZERO PUSH2 0x13AB JUMPI RETURNDATASIZE PUSH1 0x0 DUP1 RETURNDATACOPY RETURNDATASIZE PUSH1 0x0 REVERT JUMPDEST POP POP PUSH1 0x1 SLOAD PUSH1 0x40 MLOAD PUSH4 0x339907F7 PUSH1 0xE1 SHL DUP2 MSTORE PUSH1 0x80 PUSH1 0x4 DUP3 ADD MSTORE PUSH1 0xD PUSH1 0x84 DUP3 ADD MSTORE PUSH13 0x2432B4B73D102634B7323732B9 PUSH1 0x99 SHL PUSH1 0xA4 DUP3 ADD MSTORE PUSH2 0x9B9 PUSH1 0x24 DUP3 ADD MSTORE PUSH1 0x1A PUSH1 0x44 DUP3 ADD MSTORE PUSH1 0x0 PUSH1 0x64 DUP3 ADD MSTORE PUSH1 0x1 PUSH1 0x1 PUSH1 0xA0 SHL SUB SWAP1 SWAP2 AND SWAP3 POP PUSH4 0x67320FEE SWAP2 POP PUSH1 0xC4 ADD PUSH1 0x0 PUSH1 0x40 MLOAD DUP1 DUP4 SUB DUP2 PUSH1 0x0 DUP8 DUP1 EXTCODESIZE ISZERO DUP1 ISZERO PUSH2 0x1428 JUMPI PUSH1 0x0 DUP1 REVERT JUMPDEST POP GAS CALL ISZERO DUP1 ISZERO PUSH2 0x143C JUMPI RETURNDATASIZE PUSH1 0x0 DUP1 RETURNDATACOPY RETURNDATASIZE PUSH1 0x0 REVERT JUMPDEST POP POP POP POP JUMP JUMPDEST PUSH1 0x4 SLOAD PUSH1 0x1 PUSH1 0xA0 SHL SWAP1 DIV PUSH1 0xFF AND ISZERO ISZERO PUSH1 0x1 EQ PUSH2 0x1493 JUMPI PUSH1 0x40 MLOAD PUSH3 0x461BCD PUSH1 0xE5 SHL DUP2 MSTORE PUSH1 0x20 PUSH1 0x4 DUP3 ADD MSTORE PUSH1 0x10 PUSH1 0x24 DUP3 ADD MSTORE PUSH16 0x2930B33332B6103BB0B9903237B73297 PUSH1 0x81 SHL PUSH1 0x44 DUP3 ADD MSTORE PUSH1 0x64 ADD PUSH2 0x1E9 JUMP JUMPDEST PUSH1 0x4 DUP1 SLOAD PUSH2 0xFFFF PUSH1 0xA0 SHL NOT AND DUP2 SSTORE PUSH1 0x1 SLOAD PUSH1 0x40 DUP1 MLOAD PUSH4 0x51CFD609 PUSH1 0xE1 SHL DUP2 MSTORE SWAP1 MLOAD PUSH1 0x0 SWAP4 PUSH1 0x1 PUSH1 0x1 PUSH1 0xA0 SHL SUB SWAP1 SWAP4 AND SWAP3 PUSH4 0xA39FAC12 SWAP3 DUP1 DUP3 ADD SWAP3 DUP7 SWAP3 SWAP1 SWAP2 DUP3 SWAP1 SUB ADD DUP2 DUP7 DUP1 EXTCODESIZE ISZERO DUP1 ISZERO PUSH2 0x14E5 JUMPI PUSH1 0x0 DUP1 REVERT JUMPDEST POP GAS STATICCALL ISZERO DUP1 ISZERO PUSH2 0x14F9 JUMPI RETURNDATASIZE PUSH1 0x0 DUP1 RETURNDATACOPY RETURNDATASIZE PUSH1 0x0 REVERT JUMPDEST POP POP POP POP PUSH1 0x40 MLOAD RETURNDATASIZE PUSH1 0x0 DUP3 RETURNDATACOPY PUSH1 0x1F RETURNDATASIZE SWAP1 DUP2 ADD PUSH1 0x1F NOT AND DUP3 ADD PUSH1 0x40 MSTORE PUSH2 0x1521 SWAP2 SWAP1 DUP2 ADD SWAP1 PUSH2 0x1A4B JUMP JUMPDEST SWAP1 POP PUSH1 0x0 JUMPDEST DUP2 MLOAD DUP2 LT ISZERO PUSH2 0x19D6 JUMPI PUSH1 0x0 DUP1 PUSH1 0x0 JUMPDEST PUSH1 0x5 DUP2 LT ISZERO PUSH2 0x188D JUMPI PUSH1 0x1 SLOAD DUP6 MLOAD PUSH1 0x0 SWAP2 PUSH1 0x1 PUSH1 0x1 PUSH1 0xA0 SHL SUB AND SWAP1 PUSH3 0xFDD58E SWAP1 DUP9 SWAP1 DUP9 SWAP1 DUP2 LT PUSH2 0x1567 JUMPI PUSH2 0x1567 PUSH2 0x24FE JUMP JUMPDEST PUSH1 0x20 MUL PUSH1 0x20 ADD ADD MLOAD DUP5 PUSH1 0x4 PUSH2 0x157C SWAP2 SWAP1 PUSH2 0x2497 JUMP JUMPDEST PUSH1 0x40 MLOAD DUP4 PUSH4 0xFFFFFFFF AND PUSH1 0xE0 SHL DUP2 MSTORE PUSH1 0x4 ADD PUSH2 0x1599 SWAP3 SWAP2 SWAP1 PUSH2 0x22C7 JUMP JUMPDEST PUSH1 0x20 PUSH1 0x40 MLOAD DUP1 DUP4 SUB DUP2 DUP7 DUP1 EXTCODESIZE ISZERO DUP1 ISZERO PUSH2 0x15B1 JUMPI PUSH1 0x0 DUP1 REVERT JUMPDEST POP GAS STATICCALL ISZERO DUP1 ISZERO PUSH2 0x15C5 JUMPI RETURNDATASIZE PUSH1 0x0 DUP1 RETURNDATACOPY RETURNDATASIZE PUSH1 0x0 REVERT JUMPDEST POP POP POP POP PUSH1 0x40 MLOAD RETURNDATASIZE PUSH1 0x1F NOT PUSH1 0x1F DUP3 ADD AND DUP3 ADD DUP1 PUSH1 0x40 MSTORE POP DUP2 ADD SWAP1 PUSH2 0x15E9 SWAP2 SWAP1 PUSH2 0x1BAB JUMP JUMPDEST PUSH2 0x15F4 SWAP1 PUSH1 0x32 PUSH2 0x2497 JUMP JUMPDEST PUSH1 0x1 SLOAD DUP8 MLOAD SWAP2 SWAP3 POP PUSH1 0x1 PUSH1 0x1 PUSH1 0xA0 SHL SUB AND SWAP1 PUSH3 0xFDD58E SWAP1 DUP9 SWAP1 DUP9 SWAP1 DUP2 LT PUSH2 0x161D JUMPI PUSH2 0x161D PUSH2 0x24FE JUMP JUMPDEST PUSH1 0x20 MUL PUSH1 0x20 ADD ADD MLOAD DUP5 PUSH1 0x4 PUSH2 0x1632 SWAP2 SWAP1 PUSH2 0x2497 JUMP JUMPDEST PUSH2 0x163D SWAP1 PUSH1 0x1 PUSH2 0x245D JUMP JUMPDEST PUSH1 0x40 MLOAD DUP4 PUSH4 0xFFFFFFFF AND PUSH1 0xE0 SHL DUP2 MSTORE PUSH1 0x4 ADD PUSH2 0x165A SWAP3 SWAP2 SWAP1 PUSH2 0x22C7 JUMP JUMPDEST PUSH1 0x20 PUSH1 0x40 MLOAD DUP1 DUP4 SUB DUP2 DUP7 DUP1 EXTCODESIZE ISZERO DUP1 ISZERO PUSH2 0x1672 JUMPI PUSH1 0x0 DUP1 REVERT JUMPDEST POP GAS STATICCALL ISZERO DUP1 ISZERO PUSH2 0x1686 JUMPI RETURNDATASIZE PUSH1 0x0 DUP1 RETURNDATACOPY RETURNDATASIZE PUSH1 0x0 REVERT JUMPDEST POP POP POP POP PUSH1 0x40 MLOAD RETURNDATASIZE PUSH1 0x1F NOT PUSH1 0x1F DUP3 ADD AND DUP3 ADD DUP1 PUSH1 0x40 MSTORE POP DUP2 ADD SWAP1 PUSH2 0x16AA SWAP2 SWAP1 PUSH2 0x1BAB JUMP JUMPDEST PUSH2 0x16B5 SWAP1 PUSH1 0xC8 PUSH2 0x2497 JUMP JUMPDEST PUSH2 0x16BF SWAP1 DUP3 PUSH2 0x245D JUMP JUMPDEST PUSH1 0x1 SLOAD DUP8 MLOAD SWAP2 SWAP3 POP PUSH1 0x1 PUSH1 0x1 PUSH1 0xA0 SHL SUB AND SWAP1 PUSH3 0xFDD58E SWAP1 DUP9 SWAP1 DUP9 SWAP1 DUP2 LT PUSH2 0x16E8 JUMPI PUSH2 0x16E8 PUSH2 0x24FE JUMP JUMPDEST PUSH1 0x20 MUL PUSH1 0x20 ADD ADD MLOAD DUP5 PUSH1 0x4 PUSH2 0x16FD SWAP2 SWAP1 PUSH2 0x2497 JUMP JUMPDEST PUSH2 0x1708 SWAP1 PUSH1 0x2 PUSH2 0x245D JUMP JUMPDEST PUSH1 0x40 MLOAD DUP4 PUSH4 0xFFFFFFFF AND PUSH1 0xE0 SHL DUP2 MSTORE PUSH1 0x4 ADD PUSH2 0x1725 SWAP3 SWAP2 SWAP1 PUSH2 0x22C7 JUMP JUMPDEST PUSH1 0x20 PUSH1 0x40 MLOAD DUP1 DUP4 SUB DUP2 DUP7 DUP1 EXTCODESIZE ISZERO DUP1 ISZERO PUSH2 0x173D JUMPI PUSH1 0x0 DUP1 REVERT JUMPDEST POP GAS STATICCALL ISZERO DUP1 ISZERO PUSH2 0x1751 JUMPI RETURNDATASIZE PUSH1 0x0 DUP1 RETURNDATACOPY RETURNDATASIZE PUSH1 0x0 REVERT JUMPDEST POP POP POP POP PUSH1 0x40 MLOAD RETURNDATASIZE PUSH1 0x1F NOT PUSH1 0x1F DUP3 ADD AND DUP3 ADD DUP1 PUSH1 0x40 MSTORE POP DUP2 ADD SWAP1 PUSH2 0x1775 SWAP2 SWAP1 PUSH2 0x1BAB JUMP JUMPDEST PUSH2 0x1781 SWAP1 PUSH2 0x2EE PUSH2 0x2497 JUMP JUMPDEST PUSH2 0x178B SWAP1 DUP3 PUSH2 0x245D JUMP JUMPDEST PUSH1 0x1 SLOAD DUP8 MLOAD SWAP2 SWAP3 POP PUSH1 0x1 PUSH1 0x1 PUSH1 0xA0 SHL SUB AND SWAP1 PUSH3 0xFDD58E SWAP1 DUP9 SWAP1 DUP9 SWAP1 DUP2 LT PUSH2 0x17B4 JUMPI PUSH2 0x17B4 PUSH2 0x24FE JUMP JUMPDEST PUSH1 0x20 MUL PUSH1 0x20 ADD ADD MLOAD DUP5 PUSH1 0x4 PUSH2 0x17C9 SWAP2 SWAP1 PUSH2 0x2497 JUMP JUMPDEST PUSH2 0x17D4 SWAP1 PUSH1 0x3 PUSH2 0x245D JUMP JUMPDEST PUSH1 0x40 MLOAD DUP4 PUSH4 0xFFFFFFFF AND PUSH1 0xE0 SHL DUP2 MSTORE PUSH1 0x4 ADD PUSH2 0x17F1 SWAP3 SWAP2 SWAP1 PUSH2 0x22C7 JUMP JUMPDEST PUSH1 0x20 PUSH1 0x40 MLOAD DUP1 DUP4 SUB DUP2 DUP7 DUP1 EXTCODESIZE ISZERO DUP1 ISZERO PUSH2 0x1809 JUMPI PUSH1 0x0 DUP1 REVERT JUMPDEST POP GAS STATICCALL ISZERO DUP1 ISZERO PUSH2 0x181D JUMPI RETURNDATASIZE PUSH1 0x0 DUP1 RETURNDATACOPY RETURNDATASIZE PUSH1 0x0 REVERT JUMPDEST POP POP POP POP PUSH1 0x40 MLOAD RETURNDATASIZE PUSH1 0x1F NOT PUSH1 0x1F DUP3 ADD AND DUP3 ADD DUP1 PUSH1 0x40 MSTORE POP DUP2 ADD SWAP1 PUSH2 0x1841 SWAP2 SWAP1 PUSH2 0x1BAB JUMP JUMPDEST PUSH2 0x184D SWAP1 PUSH2 0x9C4 PUSH2 0x2497 JUMP JUMPDEST PUSH2 0x1857 SWAP1 DUP3 PUSH2 0x245D JUMP JUMPDEST SWAP1 POP DUP1 ISZERO PUSH2 0x186D JUMPI PUSH2 0x186A PUSH1 0x1 DUP5 PUSH2 0x245D JUMP JUMPDEST SWAP3 POP JUMPDEST PUSH2 0x1877 DUP2 DUP6 PUSH2 0x245D JUMP JUMPDEST SWAP4 POP POP DUP1 DUP1 PUSH2 0x1885 SWAP1 PUSH2 0x24CD JUMP JUMPDEST SWAP2 POP POP PUSH2 0x1535 JUMP JUMPDEST POP DUP2 ISZERO PUSH2 0x19C1 JUMPI PUSH1 0x5 DUP1 SLOAD PUSH1 0x1 DUP2 ADD DUP3 SSTORE PUSH1 0x0 SWAP2 SWAP1 SWAP2 MSTORE PUSH32 0x36B6384B5ECA791C62761152D0C79BB0604C104A5FB6F4EB0703F3154BB3DB0 ADD DUP3 SWAP1 SSTORE DUP4 MLOAD PUSH1 0x6 SWAP1 DUP6 SWAP1 DUP6 SWAP1 DUP2 LT PUSH2 0x18E0 JUMPI PUSH2 0x18E0 PUSH2 0x24FE JUMP JUMPDEST PUSH1 0x20 SWAP1 DUP2 MUL SWAP2 SWAP1 SWAP2 ADD DUP2 ADD MLOAD DUP3 SLOAD PUSH1 0x1 DUP2 ADD DUP5 SSTORE PUSH1 0x0 SWAP4 DUP5 MSTORE SWAP2 SWAP1 SWAP3 KECCAK256 ADD DUP1 SLOAD PUSH1 0x1 PUSH1 0x1 PUSH1 0xA0 SHL SUB NOT AND PUSH1 0x1 PUSH1 0x1 PUSH1 0xA0 SHL SUB SWAP1 SWAP3 AND SWAP2 SWAP1 SWAP2 OR SWAP1 SSTORE PUSH1 0x5 DUP2 EQ ISZERO PUSH2 0x1976 JUMPI PUSH1 0x7 DUP1 SLOAD PUSH1 0x1 DUP2 ADD DUP3 SSTORE PUSH1 0x0 SWAP2 SWAP1 SWAP2 MSTORE PUSH1 0x20 DUP2 DIV PUSH32 0xA66CC928B5EDB82AF9BD49922954155AB7B0942694BEA4CE44661D9A8736C688 ADD DUP1 SLOAD PUSH1 0xFF PUSH1 0x1F SWAP1 SWAP4 AND PUSH2 0x100 EXP SWAP3 DUP4 MUL NOT AND SWAP1 SWAP2 OR SWAP1 SSTORE PUSH2 0x19C1 JUMP JUMPDEST PUSH1 0x7 DUP1 SLOAD PUSH1 0x1 DUP2 ADD DUP3 SSTORE PUSH1 0x0 SWAP2 SWAP1 SWAP2 MSTORE PUSH32 0xA66CC928B5EDB82AF9BD49922954155AB7B0942694BEA4CE44661D9A8736C688 PUSH1 0x20 DUP3 DIV ADD DUP1 SLOAD PUSH1 0x1F SWAP1 SWAP3 AND PUSH2 0x100 EXP PUSH1 0xFF MUL NOT SWAP1 SWAP2 AND SWAP1 SSTORE JUMPDEST POP POP DUP1 DUP1 PUSH2 0x19CE SWAP1 PUSH2 0x24CD JUMP JUMPDEST SWAP2 POP POP PUSH2 0x1526 JUMP JUMPDEST POP PUSH1 0x0 SLOAD PUSH1 0x40 MLOAD PUSH4 0x1C049515 PUSH1 0xE0 SHL DUP2 MSTORE PUSH1 0x1 PUSH1 0x1 PUSH1 0xA0 SHL SUB PUSH2 0x100 DUP4 DIV AND SWAP2 PUSH4 0x1C049515 SWAP2 PUSH2 0x42A SWAP2 PUSH1 0x5 SWAP2 PUSH1 0x6 SWAP2 PUSH1 0x7 SWAP2 PUSH1 0xFF SWAP1 SWAP2 AND SWAP1 PUSH1 0x4 ADD PUSH2 0x232D JUMP JUMPDEST DUP1 MLOAD PUSH2 0x1A22 DUP2 PUSH2 0x252A JUMP JUMPDEST SWAP2 SWAP1 POP JUMP JUMPDEST PUSH1 0x0 PUSH1 0x20 DUP3 DUP5 SUB SLT ISZERO PUSH2 0x1A39 JUMPI PUSH1 0x0 DUP1 REVERT JUMPDEST DUP2 CALLDATALOAD PUSH2 0x1A44 DUP2 PUSH2 0x252A JUMP JUMPDEST SWAP4 SWAP3 POP POP POP JUMP JUMPDEST PUSH1 0x0 PUSH1 0x20 DUP1 DUP4 DUP6 SUB SLT ISZERO PUSH2 0x1A5E JUMPI PUSH1 0x0 DUP1 REVERT JUMPDEST DUP3 MLOAD PUSH8 0xFFFFFFFFFFFFFFFF DUP1 DUP3 GT ISZERO PUSH2 0x1A76 JUMPI PUSH1 0x0 DUP1 REVERT JUMPDEST DUP2 DUP6 ADD SWAP2 POP DUP6 PUSH1 0x1F DUP4 ADD SLT PUSH2 0x1A8A JUMPI PUSH1 0x0 DUP1 REVERT JUMPDEST DUP2 MLOAD DUP2 DUP2 GT ISZERO PUSH2 0x1A9C JUMPI PUSH2 0x1A9C PUSH2 0x2514 JUMP JUMPDEST DUP1 PUSH1 0x5 SHL PUSH1 0x40 MLOAD PUSH1 0x1F NOT PUSH1 0x3F DUP4 ADD AND DUP2 ADD DUP2 DUP2 LT DUP6 DUP3 GT OR ISZERO PUSH2 0x1AC1 JUMPI PUSH2 0x1AC1 PUSH2 0x2514 JUMP JUMPDEST PUSH1 0x40 MSTORE DUP3 DUP2 MSTORE DUP6 DUP2 ADD SWAP4 POP DUP5 DUP7 ADD DUP3 DUP7 ADD DUP8 ADD DUP11 LT ISZERO PUSH2 0x1AE0 JUMPI PUSH1 0x0 DUP1 REVERT JUMPDEST PUSH1 0x0 SWAP6 POP JUMPDEST DUP4 DUP7 LT ISZERO PUSH2 0x1B0A JUMPI PUSH2 0x1AF6 DUP2 PUSH2 0x1A17 JUMP JUMPDEST DUP6 MSTORE PUSH1 0x1 SWAP6 SWAP1 SWAP6 ADD SWAP5 SWAP4 DUP7 ADD SWAP4 DUP7 ADD PUSH2 0x1AE5 JUMP JUMPDEST POP SWAP9 SWAP8 POP POP POP POP POP POP POP POP JUMP JUMPDEST PUSH1 0x0 PUSH1 0x20 DUP3 DUP5 SUB SLT ISZERO PUSH2 0x1B29 JUMPI PUSH1 0x0 DUP1 REVERT JUMPDEST DUP2 CALLDATALOAD DUP1 ISZERO ISZERO DUP2 EQ PUSH2 0x1A44 JUMPI PUSH1 0x0 DUP1 REVERT JUMPDEST PUSH1 0x0 DUP1 PUSH1 0x20 DUP4 DUP6 SUB SLT ISZERO PUSH2 0x1B4C JUMPI PUSH1 0x0 DUP1 REVERT JUMPDEST DUP3 CALLDATALOAD PUSH8 0xFFFFFFFFFFFFFFFF DUP1 DUP3 GT ISZERO PUSH2 0x1B64 JUMPI PUSH1 0x0 DUP1 REVERT JUMPDEST DUP2 DUP6 ADD SWAP2 POP DUP6 PUSH1 0x1F DUP4 ADD SLT PUSH2 0x1B78 JUMPI PUSH1 0x0 DUP1 REVERT JUMPDEST DUP2 CALLDATALOAD DUP2 DUP2 GT ISZERO PUSH2 0x1B87 JUMPI PUSH1 0x0 DUP1 REVERT JUMPDEST DUP7 PUSH1 0x20 DUP3 DUP6 ADD ADD GT ISZERO PUSH2 0x1B99 JUMPI PUSH1 0x0 DUP1 REVERT JUMPDEST PUSH1 0x20 SWAP3 SWAP1 SWAP3 ADD SWAP7 SWAP2 SWAP6 POP SWAP1 SWAP4 POP POP POP POP JUMP JUMPDEST PUSH1 0x0 PUSH1 0x20 DUP3 DUP5 SUB SLT ISZERO PUSH2 0x1BBD JUMPI PUSH1 0x0 DUP1 REVERT JUMPDEST POP MLOAD SWAP2 SWAP1 POP JUMP JUMPDEST DUP1 SLOAD DUP1 DUP4 MSTORE PUSH1 0x0 DUP3 DUP2 MSTORE PUSH1 0x20 DUP1 DUP3 KECCAK256 SWAP5 ADD SWAP4 SWAP1 SWAP2 SWAP1 DUP3 JUMPDEST DUP3 PUSH1 0x1F DUP3 ADD LT ISZERO PUSH2 0x1E4B JUMPI DUP2 SLOAD PUSH1 0xFF DUP1 DUP3 AND ISZERO ISZERO DUP9 MSTORE PUSH1 0x20 PUSH2 0x1C05 DUP2 DUP11 ADD DUP4 DUP6 PUSH1 0x8 SHR AND ISZERO ISZERO SWAP1 MSTORE JUMP JUMPDEST PUSH1 0x40 PUSH2 0x1C19 DUP2 DUP12 ADD DUP5 DUP7 PUSH1 0x10 SHR AND ISZERO ISZERO SWAP1 MSTORE JUMP JUMPDEST PUSH1 0x60 PUSH2 0x1C2D DUP2 DUP13 ADD DUP6 DUP8 PUSH1 0x18 SHR AND ISZERO ISZERO SWAP1 MSTORE JUMP JUMPDEST PUSH1 0x80 PUSH2 0x1C40 DUP2 DUP14 ADD DUP7 DUP9 DUP8 SHR AND ISZERO ISZERO SWAP1 MSTORE JUMP JUMPDEST PUSH1 0xA0 SWAP4 POP PUSH2 0x1C56 DUP5 DUP14 ADD DUP7 DUP9 PUSH1 0x28 SHR AND ISZERO ISZERO SWAP1 MSTORE JUMP JUMPDEST PUSH1 0xC0 PUSH2 0x1C6A DUP2 DUP15 ADD DUP8 DUP10 PUSH1 0x30 SHR AND ISZERO ISZERO SWAP1 MSTORE JUMP JUMPDEST PUSH1 0xE0 PUSH2 0x1C7E DUP2 DUP16 ADD DUP9 DUP11 PUSH1 0x38 SHR AND ISZERO ISZERO SWAP1 MSTORE JUMP JUMPDEST DUP8 DUP6 SHR DUP8 AND ISZERO ISZERO PUSH2 0x100 DUP16 ADD MSTORE PUSH2 0x1C9F PUSH2 0x120 DUP16 ADD DUP9 DUP11 PUSH1 0x48 SHR AND ISZERO ISZERO SWAP1 MSTORE JUMP JUMPDEST PUSH2 0x1CB3 PUSH2 0x140 DUP16 ADD DUP9 DUP11 PUSH1 0x50 SHR AND ISZERO ISZERO SWAP1 MSTORE JUMP JUMPDEST PUSH2 0x1CC7 PUSH2 0x160 DUP16 ADD DUP9 DUP11 PUSH1 0x58 SHR AND ISZERO ISZERO SWAP1 MSTORE JUMP JUMPDEST DUP8 DUP5 SHR DUP8 AND ISZERO ISZERO PUSH2 0x180 DUP16 ADD MSTORE PUSH2 0x1CE8 PUSH2 0x1A0 DUP16 ADD DUP9 DUP11 PUSH1 0x68 SHR AND ISZERO ISZERO SWAP1 MSTORE JUMP JUMPDEST PUSH2 0x1CFC PUSH2 0x1C0 DUP16 ADD DUP9 DUP11 PUSH1 0x70 SHR AND ISZERO ISZERO SWAP1 MSTORE JUMP JUMPDEST PUSH2 0x1D10 PUSH2 0x1E0 DUP16 ADD DUP9 DUP11 PUSH1 0x78 SHR AND ISZERO ISZERO SWAP1 MSTORE JUMP JUMPDEST DUP8 DUP4 SHR DUP8 AND ISZERO ISZERO PUSH2 0x200 DUP16 ADD MSTORE PUSH2 0x1D31 PUSH2 0x220 DUP16 ADD DUP9 DUP11 PUSH1 0x88 SHR AND ISZERO ISZERO SWAP1 MSTORE JUMP JUMPDEST PUSH2 0x1D45 PUSH2 0x240 DUP16 ADD DUP9 DUP11 PUSH1 0x90 SHR AND ISZERO ISZERO SWAP1 MSTORE JUMP JUMPDEST PUSH2 0x1D59 PUSH2 0x260 DUP16 ADD DUP9 DUP11 PUSH1 0x98 SHR AND ISZERO ISZERO SWAP1 MSTORE JUMP JUMPDEST DUP8 DUP7 SHR DUP8 AND ISZERO ISZERO PUSH2 0x280 DUP16 ADD MSTORE PUSH2 0x1D7A PUSH2 0x2A0 DUP16 ADD DUP9 DUP11 PUSH1 0xA8 SHR AND ISZERO ISZERO SWAP1 MSTORE JUMP JUMPDEST PUSH2 0x1D8E PUSH2 0x2C0 DUP16 ADD DUP9 DUP11 PUSH1 0xB0 SHR AND ISZERO ISZERO SWAP1 MSTORE JUMP JUMPDEST PUSH2 0x1DA2 PUSH2 0x2E0 DUP16 ADD DUP9 DUP11 PUSH1 0xB8 SHR AND ISZERO ISZERO SWAP1 MSTORE JUMP JUMPDEST DUP8 DUP3 SHR DUP8 AND ISZERO ISZERO PUSH2 0x300 DUP16 ADD MSTORE PUSH2 0x1DC3 PUSH2 0x320 DUP16 ADD DUP9 DUP11 PUSH1 0xC8 SHR AND ISZERO ISZERO SWAP1 MSTORE JUMP JUMPDEST PUSH2 0x1DD7 PUSH2 0x340 DUP16 ADD DUP9 DUP11 PUSH1 0xD0 SHR AND ISZERO ISZERO SWAP1 MSTORE JUMP JUMPDEST PUSH2 0x1DEB PUSH2 0x360 DUP16 ADD DUP9 DUP11 PUSH1 0xD8 SHR AND ISZERO ISZERO SWAP1 MSTORE JUMP JUMPDEST DUP8 SWAP1 SHR DUP7 AND ISZERO ISZERO PUSH2 0x380 DUP15 ADD MSTORE POP POP POP POP POP PUSH1 0xE8 DUP3 SWAP1 SHR DUP2 AND ISZERO ISZERO PUSH2 0x3A0 DUP10 ADD MSTORE PUSH2 0x1E20 PUSH2 0x3C0 DUP10 ADD DUP3 DUP5 PUSH1 0xF0 SHR AND ISZERO ISZERO SWAP1 MSTORE JUMP JUMPDEST POP PUSH2 0x1E33 PUSH2 0x3E0 DUP9 ADD DUP3 PUSH1 0xF8 SHR ISZERO ISZERO SWAP1 MSTORE JUMP JUMPDEST POP PUSH2 0x400 SWAP6 SWAP1 SWAP6 ADD SWAP5 PUSH1 0x1 SWAP2 SWAP1 SWAP2 ADD SWAP1 PUSH1 0x20 ADD PUSH2 0x1BDB JUMP JUMPDEST SWAP1 SLOAD SWAP1 DUP3 DUP2 LT ISZERO PUSH2 0x1E68 JUMPI PUSH1 0xFF DUP3 AND ISZERO ISZERO DUP7 MSTORE PUSH1 0x20 SWAP1 SWAP6 ADD SWAP5 PUSH1 0x1 ADD JUMPDEST DUP3 DUP2 LT ISZERO PUSH2 0x1E8C JUMPI PUSH2 0x1E81 DUP7 PUSH1 0xFF DUP5 PUSH1 0x8 SHR AND ISZERO ISZERO SWAP1 MSTORE JUMP JUMPDEST PUSH1 0x20 SWAP6 SWAP1 SWAP6 ADD SWAP5 PUSH1 0x1 ADD JUMPDEST DUP3 DUP2 LT ISZERO PUSH2 0x1EB0 JUMPI PUSH2 0x1EA5 DUP7 PUSH1 0xFF DUP5 PUSH1 0x10 SHR AND ISZERO ISZERO SWAP1 MSTORE JUMP JUMPDEST PUSH1 0x20 SWAP6 SWAP1 SWAP6 ADD SWAP5 PUSH1 0x1 ADD JUMPDEST DUP3 DUP2 LT ISZERO PUSH2 0x1ED4 JUMPI PUSH2 0x1EC9 DUP7 PUSH1 0xFF DUP5 PUSH1 0x18 SHR AND ISZERO ISZERO SWAP1 MSTORE JUMP JUMPDEST PUSH1 0x20 SWAP6 SWAP1 SWAP6 ADD SWAP5 PUSH1 0x1 ADD JUMPDEST DUP3 DUP2 LT ISZERO PUSH2 0x1EF8 JUMPI PUSH2 0x1EED DUP7 PUSH1 0xFF DUP5 PUSH1 0x20 SHR AND ISZERO ISZERO SWAP1 MSTORE JUMP JUMPDEST PUSH1 0x20 SWAP6 SWAP1 SWAP6 ADD SWAP5 PUSH1 0x1 ADD JUMPDEST DUP3 DUP2 LT ISZERO PUSH2 0x1F1C JUMPI PUSH2 0x1F11 DUP7 PUSH1 0xFF DUP5 PUSH1 0x28 SHR AND ISZERO ISZERO SWAP1 MSTORE JUMP JUMPDEST PUSH1 0x20 SWAP6 SWAP1 SWAP6 ADD SWAP5 PUSH1 0x1 ADD JUMPDEST DUP3 DUP2 LT ISZERO PUSH2 0x1F40 JUMPI PUSH2 0x1F35 DUP7 PUSH1 0xFF DUP5 PUSH1 0x30 SHR AND ISZERO ISZERO SWAP1 MSTORE JUMP JUMPDEST PUSH1 0x20 SWAP6 SWAP1 SWAP6 ADD SWAP5 PUSH1 0x1 ADD JUMPDEST DUP3 DUP2 LT ISZERO PUSH2 0x1F64 JUMPI PUSH2 0x1F59 DUP7 PUSH1 0xFF DUP5 PUSH1 0x38 SHR AND ISZERO ISZERO SWAP1 MSTORE JUMP JUMPDEST PUSH1 0x20 SWAP6 SWAP1 SWAP6 ADD SWAP5 PUSH1 0x1 ADD JUMPDEST DUP3 DUP2 LT ISZERO PUSH2 0x1F88 JUMPI PUSH2 0x1F7D DUP7 PUSH1 0xFF DUP5 PUSH1 0x40 SHR AND ISZERO ISZERO SWAP1 MSTORE JUMP JUMPDEST PUSH1 0x20 SWAP6 SWAP1 SWAP6 ADD SWAP5 PUSH1 0x1 ADD JUMPDEST DUP3 DUP2 LT ISZERO PUSH2 0x1FAC JUMPI PUSH2 0x1FA1 DUP7 PUSH1 0xFF DUP5 PUSH1 0x48 SHR AND ISZERO ISZERO SWAP1 MSTORE JUMP JUMPDEST PUSH1 0x20 SWAP6 SWAP1 SWAP6 ADD SWAP5 PUSH1 0x1 ADD JUMPDEST DUP3 DUP2 LT ISZERO PUSH2 0x1FD0 JUMPI PUSH2 0x1FC5 DUP7 PUSH1 0xFF DUP5 PUSH1 0x50 SHR AND ISZERO ISZERO SWAP1 MSTORE JUMP JUMPDEST PUSH1 0x20 SWAP6 SWAP1 SWAP6 ADD SWAP5 PUSH1 0x1 ADD JUMPDEST DUP3 DUP2 LT ISZERO PUSH2 0x1FF4 JUMPI PUSH2 0x1FE9 DUP7 PUSH1 0xFF DUP5 PUSH1 0x58 SHR AND ISZERO ISZERO SWAP1 MSTORE JUMP JUMPDEST PUSH1 0x20 SWAP6 SWAP1 SWAP6 ADD SWAP5 PUSH1 0x1 ADD JUMPDEST DUP3 DUP2 LT ISZERO PUSH2 0x2018 JUMPI PUSH2 0x200D DUP7 PUSH1 0xFF DUP5 PUSH1 0x60 SHR AND ISZERO ISZERO SWAP1 MSTORE JUMP JUMPDEST PUSH1 0x20 SWAP6 SWAP1 SWAP6 ADD SWAP5 PUSH1 0x1 ADD JUMPDEST DUP3 DUP2 LT ISZERO PUSH2 0x203C JUMPI PUSH2 0x2031 DUP7 PUSH1 0xFF DUP5 PUSH1 0x68 SHR AND ISZERO ISZERO SWAP1 MSTORE JUMP JUMPDEST PUSH1 0x20 SWAP6 SWAP1 SWAP6 ADD SWAP5 PUSH1 0x1 ADD JUMPDEST DUP3 DUP2 LT ISZERO PUSH2 0x2060 JUMPI PUSH2 0x2055 DUP7 PUSH1 0xFF DUP5 PUSH1 0x70 SHR AND ISZERO ISZERO SWAP1 MSTORE JUMP JUMPDEST PUSH1 0x20 SWAP6 SWAP1 SWAP6 ADD SWAP5 PUSH1 0x1 ADD JUMPDEST DUP3 DUP2 LT ISZERO PUSH2 0x2084 JUMPI PUSH2 0x2079 DUP7 PUSH1 0xFF DUP5 PUSH1 0x78 SHR AND ISZERO ISZERO SWAP1 MSTORE JUMP JUMPDEST PUSH1 0x20 SWAP6 SWAP1 SWAP6 ADD SWAP5 PUSH1 0x1 ADD JUMPDEST DUP3 DUP2 LT ISZERO PUSH2 0x20A8 JUMPI PUSH2 0x209D DUP7 PUSH1 0xFF DUP5 PUSH1 0x80 SHR AND ISZERO ISZERO SWAP1 MSTORE JUMP JUMPDEST PUSH1 0x20 SWAP6 SWAP1 SWAP6 ADD SWAP5 PUSH1 0x1 ADD JUMPDEST DUP3 DUP2 LT ISZERO PUSH2 0x20CC JUMPI PUSH2 0x20C1 DUP7 PUSH1 0xFF DUP5 PUSH1 0x88 SHR AND ISZERO ISZERO SWAP1 MSTORE JUMP JUMPDEST PUSH1 0x20 SWAP6 SWAP1 SWAP6 ADD SWAP5 PUSH1 0x1 ADD JUMPDEST DUP3 DUP2 LT ISZERO PUSH2 0x20F0 JUMPI PUSH2 0x20E5 DUP7 PUSH1 0xFF DUP5 PUSH1 0x90 SHR AND ISZERO ISZERO SWAP1 MSTORE JUMP JUMPDEST PUSH1 0x20 SWAP6 SWAP1 SWAP6 ADD SWAP5 PUSH1 0x1 ADD JUMPDEST DUP3 DUP2 LT ISZERO PUSH2 0x2114 JUMPI PUSH2 0x2109 DUP7 PUSH1 0xFF DUP5 PUSH1 0x98 SHR AND ISZERO ISZERO SWAP1 MSTORE JUMP JUMPDEST PUSH1 0x20 SWAP6 SWAP1 SWAP6 ADD SWAP5 PUSH1 0x1 ADD JUMPDEST DUP3 DUP2 LT ISZERO PUSH2 0x2138 JUMPI PUSH2 0x212D DUP7 PUSH1 0xFF DUP5 PUSH1 0xA0 SHR AND ISZERO ISZERO SWAP1 MSTORE JUMP JUMPDEST PUSH1 0x20 SWAP6 SWAP1 SWAP6 ADD SWAP5 PUSH1 0x1 ADD JUMPDEST DUP3 DUP2 LT ISZERO PUSH2 0x215C JUMPI PUSH2 0x2151 DUP7 PUSH1 0xFF DUP5 PUSH1 0xA8 SHR AND ISZERO ISZERO SWAP1 MSTORE JUMP JUMPDEST PUSH1 0x20 SWAP6 SWAP1 SWAP6 ADD SWAP5 PUSH1 0x1 ADD JUMPDEST DUP3 DUP2 LT ISZERO PUSH2 0x2180 JUMPI PUSH2 0x2175 DUP7 PUSH1 0xFF DUP5 PUSH1 0xB0 SHR AND ISZERO ISZERO SWAP1 MSTORE JUMP JUMPDEST PUSH1 0x20 SWAP6 SWAP1 SWAP6 ADD SWAP5 PUSH1 0x1 ADD JUMPDEST DUP3 DUP2 LT ISZERO PUSH2 0x21A4 JUMPI PUSH2 0x2199 DUP7 PUSH1 0xFF DUP5 PUSH1 0xB8 SHR AND ISZERO ISZERO SWAP1 MSTORE JUMP JUMPDEST PUSH1 0x20 SWAP6 SWAP1 SWAP6 ADD SWAP5 PUSH1 0x1 ADD JUMPDEST DUP3 DUP2 LT ISZERO PUSH2 0x21C8 JUMPI PUSH2 0x21BD DUP7 PUSH1 0xFF DUP5 PUSH1 0xC0 SHR AND ISZERO ISZERO SWAP1 MSTORE JUMP JUMPDEST PUSH1 0x20 SWAP6 SWAP1 SWAP6 ADD SWAP5 PUSH1 0x1 ADD JUMPDEST DUP3 DUP2 LT ISZERO PUSH2 0x21EC JUMPI PUSH2 0x21E1 DUP7 PUSH1 0xFF DUP5 PUSH1 0xC8 SHR AND ISZERO ISZERO SWAP1 MSTORE JUMP JUMPDEST PUSH1 0x20 SWAP6 SWAP1 SWAP6 ADD SWAP5 PUSH1 0x1 ADD JUMPDEST DUP3 DUP2 LT ISZERO PUSH2 0x2210 JUMPI PUSH2 0x2205 DUP7 PUSH1 0xFF DUP5 PUSH1 0xD0 SHR AND ISZERO ISZERO SWAP1 MSTORE JUMP JUMPDEST PUSH1 0x20 SWAP6 SWAP1 SWAP6 ADD SWAP5 PUSH1 0x1 ADD JUMPDEST DUP3 DUP2 LT ISZERO PUSH2 0x2234 JUMPI PUSH2 0x2229 DUP7 PUSH1 0xFF DUP5 PUSH1 0xD8 SHR AND ISZERO ISZERO SWAP1 MSTORE JUMP JUMPDEST PUSH1 0x20 SWAP6 SWAP1 SWAP6 ADD SWAP5 PUSH1 0x1 ADD JUMPDEST DUP3 DUP2 LT ISZERO PUSH2 0x2258 JUMPI PUSH2 0x224D DUP7 PUSH1 0xFF DUP5 PUSH1 0xE0 SHR AND ISZERO ISZERO SWAP1 MSTORE JUMP JUMPDEST PUSH1 0x20 SWAP6 SWAP1 SWAP6 ADD SWAP5 PUSH1 0x1 ADD JUMPDEST DUP3 DUP2 LT ISZERO PUSH2 0x227C JUMPI PUSH2 0x2271 DUP7 PUSH1 0xFF DUP5 PUSH1 0xE8 SHR AND ISZERO ISZERO SWAP1 MSTORE JUMP JUMPDEST PUSH1 0x20 SWAP6 SWAP1 SWAP6 ADD SWAP5 PUSH1 0x1 ADD JUMPDEST DUP3 DUP2 LT ISZERO PUSH2 0x22A0 JUMPI PUSH2 0x2295 DUP7 PUSH1 0xFF DUP5 PUSH1 0xF0 SHR AND ISZERO ISZERO SWAP1 MSTORE JUMP JUMPDEST PUSH1 0x20 SWAP6 SWAP1 SWAP6 ADD SWAP5 PUSH1 0x1 ADD JUMPDEST DUP3 DUP2 LT ISZERO PUSH2 0x22BD JUMPI PUSH2 0x22B6 DUP7 DUP4 PUSH1 0xF8 SHR ISZERO ISZERO SWAP1 MSTORE JUMP JUMPDEST PUSH1 0x20 DUP7 ADD SWAP6 POP JUMPDEST POP SWAP4 SWAP5 SWAP4 POP POP POP POP JUMP JUMPDEST PUSH1 0x1 PUSH1 0x1 PUSH1 0xA0 SHL SUB SWAP3 SWAP1 SWAP3 AND DUP3 MSTORE PUSH1 0x20 DUP3 ADD MSTORE PUSH1 0x40 ADD SWAP1 JUMP JUMPDEST PUSH1 0x20 DUP1 DUP3 MSTORE DUP3 MLOAD DUP3 DUP3 ADD DUP2 SWAP1 MSTORE PUSH1 0x0 SWAP2 SWAP1 DUP5 DUP3 ADD SWAP1 PUSH1 0x40 DUP6 ADD SWAP1 DUP5 JUMPDEST DUP2 DUP2 LT ISZERO PUSH2 0x2321 JUMPI DUP4 MLOAD PUSH1 0x1 PUSH1 0x1 PUSH1 0xA0 SHL SUB AND DUP4 MSTORE SWAP3 DUP5 ADD SWAP3 SWAP2 DUP5 ADD SWAP2 PUSH1 0x1 ADD PUSH2 0x22FC JUMP JUMPDEST POP SWAP1 SWAP7 SWAP6 POP POP POP POP POP POP JUMP JUMPDEST PUSH1 0x0 PUSH1 0x80 DUP3 ADD PUSH1 0x80 DUP4 MSTORE DUP1 DUP8 SLOAD DUP1 DUP4 MSTORE PUSH1 0xA0 DUP6 ADD SWAP2 POP PUSH1 0x0 SWAP3 POP DUP9 DUP4 MSTORE PUSH1 0x20 DUP1 DUP5 KECCAK256 DUP5 JUMPDEST DUP4 DUP2 LT ISZERO PUSH2 0x236D JUMPI DUP2 SLOAD DUP6 MSTORE SWAP4 DUP3 ADD SWAP4 PUSH1 0x1 SWAP2 DUP3 ADD SWAP2 ADD PUSH2 0x2351 JUMP JUMPDEST POP POP DUP6 DUP4 SUB DUP2 DUP8 ADD MSTORE DUP9 SLOAD DUP1 DUP5 MSTORE DUP10 DUP6 MSTORE DUP2 DUP6 KECCAK256 SWAP4 DUP3 ADD SWAP3 POP JUMPDEST DUP1 DUP6 LT ISZERO PUSH2 0x23AF JUMPI DUP4 SLOAD PUSH1 0x1 PUSH1 0x1 PUSH1 0xA0 SHL SUB AND DUP4 MSTORE PUSH1 0x1 SWAP5 DUP6 ADD SWAP5 SWAP1 SWAP4 ADD SWAP3 SWAP2 DUP2 ADD SWAP2 PUSH2 0x2387 JUMP JUMPDEST POP POP DUP5 DUP2 SUB PUSH1 0x40 DUP7 ADD MSTORE PUSH2 0x23C3 DUP2 DUP9 PUSH2 0x1BC4 JUMP JUMPDEST SWAP4 POP POP POP POP PUSH2 0x23D6 PUSH1 0x60 DUP4 ADD DUP5 ISZERO ISZERO SWAP1 MSTORE JUMP JUMPDEST SWAP6 SWAP5 POP POP POP POP POP JUMP JUMPDEST DUP3 ISZERO ISZERO DUP2 MSTORE PUSH1 0x0 PUSH1 0x20 PUSH1 0x40 DUP2 DUP5 ADD MSTORE DUP4 MLOAD DUP1 PUSH1 0x40 DUP6 ADD MSTORE PUSH1 0x0 JUMPDEST DUP2 DUP2 LT ISZERO PUSH2 0x2415 JUMPI DUP6 DUP2 ADD DUP4 ADD MLOAD DUP6 DUP3 ADD PUSH1 0x60 ADD MSTORE DUP3 ADD PUSH2 0x23F9 JUMP JUMPDEST DUP2 DUP2 GT ISZERO PUSH2 0x2427 JUMPI PUSH1 0x0 PUSH1 0x60 DUP4 DUP8 ADD ADD MSTORE JUMPDEST POP PUSH1 0x1F ADD PUSH1 0x1F NOT AND SWAP3 SWAP1 SWAP3 ADD PUSH1 0x60 ADD SWAP5 SWAP4 POP POP POP POP JUMP JUMPDEST SWAP3 DUP4 MSTORE PUSH1 0x1 PUSH1 0x1 PUSH1 0xA0 SHL SUB SWAP2 SWAP1 SWAP2 AND PUSH1 0x20 DUP4 ADD MSTORE PUSH1 0x40 DUP3 ADD MSTORE PUSH1 0x60 ADD SWAP1 JUMP JUMPDEST PUSH1 0x0 DUP3 NOT DUP3 GT ISZERO PUSH2 0x2470 JUMPI PUSH2 0x2470 PUSH2 0x24E8 JUMP JUMPDEST POP ADD SWAP1 JUMP JUMPDEST PUSH1 0x0 DUP3 PUSH2 0x2492 JUMPI PUSH4 0x4E487B71 PUSH1 0xE0 SHL PUSH1 0x0 MSTORE PUSH1 0x12 PUSH1 0x4 MSTORE PUSH1 0x24 PUSH1 0x0 REVERT JUMPDEST POP DIV SWAP1 JUMP JUMPDEST PUSH1 0x0 DUP2 PUSH1 0x0 NOT DIV DUP4 GT DUP3 ISZERO ISZERO AND ISZERO PUSH2 0x24B1 JUMPI PUSH2 0x24B1 PUSH2 0x24E8 JUMP JUMPDEST POP MUL SWAP1 JUMP JUMPDEST PUSH1 0x0 DUP3 DUP3 LT ISZERO PUSH2 0x24C8 JUMPI PUSH2 0x24C8 PUSH2 0x24E8 JUMP JUMPDEST POP SUB SWAP1 JUMP JUMPDEST PUSH1 0x0 PUSH1 0x0 NOT DUP3 EQ ISZERO PUSH2 0x24E1 JUMPI PUSH2 0x24E1 PUSH2 0x24E8 JUMP JUMPDEST POP PUSH1 0x1 ADD SWAP1 JUMP JUMPDEST PUSH4 0x4E487B71 PUSH1 0xE0 SHL PUSH1 0x0 MSTORE PUSH1 0x11 PUSH1 0x4 MSTORE PUSH1 0x24 PUSH1 0x0 REVERT JUMPDEST PUSH4 0x4E487B71 PUSH1 0xE0 SHL PUSH1 0x0 MSTORE PUSH1 0x32 PUSH1 0x4 MSTORE PUSH1 0x24 PUSH1 0x0 REVERT JUMPDEST PUSH4 0x4E487B71 PUSH1 0xE0 SHL PUSH1 0x0 MSTORE PUSH1 0x41 PUSH1 0x4 MSTORE PUSH1 0x24 PUSH1 0x0 REVERT JUMPDEST PUSH1 0x1 PUSH1 0x1 PUSH1 0xA0 SHL SUB DUP2 AND DUP2 EQ PUSH2 0xF45 JUMPI PUSH1 0x0 DUP1 REVERT INVALID LOG2 PUSH5 0x6970667358 0x22 SLT KECCAK256 0xCE SWAP2 CALLDATASIZE 0xAF SWAP2 0xAD 0xD0 0xD6 0xEA 0xE7 SWAP3 0xD1 0xC6 0xAC DUP16 CALLCODE 0xC0 0x2E 0xCB PUSH29 0x68A2CB62E7D3041932F7119364736F6C63430008070033000000000000 "
		},
		"gasEstimates": {
			"creation": {
				"codeDepositCost": "1917800",
				"executionCost": "infinite",
				"totalCost": "infinite"
			},
			"external": {
				"buyPlayer()": "infinite",
				"changeOwner(address)": "26749",
				"changeVrf(bool)": "26722",
				"checkUpkeep(bytes)": "infinite",
				"getAddresses()": "infinite",
				"performUpkeep(bytes)": "infinite",
				"simulateKeeper()": "infinite",
				"upgradeAllToMax()": "infinite",
				"withDraw(address)": "infinite"
			},
			"internal": {
				"_checkUpkeep()": "infinite",
				"_createDistributionForRaffel()": "infinite",
				"_performUpkeep()": "infinite",
				"_updatePlayer()": "infinite"
			}
		},
		"methodIdentifiers": {
			"buyPlayer()": "49f22cd8",
			"changeOwner(address)": "a6f9dae1",
			"changeVrf(bool)": "ef638007",
			"checkUpkeep(bytes)": "6e04ff0d",
			"getAddresses()": "a39fac12",
			"performUpkeep(bytes)": "4585e33b",
			"simulateKeeper()": "a7cf018a",
			"upgradeAllToMax()": "593292b6",
			"withDraw(address)": "0a67d2c7"
		}
	},
	"abi": [
		{
			"inputs": [
				{
					"internalType": "address",
					"name": "mintingProcess_address",
					"type": "address"
				},
				{
					"internalType": "address",
					"name": "svg_address",
					"type": "address"
				},
				{
					"internalType": "bool",
					"name": "_vrf",
					"type": "bool"
				},
				{
					"internalType": "uint256",
					"name": "_startRaffel",
					"type": "uint256"
				},
				{
					"internalType": "uint256",
					"name": "_checkOracle",
					"type": "uint256"
				}
			],
			"stateMutability": "nonpayable",
			"type": "constructor"
		},
		{
			"inputs": [],
			"name": "buyPlayer",
			"outputs": [],
			"stateMutability": "payable",
			"type": "function"
		},
		{
			"inputs": [
				{
					"internalType": "address",
					"name": "_newOwner",
					"type": "address"
				}
			],
			"name": "changeOwner",
			"outputs": [],
			"stateMutability": "nonpayable",
			"type": "function"
		},
		{
			"inputs": [
				{
					"internalType": "bool",
					"name": "_vrf",
					"type": "bool"
				}
			],
			"name": "changeVrf",
			"outputs": [],
			"stateMutability": "nonpayable",
			"type": "function"
		},
		{
			"inputs": [
				{
					"internalType": "bytes",
					"name": "",
					"type": "bytes"
				}
			],
			"name": "checkUpkeep",
			"outputs": [
				{
					"internalType": "bool",
					"name": "upkeepNeeded",
					"type": "bool"
				},
				{
					"internalType": "bytes",
					"name": "performData",
					"type": "bytes"
				}
			],
			"stateMutability": "view",
			"type": "function"
		},
		{
			"inputs": [],
			"name": "getAddresses",
			"outputs": [
				{
					"internalType": "address[]",
					"name": "_nft_addresses",
					"type": "address[]"
				}
			],
			"stateMutability": "view",
			"type": "function"
		},
		{
			"inputs": [
				{
					"internalType": "bytes",
					"name": "performData",
					"type": "bytes"
				}
			],
			"name": "performUpkeep",
			"outputs": [],
			"stateMutability": "nonpayable",
			"type": "function"
		},
		{
			"inputs": [],
			"name": "simulateKeeper",
			"outputs": [],
			"stateMutability": "nonpayable",
			"type": "function"
		},
		{
			"inputs": [],
			"name": "upgradeAllToMax",
			"outputs": [],
			"stateMutability": "nonpayable",
			"type": "function"
		},
		{
			"inputs": [
				{
					"internalType": "address",
					"name": "_payout",
					"type": "address"
				}
			],
			"name": "withDraw",
			"outputs": [],
			"stateMutability": "nonpayable",
			"type": "function"
		}
	]
}