{
	"data": {
		"bytecode": {
			"linkReferences": {},
			"object": "608060405266038d7ea4c680006002556010805461ffff191690553480156200002757600080fd5b5060405162002e8d38038062002e8d8339810160408190526200004a9162000137565b60008054600180546001600160a01b03199081166001600160a01b038b8116919091179092556004805433921691909117905562ffff01600160b81b03199091166301000000918a169190910260ff1916178615151762ffff0019166101008615150262ff0000191617620100008515150217815542600855600b55620000d382603c620001ba565b600955620000e381603c620001ba565b600a5550506004805461ffff60a01b191661010160a01b17905550620001e89350505050565b80516001600160a01b03811681146200012157600080fd5b919050565b805180151581146200012157600080fd5b600080600080600080600060e0888a0312156200015357600080fd5b6200015e8862000109565b96506200016e6020890162000109565b95506200017e6040890162000126565b94506200018e6060890162000126565b93506200019e6080890162000126565b925060a0880151915060c0880151905092959891949750929550565b6000816000190483118215151615620001e357634e487b7160e01b600052601160045260246000fd5b500290565b612c9580620001f86000396000f3fe60806040526004361061008a5760003560e01c80636e04ff0d116100595780636e04ff0d1461010b5780638e3f94ad14610142578063a39fac1214610162578063a6f9dae114610184578063a7cf018a146101a457600080fd5b80630a67d2c7146100ae5780634585e33b146100ce57806349f22cd8146100ee578063593292b6146100f657600080fd5b366100a95734156100a15761009f34336101b9565b005b61009f61043e565b600080fd5b3480156100ba57600080fd5b5061009f6100c93660046120d7565b6111a1565b3480156100da57600080fd5b5061009f6100e936600461220a565b611236565b61009f611256565b34801561010257600080fd5b5061009f611262565b34801561011757600080fd5b5061012b61012636600461220a565b61126a565b604051610139929190612ab0565b60405180910390f35b34801561014e57600080fd5b5061009f61015d3660046121c7565b611293565b34801561016e57600080fd5b506101776112e3565b60405161013991906129b1565b34801561019057600080fd5b5061009f61019f3660046120d7565b61138c565b3480156101b057600080fd5b5061009f6113c5565b600454600160a01b900460ff16151560011461021c5760405162461bcd60e51b815260206004820152601b60248201527f4e6f206d6f726520627579696e6720697320706f737369626c652e000000000060448201526064015b60405180910390fd5b60025482101561027f5760405162461bcd60e51b815260206004820152602860248201527f496e737566666963656e742046756e64732c20706c656173652073656e64206d60448201526737b9329022aa241760c11b6064820152608401610213565b670429d069189e00008211156102d75760405162461bcd60e51b815260206004820152601f60248201527f506c656173652062757920666f72206c657373207468616e202e3320455448006044820152606401610213565b6000600254836102e79190612b6c565b905082600254826102f89190612b80565b101561034d57816001600160a01b03166108fc600254836103199190612b80565b6103239086612b9f565b6040518115909202916000818181858888f1935050505015801561034b573d6000803e3d6000fd5b505b60025461035a9082612b80565b6003600082825461036b9190612b54565b90915550506000546040516315a33d9360e11b81526001600160a01b0384811660048301526024820184905260ff831615156044830152630100000090920490911690632b467b2690606401600060405180830381600087803b1580156103d157600080fd5b505af11580156103e5573d6000803e3d6000fd5b50505050816001600160a01b03167f12cf645aad7ceea04bc4bfd75a9c10f254dde6cbbf7a53fe152c38e02b1c63a2600254836104229190612b80565b60408051918252602082018590520160405180910390a2505050565b600454600160a81b900460ff16151560011461049c5760405162461bcd60e51b815260206004820152601e60248201527f4e6f206d6f72652075706772616465732061726520706f737369626c652e00006044820152606401610213565b6000805b6005811015610697576001546003906001600160a01b031662fdd58e336104c8856004612b80565b6040518363ffffffff1660e01b81526004016104e5929190612998565b60206040518083038186803b1580156104fd57600080fd5b505afa158015610511573d6000803e3d6000fd5b505050506040513d601f19601f82011682018060405250810190610535919061227c565b1015806105d757506001546003906001600160a01b031662fdd58e3361055c856004612b80565b610567906001612b54565b6040518363ffffffff1660e01b8152600401610584929190612998565b60206040518083038186803b15801561059c57600080fd5b505afa1580156105b0573d6000803e3d6000fd5b505050506040513d601f19601f820116820180604052508101906105d4919061227c565b10155b8061067757506001546003906001600160a01b031662fdd58e336105fc856004612b80565b610607906002612b54565b6040518363ffffffff1660e01b8152600401610624929190612998565b60206040518083038186803b15801561063c57600080fd5b505afa158015610650573d6000803e3d6000fd5b505050506040513d601f19601f82011682018060405250810190610674919061227c565b10155b156106855760019150610697565b8061068f81612bb6565b9150506104a0565b506001811515146106ea5760405162461bcd60e51b815260206004820152601960248201527f416c6c20636172647320617265206174206d6178696d756d2e000000000000006044820152606401610213565b60005b6005811015611172576001546000906001600160a01b031662fdd58e33610715856004612b80565b6040518363ffffffff1660e01b8152600401610732929190612998565b60206040518083038186803b15801561074a57600080fd5b505afa15801561075e573d6000803e3d6000fd5b505050506040513d601f19601f82011682018060405250810190610782919061227c565b90506000610791601b83612b6c565b905061079e81601b612b80565b6107a89083612b9f565b915060006107b7600984612b6c565b90506107c4816009612b80565b6107ce9084612b9f565b925060006107dd600385612b6c565b90506107ea816003612b80565b6107f49085612b9f565b60015490945060009085906001600160a01b031662fdd58e336108188a6004612b80565b6040518363ffffffff1660e01b8152600401610835929190612998565b60206040518083038186803b15801561084d57600080fd5b505afa158015610861573d6000803e3d6000fd5b505050506040513d601f19601f82011682018060405250810190610885919061227c565b61088f9190612b9f565b6001549091506001600160a01b031662fdd58e336108ae896004612b80565b6108b9906001612b54565b6040518363ffffffff1660e01b81526004016108d6929190612998565b60206040518083038186803b1580156108ee57600080fd5b505afa158015610902573d6000803e3d6000fd5b505050506040513d601f19601f82011682018060405250810190610926919061227c565b6109309083612b54565b9150600061093f600984612b6c565b905061094b8186612b54565b9450610958816009612b80565b6109629084612b9f565b92506000610971600385612b6c565b905061097d8186612b54565b945061098a816003612b80565b6109949085612b9f565b600154909450600090819086906001600160a01b031662fdd58e336109ba8e6004612b80565b6109c5906001612b54565b6040518363ffffffff1660e01b81526004016109e2929190612998565b60206040518083038186803b1580156109fa57600080fd5b505afa158015610a0e573d6000803e3d6000fd5b505050506040513d601f19601f82011682018060405250810190610a32919061227c565b1115610adf5760015486906001600160a01b031662fdd58e33610a568e6004612b80565b610a61906001612b54565b6040518363ffffffff1660e01b8152600401610a7e929190612998565b60206040518083038186803b158015610a9657600080fd5b505afa158015610aaa573d6000803e3d6000fd5b505050506040513d601f19601f82011682018060405250810190610ace919061227c565b610ad89190612b9f565b9150610b80565b6001546001600160a01b031662fdd58e33610afb8d6004612b80565b610b06906001612b54565b6040518363ffffffff1660e01b8152600401610b23929190612998565b60206040518083038186803b158015610b3b57600080fd5b505afa158015610b4f573d6000803e3d6000fd5b505050506040513d601f19601f82011682018060405250810190610b73919061227c565b610b7d9087612b9f565b90505b6001546001600160a01b031662fdd58e33610b9c8d6004612b80565b610ba7906002612b54565b6040518363ffffffff1660e01b8152600401610bc4929190612998565b60206040518083038186803b158015610bdc57600080fd5b505afa158015610bf0573d6000803e3d6000fd5b505050506040513d601f19601f82011682018060405250810190610c14919061227c565b610c1e9088612b54565b9650610c2b600388612b6c565b9350610c378489612b54565b9750610c44846003612b80565b610c4e9088612b9f565b965060008088600160009054906101000a90046001600160a01b03166001600160a01b031662fdd58e338f6004610c859190612b80565b610c90906002612b54565b6040518363ffffffff1660e01b8152600401610cad929190612998565b60206040518083038186803b158015610cc557600080fd5b505afa158015610cd9573d6000803e3d6000fd5b505050506040513d601f19601f82011682018060405250810190610cfd919061227c565b1115610dbe5788600160009054906101000a90046001600160a01b03166001600160a01b031662fdd58e338f6004610d359190612b80565b610d40906002612b54565b6040518363ffffffff1660e01b8152600401610d5d929190612998565b60206040518083038186803b158015610d7557600080fd5b505afa158015610d89573d6000803e3d6000fd5b505050506040513d601f19601f82011682018060405250810190610dad919061227c565b610db79190612b9f565b9150610e5f565b6001546001600160a01b031662fdd58e33610dda8f6004612b80565b610de5906002612b54565b6040518363ffffffff1660e01b8152600401610e02929190612998565b60206040518083038186803b158015610e1a57600080fd5b505afa158015610e2e573d6000803e3d6000fd5b505050506040513d601f19601f82011682018060405250810190610e52919061227c565b610e5c908a612b9f565b90505b8615610ed4576001546001600160a01b031663995c9d77610e818e6004612b80565b338a6040518463ffffffff1660e01b8152600401610ea193929190612b0f565b600060405180830381600087803b158015610ebb57600080fd5b505af1158015610ecf573d6000803e3d6000fd5b505050505b8315610f54576001546001600160a01b031663995c9d77610ef68e6004612b80565b610f01906001612b54565b33876040518463ffffffff1660e01b8152600401610f2193929190612b0f565b600060405180830381600087803b158015610f3b57600080fd5b505af1158015610f4f573d6000803e3d6000fd5b505050505b8115610fd4576001546001600160a01b031663995c9d77610f768e6004612b80565b610f81906002612b54565b33856040518463ffffffff1660e01b8152600401610fa193929190612b0f565b600060405180830381600087803b158015610fbb57600080fd5b505af1158015610fcf573d6000803e3d6000fd5b505050505b8215611054576001546001600160a01b0316633feb9f7d610ff68e6004612b80565b611001906001612b54565b33866040518463ffffffff1660e01b815260040161102193929190612b0f565b600060405180830381600087803b15801561103b57600080fd5b505af115801561104f573d6000803e3d6000fd5b505050505b80156110d4576001546001600160a01b0316633feb9f7d6110768e6004612b80565b611081906002612b54565b33846040518463ffffffff1660e01b81526004016110a193929190612b0f565b600060405180830381600087803b1580156110bb57600080fd5b505af11580156110cf573d6000803e3d6000fd5b505050505b8915611154576001546001600160a01b0316633feb9f7d6110f68e6004612b80565b611101906003612b54565b338d6040518463ffffffff1660e01b815260040161112193929190612b0f565b600060405180830381600087803b15801561113b57600080fd5b505af115801561114f573d6000803e3d6000fd5b505050505b5050505050505050505050808061116a90612bb6565b9150506106ed565b5060405133907f2b3ce49b33919d106d8bd2245a230a4897e3a72996d9a1823ec0fce8074a431890600090a250565b6004546001600160a01b031633146111b857600080fd5b6000600354116111f65760405162461bcd60e51b8152602060048201526009602482015268273790333ab732399760b91b6044820152606401610213565b6003546040516001600160a01b0383169180156108fc02916000818181858888f1935050505015801561122d573d6000803e3d6000fd5b50506000600355565b600054610100900460ff1661124a57600080fd5b611252611451565b5050565b61126034336101b9565b565b61126061043e565b60008054606090610100900460ff1661128257600080fd5b61128a6114bc565b91509250929050565b6004546001600160a01b031633146112aa57600080fd5b6000805461ffff191693151561ff00191693909317610100921515929092029190911762ff000019166201000091151591909102179055565b6004546060906001600160a01b031633146112fd57600080fd5b600160009054906101000a90046001600160a01b03166001600160a01b031663a39fac126040518163ffffffff1660e01b815260040160006040518083038186803b15801561134b57600080fd5b505afa15801561135f573d6000803e3d6000fd5b505050506040513d6000823e601f3d908101601f1916820160405261138791908101906120fb565b905090565b6004546001600160a01b031633146113a357600080fd5b600480546001600160a01b0319166001600160a01b0392909216919091179055565b6004546001600160a01b031633146113dc57600080fd5b600054610100900460ff16156114345760405162461bcd60e51b815260206004820152601b60248201527f506c6561736520736574206b656570657220746f2066616c73652e00000000006044820152606401610213565b600061143e6114bc565b9050801561144e5761144e611451565b50565b600454600160a01b900460ff1680156114735750600454600160a81b900460ff165b61147c57600080fd5b600a54600b5461148c9042612b9f565b111561149e5742600b5561149e611521565b6009546008546114ae9042612b9f565b1115611260576112606119ed565b600454600090600160a01b900460ff1680156114e15750600454600160a81b900460ff165b6114ea57600080fd5b600a54600b546114fa9042612b9f565b1115611504575060015b6009546008546115149042612b9f565b111561151e575060015b90565b60005462010000900460ff166119c25760005b60058110156119c057604080514260208083019190915281830184905282518083038401815260609092019092528051910120611572600282612bd1565b600d836005811061158557611585612c1e565b601091828204019190066002028282829054906101000a900461ffff166115ac9190612b2e565b92506101000a81548161ffff021916908361ffff16021790555060006002826115d59190612bd1565b61ffff1611156119ad576115ea603c82612bd1565b6115f590601e612b2e565b600c836005811061160857611608612c1e565b601091828204019190066002028282829054906101000a900461ffff1661162f9190612b2e565b92506101000a81548161ffff021916908361ffff1602179055506003816116569190612bd1565b600e836005811061166957611669612c1e565b601091828204019190066002028282829054906101000a900461ffff166116909190612b2e565b92506101000a81548161ffff021916908361ffff1602179055506004816116b79190612bd1565b600f83600581106116ca576116ca612c1e565b601091828204019190066002028282829054906101000a900461ffff166116f19190612b2e565b92506101000a81548161ffff021916908361ffff16021790555081600014156118725761171f603282612bd1565b61172a90600a612b2e565b6010805460009061174090849061ffff16612b2e565b825461ffff9182166101009390930a9283029190920219909116179055506001546001600160a01b0316635c7a8d2783600c816005811061178357611783612c1e565b601091828204019190066002029054906101000a900461ffff16600d86600581106117b0576117b0612c1e565b601091828204019190066002029054906101000a900461ffff16600e87600581106117dd576117dd612c1e565b60108082049290920154915460405160e088901b6001600160e01b0319168152600481019690965261ffff94851660248701529284166044860152600f166002026101000a900482166064840152600060848401521660a482015260c401600060405180830381600087803b15801561185557600080fd5b505af1158015611869573d6000803e3d6000fd5b505050506119ad565b6001546001600160a01b0316635c7a8d2783600c816005811061189757611897612c1e565b601091828204019190066002029054906101000a900461ffff16600d86600581106118c4576118c4612c1e565b601091828204019190066002029054906101000a900461ffff16600e87600581106118f1576118f1612c1e565b601091828204019190066002029054906101000a900461ffff16600f886005811061191e5761191e612c1e565b60108104919091015460405160e088901b6001600160e01b0319168152600481019690965261ffff948516602487015292841660448601529083166064850152600f166002026101000a9004166084820152600060a482015260c401600060405180830381600087803b15801561199457600080fd5b505af11580156119a8573d6000803e3d6000fd5b505050505b50806119b881612bb6565b915050611534565b505b6040517f4df4ae4164fe500d50794868e7c9215b69dd8bc8ea7d7204e582b420cbd18a9390600090a1565b600454600160a01b900460ff161515600114611a3e5760405162461bcd60e51b815260206004820152601060248201526f2930b33332b6103bb0b9903237b7329760811b6044820152606401610213565b6004805461ffff60a01b19168155600154604080516351cfd60960e11b815290516000936001600160a01b039093169263a39fac12928082019286929091829003018186803b158015611a9057600080fd5b505afa158015611aa4573d6000803e3d6000fd5b505050506040513d6000823e601f3d908101601f19168201604052611acc91908101906120fb565b905060005b81518110156120165760008060005b6005811015611ecd5760015485516000916001600160a01b03169062fdd58e90889088908110611b1257611b12612c1e565b6020026020010151846004611b279190612b80565b6040518363ffffffff1660e01b8152600401611b44929190612998565b60206040518083038186803b158015611b5c57600080fd5b505afa158015611b70573d6000803e3d6000fd5b505050506040513d601f19601f82011682018060405250810190611b94919061227c565b611b9f906001612b80565b60015487519192506001600160a01b03169062fdd58e90889088908110611bc857611bc8612c1e565b6020026020010151846004611bdd9190612b80565b611be8906001612b54565b6040518363ffffffff1660e01b8152600401611c05929190612998565b60206040518083038186803b158015611c1d57600080fd5b505afa158015611c31573d6000803e3d6000fd5b505050506040513d601f19601f82011682018060405250810190611c55919061227c565b611c60906004612b80565b611c6a9082612b54565b60015487519192506001600160a01b03169062fdd58e90889088908110611c9357611c93612c1e565b6020026020010151846004611ca89190612b80565b611cb3906002612b54565b6040518363ffffffff1660e01b8152600401611cd0929190612998565b60206040518083038186803b158015611ce857600080fd5b505afa158015611cfc573d6000803e3d6000fd5b505050506040513d601f19601f82011682018060405250810190611d20919061227c565b611d2b90600f612b80565b611d359082612b54565b60015487519192506001600160a01b03169062fdd58e90889088908110611d5e57611d5e612c1e565b6020026020010151846004611d739190612b80565b611d7e906003612b54565b6040518363ffffffff1660e01b8152600401611d9b929190612998565b60206040518083038186803b158015611db357600080fd5b505afa158015611dc7573d6000803e3d6000fd5b505050506040513d601f19601f82011682018060405250810190611deb919061227c565b611df690601e612b80565b611e009082612b54565b6001549091506001600160a01b031663203da719611e1f846004612b80565b6040518263ffffffff1660e01b8152600401611e3d91815260200190565b60206040518083038186803b158015611e5557600080fd5b505afa158015611e69573d6000803e3d6000fd5b505050506040513d601f19601f82011682018060405250810190611e8d919061227c565b611e979082612b80565b90508015611ead57611eaa600184612b54565b92505b611eb78185612b54565b9350508080611ec590612bb6565b915050611ae0565b50811561200157600580546001810182556000919091527f036b6384b5eca791c62761152d0c79bb0604c104a5fb6f4eb0703f3154bb3db0018290558351600690859085908110611f2057611f20612c1e565b60209081029190910181015182546001810184556000938452919092200180546001600160a01b0319166001600160a01b039092169190911790556005811415611fb65760078054600181018255600091909152602081047fa66cc928b5edb82af9bd49922954155ab7b0942694bea4ce44661d9a8736c68801805460ff601f9093166101000a92830219169091179055612001565b600780546001810182556000919091527fa66cc928b5edb82af9bd49922954155ab7b0942694bea4ce44661d9a8736c68860208204018054601f9092166101000a60ff021990911690555b5050808061200e90612bb6565b915050611ad1565b50600054604051631c04951560e01b81526001600160a01b03630100000083041691631c049515916120599160059160069160079160ff909116906004016129fe565b600060405180830381600087803b15801561207357600080fd5b505af1158015612087573d6000803e3d6000fd5b50506040517f19f7095e53231c75fa1bba7489c37a17ba180ec85470e65946e54837507a3075925060009150a150565b80516120c281612c4a565b919050565b803580151581146120c257600080fd5b6000602082840312156120e957600080fd5b81356120f481612c4a565b9392505050565b6000602080838503121561210e57600080fd5b825167ffffffffffffffff8082111561212657600080fd5b818501915085601f83011261213a57600080fd5b81518181111561214c5761214c612c34565b8060051b604051601f19603f8301168101818110858211171561217157612171612c34565b604052828152858101935084860182860187018a101561219057600080fd5b600095505b838610156121ba576121a6816120b7565b855260019590950194938601938601612195565b5098975050505050505050565b6000806000606084860312156121dc57600080fd5b6121e5846120c7565b92506121f3602085016120c7565b9150612201604085016120c7565b90509250925092565b6000806020838503121561221d57600080fd5b823567ffffffffffffffff8082111561223557600080fd5b818501915085601f83011261224957600080fd5b81358181111561225857600080fd5b86602082850101111561226a57600080fd5b60209290920196919550909350505050565b60006020828403121561228e57600080fd5b5051919050565b805480835260008281526020808220940193909190825b82601f8201101561251c57815460ff8082161515885260206122d6818a01838560081c1615159052565b60406122ea818b01848660101c1615159052565b60606122fe818c01858760181c1615159052565b6080612311818d018688871c1615159052565b60a09350612327848d01868860281c1615159052565b60c061233b818e01878960301c1615159052565b60e061234f818f01888a60381c1615159052565b87851c871615156101008f01526123706101208f01888a60481c1615159052565b6123846101408f01888a60501c1615159052565b6123986101608f01888a60581c1615159052565b87841c871615156101808f01526123b96101a08f01888a60681c1615159052565b6123cd6101c08f01888a60701c1615159052565b6123e16101e08f01888a60781c1615159052565b87831c871615156102008f01526124026102208f01888a60881c1615159052565b6124166102408f01888a60901c1615159052565b61242a6102608f01888a60981c1615159052565b87861c871615156102808f015261244b6102a08f01888a60a81c1615159052565b61245f6102c08f01888a60b01c1615159052565b6124736102e08f01888a60b81c1615159052565b87821c871615156103008f01526124946103208f01888a60c81c1615159052565b6124a86103408f01888a60d01c1615159052565b6124bc6103608f01888a60d81c1615159052565b87901c861615156103808e0152505050505060e882901c811615156103a08901526124f16103c08901828460f01c1615159052565b506125046103e088018260f81c15159052565b506104009590950194600191909101906020016122ac565b905490828110156125395760ff8216151586526020909501946001015b8281101561255d576125528660ff8460081c1615159052565b602095909501946001015b82811015612581576125768660ff8460101c1615159052565b602095909501946001015b828110156125a55761259a8660ff8460181c1615159052565b602095909501946001015b828110156125c9576125be8660ff8460201c1615159052565b602095909501946001015b828110156125ed576125e28660ff8460281c1615159052565b602095909501946001015b82811015612611576126068660ff8460301c1615159052565b602095909501946001015b828110156126355761262a8660ff8460381c1615159052565b602095909501946001015b828110156126595761264e8660ff8460401c1615159052565b602095909501946001015b8281101561267d576126728660ff8460481c1615159052565b602095909501946001015b828110156126a1576126968660ff8460501c1615159052565b602095909501946001015b828110156126c5576126ba8660ff8460581c1615159052565b602095909501946001015b828110156126e9576126de8660ff8460601c1615159052565b602095909501946001015b8281101561270d576127028660ff8460681c1615159052565b602095909501946001015b82811015612731576127268660ff8460701c1615159052565b602095909501946001015b828110156127555761274a8660ff8460781c1615159052565b602095909501946001015b828110156127795761276e8660ff8460801c1615159052565b602095909501946001015b8281101561279d576127928660ff8460881c1615159052565b602095909501946001015b828110156127c1576127b68660ff8460901c1615159052565b602095909501946001015b828110156127e5576127da8660ff8460981c1615159052565b602095909501946001015b82811015612809576127fe8660ff8460a01c1615159052565b602095909501946001015b8281101561282d576128228660ff8460a81c1615159052565b602095909501946001015b82811015612851576128468660ff8460b01c1615159052565b602095909501946001015b828110156128755761286a8660ff8460b81c1615159052565b602095909501946001015b828110156128995761288e8660ff8460c01c1615159052565b602095909501946001015b828110156128bd576128b28660ff8460c81c1615159052565b602095909501946001015b828110156128e1576128d68660ff8460d01c1615159052565b602095909501946001015b82811015612905576128fa8660ff8460d81c1615159052565b602095909501946001015b828110156129295761291e8660ff8460e01c1615159052565b602095909501946001015b8281101561294d576129428660ff8460e81c1615159052565b602095909501946001015b82811015612971576129668660ff8460f01c1615159052565b602095909501946001015b8281101561298e57612987868360f81c15159052565b6020860195505b5093949350505050565b6001600160a01b03929092168252602082015260400190565b6020808252825182820181905260009190848201906040850190845b818110156129f25783516001600160a01b0316835292840192918401916001016129cd565b50909695505050505050565b6000608082016080835280875480835260a085019150600092508883526020808420845b83811015612a3e57815485529382019360019182019101612a22565b505085830381870152885480845289855281852093820192505b80851015612a805783546001600160a01b031683526001948501949093019291810191612a58565b50508481036040860152612a948188612295565b9350505050612aa7606083018415159052565b95945050505050565b821515815260006020604081840152835180604085015260005b81811015612ae657858101830151858201606001528201612aca565b81811115612af8576000606083870101525b50601f01601f191692909201606001949350505050565b9283526001600160a01b03919091166020830152604082015260600190565b600061ffff808316818516808303821115612b4b57612b4b612bf2565b01949350505050565b60008219821115612b6757612b67612bf2565b500190565b600082612b7b57612b7b612c08565b500490565b6000816000190483118215151615612b9a57612b9a612bf2565b500290565b600082821015612bb157612bb1612bf2565b500390565b6000600019821415612bca57612bca612bf2565b5060010190565b600061ffff80841680612be657612be6612c08565b92169190910692915050565b634e487b7160e01b600052601160045260246000fd5b634e487b7160e01b600052601260045260246000fd5b634e487b7160e01b600052603260045260246000fd5b634e487b7160e01b600052604160045260246000fd5b6001600160a01b038116811461144e57600080fdfea26469706673582212208a3e36cdcbd330e3d1fc62a85d2a0259997300f88c0a5fc62d55383a48d9980764736f6c63430008070033",
			"opcodes": "PUSH1 0x80 PUSH1 0x40 MSTORE PUSH7 0x38D7EA4C68000 PUSH1 0x2 SSTORE PUSH1 0x10 DUP1 SLOAD PUSH2 0xFFFF NOT AND SWAP1 SSTORE CALLVALUE DUP1 ISZERO PUSH3 0x27 JUMPI PUSH1 0x0 DUP1 REVERT JUMPDEST POP PUSH1 0x40 MLOAD PUSH3 0x2E8D CODESIZE SUB DUP1 PUSH3 0x2E8D DUP4 CODECOPY DUP2 ADD PUSH1 0x40 DUP2 SWAP1 MSTORE PUSH3 0x4A SWAP2 PUSH3 0x137 JUMP JUMPDEST PUSH1 0x0 DUP1 SLOAD PUSH1 0x1 DUP1 SLOAD PUSH1 0x1 PUSH1 0x1 PUSH1 0xA0 SHL SUB NOT SWAP1 DUP2 AND PUSH1 0x1 PUSH1 0x1 PUSH1 0xA0 SHL SUB DUP12 DUP2 AND SWAP2 SWAP1 SWAP2 OR SWAP1 SWAP3 SSTORE PUSH1 0x4 DUP1 SLOAD CALLER SWAP3 AND SWAP2 SWAP1 SWAP2 OR SWAP1 SSTORE PUSH3 0xFFFF01 PUSH1 0x1 PUSH1 0xB8 SHL SUB NOT SWAP1 SWAP2 AND PUSH4 0x1000000 SWAP2 DUP11 AND SWAP2 SWAP1 SWAP2 MUL PUSH1 0xFF NOT AND OR DUP7 ISZERO ISZERO OR PUSH3 0xFFFF00 NOT AND PUSH2 0x100 DUP7 ISZERO ISZERO MUL PUSH3 0xFF0000 NOT AND OR PUSH3 0x10000 DUP6 ISZERO ISZERO MUL OR DUP2 SSTORE TIMESTAMP PUSH1 0x8 SSTORE PUSH1 0xB SSTORE PUSH3 0xD3 DUP3 PUSH1 0x3C PUSH3 0x1BA JUMP JUMPDEST PUSH1 0x9 SSTORE PUSH3 0xE3 DUP2 PUSH1 0x3C PUSH3 0x1BA JUMP JUMPDEST PUSH1 0xA SSTORE POP POP PUSH1 0x4 DUP1 SLOAD PUSH2 0xFFFF PUSH1 0xA0 SHL NOT AND PUSH2 0x101 PUSH1 0xA0 SHL OR SWAP1 SSTORE POP PUSH3 0x1E8 SWAP4 POP POP POP POP JUMP JUMPDEST DUP1 MLOAD PUSH1 0x1 PUSH1 0x1 PUSH1 0xA0 SHL SUB DUP2 AND DUP2 EQ PUSH3 0x121 JUMPI PUSH1 0x0 DUP1 REVERT JUMPDEST SWAP2 SWAP1 POP JUMP JUMPDEST DUP1 MLOAD DUP1 ISZERO ISZERO DUP2 EQ PUSH3 0x121 JUMPI PUSH1 0x0 DUP1 REVERT JUMPDEST PUSH1 0x0 DUP1 PUSH1 0x0 DUP1 PUSH1 0x0 DUP1 PUSH1 0x0 PUSH1 0xE0 DUP9 DUP11 SUB SLT ISZERO PUSH3 0x153 JUMPI PUSH1 0x0 DUP1 REVERT JUMPDEST PUSH3 0x15E DUP9 PUSH3 0x109 JUMP JUMPDEST SWAP7 POP PUSH3 0x16E PUSH1 0x20 DUP10 ADD PUSH3 0x109 JUMP JUMPDEST SWAP6 POP PUSH3 0x17E PUSH1 0x40 DUP10 ADD PUSH3 0x126 JUMP JUMPDEST SWAP5 POP PUSH3 0x18E PUSH1 0x60 DUP10 ADD PUSH3 0x126 JUMP JUMPDEST SWAP4 POP PUSH3 0x19E PUSH1 0x80 DUP10 ADD PUSH3 0x126 JUMP JUMPDEST SWAP3 POP PUSH1 0xA0 DUP9 ADD MLOAD SWAP2 POP PUSH1 0xC0 DUP9 ADD MLOAD SWAP1 POP SWAP3 SWAP6 SWAP9 SWAP2 SWAP5 SWAP8 POP SWAP3 SWAP6 POP JUMP JUMPDEST PUSH1 0x0 DUP2 PUSH1 0x0 NOT DIV DUP4 GT DUP3 ISZERO ISZERO AND ISZERO PUSH3 0x1E3 JUMPI PUSH4 0x4E487B71 PUSH1 0xE0 SHL PUSH1 0x0 MSTORE PUSH1 0x11 PUSH1 0x4 MSTORE PUSH1 0x24 PUSH1 0x0 REVERT JUMPDEST POP MUL SWAP1 JUMP JUMPDEST PUSH2 0x2C95 DUP1 PUSH3 0x1F8 PUSH1 0x0 CODECOPY PUSH1 0x0 RETURN INVALID PUSH1 0x80 PUSH1 0x40 MSTORE PUSH1 0x4 CALLDATASIZE LT PUSH2 0x8A JUMPI PUSH1 0x0 CALLDATALOAD PUSH1 0xE0 SHR DUP1 PUSH4 0x6E04FF0D GT PUSH2 0x59 JUMPI DUP1 PUSH4 0x6E04FF0D EQ PUSH2 0x10B JUMPI DUP1 PUSH4 0x8E3F94AD EQ PUSH2 0x142 JUMPI DUP1 PUSH4 0xA39FAC12 EQ PUSH2 0x162 JUMPI DUP1 PUSH4 0xA6F9DAE1 EQ PUSH2 0x184 JUMPI DUP1 PUSH4 0xA7CF018A EQ PUSH2 0x1A4 JUMPI PUSH1 0x0 DUP1 REVERT JUMPDEST DUP1 PUSH4 0xA67D2C7 EQ PUSH2 0xAE JUMPI DUP1 PUSH4 0x4585E33B EQ PUSH2 0xCE JUMPI DUP1 PUSH4 0x49F22CD8 EQ PUSH2 0xEE JUMPI DUP1 PUSH4 0x593292B6 EQ PUSH2 0xF6 JUMPI PUSH1 0x0 DUP1 REVERT JUMPDEST CALLDATASIZE PUSH2 0xA9 JUMPI CALLVALUE ISZERO PUSH2 0xA1 JUMPI PUSH2 0x9F CALLVALUE CALLER PUSH2 0x1B9 JUMP JUMPDEST STOP JUMPDEST PUSH2 0x9F PUSH2 0x43E JUMP JUMPDEST PUSH1 0x0 DUP1 REVERT JUMPDEST CALLVALUE DUP1 ISZERO PUSH2 0xBA JUMPI PUSH1 0x0 DUP1 REVERT JUMPDEST POP PUSH2 0x9F PUSH2 0xC9 CALLDATASIZE PUSH1 0x4 PUSH2 0x20D7 JUMP JUMPDEST PUSH2 0x11A1 JUMP JUMPDEST CALLVALUE DUP1 ISZERO PUSH2 0xDA JUMPI PUSH1 0x0 DUP1 REVERT JUMPDEST POP PUSH2 0x9F PUSH2 0xE9 CALLDATASIZE PUSH1 0x4 PUSH2 0x220A JUMP JUMPDEST PUSH2 0x1236 JUMP JUMPDEST PUSH2 0x9F PUSH2 0x1256 JUMP JUMPDEST CALLVALUE DUP1 ISZERO PUSH2 0x102 JUMPI PUSH1 0x0 DUP1 REVERT JUMPDEST POP PUSH2 0x9F PUSH2 0x1262 JUMP JUMPDEST CALLVALUE DUP1 ISZERO PUSH2 0x117 JUMPI PUSH1 0x0 DUP1 REVERT JUMPDEST POP PUSH2 0x12B PUSH2 0x126 CALLDATASIZE PUSH1 0x4 PUSH2 0x220A JUMP JUMPDEST PUSH2 0x126A JUMP JUMPDEST PUSH1 0x40 MLOAD PUSH2 0x139 SWAP3 SWAP2 SWAP1 PUSH2 0x2AB0 JUMP JUMPDEST PUSH1 0x40 MLOAD DUP1 SWAP2 SUB SWAP1 RETURN JUMPDEST CALLVALUE DUP1 ISZERO PUSH2 0x14E JUMPI PUSH1 0x0 DUP1 REVERT JUMPDEST POP PUSH2 0x9F PUSH2 0x15D CALLDATASIZE PUSH1 0x4 PUSH2 0x21C7 JUMP JUMPDEST PUSH2 0x1293 JUMP JUMPDEST CALLVALUE DUP1 ISZERO PUSH2 0x16E JUMPI PUSH1 0x0 DUP1 REVERT JUMPDEST POP PUSH2 0x177 PUSH2 0x12E3 JUMP JUMPDEST PUSH1 0x40 MLOAD PUSH2 0x139 SWAP2 SWAP1 PUSH2 0x29B1 JUMP JUMPDEST CALLVALUE DUP1 ISZERO PUSH2 0x190 JUMPI PUSH1 0x0 DUP1 REVERT JUMPDEST POP PUSH2 0x9F PUSH2 0x19F CALLDATASIZE PUSH1 0x4 PUSH2 0x20D7 JUMP JUMPDEST PUSH2 0x138C JUMP JUMPDEST CALLVALUE DUP1 ISZERO PUSH2 0x1B0 JUMPI PUSH1 0x0 DUP1 REVERT JUMPDEST POP PUSH2 0x9F PUSH2 0x13C5 JUMP JUMPDEST PUSH1 0x4 SLOAD PUSH1 0x1 PUSH1 0xA0 SHL SWAP1 DIV PUSH1 0xFF AND ISZERO ISZERO PUSH1 0x1 EQ PUSH2 0x21C JUMPI PUSH1 0x40 MLOAD PUSH3 0x461BCD PUSH1 0xE5 SHL DUP2 MSTORE PUSH1 0x20 PUSH1 0x4 DUP3 ADD MSTORE PUSH1 0x1B PUSH1 0x24 DUP3 ADD MSTORE PUSH32 0x4E6F206D6F726520627579696E6720697320706F737369626C652E0000000000 PUSH1 0x44 DUP3 ADD MSTORE PUSH1 0x64 ADD JUMPDEST PUSH1 0x40 MLOAD DUP1 SWAP2 SUB SWAP1 REVERT JUMPDEST PUSH1 0x2 SLOAD DUP3 LT ISZERO PUSH2 0x27F JUMPI PUSH1 0x40 MLOAD PUSH3 0x461BCD PUSH1 0xE5 SHL DUP2 MSTORE PUSH1 0x20 PUSH1 0x4 DUP3 ADD MSTORE PUSH1 0x28 PUSH1 0x24 DUP3 ADD MSTORE PUSH32 0x496E737566666963656E742046756E64732C20706C656173652073656E64206D PUSH1 0x44 DUP3 ADD MSTORE PUSH8 0x37B9329022AA2417 PUSH1 0xC1 SHL PUSH1 0x64 DUP3 ADD MSTORE PUSH1 0x84 ADD PUSH2 0x213 JUMP JUMPDEST PUSH8 0x429D069189E0000 DUP3 GT ISZERO PUSH2 0x2D7 JUMPI PUSH1 0x40 MLOAD PUSH3 0x461BCD PUSH1 0xE5 SHL DUP2 MSTORE PUSH1 0x20 PUSH1 0x4 DUP3 ADD MSTORE PUSH1 0x1F PUSH1 0x24 DUP3 ADD MSTORE PUSH32 0x506C656173652062757920666F72206C657373207468616E202E332045544800 PUSH1 0x44 DUP3 ADD MSTORE PUSH1 0x64 ADD PUSH2 0x213 JUMP JUMPDEST PUSH1 0x0 PUSH1 0x2 SLOAD DUP4 PUSH2 0x2E7 SWAP2 SWAP1 PUSH2 0x2B6C JUMP JUMPDEST SWAP1 POP DUP3 PUSH1 0x2 SLOAD DUP3 PUSH2 0x2F8 SWAP2 SWAP1 PUSH2 0x2B80 JUMP JUMPDEST LT ISZERO PUSH2 0x34D JUMPI DUP2 PUSH1 0x1 PUSH1 0x1 PUSH1 0xA0 SHL SUB AND PUSH2 0x8FC PUSH1 0x2 SLOAD DUP4 PUSH2 0x319 SWAP2 SWAP1 PUSH2 0x2B80 JUMP JUMPDEST PUSH2 0x323 SWAP1 DUP7 PUSH2 0x2B9F JUMP JUMPDEST PUSH1 0x40 MLOAD DUP2 ISZERO SWAP1 SWAP3 MUL SWAP2 PUSH1 0x0 DUP2 DUP2 DUP2 DUP6 DUP9 DUP9 CALL SWAP4 POP POP POP POP ISZERO DUP1 ISZERO PUSH2 0x34B JUMPI RETURNDATASIZE PUSH1 0x0 DUP1 RETURNDATACOPY RETURNDATASIZE PUSH1 0x0 REVERT JUMPDEST POP JUMPDEST PUSH1 0x2 SLOAD PUSH2 0x35A SWAP1 DUP3 PUSH2 0x2B80 JUMP JUMPDEST PUSH1 0x3 PUSH1 0x0 DUP3 DUP3 SLOAD PUSH2 0x36B SWAP2 SWAP1 PUSH2 0x2B54 JUMP JUMPDEST SWAP1 SWAP2 SSTORE POP POP PUSH1 0x0 SLOAD PUSH1 0x40 MLOAD PUSH4 0x15A33D93 PUSH1 0xE1 SHL DUP2 MSTORE PUSH1 0x1 PUSH1 0x1 PUSH1 0xA0 SHL SUB DUP5 DUP2 AND PUSH1 0x4 DUP4 ADD MSTORE PUSH1 0x24 DUP3 ADD DUP5 SWAP1 MSTORE PUSH1 0xFF DUP4 AND ISZERO ISZERO PUSH1 0x44 DUP4 ADD MSTORE PUSH4 0x1000000 SWAP1 SWAP3 DIV SWAP1 SWAP2 AND SWAP1 PUSH4 0x2B467B26 SWAP1 PUSH1 0x64 ADD PUSH1 0x0 PUSH1 0x40 MLOAD DUP1 DUP4 SUB DUP2 PUSH1 0x0 DUP8 DUP1 EXTCODESIZE ISZERO DUP1 ISZERO PUSH2 0x3D1 JUMPI PUSH1 0x0 DUP1 REVERT JUMPDEST POP GAS CALL ISZERO DUP1 ISZERO PUSH2 0x3E5 JUMPI RETURNDATASIZE PUSH1 0x0 DUP1 RETURNDATACOPY RETURNDATASIZE PUSH1 0x0 REVERT JUMPDEST POP POP POP POP DUP2 PUSH1 0x1 PUSH1 0x1 PUSH1 0xA0 SHL SUB AND PUSH32 0x12CF645AAD7CEEA04BC4BFD75A9C10F254DDE6CBBF7A53FE152C38E02B1C63A2 PUSH1 0x2 SLOAD DUP4 PUSH2 0x422 SWAP2 SWAP1 PUSH2 0x2B80 JUMP JUMPDEST PUSH1 0x40 DUP1 MLOAD SWAP2 DUP3 MSTORE PUSH1 0x20 DUP3 ADD DUP6 SWAP1 MSTORE ADD PUSH1 0x40 MLOAD DUP1 SWAP2 SUB SWAP1 LOG2 POP POP POP JUMP JUMPDEST PUSH1 0x4 SLOAD PUSH1 0x1 PUSH1 0xA8 SHL SWAP1 DIV PUSH1 0xFF AND ISZERO ISZERO PUSH1 0x1 EQ PUSH2 0x49C JUMPI PUSH1 0x40 MLOAD PUSH3 0x461BCD PUSH1 0xE5 SHL DUP2 MSTORE PUSH1 0x20 PUSH1 0x4 DUP3 ADD MSTORE PUSH1 0x1E PUSH1 0x24 DUP3 ADD MSTORE PUSH32 0x4E6F206D6F72652075706772616465732061726520706F737369626C652E0000 PUSH1 0x44 DUP3 ADD MSTORE PUSH1 0x64 ADD PUSH2 0x213 JUMP JUMPDEST PUSH1 0x0 DUP1 JUMPDEST PUSH1 0x5 DUP2 LT ISZERO PUSH2 0x697 JUMPI PUSH1 0x1 SLOAD PUSH1 0x3 SWAP1 PUSH1 0x1 PUSH1 0x1 PUSH1 0xA0 SHL SUB AND PUSH3 0xFDD58E CALLER PUSH2 0x4C8 DUP6 PUSH1 0x4 PUSH2 0x2B80 JUMP JUMPDEST PUSH1 0x40 MLOAD DUP4 PUSH4 0xFFFFFFFF AND PUSH1 0xE0 SHL DUP2 MSTORE PUSH1 0x4 ADD PUSH2 0x4E5 SWAP3 SWAP2 SWAP1 PUSH2 0x2998 JUMP JUMPDEST PUSH1 0x20 PUSH1 0x40 MLOAD DUP1 DUP4 SUB DUP2 DUP7 DUP1 EXTCODESIZE ISZERO DUP1 ISZERO PUSH2 0x4FD JUMPI PUSH1 0x0 DUP1 REVERT JUMPDEST POP GAS STATICCALL ISZERO DUP1 ISZERO PUSH2 0x511 JUMPI RETURNDATASIZE PUSH1 0x0 DUP1 RETURNDATACOPY RETURNDATASIZE PUSH1 0x0 REVERT JUMPDEST POP POP POP POP PUSH1 0x40 MLOAD RETURNDATASIZE PUSH1 0x1F NOT PUSH1 0x1F DUP3 ADD AND DUP3 ADD DUP1 PUSH1 0x40 MSTORE POP DUP2 ADD SWAP1 PUSH2 0x535 SWAP2 SWAP1 PUSH2 0x227C JUMP JUMPDEST LT ISZERO DUP1 PUSH2 0x5D7 JUMPI POP PUSH1 0x1 SLOAD PUSH1 0x3 SWAP1 PUSH1 0x1 PUSH1 0x1 PUSH1 0xA0 SHL SUB AND PUSH3 0xFDD58E CALLER PUSH2 0x55C DUP6 PUSH1 0x4 PUSH2 0x2B80 JUMP JUMPDEST PUSH2 0x567 SWAP1 PUSH1 0x1 PUSH2 0x2B54 JUMP JUMPDEST PUSH1 0x40 MLOAD DUP4 PUSH4 0xFFFFFFFF AND PUSH1 0xE0 SHL DUP2 MSTORE PUSH1 0x4 ADD PUSH2 0x584 SWAP3 SWAP2 SWAP1 PUSH2 0x2998 JUMP JUMPDEST PUSH1 0x20 PUSH1 0x40 MLOAD DUP1 DUP4 SUB DUP2 DUP7 DUP1 EXTCODESIZE ISZERO DUP1 ISZERO PUSH2 0x59C JUMPI PUSH1 0x0 DUP1 REVERT JUMPDEST POP GAS STATICCALL ISZERO DUP1 ISZERO PUSH2 0x5B0 JUMPI RETURNDATASIZE PUSH1 0x0 DUP1 RETURNDATACOPY RETURNDATASIZE PUSH1 0x0 REVERT JUMPDEST POP POP POP POP PUSH1 0x40 MLOAD RETURNDATASIZE PUSH1 0x1F NOT PUSH1 0x1F DUP3 ADD AND DUP3 ADD DUP1 PUSH1 0x40 MSTORE POP DUP2 ADD SWAP1 PUSH2 0x5D4 SWAP2 SWAP1 PUSH2 0x227C JUMP JUMPDEST LT ISZERO JUMPDEST DUP1 PUSH2 0x677 JUMPI POP PUSH1 0x1 SLOAD PUSH1 0x3 SWAP1 PUSH1 0x1 PUSH1 0x1 PUSH1 0xA0 SHL SUB AND PUSH3 0xFDD58E CALLER PUSH2 0x5FC DUP6 PUSH1 0x4 PUSH2 0x2B80 JUMP JUMPDEST PUSH2 0x607 SWAP1 PUSH1 0x2 PUSH2 0x2B54 JUMP JUMPDEST PUSH1 0x40 MLOAD DUP4 PUSH4 0xFFFFFFFF AND PUSH1 0xE0 SHL DUP2 MSTORE PUSH1 0x4 ADD PUSH2 0x624 SWAP3 SWAP2 SWAP1 PUSH2 0x2998 JUMP JUMPDEST PUSH1 0x20 PUSH1 0x40 MLOAD DUP1 DUP4 SUB DUP2 DUP7 DUP1 EXTCODESIZE ISZERO DUP1 ISZERO PUSH2 0x63C JUMPI PUSH1 0x0 DUP1 REVERT JUMPDEST POP GAS STATICCALL ISZERO DUP1 ISZERO PUSH2 0x650 JUMPI RETURNDATASIZE PUSH1 0x0 DUP1 RETURNDATACOPY RETURNDATASIZE PUSH1 0x0 REVERT JUMPDEST POP POP POP POP PUSH1 0x40 MLOAD RETURNDATASIZE PUSH1 0x1F NOT PUSH1 0x1F DUP3 ADD AND DUP3 ADD DUP1 PUSH1 0x40 MSTORE POP DUP2 ADD SWAP1 PUSH2 0x674 SWAP2 SWAP1 PUSH2 0x227C JUMP JUMPDEST LT ISZERO JUMPDEST ISZERO PUSH2 0x685 JUMPI PUSH1 0x1 SWAP2 POP PUSH2 0x697 JUMP JUMPDEST DUP1 PUSH2 0x68F DUP2 PUSH2 0x2BB6 JUMP JUMPDEST SWAP2 POP POP PUSH2 0x4A0 JUMP JUMPDEST POP PUSH1 0x1 DUP2 ISZERO ISZERO EQ PUSH2 0x6EA JUMPI PUSH1 0x40 MLOAD PUSH3 0x461BCD PUSH1 0xE5 SHL DUP2 MSTORE PUSH1 0x20 PUSH1 0x4 DUP3 ADD MSTORE PUSH1 0x19 PUSH1 0x24 DUP3 ADD MSTORE PUSH32 0x416C6C20636172647320617265206174206D6178696D756D2E00000000000000 PUSH1 0x44 DUP3 ADD MSTORE PUSH1 0x64 ADD PUSH2 0x213 JUMP JUMPDEST PUSH1 0x0 JUMPDEST PUSH1 0x5 DUP2 LT ISZERO PUSH2 0x1172 JUMPI PUSH1 0x1 SLOAD PUSH1 0x0 SWAP1 PUSH1 0x1 PUSH1 0x1 PUSH1 0xA0 SHL SUB AND PUSH3 0xFDD58E CALLER PUSH2 0x715 DUP6 PUSH1 0x4 PUSH2 0x2B80 JUMP JUMPDEST PUSH1 0x40 MLOAD DUP4 PUSH4 0xFFFFFFFF AND PUSH1 0xE0 SHL DUP2 MSTORE PUSH1 0x4 ADD PUSH2 0x732 SWAP3 SWAP2 SWAP1 PUSH2 0x2998 JUMP JUMPDEST PUSH1 0x20 PUSH1 0x40 MLOAD DUP1 DUP4 SUB DUP2 DUP7 DUP1 EXTCODESIZE ISZERO DUP1 ISZERO PUSH2 0x74A JUMPI PUSH1 0x0 DUP1 REVERT JUMPDEST POP GAS STATICCALL ISZERO DUP1 ISZERO PUSH2 0x75E JUMPI RETURNDATASIZE PUSH1 0x0 DUP1 RETURNDATACOPY RETURNDATASIZE PUSH1 0x0 REVERT JUMPDEST POP POP POP POP PUSH1 0x40 MLOAD RETURNDATASIZE PUSH1 0x1F NOT PUSH1 0x1F DUP3 ADD AND DUP3 ADD DUP1 PUSH1 0x40 MSTORE POP DUP2 ADD SWAP1 PUSH2 0x782 SWAP2 SWAP1 PUSH2 0x227C JUMP JUMPDEST SWAP1 POP PUSH1 0x0 PUSH2 0x791 PUSH1 0x1B DUP4 PUSH2 0x2B6C JUMP JUMPDEST SWAP1 POP PUSH2 0x79E DUP2 PUSH1 0x1B PUSH2 0x2B80 JUMP JUMPDEST PUSH2 0x7A8 SWAP1 DUP4 PUSH2 0x2B9F JUMP JUMPDEST SWAP2 POP PUSH1 0x0 PUSH2 0x7B7 PUSH1 0x9 DUP5 PUSH2 0x2B6C JUMP JUMPDEST SWAP1 POP PUSH2 0x7C4 DUP2 PUSH1 0x9 PUSH2 0x2B80 JUMP JUMPDEST PUSH2 0x7CE SWAP1 DUP5 PUSH2 0x2B9F JUMP JUMPDEST SWAP3 POP PUSH1 0x0 PUSH2 0x7DD PUSH1 0x3 DUP6 PUSH2 0x2B6C JUMP JUMPDEST SWAP1 POP PUSH2 0x7EA DUP2 PUSH1 0x3 PUSH2 0x2B80 JUMP JUMPDEST PUSH2 0x7F4 SWAP1 DUP6 PUSH2 0x2B9F JUMP JUMPDEST PUSH1 0x1 SLOAD SWAP1 SWAP5 POP PUSH1 0x0 SWAP1 DUP6 SWAP1 PUSH1 0x1 PUSH1 0x1 PUSH1 0xA0 SHL SUB AND PUSH3 0xFDD58E CALLER PUSH2 0x818 DUP11 PUSH1 0x4 PUSH2 0x2B80 JUMP JUMPDEST PUSH1 0x40 MLOAD DUP4 PUSH4 0xFFFFFFFF AND PUSH1 0xE0 SHL DUP2 MSTORE PUSH1 0x4 ADD PUSH2 0x835 SWAP3 SWAP2 SWAP1 PUSH2 0x2998 JUMP JUMPDEST PUSH1 0x20 PUSH1 0x40 MLOAD DUP1 DUP4 SUB DUP2 DUP7 DUP1 EXTCODESIZE ISZERO DUP1 ISZERO PUSH2 0x84D JUMPI PUSH1 0x0 DUP1 REVERT JUMPDEST POP GAS STATICCALL ISZERO DUP1 ISZERO PUSH2 0x861 JUMPI RETURNDATASIZE PUSH1 0x0 DUP1 RETURNDATACOPY RETURNDATASIZE PUSH1 0x0 REVERT JUMPDEST POP POP POP POP PUSH1 0x40 MLOAD RETURNDATASIZE PUSH1 0x1F NOT PUSH1 0x1F DUP3 ADD AND DUP3 ADD DUP1 PUSH1 0x40 MSTORE POP DUP2 ADD SWAP1 PUSH2 0x885 SWAP2 SWAP1 PUSH2 0x227C JUMP JUMPDEST PUSH2 0x88F SWAP2 SWAP1 PUSH2 0x2B9F JUMP JUMPDEST PUSH1 0x1 SLOAD SWAP1 SWAP2 POP PUSH1 0x1 PUSH1 0x1 PUSH1 0xA0 SHL SUB AND PUSH3 0xFDD58E CALLER PUSH2 0x8AE DUP10 PUSH1 0x4 PUSH2 0x2B80 JUMP JUMPDEST PUSH2 0x8B9 SWAP1 PUSH1 0x1 PUSH2 0x2B54 JUMP JUMPDEST PUSH1 0x40 MLOAD DUP4 PUSH4 0xFFFFFFFF AND PUSH1 0xE0 SHL DUP2 MSTORE PUSH1 0x4 ADD PUSH2 0x8D6 SWAP3 SWAP2 SWAP1 PUSH2 0x2998 JUMP JUMPDEST PUSH1 0x20 PUSH1 0x40 MLOAD DUP1 DUP4 SUB DUP2 DUP7 DUP1 EXTCODESIZE ISZERO DUP1 ISZERO PUSH2 0x8EE JUMPI PUSH1 0x0 DUP1 REVERT JUMPDEST POP GAS STATICCALL ISZERO DUP1 ISZERO PUSH2 0x902 JUMPI RETURNDATASIZE PUSH1 0x0 DUP1 RETURNDATACOPY RETURNDATASIZE PUSH1 0x0 REVERT JUMPDEST POP POP POP POP PUSH1 0x40 MLOAD RETURNDATASIZE PUSH1 0x1F NOT PUSH1 0x1F DUP3 ADD AND DUP3 ADD DUP1 PUSH1 0x40 MSTORE POP DUP2 ADD SWAP1 PUSH2 0x926 SWAP2 SWAP1 PUSH2 0x227C JUMP JUMPDEST PUSH2 0x930 SWAP1 DUP4 PUSH2 0x2B54 JUMP JUMPDEST SWAP2 POP PUSH1 0x0 PUSH2 0x93F PUSH1 0x9 DUP5 PUSH2 0x2B6C JUMP JUMPDEST SWAP1 POP PUSH2 0x94B DUP2 DUP7 PUSH2 0x2B54 JUMP JUMPDEST SWAP5 POP PUSH2 0x958 DUP2 PUSH1 0x9 PUSH2 0x2B80 JUMP JUMPDEST PUSH2 0x962 SWAP1 DUP5 PUSH2 0x2B9F JUMP JUMPDEST SWAP3 POP PUSH1 0x0 PUSH2 0x971 PUSH1 0x3 DUP6 PUSH2 0x2B6C JUMP JUMPDEST SWAP1 POP PUSH2 0x97D DUP2 DUP7 PUSH2 0x2B54 JUMP JUMPDEST SWAP5 POP PUSH2 0x98A DUP2 PUSH1 0x3 PUSH2 0x2B80 JUMP JUMPDEST PUSH2 0x994 SWAP1 DUP6 PUSH2 0x2B9F JUMP JUMPDEST PUSH1 0x1 SLOAD SWAP1 SWAP5 POP PUSH1 0x0 SWAP1 DUP2 SWAP1 DUP7 SWAP1 PUSH1 0x1 PUSH1 0x1 PUSH1 0xA0 SHL SUB AND PUSH3 0xFDD58E CALLER PUSH2 0x9BA DUP15 PUSH1 0x4 PUSH2 0x2B80 JUMP JUMPDEST PUSH2 0x9C5 SWAP1 PUSH1 0x1 PUSH2 0x2B54 JUMP JUMPDEST PUSH1 0x40 MLOAD DUP4 PUSH4 0xFFFFFFFF AND PUSH1 0xE0 SHL DUP2 MSTORE PUSH1 0x4 ADD PUSH2 0x9E2 SWAP3 SWAP2 SWAP1 PUSH2 0x2998 JUMP JUMPDEST PUSH1 0x20 PUSH1 0x40 MLOAD DUP1 DUP4 SUB DUP2 DUP7 DUP1 EXTCODESIZE ISZERO DUP1 ISZERO PUSH2 0x9FA JUMPI PUSH1 0x0 DUP1 REVERT JUMPDEST POP GAS STATICCALL ISZERO DUP1 ISZERO PUSH2 0xA0E JUMPI RETURNDATASIZE PUSH1 0x0 DUP1 RETURNDATACOPY RETURNDATASIZE PUSH1 0x0 REVERT JUMPDEST POP POP POP POP PUSH1 0x40 MLOAD RETURNDATASIZE PUSH1 0x1F NOT PUSH1 0x1F DUP3 ADD AND DUP3 ADD DUP1 PUSH1 0x40 MSTORE POP DUP2 ADD SWAP1 PUSH2 0xA32 SWAP2 SWAP1 PUSH2 0x227C JUMP JUMPDEST GT ISZERO PUSH2 0xADF JUMPI PUSH1 0x1 SLOAD DUP7 SWAP1 PUSH1 0x1 PUSH1 0x1 PUSH1 0xA0 SHL SUB AND PUSH3 0xFDD58E CALLER PUSH2 0xA56 DUP15 PUSH1 0x4 PUSH2 0x2B80 JUMP JUMPDEST PUSH2 0xA61 SWAP1 PUSH1 0x1 PUSH2 0x2B54 JUMP JUMPDEST PUSH1 0x40 MLOAD DUP4 PUSH4 0xFFFFFFFF AND PUSH1 0xE0 SHL DUP2 MSTORE PUSH1 0x4 ADD PUSH2 0xA7E SWAP3 SWAP2 SWAP1 PUSH2 0x2998 JUMP JUMPDEST PUSH1 0x20 PUSH1 0x40 MLOAD DUP1 DUP4 SUB DUP2 DUP7 DUP1 EXTCODESIZE ISZERO DUP1 ISZERO PUSH2 0xA96 JUMPI PUSH1 0x0 DUP1 REVERT JUMPDEST POP GAS STATICCALL ISZERO DUP1 ISZERO PUSH2 0xAAA JUMPI RETURNDATASIZE PUSH1 0x0 DUP1 RETURNDATACOPY RETURNDATASIZE PUSH1 0x0 REVERT JUMPDEST POP POP POP POP PUSH1 0x40 MLOAD RETURNDATASIZE PUSH1 0x1F NOT PUSH1 0x1F DUP3 ADD AND DUP3 ADD DUP1 PUSH1 0x40 MSTORE POP DUP2 ADD SWAP1 PUSH2 0xACE SWAP2 SWAP1 PUSH2 0x227C JUMP JUMPDEST PUSH2 0xAD8 SWAP2 SWAP1 PUSH2 0x2B9F JUMP JUMPDEST SWAP2 POP PUSH2 0xB80 JUMP JUMPDEST PUSH1 0x1 SLOAD PUSH1 0x1 PUSH1 0x1 PUSH1 0xA0 SHL SUB AND PUSH3 0xFDD58E CALLER PUSH2 0xAFB DUP14 PUSH1 0x4 PUSH2 0x2B80 JUMP JUMPDEST PUSH2 0xB06 SWAP1 PUSH1 0x1 PUSH2 0x2B54 JUMP JUMPDEST PUSH1 0x40 MLOAD DUP4 PUSH4 0xFFFFFFFF AND PUSH1 0xE0 SHL DUP2 MSTORE PUSH1 0x4 ADD PUSH2 0xB23 SWAP3 SWAP2 SWAP1 PUSH2 0x2998 JUMP JUMPDEST PUSH1 0x20 PUSH1 0x40 MLOAD DUP1 DUP4 SUB DUP2 DUP7 DUP1 EXTCODESIZE ISZERO DUP1 ISZERO PUSH2 0xB3B JUMPI PUSH1 0x0 DUP1 REVERT JUMPDEST POP GAS STATICCALL ISZERO DUP1 ISZERO PUSH2 0xB4F JUMPI RETURNDATASIZE PUSH1 0x0 DUP1 RETURNDATACOPY RETURNDATASIZE PUSH1 0x0 REVERT JUMPDEST POP POP POP POP PUSH1 0x40 MLOAD RETURNDATASIZE PUSH1 0x1F NOT PUSH1 0x1F DUP3 ADD AND DUP3 ADD DUP1 PUSH1 0x40 MSTORE POP DUP2 ADD SWAP1 PUSH2 0xB73 SWAP2 SWAP1 PUSH2 0x227C JUMP JUMPDEST PUSH2 0xB7D SWAP1 DUP8 PUSH2 0x2B9F JUMP JUMPDEST SWAP1 POP JUMPDEST PUSH1 0x1 SLOAD PUSH1 0x1 PUSH1 0x1 PUSH1 0xA0 SHL SUB AND PUSH3 0xFDD58E CALLER PUSH2 0xB9C DUP14 PUSH1 0x4 PUSH2 0x2B80 JUMP JUMPDEST PUSH2 0xBA7 SWAP1 PUSH1 0x2 PUSH2 0x2B54 JUMP JUMPDEST PUSH1 0x40 MLOAD DUP4 PUSH4 0xFFFFFFFF AND PUSH1 0xE0 SHL DUP2 MSTORE PUSH1 0x4 ADD PUSH2 0xBC4 SWAP3 SWAP2 SWAP1 PUSH2 0x2998 JUMP JUMPDEST PUSH1 0x20 PUSH1 0x40 MLOAD DUP1 DUP4 SUB DUP2 DUP7 DUP1 EXTCODESIZE ISZERO DUP1 ISZERO PUSH2 0xBDC JUMPI PUSH1 0x0 DUP1 REVERT JUMPDEST POP GAS STATICCALL ISZERO DUP1 ISZERO PUSH2 0xBF0 JUMPI RETURNDATASIZE PUSH1 0x0 DUP1 RETURNDATACOPY RETURNDATASIZE PUSH1 0x0 REVERT JUMPDEST POP POP POP POP PUSH1 0x40 MLOAD RETURNDATASIZE PUSH1 0x1F NOT PUSH1 0x1F DUP3 ADD AND DUP3 ADD DUP1 PUSH1 0x40 MSTORE POP DUP2 ADD SWAP1 PUSH2 0xC14 SWAP2 SWAP1 PUSH2 0x227C JUMP JUMPDEST PUSH2 0xC1E SWAP1 DUP9 PUSH2 0x2B54 JUMP JUMPDEST SWAP7 POP PUSH2 0xC2B PUSH1 0x3 DUP9 PUSH2 0x2B6C JUMP JUMPDEST SWAP4 POP PUSH2 0xC37 DUP5 DUP10 PUSH2 0x2B54 JUMP JUMPDEST SWAP8 POP PUSH2 0xC44 DUP5 PUSH1 0x3 PUSH2 0x2B80 JUMP JUMPDEST PUSH2 0xC4E SWAP1 DUP9 PUSH2 0x2B9F JUMP JUMPDEST SWAP7 POP PUSH1 0x0 DUP1 DUP9 PUSH1 0x1 PUSH1 0x0 SWAP1 SLOAD SWAP1 PUSH2 0x100 EXP SWAP1 DIV PUSH1 0x1 PUSH1 0x1 PUSH1 0xA0 SHL SUB AND PUSH1 0x1 PUSH1 0x1 PUSH1 0xA0 SHL SUB AND PUSH3 0xFDD58E CALLER DUP16 PUSH1 0x4 PUSH2 0xC85 SWAP2 SWAP1 PUSH2 0x2B80 JUMP JUMPDEST PUSH2 0xC90 SWAP1 PUSH1 0x2 PUSH2 0x2B54 JUMP JUMPDEST PUSH1 0x40 MLOAD DUP4 PUSH4 0xFFFFFFFF AND PUSH1 0xE0 SHL DUP2 MSTORE PUSH1 0x4 ADD PUSH2 0xCAD SWAP3 SWAP2 SWAP1 PUSH2 0x2998 JUMP JUMPDEST PUSH1 0x20 PUSH1 0x40 MLOAD DUP1 DUP4 SUB DUP2 DUP7 DUP1 EXTCODESIZE ISZERO DUP1 ISZERO PUSH2 0xCC5 JUMPI PUSH1 0x0 DUP1 REVERT JUMPDEST POP GAS STATICCALL ISZERO DUP1 ISZERO PUSH2 0xCD9 JUMPI RETURNDATASIZE PUSH1 0x0 DUP1 RETURNDATACOPY RETURNDATASIZE PUSH1 0x0 REVERT JUMPDEST POP POP POP POP PUSH1 0x40 MLOAD RETURNDATASIZE PUSH1 0x1F NOT PUSH1 0x1F DUP3 ADD AND DUP3 ADD DUP1 PUSH1 0x40 MSTORE POP DUP2 ADD SWAP1 PUSH2 0xCFD SWAP2 SWAP1 PUSH2 0x227C JUMP JUMPDEST GT ISZERO PUSH2 0xDBE JUMPI DUP9 PUSH1 0x1 PUSH1 0x0 SWAP1 SLOAD SWAP1 PUSH2 0x100 EXP SWAP1 DIV PUSH1 0x1 PUSH1 0x1 PUSH1 0xA0 SHL SUB AND PUSH1 0x1 PUSH1 0x1 PUSH1 0xA0 SHL SUB AND PUSH3 0xFDD58E CALLER DUP16 PUSH1 0x4 PUSH2 0xD35 SWAP2 SWAP1 PUSH2 0x2B80 JUMP JUMPDEST PUSH2 0xD40 SWAP1 PUSH1 0x2 PUSH2 0x2B54 JUMP JUMPDEST PUSH1 0x40 MLOAD DUP4 PUSH4 0xFFFFFFFF AND PUSH1 0xE0 SHL DUP2 MSTORE PUSH1 0x4 ADD PUSH2 0xD5D SWAP3 SWAP2 SWAP1 PUSH2 0x2998 JUMP JUMPDEST PUSH1 0x20 PUSH1 0x40 MLOAD DUP1 DUP4 SUB DUP2 DUP7 DUP1 EXTCODESIZE ISZERO DUP1 ISZERO PUSH2 0xD75 JUMPI PUSH1 0x0 DUP1 REVERT JUMPDEST POP GAS STATICCALL ISZERO DUP1 ISZERO PUSH2 0xD89 JUMPI RETURNDATASIZE PUSH1 0x0 DUP1 RETURNDATACOPY RETURNDATASIZE PUSH1 0x0 REVERT JUMPDEST POP POP POP POP PUSH1 0x40 MLOAD RETURNDATASIZE PUSH1 0x1F NOT PUSH1 0x1F DUP3 ADD AND DUP3 ADD DUP1 PUSH1 0x40 MSTORE POP DUP2 ADD SWAP1 PUSH2 0xDAD SWAP2 SWAP1 PUSH2 0x227C JUMP JUMPDEST PUSH2 0xDB7 SWAP2 SWAP1 PUSH2 0x2B9F JUMP JUMPDEST SWAP2 POP PUSH2 0xE5F JUMP JUMPDEST PUSH1 0x1 SLOAD PUSH1 0x1 PUSH1 0x1 PUSH1 0xA0 SHL SUB AND PUSH3 0xFDD58E CALLER PUSH2 0xDDA DUP16 PUSH1 0x4 PUSH2 0x2B80 JUMP JUMPDEST PUSH2 0xDE5 SWAP1 PUSH1 0x2 PUSH2 0x2B54 JUMP JUMPDEST PUSH1 0x40 MLOAD DUP4 PUSH4 0xFFFFFFFF AND PUSH1 0xE0 SHL DUP2 MSTORE PUSH1 0x4 ADD PUSH2 0xE02 SWAP3 SWAP2 SWAP1 PUSH2 0x2998 JUMP JUMPDEST PUSH1 0x20 PUSH1 0x40 MLOAD DUP1 DUP4 SUB DUP2 DUP7 DUP1 EXTCODESIZE ISZERO DUP1 ISZERO PUSH2 0xE1A JUMPI PUSH1 0x0 DUP1 REVERT JUMPDEST POP GAS STATICCALL ISZERO DUP1 ISZERO PUSH2 0xE2E JUMPI RETURNDATASIZE PUSH1 0x0 DUP1 RETURNDATACOPY RETURNDATASIZE PUSH1 0x0 REVERT JUMPDEST POP POP POP POP PUSH1 0x40 MLOAD RETURNDATASIZE PUSH1 0x1F NOT PUSH1 0x1F DUP3 ADD AND DUP3 ADD DUP1 PUSH1 0x40 MSTORE POP DUP2 ADD SWAP1 PUSH2 0xE52 SWAP2 SWAP1 PUSH2 0x227C JUMP JUMPDEST PUSH2 0xE5C SWAP1 DUP11 PUSH2 0x2B9F JUMP JUMPDEST SWAP1 POP JUMPDEST DUP7 ISZERO PUSH2 0xED4 JUMPI PUSH1 0x1 SLOAD PUSH1 0x1 PUSH1 0x1 PUSH1 0xA0 SHL SUB AND PUSH4 0x995C9D77 PUSH2 0xE81 DUP15 PUSH1 0x4 PUSH2 0x2B80 JUMP JUMPDEST CALLER DUP11 PUSH1 0x40 MLOAD DUP5 PUSH4 0xFFFFFFFF AND PUSH1 0xE0 SHL DUP2 MSTORE PUSH1 0x4 ADD PUSH2 0xEA1 SWAP4 SWAP3 SWAP2 SWAP1 PUSH2 0x2B0F JUMP JUMPDEST PUSH1 0x0 PUSH1 0x40 MLOAD DUP1 DUP4 SUB DUP2 PUSH1 0x0 DUP8 DUP1 EXTCODESIZE ISZERO DUP1 ISZERO PUSH2 0xEBB JUMPI PUSH1 0x0 DUP1 REVERT JUMPDEST POP GAS CALL ISZERO DUP1 ISZERO PUSH2 0xECF JUMPI RETURNDATASIZE PUSH1 0x0 DUP1 RETURNDATACOPY RETURNDATASIZE PUSH1 0x0 REVERT JUMPDEST POP POP POP POP JUMPDEST DUP4 ISZERO PUSH2 0xF54 JUMPI PUSH1 0x1 SLOAD PUSH1 0x1 PUSH1 0x1 PUSH1 0xA0 SHL SUB AND PUSH4 0x995C9D77 PUSH2 0xEF6 DUP15 PUSH1 0x4 PUSH2 0x2B80 JUMP JUMPDEST PUSH2 0xF01 SWAP1 PUSH1 0x1 PUSH2 0x2B54 JUMP JUMPDEST CALLER DUP8 PUSH1 0x40 MLOAD DUP5 PUSH4 0xFFFFFFFF AND PUSH1 0xE0 SHL DUP2 MSTORE PUSH1 0x4 ADD PUSH2 0xF21 SWAP4 SWAP3 SWAP2 SWAP1 PUSH2 0x2B0F JUMP JUMPDEST PUSH1 0x0 PUSH1 0x40 MLOAD DUP1 DUP4 SUB DUP2 PUSH1 0x0 DUP8 DUP1 EXTCODESIZE ISZERO DUP1 ISZERO PUSH2 0xF3B JUMPI PUSH1 0x0 DUP1 REVERT JUMPDEST POP GAS CALL ISZERO DUP1 ISZERO PUSH2 0xF4F JUMPI RETURNDATASIZE PUSH1 0x0 DUP1 RETURNDATACOPY RETURNDATASIZE PUSH1 0x0 REVERT JUMPDEST POP POP POP POP JUMPDEST DUP2 ISZERO PUSH2 0xFD4 JUMPI PUSH1 0x1 SLOAD PUSH1 0x1 PUSH1 0x1 PUSH1 0xA0 SHL SUB AND PUSH4 0x995C9D77 PUSH2 0xF76 DUP15 PUSH1 0x4 PUSH2 0x2B80 JUMP JUMPDEST PUSH2 0xF81 SWAP1 PUSH1 0x2 PUSH2 0x2B54 JUMP JUMPDEST CALLER DUP6 PUSH1 0x40 MLOAD DUP5 PUSH4 0xFFFFFFFF AND PUSH1 0xE0 SHL DUP2 MSTORE PUSH1 0x4 ADD PUSH2 0xFA1 SWAP4 SWAP3 SWAP2 SWAP1 PUSH2 0x2B0F JUMP JUMPDEST PUSH1 0x0 PUSH1 0x40 MLOAD DUP1 DUP4 SUB DUP2 PUSH1 0x0 DUP8 DUP1 EXTCODESIZE ISZERO DUP1 ISZERO PUSH2 0xFBB JUMPI PUSH1 0x0 DUP1 REVERT JUMPDEST POP GAS CALL ISZERO DUP1 ISZERO PUSH2 0xFCF JUMPI RETURNDATASIZE PUSH1 0x0 DUP1 RETURNDATACOPY RETURNDATASIZE PUSH1 0x0 REVERT JUMPDEST POP POP POP POP JUMPDEST DUP3 ISZERO PUSH2 0x1054 JUMPI PUSH1 0x1 SLOAD PUSH1 0x1 PUSH1 0x1 PUSH1 0xA0 SHL SUB AND PUSH4 0x3FEB9F7D PUSH2 0xFF6 DUP15 PUSH1 0x4 PUSH2 0x2B80 JUMP JUMPDEST PUSH2 0x1001 SWAP1 PUSH1 0x1 PUSH2 0x2B54 JUMP JUMPDEST CALLER DUP7 PUSH1 0x40 MLOAD DUP5 PUSH4 0xFFFFFFFF AND PUSH1 0xE0 SHL DUP2 MSTORE PUSH1 0x4 ADD PUSH2 0x1021 SWAP4 SWAP3 SWAP2 SWAP1 PUSH2 0x2B0F JUMP JUMPDEST PUSH1 0x0 PUSH1 0x40 MLOAD DUP1 DUP4 SUB DUP2 PUSH1 0x0 DUP8 DUP1 EXTCODESIZE ISZERO DUP1 ISZERO PUSH2 0x103B JUMPI PUSH1 0x0 DUP1 REVERT JUMPDEST POP GAS CALL ISZERO DUP1 ISZERO PUSH2 0x104F JUMPI RETURNDATASIZE PUSH1 0x0 DUP1 RETURNDATACOPY RETURNDATASIZE PUSH1 0x0 REVERT JUMPDEST POP POP POP POP JUMPDEST DUP1 ISZERO PUSH2 0x10D4 JUMPI PUSH1 0x1 SLOAD PUSH1 0x1 PUSH1 0x1 PUSH1 0xA0 SHL SUB AND PUSH4 0x3FEB9F7D PUSH2 0x1076 DUP15 PUSH1 0x4 PUSH2 0x2B80 JUMP JUMPDEST PUSH2 0x1081 SWAP1 PUSH1 0x2 PUSH2 0x2B54 JUMP JUMPDEST CALLER DUP5 PUSH1 0x40 MLOAD DUP5 PUSH4 0xFFFFFFFF AND PUSH1 0xE0 SHL DUP2 MSTORE PUSH1 0x4 ADD PUSH2 0x10A1 SWAP4 SWAP3 SWAP2 SWAP1 PUSH2 0x2B0F JUMP JUMPDEST PUSH1 0x0 PUSH1 0x40 MLOAD DUP1 DUP4 SUB DUP2 PUSH1 0x0 DUP8 DUP1 EXTCODESIZE ISZERO DUP1 ISZERO PUSH2 0x10BB JUMPI PUSH1 0x0 DUP1 REVERT JUMPDEST POP GAS CALL ISZERO DUP1 ISZERO PUSH2 0x10CF JUMPI RETURNDATASIZE PUSH1 0x0 DUP1 RETURNDATACOPY RETURNDATASIZE PUSH1 0x0 REVERT JUMPDEST POP POP POP POP JUMPDEST DUP10 ISZERO PUSH2 0x1154 JUMPI PUSH1 0x1 SLOAD PUSH1 0x1 PUSH1 0x1 PUSH1 0xA0 SHL SUB AND PUSH4 0x3FEB9F7D PUSH2 0x10F6 DUP15 PUSH1 0x4 PUSH2 0x2B80 JUMP JUMPDEST PUSH2 0x1101 SWAP1 PUSH1 0x3 PUSH2 0x2B54 JUMP JUMPDEST CALLER DUP14 PUSH1 0x40 MLOAD DUP5 PUSH4 0xFFFFFFFF AND PUSH1 0xE0 SHL DUP2 MSTORE PUSH1 0x4 ADD PUSH2 0x1121 SWAP4 SWAP3 SWAP2 SWAP1 PUSH2 0x2B0F JUMP JUMPDEST PUSH1 0x0 PUSH1 0x40 MLOAD DUP1 DUP4 SUB DUP2 PUSH1 0x0 DUP8 DUP1 EXTCODESIZE ISZERO DUP1 ISZERO PUSH2 0x113B JUMPI PUSH1 0x0 DUP1 REVERT JUMPDEST POP GAS CALL ISZERO DUP1 ISZERO PUSH2 0x114F JUMPI RETURNDATASIZE PUSH1 0x0 DUP1 RETURNDATACOPY RETURNDATASIZE PUSH1 0x0 REVERT JUMPDEST POP POP POP POP JUMPDEST POP POP POP POP POP POP POP POP POP POP POP DUP1 DUP1 PUSH2 0x116A SWAP1 PUSH2 0x2BB6 JUMP JUMPDEST SWAP2 POP POP PUSH2 0x6ED JUMP JUMPDEST POP PUSH1 0x40 MLOAD CALLER SWAP1 PUSH32 0x2B3CE49B33919D106D8BD2245A230A4897E3A72996D9A1823EC0FCE8074A4318 SWAP1 PUSH1 0x0 SWAP1 LOG2 POP JUMP JUMPDEST PUSH1 0x4 SLOAD PUSH1 0x1 PUSH1 0x1 PUSH1 0xA0 SHL SUB AND CALLER EQ PUSH2 0x11B8 JUMPI PUSH1 0x0 DUP1 REVERT JUMPDEST PUSH1 0x0 PUSH1 0x3 SLOAD GT PUSH2 0x11F6 JUMPI PUSH1 0x40 MLOAD PUSH3 0x461BCD PUSH1 0xE5 SHL DUP2 MSTORE PUSH1 0x20 PUSH1 0x4 DUP3 ADD MSTORE PUSH1 0x9 PUSH1 0x24 DUP3 ADD MSTORE PUSH9 0x273790333AB7323997 PUSH1 0xB9 SHL PUSH1 0x44 DUP3 ADD MSTORE PUSH1 0x64 ADD PUSH2 0x213 JUMP JUMPDEST PUSH1 0x3 SLOAD PUSH1 0x40 MLOAD PUSH1 0x1 PUSH1 0x1 PUSH1 0xA0 SHL SUB DUP4 AND SWAP2 DUP1 ISZERO PUSH2 0x8FC MUL SWAP2 PUSH1 0x0 DUP2 DUP2 DUP2 DUP6 DUP9 DUP9 CALL SWAP4 POP POP POP POP ISZERO DUP1 ISZERO PUSH2 0x122D JUMPI RETURNDATASIZE PUSH1 0x0 DUP1 RETURNDATACOPY RETURNDATASIZE PUSH1 0x0 REVERT JUMPDEST POP POP PUSH1 0x0 PUSH1 0x3 SSTORE JUMP JUMPDEST PUSH1 0x0 SLOAD PUSH2 0x100 SWAP1 DIV PUSH1 0xFF AND PUSH2 0x124A JUMPI PUSH1 0x0 DUP1 REVERT JUMPDEST PUSH2 0x1252 PUSH2 0x1451 JUMP JUMPDEST POP POP JUMP JUMPDEST PUSH2 0x1260 CALLVALUE CALLER PUSH2 0x1B9 JUMP JUMPDEST JUMP JUMPDEST PUSH2 0x1260 PUSH2 0x43E JUMP JUMPDEST PUSH1 0x0 DUP1 SLOAD PUSH1 0x60 SWAP1 PUSH2 0x100 SWAP1 DIV PUSH1 0xFF AND PUSH2 0x1282 JUMPI PUSH1 0x0 DUP1 REVERT JUMPDEST PUSH2 0x128A PUSH2 0x14BC JUMP JUMPDEST SWAP2 POP SWAP3 POP SWAP3 SWAP1 POP JUMP JUMPDEST PUSH1 0x4 SLOAD PUSH1 0x1 PUSH1 0x1 PUSH1 0xA0 SHL SUB AND CALLER EQ PUSH2 0x12AA JUMPI PUSH1 0x0 DUP1 REVERT JUMPDEST PUSH1 0x0 DUP1 SLOAD PUSH2 0xFFFF NOT AND SWAP4 ISZERO ISZERO PUSH2 0xFF00 NOT AND SWAP4 SWAP1 SWAP4 OR PUSH2 0x100 SWAP3 ISZERO ISZERO SWAP3 SWAP1 SWAP3 MUL SWAP2 SWAP1 SWAP2 OR PUSH3 0xFF0000 NOT AND PUSH3 0x10000 SWAP2 ISZERO ISZERO SWAP2 SWAP1 SWAP2 MUL OR SWAP1 SSTORE JUMP JUMPDEST PUSH1 0x4 SLOAD PUSH1 0x60 SWAP1 PUSH1 0x1 PUSH1 0x1 PUSH1 0xA0 SHL SUB AND CALLER EQ PUSH2 0x12FD JUMPI PUSH1 0x0 DUP1 REVERT JUMPDEST PUSH1 0x1 PUSH1 0x0 SWAP1 SLOAD SWAP1 PUSH2 0x100 EXP SWAP1 DIV PUSH1 0x1 PUSH1 0x1 PUSH1 0xA0 SHL SUB AND PUSH1 0x1 PUSH1 0x1 PUSH1 0xA0 SHL SUB AND PUSH4 0xA39FAC12 PUSH1 0x40 MLOAD DUP2 PUSH4 0xFFFFFFFF AND PUSH1 0xE0 SHL DUP2 MSTORE PUSH1 0x4 ADD PUSH1 0x0 PUSH1 0x40 MLOAD DUP1 DUP4 SUB DUP2 DUP7 DUP1 EXTCODESIZE ISZERO DUP1 ISZERO PUSH2 0x134B JUMPI PUSH1 0x0 DUP1 REVERT JUMPDEST POP GAS STATICCALL ISZERO DUP1 ISZERO PUSH2 0x135F JUMPI RETURNDATASIZE PUSH1 0x0 DUP1 RETURNDATACOPY RETURNDATASIZE PUSH1 0x0 REVERT JUMPDEST POP POP POP POP PUSH1 0x40 MLOAD RETURNDATASIZE PUSH1 0x0 DUP3 RETURNDATACOPY PUSH1 0x1F RETURNDATASIZE SWAP1 DUP2 ADD PUSH1 0x1F NOT AND DUP3 ADD PUSH1 0x40 MSTORE PUSH2 0x1387 SWAP2 SWAP1 DUP2 ADD SWAP1 PUSH2 0x20FB JUMP JUMPDEST SWAP1 POP SWAP1 JUMP JUMPDEST PUSH1 0x4 SLOAD PUSH1 0x1 PUSH1 0x1 PUSH1 0xA0 SHL SUB AND CALLER EQ PUSH2 0x13A3 JUMPI PUSH1 0x0 DUP1 REVERT JUMPDEST PUSH1 0x4 DUP1 SLOAD PUSH1 0x1 PUSH1 0x1 PUSH1 0xA0 SHL SUB NOT AND PUSH1 0x1 PUSH1 0x1 PUSH1 0xA0 SHL SUB SWAP3 SWAP1 SWAP3 AND SWAP2 SWAP1 SWAP2 OR SWAP1 SSTORE JUMP JUMPDEST PUSH1 0x4 SLOAD PUSH1 0x1 PUSH1 0x1 PUSH1 0xA0 SHL SUB AND CALLER EQ PUSH2 0x13DC JUMPI PUSH1 0x0 DUP1 REVERT JUMPDEST PUSH1 0x0 SLOAD PUSH2 0x100 SWAP1 DIV PUSH1 0xFF AND ISZERO PUSH2 0x1434 JUMPI PUSH1 0x40 MLOAD PUSH3 0x461BCD PUSH1 0xE5 SHL DUP2 MSTORE PUSH1 0x20 PUSH1 0x4 DUP3 ADD MSTORE PUSH1 0x1B PUSH1 0x24 DUP3 ADD MSTORE PUSH32 0x506C6561736520736574206B656570657220746F2066616C73652E0000000000 PUSH1 0x44 DUP3 ADD MSTORE PUSH1 0x64 ADD PUSH2 0x213 JUMP JUMPDEST PUSH1 0x0 PUSH2 0x143E PUSH2 0x14BC JUMP JUMPDEST SWAP1 POP DUP1 ISZERO PUSH2 0x144E JUMPI PUSH2 0x144E PUSH2 0x1451 JUMP JUMPDEST POP JUMP JUMPDEST PUSH1 0x4 SLOAD PUSH1 0x1 PUSH1 0xA0 SHL SWAP1 DIV PUSH1 0xFF AND DUP1 ISZERO PUSH2 0x1473 JUMPI POP PUSH1 0x4 SLOAD PUSH1 0x1 PUSH1 0xA8 SHL SWAP1 DIV PUSH1 0xFF AND JUMPDEST PUSH2 0x147C JUMPI PUSH1 0x0 DUP1 REVERT JUMPDEST PUSH1 0xA SLOAD PUSH1 0xB SLOAD PUSH2 0x148C SWAP1 TIMESTAMP PUSH2 0x2B9F JUMP JUMPDEST GT ISZERO PUSH2 0x149E JUMPI TIMESTAMP PUSH1 0xB SSTORE PUSH2 0x149E PUSH2 0x1521 JUMP JUMPDEST PUSH1 0x9 SLOAD PUSH1 0x8 SLOAD PUSH2 0x14AE SWAP1 TIMESTAMP PUSH2 0x2B9F JUMP JUMPDEST GT ISZERO PUSH2 0x1260 JUMPI PUSH2 0x1260 PUSH2 0x19ED JUMP JUMPDEST PUSH1 0x4 SLOAD PUSH1 0x0 SWAP1 PUSH1 0x1 PUSH1 0xA0 SHL SWAP1 DIV PUSH1 0xFF AND DUP1 ISZERO PUSH2 0x14E1 JUMPI POP PUSH1 0x4 SLOAD PUSH1 0x1 PUSH1 0xA8 SHL SWAP1 DIV PUSH1 0xFF AND JUMPDEST PUSH2 0x14EA JUMPI PUSH1 0x0 DUP1 REVERT JUMPDEST PUSH1 0xA SLOAD PUSH1 0xB SLOAD PUSH2 0x14FA SWAP1 TIMESTAMP PUSH2 0x2B9F JUMP JUMPDEST GT ISZERO PUSH2 0x1504 JUMPI POP PUSH1 0x1 JUMPDEST PUSH1 0x9 SLOAD PUSH1 0x8 SLOAD PUSH2 0x1514 SWAP1 TIMESTAMP PUSH2 0x2B9F JUMP JUMPDEST GT ISZERO PUSH2 0x151E JUMPI POP PUSH1 0x1 JUMPDEST SWAP1 JUMP JUMPDEST PUSH1 0x0 SLOAD PUSH3 0x10000 SWAP1 DIV PUSH1 0xFF AND PUSH2 0x19C2 JUMPI PUSH1 0x0 JUMPDEST PUSH1 0x5 DUP2 LT ISZERO PUSH2 0x19C0 JUMPI PUSH1 0x40 DUP1 MLOAD TIMESTAMP PUSH1 0x20 DUP1 DUP4 ADD SWAP2 SWAP1 SWAP2 MSTORE DUP2 DUP4 ADD DUP5 SWAP1 MSTORE DUP3 MLOAD DUP1 DUP4 SUB DUP5 ADD DUP2 MSTORE PUSH1 0x60 SWAP1 SWAP3 ADD SWAP1 SWAP3 MSTORE DUP1 MLOAD SWAP2 ADD KECCAK256 PUSH2 0x1572 PUSH1 0x2 DUP3 PUSH2 0x2BD1 JUMP JUMPDEST PUSH1 0xD DUP4 PUSH1 0x5 DUP2 LT PUSH2 0x1585 JUMPI PUSH2 0x1585 PUSH2 0x2C1E JUMP JUMPDEST PUSH1 0x10 SWAP2 DUP3 DUP3 DIV ADD SWAP2 SWAP1 MOD PUSH1 0x2 MUL DUP3 DUP3 DUP3 SWAP1 SLOAD SWAP1 PUSH2 0x100 EXP SWAP1 DIV PUSH2 0xFFFF AND PUSH2 0x15AC SWAP2 SWAP1 PUSH2 0x2B2E JUMP JUMPDEST SWAP3 POP PUSH2 0x100 EXP DUP2 SLOAD DUP2 PUSH2 0xFFFF MUL NOT AND SWAP1 DUP4 PUSH2 0xFFFF AND MUL OR SWAP1 SSTORE POP PUSH1 0x0 PUSH1 0x2 DUP3 PUSH2 0x15D5 SWAP2 SWAP1 PUSH2 0x2BD1 JUMP JUMPDEST PUSH2 0xFFFF AND GT ISZERO PUSH2 0x19AD JUMPI PUSH2 0x15EA PUSH1 0x3C DUP3 PUSH2 0x2BD1 JUMP JUMPDEST PUSH2 0x15F5 SWAP1 PUSH1 0x1E PUSH2 0x2B2E JUMP JUMPDEST PUSH1 0xC DUP4 PUSH1 0x5 DUP2 LT PUSH2 0x1608 JUMPI PUSH2 0x1608 PUSH2 0x2C1E JUMP JUMPDEST PUSH1 0x10 SWAP2 DUP3 DUP3 DIV ADD SWAP2 SWAP1 MOD PUSH1 0x2 MUL DUP3 DUP3 DUP3 SWAP1 SLOAD SWAP1 PUSH2 0x100 EXP SWAP1 DIV PUSH2 0xFFFF AND PUSH2 0x162F SWAP2 SWAP1 PUSH2 0x2B2E JUMP JUMPDEST SWAP3 POP PUSH2 0x100 EXP DUP2 SLOAD DUP2 PUSH2 0xFFFF MUL NOT AND SWAP1 DUP4 PUSH2 0xFFFF AND MUL OR SWAP1 SSTORE POP PUSH1 0x3 DUP2 PUSH2 0x1656 SWAP2 SWAP1 PUSH2 0x2BD1 JUMP JUMPDEST PUSH1 0xE DUP4 PUSH1 0x5 DUP2 LT PUSH2 0x1669 JUMPI PUSH2 0x1669 PUSH2 0x2C1E JUMP JUMPDEST PUSH1 0x10 SWAP2 DUP3 DUP3 DIV ADD SWAP2 SWAP1 MOD PUSH1 0x2 MUL DUP3 DUP3 DUP3 SWAP1 SLOAD SWAP1 PUSH2 0x100 EXP SWAP1 DIV PUSH2 0xFFFF AND PUSH2 0x1690 SWAP2 SWAP1 PUSH2 0x2B2E JUMP JUMPDEST SWAP3 POP PUSH2 0x100 EXP DUP2 SLOAD DUP2 PUSH2 0xFFFF MUL NOT AND SWAP1 DUP4 PUSH2 0xFFFF AND MUL OR SWAP1 SSTORE POP PUSH1 0x4 DUP2 PUSH2 0x16B7 SWAP2 SWAP1 PUSH2 0x2BD1 JUMP JUMPDEST PUSH1 0xF DUP4 PUSH1 0x5 DUP2 LT PUSH2 0x16CA JUMPI PUSH2 0x16CA PUSH2 0x2C1E JUMP JUMPDEST PUSH1 0x10 SWAP2 DUP3 DUP3 DIV ADD SWAP2 SWAP1 MOD PUSH1 0x2 MUL DUP3 DUP3 DUP3 SWAP1 SLOAD SWAP1 PUSH2 0x100 EXP SWAP1 DIV PUSH2 0xFFFF AND PUSH2 0x16F1 SWAP2 SWAP1 PUSH2 0x2B2E JUMP JUMPDEST SWAP3 POP PUSH2 0x100 EXP DUP2 SLOAD DUP2 PUSH2 0xFFFF MUL NOT AND SWAP1 DUP4 PUSH2 0xFFFF AND MUL OR SWAP1 SSTORE POP DUP2 PUSH1 0x0 EQ ISZERO PUSH2 0x1872 JUMPI PUSH2 0x171F PUSH1 0x32 DUP3 PUSH2 0x2BD1 JUMP JUMPDEST PUSH2 0x172A SWAP1 PUSH1 0xA PUSH2 0x2B2E JUMP JUMPDEST PUSH1 0x10 DUP1 SLOAD PUSH1 0x0 SWAP1 PUSH2 0x1740 SWAP1 DUP5 SWAP1 PUSH2 0xFFFF AND PUSH2 0x2B2E JUMP JUMPDEST DUP3 SLOAD PUSH2 0xFFFF SWAP2 DUP3 AND PUSH2 0x100 SWAP4 SWAP1 SWAP4 EXP SWAP3 DUP4 MUL SWAP2 SWAP1 SWAP3 MUL NOT SWAP1 SWAP2 AND OR SWAP1 SSTORE POP PUSH1 0x1 SLOAD PUSH1 0x1 PUSH1 0x1 PUSH1 0xA0 SHL SUB AND PUSH4 0x5C7A8D27 DUP4 PUSH1 0xC DUP2 PUSH1 0x5 DUP2 LT PUSH2 0x1783 JUMPI PUSH2 0x1783 PUSH2 0x2C1E JUMP JUMPDEST PUSH1 0x10 SWAP2 DUP3 DUP3 DIV ADD SWAP2 SWAP1 MOD PUSH1 0x2 MUL SWAP1 SLOAD SWAP1 PUSH2 0x100 EXP SWAP1 DIV PUSH2 0xFFFF AND PUSH1 0xD DUP7 PUSH1 0x5 DUP2 LT PUSH2 0x17B0 JUMPI PUSH2 0x17B0 PUSH2 0x2C1E JUMP JUMPDEST PUSH1 0x10 SWAP2 DUP3 DUP3 DIV ADD SWAP2 SWAP1 MOD PUSH1 0x2 MUL SWAP1 SLOAD SWAP1 PUSH2 0x100 EXP SWAP1 DIV PUSH2 0xFFFF AND PUSH1 0xE DUP8 PUSH1 0x5 DUP2 LT PUSH2 0x17DD JUMPI PUSH2 0x17DD PUSH2 0x2C1E JUMP JUMPDEST PUSH1 0x10 DUP1 DUP3 DIV SWAP3 SWAP1 SWAP3 ADD SLOAD SWAP2 SLOAD PUSH1 0x40 MLOAD PUSH1 0xE0 DUP9 SWAP1 SHL PUSH1 0x1 PUSH1 0x1 PUSH1 0xE0 SHL SUB NOT AND DUP2 MSTORE PUSH1 0x4 DUP2 ADD SWAP7 SWAP1 SWAP7 MSTORE PUSH2 0xFFFF SWAP5 DUP6 AND PUSH1 0x24 DUP8 ADD MSTORE SWAP3 DUP5 AND PUSH1 0x44 DUP7 ADD MSTORE PUSH1 0xF AND PUSH1 0x2 MUL PUSH2 0x100 EXP SWAP1 DIV DUP3 AND PUSH1 0x64 DUP5 ADD MSTORE PUSH1 0x0 PUSH1 0x84 DUP5 ADD MSTORE AND PUSH1 0xA4 DUP3 ADD MSTORE PUSH1 0xC4 ADD PUSH1 0x0 PUSH1 0x40 MLOAD DUP1 DUP4 SUB DUP2 PUSH1 0x0 DUP8 DUP1 EXTCODESIZE ISZERO DUP1 ISZERO PUSH2 0x1855 JUMPI PUSH1 0x0 DUP1 REVERT JUMPDEST POP GAS CALL ISZERO DUP1 ISZERO PUSH2 0x1869 JUMPI RETURNDATASIZE PUSH1 0x0 DUP1 RETURNDATACOPY RETURNDATASIZE PUSH1 0x0 REVERT JUMPDEST POP POP POP POP PUSH2 0x19AD JUMP JUMPDEST PUSH1 0x1 SLOAD PUSH1 0x1 PUSH1 0x1 PUSH1 0xA0 SHL SUB AND PUSH4 0x5C7A8D27 DUP4 PUSH1 0xC DUP2 PUSH1 0x5 DUP2 LT PUSH2 0x1897 JUMPI PUSH2 0x1897 PUSH2 0x2C1E JUMP JUMPDEST PUSH1 0x10 SWAP2 DUP3 DUP3 DIV ADD SWAP2 SWAP1 MOD PUSH1 0x2 MUL SWAP1 SLOAD SWAP1 PUSH2 0x100 EXP SWAP1 DIV PUSH2 0xFFFF AND PUSH1 0xD DUP7 PUSH1 0x5 DUP2 LT PUSH2 0x18C4 JUMPI PUSH2 0x18C4 PUSH2 0x2C1E JUMP JUMPDEST PUSH1 0x10 SWAP2 DUP3 DUP3 DIV ADD SWAP2 SWAP1 MOD PUSH1 0x2 MUL SWAP1 SLOAD SWAP1 PUSH2 0x100 EXP SWAP1 DIV PUSH2 0xFFFF AND PUSH1 0xE DUP8 PUSH1 0x5 DUP2 LT PUSH2 0x18F1 JUMPI PUSH2 0x18F1 PUSH2 0x2C1E JUMP JUMPDEST PUSH1 0x10 SWAP2 DUP3 DUP3 DIV ADD SWAP2 SWAP1 MOD PUSH1 0x2 MUL SWAP1 SLOAD SWAP1 PUSH2 0x100 EXP SWAP1 DIV PUSH2 0xFFFF AND PUSH1 0xF DUP9 PUSH1 0x5 DUP2 LT PUSH2 0x191E JUMPI PUSH2 0x191E PUSH2 0x2C1E JUMP JUMPDEST PUSH1 0x10 DUP2 DIV SWAP2 SWAP1 SWAP2 ADD SLOAD PUSH1 0x40 MLOAD PUSH1 0xE0 DUP9 SWAP1 SHL PUSH1 0x1 PUSH1 0x1 PUSH1 0xE0 SHL SUB NOT AND DUP2 MSTORE PUSH1 0x4 DUP2 ADD SWAP7 SWAP1 SWAP7 MSTORE PUSH2 0xFFFF SWAP5 DUP6 AND PUSH1 0x24 DUP8 ADD MSTORE SWAP3 DUP5 AND PUSH1 0x44 DUP7 ADD MSTORE SWAP1 DUP4 AND PUSH1 0x64 DUP6 ADD MSTORE PUSH1 0xF AND PUSH1 0x2 MUL PUSH2 0x100 EXP SWAP1 DIV AND PUSH1 0x84 DUP3 ADD MSTORE PUSH1 0x0 PUSH1 0xA4 DUP3 ADD MSTORE PUSH1 0xC4 ADD PUSH1 0x0 PUSH1 0x40 MLOAD DUP1 DUP4 SUB DUP2 PUSH1 0x0 DUP8 DUP1 EXTCODESIZE ISZERO DUP1 ISZERO PUSH2 0x1994 JUMPI PUSH1 0x0 DUP1 REVERT JUMPDEST POP GAS CALL ISZERO DUP1 ISZERO PUSH2 0x19A8 JUMPI RETURNDATASIZE PUSH1 0x0 DUP1 RETURNDATACOPY RETURNDATASIZE PUSH1 0x0 REVERT JUMPDEST POP POP POP POP JUMPDEST POP DUP1 PUSH2 0x19B8 DUP2 PUSH2 0x2BB6 JUMP JUMPDEST SWAP2 POP POP PUSH2 0x1534 JUMP JUMPDEST POP JUMPDEST PUSH1 0x40 MLOAD PUSH32 0x4DF4AE4164FE500D50794868E7C9215B69DD8BC8EA7D7204E582B420CBD18A93 SWAP1 PUSH1 0x0 SWAP1 LOG1 JUMP JUMPDEST PUSH1 0x4 SLOAD PUSH1 0x1 PUSH1 0xA0 SHL SWAP1 DIV PUSH1 0xFF AND ISZERO ISZERO PUSH1 0x1 EQ PUSH2 0x1A3E JUMPI PUSH1 0x40 MLOAD PUSH3 0x461BCD PUSH1 0xE5 SHL DUP2 MSTORE PUSH1 0x20 PUSH1 0x4 DUP3 ADD MSTORE PUSH1 0x10 PUSH1 0x24 DUP3 ADD MSTORE PUSH16 0x2930B33332B6103BB0B9903237B73297 PUSH1 0x81 SHL PUSH1 0x44 DUP3 ADD MSTORE PUSH1 0x64 ADD PUSH2 0x213 JUMP JUMPDEST PUSH1 0x4 DUP1 SLOAD PUSH2 0xFFFF PUSH1 0xA0 SHL NOT AND DUP2 SSTORE PUSH1 0x1 SLOAD PUSH1 0x40 DUP1 MLOAD PUSH4 0x51CFD609 PUSH1 0xE1 SHL DUP2 MSTORE SWAP1 MLOAD PUSH1 0x0 SWAP4 PUSH1 0x1 PUSH1 0x1 PUSH1 0xA0 SHL SUB SWAP1 SWAP4 AND SWAP3 PUSH4 0xA39FAC12 SWAP3 DUP1 DUP3 ADD SWAP3 DUP7 SWAP3 SWAP1 SWAP2 DUP3 SWAP1 SUB ADD DUP2 DUP7 DUP1 EXTCODESIZE ISZERO DUP1 ISZERO PUSH2 0x1A90 JUMPI PUSH1 0x0 DUP1 REVERT JUMPDEST POP GAS STATICCALL ISZERO DUP1 ISZERO PUSH2 0x1AA4 JUMPI RETURNDATASIZE PUSH1 0x0 DUP1 RETURNDATACOPY RETURNDATASIZE PUSH1 0x0 REVERT JUMPDEST POP POP POP POP PUSH1 0x40 MLOAD RETURNDATASIZE PUSH1 0x0 DUP3 RETURNDATACOPY PUSH1 0x1F RETURNDATASIZE SWAP1 DUP2 ADD PUSH1 0x1F NOT AND DUP3 ADD PUSH1 0x40 MSTORE PUSH2 0x1ACC SWAP2 SWAP1 DUP2 ADD SWAP1 PUSH2 0x20FB JUMP JUMPDEST SWAP1 POP PUSH1 0x0 JUMPDEST DUP2 MLOAD DUP2 LT ISZERO PUSH2 0x2016 JUMPI PUSH1 0x0 DUP1 PUSH1 0x0 JUMPDEST PUSH1 0x5 DUP2 LT ISZERO PUSH2 0x1ECD JUMPI PUSH1 0x1 SLOAD DUP6 MLOAD PUSH1 0x0 SWAP2 PUSH1 0x1 PUSH1 0x1 PUSH1 0xA0 SHL SUB AND SWAP1 PUSH3 0xFDD58E SWAP1 DUP9 SWAP1 DUP9 SWAP1 DUP2 LT PUSH2 0x1B12 JUMPI PUSH2 0x1B12 PUSH2 0x2C1E JUMP JUMPDEST PUSH1 0x20 MUL PUSH1 0x20 ADD ADD MLOAD DUP5 PUSH1 0x4 PUSH2 0x1B27 SWAP2 SWAP1 PUSH2 0x2B80 JUMP JUMPDEST PUSH1 0x40 MLOAD DUP4 PUSH4 0xFFFFFFFF AND PUSH1 0xE0 SHL DUP2 MSTORE PUSH1 0x4 ADD PUSH2 0x1B44 SWAP3 SWAP2 SWAP1 PUSH2 0x2998 JUMP JUMPDEST PUSH1 0x20 PUSH1 0x40 MLOAD DUP1 DUP4 SUB DUP2 DUP7 DUP1 EXTCODESIZE ISZERO DUP1 ISZERO PUSH2 0x1B5C JUMPI PUSH1 0x0 DUP1 REVERT JUMPDEST POP GAS STATICCALL ISZERO DUP1 ISZERO PUSH2 0x1B70 JUMPI RETURNDATASIZE PUSH1 0x0 DUP1 RETURNDATACOPY RETURNDATASIZE PUSH1 0x0 REVERT JUMPDEST POP POP POP POP PUSH1 0x40 MLOAD RETURNDATASIZE PUSH1 0x1F NOT PUSH1 0x1F DUP3 ADD AND DUP3 ADD DUP1 PUSH1 0x40 MSTORE POP DUP2 ADD SWAP1 PUSH2 0x1B94 SWAP2 SWAP1 PUSH2 0x227C JUMP JUMPDEST PUSH2 0x1B9F SWAP1 PUSH1 0x1 PUSH2 0x2B80 JUMP JUMPDEST PUSH1 0x1 SLOAD DUP8 MLOAD SWAP2 SWAP3 POP PUSH1 0x1 PUSH1 0x1 PUSH1 0xA0 SHL SUB AND SWAP1 PUSH3 0xFDD58E SWAP1 DUP9 SWAP1 DUP9 SWAP1 DUP2 LT PUSH2 0x1BC8 JUMPI PUSH2 0x1BC8 PUSH2 0x2C1E JUMP JUMPDEST PUSH1 0x20 MUL PUSH1 0x20 ADD ADD MLOAD DUP5 PUSH1 0x4 PUSH2 0x1BDD SWAP2 SWAP1 PUSH2 0x2B80 JUMP JUMPDEST PUSH2 0x1BE8 SWAP1 PUSH1 0x1 PUSH2 0x2B54 JUMP JUMPDEST PUSH1 0x40 MLOAD DUP4 PUSH4 0xFFFFFFFF AND PUSH1 0xE0 SHL DUP2 MSTORE PUSH1 0x4 ADD PUSH2 0x1C05 SWAP3 SWAP2 SWAP1 PUSH2 0x2998 JUMP JUMPDEST PUSH1 0x20 PUSH1 0x40 MLOAD DUP1 DUP4 SUB DUP2 DUP7 DUP1 EXTCODESIZE ISZERO DUP1 ISZERO PUSH2 0x1C1D JUMPI PUSH1 0x0 DUP1 REVERT JUMPDEST POP GAS STATICCALL ISZERO DUP1 ISZERO PUSH2 0x1C31 JUMPI RETURNDATASIZE PUSH1 0x0 DUP1 RETURNDATACOPY RETURNDATASIZE PUSH1 0x0 REVERT JUMPDEST POP POP POP POP PUSH1 0x40 MLOAD RETURNDATASIZE PUSH1 0x1F NOT PUSH1 0x1F DUP3 ADD AND DUP3 ADD DUP1 PUSH1 0x40 MSTORE POP DUP2 ADD SWAP1 PUSH2 0x1C55 SWAP2 SWAP1 PUSH2 0x227C JUMP JUMPDEST PUSH2 0x1C60 SWAP1 PUSH1 0x4 PUSH2 0x2B80 JUMP JUMPDEST PUSH2 0x1C6A SWAP1 DUP3 PUSH2 0x2B54 JUMP JUMPDEST PUSH1 0x1 SLOAD DUP8 MLOAD SWAP2 SWAP3 POP PUSH1 0x1 PUSH1 0x1 PUSH1 0xA0 SHL SUB AND SWAP1 PUSH3 0xFDD58E SWAP1 DUP9 SWAP1 DUP9 SWAP1 DUP2 LT PUSH2 0x1C93 JUMPI PUSH2 0x1C93 PUSH2 0x2C1E JUMP JUMPDEST PUSH1 0x20 MUL PUSH1 0x20 ADD ADD MLOAD DUP5 PUSH1 0x4 PUSH2 0x1CA8 SWAP2 SWAP1 PUSH2 0x2B80 JUMP JUMPDEST PUSH2 0x1CB3 SWAP1 PUSH1 0x2 PUSH2 0x2B54 JUMP JUMPDEST PUSH1 0x40 MLOAD DUP4 PUSH4 0xFFFFFFFF AND PUSH1 0xE0 SHL DUP2 MSTORE PUSH1 0x4 ADD PUSH2 0x1CD0 SWAP3 SWAP2 SWAP1 PUSH2 0x2998 JUMP JUMPDEST PUSH1 0x20 PUSH1 0x40 MLOAD DUP1 DUP4 SUB DUP2 DUP7 DUP1 EXTCODESIZE ISZERO DUP1 ISZERO PUSH2 0x1CE8 JUMPI PUSH1 0x0 DUP1 REVERT JUMPDEST POP GAS STATICCALL ISZERO DUP1 ISZERO PUSH2 0x1CFC JUMPI RETURNDATASIZE PUSH1 0x0 DUP1 RETURNDATACOPY RETURNDATASIZE PUSH1 0x0 REVERT JUMPDEST POP POP POP POP PUSH1 0x40 MLOAD RETURNDATASIZE PUSH1 0x1F NOT PUSH1 0x1F DUP3 ADD AND DUP3 ADD DUP1 PUSH1 0x40 MSTORE POP DUP2 ADD SWAP1 PUSH2 0x1D20 SWAP2 SWAP1 PUSH2 0x227C JUMP JUMPDEST PUSH2 0x1D2B SWAP1 PUSH1 0xF PUSH2 0x2B80 JUMP JUMPDEST PUSH2 0x1D35 SWAP1 DUP3 PUSH2 0x2B54 JUMP JUMPDEST PUSH1 0x1 SLOAD DUP8 MLOAD SWAP2 SWAP3 POP PUSH1 0x1 PUSH1 0x1 PUSH1 0xA0 SHL SUB AND SWAP1 PUSH3 0xFDD58E SWAP1 DUP9 SWAP1 DUP9 SWAP1 DUP2 LT PUSH2 0x1D5E JUMPI PUSH2 0x1D5E PUSH2 0x2C1E JUMP JUMPDEST PUSH1 0x20 MUL PUSH1 0x20 ADD ADD MLOAD DUP5 PUSH1 0x4 PUSH2 0x1D73 SWAP2 SWAP1 PUSH2 0x2B80 JUMP JUMPDEST PUSH2 0x1D7E SWAP1 PUSH1 0x3 PUSH2 0x2B54 JUMP JUMPDEST PUSH1 0x40 MLOAD DUP4 PUSH4 0xFFFFFFFF AND PUSH1 0xE0 SHL DUP2 MSTORE PUSH1 0x4 ADD PUSH2 0x1D9B SWAP3 SWAP2 SWAP1 PUSH2 0x2998 JUMP JUMPDEST PUSH1 0x20 PUSH1 0x40 MLOAD DUP1 DUP4 SUB DUP2 DUP7 DUP1 EXTCODESIZE ISZERO DUP1 ISZERO PUSH2 0x1DB3 JUMPI PUSH1 0x0 DUP1 REVERT JUMPDEST POP GAS STATICCALL ISZERO DUP1 ISZERO PUSH2 0x1DC7 JUMPI RETURNDATASIZE PUSH1 0x0 DUP1 RETURNDATACOPY RETURNDATASIZE PUSH1 0x0 REVERT JUMPDEST POP POP POP POP PUSH1 0x40 MLOAD RETURNDATASIZE PUSH1 0x1F NOT PUSH1 0x1F DUP3 ADD AND DUP3 ADD DUP1 PUSH1 0x40 MSTORE POP DUP2 ADD SWAP1 PUSH2 0x1DEB SWAP2 SWAP1 PUSH2 0x227C JUMP JUMPDEST PUSH2 0x1DF6 SWAP1 PUSH1 0x1E PUSH2 0x2B80 JUMP JUMPDEST PUSH2 0x1E00 SWAP1 DUP3 PUSH2 0x2B54 JUMP JUMPDEST PUSH1 0x1 SLOAD SWAP1 SWAP2 POP PUSH1 0x1 PUSH1 0x1 PUSH1 0xA0 SHL SUB AND PUSH4 0x203DA719 PUSH2 0x1E1F DUP5 PUSH1 0x4 PUSH2 0x2B80 JUMP JUMPDEST PUSH1 0x40 MLOAD DUP3 PUSH4 0xFFFFFFFF AND PUSH1 0xE0 SHL DUP2 MSTORE PUSH1 0x4 ADD PUSH2 0x1E3D SWAP2 DUP2 MSTORE PUSH1 0x20 ADD SWAP1 JUMP JUMPDEST PUSH1 0x20 PUSH1 0x40 MLOAD DUP1 DUP4 SUB DUP2 DUP7 DUP1 EXTCODESIZE ISZERO DUP1 ISZERO PUSH2 0x1E55 JUMPI PUSH1 0x0 DUP1 REVERT JUMPDEST POP GAS STATICCALL ISZERO DUP1 ISZERO PUSH2 0x1E69 JUMPI RETURNDATASIZE PUSH1 0x0 DUP1 RETURNDATACOPY RETURNDATASIZE PUSH1 0x0 REVERT JUMPDEST POP POP POP POP PUSH1 0x40 MLOAD RETURNDATASIZE PUSH1 0x1F NOT PUSH1 0x1F DUP3 ADD AND DUP3 ADD DUP1 PUSH1 0x40 MSTORE POP DUP2 ADD SWAP1 PUSH2 0x1E8D SWAP2 SWAP1 PUSH2 0x227C JUMP JUMPDEST PUSH2 0x1E97 SWAP1 DUP3 PUSH2 0x2B80 JUMP JUMPDEST SWAP1 POP DUP1 ISZERO PUSH2 0x1EAD JUMPI PUSH2 0x1EAA PUSH1 0x1 DUP5 PUSH2 0x2B54 JUMP JUMPDEST SWAP3 POP JUMPDEST PUSH2 0x1EB7 DUP2 DUP6 PUSH2 0x2B54 JUMP JUMPDEST SWAP4 POP POP DUP1 DUP1 PUSH2 0x1EC5 SWAP1 PUSH2 0x2BB6 JUMP JUMPDEST SWAP2 POP POP PUSH2 0x1AE0 JUMP JUMPDEST POP DUP2 ISZERO PUSH2 0x2001 JUMPI PUSH1 0x5 DUP1 SLOAD PUSH1 0x1 DUP2 ADD DUP3 SSTORE PUSH1 0x0 SWAP2 SWAP1 SWAP2 MSTORE PUSH32 0x36B6384B5ECA791C62761152D0C79BB0604C104A5FB6F4EB0703F3154BB3DB0 ADD DUP3 SWAP1 SSTORE DUP4 MLOAD PUSH1 0x6 SWAP1 DUP6 SWAP1 DUP6 SWAP1 DUP2 LT PUSH2 0x1F20 JUMPI PUSH2 0x1F20 PUSH2 0x2C1E JUMP JUMPDEST PUSH1 0x20 SWAP1 DUP2 MUL SWAP2 SWAP1 SWAP2 ADD DUP2 ADD MLOAD DUP3 SLOAD PUSH1 0x1 DUP2 ADD DUP5 SSTORE PUSH1 0x0 SWAP4 DUP5 MSTORE SWAP2 SWAP1 SWAP3 KECCAK256 ADD DUP1 SLOAD PUSH1 0x1 PUSH1 0x1 PUSH1 0xA0 SHL SUB NOT AND PUSH1 0x1 PUSH1 0x1 PUSH1 0xA0 SHL SUB SWAP1 SWAP3 AND SWAP2 SWAP1 SWAP2 OR SWAP1 SSTORE PUSH1 0x5 DUP2 EQ ISZERO PUSH2 0x1FB6 JUMPI PUSH1 0x7 DUP1 SLOAD PUSH1 0x1 DUP2 ADD DUP3 SSTORE PUSH1 0x0 SWAP2 SWAP1 SWAP2 MSTORE PUSH1 0x20 DUP2 DIV PUSH32 0xA66CC928B5EDB82AF9BD49922954155AB7B0942694BEA4CE44661D9A8736C688 ADD DUP1 SLOAD PUSH1 0xFF PUSH1 0x1F SWAP1 SWAP4 AND PUSH2 0x100 EXP SWAP3 DUP4 MUL NOT AND SWAP1 SWAP2 OR SWAP1 SSTORE PUSH2 0x2001 JUMP JUMPDEST PUSH1 0x7 DUP1 SLOAD PUSH1 0x1 DUP2 ADD DUP3 SSTORE PUSH1 0x0 SWAP2 SWAP1 SWAP2 MSTORE PUSH32 0xA66CC928B5EDB82AF9BD49922954155AB7B0942694BEA4CE44661D9A8736C688 PUSH1 0x20 DUP3 DIV ADD DUP1 SLOAD PUSH1 0x1F SWAP1 SWAP3 AND PUSH2 0x100 EXP PUSH1 0xFF MUL NOT SWAP1 SWAP2 AND SWAP1 SSTORE JUMPDEST POP POP DUP1 DUP1 PUSH2 0x200E SWAP1 PUSH2 0x2BB6 JUMP JUMPDEST SWAP2 POP POP PUSH2 0x1AD1 JUMP JUMPDEST POP PUSH1 0x0 SLOAD PUSH1 0x40 MLOAD PUSH4 0x1C049515 PUSH1 0xE0 SHL DUP2 MSTORE PUSH1 0x1 PUSH1 0x1 PUSH1 0xA0 SHL SUB PUSH4 0x1000000 DUP4 DIV AND SWAP2 PUSH4 0x1C049515 SWAP2 PUSH2 0x2059 SWAP2 PUSH1 0x5 SWAP2 PUSH1 0x6 SWAP2 PUSH1 0x7 SWAP2 PUSH1 0xFF SWAP1 SWAP2 AND SWAP1 PUSH1 0x4 ADD PUSH2 0x29FE JUMP JUMPDEST PUSH1 0x0 PUSH1 0x40 MLOAD DUP1 DUP4 SUB DUP2 PUSH1 0x0 DUP8 DUP1 EXTCODESIZE ISZERO DUP1 ISZERO PUSH2 0x2073 JUMPI PUSH1 0x0 DUP1 REVERT JUMPDEST POP GAS CALL ISZERO DUP1 ISZERO PUSH2 0x2087 JUMPI RETURNDATASIZE PUSH1 0x0 DUP1 RETURNDATACOPY RETURNDATASIZE PUSH1 0x0 REVERT JUMPDEST POP POP PUSH1 0x40 MLOAD PUSH32 0x19F7095E53231C75FA1BBA7489C37A17BA180EC85470E65946E54837507A3075 SWAP3 POP PUSH1 0x0 SWAP2 POP LOG1 POP JUMP JUMPDEST DUP1 MLOAD PUSH2 0x20C2 DUP2 PUSH2 0x2C4A JUMP JUMPDEST SWAP2 SWAP1 POP JUMP JUMPDEST DUP1 CALLDATALOAD DUP1 ISZERO ISZERO DUP2 EQ PUSH2 0x20C2 JUMPI PUSH1 0x0 DUP1 REVERT JUMPDEST PUSH1 0x0 PUSH1 0x20 DUP3 DUP5 SUB SLT ISZERO PUSH2 0x20E9 JUMPI PUSH1 0x0 DUP1 REVERT JUMPDEST DUP2 CALLDATALOAD PUSH2 0x20F4 DUP2 PUSH2 0x2C4A JUMP JUMPDEST SWAP4 SWAP3 POP POP POP JUMP JUMPDEST PUSH1 0x0 PUSH1 0x20 DUP1 DUP4 DUP6 SUB SLT ISZERO PUSH2 0x210E JUMPI PUSH1 0x0 DUP1 REVERT JUMPDEST DUP3 MLOAD PUSH8 0xFFFFFFFFFFFFFFFF DUP1 DUP3 GT ISZERO PUSH2 0x2126 JUMPI PUSH1 0x0 DUP1 REVERT JUMPDEST DUP2 DUP6 ADD SWAP2 POP DUP6 PUSH1 0x1F DUP4 ADD SLT PUSH2 0x213A JUMPI PUSH1 0x0 DUP1 REVERT JUMPDEST DUP2 MLOAD DUP2 DUP2 GT ISZERO PUSH2 0x214C JUMPI PUSH2 0x214C PUSH2 0x2C34 JUMP JUMPDEST DUP1 PUSH1 0x5 SHL PUSH1 0x40 MLOAD PUSH1 0x1F NOT PUSH1 0x3F DUP4 ADD AND DUP2 ADD DUP2 DUP2 LT DUP6 DUP3 GT OR ISZERO PUSH2 0x2171 JUMPI PUSH2 0x2171 PUSH2 0x2C34 JUMP JUMPDEST PUSH1 0x40 MSTORE DUP3 DUP2 MSTORE DUP6 DUP2 ADD SWAP4 POP DUP5 DUP7 ADD DUP3 DUP7 ADD DUP8 ADD DUP11 LT ISZERO PUSH2 0x2190 JUMPI PUSH1 0x0 DUP1 REVERT JUMPDEST PUSH1 0x0 SWAP6 POP JUMPDEST DUP4 DUP7 LT ISZERO PUSH2 0x21BA JUMPI PUSH2 0x21A6 DUP2 PUSH2 0x20B7 JUMP JUMPDEST DUP6 MSTORE PUSH1 0x1 SWAP6 SWAP1 SWAP6 ADD SWAP5 SWAP4 DUP7 ADD SWAP4 DUP7 ADD PUSH2 0x2195 JUMP JUMPDEST POP SWAP9 SWAP8 POP POP POP POP POP POP POP POP JUMP JUMPDEST PUSH1 0x0 DUP1 PUSH1 0x0 PUSH1 0x60 DUP5 DUP7 SUB SLT ISZERO PUSH2 0x21DC JUMPI PUSH1 0x0 DUP1 REVERT JUMPDEST PUSH2 0x21E5 DUP5 PUSH2 0x20C7 JUMP JUMPDEST SWAP3 POP PUSH2 0x21F3 PUSH1 0x20 DUP6 ADD PUSH2 0x20C7 JUMP JUMPDEST SWAP2 POP PUSH2 0x2201 PUSH1 0x40 DUP6 ADD PUSH2 0x20C7 JUMP JUMPDEST SWAP1 POP SWAP3 POP SWAP3 POP SWAP3 JUMP JUMPDEST PUSH1 0x0 DUP1 PUSH1 0x20 DUP4 DUP6 SUB SLT ISZERO PUSH2 0x221D JUMPI PUSH1 0x0 DUP1 REVERT JUMPDEST DUP3 CALLDATALOAD PUSH8 0xFFFFFFFFFFFFFFFF DUP1 DUP3 GT ISZERO PUSH2 0x2235 JUMPI PUSH1 0x0 DUP1 REVERT JUMPDEST DUP2 DUP6 ADD SWAP2 POP DUP6 PUSH1 0x1F DUP4 ADD SLT PUSH2 0x2249 JUMPI PUSH1 0x0 DUP1 REVERT JUMPDEST DUP2 CALLDATALOAD DUP2 DUP2 GT ISZERO PUSH2 0x2258 JUMPI PUSH1 0x0 DUP1 REVERT JUMPDEST DUP7 PUSH1 0x20 DUP3 DUP6 ADD ADD GT ISZERO PUSH2 0x226A JUMPI PUSH1 0x0 DUP1 REVERT JUMPDEST PUSH1 0x20 SWAP3 SWAP1 SWAP3 ADD SWAP7 SWAP2 SWAP6 POP SWAP1 SWAP4 POP POP POP POP JUMP JUMPDEST PUSH1 0x0 PUSH1 0x20 DUP3 DUP5 SUB SLT ISZERO PUSH2 0x228E JUMPI PUSH1 0x0 DUP1 REVERT JUMPDEST POP MLOAD SWAP2 SWAP1 POP JUMP JUMPDEST DUP1 SLOAD DUP1 DUP4 MSTORE PUSH1 0x0 DUP3 DUP2 MSTORE PUSH1 0x20 DUP1 DUP3 KECCAK256 SWAP5 ADD SWAP4 SWAP1 SWAP2 SWAP1 DUP3 JUMPDEST DUP3 PUSH1 0x1F DUP3 ADD LT ISZERO PUSH2 0x251C JUMPI DUP2 SLOAD PUSH1 0xFF DUP1 DUP3 AND ISZERO ISZERO DUP9 MSTORE PUSH1 0x20 PUSH2 0x22D6 DUP2 DUP11 ADD DUP4 DUP6 PUSH1 0x8 SHR AND ISZERO ISZERO SWAP1 MSTORE JUMP JUMPDEST PUSH1 0x40 PUSH2 0x22EA DUP2 DUP12 ADD DUP5 DUP7 PUSH1 0x10 SHR AND ISZERO ISZERO SWAP1 MSTORE JUMP JUMPDEST PUSH1 0x60 PUSH2 0x22FE DUP2 DUP13 ADD DUP6 DUP8 PUSH1 0x18 SHR AND ISZERO ISZERO SWAP1 MSTORE JUMP JUMPDEST PUSH1 0x80 PUSH2 0x2311 DUP2 DUP14 ADD DUP7 DUP9 DUP8 SHR AND ISZERO ISZERO SWAP1 MSTORE JUMP JUMPDEST PUSH1 0xA0 SWAP4 POP PUSH2 0x2327 DUP5 DUP14 ADD DUP7 DUP9 PUSH1 0x28 SHR AND ISZERO ISZERO SWAP1 MSTORE JUMP JUMPDEST PUSH1 0xC0 PUSH2 0x233B DUP2 DUP15 ADD DUP8 DUP10 PUSH1 0x30 SHR AND ISZERO ISZERO SWAP1 MSTORE JUMP JUMPDEST PUSH1 0xE0 PUSH2 0x234F DUP2 DUP16 ADD DUP9 DUP11 PUSH1 0x38 SHR AND ISZERO ISZERO SWAP1 MSTORE JUMP JUMPDEST DUP8 DUP6 SHR DUP8 AND ISZERO ISZERO PUSH2 0x100 DUP16 ADD MSTORE PUSH2 0x2370 PUSH2 0x120 DUP16 ADD DUP9 DUP11 PUSH1 0x48 SHR AND ISZERO ISZERO SWAP1 MSTORE JUMP JUMPDEST PUSH2 0x2384 PUSH2 0x140 DUP16 ADD DUP9 DUP11 PUSH1 0x50 SHR AND ISZERO ISZERO SWAP1 MSTORE JUMP JUMPDEST PUSH2 0x2398 PUSH2 0x160 DUP16 ADD DUP9 DUP11 PUSH1 0x58 SHR AND ISZERO ISZERO SWAP1 MSTORE JUMP JUMPDEST DUP8 DUP5 SHR DUP8 AND ISZERO ISZERO PUSH2 0x180 DUP16 ADD MSTORE PUSH2 0x23B9 PUSH2 0x1A0 DUP16 ADD DUP9 DUP11 PUSH1 0x68 SHR AND ISZERO ISZERO SWAP1 MSTORE JUMP JUMPDEST PUSH2 0x23CD PUSH2 0x1C0 DUP16 ADD DUP9 DUP11 PUSH1 0x70 SHR AND ISZERO ISZERO SWAP1 MSTORE JUMP JUMPDEST PUSH2 0x23E1 PUSH2 0x1E0 DUP16 ADD DUP9 DUP11 PUSH1 0x78 SHR AND ISZERO ISZERO SWAP1 MSTORE JUMP JUMPDEST DUP8 DUP4 SHR DUP8 AND ISZERO ISZERO PUSH2 0x200 DUP16 ADD MSTORE PUSH2 0x2402 PUSH2 0x220 DUP16 ADD DUP9 DUP11 PUSH1 0x88 SHR AND ISZERO ISZERO SWAP1 MSTORE JUMP JUMPDEST PUSH2 0x2416 PUSH2 0x240 DUP16 ADD DUP9 DUP11 PUSH1 0x90 SHR AND ISZERO ISZERO SWAP1 MSTORE JUMP JUMPDEST PUSH2 0x242A PUSH2 0x260 DUP16 ADD DUP9 DUP11 PUSH1 0x98 SHR AND ISZERO ISZERO SWAP1 MSTORE JUMP JUMPDEST DUP8 DUP7 SHR DUP8 AND ISZERO ISZERO PUSH2 0x280 DUP16 ADD MSTORE PUSH2 0x244B PUSH2 0x2A0 DUP16 ADD DUP9 DUP11 PUSH1 0xA8 SHR AND ISZERO ISZERO SWAP1 MSTORE JUMP JUMPDEST PUSH2 0x245F PUSH2 0x2C0 DUP16 ADD DUP9 DUP11 PUSH1 0xB0 SHR AND ISZERO ISZERO SWAP1 MSTORE JUMP JUMPDEST PUSH2 0x2473 PUSH2 0x2E0 DUP16 ADD DUP9 DUP11 PUSH1 0xB8 SHR AND ISZERO ISZERO SWAP1 MSTORE JUMP JUMPDEST DUP8 DUP3 SHR DUP8 AND ISZERO ISZERO PUSH2 0x300 DUP16 ADD MSTORE PUSH2 0x2494 PUSH2 0x320 DUP16 ADD DUP9 DUP11 PUSH1 0xC8 SHR AND ISZERO ISZERO SWAP1 MSTORE JUMP JUMPDEST PUSH2 0x24A8 PUSH2 0x340 DUP16 ADD DUP9 DUP11 PUSH1 0xD0 SHR AND ISZERO ISZERO SWAP1 MSTORE JUMP JUMPDEST PUSH2 0x24BC PUSH2 0x360 DUP16 ADD DUP9 DUP11 PUSH1 0xD8 SHR AND ISZERO ISZERO SWAP1 MSTORE JUMP JUMPDEST DUP8 SWAP1 SHR DUP7 AND ISZERO ISZERO PUSH2 0x380 DUP15 ADD MSTORE POP POP POP POP POP PUSH1 0xE8 DUP3 SWAP1 SHR DUP2 AND ISZERO ISZERO PUSH2 0x3A0 DUP10 ADD MSTORE PUSH2 0x24F1 PUSH2 0x3C0 DUP10 ADD DUP3 DUP5 PUSH1 0xF0 SHR AND ISZERO ISZERO SWAP1 MSTORE JUMP JUMPDEST POP PUSH2 0x2504 PUSH2 0x3E0 DUP9 ADD DUP3 PUSH1 0xF8 SHR ISZERO ISZERO SWAP1 MSTORE JUMP JUMPDEST POP PUSH2 0x400 SWAP6 SWAP1 SWAP6 ADD SWAP5 PUSH1 0x1 SWAP2 SWAP1 SWAP2 ADD SWAP1 PUSH1 0x20 ADD PUSH2 0x22AC JUMP JUMPDEST SWAP1 SLOAD SWAP1 DUP3 DUP2 LT ISZERO PUSH2 0x2539 JUMPI PUSH1 0xFF DUP3 AND ISZERO ISZERO DUP7 MSTORE PUSH1 0x20 SWAP1 SWAP6 ADD SWAP5 PUSH1 0x1 ADD JUMPDEST DUP3 DUP2 LT ISZERO PUSH2 0x255D JUMPI PUSH2 0x2552 DUP7 PUSH1 0xFF DUP5 PUSH1 0x8 SHR AND ISZERO ISZERO SWAP1 MSTORE JUMP JUMPDEST PUSH1 0x20 SWAP6 SWAP1 SWAP6 ADD SWAP5 PUSH1 0x1 ADD JUMPDEST DUP3 DUP2 LT ISZERO PUSH2 0x2581 JUMPI PUSH2 0x2576 DUP7 PUSH1 0xFF DUP5 PUSH1 0x10 SHR AND ISZERO ISZERO SWAP1 MSTORE JUMP JUMPDEST PUSH1 0x20 SWAP6 SWAP1 SWAP6 ADD SWAP5 PUSH1 0x1 ADD JUMPDEST DUP3 DUP2 LT ISZERO PUSH2 0x25A5 JUMPI PUSH2 0x259A DUP7 PUSH1 0xFF DUP5 PUSH1 0x18 SHR AND ISZERO ISZERO SWAP1 MSTORE JUMP JUMPDEST PUSH1 0x20 SWAP6 SWAP1 SWAP6 ADD SWAP5 PUSH1 0x1 ADD JUMPDEST DUP3 DUP2 LT ISZERO PUSH2 0x25C9 JUMPI PUSH2 0x25BE DUP7 PUSH1 0xFF DUP5 PUSH1 0x20 SHR AND ISZERO ISZERO SWAP1 MSTORE JUMP JUMPDEST PUSH1 0x20 SWAP6 SWAP1 SWAP6 ADD SWAP5 PUSH1 0x1 ADD JUMPDEST DUP3 DUP2 LT ISZERO PUSH2 0x25ED JUMPI PUSH2 0x25E2 DUP7 PUSH1 0xFF DUP5 PUSH1 0x28 SHR AND ISZERO ISZERO SWAP1 MSTORE JUMP JUMPDEST PUSH1 0x20 SWAP6 SWAP1 SWAP6 ADD SWAP5 PUSH1 0x1 ADD JUMPDEST DUP3 DUP2 LT ISZERO PUSH2 0x2611 JUMPI PUSH2 0x2606 DUP7 PUSH1 0xFF DUP5 PUSH1 0x30 SHR AND ISZERO ISZERO SWAP1 MSTORE JUMP JUMPDEST PUSH1 0x20 SWAP6 SWAP1 SWAP6 ADD SWAP5 PUSH1 0x1 ADD JUMPDEST DUP3 DUP2 LT ISZERO PUSH2 0x2635 JUMPI PUSH2 0x262A DUP7 PUSH1 0xFF DUP5 PUSH1 0x38 SHR AND ISZERO ISZERO SWAP1 MSTORE JUMP JUMPDEST PUSH1 0x20 SWAP6 SWAP1 SWAP6 ADD SWAP5 PUSH1 0x1 ADD JUMPDEST DUP3 DUP2 LT ISZERO PUSH2 0x2659 JUMPI PUSH2 0x264E DUP7 PUSH1 0xFF DUP5 PUSH1 0x40 SHR AND ISZERO ISZERO SWAP1 MSTORE JUMP JUMPDEST PUSH1 0x20 SWAP6 SWAP1 SWAP6 ADD SWAP5 PUSH1 0x1 ADD JUMPDEST DUP3 DUP2 LT ISZERO PUSH2 0x267D JUMPI PUSH2 0x2672 DUP7 PUSH1 0xFF DUP5 PUSH1 0x48 SHR AND ISZERO ISZERO SWAP1 MSTORE JUMP JUMPDEST PUSH1 0x20 SWAP6 SWAP1 SWAP6 ADD SWAP5 PUSH1 0x1 ADD JUMPDEST DUP3 DUP2 LT ISZERO PUSH2 0x26A1 JUMPI PUSH2 0x2696 DUP7 PUSH1 0xFF DUP5 PUSH1 0x50 SHR AND ISZERO ISZERO SWAP1 MSTORE JUMP JUMPDEST PUSH1 0x20 SWAP6 SWAP1 SWAP6 ADD SWAP5 PUSH1 0x1 ADD JUMPDEST DUP3 DUP2 LT ISZERO PUSH2 0x26C5 JUMPI PUSH2 0x26BA DUP7 PUSH1 0xFF DUP5 PUSH1 0x58 SHR AND ISZERO ISZERO SWAP1 MSTORE JUMP JUMPDEST PUSH1 0x20 SWAP6 SWAP1 SWAP6 ADD SWAP5 PUSH1 0x1 ADD JUMPDEST DUP3 DUP2 LT ISZERO PUSH2 0x26E9 JUMPI PUSH2 0x26DE DUP7 PUSH1 0xFF DUP5 PUSH1 0x60 SHR AND ISZERO ISZERO SWAP1 MSTORE JUMP JUMPDEST PUSH1 0x20 SWAP6 SWAP1 SWAP6 ADD SWAP5 PUSH1 0x1 ADD JUMPDEST DUP3 DUP2 LT ISZERO PUSH2 0x270D JUMPI PUSH2 0x2702 DUP7 PUSH1 0xFF DUP5 PUSH1 0x68 SHR AND ISZERO ISZERO SWAP1 MSTORE JUMP JUMPDEST PUSH1 0x20 SWAP6 SWAP1 SWAP6 ADD SWAP5 PUSH1 0x1 ADD JUMPDEST DUP3 DUP2 LT ISZERO PUSH2 0x2731 JUMPI PUSH2 0x2726 DUP7 PUSH1 0xFF DUP5 PUSH1 0x70 SHR AND ISZERO ISZERO SWAP1 MSTORE JUMP JUMPDEST PUSH1 0x20 SWAP6 SWAP1 SWAP6 ADD SWAP5 PUSH1 0x1 ADD JUMPDEST DUP3 DUP2 LT ISZERO PUSH2 0x2755 JUMPI PUSH2 0x274A DUP7 PUSH1 0xFF DUP5 PUSH1 0x78 SHR AND ISZERO ISZERO SWAP1 MSTORE JUMP JUMPDEST PUSH1 0x20 SWAP6 SWAP1 SWAP6 ADD SWAP5 PUSH1 0x1 ADD JUMPDEST DUP3 DUP2 LT ISZERO PUSH2 0x2779 JUMPI PUSH2 0x276E DUP7 PUSH1 0xFF DUP5 PUSH1 0x80 SHR AND ISZERO ISZERO SWAP1 MSTORE JUMP JUMPDEST PUSH1 0x20 SWAP6 SWAP1 SWAP6 ADD SWAP5 PUSH1 0x1 ADD JUMPDEST DUP3 DUP2 LT ISZERO PUSH2 0x279D JUMPI PUSH2 0x2792 DUP7 PUSH1 0xFF DUP5 PUSH1 0x88 SHR AND ISZERO ISZERO SWAP1 MSTORE JUMP JUMPDEST PUSH1 0x20 SWAP6 SWAP1 SWAP6 ADD SWAP5 PUSH1 0x1 ADD JUMPDEST DUP3 DUP2 LT ISZERO PUSH2 0x27C1 JUMPI PUSH2 0x27B6 DUP7 PUSH1 0xFF DUP5 PUSH1 0x90 SHR AND ISZERO ISZERO SWAP1 MSTORE JUMP JUMPDEST PUSH1 0x20 SWAP6 SWAP1 SWAP6 ADD SWAP5 PUSH1 0x1 ADD JUMPDEST DUP3 DUP2 LT ISZERO PUSH2 0x27E5 JUMPI PUSH2 0x27DA DUP7 PUSH1 0xFF DUP5 PUSH1 0x98 SHR AND ISZERO ISZERO SWAP1 MSTORE JUMP JUMPDEST PUSH1 0x20 SWAP6 SWAP1 SWAP6 ADD SWAP5 PUSH1 0x1 ADD JUMPDEST DUP3 DUP2 LT ISZERO PUSH2 0x2809 JUMPI PUSH2 0x27FE DUP7 PUSH1 0xFF DUP5 PUSH1 0xA0 SHR AND ISZERO ISZERO SWAP1 MSTORE JUMP JUMPDEST PUSH1 0x20 SWAP6 SWAP1 SWAP6 ADD SWAP5 PUSH1 0x1 ADD JUMPDEST DUP3 DUP2 LT ISZERO PUSH2 0x282D JUMPI PUSH2 0x2822 DUP7 PUSH1 0xFF DUP5 PUSH1 0xA8 SHR AND ISZERO ISZERO SWAP1 MSTORE JUMP JUMPDEST PUSH1 0x20 SWAP6 SWAP1 SWAP6 ADD SWAP5 PUSH1 0x1 ADD JUMPDEST DUP3 DUP2 LT ISZERO PUSH2 0x2851 JUMPI PUSH2 0x2846 DUP7 PUSH1 0xFF DUP5 PUSH1 0xB0 SHR AND ISZERO ISZERO SWAP1 MSTORE JUMP JUMPDEST PUSH1 0x20 SWAP6 SWAP1 SWAP6 ADD SWAP5 PUSH1 0x1 ADD JUMPDEST DUP3 DUP2 LT ISZERO PUSH2 0x2875 JUMPI PUSH2 0x286A DUP7 PUSH1 0xFF DUP5 PUSH1 0xB8 SHR AND ISZERO ISZERO SWAP1 MSTORE JUMP JUMPDEST PUSH1 0x20 SWAP6 SWAP1 SWAP6 ADD SWAP5 PUSH1 0x1 ADD JUMPDEST DUP3 DUP2 LT ISZERO PUSH2 0x2899 JUMPI PUSH2 0x288E DUP7 PUSH1 0xFF DUP5 PUSH1 0xC0 SHR AND ISZERO ISZERO SWAP1 MSTORE JUMP JUMPDEST PUSH1 0x20 SWAP6 SWAP1 SWAP6 ADD SWAP5 PUSH1 0x1 ADD JUMPDEST DUP3 DUP2 LT ISZERO PUSH2 0x28BD JUMPI PUSH2 0x28B2 DUP7 PUSH1 0xFF DUP5 PUSH1 0xC8 SHR AND ISZERO ISZERO SWAP1 MSTORE JUMP JUMPDEST PUSH1 0x20 SWAP6 SWAP1 SWAP6 ADD SWAP5 PUSH1 0x1 ADD JUMPDEST DUP3 DUP2 LT ISZERO PUSH2 0x28E1 JUMPI PUSH2 0x28D6 DUP7 PUSH1 0xFF DUP5 PUSH1 0xD0 SHR AND ISZERO ISZERO SWAP1 MSTORE JUMP JUMPDEST PUSH1 0x20 SWAP6 SWAP1 SWAP6 ADD SWAP5 PUSH1 0x1 ADD JUMPDEST DUP3 DUP2 LT ISZERO PUSH2 0x2905 JUMPI PUSH2 0x28FA DUP7 PUSH1 0xFF DUP5 PUSH1 0xD8 SHR AND ISZERO ISZERO SWAP1 MSTORE JUMP JUMPDEST PUSH1 0x20 SWAP6 SWAP1 SWAP6 ADD SWAP5 PUSH1 0x1 ADD JUMPDEST DUP3 DUP2 LT ISZERO PUSH2 0x2929 JUMPI PUSH2 0x291E DUP7 PUSH1 0xFF DUP5 PUSH1 0xE0 SHR AND ISZERO ISZERO SWAP1 MSTORE JUMP JUMPDEST PUSH1 0x20 SWAP6 SWAP1 SWAP6 ADD SWAP5 PUSH1 0x1 ADD JUMPDEST DUP3 DUP2 LT ISZERO PUSH2 0x294D JUMPI PUSH2 0x2942 DUP7 PUSH1 0xFF DUP5 PUSH1 0xE8 SHR AND ISZERO ISZERO SWAP1 MSTORE JUMP JUMPDEST PUSH1 0x20 SWAP6 SWAP1 SWAP6 ADD SWAP5 PUSH1 0x1 ADD JUMPDEST DUP3 DUP2 LT ISZERO PUSH2 0x2971 JUMPI PUSH2 0x2966 DUP7 PUSH1 0xFF DUP5 PUSH1 0xF0 SHR AND ISZERO ISZERO SWAP1 MSTORE JUMP JUMPDEST PUSH1 0x20 SWAP6 SWAP1 SWAP6 ADD SWAP5 PUSH1 0x1 ADD JUMPDEST DUP3 DUP2 LT ISZERO PUSH2 0x298E JUMPI PUSH2 0x2987 DUP7 DUP4 PUSH1 0xF8 SHR ISZERO ISZERO SWAP1 MSTORE JUMP JUMPDEST PUSH1 0x20 DUP7 ADD SWAP6 POP JUMPDEST POP SWAP4 SWAP5 SWAP4 POP POP POP POP JUMP JUMPDEST PUSH1 0x1 PUSH1 0x1 PUSH1 0xA0 SHL SUB SWAP3 SWAP1 SWAP3 AND DUP3 MSTORE PUSH1 0x20 DUP3 ADD MSTORE PUSH1 0x40 ADD SWAP1 JUMP JUMPDEST PUSH1 0x20 DUP1 DUP3 MSTORE DUP3 MLOAD DUP3 DUP3 ADD DUP2 SWAP1 MSTORE PUSH1 0x0 SWAP2 SWAP1 DUP5 DUP3 ADD SWAP1 PUSH1 0x40 DUP6 ADD SWAP1 DUP5 JUMPDEST DUP2 DUP2 LT ISZERO PUSH2 0x29F2 JUMPI DUP4 MLOAD PUSH1 0x1 PUSH1 0x1 PUSH1 0xA0 SHL SUB AND DUP4 MSTORE SWAP3 DUP5 ADD SWAP3 SWAP2 DUP5 ADD SWAP2 PUSH1 0x1 ADD PUSH2 0x29CD JUMP JUMPDEST POP SWAP1 SWAP7 SWAP6 POP POP POP POP POP POP JUMP JUMPDEST PUSH1 0x0 PUSH1 0x80 DUP3 ADD PUSH1 0x80 DUP4 MSTORE DUP1 DUP8 SLOAD DUP1 DUP4 MSTORE PUSH1 0xA0 DUP6 ADD SWAP2 POP PUSH1 0x0 SWAP3 POP DUP9 DUP4 MSTORE PUSH1 0x20 DUP1 DUP5 KECCAK256 DUP5 JUMPDEST DUP4 DUP2 LT ISZERO PUSH2 0x2A3E JUMPI DUP2 SLOAD DUP6 MSTORE SWAP4 DUP3 ADD SWAP4 PUSH1 0x1 SWAP2 DUP3 ADD SWAP2 ADD PUSH2 0x2A22 JUMP JUMPDEST POP POP DUP6 DUP4 SUB DUP2 DUP8 ADD MSTORE DUP9 SLOAD DUP1 DUP5 MSTORE DUP10 DUP6 MSTORE DUP2 DUP6 KECCAK256 SWAP4 DUP3 ADD SWAP3 POP JUMPDEST DUP1 DUP6 LT ISZERO PUSH2 0x2A80 JUMPI DUP4 SLOAD PUSH1 0x1 PUSH1 0x1 PUSH1 0xA0 SHL SUB AND DUP4 MSTORE PUSH1 0x1 SWAP5 DUP6 ADD SWAP5 SWAP1 SWAP4 ADD SWAP3 SWAP2 DUP2 ADD SWAP2 PUSH2 0x2A58 JUMP JUMPDEST POP POP DUP5 DUP2 SUB PUSH1 0x40 DUP7 ADD MSTORE PUSH2 0x2A94 DUP2 DUP9 PUSH2 0x2295 JUMP JUMPDEST SWAP4 POP POP POP POP PUSH2 0x2AA7 PUSH1 0x60 DUP4 ADD DUP5 ISZERO ISZERO SWAP1 MSTORE JUMP JUMPDEST SWAP6 SWAP5 POP POP POP POP POP JUMP JUMPDEST DUP3 ISZERO ISZERO DUP2 MSTORE PUSH1 0x0 PUSH1 0x20 PUSH1 0x40 DUP2 DUP5 ADD MSTORE DUP4 MLOAD DUP1 PUSH1 0x40 DUP6 ADD MSTORE PUSH1 0x0 JUMPDEST DUP2 DUP2 LT ISZERO PUSH2 0x2AE6 JUMPI DUP6 DUP2 ADD DUP4 ADD MLOAD DUP6 DUP3 ADD PUSH1 0x60 ADD MSTORE DUP3 ADD PUSH2 0x2ACA JUMP JUMPDEST DUP2 DUP2 GT ISZERO PUSH2 0x2AF8 JUMPI PUSH1 0x0 PUSH1 0x60 DUP4 DUP8 ADD ADD MSTORE JUMPDEST POP PUSH1 0x1F ADD PUSH1 0x1F NOT AND SWAP3 SWAP1 SWAP3 ADD PUSH1 0x60 ADD SWAP5 SWAP4 POP POP POP POP JUMP JUMPDEST SWAP3 DUP4 MSTORE PUSH1 0x1 PUSH1 0x1 PUSH1 0xA0 SHL SUB SWAP2 SWAP1 SWAP2 AND PUSH1 0x20 DUP4 ADD MSTORE PUSH1 0x40 DUP3 ADD MSTORE PUSH1 0x60 ADD SWAP1 JUMP JUMPDEST PUSH1 0x0 PUSH2 0xFFFF DUP1 DUP4 AND DUP2 DUP6 AND DUP1 DUP4 SUB DUP3 GT ISZERO PUSH2 0x2B4B JUMPI PUSH2 0x2B4B PUSH2 0x2BF2 JUMP JUMPDEST ADD SWAP5 SWAP4 POP POP POP POP JUMP JUMPDEST PUSH1 0x0 DUP3 NOT DUP3 GT ISZERO PUSH2 0x2B67 JUMPI PUSH2 0x2B67 PUSH2 0x2BF2 JUMP JUMPDEST POP ADD SWAP1 JUMP JUMPDEST PUSH1 0x0 DUP3 PUSH2 0x2B7B JUMPI PUSH2 0x2B7B PUSH2 0x2C08 JUMP JUMPDEST POP DIV SWAP1 JUMP JUMPDEST PUSH1 0x0 DUP2 PUSH1 0x0 NOT DIV DUP4 GT DUP3 ISZERO ISZERO AND ISZERO PUSH2 0x2B9A JUMPI PUSH2 0x2B9A PUSH2 0x2BF2 JUMP JUMPDEST POP MUL SWAP1 JUMP JUMPDEST PUSH1 0x0 DUP3 DUP3 LT ISZERO PUSH2 0x2BB1 JUMPI PUSH2 0x2BB1 PUSH2 0x2BF2 JUMP JUMPDEST POP SUB SWAP1 JUMP JUMPDEST PUSH1 0x0 PUSH1 0x0 NOT DUP3 EQ ISZERO PUSH2 0x2BCA JUMPI PUSH2 0x2BCA PUSH2 0x2BF2 JUMP JUMPDEST POP PUSH1 0x1 ADD SWAP1 JUMP JUMPDEST PUSH1 0x0 PUSH2 0xFFFF DUP1 DUP5 AND DUP1 PUSH2 0x2BE6 JUMPI PUSH2 0x2BE6 PUSH2 0x2C08 JUMP JUMPDEST SWAP3 AND SWAP2 SWAP1 SWAP2 MOD SWAP3 SWAP2 POP POP JUMP JUMPDEST PUSH4 0x4E487B71 PUSH1 0xE0 SHL PUSH1 0x0 MSTORE PUSH1 0x11 PUSH1 0x4 MSTORE PUSH1 0x24 PUSH1 0x0 REVERT JUMPDEST PUSH4 0x4E487B71 PUSH1 0xE0 SHL PUSH1 0x0 MSTORE PUSH1 0x12 PUSH1 0x4 MSTORE PUSH1 0x24 PUSH1 0x0 REVERT JUMPDEST PUSH4 0x4E487B71 PUSH1 0xE0 SHL PUSH1 0x0 MSTORE PUSH1 0x32 PUSH1 0x4 MSTORE PUSH1 0x24 PUSH1 0x0 REVERT JUMPDEST PUSH4 0x4E487B71 PUSH1 0xE0 SHL PUSH1 0x0 MSTORE PUSH1 0x41 PUSH1 0x4 MSTORE PUSH1 0x24 PUSH1 0x0 REVERT JUMPDEST PUSH1 0x1 PUSH1 0x1 PUSH1 0xA0 SHL SUB DUP2 AND DUP2 EQ PUSH2 0x144E JUMPI PUSH1 0x0 DUP1 REVERT INVALID LOG2 PUSH5 0x6970667358 0x22 SLT KECCAK256 DUP11 RETURNDATACOPY CALLDATASIZE 0xCD 0xCB 0xD3 ADDRESS 0xE3 0xD1 0xFC PUSH3 0xA85D2A MUL MSIZE SWAP10 PUSH20 0xF88C0A5FC62D55383A48D9980764736F6C6343 STOP ADDMOD SMOD STOP CALLER "
		},
		"gasEstimates": {
			"creation": {
				"codeDepositCost": "2282600",
				"executionCost": "infinite",
				"totalCost": "infinite"
			},
			"external": {
				"buyPlayer()": "infinite",
				"changeOwner(address)": "26771",
				"changeSimulation(bool,bool,bool)": "infinite",
				"checkUpkeep(bytes)": "infinite",
				"getAddresses()": "infinite",
				"performUpkeep(bytes)": "infinite",
				"simulateKeeper()": "infinite",
				"upgradeAllToMax()": "infinite",
				"withDraw(address)": "infinite"
			},
			"internal": {
				"_buyPlayer(uint256,address)": "infinite",
				"_checkUpkeep()": "infinite",
				"_createDistributionForRaffel()": "infinite",
				"_performUpkeep()": "infinite",
				"_updatePlayer()": "infinite",
				"_upgradeAllToMax()": "infinite"
			}
		},
		"methodIdentifiers": {
			"buyPlayer()": "49f22cd8",
			"changeOwner(address)": "a6f9dae1",
			"changeSimulation(bool,bool,bool)": "8e3f94ad",
			"checkUpkeep(bytes)": "6e04ff0d",
			"getAddresses()": "a39fac12",
			"performUpkeep(bytes)": "4585e33b",
			"simulateKeeper()": "a7cf018a",
			"upgradeAllToMax()": "593292b6",
			"withDraw(address)": "0a67d2c7"
		}
	},
	"abi": [
		{
			"inputs": [
				{
					"internalType": "address",
					"name": "mintingProcess_address",
					"type": "address"
				},
				{
					"internalType": "address",
					"name": "createNFT_address",
					"type": "address"
				},
				{
					"internalType": "bool",
					"name": "_vrf",
					"type": "bool"
				},
				{
					"internalType": "bool",
					"name": "_keeper",
					"type": "bool"
				},
				{
					"internalType": "bool",
					"name": "_oracle",
					"type": "bool"
				},
				{
					"internalType": "uint256",
					"name": "_startRaffel",
					"type": "uint256"
				},
				{
					"internalType": "uint256",
					"name": "_checkOracle",
					"type": "uint256"
				}
			],
			"stateMutability": "nonpayable",
			"type": "constructor"
		},
		{
			"anonymous": false,
			"inputs": [
				{
					"indexed": false,
					"internalType": "uint256",
					"name": "price",
					"type": "uint256"
				},
				{
					"indexed": false,
					"internalType": "uint256",
					"name": "numberOfNewPlayers",
					"type": "uint256"
				},
				{
					"indexed": true,
					"internalType": "address",
					"name": "owner",
					"type": "address"
				}
			],
			"name": "BuyPlayers",
			"type": "event"
		},
		{
			"anonymous": false,
			"inputs": [],
			"name": "DrawWinnerOfRaffel",
			"type": "event"
		},
		{
			"anonymous": false,
			"inputs": [
				{
					"indexed": false,
					"internalType": "uint256",
					"name": "tokenId",
					"type": "uint256"
				},
				{
					"indexed": true,
					"internalType": "address",
					"name": "owner",
					"type": "address"
				}
			],
			"name": "TeanNFT",
			"type": "event"
		},
		{
			"anonymous": false,
			"inputs": [
				{
					"indexed": false,
					"internalType": "uint256",
					"name": "tokenId",
					"type": "uint256"
				},
				{
					"indexed": true,
					"internalType": "address",
					"name": "owner",
					"type": "address"
				}
			],
			"name": "UniqueNFT",
			"type": "event"
		},
		{
			"anonymous": false,
			"inputs": [],
			"name": "UpdatePlayer",
			"type": "event"
		},
		{
			"anonymous": false,
			"inputs": [
				{
					"indexed": true,
					"internalType": "address",
					"name": "owner",
					"type": "address"
				}
			],
			"name": "UpgradeAllTokens",
			"type": "event"
		},
		{
			"inputs": [],
			"name": "buyPlayer",
			"outputs": [],
			"stateMutability": "payable",
			"type": "function"
		},
		{
			"inputs": [
				{
					"internalType": "address",
					"name": "_newOwner",
					"type": "address"
				}
			],
			"name": "changeOwner",
			"outputs": [],
			"stateMutability": "nonpayable",
			"type": "function"
		},
		{
			"inputs": [
				{
					"internalType": "bool",
					"name": "_vrf",
					"type": "bool"
				},
				{
					"internalType": "bool",
					"name": "_keeper",
					"type": "bool"
				},
				{
					"internalType": "bool",
					"name": "_oracle",
					"type": "bool"
				}
			],
			"name": "changeSimulation",
			"outputs": [],
			"stateMutability": "nonpayable",
			"type": "function"
		},
		{
			"inputs": [
				{
					"internalType": "bytes",
					"name": "",
					"type": "bytes"
				}
			],
			"name": "checkUpkeep",
			"outputs": [
				{
					"internalType": "bool",
					"name": "upkeepNeeded",
					"type": "bool"
				},
				{
					"internalType": "bytes",
					"name": "performData",
					"type": "bytes"
				}
			],
			"stateMutability": "view",
			"type": "function"
		},
		{
			"inputs": [],
			"name": "getAddresses",
			"outputs": [
				{
					"internalType": "address[]",
					"name": "_nft_addresses",
					"type": "address[]"
				}
			],
			"stateMutability": "view",
			"type": "function"
		},
		{
			"inputs": [
				{
					"internalType": "bytes",
					"name": "performData",
					"type": "bytes"
				}
			],
			"name": "performUpkeep",
			"outputs": [],
			"stateMutability": "nonpayable",
			"type": "function"
		},
		{
			"inputs": [],
			"name": "simulateKeeper",
			"outputs": [],
			"stateMutability": "nonpayable",
			"type": "function"
		},
		{
			"inputs": [],
			"name": "upgradeAllToMax",
			"outputs": [],
			"stateMutability": "nonpayable",
			"type": "function"
		},
		{
			"inputs": [
				{
					"internalType": "address",
					"name": "_payout",
					"type": "address"
				}
			],
			"name": "withDraw",
			"outputs": [],
			"stateMutability": "nonpayable",
			"type": "function"
		},
		{
			"stateMutability": "payable",
			"type": "receive"
		}
	]
}