{
	"data": {
		"bytecode": {
			"linkReferences": {},
			"object": "608060405234801561001057600080fd5b50611dbc806100206000396000f3fe608060405234801561001057600080fd5b506004361061002b5760003560e01c8063be985ac914610030575b600080fd5b61004361003e3660046100fd565b610059565b60405161005091906110be565b60405180910390f35b606060405180610ca00160405280610c658152602001611122610c659139905081156100f857806040516020016100909190610b87565b604051602081830303815290604052905060018211156100f857806040516020016100bb919061064f565b604051602081830303815290604052905060028211156100f857806040516020016100e69190610116565b60405160208183030381529060405290505b919050565b60006020828403121561010f57600080fd5b5035919050565b600082516101288184602087016110f1565b7f3c70617468207374796c653d2266696c6c3a23666665343439222020643d226d9201918252507f202d332e32303136393439652d362c31313539206320322e313334343633336560208201527f2d362c3020312e30363732333136652d362c3020302c30207a204d20302e313260408201527f36383036382c3238392e37352063202d302e30383435333738372c3537392e3560608201527f202d302e30343232363839332c3238392e373520302c30207a206d203230372e60808201527f313930353933322c342e35323131312033342e383137342c2d32352e3334383560a08201527f392033342e3432392c32352e303337353420632031382e3933362c31332e373760c08201527f3036352033342e393933312c32352e31353035382033352e363832362c32352e60e08201527f323838373420302e363839352c302e313338313620312e313330372c2d302e346101008201527f3935353420302e393830362c2d312e3430383231202d302e313530322c2d302e6101208201527f3931323638202d362e313130312c2d31392e3537343234202d31332e323434326101408201527f2c2d34312e3437303133202d31302e313837382c2d33312e3236383136202d316101608201527f322e373034312c2d34302e3035313237202d31312e3732372c2d34302e3933316101808201527f373520302e363834332c2d302e36313635372031372e31343938332c2d31312e6101a08201527f37393238382033352e373030392c2d32362e3032393837204c203335382e34316101c08201527f33342c3138342e35203331342e303731312c313834203236392e373238372c316101e08201527f38332e35203235362e343837382c3134322e37303637352063202d342e3732366102008201527f30332c2d31332e3439303036202d31302e31373033352c2d32392e33313435346102208201527f202d31342e34333234362c2d34322e3332353634202d302e3236352c302e32366102408201527f343938202d362e39303230342c31392e3431353635202d31342e30393235342c6102608201527f34312e3631393137202d372e313930352c32322e3230333532202d31332e33306102808201527f30332c34302e3733363731202d31332e353737322c34312e31383438382043206102a08201527f3231342e313038362c3138332e3633333332203139342e333333352c313834206102c08201527f3137302e3434312c3138342063202d32332e38393235372c30202d34332e34326102e08201527f3838382c302e33333735202d34332e34313430352c302e373520302e303134386103008201527f2c302e343132352031352e37363438332c31322e313530322033352e303030306103208201527f352c32362e30383337392031392e323335312c31332e39333335392033342e396103408201527f3732352c32352e36333335392033342e3937322c3236202d36652d342c302e336103608201527f36363432202d362e303735322c31392e3334313231202d31332e3439392c34326103808201527f2e3136363231202d372e343233392c32322e383235202d31332e343938342c346103a08201527f312e3633393036202d31332e3439392c34312e383039303220302c302e3538366103c08201527f393320322e36333631322c2d312e32383931352033372e333136342c2d32362e6103e08201527f3533373931207a22207472616e73666f726d3d227472616e736c617465283330610400820152731816189918149039b1b0b632941817191491179f60611b61042082015261043401919050565b600082516106618184602087016110f1565b7f3c70617468207374796c653d2266696c6c3a23623262396263222020643d226d9201918252507f202d332e32303136393439652d362c31313539206320322e313334343633336560208201527f2d362c3020312e30363732333136652d362c3020302c30207a204d20302e313260408201527f36383036382c3238392e37352063202d302e30383435333738372c3537392e3560608201527f202d302e30343232363839332c3238392e373520302c30207a206d203230372e60808201527f313930353933322c342e35323131312033342e383137342c2d32352e3334383560a08201527f392033342e3432392c32352e303337353420632031382e3933362c31332e373760c08201527f3036352033342e393933312c32352e31353035382033352e363832362c32352e60e08201527f323838373420302e363839352c302e313338313620312e313330372c2d302e346101008201527f3935353420302e393830362c2d312e3430383231202d302e313530322c2d302e6101208201527f3931323638202d362e313130312c2d31392e3537343234202d31332e323434326101408201527f2c2d34312e3437303133202d31302e313837382c2d33312e3236383136202d316101608201527f322e373034312c2d34302e3035313237202d31312e3732372c2d34302e3933316101808201527f373520302e363834332c2d302e36313635372031372e31343938332c2d31312e6101a08201527f37393238382033352e373030392c2d32362e3032393837204c203335382e34316101c08201527f33342c3138342e35203331342e303731312c313834203236392e373238372c316101e08201527f38332e35203235362e343837382c3134322e37303637352063202d342e3732366102008201527f30332c2d31332e3439303036202d31302e31373033352c2d32392e33313435346102208201527f202d31342e34333234362c2d34322e3332353634202d302e3236352c302e32366102408201527f343938202d362e39303230342c31392e3431353635202d31342e30393235342c6102608201527f34312e3631393137202d372e313930352c32322e3230333532202d31332e33306102808201527f30332c34302e3733363731202d31332e353737322c34312e31383438382043206102a08201527f3231342e313038362c3138332e3633333332203139342e333333352c313834206102c08201527f3137302e3434312c3138342063202d32332e38393235372c30202d34332e34326102e08201527f3838382c302e33333735202d34332e34313430352c302e373520302e303134386103008201527f2c302e343132352031352e37363438332c31322e313530322033352e303030306103208201527f352c32362e30383337392031392e323335312c31332e39333335392033342e396103408201527f3732352c32352e36333335392033342e3937322c3236202d36652d342c302e336103608201527f36363432202d362e303735322c31392e3334313231202d31332e3439392c34326103808201527f2e3136363231202d372e343233392c32322e383235202d31332e343938342c346103a08201527f312e3633393036202d31332e3439392c34312e383039303220302c302e3538366103c08201527f393320322e36333631322c2d312e32383931352033372e333136342c2d32362e6103e08201527f3533373931207a22207472616e73666f726d3d227472616e736c6174652833306104008201527218161b18149039b1b0b632941817191491179f60691b61042082015261043301919050565b60008251610b998184602087016110f1565b7f3c70617468207374796c653d2266696c6c3a23396335323231222020643d226d9201918252507f202d332e32303136393439652d362c31313539206320322e313334343633336560208201527f2d362c3020312e30363732333136652d362c3020302c30207a204d20302e313260408201527f36383036382c3238392e37352063202d302e30383435333738372c3537392e3560608201527f202d302e30343232363839332c3238392e373520302c30207a206d203230372e60808201527f313930353933322c342e35323131312033342e383137342c2d32352e3334383560a08201527f392033342e3432392c32352e303337353420632031382e3933362c31332e373760c08201527f3036352033342e393933312c32352e31353035382033352e363832362c32352e60e08201527f323838373420302e363839352c302e313338313620312e313330372c2d302e346101008201527f3935353420302e393830362c2d312e3430383231202d302e313530322c2d302e6101208201527f3931323638202d362e313130312c2d31392e3537343234202d31332e323434326101408201527f2c2d34312e3437303133202d31302e313837382c2d33312e3236383136202d316101608201527f322e373034312c2d34302e3035313237202d31312e3732372c2d34302e3933316101808201527f373520302e363834332c2d302e36313635372031372e31343938332c2d31312e6101a08201527f37393238382033352e373030392c2d32362e3032393837204c203335382e34316101c08201527f33342c3138342e35203331342e303731312c313834203236392e373238372c316101e08201527f38332e35203235362e343837382c3134322e37303637352063202d342e3732366102008201527f30332c2d31332e3439303036202d31302e31373033352c2d32392e33313435346102208201527f202d31342e34333234362c2d34322e3332353634202d302e3236352c302e32366102408201527f343938202d362e39303230342c31392e3431353635202d31342e30393235342c6102608201527f34312e3631393137202d372e313930352c32322e3230333532202d31332e33306102808201527f30332c34302e3733363731202d31332e353737322c34312e31383438382043206102a08201527f3231342e313038362c3138332e3633333332203139342e333333352c313834206102c08201527f3137302e3434312c3138342063202d32332e38393235372c30202d34332e34326102e08201527f3838382c302e33333735202d34332e34313430352c302e373520302e303134386103008201527f2c302e343132352031352e37363438332c31322e313530322033352e303030306103208201527f352c32362e30383337392031392e323335312c31332e39333335392033342e396103408201527f3732352c32352e36333335392033342e3937322c3236202d36652d342c302e336103608201527f36363432202d362e303735322c31392e3334313231202d31332e3439392c34326103808201527f2e3136363231202d372e343233392c32322e383235202d31332e343938342c346103a08201527f312e3633393036202d31332e3439392c34312e383039303220302c302e3538366103c08201527f393320322e36333631322c2d312e32383931352033372e333136342c2d32362e6103e08201527f3533373931207a22207472616e73666f726d3d227472616e736c61746528333061040082015271181618149039b1b0b632941817191491179f60711b61042082015261043201919050565b60208152600082518060208401526110dd8160408501602087016110f1565b601f01601f19169190910160400192915050565b60005b8381101561110c5781810151838201526020016110f4565b8381111561111b576000848401525b5050505056fe3c70617468207374796c653d2266696c6c3a233066336238362220202020643d226d2036302e3939393939372c3139312e3730353831206320342e3339373433312c2d312e313236343920352e3536373832352c2d352e373431313320392e30373934372c2d342e393933343520332e3937333231322c302e353731363820382e3837363534372c2d302e393034303120382e3932303533332c2d342e363532333420302e3539393636372c2d332e383334323320322e3235353933332c2d372e323136323920312e3231353433312c2d31302e3134353839202d312e3939393833352c2d352e3533303435202d312e3537353630382c2d372e3334323220322e3033343536392c2d382e363839303920362e3732333731342c2d322e31343535322031372e32373736352c2d392e363832352031372e37352c2d31362e313833373720302c2d312e37343532202d322e3132303039382c2d302e37343335202d342e3831383634362c322e32373637202d372e3236363831382c332e3837303436202d31312e3334313737372c352e3434373935202d31382e3138313335372c312e383839303620312e3730363333392c2d322e383538333120342e3636353031352c2d342e343032353220362e3030303030332c2d372e3534373334202d322e3731363231392c2d332e3339393537202d31302e3935313935332c2d352e3336323338202d342e3032303830382c2d362e383130363220372e3438323036312c2d342e30323434202d342e3039393039382c2d322e303634383220312e39313937382c2d352e373338393120332e35343637372c2d322e313536393220332e3937363638332c2d332e3837333520312e3135343931362c2d342e3631313431202d382e3336323036312c2d342e3932363535202d382e3332343135332c2d31332e3132343037202d382e3035333839312c2d31382e303937333520322e3133393438342c2d31322e3731323320312e3638313735322c2d31322e31383635383320382e38383737392c2d362e3132333133202d302e3838353131392c2d332e333433373034202d302e3637383434392c2d31302e33373536323320322e3331343630322c2d342e33333333353120332e30313031362c342e38313737303120372e3836353630372c322e37333634333120392e3838333637332c2d302e313932303420322e34323132322c2d332e353534393920342e32363036322c2d342e343234303720352e3431333933382c2d322e353537393620302e39333932362c312e353139373520322e352c312e313934323220322e352c2d302e353231343420302c2d302e3833363739202d312e3132352c2d322e3033343033202d322e352c2d322e3636303532202d342e3132363835352c2d322e393330303339202d302e303832362c2d332e32343138373220332c2d342e303538373934202d362e3435343036352c2d322e363330353534202d31342e3738373237332c2d332e323936303939202d32302c2d302e323333313634202d352e3031353939352c332e303839343338202d382e3233353933332c332e313139383438202d31322e3330373130332c302e313136323235202d352e3135373031322c2d332e373233393231202d31392e3538373035312c2d302e353932343338202d32302e313932392c2d382e30353835343320302c2d312e333536313534202d302e34313932312c2d322e3732343832202d302e39333135372c2d332e303431343831202d332e3735373332322c302e393631353032202d332e3137333534332c352e373138313139202d352e30363834332c372e343537373133202d312e36353039322c2d342e343035333936202d342e3535313037362c2d31322e303237323535202d322e39343636382c2d31362e36343032323320352e3033353733392c2d352e3938323534382031312e3237343331352c2d392e3233353837392031372e38343435372c2d31332e39323637303420372e3834363630382c2d342e3537303734322031382e3736353836392c312e39333837322032362e3933383832322c332e3939313436382031362e3231363234312c342e3034363732372032322e3931353833312c372e3037333339392032362e3733323036312c31322e30373637333120332e36363834332c332e35333536323920322e31393538352c362e333237313820312e33363239392c31312e303134353736206c202d312e333239382c372e3438343135322063202d322e34313534372c302e323138313935202d382e35343131312c2d302e373138373035202d362e33323635352c312e373531383320312e37303330382c312e373338343520322e37363330392c31322e33313230313520352e30303631312c352e39353834303420322e30393636382c2d322e32323838323520352e36363831322c2d312e34353635343820372e35303138392c2d332e3534313832202d302e34393237352c2d322e363938353434202d352e39343131322c2d302e30303433202d332e37383334312c2d322e36363834313420302e36383436392c2d302e38323520322e31323933342c2d312e3520332e32313033342c2d312e3520332e35363134362c2d322e32393931333620302e33363333342c2d31302e373932323538202d302e31333530372c2d31352e3236383537202d31312e32363330382c2d35352e393235333538202d38332e3031363839342c2d33372e313536333739202d38362e3036303439332c352e383539363339202d312e3538383036382c392e393531303334202d322e3732363630342c31372e32313136383420302e34383932382c32342e39303839323620332e3136343339312c31302e37313032372031312e3137353333382c32302e32353131392031332e39353333342c32392e3730303120322e33313739312c382e333139313520322e35383338382c31302e323834383520312e343432332c31302e3635393637202d31332e34323837332c31322e3639353735202d33322e3034373237342c32302e3633343135202d34382e33303430373030372c32382e3134303233202d302e33323735392c30202d302e353935363330303034353736322c2d33342e3635202d302e353935363330303034353736322c2d37362e3939393939312056202d302e3038373939303031204c2037362e3031353731342c302e3235303538323331203135302c2d302e303837393930303120562039372e323738323439206320302c34332e343935383331202d302e38353636362c37382e373439393931202d302e38353636362c37382e373439393931202d392e36373132342c2d362e3136303138202d32362e33323433372c2d31302e3536303735202d33312e36303533372c2d31392e3831313131202d392e34373430312c2d31352e3333373431202d31342e33333935352c32332e3939343732202d31372e3839323632382c32392e3834303236202d342e3439323138352c362e3430323933202d31372e3331303631342c32322e3538313437202d32342e3534383935352c32332e3131313039202d362e3331363633332c2d322e3036313333202d31322e3931323938362c2d392e3137383437202d31342e30393633392c2d31372e3436323637207a204d203130322c3132362e393032333720432039342e3835353335352c3131362e38343330342039342e3937323038382c3131392e3137362039382e3230333530322c3132382e38383534372039392e3536363335322c3133302e36303636203130322c3132392e3333353338203130322c3132362e3930323337205a206d202d372e352c2d31362e37303734362063202d302e3438343936382c2d312e3530303136202d342e3238343838382c2d312e3137323131202d322e352c3020312e3836303733362c312e3230323520312e3735363831342c312e3230323520322e352c30207a204d2035342e3530353232372c37352e313836343536206320302e333432382c2d302e353534363532202d302e34313831352c2d312e34303232202d312e36393039382c2d312e3838333434202d352e3633373833332c2d312e36343038343820302e303230382c342e34333735313520312e36393039382c312e3838333434207a206d202d392e31323131382c33322e3536363836342063202d312e32393230392c2d332e333637313220302e31353130382c2d342e313932373120322e34343230312c2d312e33393720332e3534393035312c332e3531363436202d302e3731373638372c332e3538333733202d322e34343230312c312e333937207a22207472616e73666f726d3d227472616e736c61746528302c2d353029207363616c6528322e37353829222f3ea2646970667358221220fd9b758352897c52355f79ddf53b967ace0cb6ae4b195101bd5ab32c5cf0efc764736f6c63430008070033",
			"opcodes": "PUSH1 0x80 PUSH1 0x40 MSTORE CALLVALUE DUP1 ISZERO PUSH2 0x10 JUMPI PUSH1 0x0 DUP1 REVERT JUMPDEST POP PUSH2 0x1DBC DUP1 PUSH2 0x20 PUSH1 0x0 CODECOPY PUSH1 0x0 RETURN INVALID PUSH1 0x80 PUSH1 0x40 MSTORE CALLVALUE DUP1 ISZERO PUSH2 0x10 JUMPI PUSH1 0x0 DUP1 REVERT JUMPDEST POP PUSH1 0x4 CALLDATASIZE LT PUSH2 0x2B JUMPI PUSH1 0x0 CALLDATALOAD PUSH1 0xE0 SHR DUP1 PUSH4 0xBE985AC9 EQ PUSH2 0x30 JUMPI JUMPDEST PUSH1 0x0 DUP1 REVERT JUMPDEST PUSH2 0x43 PUSH2 0x3E CALLDATASIZE PUSH1 0x4 PUSH2 0xFD JUMP JUMPDEST PUSH2 0x59 JUMP JUMPDEST PUSH1 0x40 MLOAD PUSH2 0x50 SWAP2 SWAP1 PUSH2 0x10BE JUMP JUMPDEST PUSH1 0x40 MLOAD DUP1 SWAP2 SUB SWAP1 RETURN JUMPDEST PUSH1 0x60 PUSH1 0x40 MLOAD DUP1 PUSH2 0xCA0 ADD PUSH1 0x40 MSTORE DUP1 PUSH2 0xC65 DUP2 MSTORE PUSH1 0x20 ADD PUSH2 0x1122 PUSH2 0xC65 SWAP2 CODECOPY SWAP1 POP DUP2 ISZERO PUSH2 0xF8 JUMPI DUP1 PUSH1 0x40 MLOAD PUSH1 0x20 ADD PUSH2 0x90 SWAP2 SWAP1 PUSH2 0xB87 JUMP JUMPDEST PUSH1 0x40 MLOAD PUSH1 0x20 DUP2 DUP4 SUB SUB DUP2 MSTORE SWAP1 PUSH1 0x40 MSTORE SWAP1 POP PUSH1 0x1 DUP3 GT ISZERO PUSH2 0xF8 JUMPI DUP1 PUSH1 0x40 MLOAD PUSH1 0x20 ADD PUSH2 0xBB SWAP2 SWAP1 PUSH2 0x64F JUMP JUMPDEST PUSH1 0x40 MLOAD PUSH1 0x20 DUP2 DUP4 SUB SUB DUP2 MSTORE SWAP1 PUSH1 0x40 MSTORE SWAP1 POP PUSH1 0x2 DUP3 GT ISZERO PUSH2 0xF8 JUMPI DUP1 PUSH1 0x40 MLOAD PUSH1 0x20 ADD PUSH2 0xE6 SWAP2 SWAP1 PUSH2 0x116 JUMP JUMPDEST PUSH1 0x40 MLOAD PUSH1 0x20 DUP2 DUP4 SUB SUB DUP2 MSTORE SWAP1 PUSH1 0x40 MSTORE SWAP1 POP JUMPDEST SWAP2 SWAP1 POP JUMP JUMPDEST PUSH1 0x0 PUSH1 0x20 DUP3 DUP5 SUB SLT ISZERO PUSH2 0x10F JUMPI PUSH1 0x0 DUP1 REVERT JUMPDEST POP CALLDATALOAD SWAP2 SWAP1 POP JUMP JUMPDEST PUSH1 0x0 DUP3 MLOAD PUSH2 0x128 DUP2 DUP5 PUSH1 0x20 DUP8 ADD PUSH2 0x10F1 JUMP JUMPDEST PUSH32 0x3C70617468207374796C653D2266696C6C3A23666665343439222020643D226D SWAP3 ADD SWAP2 DUP3 MSTORE POP PUSH32 0x202D332E32303136393439652D362C31313539206320322E3133343436333365 PUSH1 0x20 DUP3 ADD MSTORE PUSH32 0x2D362C3020312E30363732333136652D362C3020302C30207A204D20302E3132 PUSH1 0x40 DUP3 ADD MSTORE PUSH32 0x36383036382C3238392E37352063202D302E30383435333738372C3537392E35 PUSH1 0x60 DUP3 ADD MSTORE PUSH32 0x202D302E30343232363839332C3238392E373520302C30207A206D203230372E PUSH1 0x80 DUP3 ADD MSTORE PUSH32 0x313930353933322C342E35323131312033342E383137342C2D32352E33343835 PUSH1 0xA0 DUP3 ADD MSTORE PUSH32 0x392033342E3432392C32352E303337353420632031382E3933362C31332E3737 PUSH1 0xC0 DUP3 ADD MSTORE PUSH32 0x3036352033342E393933312C32352E31353035382033352E363832362C32352E PUSH1 0xE0 DUP3 ADD MSTORE PUSH32 0x323838373420302E363839352C302E313338313620312E313330372C2D302E34 PUSH2 0x100 DUP3 ADD MSTORE PUSH32 0x3935353420302E393830362C2D312E3430383231202D302E313530322C2D302E PUSH2 0x120 DUP3 ADD MSTORE PUSH32 0x3931323638202D362E313130312C2D31392E3537343234202D31332E32343432 PUSH2 0x140 DUP3 ADD MSTORE PUSH32 0x2C2D34312E3437303133202D31302E313837382C2D33312E3236383136202D31 PUSH2 0x160 DUP3 ADD MSTORE PUSH32 0x322E373034312C2D34302E3035313237202D31312E3732372C2D34302E393331 PUSH2 0x180 DUP3 ADD MSTORE PUSH32 0x373520302E363834332C2D302E36313635372031372E31343938332C2D31312E PUSH2 0x1A0 DUP3 ADD MSTORE PUSH32 0x37393238382033352E373030392C2D32362E3032393837204C203335382E3431 PUSH2 0x1C0 DUP3 ADD MSTORE PUSH32 0x33342C3138342E35203331342E303731312C313834203236392E373238372C31 PUSH2 0x1E0 DUP3 ADD MSTORE PUSH32 0x38332E35203235362E343837382C3134322E37303637352063202D342E373236 PUSH2 0x200 DUP3 ADD MSTORE PUSH32 0x30332C2D31332E3439303036202D31302E31373033352C2D32392E3331343534 PUSH2 0x220 DUP3 ADD MSTORE PUSH32 0x202D31342E34333234362C2D34322E3332353634202D302E3236352C302E3236 PUSH2 0x240 DUP3 ADD MSTORE PUSH32 0x343938202D362E39303230342C31392E3431353635202D31342E30393235342C PUSH2 0x260 DUP3 ADD MSTORE PUSH32 0x34312E3631393137202D372E313930352C32322E3230333532202D31332E3330 PUSH2 0x280 DUP3 ADD MSTORE PUSH32 0x30332C34302E3733363731202D31332E353737322C34312E3138343838204320 PUSH2 0x2A0 DUP3 ADD MSTORE PUSH32 0x3231342E313038362C3138332E3633333332203139342E333333352C31383420 PUSH2 0x2C0 DUP3 ADD MSTORE PUSH32 0x3137302E3434312C3138342063202D32332E38393235372C30202D34332E3432 PUSH2 0x2E0 DUP3 ADD MSTORE PUSH32 0x3838382C302E33333735202D34332E34313430352C302E373520302E30313438 PUSH2 0x300 DUP3 ADD MSTORE PUSH32 0x2C302E343132352031352E37363438332C31322E313530322033352E30303030 PUSH2 0x320 DUP3 ADD MSTORE PUSH32 0x352C32362E30383337392031392E323335312C31332E39333335392033342E39 PUSH2 0x340 DUP3 ADD MSTORE PUSH32 0x3732352C32352E36333335392033342E3937322C3236202D36652D342C302E33 PUSH2 0x360 DUP3 ADD MSTORE PUSH32 0x36363432202D362E303735322C31392E3334313231202D31332E3439392C3432 PUSH2 0x380 DUP3 ADD MSTORE PUSH32 0x2E3136363231202D372E343233392C32322E383235202D31332E343938342C34 PUSH2 0x3A0 DUP3 ADD MSTORE PUSH32 0x312E3633393036202D31332E3439392C34312E383039303220302C302E353836 PUSH2 0x3C0 DUP3 ADD MSTORE PUSH32 0x393320322E36333631322C2D312E32383931352033372E333136342C2D32362E PUSH2 0x3E0 DUP3 ADD MSTORE PUSH32 0x3533373931207A22207472616E73666F726D3D227472616E736C617465283330 PUSH2 0x400 DUP3 ADD MSTORE PUSH20 0x1816189918149039B1B0B632941817191491179F PUSH1 0x61 SHL PUSH2 0x420 DUP3 ADD MSTORE PUSH2 0x434 ADD SWAP2 SWAP1 POP JUMP JUMPDEST PUSH1 0x0 DUP3 MLOAD PUSH2 0x661 DUP2 DUP5 PUSH1 0x20 DUP8 ADD PUSH2 0x10F1 JUMP JUMPDEST PUSH32 0x3C70617468207374796C653D2266696C6C3A23623262396263222020643D226D SWAP3 ADD SWAP2 DUP3 MSTORE POP PUSH32 0x202D332E32303136393439652D362C31313539206320322E3133343436333365 PUSH1 0x20 DUP3 ADD MSTORE PUSH32 0x2D362C3020312E30363732333136652D362C3020302C30207A204D20302E3132 PUSH1 0x40 DUP3 ADD MSTORE PUSH32 0x36383036382C3238392E37352063202D302E30383435333738372C3537392E35 PUSH1 0x60 DUP3 ADD MSTORE PUSH32 0x202D302E30343232363839332C3238392E373520302C30207A206D203230372E PUSH1 0x80 DUP3 ADD MSTORE PUSH32 0x313930353933322C342E35323131312033342E383137342C2D32352E33343835 PUSH1 0xA0 DUP3 ADD MSTORE PUSH32 0x392033342E3432392C32352E303337353420632031382E3933362C31332E3737 PUSH1 0xC0 DUP3 ADD MSTORE PUSH32 0x3036352033342E393933312C32352E31353035382033352E363832362C32352E PUSH1 0xE0 DUP3 ADD MSTORE PUSH32 0x323838373420302E363839352C302E313338313620312E313330372C2D302E34 PUSH2 0x100 DUP3 ADD MSTORE PUSH32 0x3935353420302E393830362C2D312E3430383231202D302E313530322C2D302E PUSH2 0x120 DUP3 ADD MSTORE PUSH32 0x3931323638202D362E313130312C2D31392E3537343234202D31332E32343432 PUSH2 0x140 DUP3 ADD MSTORE PUSH32 0x2C2D34312E3437303133202D31302E313837382C2D33312E3236383136202D31 PUSH2 0x160 DUP3 ADD MSTORE PUSH32 0x322E373034312C2D34302E3035313237202D31312E3732372C2D34302E393331 PUSH2 0x180 DUP3 ADD MSTORE PUSH32 0x373520302E363834332C2D302E36313635372031372E31343938332C2D31312E PUSH2 0x1A0 DUP3 ADD MSTORE PUSH32 0x37393238382033352E373030392C2D32362E3032393837204C203335382E3431 PUSH2 0x1C0 DUP3 ADD MSTORE PUSH32 0x33342C3138342E35203331342E303731312C313834203236392E373238372C31 PUSH2 0x1E0 DUP3 ADD MSTORE PUSH32 0x38332E35203235362E343837382C3134322E37303637352063202D342E373236 PUSH2 0x200 DUP3 ADD MSTORE PUSH32 0x30332C2D31332E3439303036202D31302E31373033352C2D32392E3331343534 PUSH2 0x220 DUP3 ADD MSTORE PUSH32 0x202D31342E34333234362C2D34322E3332353634202D302E3236352C302E3236 PUSH2 0x240 DUP3 ADD MSTORE PUSH32 0x343938202D362E39303230342C31392E3431353635202D31342E30393235342C PUSH2 0x260 DUP3 ADD MSTORE PUSH32 0x34312E3631393137202D372E313930352C32322E3230333532202D31332E3330 PUSH2 0x280 DUP3 ADD MSTORE PUSH32 0x30332C34302E3733363731202D31332E353737322C34312E3138343838204320 PUSH2 0x2A0 DUP3 ADD MSTORE PUSH32 0x3231342E313038362C3138332E3633333332203139342E333333352C31383420 PUSH2 0x2C0 DUP3 ADD MSTORE PUSH32 0x3137302E3434312C3138342063202D32332E38393235372C30202D34332E3432 PUSH2 0x2E0 DUP3 ADD MSTORE PUSH32 0x3838382C302E33333735202D34332E34313430352C302E373520302E30313438 PUSH2 0x300 DUP3 ADD MSTORE PUSH32 0x2C302E343132352031352E37363438332C31322E313530322033352E30303030 PUSH2 0x320 DUP3 ADD MSTORE PUSH32 0x352C32362E30383337392031392E323335312C31332E39333335392033342E39 PUSH2 0x340 DUP3 ADD MSTORE PUSH32 0x3732352C32352E36333335392033342E3937322C3236202D36652D342C302E33 PUSH2 0x360 DUP3 ADD MSTORE PUSH32 0x36363432202D362E303735322C31392E3334313231202D31332E3439392C3432 PUSH2 0x380 DUP3 ADD MSTORE PUSH32 0x2E3136363231202D372E343233392C32322E383235202D31332E343938342C34 PUSH2 0x3A0 DUP3 ADD MSTORE PUSH32 0x312E3633393036202D31332E3439392C34312E383039303220302C302E353836 PUSH2 0x3C0 DUP3 ADD MSTORE PUSH32 0x393320322E36333631322C2D312E32383931352033372E333136342C2D32362E PUSH2 0x3E0 DUP3 ADD MSTORE PUSH32 0x3533373931207A22207472616E73666F726D3D227472616E736C617465283330 PUSH2 0x400 DUP3 ADD MSTORE PUSH19 0x18161B18149039B1B0B632941817191491179F PUSH1 0x69 SHL PUSH2 0x420 DUP3 ADD MSTORE PUSH2 0x433 ADD SWAP2 SWAP1 POP JUMP JUMPDEST PUSH1 0x0 DUP3 MLOAD PUSH2 0xB99 DUP2 DUP5 PUSH1 0x20 DUP8 ADD PUSH2 0x10F1 JUMP JUMPDEST PUSH32 0x3C70617468207374796C653D2266696C6C3A23396335323231222020643D226D SWAP3 ADD SWAP2 DUP3 MSTORE POP PUSH32 0x202D332E32303136393439652D362C31313539206320322E3133343436333365 PUSH1 0x20 DUP3 ADD MSTORE PUSH32 0x2D362C3020312E30363732333136652D362C3020302C30207A204D20302E3132 PUSH1 0x40 DUP3 ADD MSTORE PUSH32 0x36383036382C3238392E37352063202D302E30383435333738372C3537392E35 PUSH1 0x60 DUP3 ADD MSTORE PUSH32 0x202D302E30343232363839332C3238392E373520302C30207A206D203230372E PUSH1 0x80 DUP3 ADD MSTORE PUSH32 0x313930353933322C342E35323131312033342E383137342C2D32352E33343835 PUSH1 0xA0 DUP3 ADD MSTORE PUSH32 0x392033342E3432392C32352E303337353420632031382E3933362C31332E3737 PUSH1 0xC0 DUP3 ADD MSTORE PUSH32 0x3036352033342E393933312C32352E31353035382033352E363832362C32352E PUSH1 0xE0 DUP3 ADD MSTORE PUSH32 0x323838373420302E363839352C302E313338313620312E313330372C2D302E34 PUSH2 0x100 DUP3 ADD MSTORE PUSH32 0x3935353420302E393830362C2D312E3430383231202D302E313530322C2D302E PUSH2 0x120 DUP3 ADD MSTORE PUSH32 0x3931323638202D362E313130312C2D31392E3537343234202D31332E32343432 PUSH2 0x140 DUP3 ADD MSTORE PUSH32 0x2C2D34312E3437303133202D31302E313837382C2D33312E3236383136202D31 PUSH2 0x160 DUP3 ADD MSTORE PUSH32 0x322E373034312C2D34302E3035313237202D31312E3732372C2D34302E393331 PUSH2 0x180 DUP3 ADD MSTORE PUSH32 0x373520302E363834332C2D302E36313635372031372E31343938332C2D31312E PUSH2 0x1A0 DUP3 ADD MSTORE PUSH32 0x37393238382033352E373030392C2D32362E3032393837204C203335382E3431 PUSH2 0x1C0 DUP3 ADD MSTORE PUSH32 0x33342C3138342E35203331342E303731312C313834203236392E373238372C31 PUSH2 0x1E0 DUP3 ADD MSTORE PUSH32 0x38332E35203235362E343837382C3134322E37303637352063202D342E373236 PUSH2 0x200 DUP3 ADD MSTORE PUSH32 0x30332C2D31332E3439303036202D31302E31373033352C2D32392E3331343534 PUSH2 0x220 DUP3 ADD MSTORE PUSH32 0x202D31342E34333234362C2D34322E3332353634202D302E3236352C302E3236 PUSH2 0x240 DUP3 ADD MSTORE PUSH32 0x343938202D362E39303230342C31392E3431353635202D31342E30393235342C PUSH2 0x260 DUP3 ADD MSTORE PUSH32 0x34312E3631393137202D372E313930352C32322E3230333532202D31332E3330 PUSH2 0x280 DUP3 ADD MSTORE PUSH32 0x30332C34302E3733363731202D31332E353737322C34312E3138343838204320 PUSH2 0x2A0 DUP3 ADD MSTORE PUSH32 0x3231342E313038362C3138332E3633333332203139342E333333352C31383420 PUSH2 0x2C0 DUP3 ADD MSTORE PUSH32 0x3137302E3434312C3138342063202D32332E38393235372C30202D34332E3432 PUSH2 0x2E0 DUP3 ADD MSTORE PUSH32 0x3838382C302E33333735202D34332E34313430352C302E373520302E30313438 PUSH2 0x300 DUP3 ADD MSTORE PUSH32 0x2C302E343132352031352E37363438332C31322E313530322033352E30303030 PUSH2 0x320 DUP3 ADD MSTORE PUSH32 0x352C32362E30383337392031392E323335312C31332E39333335392033342E39 PUSH2 0x340 DUP3 ADD MSTORE PUSH32 0x3732352C32352E36333335392033342E3937322C3236202D36652D342C302E33 PUSH2 0x360 DUP3 ADD MSTORE PUSH32 0x36363432202D362E303735322C31392E3334313231202D31332E3439392C3432 PUSH2 0x380 DUP3 ADD MSTORE PUSH32 0x2E3136363231202D372E343233392C32322E383235202D31332E343938342C34 PUSH2 0x3A0 DUP3 ADD MSTORE PUSH32 0x312E3633393036202D31332E3439392C34312E383039303220302C302E353836 PUSH2 0x3C0 DUP3 ADD MSTORE PUSH32 0x393320322E36333631322C2D312E32383931352033372E333136342C2D32362E PUSH2 0x3E0 DUP3 ADD MSTORE PUSH32 0x3533373931207A22207472616E73666F726D3D227472616E736C617465283330 PUSH2 0x400 DUP3 ADD MSTORE PUSH18 0x181618149039B1B0B632941817191491179F PUSH1 0x71 SHL PUSH2 0x420 DUP3 ADD MSTORE PUSH2 0x432 ADD SWAP2 SWAP1 POP JUMP JUMPDEST PUSH1 0x20 DUP2 MSTORE PUSH1 0x0 DUP3 MLOAD DUP1 PUSH1 0x20 DUP5 ADD MSTORE PUSH2 0x10DD DUP2 PUSH1 0x40 DUP6 ADD PUSH1 0x20 DUP8 ADD PUSH2 0x10F1 JUMP JUMPDEST PUSH1 0x1F ADD PUSH1 0x1F NOT AND SWAP2 SWAP1 SWAP2 ADD PUSH1 0x40 ADD SWAP3 SWAP2 POP POP JUMP JUMPDEST PUSH1 0x0 JUMPDEST DUP4 DUP2 LT ISZERO PUSH2 0x110C JUMPI DUP2 DUP2 ADD MLOAD DUP4 DUP3 ADD MSTORE PUSH1 0x20 ADD PUSH2 0x10F4 JUMP JUMPDEST DUP4 DUP2 GT ISZERO PUSH2 0x111B JUMPI PUSH1 0x0 DUP5 DUP5 ADD MSTORE JUMPDEST POP POP POP POP JUMP INVALID EXTCODECOPY PUSH17 0x617468207374796C653D2266696C6C3A23 ADDRESS PUSH7 0x33623836222020 KECCAK256 KECCAK256 PUSH5 0x3D226D2036 ADDRESS 0x2E CODECOPY CODECOPY CODECOPY CODECOPY CODECOPY CALLDATACOPY 0x2C BALANCE CODECOPY BALANCE 0x2E CALLDATACOPY ADDRESS CALLDATALOAD CODESIZE BALANCE KECCAK256 PUSH4 0x20342E33 CODECOPY CALLDATACOPY CALLVALUE CALLER BALANCE 0x2C 0x2D BALANCE 0x2E BALANCE ORIGIN CALLDATASIZE CALLVALUE CODECOPY KECCAK256 CALLDATALOAD 0x2E CALLDATALOAD CALLDATASIZE CALLDATACOPY CODESIZE ORIGIN CALLDATALOAD 0x2C 0x2D CALLDATALOAD 0x2E CALLDATACOPY CALLVALUE BALANCE BALANCE CALLER KECCAK256 CODECOPY 0x2E ADDRESS CALLDATACOPY CODECOPY CALLVALUE CALLDATACOPY 0x2C 0x2D CALLVALUE 0x2E CODECOPY CODECOPY CALLER CALLVALUE CALLDATALOAD KECCAK256 CALLER 0x2E CODECOPY CALLDATACOPY CALLER ORIGIN BALANCE ORIGIN 0x2C ADDRESS 0x2E CALLDATALOAD CALLDATACOPY BALANCE CALLDATASIZE CODESIZE KECCAK256 CODESIZE 0x2E CODESIZE CALLDATACOPY CALLDATASIZE CALLDATALOAD CALLVALUE CALLDATACOPY 0x2C 0x2D ADDRESS 0x2E CODECOPY ADDRESS CALLVALUE ADDRESS BALANCE KECCAK256 CODESIZE 0x2E CODECOPY ORIGIN ADDRESS CALLDATALOAD CALLER CALLER 0x2C 0x2D CALLVALUE 0x2E CALLDATASIZE CALLDATALOAD ORIGIN CALLER CALLVALUE KECCAK256 ADDRESS 0x2E CALLDATALOAD CODECOPY CODECOPY CALLDATASIZE CALLDATASIZE CALLDATACOPY 0x2C 0x2D CALLER 0x2E CODESIZE CALLER CALLVALUE ORIGIN CALLER KECCAK256 ORIGIN 0x2E ORIGIN CALLDATALOAD CALLDATALOAD CODECOPY CALLER CALLER 0x2C 0x2D CALLDATACOPY 0x2E ORIGIN BALANCE CALLDATASIZE ORIGIN CODECOPY KECCAK256 BALANCE 0x2E ORIGIN BALANCE CALLDATALOAD CALLVALUE CALLER BALANCE 0x2C 0x2D BALANCE ADDRESS 0x2E BALANCE CALLVALUE CALLDATALOAD CODESIZE CODECOPY KECCAK256 0x2D BALANCE 0x2E CODECOPY CODECOPY CODECOPY CODESIZE CALLER CALLDATALOAD 0x2C 0x2D CALLDATALOAD 0x2E CALLDATALOAD CALLER ADDRESS CALLVALUE CALLDATALOAD KECCAK256 0x2D BALANCE 0x2E CALLDATALOAD CALLDATACOPY CALLDATALOAD CALLDATASIZE ADDRESS CODESIZE 0x2C 0x2D CALLDATACOPY 0x2E CALLER CALLVALUE ORIGIN ORIGIN KECCAK256 ORIGIN 0x2E ADDRESS CALLER CALLVALUE CALLDATALOAD CALLDATASIZE CODECOPY 0x2C 0x2D CODESIZE 0x2E CALLDATASIZE CODESIZE CODECOPY ADDRESS CODECOPY KECCAK256 CALLDATASIZE 0x2E CALLDATACOPY ORIGIN CALLER CALLDATACOPY BALANCE CALLVALUE 0x2C 0x2D ORIGIN 0x2E BALANCE CALLVALUE CALLDATALOAD CALLDATALOAD ORIGIN KECCAK256 BALANCE CALLDATACOPY 0x2E ORIGIN CALLDATACOPY CALLDATACOPY CALLDATASIZE CALLDATALOAD 0x2C 0x2D CODECOPY 0x2E CALLDATASIZE CODESIZE ORIGIN CALLDATALOAD KECCAK256 BALANCE CALLDATACOPY 0x2E CALLDATACOPY CALLDATALOAD 0x2C 0x2D BALANCE CALLDATASIZE 0x2E BALANCE CODESIZE CALLER CALLDATACOPY CALLDATACOPY KECCAK256 ADDRESS 0x2C 0x2D BALANCE 0x2E CALLDATACOPY CALLVALUE CALLDATALOAD ORIGIN KECCAK256 0x2D ORIGIN 0x2E BALANCE ORIGIN ADDRESS ADDRESS CODECOPY CODESIZE 0x2C 0x2D ADDRESS 0x2E CALLDATACOPY CALLVALUE CALLER CALLDATALOAD KECCAK256 0x2D CALLVALUE 0x2E CODESIZE BALANCE CODESIZE CALLDATASIZE CALLVALUE CALLDATASIZE 0x2C ORIGIN 0x2E ORIGIN CALLDATACOPY CALLDATASIZE CALLDATACOPY KECCAK256 0x2D CALLDATACOPY 0x2E ORIGIN CALLDATASIZE CALLDATASIZE CODESIZE BALANCE CODESIZE 0x2C CALLER 0x2E CODESIZE CALLDATACOPY ADDRESS CALLVALUE CALLDATASIZE KECCAK256 0x2D BALANCE BALANCE 0x2E CALLER CALLVALUE BALANCE CALLDATACOPY CALLDATACOPY CALLDATACOPY 0x2C CALLDATALOAD 0x2E CALLVALUE CALLVALUE CALLDATACOPY CODECOPY CALLDATALOAD KECCAK256 0x2D BALANCE CODESIZE 0x2E BALANCE CODESIZE BALANCE CALLER CALLDATALOAD CALLDATACOPY 0x2C BALANCE 0x2E CODESIZE CODESIZE CODECOPY ADDRESS CALLDATASIZE KECCAK256 BALANCE 0x2E CALLDATACOPY ADDRESS CALLDATASIZE CALLER CALLER CODECOPY 0x2C 0x2D ORIGIN 0x2E CODESIZE CALLDATALOAD CODESIZE CALLER BALANCE KECCAK256 CALLVALUE 0x2E CALLDATASIZE CALLDATASIZE CALLDATALOAD ADDRESS BALANCE CALLDATALOAD 0x2C 0x2D CALLVALUE 0x2E CALLVALUE ADDRESS ORIGIN CALLDATALOAD ORIGIN KECCAK256 CALLDATASIZE 0x2E ADDRESS ADDRESS ADDRESS ADDRESS ADDRESS CALLER 0x2C 0x2D CALLDATACOPY 0x2E CALLDATALOAD CALLVALUE CALLDATACOPY CALLER CALLVALUE KECCAK256 0x2D ORIGIN 0x2E CALLDATACOPY BALANCE CALLDATASIZE ORIGIN BALANCE CODECOPY 0x2C 0x2D CALLER 0x2E CALLER CODECOPY CODECOPY CALLDATALOAD CALLDATACOPY KECCAK256 0x2D BALANCE ADDRESS 0x2E CODECOPY CALLDATALOAD BALANCE CODECOPY CALLDATALOAD CALLER 0x2C 0x2D CALLDATALOAD 0x2E CALLER CALLDATASIZE ORIGIN CALLER CODESIZE KECCAK256 0x2D CALLVALUE 0x2E ADDRESS ORIGIN ADDRESS CODESIZE ADDRESS CODESIZE 0x2C 0x2D CALLDATASIZE 0x2E CODESIZE BALANCE ADDRESS CALLDATASIZE ORIGIN KECCAK256 CALLDATACOPY 0x2E CALLVALUE CODESIZE ORIGIN ADDRESS CALLDATASIZE BALANCE 0x2C 0x2D CALLVALUE 0x2E ADDRESS ORIGIN CALLVALUE CALLVALUE KECCAK256 0x2D CALLVALUE 0x2E ADDRESS CODECOPY CODECOPY ADDRESS CODECOPY CODESIZE 0x2C 0x2D ORIGIN 0x2E ADDRESS CALLDATASIZE CALLVALUE CODESIZE ORIGIN KECCAK256 BALANCE 0x2E CODECOPY BALANCE CODECOPY CALLDATACOPY CODESIZE 0x2C 0x2D CALLDATALOAD 0x2E CALLDATACOPY CALLER CODESIZE CODECOPY BALANCE KECCAK256 CALLER 0x2E CALLDATALOAD CALLVALUE CALLDATASIZE CALLDATACOPY CALLDATACOPY 0x2C 0x2D ORIGIN 0x2E BALANCE CALLDATALOAD CALLDATASIZE CODECOPY ORIGIN KECCAK256 CALLER 0x2E CODECOPY CALLDATACOPY CALLDATASIZE CALLDATASIZE CODESIZE CALLER 0x2C 0x2D CALLER 0x2E CODESIZE CALLDATACOPY CALLER CALLDATALOAD KECCAK256 BALANCE 0x2E BALANCE CALLDATALOAD CALLVALUE CODECOPY BALANCE CALLDATASIZE 0x2C 0x2D CALLVALUE 0x2E CALLDATASIZE BALANCE BALANCE CALLVALUE BALANCE KECCAK256 0x2D CODESIZE 0x2E CALLER CALLDATASIZE ORIGIN ADDRESS CALLDATASIZE BALANCE 0x2C 0x2D CALLVALUE 0x2E CODECOPY ORIGIN CALLDATASIZE CALLDATALOAD CALLDATALOAD KECCAK256 0x2D CODESIZE 0x2E CALLER ORIGIN CALLVALUE BALANCE CALLDATALOAD CALLER 0x2C 0x2D BALANCE CALLER 0x2E BALANCE ORIGIN CALLVALUE ADDRESS CALLDATACOPY KECCAK256 0x2D CODESIZE 0x2E ADDRESS CALLDATALOAD CALLER CODESIZE CODECOPY BALANCE 0x2C 0x2D BALANCE CODESIZE 0x2E ADDRESS CODECOPY CALLDATACOPY CALLER CALLDATALOAD KECCAK256 ORIGIN 0x2E BALANCE CALLER CODECOPY CALLVALUE CODESIZE CALLVALUE 0x2C 0x2D BALANCE ORIGIN 0x2E CALLDATACOPY BALANCE ORIGIN CALLER KECCAK256 BALANCE 0x2E CALLDATASIZE CODESIZE BALANCE CALLDATACOPY CALLDATALOAD ORIGIN 0x2C 0x2D BALANCE ORIGIN 0x2E BALANCE CODESIZE CALLDATASIZE CALLDATALOAD CODESIZE CALLER KECCAK256 CODESIZE 0x2E CODESIZE CODESIZE CALLDATACOPY CALLDATACOPY CODECOPY 0x2C 0x2D CALLDATASIZE 0x2E BALANCE ORIGIN CALLER BALANCE CALLER KECCAK256 0x2D ADDRESS 0x2E CODESIZE CODESIZE CALLDATALOAD BALANCE BALANCE CODECOPY 0x2C 0x2D CALLER 0x2E CALLER CALLVALUE CALLER CALLDATACOPY ADDRESS CALLVALUE KECCAK256 0x2D ADDRESS 0x2E CALLDATASIZE CALLDATACOPY CODESIZE CALLVALUE CALLVALUE CODECOPY 0x2C 0x2D BALANCE ADDRESS 0x2E CALLER CALLDATACOPY CALLDATALOAD CALLDATASIZE ORIGIN CALLER KECCAK256 ORIGIN 0x2E CALLER BALANCE CALLVALUE CALLDATASIZE ADDRESS ORIGIN 0x2C 0x2D CALLVALUE 0x2E CALLER CALLER CALLER CALLER CALLDATALOAD BALANCE KECCAK256 CALLER 0x2E ADDRESS BALANCE ADDRESS BALANCE CALLDATASIZE 0x2C CALLVALUE 0x2E CODESIZE BALANCE CALLDATACOPY CALLDATACOPY ADDRESS BALANCE KECCAK256 CALLDATACOPY 0x2E CODESIZE CALLDATASIZE CALLDATALOAD CALLDATASIZE ADDRESS CALLDATACOPY 0x2C ORIGIN 0x2E CALLDATACOPY CALLER CALLDATASIZE CALLVALUE CALLER BALANCE KECCAK256 CODECOPY 0x2E CODESIZE CODESIZE CALLER CALLDATASIZE CALLDATACOPY CALLER 0x2C 0x2D ADDRESS 0x2E BALANCE CODECOPY ORIGIN ADDRESS CALLVALUE KECCAK256 ORIGIN 0x2E CALLVALUE ORIGIN BALANCE ORIGIN ORIGIN 0x2C 0x2D CALLER 0x2E CALLDATALOAD CALLDATALOAD CALLVALUE CODECOPY CODECOPY KECCAK256 CALLVALUE 0x2E ORIGIN CALLDATASIZE ADDRESS CALLDATASIZE ORIGIN 0x2C 0x2D CALLVALUE 0x2E CALLVALUE ORIGIN CALLVALUE ADDRESS CALLDATACOPY KECCAK256 CALLDATALOAD 0x2E CALLVALUE BALANCE CALLER CODECOPY CALLER CODESIZE 0x2C 0x2D ORIGIN 0x2E CALLDATALOAD CALLDATALOAD CALLDATACOPY CODECOPY CALLDATASIZE KECCAK256 ADDRESS 0x2E CODECOPY CALLER CODECOPY ORIGIN CALLDATASIZE 0x2C BALANCE 0x2E CALLDATALOAD BALANCE CODECOPY CALLDATACOPY CALLDATALOAD KECCAK256 ORIGIN 0x2E CALLDATALOAD 0x2C BALANCE 0x2E BALANCE CODECOPY CALLVALUE ORIGIN ORIGIN KECCAK256 ORIGIN 0x2E CALLDATALOAD 0x2C 0x2D ADDRESS 0x2E CALLDATALOAD ORIGIN BALANCE CALLVALUE CALLVALUE KECCAK256 ADDRESS 0x2C 0x2D ADDRESS 0x2E CODESIZE CALLER CALLDATASIZE CALLDATACOPY CODECOPY KECCAK256 0x2D BALANCE 0x2E BALANCE ORIGIN CALLDATALOAD 0x2C 0x2D ORIGIN 0x2E ADDRESS CALLER CALLVALUE ADDRESS CALLER KECCAK256 0x2D ORIGIN 0x2E CALLDATALOAD 0x2C 0x2D ORIGIN 0x2E CALLDATASIZE CALLDATASIZE ADDRESS CALLDATALOAD ORIGIN KECCAK256 0x2D CALLVALUE 0x2E BALANCE ORIGIN CALLDATASIZE CODESIZE CALLDATALOAD CALLDATALOAD 0x2C 0x2D ORIGIN 0x2E CODECOPY CALLER ADDRESS ADDRESS CALLER CODECOPY KECCAK256 0x2D ADDRESS 0x2E ADDRESS CODESIZE ORIGIN CALLDATASIZE 0x2C 0x2D CALLER 0x2E ORIGIN CALLVALUE BALANCE CODESIZE CALLDATACOPY ORIGIN KECCAK256 CALLER 0x2C 0x2D CALLVALUE 0x2E ADDRESS CALLDATALOAD CODESIZE CALLDATACOPY CODECOPY CALLVALUE KECCAK256 0x2D CALLDATASIZE 0x2E CALLVALUE CALLDATALOAD CALLVALUE ADDRESS CALLDATASIZE CALLDATALOAD 0x2C 0x2D ORIGIN 0x2E CALLDATASIZE CALLER ADDRESS CALLDATALOAD CALLDATALOAD CALLVALUE KECCAK256 0x2D BALANCE CALLVALUE 0x2E CALLDATACOPY CODESIZE CALLDATACOPY ORIGIN CALLDATACOPY CALLER 0x2C 0x2D CALLER 0x2E ORIGIN CODECOPY CALLDATASIZE ADDRESS CODECOPY CODECOPY KECCAK256 0x2D ORIGIN ADDRESS 0x2C 0x2D ADDRESS 0x2E ORIGIN CALLER CALLER BALANCE CALLDATASIZE CALLVALUE KECCAK256 0x2D CALLDATALOAD 0x2E ADDRESS BALANCE CALLDATALOAD CODECOPY CODECOPY CALLDATALOAD 0x2C CALLER 0x2E ADDRESS CODESIZE CODECOPY CALLVALUE CALLER CODESIZE KECCAK256 0x2D CODESIZE 0x2E ORIGIN CALLER CALLDATALOAD CODECOPY CALLER CALLER 0x2C CALLER 0x2E BALANCE BALANCE CODECOPY CODESIZE CALLVALUE CODESIZE KECCAK256 0x2D BALANCE ORIGIN 0x2E CALLER ADDRESS CALLDATACOPY BALANCE ADDRESS CALLER 0x2C ADDRESS 0x2E BALANCE BALANCE CALLDATASIZE ORIGIN ORIGIN CALLDATALOAD KECCAK256 0x2D CALLDATALOAD 0x2E BALANCE CALLDATALOAD CALLDATACOPY ADDRESS BALANCE ORIGIN 0x2C 0x2D CALLER 0x2E CALLDATACOPY ORIGIN CALLER CODECOPY ORIGIN BALANCE KECCAK256 0x2D BALANCE CODECOPY 0x2E CALLDATALOAD CODESIZE CALLDATACOPY ADDRESS CALLDATALOAD BALANCE 0x2C 0x2D ADDRESS 0x2E CALLDATALOAD CODECOPY ORIGIN CALLVALUE CALLER CODESIZE KECCAK256 0x2D ORIGIN ADDRESS 0x2E BALANCE CODECOPY ORIGIN CODECOPY 0x2C 0x2D CODESIZE 0x2E ADDRESS CALLDATALOAD CODESIZE CALLDATALOAD CALLVALUE CALLER KECCAK256 ADDRESS 0x2C 0x2D BALANCE 0x2E CALLER CALLDATALOAD CALLDATASIZE BALANCE CALLDATALOAD CALLVALUE KECCAK256 0x2D ADDRESS 0x2E CALLVALUE BALANCE CODECOPY ORIGIN BALANCE 0x2C 0x2D ORIGIN 0x2E CALLDATACOPY ORIGIN CALLVALUE CODESIZE ORIGIN KECCAK256 0x2D ADDRESS 0x2E CODECOPY CALLER BALANCE CALLDATALOAD CALLDATACOPY 0x2C 0x2D CALLER 0x2E ADDRESS CALLVALUE BALANCE CALLVALUE CODESIZE BALANCE KECCAK256 0x2D CALLER 0x2E CALLDATACOPY CALLDATALOAD CALLDATACOPY CALLER ORIGIN ORIGIN 0x2C ADDRESS 0x2E CODECOPY CALLDATASIZE BALANCE CALLDATALOAD ADDRESS ORIGIN KECCAK256 0x2D CALLER 0x2E BALANCE CALLDATACOPY CALLER CALLDATALOAD CALLVALUE CALLER 0x2C CALLDATALOAD 0x2E CALLDATACOPY BALANCE CODESIZE BALANCE BALANCE CODECOPY KECCAK256 0x2D CALLDATALOAD 0x2E ADDRESS CALLDATASIZE CODESIZE CALLVALUE CALLER 0x2C CALLDATACOPY 0x2E CALLVALUE CALLDATALOAD CALLDATACOPY CALLDATACOPY BALANCE CALLER KECCAK256 0x2D BALANCE 0x2E CALLDATASIZE CALLDATALOAD ADDRESS CODECOPY ORIGIN 0x2C 0x2D CALLVALUE 0x2E CALLVALUE ADDRESS CALLDATALOAD CALLER CODECOPY CALLDATASIZE KECCAK256 0x2D CALLVALUE 0x2E CALLDATALOAD CALLDATALOAD BALANCE ADDRESS CALLDATACOPY CALLDATASIZE 0x2C 0x2D BALANCE ORIGIN 0x2E ADDRESS ORIGIN CALLDATACOPY ORIGIN CALLDATALOAD CALLDATALOAD KECCAK256 0x2D ORIGIN 0x2E CODECOPY CALLVALUE CALLDATASIZE CALLDATASIZE CODESIZE 0x2C 0x2D BALANCE CALLDATASIZE 0x2E CALLDATASIZE CALLVALUE ADDRESS ORIGIN ORIGIN CALLER KECCAK256 CALLDATALOAD 0x2E ADDRESS CALLER CALLDATALOAD CALLDATACOPY CALLER CODECOPY 0x2C 0x2D CALLDATALOAD 0x2E CODECOPY CODESIZE ORIGIN CALLDATALOAD CALLVALUE CODESIZE KECCAK256 BALANCE BALANCE 0x2E ORIGIN CALLDATACOPY CALLVALUE CALLER BALANCE CALLDATALOAD 0x2C 0x2D CODECOPY 0x2E ORIGIN CALLER CALLDATALOAD CODESIZE CALLDATACOPY CODECOPY KECCAK256 BALANCE CALLDATACOPY 0x2E CODESIZE CALLVALUE CALLVALUE CALLDATALOAD CALLDATACOPY 0x2C 0x2D BALANCE CALLER 0x2E CODECOPY ORIGIN CALLDATASIZE CALLDATACOPY ADDRESS CALLVALUE KECCAK256 CALLDATACOPY 0x2E CODESIZE CALLVALUE CALLDATASIZE CALLDATASIZE ADDRESS CODESIZE 0x2C 0x2D CALLVALUE 0x2E CALLDATALOAD CALLDATACOPY ADDRESS CALLDATACOPY CALLVALUE ORIGIN KECCAK256 BALANCE CODESIZE 0x2E CALLDATACOPY CALLDATASIZE CALLDATALOAD CODESIZE CALLDATASIZE CODECOPY 0x2C BALANCE 0x2E CODECOPY CALLER CODESIZE CALLDATACOPY ORIGIN KECCAK256 ORIGIN CALLDATASIZE 0x2E CODECOPY CALLER CODESIZE CODESIZE ORIGIN ORIGIN 0x2C CALLER 0x2E CODECOPY CODECOPY BALANCE CALLVALUE CALLDATASIZE CODESIZE KECCAK256 BALANCE CALLDATASIZE 0x2E ORIGIN BALANCE CALLDATASIZE ORIGIN CALLVALUE BALANCE 0x2C CALLVALUE 0x2E ADDRESS CALLVALUE CALLDATASIZE CALLDATACOPY ORIGIN CALLDATACOPY KECCAK256 ORIGIN ORIGIN 0x2E CODECOPY BALANCE CALLDATALOAD CODESIZE CALLER BALANCE 0x2C CALLDATACOPY 0x2E ADDRESS CALLDATACOPY CALLER CALLER CODECOPY CODECOPY KECCAK256 ORIGIN CALLDATASIZE 0x2E CALLDATACOPY CALLER ORIGIN ADDRESS CALLDATASIZE BALANCE 0x2C BALANCE ORIGIN 0x2E ADDRESS CALLDATACOPY CALLDATASIZE CALLDATACOPY CALLER BALANCE KECCAK256 CALLER 0x2E CALLDATASIZE CALLDATASIZE CODESIZE CALLVALUE CALLER 0x2C CALLER 0x2E CALLDATALOAD CALLER CALLDATALOAD CALLDATASIZE ORIGIN CODECOPY KECCAK256 ORIGIN 0x2E BALANCE CODECOPY CALLDATALOAD CODESIZE CALLDATALOAD 0x2C CALLDATASIZE 0x2E CALLER ORIGIN CALLDATACOPY BALANCE CODESIZE KECCAK256 BALANCE 0x2E CALLER CALLDATASIZE ORIGIN CODECOPY CODECOPY 0x2C BALANCE BALANCE 0x2E ADDRESS BALANCE CALLVALUE CALLDATALOAD CALLDATACOPY CALLDATASIZE KECCAK256 PUSH13 0x202D312E333239382C372E3438 CALLVALUE BALANCE CALLDATALOAD ORIGIN KECCAK256 PUSH4 0x202D322E CALLVALUE BALANCE CALLDATALOAD CALLVALUE CALLDATACOPY 0x2C ADDRESS 0x2E ORIGIN BALANCE CODESIZE BALANCE CODECOPY CALLDATALOAD KECCAK256 0x2D CODESIZE 0x2E CALLDATALOAD CALLVALUE BALANCE BALANCE BALANCE 0x2C 0x2D ADDRESS 0x2E CALLDATACOPY BALANCE CODESIZE CALLDATACOPY ADDRESS CALLDATALOAD KECCAK256 0x2D CALLDATASIZE 0x2E CALLER ORIGIN CALLDATASIZE CALLDATALOAD CALLDATALOAD 0x2C BALANCE 0x2E CALLDATACOPY CALLDATALOAD BALANCE CODESIZE CALLER KECCAK256 BALANCE 0x2E CALLDATACOPY ADDRESS CALLER ADDRESS CODESIZE 0x2C BALANCE 0x2E CALLDATACOPY CALLER CODESIZE CALLVALUE CALLDATALOAD KECCAK256 ORIGIN 0x2E CALLDATACOPY CALLDATASIZE CALLER ADDRESS CODECOPY 0x2C BALANCE ORIGIN 0x2E CALLER BALANCE ORIGIN ADDRESS BALANCE CALLDATALOAD KECCAK256 CALLDATALOAD 0x2E ADDRESS ADDRESS CALLDATASIZE BALANCE BALANCE 0x2C CALLDATALOAD 0x2E CODECOPY CALLDATALOAD CODESIZE CALLVALUE ADDRESS CALLVALUE KECCAK256 ORIGIN 0x2E ADDRESS CODECOPY CALLDATASIZE CALLDATASIZE CODESIZE 0x2C 0x2D ORIGIN 0x2E ORIGIN ORIGIN CODESIZE CODESIZE ORIGIN CALLDATALOAD KECCAK256 CALLDATALOAD 0x2E CALLDATASIZE CALLDATASIZE CODESIZE BALANCE ORIGIN 0x2C 0x2D BALANCE 0x2E CALLVALUE CALLDATALOAD CALLDATASIZE CALLDATALOAD CALLVALUE CODESIZE KECCAK256 CALLDATACOPY 0x2E CALLDATALOAD ADDRESS BALANCE CODESIZE CODECOPY 0x2C 0x2D CALLER 0x2E CALLDATALOAD CALLVALUE BALANCE CODESIZE ORIGIN KECCAK256 0x2D ADDRESS 0x2E CALLVALUE CODECOPY ORIGIN CALLDATACOPY CALLDATALOAD 0x2C 0x2D ORIGIN 0x2E CALLDATASIZE CODECOPY CODESIZE CALLDATALOAD CALLVALUE CALLVALUE KECCAK256 0x2D CALLDATALOAD 0x2E CODECOPY CALLVALUE BALANCE BALANCE ORIGIN 0x2C 0x2D ADDRESS 0x2E ADDRESS ADDRESS CALLVALUE CALLER KECCAK256 0x2D CALLER 0x2E CALLDATACOPY CODESIZE CALLER CALLVALUE BALANCE 0x2C 0x2D ORIGIN 0x2E CALLDATASIZE CALLDATASIZE CODESIZE CALLVALUE BALANCE CALLVALUE KECCAK256 ADDRESS 0x2E CALLDATASIZE CODESIZE CALLVALUE CALLDATASIZE CODECOPY 0x2C 0x2D ADDRESS 0x2E CODESIZE ORIGIN CALLDATALOAD KECCAK256 ORIGIN 0x2E BALANCE ORIGIN CODECOPY CALLER CALLVALUE 0x2C 0x2D BALANCE 0x2E CALLDATALOAD KECCAK256 CALLER 0x2E ORIGIN BALANCE ADDRESS CALLER CALLVALUE 0x2C 0x2D BALANCE 0x2E CALLDATALOAD KECCAK256 CALLER 0x2E CALLDATALOAD CALLDATASIZE BALANCE CALLVALUE CALLDATASIZE 0x2C 0x2D ORIGIN 0x2E ORIGIN CODECOPY CODECOPY BALANCE CALLER CALLDATASIZE KECCAK256 ADDRESS 0x2E CALLER CALLDATASIZE CALLER CALLER CALLVALUE 0x2C 0x2D BALANCE ADDRESS 0x2E CALLDATACOPY CODECOPY ORIGIN ORIGIN CALLDATALOAD CODESIZE KECCAK256 0x2D ADDRESS 0x2E BALANCE CALLER CALLDATALOAD ADDRESS CALLDATACOPY 0x2C 0x2D BALANCE CALLDATALOAD 0x2E ORIGIN CALLDATASIZE CODESIZE CALLDATALOAD CALLDATACOPY KECCAK256 0x2D BALANCE BALANCE 0x2E ORIGIN CALLDATASIZE CALLER ADDRESS CODESIZE 0x2C 0x2D CALLDATALOAD CALLDATALOAD 0x2E CODECOPY ORIGIN CALLDATALOAD CALLER CALLDATALOAD CODESIZE KECCAK256 0x2D CODESIZE CALLER 0x2E ADDRESS BALANCE CALLDATASIZE CODESIZE CODECOPY CALLVALUE 0x2C 0x2D CALLER CALLDATACOPY 0x2E BALANCE CALLDATALOAD CALLDATASIZE CALLER CALLDATACOPY CODECOPY KECCAK256 0x2D CODESIZE CALLDATASIZE 0x2E ADDRESS CALLDATASIZE ADDRESS CALLVALUE CODECOPY CALLER 0x2C CALLDATALOAD 0x2E CODESIZE CALLDATALOAD CODECOPY CALLDATASIZE CALLER CODECOPY KECCAK256 0x2D BALANCE 0x2E CALLDATALOAD CODESIZE CODESIZE ADDRESS CALLDATASIZE CODESIZE 0x2C CODECOPY 0x2E CODECOPY CALLDATALOAD BALANCE ADDRESS CALLER CALLVALUE KECCAK256 0x2D ORIGIN 0x2E CALLDATACOPY ORIGIN CALLDATASIZE CALLDATASIZE ADDRESS CALLVALUE 0x2C BALANCE CALLDATACOPY 0x2E ORIGIN BALANCE BALANCE CALLDATASIZE CODESIZE CALLVALUE KECCAK256 ADDRESS 0x2E CALLVALUE CODESIZE CODECOPY ORIGIN CODESIZE 0x2C ORIGIN CALLVALUE 0x2E CODECOPY ADDRESS CODESIZE CODECOPY ORIGIN CALLDATASIZE KECCAK256 CALLER 0x2E BALANCE CALLDATASIZE CALLVALUE CALLER CODECOPY BALANCE 0x2C BALANCE ADDRESS 0x2E CALLDATACOPY BALANCE ADDRESS ORIGIN CALLDATACOPY KECCAK256 BALANCE BALANCE 0x2E BALANCE CALLDATACOPY CALLDATALOAD CALLER CALLER CODESIZE 0x2C ORIGIN ADDRESS 0x2E ORIGIN CALLDATALOAD BALANCE BALANCE CODECOPY KECCAK256 BALANCE CALLER 0x2E CODECOPY CALLDATALOAD CALLER CALLER CALLVALUE 0x2C ORIGIN CODECOPY 0x2E CALLDATACOPY ADDRESS ADDRESS BALANCE KECCAK256 ORIGIN 0x2E CALLER BALANCE CALLDATACOPY CODECOPY BALANCE 0x2C CODESIZE 0x2E CALLER BALANCE CODECOPY BALANCE CALLDATALOAD KECCAK256 ORIGIN 0x2E CALLDATALOAD CODESIZE CALLER CODESIZE CODESIZE 0x2C BALANCE ADDRESS 0x2E ORIGIN CODESIZE CALLVALUE CODESIZE CALLDATALOAD KECCAK256 BALANCE 0x2E CALLVALUE CALLVALUE ORIGIN CALLER 0x2C BALANCE ADDRESS 0x2E CALLDATASIZE CALLDATALOAD CODECOPY CALLDATASIZE CALLDATACOPY KECCAK256 0x2D BALANCE CALLER 0x2E CALLVALUE ORIGIN CODESIZE CALLDATACOPY CALLER 0x2C BALANCE ORIGIN 0x2E CALLDATASIZE CODECOPY CALLDATALOAD CALLDATACOPY CALLDATALOAD KECCAK256 0x2D CALLER ORIGIN 0x2E ADDRESS CALLVALUE CALLDATACOPY ORIGIN CALLDATACOPY CALLVALUE 0x2C ORIGIN ADDRESS 0x2E CALLDATASIZE CALLER CALLVALUE BALANCE CALLDATALOAD KECCAK256 0x2D CALLVALUE CODESIZE 0x2E CALLER ADDRESS CALLVALUE ADDRESS CALLDATACOPY ADDRESS ADDRESS CALLDATACOPY 0x2C ORIGIN CODESIZE 0x2E BALANCE CALLVALUE ADDRESS ORIGIN CALLER KECCAK256 0x2D ADDRESS 0x2E CALLER ORIGIN CALLDATACOPY CALLDATALOAD CODECOPY 0x2C ADDRESS KECCAK256 0x2D ADDRESS 0x2E CALLDATALOAD CODECOPY CALLDATALOAD CALLDATASIZE CALLER ADDRESS ADDRESS ADDRESS CALLVALUE CALLDATALOAD CALLDATACOPY CALLDATASIZE ORIGIN 0x2C 0x2D CALLER CALLVALUE 0x2E CALLDATASIZE CALLDATALOAD KECCAK256 0x2D ADDRESS 0x2E CALLDATALOAD CODECOPY CALLDATALOAD CALLDATASIZE CALLER ADDRESS ADDRESS ADDRESS CALLVALUE CALLDATALOAD CALLDATACOPY CALLDATASIZE ORIGIN 0x2C 0x2D CALLDATACOPY CALLDATASIZE 0x2E CODECOPY CODECOPY CODECOPY CODECOPY CODECOPY BALANCE KECCAK256 JUMP KECCAK256 0x2D ADDRESS 0x2E ADDRESS CODESIZE CALLDATACOPY CODECOPY CODECOPY ADDRESS ADDRESS BALANCE KECCAK256 0x4C KECCAK256 CALLDATACOPY CALLDATASIZE 0x2E ADDRESS BALANCE CALLDATALOAD CALLDATACOPY BALANCE CALLVALUE 0x2C ADDRESS 0x2E ORIGIN CALLDATALOAD ADDRESS CALLDATALOAD CODESIZE ORIGIN CALLER BALANCE KECCAK256 BALANCE CALLDATALOAD ADDRESS 0x2C 0x2D ADDRESS 0x2E ADDRESS CODESIZE CALLDATACOPY CODECOPY CODECOPY ADDRESS ADDRESS BALANCE KECCAK256 JUMP KECCAK256 CODECOPY CALLDATACOPY 0x2E ORIGIN CALLDATACOPY CODESIZE ORIGIN CALLVALUE CODECOPY KECCAK256 PUSH4 0x20302C34 CALLER 0x2E CALLVALUE CODECOPY CALLDATALOAD CODESIZE CALLER BALANCE KECCAK256 0x2D ADDRESS 0x2E CODESIZE CALLDATALOAD CALLDATASIZE CALLDATASIZE CALLDATASIZE 0x2C CALLDATACOPY CODESIZE 0x2E CALLDATACOPY CALLVALUE CODECOPY CODECOPY CODECOPY BALANCE KECCAK256 0x2D ADDRESS 0x2E CODESIZE CALLDATALOAD CALLDATASIZE CALLDATASIZE CALLDATASIZE 0x2C CALLDATACOPY CODESIZE 0x2E CALLDATACOPY CALLVALUE CODECOPY CODECOPY CODECOPY BALANCE KECCAK256 0x2D CODECOPY 0x2E CALLDATASIZE CALLDATACOPY BALANCE ORIGIN CALLVALUE 0x2C 0x2D CALLDATASIZE 0x2E BALANCE CALLDATASIZE ADDRESS BALANCE CODESIZE KECCAK256 0x2D ORIGIN CALLDATASIZE 0x2E CALLER ORIGIN CALLVALUE CALLER CALLDATACOPY 0x2C 0x2D BALANCE ADDRESS 0x2E CALLDATALOAD CALLDATASIZE ADDRESS CALLDATACOPY CALLDATALOAD KECCAK256 0x2D CALLER BALANCE 0x2E CALLDATASIZE ADDRESS CALLDATALOAD CALLER CALLDATACOPY 0x2C 0x2D BALANCE CODECOPY 0x2E CODESIZE BALANCE BALANCE BALANCE BALANCE KECCAK256 0x2D CODECOPY 0x2E CALLVALUE CALLDATACOPY CALLVALUE ADDRESS BALANCE 0x2C 0x2D BALANCE CALLDATALOAD 0x2E CALLER CALLER CALLDATACOPY CALLVALUE BALANCE KECCAK256 0x2D BALANCE CALLVALUE 0x2E CALLER CALLER CODECOPY CALLDATALOAD CALLDATALOAD 0x2C ORIGIN CALLER 0x2E CODECOPY CODECOPY CALLVALUE CALLDATACOPY ORIGIN KECCAK256 0x2D BALANCE CALLDATACOPY 0x2E CODESIZE CODECOPY ORIGIN CALLDATASIZE ORIGIN CODESIZE 0x2C ORIGIN CODECOPY 0x2E CODESIZE CALLVALUE ADDRESS ORIGIN CALLDATASIZE KECCAK256 0x2D CALLVALUE 0x2E CALLVALUE CODECOPY ORIGIN BALANCE CODESIZE CALLDATALOAD 0x2C CALLDATASIZE 0x2E CALLVALUE ADDRESS ORIGIN CODECOPY CALLER KECCAK256 0x2D BALANCE CALLDATACOPY 0x2E CALLER BALANCE ADDRESS CALLDATASIZE BALANCE CALLVALUE 0x2C ORIGIN ORIGIN 0x2E CALLDATALOAD CODESIZE BALANCE CALLVALUE CALLDATACOPY KECCAK256 0x2D ORIGIN CALLVALUE 0x2E CALLDATALOAD CALLVALUE CODESIZE CODECOPY CALLDATALOAD CALLDATALOAD 0x2C ORIGIN CALLER 0x2E BALANCE BALANCE BALANCE ADDRESS CODECOPY KECCAK256 0x2D CALLDATASIZE 0x2E CALLER BALANCE CALLDATASIZE CALLDATASIZE CALLER CALLER 0x2C 0x2D ORIGIN 0x2E ADDRESS CALLDATASIZE BALANCE CALLER CALLER KECCAK256 0x2D BALANCE ORIGIN 0x2E CODECOPY BALANCE ORIGIN CODECOPY CODESIZE CALLDATASIZE 0x2C 0x2D CODECOPY 0x2E BALANCE CALLDATACOPY CODESIZE CALLVALUE CALLDATACOPY KECCAK256 0x2D BALANCE CALLVALUE 0x2E ADDRESS CODECOPY CALLDATASIZE CALLER CODECOPY 0x2C 0x2D BALANCE CALLDATACOPY 0x2E CALLVALUE CALLDATASIZE ORIGIN CALLDATASIZE CALLDATACOPY KECCAK256 PUSH27 0x204D203130322C3132362E393032333720432039342E3835353335 CALLDATALOAD 0x2C BALANCE BALANCE CALLDATASIZE 0x2E CODESIZE CALLVALUE CALLER ADDRESS CALLVALUE KECCAK256 CODECOPY CALLVALUE 0x2E CODECOPY CALLDATACOPY ORIGIN ADDRESS CODESIZE CODESIZE 0x2C BALANCE BALANCE CODECOPY 0x2E BALANCE CALLDATACOPY CALLDATASIZE KECCAK256 CODECOPY CODESIZE 0x2E ORIGIN ADDRESS CALLER CALLDATALOAD ADDRESS ORIGIN 0x2C BALANCE ORIGIN CODESIZE 0x2E CODESIZE CODESIZE CALLDATALOAD CALLVALUE CALLDATACOPY KECCAK256 CODECOPY CODECOPY 0x2E CALLDATALOAD CALLDATASIZE CALLDATASIZE CALLER CALLDATALOAD ORIGIN 0x2C BALANCE CALLER ADDRESS 0x2E CALLDATASIZE ADDRESS CALLDATASIZE CALLDATASIZE KECCAK256 BALANCE ADDRESS ORIGIN 0x2C BALANCE ORIGIN CODECOPY 0x2E CALLER CALLER CALLDATALOAD CALLER CODESIZE KECCAK256 BALANCE ADDRESS ORIGIN 0x2C BALANCE ORIGIN CALLDATASIZE 0x2E CODECOPY ADDRESS ORIGIN CALLER CALLDATACOPY KECCAK256 GAS KECCAK256 PUSH14 0x202D372E352C2D31362E37303734 CALLDATASIZE KECCAK256 PUSH4 0x202D302E CALLVALUE CODESIZE CALLVALUE CODECOPY CALLDATASIZE CODESIZE 0x2C 0x2D BALANCE 0x2E CALLDATALOAD ADDRESS ADDRESS BALANCE CALLDATASIZE KECCAK256 0x2D CALLVALUE 0x2E ORIGIN CODESIZE CALLVALUE CODESIZE CODESIZE CODESIZE 0x2C 0x2D BALANCE 0x2E BALANCE CALLDATACOPY ORIGIN BALANCE BALANCE KECCAK256 0x2D ORIGIN 0x2E CALLDATALOAD 0x2C ADDRESS KECCAK256 BALANCE 0x2E CODESIZE CALLDATASIZE ADDRESS CALLDATACOPY CALLER CALLDATASIZE 0x2C BALANCE 0x2E ORIGIN ADDRESS ORIGIN CALLDATALOAD KECCAK256 BALANCE 0x2E CALLDATACOPY CALLDATALOAD CALLDATASIZE CODESIZE BALANCE CALLVALUE 0x2C BALANCE 0x2E ORIGIN ADDRESS ORIGIN CALLDATALOAD KECCAK256 ORIGIN 0x2E CALLDATALOAD 0x2C ADDRESS KECCAK256 PUSH27 0x204D2035342E3530353232372C37352E313836343536206320302E CALLER CALLVALUE ORIGIN CODESIZE 0x2C 0x2D ADDRESS 0x2E CALLDATALOAD CALLDATALOAD CALLVALUE CALLDATASIZE CALLDATALOAD ORIGIN KECCAK256 0x2D ADDRESS 0x2E CALLVALUE BALANCE CODESIZE BALANCE CALLDATALOAD 0x2C 0x2D BALANCE 0x2E CALLVALUE ADDRESS ORIGIN ORIGIN KECCAK256 0x2D BALANCE 0x2E CALLDATASIZE CODECOPY ADDRESS CODECOPY CODESIZE 0x2C 0x2D BALANCE 0x2E CODESIZE CODESIZE CALLER CALLVALUE CALLVALUE KECCAK256 0x2D CALLDATALOAD 0x2E CALLDATASIZE CALLER CALLDATACOPY CODESIZE CALLER CALLER 0x2C 0x2D BALANCE 0x2E CALLDATASIZE CALLVALUE ADDRESS CODESIZE CALLVALUE CODESIZE KECCAK256 ADDRESS 0x2E ADDRESS ORIGIN ADDRESS CODESIZE 0x2C CALLVALUE 0x2E CALLVALUE CALLER CALLDATACOPY CALLDATALOAD BALANCE CALLDATALOAD KECCAK256 BALANCE 0x2E CALLDATASIZE CODECOPY ADDRESS CODECOPY CODESIZE 0x2C BALANCE 0x2E CODESIZE CODESIZE CALLER CALLVALUE CALLVALUE KECCAK256 PUSH27 0x206D202D392E31323131382C33322E3536363836342063202D312E ORIGIN CODECOPY ORIGIN ADDRESS CODECOPY 0x2C 0x2D CALLER 0x2E CALLER CALLDATASIZE CALLDATACOPY BALANCE ORIGIN KECCAK256 ADDRESS 0x2E BALANCE CALLDATALOAD BALANCE ADDRESS CODESIZE 0x2C 0x2D CALLVALUE 0x2E BALANCE CODECOPY ORIGIN CALLDATACOPY BALANCE KECCAK256 ORIGIN 0x2E CALLVALUE CALLVALUE ORIGIN ADDRESS BALANCE 0x2C 0x2D BALANCE 0x2E CALLER CODECOPY CALLDATACOPY KECCAK256 CALLER 0x2E CALLDATALOAD CALLVALUE CODECOPY ADDRESS CALLDATALOAD BALANCE 0x2C CALLER 0x2E CALLDATALOAD BALANCE CALLDATASIZE CALLVALUE CALLDATASIZE KECCAK256 0x2D ADDRESS 0x2E CALLDATACOPY BALANCE CALLDATACOPY CALLDATASIZE CODESIZE CALLDATACOPY 0x2C CALLER 0x2E CALLDATALOAD CODESIZE CALLER CALLDATACOPY CALLER KECCAK256 0x2D ORIGIN 0x2E CALLVALUE CALLVALUE ORIGIN ADDRESS BALANCE 0x2C BALANCE 0x2E CALLER CODECOPY CALLDATACOPY KECCAK256 PUSH27 0x22207472616E73666F726D3D227472616E736C61746528302C2D35 ADDRESS 0x29 KECCAK256 PUSH20 0x63616C6528322E37353829222F3EA26469706673 PC 0x22 SLT KECCAK256 REVERT SWAP12 PUSH22 0x8352897C52355F79DDF53B967ACE0CB6AE4B195101BD GAS 0xB3 0x2C 0x5C CREATE 0xEF 0xC7 PUSH5 0x736F6C6343 STOP ADDMOD SMOD STOP CALLER "
		},
		"gasEstimates": {
			"creation": {
				"codeDepositCost": "1522400",
				"executionCost": "1589",
				"totalCost": "1523989"
			},
			"external": {
				"getSVG(uint256)": "infinite"
			}
		},
		"methodIdentifiers": {
			"getSVG(uint256)": "be985ac9"
		}
	},
	"abi": [
		{
			"inputs": [
				{
					"internalType": "uint256",
					"name": "level",
					"type": "uint256"
				}
			],
			"name": "getSVG",
			"outputs": [
				{
					"internalType": "string",
					"name": "svg",
					"type": "string"
				}
			],
			"stateMutability": "pure",
			"type": "function"
		}
	]
}