{
	"data": {
		"bytecode": {
			"linkReferences": {},
			"object": "60a0604052736168499c0cffcacd319c818142124b7a15e857ab600260006101000a81548173ffffffffffffffffffffffffffffffffffffffff021916908373ffffffffffffffffffffffffffffffffffffffff1602179055507fd89b2bf150e3b9e13446986e571fb9cab24b13cea0a43ea20a6049a85cc807cc60001b600355620f4240600460006101000a81548163ffffffff021916908363ffffffff16021790555060036004806101000a81548161ffff021916908361ffff1602179055506001600460066101000a81548163ffffffff021916908363ffffffff1602179055506000600a55662386f26fc10000600b556000600c553480156200010557600080fd5b50604051620017b2380380620017b283398181016040528101906200012b9190620002c9565b600260009054906101000a900473ffffffffffffffffffffffffffffffffffffffff168073ffffffffffffffffffffffffffffffffffffffff1660808173ffffffffffffffffffffffffffffffffffffffff1660601b8152505050600260009054906101000a900473ffffffffffffffffffffffffffffffffffffffff166000806101000a81548173ffffffffffffffffffffffffffffffffffffffff021916908373ffffffffffffffffffffffffffffffffffffffff16021790555080600160006101000a81548173ffffffffffffffffffffffffffffffffffffffff021916908373ffffffffffffffffffffffffffffffffffffffff16021790555033600760006101000a81548173ffffffffffffffffffffffffffffffffffffffff021916908373ffffffffffffffffffffffffffffffffffffffff16021790555081600160146101000a81548167ffffffffffffffff021916908367ffffffffffffffff160217905550505062000391565b600081519050620002ac816200035d565b92915050565b600081519050620002c38162000377565b92915050565b60008060408385031215620002e357620002e262000358565b5b6000620002f385828601620002b2565b925050602062000306858286016200029b565b9150509250929050565b60006200031d8262000324565b9050919050565b600073ffffffffffffffffffffffffffffffffffffffff82169050919050565b600067ffffffffffffffff82169050919050565b600080fd5b620003688162000310565b81146200037457600080fd5b50565b620003828162000344565b81146200038e57600080fd5b50565b60805160601c6113fb620003b76000396000818161054f01526105a301526113fb6000f3fe6080604052600436106100555760003560e01c80630a67d2c71461005a5780631249c58b146100835780631fe543e31461009a57806349f22cd8146100c3578063e89e106a146100cd578063f6eaffc8146100f8575b600080fd5b34801561006657600080fd5b50610081600480360381019061007c9190610cc6565b610135565b005b34801561008f57600080fd5b50610098610228565b005b3480156100a657600080fd5b506100c160048036038101906100bc9190610d4d565b61054d565b005b6100cb61060d565b005b3480156100d957600080fd5b506100e2610890565b6040516100ef9190610f48565b60405180910390f35b34801561010457600080fd5b5061011f600480360381019061011a9190610cf3565b610896565b60405161012c9190610f48565b60405180910390f35b600760009054906101000a900473ffffffffffffffffffffffffffffffffffffffff1673ffffffffffffffffffffffffffffffffffffffff163373ffffffffffffffffffffffffffffffffffffffff161461018f57600080fd5b6000600c54116101d4576040517f08c379a00000000000000000000000000000000000000000000000000000000081526004016101cb90610f08565b60405180910390fd5b8073ffffffffffffffffffffffffffffffffffffffff166108fc600c549081150290604051600060405180830381858888f1935050505015801561021c573d6000803e3d6000fd5b506000600c8190555050565b6008339080600181540180825580915050600190039060005260206000200160009091909190916101000a81548173ffffffffffffffffffffffffffffffffffffffff021916908373ffffffffffffffffffffffffffffffffffffffff1602179055506009600a90806001815401808255809150506001900390600052602060002001600090919091909150556000606490506000806000806000805b6009600a54815481106102db576102da61129c565b5b90600052602060002001548110156103c957600060058883604051602001610304929190610e60565b6040516020818303038152906040528051906020012060001c610327919061120d565b9050600081141561034557868061033d906111ba565b9750506103b5565b6001811415610361578580610359906111ba565b9650506103b4565b600281141561037d578480610375906111ba565b9550506103b3565b6003811415610399578380610391906111ba565b9450506103b2565b60048114156103b15782806103ad906111ba565b9350505b5b5b5b5b5080806103c1906111ba565b9150506102c5565b5060006040518060a0016040528087815260200186815260200185815260200184815260200183815250905060005b60058110156105295760008282600581106104165761041561129c565b5b6020020151111561051657600160009054906101000a900473ffffffffffffffffffffffffffffffffffffffff1673ffffffffffffffffffffffffffffffffffffffff16633feb9f7d60048361046c9190611083565b6008600a54815481106104825761048161129c565b5b9060005260206000200160009054906101000a900473ffffffffffffffffffffffffffffffffffffffff168585600581106104c0576104bf61129c565b5b60200201516040518463ffffffff1660e01b81526004016104e393929190610f63565b600060405180830381600087803b1580156104fd57600080fd5b505af1158015610511573d6000803e3d6000fd5b505050505b8080610521906111ba565b9150506103f8565b506001600a600082825461053d9190610ffc565b9250508190555050505050505050565b7f000000000000000000000000000000000000000000000000000000000000000073ffffffffffffffffffffffffffffffffffffffff163373ffffffffffffffffffffffffffffffffffffffff16146105ff57337f00000000000000000000000000000000000000000000000000000000000000006040517f1cf993f40000000000000000000000000000000000000000000000000000000081526004016105f6929190610e8c565b60405180910390fd5b61060982826108ba565b5050565b600b543411610651576040517f08c379a000000000000000000000000000000000000000000000000000000000815260040161064890610f28565b60405180910390fd5b60008054906101000a900473ffffffffffffffffffffffffffffffffffffffff1673ffffffffffffffffffffffffffffffffffffffff16635d3b1d30600354600160149054906101000a900467ffffffffffffffff1660048054906101000a900461ffff16600460009054906101000a900463ffffffff16600460069054906101000a900463ffffffff166040518663ffffffff1660e01b81526004016106fc959493929190610eb5565b602060405180830381600087803b15801561071657600080fd5b505af115801561072a573d6000803e3d6000fd5b505050506040513d601f19601f8201168201806040525081019061074e9190610d20565b6006819055506008339080600181540180825580915050600190039060005260206000200160009091909190916101000a81548173ffffffffffffffffffffffffffffffffffffffff021916908373ffffffffffffffffffffffffffffffffffffffff1602179055506000600b54346107c79190611052565b9050600981908060018154018082558091505060019003906000526020600020016000909190919091505534600b54826108019190611083565b1015610867573373ffffffffffffffffffffffffffffffffffffffff166108fc600b548361082f9190611083565b3461083a91906110dd565b9081150290604051600060405180830381858888f19350505050158015610865573d6000803e3d6000fd5b505b600b54816108759190611083565b600c60008282546108869190610ffc565b9250508190555050565b60065481565b600581815481106108a657600080fd5b906000526020600020016000915090505481565b80600590805190602001906108d0929190610b7f565b506000806000806000805b6009600a54815481106108f1576108f061129c565b5b90600052602060002001548110156109fa57600060058860008151811061091b5761091a61129c565b5b602002602001015183604051602001610935929190610e60565b6040516020818303038152906040528051906020012060001c610958919061120d565b9050600081141561097657868061096e906111ba565b9750506109e6565b600181141561099257858061098a906111ba565b9650506109e5565b60028114156109ae5784806109a6906111ba565b9550506109e4565b60038114156109ca5783806109c2906111ba565b9450506109e3565b60048114156109e25782806109de906111ba565b9350505b5b5b5b5b5080806109f2906111ba565b9150506108db565b5060006040518060a0016040528087815260200186815260200185815260200184815260200183815250905060005b6005811015610b5a576000828260058110610a4757610a4661129c565b5b60200201511115610b4757600160009054906101000a900473ffffffffffffffffffffffffffffffffffffffff1673ffffffffffffffffffffffffffffffffffffffff16633feb9f7d600483610a9d9190611083565b6008600a5481548110610ab357610ab261129c565b5b9060005260206000200160009054906101000a900473ffffffffffffffffffffffffffffffffffffffff16858560058110610af157610af061129c565b5b60200201516040518463ffffffff1660e01b8152600401610b1493929190610f63565b600060405180830381600087803b158015610b2e57600080fd5b505af1158015610b42573d6000803e3d6000fd5b505050505b8080610b52906111ba565b915050610a29565b506001600a6000828254610b6e9190610ffc565b925050819055505050505050505050565b828054828255906000526020600020908101928215610bbb579160200282015b82811115610bba578251825591602001919060010190610b9f565b5b509050610bc89190610bcc565b5090565b5b80821115610be5576000816000905550600101610bcd565b5090565b6000610bfc610bf784610fbf565b610f9a565b90508083825260208201905082856020860282011115610c1f57610c1e6112ff565b5b60005b85811015610c4f5781610c358882610c9c565b845260208401935060208301925050600181019050610c22565b5050509392505050565b600081359050610c6881611397565b92915050565b600082601f830112610c8357610c826112fa565b5b8135610c93848260208601610be9565b91505092915050565b600081359050610cab816113ae565b92915050565b600081519050610cc0816113ae565b92915050565b600060208284031215610cdc57610cdb611309565b5b6000610cea84828501610c59565b91505092915050565b600060208284031215610d0957610d08611309565b5b6000610d1784828501610c9c565b91505092915050565b600060208284031215610d3657610d35611309565b5b6000610d4484828501610cb1565b91505092915050565b60008060408385031215610d6457610d63611309565b5b6000610d7285828601610c9c565b925050602083013567ffffffffffffffff811115610d9357610d92611304565b5b610d9f85828601610c6e565b9150509250929050565b610db281611111565b82525050565b610dc181611123565b82525050565b6000610dd4600983610feb565b9150610ddf8261131f565b602082019050919050565b6000610df7602883610feb565b9150610e0282611348565b604082019050919050565b610e168161112d565b82525050565b610e258161115b565b82525050565b610e3c610e378261115b565b611203565b82525050565b610e4b81611165565b82525050565b610e5a81611175565b82525050565b6000610e6c8285610e2b565b602082019150610e7c8284610e2b565b6020820191508190509392505050565b6000604082019050610ea16000830185610da9565b610eae6020830184610da9565b9392505050565b600060a082019050610eca6000830188610db8565b610ed76020830187610e51565b610ee46040830186610e0d565b610ef16060830185610e42565b610efe6080830184610e42565b9695505050505050565b60006020820190508181036000830152610f2181610dc7565b9050919050565b60006020820190508181036000830152610f4181610dea565b9050919050565b6000602082019050610f5d6000830184610e1c565b92915050565b6000606082019050610f786000830186610e1c565b610f856020830185610da9565b610f926040830184610e1c565b949350505050565b6000610fa4610fb5565b9050610fb08282611189565b919050565b6000604051905090565b600067ffffffffffffffff821115610fda57610fd96112cb565b5b602082029050602081019050919050565b600082825260208201905092915050565b60006110078261115b565b91506110128361115b565b9250827fffffffffffffffffffffffffffffffffffffffffffffffffffffffffffffffff038211156110475761104661123e565b5b828201905092915050565b600061105d8261115b565b91506110688361115b565b9250826110785761107761126d565b5b828204905092915050565b600061108e8261115b565b91506110998361115b565b9250817fffffffffffffffffffffffffffffffffffffffffffffffffffffffffffffffff04831182151516156110d2576110d161123e565b5b828202905092915050565b60006110e88261115b565b91506110f38361115b565b9250828210156111065761110561123e565b5b828203905092915050565b600061111c8261113b565b9050919050565b6000819050919050565b600061ffff82169050919050565b600073ffffffffffffffffffffffffffffffffffffffff82169050919050565b6000819050919050565b600063ffffffff82169050919050565b600067ffffffffffffffff82169050919050565b6111928261130e565b810181811067ffffffffffffffff821117156111b1576111b06112cb565b5b80604052505050565b60006111c58261115b565b91507fffffffffffffffffffffffffffffffffffffffffffffffffffffffffffffffff8214156111f8576111f761123e565b5b600182019050919050565b6000819050919050565b60006112188261115b565b91506112238361115b565b9250826112335761123261126d565b5b828206905092915050565b7f4e487b7100000000000000000000000000000000000000000000000000000000600052601160045260246000fd5b7f4e487b7100000000000000000000000000000000000000000000000000000000600052601260045260246000fd5b7f4e487b7100000000000000000000000000000000000000000000000000000000600052603260045260246000fd5b7f4e487b7100000000000000000000000000000000000000000000000000000000600052604160045260246000fd5b600080fd5b600080fd5b600080fd5b600080fd5b6000601f19601f8301169050919050565b7f4e6f2066756e64732e0000000000000000000000000000000000000000000000600082015250565b7f496e737566666963656e742046756e64732c20706c656173652073656e64206d60008201527f6f7265204554482e000000000000000000000000000000000000000000000000602082015250565b6113a081611111565b81146113ab57600080fd5b50565b6113b78161115b565b81146113c257600080fd5b5056fea2646970667358221220bc34da5e3552e5c8e84e491c8b1b89dd87f3abac619d7ae3a7cff6a3a7587bdb64736f6c63430008070033",
			"opcodes": "PUSH1 0xA0 PUSH1 0x40 MSTORE PUSH20 0x6168499C0CFFCACD319C818142124B7A15E857AB PUSH1 0x2 PUSH1 0x0 PUSH2 0x100 EXP DUP2 SLOAD DUP2 PUSH20 0xFFFFFFFFFFFFFFFFFFFFFFFFFFFFFFFFFFFFFFFF MUL NOT AND SWAP1 DUP4 PUSH20 0xFFFFFFFFFFFFFFFFFFFFFFFFFFFFFFFFFFFFFFFF AND MUL OR SWAP1 SSTORE POP PUSH32 0xD89B2BF150E3B9E13446986E571FB9CAB24B13CEA0A43EA20A6049A85CC807CC PUSH1 0x0 SHL PUSH1 0x3 SSTORE PUSH3 0xF4240 PUSH1 0x4 PUSH1 0x0 PUSH2 0x100 EXP DUP2 SLOAD DUP2 PUSH4 0xFFFFFFFF MUL NOT AND SWAP1 DUP4 PUSH4 0xFFFFFFFF AND MUL OR SWAP1 SSTORE POP PUSH1 0x3 PUSH1 0x4 DUP1 PUSH2 0x100 EXP DUP2 SLOAD DUP2 PUSH2 0xFFFF MUL NOT AND SWAP1 DUP4 PUSH2 0xFFFF AND MUL OR SWAP1 SSTORE POP PUSH1 0x1 PUSH1 0x4 PUSH1 0x6 PUSH2 0x100 EXP DUP2 SLOAD DUP2 PUSH4 0xFFFFFFFF MUL NOT AND SWAP1 DUP4 PUSH4 0xFFFFFFFF AND MUL OR SWAP1 SSTORE POP PUSH1 0x0 PUSH1 0xA SSTORE PUSH7 0x2386F26FC10000 PUSH1 0xB SSTORE PUSH1 0x0 PUSH1 0xC SSTORE CALLVALUE DUP1 ISZERO PUSH3 0x105 JUMPI PUSH1 0x0 DUP1 REVERT JUMPDEST POP PUSH1 0x40 MLOAD PUSH3 0x17B2 CODESIZE SUB DUP1 PUSH3 0x17B2 DUP4 CODECOPY DUP2 DUP2 ADD PUSH1 0x40 MSTORE DUP2 ADD SWAP1 PUSH3 0x12B SWAP2 SWAP1 PUSH3 0x2C9 JUMP JUMPDEST PUSH1 0x2 PUSH1 0x0 SWAP1 SLOAD SWAP1 PUSH2 0x100 EXP SWAP1 DIV PUSH20 0xFFFFFFFFFFFFFFFFFFFFFFFFFFFFFFFFFFFFFFFF AND DUP1 PUSH20 0xFFFFFFFFFFFFFFFFFFFFFFFFFFFFFFFFFFFFFFFF AND PUSH1 0x80 DUP2 PUSH20 0xFFFFFFFFFFFFFFFFFFFFFFFFFFFFFFFFFFFFFFFF AND PUSH1 0x60 SHL DUP2 MSTORE POP POP POP PUSH1 0x2 PUSH1 0x0 SWAP1 SLOAD SWAP1 PUSH2 0x100 EXP SWAP1 DIV PUSH20 0xFFFFFFFFFFFFFFFFFFFFFFFFFFFFFFFFFFFFFFFF AND PUSH1 0x0 DUP1 PUSH2 0x100 EXP DUP2 SLOAD DUP2 PUSH20 0xFFFFFFFFFFFFFFFFFFFFFFFFFFFFFFFFFFFFFFFF MUL NOT AND SWAP1 DUP4 PUSH20 0xFFFFFFFFFFFFFFFFFFFFFFFFFFFFFFFFFFFFFFFF AND MUL OR SWAP1 SSTORE POP DUP1 PUSH1 0x1 PUSH1 0x0 PUSH2 0x100 EXP DUP2 SLOAD DUP2 PUSH20 0xFFFFFFFFFFFFFFFFFFFFFFFFFFFFFFFFFFFFFFFF MUL NOT AND SWAP1 DUP4 PUSH20 0xFFFFFFFFFFFFFFFFFFFFFFFFFFFFFFFFFFFFFFFF AND MUL OR SWAP1 SSTORE POP CALLER PUSH1 0x7 PUSH1 0x0 PUSH2 0x100 EXP DUP2 SLOAD DUP2 PUSH20 0xFFFFFFFFFFFFFFFFFFFFFFFFFFFFFFFFFFFFFFFF MUL NOT AND SWAP1 DUP4 PUSH20 0xFFFFFFFFFFFFFFFFFFFFFFFFFFFFFFFFFFFFFFFF AND MUL OR SWAP1 SSTORE POP DUP2 PUSH1 0x1 PUSH1 0x14 PUSH2 0x100 EXP DUP2 SLOAD DUP2 PUSH8 0xFFFFFFFFFFFFFFFF MUL NOT AND SWAP1 DUP4 PUSH8 0xFFFFFFFFFFFFFFFF AND MUL OR SWAP1 SSTORE POP POP POP PUSH3 0x391 JUMP JUMPDEST PUSH1 0x0 DUP2 MLOAD SWAP1 POP PUSH3 0x2AC DUP2 PUSH3 0x35D JUMP JUMPDEST SWAP3 SWAP2 POP POP JUMP JUMPDEST PUSH1 0x0 DUP2 MLOAD SWAP1 POP PUSH3 0x2C3 DUP2 PUSH3 0x377 JUMP JUMPDEST SWAP3 SWAP2 POP POP JUMP JUMPDEST PUSH1 0x0 DUP1 PUSH1 0x40 DUP4 DUP6 SUB SLT ISZERO PUSH3 0x2E3 JUMPI PUSH3 0x2E2 PUSH3 0x358 JUMP JUMPDEST JUMPDEST PUSH1 0x0 PUSH3 0x2F3 DUP6 DUP3 DUP7 ADD PUSH3 0x2B2 JUMP JUMPDEST SWAP3 POP POP PUSH1 0x20 PUSH3 0x306 DUP6 DUP3 DUP7 ADD PUSH3 0x29B JUMP JUMPDEST SWAP2 POP POP SWAP3 POP SWAP3 SWAP1 POP JUMP JUMPDEST PUSH1 0x0 PUSH3 0x31D DUP3 PUSH3 0x324 JUMP JUMPDEST SWAP1 POP SWAP2 SWAP1 POP JUMP JUMPDEST PUSH1 0x0 PUSH20 0xFFFFFFFFFFFFFFFFFFFFFFFFFFFFFFFFFFFFFFFF DUP3 AND SWAP1 POP SWAP2 SWAP1 POP JUMP JUMPDEST PUSH1 0x0 PUSH8 0xFFFFFFFFFFFFFFFF DUP3 AND SWAP1 POP SWAP2 SWAP1 POP JUMP JUMPDEST PUSH1 0x0 DUP1 REVERT JUMPDEST PUSH3 0x368 DUP2 PUSH3 0x310 JUMP JUMPDEST DUP2 EQ PUSH3 0x374 JUMPI PUSH1 0x0 DUP1 REVERT JUMPDEST POP JUMP JUMPDEST PUSH3 0x382 DUP2 PUSH3 0x344 JUMP JUMPDEST DUP2 EQ PUSH3 0x38E JUMPI PUSH1 0x0 DUP1 REVERT JUMPDEST POP JUMP JUMPDEST PUSH1 0x80 MLOAD PUSH1 0x60 SHR PUSH2 0x13FB PUSH3 0x3B7 PUSH1 0x0 CODECOPY PUSH1 0x0 DUP2 DUP2 PUSH2 0x54F ADD MSTORE PUSH2 0x5A3 ADD MSTORE PUSH2 0x13FB PUSH1 0x0 RETURN INVALID PUSH1 0x80 PUSH1 0x40 MSTORE PUSH1 0x4 CALLDATASIZE LT PUSH2 0x55 JUMPI PUSH1 0x0 CALLDATALOAD PUSH1 0xE0 SHR DUP1 PUSH4 0xA67D2C7 EQ PUSH2 0x5A JUMPI DUP1 PUSH4 0x1249C58B EQ PUSH2 0x83 JUMPI DUP1 PUSH4 0x1FE543E3 EQ PUSH2 0x9A JUMPI DUP1 PUSH4 0x49F22CD8 EQ PUSH2 0xC3 JUMPI DUP1 PUSH4 0xE89E106A EQ PUSH2 0xCD JUMPI DUP1 PUSH4 0xF6EAFFC8 EQ PUSH2 0xF8 JUMPI JUMPDEST PUSH1 0x0 DUP1 REVERT JUMPDEST CALLVALUE DUP1 ISZERO PUSH2 0x66 JUMPI PUSH1 0x0 DUP1 REVERT JUMPDEST POP PUSH2 0x81 PUSH1 0x4 DUP1 CALLDATASIZE SUB DUP2 ADD SWAP1 PUSH2 0x7C SWAP2 SWAP1 PUSH2 0xCC6 JUMP JUMPDEST PUSH2 0x135 JUMP JUMPDEST STOP JUMPDEST CALLVALUE DUP1 ISZERO PUSH2 0x8F JUMPI PUSH1 0x0 DUP1 REVERT JUMPDEST POP PUSH2 0x98 PUSH2 0x228 JUMP JUMPDEST STOP JUMPDEST CALLVALUE DUP1 ISZERO PUSH2 0xA6 JUMPI PUSH1 0x0 DUP1 REVERT JUMPDEST POP PUSH2 0xC1 PUSH1 0x4 DUP1 CALLDATASIZE SUB DUP2 ADD SWAP1 PUSH2 0xBC SWAP2 SWAP1 PUSH2 0xD4D JUMP JUMPDEST PUSH2 0x54D JUMP JUMPDEST STOP JUMPDEST PUSH2 0xCB PUSH2 0x60D JUMP JUMPDEST STOP JUMPDEST CALLVALUE DUP1 ISZERO PUSH2 0xD9 JUMPI PUSH1 0x0 DUP1 REVERT JUMPDEST POP PUSH2 0xE2 PUSH2 0x890 JUMP JUMPDEST PUSH1 0x40 MLOAD PUSH2 0xEF SWAP2 SWAP1 PUSH2 0xF48 JUMP JUMPDEST PUSH1 0x40 MLOAD DUP1 SWAP2 SUB SWAP1 RETURN JUMPDEST CALLVALUE DUP1 ISZERO PUSH2 0x104 JUMPI PUSH1 0x0 DUP1 REVERT JUMPDEST POP PUSH2 0x11F PUSH1 0x4 DUP1 CALLDATASIZE SUB DUP2 ADD SWAP1 PUSH2 0x11A SWAP2 SWAP1 PUSH2 0xCF3 JUMP JUMPDEST PUSH2 0x896 JUMP JUMPDEST PUSH1 0x40 MLOAD PUSH2 0x12C SWAP2 SWAP1 PUSH2 0xF48 JUMP JUMPDEST PUSH1 0x40 MLOAD DUP1 SWAP2 SUB SWAP1 RETURN JUMPDEST PUSH1 0x7 PUSH1 0x0 SWAP1 SLOAD SWAP1 PUSH2 0x100 EXP SWAP1 DIV PUSH20 0xFFFFFFFFFFFFFFFFFFFFFFFFFFFFFFFFFFFFFFFF AND PUSH20 0xFFFFFFFFFFFFFFFFFFFFFFFFFFFFFFFFFFFFFFFF AND CALLER PUSH20 0xFFFFFFFFFFFFFFFFFFFFFFFFFFFFFFFFFFFFFFFF AND EQ PUSH2 0x18F JUMPI PUSH1 0x0 DUP1 REVERT JUMPDEST PUSH1 0x0 PUSH1 0xC SLOAD GT PUSH2 0x1D4 JUMPI PUSH1 0x40 MLOAD PUSH32 0x8C379A000000000000000000000000000000000000000000000000000000000 DUP2 MSTORE PUSH1 0x4 ADD PUSH2 0x1CB SWAP1 PUSH2 0xF08 JUMP JUMPDEST PUSH1 0x40 MLOAD DUP1 SWAP2 SUB SWAP1 REVERT JUMPDEST DUP1 PUSH20 0xFFFFFFFFFFFFFFFFFFFFFFFFFFFFFFFFFFFFFFFF AND PUSH2 0x8FC PUSH1 0xC SLOAD SWAP1 DUP2 ISZERO MUL SWAP1 PUSH1 0x40 MLOAD PUSH1 0x0 PUSH1 0x40 MLOAD DUP1 DUP4 SUB DUP2 DUP6 DUP9 DUP9 CALL SWAP4 POP POP POP POP ISZERO DUP1 ISZERO PUSH2 0x21C JUMPI RETURNDATASIZE PUSH1 0x0 DUP1 RETURNDATACOPY RETURNDATASIZE PUSH1 0x0 REVERT JUMPDEST POP PUSH1 0x0 PUSH1 0xC DUP2 SWAP1 SSTORE POP POP JUMP JUMPDEST PUSH1 0x8 CALLER SWAP1 DUP1 PUSH1 0x1 DUP2 SLOAD ADD DUP1 DUP3 SSTORE DUP1 SWAP2 POP POP PUSH1 0x1 SWAP1 SUB SWAP1 PUSH1 0x0 MSTORE PUSH1 0x20 PUSH1 0x0 KECCAK256 ADD PUSH1 0x0 SWAP1 SWAP2 SWAP1 SWAP2 SWAP1 SWAP2 PUSH2 0x100 EXP DUP2 SLOAD DUP2 PUSH20 0xFFFFFFFFFFFFFFFFFFFFFFFFFFFFFFFFFFFFFFFF MUL NOT AND SWAP1 DUP4 PUSH20 0xFFFFFFFFFFFFFFFFFFFFFFFFFFFFFFFFFFFFFFFF AND MUL OR SWAP1 SSTORE POP PUSH1 0x9 PUSH1 0xA SWAP1 DUP1 PUSH1 0x1 DUP2 SLOAD ADD DUP1 DUP3 SSTORE DUP1 SWAP2 POP POP PUSH1 0x1 SWAP1 SUB SWAP1 PUSH1 0x0 MSTORE PUSH1 0x20 PUSH1 0x0 KECCAK256 ADD PUSH1 0x0 SWAP1 SWAP2 SWAP1 SWAP2 SWAP1 SWAP2 POP SSTORE PUSH1 0x0 PUSH1 0x64 SWAP1 POP PUSH1 0x0 DUP1 PUSH1 0x0 DUP1 PUSH1 0x0 DUP1 JUMPDEST PUSH1 0x9 PUSH1 0xA SLOAD DUP2 SLOAD DUP2 LT PUSH2 0x2DB JUMPI PUSH2 0x2DA PUSH2 0x129C JUMP JUMPDEST JUMPDEST SWAP1 PUSH1 0x0 MSTORE PUSH1 0x20 PUSH1 0x0 KECCAK256 ADD SLOAD DUP2 LT ISZERO PUSH2 0x3C9 JUMPI PUSH1 0x0 PUSH1 0x5 DUP9 DUP4 PUSH1 0x40 MLOAD PUSH1 0x20 ADD PUSH2 0x304 SWAP3 SWAP2 SWAP1 PUSH2 0xE60 JUMP JUMPDEST PUSH1 0x40 MLOAD PUSH1 0x20 DUP2 DUP4 SUB SUB DUP2 MSTORE SWAP1 PUSH1 0x40 MSTORE DUP1 MLOAD SWAP1 PUSH1 0x20 ADD KECCAK256 PUSH1 0x0 SHR PUSH2 0x327 SWAP2 SWAP1 PUSH2 0x120D JUMP JUMPDEST SWAP1 POP PUSH1 0x0 DUP2 EQ ISZERO PUSH2 0x345 JUMPI DUP7 DUP1 PUSH2 0x33D SWAP1 PUSH2 0x11BA JUMP JUMPDEST SWAP8 POP POP PUSH2 0x3B5 JUMP JUMPDEST PUSH1 0x1 DUP2 EQ ISZERO PUSH2 0x361 JUMPI DUP6 DUP1 PUSH2 0x359 SWAP1 PUSH2 0x11BA JUMP JUMPDEST SWAP7 POP POP PUSH2 0x3B4 JUMP JUMPDEST PUSH1 0x2 DUP2 EQ ISZERO PUSH2 0x37D JUMPI DUP5 DUP1 PUSH2 0x375 SWAP1 PUSH2 0x11BA JUMP JUMPDEST SWAP6 POP POP PUSH2 0x3B3 JUMP JUMPDEST PUSH1 0x3 DUP2 EQ ISZERO PUSH2 0x399 JUMPI DUP4 DUP1 PUSH2 0x391 SWAP1 PUSH2 0x11BA JUMP JUMPDEST SWAP5 POP POP PUSH2 0x3B2 JUMP JUMPDEST PUSH1 0x4 DUP2 EQ ISZERO PUSH2 0x3B1 JUMPI DUP3 DUP1 PUSH2 0x3AD SWAP1 PUSH2 0x11BA JUMP JUMPDEST SWAP4 POP POP JUMPDEST JUMPDEST JUMPDEST JUMPDEST JUMPDEST POP DUP1 DUP1 PUSH2 0x3C1 SWAP1 PUSH2 0x11BA JUMP JUMPDEST SWAP2 POP POP PUSH2 0x2C5 JUMP JUMPDEST POP PUSH1 0x0 PUSH1 0x40 MLOAD DUP1 PUSH1 0xA0 ADD PUSH1 0x40 MSTORE DUP1 DUP8 DUP2 MSTORE PUSH1 0x20 ADD DUP7 DUP2 MSTORE PUSH1 0x20 ADD DUP6 DUP2 MSTORE PUSH1 0x20 ADD DUP5 DUP2 MSTORE PUSH1 0x20 ADD DUP4 DUP2 MSTORE POP SWAP1 POP PUSH1 0x0 JUMPDEST PUSH1 0x5 DUP2 LT ISZERO PUSH2 0x529 JUMPI PUSH1 0x0 DUP3 DUP3 PUSH1 0x5 DUP2 LT PUSH2 0x416 JUMPI PUSH2 0x415 PUSH2 0x129C JUMP JUMPDEST JUMPDEST PUSH1 0x20 MUL ADD MLOAD GT ISZERO PUSH2 0x516 JUMPI PUSH1 0x1 PUSH1 0x0 SWAP1 SLOAD SWAP1 PUSH2 0x100 EXP SWAP1 DIV PUSH20 0xFFFFFFFFFFFFFFFFFFFFFFFFFFFFFFFFFFFFFFFF AND PUSH20 0xFFFFFFFFFFFFFFFFFFFFFFFFFFFFFFFFFFFFFFFF AND PUSH4 0x3FEB9F7D PUSH1 0x4 DUP4 PUSH2 0x46C SWAP2 SWAP1 PUSH2 0x1083 JUMP JUMPDEST PUSH1 0x8 PUSH1 0xA SLOAD DUP2 SLOAD DUP2 LT PUSH2 0x482 JUMPI PUSH2 0x481 PUSH2 0x129C JUMP JUMPDEST JUMPDEST SWAP1 PUSH1 0x0 MSTORE PUSH1 0x20 PUSH1 0x0 KECCAK256 ADD PUSH1 0x0 SWAP1 SLOAD SWAP1 PUSH2 0x100 EXP SWAP1 DIV PUSH20 0xFFFFFFFFFFFFFFFFFFFFFFFFFFFFFFFFFFFFFFFF AND DUP6 DUP6 PUSH1 0x5 DUP2 LT PUSH2 0x4C0 JUMPI PUSH2 0x4BF PUSH2 0x129C JUMP JUMPDEST JUMPDEST PUSH1 0x20 MUL ADD MLOAD PUSH1 0x40 MLOAD DUP5 PUSH4 0xFFFFFFFF AND PUSH1 0xE0 SHL DUP2 MSTORE PUSH1 0x4 ADD PUSH2 0x4E3 SWAP4 SWAP3 SWAP2 SWAP1 PUSH2 0xF63 JUMP JUMPDEST PUSH1 0x0 PUSH1 0x40 MLOAD DUP1 DUP4 SUB DUP2 PUSH1 0x0 DUP8 DUP1 EXTCODESIZE ISZERO DUP1 ISZERO PUSH2 0x4FD JUMPI PUSH1 0x0 DUP1 REVERT JUMPDEST POP GAS CALL ISZERO DUP1 ISZERO PUSH2 0x511 JUMPI RETURNDATASIZE PUSH1 0x0 DUP1 RETURNDATACOPY RETURNDATASIZE PUSH1 0x0 REVERT JUMPDEST POP POP POP POP JUMPDEST DUP1 DUP1 PUSH2 0x521 SWAP1 PUSH2 0x11BA JUMP JUMPDEST SWAP2 POP POP PUSH2 0x3F8 JUMP JUMPDEST POP PUSH1 0x1 PUSH1 0xA PUSH1 0x0 DUP3 DUP3 SLOAD PUSH2 0x53D SWAP2 SWAP1 PUSH2 0xFFC JUMP JUMPDEST SWAP3 POP POP DUP2 SWAP1 SSTORE POP POP POP POP POP POP POP POP JUMP JUMPDEST PUSH32 0x0 PUSH20 0xFFFFFFFFFFFFFFFFFFFFFFFFFFFFFFFFFFFFFFFF AND CALLER PUSH20 0xFFFFFFFFFFFFFFFFFFFFFFFFFFFFFFFFFFFFFFFF AND EQ PUSH2 0x5FF JUMPI CALLER PUSH32 0x0 PUSH1 0x40 MLOAD PUSH32 0x1CF993F400000000000000000000000000000000000000000000000000000000 DUP2 MSTORE PUSH1 0x4 ADD PUSH2 0x5F6 SWAP3 SWAP2 SWAP1 PUSH2 0xE8C JUMP JUMPDEST PUSH1 0x40 MLOAD DUP1 SWAP2 SUB SWAP1 REVERT JUMPDEST PUSH2 0x609 DUP3 DUP3 PUSH2 0x8BA JUMP JUMPDEST POP POP JUMP JUMPDEST PUSH1 0xB SLOAD CALLVALUE GT PUSH2 0x651 JUMPI PUSH1 0x40 MLOAD PUSH32 0x8C379A000000000000000000000000000000000000000000000000000000000 DUP2 MSTORE PUSH1 0x4 ADD PUSH2 0x648 SWAP1 PUSH2 0xF28 JUMP JUMPDEST PUSH1 0x40 MLOAD DUP1 SWAP2 SUB SWAP1 REVERT JUMPDEST PUSH1 0x0 DUP1 SLOAD SWAP1 PUSH2 0x100 EXP SWAP1 DIV PUSH20 0xFFFFFFFFFFFFFFFFFFFFFFFFFFFFFFFFFFFFFFFF AND PUSH20 0xFFFFFFFFFFFFFFFFFFFFFFFFFFFFFFFFFFFFFFFF AND PUSH4 0x5D3B1D30 PUSH1 0x3 SLOAD PUSH1 0x1 PUSH1 0x14 SWAP1 SLOAD SWAP1 PUSH2 0x100 EXP SWAP1 DIV PUSH8 0xFFFFFFFFFFFFFFFF AND PUSH1 0x4 DUP1 SLOAD SWAP1 PUSH2 0x100 EXP SWAP1 DIV PUSH2 0xFFFF AND PUSH1 0x4 PUSH1 0x0 SWAP1 SLOAD SWAP1 PUSH2 0x100 EXP SWAP1 DIV PUSH4 0xFFFFFFFF AND PUSH1 0x4 PUSH1 0x6 SWAP1 SLOAD SWAP1 PUSH2 0x100 EXP SWAP1 DIV PUSH4 0xFFFFFFFF AND PUSH1 0x40 MLOAD DUP7 PUSH4 0xFFFFFFFF AND PUSH1 0xE0 SHL DUP2 MSTORE PUSH1 0x4 ADD PUSH2 0x6FC SWAP6 SWAP5 SWAP4 SWAP3 SWAP2 SWAP1 PUSH2 0xEB5 JUMP JUMPDEST PUSH1 0x20 PUSH1 0x40 MLOAD DUP1 DUP4 SUB DUP2 PUSH1 0x0 DUP8 DUP1 EXTCODESIZE ISZERO DUP1 ISZERO PUSH2 0x716 JUMPI PUSH1 0x0 DUP1 REVERT JUMPDEST POP GAS CALL ISZERO DUP1 ISZERO PUSH2 0x72A JUMPI RETURNDATASIZE PUSH1 0x0 DUP1 RETURNDATACOPY RETURNDATASIZE PUSH1 0x0 REVERT JUMPDEST POP POP POP POP PUSH1 0x40 MLOAD RETURNDATASIZE PUSH1 0x1F NOT PUSH1 0x1F DUP3 ADD AND DUP3 ADD DUP1 PUSH1 0x40 MSTORE POP DUP2 ADD SWAP1 PUSH2 0x74E SWAP2 SWAP1 PUSH2 0xD20 JUMP JUMPDEST PUSH1 0x6 DUP2 SWAP1 SSTORE POP PUSH1 0x8 CALLER SWAP1 DUP1 PUSH1 0x1 DUP2 SLOAD ADD DUP1 DUP3 SSTORE DUP1 SWAP2 POP POP PUSH1 0x1 SWAP1 SUB SWAP1 PUSH1 0x0 MSTORE PUSH1 0x20 PUSH1 0x0 KECCAK256 ADD PUSH1 0x0 SWAP1 SWAP2 SWAP1 SWAP2 SWAP1 SWAP2 PUSH2 0x100 EXP DUP2 SLOAD DUP2 PUSH20 0xFFFFFFFFFFFFFFFFFFFFFFFFFFFFFFFFFFFFFFFF MUL NOT AND SWAP1 DUP4 PUSH20 0xFFFFFFFFFFFFFFFFFFFFFFFFFFFFFFFFFFFFFFFF AND MUL OR SWAP1 SSTORE POP PUSH1 0x0 PUSH1 0xB SLOAD CALLVALUE PUSH2 0x7C7 SWAP2 SWAP1 PUSH2 0x1052 JUMP JUMPDEST SWAP1 POP PUSH1 0x9 DUP2 SWAP1 DUP1 PUSH1 0x1 DUP2 SLOAD ADD DUP1 DUP3 SSTORE DUP1 SWAP2 POP POP PUSH1 0x1 SWAP1 SUB SWAP1 PUSH1 0x0 MSTORE PUSH1 0x20 PUSH1 0x0 KECCAK256 ADD PUSH1 0x0 SWAP1 SWAP2 SWAP1 SWAP2 SWAP1 SWAP2 POP SSTORE CALLVALUE PUSH1 0xB SLOAD DUP3 PUSH2 0x801 SWAP2 SWAP1 PUSH2 0x1083 JUMP JUMPDEST LT ISZERO PUSH2 0x867 JUMPI CALLER PUSH20 0xFFFFFFFFFFFFFFFFFFFFFFFFFFFFFFFFFFFFFFFF AND PUSH2 0x8FC PUSH1 0xB SLOAD DUP4 PUSH2 0x82F SWAP2 SWAP1 PUSH2 0x1083 JUMP JUMPDEST CALLVALUE PUSH2 0x83A SWAP2 SWAP1 PUSH2 0x10DD JUMP JUMPDEST SWAP1 DUP2 ISZERO MUL SWAP1 PUSH1 0x40 MLOAD PUSH1 0x0 PUSH1 0x40 MLOAD DUP1 DUP4 SUB DUP2 DUP6 DUP9 DUP9 CALL SWAP4 POP POP POP POP ISZERO DUP1 ISZERO PUSH2 0x865 JUMPI RETURNDATASIZE PUSH1 0x0 DUP1 RETURNDATACOPY RETURNDATASIZE PUSH1 0x0 REVERT JUMPDEST POP JUMPDEST PUSH1 0xB SLOAD DUP2 PUSH2 0x875 SWAP2 SWAP1 PUSH2 0x1083 JUMP JUMPDEST PUSH1 0xC PUSH1 0x0 DUP3 DUP3 SLOAD PUSH2 0x886 SWAP2 SWAP1 PUSH2 0xFFC JUMP JUMPDEST SWAP3 POP POP DUP2 SWAP1 SSTORE POP POP JUMP JUMPDEST PUSH1 0x6 SLOAD DUP2 JUMP JUMPDEST PUSH1 0x5 DUP2 DUP2 SLOAD DUP2 LT PUSH2 0x8A6 JUMPI PUSH1 0x0 DUP1 REVERT JUMPDEST SWAP1 PUSH1 0x0 MSTORE PUSH1 0x20 PUSH1 0x0 KECCAK256 ADD PUSH1 0x0 SWAP2 POP SWAP1 POP SLOAD DUP2 JUMP JUMPDEST DUP1 PUSH1 0x5 SWAP1 DUP1 MLOAD SWAP1 PUSH1 0x20 ADD SWAP1 PUSH2 0x8D0 SWAP3 SWAP2 SWAP1 PUSH2 0xB7F JUMP JUMPDEST POP PUSH1 0x0 DUP1 PUSH1 0x0 DUP1 PUSH1 0x0 DUP1 JUMPDEST PUSH1 0x9 PUSH1 0xA SLOAD DUP2 SLOAD DUP2 LT PUSH2 0x8F1 JUMPI PUSH2 0x8F0 PUSH2 0x129C JUMP JUMPDEST JUMPDEST SWAP1 PUSH1 0x0 MSTORE PUSH1 0x20 PUSH1 0x0 KECCAK256 ADD SLOAD DUP2 LT ISZERO PUSH2 0x9FA JUMPI PUSH1 0x0 PUSH1 0x5 DUP9 PUSH1 0x0 DUP2 MLOAD DUP2 LT PUSH2 0x91B JUMPI PUSH2 0x91A PUSH2 0x129C JUMP JUMPDEST JUMPDEST PUSH1 0x20 MUL PUSH1 0x20 ADD ADD MLOAD DUP4 PUSH1 0x40 MLOAD PUSH1 0x20 ADD PUSH2 0x935 SWAP3 SWAP2 SWAP1 PUSH2 0xE60 JUMP JUMPDEST PUSH1 0x40 MLOAD PUSH1 0x20 DUP2 DUP4 SUB SUB DUP2 MSTORE SWAP1 PUSH1 0x40 MSTORE DUP1 MLOAD SWAP1 PUSH1 0x20 ADD KECCAK256 PUSH1 0x0 SHR PUSH2 0x958 SWAP2 SWAP1 PUSH2 0x120D JUMP JUMPDEST SWAP1 POP PUSH1 0x0 DUP2 EQ ISZERO PUSH2 0x976 JUMPI DUP7 DUP1 PUSH2 0x96E SWAP1 PUSH2 0x11BA JUMP JUMPDEST SWAP8 POP POP PUSH2 0x9E6 JUMP JUMPDEST PUSH1 0x1 DUP2 EQ ISZERO PUSH2 0x992 JUMPI DUP6 DUP1 PUSH2 0x98A SWAP1 PUSH2 0x11BA JUMP JUMPDEST SWAP7 POP POP PUSH2 0x9E5 JUMP JUMPDEST PUSH1 0x2 DUP2 EQ ISZERO PUSH2 0x9AE JUMPI DUP5 DUP1 PUSH2 0x9A6 SWAP1 PUSH2 0x11BA JUMP JUMPDEST SWAP6 POP POP PUSH2 0x9E4 JUMP JUMPDEST PUSH1 0x3 DUP2 EQ ISZERO PUSH2 0x9CA JUMPI DUP4 DUP1 PUSH2 0x9C2 SWAP1 PUSH2 0x11BA JUMP JUMPDEST SWAP5 POP POP PUSH2 0x9E3 JUMP JUMPDEST PUSH1 0x4 DUP2 EQ ISZERO PUSH2 0x9E2 JUMPI DUP3 DUP1 PUSH2 0x9DE SWAP1 PUSH2 0x11BA JUMP JUMPDEST SWAP4 POP POP JUMPDEST JUMPDEST JUMPDEST JUMPDEST JUMPDEST POP DUP1 DUP1 PUSH2 0x9F2 SWAP1 PUSH2 0x11BA JUMP JUMPDEST SWAP2 POP POP PUSH2 0x8DB JUMP JUMPDEST POP PUSH1 0x0 PUSH1 0x40 MLOAD DUP1 PUSH1 0xA0 ADD PUSH1 0x40 MSTORE DUP1 DUP8 DUP2 MSTORE PUSH1 0x20 ADD DUP7 DUP2 MSTORE PUSH1 0x20 ADD DUP6 DUP2 MSTORE PUSH1 0x20 ADD DUP5 DUP2 MSTORE PUSH1 0x20 ADD DUP4 DUP2 MSTORE POP SWAP1 POP PUSH1 0x0 JUMPDEST PUSH1 0x5 DUP2 LT ISZERO PUSH2 0xB5A JUMPI PUSH1 0x0 DUP3 DUP3 PUSH1 0x5 DUP2 LT PUSH2 0xA47 JUMPI PUSH2 0xA46 PUSH2 0x129C JUMP JUMPDEST JUMPDEST PUSH1 0x20 MUL ADD MLOAD GT ISZERO PUSH2 0xB47 JUMPI PUSH1 0x1 PUSH1 0x0 SWAP1 SLOAD SWAP1 PUSH2 0x100 EXP SWAP1 DIV PUSH20 0xFFFFFFFFFFFFFFFFFFFFFFFFFFFFFFFFFFFFFFFF AND PUSH20 0xFFFFFFFFFFFFFFFFFFFFFFFFFFFFFFFFFFFFFFFF AND PUSH4 0x3FEB9F7D PUSH1 0x4 DUP4 PUSH2 0xA9D SWAP2 SWAP1 PUSH2 0x1083 JUMP JUMPDEST PUSH1 0x8 PUSH1 0xA SLOAD DUP2 SLOAD DUP2 LT PUSH2 0xAB3 JUMPI PUSH2 0xAB2 PUSH2 0x129C JUMP JUMPDEST JUMPDEST SWAP1 PUSH1 0x0 MSTORE PUSH1 0x20 PUSH1 0x0 KECCAK256 ADD PUSH1 0x0 SWAP1 SLOAD SWAP1 PUSH2 0x100 EXP SWAP1 DIV PUSH20 0xFFFFFFFFFFFFFFFFFFFFFFFFFFFFFFFFFFFFFFFF AND DUP6 DUP6 PUSH1 0x5 DUP2 LT PUSH2 0xAF1 JUMPI PUSH2 0xAF0 PUSH2 0x129C JUMP JUMPDEST JUMPDEST PUSH1 0x20 MUL ADD MLOAD PUSH1 0x40 MLOAD DUP5 PUSH4 0xFFFFFFFF AND PUSH1 0xE0 SHL DUP2 MSTORE PUSH1 0x4 ADD PUSH2 0xB14 SWAP4 SWAP3 SWAP2 SWAP1 PUSH2 0xF63 JUMP JUMPDEST PUSH1 0x0 PUSH1 0x40 MLOAD DUP1 DUP4 SUB DUP2 PUSH1 0x0 DUP8 DUP1 EXTCODESIZE ISZERO DUP1 ISZERO PUSH2 0xB2E JUMPI PUSH1 0x0 DUP1 REVERT JUMPDEST POP GAS CALL ISZERO DUP1 ISZERO PUSH2 0xB42 JUMPI RETURNDATASIZE PUSH1 0x0 DUP1 RETURNDATACOPY RETURNDATASIZE PUSH1 0x0 REVERT JUMPDEST POP POP POP POP JUMPDEST DUP1 DUP1 PUSH2 0xB52 SWAP1 PUSH2 0x11BA JUMP JUMPDEST SWAP2 POP POP PUSH2 0xA29 JUMP JUMPDEST POP PUSH1 0x1 PUSH1 0xA PUSH1 0x0 DUP3 DUP3 SLOAD PUSH2 0xB6E SWAP2 SWAP1 PUSH2 0xFFC JUMP JUMPDEST SWAP3 POP POP DUP2 SWAP1 SSTORE POP POP POP POP POP POP POP POP POP JUMP JUMPDEST DUP3 DUP1 SLOAD DUP3 DUP3 SSTORE SWAP1 PUSH1 0x0 MSTORE PUSH1 0x20 PUSH1 0x0 KECCAK256 SWAP1 DUP2 ADD SWAP3 DUP3 ISZERO PUSH2 0xBBB JUMPI SWAP2 PUSH1 0x20 MUL DUP3 ADD JUMPDEST DUP3 DUP2 GT ISZERO PUSH2 0xBBA JUMPI DUP3 MLOAD DUP3 SSTORE SWAP2 PUSH1 0x20 ADD SWAP2 SWAP1 PUSH1 0x1 ADD SWAP1 PUSH2 0xB9F JUMP JUMPDEST JUMPDEST POP SWAP1 POP PUSH2 0xBC8 SWAP2 SWAP1 PUSH2 0xBCC JUMP JUMPDEST POP SWAP1 JUMP JUMPDEST JUMPDEST DUP1 DUP3 GT ISZERO PUSH2 0xBE5 JUMPI PUSH1 0x0 DUP2 PUSH1 0x0 SWAP1 SSTORE POP PUSH1 0x1 ADD PUSH2 0xBCD JUMP JUMPDEST POP SWAP1 JUMP JUMPDEST PUSH1 0x0 PUSH2 0xBFC PUSH2 0xBF7 DUP5 PUSH2 0xFBF JUMP JUMPDEST PUSH2 0xF9A JUMP JUMPDEST SWAP1 POP DUP1 DUP4 DUP3 MSTORE PUSH1 0x20 DUP3 ADD SWAP1 POP DUP3 DUP6 PUSH1 0x20 DUP7 MUL DUP3 ADD GT ISZERO PUSH2 0xC1F JUMPI PUSH2 0xC1E PUSH2 0x12FF JUMP JUMPDEST JUMPDEST PUSH1 0x0 JUMPDEST DUP6 DUP2 LT ISZERO PUSH2 0xC4F JUMPI DUP2 PUSH2 0xC35 DUP9 DUP3 PUSH2 0xC9C JUMP JUMPDEST DUP5 MSTORE PUSH1 0x20 DUP5 ADD SWAP4 POP PUSH1 0x20 DUP4 ADD SWAP3 POP POP PUSH1 0x1 DUP2 ADD SWAP1 POP PUSH2 0xC22 JUMP JUMPDEST POP POP POP SWAP4 SWAP3 POP POP POP JUMP JUMPDEST PUSH1 0x0 DUP2 CALLDATALOAD SWAP1 POP PUSH2 0xC68 DUP2 PUSH2 0x1397 JUMP JUMPDEST SWAP3 SWAP2 POP POP JUMP JUMPDEST PUSH1 0x0 DUP3 PUSH1 0x1F DUP4 ADD SLT PUSH2 0xC83 JUMPI PUSH2 0xC82 PUSH2 0x12FA JUMP JUMPDEST JUMPDEST DUP2 CALLDATALOAD PUSH2 0xC93 DUP5 DUP3 PUSH1 0x20 DUP7 ADD PUSH2 0xBE9 JUMP JUMPDEST SWAP2 POP POP SWAP3 SWAP2 POP POP JUMP JUMPDEST PUSH1 0x0 DUP2 CALLDATALOAD SWAP1 POP PUSH2 0xCAB DUP2 PUSH2 0x13AE JUMP JUMPDEST SWAP3 SWAP2 POP POP JUMP JUMPDEST PUSH1 0x0 DUP2 MLOAD SWAP1 POP PUSH2 0xCC0 DUP2 PUSH2 0x13AE JUMP JUMPDEST SWAP3 SWAP2 POP POP JUMP JUMPDEST PUSH1 0x0 PUSH1 0x20 DUP3 DUP5 SUB SLT ISZERO PUSH2 0xCDC JUMPI PUSH2 0xCDB PUSH2 0x1309 JUMP JUMPDEST JUMPDEST PUSH1 0x0 PUSH2 0xCEA DUP5 DUP3 DUP6 ADD PUSH2 0xC59 JUMP JUMPDEST SWAP2 POP POP SWAP3 SWAP2 POP POP JUMP JUMPDEST PUSH1 0x0 PUSH1 0x20 DUP3 DUP5 SUB SLT ISZERO PUSH2 0xD09 JUMPI PUSH2 0xD08 PUSH2 0x1309 JUMP JUMPDEST JUMPDEST PUSH1 0x0 PUSH2 0xD17 DUP5 DUP3 DUP6 ADD PUSH2 0xC9C JUMP JUMPDEST SWAP2 POP POP SWAP3 SWAP2 POP POP JUMP JUMPDEST PUSH1 0x0 PUSH1 0x20 DUP3 DUP5 SUB SLT ISZERO PUSH2 0xD36 JUMPI PUSH2 0xD35 PUSH2 0x1309 JUMP JUMPDEST JUMPDEST PUSH1 0x0 PUSH2 0xD44 DUP5 DUP3 DUP6 ADD PUSH2 0xCB1 JUMP JUMPDEST SWAP2 POP POP SWAP3 SWAP2 POP POP JUMP JUMPDEST PUSH1 0x0 DUP1 PUSH1 0x40 DUP4 DUP6 SUB SLT ISZERO PUSH2 0xD64 JUMPI PUSH2 0xD63 PUSH2 0x1309 JUMP JUMPDEST JUMPDEST PUSH1 0x0 PUSH2 0xD72 DUP6 DUP3 DUP7 ADD PUSH2 0xC9C JUMP JUMPDEST SWAP3 POP POP PUSH1 0x20 DUP4 ADD CALLDATALOAD PUSH8 0xFFFFFFFFFFFFFFFF DUP2 GT ISZERO PUSH2 0xD93 JUMPI PUSH2 0xD92 PUSH2 0x1304 JUMP JUMPDEST JUMPDEST PUSH2 0xD9F DUP6 DUP3 DUP7 ADD PUSH2 0xC6E JUMP JUMPDEST SWAP2 POP POP SWAP3 POP SWAP3 SWAP1 POP JUMP JUMPDEST PUSH2 0xDB2 DUP2 PUSH2 0x1111 JUMP JUMPDEST DUP3 MSTORE POP POP JUMP JUMPDEST PUSH2 0xDC1 DUP2 PUSH2 0x1123 JUMP JUMPDEST DUP3 MSTORE POP POP JUMP JUMPDEST PUSH1 0x0 PUSH2 0xDD4 PUSH1 0x9 DUP4 PUSH2 0xFEB JUMP JUMPDEST SWAP2 POP PUSH2 0xDDF DUP3 PUSH2 0x131F JUMP JUMPDEST PUSH1 0x20 DUP3 ADD SWAP1 POP SWAP2 SWAP1 POP JUMP JUMPDEST PUSH1 0x0 PUSH2 0xDF7 PUSH1 0x28 DUP4 PUSH2 0xFEB JUMP JUMPDEST SWAP2 POP PUSH2 0xE02 DUP3 PUSH2 0x1348 JUMP JUMPDEST PUSH1 0x40 DUP3 ADD SWAP1 POP SWAP2 SWAP1 POP JUMP JUMPDEST PUSH2 0xE16 DUP2 PUSH2 0x112D JUMP JUMPDEST DUP3 MSTORE POP POP JUMP JUMPDEST PUSH2 0xE25 DUP2 PUSH2 0x115B JUMP JUMPDEST DUP3 MSTORE POP POP JUMP JUMPDEST PUSH2 0xE3C PUSH2 0xE37 DUP3 PUSH2 0x115B JUMP JUMPDEST PUSH2 0x1203 JUMP JUMPDEST DUP3 MSTORE POP POP JUMP JUMPDEST PUSH2 0xE4B DUP2 PUSH2 0x1165 JUMP JUMPDEST DUP3 MSTORE POP POP JUMP JUMPDEST PUSH2 0xE5A DUP2 PUSH2 0x1175 JUMP JUMPDEST DUP3 MSTORE POP POP JUMP JUMPDEST PUSH1 0x0 PUSH2 0xE6C DUP3 DUP6 PUSH2 0xE2B JUMP JUMPDEST PUSH1 0x20 DUP3 ADD SWAP2 POP PUSH2 0xE7C DUP3 DUP5 PUSH2 0xE2B JUMP JUMPDEST PUSH1 0x20 DUP3 ADD SWAP2 POP DUP2 SWAP1 POP SWAP4 SWAP3 POP POP POP JUMP JUMPDEST PUSH1 0x0 PUSH1 0x40 DUP3 ADD SWAP1 POP PUSH2 0xEA1 PUSH1 0x0 DUP4 ADD DUP6 PUSH2 0xDA9 JUMP JUMPDEST PUSH2 0xEAE PUSH1 0x20 DUP4 ADD DUP5 PUSH2 0xDA9 JUMP JUMPDEST SWAP4 SWAP3 POP POP POP JUMP JUMPDEST PUSH1 0x0 PUSH1 0xA0 DUP3 ADD SWAP1 POP PUSH2 0xECA PUSH1 0x0 DUP4 ADD DUP9 PUSH2 0xDB8 JUMP JUMPDEST PUSH2 0xED7 PUSH1 0x20 DUP4 ADD DUP8 PUSH2 0xE51 JUMP JUMPDEST PUSH2 0xEE4 PUSH1 0x40 DUP4 ADD DUP7 PUSH2 0xE0D JUMP JUMPDEST PUSH2 0xEF1 PUSH1 0x60 DUP4 ADD DUP6 PUSH2 0xE42 JUMP JUMPDEST PUSH2 0xEFE PUSH1 0x80 DUP4 ADD DUP5 PUSH2 0xE42 JUMP JUMPDEST SWAP7 SWAP6 POP POP POP POP POP POP JUMP JUMPDEST PUSH1 0x0 PUSH1 0x20 DUP3 ADD SWAP1 POP DUP2 DUP2 SUB PUSH1 0x0 DUP4 ADD MSTORE PUSH2 0xF21 DUP2 PUSH2 0xDC7 JUMP JUMPDEST SWAP1 POP SWAP2 SWAP1 POP JUMP JUMPDEST PUSH1 0x0 PUSH1 0x20 DUP3 ADD SWAP1 POP DUP2 DUP2 SUB PUSH1 0x0 DUP4 ADD MSTORE PUSH2 0xF41 DUP2 PUSH2 0xDEA JUMP JUMPDEST SWAP1 POP SWAP2 SWAP1 POP JUMP JUMPDEST PUSH1 0x0 PUSH1 0x20 DUP3 ADD SWAP1 POP PUSH2 0xF5D PUSH1 0x0 DUP4 ADD DUP5 PUSH2 0xE1C JUMP JUMPDEST SWAP3 SWAP2 POP POP JUMP JUMPDEST PUSH1 0x0 PUSH1 0x60 DUP3 ADD SWAP1 POP PUSH2 0xF78 PUSH1 0x0 DUP4 ADD DUP7 PUSH2 0xE1C JUMP JUMPDEST PUSH2 0xF85 PUSH1 0x20 DUP4 ADD DUP6 PUSH2 0xDA9 JUMP JUMPDEST PUSH2 0xF92 PUSH1 0x40 DUP4 ADD DUP5 PUSH2 0xE1C JUMP JUMPDEST SWAP5 SWAP4 POP POP POP POP JUMP JUMPDEST PUSH1 0x0 PUSH2 0xFA4 PUSH2 0xFB5 JUMP JUMPDEST SWAP1 POP PUSH2 0xFB0 DUP3 DUP3 PUSH2 0x1189 JUMP JUMPDEST SWAP2 SWAP1 POP JUMP JUMPDEST PUSH1 0x0 PUSH1 0x40 MLOAD SWAP1 POP SWAP1 JUMP JUMPDEST PUSH1 0x0 PUSH8 0xFFFFFFFFFFFFFFFF DUP3 GT ISZERO PUSH2 0xFDA JUMPI PUSH2 0xFD9 PUSH2 0x12CB JUMP JUMPDEST JUMPDEST PUSH1 0x20 DUP3 MUL SWAP1 POP PUSH1 0x20 DUP2 ADD SWAP1 POP SWAP2 SWAP1 POP JUMP JUMPDEST PUSH1 0x0 DUP3 DUP3 MSTORE PUSH1 0x20 DUP3 ADD SWAP1 POP SWAP3 SWAP2 POP POP JUMP JUMPDEST PUSH1 0x0 PUSH2 0x1007 DUP3 PUSH2 0x115B JUMP JUMPDEST SWAP2 POP PUSH2 0x1012 DUP4 PUSH2 0x115B JUMP JUMPDEST SWAP3 POP DUP3 PUSH32 0xFFFFFFFFFFFFFFFFFFFFFFFFFFFFFFFFFFFFFFFFFFFFFFFFFFFFFFFFFFFFFFFF SUB DUP3 GT ISZERO PUSH2 0x1047 JUMPI PUSH2 0x1046 PUSH2 0x123E JUMP JUMPDEST JUMPDEST DUP3 DUP3 ADD SWAP1 POP SWAP3 SWAP2 POP POP JUMP JUMPDEST PUSH1 0x0 PUSH2 0x105D DUP3 PUSH2 0x115B JUMP JUMPDEST SWAP2 POP PUSH2 0x1068 DUP4 PUSH2 0x115B JUMP JUMPDEST SWAP3 POP DUP3 PUSH2 0x1078 JUMPI PUSH2 0x1077 PUSH2 0x126D JUMP JUMPDEST JUMPDEST DUP3 DUP3 DIV SWAP1 POP SWAP3 SWAP2 POP POP JUMP JUMPDEST PUSH1 0x0 PUSH2 0x108E DUP3 PUSH2 0x115B JUMP JUMPDEST SWAP2 POP PUSH2 0x1099 DUP4 PUSH2 0x115B JUMP JUMPDEST SWAP3 POP DUP2 PUSH32 0xFFFFFFFFFFFFFFFFFFFFFFFFFFFFFFFFFFFFFFFFFFFFFFFFFFFFFFFFFFFFFFFF DIV DUP4 GT DUP3 ISZERO ISZERO AND ISZERO PUSH2 0x10D2 JUMPI PUSH2 0x10D1 PUSH2 0x123E JUMP JUMPDEST JUMPDEST DUP3 DUP3 MUL SWAP1 POP SWAP3 SWAP2 POP POP JUMP JUMPDEST PUSH1 0x0 PUSH2 0x10E8 DUP3 PUSH2 0x115B JUMP JUMPDEST SWAP2 POP PUSH2 0x10F3 DUP4 PUSH2 0x115B JUMP JUMPDEST SWAP3 POP DUP3 DUP3 LT ISZERO PUSH2 0x1106 JUMPI PUSH2 0x1105 PUSH2 0x123E JUMP JUMPDEST JUMPDEST DUP3 DUP3 SUB SWAP1 POP SWAP3 SWAP2 POP POP JUMP JUMPDEST PUSH1 0x0 PUSH2 0x111C DUP3 PUSH2 0x113B JUMP JUMPDEST SWAP1 POP SWAP2 SWAP1 POP JUMP JUMPDEST PUSH1 0x0 DUP2 SWAP1 POP SWAP2 SWAP1 POP JUMP JUMPDEST PUSH1 0x0 PUSH2 0xFFFF DUP3 AND SWAP1 POP SWAP2 SWAP1 POP JUMP JUMPDEST PUSH1 0x0 PUSH20 0xFFFFFFFFFFFFFFFFFFFFFFFFFFFFFFFFFFFFFFFF DUP3 AND SWAP1 POP SWAP2 SWAP1 POP JUMP JUMPDEST PUSH1 0x0 DUP2 SWAP1 POP SWAP2 SWAP1 POP JUMP JUMPDEST PUSH1 0x0 PUSH4 0xFFFFFFFF DUP3 AND SWAP1 POP SWAP2 SWAP1 POP JUMP JUMPDEST PUSH1 0x0 PUSH8 0xFFFFFFFFFFFFFFFF DUP3 AND SWAP1 POP SWAP2 SWAP1 POP JUMP JUMPDEST PUSH2 0x1192 DUP3 PUSH2 0x130E JUMP JUMPDEST DUP2 ADD DUP2 DUP2 LT PUSH8 0xFFFFFFFFFFFFFFFF DUP3 GT OR ISZERO PUSH2 0x11B1 JUMPI PUSH2 0x11B0 PUSH2 0x12CB JUMP JUMPDEST JUMPDEST DUP1 PUSH1 0x40 MSTORE POP POP POP JUMP JUMPDEST PUSH1 0x0 PUSH2 0x11C5 DUP3 PUSH2 0x115B JUMP JUMPDEST SWAP2 POP PUSH32 0xFFFFFFFFFFFFFFFFFFFFFFFFFFFFFFFFFFFFFFFFFFFFFFFFFFFFFFFFFFFFFFFF DUP3 EQ ISZERO PUSH2 0x11F8 JUMPI PUSH2 0x11F7 PUSH2 0x123E JUMP JUMPDEST JUMPDEST PUSH1 0x1 DUP3 ADD SWAP1 POP SWAP2 SWAP1 POP JUMP JUMPDEST PUSH1 0x0 DUP2 SWAP1 POP SWAP2 SWAP1 POP JUMP JUMPDEST PUSH1 0x0 PUSH2 0x1218 DUP3 PUSH2 0x115B JUMP JUMPDEST SWAP2 POP PUSH2 0x1223 DUP4 PUSH2 0x115B JUMP JUMPDEST SWAP3 POP DUP3 PUSH2 0x1233 JUMPI PUSH2 0x1232 PUSH2 0x126D JUMP JUMPDEST JUMPDEST DUP3 DUP3 MOD SWAP1 POP SWAP3 SWAP2 POP POP JUMP JUMPDEST PUSH32 0x4E487B7100000000000000000000000000000000000000000000000000000000 PUSH1 0x0 MSTORE PUSH1 0x11 PUSH1 0x4 MSTORE PUSH1 0x24 PUSH1 0x0 REVERT JUMPDEST PUSH32 0x4E487B7100000000000000000000000000000000000000000000000000000000 PUSH1 0x0 MSTORE PUSH1 0x12 PUSH1 0x4 MSTORE PUSH1 0x24 PUSH1 0x0 REVERT JUMPDEST PUSH32 0x4E487B7100000000000000000000000000000000000000000000000000000000 PUSH1 0x0 MSTORE PUSH1 0x32 PUSH1 0x4 MSTORE PUSH1 0x24 PUSH1 0x0 REVERT JUMPDEST PUSH32 0x4E487B7100000000000000000000000000000000000000000000000000000000 PUSH1 0x0 MSTORE PUSH1 0x41 PUSH1 0x4 MSTORE PUSH1 0x24 PUSH1 0x0 REVERT JUMPDEST PUSH1 0x0 DUP1 REVERT JUMPDEST PUSH1 0x0 DUP1 REVERT JUMPDEST PUSH1 0x0 DUP1 REVERT JUMPDEST PUSH1 0x0 DUP1 REVERT JUMPDEST PUSH1 0x0 PUSH1 0x1F NOT PUSH1 0x1F DUP4 ADD AND SWAP1 POP SWAP2 SWAP1 POP JUMP JUMPDEST PUSH32 0x4E6F2066756E64732E0000000000000000000000000000000000000000000000 PUSH1 0x0 DUP3 ADD MSTORE POP JUMP JUMPDEST PUSH32 0x496E737566666963656E742046756E64732C20706C656173652073656E64206D PUSH1 0x0 DUP3 ADD MSTORE PUSH32 0x6F7265204554482E000000000000000000000000000000000000000000000000 PUSH1 0x20 DUP3 ADD MSTORE POP JUMP JUMPDEST PUSH2 0x13A0 DUP2 PUSH2 0x1111 JUMP JUMPDEST DUP2 EQ PUSH2 0x13AB JUMPI PUSH1 0x0 DUP1 REVERT JUMPDEST POP JUMP JUMPDEST PUSH2 0x13B7 DUP2 PUSH2 0x115B JUMP JUMPDEST DUP2 EQ PUSH2 0x13C2 JUMPI PUSH1 0x0 DUP1 REVERT JUMPDEST POP JUMP INVALID LOG2 PUSH5 0x6970667358 0x22 SLT KECCAK256 0xBC CALLVALUE 0xDA 0x5E CALLDATALOAD MSTORE 0xE5 0xC8 0xE8 0x4E 0x49 SHR DUP12 SHL DUP10 0xDD DUP8 RETURN 0xAB 0xAC PUSH2 0x9D7A 0xE3 0xA7 0xCF 0xF6 LOG3 0xA7 PC PUSH28 0xDB64736F6C6343000807003300000000000000000000000000000000 "
		},
		"gasEstimates": {
			"creation": {
				"codeDepositCost": "1023000",
				"executionCost": "infinite",
				"totalCost": "infinite"
			},
			"external": {
				"buyPlayer()": "infinite",
				"mint()": "infinite",
				"rawFulfillRandomWords(uint256,uint256[])": "infinite",
				"s_randomWords(uint256)": "infinite",
				"s_requestId()": "2495",
				"withDraw(address)": "infinite"
			},
			"internal": {
				"fulfillRandomWords(uint256,uint256[] memory)": "infinite"
			}
		},
		"methodIdentifiers": {
			"buyPlayer()": "49f22cd8",
			"mint()": "1249c58b",
			"rawFulfillRandomWords(uint256,uint256[])": "1fe543e3",
			"s_randomWords(uint256)": "f6eaffc8",
			"s_requestId()": "e89e106a",
			"withDraw(address)": "0a67d2c7"
		}
	},
	"abi": [
		{
			"inputs": [
				{
					"internalType": "uint64",
					"name": "subscriptionId",
					"type": "uint64"
				},
				{
					"internalType": "address",
					"name": "svg_address",
					"type": "address"
				}
			],
			"stateMutability": "nonpayable",
			"type": "constructor"
		},
		{
			"inputs": [
				{
					"internalType": "address",
					"name": "have",
					"type": "address"
				},
				{
					"internalType": "address",
					"name": "want",
					"type": "address"
				}
			],
			"name": "OnlyCoordinatorCanFulfill",
			"type": "error"
		},
		{
			"inputs": [],
			"name": "buyPlayer",
			"outputs": [],
			"stateMutability": "payable",
			"type": "function"
		},
		{
			"inputs": [],
			"name": "mint",
			"outputs": [],
			"stateMutability": "nonpayable",
			"type": "function"
		},
		{
			"inputs": [
				{
					"internalType": "uint256",
					"name": "requestId",
					"type": "uint256"
				},
				{
					"internalType": "uint256[]",
					"name": "randomWords",
					"type": "uint256[]"
				}
			],
			"name": "rawFulfillRandomWords",
			"outputs": [],
			"stateMutability": "nonpayable",
			"type": "function"
		},
		{
			"inputs": [
				{
					"internalType": "uint256",
					"name": "",
					"type": "uint256"
				}
			],
			"name": "s_randomWords",
			"outputs": [
				{
					"internalType": "uint256",
					"name": "",
					"type": "uint256"
				}
			],
			"stateMutability": "view",
			"type": "function"
		},
		{
			"inputs": [],
			"name": "s_requestId",
			"outputs": [
				{
					"internalType": "uint256",
					"name": "",
					"type": "uint256"
				}
			],
			"stateMutability": "view",
			"type": "function"
		},
		{
			"inputs": [
				{
					"internalType": "address",
					"name": "_payout",
					"type": "address"
				}
			],
			"name": "withDraw",
			"outputs": [],
			"stateMutability": "nonpayable",
			"type": "function"
		}
	]
}