{
	"data": {
		"bytecode": {
			"linkReferences": {},
			"object": "60a0604052600280546001600160a01b031916736168499c0cffcacd319c818142124b7a15e857ab1790557fd89b2bf150e3b9e13446986e571fb9cab24b13cea0a43ea20a6049a85cc807cc6003556004805466010003000f42406001600160501b03199091161790556000600b819055662386f26fc10000600c55600d5534801561008a57600080fd5b506040516115603803806115608339810160408190526100a991610126565b6002546001600160601b0319606082901b16608052600080546001600160a01b03199081166001600160a01b0393841617909155600180546007805484163390811790915560088054909416179092556001600160401b03909416600160a01b026001600160e01b03199091169290911691909117179055610178565b6000806040838503121561013957600080fd5b82516001600160401b038116811461015057600080fd5b60208401519092506001600160a01b038116811461016d57600080fd5b809150509250929050565b60805160601c6113c361019d6000396000818161059301526105d501526113c36000f3fe608060405234801561001057600080fd5b506004361061007d5760003560e01c80631fe543e31161005b5780631fe543e3146100c55780632b467b26146100d8578063a6f9dae1146100eb578063e89e106a146100fe57600080fd5b806301870931146100825780631c049515146100975780631d3c7b91146100aa575b600080fd5b6100956100903660046110aa565b610107565b005b6100956100a5366004611108565b610140565b6100b360055481565b60405190815260200160405180910390f35b6100956100d33660046111e7565b610588565b6100956100e63660046110cc565b610614565b6100956100f93660046110aa565b610798565b6100b360065481565b6007546001600160a01b0316331461011e57600080fd5b600880546001600160a01b0319166001600160a01b0392909216919091179055565b6008546001600160a01b0316331461015757600080fd5b600a805460018101825560009182527fc65a7bb8d6351c1cf70c95a316cc6a92839c986682d98bc35f958f4883f9d2a80155610195600e8888610f7f565b506101a2600f8686610fca565b506107d16298968160005b600f5481101561048d576001546001600160a01b0316633feb9f7d6101d283866112d7565b600f84815481106101e5576101e5611361565b6000918252602090912001546040516001600160e01b031960e085901b16815261021f92916001600160a01b0316906001906004016112b8565b600060405180830381600087803b15801561023957600080fd5b505af115801561024d573d6000803e3d6000fd5b50506001546001600160a01b0316915063ddcbf794905061026e83866112d7565b600e848154811061028157610281611361565b90600052602060002001546040518363ffffffff1660e01b81526004016102b2929190918252602082015260400190565b600060405180830381600087803b1580156102cc57600080fd5b505af11580156102e0573d6000803e3d6000fd5b50505050600f81815481106102f7576102f7611361565b6000918252602090912001546001600160a01b03167f6d5bd64e64afadb15dc39b332ecc8b43625b1453ea72e6497c8441772d37965061033783866112d7565b60405190815260200160405180910390a285858281811061035a5761035a611361565b905060200201602081019061036f91906111b3565b15156001141561047b57600154600f80546001600160a01b0390921691633feb9f7d918591859081106103a4576103a4611361565b6000918252602090912001546040516001600160e01b031960e085901b1681526103de92916001600160a01b0316906001906004016112b8565b600060405180830381600087803b1580156103f857600080fd5b505af115801561040c573d6000803e3d6000fd5b50505050600f818154811061042357610423611361565b600091825260209182902001546040518481526001600160a01b03909116917f5289fff922cea93a4ba9c48f90a9c5d5c845afd5fd9e1af32017a344528ce51b910160405180910390a26104786001836112d7565b91505b806104858161130e565b9150506101ad565b506001831515141561057157600054600354600154600480546040516305d3b1d360e41b815291820193909352600160a01b90910467ffffffffffffffff166024820152640100000000820461ffff16604482015263ffffffff8083166064830152660100000000000090920490911660848201526001600160a01b0390911690635d3b1d309060a401602060405180830381600087803b15801561053157600080fd5b505af1158015610545573d6000803e3d6000fd5b505050506040513d601f19601f8201168201806040525081019061056991906111ce565b60065561057d565b4260055561057d6107d1565b505050505050505050565b336001600160a01b037f000000000000000000000000000000000000000000000000000000000000000016146106065760405163073e64fd60e21b81523360048201526001600160a01b037f000000000000000000000000000000000000000000000000000000000000000016602482015260440160405180910390fd5b6106108282610ce8565b5050565b6008546001600160a01b0316331461062b57600080fd5b6001811515141561070a57600054600354600154600480546040516305d3b1d360e41b815291820193909352600160a01b90910467ffffffffffffffff166024820152640100000000820461ffff16604482015263ffffffff8083166064830152660100000000000090920490911660848201526001600160a01b0390911690635d3b1d309060a401602060405180830381600087803b1580156106ce57600080fd5b505af11580156106e2573d6000803e3d6000fd5b505050506040513d601f19601f8201168201806040525081019061070691906111ce565b6006555b6009805460018082019092557f6e1540171b6c0c960b71a7020d9f60077f6af931a8bbf590da0223dacf75c7af0180546001600160a01b0319166001600160a01b038616179055600a805491820181556000527fc65a7bb8d6351c1cf70c95a316cc6a92839c986682d98bc35f958f4883f9d2a801829055806107935742600555610793610d3d565b505050565b6007546001600160a01b031633146107af57600080fd5b600780546001600160a01b0319166001600160a01b0392909216919091179055565b60006005549050600a600b54815481106107ed576107ed611361565b906000526020600020015460001415610ccd576000805b600e5481101561084b57600e818154811061082157610821611361565b90600052602060002001548261083791906112d7565b9150806108438161130e565b915050610804565b50600081836040516020016108859181526777696e6e65725f3160c01b6020820152682bb4b73a32b939bab760b91b602882015260310190565b6040516020818303038152906040528051906020012060001c6108a89190611329565b9050600082846040516020016108e3918152673bb4b73732b92f9960c11b6020820152682837bbb2b93bb7b63360b91b602882015260310190565b6040516020818303038152906040528051906020012060001c6109069190611329565b9050600083856040516020016109419181526777696e6e65725f3360c01b602082015268496e20466c616d657360b81b602882015260310190565b6040516020818303038152906040528051906020012060001c6109649190611329565b90506000805b600e54811015610cc657600e818154811061098757610987611361565b90600052602060002001548261099d91906112d7565b915084821115610aa657600154600f80546001600160a01b0390921691633feb9f7d916103e991859081106109d4576109d4611361565b6000918252602090912001546040516001600160e01b031960e085901b168152610a0e92916001600160a01b0316906001906004016112b8565b600060405180830381600087803b158015610a2857600080fd5b505af1158015610a3c573d6000803e3d6000fd5b50505050859450600f8181548110610a5657610a56611361565b600091825260209182902001546040516103e981526001600160a01b03909116916001917f82a2d045cd9c4d75d233ef4bce9da3682ee8aed7bfc23b999966bc558e78010f910160405180910390a35b83821115610bad57600154600f80546001600160a01b0390921691633feb9f7d916103ea9185908110610adb57610adb611361565b6000918252602090912001546040516001600160e01b031960e085901b168152610b1592916001600160a01b0316906001906004016112b8565b600060405180830381600087803b158015610b2f57600080fd5b505af1158015610b43573d6000803e3d6000fd5b50505050859350600f8181548110610b5d57610b5d611361565b600091825260209182902001546040516103ea81526001600160a01b03909116916002917f82a2d045cd9c4d75d233ef4bce9da3682ee8aed7bfc23b999966bc558e78010f910160405180910390a35b82821115610cb457600154600f80546001600160a01b0390921691633feb9f7d916103eb9185908110610be257610be2611361565b6000918252602090912001546040516001600160e01b031960e085901b168152610c1c92916001600160a01b0316906001906004016112b8565b600060405180830381600087803b158015610c3657600080fd5b505af1158015610c4a573d6000803e3d6000fd5b50505050859250600f8181548110610c6457610c64611361565b600091825260209182902001546040516103eb81526001600160a01b03909116916003917f82a2d045cd9c4d75d233ef4bce9da3682ee8aed7bfc23b999966bc558e78010f910160405180910390a35b80610cbe8161130e565b91505061096a565b5050505050505b6001600b6000828254610ce091906112d7565b909155505050565b80600081518110610cfb57610cfb611361565b6020026020010151600581905550600a600b5481548110610d1e57610d1e611361565b906000526020600020015460001415610d39576106106107d1565b6106105b600554600080808080805b600a600b5481548110610d5d57610d5d611361565b9060005260206000200154811015610e4657600060058883604051602001610d8f929190918252602082015260400190565b6040516020818303038152906040528051906020012060001c610db29190611329565b905080610dcb5786610dc38161130e565b975050610e33565b8060011415610de65785610dde8161130e565b965050610e33565b8060021415610e015784610df98161130e565b955050610e33565b8060031415610e1c5783610e148161130e565b945050610e33565b8060041415610e335782610e2f8161130e565b9350505b5080610e3e8161130e565b915050610d48565b5060006040518060a0016040528087815260200186815260200185815260200184815260200183815250905060005b6005811015610f5d576000828260058110610e9257610e92611361565b60200201511115610f4b576001546001600160a01b0316633feb9f7d610eb98360046112ef565b6009600b5481548110610ece57610ece611361565b6000918252602090912001546001600160a01b0316858560058110610ef557610ef5611361565b60200201516040518463ffffffff1660e01b8152600401610f18939291906112b8565b600060405180830381600087803b158015610f3257600080fd5b505af1158015610f46573d6000803e3d6000fd5b505050505b80610f558161130e565b915050610e75565b506001600b6000828254610f7191906112d7565b909155505050505050505050565b828054828255906000526020600020908101928215610fba579160200282015b82811115610fba578235825591602001919060010190610f9f565b50610fc692915061101d565b5090565b828054828255906000526020600020908101928215610fba579160200282015b82811115610fba5781546001600160a01b0319166001600160a01b03843516178255602090920191600190910190610fea565b5b80821115610fc6576000815560010161101e565b80356001600160a01b038116811461104957600080fd5b919050565b60008083601f84011261106057600080fd5b50813567ffffffffffffffff81111561107857600080fd5b6020830191508360208260051b850101111561109357600080fd5b9250929050565b8035801515811461104957600080fd5b6000602082840312156110bc57600080fd5b6110c582611032565b9392505050565b6000806000606084860312156110e157600080fd5b6110ea84611032565b9250602084013591506110ff6040850161109a565b90509250925092565b60008060008060008060006080888a03121561112357600080fd5b873567ffffffffffffffff8082111561113b57600080fd5b6111478b838c0161104e565b909950975060208a013591508082111561116057600080fd5b61116c8b838c0161104e565b909750955060408a013591508082111561118557600080fd5b506111928a828b0161104e565b90945092506111a590506060890161109a565b905092959891949750929550565b6000602082840312156111c557600080fd5b6110c58261109a565b6000602082840312156111e057600080fd5b5051919050565b600080604083850312156111fa57600080fd5b8235915060208084013567ffffffffffffffff8082111561121a57600080fd5b818601915086601f83011261122e57600080fd5b81358181111561124057611240611377565b8060051b604051601f19603f8301168101818110858211171561126557611265611377565b604052828152858101935084860182860187018b101561128457600080fd5b600095505b838610156112a7578035855260019590950194938601938601611289565b508096505050505050509250929050565b9283526001600160a01b03919091166020830152604082015260600190565b600082198211156112ea576112ea61134b565b500190565b60008160001904831182151516156113095761130961134b565b500290565b60006000198214156113225761132261134b565b5060010190565b60008261134657634e487b7160e01b600052601260045260246000fd5b500690565b634e487b7160e01b600052601160045260246000fd5b634e487b7160e01b600052603260045260246000fd5b634e487b7160e01b600052604160045260246000fdfea264697066735822122025d9bd0ffc8686c2a7ba86b7dba4b04f1bba2feffcf7fb8cd9fd3dabfd86068f64736f6c63430008070033",
			"opcodes": "PUSH1 0xA0 PUSH1 0x40 MSTORE PUSH1 0x2 DUP1 SLOAD PUSH1 0x1 PUSH1 0x1 PUSH1 0xA0 SHL SUB NOT AND PUSH20 0x6168499C0CFFCACD319C818142124B7A15E857AB OR SWAP1 SSTORE PUSH32 0xD89B2BF150E3B9E13446986E571FB9CAB24B13CEA0A43EA20A6049A85CC807CC PUSH1 0x3 SSTORE PUSH1 0x4 DUP1 SLOAD PUSH7 0x10003000F4240 PUSH1 0x1 PUSH1 0x1 PUSH1 0x50 SHL SUB NOT SWAP1 SWAP2 AND OR SWAP1 SSTORE PUSH1 0x0 PUSH1 0xB DUP2 SWAP1 SSTORE PUSH7 0x2386F26FC10000 PUSH1 0xC SSTORE PUSH1 0xD SSTORE CALLVALUE DUP1 ISZERO PUSH2 0x8A JUMPI PUSH1 0x0 DUP1 REVERT JUMPDEST POP PUSH1 0x40 MLOAD PUSH2 0x1560 CODESIZE SUB DUP1 PUSH2 0x1560 DUP4 CODECOPY DUP2 ADD PUSH1 0x40 DUP2 SWAP1 MSTORE PUSH2 0xA9 SWAP2 PUSH2 0x126 JUMP JUMPDEST PUSH1 0x2 SLOAD PUSH1 0x1 PUSH1 0x1 PUSH1 0x60 SHL SUB NOT PUSH1 0x60 DUP3 SWAP1 SHL AND PUSH1 0x80 MSTORE PUSH1 0x0 DUP1 SLOAD PUSH1 0x1 PUSH1 0x1 PUSH1 0xA0 SHL SUB NOT SWAP1 DUP2 AND PUSH1 0x1 PUSH1 0x1 PUSH1 0xA0 SHL SUB SWAP4 DUP5 AND OR SWAP1 SWAP2 SSTORE PUSH1 0x1 DUP1 SLOAD PUSH1 0x7 DUP1 SLOAD DUP5 AND CALLER SWAP1 DUP2 OR SWAP1 SWAP2 SSTORE PUSH1 0x8 DUP1 SLOAD SWAP1 SWAP5 AND OR SWAP1 SWAP3 SSTORE PUSH1 0x1 PUSH1 0x1 PUSH1 0x40 SHL SUB SWAP1 SWAP5 AND PUSH1 0x1 PUSH1 0xA0 SHL MUL PUSH1 0x1 PUSH1 0x1 PUSH1 0xE0 SHL SUB NOT SWAP1 SWAP2 AND SWAP3 SWAP1 SWAP2 AND SWAP2 SWAP1 SWAP2 OR OR SWAP1 SSTORE PUSH2 0x178 JUMP JUMPDEST PUSH1 0x0 DUP1 PUSH1 0x40 DUP4 DUP6 SUB SLT ISZERO PUSH2 0x139 JUMPI PUSH1 0x0 DUP1 REVERT JUMPDEST DUP3 MLOAD PUSH1 0x1 PUSH1 0x1 PUSH1 0x40 SHL SUB DUP2 AND DUP2 EQ PUSH2 0x150 JUMPI PUSH1 0x0 DUP1 REVERT JUMPDEST PUSH1 0x20 DUP5 ADD MLOAD SWAP1 SWAP3 POP PUSH1 0x1 PUSH1 0x1 PUSH1 0xA0 SHL SUB DUP2 AND DUP2 EQ PUSH2 0x16D JUMPI PUSH1 0x0 DUP1 REVERT JUMPDEST DUP1 SWAP2 POP POP SWAP3 POP SWAP3 SWAP1 POP JUMP JUMPDEST PUSH1 0x80 MLOAD PUSH1 0x60 SHR PUSH2 0x13C3 PUSH2 0x19D PUSH1 0x0 CODECOPY PUSH1 0x0 DUP2 DUP2 PUSH2 0x593 ADD MSTORE PUSH2 0x5D5 ADD MSTORE PUSH2 0x13C3 PUSH1 0x0 RETURN INVALID PUSH1 0x80 PUSH1 0x40 MSTORE CALLVALUE DUP1 ISZERO PUSH2 0x10 JUMPI PUSH1 0x0 DUP1 REVERT JUMPDEST POP PUSH1 0x4 CALLDATASIZE LT PUSH2 0x7D JUMPI PUSH1 0x0 CALLDATALOAD PUSH1 0xE0 SHR DUP1 PUSH4 0x1FE543E3 GT PUSH2 0x5B JUMPI DUP1 PUSH4 0x1FE543E3 EQ PUSH2 0xC5 JUMPI DUP1 PUSH4 0x2B467B26 EQ PUSH2 0xD8 JUMPI DUP1 PUSH4 0xA6F9DAE1 EQ PUSH2 0xEB JUMPI DUP1 PUSH4 0xE89E106A EQ PUSH2 0xFE JUMPI PUSH1 0x0 DUP1 REVERT JUMPDEST DUP1 PUSH4 0x1870931 EQ PUSH2 0x82 JUMPI DUP1 PUSH4 0x1C049515 EQ PUSH2 0x97 JUMPI DUP1 PUSH4 0x1D3C7B91 EQ PUSH2 0xAA JUMPI JUMPDEST PUSH1 0x0 DUP1 REVERT JUMPDEST PUSH2 0x95 PUSH2 0x90 CALLDATASIZE PUSH1 0x4 PUSH2 0x10AA JUMP JUMPDEST PUSH2 0x107 JUMP JUMPDEST STOP JUMPDEST PUSH2 0x95 PUSH2 0xA5 CALLDATASIZE PUSH1 0x4 PUSH2 0x1108 JUMP JUMPDEST PUSH2 0x140 JUMP JUMPDEST PUSH2 0xB3 PUSH1 0x5 SLOAD DUP2 JUMP JUMPDEST PUSH1 0x40 MLOAD SWAP1 DUP2 MSTORE PUSH1 0x20 ADD PUSH1 0x40 MLOAD DUP1 SWAP2 SUB SWAP1 RETURN JUMPDEST PUSH2 0x95 PUSH2 0xD3 CALLDATASIZE PUSH1 0x4 PUSH2 0x11E7 JUMP JUMPDEST PUSH2 0x588 JUMP JUMPDEST PUSH2 0x95 PUSH2 0xE6 CALLDATASIZE PUSH1 0x4 PUSH2 0x10CC JUMP JUMPDEST PUSH2 0x614 JUMP JUMPDEST PUSH2 0x95 PUSH2 0xF9 CALLDATASIZE PUSH1 0x4 PUSH2 0x10AA JUMP JUMPDEST PUSH2 0x798 JUMP JUMPDEST PUSH2 0xB3 PUSH1 0x6 SLOAD DUP2 JUMP JUMPDEST PUSH1 0x7 SLOAD PUSH1 0x1 PUSH1 0x1 PUSH1 0xA0 SHL SUB AND CALLER EQ PUSH2 0x11E JUMPI PUSH1 0x0 DUP1 REVERT JUMPDEST PUSH1 0x8 DUP1 SLOAD PUSH1 0x1 PUSH1 0x1 PUSH1 0xA0 SHL SUB NOT AND PUSH1 0x1 PUSH1 0x1 PUSH1 0xA0 SHL SUB SWAP3 SWAP1 SWAP3 AND SWAP2 SWAP1 SWAP2 OR SWAP1 SSTORE JUMP JUMPDEST PUSH1 0x8 SLOAD PUSH1 0x1 PUSH1 0x1 PUSH1 0xA0 SHL SUB AND CALLER EQ PUSH2 0x157 JUMPI PUSH1 0x0 DUP1 REVERT JUMPDEST PUSH1 0xA DUP1 SLOAD PUSH1 0x1 DUP2 ADD DUP3 SSTORE PUSH1 0x0 SWAP2 DUP3 MSTORE PUSH32 0xC65A7BB8D6351C1CF70C95A316CC6A92839C986682D98BC35F958F4883F9D2A8 ADD SSTORE PUSH2 0x195 PUSH1 0xE DUP9 DUP9 PUSH2 0xF7F JUMP JUMPDEST POP PUSH2 0x1A2 PUSH1 0xF DUP7 DUP7 PUSH2 0xFCA JUMP JUMPDEST POP PUSH2 0x7D1 PUSH3 0x989681 PUSH1 0x0 JUMPDEST PUSH1 0xF SLOAD DUP2 LT ISZERO PUSH2 0x48D JUMPI PUSH1 0x1 SLOAD PUSH1 0x1 PUSH1 0x1 PUSH1 0xA0 SHL SUB AND PUSH4 0x3FEB9F7D PUSH2 0x1D2 DUP4 DUP7 PUSH2 0x12D7 JUMP JUMPDEST PUSH1 0xF DUP5 DUP2 SLOAD DUP2 LT PUSH2 0x1E5 JUMPI PUSH2 0x1E5 PUSH2 0x1361 JUMP JUMPDEST PUSH1 0x0 SWAP2 DUP3 MSTORE PUSH1 0x20 SWAP1 SWAP2 KECCAK256 ADD SLOAD PUSH1 0x40 MLOAD PUSH1 0x1 PUSH1 0x1 PUSH1 0xE0 SHL SUB NOT PUSH1 0xE0 DUP6 SWAP1 SHL AND DUP2 MSTORE PUSH2 0x21F SWAP3 SWAP2 PUSH1 0x1 PUSH1 0x1 PUSH1 0xA0 SHL SUB AND SWAP1 PUSH1 0x1 SWAP1 PUSH1 0x4 ADD PUSH2 0x12B8 JUMP JUMPDEST PUSH1 0x0 PUSH1 0x40 MLOAD DUP1 DUP4 SUB DUP2 PUSH1 0x0 DUP8 DUP1 EXTCODESIZE ISZERO DUP1 ISZERO PUSH2 0x239 JUMPI PUSH1 0x0 DUP1 REVERT JUMPDEST POP GAS CALL ISZERO DUP1 ISZERO PUSH2 0x24D JUMPI RETURNDATASIZE PUSH1 0x0 DUP1 RETURNDATACOPY RETURNDATASIZE PUSH1 0x0 REVERT JUMPDEST POP POP PUSH1 0x1 SLOAD PUSH1 0x1 PUSH1 0x1 PUSH1 0xA0 SHL SUB AND SWAP2 POP PUSH4 0xDDCBF794 SWAP1 POP PUSH2 0x26E DUP4 DUP7 PUSH2 0x12D7 JUMP JUMPDEST PUSH1 0xE DUP5 DUP2 SLOAD DUP2 LT PUSH2 0x281 JUMPI PUSH2 0x281 PUSH2 0x1361 JUMP JUMPDEST SWAP1 PUSH1 0x0 MSTORE PUSH1 0x20 PUSH1 0x0 KECCAK256 ADD SLOAD PUSH1 0x40 MLOAD DUP4 PUSH4 0xFFFFFFFF AND PUSH1 0xE0 SHL DUP2 MSTORE PUSH1 0x4 ADD PUSH2 0x2B2 SWAP3 SWAP2 SWAP1 SWAP2 DUP3 MSTORE PUSH1 0x20 DUP3 ADD MSTORE PUSH1 0x40 ADD SWAP1 JUMP JUMPDEST PUSH1 0x0 PUSH1 0x40 MLOAD DUP1 DUP4 SUB DUP2 PUSH1 0x0 DUP8 DUP1 EXTCODESIZE ISZERO DUP1 ISZERO PUSH2 0x2CC JUMPI PUSH1 0x0 DUP1 REVERT JUMPDEST POP GAS CALL ISZERO DUP1 ISZERO PUSH2 0x2E0 JUMPI RETURNDATASIZE PUSH1 0x0 DUP1 RETURNDATACOPY RETURNDATASIZE PUSH1 0x0 REVERT JUMPDEST POP POP POP POP PUSH1 0xF DUP2 DUP2 SLOAD DUP2 LT PUSH2 0x2F7 JUMPI PUSH2 0x2F7 PUSH2 0x1361 JUMP JUMPDEST PUSH1 0x0 SWAP2 DUP3 MSTORE PUSH1 0x20 SWAP1 SWAP2 KECCAK256 ADD SLOAD PUSH1 0x1 PUSH1 0x1 PUSH1 0xA0 SHL SUB AND PUSH32 0x6D5BD64E64AFADB15DC39B332ECC8B43625B1453EA72E6497C8441772D379650 PUSH2 0x337 DUP4 DUP7 PUSH2 0x12D7 JUMP JUMPDEST PUSH1 0x40 MLOAD SWAP1 DUP2 MSTORE PUSH1 0x20 ADD PUSH1 0x40 MLOAD DUP1 SWAP2 SUB SWAP1 LOG2 DUP6 DUP6 DUP3 DUP2 DUP2 LT PUSH2 0x35A JUMPI PUSH2 0x35A PUSH2 0x1361 JUMP JUMPDEST SWAP1 POP PUSH1 0x20 MUL ADD PUSH1 0x20 DUP2 ADD SWAP1 PUSH2 0x36F SWAP2 SWAP1 PUSH2 0x11B3 JUMP JUMPDEST ISZERO ISZERO PUSH1 0x1 EQ ISZERO PUSH2 0x47B JUMPI PUSH1 0x1 SLOAD PUSH1 0xF DUP1 SLOAD PUSH1 0x1 PUSH1 0x1 PUSH1 0xA0 SHL SUB SWAP1 SWAP3 AND SWAP2 PUSH4 0x3FEB9F7D SWAP2 DUP6 SWAP2 DUP6 SWAP1 DUP2 LT PUSH2 0x3A4 JUMPI PUSH2 0x3A4 PUSH2 0x1361 JUMP JUMPDEST PUSH1 0x0 SWAP2 DUP3 MSTORE PUSH1 0x20 SWAP1 SWAP2 KECCAK256 ADD SLOAD PUSH1 0x40 MLOAD PUSH1 0x1 PUSH1 0x1 PUSH1 0xE0 SHL SUB NOT PUSH1 0xE0 DUP6 SWAP1 SHL AND DUP2 MSTORE PUSH2 0x3DE SWAP3 SWAP2 PUSH1 0x1 PUSH1 0x1 PUSH1 0xA0 SHL SUB AND SWAP1 PUSH1 0x1 SWAP1 PUSH1 0x4 ADD PUSH2 0x12B8 JUMP JUMPDEST PUSH1 0x0 PUSH1 0x40 MLOAD DUP1 DUP4 SUB DUP2 PUSH1 0x0 DUP8 DUP1 EXTCODESIZE ISZERO DUP1 ISZERO PUSH2 0x3F8 JUMPI PUSH1 0x0 DUP1 REVERT JUMPDEST POP GAS CALL ISZERO DUP1 ISZERO PUSH2 0x40C JUMPI RETURNDATASIZE PUSH1 0x0 DUP1 RETURNDATACOPY RETURNDATASIZE PUSH1 0x0 REVERT JUMPDEST POP POP POP POP PUSH1 0xF DUP2 DUP2 SLOAD DUP2 LT PUSH2 0x423 JUMPI PUSH2 0x423 PUSH2 0x1361 JUMP JUMPDEST PUSH1 0x0 SWAP2 DUP3 MSTORE PUSH1 0x20 SWAP2 DUP3 SWAP1 KECCAK256 ADD SLOAD PUSH1 0x40 MLOAD DUP5 DUP2 MSTORE PUSH1 0x1 PUSH1 0x1 PUSH1 0xA0 SHL SUB SWAP1 SWAP2 AND SWAP2 PUSH32 0x5289FFF922CEA93A4BA9C48F90A9C5D5C845AFD5FD9E1AF32017A344528CE51B SWAP2 ADD PUSH1 0x40 MLOAD DUP1 SWAP2 SUB SWAP1 LOG2 PUSH2 0x478 PUSH1 0x1 DUP4 PUSH2 0x12D7 JUMP JUMPDEST SWAP2 POP JUMPDEST DUP1 PUSH2 0x485 DUP2 PUSH2 0x130E JUMP JUMPDEST SWAP2 POP POP PUSH2 0x1AD JUMP JUMPDEST POP PUSH1 0x1 DUP4 ISZERO ISZERO EQ ISZERO PUSH2 0x571 JUMPI PUSH1 0x0 SLOAD PUSH1 0x3 SLOAD PUSH1 0x1 SLOAD PUSH1 0x4 DUP1 SLOAD PUSH1 0x40 MLOAD PUSH4 0x5D3B1D3 PUSH1 0xE4 SHL DUP2 MSTORE SWAP2 DUP3 ADD SWAP4 SWAP1 SWAP4 MSTORE PUSH1 0x1 PUSH1 0xA0 SHL SWAP1 SWAP2 DIV PUSH8 0xFFFFFFFFFFFFFFFF AND PUSH1 0x24 DUP3 ADD MSTORE PUSH5 0x100000000 DUP3 DIV PUSH2 0xFFFF AND PUSH1 0x44 DUP3 ADD MSTORE PUSH4 0xFFFFFFFF DUP1 DUP4 AND PUSH1 0x64 DUP4 ADD MSTORE PUSH7 0x1000000000000 SWAP1 SWAP3 DIV SWAP1 SWAP2 AND PUSH1 0x84 DUP3 ADD MSTORE PUSH1 0x1 PUSH1 0x1 PUSH1 0xA0 SHL SUB SWAP1 SWAP2 AND SWAP1 PUSH4 0x5D3B1D30 SWAP1 PUSH1 0xA4 ADD PUSH1 0x20 PUSH1 0x40 MLOAD DUP1 DUP4 SUB DUP2 PUSH1 0x0 DUP8 DUP1 EXTCODESIZE ISZERO DUP1 ISZERO PUSH2 0x531 JUMPI PUSH1 0x0 DUP1 REVERT JUMPDEST POP GAS CALL ISZERO DUP1 ISZERO PUSH2 0x545 JUMPI RETURNDATASIZE PUSH1 0x0 DUP1 RETURNDATACOPY RETURNDATASIZE PUSH1 0x0 REVERT JUMPDEST POP POP POP POP PUSH1 0x40 MLOAD RETURNDATASIZE PUSH1 0x1F NOT PUSH1 0x1F DUP3 ADD AND DUP3 ADD DUP1 PUSH1 0x40 MSTORE POP DUP2 ADD SWAP1 PUSH2 0x569 SWAP2 SWAP1 PUSH2 0x11CE JUMP JUMPDEST PUSH1 0x6 SSTORE PUSH2 0x57D JUMP JUMPDEST TIMESTAMP PUSH1 0x5 SSTORE PUSH2 0x57D PUSH2 0x7D1 JUMP JUMPDEST POP POP POP POP POP POP POP POP POP JUMP JUMPDEST CALLER PUSH1 0x1 PUSH1 0x1 PUSH1 0xA0 SHL SUB PUSH32 0x0 AND EQ PUSH2 0x606 JUMPI PUSH1 0x40 MLOAD PUSH4 0x73E64FD PUSH1 0xE2 SHL DUP2 MSTORE CALLER PUSH1 0x4 DUP3 ADD MSTORE PUSH1 0x1 PUSH1 0x1 PUSH1 0xA0 SHL SUB PUSH32 0x0 AND PUSH1 0x24 DUP3 ADD MSTORE PUSH1 0x44 ADD PUSH1 0x40 MLOAD DUP1 SWAP2 SUB SWAP1 REVERT JUMPDEST PUSH2 0x610 DUP3 DUP3 PUSH2 0xCE8 JUMP JUMPDEST POP POP JUMP JUMPDEST PUSH1 0x8 SLOAD PUSH1 0x1 PUSH1 0x1 PUSH1 0xA0 SHL SUB AND CALLER EQ PUSH2 0x62B JUMPI PUSH1 0x0 DUP1 REVERT JUMPDEST PUSH1 0x1 DUP2 ISZERO ISZERO EQ ISZERO PUSH2 0x70A JUMPI PUSH1 0x0 SLOAD PUSH1 0x3 SLOAD PUSH1 0x1 SLOAD PUSH1 0x4 DUP1 SLOAD PUSH1 0x40 MLOAD PUSH4 0x5D3B1D3 PUSH1 0xE4 SHL DUP2 MSTORE SWAP2 DUP3 ADD SWAP4 SWAP1 SWAP4 MSTORE PUSH1 0x1 PUSH1 0xA0 SHL SWAP1 SWAP2 DIV PUSH8 0xFFFFFFFFFFFFFFFF AND PUSH1 0x24 DUP3 ADD MSTORE PUSH5 0x100000000 DUP3 DIV PUSH2 0xFFFF AND PUSH1 0x44 DUP3 ADD MSTORE PUSH4 0xFFFFFFFF DUP1 DUP4 AND PUSH1 0x64 DUP4 ADD MSTORE PUSH7 0x1000000000000 SWAP1 SWAP3 DIV SWAP1 SWAP2 AND PUSH1 0x84 DUP3 ADD MSTORE PUSH1 0x1 PUSH1 0x1 PUSH1 0xA0 SHL SUB SWAP1 SWAP2 AND SWAP1 PUSH4 0x5D3B1D30 SWAP1 PUSH1 0xA4 ADD PUSH1 0x20 PUSH1 0x40 MLOAD DUP1 DUP4 SUB DUP2 PUSH1 0x0 DUP8 DUP1 EXTCODESIZE ISZERO DUP1 ISZERO PUSH2 0x6CE JUMPI PUSH1 0x0 DUP1 REVERT JUMPDEST POP GAS CALL ISZERO DUP1 ISZERO PUSH2 0x6E2 JUMPI RETURNDATASIZE PUSH1 0x0 DUP1 RETURNDATACOPY RETURNDATASIZE PUSH1 0x0 REVERT JUMPDEST POP POP POP POP PUSH1 0x40 MLOAD RETURNDATASIZE PUSH1 0x1F NOT PUSH1 0x1F DUP3 ADD AND DUP3 ADD DUP1 PUSH1 0x40 MSTORE POP DUP2 ADD SWAP1 PUSH2 0x706 SWAP2 SWAP1 PUSH2 0x11CE JUMP JUMPDEST PUSH1 0x6 SSTORE JUMPDEST PUSH1 0x9 DUP1 SLOAD PUSH1 0x1 DUP1 DUP3 ADD SWAP1 SWAP3 SSTORE PUSH32 0x6E1540171B6C0C960B71A7020D9F60077F6AF931A8BBF590DA0223DACF75C7AF ADD DUP1 SLOAD PUSH1 0x1 PUSH1 0x1 PUSH1 0xA0 SHL SUB NOT AND PUSH1 0x1 PUSH1 0x1 PUSH1 0xA0 SHL SUB DUP7 AND OR SWAP1 SSTORE PUSH1 0xA DUP1 SLOAD SWAP2 DUP3 ADD DUP2 SSTORE PUSH1 0x0 MSTORE PUSH32 0xC65A7BB8D6351C1CF70C95A316CC6A92839C986682D98BC35F958F4883F9D2A8 ADD DUP3 SWAP1 SSTORE DUP1 PUSH2 0x793 JUMPI TIMESTAMP PUSH1 0x5 SSTORE PUSH2 0x793 PUSH2 0xD3D JUMP JUMPDEST POP POP POP JUMP JUMPDEST PUSH1 0x7 SLOAD PUSH1 0x1 PUSH1 0x1 PUSH1 0xA0 SHL SUB AND CALLER EQ PUSH2 0x7AF JUMPI PUSH1 0x0 DUP1 REVERT JUMPDEST PUSH1 0x7 DUP1 SLOAD PUSH1 0x1 PUSH1 0x1 PUSH1 0xA0 SHL SUB NOT AND PUSH1 0x1 PUSH1 0x1 PUSH1 0xA0 SHL SUB SWAP3 SWAP1 SWAP3 AND SWAP2 SWAP1 SWAP2 OR SWAP1 SSTORE JUMP JUMPDEST PUSH1 0x0 PUSH1 0x5 SLOAD SWAP1 POP PUSH1 0xA PUSH1 0xB SLOAD DUP2 SLOAD DUP2 LT PUSH2 0x7ED JUMPI PUSH2 0x7ED PUSH2 0x1361 JUMP JUMPDEST SWAP1 PUSH1 0x0 MSTORE PUSH1 0x20 PUSH1 0x0 KECCAK256 ADD SLOAD PUSH1 0x0 EQ ISZERO PUSH2 0xCCD JUMPI PUSH1 0x0 DUP1 JUMPDEST PUSH1 0xE SLOAD DUP2 LT ISZERO PUSH2 0x84B JUMPI PUSH1 0xE DUP2 DUP2 SLOAD DUP2 LT PUSH2 0x821 JUMPI PUSH2 0x821 PUSH2 0x1361 JUMP JUMPDEST SWAP1 PUSH1 0x0 MSTORE PUSH1 0x20 PUSH1 0x0 KECCAK256 ADD SLOAD DUP3 PUSH2 0x837 SWAP2 SWAP1 PUSH2 0x12D7 JUMP JUMPDEST SWAP2 POP DUP1 PUSH2 0x843 DUP2 PUSH2 0x130E JUMP JUMPDEST SWAP2 POP POP PUSH2 0x804 JUMP JUMPDEST POP PUSH1 0x0 DUP2 DUP4 PUSH1 0x40 MLOAD PUSH1 0x20 ADD PUSH2 0x885 SWAP2 DUP2 MSTORE PUSH8 0x77696E6E65725F31 PUSH1 0xC0 SHL PUSH1 0x20 DUP3 ADD MSTORE PUSH9 0x2BB4B73A32B939BAB7 PUSH1 0xB9 SHL PUSH1 0x28 DUP3 ADD MSTORE PUSH1 0x31 ADD SWAP1 JUMP JUMPDEST PUSH1 0x40 MLOAD PUSH1 0x20 DUP2 DUP4 SUB SUB DUP2 MSTORE SWAP1 PUSH1 0x40 MSTORE DUP1 MLOAD SWAP1 PUSH1 0x20 ADD KECCAK256 PUSH1 0x0 SHR PUSH2 0x8A8 SWAP2 SWAP1 PUSH2 0x1329 JUMP JUMPDEST SWAP1 POP PUSH1 0x0 DUP3 DUP5 PUSH1 0x40 MLOAD PUSH1 0x20 ADD PUSH2 0x8E3 SWAP2 DUP2 MSTORE PUSH8 0x3BB4B73732B92F99 PUSH1 0xC1 SHL PUSH1 0x20 DUP3 ADD MSTORE PUSH9 0x2837BBB2B93BB7B633 PUSH1 0xB9 SHL PUSH1 0x28 DUP3 ADD MSTORE PUSH1 0x31 ADD SWAP1 JUMP JUMPDEST PUSH1 0x40 MLOAD PUSH1 0x20 DUP2 DUP4 SUB SUB DUP2 MSTORE SWAP1 PUSH1 0x40 MSTORE DUP1 MLOAD SWAP1 PUSH1 0x20 ADD KECCAK256 PUSH1 0x0 SHR PUSH2 0x906 SWAP2 SWAP1 PUSH2 0x1329 JUMP JUMPDEST SWAP1 POP PUSH1 0x0 DUP4 DUP6 PUSH1 0x40 MLOAD PUSH1 0x20 ADD PUSH2 0x941 SWAP2 DUP2 MSTORE PUSH8 0x77696E6E65725F33 PUSH1 0xC0 SHL PUSH1 0x20 DUP3 ADD MSTORE PUSH9 0x496E20466C616D6573 PUSH1 0xB8 SHL PUSH1 0x28 DUP3 ADD MSTORE PUSH1 0x31 ADD SWAP1 JUMP JUMPDEST PUSH1 0x40 MLOAD PUSH1 0x20 DUP2 DUP4 SUB SUB DUP2 MSTORE SWAP1 PUSH1 0x40 MSTORE DUP1 MLOAD SWAP1 PUSH1 0x20 ADD KECCAK256 PUSH1 0x0 SHR PUSH2 0x964 SWAP2 SWAP1 PUSH2 0x1329 JUMP JUMPDEST SWAP1 POP PUSH1 0x0 DUP1 JUMPDEST PUSH1 0xE SLOAD DUP2 LT ISZERO PUSH2 0xCC6 JUMPI PUSH1 0xE DUP2 DUP2 SLOAD DUP2 LT PUSH2 0x987 JUMPI PUSH2 0x987 PUSH2 0x1361 JUMP JUMPDEST SWAP1 PUSH1 0x0 MSTORE PUSH1 0x20 PUSH1 0x0 KECCAK256 ADD SLOAD DUP3 PUSH2 0x99D SWAP2 SWAP1 PUSH2 0x12D7 JUMP JUMPDEST SWAP2 POP DUP5 DUP3 GT ISZERO PUSH2 0xAA6 JUMPI PUSH1 0x1 SLOAD PUSH1 0xF DUP1 SLOAD PUSH1 0x1 PUSH1 0x1 PUSH1 0xA0 SHL SUB SWAP1 SWAP3 AND SWAP2 PUSH4 0x3FEB9F7D SWAP2 PUSH2 0x3E9 SWAP2 DUP6 SWAP1 DUP2 LT PUSH2 0x9D4 JUMPI PUSH2 0x9D4 PUSH2 0x1361 JUMP JUMPDEST PUSH1 0x0 SWAP2 DUP3 MSTORE PUSH1 0x20 SWAP1 SWAP2 KECCAK256 ADD SLOAD PUSH1 0x40 MLOAD PUSH1 0x1 PUSH1 0x1 PUSH1 0xE0 SHL SUB NOT PUSH1 0xE0 DUP6 SWAP1 SHL AND DUP2 MSTORE PUSH2 0xA0E SWAP3 SWAP2 PUSH1 0x1 PUSH1 0x1 PUSH1 0xA0 SHL SUB AND SWAP1 PUSH1 0x1 SWAP1 PUSH1 0x4 ADD PUSH2 0x12B8 JUMP JUMPDEST PUSH1 0x0 PUSH1 0x40 MLOAD DUP1 DUP4 SUB DUP2 PUSH1 0x0 DUP8 DUP1 EXTCODESIZE ISZERO DUP1 ISZERO PUSH2 0xA28 JUMPI PUSH1 0x0 DUP1 REVERT JUMPDEST POP GAS CALL ISZERO DUP1 ISZERO PUSH2 0xA3C JUMPI RETURNDATASIZE PUSH1 0x0 DUP1 RETURNDATACOPY RETURNDATASIZE PUSH1 0x0 REVERT JUMPDEST POP POP POP POP DUP6 SWAP5 POP PUSH1 0xF DUP2 DUP2 SLOAD DUP2 LT PUSH2 0xA56 JUMPI PUSH2 0xA56 PUSH2 0x1361 JUMP JUMPDEST PUSH1 0x0 SWAP2 DUP3 MSTORE PUSH1 0x20 SWAP2 DUP3 SWAP1 KECCAK256 ADD SLOAD PUSH1 0x40 MLOAD PUSH2 0x3E9 DUP2 MSTORE PUSH1 0x1 PUSH1 0x1 PUSH1 0xA0 SHL SUB SWAP1 SWAP2 AND SWAP2 PUSH1 0x1 SWAP2 PUSH32 0x82A2D045CD9C4D75D233EF4BCE9DA3682EE8AED7BFC23B999966BC558E78010F SWAP2 ADD PUSH1 0x40 MLOAD DUP1 SWAP2 SUB SWAP1 LOG3 JUMPDEST DUP4 DUP3 GT ISZERO PUSH2 0xBAD JUMPI PUSH1 0x1 SLOAD PUSH1 0xF DUP1 SLOAD PUSH1 0x1 PUSH1 0x1 PUSH1 0xA0 SHL SUB SWAP1 SWAP3 AND SWAP2 PUSH4 0x3FEB9F7D SWAP2 PUSH2 0x3EA SWAP2 DUP6 SWAP1 DUP2 LT PUSH2 0xADB JUMPI PUSH2 0xADB PUSH2 0x1361 JUMP JUMPDEST PUSH1 0x0 SWAP2 DUP3 MSTORE PUSH1 0x20 SWAP1 SWAP2 KECCAK256 ADD SLOAD PUSH1 0x40 MLOAD PUSH1 0x1 PUSH1 0x1 PUSH1 0xE0 SHL SUB NOT PUSH1 0xE0 DUP6 SWAP1 SHL AND DUP2 MSTORE PUSH2 0xB15 SWAP3 SWAP2 PUSH1 0x1 PUSH1 0x1 PUSH1 0xA0 SHL SUB AND SWAP1 PUSH1 0x1 SWAP1 PUSH1 0x4 ADD PUSH2 0x12B8 JUMP JUMPDEST PUSH1 0x0 PUSH1 0x40 MLOAD DUP1 DUP4 SUB DUP2 PUSH1 0x0 DUP8 DUP1 EXTCODESIZE ISZERO DUP1 ISZERO PUSH2 0xB2F JUMPI PUSH1 0x0 DUP1 REVERT JUMPDEST POP GAS CALL ISZERO DUP1 ISZERO PUSH2 0xB43 JUMPI RETURNDATASIZE PUSH1 0x0 DUP1 RETURNDATACOPY RETURNDATASIZE PUSH1 0x0 REVERT JUMPDEST POP POP POP POP DUP6 SWAP4 POP PUSH1 0xF DUP2 DUP2 SLOAD DUP2 LT PUSH2 0xB5D JUMPI PUSH2 0xB5D PUSH2 0x1361 JUMP JUMPDEST PUSH1 0x0 SWAP2 DUP3 MSTORE PUSH1 0x20 SWAP2 DUP3 SWAP1 KECCAK256 ADD SLOAD PUSH1 0x40 MLOAD PUSH2 0x3EA DUP2 MSTORE PUSH1 0x1 PUSH1 0x1 PUSH1 0xA0 SHL SUB SWAP1 SWAP2 AND SWAP2 PUSH1 0x2 SWAP2 PUSH32 0x82A2D045CD9C4D75D233EF4BCE9DA3682EE8AED7BFC23B999966BC558E78010F SWAP2 ADD PUSH1 0x40 MLOAD DUP1 SWAP2 SUB SWAP1 LOG3 JUMPDEST DUP3 DUP3 GT ISZERO PUSH2 0xCB4 JUMPI PUSH1 0x1 SLOAD PUSH1 0xF DUP1 SLOAD PUSH1 0x1 PUSH1 0x1 PUSH1 0xA0 SHL SUB SWAP1 SWAP3 AND SWAP2 PUSH4 0x3FEB9F7D SWAP2 PUSH2 0x3EB SWAP2 DUP6 SWAP1 DUP2 LT PUSH2 0xBE2 JUMPI PUSH2 0xBE2 PUSH2 0x1361 JUMP JUMPDEST PUSH1 0x0 SWAP2 DUP3 MSTORE PUSH1 0x20 SWAP1 SWAP2 KECCAK256 ADD SLOAD PUSH1 0x40 MLOAD PUSH1 0x1 PUSH1 0x1 PUSH1 0xE0 SHL SUB NOT PUSH1 0xE0 DUP6 SWAP1 SHL AND DUP2 MSTORE PUSH2 0xC1C SWAP3 SWAP2 PUSH1 0x1 PUSH1 0x1 PUSH1 0xA0 SHL SUB AND SWAP1 PUSH1 0x1 SWAP1 PUSH1 0x4 ADD PUSH2 0x12B8 JUMP JUMPDEST PUSH1 0x0 PUSH1 0x40 MLOAD DUP1 DUP4 SUB DUP2 PUSH1 0x0 DUP8 DUP1 EXTCODESIZE ISZERO DUP1 ISZERO PUSH2 0xC36 JUMPI PUSH1 0x0 DUP1 REVERT JUMPDEST POP GAS CALL ISZERO DUP1 ISZERO PUSH2 0xC4A JUMPI RETURNDATASIZE PUSH1 0x0 DUP1 RETURNDATACOPY RETURNDATASIZE PUSH1 0x0 REVERT JUMPDEST POP POP POP POP DUP6 SWAP3 POP PUSH1 0xF DUP2 DUP2 SLOAD DUP2 LT PUSH2 0xC64 JUMPI PUSH2 0xC64 PUSH2 0x1361 JUMP JUMPDEST PUSH1 0x0 SWAP2 DUP3 MSTORE PUSH1 0x20 SWAP2 DUP3 SWAP1 KECCAK256 ADD SLOAD PUSH1 0x40 MLOAD PUSH2 0x3EB DUP2 MSTORE PUSH1 0x1 PUSH1 0x1 PUSH1 0xA0 SHL SUB SWAP1 SWAP2 AND SWAP2 PUSH1 0x3 SWAP2 PUSH32 0x82A2D045CD9C4D75D233EF4BCE9DA3682EE8AED7BFC23B999966BC558E78010F SWAP2 ADD PUSH1 0x40 MLOAD DUP1 SWAP2 SUB SWAP1 LOG3 JUMPDEST DUP1 PUSH2 0xCBE DUP2 PUSH2 0x130E JUMP JUMPDEST SWAP2 POP POP PUSH2 0x96A JUMP JUMPDEST POP POP POP POP POP POP JUMPDEST PUSH1 0x1 PUSH1 0xB PUSH1 0x0 DUP3 DUP3 SLOAD PUSH2 0xCE0 SWAP2 SWAP1 PUSH2 0x12D7 JUMP JUMPDEST SWAP1 SWAP2 SSTORE POP POP POP JUMP JUMPDEST DUP1 PUSH1 0x0 DUP2 MLOAD DUP2 LT PUSH2 0xCFB JUMPI PUSH2 0xCFB PUSH2 0x1361 JUMP JUMPDEST PUSH1 0x20 MUL PUSH1 0x20 ADD ADD MLOAD PUSH1 0x5 DUP2 SWAP1 SSTORE POP PUSH1 0xA PUSH1 0xB SLOAD DUP2 SLOAD DUP2 LT PUSH2 0xD1E JUMPI PUSH2 0xD1E PUSH2 0x1361 JUMP JUMPDEST SWAP1 PUSH1 0x0 MSTORE PUSH1 0x20 PUSH1 0x0 KECCAK256 ADD SLOAD PUSH1 0x0 EQ ISZERO PUSH2 0xD39 JUMPI PUSH2 0x610 PUSH2 0x7D1 JUMP JUMPDEST PUSH2 0x610 JUMPDEST PUSH1 0x5 SLOAD PUSH1 0x0 DUP1 DUP1 DUP1 DUP1 DUP1 JUMPDEST PUSH1 0xA PUSH1 0xB SLOAD DUP2 SLOAD DUP2 LT PUSH2 0xD5D JUMPI PUSH2 0xD5D PUSH2 0x1361 JUMP JUMPDEST SWAP1 PUSH1 0x0 MSTORE PUSH1 0x20 PUSH1 0x0 KECCAK256 ADD SLOAD DUP2 LT ISZERO PUSH2 0xE46 JUMPI PUSH1 0x0 PUSH1 0x5 DUP9 DUP4 PUSH1 0x40 MLOAD PUSH1 0x20 ADD PUSH2 0xD8F SWAP3 SWAP2 SWAP1 SWAP2 DUP3 MSTORE PUSH1 0x20 DUP3 ADD MSTORE PUSH1 0x40 ADD SWAP1 JUMP JUMPDEST PUSH1 0x40 MLOAD PUSH1 0x20 DUP2 DUP4 SUB SUB DUP2 MSTORE SWAP1 PUSH1 0x40 MSTORE DUP1 MLOAD SWAP1 PUSH1 0x20 ADD KECCAK256 PUSH1 0x0 SHR PUSH2 0xDB2 SWAP2 SWAP1 PUSH2 0x1329 JUMP JUMPDEST SWAP1 POP DUP1 PUSH2 0xDCB JUMPI DUP7 PUSH2 0xDC3 DUP2 PUSH2 0x130E JUMP JUMPDEST SWAP8 POP POP PUSH2 0xE33 JUMP JUMPDEST DUP1 PUSH1 0x1 EQ ISZERO PUSH2 0xDE6 JUMPI DUP6 PUSH2 0xDDE DUP2 PUSH2 0x130E JUMP JUMPDEST SWAP7 POP POP PUSH2 0xE33 JUMP JUMPDEST DUP1 PUSH1 0x2 EQ ISZERO PUSH2 0xE01 JUMPI DUP5 PUSH2 0xDF9 DUP2 PUSH2 0x130E JUMP JUMPDEST SWAP6 POP POP PUSH2 0xE33 JUMP JUMPDEST DUP1 PUSH1 0x3 EQ ISZERO PUSH2 0xE1C JUMPI DUP4 PUSH2 0xE14 DUP2 PUSH2 0x130E JUMP JUMPDEST SWAP5 POP POP PUSH2 0xE33 JUMP JUMPDEST DUP1 PUSH1 0x4 EQ ISZERO PUSH2 0xE33 JUMPI DUP3 PUSH2 0xE2F DUP2 PUSH2 0x130E JUMP JUMPDEST SWAP4 POP POP JUMPDEST POP DUP1 PUSH2 0xE3E DUP2 PUSH2 0x130E JUMP JUMPDEST SWAP2 POP POP PUSH2 0xD48 JUMP JUMPDEST POP PUSH1 0x0 PUSH1 0x40 MLOAD DUP1 PUSH1 0xA0 ADD PUSH1 0x40 MSTORE DUP1 DUP8 DUP2 MSTORE PUSH1 0x20 ADD DUP7 DUP2 MSTORE PUSH1 0x20 ADD DUP6 DUP2 MSTORE PUSH1 0x20 ADD DUP5 DUP2 MSTORE PUSH1 0x20 ADD DUP4 DUP2 MSTORE POP SWAP1 POP PUSH1 0x0 JUMPDEST PUSH1 0x5 DUP2 LT ISZERO PUSH2 0xF5D JUMPI PUSH1 0x0 DUP3 DUP3 PUSH1 0x5 DUP2 LT PUSH2 0xE92 JUMPI PUSH2 0xE92 PUSH2 0x1361 JUMP JUMPDEST PUSH1 0x20 MUL ADD MLOAD GT ISZERO PUSH2 0xF4B JUMPI PUSH1 0x1 SLOAD PUSH1 0x1 PUSH1 0x1 PUSH1 0xA0 SHL SUB AND PUSH4 0x3FEB9F7D PUSH2 0xEB9 DUP4 PUSH1 0x4 PUSH2 0x12EF JUMP JUMPDEST PUSH1 0x9 PUSH1 0xB SLOAD DUP2 SLOAD DUP2 LT PUSH2 0xECE JUMPI PUSH2 0xECE PUSH2 0x1361 JUMP JUMPDEST PUSH1 0x0 SWAP2 DUP3 MSTORE PUSH1 0x20 SWAP1 SWAP2 KECCAK256 ADD SLOAD PUSH1 0x1 PUSH1 0x1 PUSH1 0xA0 SHL SUB AND DUP6 DUP6 PUSH1 0x5 DUP2 LT PUSH2 0xEF5 JUMPI PUSH2 0xEF5 PUSH2 0x1361 JUMP JUMPDEST PUSH1 0x20 MUL ADD MLOAD PUSH1 0x40 MLOAD DUP5 PUSH4 0xFFFFFFFF AND PUSH1 0xE0 SHL DUP2 MSTORE PUSH1 0x4 ADD PUSH2 0xF18 SWAP4 SWAP3 SWAP2 SWAP1 PUSH2 0x12B8 JUMP JUMPDEST PUSH1 0x0 PUSH1 0x40 MLOAD DUP1 DUP4 SUB DUP2 PUSH1 0x0 DUP8 DUP1 EXTCODESIZE ISZERO DUP1 ISZERO PUSH2 0xF32 JUMPI PUSH1 0x0 DUP1 REVERT JUMPDEST POP GAS CALL ISZERO DUP1 ISZERO PUSH2 0xF46 JUMPI RETURNDATASIZE PUSH1 0x0 DUP1 RETURNDATACOPY RETURNDATASIZE PUSH1 0x0 REVERT JUMPDEST POP POP POP POP JUMPDEST DUP1 PUSH2 0xF55 DUP2 PUSH2 0x130E JUMP JUMPDEST SWAP2 POP POP PUSH2 0xE75 JUMP JUMPDEST POP PUSH1 0x1 PUSH1 0xB PUSH1 0x0 DUP3 DUP3 SLOAD PUSH2 0xF71 SWAP2 SWAP1 PUSH2 0x12D7 JUMP JUMPDEST SWAP1 SWAP2 SSTORE POP POP POP POP POP POP POP POP POP JUMP JUMPDEST DUP3 DUP1 SLOAD DUP3 DUP3 SSTORE SWAP1 PUSH1 0x0 MSTORE PUSH1 0x20 PUSH1 0x0 KECCAK256 SWAP1 DUP2 ADD SWAP3 DUP3 ISZERO PUSH2 0xFBA JUMPI SWAP2 PUSH1 0x20 MUL DUP3 ADD JUMPDEST DUP3 DUP2 GT ISZERO PUSH2 0xFBA JUMPI DUP3 CALLDATALOAD DUP3 SSTORE SWAP2 PUSH1 0x20 ADD SWAP2 SWAP1 PUSH1 0x1 ADD SWAP1 PUSH2 0xF9F JUMP JUMPDEST POP PUSH2 0xFC6 SWAP3 SWAP2 POP PUSH2 0x101D JUMP JUMPDEST POP SWAP1 JUMP JUMPDEST DUP3 DUP1 SLOAD DUP3 DUP3 SSTORE SWAP1 PUSH1 0x0 MSTORE PUSH1 0x20 PUSH1 0x0 KECCAK256 SWAP1 DUP2 ADD SWAP3 DUP3 ISZERO PUSH2 0xFBA JUMPI SWAP2 PUSH1 0x20 MUL DUP3 ADD JUMPDEST DUP3 DUP2 GT ISZERO PUSH2 0xFBA JUMPI DUP2 SLOAD PUSH1 0x1 PUSH1 0x1 PUSH1 0xA0 SHL SUB NOT AND PUSH1 0x1 PUSH1 0x1 PUSH1 0xA0 SHL SUB DUP5 CALLDATALOAD AND OR DUP3 SSTORE PUSH1 0x20 SWAP1 SWAP3 ADD SWAP2 PUSH1 0x1 SWAP1 SWAP2 ADD SWAP1 PUSH2 0xFEA JUMP JUMPDEST JUMPDEST DUP1 DUP3 GT ISZERO PUSH2 0xFC6 JUMPI PUSH1 0x0 DUP2 SSTORE PUSH1 0x1 ADD PUSH2 0x101E JUMP JUMPDEST DUP1 CALLDATALOAD PUSH1 0x1 PUSH1 0x1 PUSH1 0xA0 SHL SUB DUP2 AND DUP2 EQ PUSH2 0x1049 JUMPI PUSH1 0x0 DUP1 REVERT JUMPDEST SWAP2 SWAP1 POP JUMP JUMPDEST PUSH1 0x0 DUP1 DUP4 PUSH1 0x1F DUP5 ADD SLT PUSH2 0x1060 JUMPI PUSH1 0x0 DUP1 REVERT JUMPDEST POP DUP2 CALLDATALOAD PUSH8 0xFFFFFFFFFFFFFFFF DUP2 GT ISZERO PUSH2 0x1078 JUMPI PUSH1 0x0 DUP1 REVERT JUMPDEST PUSH1 0x20 DUP4 ADD SWAP2 POP DUP4 PUSH1 0x20 DUP3 PUSH1 0x5 SHL DUP6 ADD ADD GT ISZERO PUSH2 0x1093 JUMPI PUSH1 0x0 DUP1 REVERT JUMPDEST SWAP3 POP SWAP3 SWAP1 POP JUMP JUMPDEST DUP1 CALLDATALOAD DUP1 ISZERO ISZERO DUP2 EQ PUSH2 0x1049 JUMPI PUSH1 0x0 DUP1 REVERT JUMPDEST PUSH1 0x0 PUSH1 0x20 DUP3 DUP5 SUB SLT ISZERO PUSH2 0x10BC JUMPI PUSH1 0x0 DUP1 REVERT JUMPDEST PUSH2 0x10C5 DUP3 PUSH2 0x1032 JUMP JUMPDEST SWAP4 SWAP3 POP POP POP JUMP JUMPDEST PUSH1 0x0 DUP1 PUSH1 0x0 PUSH1 0x60 DUP5 DUP7 SUB SLT ISZERO PUSH2 0x10E1 JUMPI PUSH1 0x0 DUP1 REVERT JUMPDEST PUSH2 0x10EA DUP5 PUSH2 0x1032 JUMP JUMPDEST SWAP3 POP PUSH1 0x20 DUP5 ADD CALLDATALOAD SWAP2 POP PUSH2 0x10FF PUSH1 0x40 DUP6 ADD PUSH2 0x109A JUMP JUMPDEST SWAP1 POP SWAP3 POP SWAP3 POP SWAP3 JUMP JUMPDEST PUSH1 0x0 DUP1 PUSH1 0x0 DUP1 PUSH1 0x0 DUP1 PUSH1 0x0 PUSH1 0x80 DUP9 DUP11 SUB SLT ISZERO PUSH2 0x1123 JUMPI PUSH1 0x0 DUP1 REVERT JUMPDEST DUP8 CALLDATALOAD PUSH8 0xFFFFFFFFFFFFFFFF DUP1 DUP3 GT ISZERO PUSH2 0x113B JUMPI PUSH1 0x0 DUP1 REVERT JUMPDEST PUSH2 0x1147 DUP12 DUP4 DUP13 ADD PUSH2 0x104E JUMP JUMPDEST SWAP1 SWAP10 POP SWAP8 POP PUSH1 0x20 DUP11 ADD CALLDATALOAD SWAP2 POP DUP1 DUP3 GT ISZERO PUSH2 0x1160 JUMPI PUSH1 0x0 DUP1 REVERT JUMPDEST PUSH2 0x116C DUP12 DUP4 DUP13 ADD PUSH2 0x104E JUMP JUMPDEST SWAP1 SWAP8 POP SWAP6 POP PUSH1 0x40 DUP11 ADD CALLDATALOAD SWAP2 POP DUP1 DUP3 GT ISZERO PUSH2 0x1185 JUMPI PUSH1 0x0 DUP1 REVERT JUMPDEST POP PUSH2 0x1192 DUP11 DUP3 DUP12 ADD PUSH2 0x104E JUMP JUMPDEST SWAP1 SWAP5 POP SWAP3 POP PUSH2 0x11A5 SWAP1 POP PUSH1 0x60 DUP10 ADD PUSH2 0x109A JUMP JUMPDEST SWAP1 POP SWAP3 SWAP6 SWAP9 SWAP2 SWAP5 SWAP8 POP SWAP3 SWAP6 POP JUMP JUMPDEST PUSH1 0x0 PUSH1 0x20 DUP3 DUP5 SUB SLT ISZERO PUSH2 0x11C5 JUMPI PUSH1 0x0 DUP1 REVERT JUMPDEST PUSH2 0x10C5 DUP3 PUSH2 0x109A JUMP JUMPDEST PUSH1 0x0 PUSH1 0x20 DUP3 DUP5 SUB SLT ISZERO PUSH2 0x11E0 JUMPI PUSH1 0x0 DUP1 REVERT JUMPDEST POP MLOAD SWAP2 SWAP1 POP JUMP JUMPDEST PUSH1 0x0 DUP1 PUSH1 0x40 DUP4 DUP6 SUB SLT ISZERO PUSH2 0x11FA JUMPI PUSH1 0x0 DUP1 REVERT JUMPDEST DUP3 CALLDATALOAD SWAP2 POP PUSH1 0x20 DUP1 DUP5 ADD CALLDATALOAD PUSH8 0xFFFFFFFFFFFFFFFF DUP1 DUP3 GT ISZERO PUSH2 0x121A JUMPI PUSH1 0x0 DUP1 REVERT JUMPDEST DUP2 DUP7 ADD SWAP2 POP DUP7 PUSH1 0x1F DUP4 ADD SLT PUSH2 0x122E JUMPI PUSH1 0x0 DUP1 REVERT JUMPDEST DUP2 CALLDATALOAD DUP2 DUP2 GT ISZERO PUSH2 0x1240 JUMPI PUSH2 0x1240 PUSH2 0x1377 JUMP JUMPDEST DUP1 PUSH1 0x5 SHL PUSH1 0x40 MLOAD PUSH1 0x1F NOT PUSH1 0x3F DUP4 ADD AND DUP2 ADD DUP2 DUP2 LT DUP6 DUP3 GT OR ISZERO PUSH2 0x1265 JUMPI PUSH2 0x1265 PUSH2 0x1377 JUMP JUMPDEST PUSH1 0x40 MSTORE DUP3 DUP2 MSTORE DUP6 DUP2 ADD SWAP4 POP DUP5 DUP7 ADD DUP3 DUP7 ADD DUP8 ADD DUP12 LT ISZERO PUSH2 0x1284 JUMPI PUSH1 0x0 DUP1 REVERT JUMPDEST PUSH1 0x0 SWAP6 POP JUMPDEST DUP4 DUP7 LT ISZERO PUSH2 0x12A7 JUMPI DUP1 CALLDATALOAD DUP6 MSTORE PUSH1 0x1 SWAP6 SWAP1 SWAP6 ADD SWAP5 SWAP4 DUP7 ADD SWAP4 DUP7 ADD PUSH2 0x1289 JUMP JUMPDEST POP DUP1 SWAP7 POP POP POP POP POP POP POP SWAP3 POP SWAP3 SWAP1 POP JUMP JUMPDEST SWAP3 DUP4 MSTORE PUSH1 0x1 PUSH1 0x1 PUSH1 0xA0 SHL SUB SWAP2 SWAP1 SWAP2 AND PUSH1 0x20 DUP4 ADD MSTORE PUSH1 0x40 DUP3 ADD MSTORE PUSH1 0x60 ADD SWAP1 JUMP JUMPDEST PUSH1 0x0 DUP3 NOT DUP3 GT ISZERO PUSH2 0x12EA JUMPI PUSH2 0x12EA PUSH2 0x134B JUMP JUMPDEST POP ADD SWAP1 JUMP JUMPDEST PUSH1 0x0 DUP2 PUSH1 0x0 NOT DIV DUP4 GT DUP3 ISZERO ISZERO AND ISZERO PUSH2 0x1309 JUMPI PUSH2 0x1309 PUSH2 0x134B JUMP JUMPDEST POP MUL SWAP1 JUMP JUMPDEST PUSH1 0x0 PUSH1 0x0 NOT DUP3 EQ ISZERO PUSH2 0x1322 JUMPI PUSH2 0x1322 PUSH2 0x134B JUMP JUMPDEST POP PUSH1 0x1 ADD SWAP1 JUMP JUMPDEST PUSH1 0x0 DUP3 PUSH2 0x1346 JUMPI PUSH4 0x4E487B71 PUSH1 0xE0 SHL PUSH1 0x0 MSTORE PUSH1 0x12 PUSH1 0x4 MSTORE PUSH1 0x24 PUSH1 0x0 REVERT JUMPDEST POP MOD SWAP1 JUMP JUMPDEST PUSH4 0x4E487B71 PUSH1 0xE0 SHL PUSH1 0x0 MSTORE PUSH1 0x11 PUSH1 0x4 MSTORE PUSH1 0x24 PUSH1 0x0 REVERT JUMPDEST PUSH4 0x4E487B71 PUSH1 0xE0 SHL PUSH1 0x0 MSTORE PUSH1 0x32 PUSH1 0x4 MSTORE PUSH1 0x24 PUSH1 0x0 REVERT JUMPDEST PUSH4 0x4E487B71 PUSH1 0xE0 SHL PUSH1 0x0 MSTORE PUSH1 0x41 PUSH1 0x4 MSTORE PUSH1 0x24 PUSH1 0x0 REVERT INVALID LOG2 PUSH5 0x6970667358 0x22 SLT KECCAK256 0x25 0xD9 0xBD 0xF 0xFC DUP7 DUP7 0xC2 0xA7 0xBA DUP7 0xB7 0xDB LOG4 0xB0 0x4F SHL 0xBA 0x2F 0xEF 0xFC 0xF7 0xFB DUP13 0xD9 REVERT RETURNDATASIZE 0xAB REVERT DUP7 MOD DUP16 PUSH5 0x736F6C6343 STOP ADDMOD SMOD STOP CALLER "
		},
		"gasEstimates": {
			"creation": {
				"codeDepositCost": "1011800",
				"executionCost": "infinite",
				"totalCost": "infinite"
			},
			"external": {
				"buyPlayer(address,uint256,bool)": "infinite",
				"changeInterfaceAddress(address)": "26712",
				"changeOwner(address)": "26755",
				"drawWinnerOfRaffel(uint256[],address[],bool[],bool)": "infinite",
				"rawFulfillRandomWords(uint256,uint256[])": "infinite",
				"s_randomWords()": "2328",
				"s_requestId()": "2349"
			},
			"internal": {
				"_buyPlayer()": "infinite",
				"_drawWinnerOfRaffel()": "infinite",
				"fulfillRandomWords(uint256,uint256[] memory)": "infinite"
			}
		},
		"methodIdentifiers": {
			"buyPlayer(address,uint256,bool)": "2b467b26",
			"changeInterfaceAddress(address)": "01870931",
			"changeOwner(address)": "a6f9dae1",
			"drawWinnerOfRaffel(uint256[],address[],bool[],bool)": "1c049515",
			"rawFulfillRandomWords(uint256,uint256[])": "1fe543e3",
			"s_randomWords()": "1d3c7b91",
			"s_requestId()": "e89e106a"
		}
	},
	"abi": [
		{
			"inputs": [
				{
					"internalType": "uint64",
					"name": "subscriptionId",
					"type": "uint64"
				},
				{
					"internalType": "address",
					"name": "_createNFT_address",
					"type": "address"
				}
			],
			"stateMutability": "nonpayable",
			"type": "constructor"
		},
		{
			"inputs": [
				{
					"internalType": "address",
					"name": "have",
					"type": "address"
				},
				{
					"internalType": "address",
					"name": "want",
					"type": "address"
				}
			],
			"name": "OnlyCoordinatorCanFulfill",
			"type": "error"
		},
		{
			"anonymous": false,
			"inputs": [
				{
					"indexed": false,
					"internalType": "uint256",
					"name": "tokenId",
					"type": "uint256"
				},
				{
					"indexed": true,
					"internalType": "address",
					"name": "owner",
					"type": "address"
				}
			],
			"name": "TeanNFT",
			"type": "event"
		},
		{
			"anonymous": false,
			"inputs": [
				{
					"indexed": false,
					"internalType": "uint256",
					"name": "tokenId",
					"type": "uint256"
				},
				{
					"indexed": true,
					"internalType": "address",
					"name": "owner",
					"type": "address"
				}
			],
			"name": "UniqueNFT",
			"type": "event"
		},
		{
			"anonymous": false,
			"inputs": [
				{
					"indexed": true,
					"internalType": "uint256",
					"name": "place",
					"type": "uint256"
				},
				{
					"indexed": false,
					"internalType": "uint256",
					"name": "tokenId",
					"type": "uint256"
				},
				{
					"indexed": true,
					"internalType": "address",
					"name": "owner",
					"type": "address"
				}
			],
			"name": "WinnerNFT",
			"type": "event"
		},
		{
			"inputs": [
				{
					"internalType": "address",
					"name": "_newOwner",
					"type": "address"
				},
				{
					"internalType": "uint256",
					"name": "newPlayers",
					"type": "uint256"
				},
				{
					"internalType": "bool",
					"name": "vrf",
					"type": "bool"
				}
			],
			"name": "buyPlayer",
			"outputs": [],
			"stateMutability": "nonpayable",
			"type": "function"
		},
		{
			"inputs": [
				{
					"internalType": "address",
					"name": "_interface_address",
					"type": "address"
				}
			],
			"name": "changeInterfaceAddress",
			"outputs": [],
			"stateMutability": "nonpayable",
			"type": "function"
		},
		{
			"inputs": [
				{
					"internalType": "address",
					"name": "newOwner",
					"type": "address"
				}
			],
			"name": "changeOwner",
			"outputs": [],
			"stateMutability": "nonpayable",
			"type": "function"
		},
		{
			"inputs": [
				{
					"internalType": "uint256[]",
					"name": "_distributionForRaffel",
					"type": "uint256[]"
				},
				{
					"internalType": "address[]",
					"name": "_nft_addresses",
					"type": "address[]"
				},
				{
					"internalType": "bool[]",
					"name": "has_team",
					"type": "bool[]"
				},
				{
					"internalType": "bool",
					"name": "vrf",
					"type": "bool"
				}
			],
			"name": "drawWinnerOfRaffel",
			"outputs": [],
			"stateMutability": "nonpayable",
			"type": "function"
		},
		{
			"inputs": [
				{
					"internalType": "uint256",
					"name": "requestId",
					"type": "uint256"
				},
				{
					"internalType": "uint256[]",
					"name": "randomWords",
					"type": "uint256[]"
				}
			],
			"name": "rawFulfillRandomWords",
			"outputs": [],
			"stateMutability": "nonpayable",
			"type": "function"
		},
		{
			"inputs": [],
			"name": "s_randomWords",
			"outputs": [
				{
					"internalType": "uint256",
					"name": "",
					"type": "uint256"
				}
			],
			"stateMutability": "view",
			"type": "function"
		},
		{
			"inputs": [],
			"name": "s_requestId",
			"outputs": [
				{
					"internalType": "uint256",
					"name": "",
					"type": "uint256"
				}
			],
			"stateMutability": "view",
			"type": "function"
		}
	]
}