{
	"data": {
		"bytecode": {
			"linkReferences": {},
			"object": "60c060405260116080819052701190cb50da185a5b9b1a5b9ac815195cdd607a1b60a09081526200003491600591906200058f565b5060408051808201909152600c8082526b46432d436861696e6c696e6b60a01b60209092019182526200006a916008916200058f565b50604051806101400160405280610116815260200162003f2b610116913980516200009e916009916020909101906200058f565b50348015620000ac57600080fd5b506040516200404138038062004041833981016040819052620000cf9162000635565b60408051808201909152600c81526b46432d436861696e6c696e6b60a01b6020820152620000fd81620003da565b50600780546001600160a01b0383166001600160a01b031991821617909155600e8054821633908117909155600f8054909216179055604080518082018252600d81526c2432b4b73d102634b7323732b960991b60208083019190915282518084018452600a81526923b7b0b635b2b2b832b960b11b818301528351808501909452600c84526b0aedee4dae640aecacaeec2f60a31b91840191909152620001b0926000908190819081908190620003f3565b620002466040518060400160405280600f81526020016e09cdec2d04096c2e8e8cae4c4c2c6d608b1b81525060405180604001604052806007815260200166446566656e636560c81b81525060008060008060006040518060400160405280601381526020017f427574746f636b732057696e7465726b6f726e00000000000000000000000000815250620003f360201b60201c565b620002c96040518060400160405280600c81526020016b105b991e4814195b1b585c9960a21b81525060405180604001604052806007815260200166446566656e636560c81b81525060008060008060006040518060400160405280600d81526020016c2234b1b6b0b71023bab9ba32b960991b815250620003f360201b60201c565b620003506040518060400160405280600d81526020016c50616a74696d204b6173616d6960981b81525060405180604001604052806008815260200167135a59199a595b1960c21b81525060008060008060006040518060400160405280600f81526020016e15195955195948115b991a58dbdd1d608a1b815250620003f360201b60201c565b620003d36040518060400160405280600b81526020016a2634b0b69026b4b63630b960a91b815250604051806040016040528060078152602001664f6666656e736560c81b81525060008060008060006040518060400160405280600e81526020016d29b1baba1029b0b1b5b934b232b960911b815250620003f360201b60201c565b5062000737565b8051620003ef9060049060208401906200058f565b5050565b60005b60048161ffff1610156200058457600081905060066040518061012001604052808a61ffff1681526020018961ffff1681526020018861ffff1681526020018361ffff1681526020018661ffff1681526020018761ffff1681526020018b81526020018c8152602001858152509080600181540180825580915050600190039060005260206000209060090201600090919091909150600082015181600001556020820151816001015560408201518160020155606082015181600301556080820151816004015560a0820151816005015560c0820151816006019080519060200190620004e69291906200058f565b5060e08201518051620005049160078401916020909101906200058f565b506101008201518051620005239160088401916020909101906200058f565b505050600b8a60405162000538919062000667565b9081526040519081900360200190206006546200055890600190620006a5565b8154600181018355600092835260209092209091015550806200057b81620006fc565b915050620003f6565b505050505050505050565b8280546200059d90620006bf565b90600052602060002090601f016020900481019282620005c157600085556200060c565b82601f10620005dc57805160ff19168380011785556200060c565b828001600101855582156200060c579182015b828111156200060c578251825591602001919060010190620005ef565b506200061a9291506200061e565b5090565b5b808211156200061a57600081556001016200061f565b6000602082840312156200064857600080fd5b81516001600160a01b03811681146200066057600080fd5b9392505050565b6000825160005b818110156200068a57602081860181015185830152016200066e565b818111156200069a576000828501525b509190910192915050565b600082821015620006ba57620006ba62000721565b500390565b600181811c90821680620006d457607f821691505b60208210811415620006f657634e487b7160e01b600052602260045260246000fd5b50919050565b600061ffff8083168181141562000717576200071762000721565b6001019392505050565b634e487b7160e01b600052601160045260246000fd5b6137e480620007476000396000f3fe608060405234801561001057600080fd5b506004361061012b5760003560e01c8063995c9d77116100ad578063d1ae4ea411610071578063d1ae4ea414610283578063ddcbf79414610296578063e985e9c5146102a9578063ee75de03146102e5578063f242432a146102f857600080fd5b8063995c9d7714610222578063a22cb46514610235578063a39fac1214610248578063a6f9dae11461025d578063c236fe441461027057600080fd5b80632eb2c2d6116100f45780632eb2c2d6146101b45780633feb9f7d146101c95780634e1273f4146101dc5780635c7a8d27146101fc57806385ade74f1461020f57600080fd5b8062fdd58e1461013057806301ffc9a71461015657806306fdde03146101795780630e89341c1461018e578063203da719146101a1575b600080fd5b61014361013e36600461289c565b61030b565b6040519081526020015b60405180910390f35b610169610164366004612a0a565b6103a1565b604051901515815260200161014d565b6101816103f3565b60405161014d9190613311565b61018161019c366004612b46565b610481565b6101436101af366004612b46565b610bf8565b6101c76101c2366004612753565b610c43565b005b6101c76101d7366004612b5f565b610cda565b6101ef6101ea3660046128c6565b610d7d565b60405161014d91906132d0565b6101c761020a366004612b94565b610ea6565b6101c761021d366004612a44565b6111ce565b6101c7610230366004612b5f565b61120f565b6101c7610243366004612860565b61125e565b610250611269565b60405161014d9190613283565b6101c761026b366004612705565b6112b8565b6101c761027e366004612720565b611304565b6101c7610291366004612996565b61135c565b6101c76102a4366004612c01565b6113fe565b6101696102b7366004612720565b6001600160a01b03918216600090815260016020908152604080832093909416825291909152205460ff1690565b6101c76102f3366004612af9565b61144f565b6101c76103063660046127fc565b6115f0565b60006001600160a01b03831661037b5760405162461bcd60e51b815260206004820152602a60248201527f455243313135353a2061646472657373207a65726f206973206e6f742061207660448201526930b634b21037bbb732b960b11b60648201526084015b60405180910390fd5b506000908152602081815260408083206001600160a01b03949094168352929052205490565b60006001600160e01b03198216636cdb3d1360e11b14806103d257506001600160e01b031982166303a24d0760e21b145b806103ed57506301ffc9a760e01b6001600160e01b03198316145b92915050565b60058054610400906135c2565b80601f016020809104026020016040519081016040528092919081815260200182805461042c906135c2565b80156104795780601f1061044e57610100808354040283529160200191610479565b820191906000526020600020905b81548152906001019060200180831161045c57829003601f168201915b505050505081565b606060008060606103e985101561054a57600685815481106104a5576104a5613684565b9060005260206000209060090201600301549250849150600980546104c9906135c2565b80601f01602080910402602001604051908101604052809291908181526020018280546104f5906135c2565b80156105425780601f1061051757610100808354040283529160200191610542565b820191906000526020600020905b81548152906001019060200180831161052557829003601f168201915b505050505090505b846103e914156105da57604080516020808201889052428284015266506c616365203160c81b60608301526003606780840182905284518085039091018152608790930190935281519101209093506105a590600590613644565b6105b0906004613560565b915060096040516020016105c4919061307a565b60405160208183030381529060405290506106e0565b846103ea141561065457604080516020808201889052428284015266283630b1b2901960c91b606083015260026067808401829052845180850390910181526087909301909352815191012090935061063590600590613644565b610640906004613560565b915060096040516020016105c491906131ce565b846103eb14156106e057604080516020808201889052428284015266506c616365203360c81b60608301526001606780840182905284518085039091018152608790930190935281519101209093506106af90600590613644565b6106ba906004613560565b915060096040516020016106ce919061316b565b60405160208183030381529060405290505b6107d0851180156106f357506298968185105b1561077f57600092506005854260405160200161072b9291909182526020820152671519585b4813919560c21b604082015260480190565b6040516020818303038152906040528051906020012060001c61074e9190613644565b610759906004613560565b9150600960405160200161076d9190613059565b60405160208183030381529060405290505b629896808511156108115760009250600585426040516020016107bd9291909182526020820152671519585b4813919560c21b604082015260480190565b6040516020818303038152906040528051906020012060001c6107e09190613644565b6107eb906004613560565b915060096040516020016107ff919061303a565b60405160208183030381529060405290505b6000858152600d6020526040812054600680549192918590811061083757610837613684565b90600052602060002090600902016040518061012001604052908160008201548152602001600182015481526020016002820154815260200160038201548152602001600482015481526020016005820154815260200160068201805461089d906135c2565b80601f01602080910402602001604051908101604052809291908181526020018280546108c9906135c2565b80156109165780601f106108eb57610100808354040283529160200191610916565b820191906000526020600020905b8154815290600101906020018083116108f957829003601f168201915b5050505050815260200160078201805461092f906135c2565b80601f016020809104026020016040519081016040528092919081815260200182805461095b906135c2565b80156109a85780601f1061097d576101008083540402835291602001916109a8565b820191906000526020600020905b81548152906001019060200180831161098b57829003601f168201915b505050505081526020016008820180546109c1906135c2565b80601f01602080910402602001604051908101604052809291908181526020018280546109ed906135c2565b8015610a3a5780601f10610a0f57610100808354040283529160200191610a3a565b820191906000526020600020905b815481529060010190602001808311610a1d57829003601f168201915b5050509190925250506007546040516321f8dd9d60e01b81529293506000926001600160a01b0390911691506321f8dd9d90610a809085908a908d90899060040161342a565b60006040518083038186803b158015610a9857600080fd5b505afa158015610aac573d6000803e3d6000fd5b505050506040513d6000823e601f3d908101601f19168201604052610ad49190810190612a78565b9050600082610100015185610ae884611677565b604051602001610afa93929190613098565b6040516020818303038152906040529050808361010001518460c00151610b2486600001516117dc565b610b3187602001516117dc565b604051602001610b45959493929190612eef565b604051602081830303815290604052905080610b6484604001516117dc565b610b7185606001516117dc565b610b7e86608001516117dc565b610b8b8760a001516117dc565b610b9c610b978c6118e1565b6117dc565b604051602001610bb196959493929190612d5c565b6040516020818303038152906040529050610bcb81611677565b604051602001610bdb9190613189565b604051602081830303815290604052975050505050505050919050565b600f546000906001600160a01b0316331480610c1e57506010546001600160a01b031633145b610c3a5760405162461bcd60e51b81526004016103729061336c565b6103ed826118e1565b6001600160a01b038516331480610c5f5750610c5f85336102b7565b610cc65760405162461bcd60e51b815260206004820152603260248201527f455243313135353a207472616e736665722063616c6c6572206973206e6f74206044820152711bdddb995c881b9bdc88185c1c1c9bdd995960721b6064820152608401610372565b610cd38585858585611a79565b5050505050565b600f546001600160a01b0316331480610cfd57506010546001600160a01b031633145b610d195760405162461bcd60e51b81526004016103729061336c565b610d3482848360405180602001604052806000815250611cda565b60408051848152602081018390526001600160a01b038416917fc53d2da4a9ef9b259c31a6afa294d43b018aa5930a327c1defc6ad7ceb406c5e910160405180910390a2505050565b60608151835114610de25760405162461bcd60e51b815260206004820152602960248201527f455243313135353a206163636f756e747320616e6420696473206c656e677468604482015268040dad2e6dac2e8c6d60bb1b6064820152608401610372565b600083516001600160401b03811115610dfd57610dfd61369a565b604051908082528060200260200182016040528015610e26578160200160208202803683370190505b50905060005b8451811015610e9e57610e71858281518110610e4a57610e4a613684565b6020026020010151858381518110610e6457610e64613684565b602002602001015161030b565b828281518110610e8357610e83613684565b6020908102919091010152610e9781613629565b9050610e2c565b509392505050565b600f546001600160a01b0316331480610ec957506010546001600160a01b031633145b610ee55760405162461bcd60e51b81526004016103729061336c565b60608660041415610f1c575060408051808201909152600f81526e09cdec2d04096c2e8e8cae4c4c2c6d608b1b6020820152610fdd565b8660031415610f4e575060408051808201909152600c81526b105b991e4814195b1b585c9960a21b6020820152610fdd565b8660021415610f81575060408051808201909152600d81526c50616a74696d204b6173616d6960981b6020820152610fdd565b8660011415610fb2575060408051808201909152600b81526a2634b0b69026b4b63630b960a91b6020820152610fdd565b86610fdd575060408051808201909152600d81526c2432b4b73d102634b7323732b960991b60208201525b6000600b82604051610fef9190612d40565b908152604080519182900360209081018320805480830285018301909352828452919083018282801561104157602002820191906000526020600020905b81548152602001906001019080831161102d575b5050505050905060005b81518110156111c3578761ffff16600683838151811061106d5761106d613684565b60200260200101518154811061108557611085613684565b9060005260206000209060090201600001819055508661ffff1660068383815181106110b3576110b3613684565b6020026020010151815481106110cb576110cb613684565b9060005260206000209060090201600101819055508561ffff1660068383815181106110f9576110f9613684565b60200260200101518154811061111157611111613684565b9060005260206000209060090201600201819055508361ffff16600683838151811061113f5761113f613684565b60200260200101518154811061115757611157613684565b9060005260206000209060090201600401819055508461ffff16600683838151811061118557611185613684565b60200260200101518154811061119d5761119d613684565b6000918252602090912060056009909202010155806111bb81613629565b91505061104b565b505050505050505050565b600e546001600160a01b031633146111f85760405162461bcd60e51b81526004016103729061336c565b805161120b90600990602084019061256b565b5050565b600f546001600160a01b031633148061123257506010546001600160a01b031633145b61124e5760405162461bcd60e51b81526004016103729061336c565b611259828483611e74565b505050565b61120b338383611ff0565b600f546060906001600160a01b031633148061128f57506010546001600160a01b031633145b6112ab5760405162461bcd60e51b81526004016103729061336c565b6112b36120d1565b905090565b600e546001600160a01b031633146112e25760405162461bcd60e51b81526004016103729061336c565b600e80546001600160a01b0319166001600160a01b0392909216919091179055565b600e546001600160a01b0316331461132e5760405162461bcd60e51b81526004016103729061336c565b600f80546001600160a01b039384166001600160a01b03199182161790915560108054929093169116179055565b600f546001600160a01b031633148061137f57506010546001600160a01b031633145b61139b5760405162461bcd60e51b81526004016103729061336c565b6107d160005b828110156113f8578383828181106113bb576113bb613684565b90506020020135600c600084806113d190613629565b955081526020019081526020016000208190555080806113f090613629565b9150506113a1565b50505050565b600f546001600160a01b031633148061142157506010546001600160a01b031633145b61143d5760405162461bcd60e51b81526004016103729061336c565b6000918252600d602052604090912055565b600382106114ab5760405162461bcd60e51b8152602060048201526024808201527f57726f6e672076616c75652e2049742073686f756c6420626520303c3d6c6576604482015263656c3c3360e01b6064820152608401610372565b6000600b846040516114bd9190612d40565b908152604080519182900360209081018320805480830285018301909352828452919083018282801561150f57602002820191906000526020600020905b8154815260200190600101908083116114fb575b5050505050905060008260036115259190613560565b90508061153e33848781518110610e6457610e64613684565b101561158c5760405162461bcd60e51b815260206004820152601d60248201527f496e7375666963656e7420506c617965727320746f20757067726164650000006044820152606401610372565b6115b0338386815181106115a2576115a2613684565b602002602001015183611e74565b610cd3338386815181106115c6576115c6613684565b602002602001015160016115da9190613534565b8560405180602001604052806000815250611cda565b6001600160a01b03851633148061160c575061160c85336102b7565b61166a5760405162461bcd60e51b815260206004820152602960248201527f455243313135353a2063616c6c6572206973206e6f74206f776e6572206e6f7260448201526808185c1c1c9bdd995960ba1b6064820152608401610372565b610cd38585858585612133565b805160609080611697575050604080516020810190915260008152919050565b600060036116a6836002613534565b6116b0919061354c565b6116bb906004613560565b905060006116ca826020613534565b6001600160401b038111156116e1576116e161369a565b6040519080825280601f01601f19166020018201604052801561170b576020820181803683370190505b509050600060405180606001604052806040815260200161376f604091399050600181016020830160005b86811015611797576003818a01810151603f601282901c8116860151600c83901c8216870151600684901c831688015192909316870151600891821b60ff94851601821b92841692909201901b91160160e01b835260049092019101611736565b5060038606600181146117b157600281146117c2576117ce565b613d3d60f01b6001198301526117ce565b603d60f81b6000198301525b505050918152949350505050565b6060816118005750506040805180820190915260018152600360fc1b602082015290565b8160005b811561182a578061181481613629565b91506118239050600a8361354c565b9150611804565b6000816001600160401b038111156118445761184461369a565b6040519080825280601f01601f19166020018201604052801561186e576020820181803683370190505b5090505b84156118d95761188360018361357f565b9150611890600a86613644565b61189b906030613534565b60f81b8183815181106118b0576118b0613684565b60200101906001600160f81b031916908160001a9053506118d2600a8661354c565b9450611872565b949350505050565b60008060019050600683815481106118fb576118fb613684565b906000526020600020906009020160060160405160200161191c919061302e565b6040516020818303038152906040528051906020012060405160200161194f9066446566656e636560c81b815260070190565b60405160208183030381529060405280519060200120141561196f575060025b6006838154811061198257611982613684565b906000526020600020906009020160040154600684815481106119a7576119a7613684565b906000526020600020906009020160050154600685815481106119cc576119cc613684565b9060005260206000209060090201600201546119e89190613534565b6119f29083613560565b600a60068681548110611a0757611a07613684565b906000526020600020906009020160000154611a23919061354c565b60068681548110611a3657611a36613684565b9060005260206000209060090201600101546001611a549190613534565b611a5e9190613534565b611a689190613534565b611a729190613534565b9392505050565b8151835114611adb5760405162461bcd60e51b815260206004820152602860248201527f455243313135353a2069647320616e6420616d6f756e7473206c656e677468206044820152670dad2e6dac2e8c6d60c31b6064820152608401610372565b6001600160a01b038416611b015760405162461bcd60e51b81526004016103729061339b565b3360005b8451811015611c6c576000858281518110611b2257611b22613684565b602002602001015190506000858381518110611b4057611b40613684565b602090810291909101810151600084815280835260408082206001600160a01b038e168352909352919091205490915081811015611b905760405162461bcd60e51b8152600401610372906133e0565b6000838152602081815260408083206001600160a01b038e8116855292528083208585039055908b16825281208054849290611bcd908490613534565b90915550506001600160a01b03891660009081526002602052604090205460ff16611c58576001600160a01b0389166000818152600260205260408120805460ff191660019081179091556003805491820181559091527fc2575a0e9e593c00f959f8c92f12db2869c3395a3b0502d05e2516446f71f85b0180546001600160a01b03191690911790555b50505080611c6590613629565b9050611b05565b50846001600160a01b0316866001600160a01b0316826001600160a01b03167f4a39dc06d4c0dbc64b70af90fd698a233a518aa5d07e595d983b8c0526c8f7fb8787604051611cbc9291906132e3565b60405180910390a4611cd28187878787876122eb565b505050505050565b6001600160a01b038416611d3a5760405162461bcd60e51b815260206004820152602160248201527f455243313135353a206d696e7420746f20746865207a65726f206164647265736044820152607360f81b6064820152608401610372565b336000611d4685612456565b90506000611d5385612456565b90506000868152602081815260408083206001600160a01b038b16845290915281208054879290611d85908490613534565b90915550506001600160a01b03871660009081526002602052604090205460ff16611e10576001600160a01b0387166000818152600260205260408120805460ff191660019081179091556003805491820181559091527fc2575a0e9e593c00f959f8c92f12db2869c3395a3b0502d05e2516446f71f85b0180546001600160a01b03191690911790555b60408051878152602081018790526001600160a01b03808a1692600092918716917fc3d58168c5ae7397731d063d5bbf3d657854427343f4c083240f7aacaa2d0f62910160405180910390a4611e6b836000898989896124a1565b50505050505050565b6001600160a01b038316611ed65760405162461bcd60e51b815260206004820152602360248201527f455243313135353a206275726e2066726f6d20746865207a65726f206164647260448201526265737360e81b6064820152608401610372565b336000611ee284612456565b90506000611eef84612456565b60408051602080820183526000918290528882528181528282206001600160a01b038b1683529052205490915084811015611f785760405162461bcd60e51b8152602060048201526024808201527f455243313135353a206275726e20616d6f756e7420657863656564732062616c604482015263616e636560e01b6064820152608401610372565b6000868152602081815260408083206001600160a01b038b81168086529184528285208a8703905582518b81529384018a90529092908816917fc3d58168c5ae7397731d063d5bbf3d657854427343f4c083240f7aacaa2d0f62910160405180910390a4604080516020810190915260009052611e6b565b816001600160a01b0316836001600160a01b031614156120645760405162461bcd60e51b815260206004820152602960248201527f455243313135353a2073657474696e6720617070726f76616c20737461747573604482015268103337b91039b2b63360b91b6064820152608401610372565b6001600160a01b03838116600081815260016020908152604080832094871680845294825291829020805460ff191686151590811790915591519182527f17307eab39ab6107e8899845ad3d59bd9653f200f220920489ca2b5937696c31910160405180910390a3505050565b6060600380548060200260200160405190810160405280929190818152602001828054801561212957602002820191906000526020600020905b81546001600160a01b0316815260019091019060200180831161210b575b5050505050905090565b6001600160a01b0384166121595760405162461bcd60e51b81526004016103729061339b565b33600061216585612456565b9050600061217285612456565b90506000868152602081815260408083206001600160a01b038c168452909152902054858110156121b55760405162461bcd60e51b8152600401610372906133e0565b6000878152602081815260408083206001600160a01b038d8116855292528083208985039055908a168252812080548892906121f2908490613534565b90915550506001600160a01b03881660009081526002602052604090205460ff1661227d576001600160a01b0388166000818152600260205260408120805460ff191660019081179091556003805491820181559091527fc2575a0e9e593c00f959f8c92f12db2869c3395a3b0502d05e2516446f71f85b0180546001600160a01b03191690911790555b876001600160a01b0316896001600160a01b0316856001600160a01b03167fc3d58168c5ae7397731d063d5bbf3d657854427343f4c083240f7aacaa2d0f628a8a6040516122d5929190918252602082015260400190565b60405180910390a46111c3848a8a8a8a8a6124a1565b6001600160a01b0384163b15611cd25760405163bc197c8160e01b81526001600160a01b0385169063bc197c819061232f90899089908890889088906004016131ec565b602060405180830381600087803b15801561234957600080fd5b505af1925050508015612379575060408051601f3d908101601f1916820190925261237691810190612a27565b60015b612426576123856136b0565b806308c379a014156123bf575061239a6136cc565b806123a557506123c1565b8060405162461bcd60e51b81526004016103729190613311565b505b60405162461bcd60e51b815260206004820152603460248201527f455243313135353a207472616e7366657220746f206e6f6e20455243313135356044820152732932b1b2b4bb32b91034b6b83632b6b2b73a32b960611b6064820152608401610372565b6001600160e01b0319811663bc197c8160e01b14611e6b5760405162461bcd60e51b815260040161037290613324565b6040805160018082528183019092526060916000919060208083019080368337019050509050828160008151811061249057612490613684565b602090810291909101015292915050565b6001600160a01b0384163b15611cd25760405163f23a6e6160e01b81526001600160a01b0385169063f23a6e61906124e5908990899088908890889060040161323e565b602060405180830381600087803b1580156124ff57600080fd5b505af192505050801561252f575060408051601f3d908101601f1916820190925261252c91810190612a27565b60015b61253b576123856136b0565b6001600160e01b0319811663f23a6e6160e01b14611e6b5760405162461bcd60e51b815260040161037290613324565b828054612577906135c2565b90600052602060002090601f01602090048101928261259957600085556125df565b82601f106125b257805160ff19168380011785556125df565b828001600101855582156125df579182015b828111156125df5782518255916020019190600101906125c4565b506125eb9291506125ef565b5090565b5b808211156125eb57600081556001016125f0565b80356001600160a01b038116811461261b57600080fd5b919050565b600082601f83011261263157600080fd5b8135602061263e826134ea565b60405161264b82826135fd565b8381528281019150858301600585901b8701840188101561266b57600080fd5b60005b8581101561268a5781358452928401929084019060010161266e565b5090979650505050505050565b600082601f8301126126a857600080fd5b81356126b38161350d565b6040516126c082826135fd565b8281528560208487010111156126d557600080fd5b82602086016020830137600092810160200192909252509392505050565b803561ffff8116811461261b57600080fd5b60006020828403121561271757600080fd5b611a7282612604565b6000806040838503121561273357600080fd5b61273c83612604565b915061274a60208401612604565b90509250929050565b600080600080600060a0868803121561276b57600080fd5b61277486612604565b945061278260208701612604565b935060408601356001600160401b038082111561279e57600080fd5b6127aa89838a01612620565b945060608801359150808211156127c057600080fd5b6127cc89838a01612620565b935060808801359150808211156127e257600080fd5b506127ef88828901612697565b9150509295509295909350565b600080600080600060a0868803121561281457600080fd5b61281d86612604565b945061282b60208701612604565b9350604086013592506060860135915060808601356001600160401b0381111561285457600080fd5b6127ef88828901612697565b6000806040838503121561287357600080fd5b61287c83612604565b91506020830135801515811461289157600080fd5b809150509250929050565b600080604083850312156128af57600080fd5b6128b883612604565b946020939093013593505050565b600080604083850312156128d957600080fd5b82356001600160401b03808211156128f057600080fd5b818501915085601f83011261290457600080fd5b81356020612911826134ea565b60405161291e82826135fd565b8381528281019150858301600585901b870184018b101561293e57600080fd5b600096505b848710156129685761295481612604565b835260019690960195918301918301612943565b509650508601359250508082111561297f57600080fd5b5061298c85828601612620565b9150509250929050565b600080602083850312156129a957600080fd5b82356001600160401b03808211156129c057600080fd5b818501915085601f8301126129d457600080fd5b8135818111156129e357600080fd5b8660208260051b85010111156129f857600080fd5b60209290920196919550909350505050565b600060208284031215612a1c57600080fd5b8135611a7281613755565b600060208284031215612a3957600080fd5b8151611a7281613755565b600060208284031215612a5657600080fd5b81356001600160401b03811115612a6c57600080fd5b6118d984828501612697565b600060208284031215612a8a57600080fd5b81516001600160401b03811115612aa057600080fd5b8201601f81018413612ab157600080fd5b8051612abc8161350d565b604051612ac982826135fd565b828152866020848601011115612ade57600080fd5b612aef836020830160208701613596565b9695505050505050565b600080600060608486031215612b0e57600080fd5b83356001600160401b03811115612b2457600080fd5b612b3086828701612697565b9660208601359650604090950135949350505050565b600060208284031215612b5857600080fd5b5035919050565b600080600060608486031215612b7457600080fd5b83359250612b8460208501612604565b9150604084013590509250925092565b60008060008060008060c08789031215612bad57600080fd5b86359550612bbd602088016126f3565b9450612bcb604088016126f3565b9350612bd9606088016126f3565b9250612be7608088016126f3565b9150612bf560a088016126f3565b90509295509295509295565b60008060408385031215612c1457600080fd5b50508035926020909101359150565b600081518084526020808501945080840160005b83811015612c5357815187529582019590820190600101612c37565b509495945050505050565b60008151808452612c76816020860160208601613596565b601f01601f19169290920160200192915050565b60008151612c9c818560208601613596565b9290920192915050565b8054600090600181811c9080831680612cc057607f831692505b6020808410821415612ce257634e487b7160e01b600052602260045260246000fd5b818015612cf65760018114612d0757612d34565b60ff19861689528489019650612d34565b60008881526020902060005b86811015612d2c5781548b820152908501908301612d13565b505084890196505b50505050505092915050565b60008251612d52818460208701613596565b9190910192915050565b60008751612d6e818460208c01613596565b80830190507f7b2274726169745f74797065223a2022476f616c73222c2276616c7565223a208152601160f91b60208201528751612db3816021840160208c01613596565b7f227d2c7b2274726169745f74797065223a20224c6576656c222c2276616c75656021929091019182015263111d101160e11b604182018190528751612e00816045850160208c01613596565b7f227d2c7b2274726169745f74797065223a20225361766573222c2276616c75656045939091019283015260658201528551612e43816069840160208a01613596565b612ee1612ed1612ecb612e95612e8f6069868801017f227d2c7b2274726169745f74797065223a2022417373697374222c2276616c7581526432911d101160d91b602082015260250190565b8a612c8a565b7f227d2c7b2274726169745f74797065223a202253636f7265222c2276616c7565815263111d101160e11b602082015260240190565b87612c8a565b63227d5d7d60e01b815260040190565b9a9950505050505050505050565b600086516020612f028285838c01613596565b7f7b2274726169745f74797065223a20224e616d65222c2276616c7565223a20229184019182528751612f3a81838501848c01613596565b7f227d2c7b2274726169745f74797065223a2022506f736974696f6e222c22766192018181019290925266363ab2911d101160c91b604083018190528751612f8881604786018b8601613596565b7f227d2c7b2274726169745f74797065223a202247616d65706c6179222c2276616047949091019384015260678301528551612fca81606e8501848a01613596565b7f227d2c7b2274726169745f74797065223a202247616d6573222c2276616c7565606e93909101928301525063111d101160e11b608e8201526130226130136092830186612c8a565b62089f4b60ea1b815260030190565b98975050505050505050565b6000611a728284612ca6565b6902a32b0b69027232a10960b51b81526000611a72600a830184612ca6565b6b02ab734b8bab29027232a10960a51b81526000611a72600c830184612ca6565b680283630b1b2901890960bd1b81526000611a726009830184612ca6565b693d913730b6b2911d101160b11b815283516000906130be81600a850160208901613596565b72111610113232b9b1b934b83a34b7b7111d101160691b600a9184019182015284516130f181601d840160208901613596565b7f222c2022696d616765223a2022646174613a696d6167652f7376672b786d6c3b601d92909101918201526618985cd94d8d0b60ca1b603d820152835161313f816044840160208801613596565b71222c202261747472696275746573223a205b60701b6044929091019182015260560195945050505050565b680283630b1b2901990960bd1b81526000611a726009830184612ca6565b7f646174613a6170706c69636174696f6e2f6a736f6e3b6261736536342c0000008152600082516131c181601d850160208701613596565b91909101601d0192915050565b680283630b1b2901910960bd1b81526000611a726009830184612ca6565b6001600160a01b0386811682528516602082015260a06040820181905260009061321890830186612c23565b828103606084015261322a8186612c23565b905082810360808401526130228185612c5e565b6001600160a01b03868116825285166020820152604081018490526060810183905260a06080820181905260009061327890830184612c5e565b979650505050505050565b6020808252825182820181905260009190848201906040850190845b818110156132c45783516001600160a01b03168352928401929184019160010161329f565b50909695505050505050565b602081526000611a726020830184612c23565b6040815260006132f66040830185612c23565b82810360208401526133088185612c23565b95945050505050565b602081526000611a726020830184612c5e565b60208082526028908201527f455243313135353a204552433131353552656365697665722072656a656374656040820152676420746f6b656e7360c01b606082015260800190565b602080825260159082015274139bdd0813dddb995c881bd98810dbdb9d1c9858dd605a1b604082015260600190565b60208082526025908201527f455243313135353a207472616e7366657220746f20746865207a65726f206164604082015264647265737360d81b606082015260800190565b6020808252602a908201527f455243313135353a20696e73756666696369656e742062616c616e636520666f60408201526939103a3930b739b332b960b11b606082015260800190565b6080815284516080820152602085015160a0820152604085015160c0820152606085015160e082015260006080860151610100818185015260a08801519150610120828186015260c08901519250806101408601525061348e6101a0850183612c5e565b915060e0880151607f1980868503016101608701526134ad8483612c5e565b9350828a01519250808685030161018087015250506134cc8282612c5e565b60208501979097525050506040810192909252606090910152919050565b60006001600160401b038211156135035761350361369a565b5060051b60200190565b60006001600160401b038211156135265761352661369a565b50601f01601f191660200190565b6000821982111561354757613547613658565b500190565b60008261355b5761355b61366e565b500490565b600081600019048311821515161561357a5761357a613658565b500290565b60008282101561359157613591613658565b500390565b60005b838110156135b1578181015183820152602001613599565b838111156113f85750506000910152565b600181811c908216806135d657607f821691505b602082108114156135f757634e487b7160e01b600052602260045260246000fd5b50919050565b601f8201601f191681016001600160401b03811182821017156136225761362261369a565b6040525050565b600060001982141561363d5761363d613658565b5060010190565b6000826136535761365361366e565b500690565b634e487b7160e01b600052601160045260246000fd5b634e487b7160e01b600052601260045260246000fd5b634e487b7160e01b600052603260045260246000fd5b634e487b7160e01b600052604160045260246000fd5b600060033d11156136c95760046000803e5060005160e01c5b90565b600060443d10156136da5790565b6040516003193d81016004833e81513d6001600160401b03816024840111818411171561370957505050505090565b82850191508151818111156137215750505050505090565b843d870101602082850101111561373b5750505050505090565b61374a602082860101876135fd565b509095945050505050565b6001600160e01b03198116811461376b57600080fd5b5056fe4142434445464748494a4b4c4d4e4f505152535455565758595a6162636465666768696a6b6c6d6e6f707172737475767778797a303132333435363738392b2fa2646970667358221220207e263821e2c9f636a74399f7cdb89a089662442107ce34463a2c71ce9cfd6364736f6c63430008070033446973636c61696d65723a205468652073636f7065206f66207468652070726f6a6563742069732077697468696e2074686520426c6f636b636861696e204368616c6c656e67652032303232206c656374757265206f6666657265642062792074686520556e6976657273697479206f6620426173656c2e205468652070726f6a6563742077696c6c2072656d61696e2077697468696e207468652074657374206e65742e20546865204e4654732077696c6c206e6576657220626520736f6c64206e6f7220697320746865726520616e792066696e616e6369616c20696e7465726573742061742068616e6420627920746865206f776e657273206f722074686520636f7572736520726573706f6e7369626c652e",
			"opcodes": "PUSH1 0xC0 PUSH1 0x40 MSTORE PUSH1 0x11 PUSH1 0x80 DUP2 SWAP1 MSTORE PUSH17 0x1190CB50DA185A5B9B1A5B9AC815195CDD PUSH1 0x7A SHL PUSH1 0xA0 SWAP1 DUP2 MSTORE PUSH3 0x34 SWAP2 PUSH1 0x5 SWAP2 SWAP1 PUSH3 0x58F JUMP JUMPDEST POP PUSH1 0x40 DUP1 MLOAD DUP1 DUP3 ADD SWAP1 SWAP2 MSTORE PUSH1 0xC DUP1 DUP3 MSTORE PUSH12 0x46432D436861696E6C696E6B PUSH1 0xA0 SHL PUSH1 0x20 SWAP1 SWAP3 ADD SWAP2 DUP3 MSTORE PUSH3 0x6A SWAP2 PUSH1 0x8 SWAP2 PUSH3 0x58F JUMP JUMPDEST POP PUSH1 0x40 MLOAD DUP1 PUSH2 0x140 ADD PUSH1 0x40 MSTORE DUP1 PUSH2 0x116 DUP2 MSTORE PUSH1 0x20 ADD PUSH3 0x3F2B PUSH2 0x116 SWAP2 CODECOPY DUP1 MLOAD PUSH3 0x9E SWAP2 PUSH1 0x9 SWAP2 PUSH1 0x20 SWAP1 SWAP2 ADD SWAP1 PUSH3 0x58F JUMP JUMPDEST POP CALLVALUE DUP1 ISZERO PUSH3 0xAC JUMPI PUSH1 0x0 DUP1 REVERT JUMPDEST POP PUSH1 0x40 MLOAD PUSH3 0x4041 CODESIZE SUB DUP1 PUSH3 0x4041 DUP4 CODECOPY DUP2 ADD PUSH1 0x40 DUP2 SWAP1 MSTORE PUSH3 0xCF SWAP2 PUSH3 0x635 JUMP JUMPDEST PUSH1 0x40 DUP1 MLOAD DUP1 DUP3 ADD SWAP1 SWAP2 MSTORE PUSH1 0xC DUP2 MSTORE PUSH12 0x46432D436861696E6C696E6B PUSH1 0xA0 SHL PUSH1 0x20 DUP3 ADD MSTORE PUSH3 0xFD DUP2 PUSH3 0x3DA JUMP JUMPDEST POP PUSH1 0x7 DUP1 SLOAD PUSH1 0x1 PUSH1 0x1 PUSH1 0xA0 SHL SUB DUP4 AND PUSH1 0x1 PUSH1 0x1 PUSH1 0xA0 SHL SUB NOT SWAP2 DUP3 AND OR SWAP1 SWAP2 SSTORE PUSH1 0xE DUP1 SLOAD DUP3 AND CALLER SWAP1 DUP2 OR SWAP1 SWAP2 SSTORE PUSH1 0xF DUP1 SLOAD SWAP1 SWAP3 AND OR SWAP1 SSTORE PUSH1 0x40 DUP1 MLOAD DUP1 DUP3 ADD DUP3 MSTORE PUSH1 0xD DUP2 MSTORE PUSH13 0x2432B4B73D102634B7323732B9 PUSH1 0x99 SHL PUSH1 0x20 DUP1 DUP4 ADD SWAP2 SWAP1 SWAP2 MSTORE DUP3 MLOAD DUP1 DUP5 ADD DUP5 MSTORE PUSH1 0xA DUP2 MSTORE PUSH10 0x23B7B0B635B2B2B832B9 PUSH1 0xB1 SHL DUP2 DUP4 ADD MSTORE DUP4 MLOAD DUP1 DUP6 ADD SWAP1 SWAP5 MSTORE PUSH1 0xC DUP5 MSTORE PUSH12 0xAEDEE4DAE640AECACAEEC2F PUSH1 0xA3 SHL SWAP2 DUP5 ADD SWAP2 SWAP1 SWAP2 MSTORE PUSH3 0x1B0 SWAP3 PUSH1 0x0 SWAP1 DUP2 SWAP1 DUP2 SWAP1 DUP2 SWAP1 DUP2 SWAP1 PUSH3 0x3F3 JUMP JUMPDEST PUSH3 0x246 PUSH1 0x40 MLOAD DUP1 PUSH1 0x40 ADD PUSH1 0x40 MSTORE DUP1 PUSH1 0xF DUP2 MSTORE PUSH1 0x20 ADD PUSH15 0x9CDEC2D04096C2E8E8CAE4C4C2C6D PUSH1 0x8B SHL DUP2 MSTORE POP PUSH1 0x40 MLOAD DUP1 PUSH1 0x40 ADD PUSH1 0x40 MSTORE DUP1 PUSH1 0x7 DUP2 MSTORE PUSH1 0x20 ADD PUSH7 0x446566656E6365 PUSH1 0xC8 SHL DUP2 MSTORE POP PUSH1 0x0 DUP1 PUSH1 0x0 DUP1 PUSH1 0x0 PUSH1 0x40 MLOAD DUP1 PUSH1 0x40 ADD PUSH1 0x40 MSTORE DUP1 PUSH1 0x13 DUP2 MSTORE PUSH1 0x20 ADD PUSH32 0x427574746F636B732057696E7465726B6F726E00000000000000000000000000 DUP2 MSTORE POP PUSH3 0x3F3 PUSH1 0x20 SHL PUSH1 0x20 SHR JUMP JUMPDEST PUSH3 0x2C9 PUSH1 0x40 MLOAD DUP1 PUSH1 0x40 ADD PUSH1 0x40 MSTORE DUP1 PUSH1 0xC DUP2 MSTORE PUSH1 0x20 ADD PUSH12 0x105B991E4814195B1B585C99 PUSH1 0xA2 SHL DUP2 MSTORE POP PUSH1 0x40 MLOAD DUP1 PUSH1 0x40 ADD PUSH1 0x40 MSTORE DUP1 PUSH1 0x7 DUP2 MSTORE PUSH1 0x20 ADD PUSH7 0x446566656E6365 PUSH1 0xC8 SHL DUP2 MSTORE POP PUSH1 0x0 DUP1 PUSH1 0x0 DUP1 PUSH1 0x0 PUSH1 0x40 MLOAD DUP1 PUSH1 0x40 ADD PUSH1 0x40 MSTORE DUP1 PUSH1 0xD DUP2 MSTORE PUSH1 0x20 ADD PUSH13 0x2234B1B6B0B71023BAB9BA32B9 PUSH1 0x99 SHL DUP2 MSTORE POP PUSH3 0x3F3 PUSH1 0x20 SHL PUSH1 0x20 SHR JUMP JUMPDEST PUSH3 0x350 PUSH1 0x40 MLOAD DUP1 PUSH1 0x40 ADD PUSH1 0x40 MSTORE DUP1 PUSH1 0xD DUP2 MSTORE PUSH1 0x20 ADD PUSH13 0x50616A74696D204B6173616D69 PUSH1 0x98 SHL DUP2 MSTORE POP PUSH1 0x40 MLOAD DUP1 PUSH1 0x40 ADD PUSH1 0x40 MSTORE DUP1 PUSH1 0x8 DUP2 MSTORE PUSH1 0x20 ADD PUSH8 0x135A59199A595B19 PUSH1 0xC2 SHL DUP2 MSTORE POP PUSH1 0x0 DUP1 PUSH1 0x0 DUP1 PUSH1 0x0 PUSH1 0x40 MLOAD DUP1 PUSH1 0x40 ADD PUSH1 0x40 MSTORE DUP1 PUSH1 0xF DUP2 MSTORE PUSH1 0x20 ADD PUSH15 0x15195955195948115B991A58DBDD1D PUSH1 0x8A SHL DUP2 MSTORE POP PUSH3 0x3F3 PUSH1 0x20 SHL PUSH1 0x20 SHR JUMP JUMPDEST PUSH3 0x3D3 PUSH1 0x40 MLOAD DUP1 PUSH1 0x40 ADD PUSH1 0x40 MSTORE DUP1 PUSH1 0xB DUP2 MSTORE PUSH1 0x20 ADD PUSH11 0x2634B0B69026B4B63630B9 PUSH1 0xA9 SHL DUP2 MSTORE POP PUSH1 0x40 MLOAD DUP1 PUSH1 0x40 ADD PUSH1 0x40 MSTORE DUP1 PUSH1 0x7 DUP2 MSTORE PUSH1 0x20 ADD PUSH7 0x4F6666656E7365 PUSH1 0xC8 SHL DUP2 MSTORE POP PUSH1 0x0 DUP1 PUSH1 0x0 DUP1 PUSH1 0x0 PUSH1 0x40 MLOAD DUP1 PUSH1 0x40 ADD PUSH1 0x40 MSTORE DUP1 PUSH1 0xE DUP2 MSTORE PUSH1 0x20 ADD PUSH14 0x29B1BABA1029B0B1B5B934B232B9 PUSH1 0x91 SHL DUP2 MSTORE POP PUSH3 0x3F3 PUSH1 0x20 SHL PUSH1 0x20 SHR JUMP JUMPDEST POP PUSH3 0x737 JUMP JUMPDEST DUP1 MLOAD PUSH3 0x3EF SWAP1 PUSH1 0x4 SWAP1 PUSH1 0x20 DUP5 ADD SWAP1 PUSH3 0x58F JUMP JUMPDEST POP POP JUMP JUMPDEST PUSH1 0x0 JUMPDEST PUSH1 0x4 DUP2 PUSH2 0xFFFF AND LT ISZERO PUSH3 0x584 JUMPI PUSH1 0x0 DUP2 SWAP1 POP PUSH1 0x6 PUSH1 0x40 MLOAD DUP1 PUSH2 0x120 ADD PUSH1 0x40 MSTORE DUP1 DUP11 PUSH2 0xFFFF AND DUP2 MSTORE PUSH1 0x20 ADD DUP10 PUSH2 0xFFFF AND DUP2 MSTORE PUSH1 0x20 ADD DUP9 PUSH2 0xFFFF AND DUP2 MSTORE PUSH1 0x20 ADD DUP4 PUSH2 0xFFFF AND DUP2 MSTORE PUSH1 0x20 ADD DUP7 PUSH2 0xFFFF AND DUP2 MSTORE PUSH1 0x20 ADD DUP8 PUSH2 0xFFFF AND DUP2 MSTORE PUSH1 0x20 ADD DUP12 DUP2 MSTORE PUSH1 0x20 ADD DUP13 DUP2 MSTORE PUSH1 0x20 ADD DUP6 DUP2 MSTORE POP SWAP1 DUP1 PUSH1 0x1 DUP2 SLOAD ADD DUP1 DUP3 SSTORE DUP1 SWAP2 POP POP PUSH1 0x1 SWAP1 SUB SWAP1 PUSH1 0x0 MSTORE PUSH1 0x20 PUSH1 0x0 KECCAK256 SWAP1 PUSH1 0x9 MUL ADD PUSH1 0x0 SWAP1 SWAP2 SWAP1 SWAP2 SWAP1 SWAP2 POP PUSH1 0x0 DUP3 ADD MLOAD DUP2 PUSH1 0x0 ADD SSTORE PUSH1 0x20 DUP3 ADD MLOAD DUP2 PUSH1 0x1 ADD SSTORE PUSH1 0x40 DUP3 ADD MLOAD DUP2 PUSH1 0x2 ADD SSTORE PUSH1 0x60 DUP3 ADD MLOAD DUP2 PUSH1 0x3 ADD SSTORE PUSH1 0x80 DUP3 ADD MLOAD DUP2 PUSH1 0x4 ADD SSTORE PUSH1 0xA0 DUP3 ADD MLOAD DUP2 PUSH1 0x5 ADD SSTORE PUSH1 0xC0 DUP3 ADD MLOAD DUP2 PUSH1 0x6 ADD SWAP1 DUP1 MLOAD SWAP1 PUSH1 0x20 ADD SWAP1 PUSH3 0x4E6 SWAP3 SWAP2 SWAP1 PUSH3 0x58F JUMP JUMPDEST POP PUSH1 0xE0 DUP3 ADD MLOAD DUP1 MLOAD PUSH3 0x504 SWAP2 PUSH1 0x7 DUP5 ADD SWAP2 PUSH1 0x20 SWAP1 SWAP2 ADD SWAP1 PUSH3 0x58F JUMP JUMPDEST POP PUSH2 0x100 DUP3 ADD MLOAD DUP1 MLOAD PUSH3 0x523 SWAP2 PUSH1 0x8 DUP5 ADD SWAP2 PUSH1 0x20 SWAP1 SWAP2 ADD SWAP1 PUSH3 0x58F JUMP JUMPDEST POP POP POP PUSH1 0xB DUP11 PUSH1 0x40 MLOAD PUSH3 0x538 SWAP2 SWAP1 PUSH3 0x667 JUMP JUMPDEST SWAP1 DUP2 MSTORE PUSH1 0x40 MLOAD SWAP1 DUP2 SWAP1 SUB PUSH1 0x20 ADD SWAP1 KECCAK256 PUSH1 0x6 SLOAD PUSH3 0x558 SWAP1 PUSH1 0x1 SWAP1 PUSH3 0x6A5 JUMP JUMPDEST DUP2 SLOAD PUSH1 0x1 DUP2 ADD DUP4 SSTORE PUSH1 0x0 SWAP3 DUP4 MSTORE PUSH1 0x20 SWAP1 SWAP3 KECCAK256 SWAP1 SWAP2 ADD SSTORE POP DUP1 PUSH3 0x57B DUP2 PUSH3 0x6FC JUMP JUMPDEST SWAP2 POP POP PUSH3 0x3F6 JUMP JUMPDEST POP POP POP POP POP POP POP POP POP JUMP JUMPDEST DUP3 DUP1 SLOAD PUSH3 0x59D SWAP1 PUSH3 0x6BF JUMP JUMPDEST SWAP1 PUSH1 0x0 MSTORE PUSH1 0x20 PUSH1 0x0 KECCAK256 SWAP1 PUSH1 0x1F ADD PUSH1 0x20 SWAP1 DIV DUP2 ADD SWAP3 DUP3 PUSH3 0x5C1 JUMPI PUSH1 0x0 DUP6 SSTORE PUSH3 0x60C JUMP JUMPDEST DUP3 PUSH1 0x1F LT PUSH3 0x5DC JUMPI DUP1 MLOAD PUSH1 0xFF NOT AND DUP4 DUP1 ADD OR DUP6 SSTORE PUSH3 0x60C JUMP JUMPDEST DUP3 DUP1 ADD PUSH1 0x1 ADD DUP6 SSTORE DUP3 ISZERO PUSH3 0x60C JUMPI SWAP2 DUP3 ADD JUMPDEST DUP3 DUP2 GT ISZERO PUSH3 0x60C JUMPI DUP3 MLOAD DUP3 SSTORE SWAP2 PUSH1 0x20 ADD SWAP2 SWAP1 PUSH1 0x1 ADD SWAP1 PUSH3 0x5EF JUMP JUMPDEST POP PUSH3 0x61A SWAP3 SWAP2 POP PUSH3 0x61E JUMP JUMPDEST POP SWAP1 JUMP JUMPDEST JUMPDEST DUP1 DUP3 GT ISZERO PUSH3 0x61A JUMPI PUSH1 0x0 DUP2 SSTORE PUSH1 0x1 ADD PUSH3 0x61F JUMP JUMPDEST PUSH1 0x0 PUSH1 0x20 DUP3 DUP5 SUB SLT ISZERO PUSH3 0x648 JUMPI PUSH1 0x0 DUP1 REVERT JUMPDEST DUP2 MLOAD PUSH1 0x1 PUSH1 0x1 PUSH1 0xA0 SHL SUB DUP2 AND DUP2 EQ PUSH3 0x660 JUMPI PUSH1 0x0 DUP1 REVERT JUMPDEST SWAP4 SWAP3 POP POP POP JUMP JUMPDEST PUSH1 0x0 DUP3 MLOAD PUSH1 0x0 JUMPDEST DUP2 DUP2 LT ISZERO PUSH3 0x68A JUMPI PUSH1 0x20 DUP2 DUP7 ADD DUP2 ADD MLOAD DUP6 DUP4 ADD MSTORE ADD PUSH3 0x66E JUMP JUMPDEST DUP2 DUP2 GT ISZERO PUSH3 0x69A JUMPI PUSH1 0x0 DUP3 DUP6 ADD MSTORE JUMPDEST POP SWAP2 SWAP1 SWAP2 ADD SWAP3 SWAP2 POP POP JUMP JUMPDEST PUSH1 0x0 DUP3 DUP3 LT ISZERO PUSH3 0x6BA JUMPI PUSH3 0x6BA PUSH3 0x721 JUMP JUMPDEST POP SUB SWAP1 JUMP JUMPDEST PUSH1 0x1 DUP2 DUP2 SHR SWAP1 DUP3 AND DUP1 PUSH3 0x6D4 JUMPI PUSH1 0x7F DUP3 AND SWAP2 POP JUMPDEST PUSH1 0x20 DUP3 LT DUP2 EQ ISZERO PUSH3 0x6F6 JUMPI PUSH4 0x4E487B71 PUSH1 0xE0 SHL PUSH1 0x0 MSTORE PUSH1 0x22 PUSH1 0x4 MSTORE PUSH1 0x24 PUSH1 0x0 REVERT JUMPDEST POP SWAP2 SWAP1 POP JUMP JUMPDEST PUSH1 0x0 PUSH2 0xFFFF DUP1 DUP4 AND DUP2 DUP2 EQ ISZERO PUSH3 0x717 JUMPI PUSH3 0x717 PUSH3 0x721 JUMP JUMPDEST PUSH1 0x1 ADD SWAP4 SWAP3 POP POP POP JUMP JUMPDEST PUSH4 0x4E487B71 PUSH1 0xE0 SHL PUSH1 0x0 MSTORE PUSH1 0x11 PUSH1 0x4 MSTORE PUSH1 0x24 PUSH1 0x0 REVERT JUMPDEST PUSH2 0x37E4 DUP1 PUSH3 0x747 PUSH1 0x0 CODECOPY PUSH1 0x0 RETURN INVALID PUSH1 0x80 PUSH1 0x40 MSTORE CALLVALUE DUP1 ISZERO PUSH2 0x10 JUMPI PUSH1 0x0 DUP1 REVERT JUMPDEST POP PUSH1 0x4 CALLDATASIZE LT PUSH2 0x12B JUMPI PUSH1 0x0 CALLDATALOAD PUSH1 0xE0 SHR DUP1 PUSH4 0x995C9D77 GT PUSH2 0xAD JUMPI DUP1 PUSH4 0xD1AE4EA4 GT PUSH2 0x71 JUMPI DUP1 PUSH4 0xD1AE4EA4 EQ PUSH2 0x283 JUMPI DUP1 PUSH4 0xDDCBF794 EQ PUSH2 0x296 JUMPI DUP1 PUSH4 0xE985E9C5 EQ PUSH2 0x2A9 JUMPI DUP1 PUSH4 0xEE75DE03 EQ PUSH2 0x2E5 JUMPI DUP1 PUSH4 0xF242432A EQ PUSH2 0x2F8 JUMPI PUSH1 0x0 DUP1 REVERT JUMPDEST DUP1 PUSH4 0x995C9D77 EQ PUSH2 0x222 JUMPI DUP1 PUSH4 0xA22CB465 EQ PUSH2 0x235 JUMPI DUP1 PUSH4 0xA39FAC12 EQ PUSH2 0x248 JUMPI DUP1 PUSH4 0xA6F9DAE1 EQ PUSH2 0x25D JUMPI DUP1 PUSH4 0xC236FE44 EQ PUSH2 0x270 JUMPI PUSH1 0x0 DUP1 REVERT JUMPDEST DUP1 PUSH4 0x2EB2C2D6 GT PUSH2 0xF4 JUMPI DUP1 PUSH4 0x2EB2C2D6 EQ PUSH2 0x1B4 JUMPI DUP1 PUSH4 0x3FEB9F7D EQ PUSH2 0x1C9 JUMPI DUP1 PUSH4 0x4E1273F4 EQ PUSH2 0x1DC JUMPI DUP1 PUSH4 0x5C7A8D27 EQ PUSH2 0x1FC JUMPI DUP1 PUSH4 0x85ADE74F EQ PUSH2 0x20F JUMPI PUSH1 0x0 DUP1 REVERT JUMPDEST DUP1 PUSH3 0xFDD58E EQ PUSH2 0x130 JUMPI DUP1 PUSH4 0x1FFC9A7 EQ PUSH2 0x156 JUMPI DUP1 PUSH4 0x6FDDE03 EQ PUSH2 0x179 JUMPI DUP1 PUSH4 0xE89341C EQ PUSH2 0x18E JUMPI DUP1 PUSH4 0x203DA719 EQ PUSH2 0x1A1 JUMPI JUMPDEST PUSH1 0x0 DUP1 REVERT JUMPDEST PUSH2 0x143 PUSH2 0x13E CALLDATASIZE PUSH1 0x4 PUSH2 0x289C JUMP JUMPDEST PUSH2 0x30B JUMP JUMPDEST PUSH1 0x40 MLOAD SWAP1 DUP2 MSTORE PUSH1 0x20 ADD JUMPDEST PUSH1 0x40 MLOAD DUP1 SWAP2 SUB SWAP1 RETURN JUMPDEST PUSH2 0x169 PUSH2 0x164 CALLDATASIZE PUSH1 0x4 PUSH2 0x2A0A JUMP JUMPDEST PUSH2 0x3A1 JUMP JUMPDEST PUSH1 0x40 MLOAD SWAP1 ISZERO ISZERO DUP2 MSTORE PUSH1 0x20 ADD PUSH2 0x14D JUMP JUMPDEST PUSH2 0x181 PUSH2 0x3F3 JUMP JUMPDEST PUSH1 0x40 MLOAD PUSH2 0x14D SWAP2 SWAP1 PUSH2 0x3311 JUMP JUMPDEST PUSH2 0x181 PUSH2 0x19C CALLDATASIZE PUSH1 0x4 PUSH2 0x2B46 JUMP JUMPDEST PUSH2 0x481 JUMP JUMPDEST PUSH2 0x143 PUSH2 0x1AF CALLDATASIZE PUSH1 0x4 PUSH2 0x2B46 JUMP JUMPDEST PUSH2 0xBF8 JUMP JUMPDEST PUSH2 0x1C7 PUSH2 0x1C2 CALLDATASIZE PUSH1 0x4 PUSH2 0x2753 JUMP JUMPDEST PUSH2 0xC43 JUMP JUMPDEST STOP JUMPDEST PUSH2 0x1C7 PUSH2 0x1D7 CALLDATASIZE PUSH1 0x4 PUSH2 0x2B5F JUMP JUMPDEST PUSH2 0xCDA JUMP JUMPDEST PUSH2 0x1EF PUSH2 0x1EA CALLDATASIZE PUSH1 0x4 PUSH2 0x28C6 JUMP JUMPDEST PUSH2 0xD7D JUMP JUMPDEST PUSH1 0x40 MLOAD PUSH2 0x14D SWAP2 SWAP1 PUSH2 0x32D0 JUMP JUMPDEST PUSH2 0x1C7 PUSH2 0x20A CALLDATASIZE PUSH1 0x4 PUSH2 0x2B94 JUMP JUMPDEST PUSH2 0xEA6 JUMP JUMPDEST PUSH2 0x1C7 PUSH2 0x21D CALLDATASIZE PUSH1 0x4 PUSH2 0x2A44 JUMP JUMPDEST PUSH2 0x11CE JUMP JUMPDEST PUSH2 0x1C7 PUSH2 0x230 CALLDATASIZE PUSH1 0x4 PUSH2 0x2B5F JUMP JUMPDEST PUSH2 0x120F JUMP JUMPDEST PUSH2 0x1C7 PUSH2 0x243 CALLDATASIZE PUSH1 0x4 PUSH2 0x2860 JUMP JUMPDEST PUSH2 0x125E JUMP JUMPDEST PUSH2 0x250 PUSH2 0x1269 JUMP JUMPDEST PUSH1 0x40 MLOAD PUSH2 0x14D SWAP2 SWAP1 PUSH2 0x3283 JUMP JUMPDEST PUSH2 0x1C7 PUSH2 0x26B CALLDATASIZE PUSH1 0x4 PUSH2 0x2705 JUMP JUMPDEST PUSH2 0x12B8 JUMP JUMPDEST PUSH2 0x1C7 PUSH2 0x27E CALLDATASIZE PUSH1 0x4 PUSH2 0x2720 JUMP JUMPDEST PUSH2 0x1304 JUMP JUMPDEST PUSH2 0x1C7 PUSH2 0x291 CALLDATASIZE PUSH1 0x4 PUSH2 0x2996 JUMP JUMPDEST PUSH2 0x135C JUMP JUMPDEST PUSH2 0x1C7 PUSH2 0x2A4 CALLDATASIZE PUSH1 0x4 PUSH2 0x2C01 JUMP JUMPDEST PUSH2 0x13FE JUMP JUMPDEST PUSH2 0x169 PUSH2 0x2B7 CALLDATASIZE PUSH1 0x4 PUSH2 0x2720 JUMP JUMPDEST PUSH1 0x1 PUSH1 0x1 PUSH1 0xA0 SHL SUB SWAP2 DUP3 AND PUSH1 0x0 SWAP1 DUP2 MSTORE PUSH1 0x1 PUSH1 0x20 SWAP1 DUP2 MSTORE PUSH1 0x40 DUP1 DUP4 KECCAK256 SWAP4 SWAP1 SWAP5 AND DUP3 MSTORE SWAP2 SWAP1 SWAP2 MSTORE KECCAK256 SLOAD PUSH1 0xFF AND SWAP1 JUMP JUMPDEST PUSH2 0x1C7 PUSH2 0x2F3 CALLDATASIZE PUSH1 0x4 PUSH2 0x2AF9 JUMP JUMPDEST PUSH2 0x144F JUMP JUMPDEST PUSH2 0x1C7 PUSH2 0x306 CALLDATASIZE PUSH1 0x4 PUSH2 0x27FC JUMP JUMPDEST PUSH2 0x15F0 JUMP JUMPDEST PUSH1 0x0 PUSH1 0x1 PUSH1 0x1 PUSH1 0xA0 SHL SUB DUP4 AND PUSH2 0x37B JUMPI PUSH1 0x40 MLOAD PUSH3 0x461BCD PUSH1 0xE5 SHL DUP2 MSTORE PUSH1 0x20 PUSH1 0x4 DUP3 ADD MSTORE PUSH1 0x2A PUSH1 0x24 DUP3 ADD MSTORE PUSH32 0x455243313135353A2061646472657373207A65726F206973206E6F7420612076 PUSH1 0x44 DUP3 ADD MSTORE PUSH10 0x30B634B21037BBB732B9 PUSH1 0xB1 SHL PUSH1 0x64 DUP3 ADD MSTORE PUSH1 0x84 ADD JUMPDEST PUSH1 0x40 MLOAD DUP1 SWAP2 SUB SWAP1 REVERT JUMPDEST POP PUSH1 0x0 SWAP1 DUP2 MSTORE PUSH1 0x20 DUP2 DUP2 MSTORE PUSH1 0x40 DUP1 DUP4 KECCAK256 PUSH1 0x1 PUSH1 0x1 PUSH1 0xA0 SHL SUB SWAP5 SWAP1 SWAP5 AND DUP4 MSTORE SWAP3 SWAP1 MSTORE KECCAK256 SLOAD SWAP1 JUMP JUMPDEST PUSH1 0x0 PUSH1 0x1 PUSH1 0x1 PUSH1 0xE0 SHL SUB NOT DUP3 AND PUSH4 0x6CDB3D13 PUSH1 0xE1 SHL EQ DUP1 PUSH2 0x3D2 JUMPI POP PUSH1 0x1 PUSH1 0x1 PUSH1 0xE0 SHL SUB NOT DUP3 AND PUSH4 0x3A24D07 PUSH1 0xE2 SHL EQ JUMPDEST DUP1 PUSH2 0x3ED JUMPI POP PUSH4 0x1FFC9A7 PUSH1 0xE0 SHL PUSH1 0x1 PUSH1 0x1 PUSH1 0xE0 SHL SUB NOT DUP4 AND EQ JUMPDEST SWAP3 SWAP2 POP POP JUMP JUMPDEST PUSH1 0x5 DUP1 SLOAD PUSH2 0x400 SWAP1 PUSH2 0x35C2 JUMP JUMPDEST DUP1 PUSH1 0x1F ADD PUSH1 0x20 DUP1 SWAP2 DIV MUL PUSH1 0x20 ADD PUSH1 0x40 MLOAD SWAP1 DUP2 ADD PUSH1 0x40 MSTORE DUP1 SWAP3 SWAP2 SWAP1 DUP2 DUP2 MSTORE PUSH1 0x20 ADD DUP3 DUP1 SLOAD PUSH2 0x42C SWAP1 PUSH2 0x35C2 JUMP JUMPDEST DUP1 ISZERO PUSH2 0x479 JUMPI DUP1 PUSH1 0x1F LT PUSH2 0x44E JUMPI PUSH2 0x100 DUP1 DUP4 SLOAD DIV MUL DUP4 MSTORE SWAP2 PUSH1 0x20 ADD SWAP2 PUSH2 0x479 JUMP JUMPDEST DUP3 ADD SWAP2 SWAP1 PUSH1 0x0 MSTORE PUSH1 0x20 PUSH1 0x0 KECCAK256 SWAP1 JUMPDEST DUP2 SLOAD DUP2 MSTORE SWAP1 PUSH1 0x1 ADD SWAP1 PUSH1 0x20 ADD DUP1 DUP4 GT PUSH2 0x45C JUMPI DUP3 SWAP1 SUB PUSH1 0x1F AND DUP3 ADD SWAP2 JUMPDEST POP POP POP POP POP DUP2 JUMP JUMPDEST PUSH1 0x60 PUSH1 0x0 DUP1 PUSH1 0x60 PUSH2 0x3E9 DUP6 LT ISZERO PUSH2 0x54A JUMPI PUSH1 0x6 DUP6 DUP2 SLOAD DUP2 LT PUSH2 0x4A5 JUMPI PUSH2 0x4A5 PUSH2 0x3684 JUMP JUMPDEST SWAP1 PUSH1 0x0 MSTORE PUSH1 0x20 PUSH1 0x0 KECCAK256 SWAP1 PUSH1 0x9 MUL ADD PUSH1 0x3 ADD SLOAD SWAP3 POP DUP5 SWAP2 POP PUSH1 0x9 DUP1 SLOAD PUSH2 0x4C9 SWAP1 PUSH2 0x35C2 JUMP JUMPDEST DUP1 PUSH1 0x1F ADD PUSH1 0x20 DUP1 SWAP2 DIV MUL PUSH1 0x20 ADD PUSH1 0x40 MLOAD SWAP1 DUP2 ADD PUSH1 0x40 MSTORE DUP1 SWAP3 SWAP2 SWAP1 DUP2 DUP2 MSTORE PUSH1 0x20 ADD DUP3 DUP1 SLOAD PUSH2 0x4F5 SWAP1 PUSH2 0x35C2 JUMP JUMPDEST DUP1 ISZERO PUSH2 0x542 JUMPI DUP1 PUSH1 0x1F LT PUSH2 0x517 JUMPI PUSH2 0x100 DUP1 DUP4 SLOAD DIV MUL DUP4 MSTORE SWAP2 PUSH1 0x20 ADD SWAP2 PUSH2 0x542 JUMP JUMPDEST DUP3 ADD SWAP2 SWAP1 PUSH1 0x0 MSTORE PUSH1 0x20 PUSH1 0x0 KECCAK256 SWAP1 JUMPDEST DUP2 SLOAD DUP2 MSTORE SWAP1 PUSH1 0x1 ADD SWAP1 PUSH1 0x20 ADD DUP1 DUP4 GT PUSH2 0x525 JUMPI DUP3 SWAP1 SUB PUSH1 0x1F AND DUP3 ADD SWAP2 JUMPDEST POP POP POP POP POP SWAP1 POP JUMPDEST DUP5 PUSH2 0x3E9 EQ ISZERO PUSH2 0x5DA JUMPI PUSH1 0x40 DUP1 MLOAD PUSH1 0x20 DUP1 DUP3 ADD DUP9 SWAP1 MSTORE TIMESTAMP DUP3 DUP5 ADD MSTORE PUSH7 0x506C6163652031 PUSH1 0xC8 SHL PUSH1 0x60 DUP4 ADD MSTORE PUSH1 0x3 PUSH1 0x67 DUP1 DUP5 ADD DUP3 SWAP1 MSTORE DUP5 MLOAD DUP1 DUP6 SUB SWAP1 SWAP2 ADD DUP2 MSTORE PUSH1 0x87 SWAP1 SWAP4 ADD SWAP1 SWAP4 MSTORE DUP2 MLOAD SWAP2 ADD KECCAK256 SWAP1 SWAP4 POP PUSH2 0x5A5 SWAP1 PUSH1 0x5 SWAP1 PUSH2 0x3644 JUMP JUMPDEST PUSH2 0x5B0 SWAP1 PUSH1 0x4 PUSH2 0x3560 JUMP JUMPDEST SWAP2 POP PUSH1 0x9 PUSH1 0x40 MLOAD PUSH1 0x20 ADD PUSH2 0x5C4 SWAP2 SWAP1 PUSH2 0x307A JUMP JUMPDEST PUSH1 0x40 MLOAD PUSH1 0x20 DUP2 DUP4 SUB SUB DUP2 MSTORE SWAP1 PUSH1 0x40 MSTORE SWAP1 POP PUSH2 0x6E0 JUMP JUMPDEST DUP5 PUSH2 0x3EA EQ ISZERO PUSH2 0x654 JUMPI PUSH1 0x40 DUP1 MLOAD PUSH1 0x20 DUP1 DUP3 ADD DUP9 SWAP1 MSTORE TIMESTAMP DUP3 DUP5 ADD MSTORE PUSH7 0x283630B1B29019 PUSH1 0xC9 SHL PUSH1 0x60 DUP4 ADD MSTORE PUSH1 0x2 PUSH1 0x67 DUP1 DUP5 ADD DUP3 SWAP1 MSTORE DUP5 MLOAD DUP1 DUP6 SUB SWAP1 SWAP2 ADD DUP2 MSTORE PUSH1 0x87 SWAP1 SWAP4 ADD SWAP1 SWAP4 MSTORE DUP2 MLOAD SWAP2 ADD KECCAK256 SWAP1 SWAP4 POP PUSH2 0x635 SWAP1 PUSH1 0x5 SWAP1 PUSH2 0x3644 JUMP JUMPDEST PUSH2 0x640 SWAP1 PUSH1 0x4 PUSH2 0x3560 JUMP JUMPDEST SWAP2 POP PUSH1 0x9 PUSH1 0x40 MLOAD PUSH1 0x20 ADD PUSH2 0x5C4 SWAP2 SWAP1 PUSH2 0x31CE JUMP JUMPDEST DUP5 PUSH2 0x3EB EQ ISZERO PUSH2 0x6E0 JUMPI PUSH1 0x40 DUP1 MLOAD PUSH1 0x20 DUP1 DUP3 ADD DUP9 SWAP1 MSTORE TIMESTAMP DUP3 DUP5 ADD MSTORE PUSH7 0x506C6163652033 PUSH1 0xC8 SHL PUSH1 0x60 DUP4 ADD MSTORE PUSH1 0x1 PUSH1 0x67 DUP1 DUP5 ADD DUP3 SWAP1 MSTORE DUP5 MLOAD DUP1 DUP6 SUB SWAP1 SWAP2 ADD DUP2 MSTORE PUSH1 0x87 SWAP1 SWAP4 ADD SWAP1 SWAP4 MSTORE DUP2 MLOAD SWAP2 ADD KECCAK256 SWAP1 SWAP4 POP PUSH2 0x6AF SWAP1 PUSH1 0x5 SWAP1 PUSH2 0x3644 JUMP JUMPDEST PUSH2 0x6BA SWAP1 PUSH1 0x4 PUSH2 0x3560 JUMP JUMPDEST SWAP2 POP PUSH1 0x9 PUSH1 0x40 MLOAD PUSH1 0x20 ADD PUSH2 0x6CE SWAP2 SWAP1 PUSH2 0x316B JUMP JUMPDEST PUSH1 0x40 MLOAD PUSH1 0x20 DUP2 DUP4 SUB SUB DUP2 MSTORE SWAP1 PUSH1 0x40 MSTORE SWAP1 POP JUMPDEST PUSH2 0x7D0 DUP6 GT DUP1 ISZERO PUSH2 0x6F3 JUMPI POP PUSH3 0x989681 DUP6 LT JUMPDEST ISZERO PUSH2 0x77F JUMPI PUSH1 0x0 SWAP3 POP PUSH1 0x5 DUP6 TIMESTAMP PUSH1 0x40 MLOAD PUSH1 0x20 ADD PUSH2 0x72B SWAP3 SWAP2 SWAP1 SWAP2 DUP3 MSTORE PUSH1 0x20 DUP3 ADD MSTORE PUSH8 0x1519585B48139195 PUSH1 0xC2 SHL PUSH1 0x40 DUP3 ADD MSTORE PUSH1 0x48 ADD SWAP1 JUMP JUMPDEST PUSH1 0x40 MLOAD PUSH1 0x20 DUP2 DUP4 SUB SUB DUP2 MSTORE SWAP1 PUSH1 0x40 MSTORE DUP1 MLOAD SWAP1 PUSH1 0x20 ADD KECCAK256 PUSH1 0x0 SHR PUSH2 0x74E SWAP2 SWAP1 PUSH2 0x3644 JUMP JUMPDEST PUSH2 0x759 SWAP1 PUSH1 0x4 PUSH2 0x3560 JUMP JUMPDEST SWAP2 POP PUSH1 0x9 PUSH1 0x40 MLOAD PUSH1 0x20 ADD PUSH2 0x76D SWAP2 SWAP1 PUSH2 0x3059 JUMP JUMPDEST PUSH1 0x40 MLOAD PUSH1 0x20 DUP2 DUP4 SUB SUB DUP2 MSTORE SWAP1 PUSH1 0x40 MSTORE SWAP1 POP JUMPDEST PUSH3 0x989680 DUP6 GT ISZERO PUSH2 0x811 JUMPI PUSH1 0x0 SWAP3 POP PUSH1 0x5 DUP6 TIMESTAMP PUSH1 0x40 MLOAD PUSH1 0x20 ADD PUSH2 0x7BD SWAP3 SWAP2 SWAP1 SWAP2 DUP3 MSTORE PUSH1 0x20 DUP3 ADD MSTORE PUSH8 0x1519585B48139195 PUSH1 0xC2 SHL PUSH1 0x40 DUP3 ADD MSTORE PUSH1 0x48 ADD SWAP1 JUMP JUMPDEST PUSH1 0x40 MLOAD PUSH1 0x20 DUP2 DUP4 SUB SUB DUP2 MSTORE SWAP1 PUSH1 0x40 MSTORE DUP1 MLOAD SWAP1 PUSH1 0x20 ADD KECCAK256 PUSH1 0x0 SHR PUSH2 0x7E0 SWAP2 SWAP1 PUSH2 0x3644 JUMP JUMPDEST PUSH2 0x7EB SWAP1 PUSH1 0x4 PUSH2 0x3560 JUMP JUMPDEST SWAP2 POP PUSH1 0x9 PUSH1 0x40 MLOAD PUSH1 0x20 ADD PUSH2 0x7FF SWAP2 SWAP1 PUSH2 0x303A JUMP JUMPDEST PUSH1 0x40 MLOAD PUSH1 0x20 DUP2 DUP4 SUB SUB DUP2 MSTORE SWAP1 PUSH1 0x40 MSTORE SWAP1 POP JUMPDEST PUSH1 0x0 DUP6 DUP2 MSTORE PUSH1 0xD PUSH1 0x20 MSTORE PUSH1 0x40 DUP2 KECCAK256 SLOAD PUSH1 0x6 DUP1 SLOAD SWAP2 SWAP3 SWAP2 DUP6 SWAP1 DUP2 LT PUSH2 0x837 JUMPI PUSH2 0x837 PUSH2 0x3684 JUMP JUMPDEST SWAP1 PUSH1 0x0 MSTORE PUSH1 0x20 PUSH1 0x0 KECCAK256 SWAP1 PUSH1 0x9 MUL ADD PUSH1 0x40 MLOAD DUP1 PUSH2 0x120 ADD PUSH1 0x40 MSTORE SWAP1 DUP2 PUSH1 0x0 DUP3 ADD SLOAD DUP2 MSTORE PUSH1 0x20 ADD PUSH1 0x1 DUP3 ADD SLOAD DUP2 MSTORE PUSH1 0x20 ADD PUSH1 0x2 DUP3 ADD SLOAD DUP2 MSTORE PUSH1 0x20 ADD PUSH1 0x3 DUP3 ADD SLOAD DUP2 MSTORE PUSH1 0x20 ADD PUSH1 0x4 DUP3 ADD SLOAD DUP2 MSTORE PUSH1 0x20 ADD PUSH1 0x5 DUP3 ADD SLOAD DUP2 MSTORE PUSH1 0x20 ADD PUSH1 0x6 DUP3 ADD DUP1 SLOAD PUSH2 0x89D SWAP1 PUSH2 0x35C2 JUMP JUMPDEST DUP1 PUSH1 0x1F ADD PUSH1 0x20 DUP1 SWAP2 DIV MUL PUSH1 0x20 ADD PUSH1 0x40 MLOAD SWAP1 DUP2 ADD PUSH1 0x40 MSTORE DUP1 SWAP3 SWAP2 SWAP1 DUP2 DUP2 MSTORE PUSH1 0x20 ADD DUP3 DUP1 SLOAD PUSH2 0x8C9 SWAP1 PUSH2 0x35C2 JUMP JUMPDEST DUP1 ISZERO PUSH2 0x916 JUMPI DUP1 PUSH1 0x1F LT PUSH2 0x8EB JUMPI PUSH2 0x100 DUP1 DUP4 SLOAD DIV MUL DUP4 MSTORE SWAP2 PUSH1 0x20 ADD SWAP2 PUSH2 0x916 JUMP JUMPDEST DUP3 ADD SWAP2 SWAP1 PUSH1 0x0 MSTORE PUSH1 0x20 PUSH1 0x0 KECCAK256 SWAP1 JUMPDEST DUP2 SLOAD DUP2 MSTORE SWAP1 PUSH1 0x1 ADD SWAP1 PUSH1 0x20 ADD DUP1 DUP4 GT PUSH2 0x8F9 JUMPI DUP3 SWAP1 SUB PUSH1 0x1F AND DUP3 ADD SWAP2 JUMPDEST POP POP POP POP POP DUP2 MSTORE PUSH1 0x20 ADD PUSH1 0x7 DUP3 ADD DUP1 SLOAD PUSH2 0x92F SWAP1 PUSH2 0x35C2 JUMP JUMPDEST DUP1 PUSH1 0x1F ADD PUSH1 0x20 DUP1 SWAP2 DIV MUL PUSH1 0x20 ADD PUSH1 0x40 MLOAD SWAP1 DUP2 ADD PUSH1 0x40 MSTORE DUP1 SWAP3 SWAP2 SWAP1 DUP2 DUP2 MSTORE PUSH1 0x20 ADD DUP3 DUP1 SLOAD PUSH2 0x95B SWAP1 PUSH2 0x35C2 JUMP JUMPDEST DUP1 ISZERO PUSH2 0x9A8 JUMPI DUP1 PUSH1 0x1F LT PUSH2 0x97D JUMPI PUSH2 0x100 DUP1 DUP4 SLOAD DIV MUL DUP4 MSTORE SWAP2 PUSH1 0x20 ADD SWAP2 PUSH2 0x9A8 JUMP JUMPDEST DUP3 ADD SWAP2 SWAP1 PUSH1 0x0 MSTORE PUSH1 0x20 PUSH1 0x0 KECCAK256 SWAP1 JUMPDEST DUP2 SLOAD DUP2 MSTORE SWAP1 PUSH1 0x1 ADD SWAP1 PUSH1 0x20 ADD DUP1 DUP4 GT PUSH2 0x98B JUMPI DUP3 SWAP1 SUB PUSH1 0x1F AND DUP3 ADD SWAP2 JUMPDEST POP POP POP POP POP DUP2 MSTORE PUSH1 0x20 ADD PUSH1 0x8 DUP3 ADD DUP1 SLOAD PUSH2 0x9C1 SWAP1 PUSH2 0x35C2 JUMP JUMPDEST DUP1 PUSH1 0x1F ADD PUSH1 0x20 DUP1 SWAP2 DIV MUL PUSH1 0x20 ADD PUSH1 0x40 MLOAD SWAP1 DUP2 ADD PUSH1 0x40 MSTORE DUP1 SWAP3 SWAP2 SWAP1 DUP2 DUP2 MSTORE PUSH1 0x20 ADD DUP3 DUP1 SLOAD PUSH2 0x9ED SWAP1 PUSH2 0x35C2 JUMP JUMPDEST DUP1 ISZERO PUSH2 0xA3A JUMPI DUP1 PUSH1 0x1F LT PUSH2 0xA0F JUMPI PUSH2 0x100 DUP1 DUP4 SLOAD DIV MUL DUP4 MSTORE SWAP2 PUSH1 0x20 ADD SWAP2 PUSH2 0xA3A JUMP JUMPDEST DUP3 ADD SWAP2 SWAP1 PUSH1 0x0 MSTORE PUSH1 0x20 PUSH1 0x0 KECCAK256 SWAP1 JUMPDEST DUP2 SLOAD DUP2 MSTORE SWAP1 PUSH1 0x1 ADD SWAP1 PUSH1 0x20 ADD DUP1 DUP4 GT PUSH2 0xA1D JUMPI DUP3 SWAP1 SUB PUSH1 0x1F AND DUP3 ADD SWAP2 JUMPDEST POP POP POP SWAP2 SWAP1 SWAP3 MSTORE POP POP PUSH1 0x7 SLOAD PUSH1 0x40 MLOAD PUSH4 0x21F8DD9D PUSH1 0xE0 SHL DUP2 MSTORE SWAP3 SWAP4 POP PUSH1 0x0 SWAP3 PUSH1 0x1 PUSH1 0x1 PUSH1 0xA0 SHL SUB SWAP1 SWAP2 AND SWAP2 POP PUSH4 0x21F8DD9D SWAP1 PUSH2 0xA80 SWAP1 DUP6 SWAP1 DUP11 SWAP1 DUP14 SWAP1 DUP10 SWAP1 PUSH1 0x4 ADD PUSH2 0x342A JUMP JUMPDEST PUSH1 0x0 PUSH1 0x40 MLOAD DUP1 DUP4 SUB DUP2 DUP7 DUP1 EXTCODESIZE ISZERO DUP1 ISZERO PUSH2 0xA98 JUMPI PUSH1 0x0 DUP1 REVERT JUMPDEST POP GAS STATICCALL ISZERO DUP1 ISZERO PUSH2 0xAAC JUMPI RETURNDATASIZE PUSH1 0x0 DUP1 RETURNDATACOPY RETURNDATASIZE PUSH1 0x0 REVERT JUMPDEST POP POP POP POP PUSH1 0x40 MLOAD RETURNDATASIZE PUSH1 0x0 DUP3 RETURNDATACOPY PUSH1 0x1F RETURNDATASIZE SWAP1 DUP2 ADD PUSH1 0x1F NOT AND DUP3 ADD PUSH1 0x40 MSTORE PUSH2 0xAD4 SWAP2 SWAP1 DUP2 ADD SWAP1 PUSH2 0x2A78 JUMP JUMPDEST SWAP1 POP PUSH1 0x0 DUP3 PUSH2 0x100 ADD MLOAD DUP6 PUSH2 0xAE8 DUP5 PUSH2 0x1677 JUMP JUMPDEST PUSH1 0x40 MLOAD PUSH1 0x20 ADD PUSH2 0xAFA SWAP4 SWAP3 SWAP2 SWAP1 PUSH2 0x3098 JUMP JUMPDEST PUSH1 0x40 MLOAD PUSH1 0x20 DUP2 DUP4 SUB SUB DUP2 MSTORE SWAP1 PUSH1 0x40 MSTORE SWAP1 POP DUP1 DUP4 PUSH2 0x100 ADD MLOAD DUP5 PUSH1 0xC0 ADD MLOAD PUSH2 0xB24 DUP7 PUSH1 0x0 ADD MLOAD PUSH2 0x17DC JUMP JUMPDEST PUSH2 0xB31 DUP8 PUSH1 0x20 ADD MLOAD PUSH2 0x17DC JUMP JUMPDEST PUSH1 0x40 MLOAD PUSH1 0x20 ADD PUSH2 0xB45 SWAP6 SWAP5 SWAP4 SWAP3 SWAP2 SWAP1 PUSH2 0x2EEF JUMP JUMPDEST PUSH1 0x40 MLOAD PUSH1 0x20 DUP2 DUP4 SUB SUB DUP2 MSTORE SWAP1 PUSH1 0x40 MSTORE SWAP1 POP DUP1 PUSH2 0xB64 DUP5 PUSH1 0x40 ADD MLOAD PUSH2 0x17DC JUMP JUMPDEST PUSH2 0xB71 DUP6 PUSH1 0x60 ADD MLOAD PUSH2 0x17DC JUMP JUMPDEST PUSH2 0xB7E DUP7 PUSH1 0x80 ADD MLOAD PUSH2 0x17DC JUMP JUMPDEST PUSH2 0xB8B DUP8 PUSH1 0xA0 ADD MLOAD PUSH2 0x17DC JUMP JUMPDEST PUSH2 0xB9C PUSH2 0xB97 DUP13 PUSH2 0x18E1 JUMP JUMPDEST PUSH2 0x17DC JUMP JUMPDEST PUSH1 0x40 MLOAD PUSH1 0x20 ADD PUSH2 0xBB1 SWAP7 SWAP6 SWAP5 SWAP4 SWAP3 SWAP2 SWAP1 PUSH2 0x2D5C JUMP JUMPDEST PUSH1 0x40 MLOAD PUSH1 0x20 DUP2 DUP4 SUB SUB DUP2 MSTORE SWAP1 PUSH1 0x40 MSTORE SWAP1 POP PUSH2 0xBCB DUP2 PUSH2 0x1677 JUMP JUMPDEST PUSH1 0x40 MLOAD PUSH1 0x20 ADD PUSH2 0xBDB SWAP2 SWAP1 PUSH2 0x3189 JUMP JUMPDEST PUSH1 0x40 MLOAD PUSH1 0x20 DUP2 DUP4 SUB SUB DUP2 MSTORE SWAP1 PUSH1 0x40 MSTORE SWAP8 POP POP POP POP POP POP POP POP SWAP2 SWAP1 POP JUMP JUMPDEST PUSH1 0xF SLOAD PUSH1 0x0 SWAP1 PUSH1 0x1 PUSH1 0x1 PUSH1 0xA0 SHL SUB AND CALLER EQ DUP1 PUSH2 0xC1E JUMPI POP PUSH1 0x10 SLOAD PUSH1 0x1 PUSH1 0x1 PUSH1 0xA0 SHL SUB AND CALLER EQ JUMPDEST PUSH2 0xC3A JUMPI PUSH1 0x40 MLOAD PUSH3 0x461BCD PUSH1 0xE5 SHL DUP2 MSTORE PUSH1 0x4 ADD PUSH2 0x372 SWAP1 PUSH2 0x336C JUMP JUMPDEST PUSH2 0x3ED DUP3 PUSH2 0x18E1 JUMP JUMPDEST PUSH1 0x1 PUSH1 0x1 PUSH1 0xA0 SHL SUB DUP6 AND CALLER EQ DUP1 PUSH2 0xC5F JUMPI POP PUSH2 0xC5F DUP6 CALLER PUSH2 0x2B7 JUMP JUMPDEST PUSH2 0xCC6 JUMPI PUSH1 0x40 MLOAD PUSH3 0x461BCD PUSH1 0xE5 SHL DUP2 MSTORE PUSH1 0x20 PUSH1 0x4 DUP3 ADD MSTORE PUSH1 0x32 PUSH1 0x24 DUP3 ADD MSTORE PUSH32 0x455243313135353A207472616E736665722063616C6C6572206973206E6F7420 PUSH1 0x44 DUP3 ADD MSTORE PUSH18 0x1BDDDB995C881B9BDC88185C1C1C9BDD9959 PUSH1 0x72 SHL PUSH1 0x64 DUP3 ADD MSTORE PUSH1 0x84 ADD PUSH2 0x372 JUMP JUMPDEST PUSH2 0xCD3 DUP6 DUP6 DUP6 DUP6 DUP6 PUSH2 0x1A79 JUMP JUMPDEST POP POP POP POP POP JUMP JUMPDEST PUSH1 0xF SLOAD PUSH1 0x1 PUSH1 0x1 PUSH1 0xA0 SHL SUB AND CALLER EQ DUP1 PUSH2 0xCFD JUMPI POP PUSH1 0x10 SLOAD PUSH1 0x1 PUSH1 0x1 PUSH1 0xA0 SHL SUB AND CALLER EQ JUMPDEST PUSH2 0xD19 JUMPI PUSH1 0x40 MLOAD PUSH3 0x461BCD PUSH1 0xE5 SHL DUP2 MSTORE PUSH1 0x4 ADD PUSH2 0x372 SWAP1 PUSH2 0x336C JUMP JUMPDEST PUSH2 0xD34 DUP3 DUP5 DUP4 PUSH1 0x40 MLOAD DUP1 PUSH1 0x20 ADD PUSH1 0x40 MSTORE DUP1 PUSH1 0x0 DUP2 MSTORE POP PUSH2 0x1CDA JUMP JUMPDEST PUSH1 0x40 DUP1 MLOAD DUP5 DUP2 MSTORE PUSH1 0x20 DUP2 ADD DUP4 SWAP1 MSTORE PUSH1 0x1 PUSH1 0x1 PUSH1 0xA0 SHL SUB DUP5 AND SWAP2 PUSH32 0xC53D2DA4A9EF9B259C31A6AFA294D43B018AA5930A327C1DEFC6AD7CEB406C5E SWAP2 ADD PUSH1 0x40 MLOAD DUP1 SWAP2 SUB SWAP1 LOG2 POP POP POP JUMP JUMPDEST PUSH1 0x60 DUP2 MLOAD DUP4 MLOAD EQ PUSH2 0xDE2 JUMPI PUSH1 0x40 MLOAD PUSH3 0x461BCD PUSH1 0xE5 SHL DUP2 MSTORE PUSH1 0x20 PUSH1 0x4 DUP3 ADD MSTORE PUSH1 0x29 PUSH1 0x24 DUP3 ADD MSTORE PUSH32 0x455243313135353A206163636F756E747320616E6420696473206C656E677468 PUSH1 0x44 DUP3 ADD MSTORE PUSH9 0x40DAD2E6DAC2E8C6D PUSH1 0xBB SHL PUSH1 0x64 DUP3 ADD MSTORE PUSH1 0x84 ADD PUSH2 0x372 JUMP JUMPDEST PUSH1 0x0 DUP4 MLOAD PUSH1 0x1 PUSH1 0x1 PUSH1 0x40 SHL SUB DUP2 GT ISZERO PUSH2 0xDFD JUMPI PUSH2 0xDFD PUSH2 0x369A JUMP JUMPDEST PUSH1 0x40 MLOAD SWAP1 DUP1 DUP3 MSTORE DUP1 PUSH1 0x20 MUL PUSH1 0x20 ADD DUP3 ADD PUSH1 0x40 MSTORE DUP1 ISZERO PUSH2 0xE26 JUMPI DUP2 PUSH1 0x20 ADD PUSH1 0x20 DUP3 MUL DUP1 CALLDATASIZE DUP4 CALLDATACOPY ADD SWAP1 POP JUMPDEST POP SWAP1 POP PUSH1 0x0 JUMPDEST DUP5 MLOAD DUP2 LT ISZERO PUSH2 0xE9E JUMPI PUSH2 0xE71 DUP6 DUP3 DUP2 MLOAD DUP2 LT PUSH2 0xE4A JUMPI PUSH2 0xE4A PUSH2 0x3684 JUMP JUMPDEST PUSH1 0x20 MUL PUSH1 0x20 ADD ADD MLOAD DUP6 DUP4 DUP2 MLOAD DUP2 LT PUSH2 0xE64 JUMPI PUSH2 0xE64 PUSH2 0x3684 JUMP JUMPDEST PUSH1 0x20 MUL PUSH1 0x20 ADD ADD MLOAD PUSH2 0x30B JUMP JUMPDEST DUP3 DUP3 DUP2 MLOAD DUP2 LT PUSH2 0xE83 JUMPI PUSH2 0xE83 PUSH2 0x3684 JUMP JUMPDEST PUSH1 0x20 SWAP1 DUP2 MUL SWAP2 SWAP1 SWAP2 ADD ADD MSTORE PUSH2 0xE97 DUP2 PUSH2 0x3629 JUMP JUMPDEST SWAP1 POP PUSH2 0xE2C JUMP JUMPDEST POP SWAP4 SWAP3 POP POP POP JUMP JUMPDEST PUSH1 0xF SLOAD PUSH1 0x1 PUSH1 0x1 PUSH1 0xA0 SHL SUB AND CALLER EQ DUP1 PUSH2 0xEC9 JUMPI POP PUSH1 0x10 SLOAD PUSH1 0x1 PUSH1 0x1 PUSH1 0xA0 SHL SUB AND CALLER EQ JUMPDEST PUSH2 0xEE5 JUMPI PUSH1 0x40 MLOAD PUSH3 0x461BCD PUSH1 0xE5 SHL DUP2 MSTORE PUSH1 0x4 ADD PUSH2 0x372 SWAP1 PUSH2 0x336C JUMP JUMPDEST PUSH1 0x60 DUP7 PUSH1 0x4 EQ ISZERO PUSH2 0xF1C JUMPI POP PUSH1 0x40 DUP1 MLOAD DUP1 DUP3 ADD SWAP1 SWAP2 MSTORE PUSH1 0xF DUP2 MSTORE PUSH15 0x9CDEC2D04096C2E8E8CAE4C4C2C6D PUSH1 0x8B SHL PUSH1 0x20 DUP3 ADD MSTORE PUSH2 0xFDD JUMP JUMPDEST DUP7 PUSH1 0x3 EQ ISZERO PUSH2 0xF4E JUMPI POP PUSH1 0x40 DUP1 MLOAD DUP1 DUP3 ADD SWAP1 SWAP2 MSTORE PUSH1 0xC DUP2 MSTORE PUSH12 0x105B991E4814195B1B585C99 PUSH1 0xA2 SHL PUSH1 0x20 DUP3 ADD MSTORE PUSH2 0xFDD JUMP JUMPDEST DUP7 PUSH1 0x2 EQ ISZERO PUSH2 0xF81 JUMPI POP PUSH1 0x40 DUP1 MLOAD DUP1 DUP3 ADD SWAP1 SWAP2 MSTORE PUSH1 0xD DUP2 MSTORE PUSH13 0x50616A74696D204B6173616D69 PUSH1 0x98 SHL PUSH1 0x20 DUP3 ADD MSTORE PUSH2 0xFDD JUMP JUMPDEST DUP7 PUSH1 0x1 EQ ISZERO PUSH2 0xFB2 JUMPI POP PUSH1 0x40 DUP1 MLOAD DUP1 DUP3 ADD SWAP1 SWAP2 MSTORE PUSH1 0xB DUP2 MSTORE PUSH11 0x2634B0B69026B4B63630B9 PUSH1 0xA9 SHL PUSH1 0x20 DUP3 ADD MSTORE PUSH2 0xFDD JUMP JUMPDEST DUP7 PUSH2 0xFDD JUMPI POP PUSH1 0x40 DUP1 MLOAD DUP1 DUP3 ADD SWAP1 SWAP2 MSTORE PUSH1 0xD DUP2 MSTORE PUSH13 0x2432B4B73D102634B7323732B9 PUSH1 0x99 SHL PUSH1 0x20 DUP3 ADD MSTORE JUMPDEST PUSH1 0x0 PUSH1 0xB DUP3 PUSH1 0x40 MLOAD PUSH2 0xFEF SWAP2 SWAP1 PUSH2 0x2D40 JUMP JUMPDEST SWAP1 DUP2 MSTORE PUSH1 0x40 DUP1 MLOAD SWAP2 DUP3 SWAP1 SUB PUSH1 0x20 SWAP1 DUP2 ADD DUP4 KECCAK256 DUP1 SLOAD DUP1 DUP4 MUL DUP6 ADD DUP4 ADD SWAP1 SWAP4 MSTORE DUP3 DUP5 MSTORE SWAP2 SWAP1 DUP4 ADD DUP3 DUP3 DUP1 ISZERO PUSH2 0x1041 JUMPI PUSH1 0x20 MUL DUP3 ADD SWAP2 SWAP1 PUSH1 0x0 MSTORE PUSH1 0x20 PUSH1 0x0 KECCAK256 SWAP1 JUMPDEST DUP2 SLOAD DUP2 MSTORE PUSH1 0x20 ADD SWAP1 PUSH1 0x1 ADD SWAP1 DUP1 DUP4 GT PUSH2 0x102D JUMPI JUMPDEST POP POP POP POP POP SWAP1 POP PUSH1 0x0 JUMPDEST DUP2 MLOAD DUP2 LT ISZERO PUSH2 0x11C3 JUMPI DUP8 PUSH2 0xFFFF AND PUSH1 0x6 DUP4 DUP4 DUP2 MLOAD DUP2 LT PUSH2 0x106D JUMPI PUSH2 0x106D PUSH2 0x3684 JUMP JUMPDEST PUSH1 0x20 MUL PUSH1 0x20 ADD ADD MLOAD DUP2 SLOAD DUP2 LT PUSH2 0x1085 JUMPI PUSH2 0x1085 PUSH2 0x3684 JUMP JUMPDEST SWAP1 PUSH1 0x0 MSTORE PUSH1 0x20 PUSH1 0x0 KECCAK256 SWAP1 PUSH1 0x9 MUL ADD PUSH1 0x0 ADD DUP2 SWAP1 SSTORE POP DUP7 PUSH2 0xFFFF AND PUSH1 0x6 DUP4 DUP4 DUP2 MLOAD DUP2 LT PUSH2 0x10B3 JUMPI PUSH2 0x10B3 PUSH2 0x3684 JUMP JUMPDEST PUSH1 0x20 MUL PUSH1 0x20 ADD ADD MLOAD DUP2 SLOAD DUP2 LT PUSH2 0x10CB JUMPI PUSH2 0x10CB PUSH2 0x3684 JUMP JUMPDEST SWAP1 PUSH1 0x0 MSTORE PUSH1 0x20 PUSH1 0x0 KECCAK256 SWAP1 PUSH1 0x9 MUL ADD PUSH1 0x1 ADD DUP2 SWAP1 SSTORE POP DUP6 PUSH2 0xFFFF AND PUSH1 0x6 DUP4 DUP4 DUP2 MLOAD DUP2 LT PUSH2 0x10F9 JUMPI PUSH2 0x10F9 PUSH2 0x3684 JUMP JUMPDEST PUSH1 0x20 MUL PUSH1 0x20 ADD ADD MLOAD DUP2 SLOAD DUP2 LT PUSH2 0x1111 JUMPI PUSH2 0x1111 PUSH2 0x3684 JUMP JUMPDEST SWAP1 PUSH1 0x0 MSTORE PUSH1 0x20 PUSH1 0x0 KECCAK256 SWAP1 PUSH1 0x9 MUL ADD PUSH1 0x2 ADD DUP2 SWAP1 SSTORE POP DUP4 PUSH2 0xFFFF AND PUSH1 0x6 DUP4 DUP4 DUP2 MLOAD DUP2 LT PUSH2 0x113F JUMPI PUSH2 0x113F PUSH2 0x3684 JUMP JUMPDEST PUSH1 0x20 MUL PUSH1 0x20 ADD ADD MLOAD DUP2 SLOAD DUP2 LT PUSH2 0x1157 JUMPI PUSH2 0x1157 PUSH2 0x3684 JUMP JUMPDEST SWAP1 PUSH1 0x0 MSTORE PUSH1 0x20 PUSH1 0x0 KECCAK256 SWAP1 PUSH1 0x9 MUL ADD PUSH1 0x4 ADD DUP2 SWAP1 SSTORE POP DUP5 PUSH2 0xFFFF AND PUSH1 0x6 DUP4 DUP4 DUP2 MLOAD DUP2 LT PUSH2 0x1185 JUMPI PUSH2 0x1185 PUSH2 0x3684 JUMP JUMPDEST PUSH1 0x20 MUL PUSH1 0x20 ADD ADD MLOAD DUP2 SLOAD DUP2 LT PUSH2 0x119D JUMPI PUSH2 0x119D PUSH2 0x3684 JUMP JUMPDEST PUSH1 0x0 SWAP2 DUP3 MSTORE PUSH1 0x20 SWAP1 SWAP2 KECCAK256 PUSH1 0x5 PUSH1 0x9 SWAP1 SWAP3 MUL ADD ADD SSTORE DUP1 PUSH2 0x11BB DUP2 PUSH2 0x3629 JUMP JUMPDEST SWAP2 POP POP PUSH2 0x104B JUMP JUMPDEST POP POP POP POP POP POP POP POP POP JUMP JUMPDEST PUSH1 0xE SLOAD PUSH1 0x1 PUSH1 0x1 PUSH1 0xA0 SHL SUB AND CALLER EQ PUSH2 0x11F8 JUMPI PUSH1 0x40 MLOAD PUSH3 0x461BCD PUSH1 0xE5 SHL DUP2 MSTORE PUSH1 0x4 ADD PUSH2 0x372 SWAP1 PUSH2 0x336C JUMP JUMPDEST DUP1 MLOAD PUSH2 0x120B SWAP1 PUSH1 0x9 SWAP1 PUSH1 0x20 DUP5 ADD SWAP1 PUSH2 0x256B JUMP JUMPDEST POP POP JUMP JUMPDEST PUSH1 0xF SLOAD PUSH1 0x1 PUSH1 0x1 PUSH1 0xA0 SHL SUB AND CALLER EQ DUP1 PUSH2 0x1232 JUMPI POP PUSH1 0x10 SLOAD PUSH1 0x1 PUSH1 0x1 PUSH1 0xA0 SHL SUB AND CALLER EQ JUMPDEST PUSH2 0x124E JUMPI PUSH1 0x40 MLOAD PUSH3 0x461BCD PUSH1 0xE5 SHL DUP2 MSTORE PUSH1 0x4 ADD PUSH2 0x372 SWAP1 PUSH2 0x336C JUMP JUMPDEST PUSH2 0x1259 DUP3 DUP5 DUP4 PUSH2 0x1E74 JUMP JUMPDEST POP POP POP JUMP JUMPDEST PUSH2 0x120B CALLER DUP4 DUP4 PUSH2 0x1FF0 JUMP JUMPDEST PUSH1 0xF SLOAD PUSH1 0x60 SWAP1 PUSH1 0x1 PUSH1 0x1 PUSH1 0xA0 SHL SUB AND CALLER EQ DUP1 PUSH2 0x128F JUMPI POP PUSH1 0x10 SLOAD PUSH1 0x1 PUSH1 0x1 PUSH1 0xA0 SHL SUB AND CALLER EQ JUMPDEST PUSH2 0x12AB JUMPI PUSH1 0x40 MLOAD PUSH3 0x461BCD PUSH1 0xE5 SHL DUP2 MSTORE PUSH1 0x4 ADD PUSH2 0x372 SWAP1 PUSH2 0x336C JUMP JUMPDEST PUSH2 0x12B3 PUSH2 0x20D1 JUMP JUMPDEST SWAP1 POP SWAP1 JUMP JUMPDEST PUSH1 0xE SLOAD PUSH1 0x1 PUSH1 0x1 PUSH1 0xA0 SHL SUB AND CALLER EQ PUSH2 0x12E2 JUMPI PUSH1 0x40 MLOAD PUSH3 0x461BCD PUSH1 0xE5 SHL DUP2 MSTORE PUSH1 0x4 ADD PUSH2 0x372 SWAP1 PUSH2 0x336C JUMP JUMPDEST PUSH1 0xE DUP1 SLOAD PUSH1 0x1 PUSH1 0x1 PUSH1 0xA0 SHL SUB NOT AND PUSH1 0x1 PUSH1 0x1 PUSH1 0xA0 SHL SUB SWAP3 SWAP1 SWAP3 AND SWAP2 SWAP1 SWAP2 OR SWAP1 SSTORE JUMP JUMPDEST PUSH1 0xE SLOAD PUSH1 0x1 PUSH1 0x1 PUSH1 0xA0 SHL SUB AND CALLER EQ PUSH2 0x132E JUMPI PUSH1 0x40 MLOAD PUSH3 0x461BCD PUSH1 0xE5 SHL DUP2 MSTORE PUSH1 0x4 ADD PUSH2 0x372 SWAP1 PUSH2 0x336C JUMP JUMPDEST PUSH1 0xF DUP1 SLOAD PUSH1 0x1 PUSH1 0x1 PUSH1 0xA0 SHL SUB SWAP4 DUP5 AND PUSH1 0x1 PUSH1 0x1 PUSH1 0xA0 SHL SUB NOT SWAP2 DUP3 AND OR SWAP1 SWAP2 SSTORE PUSH1 0x10 DUP1 SLOAD SWAP3 SWAP1 SWAP4 AND SWAP2 AND OR SWAP1 SSTORE JUMP JUMPDEST PUSH1 0xF SLOAD PUSH1 0x1 PUSH1 0x1 PUSH1 0xA0 SHL SUB AND CALLER EQ DUP1 PUSH2 0x137F JUMPI POP PUSH1 0x10 SLOAD PUSH1 0x1 PUSH1 0x1 PUSH1 0xA0 SHL SUB AND CALLER EQ JUMPDEST PUSH2 0x139B JUMPI PUSH1 0x40 MLOAD PUSH3 0x461BCD PUSH1 0xE5 SHL DUP2 MSTORE PUSH1 0x4 ADD PUSH2 0x372 SWAP1 PUSH2 0x336C JUMP JUMPDEST PUSH2 0x7D1 PUSH1 0x0 JUMPDEST DUP3 DUP2 LT ISZERO PUSH2 0x13F8 JUMPI DUP4 DUP4 DUP3 DUP2 DUP2 LT PUSH2 0x13BB JUMPI PUSH2 0x13BB PUSH2 0x3684 JUMP JUMPDEST SWAP1 POP PUSH1 0x20 MUL ADD CALLDATALOAD PUSH1 0xC PUSH1 0x0 DUP5 DUP1 PUSH2 0x13D1 SWAP1 PUSH2 0x3629 JUMP JUMPDEST SWAP6 POP DUP2 MSTORE PUSH1 0x20 ADD SWAP1 DUP2 MSTORE PUSH1 0x20 ADD PUSH1 0x0 KECCAK256 DUP2 SWAP1 SSTORE POP DUP1 DUP1 PUSH2 0x13F0 SWAP1 PUSH2 0x3629 JUMP JUMPDEST SWAP2 POP POP PUSH2 0x13A1 JUMP JUMPDEST POP POP POP POP JUMP JUMPDEST PUSH1 0xF SLOAD PUSH1 0x1 PUSH1 0x1 PUSH1 0xA0 SHL SUB AND CALLER EQ DUP1 PUSH2 0x1421 JUMPI POP PUSH1 0x10 SLOAD PUSH1 0x1 PUSH1 0x1 PUSH1 0xA0 SHL SUB AND CALLER EQ JUMPDEST PUSH2 0x143D JUMPI PUSH1 0x40 MLOAD PUSH3 0x461BCD PUSH1 0xE5 SHL DUP2 MSTORE PUSH1 0x4 ADD PUSH2 0x372 SWAP1 PUSH2 0x336C JUMP JUMPDEST PUSH1 0x0 SWAP2 DUP3 MSTORE PUSH1 0xD PUSH1 0x20 MSTORE PUSH1 0x40 SWAP1 SWAP2 KECCAK256 SSTORE JUMP JUMPDEST PUSH1 0x3 DUP3 LT PUSH2 0x14AB JUMPI PUSH1 0x40 MLOAD PUSH3 0x461BCD PUSH1 0xE5 SHL DUP2 MSTORE PUSH1 0x20 PUSH1 0x4 DUP3 ADD MSTORE PUSH1 0x24 DUP1 DUP3 ADD MSTORE PUSH32 0x57726F6E672076616C75652E2049742073686F756C6420626520303C3D6C6576 PUSH1 0x44 DUP3 ADD MSTORE PUSH4 0x656C3C33 PUSH1 0xE0 SHL PUSH1 0x64 DUP3 ADD MSTORE PUSH1 0x84 ADD PUSH2 0x372 JUMP JUMPDEST PUSH1 0x0 PUSH1 0xB DUP5 PUSH1 0x40 MLOAD PUSH2 0x14BD SWAP2 SWAP1 PUSH2 0x2D40 JUMP JUMPDEST SWAP1 DUP2 MSTORE PUSH1 0x40 DUP1 MLOAD SWAP2 DUP3 SWAP1 SUB PUSH1 0x20 SWAP1 DUP2 ADD DUP4 KECCAK256 DUP1 SLOAD DUP1 DUP4 MUL DUP6 ADD DUP4 ADD SWAP1 SWAP4 MSTORE DUP3 DUP5 MSTORE SWAP2 SWAP1 DUP4 ADD DUP3 DUP3 DUP1 ISZERO PUSH2 0x150F JUMPI PUSH1 0x20 MUL DUP3 ADD SWAP2 SWAP1 PUSH1 0x0 MSTORE PUSH1 0x20 PUSH1 0x0 KECCAK256 SWAP1 JUMPDEST DUP2 SLOAD DUP2 MSTORE PUSH1 0x20 ADD SWAP1 PUSH1 0x1 ADD SWAP1 DUP1 DUP4 GT PUSH2 0x14FB JUMPI JUMPDEST POP POP POP POP POP SWAP1 POP PUSH1 0x0 DUP3 PUSH1 0x3 PUSH2 0x1525 SWAP2 SWAP1 PUSH2 0x3560 JUMP JUMPDEST SWAP1 POP DUP1 PUSH2 0x153E CALLER DUP5 DUP8 DUP2 MLOAD DUP2 LT PUSH2 0xE64 JUMPI PUSH2 0xE64 PUSH2 0x3684 JUMP JUMPDEST LT ISZERO PUSH2 0x158C JUMPI PUSH1 0x40 MLOAD PUSH3 0x461BCD PUSH1 0xE5 SHL DUP2 MSTORE PUSH1 0x20 PUSH1 0x4 DUP3 ADD MSTORE PUSH1 0x1D PUSH1 0x24 DUP3 ADD MSTORE PUSH32 0x496E7375666963656E7420506C617965727320746F2075706772616465000000 PUSH1 0x44 DUP3 ADD MSTORE PUSH1 0x64 ADD PUSH2 0x372 JUMP JUMPDEST PUSH2 0x15B0 CALLER DUP4 DUP7 DUP2 MLOAD DUP2 LT PUSH2 0x15A2 JUMPI PUSH2 0x15A2 PUSH2 0x3684 JUMP JUMPDEST PUSH1 0x20 MUL PUSH1 0x20 ADD ADD MLOAD DUP4 PUSH2 0x1E74 JUMP JUMPDEST PUSH2 0xCD3 CALLER DUP4 DUP7 DUP2 MLOAD DUP2 LT PUSH2 0x15C6 JUMPI PUSH2 0x15C6 PUSH2 0x3684 JUMP JUMPDEST PUSH1 0x20 MUL PUSH1 0x20 ADD ADD MLOAD PUSH1 0x1 PUSH2 0x15DA SWAP2 SWAP1 PUSH2 0x3534 JUMP JUMPDEST DUP6 PUSH1 0x40 MLOAD DUP1 PUSH1 0x20 ADD PUSH1 0x40 MSTORE DUP1 PUSH1 0x0 DUP2 MSTORE POP PUSH2 0x1CDA JUMP JUMPDEST PUSH1 0x1 PUSH1 0x1 PUSH1 0xA0 SHL SUB DUP6 AND CALLER EQ DUP1 PUSH2 0x160C JUMPI POP PUSH2 0x160C DUP6 CALLER PUSH2 0x2B7 JUMP JUMPDEST PUSH2 0x166A JUMPI PUSH1 0x40 MLOAD PUSH3 0x461BCD PUSH1 0xE5 SHL DUP2 MSTORE PUSH1 0x20 PUSH1 0x4 DUP3 ADD MSTORE PUSH1 0x29 PUSH1 0x24 DUP3 ADD MSTORE PUSH32 0x455243313135353A2063616C6C6572206973206E6F74206F776E6572206E6F72 PUSH1 0x44 DUP3 ADD MSTORE PUSH9 0x8185C1C1C9BDD9959 PUSH1 0xBA SHL PUSH1 0x64 DUP3 ADD MSTORE PUSH1 0x84 ADD PUSH2 0x372 JUMP JUMPDEST PUSH2 0xCD3 DUP6 DUP6 DUP6 DUP6 DUP6 PUSH2 0x2133 JUMP JUMPDEST DUP1 MLOAD PUSH1 0x60 SWAP1 DUP1 PUSH2 0x1697 JUMPI POP POP PUSH1 0x40 DUP1 MLOAD PUSH1 0x20 DUP2 ADD SWAP1 SWAP2 MSTORE PUSH1 0x0 DUP2 MSTORE SWAP2 SWAP1 POP JUMP JUMPDEST PUSH1 0x0 PUSH1 0x3 PUSH2 0x16A6 DUP4 PUSH1 0x2 PUSH2 0x3534 JUMP JUMPDEST PUSH2 0x16B0 SWAP2 SWAP1 PUSH2 0x354C JUMP JUMPDEST PUSH2 0x16BB SWAP1 PUSH1 0x4 PUSH2 0x3560 JUMP JUMPDEST SWAP1 POP PUSH1 0x0 PUSH2 0x16CA DUP3 PUSH1 0x20 PUSH2 0x3534 JUMP JUMPDEST PUSH1 0x1 PUSH1 0x1 PUSH1 0x40 SHL SUB DUP2 GT ISZERO PUSH2 0x16E1 JUMPI PUSH2 0x16E1 PUSH2 0x369A JUMP JUMPDEST PUSH1 0x40 MLOAD SWAP1 DUP1 DUP3 MSTORE DUP1 PUSH1 0x1F ADD PUSH1 0x1F NOT AND PUSH1 0x20 ADD DUP3 ADD PUSH1 0x40 MSTORE DUP1 ISZERO PUSH2 0x170B JUMPI PUSH1 0x20 DUP3 ADD DUP2 DUP1 CALLDATASIZE DUP4 CALLDATACOPY ADD SWAP1 POP JUMPDEST POP SWAP1 POP PUSH1 0x0 PUSH1 0x40 MLOAD DUP1 PUSH1 0x60 ADD PUSH1 0x40 MSTORE DUP1 PUSH1 0x40 DUP2 MSTORE PUSH1 0x20 ADD PUSH2 0x376F PUSH1 0x40 SWAP2 CODECOPY SWAP1 POP PUSH1 0x1 DUP2 ADD PUSH1 0x20 DUP4 ADD PUSH1 0x0 JUMPDEST DUP7 DUP2 LT ISZERO PUSH2 0x1797 JUMPI PUSH1 0x3 DUP2 DUP11 ADD DUP2 ADD MLOAD PUSH1 0x3F PUSH1 0x12 DUP3 SWAP1 SHR DUP2 AND DUP7 ADD MLOAD PUSH1 0xC DUP4 SWAP1 SHR DUP3 AND DUP8 ADD MLOAD PUSH1 0x6 DUP5 SWAP1 SHR DUP4 AND DUP9 ADD MLOAD SWAP3 SWAP1 SWAP4 AND DUP8 ADD MLOAD PUSH1 0x8 SWAP2 DUP3 SHL PUSH1 0xFF SWAP5 DUP6 AND ADD DUP3 SHL SWAP3 DUP5 AND SWAP3 SWAP1 SWAP3 ADD SWAP1 SHL SWAP2 AND ADD PUSH1 0xE0 SHL DUP4 MSTORE PUSH1 0x4 SWAP1 SWAP3 ADD SWAP2 ADD PUSH2 0x1736 JUMP JUMPDEST POP PUSH1 0x3 DUP7 MOD PUSH1 0x1 DUP2 EQ PUSH2 0x17B1 JUMPI PUSH1 0x2 DUP2 EQ PUSH2 0x17C2 JUMPI PUSH2 0x17CE JUMP JUMPDEST PUSH2 0x3D3D PUSH1 0xF0 SHL PUSH1 0x1 NOT DUP4 ADD MSTORE PUSH2 0x17CE JUMP JUMPDEST PUSH1 0x3D PUSH1 0xF8 SHL PUSH1 0x0 NOT DUP4 ADD MSTORE JUMPDEST POP POP POP SWAP2 DUP2 MSTORE SWAP5 SWAP4 POP POP POP POP JUMP JUMPDEST PUSH1 0x60 DUP2 PUSH2 0x1800 JUMPI POP POP PUSH1 0x40 DUP1 MLOAD DUP1 DUP3 ADD SWAP1 SWAP2 MSTORE PUSH1 0x1 DUP2 MSTORE PUSH1 0x3 PUSH1 0xFC SHL PUSH1 0x20 DUP3 ADD MSTORE SWAP1 JUMP JUMPDEST DUP2 PUSH1 0x0 JUMPDEST DUP2 ISZERO PUSH2 0x182A JUMPI DUP1 PUSH2 0x1814 DUP2 PUSH2 0x3629 JUMP JUMPDEST SWAP2 POP PUSH2 0x1823 SWAP1 POP PUSH1 0xA DUP4 PUSH2 0x354C JUMP JUMPDEST SWAP2 POP PUSH2 0x1804 JUMP JUMPDEST PUSH1 0x0 DUP2 PUSH1 0x1 PUSH1 0x1 PUSH1 0x40 SHL SUB DUP2 GT ISZERO PUSH2 0x1844 JUMPI PUSH2 0x1844 PUSH2 0x369A JUMP JUMPDEST PUSH1 0x40 MLOAD SWAP1 DUP1 DUP3 MSTORE DUP1 PUSH1 0x1F ADD PUSH1 0x1F NOT AND PUSH1 0x20 ADD DUP3 ADD PUSH1 0x40 MSTORE DUP1 ISZERO PUSH2 0x186E JUMPI PUSH1 0x20 DUP3 ADD DUP2 DUP1 CALLDATASIZE DUP4 CALLDATACOPY ADD SWAP1 POP JUMPDEST POP SWAP1 POP JUMPDEST DUP5 ISZERO PUSH2 0x18D9 JUMPI PUSH2 0x1883 PUSH1 0x1 DUP4 PUSH2 0x357F JUMP JUMPDEST SWAP2 POP PUSH2 0x1890 PUSH1 0xA DUP7 PUSH2 0x3644 JUMP JUMPDEST PUSH2 0x189B SWAP1 PUSH1 0x30 PUSH2 0x3534 JUMP JUMPDEST PUSH1 0xF8 SHL DUP2 DUP4 DUP2 MLOAD DUP2 LT PUSH2 0x18B0 JUMPI PUSH2 0x18B0 PUSH2 0x3684 JUMP JUMPDEST PUSH1 0x20 ADD ADD SWAP1 PUSH1 0x1 PUSH1 0x1 PUSH1 0xF8 SHL SUB NOT AND SWAP1 DUP2 PUSH1 0x0 BYTE SWAP1 MSTORE8 POP PUSH2 0x18D2 PUSH1 0xA DUP7 PUSH2 0x354C JUMP JUMPDEST SWAP5 POP PUSH2 0x1872 JUMP JUMPDEST SWAP5 SWAP4 POP POP POP POP JUMP JUMPDEST PUSH1 0x0 DUP1 PUSH1 0x1 SWAP1 POP PUSH1 0x6 DUP4 DUP2 SLOAD DUP2 LT PUSH2 0x18FB JUMPI PUSH2 0x18FB PUSH2 0x3684 JUMP JUMPDEST SWAP1 PUSH1 0x0 MSTORE PUSH1 0x20 PUSH1 0x0 KECCAK256 SWAP1 PUSH1 0x9 MUL ADD PUSH1 0x6 ADD PUSH1 0x40 MLOAD PUSH1 0x20 ADD PUSH2 0x191C SWAP2 SWAP1 PUSH2 0x302E JUMP JUMPDEST PUSH1 0x40 MLOAD PUSH1 0x20 DUP2 DUP4 SUB SUB DUP2 MSTORE SWAP1 PUSH1 0x40 MSTORE DUP1 MLOAD SWAP1 PUSH1 0x20 ADD KECCAK256 PUSH1 0x40 MLOAD PUSH1 0x20 ADD PUSH2 0x194F SWAP1 PUSH7 0x446566656E6365 PUSH1 0xC8 SHL DUP2 MSTORE PUSH1 0x7 ADD SWAP1 JUMP JUMPDEST PUSH1 0x40 MLOAD PUSH1 0x20 DUP2 DUP4 SUB SUB DUP2 MSTORE SWAP1 PUSH1 0x40 MSTORE DUP1 MLOAD SWAP1 PUSH1 0x20 ADD KECCAK256 EQ ISZERO PUSH2 0x196F JUMPI POP PUSH1 0x2 JUMPDEST PUSH1 0x6 DUP4 DUP2 SLOAD DUP2 LT PUSH2 0x1982 JUMPI PUSH2 0x1982 PUSH2 0x3684 JUMP JUMPDEST SWAP1 PUSH1 0x0 MSTORE PUSH1 0x20 PUSH1 0x0 KECCAK256 SWAP1 PUSH1 0x9 MUL ADD PUSH1 0x4 ADD SLOAD PUSH1 0x6 DUP5 DUP2 SLOAD DUP2 LT PUSH2 0x19A7 JUMPI PUSH2 0x19A7 PUSH2 0x3684 JUMP JUMPDEST SWAP1 PUSH1 0x0 MSTORE PUSH1 0x20 PUSH1 0x0 KECCAK256 SWAP1 PUSH1 0x9 MUL ADD PUSH1 0x5 ADD SLOAD PUSH1 0x6 DUP6 DUP2 SLOAD DUP2 LT PUSH2 0x19CC JUMPI PUSH2 0x19CC PUSH2 0x3684 JUMP JUMPDEST SWAP1 PUSH1 0x0 MSTORE PUSH1 0x20 PUSH1 0x0 KECCAK256 SWAP1 PUSH1 0x9 MUL ADD PUSH1 0x2 ADD SLOAD PUSH2 0x19E8 SWAP2 SWAP1 PUSH2 0x3534 JUMP JUMPDEST PUSH2 0x19F2 SWAP1 DUP4 PUSH2 0x3560 JUMP JUMPDEST PUSH1 0xA PUSH1 0x6 DUP7 DUP2 SLOAD DUP2 LT PUSH2 0x1A07 JUMPI PUSH2 0x1A07 PUSH2 0x3684 JUMP JUMPDEST SWAP1 PUSH1 0x0 MSTORE PUSH1 0x20 PUSH1 0x0 KECCAK256 SWAP1 PUSH1 0x9 MUL ADD PUSH1 0x0 ADD SLOAD PUSH2 0x1A23 SWAP2 SWAP1 PUSH2 0x354C JUMP JUMPDEST PUSH1 0x6 DUP7 DUP2 SLOAD DUP2 LT PUSH2 0x1A36 JUMPI PUSH2 0x1A36 PUSH2 0x3684 JUMP JUMPDEST SWAP1 PUSH1 0x0 MSTORE PUSH1 0x20 PUSH1 0x0 KECCAK256 SWAP1 PUSH1 0x9 MUL ADD PUSH1 0x1 ADD SLOAD PUSH1 0x1 PUSH2 0x1A54 SWAP2 SWAP1 PUSH2 0x3534 JUMP JUMPDEST PUSH2 0x1A5E SWAP2 SWAP1 PUSH2 0x3534 JUMP JUMPDEST PUSH2 0x1A68 SWAP2 SWAP1 PUSH2 0x3534 JUMP JUMPDEST PUSH2 0x1A72 SWAP2 SWAP1 PUSH2 0x3534 JUMP JUMPDEST SWAP4 SWAP3 POP POP POP JUMP JUMPDEST DUP2 MLOAD DUP4 MLOAD EQ PUSH2 0x1ADB JUMPI PUSH1 0x40 MLOAD PUSH3 0x461BCD PUSH1 0xE5 SHL DUP2 MSTORE PUSH1 0x20 PUSH1 0x4 DUP3 ADD MSTORE PUSH1 0x28 PUSH1 0x24 DUP3 ADD MSTORE PUSH32 0x455243313135353A2069647320616E6420616D6F756E7473206C656E67746820 PUSH1 0x44 DUP3 ADD MSTORE PUSH8 0xDAD2E6DAC2E8C6D PUSH1 0xC3 SHL PUSH1 0x64 DUP3 ADD MSTORE PUSH1 0x84 ADD PUSH2 0x372 JUMP JUMPDEST PUSH1 0x1 PUSH1 0x1 PUSH1 0xA0 SHL SUB DUP5 AND PUSH2 0x1B01 JUMPI PUSH1 0x40 MLOAD PUSH3 0x461BCD PUSH1 0xE5 SHL DUP2 MSTORE PUSH1 0x4 ADD PUSH2 0x372 SWAP1 PUSH2 0x339B JUMP JUMPDEST CALLER PUSH1 0x0 JUMPDEST DUP5 MLOAD DUP2 LT ISZERO PUSH2 0x1C6C JUMPI PUSH1 0x0 DUP6 DUP3 DUP2 MLOAD DUP2 LT PUSH2 0x1B22 JUMPI PUSH2 0x1B22 PUSH2 0x3684 JUMP JUMPDEST PUSH1 0x20 MUL PUSH1 0x20 ADD ADD MLOAD SWAP1 POP PUSH1 0x0 DUP6 DUP4 DUP2 MLOAD DUP2 LT PUSH2 0x1B40 JUMPI PUSH2 0x1B40 PUSH2 0x3684 JUMP JUMPDEST PUSH1 0x20 SWAP1 DUP2 MUL SWAP2 SWAP1 SWAP2 ADD DUP2 ADD MLOAD PUSH1 0x0 DUP5 DUP2 MSTORE DUP1 DUP4 MSTORE PUSH1 0x40 DUP1 DUP3 KECCAK256 PUSH1 0x1 PUSH1 0x1 PUSH1 0xA0 SHL SUB DUP15 AND DUP4 MSTORE SWAP1 SWAP4 MSTORE SWAP2 SWAP1 SWAP2 KECCAK256 SLOAD SWAP1 SWAP2 POP DUP2 DUP2 LT ISZERO PUSH2 0x1B90 JUMPI PUSH1 0x40 MLOAD PUSH3 0x461BCD PUSH1 0xE5 SHL DUP2 MSTORE PUSH1 0x4 ADD PUSH2 0x372 SWAP1 PUSH2 0x33E0 JUMP JUMPDEST PUSH1 0x0 DUP4 DUP2 MSTORE PUSH1 0x20 DUP2 DUP2 MSTORE PUSH1 0x40 DUP1 DUP4 KECCAK256 PUSH1 0x1 PUSH1 0x1 PUSH1 0xA0 SHL SUB DUP15 DUP2 AND DUP6 MSTORE SWAP3 MSTORE DUP1 DUP4 KECCAK256 DUP6 DUP6 SUB SWAP1 SSTORE SWAP1 DUP12 AND DUP3 MSTORE DUP2 KECCAK256 DUP1 SLOAD DUP5 SWAP3 SWAP1 PUSH2 0x1BCD SWAP1 DUP5 SWAP1 PUSH2 0x3534 JUMP JUMPDEST SWAP1 SWAP2 SSTORE POP POP PUSH1 0x1 PUSH1 0x1 PUSH1 0xA0 SHL SUB DUP10 AND PUSH1 0x0 SWAP1 DUP2 MSTORE PUSH1 0x2 PUSH1 0x20 MSTORE PUSH1 0x40 SWAP1 KECCAK256 SLOAD PUSH1 0xFF AND PUSH2 0x1C58 JUMPI PUSH1 0x1 PUSH1 0x1 PUSH1 0xA0 SHL SUB DUP10 AND PUSH1 0x0 DUP2 DUP2 MSTORE PUSH1 0x2 PUSH1 0x20 MSTORE PUSH1 0x40 DUP2 KECCAK256 DUP1 SLOAD PUSH1 0xFF NOT AND PUSH1 0x1 SWAP1 DUP2 OR SWAP1 SWAP2 SSTORE PUSH1 0x3 DUP1 SLOAD SWAP2 DUP3 ADD DUP2 SSTORE SWAP1 SWAP2 MSTORE PUSH32 0xC2575A0E9E593C00F959F8C92F12DB2869C3395A3B0502D05E2516446F71F85B ADD DUP1 SLOAD PUSH1 0x1 PUSH1 0x1 PUSH1 0xA0 SHL SUB NOT AND SWAP1 SWAP2 OR SWAP1 SSTORE JUMPDEST POP POP POP DUP1 PUSH2 0x1C65 SWAP1 PUSH2 0x3629 JUMP JUMPDEST SWAP1 POP PUSH2 0x1B05 JUMP JUMPDEST POP DUP5 PUSH1 0x1 PUSH1 0x1 PUSH1 0xA0 SHL SUB AND DUP7 PUSH1 0x1 PUSH1 0x1 PUSH1 0xA0 SHL SUB AND DUP3 PUSH1 0x1 PUSH1 0x1 PUSH1 0xA0 SHL SUB AND PUSH32 0x4A39DC06D4C0DBC64B70AF90FD698A233A518AA5D07E595D983B8C0526C8F7FB DUP8 DUP8 PUSH1 0x40 MLOAD PUSH2 0x1CBC SWAP3 SWAP2 SWAP1 PUSH2 0x32E3 JUMP JUMPDEST PUSH1 0x40 MLOAD DUP1 SWAP2 SUB SWAP1 LOG4 PUSH2 0x1CD2 DUP2 DUP8 DUP8 DUP8 DUP8 DUP8 PUSH2 0x22EB JUMP JUMPDEST POP POP POP POP POP POP JUMP JUMPDEST PUSH1 0x1 PUSH1 0x1 PUSH1 0xA0 SHL SUB DUP5 AND PUSH2 0x1D3A JUMPI PUSH1 0x40 MLOAD PUSH3 0x461BCD PUSH1 0xE5 SHL DUP2 MSTORE PUSH1 0x20 PUSH1 0x4 DUP3 ADD MSTORE PUSH1 0x21 PUSH1 0x24 DUP3 ADD MSTORE PUSH32 0x455243313135353A206D696E7420746F20746865207A65726F20616464726573 PUSH1 0x44 DUP3 ADD MSTORE PUSH1 0x73 PUSH1 0xF8 SHL PUSH1 0x64 DUP3 ADD MSTORE PUSH1 0x84 ADD PUSH2 0x372 JUMP JUMPDEST CALLER PUSH1 0x0 PUSH2 0x1D46 DUP6 PUSH2 0x2456 JUMP JUMPDEST SWAP1 POP PUSH1 0x0 PUSH2 0x1D53 DUP6 PUSH2 0x2456 JUMP JUMPDEST SWAP1 POP PUSH1 0x0 DUP7 DUP2 MSTORE PUSH1 0x20 DUP2 DUP2 MSTORE PUSH1 0x40 DUP1 DUP4 KECCAK256 PUSH1 0x1 PUSH1 0x1 PUSH1 0xA0 SHL SUB DUP12 AND DUP5 MSTORE SWAP1 SWAP2 MSTORE DUP2 KECCAK256 DUP1 SLOAD DUP8 SWAP3 SWAP1 PUSH2 0x1D85 SWAP1 DUP5 SWAP1 PUSH2 0x3534 JUMP JUMPDEST SWAP1 SWAP2 SSTORE POP POP PUSH1 0x1 PUSH1 0x1 PUSH1 0xA0 SHL SUB DUP8 AND PUSH1 0x0 SWAP1 DUP2 MSTORE PUSH1 0x2 PUSH1 0x20 MSTORE PUSH1 0x40 SWAP1 KECCAK256 SLOAD PUSH1 0xFF AND PUSH2 0x1E10 JUMPI PUSH1 0x1 PUSH1 0x1 PUSH1 0xA0 SHL SUB DUP8 AND PUSH1 0x0 DUP2 DUP2 MSTORE PUSH1 0x2 PUSH1 0x20 MSTORE PUSH1 0x40 DUP2 KECCAK256 DUP1 SLOAD PUSH1 0xFF NOT AND PUSH1 0x1 SWAP1 DUP2 OR SWAP1 SWAP2 SSTORE PUSH1 0x3 DUP1 SLOAD SWAP2 DUP3 ADD DUP2 SSTORE SWAP1 SWAP2 MSTORE PUSH32 0xC2575A0E9E593C00F959F8C92F12DB2869C3395A3B0502D05E2516446F71F85B ADD DUP1 SLOAD PUSH1 0x1 PUSH1 0x1 PUSH1 0xA0 SHL SUB NOT AND SWAP1 SWAP2 OR SWAP1 SSTORE JUMPDEST PUSH1 0x40 DUP1 MLOAD DUP8 DUP2 MSTORE PUSH1 0x20 DUP2 ADD DUP8 SWAP1 MSTORE PUSH1 0x1 PUSH1 0x1 PUSH1 0xA0 SHL SUB DUP1 DUP11 AND SWAP3 PUSH1 0x0 SWAP3 SWAP2 DUP8 AND SWAP2 PUSH32 0xC3D58168C5AE7397731D063D5BBF3D657854427343F4C083240F7AACAA2D0F62 SWAP2 ADD PUSH1 0x40 MLOAD DUP1 SWAP2 SUB SWAP1 LOG4 PUSH2 0x1E6B DUP4 PUSH1 0x0 DUP10 DUP10 DUP10 DUP10 PUSH2 0x24A1 JUMP JUMPDEST POP POP POP POP POP POP POP JUMP JUMPDEST PUSH1 0x1 PUSH1 0x1 PUSH1 0xA0 SHL SUB DUP4 AND PUSH2 0x1ED6 JUMPI PUSH1 0x40 MLOAD PUSH3 0x461BCD PUSH1 0xE5 SHL DUP2 MSTORE PUSH1 0x20 PUSH1 0x4 DUP3 ADD MSTORE PUSH1 0x23 PUSH1 0x24 DUP3 ADD MSTORE PUSH32 0x455243313135353A206275726E2066726F6D20746865207A65726F2061646472 PUSH1 0x44 DUP3 ADD MSTORE PUSH3 0x657373 PUSH1 0xE8 SHL PUSH1 0x64 DUP3 ADD MSTORE PUSH1 0x84 ADD PUSH2 0x372 JUMP JUMPDEST CALLER PUSH1 0x0 PUSH2 0x1EE2 DUP5 PUSH2 0x2456 JUMP JUMPDEST SWAP1 POP PUSH1 0x0 PUSH2 0x1EEF DUP5 PUSH2 0x2456 JUMP JUMPDEST PUSH1 0x40 DUP1 MLOAD PUSH1 0x20 DUP1 DUP3 ADD DUP4 MSTORE PUSH1 0x0 SWAP2 DUP3 SWAP1 MSTORE DUP9 DUP3 MSTORE DUP2 DUP2 MSTORE DUP3 DUP3 KECCAK256 PUSH1 0x1 PUSH1 0x1 PUSH1 0xA0 SHL SUB DUP12 AND DUP4 MSTORE SWAP1 MSTORE KECCAK256 SLOAD SWAP1 SWAP2 POP DUP5 DUP2 LT ISZERO PUSH2 0x1F78 JUMPI PUSH1 0x40 MLOAD PUSH3 0x461BCD PUSH1 0xE5 SHL DUP2 MSTORE PUSH1 0x20 PUSH1 0x4 DUP3 ADD MSTORE PUSH1 0x24 DUP1 DUP3 ADD MSTORE PUSH32 0x455243313135353A206275726E20616D6F756E7420657863656564732062616C PUSH1 0x44 DUP3 ADD MSTORE PUSH4 0x616E6365 PUSH1 0xE0 SHL PUSH1 0x64 DUP3 ADD MSTORE PUSH1 0x84 ADD PUSH2 0x372 JUMP JUMPDEST PUSH1 0x0 DUP7 DUP2 MSTORE PUSH1 0x20 DUP2 DUP2 MSTORE PUSH1 0x40 DUP1 DUP4 KECCAK256 PUSH1 0x1 PUSH1 0x1 PUSH1 0xA0 SHL SUB DUP12 DUP2 AND DUP1 DUP7 MSTORE SWAP2 DUP5 MSTORE DUP3 DUP6 KECCAK256 DUP11 DUP8 SUB SWAP1 SSTORE DUP3 MLOAD DUP12 DUP2 MSTORE SWAP4 DUP5 ADD DUP11 SWAP1 MSTORE SWAP1 SWAP3 SWAP1 DUP9 AND SWAP2 PUSH32 0xC3D58168C5AE7397731D063D5BBF3D657854427343F4C083240F7AACAA2D0F62 SWAP2 ADD PUSH1 0x40 MLOAD DUP1 SWAP2 SUB SWAP1 LOG4 PUSH1 0x40 DUP1 MLOAD PUSH1 0x20 DUP2 ADD SWAP1 SWAP2 MSTORE PUSH1 0x0 SWAP1 MSTORE PUSH2 0x1E6B JUMP JUMPDEST DUP2 PUSH1 0x1 PUSH1 0x1 PUSH1 0xA0 SHL SUB AND DUP4 PUSH1 0x1 PUSH1 0x1 PUSH1 0xA0 SHL SUB AND EQ ISZERO PUSH2 0x2064 JUMPI PUSH1 0x40 MLOAD PUSH3 0x461BCD PUSH1 0xE5 SHL DUP2 MSTORE PUSH1 0x20 PUSH1 0x4 DUP3 ADD MSTORE PUSH1 0x29 PUSH1 0x24 DUP3 ADD MSTORE PUSH32 0x455243313135353A2073657474696E6720617070726F76616C20737461747573 PUSH1 0x44 DUP3 ADD MSTORE PUSH9 0x103337B91039B2B633 PUSH1 0xB9 SHL PUSH1 0x64 DUP3 ADD MSTORE PUSH1 0x84 ADD PUSH2 0x372 JUMP JUMPDEST PUSH1 0x1 PUSH1 0x1 PUSH1 0xA0 SHL SUB DUP4 DUP2 AND PUSH1 0x0 DUP2 DUP2 MSTORE PUSH1 0x1 PUSH1 0x20 SWAP1 DUP2 MSTORE PUSH1 0x40 DUP1 DUP4 KECCAK256 SWAP5 DUP8 AND DUP1 DUP5 MSTORE SWAP5 DUP3 MSTORE SWAP2 DUP3 SWAP1 KECCAK256 DUP1 SLOAD PUSH1 0xFF NOT AND DUP7 ISZERO ISZERO SWAP1 DUP2 OR SWAP1 SWAP2 SSTORE SWAP2 MLOAD SWAP2 DUP3 MSTORE PUSH32 0x17307EAB39AB6107E8899845AD3D59BD9653F200F220920489CA2B5937696C31 SWAP2 ADD PUSH1 0x40 MLOAD DUP1 SWAP2 SUB SWAP1 LOG3 POP POP POP JUMP JUMPDEST PUSH1 0x60 PUSH1 0x3 DUP1 SLOAD DUP1 PUSH1 0x20 MUL PUSH1 0x20 ADD PUSH1 0x40 MLOAD SWAP1 DUP2 ADD PUSH1 0x40 MSTORE DUP1 SWAP3 SWAP2 SWAP1 DUP2 DUP2 MSTORE PUSH1 0x20 ADD DUP3 DUP1 SLOAD DUP1 ISZERO PUSH2 0x2129 JUMPI PUSH1 0x20 MUL DUP3 ADD SWAP2 SWAP1 PUSH1 0x0 MSTORE PUSH1 0x20 PUSH1 0x0 KECCAK256 SWAP1 JUMPDEST DUP2 SLOAD PUSH1 0x1 PUSH1 0x1 PUSH1 0xA0 SHL SUB AND DUP2 MSTORE PUSH1 0x1 SWAP1 SWAP2 ADD SWAP1 PUSH1 0x20 ADD DUP1 DUP4 GT PUSH2 0x210B JUMPI JUMPDEST POP POP POP POP POP SWAP1 POP SWAP1 JUMP JUMPDEST PUSH1 0x1 PUSH1 0x1 PUSH1 0xA0 SHL SUB DUP5 AND PUSH2 0x2159 JUMPI PUSH1 0x40 MLOAD PUSH3 0x461BCD PUSH1 0xE5 SHL DUP2 MSTORE PUSH1 0x4 ADD PUSH2 0x372 SWAP1 PUSH2 0x339B JUMP JUMPDEST CALLER PUSH1 0x0 PUSH2 0x2165 DUP6 PUSH2 0x2456 JUMP JUMPDEST SWAP1 POP PUSH1 0x0 PUSH2 0x2172 DUP6 PUSH2 0x2456 JUMP JUMPDEST SWAP1 POP PUSH1 0x0 DUP7 DUP2 MSTORE PUSH1 0x20 DUP2 DUP2 MSTORE PUSH1 0x40 DUP1 DUP4 KECCAK256 PUSH1 0x1 PUSH1 0x1 PUSH1 0xA0 SHL SUB DUP13 AND DUP5 MSTORE SWAP1 SWAP2 MSTORE SWAP1 KECCAK256 SLOAD DUP6 DUP2 LT ISZERO PUSH2 0x21B5 JUMPI PUSH1 0x40 MLOAD PUSH3 0x461BCD PUSH1 0xE5 SHL DUP2 MSTORE PUSH1 0x4 ADD PUSH2 0x372 SWAP1 PUSH2 0x33E0 JUMP JUMPDEST PUSH1 0x0 DUP8 DUP2 MSTORE PUSH1 0x20 DUP2 DUP2 MSTORE PUSH1 0x40 DUP1 DUP4 KECCAK256 PUSH1 0x1 PUSH1 0x1 PUSH1 0xA0 SHL SUB DUP14 DUP2 AND DUP6 MSTORE SWAP3 MSTORE DUP1 DUP4 KECCAK256 DUP10 DUP6 SUB SWAP1 SSTORE SWAP1 DUP11 AND DUP3 MSTORE DUP2 KECCAK256 DUP1 SLOAD DUP9 SWAP3 SWAP1 PUSH2 0x21F2 SWAP1 DUP5 SWAP1 PUSH2 0x3534 JUMP JUMPDEST SWAP1 SWAP2 SSTORE POP POP PUSH1 0x1 PUSH1 0x1 PUSH1 0xA0 SHL SUB DUP9 AND PUSH1 0x0 SWAP1 DUP2 MSTORE PUSH1 0x2 PUSH1 0x20 MSTORE PUSH1 0x40 SWAP1 KECCAK256 SLOAD PUSH1 0xFF AND PUSH2 0x227D JUMPI PUSH1 0x1 PUSH1 0x1 PUSH1 0xA0 SHL SUB DUP9 AND PUSH1 0x0 DUP2 DUP2 MSTORE PUSH1 0x2 PUSH1 0x20 MSTORE PUSH1 0x40 DUP2 KECCAK256 DUP1 SLOAD PUSH1 0xFF NOT AND PUSH1 0x1 SWAP1 DUP2 OR SWAP1 SWAP2 SSTORE PUSH1 0x3 DUP1 SLOAD SWAP2 DUP3 ADD DUP2 SSTORE SWAP1 SWAP2 MSTORE PUSH32 0xC2575A0E9E593C00F959F8C92F12DB2869C3395A3B0502D05E2516446F71F85B ADD DUP1 SLOAD PUSH1 0x1 PUSH1 0x1 PUSH1 0xA0 SHL SUB NOT AND SWAP1 SWAP2 OR SWAP1 SSTORE JUMPDEST DUP8 PUSH1 0x1 PUSH1 0x1 PUSH1 0xA0 SHL SUB AND DUP10 PUSH1 0x1 PUSH1 0x1 PUSH1 0xA0 SHL SUB AND DUP6 PUSH1 0x1 PUSH1 0x1 PUSH1 0xA0 SHL SUB AND PUSH32 0xC3D58168C5AE7397731D063D5BBF3D657854427343F4C083240F7AACAA2D0F62 DUP11 DUP11 PUSH1 0x40 MLOAD PUSH2 0x22D5 SWAP3 SWAP2 SWAP1 SWAP2 DUP3 MSTORE PUSH1 0x20 DUP3 ADD MSTORE PUSH1 0x40 ADD SWAP1 JUMP JUMPDEST PUSH1 0x40 MLOAD DUP1 SWAP2 SUB SWAP1 LOG4 PUSH2 0x11C3 DUP5 DUP11 DUP11 DUP11 DUP11 DUP11 PUSH2 0x24A1 JUMP JUMPDEST PUSH1 0x1 PUSH1 0x1 PUSH1 0xA0 SHL SUB DUP5 AND EXTCODESIZE ISZERO PUSH2 0x1CD2 JUMPI PUSH1 0x40 MLOAD PUSH4 0xBC197C81 PUSH1 0xE0 SHL DUP2 MSTORE PUSH1 0x1 PUSH1 0x1 PUSH1 0xA0 SHL SUB DUP6 AND SWAP1 PUSH4 0xBC197C81 SWAP1 PUSH2 0x232F SWAP1 DUP10 SWAP1 DUP10 SWAP1 DUP9 SWAP1 DUP9 SWAP1 DUP9 SWAP1 PUSH1 0x4 ADD PUSH2 0x31EC JUMP JUMPDEST PUSH1 0x20 PUSH1 0x40 MLOAD DUP1 DUP4 SUB DUP2 PUSH1 0x0 DUP8 DUP1 EXTCODESIZE ISZERO DUP1 ISZERO PUSH2 0x2349 JUMPI PUSH1 0x0 DUP1 REVERT JUMPDEST POP GAS CALL SWAP3 POP POP POP DUP1 ISZERO PUSH2 0x2379 JUMPI POP PUSH1 0x40 DUP1 MLOAD PUSH1 0x1F RETURNDATASIZE SWAP1 DUP2 ADD PUSH1 0x1F NOT AND DUP3 ADD SWAP1 SWAP3 MSTORE PUSH2 0x2376 SWAP2 DUP2 ADD SWAP1 PUSH2 0x2A27 JUMP JUMPDEST PUSH1 0x1 JUMPDEST PUSH2 0x2426 JUMPI PUSH2 0x2385 PUSH2 0x36B0 JUMP JUMPDEST DUP1 PUSH4 0x8C379A0 EQ ISZERO PUSH2 0x23BF JUMPI POP PUSH2 0x239A PUSH2 0x36CC JUMP JUMPDEST DUP1 PUSH2 0x23A5 JUMPI POP PUSH2 0x23C1 JUMP JUMPDEST DUP1 PUSH1 0x40 MLOAD PUSH3 0x461BCD PUSH1 0xE5 SHL DUP2 MSTORE PUSH1 0x4 ADD PUSH2 0x372 SWAP2 SWAP1 PUSH2 0x3311 JUMP JUMPDEST POP JUMPDEST PUSH1 0x40 MLOAD PUSH3 0x461BCD PUSH1 0xE5 SHL DUP2 MSTORE PUSH1 0x20 PUSH1 0x4 DUP3 ADD MSTORE PUSH1 0x34 PUSH1 0x24 DUP3 ADD MSTORE PUSH32 0x455243313135353A207472616E7366657220746F206E6F6E2045524331313535 PUSH1 0x44 DUP3 ADD MSTORE PUSH20 0x2932B1B2B4BB32B91034B6B83632B6B2B73A32B9 PUSH1 0x61 SHL PUSH1 0x64 DUP3 ADD MSTORE PUSH1 0x84 ADD PUSH2 0x372 JUMP JUMPDEST PUSH1 0x1 PUSH1 0x1 PUSH1 0xE0 SHL SUB NOT DUP2 AND PUSH4 0xBC197C81 PUSH1 0xE0 SHL EQ PUSH2 0x1E6B JUMPI PUSH1 0x40 MLOAD PUSH3 0x461BCD PUSH1 0xE5 SHL DUP2 MSTORE PUSH1 0x4 ADD PUSH2 0x372 SWAP1 PUSH2 0x3324 JUMP JUMPDEST PUSH1 0x40 DUP1 MLOAD PUSH1 0x1 DUP1 DUP3 MSTORE DUP2 DUP4 ADD SWAP1 SWAP3 MSTORE PUSH1 0x60 SWAP2 PUSH1 0x0 SWAP2 SWAP1 PUSH1 0x20 DUP1 DUP4 ADD SWAP1 DUP1 CALLDATASIZE DUP4 CALLDATACOPY ADD SWAP1 POP POP SWAP1 POP DUP3 DUP2 PUSH1 0x0 DUP2 MLOAD DUP2 LT PUSH2 0x2490 JUMPI PUSH2 0x2490 PUSH2 0x3684 JUMP JUMPDEST PUSH1 0x20 SWAP1 DUP2 MUL SWAP2 SWAP1 SWAP2 ADD ADD MSTORE SWAP3 SWAP2 POP POP JUMP JUMPDEST PUSH1 0x1 PUSH1 0x1 PUSH1 0xA0 SHL SUB DUP5 AND EXTCODESIZE ISZERO PUSH2 0x1CD2 JUMPI PUSH1 0x40 MLOAD PUSH4 0xF23A6E61 PUSH1 0xE0 SHL DUP2 MSTORE PUSH1 0x1 PUSH1 0x1 PUSH1 0xA0 SHL SUB DUP6 AND SWAP1 PUSH4 0xF23A6E61 SWAP1 PUSH2 0x24E5 SWAP1 DUP10 SWAP1 DUP10 SWAP1 DUP9 SWAP1 DUP9 SWAP1 DUP9 SWAP1 PUSH1 0x4 ADD PUSH2 0x323E JUMP JUMPDEST PUSH1 0x20 PUSH1 0x40 MLOAD DUP1 DUP4 SUB DUP2 PUSH1 0x0 DUP8 DUP1 EXTCODESIZE ISZERO DUP1 ISZERO PUSH2 0x24FF JUMPI PUSH1 0x0 DUP1 REVERT JUMPDEST POP GAS CALL SWAP3 POP POP POP DUP1 ISZERO PUSH2 0x252F JUMPI POP PUSH1 0x40 DUP1 MLOAD PUSH1 0x1F RETURNDATASIZE SWAP1 DUP2 ADD PUSH1 0x1F NOT AND DUP3 ADD SWAP1 SWAP3 MSTORE PUSH2 0x252C SWAP2 DUP2 ADD SWAP1 PUSH2 0x2A27 JUMP JUMPDEST PUSH1 0x1 JUMPDEST PUSH2 0x253B JUMPI PUSH2 0x2385 PUSH2 0x36B0 JUMP JUMPDEST PUSH1 0x1 PUSH1 0x1 PUSH1 0xE0 SHL SUB NOT DUP2 AND PUSH4 0xF23A6E61 PUSH1 0xE0 SHL EQ PUSH2 0x1E6B JUMPI PUSH1 0x40 MLOAD PUSH3 0x461BCD PUSH1 0xE5 SHL DUP2 MSTORE PUSH1 0x4 ADD PUSH2 0x372 SWAP1 PUSH2 0x3324 JUMP JUMPDEST DUP3 DUP1 SLOAD PUSH2 0x2577 SWAP1 PUSH2 0x35C2 JUMP JUMPDEST SWAP1 PUSH1 0x0 MSTORE PUSH1 0x20 PUSH1 0x0 KECCAK256 SWAP1 PUSH1 0x1F ADD PUSH1 0x20 SWAP1 DIV DUP2 ADD SWAP3 DUP3 PUSH2 0x2599 JUMPI PUSH1 0x0 DUP6 SSTORE PUSH2 0x25DF JUMP JUMPDEST DUP3 PUSH1 0x1F LT PUSH2 0x25B2 JUMPI DUP1 MLOAD PUSH1 0xFF NOT AND DUP4 DUP1 ADD OR DUP6 SSTORE PUSH2 0x25DF JUMP JUMPDEST DUP3 DUP1 ADD PUSH1 0x1 ADD DUP6 SSTORE DUP3 ISZERO PUSH2 0x25DF JUMPI SWAP2 DUP3 ADD JUMPDEST DUP3 DUP2 GT ISZERO PUSH2 0x25DF JUMPI DUP3 MLOAD DUP3 SSTORE SWAP2 PUSH1 0x20 ADD SWAP2 SWAP1 PUSH1 0x1 ADD SWAP1 PUSH2 0x25C4 JUMP JUMPDEST POP PUSH2 0x25EB SWAP3 SWAP2 POP PUSH2 0x25EF JUMP JUMPDEST POP SWAP1 JUMP JUMPDEST JUMPDEST DUP1 DUP3 GT ISZERO PUSH2 0x25EB JUMPI PUSH1 0x0 DUP2 SSTORE PUSH1 0x1 ADD PUSH2 0x25F0 JUMP JUMPDEST DUP1 CALLDATALOAD PUSH1 0x1 PUSH1 0x1 PUSH1 0xA0 SHL SUB DUP2 AND DUP2 EQ PUSH2 0x261B JUMPI PUSH1 0x0 DUP1 REVERT JUMPDEST SWAP2 SWAP1 POP JUMP JUMPDEST PUSH1 0x0 DUP3 PUSH1 0x1F DUP4 ADD SLT PUSH2 0x2631 JUMPI PUSH1 0x0 DUP1 REVERT JUMPDEST DUP2 CALLDATALOAD PUSH1 0x20 PUSH2 0x263E DUP3 PUSH2 0x34EA JUMP JUMPDEST PUSH1 0x40 MLOAD PUSH2 0x264B DUP3 DUP3 PUSH2 0x35FD JUMP JUMPDEST DUP4 DUP2 MSTORE DUP3 DUP2 ADD SWAP2 POP DUP6 DUP4 ADD PUSH1 0x5 DUP6 SWAP1 SHL DUP8 ADD DUP5 ADD DUP9 LT ISZERO PUSH2 0x266B JUMPI PUSH1 0x0 DUP1 REVERT JUMPDEST PUSH1 0x0 JUMPDEST DUP6 DUP2 LT ISZERO PUSH2 0x268A JUMPI DUP2 CALLDATALOAD DUP5 MSTORE SWAP3 DUP5 ADD SWAP3 SWAP1 DUP5 ADD SWAP1 PUSH1 0x1 ADD PUSH2 0x266E JUMP JUMPDEST POP SWAP1 SWAP8 SWAP7 POP POP POP POP POP POP POP JUMP JUMPDEST PUSH1 0x0 DUP3 PUSH1 0x1F DUP4 ADD SLT PUSH2 0x26A8 JUMPI PUSH1 0x0 DUP1 REVERT JUMPDEST DUP2 CALLDATALOAD PUSH2 0x26B3 DUP2 PUSH2 0x350D JUMP JUMPDEST PUSH1 0x40 MLOAD PUSH2 0x26C0 DUP3 DUP3 PUSH2 0x35FD JUMP JUMPDEST DUP3 DUP2 MSTORE DUP6 PUSH1 0x20 DUP5 DUP8 ADD ADD GT ISZERO PUSH2 0x26D5 JUMPI PUSH1 0x0 DUP1 REVERT JUMPDEST DUP3 PUSH1 0x20 DUP7 ADD PUSH1 0x20 DUP4 ADD CALLDATACOPY PUSH1 0x0 SWAP3 DUP2 ADD PUSH1 0x20 ADD SWAP3 SWAP1 SWAP3 MSTORE POP SWAP4 SWAP3 POP POP POP JUMP JUMPDEST DUP1 CALLDATALOAD PUSH2 0xFFFF DUP2 AND DUP2 EQ PUSH2 0x261B JUMPI PUSH1 0x0 DUP1 REVERT JUMPDEST PUSH1 0x0 PUSH1 0x20 DUP3 DUP5 SUB SLT ISZERO PUSH2 0x2717 JUMPI PUSH1 0x0 DUP1 REVERT JUMPDEST PUSH2 0x1A72 DUP3 PUSH2 0x2604 JUMP JUMPDEST PUSH1 0x0 DUP1 PUSH1 0x40 DUP4 DUP6 SUB SLT ISZERO PUSH2 0x2733 JUMPI PUSH1 0x0 DUP1 REVERT JUMPDEST PUSH2 0x273C DUP4 PUSH2 0x2604 JUMP JUMPDEST SWAP2 POP PUSH2 0x274A PUSH1 0x20 DUP5 ADD PUSH2 0x2604 JUMP JUMPDEST SWAP1 POP SWAP3 POP SWAP3 SWAP1 POP JUMP JUMPDEST PUSH1 0x0 DUP1 PUSH1 0x0 DUP1 PUSH1 0x0 PUSH1 0xA0 DUP7 DUP9 SUB SLT ISZERO PUSH2 0x276B JUMPI PUSH1 0x0 DUP1 REVERT JUMPDEST PUSH2 0x2774 DUP7 PUSH2 0x2604 JUMP JUMPDEST SWAP5 POP PUSH2 0x2782 PUSH1 0x20 DUP8 ADD PUSH2 0x2604 JUMP JUMPDEST SWAP4 POP PUSH1 0x40 DUP7 ADD CALLDATALOAD PUSH1 0x1 PUSH1 0x1 PUSH1 0x40 SHL SUB DUP1 DUP3 GT ISZERO PUSH2 0x279E JUMPI PUSH1 0x0 DUP1 REVERT JUMPDEST PUSH2 0x27AA DUP10 DUP4 DUP11 ADD PUSH2 0x2620 JUMP JUMPDEST SWAP5 POP PUSH1 0x60 DUP9 ADD CALLDATALOAD SWAP2 POP DUP1 DUP3 GT ISZERO PUSH2 0x27C0 JUMPI PUSH1 0x0 DUP1 REVERT JUMPDEST PUSH2 0x27CC DUP10 DUP4 DUP11 ADD PUSH2 0x2620 JUMP JUMPDEST SWAP4 POP PUSH1 0x80 DUP9 ADD CALLDATALOAD SWAP2 POP DUP1 DUP3 GT ISZERO PUSH2 0x27E2 JUMPI PUSH1 0x0 DUP1 REVERT JUMPDEST POP PUSH2 0x27EF DUP9 DUP3 DUP10 ADD PUSH2 0x2697 JUMP JUMPDEST SWAP2 POP POP SWAP3 SWAP6 POP SWAP3 SWAP6 SWAP1 SWAP4 POP JUMP JUMPDEST PUSH1 0x0 DUP1 PUSH1 0x0 DUP1 PUSH1 0x0 PUSH1 0xA0 DUP7 DUP9 SUB SLT ISZERO PUSH2 0x2814 JUMPI PUSH1 0x0 DUP1 REVERT JUMPDEST PUSH2 0x281D DUP7 PUSH2 0x2604 JUMP JUMPDEST SWAP5 POP PUSH2 0x282B PUSH1 0x20 DUP8 ADD PUSH2 0x2604 JUMP JUMPDEST SWAP4 POP PUSH1 0x40 DUP7 ADD CALLDATALOAD SWAP3 POP PUSH1 0x60 DUP7 ADD CALLDATALOAD SWAP2 POP PUSH1 0x80 DUP7 ADD CALLDATALOAD PUSH1 0x1 PUSH1 0x1 PUSH1 0x40 SHL SUB DUP2 GT ISZERO PUSH2 0x2854 JUMPI PUSH1 0x0 DUP1 REVERT JUMPDEST PUSH2 0x27EF DUP9 DUP3 DUP10 ADD PUSH2 0x2697 JUMP JUMPDEST PUSH1 0x0 DUP1 PUSH1 0x40 DUP4 DUP6 SUB SLT ISZERO PUSH2 0x2873 JUMPI PUSH1 0x0 DUP1 REVERT JUMPDEST PUSH2 0x287C DUP4 PUSH2 0x2604 JUMP JUMPDEST SWAP2 POP PUSH1 0x20 DUP4 ADD CALLDATALOAD DUP1 ISZERO ISZERO DUP2 EQ PUSH2 0x2891 JUMPI PUSH1 0x0 DUP1 REVERT JUMPDEST DUP1 SWAP2 POP POP SWAP3 POP SWAP3 SWAP1 POP JUMP JUMPDEST PUSH1 0x0 DUP1 PUSH1 0x40 DUP4 DUP6 SUB SLT ISZERO PUSH2 0x28AF JUMPI PUSH1 0x0 DUP1 REVERT JUMPDEST PUSH2 0x28B8 DUP4 PUSH2 0x2604 JUMP JUMPDEST SWAP5 PUSH1 0x20 SWAP4 SWAP1 SWAP4 ADD CALLDATALOAD SWAP4 POP POP POP JUMP JUMPDEST PUSH1 0x0 DUP1 PUSH1 0x40 DUP4 DUP6 SUB SLT ISZERO PUSH2 0x28D9 JUMPI PUSH1 0x0 DUP1 REVERT JUMPDEST DUP3 CALLDATALOAD PUSH1 0x1 PUSH1 0x1 PUSH1 0x40 SHL SUB DUP1 DUP3 GT ISZERO PUSH2 0x28F0 JUMPI PUSH1 0x0 DUP1 REVERT JUMPDEST DUP2 DUP6 ADD SWAP2 POP DUP6 PUSH1 0x1F DUP4 ADD SLT PUSH2 0x2904 JUMPI PUSH1 0x0 DUP1 REVERT JUMPDEST DUP2 CALLDATALOAD PUSH1 0x20 PUSH2 0x2911 DUP3 PUSH2 0x34EA JUMP JUMPDEST PUSH1 0x40 MLOAD PUSH2 0x291E DUP3 DUP3 PUSH2 0x35FD JUMP JUMPDEST DUP4 DUP2 MSTORE DUP3 DUP2 ADD SWAP2 POP DUP6 DUP4 ADD PUSH1 0x5 DUP6 SWAP1 SHL DUP8 ADD DUP5 ADD DUP12 LT ISZERO PUSH2 0x293E JUMPI PUSH1 0x0 DUP1 REVERT JUMPDEST PUSH1 0x0 SWAP7 POP JUMPDEST DUP5 DUP8 LT ISZERO PUSH2 0x2968 JUMPI PUSH2 0x2954 DUP2 PUSH2 0x2604 JUMP JUMPDEST DUP4 MSTORE PUSH1 0x1 SWAP7 SWAP1 SWAP7 ADD SWAP6 SWAP2 DUP4 ADD SWAP2 DUP4 ADD PUSH2 0x2943 JUMP JUMPDEST POP SWAP7 POP POP DUP7 ADD CALLDATALOAD SWAP3 POP POP DUP1 DUP3 GT ISZERO PUSH2 0x297F JUMPI PUSH1 0x0 DUP1 REVERT JUMPDEST POP PUSH2 0x298C DUP6 DUP3 DUP7 ADD PUSH2 0x2620 JUMP JUMPDEST SWAP2 POP POP SWAP3 POP SWAP3 SWAP1 POP JUMP JUMPDEST PUSH1 0x0 DUP1 PUSH1 0x20 DUP4 DUP6 SUB SLT ISZERO PUSH2 0x29A9 JUMPI PUSH1 0x0 DUP1 REVERT JUMPDEST DUP3 CALLDATALOAD PUSH1 0x1 PUSH1 0x1 PUSH1 0x40 SHL SUB DUP1 DUP3 GT ISZERO PUSH2 0x29C0 JUMPI PUSH1 0x0 DUP1 REVERT JUMPDEST DUP2 DUP6 ADD SWAP2 POP DUP6 PUSH1 0x1F DUP4 ADD SLT PUSH2 0x29D4 JUMPI PUSH1 0x0 DUP1 REVERT JUMPDEST DUP2 CALLDATALOAD DUP2 DUP2 GT ISZERO PUSH2 0x29E3 JUMPI PUSH1 0x0 DUP1 REVERT JUMPDEST DUP7 PUSH1 0x20 DUP3 PUSH1 0x5 SHL DUP6 ADD ADD GT ISZERO PUSH2 0x29F8 JUMPI PUSH1 0x0 DUP1 REVERT JUMPDEST PUSH1 0x20 SWAP3 SWAP1 SWAP3 ADD SWAP7 SWAP2 SWAP6 POP SWAP1 SWAP4 POP POP POP POP JUMP JUMPDEST PUSH1 0x0 PUSH1 0x20 DUP3 DUP5 SUB SLT ISZERO PUSH2 0x2A1C JUMPI PUSH1 0x0 DUP1 REVERT JUMPDEST DUP2 CALLDATALOAD PUSH2 0x1A72 DUP2 PUSH2 0x3755 JUMP JUMPDEST PUSH1 0x0 PUSH1 0x20 DUP3 DUP5 SUB SLT ISZERO PUSH2 0x2A39 JUMPI PUSH1 0x0 DUP1 REVERT JUMPDEST DUP2 MLOAD PUSH2 0x1A72 DUP2 PUSH2 0x3755 JUMP JUMPDEST PUSH1 0x0 PUSH1 0x20 DUP3 DUP5 SUB SLT ISZERO PUSH2 0x2A56 JUMPI PUSH1 0x0 DUP1 REVERT JUMPDEST DUP2 CALLDATALOAD PUSH1 0x1 PUSH1 0x1 PUSH1 0x40 SHL SUB DUP2 GT ISZERO PUSH2 0x2A6C JUMPI PUSH1 0x0 DUP1 REVERT JUMPDEST PUSH2 0x18D9 DUP5 DUP3 DUP6 ADD PUSH2 0x2697 JUMP JUMPDEST PUSH1 0x0 PUSH1 0x20 DUP3 DUP5 SUB SLT ISZERO PUSH2 0x2A8A JUMPI PUSH1 0x0 DUP1 REVERT JUMPDEST DUP2 MLOAD PUSH1 0x1 PUSH1 0x1 PUSH1 0x40 SHL SUB DUP2 GT ISZERO PUSH2 0x2AA0 JUMPI PUSH1 0x0 DUP1 REVERT JUMPDEST DUP3 ADD PUSH1 0x1F DUP2 ADD DUP5 SGT PUSH2 0x2AB1 JUMPI PUSH1 0x0 DUP1 REVERT JUMPDEST DUP1 MLOAD PUSH2 0x2ABC DUP2 PUSH2 0x350D JUMP JUMPDEST PUSH1 0x40 MLOAD PUSH2 0x2AC9 DUP3 DUP3 PUSH2 0x35FD JUMP JUMPDEST DUP3 DUP2 MSTORE DUP7 PUSH1 0x20 DUP5 DUP7 ADD ADD GT ISZERO PUSH2 0x2ADE JUMPI PUSH1 0x0 DUP1 REVERT JUMPDEST PUSH2 0x2AEF DUP4 PUSH1 0x20 DUP4 ADD PUSH1 0x20 DUP8 ADD PUSH2 0x3596 JUMP JUMPDEST SWAP7 SWAP6 POP POP POP POP POP POP JUMP JUMPDEST PUSH1 0x0 DUP1 PUSH1 0x0 PUSH1 0x60 DUP5 DUP7 SUB SLT ISZERO PUSH2 0x2B0E JUMPI PUSH1 0x0 DUP1 REVERT JUMPDEST DUP4 CALLDATALOAD PUSH1 0x1 PUSH1 0x1 PUSH1 0x40 SHL SUB DUP2 GT ISZERO PUSH2 0x2B24 JUMPI PUSH1 0x0 DUP1 REVERT JUMPDEST PUSH2 0x2B30 DUP7 DUP3 DUP8 ADD PUSH2 0x2697 JUMP JUMPDEST SWAP7 PUSH1 0x20 DUP7 ADD CALLDATALOAD SWAP7 POP PUSH1 0x40 SWAP1 SWAP6 ADD CALLDATALOAD SWAP5 SWAP4 POP POP POP POP JUMP JUMPDEST PUSH1 0x0 PUSH1 0x20 DUP3 DUP5 SUB SLT ISZERO PUSH2 0x2B58 JUMPI PUSH1 0x0 DUP1 REVERT JUMPDEST POP CALLDATALOAD SWAP2 SWAP1 POP JUMP JUMPDEST PUSH1 0x0 DUP1 PUSH1 0x0 PUSH1 0x60 DUP5 DUP7 SUB SLT ISZERO PUSH2 0x2B74 JUMPI PUSH1 0x0 DUP1 REVERT JUMPDEST DUP4 CALLDATALOAD SWAP3 POP PUSH2 0x2B84 PUSH1 0x20 DUP6 ADD PUSH2 0x2604 JUMP JUMPDEST SWAP2 POP PUSH1 0x40 DUP5 ADD CALLDATALOAD SWAP1 POP SWAP3 POP SWAP3 POP SWAP3 JUMP JUMPDEST PUSH1 0x0 DUP1 PUSH1 0x0 DUP1 PUSH1 0x0 DUP1 PUSH1 0xC0 DUP8 DUP10 SUB SLT ISZERO PUSH2 0x2BAD JUMPI PUSH1 0x0 DUP1 REVERT JUMPDEST DUP7 CALLDATALOAD SWAP6 POP PUSH2 0x2BBD PUSH1 0x20 DUP9 ADD PUSH2 0x26F3 JUMP JUMPDEST SWAP5 POP PUSH2 0x2BCB PUSH1 0x40 DUP9 ADD PUSH2 0x26F3 JUMP JUMPDEST SWAP4 POP PUSH2 0x2BD9 PUSH1 0x60 DUP9 ADD PUSH2 0x26F3 JUMP JUMPDEST SWAP3 POP PUSH2 0x2BE7 PUSH1 0x80 DUP9 ADD PUSH2 0x26F3 JUMP JUMPDEST SWAP2 POP PUSH2 0x2BF5 PUSH1 0xA0 DUP9 ADD PUSH2 0x26F3 JUMP JUMPDEST SWAP1 POP SWAP3 SWAP6 POP SWAP3 SWAP6 POP SWAP3 SWAP6 JUMP JUMPDEST PUSH1 0x0 DUP1 PUSH1 0x40 DUP4 DUP6 SUB SLT ISZERO PUSH2 0x2C14 JUMPI PUSH1 0x0 DUP1 REVERT JUMPDEST POP POP DUP1 CALLDATALOAD SWAP3 PUSH1 0x20 SWAP1 SWAP2 ADD CALLDATALOAD SWAP2 POP JUMP JUMPDEST PUSH1 0x0 DUP2 MLOAD DUP1 DUP5 MSTORE PUSH1 0x20 DUP1 DUP6 ADD SWAP5 POP DUP1 DUP5 ADD PUSH1 0x0 JUMPDEST DUP4 DUP2 LT ISZERO PUSH2 0x2C53 JUMPI DUP2 MLOAD DUP8 MSTORE SWAP6 DUP3 ADD SWAP6 SWAP1 DUP3 ADD SWAP1 PUSH1 0x1 ADD PUSH2 0x2C37 JUMP JUMPDEST POP SWAP5 SWAP6 SWAP5 POP POP POP POP POP JUMP JUMPDEST PUSH1 0x0 DUP2 MLOAD DUP1 DUP5 MSTORE PUSH2 0x2C76 DUP2 PUSH1 0x20 DUP7 ADD PUSH1 0x20 DUP7 ADD PUSH2 0x3596 JUMP JUMPDEST PUSH1 0x1F ADD PUSH1 0x1F NOT AND SWAP3 SWAP1 SWAP3 ADD PUSH1 0x20 ADD SWAP3 SWAP2 POP POP JUMP JUMPDEST PUSH1 0x0 DUP2 MLOAD PUSH2 0x2C9C DUP2 DUP6 PUSH1 0x20 DUP7 ADD PUSH2 0x3596 JUMP JUMPDEST SWAP3 SWAP1 SWAP3 ADD SWAP3 SWAP2 POP POP JUMP JUMPDEST DUP1 SLOAD PUSH1 0x0 SWAP1 PUSH1 0x1 DUP2 DUP2 SHR SWAP1 DUP1 DUP4 AND DUP1 PUSH2 0x2CC0 JUMPI PUSH1 0x7F DUP4 AND SWAP3 POP JUMPDEST PUSH1 0x20 DUP1 DUP5 LT DUP3 EQ ISZERO PUSH2 0x2CE2 JUMPI PUSH4 0x4E487B71 PUSH1 0xE0 SHL PUSH1 0x0 MSTORE PUSH1 0x22 PUSH1 0x4 MSTORE PUSH1 0x24 PUSH1 0x0 REVERT JUMPDEST DUP2 DUP1 ISZERO PUSH2 0x2CF6 JUMPI PUSH1 0x1 DUP2 EQ PUSH2 0x2D07 JUMPI PUSH2 0x2D34 JUMP JUMPDEST PUSH1 0xFF NOT DUP7 AND DUP10 MSTORE DUP5 DUP10 ADD SWAP7 POP PUSH2 0x2D34 JUMP JUMPDEST PUSH1 0x0 DUP9 DUP2 MSTORE PUSH1 0x20 SWAP1 KECCAK256 PUSH1 0x0 JUMPDEST DUP7 DUP2 LT ISZERO PUSH2 0x2D2C JUMPI DUP2 SLOAD DUP12 DUP3 ADD MSTORE SWAP1 DUP6 ADD SWAP1 DUP4 ADD PUSH2 0x2D13 JUMP JUMPDEST POP POP DUP5 DUP10 ADD SWAP7 POP JUMPDEST POP POP POP POP POP POP SWAP3 SWAP2 POP POP JUMP JUMPDEST PUSH1 0x0 DUP3 MLOAD PUSH2 0x2D52 DUP2 DUP5 PUSH1 0x20 DUP8 ADD PUSH2 0x3596 JUMP JUMPDEST SWAP2 SWAP1 SWAP2 ADD SWAP3 SWAP2 POP POP JUMP JUMPDEST PUSH1 0x0 DUP8 MLOAD PUSH2 0x2D6E DUP2 DUP5 PUSH1 0x20 DUP13 ADD PUSH2 0x3596 JUMP JUMPDEST DUP1 DUP4 ADD SWAP1 POP PUSH32 0x7B2274726169745F74797065223A2022476F616C73222C2276616C7565223A20 DUP2 MSTORE PUSH1 0x11 PUSH1 0xF9 SHL PUSH1 0x20 DUP3 ADD MSTORE DUP8 MLOAD PUSH2 0x2DB3 DUP2 PUSH1 0x21 DUP5 ADD PUSH1 0x20 DUP13 ADD PUSH2 0x3596 JUMP JUMPDEST PUSH32 0x227D2C7B2274726169745F74797065223A20224C6576656C222C2276616C7565 PUSH1 0x21 SWAP3 SWAP1 SWAP2 ADD SWAP2 DUP3 ADD MSTORE PUSH4 0x111D1011 PUSH1 0xE1 SHL PUSH1 0x41 DUP3 ADD DUP2 SWAP1 MSTORE DUP8 MLOAD PUSH2 0x2E00 DUP2 PUSH1 0x45 DUP6 ADD PUSH1 0x20 DUP13 ADD PUSH2 0x3596 JUMP JUMPDEST PUSH32 0x227D2C7B2274726169745F74797065223A20225361766573222C2276616C7565 PUSH1 0x45 SWAP4 SWAP1 SWAP2 ADD SWAP3 DUP4 ADD MSTORE PUSH1 0x65 DUP3 ADD MSTORE DUP6 MLOAD PUSH2 0x2E43 DUP2 PUSH1 0x69 DUP5 ADD PUSH1 0x20 DUP11 ADD PUSH2 0x3596 JUMP JUMPDEST PUSH2 0x2EE1 PUSH2 0x2ED1 PUSH2 0x2ECB PUSH2 0x2E95 PUSH2 0x2E8F PUSH1 0x69 DUP7 DUP9 ADD ADD PUSH32 0x227D2C7B2274726169745F74797065223A2022417373697374222C2276616C75 DUP2 MSTORE PUSH5 0x32911D1011 PUSH1 0xD9 SHL PUSH1 0x20 DUP3 ADD MSTORE PUSH1 0x25 ADD SWAP1 JUMP JUMPDEST DUP11 PUSH2 0x2C8A JUMP JUMPDEST PUSH32 0x227D2C7B2274726169745F74797065223A202253636F7265222C2276616C7565 DUP2 MSTORE PUSH4 0x111D1011 PUSH1 0xE1 SHL PUSH1 0x20 DUP3 ADD MSTORE PUSH1 0x24 ADD SWAP1 JUMP JUMPDEST DUP8 PUSH2 0x2C8A JUMP JUMPDEST PUSH4 0x227D5D7D PUSH1 0xE0 SHL DUP2 MSTORE PUSH1 0x4 ADD SWAP1 JUMP JUMPDEST SWAP11 SWAP10 POP POP POP POP POP POP POP POP POP POP JUMP JUMPDEST PUSH1 0x0 DUP7 MLOAD PUSH1 0x20 PUSH2 0x2F02 DUP3 DUP6 DUP4 DUP13 ADD PUSH2 0x3596 JUMP JUMPDEST PUSH32 0x7B2274726169745F74797065223A20224E616D65222C2276616C7565223A2022 SWAP2 DUP5 ADD SWAP2 DUP3 MSTORE DUP8 MLOAD PUSH2 0x2F3A DUP2 DUP4 DUP6 ADD DUP5 DUP13 ADD PUSH2 0x3596 JUMP JUMPDEST PUSH32 0x227D2C7B2274726169745F74797065223A2022506F736974696F6E222C227661 SWAP3 ADD DUP2 DUP2 ADD SWAP3 SWAP1 SWAP3 MSTORE PUSH7 0x363AB2911D1011 PUSH1 0xC9 SHL PUSH1 0x40 DUP4 ADD DUP2 SWAP1 MSTORE DUP8 MLOAD PUSH2 0x2F88 DUP2 PUSH1 0x47 DUP7 ADD DUP12 DUP7 ADD PUSH2 0x3596 JUMP JUMPDEST PUSH32 0x227D2C7B2274726169745F74797065223A202247616D65706C6179222C227661 PUSH1 0x47 SWAP5 SWAP1 SWAP2 ADD SWAP4 DUP5 ADD MSTORE PUSH1 0x67 DUP4 ADD MSTORE DUP6 MLOAD PUSH2 0x2FCA DUP2 PUSH1 0x6E DUP6 ADD DUP5 DUP11 ADD PUSH2 0x3596 JUMP JUMPDEST PUSH32 0x227D2C7B2274726169745F74797065223A202247616D6573222C2276616C7565 PUSH1 0x6E SWAP4 SWAP1 SWAP2 ADD SWAP3 DUP4 ADD MSTORE POP PUSH4 0x111D1011 PUSH1 0xE1 SHL PUSH1 0x8E DUP3 ADD MSTORE PUSH2 0x3022 PUSH2 0x3013 PUSH1 0x92 DUP4 ADD DUP7 PUSH2 0x2C8A JUMP JUMPDEST PUSH3 0x89F4B PUSH1 0xEA SHL DUP2 MSTORE PUSH1 0x3 ADD SWAP1 JUMP JUMPDEST SWAP9 SWAP8 POP POP POP POP POP POP POP POP JUMP JUMPDEST PUSH1 0x0 PUSH2 0x1A72 DUP3 DUP5 PUSH2 0x2CA6 JUMP JUMPDEST PUSH10 0x2A32B0B69027232A109 PUSH1 0xB5 SHL DUP2 MSTORE PUSH1 0x0 PUSH2 0x1A72 PUSH1 0xA DUP4 ADD DUP5 PUSH2 0x2CA6 JUMP JUMPDEST PUSH12 0x2AB734B8BAB29027232A109 PUSH1 0xA5 SHL DUP2 MSTORE PUSH1 0x0 PUSH2 0x1A72 PUSH1 0xC DUP4 ADD DUP5 PUSH2 0x2CA6 JUMP JUMPDEST PUSH9 0x283630B1B29018909 PUSH1 0xBD SHL DUP2 MSTORE PUSH1 0x0 PUSH2 0x1A72 PUSH1 0x9 DUP4 ADD DUP5 PUSH2 0x2CA6 JUMP JUMPDEST PUSH10 0x3D913730B6B2911D1011 PUSH1 0xB1 SHL DUP2 MSTORE DUP4 MLOAD PUSH1 0x0 SWAP1 PUSH2 0x30BE DUP2 PUSH1 0xA DUP6 ADD PUSH1 0x20 DUP10 ADD PUSH2 0x3596 JUMP JUMPDEST PUSH19 0x111610113232B9B1B934B83A34B7B7111D1011 PUSH1 0x69 SHL PUSH1 0xA SWAP2 DUP5 ADD SWAP2 DUP3 ADD MSTORE DUP5 MLOAD PUSH2 0x30F1 DUP2 PUSH1 0x1D DUP5 ADD PUSH1 0x20 DUP10 ADD PUSH2 0x3596 JUMP JUMPDEST PUSH32 0x222C2022696D616765223A2022646174613A696D6167652F7376672B786D6C3B PUSH1 0x1D SWAP3 SWAP1 SWAP2 ADD SWAP2 DUP3 ADD MSTORE PUSH7 0x18985CD94D8D0B PUSH1 0xCA SHL PUSH1 0x3D DUP3 ADD MSTORE DUP4 MLOAD PUSH2 0x313F DUP2 PUSH1 0x44 DUP5 ADD PUSH1 0x20 DUP9 ADD PUSH2 0x3596 JUMP JUMPDEST PUSH18 0x222C202261747472696275746573223A205B PUSH1 0x70 SHL PUSH1 0x44 SWAP3 SWAP1 SWAP2 ADD SWAP2 DUP3 ADD MSTORE PUSH1 0x56 ADD SWAP6 SWAP5 POP POP POP POP POP JUMP JUMPDEST PUSH9 0x283630B1B29019909 PUSH1 0xBD SHL DUP2 MSTORE PUSH1 0x0 PUSH2 0x1A72 PUSH1 0x9 DUP4 ADD DUP5 PUSH2 0x2CA6 JUMP JUMPDEST PUSH32 0x646174613A6170706C69636174696F6E2F6A736F6E3B6261736536342C000000 DUP2 MSTORE PUSH1 0x0 DUP3 MLOAD PUSH2 0x31C1 DUP2 PUSH1 0x1D DUP6 ADD PUSH1 0x20 DUP8 ADD PUSH2 0x3596 JUMP JUMPDEST SWAP2 SWAP1 SWAP2 ADD PUSH1 0x1D ADD SWAP3 SWAP2 POP POP JUMP JUMPDEST PUSH9 0x283630B1B29019109 PUSH1 0xBD SHL DUP2 MSTORE PUSH1 0x0 PUSH2 0x1A72 PUSH1 0x9 DUP4 ADD DUP5 PUSH2 0x2CA6 JUMP JUMPDEST PUSH1 0x1 PUSH1 0x1 PUSH1 0xA0 SHL SUB DUP7 DUP2 AND DUP3 MSTORE DUP6 AND PUSH1 0x20 DUP3 ADD MSTORE PUSH1 0xA0 PUSH1 0x40 DUP3 ADD DUP2 SWAP1 MSTORE PUSH1 0x0 SWAP1 PUSH2 0x3218 SWAP1 DUP4 ADD DUP7 PUSH2 0x2C23 JUMP JUMPDEST DUP3 DUP2 SUB PUSH1 0x60 DUP5 ADD MSTORE PUSH2 0x322A DUP2 DUP7 PUSH2 0x2C23 JUMP JUMPDEST SWAP1 POP DUP3 DUP2 SUB PUSH1 0x80 DUP5 ADD MSTORE PUSH2 0x3022 DUP2 DUP6 PUSH2 0x2C5E JUMP JUMPDEST PUSH1 0x1 PUSH1 0x1 PUSH1 0xA0 SHL SUB DUP7 DUP2 AND DUP3 MSTORE DUP6 AND PUSH1 0x20 DUP3 ADD MSTORE PUSH1 0x40 DUP2 ADD DUP5 SWAP1 MSTORE PUSH1 0x60 DUP2 ADD DUP4 SWAP1 MSTORE PUSH1 0xA0 PUSH1 0x80 DUP3 ADD DUP2 SWAP1 MSTORE PUSH1 0x0 SWAP1 PUSH2 0x3278 SWAP1 DUP4 ADD DUP5 PUSH2 0x2C5E JUMP JUMPDEST SWAP8 SWAP7 POP POP POP POP POP POP POP JUMP JUMPDEST PUSH1 0x20 DUP1 DUP3 MSTORE DUP3 MLOAD DUP3 DUP3 ADD DUP2 SWAP1 MSTORE PUSH1 0x0 SWAP2 SWAP1 DUP5 DUP3 ADD SWAP1 PUSH1 0x40 DUP6 ADD SWAP1 DUP5 JUMPDEST DUP2 DUP2 LT ISZERO PUSH2 0x32C4 JUMPI DUP4 MLOAD PUSH1 0x1 PUSH1 0x1 PUSH1 0xA0 SHL SUB AND DUP4 MSTORE SWAP3 DUP5 ADD SWAP3 SWAP2 DUP5 ADD SWAP2 PUSH1 0x1 ADD PUSH2 0x329F JUMP JUMPDEST POP SWAP1 SWAP7 SWAP6 POP POP POP POP POP POP JUMP JUMPDEST PUSH1 0x20 DUP2 MSTORE PUSH1 0x0 PUSH2 0x1A72 PUSH1 0x20 DUP4 ADD DUP5 PUSH2 0x2C23 JUMP JUMPDEST PUSH1 0x40 DUP2 MSTORE PUSH1 0x0 PUSH2 0x32F6 PUSH1 0x40 DUP4 ADD DUP6 PUSH2 0x2C23 JUMP JUMPDEST DUP3 DUP2 SUB PUSH1 0x20 DUP5 ADD MSTORE PUSH2 0x3308 DUP2 DUP6 PUSH2 0x2C23 JUMP JUMPDEST SWAP6 SWAP5 POP POP POP POP POP JUMP JUMPDEST PUSH1 0x20 DUP2 MSTORE PUSH1 0x0 PUSH2 0x1A72 PUSH1 0x20 DUP4 ADD DUP5 PUSH2 0x2C5E JUMP JUMPDEST PUSH1 0x20 DUP1 DUP3 MSTORE PUSH1 0x28 SWAP1 DUP3 ADD MSTORE PUSH32 0x455243313135353A204552433131353552656365697665722072656A65637465 PUSH1 0x40 DUP3 ADD MSTORE PUSH8 0x6420746F6B656E73 PUSH1 0xC0 SHL PUSH1 0x60 DUP3 ADD MSTORE PUSH1 0x80 ADD SWAP1 JUMP JUMPDEST PUSH1 0x20 DUP1 DUP3 MSTORE PUSH1 0x15 SWAP1 DUP3 ADD MSTORE PUSH21 0x139BDD0813DDDB995C881BD98810DBDB9D1C9858DD PUSH1 0x5A SHL PUSH1 0x40 DUP3 ADD MSTORE PUSH1 0x60 ADD SWAP1 JUMP JUMPDEST PUSH1 0x20 DUP1 DUP3 MSTORE PUSH1 0x25 SWAP1 DUP3 ADD MSTORE PUSH32 0x455243313135353A207472616E7366657220746F20746865207A65726F206164 PUSH1 0x40 DUP3 ADD MSTORE PUSH5 0x6472657373 PUSH1 0xD8 SHL PUSH1 0x60 DUP3 ADD MSTORE PUSH1 0x80 ADD SWAP1 JUMP JUMPDEST PUSH1 0x20 DUP1 DUP3 MSTORE PUSH1 0x2A SWAP1 DUP3 ADD MSTORE PUSH32 0x455243313135353A20696E73756666696369656E742062616C616E636520666F PUSH1 0x40 DUP3 ADD MSTORE PUSH10 0x39103A3930B739B332B9 PUSH1 0xB1 SHL PUSH1 0x60 DUP3 ADD MSTORE PUSH1 0x80 ADD SWAP1 JUMP JUMPDEST PUSH1 0x80 DUP2 MSTORE DUP5 MLOAD PUSH1 0x80 DUP3 ADD MSTORE PUSH1 0x20 DUP6 ADD MLOAD PUSH1 0xA0 DUP3 ADD MSTORE PUSH1 0x40 DUP6 ADD MLOAD PUSH1 0xC0 DUP3 ADD MSTORE PUSH1 0x60 DUP6 ADD MLOAD PUSH1 0xE0 DUP3 ADD MSTORE PUSH1 0x0 PUSH1 0x80 DUP7 ADD MLOAD PUSH2 0x100 DUP2 DUP2 DUP6 ADD MSTORE PUSH1 0xA0 DUP9 ADD MLOAD SWAP2 POP PUSH2 0x120 DUP3 DUP2 DUP7 ADD MSTORE PUSH1 0xC0 DUP10 ADD MLOAD SWAP3 POP DUP1 PUSH2 0x140 DUP7 ADD MSTORE POP PUSH2 0x348E PUSH2 0x1A0 DUP6 ADD DUP4 PUSH2 0x2C5E JUMP JUMPDEST SWAP2 POP PUSH1 0xE0 DUP9 ADD MLOAD PUSH1 0x7F NOT DUP1 DUP7 DUP6 SUB ADD PUSH2 0x160 DUP8 ADD MSTORE PUSH2 0x34AD DUP5 DUP4 PUSH2 0x2C5E JUMP JUMPDEST SWAP4 POP DUP3 DUP11 ADD MLOAD SWAP3 POP DUP1 DUP7 DUP6 SUB ADD PUSH2 0x180 DUP8 ADD MSTORE POP POP PUSH2 0x34CC DUP3 DUP3 PUSH2 0x2C5E JUMP JUMPDEST PUSH1 0x20 DUP6 ADD SWAP8 SWAP1 SWAP8 MSTORE POP POP POP PUSH1 0x40 DUP2 ADD SWAP3 SWAP1 SWAP3 MSTORE PUSH1 0x60 SWAP1 SWAP2 ADD MSTORE SWAP2 SWAP1 POP JUMP JUMPDEST PUSH1 0x0 PUSH1 0x1 PUSH1 0x1 PUSH1 0x40 SHL SUB DUP3 GT ISZERO PUSH2 0x3503 JUMPI PUSH2 0x3503 PUSH2 0x369A JUMP JUMPDEST POP PUSH1 0x5 SHL PUSH1 0x20 ADD SWAP1 JUMP JUMPDEST PUSH1 0x0 PUSH1 0x1 PUSH1 0x1 PUSH1 0x40 SHL SUB DUP3 GT ISZERO PUSH2 0x3526 JUMPI PUSH2 0x3526 PUSH2 0x369A JUMP JUMPDEST POP PUSH1 0x1F ADD PUSH1 0x1F NOT AND PUSH1 0x20 ADD SWAP1 JUMP JUMPDEST PUSH1 0x0 DUP3 NOT DUP3 GT ISZERO PUSH2 0x3547 JUMPI PUSH2 0x3547 PUSH2 0x3658 JUMP JUMPDEST POP ADD SWAP1 JUMP JUMPDEST PUSH1 0x0 DUP3 PUSH2 0x355B JUMPI PUSH2 0x355B PUSH2 0x366E JUMP JUMPDEST POP DIV SWAP1 JUMP JUMPDEST PUSH1 0x0 DUP2 PUSH1 0x0 NOT DIV DUP4 GT DUP3 ISZERO ISZERO AND ISZERO PUSH2 0x357A JUMPI PUSH2 0x357A PUSH2 0x3658 JUMP JUMPDEST POP MUL SWAP1 JUMP JUMPDEST PUSH1 0x0 DUP3 DUP3 LT ISZERO PUSH2 0x3591 JUMPI PUSH2 0x3591 PUSH2 0x3658 JUMP JUMPDEST POP SUB SWAP1 JUMP JUMPDEST PUSH1 0x0 JUMPDEST DUP4 DUP2 LT ISZERO PUSH2 0x35B1 JUMPI DUP2 DUP2 ADD MLOAD DUP4 DUP3 ADD MSTORE PUSH1 0x20 ADD PUSH2 0x3599 JUMP JUMPDEST DUP4 DUP2 GT ISZERO PUSH2 0x13F8 JUMPI POP POP PUSH1 0x0 SWAP2 ADD MSTORE JUMP JUMPDEST PUSH1 0x1 DUP2 DUP2 SHR SWAP1 DUP3 AND DUP1 PUSH2 0x35D6 JUMPI PUSH1 0x7F DUP3 AND SWAP2 POP JUMPDEST PUSH1 0x20 DUP3 LT DUP2 EQ ISZERO PUSH2 0x35F7 JUMPI PUSH4 0x4E487B71 PUSH1 0xE0 SHL PUSH1 0x0 MSTORE PUSH1 0x22 PUSH1 0x4 MSTORE PUSH1 0x24 PUSH1 0x0 REVERT JUMPDEST POP SWAP2 SWAP1 POP JUMP JUMPDEST PUSH1 0x1F DUP3 ADD PUSH1 0x1F NOT AND DUP2 ADD PUSH1 0x1 PUSH1 0x1 PUSH1 0x40 SHL SUB DUP2 GT DUP3 DUP3 LT OR ISZERO PUSH2 0x3622 JUMPI PUSH2 0x3622 PUSH2 0x369A JUMP JUMPDEST PUSH1 0x40 MSTORE POP POP JUMP JUMPDEST PUSH1 0x0 PUSH1 0x0 NOT DUP3 EQ ISZERO PUSH2 0x363D JUMPI PUSH2 0x363D PUSH2 0x3658 JUMP JUMPDEST POP PUSH1 0x1 ADD SWAP1 JUMP JUMPDEST PUSH1 0x0 DUP3 PUSH2 0x3653 JUMPI PUSH2 0x3653 PUSH2 0x366E JUMP JUMPDEST POP MOD SWAP1 JUMP JUMPDEST PUSH4 0x4E487B71 PUSH1 0xE0 SHL PUSH1 0x0 MSTORE PUSH1 0x11 PUSH1 0x4 MSTORE PUSH1 0x24 PUSH1 0x0 REVERT JUMPDEST PUSH4 0x4E487B71 PUSH1 0xE0 SHL PUSH1 0x0 MSTORE PUSH1 0x12 PUSH1 0x4 MSTORE PUSH1 0x24 PUSH1 0x0 REVERT JUMPDEST PUSH4 0x4E487B71 PUSH1 0xE0 SHL PUSH1 0x0 MSTORE PUSH1 0x32 PUSH1 0x4 MSTORE PUSH1 0x24 PUSH1 0x0 REVERT JUMPDEST PUSH4 0x4E487B71 PUSH1 0xE0 SHL PUSH1 0x0 MSTORE PUSH1 0x41 PUSH1 0x4 MSTORE PUSH1 0x24 PUSH1 0x0 REVERT JUMPDEST PUSH1 0x0 PUSH1 0x3 RETURNDATASIZE GT ISZERO PUSH2 0x36C9 JUMPI PUSH1 0x4 PUSH1 0x0 DUP1 RETURNDATACOPY POP PUSH1 0x0 MLOAD PUSH1 0xE0 SHR JUMPDEST SWAP1 JUMP JUMPDEST PUSH1 0x0 PUSH1 0x44 RETURNDATASIZE LT ISZERO PUSH2 0x36DA JUMPI SWAP1 JUMP JUMPDEST PUSH1 0x40 MLOAD PUSH1 0x3 NOT RETURNDATASIZE DUP2 ADD PUSH1 0x4 DUP4 RETURNDATACOPY DUP2 MLOAD RETURNDATASIZE PUSH1 0x1 PUSH1 0x1 PUSH1 0x40 SHL SUB DUP2 PUSH1 0x24 DUP5 ADD GT DUP2 DUP5 GT OR ISZERO PUSH2 0x3709 JUMPI POP POP POP POP POP SWAP1 JUMP JUMPDEST DUP3 DUP6 ADD SWAP2 POP DUP2 MLOAD DUP2 DUP2 GT ISZERO PUSH2 0x3721 JUMPI POP POP POP POP POP POP SWAP1 JUMP JUMPDEST DUP5 RETURNDATASIZE DUP8 ADD ADD PUSH1 0x20 DUP3 DUP6 ADD ADD GT ISZERO PUSH2 0x373B JUMPI POP POP POP POP POP POP SWAP1 JUMP JUMPDEST PUSH2 0x374A PUSH1 0x20 DUP3 DUP7 ADD ADD DUP8 PUSH2 0x35FD JUMP JUMPDEST POP SWAP1 SWAP6 SWAP5 POP POP POP POP POP JUMP JUMPDEST PUSH1 0x1 PUSH1 0x1 PUSH1 0xE0 SHL SUB NOT DUP2 AND DUP2 EQ PUSH2 0x376B JUMPI PUSH1 0x0 DUP1 REVERT JUMPDEST POP JUMP INVALID COINBASE TIMESTAMP NUMBER DIFFICULTY GASLIMIT CHAINID SELFBALANCE BASEFEE 0x49 0x4A 0x4B 0x4C 0x4D 0x4E 0x4F POP MLOAD MSTORE MSTORE8 SLOAD SSTORE JUMP JUMPI PC MSIZE GAS PUSH2 0x6263 PUSH5 0x6566676869 PUSH11 0x6B6C6D6E6F707172737475 PUSH23 0x7778797A303132333435363738392B2FA2646970667358 0x22 SLT KECCAK256 KECCAK256 PUSH31 0x263821E2C9F636A74399F7CDB89A089662442107CE34463A2C71CE9CFD6364 PUSH20 0x6F6C63430008070033446973636C61696D65723A KECCAK256 SLOAD PUSH9 0x652073636F7065206F PUSH7 0x20746865207072 PUSH16 0x6A6563742069732077697468696E2074 PUSH9 0x6520426C6F636B6368 PUSH2 0x696E KECCAK256 NUMBER PUSH9 0x616C6C656E67652032 ADDRESS ORIGIN ORIGIN KECCAK256 PUSH13 0x656374757265206F6666657265 PUSH5 0x2062792074 PUSH9 0x6520556E6976657273 PUSH10 0x7479206F662042617365 PUSH13 0x2E205468652070726F6A656374 KECCAK256 PUSH24 0x696C6C2072656D61696E2077697468696E20746865207465 PUSH20 0x74206E65742E20546865204E4654732077696C6C KECCAK256 PUSH15 0x6576657220626520736F6C64206E6F PUSH19 0x20697320746865726520616E792066696E616E PUSH4 0x69616C20 PUSH10 0x6E746572657374206174 KECCAK256 PUSH9 0x616E64206279207468 PUSH6 0x206F776E6572 PUSH20 0x206F722074686520636F7572736520726573706F PUSH15 0x7369626C652E000000000000000000 "
		},
		"gasEstimates": {
			"creation": {
				"codeDepositCost": "2861600",
				"executionCost": "infinite",
				"totalCost": "infinite"
			},
			"external": {
				"addDistribution(uint256[])": "infinite",
				"addScore(uint256,uint256)": "26745",
				"balanceOf(address,uint256)": "2695",
				"balanceOfBatch(address[],uint256[])": "infinite",
				"burnPlayer(uint256,address,uint256)": "infinite",
				"changeMintingProcess(address,address)": "infinite",
				"changeOwner(address)": "26800",
				"getAddresses()": "infinite",
				"getScoreFromPlayer(uint256)": "infinite",
				"isApprovedForAll(address,address)": "infinite",
				"mintPlayer(uint256,address,uint256)": "infinite",
				"name()": "infinite",
				"safeBatchTransferFrom(address,address,uint256[],uint256[],bytes)": "infinite",
				"safeTransferFrom(address,address,uint256,uint256,bytes)": "infinite",
				"setApprovalForAll(address,bool)": "26731",
				"supportsInterface(bytes4)": "567",
				"updateDesciption(string)": "infinite",
				"updatePlayer(uint256,uint16,uint16,uint16,uint16,uint16)": "infinite",
				"upgradePlayer(string,uint256,uint256)": "infinite",
				"uri(uint256)": "infinite"
			},
			"internal": {
				"_addPlayer(string memory,string memory,uint16,uint16,uint16,uint16,uint16,string memory)": "infinite",
				"_getScoreFromPlayer(uint256)": "infinite"
			}
		},
		"methodIdentifiers": {
			"addDistribution(uint256[])": "d1ae4ea4",
			"addScore(uint256,uint256)": "ddcbf794",
			"balanceOf(address,uint256)": "00fdd58e",
			"balanceOfBatch(address[],uint256[])": "4e1273f4",
			"burnPlayer(uint256,address,uint256)": "995c9d77",
			"changeMintingProcess(address,address)": "c236fe44",
			"changeOwner(address)": "a6f9dae1",
			"getAddresses()": "a39fac12",
			"getScoreFromPlayer(uint256)": "203da719",
			"isApprovedForAll(address,address)": "e985e9c5",
			"mintPlayer(uint256,address,uint256)": "3feb9f7d",
			"name()": "06fdde03",
			"safeBatchTransferFrom(address,address,uint256[],uint256[],bytes)": "2eb2c2d6",
			"safeTransferFrom(address,address,uint256,uint256,bytes)": "f242432a",
			"setApprovalForAll(address,bool)": "a22cb465",
			"supportsInterface(bytes4)": "01ffc9a7",
			"updateDesciption(string)": "85ade74f",
			"updatePlayer(uint256,uint16,uint16,uint16,uint16,uint16)": "5c7a8d27",
			"upgradePlayer(string,uint256,uint256)": "ee75de03",
			"uri(uint256)": "0e89341c"
		}
	},
	"abi": [
		{
			"inputs": [
				{
					"internalType": "address",
					"name": "_getPlayerSVG",
					"type": "address"
				}
			],
			"stateMutability": "nonpayable",
			"type": "constructor"
		},
		{
			"anonymous": false,
			"inputs": [
				{
					"indexed": true,
					"internalType": "address",
					"name": "account",
					"type": "address"
				},
				{
					"indexed": true,
					"internalType": "address",
					"name": "operator",
					"type": "address"
				},
				{
					"indexed": false,
					"internalType": "bool",
					"name": "approved",
					"type": "bool"
				}
			],
			"name": "ApprovalForAll",
			"type": "event"
		},
		{
			"anonymous": false,
			"inputs": [
				{
					"indexed": false,
					"internalType": "uint256",
					"name": "idx",
					"type": "uint256"
				},
				{
					"indexed": true,
					"internalType": "address",
					"name": "nftOwner",
					"type": "address"
				},
				{
					"indexed": false,
					"internalType": "uint256",
					"name": "numberOfPlayer",
					"type": "uint256"
				}
			],
			"name": "Minting",
			"type": "event"
		},
		{
			"anonymous": false,
			"inputs": [
				{
					"indexed": true,
					"internalType": "address",
					"name": "operator",
					"type": "address"
				},
				{
					"indexed": true,
					"internalType": "address",
					"name": "from",
					"type": "address"
				},
				{
					"indexed": true,
					"internalType": "address",
					"name": "to",
					"type": "address"
				},
				{
					"indexed": false,
					"internalType": "uint256[]",
					"name": "ids",
					"type": "uint256[]"
				},
				{
					"indexed": false,
					"internalType": "uint256[]",
					"name": "values",
					"type": "uint256[]"
				}
			],
			"name": "TransferBatch",
			"type": "event"
		},
		{
			"anonymous": false,
			"inputs": [
				{
					"indexed": true,
					"internalType": "address",
					"name": "operator",
					"type": "address"
				},
				{
					"indexed": true,
					"internalType": "address",
					"name": "from",
					"type": "address"
				},
				{
					"indexed": true,
					"internalType": "address",
					"name": "to",
					"type": "address"
				},
				{
					"indexed": false,
					"internalType": "uint256",
					"name": "id",
					"type": "uint256"
				},
				{
					"indexed": false,
					"internalType": "uint256",
					"name": "value",
					"type": "uint256"
				}
			],
			"name": "TransferSingle",
			"type": "event"
		},
		{
			"anonymous": false,
			"inputs": [
				{
					"indexed": false,
					"internalType": "string",
					"name": "value",
					"type": "string"
				},
				{
					"indexed": true,
					"internalType": "uint256",
					"name": "id",
					"type": "uint256"
				}
			],
			"name": "URI",
			"type": "event"
		},
		{
			"inputs": [
				{
					"internalType": "uint256[]",
					"name": "_distributionForRaffel",
					"type": "uint256[]"
				}
			],
			"name": "addDistribution",
			"outputs": [],
			"stateMutability": "nonpayable",
			"type": "function"
		},
		{
			"inputs": [
				{
					"internalType": "uint256",
					"name": "tokenId",
					"type": "uint256"
				},
				{
					"internalType": "uint256",
					"name": "_score",
					"type": "uint256"
				}
			],
			"name": "addScore",
			"outputs": [],
			"stateMutability": "nonpayable",
			"type": "function"
		},
		{
			"inputs": [
				{
					"internalType": "address",
					"name": "account",
					"type": "address"
				},
				{
					"internalType": "uint256",
					"name": "id",
					"type": "uint256"
				}
			],
			"name": "balanceOf",
			"outputs": [
				{
					"internalType": "uint256",
					"name": "",
					"type": "uint256"
				}
			],
			"stateMutability": "view",
			"type": "function"
		},
		{
			"inputs": [
				{
					"internalType": "address[]",
					"name": "accounts",
					"type": "address[]"
				},
				{
					"internalType": "uint256[]",
					"name": "ids",
					"type": "uint256[]"
				}
			],
			"name": "balanceOfBatch",
			"outputs": [
				{
					"internalType": "uint256[]",
					"name": "",
					"type": "uint256[]"
				}
			],
			"stateMutability": "view",
			"type": "function"
		},
		{
			"inputs": [
				{
					"internalType": "uint256",
					"name": "_idx",
					"type": "uint256"
				},
				{
					"internalType": "address",
					"name": "nftOwner",
					"type": "address"
				},
				{
					"internalType": "uint256",
					"name": "numberOfPlayer",
					"type": "uint256"
				}
			],
			"name": "burnPlayer",
			"outputs": [],
			"stateMutability": "nonpayable",
			"type": "function"
		},
		{
			"inputs": [
				{
					"internalType": "address",
					"name": "_contractOfMintingProcess",
					"type": "address"
				},
				{
					"internalType": "address",
					"name": "__contractOfInterface",
					"type": "address"
				}
			],
			"name": "changeMintingProcess",
			"outputs": [],
			"stateMutability": "nonpayable",
			"type": "function"
		},
		{
			"inputs": [
				{
					"internalType": "address",
					"name": "_newOwner",
					"type": "address"
				}
			],
			"name": "changeOwner",
			"outputs": [],
			"stateMutability": "nonpayable",
			"type": "function"
		},
		{
			"inputs": [],
			"name": "getAddresses",
			"outputs": [
				{
					"internalType": "address[]",
					"name": "nft_addresses",
					"type": "address[]"
				}
			],
			"stateMutability": "view",
			"type": "function"
		},
		{
			"inputs": [
				{
					"internalType": "uint256",
					"name": "tokenId",
					"type": "uint256"
				}
			],
			"name": "getScoreFromPlayer",
			"outputs": [
				{
					"internalType": "uint256",
					"name": "_score",
					"type": "uint256"
				}
			],
			"stateMutability": "view",
			"type": "function"
		},
		{
			"inputs": [
				{
					"internalType": "address",
					"name": "account",
					"type": "address"
				},
				{
					"internalType": "address",
					"name": "operator",
					"type": "address"
				}
			],
			"name": "isApprovedForAll",
			"outputs": [
				{
					"internalType": "bool",
					"name": "",
					"type": "bool"
				}
			],
			"stateMutability": "view",
			"type": "function"
		},
		{
			"inputs": [
				{
					"internalType": "uint256",
					"name": "idx",
					"type": "uint256"
				},
				{
					"internalType": "address",
					"name": "nftOwner",
					"type": "address"
				},
				{
					"internalType": "uint256",
					"name": "numberOfPlayer",
					"type": "uint256"
				}
			],
			"name": "mintPlayer",
			"outputs": [],
			"stateMutability": "nonpayable",
			"type": "function"
		},
		{
			"inputs": [],
			"name": "name",
			"outputs": [
				{
					"internalType": "string",
					"name": "",
					"type": "string"
				}
			],
			"stateMutability": "view",
			"type": "function"
		},
		{
			"inputs": [
				{
					"internalType": "address",
					"name": "from",
					"type": "address"
				},
				{
					"internalType": "address",
					"name": "to",
					"type": "address"
				},
				{
					"internalType": "uint256[]",
					"name": "ids",
					"type": "uint256[]"
				},
				{
					"internalType": "uint256[]",
					"name": "amounts",
					"type": "uint256[]"
				},
				{
					"internalType": "bytes",
					"name": "data",
					"type": "bytes"
				}
			],
			"name": "safeBatchTransferFrom",
			"outputs": [],
			"stateMutability": "nonpayable",
			"type": "function"
		},
		{
			"inputs": [
				{
					"internalType": "address",
					"name": "from",
					"type": "address"
				},
				{
					"internalType": "address",
					"name": "to",
					"type": "address"
				},
				{
					"internalType": "uint256",
					"name": "id",
					"type": "uint256"
				},
				{
					"internalType": "uint256",
					"name": "amount",
					"type": "uint256"
				},
				{
					"internalType": "bytes",
					"name": "data",
					"type": "bytes"
				}
			],
			"name": "safeTransferFrom",
			"outputs": [],
			"stateMutability": "nonpayable",
			"type": "function"
		},
		{
			"inputs": [
				{
					"internalType": "address",
					"name": "operator",
					"type": "address"
				},
				{
					"internalType": "bool",
					"name": "approved",
					"type": "bool"
				}
			],
			"name": "setApprovalForAll",
			"outputs": [],
			"stateMutability": "nonpayable",
			"type": "function"
		},
		{
			"inputs": [
				{
					"internalType": "bytes4",
					"name": "interfaceId",
					"type": "bytes4"
				}
			],
			"name": "supportsInterface",
			"outputs": [
				{
					"internalType": "bool",
					"name": "",
					"type": "bool"
				}
			],
			"stateMutability": "view",
			"type": "function"
		},
		{
			"inputs": [
				{
					"internalType": "string",
					"name": "_img_description",
					"type": "string"
				}
			],
			"name": "updateDesciption",
			"outputs": [],
			"stateMutability": "nonpayable",
			"type": "function"
		},
		{
			"inputs": [
				{
					"internalType": "uint256",
					"name": "player",
					"type": "uint256"
				},
				{
					"internalType": "uint16",
					"name": "_gameplay",
					"type": "uint16"
				},
				{
					"internalType": "uint16",
					"name": "_numberOfGames",
					"type": "uint16"
				},
				{
					"internalType": "uint16",
					"name": "_goals",
					"type": "uint16"
				},
				{
					"internalType": "uint16",
					"name": "_assist",
					"type": "uint16"
				},
				{
					"internalType": "uint16",
					"name": "_saves",
					"type": "uint16"
				}
			],
			"name": "updatePlayer",
			"outputs": [],
			"stateMutability": "nonpayable",
			"type": "function"
		},
		{
			"inputs": [
				{
					"internalType": "string",
					"name": "_playerName",
					"type": "string"
				},
				{
					"internalType": "uint256",
					"name": "_level",
					"type": "uint256"
				},
				{
					"internalType": "uint256",
					"name": "_numberOfUpgrades",
					"type": "uint256"
				}
			],
			"name": "upgradePlayer",
			"outputs": [],
			"stateMutability": "nonpayable",
			"type": "function"
		},
		{
			"inputs": [
				{
					"internalType": "uint256",
					"name": "tokenId",
					"type": "uint256"
				}
			],
			"name": "uri",
			"outputs": [
				{
					"internalType": "string",
					"name": "output",
					"type": "string"
				}
			],
			"stateMutability": "view",
			"type": "function"
		}
	]
}