{
	"data": {
		"bytecode": {
			"linkReferences": {},
			"object": "60c0604052600c60808190526b46432d436861696e6c696e6b60a01b60a09081526200002f916007919062000554565b50604051806101400160405280610116815260200162003de061011691398051620000639160089160209091019062000554565b503480156200007157600080fd5b5060405162003ef638038062003ef68339810160408190526200009491620005fa565b60408051808201909152600c81526b46432d436861696e6c696e6b60a01b6020820152620000c2816200039f565b50600680546001600160a01b0383166001600160a01b031991821617909155600d80548216339081178255600e8054909316179091556040805180820182529182526c2432b4b73d102634b7323732b960991b60208084019190915281518083018352600a81526923b7b0b635b2b2b832b960b11b818301528251808401909352600c83526b0aedee4dae640aecacaeec2f60a31b918301919091526200017592916000908190819081908190620003b8565b6200020b6040518060400160405280600f81526020016e09cdec2d04096c2e8e8cae4c4c2c6d608b1b81525060405180604001604052806007815260200166446566656e636560c81b81525060008060008060006040518060400160405280601381526020017f427574746f636b732057696e7465726b6f726e00000000000000000000000000815250620003b860201b60201c565b6200028e6040518060400160405280600c81526020016b105b991e4814195b1b585c9960a21b81525060405180604001604052806007815260200166446566656e636560c81b81525060008060008060006040518060400160405280600d81526020016c2234b1b6b0b71023bab9ba32b960991b815250620003b860201b60201c565b620003156040518060400160405280600d81526020016c50616a74696d204b6173616d6960981b81525060405180604001604052806008815260200167135a59199a595b1960c21b81525060008060008060006040518060400160405280600f81526020016e15195955195948115b991a58dbdd1d608a1b815250620003b860201b60201c565b620003986040518060400160405280600b81526020016a2634b0b69026b4b63630b960a91b815250604051806040016040528060078152602001664f6666656e736560c81b81525060008060008060006040518060400160405280600e81526020016d29b1baba1029b0b1b5b934b232b960911b815250620003b860201b60201c565b50620006fc565b8051620003b490600490602084019062000554565b5050565b60005b60048161ffff1610156200054957600081905060056040518061012001604052808a61ffff1681526020018961ffff1681526020018861ffff1681526020018361ffff1681526020018661ffff1681526020018761ffff1681526020018b81526020018c8152602001858152509080600181540180825580915050600190039060005260206000209060090201600090919091909150600082015181600001556020820151816001015560408201518160020155606082015181600301556080820151816004015560a0820151816005015560c0820151816006019080519060200190620004ab92919062000554565b5060e08201518051620004c991600784019160209091019062000554565b506101008201518051620004e891600884019160209091019062000554565b505050600a8a604051620004fd91906200062c565b9081526040519081900360200190206005546200051d906001906200066a565b8154600181018355600092835260209092209091015550806200054081620006c1565b915050620003bb565b505050505050505050565b828054620005629062000684565b90600052602060002090601f016020900481019282620005865760008555620005d1565b82601f10620005a157805160ff1916838001178555620005d1565b82800160010185558215620005d1579182015b82811115620005d1578251825591602001919060010190620005b4565b50620005df929150620005e3565b5090565b5b80821115620005df5760008155600101620005e4565b6000602082840312156200060d57600080fd5b81516001600160a01b03811681146200062557600080fd5b9392505050565b6000825160005b818110156200064f576020818601810151858301520162000633565b818111156200065f576000828501525b509190910192915050565b6000828210156200067f576200067f620006e6565b500390565b600181811c908216806200069957607f821691505b60208210811415620006bb57634e487b7160e01b600052602260045260246000fd5b50919050565b600061ffff80831681811415620006dc57620006dc620006e6565b6001019392505050565b634e487b7160e01b600052601160045260246000fd5b6136d4806200070c6000396000f3fe608060405234801561001057600080fd5b50600436106101205760003560e01c8063995c9d77116100ad578063d1ae4ea411610071578063d1ae4ea414610270578063ddcbf79414610283578063e985e9c514610296578063ee75de03146102d2578063f242432a146102e557600080fd5b8063995c9d771461020f578063a22cb46514610222578063a39fac1214610235578063a6f9dae11461024a578063c236fe441461025d57600080fd5b80632eb2c2d6116100f45780632eb2c2d6146101a15780633feb9f7d146101b65780634e1273f4146101c95780635c7a8d27146101e957806385ade74f146101fc57600080fd5b8062fdd58e1461012557806301ffc9a71461014b5780630e89341c1461016e578063203da7191461018e575b600080fd5b6101386101333660046127df565b6102f8565b6040519081526020015b60405180910390f35b61015e61015936600461294d565b61038e565b6040519015158152602001610142565b61018161017c366004612a89565b6103e0565b6040516101429190613201565b61013861019c366004612a89565b610b45565b6101b46101af366004612696565b610d1e565b005b6101b46101c4366004612aa2565b610db5565b6101dc6101d7366004612809565b610e58565b60405161014291906131c0565b6101b46101f7366004612ad7565b610f81565b6101b461020a366004612987565b6112a9565b6101b461021d366004612aa2565b6112ea565b6101b46102303660046127a3565b611339565b61023d611344565b6040516101429190613173565b6101b4610258366004612648565b611393565b6101b461026b366004612663565b6113df565b6101b461027e3660046128d9565b611437565b6101b4610291366004612b44565b6114d9565b61015e6102a4366004612663565b6001600160a01b03918216600090815260016020908152604080832093909416825291909152205460ff1690565b6101b46102e0366004612a3c565b61152a565b6101b46102f336600461273f565b6116cb565b60006001600160a01b0383166103685760405162461bcd60e51b815260206004820152602a60248201527f455243313135353a2061646472657373207a65726f206973206e6f742061207660448201526930b634b21037bbb732b960b11b60648201526084015b60405180910390fd5b506000908152602081815260408083206001600160a01b03949094168352929052205490565b60006001600160e01b03198216636cdb3d1360e11b14806103bf57506001600160e01b031982166303a24d0760e21b145b806103da57506301ffc9a760e01b6001600160e01b03198316145b92915050565b606060008060606103e98510156104a9576005858154811061040457610404613574565b906000526020600020906009020160030154925084915060088054610428906134b2565b80601f0160208091040260200160405190810160405280929190818152602001828054610454906134b2565b80156104a15780601f10610476576101008083540402835291602001916104a1565b820191906000526020600020905b81548152906001019060200180831161048457829003601f168201915b505050505090505b846103e9141561053957604080516020808201889052428284015266506c616365203160c81b606083015260036067808401829052845180850390910181526087909301909352815191012090935061050490600590613534565b61050f906004613450565b915060086040516020016105239190612f6a565b604051602081830303815290604052905061063f565b846103ea14156105b357604080516020808201889052428284015266283630b1b2901960c91b606083015260026067808401829052845180850390910181526087909301909352815191012090935061059490600590613534565b61059f906004613450565b9150600860405160200161052391906130be565b846103eb141561063f57604080516020808201889052428284015266506c616365203360c81b606083015260016067808401829052845180850390910181526087909301909352815191012090935061060e90600590613534565b610619906004613450565b9150600860405160200161062d919061305b565b60405160208183030381529060405290505b6107d08511801561065257506298968185105b156106de57600092506005854260405160200161068a9291909182526020820152671519585b4813919560c21b604082015260480190565b6040516020818303038152906040528051906020012060001c6106ad9190613534565b6106b8906004613450565b915060086040516020016106cc9190612f49565b60405160208183030381529060405290505b6298968085111561077057600092506005854260405160200161071c9291909182526020820152671519585b4813919560c21b604082015260480190565b6040516020818303038152906040528051906020012060001c61073f9190613534565b61074a906004613450565b9150600860405160200161075e9190612f2a565b60405160208183030381529060405290505b6000858152600c6020526040812054600580549192918590811061079657610796613574565b9060005260206000209060090201604051806101200160405290816000820154815260200160018201548152602001600282015481526020016003820154815260200160048201548152602001600582015481526020016006820180546107fc906134b2565b80601f0160208091040260200160405190810160405280929190818152602001828054610828906134b2565b80156108755780601f1061084a57610100808354040283529160200191610875565b820191906000526020600020905b81548152906001019060200180831161085857829003601f168201915b5050505050815260200160078201805461088e906134b2565b80601f01602080910402602001604051908101604052809291908181526020018280546108ba906134b2565b80156109075780601f106108dc57610100808354040283529160200191610907565b820191906000526020600020905b8154815290600101906020018083116108ea57829003601f168201915b50505050508152602001600882018054610920906134b2565b80601f016020809104026020016040519081016040528092919081815260200182805461094c906134b2565b80156109995780601f1061096e57610100808354040283529160200191610999565b820191906000526020600020905b81548152906001019060200180831161097c57829003601f168201915b5050509190925250506006546040516321f8dd9d60e01b81529293506000926001600160a01b0390911691506321f8dd9d906109df9085908a908d90899060040161331a565b60006040518083038186803b1580156109f757600080fd5b505afa158015610a0b573d6000803e3d6000fd5b505050506040513d6000823e601f3d908101601f19168201604052610a3391908101906129bb565b9050600082610100015185610a4784611752565b604051602001610a5993929190612f88565b6040516020818303038152906040529050808361010001518460c00151610a8386600001516118b7565b610a9087602001516118b7565b604051602001610aa4959493929190612deb565b604051602081830303815290604052905080610ac384604001516118b7565b610ad085606001516118b7565b610add86608001516118b7565b610aea8760a001516118b7565b604051602001610afe959493929190612c9f565b6040516020818303038152906040529050610b1881611752565b604051602001610b289190613079565b604051602081830303815290604052975050505050505050919050565b600e546000906001600160a01b0316331480610b6b5750600f546001600160a01b031633145b610b875760405162461bcd60e51b815260040161035f9061325c565b60006001905060058381548110610ba057610ba0613574565b9060005260206000209060090201600601604051602001610bc19190612f1e565b60405160208183030381529060405280519060200120604051602001610bf49066446566656e636560c81b815260070190565b604051602081830303815290604052805190602001201415610c14575060025b60058381548110610c2757610c27613574565b90600052602060002090600902016004015460058481548110610c4c57610c4c613574565b90600052602060002090600902016005015460058581548110610c7157610c71613574565b906000526020600020906009020160020154610c8d9190613424565b610c979083613450565b600a60058681548110610cac57610cac613574565b906000526020600020906009020160000154610cc8919061343c565b60058681548110610cdb57610cdb613574565b9060005260206000209060090201600101546001610cf99190613424565b610d039190613424565b610d0d9190613424565b610d179190613424565b9392505050565b6001600160a01b038516331480610d3a5750610d3a85336102a4565b610da15760405162461bcd60e51b815260206004820152603260248201527f455243313135353a207472616e736665722063616c6c6572206973206e6f74206044820152711bdddb995c881b9bdc88185c1c1c9bdd995960721b606482015260840161035f565b610dae85858585856119bc565b5050505050565b600e546001600160a01b0316331480610dd85750600f546001600160a01b031633145b610df45760405162461bcd60e51b815260040161035f9061325c565b610e0f82848360405180602001604052806000815250611c1d565b60408051848152602081018390526001600160a01b038416917fc53d2da4a9ef9b259c31a6afa294d43b018aa5930a327c1defc6ad7ceb406c5e910160405180910390a2505050565b60608151835114610ebd5760405162461bcd60e51b815260206004820152602960248201527f455243313135353a206163636f756e747320616e6420696473206c656e677468604482015268040dad2e6dac2e8c6d60bb1b606482015260840161035f565b600083516001600160401b03811115610ed857610ed861358a565b604051908082528060200260200182016040528015610f01578160200160208202803683370190505b50905060005b8451811015610f7957610f4c858281518110610f2557610f25613574565b6020026020010151858381518110610f3f57610f3f613574565b60200260200101516102f8565b828281518110610f5e57610f5e613574565b6020908102919091010152610f7281613519565b9050610f07565b509392505050565b600e546001600160a01b0316331480610fa45750600f546001600160a01b031633145b610fc05760405162461bcd60e51b815260040161035f9061325c565b60608660041415610ff7575060408051808201909152600f81526e09cdec2d04096c2e8e8cae4c4c2c6d608b1b60208201526110b8565b8660031415611029575060408051808201909152600c81526b105b991e4814195b1b585c9960a21b60208201526110b8565b866002141561105c575060408051808201909152600d81526c50616a74696d204b6173616d6960981b60208201526110b8565b866001141561108d575060408051808201909152600b81526a2634b0b69026b4b63630b960a91b60208201526110b8565b866110b8575060408051808201909152600d81526c2432b4b73d102634b7323732b960991b60208201525b6000600a826040516110ca9190612c83565b908152604080519182900360209081018320805480830285018301909352828452919083018282801561111c57602002820191906000526020600020905b815481526020019060010190808311611108575b5050505050905060005b815181101561129e578761ffff16600583838151811061114857611148613574565b60200260200101518154811061116057611160613574565b9060005260206000209060090201600001819055508661ffff16600583838151811061118e5761118e613574565b6020026020010151815481106111a6576111a6613574565b9060005260206000209060090201600101819055508561ffff1660058383815181106111d4576111d4613574565b6020026020010151815481106111ec576111ec613574565b9060005260206000209060090201600201819055508361ffff16600583838151811061121a5761121a613574565b60200260200101518154811061123257611232613574565b9060005260206000209060090201600401819055508461ffff16600583838151811061126057611260613574565b60200260200101518154811061127857611278613574565b60009182526020909120600560099092020101558061129681613519565b915050611126565b505050505050505050565b600d546001600160a01b031633146112d35760405162461bcd60e51b815260040161035f9061325c565b80516112e69060089060208401906124ae565b5050565b600e546001600160a01b031633148061130d5750600f546001600160a01b031633145b6113295760405162461bcd60e51b815260040161035f9061325c565b611334828483611db7565b505050565b6112e6338383611f33565b600e546060906001600160a01b031633148061136a5750600f546001600160a01b031633145b6113865760405162461bcd60e51b815260040161035f9061325c565b61138e612014565b905090565b600d546001600160a01b031633146113bd5760405162461bcd60e51b815260040161035f9061325c565b600d80546001600160a01b0319166001600160a01b0392909216919091179055565b600d546001600160a01b031633146114095760405162461bcd60e51b815260040161035f9061325c565b600e80546001600160a01b039384166001600160a01b031991821617909155600f8054929093169116179055565b600e546001600160a01b031633148061145a5750600f546001600160a01b031633145b6114765760405162461bcd60e51b815260040161035f9061325c565b6107d160005b828110156114d35783838281811061149657611496613574565b90506020020135600b600084806114ac90613519565b955081526020019081526020016000208190555080806114cb90613519565b91505061147c565b50505050565b600e546001600160a01b03163314806114fc5750600f546001600160a01b031633145b6115185760405162461bcd60e51b815260040161035f9061325c565b6000918252600c602052604090912055565b600382106115865760405162461bcd60e51b8152602060048201526024808201527f57726f6e672076616c75652e2049742073686f756c6420626520303c3d6c6576604482015263656c3c3360e01b606482015260840161035f565b6000600a846040516115989190612c83565b90815260408051918290036020908101832080548083028501830190935282845291908301828280156115ea57602002820191906000526020600020905b8154815260200190600101908083116115d6575b5050505050905060008260036116009190613450565b90508061161933848781518110610f3f57610f3f613574565b10156116675760405162461bcd60e51b815260206004820152601d60248201527f496e7375666963656e7420506c617965727320746f2075706772616465000000604482015260640161035f565b61168b3383868151811061167d5761167d613574565b602002602001015183611db7565b610dae338386815181106116a1576116a1613574565b602002602001015160016116b59190613424565b8560405180602001604052806000815250611c1d565b6001600160a01b0385163314806116e757506116e785336102a4565b6117455760405162461bcd60e51b815260206004820152602960248201527f455243313135353a2063616c6c6572206973206e6f74206f776e6572206e6f7260448201526808185c1c1c9bdd995960ba1b606482015260840161035f565b610dae8585858585612076565b805160609080611772575050604080516020810190915260008152919050565b60006003611781836002613424565b61178b919061343c565b611796906004613450565b905060006117a5826020613424565b6001600160401b038111156117bc576117bc61358a565b6040519080825280601f01601f1916602001820160405280156117e6576020820181803683370190505b509050600060405180606001604052806040815260200161365f604091399050600181016020830160005b86811015611872576003818a01810151603f601282901c8116860151600c83901c8216870151600684901c831688015192909316870151600891821b60ff94851601821b92841692909201901b91160160e01b835260049092019101611811565b50600386066001811461188c576002811461189d576118a9565b613d3d60f01b6001198301526118a9565b603d60f81b6000198301525b505050918152949350505050565b6060816118db5750506040805180820190915260018152600360fc1b602082015290565b8160005b811561190557806118ef81613519565b91506118fe9050600a8361343c565b91506118df565b6000816001600160401b0381111561191f5761191f61358a565b6040519080825280601f01601f191660200182016040528015611949576020820181803683370190505b5090505b84156119b45761195e60018361346f565b915061196b600a86613534565b611976906030613424565b60f81b81838151811061198b5761198b613574565b60200101906001600160f81b031916908160001a9053506119ad600a8661343c565b945061194d565b949350505050565b8151835114611a1e5760405162461bcd60e51b815260206004820152602860248201527f455243313135353a2069647320616e6420616d6f756e7473206c656e677468206044820152670dad2e6dac2e8c6d60c31b606482015260840161035f565b6001600160a01b038416611a445760405162461bcd60e51b815260040161035f9061328b565b3360005b8451811015611baf576000858281518110611a6557611a65613574565b602002602001015190506000858381518110611a8357611a83613574565b602090810291909101810151600084815280835260408082206001600160a01b038e168352909352919091205490915081811015611ad35760405162461bcd60e51b815260040161035f906132d0565b6000838152602081815260408083206001600160a01b038e8116855292528083208585039055908b16825281208054849290611b10908490613424565b90915550506001600160a01b03891660009081526002602052604090205460ff16611b9b576001600160a01b0389166000818152600260205260408120805460ff191660019081179091556003805491820181559091527fc2575a0e9e593c00f959f8c92f12db2869c3395a3b0502d05e2516446f71f85b0180546001600160a01b03191690911790555b50505080611ba890613519565b9050611a48565b50846001600160a01b0316866001600160a01b0316826001600160a01b03167f4a39dc06d4c0dbc64b70af90fd698a233a518aa5d07e595d983b8c0526c8f7fb8787604051611bff9291906131d3565b60405180910390a4611c1581878787878761222e565b505050505050565b6001600160a01b038416611c7d5760405162461bcd60e51b815260206004820152602160248201527f455243313135353a206d696e7420746f20746865207a65726f206164647265736044820152607360f81b606482015260840161035f565b336000611c8985612399565b90506000611c9685612399565b90506000868152602081815260408083206001600160a01b038b16845290915281208054879290611cc8908490613424565b90915550506001600160a01b03871660009081526002602052604090205460ff16611d53576001600160a01b0387166000818152600260205260408120805460ff191660019081179091556003805491820181559091527fc2575a0e9e593c00f959f8c92f12db2869c3395a3b0502d05e2516446f71f85b0180546001600160a01b03191690911790555b60408051878152602081018790526001600160a01b03808a1692600092918716917fc3d58168c5ae7397731d063d5bbf3d657854427343f4c083240f7aacaa2d0f62910160405180910390a4611dae836000898989896123e4565b50505050505050565b6001600160a01b038316611e195760405162461bcd60e51b815260206004820152602360248201527f455243313135353a206275726e2066726f6d20746865207a65726f206164647260448201526265737360e81b606482015260840161035f565b336000611e2584612399565b90506000611e3284612399565b60408051602080820183526000918290528882528181528282206001600160a01b038b1683529052205490915084811015611ebb5760405162461bcd60e51b8152602060048201526024808201527f455243313135353a206275726e20616d6f756e7420657863656564732062616c604482015263616e636560e01b606482015260840161035f565b6000868152602081815260408083206001600160a01b038b81168086529184528285208a8703905582518b81529384018a90529092908816917fc3d58168c5ae7397731d063d5bbf3d657854427343f4c083240f7aacaa2d0f62910160405180910390a4604080516020810190915260009052611dae565b816001600160a01b0316836001600160a01b03161415611fa75760405162461bcd60e51b815260206004820152602960248201527f455243313135353a2073657474696e6720617070726f76616c20737461747573604482015268103337b91039b2b63360b91b606482015260840161035f565b6001600160a01b03838116600081815260016020908152604080832094871680845294825291829020805460ff191686151590811790915591519182527f17307eab39ab6107e8899845ad3d59bd9653f200f220920489ca2b5937696c31910160405180910390a3505050565b6060600380548060200260200160405190810160405280929190818152602001828054801561206c57602002820191906000526020600020905b81546001600160a01b0316815260019091019060200180831161204e575b5050505050905090565b6001600160a01b03841661209c5760405162461bcd60e51b815260040161035f9061328b565b3360006120a885612399565b905060006120b585612399565b90506000868152602081815260408083206001600160a01b038c168452909152902054858110156120f85760405162461bcd60e51b815260040161035f906132d0565b6000878152602081815260408083206001600160a01b038d8116855292528083208985039055908a16825281208054889290612135908490613424565b90915550506001600160a01b03881660009081526002602052604090205460ff166121c0576001600160a01b0388166000818152600260205260408120805460ff191660019081179091556003805491820181559091527fc2575a0e9e593c00f959f8c92f12db2869c3395a3b0502d05e2516446f71f85b0180546001600160a01b03191690911790555b876001600160a01b0316896001600160a01b0316856001600160a01b03167fc3d58168c5ae7397731d063d5bbf3d657854427343f4c083240f7aacaa2d0f628a8a604051612218929190918252602082015260400190565b60405180910390a461129e848a8a8a8a8a6123e4565b6001600160a01b0384163b15611c155760405163bc197c8160e01b81526001600160a01b0385169063bc197c819061227290899089908890889088906004016130dc565b602060405180830381600087803b15801561228c57600080fd5b505af19250505080156122bc575060408051601f3d908101601f191682019092526122b99181019061296a565b60015b612369576122c86135a0565b806308c379a0141561230257506122dd6135bc565b806122e85750612304565b8060405162461bcd60e51b815260040161035f9190613201565b505b60405162461bcd60e51b815260206004820152603460248201527f455243313135353a207472616e7366657220746f206e6f6e20455243313135356044820152732932b1b2b4bb32b91034b6b83632b6b2b73a32b960611b606482015260840161035f565b6001600160e01b0319811663bc197c8160e01b14611dae5760405162461bcd60e51b815260040161035f90613214565b604080516001808252818301909252606091600091906020808301908036833701905050905082816000815181106123d3576123d3613574565b602090810291909101015292915050565b6001600160a01b0384163b15611c155760405163f23a6e6160e01b81526001600160a01b0385169063f23a6e6190612428908990899088908890889060040161312e565b602060405180830381600087803b15801561244257600080fd5b505af1925050508015612472575060408051601f3d908101601f1916820190925261246f9181019061296a565b60015b61247e576122c86135a0565b6001600160e01b0319811663f23a6e6160e01b14611dae5760405162461bcd60e51b815260040161035f90613214565b8280546124ba906134b2565b90600052602060002090601f0160209004810192826124dc5760008555612522565b82601f106124f557805160ff1916838001178555612522565b82800160010185558215612522579182015b82811115612522578251825591602001919060010190612507565b5061252e929150612532565b5090565b5b8082111561252e5760008155600101612533565b80356001600160a01b038116811461255e57600080fd5b919050565b600082601f83011261257457600080fd5b81356020612581826133da565b60405161258e82826134ed565b8381528281019150858301600585901b870184018810156125ae57600080fd5b60005b858110156125cd578135845292840192908401906001016125b1565b5090979650505050505050565b600082601f8301126125eb57600080fd5b81356125f6816133fd565b60405161260382826134ed565b82815285602084870101111561261857600080fd5b82602086016020830137600092810160200192909252509392505050565b803561ffff8116811461255e57600080fd5b60006020828403121561265a57600080fd5b610d1782612547565b6000806040838503121561267657600080fd5b61267f83612547565b915061268d60208401612547565b90509250929050565b600080600080600060a086880312156126ae57600080fd5b6126b786612547565b94506126c560208701612547565b935060408601356001600160401b03808211156126e157600080fd5b6126ed89838a01612563565b9450606088013591508082111561270357600080fd5b61270f89838a01612563565b9350608088013591508082111561272557600080fd5b50612732888289016125da565b9150509295509295909350565b600080600080600060a0868803121561275757600080fd5b61276086612547565b945061276e60208701612547565b9350604086013592506060860135915060808601356001600160401b0381111561279757600080fd5b612732888289016125da565b600080604083850312156127b657600080fd5b6127bf83612547565b9150602083013580151581146127d457600080fd5b809150509250929050565b600080604083850312156127f257600080fd5b6127fb83612547565b946020939093013593505050565b6000806040838503121561281c57600080fd5b82356001600160401b038082111561283357600080fd5b818501915085601f83011261284757600080fd5b81356020612854826133da565b60405161286182826134ed565b8381528281019150858301600585901b870184018b101561288157600080fd5b600096505b848710156128ab5761289781612547565b835260019690960195918301918301612886565b50965050860135925050808211156128c257600080fd5b506128cf85828601612563565b9150509250929050565b600080602083850312156128ec57600080fd5b82356001600160401b038082111561290357600080fd5b818501915085601f83011261291757600080fd5b81358181111561292657600080fd5b8660208260051b850101111561293b57600080fd5b60209290920196919550909350505050565b60006020828403121561295f57600080fd5b8135610d1781613645565b60006020828403121561297c57600080fd5b8151610d1781613645565b60006020828403121561299957600080fd5b81356001600160401b038111156129af57600080fd5b6119b4848285016125da565b6000602082840312156129cd57600080fd5b81516001600160401b038111156129e357600080fd5b8201601f810184136129f457600080fd5b80516129ff816133fd565b604051612a0c82826134ed565b828152866020848601011115612a2157600080fd5b612a32836020830160208701613486565b9695505050505050565b600080600060608486031215612a5157600080fd5b83356001600160401b03811115612a6757600080fd5b612a73868287016125da565b9660208601359650604090950135949350505050565b600060208284031215612a9b57600080fd5b5035919050565b600080600060608486031215612ab757600080fd5b83359250612ac760208501612547565b9150604084013590509250925092565b60008060008060008060c08789031215612af057600080fd5b86359550612b0060208801612636565b9450612b0e60408801612636565b9350612b1c60608801612636565b9250612b2a60808801612636565b9150612b3860a08801612636565b90509295509295509295565b60008060408385031215612b5757600080fd5b50508035926020909101359150565b600081518084526020808501945080840160005b83811015612b9657815187529582019590820190600101612b7a565b509495945050505050565b60008151808452612bb9816020860160208601613486565b601f01601f19169290920160200192915050565b60008151612bdf818560208601613486565b9290920192915050565b8054600090600181811c9080831680612c0357607f831692505b6020808410821415612c2557634e487b7160e01b600052602260045260246000fd5b818015612c395760018114612c4a57612c77565b60ff19861689528489019650612c77565b60008881526020902060005b86811015612c6f5781548b820152908501908301612c56565b505084890196505b50505050505092915050565b60008251612c95818460208701613486565b9190910192915050565b60008651612cb1818460208b01613486565b80830190507f7b2274726169745f74797065223a2022476f616c73222c2276616c7565223a208152601160f91b60208201528651612cf6816021840160208b01613486565b7f227d2c7b2274726169745f74797065223a20224c6576656c222c2276616c75656021929091019182015263111d101160e11b604182018190528651612d43816045850160208b01613486565b7f227d2c7b2274726169745f74797065223a20225361766573222c2276616c75656045939091019283015260658201528451612d86816069840160208901613486565b7f227d2c7b2274726169745f74797065223a2022417373697374222c2276616c75606992909101918201526432911d101160d91b6089820152612ddf612dcf608e830186612bcd565b63227d5d7d60e01b815260040190565b98975050505050505050565b600086516020612dfe8285838c01613486565b7f7b2274726169745f74797065223a20224e616d65222c2276616c7565223a20229184019182528751612e3681838501848c01613486565b7f227d2c7b2274726169745f74797065223a2022506f736974696f6e222c22766192018181019290925266363ab2911d101160c91b604083018190528751612e8481604786018b8601613486565b7f227d2c7b2274726169745f74797065223a202247616d65706c6179222c2276616047949091019384015260678301528551612ec681606e8501848a01613486565b7f227d2c7b2274726169745f74797065223a202247616d6573222c2276616c7565606e93909101928301525063111d101160e11b608e820152612ddf612f0f6092830186612bcd565b62089f4b60ea1b815260030190565b6000610d178284612be9565b6902a32b0b69027232a10960b51b81526000610d17600a830184612be9565b6b02ab734b8bab29027232a10960a51b81526000610d17600c830184612be9565b680283630b1b2901890960bd1b81526000610d176009830184612be9565b693d913730b6b2911d101160b11b81528351600090612fae81600a850160208901613486565b72111610113232b9b1b934b83a34b7b7111d101160691b600a918401918201528451612fe181601d840160208901613486565b7f222c2022696d616765223a2022646174613a696d6167652f7376672b786d6c3b601d92909101918201526618985cd94d8d0b60ca1b603d820152835161302f816044840160208801613486565b71222c202261747472696275746573223a205b60701b6044929091019182015260560195945050505050565b680283630b1b2901990960bd1b81526000610d176009830184612be9565b7f646174613a6170706c69636174696f6e2f6a736f6e3b6261736536342c0000008152600082516130b181601d850160208701613486565b91909101601d0192915050565b680283630b1b2901910960bd1b81526000610d176009830184612be9565b6001600160a01b0386811682528516602082015260a06040820181905260009061310890830186612b66565b828103606084015261311a8186612b66565b90508281036080840152612ddf8185612ba1565b6001600160a01b03868116825285166020820152604081018490526060810183905260a06080820181905260009061316890830184612ba1565b979650505050505050565b6020808252825182820181905260009190848201906040850190845b818110156131b45783516001600160a01b03168352928401929184019160010161318f565b50909695505050505050565b602081526000610d176020830184612b66565b6040815260006131e66040830185612b66565b82810360208401526131f88185612b66565b95945050505050565b602081526000610d176020830184612ba1565b60208082526028908201527f455243313135353a204552433131353552656365697665722072656a656374656040820152676420746f6b656e7360c01b606082015260800190565b602080825260159082015274139bdd0813dddb995c881bd98810dbdb9d1c9858dd605a1b604082015260600190565b60208082526025908201527f455243313135353a207472616e7366657220746f20746865207a65726f206164604082015264647265737360d81b606082015260800190565b6020808252602a908201527f455243313135353a20696e73756666696369656e742062616c616e636520666f60408201526939103a3930b739b332b960b11b606082015260800190565b6080815284516080820152602085015160a0820152604085015160c0820152606085015160e082015260006080860151610100818185015260a08801519150610120828186015260c08901519250806101408601525061337e6101a0850183612ba1565b915060e0880151607f19808685030161016087015261339d8483612ba1565b9350828a01519250808685030161018087015250506133bc8282612ba1565b60208501979097525050506040810192909252606090910152919050565b60006001600160401b038211156133f3576133f361358a565b5060051b60200190565b60006001600160401b038211156134165761341661358a565b50601f01601f191660200190565b6000821982111561343757613437613548565b500190565b60008261344b5761344b61355e565b500490565b600081600019048311821515161561346a5761346a613548565b500290565b60008282101561348157613481613548565b500390565b60005b838110156134a1578181015183820152602001613489565b838111156114d35750506000910152565b600181811c908216806134c657607f821691505b602082108114156134e757634e487b7160e01b600052602260045260246000fd5b50919050565b601f8201601f191681016001600160401b03811182821017156135125761351261358a565b6040525050565b600060001982141561352d5761352d613548565b5060010190565b6000826135435761354361355e565b500690565b634e487b7160e01b600052601160045260246000fd5b634e487b7160e01b600052601260045260246000fd5b634e487b7160e01b600052603260045260246000fd5b634e487b7160e01b600052604160045260246000fd5b600060033d11156135b95760046000803e5060005160e01c5b90565b600060443d10156135ca5790565b6040516003193d81016004833e81513d6001600160401b0381602484011181841117156135f957505050505090565b82850191508151818111156136115750505050505090565b843d870101602082850101111561362b5750505050505090565b61363a602082860101876134ed565b509095945050505050565b6001600160e01b03198116811461365b57600080fd5b5056fe4142434445464748494a4b4c4d4e4f505152535455565758595a6162636465666768696a6b6c6d6e6f707172737475767778797a303132333435363738392b2fa2646970667358221220ed01f8aaf041fcf5bafcaf9908eaf13594cbc7d384ae487d4d42f646c73084df64736f6c63430008070033446973636c61696d65723a205468652073636f7065206f66207468652070726f6a6563742069732077697468696e2074686520426c6f636b636861696e204368616c6c656e67652032303232206c656374757265206f6666657265642062792074686520556e6976657273697479206f6620426173656c2e205468652070726f6a6563742077696c6c2072656d61696e2077697468696e207468652074657374206e65742e20546865204e4654732077696c6c206e6576657220626520736f6c64206e6f7220697320746865726520616e792066696e616e6369616c20696e7465726573742061742068616e6420627920746865206f776e657273206f722074686520636f7572736520726573706f6e7369626c652e",
			"opcodes": "PUSH1 0xC0 PUSH1 0x40 MSTORE PUSH1 0xC PUSH1 0x80 DUP2 SWAP1 MSTORE PUSH12 0x46432D436861696E6C696E6B PUSH1 0xA0 SHL PUSH1 0xA0 SWAP1 DUP2 MSTORE PUSH3 0x2F SWAP2 PUSH1 0x7 SWAP2 SWAP1 PUSH3 0x554 JUMP JUMPDEST POP PUSH1 0x40 MLOAD DUP1 PUSH2 0x140 ADD PUSH1 0x40 MSTORE DUP1 PUSH2 0x116 DUP2 MSTORE PUSH1 0x20 ADD PUSH3 0x3DE0 PUSH2 0x116 SWAP2 CODECOPY DUP1 MLOAD PUSH3 0x63 SWAP2 PUSH1 0x8 SWAP2 PUSH1 0x20 SWAP1 SWAP2 ADD SWAP1 PUSH3 0x554 JUMP JUMPDEST POP CALLVALUE DUP1 ISZERO PUSH3 0x71 JUMPI PUSH1 0x0 DUP1 REVERT JUMPDEST POP PUSH1 0x40 MLOAD PUSH3 0x3EF6 CODESIZE SUB DUP1 PUSH3 0x3EF6 DUP4 CODECOPY DUP2 ADD PUSH1 0x40 DUP2 SWAP1 MSTORE PUSH3 0x94 SWAP2 PUSH3 0x5FA JUMP JUMPDEST PUSH1 0x40 DUP1 MLOAD DUP1 DUP3 ADD SWAP1 SWAP2 MSTORE PUSH1 0xC DUP2 MSTORE PUSH12 0x46432D436861696E6C696E6B PUSH1 0xA0 SHL PUSH1 0x20 DUP3 ADD MSTORE PUSH3 0xC2 DUP2 PUSH3 0x39F JUMP JUMPDEST POP PUSH1 0x6 DUP1 SLOAD PUSH1 0x1 PUSH1 0x1 PUSH1 0xA0 SHL SUB DUP4 AND PUSH1 0x1 PUSH1 0x1 PUSH1 0xA0 SHL SUB NOT SWAP2 DUP3 AND OR SWAP1 SWAP2 SSTORE PUSH1 0xD DUP1 SLOAD DUP3 AND CALLER SWAP1 DUP2 OR DUP3 SSTORE PUSH1 0xE DUP1 SLOAD SWAP1 SWAP4 AND OR SWAP1 SWAP2 SSTORE PUSH1 0x40 DUP1 MLOAD DUP1 DUP3 ADD DUP3 MSTORE SWAP2 DUP3 MSTORE PUSH13 0x2432B4B73D102634B7323732B9 PUSH1 0x99 SHL PUSH1 0x20 DUP1 DUP5 ADD SWAP2 SWAP1 SWAP2 MSTORE DUP2 MLOAD DUP1 DUP4 ADD DUP4 MSTORE PUSH1 0xA DUP2 MSTORE PUSH10 0x23B7B0B635B2B2B832B9 PUSH1 0xB1 SHL DUP2 DUP4 ADD MSTORE DUP3 MLOAD DUP1 DUP5 ADD SWAP1 SWAP4 MSTORE PUSH1 0xC DUP4 MSTORE PUSH12 0xAEDEE4DAE640AECACAEEC2F PUSH1 0xA3 SHL SWAP2 DUP4 ADD SWAP2 SWAP1 SWAP2 MSTORE PUSH3 0x175 SWAP3 SWAP2 PUSH1 0x0 SWAP1 DUP2 SWAP1 DUP2 SWAP1 DUP2 SWAP1 DUP2 SWAP1 PUSH3 0x3B8 JUMP JUMPDEST PUSH3 0x20B PUSH1 0x40 MLOAD DUP1 PUSH1 0x40 ADD PUSH1 0x40 MSTORE DUP1 PUSH1 0xF DUP2 MSTORE PUSH1 0x20 ADD PUSH15 0x9CDEC2D04096C2E8E8CAE4C4C2C6D PUSH1 0x8B SHL DUP2 MSTORE POP PUSH1 0x40 MLOAD DUP1 PUSH1 0x40 ADD PUSH1 0x40 MSTORE DUP1 PUSH1 0x7 DUP2 MSTORE PUSH1 0x20 ADD PUSH7 0x446566656E6365 PUSH1 0xC8 SHL DUP2 MSTORE POP PUSH1 0x0 DUP1 PUSH1 0x0 DUP1 PUSH1 0x0 PUSH1 0x40 MLOAD DUP1 PUSH1 0x40 ADD PUSH1 0x40 MSTORE DUP1 PUSH1 0x13 DUP2 MSTORE PUSH1 0x20 ADD PUSH32 0x427574746F636B732057696E7465726B6F726E00000000000000000000000000 DUP2 MSTORE POP PUSH3 0x3B8 PUSH1 0x20 SHL PUSH1 0x20 SHR JUMP JUMPDEST PUSH3 0x28E PUSH1 0x40 MLOAD DUP1 PUSH1 0x40 ADD PUSH1 0x40 MSTORE DUP1 PUSH1 0xC DUP2 MSTORE PUSH1 0x20 ADD PUSH12 0x105B991E4814195B1B585C99 PUSH1 0xA2 SHL DUP2 MSTORE POP PUSH1 0x40 MLOAD DUP1 PUSH1 0x40 ADD PUSH1 0x40 MSTORE DUP1 PUSH1 0x7 DUP2 MSTORE PUSH1 0x20 ADD PUSH7 0x446566656E6365 PUSH1 0xC8 SHL DUP2 MSTORE POP PUSH1 0x0 DUP1 PUSH1 0x0 DUP1 PUSH1 0x0 PUSH1 0x40 MLOAD DUP1 PUSH1 0x40 ADD PUSH1 0x40 MSTORE DUP1 PUSH1 0xD DUP2 MSTORE PUSH1 0x20 ADD PUSH13 0x2234B1B6B0B71023BAB9BA32B9 PUSH1 0x99 SHL DUP2 MSTORE POP PUSH3 0x3B8 PUSH1 0x20 SHL PUSH1 0x20 SHR JUMP JUMPDEST PUSH3 0x315 PUSH1 0x40 MLOAD DUP1 PUSH1 0x40 ADD PUSH1 0x40 MSTORE DUP1 PUSH1 0xD DUP2 MSTORE PUSH1 0x20 ADD PUSH13 0x50616A74696D204B6173616D69 PUSH1 0x98 SHL DUP2 MSTORE POP PUSH1 0x40 MLOAD DUP1 PUSH1 0x40 ADD PUSH1 0x40 MSTORE DUP1 PUSH1 0x8 DUP2 MSTORE PUSH1 0x20 ADD PUSH8 0x135A59199A595B19 PUSH1 0xC2 SHL DUP2 MSTORE POP PUSH1 0x0 DUP1 PUSH1 0x0 DUP1 PUSH1 0x0 PUSH1 0x40 MLOAD DUP1 PUSH1 0x40 ADD PUSH1 0x40 MSTORE DUP1 PUSH1 0xF DUP2 MSTORE PUSH1 0x20 ADD PUSH15 0x15195955195948115B991A58DBDD1D PUSH1 0x8A SHL DUP2 MSTORE POP PUSH3 0x3B8 PUSH1 0x20 SHL PUSH1 0x20 SHR JUMP JUMPDEST PUSH3 0x398 PUSH1 0x40 MLOAD DUP1 PUSH1 0x40 ADD PUSH1 0x40 MSTORE DUP1 PUSH1 0xB DUP2 MSTORE PUSH1 0x20 ADD PUSH11 0x2634B0B69026B4B63630B9 PUSH1 0xA9 SHL DUP2 MSTORE POP PUSH1 0x40 MLOAD DUP1 PUSH1 0x40 ADD PUSH1 0x40 MSTORE DUP1 PUSH1 0x7 DUP2 MSTORE PUSH1 0x20 ADD PUSH7 0x4F6666656E7365 PUSH1 0xC8 SHL DUP2 MSTORE POP PUSH1 0x0 DUP1 PUSH1 0x0 DUP1 PUSH1 0x0 PUSH1 0x40 MLOAD DUP1 PUSH1 0x40 ADD PUSH1 0x40 MSTORE DUP1 PUSH1 0xE DUP2 MSTORE PUSH1 0x20 ADD PUSH14 0x29B1BABA1029B0B1B5B934B232B9 PUSH1 0x91 SHL DUP2 MSTORE POP PUSH3 0x3B8 PUSH1 0x20 SHL PUSH1 0x20 SHR JUMP JUMPDEST POP PUSH3 0x6FC JUMP JUMPDEST DUP1 MLOAD PUSH3 0x3B4 SWAP1 PUSH1 0x4 SWAP1 PUSH1 0x20 DUP5 ADD SWAP1 PUSH3 0x554 JUMP JUMPDEST POP POP JUMP JUMPDEST PUSH1 0x0 JUMPDEST PUSH1 0x4 DUP2 PUSH2 0xFFFF AND LT ISZERO PUSH3 0x549 JUMPI PUSH1 0x0 DUP2 SWAP1 POP PUSH1 0x5 PUSH1 0x40 MLOAD DUP1 PUSH2 0x120 ADD PUSH1 0x40 MSTORE DUP1 DUP11 PUSH2 0xFFFF AND DUP2 MSTORE PUSH1 0x20 ADD DUP10 PUSH2 0xFFFF AND DUP2 MSTORE PUSH1 0x20 ADD DUP9 PUSH2 0xFFFF AND DUP2 MSTORE PUSH1 0x20 ADD DUP4 PUSH2 0xFFFF AND DUP2 MSTORE PUSH1 0x20 ADD DUP7 PUSH2 0xFFFF AND DUP2 MSTORE PUSH1 0x20 ADD DUP8 PUSH2 0xFFFF AND DUP2 MSTORE PUSH1 0x20 ADD DUP12 DUP2 MSTORE PUSH1 0x20 ADD DUP13 DUP2 MSTORE PUSH1 0x20 ADD DUP6 DUP2 MSTORE POP SWAP1 DUP1 PUSH1 0x1 DUP2 SLOAD ADD DUP1 DUP3 SSTORE DUP1 SWAP2 POP POP PUSH1 0x1 SWAP1 SUB SWAP1 PUSH1 0x0 MSTORE PUSH1 0x20 PUSH1 0x0 KECCAK256 SWAP1 PUSH1 0x9 MUL ADD PUSH1 0x0 SWAP1 SWAP2 SWAP1 SWAP2 SWAP1 SWAP2 POP PUSH1 0x0 DUP3 ADD MLOAD DUP2 PUSH1 0x0 ADD SSTORE PUSH1 0x20 DUP3 ADD MLOAD DUP2 PUSH1 0x1 ADD SSTORE PUSH1 0x40 DUP3 ADD MLOAD DUP2 PUSH1 0x2 ADD SSTORE PUSH1 0x60 DUP3 ADD MLOAD DUP2 PUSH1 0x3 ADD SSTORE PUSH1 0x80 DUP3 ADD MLOAD DUP2 PUSH1 0x4 ADD SSTORE PUSH1 0xA0 DUP3 ADD MLOAD DUP2 PUSH1 0x5 ADD SSTORE PUSH1 0xC0 DUP3 ADD MLOAD DUP2 PUSH1 0x6 ADD SWAP1 DUP1 MLOAD SWAP1 PUSH1 0x20 ADD SWAP1 PUSH3 0x4AB SWAP3 SWAP2 SWAP1 PUSH3 0x554 JUMP JUMPDEST POP PUSH1 0xE0 DUP3 ADD MLOAD DUP1 MLOAD PUSH3 0x4C9 SWAP2 PUSH1 0x7 DUP5 ADD SWAP2 PUSH1 0x20 SWAP1 SWAP2 ADD SWAP1 PUSH3 0x554 JUMP JUMPDEST POP PUSH2 0x100 DUP3 ADD MLOAD DUP1 MLOAD PUSH3 0x4E8 SWAP2 PUSH1 0x8 DUP5 ADD SWAP2 PUSH1 0x20 SWAP1 SWAP2 ADD SWAP1 PUSH3 0x554 JUMP JUMPDEST POP POP POP PUSH1 0xA DUP11 PUSH1 0x40 MLOAD PUSH3 0x4FD SWAP2 SWAP1 PUSH3 0x62C JUMP JUMPDEST SWAP1 DUP2 MSTORE PUSH1 0x40 MLOAD SWAP1 DUP2 SWAP1 SUB PUSH1 0x20 ADD SWAP1 KECCAK256 PUSH1 0x5 SLOAD PUSH3 0x51D SWAP1 PUSH1 0x1 SWAP1 PUSH3 0x66A JUMP JUMPDEST DUP2 SLOAD PUSH1 0x1 DUP2 ADD DUP4 SSTORE PUSH1 0x0 SWAP3 DUP4 MSTORE PUSH1 0x20 SWAP1 SWAP3 KECCAK256 SWAP1 SWAP2 ADD SSTORE POP DUP1 PUSH3 0x540 DUP2 PUSH3 0x6C1 JUMP JUMPDEST SWAP2 POP POP PUSH3 0x3BB JUMP JUMPDEST POP POP POP POP POP POP POP POP POP JUMP JUMPDEST DUP3 DUP1 SLOAD PUSH3 0x562 SWAP1 PUSH3 0x684 JUMP JUMPDEST SWAP1 PUSH1 0x0 MSTORE PUSH1 0x20 PUSH1 0x0 KECCAK256 SWAP1 PUSH1 0x1F ADD PUSH1 0x20 SWAP1 DIV DUP2 ADD SWAP3 DUP3 PUSH3 0x586 JUMPI PUSH1 0x0 DUP6 SSTORE PUSH3 0x5D1 JUMP JUMPDEST DUP3 PUSH1 0x1F LT PUSH3 0x5A1 JUMPI DUP1 MLOAD PUSH1 0xFF NOT AND DUP4 DUP1 ADD OR DUP6 SSTORE PUSH3 0x5D1 JUMP JUMPDEST DUP3 DUP1 ADD PUSH1 0x1 ADD DUP6 SSTORE DUP3 ISZERO PUSH3 0x5D1 JUMPI SWAP2 DUP3 ADD JUMPDEST DUP3 DUP2 GT ISZERO PUSH3 0x5D1 JUMPI DUP3 MLOAD DUP3 SSTORE SWAP2 PUSH1 0x20 ADD SWAP2 SWAP1 PUSH1 0x1 ADD SWAP1 PUSH3 0x5B4 JUMP JUMPDEST POP PUSH3 0x5DF SWAP3 SWAP2 POP PUSH3 0x5E3 JUMP JUMPDEST POP SWAP1 JUMP JUMPDEST JUMPDEST DUP1 DUP3 GT ISZERO PUSH3 0x5DF JUMPI PUSH1 0x0 DUP2 SSTORE PUSH1 0x1 ADD PUSH3 0x5E4 JUMP JUMPDEST PUSH1 0x0 PUSH1 0x20 DUP3 DUP5 SUB SLT ISZERO PUSH3 0x60D JUMPI PUSH1 0x0 DUP1 REVERT JUMPDEST DUP2 MLOAD PUSH1 0x1 PUSH1 0x1 PUSH1 0xA0 SHL SUB DUP2 AND DUP2 EQ PUSH3 0x625 JUMPI PUSH1 0x0 DUP1 REVERT JUMPDEST SWAP4 SWAP3 POP POP POP JUMP JUMPDEST PUSH1 0x0 DUP3 MLOAD PUSH1 0x0 JUMPDEST DUP2 DUP2 LT ISZERO PUSH3 0x64F JUMPI PUSH1 0x20 DUP2 DUP7 ADD DUP2 ADD MLOAD DUP6 DUP4 ADD MSTORE ADD PUSH3 0x633 JUMP JUMPDEST DUP2 DUP2 GT ISZERO PUSH3 0x65F JUMPI PUSH1 0x0 DUP3 DUP6 ADD MSTORE JUMPDEST POP SWAP2 SWAP1 SWAP2 ADD SWAP3 SWAP2 POP POP JUMP JUMPDEST PUSH1 0x0 DUP3 DUP3 LT ISZERO PUSH3 0x67F JUMPI PUSH3 0x67F PUSH3 0x6E6 JUMP JUMPDEST POP SUB SWAP1 JUMP JUMPDEST PUSH1 0x1 DUP2 DUP2 SHR SWAP1 DUP3 AND DUP1 PUSH3 0x699 JUMPI PUSH1 0x7F DUP3 AND SWAP2 POP JUMPDEST PUSH1 0x20 DUP3 LT DUP2 EQ ISZERO PUSH3 0x6BB JUMPI PUSH4 0x4E487B71 PUSH1 0xE0 SHL PUSH1 0x0 MSTORE PUSH1 0x22 PUSH1 0x4 MSTORE PUSH1 0x24 PUSH1 0x0 REVERT JUMPDEST POP SWAP2 SWAP1 POP JUMP JUMPDEST PUSH1 0x0 PUSH2 0xFFFF DUP1 DUP4 AND DUP2 DUP2 EQ ISZERO PUSH3 0x6DC JUMPI PUSH3 0x6DC PUSH3 0x6E6 JUMP JUMPDEST PUSH1 0x1 ADD SWAP4 SWAP3 POP POP POP JUMP JUMPDEST PUSH4 0x4E487B71 PUSH1 0xE0 SHL PUSH1 0x0 MSTORE PUSH1 0x11 PUSH1 0x4 MSTORE PUSH1 0x24 PUSH1 0x0 REVERT JUMPDEST PUSH2 0x36D4 DUP1 PUSH3 0x70C PUSH1 0x0 CODECOPY PUSH1 0x0 RETURN INVALID PUSH1 0x80 PUSH1 0x40 MSTORE CALLVALUE DUP1 ISZERO PUSH2 0x10 JUMPI PUSH1 0x0 DUP1 REVERT JUMPDEST POP PUSH1 0x4 CALLDATASIZE LT PUSH2 0x120 JUMPI PUSH1 0x0 CALLDATALOAD PUSH1 0xE0 SHR DUP1 PUSH4 0x995C9D77 GT PUSH2 0xAD JUMPI DUP1 PUSH4 0xD1AE4EA4 GT PUSH2 0x71 JUMPI DUP1 PUSH4 0xD1AE4EA4 EQ PUSH2 0x270 JUMPI DUP1 PUSH4 0xDDCBF794 EQ PUSH2 0x283 JUMPI DUP1 PUSH4 0xE985E9C5 EQ PUSH2 0x296 JUMPI DUP1 PUSH4 0xEE75DE03 EQ PUSH2 0x2D2 JUMPI DUP1 PUSH4 0xF242432A EQ PUSH2 0x2E5 JUMPI PUSH1 0x0 DUP1 REVERT JUMPDEST DUP1 PUSH4 0x995C9D77 EQ PUSH2 0x20F JUMPI DUP1 PUSH4 0xA22CB465 EQ PUSH2 0x222 JUMPI DUP1 PUSH4 0xA39FAC12 EQ PUSH2 0x235 JUMPI DUP1 PUSH4 0xA6F9DAE1 EQ PUSH2 0x24A JUMPI DUP1 PUSH4 0xC236FE44 EQ PUSH2 0x25D JUMPI PUSH1 0x0 DUP1 REVERT JUMPDEST DUP1 PUSH4 0x2EB2C2D6 GT PUSH2 0xF4 JUMPI DUP1 PUSH4 0x2EB2C2D6 EQ PUSH2 0x1A1 JUMPI DUP1 PUSH4 0x3FEB9F7D EQ PUSH2 0x1B6 JUMPI DUP1 PUSH4 0x4E1273F4 EQ PUSH2 0x1C9 JUMPI DUP1 PUSH4 0x5C7A8D27 EQ PUSH2 0x1E9 JUMPI DUP1 PUSH4 0x85ADE74F EQ PUSH2 0x1FC JUMPI PUSH1 0x0 DUP1 REVERT JUMPDEST DUP1 PUSH3 0xFDD58E EQ PUSH2 0x125 JUMPI DUP1 PUSH4 0x1FFC9A7 EQ PUSH2 0x14B JUMPI DUP1 PUSH4 0xE89341C EQ PUSH2 0x16E JUMPI DUP1 PUSH4 0x203DA719 EQ PUSH2 0x18E JUMPI JUMPDEST PUSH1 0x0 DUP1 REVERT JUMPDEST PUSH2 0x138 PUSH2 0x133 CALLDATASIZE PUSH1 0x4 PUSH2 0x27DF JUMP JUMPDEST PUSH2 0x2F8 JUMP JUMPDEST PUSH1 0x40 MLOAD SWAP1 DUP2 MSTORE PUSH1 0x20 ADD JUMPDEST PUSH1 0x40 MLOAD DUP1 SWAP2 SUB SWAP1 RETURN JUMPDEST PUSH2 0x15E PUSH2 0x159 CALLDATASIZE PUSH1 0x4 PUSH2 0x294D JUMP JUMPDEST PUSH2 0x38E JUMP JUMPDEST PUSH1 0x40 MLOAD SWAP1 ISZERO ISZERO DUP2 MSTORE PUSH1 0x20 ADD PUSH2 0x142 JUMP JUMPDEST PUSH2 0x181 PUSH2 0x17C CALLDATASIZE PUSH1 0x4 PUSH2 0x2A89 JUMP JUMPDEST PUSH2 0x3E0 JUMP JUMPDEST PUSH1 0x40 MLOAD PUSH2 0x142 SWAP2 SWAP1 PUSH2 0x3201 JUMP JUMPDEST PUSH2 0x138 PUSH2 0x19C CALLDATASIZE PUSH1 0x4 PUSH2 0x2A89 JUMP JUMPDEST PUSH2 0xB45 JUMP JUMPDEST PUSH2 0x1B4 PUSH2 0x1AF CALLDATASIZE PUSH1 0x4 PUSH2 0x2696 JUMP JUMPDEST PUSH2 0xD1E JUMP JUMPDEST STOP JUMPDEST PUSH2 0x1B4 PUSH2 0x1C4 CALLDATASIZE PUSH1 0x4 PUSH2 0x2AA2 JUMP JUMPDEST PUSH2 0xDB5 JUMP JUMPDEST PUSH2 0x1DC PUSH2 0x1D7 CALLDATASIZE PUSH1 0x4 PUSH2 0x2809 JUMP JUMPDEST PUSH2 0xE58 JUMP JUMPDEST PUSH1 0x40 MLOAD PUSH2 0x142 SWAP2 SWAP1 PUSH2 0x31C0 JUMP JUMPDEST PUSH2 0x1B4 PUSH2 0x1F7 CALLDATASIZE PUSH1 0x4 PUSH2 0x2AD7 JUMP JUMPDEST PUSH2 0xF81 JUMP JUMPDEST PUSH2 0x1B4 PUSH2 0x20A CALLDATASIZE PUSH1 0x4 PUSH2 0x2987 JUMP JUMPDEST PUSH2 0x12A9 JUMP JUMPDEST PUSH2 0x1B4 PUSH2 0x21D CALLDATASIZE PUSH1 0x4 PUSH2 0x2AA2 JUMP JUMPDEST PUSH2 0x12EA JUMP JUMPDEST PUSH2 0x1B4 PUSH2 0x230 CALLDATASIZE PUSH1 0x4 PUSH2 0x27A3 JUMP JUMPDEST PUSH2 0x1339 JUMP JUMPDEST PUSH2 0x23D PUSH2 0x1344 JUMP JUMPDEST PUSH1 0x40 MLOAD PUSH2 0x142 SWAP2 SWAP1 PUSH2 0x3173 JUMP JUMPDEST PUSH2 0x1B4 PUSH2 0x258 CALLDATASIZE PUSH1 0x4 PUSH2 0x2648 JUMP JUMPDEST PUSH2 0x1393 JUMP JUMPDEST PUSH2 0x1B4 PUSH2 0x26B CALLDATASIZE PUSH1 0x4 PUSH2 0x2663 JUMP JUMPDEST PUSH2 0x13DF JUMP JUMPDEST PUSH2 0x1B4 PUSH2 0x27E CALLDATASIZE PUSH1 0x4 PUSH2 0x28D9 JUMP JUMPDEST PUSH2 0x1437 JUMP JUMPDEST PUSH2 0x1B4 PUSH2 0x291 CALLDATASIZE PUSH1 0x4 PUSH2 0x2B44 JUMP JUMPDEST PUSH2 0x14D9 JUMP JUMPDEST PUSH2 0x15E PUSH2 0x2A4 CALLDATASIZE PUSH1 0x4 PUSH2 0x2663 JUMP JUMPDEST PUSH1 0x1 PUSH1 0x1 PUSH1 0xA0 SHL SUB SWAP2 DUP3 AND PUSH1 0x0 SWAP1 DUP2 MSTORE PUSH1 0x1 PUSH1 0x20 SWAP1 DUP2 MSTORE PUSH1 0x40 DUP1 DUP4 KECCAK256 SWAP4 SWAP1 SWAP5 AND DUP3 MSTORE SWAP2 SWAP1 SWAP2 MSTORE KECCAK256 SLOAD PUSH1 0xFF AND SWAP1 JUMP JUMPDEST PUSH2 0x1B4 PUSH2 0x2E0 CALLDATASIZE PUSH1 0x4 PUSH2 0x2A3C JUMP JUMPDEST PUSH2 0x152A JUMP JUMPDEST PUSH2 0x1B4 PUSH2 0x2F3 CALLDATASIZE PUSH1 0x4 PUSH2 0x273F JUMP JUMPDEST PUSH2 0x16CB JUMP JUMPDEST PUSH1 0x0 PUSH1 0x1 PUSH1 0x1 PUSH1 0xA0 SHL SUB DUP4 AND PUSH2 0x368 JUMPI PUSH1 0x40 MLOAD PUSH3 0x461BCD PUSH1 0xE5 SHL DUP2 MSTORE PUSH1 0x20 PUSH1 0x4 DUP3 ADD MSTORE PUSH1 0x2A PUSH1 0x24 DUP3 ADD MSTORE PUSH32 0x455243313135353A2061646472657373207A65726F206973206E6F7420612076 PUSH1 0x44 DUP3 ADD MSTORE PUSH10 0x30B634B21037BBB732B9 PUSH1 0xB1 SHL PUSH1 0x64 DUP3 ADD MSTORE PUSH1 0x84 ADD JUMPDEST PUSH1 0x40 MLOAD DUP1 SWAP2 SUB SWAP1 REVERT JUMPDEST POP PUSH1 0x0 SWAP1 DUP2 MSTORE PUSH1 0x20 DUP2 DUP2 MSTORE PUSH1 0x40 DUP1 DUP4 KECCAK256 PUSH1 0x1 PUSH1 0x1 PUSH1 0xA0 SHL SUB SWAP5 SWAP1 SWAP5 AND DUP4 MSTORE SWAP3 SWAP1 MSTORE KECCAK256 SLOAD SWAP1 JUMP JUMPDEST PUSH1 0x0 PUSH1 0x1 PUSH1 0x1 PUSH1 0xE0 SHL SUB NOT DUP3 AND PUSH4 0x6CDB3D13 PUSH1 0xE1 SHL EQ DUP1 PUSH2 0x3BF JUMPI POP PUSH1 0x1 PUSH1 0x1 PUSH1 0xE0 SHL SUB NOT DUP3 AND PUSH4 0x3A24D07 PUSH1 0xE2 SHL EQ JUMPDEST DUP1 PUSH2 0x3DA JUMPI POP PUSH4 0x1FFC9A7 PUSH1 0xE0 SHL PUSH1 0x1 PUSH1 0x1 PUSH1 0xE0 SHL SUB NOT DUP4 AND EQ JUMPDEST SWAP3 SWAP2 POP POP JUMP JUMPDEST PUSH1 0x60 PUSH1 0x0 DUP1 PUSH1 0x60 PUSH2 0x3E9 DUP6 LT ISZERO PUSH2 0x4A9 JUMPI PUSH1 0x5 DUP6 DUP2 SLOAD DUP2 LT PUSH2 0x404 JUMPI PUSH2 0x404 PUSH2 0x3574 JUMP JUMPDEST SWAP1 PUSH1 0x0 MSTORE PUSH1 0x20 PUSH1 0x0 KECCAK256 SWAP1 PUSH1 0x9 MUL ADD PUSH1 0x3 ADD SLOAD SWAP3 POP DUP5 SWAP2 POP PUSH1 0x8 DUP1 SLOAD PUSH2 0x428 SWAP1 PUSH2 0x34B2 JUMP JUMPDEST DUP1 PUSH1 0x1F ADD PUSH1 0x20 DUP1 SWAP2 DIV MUL PUSH1 0x20 ADD PUSH1 0x40 MLOAD SWAP1 DUP2 ADD PUSH1 0x40 MSTORE DUP1 SWAP3 SWAP2 SWAP1 DUP2 DUP2 MSTORE PUSH1 0x20 ADD DUP3 DUP1 SLOAD PUSH2 0x454 SWAP1 PUSH2 0x34B2 JUMP JUMPDEST DUP1 ISZERO PUSH2 0x4A1 JUMPI DUP1 PUSH1 0x1F LT PUSH2 0x476 JUMPI PUSH2 0x100 DUP1 DUP4 SLOAD DIV MUL DUP4 MSTORE SWAP2 PUSH1 0x20 ADD SWAP2 PUSH2 0x4A1 JUMP JUMPDEST DUP3 ADD SWAP2 SWAP1 PUSH1 0x0 MSTORE PUSH1 0x20 PUSH1 0x0 KECCAK256 SWAP1 JUMPDEST DUP2 SLOAD DUP2 MSTORE SWAP1 PUSH1 0x1 ADD SWAP1 PUSH1 0x20 ADD DUP1 DUP4 GT PUSH2 0x484 JUMPI DUP3 SWAP1 SUB PUSH1 0x1F AND DUP3 ADD SWAP2 JUMPDEST POP POP POP POP POP SWAP1 POP JUMPDEST DUP5 PUSH2 0x3E9 EQ ISZERO PUSH2 0x539 JUMPI PUSH1 0x40 DUP1 MLOAD PUSH1 0x20 DUP1 DUP3 ADD DUP9 SWAP1 MSTORE TIMESTAMP DUP3 DUP5 ADD MSTORE PUSH7 0x506C6163652031 PUSH1 0xC8 SHL PUSH1 0x60 DUP4 ADD MSTORE PUSH1 0x3 PUSH1 0x67 DUP1 DUP5 ADD DUP3 SWAP1 MSTORE DUP5 MLOAD DUP1 DUP6 SUB SWAP1 SWAP2 ADD DUP2 MSTORE PUSH1 0x87 SWAP1 SWAP4 ADD SWAP1 SWAP4 MSTORE DUP2 MLOAD SWAP2 ADD KECCAK256 SWAP1 SWAP4 POP PUSH2 0x504 SWAP1 PUSH1 0x5 SWAP1 PUSH2 0x3534 JUMP JUMPDEST PUSH2 0x50F SWAP1 PUSH1 0x4 PUSH2 0x3450 JUMP JUMPDEST SWAP2 POP PUSH1 0x8 PUSH1 0x40 MLOAD PUSH1 0x20 ADD PUSH2 0x523 SWAP2 SWAP1 PUSH2 0x2F6A JUMP JUMPDEST PUSH1 0x40 MLOAD PUSH1 0x20 DUP2 DUP4 SUB SUB DUP2 MSTORE SWAP1 PUSH1 0x40 MSTORE SWAP1 POP PUSH2 0x63F JUMP JUMPDEST DUP5 PUSH2 0x3EA EQ ISZERO PUSH2 0x5B3 JUMPI PUSH1 0x40 DUP1 MLOAD PUSH1 0x20 DUP1 DUP3 ADD DUP9 SWAP1 MSTORE TIMESTAMP DUP3 DUP5 ADD MSTORE PUSH7 0x283630B1B29019 PUSH1 0xC9 SHL PUSH1 0x60 DUP4 ADD MSTORE PUSH1 0x2 PUSH1 0x67 DUP1 DUP5 ADD DUP3 SWAP1 MSTORE DUP5 MLOAD DUP1 DUP6 SUB SWAP1 SWAP2 ADD DUP2 MSTORE PUSH1 0x87 SWAP1 SWAP4 ADD SWAP1 SWAP4 MSTORE DUP2 MLOAD SWAP2 ADD KECCAK256 SWAP1 SWAP4 POP PUSH2 0x594 SWAP1 PUSH1 0x5 SWAP1 PUSH2 0x3534 JUMP JUMPDEST PUSH2 0x59F SWAP1 PUSH1 0x4 PUSH2 0x3450 JUMP JUMPDEST SWAP2 POP PUSH1 0x8 PUSH1 0x40 MLOAD PUSH1 0x20 ADD PUSH2 0x523 SWAP2 SWAP1 PUSH2 0x30BE JUMP JUMPDEST DUP5 PUSH2 0x3EB EQ ISZERO PUSH2 0x63F JUMPI PUSH1 0x40 DUP1 MLOAD PUSH1 0x20 DUP1 DUP3 ADD DUP9 SWAP1 MSTORE TIMESTAMP DUP3 DUP5 ADD MSTORE PUSH7 0x506C6163652033 PUSH1 0xC8 SHL PUSH1 0x60 DUP4 ADD MSTORE PUSH1 0x1 PUSH1 0x67 DUP1 DUP5 ADD DUP3 SWAP1 MSTORE DUP5 MLOAD DUP1 DUP6 SUB SWAP1 SWAP2 ADD DUP2 MSTORE PUSH1 0x87 SWAP1 SWAP4 ADD SWAP1 SWAP4 MSTORE DUP2 MLOAD SWAP2 ADD KECCAK256 SWAP1 SWAP4 POP PUSH2 0x60E SWAP1 PUSH1 0x5 SWAP1 PUSH2 0x3534 JUMP JUMPDEST PUSH2 0x619 SWAP1 PUSH1 0x4 PUSH2 0x3450 JUMP JUMPDEST SWAP2 POP PUSH1 0x8 PUSH1 0x40 MLOAD PUSH1 0x20 ADD PUSH2 0x62D SWAP2 SWAP1 PUSH2 0x305B JUMP JUMPDEST PUSH1 0x40 MLOAD PUSH1 0x20 DUP2 DUP4 SUB SUB DUP2 MSTORE SWAP1 PUSH1 0x40 MSTORE SWAP1 POP JUMPDEST PUSH2 0x7D0 DUP6 GT DUP1 ISZERO PUSH2 0x652 JUMPI POP PUSH3 0x989681 DUP6 LT JUMPDEST ISZERO PUSH2 0x6DE JUMPI PUSH1 0x0 SWAP3 POP PUSH1 0x5 DUP6 TIMESTAMP PUSH1 0x40 MLOAD PUSH1 0x20 ADD PUSH2 0x68A SWAP3 SWAP2 SWAP1 SWAP2 DUP3 MSTORE PUSH1 0x20 DUP3 ADD MSTORE PUSH8 0x1519585B48139195 PUSH1 0xC2 SHL PUSH1 0x40 DUP3 ADD MSTORE PUSH1 0x48 ADD SWAP1 JUMP JUMPDEST PUSH1 0x40 MLOAD PUSH1 0x20 DUP2 DUP4 SUB SUB DUP2 MSTORE SWAP1 PUSH1 0x40 MSTORE DUP1 MLOAD SWAP1 PUSH1 0x20 ADD KECCAK256 PUSH1 0x0 SHR PUSH2 0x6AD SWAP2 SWAP1 PUSH2 0x3534 JUMP JUMPDEST PUSH2 0x6B8 SWAP1 PUSH1 0x4 PUSH2 0x3450 JUMP JUMPDEST SWAP2 POP PUSH1 0x8 PUSH1 0x40 MLOAD PUSH1 0x20 ADD PUSH2 0x6CC SWAP2 SWAP1 PUSH2 0x2F49 JUMP JUMPDEST PUSH1 0x40 MLOAD PUSH1 0x20 DUP2 DUP4 SUB SUB DUP2 MSTORE SWAP1 PUSH1 0x40 MSTORE SWAP1 POP JUMPDEST PUSH3 0x989680 DUP6 GT ISZERO PUSH2 0x770 JUMPI PUSH1 0x0 SWAP3 POP PUSH1 0x5 DUP6 TIMESTAMP PUSH1 0x40 MLOAD PUSH1 0x20 ADD PUSH2 0x71C SWAP3 SWAP2 SWAP1 SWAP2 DUP3 MSTORE PUSH1 0x20 DUP3 ADD MSTORE PUSH8 0x1519585B48139195 PUSH1 0xC2 SHL PUSH1 0x40 DUP3 ADD MSTORE PUSH1 0x48 ADD SWAP1 JUMP JUMPDEST PUSH1 0x40 MLOAD PUSH1 0x20 DUP2 DUP4 SUB SUB DUP2 MSTORE SWAP1 PUSH1 0x40 MSTORE DUP1 MLOAD SWAP1 PUSH1 0x20 ADD KECCAK256 PUSH1 0x0 SHR PUSH2 0x73F SWAP2 SWAP1 PUSH2 0x3534 JUMP JUMPDEST PUSH2 0x74A SWAP1 PUSH1 0x4 PUSH2 0x3450 JUMP JUMPDEST SWAP2 POP PUSH1 0x8 PUSH1 0x40 MLOAD PUSH1 0x20 ADD PUSH2 0x75E SWAP2 SWAP1 PUSH2 0x2F2A JUMP JUMPDEST PUSH1 0x40 MLOAD PUSH1 0x20 DUP2 DUP4 SUB SUB DUP2 MSTORE SWAP1 PUSH1 0x40 MSTORE SWAP1 POP JUMPDEST PUSH1 0x0 DUP6 DUP2 MSTORE PUSH1 0xC PUSH1 0x20 MSTORE PUSH1 0x40 DUP2 KECCAK256 SLOAD PUSH1 0x5 DUP1 SLOAD SWAP2 SWAP3 SWAP2 DUP6 SWAP1 DUP2 LT PUSH2 0x796 JUMPI PUSH2 0x796 PUSH2 0x3574 JUMP JUMPDEST SWAP1 PUSH1 0x0 MSTORE PUSH1 0x20 PUSH1 0x0 KECCAK256 SWAP1 PUSH1 0x9 MUL ADD PUSH1 0x40 MLOAD DUP1 PUSH2 0x120 ADD PUSH1 0x40 MSTORE SWAP1 DUP2 PUSH1 0x0 DUP3 ADD SLOAD DUP2 MSTORE PUSH1 0x20 ADD PUSH1 0x1 DUP3 ADD SLOAD DUP2 MSTORE PUSH1 0x20 ADD PUSH1 0x2 DUP3 ADD SLOAD DUP2 MSTORE PUSH1 0x20 ADD PUSH1 0x3 DUP3 ADD SLOAD DUP2 MSTORE PUSH1 0x20 ADD PUSH1 0x4 DUP3 ADD SLOAD DUP2 MSTORE PUSH1 0x20 ADD PUSH1 0x5 DUP3 ADD SLOAD DUP2 MSTORE PUSH1 0x20 ADD PUSH1 0x6 DUP3 ADD DUP1 SLOAD PUSH2 0x7FC SWAP1 PUSH2 0x34B2 JUMP JUMPDEST DUP1 PUSH1 0x1F ADD PUSH1 0x20 DUP1 SWAP2 DIV MUL PUSH1 0x20 ADD PUSH1 0x40 MLOAD SWAP1 DUP2 ADD PUSH1 0x40 MSTORE DUP1 SWAP3 SWAP2 SWAP1 DUP2 DUP2 MSTORE PUSH1 0x20 ADD DUP3 DUP1 SLOAD PUSH2 0x828 SWAP1 PUSH2 0x34B2 JUMP JUMPDEST DUP1 ISZERO PUSH2 0x875 JUMPI DUP1 PUSH1 0x1F LT PUSH2 0x84A JUMPI PUSH2 0x100 DUP1 DUP4 SLOAD DIV MUL DUP4 MSTORE SWAP2 PUSH1 0x20 ADD SWAP2 PUSH2 0x875 JUMP JUMPDEST DUP3 ADD SWAP2 SWAP1 PUSH1 0x0 MSTORE PUSH1 0x20 PUSH1 0x0 KECCAK256 SWAP1 JUMPDEST DUP2 SLOAD DUP2 MSTORE SWAP1 PUSH1 0x1 ADD SWAP1 PUSH1 0x20 ADD DUP1 DUP4 GT PUSH2 0x858 JUMPI DUP3 SWAP1 SUB PUSH1 0x1F AND DUP3 ADD SWAP2 JUMPDEST POP POP POP POP POP DUP2 MSTORE PUSH1 0x20 ADD PUSH1 0x7 DUP3 ADD DUP1 SLOAD PUSH2 0x88E SWAP1 PUSH2 0x34B2 JUMP JUMPDEST DUP1 PUSH1 0x1F ADD PUSH1 0x20 DUP1 SWAP2 DIV MUL PUSH1 0x20 ADD PUSH1 0x40 MLOAD SWAP1 DUP2 ADD PUSH1 0x40 MSTORE DUP1 SWAP3 SWAP2 SWAP1 DUP2 DUP2 MSTORE PUSH1 0x20 ADD DUP3 DUP1 SLOAD PUSH2 0x8BA SWAP1 PUSH2 0x34B2 JUMP JUMPDEST DUP1 ISZERO PUSH2 0x907 JUMPI DUP1 PUSH1 0x1F LT PUSH2 0x8DC JUMPI PUSH2 0x100 DUP1 DUP4 SLOAD DIV MUL DUP4 MSTORE SWAP2 PUSH1 0x20 ADD SWAP2 PUSH2 0x907 JUMP JUMPDEST DUP3 ADD SWAP2 SWAP1 PUSH1 0x0 MSTORE PUSH1 0x20 PUSH1 0x0 KECCAK256 SWAP1 JUMPDEST DUP2 SLOAD DUP2 MSTORE SWAP1 PUSH1 0x1 ADD SWAP1 PUSH1 0x20 ADD DUP1 DUP4 GT PUSH2 0x8EA JUMPI DUP3 SWAP1 SUB PUSH1 0x1F AND DUP3 ADD SWAP2 JUMPDEST POP POP POP POP POP DUP2 MSTORE PUSH1 0x20 ADD PUSH1 0x8 DUP3 ADD DUP1 SLOAD PUSH2 0x920 SWAP1 PUSH2 0x34B2 JUMP JUMPDEST DUP1 PUSH1 0x1F ADD PUSH1 0x20 DUP1 SWAP2 DIV MUL PUSH1 0x20 ADD PUSH1 0x40 MLOAD SWAP1 DUP2 ADD PUSH1 0x40 MSTORE DUP1 SWAP3 SWAP2 SWAP1 DUP2 DUP2 MSTORE PUSH1 0x20 ADD DUP3 DUP1 SLOAD PUSH2 0x94C SWAP1 PUSH2 0x34B2 JUMP JUMPDEST DUP1 ISZERO PUSH2 0x999 JUMPI DUP1 PUSH1 0x1F LT PUSH2 0x96E JUMPI PUSH2 0x100 DUP1 DUP4 SLOAD DIV MUL DUP4 MSTORE SWAP2 PUSH1 0x20 ADD SWAP2 PUSH2 0x999 JUMP JUMPDEST DUP3 ADD SWAP2 SWAP1 PUSH1 0x0 MSTORE PUSH1 0x20 PUSH1 0x0 KECCAK256 SWAP1 JUMPDEST DUP2 SLOAD DUP2 MSTORE SWAP1 PUSH1 0x1 ADD SWAP1 PUSH1 0x20 ADD DUP1 DUP4 GT PUSH2 0x97C JUMPI DUP3 SWAP1 SUB PUSH1 0x1F AND DUP3 ADD SWAP2 JUMPDEST POP POP POP SWAP2 SWAP1 SWAP3 MSTORE POP POP PUSH1 0x6 SLOAD PUSH1 0x40 MLOAD PUSH4 0x21F8DD9D PUSH1 0xE0 SHL DUP2 MSTORE SWAP3 SWAP4 POP PUSH1 0x0 SWAP3 PUSH1 0x1 PUSH1 0x1 PUSH1 0xA0 SHL SUB SWAP1 SWAP2 AND SWAP2 POP PUSH4 0x21F8DD9D SWAP1 PUSH2 0x9DF SWAP1 DUP6 SWAP1 DUP11 SWAP1 DUP14 SWAP1 DUP10 SWAP1 PUSH1 0x4 ADD PUSH2 0x331A JUMP JUMPDEST PUSH1 0x0 PUSH1 0x40 MLOAD DUP1 DUP4 SUB DUP2 DUP7 DUP1 EXTCODESIZE ISZERO DUP1 ISZERO PUSH2 0x9F7 JUMPI PUSH1 0x0 DUP1 REVERT JUMPDEST POP GAS STATICCALL ISZERO DUP1 ISZERO PUSH2 0xA0B JUMPI RETURNDATASIZE PUSH1 0x0 DUP1 RETURNDATACOPY RETURNDATASIZE PUSH1 0x0 REVERT JUMPDEST POP POP POP POP PUSH1 0x40 MLOAD RETURNDATASIZE PUSH1 0x0 DUP3 RETURNDATACOPY PUSH1 0x1F RETURNDATASIZE SWAP1 DUP2 ADD PUSH1 0x1F NOT AND DUP3 ADD PUSH1 0x40 MSTORE PUSH2 0xA33 SWAP2 SWAP1 DUP2 ADD SWAP1 PUSH2 0x29BB JUMP JUMPDEST SWAP1 POP PUSH1 0x0 DUP3 PUSH2 0x100 ADD MLOAD DUP6 PUSH2 0xA47 DUP5 PUSH2 0x1752 JUMP JUMPDEST PUSH1 0x40 MLOAD PUSH1 0x20 ADD PUSH2 0xA59 SWAP4 SWAP3 SWAP2 SWAP1 PUSH2 0x2F88 JUMP JUMPDEST PUSH1 0x40 MLOAD PUSH1 0x20 DUP2 DUP4 SUB SUB DUP2 MSTORE SWAP1 PUSH1 0x40 MSTORE SWAP1 POP DUP1 DUP4 PUSH2 0x100 ADD MLOAD DUP5 PUSH1 0xC0 ADD MLOAD PUSH2 0xA83 DUP7 PUSH1 0x0 ADD MLOAD PUSH2 0x18B7 JUMP JUMPDEST PUSH2 0xA90 DUP8 PUSH1 0x20 ADD MLOAD PUSH2 0x18B7 JUMP JUMPDEST PUSH1 0x40 MLOAD PUSH1 0x20 ADD PUSH2 0xAA4 SWAP6 SWAP5 SWAP4 SWAP3 SWAP2 SWAP1 PUSH2 0x2DEB JUMP JUMPDEST PUSH1 0x40 MLOAD PUSH1 0x20 DUP2 DUP4 SUB SUB DUP2 MSTORE SWAP1 PUSH1 0x40 MSTORE SWAP1 POP DUP1 PUSH2 0xAC3 DUP5 PUSH1 0x40 ADD MLOAD PUSH2 0x18B7 JUMP JUMPDEST PUSH2 0xAD0 DUP6 PUSH1 0x60 ADD MLOAD PUSH2 0x18B7 JUMP JUMPDEST PUSH2 0xADD DUP7 PUSH1 0x80 ADD MLOAD PUSH2 0x18B7 JUMP JUMPDEST PUSH2 0xAEA DUP8 PUSH1 0xA0 ADD MLOAD PUSH2 0x18B7 JUMP JUMPDEST PUSH1 0x40 MLOAD PUSH1 0x20 ADD PUSH2 0xAFE SWAP6 SWAP5 SWAP4 SWAP3 SWAP2 SWAP1 PUSH2 0x2C9F JUMP JUMPDEST PUSH1 0x40 MLOAD PUSH1 0x20 DUP2 DUP4 SUB SUB DUP2 MSTORE SWAP1 PUSH1 0x40 MSTORE SWAP1 POP PUSH2 0xB18 DUP2 PUSH2 0x1752 JUMP JUMPDEST PUSH1 0x40 MLOAD PUSH1 0x20 ADD PUSH2 0xB28 SWAP2 SWAP1 PUSH2 0x3079 JUMP JUMPDEST PUSH1 0x40 MLOAD PUSH1 0x20 DUP2 DUP4 SUB SUB DUP2 MSTORE SWAP1 PUSH1 0x40 MSTORE SWAP8 POP POP POP POP POP POP POP POP SWAP2 SWAP1 POP JUMP JUMPDEST PUSH1 0xE SLOAD PUSH1 0x0 SWAP1 PUSH1 0x1 PUSH1 0x1 PUSH1 0xA0 SHL SUB AND CALLER EQ DUP1 PUSH2 0xB6B JUMPI POP PUSH1 0xF SLOAD PUSH1 0x1 PUSH1 0x1 PUSH1 0xA0 SHL SUB AND CALLER EQ JUMPDEST PUSH2 0xB87 JUMPI PUSH1 0x40 MLOAD PUSH3 0x461BCD PUSH1 0xE5 SHL DUP2 MSTORE PUSH1 0x4 ADD PUSH2 0x35F SWAP1 PUSH2 0x325C JUMP JUMPDEST PUSH1 0x0 PUSH1 0x1 SWAP1 POP PUSH1 0x5 DUP4 DUP2 SLOAD DUP2 LT PUSH2 0xBA0 JUMPI PUSH2 0xBA0 PUSH2 0x3574 JUMP JUMPDEST SWAP1 PUSH1 0x0 MSTORE PUSH1 0x20 PUSH1 0x0 KECCAK256 SWAP1 PUSH1 0x9 MUL ADD PUSH1 0x6 ADD PUSH1 0x40 MLOAD PUSH1 0x20 ADD PUSH2 0xBC1 SWAP2 SWAP1 PUSH2 0x2F1E JUMP JUMPDEST PUSH1 0x40 MLOAD PUSH1 0x20 DUP2 DUP4 SUB SUB DUP2 MSTORE SWAP1 PUSH1 0x40 MSTORE DUP1 MLOAD SWAP1 PUSH1 0x20 ADD KECCAK256 PUSH1 0x40 MLOAD PUSH1 0x20 ADD PUSH2 0xBF4 SWAP1 PUSH7 0x446566656E6365 PUSH1 0xC8 SHL DUP2 MSTORE PUSH1 0x7 ADD SWAP1 JUMP JUMPDEST PUSH1 0x40 MLOAD PUSH1 0x20 DUP2 DUP4 SUB SUB DUP2 MSTORE SWAP1 PUSH1 0x40 MSTORE DUP1 MLOAD SWAP1 PUSH1 0x20 ADD KECCAK256 EQ ISZERO PUSH2 0xC14 JUMPI POP PUSH1 0x2 JUMPDEST PUSH1 0x5 DUP4 DUP2 SLOAD DUP2 LT PUSH2 0xC27 JUMPI PUSH2 0xC27 PUSH2 0x3574 JUMP JUMPDEST SWAP1 PUSH1 0x0 MSTORE PUSH1 0x20 PUSH1 0x0 KECCAK256 SWAP1 PUSH1 0x9 MUL ADD PUSH1 0x4 ADD SLOAD PUSH1 0x5 DUP5 DUP2 SLOAD DUP2 LT PUSH2 0xC4C JUMPI PUSH2 0xC4C PUSH2 0x3574 JUMP JUMPDEST SWAP1 PUSH1 0x0 MSTORE PUSH1 0x20 PUSH1 0x0 KECCAK256 SWAP1 PUSH1 0x9 MUL ADD PUSH1 0x5 ADD SLOAD PUSH1 0x5 DUP6 DUP2 SLOAD DUP2 LT PUSH2 0xC71 JUMPI PUSH2 0xC71 PUSH2 0x3574 JUMP JUMPDEST SWAP1 PUSH1 0x0 MSTORE PUSH1 0x20 PUSH1 0x0 KECCAK256 SWAP1 PUSH1 0x9 MUL ADD PUSH1 0x2 ADD SLOAD PUSH2 0xC8D SWAP2 SWAP1 PUSH2 0x3424 JUMP JUMPDEST PUSH2 0xC97 SWAP1 DUP4 PUSH2 0x3450 JUMP JUMPDEST PUSH1 0xA PUSH1 0x5 DUP7 DUP2 SLOAD DUP2 LT PUSH2 0xCAC JUMPI PUSH2 0xCAC PUSH2 0x3574 JUMP JUMPDEST SWAP1 PUSH1 0x0 MSTORE PUSH1 0x20 PUSH1 0x0 KECCAK256 SWAP1 PUSH1 0x9 MUL ADD PUSH1 0x0 ADD SLOAD PUSH2 0xCC8 SWAP2 SWAP1 PUSH2 0x343C JUMP JUMPDEST PUSH1 0x5 DUP7 DUP2 SLOAD DUP2 LT PUSH2 0xCDB JUMPI PUSH2 0xCDB PUSH2 0x3574 JUMP JUMPDEST SWAP1 PUSH1 0x0 MSTORE PUSH1 0x20 PUSH1 0x0 KECCAK256 SWAP1 PUSH1 0x9 MUL ADD PUSH1 0x1 ADD SLOAD PUSH1 0x1 PUSH2 0xCF9 SWAP2 SWAP1 PUSH2 0x3424 JUMP JUMPDEST PUSH2 0xD03 SWAP2 SWAP1 PUSH2 0x3424 JUMP JUMPDEST PUSH2 0xD0D SWAP2 SWAP1 PUSH2 0x3424 JUMP JUMPDEST PUSH2 0xD17 SWAP2 SWAP1 PUSH2 0x3424 JUMP JUMPDEST SWAP4 SWAP3 POP POP POP JUMP JUMPDEST PUSH1 0x1 PUSH1 0x1 PUSH1 0xA0 SHL SUB DUP6 AND CALLER EQ DUP1 PUSH2 0xD3A JUMPI POP PUSH2 0xD3A DUP6 CALLER PUSH2 0x2A4 JUMP JUMPDEST PUSH2 0xDA1 JUMPI PUSH1 0x40 MLOAD PUSH3 0x461BCD PUSH1 0xE5 SHL DUP2 MSTORE PUSH1 0x20 PUSH1 0x4 DUP3 ADD MSTORE PUSH1 0x32 PUSH1 0x24 DUP3 ADD MSTORE PUSH32 0x455243313135353A207472616E736665722063616C6C6572206973206E6F7420 PUSH1 0x44 DUP3 ADD MSTORE PUSH18 0x1BDDDB995C881B9BDC88185C1C1C9BDD9959 PUSH1 0x72 SHL PUSH1 0x64 DUP3 ADD MSTORE PUSH1 0x84 ADD PUSH2 0x35F JUMP JUMPDEST PUSH2 0xDAE DUP6 DUP6 DUP6 DUP6 DUP6 PUSH2 0x19BC JUMP JUMPDEST POP POP POP POP POP JUMP JUMPDEST PUSH1 0xE SLOAD PUSH1 0x1 PUSH1 0x1 PUSH1 0xA0 SHL SUB AND CALLER EQ DUP1 PUSH2 0xDD8 JUMPI POP PUSH1 0xF SLOAD PUSH1 0x1 PUSH1 0x1 PUSH1 0xA0 SHL SUB AND CALLER EQ JUMPDEST PUSH2 0xDF4 JUMPI PUSH1 0x40 MLOAD PUSH3 0x461BCD PUSH1 0xE5 SHL DUP2 MSTORE PUSH1 0x4 ADD PUSH2 0x35F SWAP1 PUSH2 0x325C JUMP JUMPDEST PUSH2 0xE0F DUP3 DUP5 DUP4 PUSH1 0x40 MLOAD DUP1 PUSH1 0x20 ADD PUSH1 0x40 MSTORE DUP1 PUSH1 0x0 DUP2 MSTORE POP PUSH2 0x1C1D JUMP JUMPDEST PUSH1 0x40 DUP1 MLOAD DUP5 DUP2 MSTORE PUSH1 0x20 DUP2 ADD DUP4 SWAP1 MSTORE PUSH1 0x1 PUSH1 0x1 PUSH1 0xA0 SHL SUB DUP5 AND SWAP2 PUSH32 0xC53D2DA4A9EF9B259C31A6AFA294D43B018AA5930A327C1DEFC6AD7CEB406C5E SWAP2 ADD PUSH1 0x40 MLOAD DUP1 SWAP2 SUB SWAP1 LOG2 POP POP POP JUMP JUMPDEST PUSH1 0x60 DUP2 MLOAD DUP4 MLOAD EQ PUSH2 0xEBD JUMPI PUSH1 0x40 MLOAD PUSH3 0x461BCD PUSH1 0xE5 SHL DUP2 MSTORE PUSH1 0x20 PUSH1 0x4 DUP3 ADD MSTORE PUSH1 0x29 PUSH1 0x24 DUP3 ADD MSTORE PUSH32 0x455243313135353A206163636F756E747320616E6420696473206C656E677468 PUSH1 0x44 DUP3 ADD MSTORE PUSH9 0x40DAD2E6DAC2E8C6D PUSH1 0xBB SHL PUSH1 0x64 DUP3 ADD MSTORE PUSH1 0x84 ADD PUSH2 0x35F JUMP JUMPDEST PUSH1 0x0 DUP4 MLOAD PUSH1 0x1 PUSH1 0x1 PUSH1 0x40 SHL SUB DUP2 GT ISZERO PUSH2 0xED8 JUMPI PUSH2 0xED8 PUSH2 0x358A JUMP JUMPDEST PUSH1 0x40 MLOAD SWAP1 DUP1 DUP3 MSTORE DUP1 PUSH1 0x20 MUL PUSH1 0x20 ADD DUP3 ADD PUSH1 0x40 MSTORE DUP1 ISZERO PUSH2 0xF01 JUMPI DUP2 PUSH1 0x20 ADD PUSH1 0x20 DUP3 MUL DUP1 CALLDATASIZE DUP4 CALLDATACOPY ADD SWAP1 POP JUMPDEST POP SWAP1 POP PUSH1 0x0 JUMPDEST DUP5 MLOAD DUP2 LT ISZERO PUSH2 0xF79 JUMPI PUSH2 0xF4C DUP6 DUP3 DUP2 MLOAD DUP2 LT PUSH2 0xF25 JUMPI PUSH2 0xF25 PUSH2 0x3574 JUMP JUMPDEST PUSH1 0x20 MUL PUSH1 0x20 ADD ADD MLOAD DUP6 DUP4 DUP2 MLOAD DUP2 LT PUSH2 0xF3F JUMPI PUSH2 0xF3F PUSH2 0x3574 JUMP JUMPDEST PUSH1 0x20 MUL PUSH1 0x20 ADD ADD MLOAD PUSH2 0x2F8 JUMP JUMPDEST DUP3 DUP3 DUP2 MLOAD DUP2 LT PUSH2 0xF5E JUMPI PUSH2 0xF5E PUSH2 0x3574 JUMP JUMPDEST PUSH1 0x20 SWAP1 DUP2 MUL SWAP2 SWAP1 SWAP2 ADD ADD MSTORE PUSH2 0xF72 DUP2 PUSH2 0x3519 JUMP JUMPDEST SWAP1 POP PUSH2 0xF07 JUMP JUMPDEST POP SWAP4 SWAP3 POP POP POP JUMP JUMPDEST PUSH1 0xE SLOAD PUSH1 0x1 PUSH1 0x1 PUSH1 0xA0 SHL SUB AND CALLER EQ DUP1 PUSH2 0xFA4 JUMPI POP PUSH1 0xF SLOAD PUSH1 0x1 PUSH1 0x1 PUSH1 0xA0 SHL SUB AND CALLER EQ JUMPDEST PUSH2 0xFC0 JUMPI PUSH1 0x40 MLOAD PUSH3 0x461BCD PUSH1 0xE5 SHL DUP2 MSTORE PUSH1 0x4 ADD PUSH2 0x35F SWAP1 PUSH2 0x325C JUMP JUMPDEST PUSH1 0x60 DUP7 PUSH1 0x4 EQ ISZERO PUSH2 0xFF7 JUMPI POP PUSH1 0x40 DUP1 MLOAD DUP1 DUP3 ADD SWAP1 SWAP2 MSTORE PUSH1 0xF DUP2 MSTORE PUSH15 0x9CDEC2D04096C2E8E8CAE4C4C2C6D PUSH1 0x8B SHL PUSH1 0x20 DUP3 ADD MSTORE PUSH2 0x10B8 JUMP JUMPDEST DUP7 PUSH1 0x3 EQ ISZERO PUSH2 0x1029 JUMPI POP PUSH1 0x40 DUP1 MLOAD DUP1 DUP3 ADD SWAP1 SWAP2 MSTORE PUSH1 0xC DUP2 MSTORE PUSH12 0x105B991E4814195B1B585C99 PUSH1 0xA2 SHL PUSH1 0x20 DUP3 ADD MSTORE PUSH2 0x10B8 JUMP JUMPDEST DUP7 PUSH1 0x2 EQ ISZERO PUSH2 0x105C JUMPI POP PUSH1 0x40 DUP1 MLOAD DUP1 DUP3 ADD SWAP1 SWAP2 MSTORE PUSH1 0xD DUP2 MSTORE PUSH13 0x50616A74696D204B6173616D69 PUSH1 0x98 SHL PUSH1 0x20 DUP3 ADD MSTORE PUSH2 0x10B8 JUMP JUMPDEST DUP7 PUSH1 0x1 EQ ISZERO PUSH2 0x108D JUMPI POP PUSH1 0x40 DUP1 MLOAD DUP1 DUP3 ADD SWAP1 SWAP2 MSTORE PUSH1 0xB DUP2 MSTORE PUSH11 0x2634B0B69026B4B63630B9 PUSH1 0xA9 SHL PUSH1 0x20 DUP3 ADD MSTORE PUSH2 0x10B8 JUMP JUMPDEST DUP7 PUSH2 0x10B8 JUMPI POP PUSH1 0x40 DUP1 MLOAD DUP1 DUP3 ADD SWAP1 SWAP2 MSTORE PUSH1 0xD DUP2 MSTORE PUSH13 0x2432B4B73D102634B7323732B9 PUSH1 0x99 SHL PUSH1 0x20 DUP3 ADD MSTORE JUMPDEST PUSH1 0x0 PUSH1 0xA DUP3 PUSH1 0x40 MLOAD PUSH2 0x10CA SWAP2 SWAP1 PUSH2 0x2C83 JUMP JUMPDEST SWAP1 DUP2 MSTORE PUSH1 0x40 DUP1 MLOAD SWAP2 DUP3 SWAP1 SUB PUSH1 0x20 SWAP1 DUP2 ADD DUP4 KECCAK256 DUP1 SLOAD DUP1 DUP4 MUL DUP6 ADD DUP4 ADD SWAP1 SWAP4 MSTORE DUP3 DUP5 MSTORE SWAP2 SWAP1 DUP4 ADD DUP3 DUP3 DUP1 ISZERO PUSH2 0x111C JUMPI PUSH1 0x20 MUL DUP3 ADD SWAP2 SWAP1 PUSH1 0x0 MSTORE PUSH1 0x20 PUSH1 0x0 KECCAK256 SWAP1 JUMPDEST DUP2 SLOAD DUP2 MSTORE PUSH1 0x20 ADD SWAP1 PUSH1 0x1 ADD SWAP1 DUP1 DUP4 GT PUSH2 0x1108 JUMPI JUMPDEST POP POP POP POP POP SWAP1 POP PUSH1 0x0 JUMPDEST DUP2 MLOAD DUP2 LT ISZERO PUSH2 0x129E JUMPI DUP8 PUSH2 0xFFFF AND PUSH1 0x5 DUP4 DUP4 DUP2 MLOAD DUP2 LT PUSH2 0x1148 JUMPI PUSH2 0x1148 PUSH2 0x3574 JUMP JUMPDEST PUSH1 0x20 MUL PUSH1 0x20 ADD ADD MLOAD DUP2 SLOAD DUP2 LT PUSH2 0x1160 JUMPI PUSH2 0x1160 PUSH2 0x3574 JUMP JUMPDEST SWAP1 PUSH1 0x0 MSTORE PUSH1 0x20 PUSH1 0x0 KECCAK256 SWAP1 PUSH1 0x9 MUL ADD PUSH1 0x0 ADD DUP2 SWAP1 SSTORE POP DUP7 PUSH2 0xFFFF AND PUSH1 0x5 DUP4 DUP4 DUP2 MLOAD DUP2 LT PUSH2 0x118E JUMPI PUSH2 0x118E PUSH2 0x3574 JUMP JUMPDEST PUSH1 0x20 MUL PUSH1 0x20 ADD ADD MLOAD DUP2 SLOAD DUP2 LT PUSH2 0x11A6 JUMPI PUSH2 0x11A6 PUSH2 0x3574 JUMP JUMPDEST SWAP1 PUSH1 0x0 MSTORE PUSH1 0x20 PUSH1 0x0 KECCAK256 SWAP1 PUSH1 0x9 MUL ADD PUSH1 0x1 ADD DUP2 SWAP1 SSTORE POP DUP6 PUSH2 0xFFFF AND PUSH1 0x5 DUP4 DUP4 DUP2 MLOAD DUP2 LT PUSH2 0x11D4 JUMPI PUSH2 0x11D4 PUSH2 0x3574 JUMP JUMPDEST PUSH1 0x20 MUL PUSH1 0x20 ADD ADD MLOAD DUP2 SLOAD DUP2 LT PUSH2 0x11EC JUMPI PUSH2 0x11EC PUSH2 0x3574 JUMP JUMPDEST SWAP1 PUSH1 0x0 MSTORE PUSH1 0x20 PUSH1 0x0 KECCAK256 SWAP1 PUSH1 0x9 MUL ADD PUSH1 0x2 ADD DUP2 SWAP1 SSTORE POP DUP4 PUSH2 0xFFFF AND PUSH1 0x5 DUP4 DUP4 DUP2 MLOAD DUP2 LT PUSH2 0x121A JUMPI PUSH2 0x121A PUSH2 0x3574 JUMP JUMPDEST PUSH1 0x20 MUL PUSH1 0x20 ADD ADD MLOAD DUP2 SLOAD DUP2 LT PUSH2 0x1232 JUMPI PUSH2 0x1232 PUSH2 0x3574 JUMP JUMPDEST SWAP1 PUSH1 0x0 MSTORE PUSH1 0x20 PUSH1 0x0 KECCAK256 SWAP1 PUSH1 0x9 MUL ADD PUSH1 0x4 ADD DUP2 SWAP1 SSTORE POP DUP5 PUSH2 0xFFFF AND PUSH1 0x5 DUP4 DUP4 DUP2 MLOAD DUP2 LT PUSH2 0x1260 JUMPI PUSH2 0x1260 PUSH2 0x3574 JUMP JUMPDEST PUSH1 0x20 MUL PUSH1 0x20 ADD ADD MLOAD DUP2 SLOAD DUP2 LT PUSH2 0x1278 JUMPI PUSH2 0x1278 PUSH2 0x3574 JUMP JUMPDEST PUSH1 0x0 SWAP2 DUP3 MSTORE PUSH1 0x20 SWAP1 SWAP2 KECCAK256 PUSH1 0x5 PUSH1 0x9 SWAP1 SWAP3 MUL ADD ADD SSTORE DUP1 PUSH2 0x1296 DUP2 PUSH2 0x3519 JUMP JUMPDEST SWAP2 POP POP PUSH2 0x1126 JUMP JUMPDEST POP POP POP POP POP POP POP POP POP JUMP JUMPDEST PUSH1 0xD SLOAD PUSH1 0x1 PUSH1 0x1 PUSH1 0xA0 SHL SUB AND CALLER EQ PUSH2 0x12D3 JUMPI PUSH1 0x40 MLOAD PUSH3 0x461BCD PUSH1 0xE5 SHL DUP2 MSTORE PUSH1 0x4 ADD PUSH2 0x35F SWAP1 PUSH2 0x325C JUMP JUMPDEST DUP1 MLOAD PUSH2 0x12E6 SWAP1 PUSH1 0x8 SWAP1 PUSH1 0x20 DUP5 ADD SWAP1 PUSH2 0x24AE JUMP JUMPDEST POP POP JUMP JUMPDEST PUSH1 0xE SLOAD PUSH1 0x1 PUSH1 0x1 PUSH1 0xA0 SHL SUB AND CALLER EQ DUP1 PUSH2 0x130D JUMPI POP PUSH1 0xF SLOAD PUSH1 0x1 PUSH1 0x1 PUSH1 0xA0 SHL SUB AND CALLER EQ JUMPDEST PUSH2 0x1329 JUMPI PUSH1 0x40 MLOAD PUSH3 0x461BCD PUSH1 0xE5 SHL DUP2 MSTORE PUSH1 0x4 ADD PUSH2 0x35F SWAP1 PUSH2 0x325C JUMP JUMPDEST PUSH2 0x1334 DUP3 DUP5 DUP4 PUSH2 0x1DB7 JUMP JUMPDEST POP POP POP JUMP JUMPDEST PUSH2 0x12E6 CALLER DUP4 DUP4 PUSH2 0x1F33 JUMP JUMPDEST PUSH1 0xE SLOAD PUSH1 0x60 SWAP1 PUSH1 0x1 PUSH1 0x1 PUSH1 0xA0 SHL SUB AND CALLER EQ DUP1 PUSH2 0x136A JUMPI POP PUSH1 0xF SLOAD PUSH1 0x1 PUSH1 0x1 PUSH1 0xA0 SHL SUB AND CALLER EQ JUMPDEST PUSH2 0x1386 JUMPI PUSH1 0x40 MLOAD PUSH3 0x461BCD PUSH1 0xE5 SHL DUP2 MSTORE PUSH1 0x4 ADD PUSH2 0x35F SWAP1 PUSH2 0x325C JUMP JUMPDEST PUSH2 0x138E PUSH2 0x2014 JUMP JUMPDEST SWAP1 POP SWAP1 JUMP JUMPDEST PUSH1 0xD SLOAD PUSH1 0x1 PUSH1 0x1 PUSH1 0xA0 SHL SUB AND CALLER EQ PUSH2 0x13BD JUMPI PUSH1 0x40 MLOAD PUSH3 0x461BCD PUSH1 0xE5 SHL DUP2 MSTORE PUSH1 0x4 ADD PUSH2 0x35F SWAP1 PUSH2 0x325C JUMP JUMPDEST PUSH1 0xD DUP1 SLOAD PUSH1 0x1 PUSH1 0x1 PUSH1 0xA0 SHL SUB NOT AND PUSH1 0x1 PUSH1 0x1 PUSH1 0xA0 SHL SUB SWAP3 SWAP1 SWAP3 AND SWAP2 SWAP1 SWAP2 OR SWAP1 SSTORE JUMP JUMPDEST PUSH1 0xD SLOAD PUSH1 0x1 PUSH1 0x1 PUSH1 0xA0 SHL SUB AND CALLER EQ PUSH2 0x1409 JUMPI PUSH1 0x40 MLOAD PUSH3 0x461BCD PUSH1 0xE5 SHL DUP2 MSTORE PUSH1 0x4 ADD PUSH2 0x35F SWAP1 PUSH2 0x325C JUMP JUMPDEST PUSH1 0xE DUP1 SLOAD PUSH1 0x1 PUSH1 0x1 PUSH1 0xA0 SHL SUB SWAP4 DUP5 AND PUSH1 0x1 PUSH1 0x1 PUSH1 0xA0 SHL SUB NOT SWAP2 DUP3 AND OR SWAP1 SWAP2 SSTORE PUSH1 0xF DUP1 SLOAD SWAP3 SWAP1 SWAP4 AND SWAP2 AND OR SWAP1 SSTORE JUMP JUMPDEST PUSH1 0xE SLOAD PUSH1 0x1 PUSH1 0x1 PUSH1 0xA0 SHL SUB AND CALLER EQ DUP1 PUSH2 0x145A JUMPI POP PUSH1 0xF SLOAD PUSH1 0x1 PUSH1 0x1 PUSH1 0xA0 SHL SUB AND CALLER EQ JUMPDEST PUSH2 0x1476 JUMPI PUSH1 0x40 MLOAD PUSH3 0x461BCD PUSH1 0xE5 SHL DUP2 MSTORE PUSH1 0x4 ADD PUSH2 0x35F SWAP1 PUSH2 0x325C JUMP JUMPDEST PUSH2 0x7D1 PUSH1 0x0 JUMPDEST DUP3 DUP2 LT ISZERO PUSH2 0x14D3 JUMPI DUP4 DUP4 DUP3 DUP2 DUP2 LT PUSH2 0x1496 JUMPI PUSH2 0x1496 PUSH2 0x3574 JUMP JUMPDEST SWAP1 POP PUSH1 0x20 MUL ADD CALLDATALOAD PUSH1 0xB PUSH1 0x0 DUP5 DUP1 PUSH2 0x14AC SWAP1 PUSH2 0x3519 JUMP JUMPDEST SWAP6 POP DUP2 MSTORE PUSH1 0x20 ADD SWAP1 DUP2 MSTORE PUSH1 0x20 ADD PUSH1 0x0 KECCAK256 DUP2 SWAP1 SSTORE POP DUP1 DUP1 PUSH2 0x14CB SWAP1 PUSH2 0x3519 JUMP JUMPDEST SWAP2 POP POP PUSH2 0x147C JUMP JUMPDEST POP POP POP POP JUMP JUMPDEST PUSH1 0xE SLOAD PUSH1 0x1 PUSH1 0x1 PUSH1 0xA0 SHL SUB AND CALLER EQ DUP1 PUSH2 0x14FC JUMPI POP PUSH1 0xF SLOAD PUSH1 0x1 PUSH1 0x1 PUSH1 0xA0 SHL SUB AND CALLER EQ JUMPDEST PUSH2 0x1518 JUMPI PUSH1 0x40 MLOAD PUSH3 0x461BCD PUSH1 0xE5 SHL DUP2 MSTORE PUSH1 0x4 ADD PUSH2 0x35F SWAP1 PUSH2 0x325C JUMP JUMPDEST PUSH1 0x0 SWAP2 DUP3 MSTORE PUSH1 0xC PUSH1 0x20 MSTORE PUSH1 0x40 SWAP1 SWAP2 KECCAK256 SSTORE JUMP JUMPDEST PUSH1 0x3 DUP3 LT PUSH2 0x1586 JUMPI PUSH1 0x40 MLOAD PUSH3 0x461BCD PUSH1 0xE5 SHL DUP2 MSTORE PUSH1 0x20 PUSH1 0x4 DUP3 ADD MSTORE PUSH1 0x24 DUP1 DUP3 ADD MSTORE PUSH32 0x57726F6E672076616C75652E2049742073686F756C6420626520303C3D6C6576 PUSH1 0x44 DUP3 ADD MSTORE PUSH4 0x656C3C33 PUSH1 0xE0 SHL PUSH1 0x64 DUP3 ADD MSTORE PUSH1 0x84 ADD PUSH2 0x35F JUMP JUMPDEST PUSH1 0x0 PUSH1 0xA DUP5 PUSH1 0x40 MLOAD PUSH2 0x1598 SWAP2 SWAP1 PUSH2 0x2C83 JUMP JUMPDEST SWAP1 DUP2 MSTORE PUSH1 0x40 DUP1 MLOAD SWAP2 DUP3 SWAP1 SUB PUSH1 0x20 SWAP1 DUP2 ADD DUP4 KECCAK256 DUP1 SLOAD DUP1 DUP4 MUL DUP6 ADD DUP4 ADD SWAP1 SWAP4 MSTORE DUP3 DUP5 MSTORE SWAP2 SWAP1 DUP4 ADD DUP3 DUP3 DUP1 ISZERO PUSH2 0x15EA JUMPI PUSH1 0x20 MUL DUP3 ADD SWAP2 SWAP1 PUSH1 0x0 MSTORE PUSH1 0x20 PUSH1 0x0 KECCAK256 SWAP1 JUMPDEST DUP2 SLOAD DUP2 MSTORE PUSH1 0x20 ADD SWAP1 PUSH1 0x1 ADD SWAP1 DUP1 DUP4 GT PUSH2 0x15D6 JUMPI JUMPDEST POP POP POP POP POP SWAP1 POP PUSH1 0x0 DUP3 PUSH1 0x3 PUSH2 0x1600 SWAP2 SWAP1 PUSH2 0x3450 JUMP JUMPDEST SWAP1 POP DUP1 PUSH2 0x1619 CALLER DUP5 DUP8 DUP2 MLOAD DUP2 LT PUSH2 0xF3F JUMPI PUSH2 0xF3F PUSH2 0x3574 JUMP JUMPDEST LT ISZERO PUSH2 0x1667 JUMPI PUSH1 0x40 MLOAD PUSH3 0x461BCD PUSH1 0xE5 SHL DUP2 MSTORE PUSH1 0x20 PUSH1 0x4 DUP3 ADD MSTORE PUSH1 0x1D PUSH1 0x24 DUP3 ADD MSTORE PUSH32 0x496E7375666963656E7420506C617965727320746F2075706772616465000000 PUSH1 0x44 DUP3 ADD MSTORE PUSH1 0x64 ADD PUSH2 0x35F JUMP JUMPDEST PUSH2 0x168B CALLER DUP4 DUP7 DUP2 MLOAD DUP2 LT PUSH2 0x167D JUMPI PUSH2 0x167D PUSH2 0x3574 JUMP JUMPDEST PUSH1 0x20 MUL PUSH1 0x20 ADD ADD MLOAD DUP4 PUSH2 0x1DB7 JUMP JUMPDEST PUSH2 0xDAE CALLER DUP4 DUP7 DUP2 MLOAD DUP2 LT PUSH2 0x16A1 JUMPI PUSH2 0x16A1 PUSH2 0x3574 JUMP JUMPDEST PUSH1 0x20 MUL PUSH1 0x20 ADD ADD MLOAD PUSH1 0x1 PUSH2 0x16B5 SWAP2 SWAP1 PUSH2 0x3424 JUMP JUMPDEST DUP6 PUSH1 0x40 MLOAD DUP1 PUSH1 0x20 ADD PUSH1 0x40 MSTORE DUP1 PUSH1 0x0 DUP2 MSTORE POP PUSH2 0x1C1D JUMP JUMPDEST PUSH1 0x1 PUSH1 0x1 PUSH1 0xA0 SHL SUB DUP6 AND CALLER EQ DUP1 PUSH2 0x16E7 JUMPI POP PUSH2 0x16E7 DUP6 CALLER PUSH2 0x2A4 JUMP JUMPDEST PUSH2 0x1745 JUMPI PUSH1 0x40 MLOAD PUSH3 0x461BCD PUSH1 0xE5 SHL DUP2 MSTORE PUSH1 0x20 PUSH1 0x4 DUP3 ADD MSTORE PUSH1 0x29 PUSH1 0x24 DUP3 ADD MSTORE PUSH32 0x455243313135353A2063616C6C6572206973206E6F74206F776E6572206E6F72 PUSH1 0x44 DUP3 ADD MSTORE PUSH9 0x8185C1C1C9BDD9959 PUSH1 0xBA SHL PUSH1 0x64 DUP3 ADD MSTORE PUSH1 0x84 ADD PUSH2 0x35F JUMP JUMPDEST PUSH2 0xDAE DUP6 DUP6 DUP6 DUP6 DUP6 PUSH2 0x2076 JUMP JUMPDEST DUP1 MLOAD PUSH1 0x60 SWAP1 DUP1 PUSH2 0x1772 JUMPI POP POP PUSH1 0x40 DUP1 MLOAD PUSH1 0x20 DUP2 ADD SWAP1 SWAP2 MSTORE PUSH1 0x0 DUP2 MSTORE SWAP2 SWAP1 POP JUMP JUMPDEST PUSH1 0x0 PUSH1 0x3 PUSH2 0x1781 DUP4 PUSH1 0x2 PUSH2 0x3424 JUMP JUMPDEST PUSH2 0x178B SWAP2 SWAP1 PUSH2 0x343C JUMP JUMPDEST PUSH2 0x1796 SWAP1 PUSH1 0x4 PUSH2 0x3450 JUMP JUMPDEST SWAP1 POP PUSH1 0x0 PUSH2 0x17A5 DUP3 PUSH1 0x20 PUSH2 0x3424 JUMP JUMPDEST PUSH1 0x1 PUSH1 0x1 PUSH1 0x40 SHL SUB DUP2 GT ISZERO PUSH2 0x17BC JUMPI PUSH2 0x17BC PUSH2 0x358A JUMP JUMPDEST PUSH1 0x40 MLOAD SWAP1 DUP1 DUP3 MSTORE DUP1 PUSH1 0x1F ADD PUSH1 0x1F NOT AND PUSH1 0x20 ADD DUP3 ADD PUSH1 0x40 MSTORE DUP1 ISZERO PUSH2 0x17E6 JUMPI PUSH1 0x20 DUP3 ADD DUP2 DUP1 CALLDATASIZE DUP4 CALLDATACOPY ADD SWAP1 POP JUMPDEST POP SWAP1 POP PUSH1 0x0 PUSH1 0x40 MLOAD DUP1 PUSH1 0x60 ADD PUSH1 0x40 MSTORE DUP1 PUSH1 0x40 DUP2 MSTORE PUSH1 0x20 ADD PUSH2 0x365F PUSH1 0x40 SWAP2 CODECOPY SWAP1 POP PUSH1 0x1 DUP2 ADD PUSH1 0x20 DUP4 ADD PUSH1 0x0 JUMPDEST DUP7 DUP2 LT ISZERO PUSH2 0x1872 JUMPI PUSH1 0x3 DUP2 DUP11 ADD DUP2 ADD MLOAD PUSH1 0x3F PUSH1 0x12 DUP3 SWAP1 SHR DUP2 AND DUP7 ADD MLOAD PUSH1 0xC DUP4 SWAP1 SHR DUP3 AND DUP8 ADD MLOAD PUSH1 0x6 DUP5 SWAP1 SHR DUP4 AND DUP9 ADD MLOAD SWAP3 SWAP1 SWAP4 AND DUP8 ADD MLOAD PUSH1 0x8 SWAP2 DUP3 SHL PUSH1 0xFF SWAP5 DUP6 AND ADD DUP3 SHL SWAP3 DUP5 AND SWAP3 SWAP1 SWAP3 ADD SWAP1 SHL SWAP2 AND ADD PUSH1 0xE0 SHL DUP4 MSTORE PUSH1 0x4 SWAP1 SWAP3 ADD SWAP2 ADD PUSH2 0x1811 JUMP JUMPDEST POP PUSH1 0x3 DUP7 MOD PUSH1 0x1 DUP2 EQ PUSH2 0x188C JUMPI PUSH1 0x2 DUP2 EQ PUSH2 0x189D JUMPI PUSH2 0x18A9 JUMP JUMPDEST PUSH2 0x3D3D PUSH1 0xF0 SHL PUSH1 0x1 NOT DUP4 ADD MSTORE PUSH2 0x18A9 JUMP JUMPDEST PUSH1 0x3D PUSH1 0xF8 SHL PUSH1 0x0 NOT DUP4 ADD MSTORE JUMPDEST POP POP POP SWAP2 DUP2 MSTORE SWAP5 SWAP4 POP POP POP POP JUMP JUMPDEST PUSH1 0x60 DUP2 PUSH2 0x18DB JUMPI POP POP PUSH1 0x40 DUP1 MLOAD DUP1 DUP3 ADD SWAP1 SWAP2 MSTORE PUSH1 0x1 DUP2 MSTORE PUSH1 0x3 PUSH1 0xFC SHL PUSH1 0x20 DUP3 ADD MSTORE SWAP1 JUMP JUMPDEST DUP2 PUSH1 0x0 JUMPDEST DUP2 ISZERO PUSH2 0x1905 JUMPI DUP1 PUSH2 0x18EF DUP2 PUSH2 0x3519 JUMP JUMPDEST SWAP2 POP PUSH2 0x18FE SWAP1 POP PUSH1 0xA DUP4 PUSH2 0x343C JUMP JUMPDEST SWAP2 POP PUSH2 0x18DF JUMP JUMPDEST PUSH1 0x0 DUP2 PUSH1 0x1 PUSH1 0x1 PUSH1 0x40 SHL SUB DUP2 GT ISZERO PUSH2 0x191F JUMPI PUSH2 0x191F PUSH2 0x358A JUMP JUMPDEST PUSH1 0x40 MLOAD SWAP1 DUP1 DUP3 MSTORE DUP1 PUSH1 0x1F ADD PUSH1 0x1F NOT AND PUSH1 0x20 ADD DUP3 ADD PUSH1 0x40 MSTORE DUP1 ISZERO PUSH2 0x1949 JUMPI PUSH1 0x20 DUP3 ADD DUP2 DUP1 CALLDATASIZE DUP4 CALLDATACOPY ADD SWAP1 POP JUMPDEST POP SWAP1 POP JUMPDEST DUP5 ISZERO PUSH2 0x19B4 JUMPI PUSH2 0x195E PUSH1 0x1 DUP4 PUSH2 0x346F JUMP JUMPDEST SWAP2 POP PUSH2 0x196B PUSH1 0xA DUP7 PUSH2 0x3534 JUMP JUMPDEST PUSH2 0x1976 SWAP1 PUSH1 0x30 PUSH2 0x3424 JUMP JUMPDEST PUSH1 0xF8 SHL DUP2 DUP4 DUP2 MLOAD DUP2 LT PUSH2 0x198B JUMPI PUSH2 0x198B PUSH2 0x3574 JUMP JUMPDEST PUSH1 0x20 ADD ADD SWAP1 PUSH1 0x1 PUSH1 0x1 PUSH1 0xF8 SHL SUB NOT AND SWAP1 DUP2 PUSH1 0x0 BYTE SWAP1 MSTORE8 POP PUSH2 0x19AD PUSH1 0xA DUP7 PUSH2 0x343C JUMP JUMPDEST SWAP5 POP PUSH2 0x194D JUMP JUMPDEST SWAP5 SWAP4 POP POP POP POP JUMP JUMPDEST DUP2 MLOAD DUP4 MLOAD EQ PUSH2 0x1A1E JUMPI PUSH1 0x40 MLOAD PUSH3 0x461BCD PUSH1 0xE5 SHL DUP2 MSTORE PUSH1 0x20 PUSH1 0x4 DUP3 ADD MSTORE PUSH1 0x28 PUSH1 0x24 DUP3 ADD MSTORE PUSH32 0x455243313135353A2069647320616E6420616D6F756E7473206C656E67746820 PUSH1 0x44 DUP3 ADD MSTORE PUSH8 0xDAD2E6DAC2E8C6D PUSH1 0xC3 SHL PUSH1 0x64 DUP3 ADD MSTORE PUSH1 0x84 ADD PUSH2 0x35F JUMP JUMPDEST PUSH1 0x1 PUSH1 0x1 PUSH1 0xA0 SHL SUB DUP5 AND PUSH2 0x1A44 JUMPI PUSH1 0x40 MLOAD PUSH3 0x461BCD PUSH1 0xE5 SHL DUP2 MSTORE PUSH1 0x4 ADD PUSH2 0x35F SWAP1 PUSH2 0x328B JUMP JUMPDEST CALLER PUSH1 0x0 JUMPDEST DUP5 MLOAD DUP2 LT ISZERO PUSH2 0x1BAF JUMPI PUSH1 0x0 DUP6 DUP3 DUP2 MLOAD DUP2 LT PUSH2 0x1A65 JUMPI PUSH2 0x1A65 PUSH2 0x3574 JUMP JUMPDEST PUSH1 0x20 MUL PUSH1 0x20 ADD ADD MLOAD SWAP1 POP PUSH1 0x0 DUP6 DUP4 DUP2 MLOAD DUP2 LT PUSH2 0x1A83 JUMPI PUSH2 0x1A83 PUSH2 0x3574 JUMP JUMPDEST PUSH1 0x20 SWAP1 DUP2 MUL SWAP2 SWAP1 SWAP2 ADD DUP2 ADD MLOAD PUSH1 0x0 DUP5 DUP2 MSTORE DUP1 DUP4 MSTORE PUSH1 0x40 DUP1 DUP3 KECCAK256 PUSH1 0x1 PUSH1 0x1 PUSH1 0xA0 SHL SUB DUP15 AND DUP4 MSTORE SWAP1 SWAP4 MSTORE SWAP2 SWAP1 SWAP2 KECCAK256 SLOAD SWAP1 SWAP2 POP DUP2 DUP2 LT ISZERO PUSH2 0x1AD3 JUMPI PUSH1 0x40 MLOAD PUSH3 0x461BCD PUSH1 0xE5 SHL DUP2 MSTORE PUSH1 0x4 ADD PUSH2 0x35F SWAP1 PUSH2 0x32D0 JUMP JUMPDEST PUSH1 0x0 DUP4 DUP2 MSTORE PUSH1 0x20 DUP2 DUP2 MSTORE PUSH1 0x40 DUP1 DUP4 KECCAK256 PUSH1 0x1 PUSH1 0x1 PUSH1 0xA0 SHL SUB DUP15 DUP2 AND DUP6 MSTORE SWAP3 MSTORE DUP1 DUP4 KECCAK256 DUP6 DUP6 SUB SWAP1 SSTORE SWAP1 DUP12 AND DUP3 MSTORE DUP2 KECCAK256 DUP1 SLOAD DUP5 SWAP3 SWAP1 PUSH2 0x1B10 SWAP1 DUP5 SWAP1 PUSH2 0x3424 JUMP JUMPDEST SWAP1 SWAP2 SSTORE POP POP PUSH1 0x1 PUSH1 0x1 PUSH1 0xA0 SHL SUB DUP10 AND PUSH1 0x0 SWAP1 DUP2 MSTORE PUSH1 0x2 PUSH1 0x20 MSTORE PUSH1 0x40 SWAP1 KECCAK256 SLOAD PUSH1 0xFF AND PUSH2 0x1B9B JUMPI PUSH1 0x1 PUSH1 0x1 PUSH1 0xA0 SHL SUB DUP10 AND PUSH1 0x0 DUP2 DUP2 MSTORE PUSH1 0x2 PUSH1 0x20 MSTORE PUSH1 0x40 DUP2 KECCAK256 DUP1 SLOAD PUSH1 0xFF NOT AND PUSH1 0x1 SWAP1 DUP2 OR SWAP1 SWAP2 SSTORE PUSH1 0x3 DUP1 SLOAD SWAP2 DUP3 ADD DUP2 SSTORE SWAP1 SWAP2 MSTORE PUSH32 0xC2575A0E9E593C00F959F8C92F12DB2869C3395A3B0502D05E2516446F71F85B ADD DUP1 SLOAD PUSH1 0x1 PUSH1 0x1 PUSH1 0xA0 SHL SUB NOT AND SWAP1 SWAP2 OR SWAP1 SSTORE JUMPDEST POP POP POP DUP1 PUSH2 0x1BA8 SWAP1 PUSH2 0x3519 JUMP JUMPDEST SWAP1 POP PUSH2 0x1A48 JUMP JUMPDEST POP DUP5 PUSH1 0x1 PUSH1 0x1 PUSH1 0xA0 SHL SUB AND DUP7 PUSH1 0x1 PUSH1 0x1 PUSH1 0xA0 SHL SUB AND DUP3 PUSH1 0x1 PUSH1 0x1 PUSH1 0xA0 SHL SUB AND PUSH32 0x4A39DC06D4C0DBC64B70AF90FD698A233A518AA5D07E595D983B8C0526C8F7FB DUP8 DUP8 PUSH1 0x40 MLOAD PUSH2 0x1BFF SWAP3 SWAP2 SWAP1 PUSH2 0x31D3 JUMP JUMPDEST PUSH1 0x40 MLOAD DUP1 SWAP2 SUB SWAP1 LOG4 PUSH2 0x1C15 DUP2 DUP8 DUP8 DUP8 DUP8 DUP8 PUSH2 0x222E JUMP JUMPDEST POP POP POP POP POP POP JUMP JUMPDEST PUSH1 0x1 PUSH1 0x1 PUSH1 0xA0 SHL SUB DUP5 AND PUSH2 0x1C7D JUMPI PUSH1 0x40 MLOAD PUSH3 0x461BCD PUSH1 0xE5 SHL DUP2 MSTORE PUSH1 0x20 PUSH1 0x4 DUP3 ADD MSTORE PUSH1 0x21 PUSH1 0x24 DUP3 ADD MSTORE PUSH32 0x455243313135353A206D696E7420746F20746865207A65726F20616464726573 PUSH1 0x44 DUP3 ADD MSTORE PUSH1 0x73 PUSH1 0xF8 SHL PUSH1 0x64 DUP3 ADD MSTORE PUSH1 0x84 ADD PUSH2 0x35F JUMP JUMPDEST CALLER PUSH1 0x0 PUSH2 0x1C89 DUP6 PUSH2 0x2399 JUMP JUMPDEST SWAP1 POP PUSH1 0x0 PUSH2 0x1C96 DUP6 PUSH2 0x2399 JUMP JUMPDEST SWAP1 POP PUSH1 0x0 DUP7 DUP2 MSTORE PUSH1 0x20 DUP2 DUP2 MSTORE PUSH1 0x40 DUP1 DUP4 KECCAK256 PUSH1 0x1 PUSH1 0x1 PUSH1 0xA0 SHL SUB DUP12 AND DUP5 MSTORE SWAP1 SWAP2 MSTORE DUP2 KECCAK256 DUP1 SLOAD DUP8 SWAP3 SWAP1 PUSH2 0x1CC8 SWAP1 DUP5 SWAP1 PUSH2 0x3424 JUMP JUMPDEST SWAP1 SWAP2 SSTORE POP POP PUSH1 0x1 PUSH1 0x1 PUSH1 0xA0 SHL SUB DUP8 AND PUSH1 0x0 SWAP1 DUP2 MSTORE PUSH1 0x2 PUSH1 0x20 MSTORE PUSH1 0x40 SWAP1 KECCAK256 SLOAD PUSH1 0xFF AND PUSH2 0x1D53 JUMPI PUSH1 0x1 PUSH1 0x1 PUSH1 0xA0 SHL SUB DUP8 AND PUSH1 0x0 DUP2 DUP2 MSTORE PUSH1 0x2 PUSH1 0x20 MSTORE PUSH1 0x40 DUP2 KECCAK256 DUP1 SLOAD PUSH1 0xFF NOT AND PUSH1 0x1 SWAP1 DUP2 OR SWAP1 SWAP2 SSTORE PUSH1 0x3 DUP1 SLOAD SWAP2 DUP3 ADD DUP2 SSTORE SWAP1 SWAP2 MSTORE PUSH32 0xC2575A0E9E593C00F959F8C92F12DB2869C3395A3B0502D05E2516446F71F85B ADD DUP1 SLOAD PUSH1 0x1 PUSH1 0x1 PUSH1 0xA0 SHL SUB NOT AND SWAP1 SWAP2 OR SWAP1 SSTORE JUMPDEST PUSH1 0x40 DUP1 MLOAD DUP8 DUP2 MSTORE PUSH1 0x20 DUP2 ADD DUP8 SWAP1 MSTORE PUSH1 0x1 PUSH1 0x1 PUSH1 0xA0 SHL SUB DUP1 DUP11 AND SWAP3 PUSH1 0x0 SWAP3 SWAP2 DUP8 AND SWAP2 PUSH32 0xC3D58168C5AE7397731D063D5BBF3D657854427343F4C083240F7AACAA2D0F62 SWAP2 ADD PUSH1 0x40 MLOAD DUP1 SWAP2 SUB SWAP1 LOG4 PUSH2 0x1DAE DUP4 PUSH1 0x0 DUP10 DUP10 DUP10 DUP10 PUSH2 0x23E4 JUMP JUMPDEST POP POP POP POP POP POP POP JUMP JUMPDEST PUSH1 0x1 PUSH1 0x1 PUSH1 0xA0 SHL SUB DUP4 AND PUSH2 0x1E19 JUMPI PUSH1 0x40 MLOAD PUSH3 0x461BCD PUSH1 0xE5 SHL DUP2 MSTORE PUSH1 0x20 PUSH1 0x4 DUP3 ADD MSTORE PUSH1 0x23 PUSH1 0x24 DUP3 ADD MSTORE PUSH32 0x455243313135353A206275726E2066726F6D20746865207A65726F2061646472 PUSH1 0x44 DUP3 ADD MSTORE PUSH3 0x657373 PUSH1 0xE8 SHL PUSH1 0x64 DUP3 ADD MSTORE PUSH1 0x84 ADD PUSH2 0x35F JUMP JUMPDEST CALLER PUSH1 0x0 PUSH2 0x1E25 DUP5 PUSH2 0x2399 JUMP JUMPDEST SWAP1 POP PUSH1 0x0 PUSH2 0x1E32 DUP5 PUSH2 0x2399 JUMP JUMPDEST PUSH1 0x40 DUP1 MLOAD PUSH1 0x20 DUP1 DUP3 ADD DUP4 MSTORE PUSH1 0x0 SWAP2 DUP3 SWAP1 MSTORE DUP9 DUP3 MSTORE DUP2 DUP2 MSTORE DUP3 DUP3 KECCAK256 PUSH1 0x1 PUSH1 0x1 PUSH1 0xA0 SHL SUB DUP12 AND DUP4 MSTORE SWAP1 MSTORE KECCAK256 SLOAD SWAP1 SWAP2 POP DUP5 DUP2 LT ISZERO PUSH2 0x1EBB JUMPI PUSH1 0x40 MLOAD PUSH3 0x461BCD PUSH1 0xE5 SHL DUP2 MSTORE PUSH1 0x20 PUSH1 0x4 DUP3 ADD MSTORE PUSH1 0x24 DUP1 DUP3 ADD MSTORE PUSH32 0x455243313135353A206275726E20616D6F756E7420657863656564732062616C PUSH1 0x44 DUP3 ADD MSTORE PUSH4 0x616E6365 PUSH1 0xE0 SHL PUSH1 0x64 DUP3 ADD MSTORE PUSH1 0x84 ADD PUSH2 0x35F JUMP JUMPDEST PUSH1 0x0 DUP7 DUP2 MSTORE PUSH1 0x20 DUP2 DUP2 MSTORE PUSH1 0x40 DUP1 DUP4 KECCAK256 PUSH1 0x1 PUSH1 0x1 PUSH1 0xA0 SHL SUB DUP12 DUP2 AND DUP1 DUP7 MSTORE SWAP2 DUP5 MSTORE DUP3 DUP6 KECCAK256 DUP11 DUP8 SUB SWAP1 SSTORE DUP3 MLOAD DUP12 DUP2 MSTORE SWAP4 DUP5 ADD DUP11 SWAP1 MSTORE SWAP1 SWAP3 SWAP1 DUP9 AND SWAP2 PUSH32 0xC3D58168C5AE7397731D063D5BBF3D657854427343F4C083240F7AACAA2D0F62 SWAP2 ADD PUSH1 0x40 MLOAD DUP1 SWAP2 SUB SWAP1 LOG4 PUSH1 0x40 DUP1 MLOAD PUSH1 0x20 DUP2 ADD SWAP1 SWAP2 MSTORE PUSH1 0x0 SWAP1 MSTORE PUSH2 0x1DAE JUMP JUMPDEST DUP2 PUSH1 0x1 PUSH1 0x1 PUSH1 0xA0 SHL SUB AND DUP4 PUSH1 0x1 PUSH1 0x1 PUSH1 0xA0 SHL SUB AND EQ ISZERO PUSH2 0x1FA7 JUMPI PUSH1 0x40 MLOAD PUSH3 0x461BCD PUSH1 0xE5 SHL DUP2 MSTORE PUSH1 0x20 PUSH1 0x4 DUP3 ADD MSTORE PUSH1 0x29 PUSH1 0x24 DUP3 ADD MSTORE PUSH32 0x455243313135353A2073657474696E6720617070726F76616C20737461747573 PUSH1 0x44 DUP3 ADD MSTORE PUSH9 0x103337B91039B2B633 PUSH1 0xB9 SHL PUSH1 0x64 DUP3 ADD MSTORE PUSH1 0x84 ADD PUSH2 0x35F JUMP JUMPDEST PUSH1 0x1 PUSH1 0x1 PUSH1 0xA0 SHL SUB DUP4 DUP2 AND PUSH1 0x0 DUP2 DUP2 MSTORE PUSH1 0x1 PUSH1 0x20 SWAP1 DUP2 MSTORE PUSH1 0x40 DUP1 DUP4 KECCAK256 SWAP5 DUP8 AND DUP1 DUP5 MSTORE SWAP5 DUP3 MSTORE SWAP2 DUP3 SWAP1 KECCAK256 DUP1 SLOAD PUSH1 0xFF NOT AND DUP7 ISZERO ISZERO SWAP1 DUP2 OR SWAP1 SWAP2 SSTORE SWAP2 MLOAD SWAP2 DUP3 MSTORE PUSH32 0x17307EAB39AB6107E8899845AD3D59BD9653F200F220920489CA2B5937696C31 SWAP2 ADD PUSH1 0x40 MLOAD DUP1 SWAP2 SUB SWAP1 LOG3 POP POP POP JUMP JUMPDEST PUSH1 0x60 PUSH1 0x3 DUP1 SLOAD DUP1 PUSH1 0x20 MUL PUSH1 0x20 ADD PUSH1 0x40 MLOAD SWAP1 DUP2 ADD PUSH1 0x40 MSTORE DUP1 SWAP3 SWAP2 SWAP1 DUP2 DUP2 MSTORE PUSH1 0x20 ADD DUP3 DUP1 SLOAD DUP1 ISZERO PUSH2 0x206C JUMPI PUSH1 0x20 MUL DUP3 ADD SWAP2 SWAP1 PUSH1 0x0 MSTORE PUSH1 0x20 PUSH1 0x0 KECCAK256 SWAP1 JUMPDEST DUP2 SLOAD PUSH1 0x1 PUSH1 0x1 PUSH1 0xA0 SHL SUB AND DUP2 MSTORE PUSH1 0x1 SWAP1 SWAP2 ADD SWAP1 PUSH1 0x20 ADD DUP1 DUP4 GT PUSH2 0x204E JUMPI JUMPDEST POP POP POP POP POP SWAP1 POP SWAP1 JUMP JUMPDEST PUSH1 0x1 PUSH1 0x1 PUSH1 0xA0 SHL SUB DUP5 AND PUSH2 0x209C JUMPI PUSH1 0x40 MLOAD PUSH3 0x461BCD PUSH1 0xE5 SHL DUP2 MSTORE PUSH1 0x4 ADD PUSH2 0x35F SWAP1 PUSH2 0x328B JUMP JUMPDEST CALLER PUSH1 0x0 PUSH2 0x20A8 DUP6 PUSH2 0x2399 JUMP JUMPDEST SWAP1 POP PUSH1 0x0 PUSH2 0x20B5 DUP6 PUSH2 0x2399 JUMP JUMPDEST SWAP1 POP PUSH1 0x0 DUP7 DUP2 MSTORE PUSH1 0x20 DUP2 DUP2 MSTORE PUSH1 0x40 DUP1 DUP4 KECCAK256 PUSH1 0x1 PUSH1 0x1 PUSH1 0xA0 SHL SUB DUP13 AND DUP5 MSTORE SWAP1 SWAP2 MSTORE SWAP1 KECCAK256 SLOAD DUP6 DUP2 LT ISZERO PUSH2 0x20F8 JUMPI PUSH1 0x40 MLOAD PUSH3 0x461BCD PUSH1 0xE5 SHL DUP2 MSTORE PUSH1 0x4 ADD PUSH2 0x35F SWAP1 PUSH2 0x32D0 JUMP JUMPDEST PUSH1 0x0 DUP8 DUP2 MSTORE PUSH1 0x20 DUP2 DUP2 MSTORE PUSH1 0x40 DUP1 DUP4 KECCAK256 PUSH1 0x1 PUSH1 0x1 PUSH1 0xA0 SHL SUB DUP14 DUP2 AND DUP6 MSTORE SWAP3 MSTORE DUP1 DUP4 KECCAK256 DUP10 DUP6 SUB SWAP1 SSTORE SWAP1 DUP11 AND DUP3 MSTORE DUP2 KECCAK256 DUP1 SLOAD DUP9 SWAP3 SWAP1 PUSH2 0x2135 SWAP1 DUP5 SWAP1 PUSH2 0x3424 JUMP JUMPDEST SWAP1 SWAP2 SSTORE POP POP PUSH1 0x1 PUSH1 0x1 PUSH1 0xA0 SHL SUB DUP9 AND PUSH1 0x0 SWAP1 DUP2 MSTORE PUSH1 0x2 PUSH1 0x20 MSTORE PUSH1 0x40 SWAP1 KECCAK256 SLOAD PUSH1 0xFF AND PUSH2 0x21C0 JUMPI PUSH1 0x1 PUSH1 0x1 PUSH1 0xA0 SHL SUB DUP9 AND PUSH1 0x0 DUP2 DUP2 MSTORE PUSH1 0x2 PUSH1 0x20 MSTORE PUSH1 0x40 DUP2 KECCAK256 DUP1 SLOAD PUSH1 0xFF NOT AND PUSH1 0x1 SWAP1 DUP2 OR SWAP1 SWAP2 SSTORE PUSH1 0x3 DUP1 SLOAD SWAP2 DUP3 ADD DUP2 SSTORE SWAP1 SWAP2 MSTORE PUSH32 0xC2575A0E9E593C00F959F8C92F12DB2869C3395A3B0502D05E2516446F71F85B ADD DUP1 SLOAD PUSH1 0x1 PUSH1 0x1 PUSH1 0xA0 SHL SUB NOT AND SWAP1 SWAP2 OR SWAP1 SSTORE JUMPDEST DUP8 PUSH1 0x1 PUSH1 0x1 PUSH1 0xA0 SHL SUB AND DUP10 PUSH1 0x1 PUSH1 0x1 PUSH1 0xA0 SHL SUB AND DUP6 PUSH1 0x1 PUSH1 0x1 PUSH1 0xA0 SHL SUB AND PUSH32 0xC3D58168C5AE7397731D063D5BBF3D657854427343F4C083240F7AACAA2D0F62 DUP11 DUP11 PUSH1 0x40 MLOAD PUSH2 0x2218 SWAP3 SWAP2 SWAP1 SWAP2 DUP3 MSTORE PUSH1 0x20 DUP3 ADD MSTORE PUSH1 0x40 ADD SWAP1 JUMP JUMPDEST PUSH1 0x40 MLOAD DUP1 SWAP2 SUB SWAP1 LOG4 PUSH2 0x129E DUP5 DUP11 DUP11 DUP11 DUP11 DUP11 PUSH2 0x23E4 JUMP JUMPDEST PUSH1 0x1 PUSH1 0x1 PUSH1 0xA0 SHL SUB DUP5 AND EXTCODESIZE ISZERO PUSH2 0x1C15 JUMPI PUSH1 0x40 MLOAD PUSH4 0xBC197C81 PUSH1 0xE0 SHL DUP2 MSTORE PUSH1 0x1 PUSH1 0x1 PUSH1 0xA0 SHL SUB DUP6 AND SWAP1 PUSH4 0xBC197C81 SWAP1 PUSH2 0x2272 SWAP1 DUP10 SWAP1 DUP10 SWAP1 DUP9 SWAP1 DUP9 SWAP1 DUP9 SWAP1 PUSH1 0x4 ADD PUSH2 0x30DC JUMP JUMPDEST PUSH1 0x20 PUSH1 0x40 MLOAD DUP1 DUP4 SUB DUP2 PUSH1 0x0 DUP8 DUP1 EXTCODESIZE ISZERO DUP1 ISZERO PUSH2 0x228C JUMPI PUSH1 0x0 DUP1 REVERT JUMPDEST POP GAS CALL SWAP3 POP POP POP DUP1 ISZERO PUSH2 0x22BC JUMPI POP PUSH1 0x40 DUP1 MLOAD PUSH1 0x1F RETURNDATASIZE SWAP1 DUP2 ADD PUSH1 0x1F NOT AND DUP3 ADD SWAP1 SWAP3 MSTORE PUSH2 0x22B9 SWAP2 DUP2 ADD SWAP1 PUSH2 0x296A JUMP JUMPDEST PUSH1 0x1 JUMPDEST PUSH2 0x2369 JUMPI PUSH2 0x22C8 PUSH2 0x35A0 JUMP JUMPDEST DUP1 PUSH4 0x8C379A0 EQ ISZERO PUSH2 0x2302 JUMPI POP PUSH2 0x22DD PUSH2 0x35BC JUMP JUMPDEST DUP1 PUSH2 0x22E8 JUMPI POP PUSH2 0x2304 JUMP JUMPDEST DUP1 PUSH1 0x40 MLOAD PUSH3 0x461BCD PUSH1 0xE5 SHL DUP2 MSTORE PUSH1 0x4 ADD PUSH2 0x35F SWAP2 SWAP1 PUSH2 0x3201 JUMP JUMPDEST POP JUMPDEST PUSH1 0x40 MLOAD PUSH3 0x461BCD PUSH1 0xE5 SHL DUP2 MSTORE PUSH1 0x20 PUSH1 0x4 DUP3 ADD MSTORE PUSH1 0x34 PUSH1 0x24 DUP3 ADD MSTORE PUSH32 0x455243313135353A207472616E7366657220746F206E6F6E2045524331313535 PUSH1 0x44 DUP3 ADD MSTORE PUSH20 0x2932B1B2B4BB32B91034B6B83632B6B2B73A32B9 PUSH1 0x61 SHL PUSH1 0x64 DUP3 ADD MSTORE PUSH1 0x84 ADD PUSH2 0x35F JUMP JUMPDEST PUSH1 0x1 PUSH1 0x1 PUSH1 0xE0 SHL SUB NOT DUP2 AND PUSH4 0xBC197C81 PUSH1 0xE0 SHL EQ PUSH2 0x1DAE JUMPI PUSH1 0x40 MLOAD PUSH3 0x461BCD PUSH1 0xE5 SHL DUP2 MSTORE PUSH1 0x4 ADD PUSH2 0x35F SWAP1 PUSH2 0x3214 JUMP JUMPDEST PUSH1 0x40 DUP1 MLOAD PUSH1 0x1 DUP1 DUP3 MSTORE DUP2 DUP4 ADD SWAP1 SWAP3 MSTORE PUSH1 0x60 SWAP2 PUSH1 0x0 SWAP2 SWAP1 PUSH1 0x20 DUP1 DUP4 ADD SWAP1 DUP1 CALLDATASIZE DUP4 CALLDATACOPY ADD SWAP1 POP POP SWAP1 POP DUP3 DUP2 PUSH1 0x0 DUP2 MLOAD DUP2 LT PUSH2 0x23D3 JUMPI PUSH2 0x23D3 PUSH2 0x3574 JUMP JUMPDEST PUSH1 0x20 SWAP1 DUP2 MUL SWAP2 SWAP1 SWAP2 ADD ADD MSTORE SWAP3 SWAP2 POP POP JUMP JUMPDEST PUSH1 0x1 PUSH1 0x1 PUSH1 0xA0 SHL SUB DUP5 AND EXTCODESIZE ISZERO PUSH2 0x1C15 JUMPI PUSH1 0x40 MLOAD PUSH4 0xF23A6E61 PUSH1 0xE0 SHL DUP2 MSTORE PUSH1 0x1 PUSH1 0x1 PUSH1 0xA0 SHL SUB DUP6 AND SWAP1 PUSH4 0xF23A6E61 SWAP1 PUSH2 0x2428 SWAP1 DUP10 SWAP1 DUP10 SWAP1 DUP9 SWAP1 DUP9 SWAP1 DUP9 SWAP1 PUSH1 0x4 ADD PUSH2 0x312E JUMP JUMPDEST PUSH1 0x20 PUSH1 0x40 MLOAD DUP1 DUP4 SUB DUP2 PUSH1 0x0 DUP8 DUP1 EXTCODESIZE ISZERO DUP1 ISZERO PUSH2 0x2442 JUMPI PUSH1 0x0 DUP1 REVERT JUMPDEST POP GAS CALL SWAP3 POP POP POP DUP1 ISZERO PUSH2 0x2472 JUMPI POP PUSH1 0x40 DUP1 MLOAD PUSH1 0x1F RETURNDATASIZE SWAP1 DUP2 ADD PUSH1 0x1F NOT AND DUP3 ADD SWAP1 SWAP3 MSTORE PUSH2 0x246F SWAP2 DUP2 ADD SWAP1 PUSH2 0x296A JUMP JUMPDEST PUSH1 0x1 JUMPDEST PUSH2 0x247E JUMPI PUSH2 0x22C8 PUSH2 0x35A0 JUMP JUMPDEST PUSH1 0x1 PUSH1 0x1 PUSH1 0xE0 SHL SUB NOT DUP2 AND PUSH4 0xF23A6E61 PUSH1 0xE0 SHL EQ PUSH2 0x1DAE JUMPI PUSH1 0x40 MLOAD PUSH3 0x461BCD PUSH1 0xE5 SHL DUP2 MSTORE PUSH1 0x4 ADD PUSH2 0x35F SWAP1 PUSH2 0x3214 JUMP JUMPDEST DUP3 DUP1 SLOAD PUSH2 0x24BA SWAP1 PUSH2 0x34B2 JUMP JUMPDEST SWAP1 PUSH1 0x0 MSTORE PUSH1 0x20 PUSH1 0x0 KECCAK256 SWAP1 PUSH1 0x1F ADD PUSH1 0x20 SWAP1 DIV DUP2 ADD SWAP3 DUP3 PUSH2 0x24DC JUMPI PUSH1 0x0 DUP6 SSTORE PUSH2 0x2522 JUMP JUMPDEST DUP3 PUSH1 0x1F LT PUSH2 0x24F5 JUMPI DUP1 MLOAD PUSH1 0xFF NOT AND DUP4 DUP1 ADD OR DUP6 SSTORE PUSH2 0x2522 JUMP JUMPDEST DUP3 DUP1 ADD PUSH1 0x1 ADD DUP6 SSTORE DUP3 ISZERO PUSH2 0x2522 JUMPI SWAP2 DUP3 ADD JUMPDEST DUP3 DUP2 GT ISZERO PUSH2 0x2522 JUMPI DUP3 MLOAD DUP3 SSTORE SWAP2 PUSH1 0x20 ADD SWAP2 SWAP1 PUSH1 0x1 ADD SWAP1 PUSH2 0x2507 JUMP JUMPDEST POP PUSH2 0x252E SWAP3 SWAP2 POP PUSH2 0x2532 JUMP JUMPDEST POP SWAP1 JUMP JUMPDEST JUMPDEST DUP1 DUP3 GT ISZERO PUSH2 0x252E JUMPI PUSH1 0x0 DUP2 SSTORE PUSH1 0x1 ADD PUSH2 0x2533 JUMP JUMPDEST DUP1 CALLDATALOAD PUSH1 0x1 PUSH1 0x1 PUSH1 0xA0 SHL SUB DUP2 AND DUP2 EQ PUSH2 0x255E JUMPI PUSH1 0x0 DUP1 REVERT JUMPDEST SWAP2 SWAP1 POP JUMP JUMPDEST PUSH1 0x0 DUP3 PUSH1 0x1F DUP4 ADD SLT PUSH2 0x2574 JUMPI PUSH1 0x0 DUP1 REVERT JUMPDEST DUP2 CALLDATALOAD PUSH1 0x20 PUSH2 0x2581 DUP3 PUSH2 0x33DA JUMP JUMPDEST PUSH1 0x40 MLOAD PUSH2 0x258E DUP3 DUP3 PUSH2 0x34ED JUMP JUMPDEST DUP4 DUP2 MSTORE DUP3 DUP2 ADD SWAP2 POP DUP6 DUP4 ADD PUSH1 0x5 DUP6 SWAP1 SHL DUP8 ADD DUP5 ADD DUP9 LT ISZERO PUSH2 0x25AE JUMPI PUSH1 0x0 DUP1 REVERT JUMPDEST PUSH1 0x0 JUMPDEST DUP6 DUP2 LT ISZERO PUSH2 0x25CD JUMPI DUP2 CALLDATALOAD DUP5 MSTORE SWAP3 DUP5 ADD SWAP3 SWAP1 DUP5 ADD SWAP1 PUSH1 0x1 ADD PUSH2 0x25B1 JUMP JUMPDEST POP SWAP1 SWAP8 SWAP7 POP POP POP POP POP POP POP JUMP JUMPDEST PUSH1 0x0 DUP3 PUSH1 0x1F DUP4 ADD SLT PUSH2 0x25EB JUMPI PUSH1 0x0 DUP1 REVERT JUMPDEST DUP2 CALLDATALOAD PUSH2 0x25F6 DUP2 PUSH2 0x33FD JUMP JUMPDEST PUSH1 0x40 MLOAD PUSH2 0x2603 DUP3 DUP3 PUSH2 0x34ED JUMP JUMPDEST DUP3 DUP2 MSTORE DUP6 PUSH1 0x20 DUP5 DUP8 ADD ADD GT ISZERO PUSH2 0x2618 JUMPI PUSH1 0x0 DUP1 REVERT JUMPDEST DUP3 PUSH1 0x20 DUP7 ADD PUSH1 0x20 DUP4 ADD CALLDATACOPY PUSH1 0x0 SWAP3 DUP2 ADD PUSH1 0x20 ADD SWAP3 SWAP1 SWAP3 MSTORE POP SWAP4 SWAP3 POP POP POP JUMP JUMPDEST DUP1 CALLDATALOAD PUSH2 0xFFFF DUP2 AND DUP2 EQ PUSH2 0x255E JUMPI PUSH1 0x0 DUP1 REVERT JUMPDEST PUSH1 0x0 PUSH1 0x20 DUP3 DUP5 SUB SLT ISZERO PUSH2 0x265A JUMPI PUSH1 0x0 DUP1 REVERT JUMPDEST PUSH2 0xD17 DUP3 PUSH2 0x2547 JUMP JUMPDEST PUSH1 0x0 DUP1 PUSH1 0x40 DUP4 DUP6 SUB SLT ISZERO PUSH2 0x2676 JUMPI PUSH1 0x0 DUP1 REVERT JUMPDEST PUSH2 0x267F DUP4 PUSH2 0x2547 JUMP JUMPDEST SWAP2 POP PUSH2 0x268D PUSH1 0x20 DUP5 ADD PUSH2 0x2547 JUMP JUMPDEST SWAP1 POP SWAP3 POP SWAP3 SWAP1 POP JUMP JUMPDEST PUSH1 0x0 DUP1 PUSH1 0x0 DUP1 PUSH1 0x0 PUSH1 0xA0 DUP7 DUP9 SUB SLT ISZERO PUSH2 0x26AE JUMPI PUSH1 0x0 DUP1 REVERT JUMPDEST PUSH2 0x26B7 DUP7 PUSH2 0x2547 JUMP JUMPDEST SWAP5 POP PUSH2 0x26C5 PUSH1 0x20 DUP8 ADD PUSH2 0x2547 JUMP JUMPDEST SWAP4 POP PUSH1 0x40 DUP7 ADD CALLDATALOAD PUSH1 0x1 PUSH1 0x1 PUSH1 0x40 SHL SUB DUP1 DUP3 GT ISZERO PUSH2 0x26E1 JUMPI PUSH1 0x0 DUP1 REVERT JUMPDEST PUSH2 0x26ED DUP10 DUP4 DUP11 ADD PUSH2 0x2563 JUMP JUMPDEST SWAP5 POP PUSH1 0x60 DUP9 ADD CALLDATALOAD SWAP2 POP DUP1 DUP3 GT ISZERO PUSH2 0x2703 JUMPI PUSH1 0x0 DUP1 REVERT JUMPDEST PUSH2 0x270F DUP10 DUP4 DUP11 ADD PUSH2 0x2563 JUMP JUMPDEST SWAP4 POP PUSH1 0x80 DUP9 ADD CALLDATALOAD SWAP2 POP DUP1 DUP3 GT ISZERO PUSH2 0x2725 JUMPI PUSH1 0x0 DUP1 REVERT JUMPDEST POP PUSH2 0x2732 DUP9 DUP3 DUP10 ADD PUSH2 0x25DA JUMP JUMPDEST SWAP2 POP POP SWAP3 SWAP6 POP SWAP3 SWAP6 SWAP1 SWAP4 POP JUMP JUMPDEST PUSH1 0x0 DUP1 PUSH1 0x0 DUP1 PUSH1 0x0 PUSH1 0xA0 DUP7 DUP9 SUB SLT ISZERO PUSH2 0x2757 JUMPI PUSH1 0x0 DUP1 REVERT JUMPDEST PUSH2 0x2760 DUP7 PUSH2 0x2547 JUMP JUMPDEST SWAP5 POP PUSH2 0x276E PUSH1 0x20 DUP8 ADD PUSH2 0x2547 JUMP JUMPDEST SWAP4 POP PUSH1 0x40 DUP7 ADD CALLDATALOAD SWAP3 POP PUSH1 0x60 DUP7 ADD CALLDATALOAD SWAP2 POP PUSH1 0x80 DUP7 ADD CALLDATALOAD PUSH1 0x1 PUSH1 0x1 PUSH1 0x40 SHL SUB DUP2 GT ISZERO PUSH2 0x2797 JUMPI PUSH1 0x0 DUP1 REVERT JUMPDEST PUSH2 0x2732 DUP9 DUP3 DUP10 ADD PUSH2 0x25DA JUMP JUMPDEST PUSH1 0x0 DUP1 PUSH1 0x40 DUP4 DUP6 SUB SLT ISZERO PUSH2 0x27B6 JUMPI PUSH1 0x0 DUP1 REVERT JUMPDEST PUSH2 0x27BF DUP4 PUSH2 0x2547 JUMP JUMPDEST SWAP2 POP PUSH1 0x20 DUP4 ADD CALLDATALOAD DUP1 ISZERO ISZERO DUP2 EQ PUSH2 0x27D4 JUMPI PUSH1 0x0 DUP1 REVERT JUMPDEST DUP1 SWAP2 POP POP SWAP3 POP SWAP3 SWAP1 POP JUMP JUMPDEST PUSH1 0x0 DUP1 PUSH1 0x40 DUP4 DUP6 SUB SLT ISZERO PUSH2 0x27F2 JUMPI PUSH1 0x0 DUP1 REVERT JUMPDEST PUSH2 0x27FB DUP4 PUSH2 0x2547 JUMP JUMPDEST SWAP5 PUSH1 0x20 SWAP4 SWAP1 SWAP4 ADD CALLDATALOAD SWAP4 POP POP POP JUMP JUMPDEST PUSH1 0x0 DUP1 PUSH1 0x40 DUP4 DUP6 SUB SLT ISZERO PUSH2 0x281C JUMPI PUSH1 0x0 DUP1 REVERT JUMPDEST DUP3 CALLDATALOAD PUSH1 0x1 PUSH1 0x1 PUSH1 0x40 SHL SUB DUP1 DUP3 GT ISZERO PUSH2 0x2833 JUMPI PUSH1 0x0 DUP1 REVERT JUMPDEST DUP2 DUP6 ADD SWAP2 POP DUP6 PUSH1 0x1F DUP4 ADD SLT PUSH2 0x2847 JUMPI PUSH1 0x0 DUP1 REVERT JUMPDEST DUP2 CALLDATALOAD PUSH1 0x20 PUSH2 0x2854 DUP3 PUSH2 0x33DA JUMP JUMPDEST PUSH1 0x40 MLOAD PUSH2 0x2861 DUP3 DUP3 PUSH2 0x34ED JUMP JUMPDEST DUP4 DUP2 MSTORE DUP3 DUP2 ADD SWAP2 POP DUP6 DUP4 ADD PUSH1 0x5 DUP6 SWAP1 SHL DUP8 ADD DUP5 ADD DUP12 LT ISZERO PUSH2 0x2881 JUMPI PUSH1 0x0 DUP1 REVERT JUMPDEST PUSH1 0x0 SWAP7 POP JUMPDEST DUP5 DUP8 LT ISZERO PUSH2 0x28AB JUMPI PUSH2 0x2897 DUP2 PUSH2 0x2547 JUMP JUMPDEST DUP4 MSTORE PUSH1 0x1 SWAP7 SWAP1 SWAP7 ADD SWAP6 SWAP2 DUP4 ADD SWAP2 DUP4 ADD PUSH2 0x2886 JUMP JUMPDEST POP SWAP7 POP POP DUP7 ADD CALLDATALOAD SWAP3 POP POP DUP1 DUP3 GT ISZERO PUSH2 0x28C2 JUMPI PUSH1 0x0 DUP1 REVERT JUMPDEST POP PUSH2 0x28CF DUP6 DUP3 DUP7 ADD PUSH2 0x2563 JUMP JUMPDEST SWAP2 POP POP SWAP3 POP SWAP3 SWAP1 POP JUMP JUMPDEST PUSH1 0x0 DUP1 PUSH1 0x20 DUP4 DUP6 SUB SLT ISZERO PUSH2 0x28EC JUMPI PUSH1 0x0 DUP1 REVERT JUMPDEST DUP3 CALLDATALOAD PUSH1 0x1 PUSH1 0x1 PUSH1 0x40 SHL SUB DUP1 DUP3 GT ISZERO PUSH2 0x2903 JUMPI PUSH1 0x0 DUP1 REVERT JUMPDEST DUP2 DUP6 ADD SWAP2 POP DUP6 PUSH1 0x1F DUP4 ADD SLT PUSH2 0x2917 JUMPI PUSH1 0x0 DUP1 REVERT JUMPDEST DUP2 CALLDATALOAD DUP2 DUP2 GT ISZERO PUSH2 0x2926 JUMPI PUSH1 0x0 DUP1 REVERT JUMPDEST DUP7 PUSH1 0x20 DUP3 PUSH1 0x5 SHL DUP6 ADD ADD GT ISZERO PUSH2 0x293B JUMPI PUSH1 0x0 DUP1 REVERT JUMPDEST PUSH1 0x20 SWAP3 SWAP1 SWAP3 ADD SWAP7 SWAP2 SWAP6 POP SWAP1 SWAP4 POP POP POP POP JUMP JUMPDEST PUSH1 0x0 PUSH1 0x20 DUP3 DUP5 SUB SLT ISZERO PUSH2 0x295F JUMPI PUSH1 0x0 DUP1 REVERT JUMPDEST DUP2 CALLDATALOAD PUSH2 0xD17 DUP2 PUSH2 0x3645 JUMP JUMPDEST PUSH1 0x0 PUSH1 0x20 DUP3 DUP5 SUB SLT ISZERO PUSH2 0x297C JUMPI PUSH1 0x0 DUP1 REVERT JUMPDEST DUP2 MLOAD PUSH2 0xD17 DUP2 PUSH2 0x3645 JUMP JUMPDEST PUSH1 0x0 PUSH1 0x20 DUP3 DUP5 SUB SLT ISZERO PUSH2 0x2999 JUMPI PUSH1 0x0 DUP1 REVERT JUMPDEST DUP2 CALLDATALOAD PUSH1 0x1 PUSH1 0x1 PUSH1 0x40 SHL SUB DUP2 GT ISZERO PUSH2 0x29AF JUMPI PUSH1 0x0 DUP1 REVERT JUMPDEST PUSH2 0x19B4 DUP5 DUP3 DUP6 ADD PUSH2 0x25DA JUMP JUMPDEST PUSH1 0x0 PUSH1 0x20 DUP3 DUP5 SUB SLT ISZERO PUSH2 0x29CD JUMPI PUSH1 0x0 DUP1 REVERT JUMPDEST DUP2 MLOAD PUSH1 0x1 PUSH1 0x1 PUSH1 0x40 SHL SUB DUP2 GT ISZERO PUSH2 0x29E3 JUMPI PUSH1 0x0 DUP1 REVERT JUMPDEST DUP3 ADD PUSH1 0x1F DUP2 ADD DUP5 SGT PUSH2 0x29F4 JUMPI PUSH1 0x0 DUP1 REVERT JUMPDEST DUP1 MLOAD PUSH2 0x29FF DUP2 PUSH2 0x33FD JUMP JUMPDEST PUSH1 0x40 MLOAD PUSH2 0x2A0C DUP3 DUP3 PUSH2 0x34ED JUMP JUMPDEST DUP3 DUP2 MSTORE DUP7 PUSH1 0x20 DUP5 DUP7 ADD ADD GT ISZERO PUSH2 0x2A21 JUMPI PUSH1 0x0 DUP1 REVERT JUMPDEST PUSH2 0x2A32 DUP4 PUSH1 0x20 DUP4 ADD PUSH1 0x20 DUP8 ADD PUSH2 0x3486 JUMP JUMPDEST SWAP7 SWAP6 POP POP POP POP POP POP JUMP JUMPDEST PUSH1 0x0 DUP1 PUSH1 0x0 PUSH1 0x60 DUP5 DUP7 SUB SLT ISZERO PUSH2 0x2A51 JUMPI PUSH1 0x0 DUP1 REVERT JUMPDEST DUP4 CALLDATALOAD PUSH1 0x1 PUSH1 0x1 PUSH1 0x40 SHL SUB DUP2 GT ISZERO PUSH2 0x2A67 JUMPI PUSH1 0x0 DUP1 REVERT JUMPDEST PUSH2 0x2A73 DUP7 DUP3 DUP8 ADD PUSH2 0x25DA JUMP JUMPDEST SWAP7 PUSH1 0x20 DUP7 ADD CALLDATALOAD SWAP7 POP PUSH1 0x40 SWAP1 SWAP6 ADD CALLDATALOAD SWAP5 SWAP4 POP POP POP POP JUMP JUMPDEST PUSH1 0x0 PUSH1 0x20 DUP3 DUP5 SUB SLT ISZERO PUSH2 0x2A9B JUMPI PUSH1 0x0 DUP1 REVERT JUMPDEST POP CALLDATALOAD SWAP2 SWAP1 POP JUMP JUMPDEST PUSH1 0x0 DUP1 PUSH1 0x0 PUSH1 0x60 DUP5 DUP7 SUB SLT ISZERO PUSH2 0x2AB7 JUMPI PUSH1 0x0 DUP1 REVERT JUMPDEST DUP4 CALLDATALOAD SWAP3 POP PUSH2 0x2AC7 PUSH1 0x20 DUP6 ADD PUSH2 0x2547 JUMP JUMPDEST SWAP2 POP PUSH1 0x40 DUP5 ADD CALLDATALOAD SWAP1 POP SWAP3 POP SWAP3 POP SWAP3 JUMP JUMPDEST PUSH1 0x0 DUP1 PUSH1 0x0 DUP1 PUSH1 0x0 DUP1 PUSH1 0xC0 DUP8 DUP10 SUB SLT ISZERO PUSH2 0x2AF0 JUMPI PUSH1 0x0 DUP1 REVERT JUMPDEST DUP7 CALLDATALOAD SWAP6 POP PUSH2 0x2B00 PUSH1 0x20 DUP9 ADD PUSH2 0x2636 JUMP JUMPDEST SWAP5 POP PUSH2 0x2B0E PUSH1 0x40 DUP9 ADD PUSH2 0x2636 JUMP JUMPDEST SWAP4 POP PUSH2 0x2B1C PUSH1 0x60 DUP9 ADD PUSH2 0x2636 JUMP JUMPDEST SWAP3 POP PUSH2 0x2B2A PUSH1 0x80 DUP9 ADD PUSH2 0x2636 JUMP JUMPDEST SWAP2 POP PUSH2 0x2B38 PUSH1 0xA0 DUP9 ADD PUSH2 0x2636 JUMP JUMPDEST SWAP1 POP SWAP3 SWAP6 POP SWAP3 SWAP6 POP SWAP3 SWAP6 JUMP JUMPDEST PUSH1 0x0 DUP1 PUSH1 0x40 DUP4 DUP6 SUB SLT ISZERO PUSH2 0x2B57 JUMPI PUSH1 0x0 DUP1 REVERT JUMPDEST POP POP DUP1 CALLDATALOAD SWAP3 PUSH1 0x20 SWAP1 SWAP2 ADD CALLDATALOAD SWAP2 POP JUMP JUMPDEST PUSH1 0x0 DUP2 MLOAD DUP1 DUP5 MSTORE PUSH1 0x20 DUP1 DUP6 ADD SWAP5 POP DUP1 DUP5 ADD PUSH1 0x0 JUMPDEST DUP4 DUP2 LT ISZERO PUSH2 0x2B96 JUMPI DUP2 MLOAD DUP8 MSTORE SWAP6 DUP3 ADD SWAP6 SWAP1 DUP3 ADD SWAP1 PUSH1 0x1 ADD PUSH2 0x2B7A JUMP JUMPDEST POP SWAP5 SWAP6 SWAP5 POP POP POP POP POP JUMP JUMPDEST PUSH1 0x0 DUP2 MLOAD DUP1 DUP5 MSTORE PUSH2 0x2BB9 DUP2 PUSH1 0x20 DUP7 ADD PUSH1 0x20 DUP7 ADD PUSH2 0x3486 JUMP JUMPDEST PUSH1 0x1F ADD PUSH1 0x1F NOT AND SWAP3 SWAP1 SWAP3 ADD PUSH1 0x20 ADD SWAP3 SWAP2 POP POP JUMP JUMPDEST PUSH1 0x0 DUP2 MLOAD PUSH2 0x2BDF DUP2 DUP6 PUSH1 0x20 DUP7 ADD PUSH2 0x3486 JUMP JUMPDEST SWAP3 SWAP1 SWAP3 ADD SWAP3 SWAP2 POP POP JUMP JUMPDEST DUP1 SLOAD PUSH1 0x0 SWAP1 PUSH1 0x1 DUP2 DUP2 SHR SWAP1 DUP1 DUP4 AND DUP1 PUSH2 0x2C03 JUMPI PUSH1 0x7F DUP4 AND SWAP3 POP JUMPDEST PUSH1 0x20 DUP1 DUP5 LT DUP3 EQ ISZERO PUSH2 0x2C25 JUMPI PUSH4 0x4E487B71 PUSH1 0xE0 SHL PUSH1 0x0 MSTORE PUSH1 0x22 PUSH1 0x4 MSTORE PUSH1 0x24 PUSH1 0x0 REVERT JUMPDEST DUP2 DUP1 ISZERO PUSH2 0x2C39 JUMPI PUSH1 0x1 DUP2 EQ PUSH2 0x2C4A JUMPI PUSH2 0x2C77 JUMP JUMPDEST PUSH1 0xFF NOT DUP7 AND DUP10 MSTORE DUP5 DUP10 ADD SWAP7 POP PUSH2 0x2C77 JUMP JUMPDEST PUSH1 0x0 DUP9 DUP2 MSTORE PUSH1 0x20 SWAP1 KECCAK256 PUSH1 0x0 JUMPDEST DUP7 DUP2 LT ISZERO PUSH2 0x2C6F JUMPI DUP2 SLOAD DUP12 DUP3 ADD MSTORE SWAP1 DUP6 ADD SWAP1 DUP4 ADD PUSH2 0x2C56 JUMP JUMPDEST POP POP DUP5 DUP10 ADD SWAP7 POP JUMPDEST POP POP POP POP POP POP SWAP3 SWAP2 POP POP JUMP JUMPDEST PUSH1 0x0 DUP3 MLOAD PUSH2 0x2C95 DUP2 DUP5 PUSH1 0x20 DUP8 ADD PUSH2 0x3486 JUMP JUMPDEST SWAP2 SWAP1 SWAP2 ADD SWAP3 SWAP2 POP POP JUMP JUMPDEST PUSH1 0x0 DUP7 MLOAD PUSH2 0x2CB1 DUP2 DUP5 PUSH1 0x20 DUP12 ADD PUSH2 0x3486 JUMP JUMPDEST DUP1 DUP4 ADD SWAP1 POP PUSH32 0x7B2274726169745F74797065223A2022476F616C73222C2276616C7565223A20 DUP2 MSTORE PUSH1 0x11 PUSH1 0xF9 SHL PUSH1 0x20 DUP3 ADD MSTORE DUP7 MLOAD PUSH2 0x2CF6 DUP2 PUSH1 0x21 DUP5 ADD PUSH1 0x20 DUP12 ADD PUSH2 0x3486 JUMP JUMPDEST PUSH32 0x227D2C7B2274726169745F74797065223A20224C6576656C222C2276616C7565 PUSH1 0x21 SWAP3 SWAP1 SWAP2 ADD SWAP2 DUP3 ADD MSTORE PUSH4 0x111D1011 PUSH1 0xE1 SHL PUSH1 0x41 DUP3 ADD DUP2 SWAP1 MSTORE DUP7 MLOAD PUSH2 0x2D43 DUP2 PUSH1 0x45 DUP6 ADD PUSH1 0x20 DUP12 ADD PUSH2 0x3486 JUMP JUMPDEST PUSH32 0x227D2C7B2274726169745F74797065223A20225361766573222C2276616C7565 PUSH1 0x45 SWAP4 SWAP1 SWAP2 ADD SWAP3 DUP4 ADD MSTORE PUSH1 0x65 DUP3 ADD MSTORE DUP5 MLOAD PUSH2 0x2D86 DUP2 PUSH1 0x69 DUP5 ADD PUSH1 0x20 DUP10 ADD PUSH2 0x3486 JUMP JUMPDEST PUSH32 0x227D2C7B2274726169745F74797065223A2022417373697374222C2276616C75 PUSH1 0x69 SWAP3 SWAP1 SWAP2 ADD SWAP2 DUP3 ADD MSTORE PUSH5 0x32911D1011 PUSH1 0xD9 SHL PUSH1 0x89 DUP3 ADD MSTORE PUSH2 0x2DDF PUSH2 0x2DCF PUSH1 0x8E DUP4 ADD DUP7 PUSH2 0x2BCD JUMP JUMPDEST PUSH4 0x227D5D7D PUSH1 0xE0 SHL DUP2 MSTORE PUSH1 0x4 ADD SWAP1 JUMP JUMPDEST SWAP9 SWAP8 POP POP POP POP POP POP POP POP JUMP JUMPDEST PUSH1 0x0 DUP7 MLOAD PUSH1 0x20 PUSH2 0x2DFE DUP3 DUP6 DUP4 DUP13 ADD PUSH2 0x3486 JUMP JUMPDEST PUSH32 0x7B2274726169745F74797065223A20224E616D65222C2276616C7565223A2022 SWAP2 DUP5 ADD SWAP2 DUP3 MSTORE DUP8 MLOAD PUSH2 0x2E36 DUP2 DUP4 DUP6 ADD DUP5 DUP13 ADD PUSH2 0x3486 JUMP JUMPDEST PUSH32 0x227D2C7B2274726169745F74797065223A2022506F736974696F6E222C227661 SWAP3 ADD DUP2 DUP2 ADD SWAP3 SWAP1 SWAP3 MSTORE PUSH7 0x363AB2911D1011 PUSH1 0xC9 SHL PUSH1 0x40 DUP4 ADD DUP2 SWAP1 MSTORE DUP8 MLOAD PUSH2 0x2E84 DUP2 PUSH1 0x47 DUP7 ADD DUP12 DUP7 ADD PUSH2 0x3486 JUMP JUMPDEST PUSH32 0x227D2C7B2274726169745F74797065223A202247616D65706C6179222C227661 PUSH1 0x47 SWAP5 SWAP1 SWAP2 ADD SWAP4 DUP5 ADD MSTORE PUSH1 0x67 DUP4 ADD MSTORE DUP6 MLOAD PUSH2 0x2EC6 DUP2 PUSH1 0x6E DUP6 ADD DUP5 DUP11 ADD PUSH2 0x3486 JUMP JUMPDEST PUSH32 0x227D2C7B2274726169745F74797065223A202247616D6573222C2276616C7565 PUSH1 0x6E SWAP4 SWAP1 SWAP2 ADD SWAP3 DUP4 ADD MSTORE POP PUSH4 0x111D1011 PUSH1 0xE1 SHL PUSH1 0x8E DUP3 ADD MSTORE PUSH2 0x2DDF PUSH2 0x2F0F PUSH1 0x92 DUP4 ADD DUP7 PUSH2 0x2BCD JUMP JUMPDEST PUSH3 0x89F4B PUSH1 0xEA SHL DUP2 MSTORE PUSH1 0x3 ADD SWAP1 JUMP JUMPDEST PUSH1 0x0 PUSH2 0xD17 DUP3 DUP5 PUSH2 0x2BE9 JUMP JUMPDEST PUSH10 0x2A32B0B69027232A109 PUSH1 0xB5 SHL DUP2 MSTORE PUSH1 0x0 PUSH2 0xD17 PUSH1 0xA DUP4 ADD DUP5 PUSH2 0x2BE9 JUMP JUMPDEST PUSH12 0x2AB734B8BAB29027232A109 PUSH1 0xA5 SHL DUP2 MSTORE PUSH1 0x0 PUSH2 0xD17 PUSH1 0xC DUP4 ADD DUP5 PUSH2 0x2BE9 JUMP JUMPDEST PUSH9 0x283630B1B29018909 PUSH1 0xBD SHL DUP2 MSTORE PUSH1 0x0 PUSH2 0xD17 PUSH1 0x9 DUP4 ADD DUP5 PUSH2 0x2BE9 JUMP JUMPDEST PUSH10 0x3D913730B6B2911D1011 PUSH1 0xB1 SHL DUP2 MSTORE DUP4 MLOAD PUSH1 0x0 SWAP1 PUSH2 0x2FAE DUP2 PUSH1 0xA DUP6 ADD PUSH1 0x20 DUP10 ADD PUSH2 0x3486 JUMP JUMPDEST PUSH19 0x111610113232B9B1B934B83A34B7B7111D1011 PUSH1 0x69 SHL PUSH1 0xA SWAP2 DUP5 ADD SWAP2 DUP3 ADD MSTORE DUP5 MLOAD PUSH2 0x2FE1 DUP2 PUSH1 0x1D DUP5 ADD PUSH1 0x20 DUP10 ADD PUSH2 0x3486 JUMP JUMPDEST PUSH32 0x222C2022696D616765223A2022646174613A696D6167652F7376672B786D6C3B PUSH1 0x1D SWAP3 SWAP1 SWAP2 ADD SWAP2 DUP3 ADD MSTORE PUSH7 0x18985CD94D8D0B PUSH1 0xCA SHL PUSH1 0x3D DUP3 ADD MSTORE DUP4 MLOAD PUSH2 0x302F DUP2 PUSH1 0x44 DUP5 ADD PUSH1 0x20 DUP9 ADD PUSH2 0x3486 JUMP JUMPDEST PUSH18 0x222C202261747472696275746573223A205B PUSH1 0x70 SHL PUSH1 0x44 SWAP3 SWAP1 SWAP2 ADD SWAP2 DUP3 ADD MSTORE PUSH1 0x56 ADD SWAP6 SWAP5 POP POP POP POP POP JUMP JUMPDEST PUSH9 0x283630B1B29019909 PUSH1 0xBD SHL DUP2 MSTORE PUSH1 0x0 PUSH2 0xD17 PUSH1 0x9 DUP4 ADD DUP5 PUSH2 0x2BE9 JUMP JUMPDEST PUSH32 0x646174613A6170706C69636174696F6E2F6A736F6E3B6261736536342C000000 DUP2 MSTORE PUSH1 0x0 DUP3 MLOAD PUSH2 0x30B1 DUP2 PUSH1 0x1D DUP6 ADD PUSH1 0x20 DUP8 ADD PUSH2 0x3486 JUMP JUMPDEST SWAP2 SWAP1 SWAP2 ADD PUSH1 0x1D ADD SWAP3 SWAP2 POP POP JUMP JUMPDEST PUSH9 0x283630B1B29019109 PUSH1 0xBD SHL DUP2 MSTORE PUSH1 0x0 PUSH2 0xD17 PUSH1 0x9 DUP4 ADD DUP5 PUSH2 0x2BE9 JUMP JUMPDEST PUSH1 0x1 PUSH1 0x1 PUSH1 0xA0 SHL SUB DUP7 DUP2 AND DUP3 MSTORE DUP6 AND PUSH1 0x20 DUP3 ADD MSTORE PUSH1 0xA0 PUSH1 0x40 DUP3 ADD DUP2 SWAP1 MSTORE PUSH1 0x0 SWAP1 PUSH2 0x3108 SWAP1 DUP4 ADD DUP7 PUSH2 0x2B66 JUMP JUMPDEST DUP3 DUP2 SUB PUSH1 0x60 DUP5 ADD MSTORE PUSH2 0x311A DUP2 DUP7 PUSH2 0x2B66 JUMP JUMPDEST SWAP1 POP DUP3 DUP2 SUB PUSH1 0x80 DUP5 ADD MSTORE PUSH2 0x2DDF DUP2 DUP6 PUSH2 0x2BA1 JUMP JUMPDEST PUSH1 0x1 PUSH1 0x1 PUSH1 0xA0 SHL SUB DUP7 DUP2 AND DUP3 MSTORE DUP6 AND PUSH1 0x20 DUP3 ADD MSTORE PUSH1 0x40 DUP2 ADD DUP5 SWAP1 MSTORE PUSH1 0x60 DUP2 ADD DUP4 SWAP1 MSTORE PUSH1 0xA0 PUSH1 0x80 DUP3 ADD DUP2 SWAP1 MSTORE PUSH1 0x0 SWAP1 PUSH2 0x3168 SWAP1 DUP4 ADD DUP5 PUSH2 0x2BA1 JUMP JUMPDEST SWAP8 SWAP7 POP POP POP POP POP POP POP JUMP JUMPDEST PUSH1 0x20 DUP1 DUP3 MSTORE DUP3 MLOAD DUP3 DUP3 ADD DUP2 SWAP1 MSTORE PUSH1 0x0 SWAP2 SWAP1 DUP5 DUP3 ADD SWAP1 PUSH1 0x40 DUP6 ADD SWAP1 DUP5 JUMPDEST DUP2 DUP2 LT ISZERO PUSH2 0x31B4 JUMPI DUP4 MLOAD PUSH1 0x1 PUSH1 0x1 PUSH1 0xA0 SHL SUB AND DUP4 MSTORE SWAP3 DUP5 ADD SWAP3 SWAP2 DUP5 ADD SWAP2 PUSH1 0x1 ADD PUSH2 0x318F JUMP JUMPDEST POP SWAP1 SWAP7 SWAP6 POP POP POP POP POP POP JUMP JUMPDEST PUSH1 0x20 DUP2 MSTORE PUSH1 0x0 PUSH2 0xD17 PUSH1 0x20 DUP4 ADD DUP5 PUSH2 0x2B66 JUMP JUMPDEST PUSH1 0x40 DUP2 MSTORE PUSH1 0x0 PUSH2 0x31E6 PUSH1 0x40 DUP4 ADD DUP6 PUSH2 0x2B66 JUMP JUMPDEST DUP3 DUP2 SUB PUSH1 0x20 DUP5 ADD MSTORE PUSH2 0x31F8 DUP2 DUP6 PUSH2 0x2B66 JUMP JUMPDEST SWAP6 SWAP5 POP POP POP POP POP JUMP JUMPDEST PUSH1 0x20 DUP2 MSTORE PUSH1 0x0 PUSH2 0xD17 PUSH1 0x20 DUP4 ADD DUP5 PUSH2 0x2BA1 JUMP JUMPDEST PUSH1 0x20 DUP1 DUP3 MSTORE PUSH1 0x28 SWAP1 DUP3 ADD MSTORE PUSH32 0x455243313135353A204552433131353552656365697665722072656A65637465 PUSH1 0x40 DUP3 ADD MSTORE PUSH8 0x6420746F6B656E73 PUSH1 0xC0 SHL PUSH1 0x60 DUP3 ADD MSTORE PUSH1 0x80 ADD SWAP1 JUMP JUMPDEST PUSH1 0x20 DUP1 DUP3 MSTORE PUSH1 0x15 SWAP1 DUP3 ADD MSTORE PUSH21 0x139BDD0813DDDB995C881BD98810DBDB9D1C9858DD PUSH1 0x5A SHL PUSH1 0x40 DUP3 ADD MSTORE PUSH1 0x60 ADD SWAP1 JUMP JUMPDEST PUSH1 0x20 DUP1 DUP3 MSTORE PUSH1 0x25 SWAP1 DUP3 ADD MSTORE PUSH32 0x455243313135353A207472616E7366657220746F20746865207A65726F206164 PUSH1 0x40 DUP3 ADD MSTORE PUSH5 0x6472657373 PUSH1 0xD8 SHL PUSH1 0x60 DUP3 ADD MSTORE PUSH1 0x80 ADD SWAP1 JUMP JUMPDEST PUSH1 0x20 DUP1 DUP3 MSTORE PUSH1 0x2A SWAP1 DUP3 ADD MSTORE PUSH32 0x455243313135353A20696E73756666696369656E742062616C616E636520666F PUSH1 0x40 DUP3 ADD MSTORE PUSH10 0x39103A3930B739B332B9 PUSH1 0xB1 SHL PUSH1 0x60 DUP3 ADD MSTORE PUSH1 0x80 ADD SWAP1 JUMP JUMPDEST PUSH1 0x80 DUP2 MSTORE DUP5 MLOAD PUSH1 0x80 DUP3 ADD MSTORE PUSH1 0x20 DUP6 ADD MLOAD PUSH1 0xA0 DUP3 ADD MSTORE PUSH1 0x40 DUP6 ADD MLOAD PUSH1 0xC0 DUP3 ADD MSTORE PUSH1 0x60 DUP6 ADD MLOAD PUSH1 0xE0 DUP3 ADD MSTORE PUSH1 0x0 PUSH1 0x80 DUP7 ADD MLOAD PUSH2 0x100 DUP2 DUP2 DUP6 ADD MSTORE PUSH1 0xA0 DUP9 ADD MLOAD SWAP2 POP PUSH2 0x120 DUP3 DUP2 DUP7 ADD MSTORE PUSH1 0xC0 DUP10 ADD MLOAD SWAP3 POP DUP1 PUSH2 0x140 DUP7 ADD MSTORE POP PUSH2 0x337E PUSH2 0x1A0 DUP6 ADD DUP4 PUSH2 0x2BA1 JUMP JUMPDEST SWAP2 POP PUSH1 0xE0 DUP9 ADD MLOAD PUSH1 0x7F NOT DUP1 DUP7 DUP6 SUB ADD PUSH2 0x160 DUP8 ADD MSTORE PUSH2 0x339D DUP5 DUP4 PUSH2 0x2BA1 JUMP JUMPDEST SWAP4 POP DUP3 DUP11 ADD MLOAD SWAP3 POP DUP1 DUP7 DUP6 SUB ADD PUSH2 0x180 DUP8 ADD MSTORE POP POP PUSH2 0x33BC DUP3 DUP3 PUSH2 0x2BA1 JUMP JUMPDEST PUSH1 0x20 DUP6 ADD SWAP8 SWAP1 SWAP8 MSTORE POP POP POP PUSH1 0x40 DUP2 ADD SWAP3 SWAP1 SWAP3 MSTORE PUSH1 0x60 SWAP1 SWAP2 ADD MSTORE SWAP2 SWAP1 POP JUMP JUMPDEST PUSH1 0x0 PUSH1 0x1 PUSH1 0x1 PUSH1 0x40 SHL SUB DUP3 GT ISZERO PUSH2 0x33F3 JUMPI PUSH2 0x33F3 PUSH2 0x358A JUMP JUMPDEST POP PUSH1 0x5 SHL PUSH1 0x20 ADD SWAP1 JUMP JUMPDEST PUSH1 0x0 PUSH1 0x1 PUSH1 0x1 PUSH1 0x40 SHL SUB DUP3 GT ISZERO PUSH2 0x3416 JUMPI PUSH2 0x3416 PUSH2 0x358A JUMP JUMPDEST POP PUSH1 0x1F ADD PUSH1 0x1F NOT AND PUSH1 0x20 ADD SWAP1 JUMP JUMPDEST PUSH1 0x0 DUP3 NOT DUP3 GT ISZERO PUSH2 0x3437 JUMPI PUSH2 0x3437 PUSH2 0x3548 JUMP JUMPDEST POP ADD SWAP1 JUMP JUMPDEST PUSH1 0x0 DUP3 PUSH2 0x344B JUMPI PUSH2 0x344B PUSH2 0x355E JUMP JUMPDEST POP DIV SWAP1 JUMP JUMPDEST PUSH1 0x0 DUP2 PUSH1 0x0 NOT DIV DUP4 GT DUP3 ISZERO ISZERO AND ISZERO PUSH2 0x346A JUMPI PUSH2 0x346A PUSH2 0x3548 JUMP JUMPDEST POP MUL SWAP1 JUMP JUMPDEST PUSH1 0x0 DUP3 DUP3 LT ISZERO PUSH2 0x3481 JUMPI PUSH2 0x3481 PUSH2 0x3548 JUMP JUMPDEST POP SUB SWAP1 JUMP JUMPDEST PUSH1 0x0 JUMPDEST DUP4 DUP2 LT ISZERO PUSH2 0x34A1 JUMPI DUP2 DUP2 ADD MLOAD DUP4 DUP3 ADD MSTORE PUSH1 0x20 ADD PUSH2 0x3489 JUMP JUMPDEST DUP4 DUP2 GT ISZERO PUSH2 0x14D3 JUMPI POP POP PUSH1 0x0 SWAP2 ADD MSTORE JUMP JUMPDEST PUSH1 0x1 DUP2 DUP2 SHR SWAP1 DUP3 AND DUP1 PUSH2 0x34C6 JUMPI PUSH1 0x7F DUP3 AND SWAP2 POP JUMPDEST PUSH1 0x20 DUP3 LT DUP2 EQ ISZERO PUSH2 0x34E7 JUMPI PUSH4 0x4E487B71 PUSH1 0xE0 SHL PUSH1 0x0 MSTORE PUSH1 0x22 PUSH1 0x4 MSTORE PUSH1 0x24 PUSH1 0x0 REVERT JUMPDEST POP SWAP2 SWAP1 POP JUMP JUMPDEST PUSH1 0x1F DUP3 ADD PUSH1 0x1F NOT AND DUP2 ADD PUSH1 0x1 PUSH1 0x1 PUSH1 0x40 SHL SUB DUP2 GT DUP3 DUP3 LT OR ISZERO PUSH2 0x3512 JUMPI PUSH2 0x3512 PUSH2 0x358A JUMP JUMPDEST PUSH1 0x40 MSTORE POP POP JUMP JUMPDEST PUSH1 0x0 PUSH1 0x0 NOT DUP3 EQ ISZERO PUSH2 0x352D JUMPI PUSH2 0x352D PUSH2 0x3548 JUMP JUMPDEST POP PUSH1 0x1 ADD SWAP1 JUMP JUMPDEST PUSH1 0x0 DUP3 PUSH2 0x3543 JUMPI PUSH2 0x3543 PUSH2 0x355E JUMP JUMPDEST POP MOD SWAP1 JUMP JUMPDEST PUSH4 0x4E487B71 PUSH1 0xE0 SHL PUSH1 0x0 MSTORE PUSH1 0x11 PUSH1 0x4 MSTORE PUSH1 0x24 PUSH1 0x0 REVERT JUMPDEST PUSH4 0x4E487B71 PUSH1 0xE0 SHL PUSH1 0x0 MSTORE PUSH1 0x12 PUSH1 0x4 MSTORE PUSH1 0x24 PUSH1 0x0 REVERT JUMPDEST PUSH4 0x4E487B71 PUSH1 0xE0 SHL PUSH1 0x0 MSTORE PUSH1 0x32 PUSH1 0x4 MSTORE PUSH1 0x24 PUSH1 0x0 REVERT JUMPDEST PUSH4 0x4E487B71 PUSH1 0xE0 SHL PUSH1 0x0 MSTORE PUSH1 0x41 PUSH1 0x4 MSTORE PUSH1 0x24 PUSH1 0x0 REVERT JUMPDEST PUSH1 0x0 PUSH1 0x3 RETURNDATASIZE GT ISZERO PUSH2 0x35B9 JUMPI PUSH1 0x4 PUSH1 0x0 DUP1 RETURNDATACOPY POP PUSH1 0x0 MLOAD PUSH1 0xE0 SHR JUMPDEST SWAP1 JUMP JUMPDEST PUSH1 0x0 PUSH1 0x44 RETURNDATASIZE LT ISZERO PUSH2 0x35CA JUMPI SWAP1 JUMP JUMPDEST PUSH1 0x40 MLOAD PUSH1 0x3 NOT RETURNDATASIZE DUP2 ADD PUSH1 0x4 DUP4 RETURNDATACOPY DUP2 MLOAD RETURNDATASIZE PUSH1 0x1 PUSH1 0x1 PUSH1 0x40 SHL SUB DUP2 PUSH1 0x24 DUP5 ADD GT DUP2 DUP5 GT OR ISZERO PUSH2 0x35F9 JUMPI POP POP POP POP POP SWAP1 JUMP JUMPDEST DUP3 DUP6 ADD SWAP2 POP DUP2 MLOAD DUP2 DUP2 GT ISZERO PUSH2 0x3611 JUMPI POP POP POP POP POP POP SWAP1 JUMP JUMPDEST DUP5 RETURNDATASIZE DUP8 ADD ADD PUSH1 0x20 DUP3 DUP6 ADD ADD GT ISZERO PUSH2 0x362B JUMPI POP POP POP POP POP POP SWAP1 JUMP JUMPDEST PUSH2 0x363A PUSH1 0x20 DUP3 DUP7 ADD ADD DUP8 PUSH2 0x34ED JUMP JUMPDEST POP SWAP1 SWAP6 SWAP5 POP POP POP POP POP JUMP JUMPDEST PUSH1 0x1 PUSH1 0x1 PUSH1 0xE0 SHL SUB NOT DUP2 AND DUP2 EQ PUSH2 0x365B JUMPI PUSH1 0x0 DUP1 REVERT JUMPDEST POP JUMP INVALID COINBASE TIMESTAMP NUMBER DIFFICULTY GASLIMIT CHAINID SELFBALANCE BASEFEE 0x49 0x4A 0x4B 0x4C 0x4D 0x4E 0x4F POP MLOAD MSTORE MSTORE8 SLOAD SSTORE JUMP JUMPI PC MSIZE GAS PUSH2 0x6263 PUSH5 0x6566676869 PUSH11 0x6B6C6D6E6F707172737475 PUSH23 0x7778797A303132333435363738392B2FA2646970667358 0x22 SLT KECCAK256 0xED ADD 0xF8 0xAA CREATE COINBASE 0xFC CREATE2 0xBA 0xFC 0xAF SWAP10 ADDMOD 0xEA CALL CALLDATALOAD SWAP5 0xCB 0xC7 0xD3 DUP5 0xAE BASEFEE PUSH30 0x4D42F646C73084DF64736F6C63430008070033446973636C61696D65723A KECCAK256 SLOAD PUSH9 0x652073636F7065206F PUSH7 0x20746865207072 PUSH16 0x6A6563742069732077697468696E2074 PUSH9 0x6520426C6F636B6368 PUSH2 0x696E KECCAK256 NUMBER PUSH9 0x616C6C656E67652032 ADDRESS ORIGIN ORIGIN KECCAK256 PUSH13 0x656374757265206F6666657265 PUSH5 0x2062792074 PUSH9 0x6520556E6976657273 PUSH10 0x7479206F662042617365 PUSH13 0x2E205468652070726F6A656374 KECCAK256 PUSH24 0x696C6C2072656D61696E2077697468696E20746865207465 PUSH20 0x74206E65742E20546865204E4654732077696C6C KECCAK256 PUSH15 0x6576657220626520736F6C64206E6F PUSH19 0x20697320746865726520616E792066696E616E PUSH4 0x69616C20 PUSH10 0x6E746572657374206174 KECCAK256 PUSH9 0x616E64206279207468 PUSH6 0x206F776E6572 PUSH20 0x206F722074686520636F7572736520726573706F PUSH15 0x7369626C652E000000000000000000 "
		},
		"gasEstimates": {
			"creation": {
				"codeDepositCost": "2807200",
				"executionCost": "infinite",
				"totalCost": "infinite"
			},
			"external": {
				"addDistribution(uint256[])": "infinite",
				"addScore(uint256,uint256)": "26745",
				"balanceOf(address,uint256)": "2695",
				"balanceOfBatch(address[],uint256[])": "infinite",
				"burnPlayer(uint256,address,uint256)": "infinite",
				"changeMintingProcess(address,address)": "infinite",
				"changeOwner(address)": "26800",
				"getAddresses()": "infinite",
				"getScoreFromPlayer(uint256)": "infinite",
				"isApprovedForAll(address,address)": "infinite",
				"mintPlayer(uint256,address,uint256)": "infinite",
				"safeBatchTransferFrom(address,address,uint256[],uint256[],bytes)": "infinite",
				"safeTransferFrom(address,address,uint256,uint256,bytes)": "infinite",
				"setApprovalForAll(address,bool)": "26731",
				"supportsInterface(bytes4)": "567",
				"updateDesciption(string)": "infinite",
				"updatePlayer(uint256,uint16,uint16,uint16,uint16,uint16)": "infinite",
				"upgradePlayer(string,uint256,uint256)": "infinite",
				"uri(uint256)": "infinite"
			},
			"internal": {
				"_addPlayer(string memory,string memory,uint16,uint16,uint16,uint16,uint16,string memory)": "infinite"
			}
		},
		"methodIdentifiers": {
			"addDistribution(uint256[])": "d1ae4ea4",
			"addScore(uint256,uint256)": "ddcbf794",
			"balanceOf(address,uint256)": "00fdd58e",
			"balanceOfBatch(address[],uint256[])": "4e1273f4",
			"burnPlayer(uint256,address,uint256)": "995c9d77",
			"changeMintingProcess(address,address)": "c236fe44",
			"changeOwner(address)": "a6f9dae1",
			"getAddresses()": "a39fac12",
			"getScoreFromPlayer(uint256)": "203da719",
			"isApprovedForAll(address,address)": "e985e9c5",
			"mintPlayer(uint256,address,uint256)": "3feb9f7d",
			"safeBatchTransferFrom(address,address,uint256[],uint256[],bytes)": "2eb2c2d6",
			"safeTransferFrom(address,address,uint256,uint256,bytes)": "f242432a",
			"setApprovalForAll(address,bool)": "a22cb465",
			"supportsInterface(bytes4)": "01ffc9a7",
			"updateDesciption(string)": "85ade74f",
			"updatePlayer(uint256,uint16,uint16,uint16,uint16,uint16)": "5c7a8d27",
			"upgradePlayer(string,uint256,uint256)": "ee75de03",
			"uri(uint256)": "0e89341c"
		}
	},
	"abi": [
		{
			"inputs": [
				{
					"internalType": "address",
					"name": "_getPlayerSVG",
					"type": "address"
				}
			],
			"stateMutability": "nonpayable",
			"type": "constructor"
		},
		{
			"anonymous": false,
			"inputs": [
				{
					"indexed": true,
					"internalType": "address",
					"name": "account",
					"type": "address"
				},
				{
					"indexed": true,
					"internalType": "address",
					"name": "operator",
					"type": "address"
				},
				{
					"indexed": false,
					"internalType": "bool",
					"name": "approved",
					"type": "bool"
				}
			],
			"name": "ApprovalForAll",
			"type": "event"
		},
		{
			"anonymous": false,
			"inputs": [
				{
					"indexed": false,
					"internalType": "uint256",
					"name": "idx",
					"type": "uint256"
				},
				{
					"indexed": true,
					"internalType": "address",
					"name": "nftOwner",
					"type": "address"
				},
				{
					"indexed": false,
					"internalType": "uint256",
					"name": "numberOfPlayer",
					"type": "uint256"
				}
			],
			"name": "Minting",
			"type": "event"
		},
		{
			"anonymous": false,
			"inputs": [
				{
					"indexed": true,
					"internalType": "address",
					"name": "operator",
					"type": "address"
				},
				{
					"indexed": true,
					"internalType": "address",
					"name": "from",
					"type": "address"
				},
				{
					"indexed": true,
					"internalType": "address",
					"name": "to",
					"type": "address"
				},
				{
					"indexed": false,
					"internalType": "uint256[]",
					"name": "ids",
					"type": "uint256[]"
				},
				{
					"indexed": false,
					"internalType": "uint256[]",
					"name": "values",
					"type": "uint256[]"
				}
			],
			"name": "TransferBatch",
			"type": "event"
		},
		{
			"anonymous": false,
			"inputs": [
				{
					"indexed": true,
					"internalType": "address",
					"name": "operator",
					"type": "address"
				},
				{
					"indexed": true,
					"internalType": "address",
					"name": "from",
					"type": "address"
				},
				{
					"indexed": true,
					"internalType": "address",
					"name": "to",
					"type": "address"
				},
				{
					"indexed": false,
					"internalType": "uint256",
					"name": "id",
					"type": "uint256"
				},
				{
					"indexed": false,
					"internalType": "uint256",
					"name": "value",
					"type": "uint256"
				}
			],
			"name": "TransferSingle",
			"type": "event"
		},
		{
			"anonymous": false,
			"inputs": [
				{
					"indexed": false,
					"internalType": "string",
					"name": "value",
					"type": "string"
				},
				{
					"indexed": true,
					"internalType": "uint256",
					"name": "id",
					"type": "uint256"
				}
			],
			"name": "URI",
			"type": "event"
		},
		{
			"inputs": [
				{
					"internalType": "uint256[]",
					"name": "_distributionForRaffel",
					"type": "uint256[]"
				}
			],
			"name": "addDistribution",
			"outputs": [],
			"stateMutability": "nonpayable",
			"type": "function"
		},
		{
			"inputs": [
				{
					"internalType": "uint256",
					"name": "tokenId",
					"type": "uint256"
				},
				{
					"internalType": "uint256",
					"name": "_score",
					"type": "uint256"
				}
			],
			"name": "addScore",
			"outputs": [],
			"stateMutability": "nonpayable",
			"type": "function"
		},
		{
			"inputs": [
				{
					"internalType": "address",
					"name": "account",
					"type": "address"
				},
				{
					"internalType": "uint256",
					"name": "id",
					"type": "uint256"
				}
			],
			"name": "balanceOf",
			"outputs": [
				{
					"internalType": "uint256",
					"name": "",
					"type": "uint256"
				}
			],
			"stateMutability": "view",
			"type": "function"
		},
		{
			"inputs": [
				{
					"internalType": "address[]",
					"name": "accounts",
					"type": "address[]"
				},
				{
					"internalType": "uint256[]",
					"name": "ids",
					"type": "uint256[]"
				}
			],
			"name": "balanceOfBatch",
			"outputs": [
				{
					"internalType": "uint256[]",
					"name": "",
					"type": "uint256[]"
				}
			],
			"stateMutability": "view",
			"type": "function"
		},
		{
			"inputs": [
				{
					"internalType": "uint256",
					"name": "_idx",
					"type": "uint256"
				},
				{
					"internalType": "address",
					"name": "nftOwner",
					"type": "address"
				},
				{
					"internalType": "uint256",
					"name": "numberOfPlayer",
					"type": "uint256"
				}
			],
			"name": "burnPlayer",
			"outputs": [],
			"stateMutability": "nonpayable",
			"type": "function"
		},
		{
			"inputs": [
				{
					"internalType": "address",
					"name": "_contractOfMintingProcess",
					"type": "address"
				},
				{
					"internalType": "address",
					"name": "__contractOfInterface",
					"type": "address"
				}
			],
			"name": "changeMintingProcess",
			"outputs": [],
			"stateMutability": "nonpayable",
			"type": "function"
		},
		{
			"inputs": [
				{
					"internalType": "address",
					"name": "_newOwner",
					"type": "address"
				}
			],
			"name": "changeOwner",
			"outputs": [],
			"stateMutability": "nonpayable",
			"type": "function"
		},
		{
			"inputs": [],
			"name": "getAddresses",
			"outputs": [
				{
					"internalType": "address[]",
					"name": "nft_addresses",
					"type": "address[]"
				}
			],
			"stateMutability": "view",
			"type": "function"
		},
		{
			"inputs": [
				{
					"internalType": "uint256",
					"name": "tokenId",
					"type": "uint256"
				}
			],
			"name": "getScoreFromPlayer",
			"outputs": [
				{
					"internalType": "uint256",
					"name": "_score",
					"type": "uint256"
				}
			],
			"stateMutability": "view",
			"type": "function"
		},
		{
			"inputs": [
				{
					"internalType": "address",
					"name": "account",
					"type": "address"
				},
				{
					"internalType": "address",
					"name": "operator",
					"type": "address"
				}
			],
			"name": "isApprovedForAll",
			"outputs": [
				{
					"internalType": "bool",
					"name": "",
					"type": "bool"
				}
			],
			"stateMutability": "view",
			"type": "function"
		},
		{
			"inputs": [
				{
					"internalType": "uint256",
					"name": "idx",
					"type": "uint256"
				},
				{
					"internalType": "address",
					"name": "nftOwner",
					"type": "address"
				},
				{
					"internalType": "uint256",
					"name": "numberOfPlayer",
					"type": "uint256"
				}
			],
			"name": "mintPlayer",
			"outputs": [],
			"stateMutability": "nonpayable",
			"type": "function"
		},
		{
			"inputs": [
				{
					"internalType": "address",
					"name": "from",
					"type": "address"
				},
				{
					"internalType": "address",
					"name": "to",
					"type": "address"
				},
				{
					"internalType": "uint256[]",
					"name": "ids",
					"type": "uint256[]"
				},
				{
					"internalType": "uint256[]",
					"name": "amounts",
					"type": "uint256[]"
				},
				{
					"internalType": "bytes",
					"name": "data",
					"type": "bytes"
				}
			],
			"name": "safeBatchTransferFrom",
			"outputs": [],
			"stateMutability": "nonpayable",
			"type": "function"
		},
		{
			"inputs": [
				{
					"internalType": "address",
					"name": "from",
					"type": "address"
				},
				{
					"internalType": "address",
					"name": "to",
					"type": "address"
				},
				{
					"internalType": "uint256",
					"name": "id",
					"type": "uint256"
				},
				{
					"internalType": "uint256",
					"name": "amount",
					"type": "uint256"
				},
				{
					"internalType": "bytes",
					"name": "data",
					"type": "bytes"
				}
			],
			"name": "safeTransferFrom",
			"outputs": [],
			"stateMutability": "nonpayable",
			"type": "function"
		},
		{
			"inputs": [
				{
					"internalType": "address",
					"name": "operator",
					"type": "address"
				},
				{
					"internalType": "bool",
					"name": "approved",
					"type": "bool"
				}
			],
			"name": "setApprovalForAll",
			"outputs": [],
			"stateMutability": "nonpayable",
			"type": "function"
		},
		{
			"inputs": [
				{
					"internalType": "bytes4",
					"name": "interfaceId",
					"type": "bytes4"
				}
			],
			"name": "supportsInterface",
			"outputs": [
				{
					"internalType": "bool",
					"name": "",
					"type": "bool"
				}
			],
			"stateMutability": "view",
			"type": "function"
		},
		{
			"inputs": [
				{
					"internalType": "string",
					"name": "_img_description",
					"type": "string"
				}
			],
			"name": "updateDesciption",
			"outputs": [],
			"stateMutability": "nonpayable",
			"type": "function"
		},
		{
			"inputs": [
				{
					"internalType": "uint256",
					"name": "player",
					"type": "uint256"
				},
				{
					"internalType": "uint16",
					"name": "_gameplay",
					"type": "uint16"
				},
				{
					"internalType": "uint16",
					"name": "_numberOfGames",
					"type": "uint16"
				},
				{
					"internalType": "uint16",
					"name": "_goals",
					"type": "uint16"
				},
				{
					"internalType": "uint16",
					"name": "_assist",
					"type": "uint16"
				},
				{
					"internalType": "uint16",
					"name": "_saves",
					"type": "uint16"
				}
			],
			"name": "updatePlayer",
			"outputs": [],
			"stateMutability": "nonpayable",
			"type": "function"
		},
		{
			"inputs": [
				{
					"internalType": "string",
					"name": "_playerName",
					"type": "string"
				},
				{
					"internalType": "uint256",
					"name": "_level",
					"type": "uint256"
				},
				{
					"internalType": "uint256",
					"name": "_numberOfUpgrades",
					"type": "uint256"
				}
			],
			"name": "upgradePlayer",
			"outputs": [],
			"stateMutability": "nonpayable",
			"type": "function"
		},
		{
			"inputs": [
				{
					"internalType": "uint256",
					"name": "tokenId",
					"type": "uint256"
				}
			],
			"name": "uri",
			"outputs": [
				{
					"internalType": "string",
					"name": "output",
					"type": "string"
				}
			],
			"stateMutability": "view",
			"type": "function"
		}
	]
}